{
  "_format": "hh-sol-artifact-1",
  "contractName": "Adam",
  "sourceName": "contracts/Adam.sol",
  "abi": [
    {
      "inputs": [],
      "stateMutability": "nonpayable",
      "type": "constructor"
    },
    {
      "anonymous": false,
      "inputs": [
        {
          "indexed": false,
          "internalType": "address",
          "name": "budgetApproval",
          "type": "address"
        }
      ],
      "name": "AbandonBudgetApproval",
      "type": "event"
    },
    {
      "anonymous": false,
      "inputs": [
        {
          "indexed": false,
          "internalType": "address",
          "name": "previousAdmin",
          "type": "address"
        },
        {
          "indexed": false,
          "internalType": "address",
          "name": "newAdmin",
          "type": "address"
        }
      ],
      "name": "AdminChanged",
      "type": "event"
    },
    {
      "anonymous": false,
      "inputs": [
        {
          "indexed": true,
          "internalType": "address",
          "name": "beacon",
          "type": "address"
        }
      ],
      "name": "BeaconUpgraded",
      "type": "event"
    },
    {
      "anonymous": false,
      "inputs": [
        {
          "indexed": true,
          "internalType": "address",
          "name": "dao",
          "type": "address"
        },
        {
          "indexed": false,
          "internalType": "string",
          "name": "name",
          "type": "string"
        },
        {
          "indexed": false,
          "internalType": "string",
          "name": "description",
          "type": "string"
        },
        {
          "indexed": false,
          "internalType": "address",
          "name": "creator",
          "type": "address"
        }
      ],
      "name": "CreateDao",
      "type": "event"
    },
    {
      "anonymous": false,
      "inputs": [
        {
          "indexed": true,
          "internalType": "uint256",
          "name": "versionId",
          "type": "uint256"
        },
        {
          "indexed": false,
          "internalType": "address",
          "name": "daoImplementation",
          "type": "address"
        },
        {
          "indexed": false,
          "internalType": "address",
          "name": "membershipImplementation",
          "type": "address"
        },
        {
          "indexed": false,
          "internalType": "address",
          "name": "liquidPoolImplementation",
          "type": "address"
        },
        {
          "indexed": false,
          "internalType": "address",
          "name": "memberTokenImplementation",
          "type": "address"
        },
        {
          "indexed": false,
          "internalType": "address",
          "name": "governImplementation",
          "type": "address"
        },
        {
          "indexed": false,
          "internalType": "address",
          "name": "adamImplementation",
          "type": "address"
        },
        {
          "indexed": false,
          "internalType": "string",
          "name": "description",
          "type": "string"
        }
      ],
      "name": "ImplementationUpgrade",
      "type": "event"
    },
    {
      "anonymous": false,
      "inputs": [
        {
          "indexed": false,
          "internalType": "uint8",
          "name": "version",
          "type": "uint8"
        }
      ],
      "name": "Initialized",
      "type": "event"
    },
    {
      "anonymous": false,
      "inputs": [
        {
          "indexed": true,
          "internalType": "address",
          "name": "previousOwner",
          "type": "address"
        },
        {
          "indexed": true,
          "internalType": "address",
          "name": "newOwner",
          "type": "address"
        }
      ],
      "name": "OwnershipTransferred",
      "type": "event"
    },
    {
      "anonymous": false,
      "inputs": [
        {
          "indexed": true,
          "internalType": "address",
          "name": "implementation",
          "type": "address"
        }
      ],
      "name": "Upgraded",
      "type": "event"
    },
    {
      "anonymous": false,
      "inputs": [
        {
          "indexed": false,
          "internalType": "address",
          "name": "budgetApproval",
          "type": "address"
        }
      ],
      "name": "WhitelistBudgetApproval",
      "type": "event"
    },
    {
      "inputs": [
        {
          "internalType": "address[]",
          "name": "_budgetApprovals",
          "type": "address[]"
        }
      ],
      "name": "abandonBudgetApprovals",
      "outputs": [],
      "stateMutability": "nonpayable",
      "type": "function"
    },
    {
      "inputs": [
        {
          "internalType": "address",
          "name": "",
          "type": "address"
        }
      ],
      "name": "budgetApprovals",
      "outputs": [
        {
          "internalType": "bool",
          "name": "",
          "type": "bool"
        }
      ],
      "stateMutability": "view",
      "type": "function"
    },
    {
      "inputs": [
        {
          "components": [
            {
              "internalType": "string",
              "name": "_name",
              "type": "string"
            },
            {
              "internalType": "string",
              "name": "_description",
              "type": "string"
            },
            {
              "internalType": "uint256",
              "name": "_locktime",
              "type": "uint256"
            },
            {
              "internalType": "uint256[4]",
              "name": "generalGovernSetting",
              "type": "uint256[4]"
            },
            {
              "internalType": "string[]",
              "name": "tokenInfo",
              "type": "string[]"
            },
            {
              "internalType": "uint256",
              "name": "tokenAmount",
              "type": "uint256"
            },
            {
              "internalType": "uint256",
              "name": "minDepositAmount",
              "type": "uint256"
            },
            {
              "internalType": "address[]",
              "name": "depositTokens",
              "type": "address[]"
            },
            {
              "internalType": "bool",
              "name": "mintMemberToken",
              "type": "bool"
            },
            {
              "components": [
                {
                  "internalType": "address",
                  "name": "token",
                  "type": "address"
                },
                {
                  "internalType": "uint256",
                  "name": "minTokenToAdmit",
                  "type": "uint256"
                },
                {
                  "internalType": "uint256",
                  "name": "tokenId",
                  "type": "uint256"
                },
                {
                  "internalType": "bool",
                  "name": "isMemberToken",
                  "type": "bool"
                }
              ],
              "internalType": "struct IDao.AdmissionToken[]",
              "name": "admissionTokens",
              "type": "tuple[]"
            },
            {
              "internalType": "address",
              "name": "baseCurrency",
              "type": "address"
            },
            {
              "internalType": "string",
              "name": "logoCID",
              "type": "string"
            },
            {
              "internalType": "uint256",
              "name": "maxMemberLimit",
              "type": "uint256"
            }
          ],
          "internalType": "struct Adam.CreateDaoParams",
          "name": "params",
          "type": "tuple"
        }
      ],
      "name": "createDao",
      "outputs": [
        {
          "internalType": "address",
          "name": "",
          "type": "address"
        }
      ],
      "stateMutability": "nonpayable",
      "type": "function"
    },
    {
      "inputs": [],
      "name": "daoImplementation",
      "outputs": [
        {
          "internalType": "address",
          "name": "",
          "type": "address"
        }
      ],
      "stateMutability": "view",
      "type": "function"
    },
    {
      "inputs": [
        {
          "internalType": "address",
          "name": "",
          "type": "address"
        }
      ],
      "name": "daos",
      "outputs": [
        {
          "internalType": "bool",
          "name": "",
          "type": "bool"
        }
      ],
      "stateMutability": "view",
      "type": "function"
    },
    {
      "inputs": [],
      "name": "governFactory",
      "outputs": [
        {
          "internalType": "address",
          "name": "",
          "type": "address"
        }
      ],
      "stateMutability": "view",
      "type": "function"
    },
    {
      "inputs": [
        {
          "internalType": "address",
          "name": "_daoImplementation",
          "type": "address"
        },
        {
          "internalType": "address",
          "name": "_membershipImplementation",
          "type": "address"
        },
        {
          "internalType": "address",
          "name": "_liquidPoolImplementation",
          "type": "address"
        },
        {
          "internalType": "address",
          "name": "_memberTokenImplementation",
          "type": "address"
        },
        {
          "internalType": "address",
          "name": "_governImplementation",
          "type": "address"
        }
      ],
      "name": "hashVersion",
      "outputs": [
        {
          "internalType": "uint256",
          "name": "",
          "type": "uint256"
        }
      ],
      "stateMutability": "pure",
      "type": "function"
    },
    {
      "inputs": [
        {
          "internalType": "address",
          "name": "_daoImplementation",
          "type": "address"
        },
        {
          "internalType": "address",
          "name": "_membershipImplementation",
          "type": "address"
        },
        {
          "internalType": "address",
          "name": "_liquidPoolImplementation",
          "type": "address"
        },
        {
          "internalType": "address",
          "name": "_memberTokenImplementation",
          "type": "address"
        },
        {
          "internalType": "address[]",
          "name": "_budgetApprovalImplementations",
          "type": "address[]"
        },
        {
          "internalType": "address",
          "name": "_governFactory",
          "type": "address"
        },
        {
          "internalType": "address",
          "name": "_team",
          "type": "address"
        }
      ],
      "name": "initialize",
      "outputs": [],
      "stateMutability": "nonpayable",
      "type": "function"
    },
    {
      "inputs": [],
      "name": "liquidPoolImplementation",
      "outputs": [
        {
          "internalType": "address",
          "name": "",
          "type": "address"
        }
      ],
      "stateMutability": "view",
      "type": "function"
    },
    {
      "inputs": [],
      "name": "memberTokenImplementation",
      "outputs": [
        {
          "internalType": "address",
          "name": "",
          "type": "address"
        }
      ],
      "stateMutability": "view",
      "type": "function"
    },
    {
      "inputs": [],
      "name": "membershipImplementation",
      "outputs": [
        {
          "internalType": "address",
          "name": "",
          "type": "address"
        }
      ],
      "stateMutability": "view",
      "type": "function"
    },
    {
      "inputs": [],
      "name": "owner",
      "outputs": [
        {
          "internalType": "address",
          "name": "",
          "type": "address"
        }
      ],
      "stateMutability": "view",
      "type": "function"
    },
    {
      "inputs": [],
      "name": "proxiableUUID",
      "outputs": [
        {
          "internalType": "bytes32",
          "name": "",
          "type": "bytes32"
        }
      ],
      "stateMutability": "view",
      "type": "function"
    },
    {
      "inputs": [],
      "name": "renounceOwnership",
      "outputs": [],
      "stateMutability": "nonpayable",
      "type": "function"
    },
    {
      "inputs": [],
      "name": "team",
      "outputs": [
        {
          "internalType": "address",
          "name": "",
          "type": "address"
        }
      ],
      "stateMutability": "view",
      "type": "function"
    },
    {
      "inputs": [
        {
          "internalType": "address",
          "name": "newOwner",
          "type": "address"
        }
      ],
      "name": "transferOwnership",
      "outputs": [],
      "stateMutability": "nonpayable",
      "type": "function"
    },
    {
      "inputs": [
        {
          "internalType": "address",
          "name": "_daoImplementation",
          "type": "address"
        },
        {
          "internalType": "address",
          "name": "_membershipImplementation",
          "type": "address"
        },
        {
          "internalType": "address",
          "name": "_liquidPoolImplementation",
          "type": "address"
        },
        {
          "internalType": "address",
          "name": "_memberTokenImplementation",
          "type": "address"
        },
        {
          "internalType": "address",
          "name": "_governImplementation",
          "type": "address"
        },
        {
          "internalType": "string",
          "name": "description",
          "type": "string"
        }
      ],
      "name": "upgradeImplementations",
      "outputs": [],
      "stateMutability": "nonpayable",
      "type": "function"
    },
    {
      "inputs": [
        {
          "internalType": "address",
          "name": "newImplementation",
          "type": "address"
        }
      ],
      "name": "upgradeTo",
      "outputs": [],
      "stateMutability": "nonpayable",
      "type": "function"
    },
    {
      "inputs": [
        {
          "internalType": "address",
          "name": "newImplementation",
          "type": "address"
        },
        {
          "internalType": "bytes",
          "name": "data",
          "type": "bytes"
        }
      ],
      "name": "upgradeToAndCall",
      "outputs": [],
      "stateMutability": "payable",
      "type": "function"
    },
    {
      "inputs": [
        {
          "internalType": "address[]",
          "name": "_budgetApprovals",
          "type": "address[]"
        }
      ],
      "name": "whitelistBudgetApprovals",
      "outputs": [],
      "stateMutability": "nonpayable",
      "type": "function"
    }
  ],
  "bytecode": "0x60a06040523060601b6080523480156200001857600080fd5b506200002362000029565b620000eb565b600054610100900460ff1615620000965760405162461bcd60e51b815260206004820152602760248201527f496e697469616c697a61626c653a20636f6e747261637420697320696e697469604482015266616c697a696e6760c81b606482015260840160405180910390fd5b60005460ff9081161015620000e9576000805460ff191660ff9081179091556040519081527f7f26b83ff96e1f2b6a682f133852f6798a09c465da95921460cefb38474024989060200160405180910390a15b565b60805160601c612f83620001266000396000818161044901528181610495015281816105270152818161056a01526105ef0152612f836000f3fe608060405260043610620001375760003560e01c80638da5cb5b11620000ad578063c25f3cf6116200006c578063c25f3cf61462000376578063c976176614620003aa578063d16a68aa14620003cf578063f2fde38b14620003f4578063f615fd1b146200041957600080fd5b80638da5cb5b14620002a55780639d69932614620002c5578063a240663e14620002e7578063b3fb594e146200032c578063b78b13e5146200035157600080fd5b80635faa788c11620000fa5780635faa788c1462000202578063715018a6146200022457806374bb8da6146200023c57806385f2aef2146200026157806389409516146200028357600080fd5b8063084af6ed146200013c578063293e7438146200017b5780633659cfe6146200019d5780634f1ef28614620001c457806352d1902d14620001db575b600080fd5b3480156200014957600080fd5b5060cb546200015e906001600160a01b031681565b6040516001600160a01b0390911681526020015b60405180910390f35b3480156200018857600080fd5b5060cc546200015e906001600160a01b031681565b348015620001aa57600080fd5b50620001c2620001bc36600462001c2e565b6200043e565b005b620001c2620001d536600462001e53565b6200051c565b348015620001e857600080fd5b50620001f3620005e2565b60405190815260200162000172565b3480156200020f57600080fd5b5060ca546200015e906001600160a01b031681565b3480156200023157600080fd5b50620001c262000698565b3480156200024957600080fd5b50620001c26200025b36600462001ebd565b620006b0565b3480156200026e57600080fd5b5060ce546200015e906001600160a01b031681565b3480156200029057600080fd5b5060cd546200015e906001600160a01b031681565b348015620002b257600080fd5b506097546001600160a01b03166200015e565b348015620002d257600080fd5b5060c9546200015e906001600160a01b031681565b348015620002f457600080fd5b506200031b6200030636600462001c2e565b60cf6020526000908152604090205460ff1681565b604051901515815260200162000172565b3480156200033957600080fd5b50620001c26200034b36600462001cea565b62000842565b3480156200035e57600080fd5b50620001c26200037036600462001ebd565b62000b16565b3480156200038357600080fd5b506200031b6200039536600462001c2e565b60d06020526000908152604090205460ff1681565b348015620003b757600080fd5b50620001f3620003c936600462001c6e565b62000d32565b348015620003dc57600080fd5b506200015e620003ee36600462001fb4565b62000d87565b3480156200040157600080fd5b50620001c26200041336600462001c2e565b6200131c565b3480156200042657600080fd5b50620001c26200043836600462001d90565b62001398565b306001600160a01b037f0000000000000000000000000000000000000000000000000000000000000000161415620004935760405162461bcd60e51b81526004016200048a90620022e2565b60405180910390fd5b7f00000000000000000000000000000000000000000000000000000000000000006001600160a01b0316620004c762001622565b6001600160a01b031614620004f05760405162461bcd60e51b81526004016200048a906200232e565b620004fb816200163f565b60408051600080825260208201909252620005199183919062001649565b50565b306001600160a01b037f0000000000000000000000000000000000000000000000000000000000000000161415620005685760405162461bcd60e51b81526004016200048a90620022e2565b7f00000000000000000000000000000000000000000000000000000000000000006001600160a01b03166200059c62001622565b6001600160a01b031614620005c55760405162461bcd60e51b81526004016200048a906200232e565b620005d0826200163f565b620005de8282600162001649565b5050565b6000306001600160a01b037f00000000000000000000000000000000000000000000000000000000000000001614620006845760405162461bcd60e51b815260206004820152603860248201527f555550535570677261646561626c653a206d757374206e6f742062652063616c60448201527f6c6564207468726f7567682064656c656761746563616c6c000000000000000060648201526084016200048a565b5060008051602062002f0783398151915290565b620006a2620017d1565b620006ae60006200182d565b565b620006ba620017d1565b60005b818110156200083d5760cf6000848484818110620006df57620006df620027a3565b9050602002016020810190620006f6919062001c2e565b6001600160a01b0316815260208101919091526040016000205460ff161515600114620007665760405162461bcd60e51b815260206004820152601960248201527f62756467657420617070726f76616c206e6f742065786973740000000000000060448201526064016200048a565b600060cf6000858585818110620007815762000781620027a3565b905060200201602081019062000798919062001c2e565b6001600160a01b031681526020810191909152604001600020805460ff19169115159190911790557f9bcb80306e21ea57390223f10dd1c5cefa785eb5985a7adc38e7ca5ff51a2fb3838383818110620007f657620007f6620027a3565b90506020020160208101906200080d919062001c2e565b6040516001600160a01b03909116815260200160405180910390a180620008348162002779565b915050620006bd565b505050565b6200084c620017d1565b6001600160a01b038616620008965760405162461bcd60e51b815260206004820152600f60248201526e19185bd25b5c1b081a5cc81b9d5b1b608a1b60448201526064016200048a565b6001600160a01b038516620008e75760405162461bcd60e51b81526020600482015260166024820152751b595b58995c9cda1a5c125b5c1b081a5cc81b9d5b1b60521b60448201526064016200048a565b6001600160a01b038416620009385760405162461bcd60e51b81526020600482015260166024820152751b1a5c5d5a59141bdbdb125b5c1b081a5cc81b9d5b1b60521b60448201526064016200048a565b6001600160a01b038316620009905760405162461bcd60e51b815260206004820152601760248201527f6d656d626572546f6b656e496d706c206973206e756c6c00000000000000000060448201526064016200048a565b60cd5460408051635ba15b4d60e01b815290516001600160a01b03808616931691635ba15b4d916004808301926020929190829003018186803b158015620009d757600080fd5b505afa158015620009ec573d6000803e3d6000fd5b505050506040513d601f19601f8201168201806040525081019062000a12919062001c4e565b6001600160a01b03161462000a615760405162461bcd60e51b81526020600482015260146024820152730cedeeccae4dc92dae0d840dcdee840dac2e8c6d60631b60448201526064016200048a565b60c980546001600160a01b038089166001600160a01b03199283161790925560ca805488841690831617905560cb805487841690831617905560cc805492861692909116919091179055600062000abc878787878762000d32565b9050807f82de3e174c12e1c3af1d6057e7b766de3db08d400a3ac2d811086b5e3d713129888888888862000aef62001622565b8960405162000b05979695949392919062002188565b60405180910390a250505050505050565b62000b20620017d1565b60005b818110156200083d57600083838381811062000b435762000b43620027a3565b905060200201602081019062000b5a919062001c2e565b6001600160a01b0316141562000bb35760405162461bcd60e51b815260206004820152601760248201527f62756467657420617070726f76616c206973206e756c6c00000000000000000060448201526064016200048a565b60cf600084848481811062000bcc5762000bcc620027a3565b905060200201602081019062000be3919062001c2e565b6001600160a01b0316815260208101919091526040016000205460ff161562000c5b5760405162461bcd60e51b815260206004820152602360248201527f62756467657420617070726f76616c20616c72656164792077686974656c69736044820152621d195960ea1b60648201526084016200048a565b600160cf600085858581811062000c765762000c76620027a3565b905060200201602081019062000c8d919062001c2e565b6001600160a01b031681526020810191909152604001600020805460ff19169115159190911790557f398b08b0a1d9aec4b7246b4b9d1aa8bb17eb661955c1e5eab31bbab77c714b2283838381811062000ceb5762000ceb620027a3565b905060200201602081019062000d02919062001c2e565b6040516001600160a01b03909116815260200160405180910390a18062000d298162002779565b91505062000b23565b604080516001600160a01b03968716602080830191909152958716818301529386166060850152918516608084015290931660a0808301919091528351808303909101815260c0909101909252815191012090565b60c95460405160009182916001600160a01b039091169062000da99062001b3c565b6001600160a01b039091168152604060208201819052600090820152606001604051809103906000f08015801562000de5573d6000803e3d6000fd5b5060ca546040519192506000916001600160a01b039091169062000e099062001b3c565b6001600160a01b039091168152604060208201819052600090820152606001604051809103906000f08015801562000e45573d6000803e3d6000fd5b5060cb546040519192506000916001600160a01b039091169062000e699062001b3c565b6001600160a01b039091168152604060208201819052600090820152606001604051809103906000f08015801562000ea5573d6000803e3d6000fd5b506001600160a01b03808516600090815260d060205260409020805460ff191660011790559091508216638dac9bbc8462000ee1888062002638565b896101e001356040518563ffffffff1660e01b815260040162000f0894939291906200224f565b600060405180830381600087803b15801562000f2357600080fd5b505af115801562000f38573d6000803e3d6000fd5b5050506001600160a01b038216905063dc5b68a68462000f5d610140890189620025a0565b62000f716101c08b016101a08c0162001c2e565b6040518563ffffffff1660e01b815260040162000f929493929190620021e3565b600060405180830381600087803b15801562000fad57600080fd5b505af115801562000fc2573d6000803e3d6000fd5b505060408051610240810182523381526001600160a01b0386811660208301528581169282019290925260cd548216606082015260ce548216608082015260cc54821660a0820152908616925063d0244e82915060c0810162001026898062002638565b8080601f01602080910402602001604051908101604052809392919081815260200183838082843760009201919091525050509082525060209081019062001071908a018a62002638565b8080601f0160208091040260200160405190810160405280939291908181526020018383808284376000920191909152505050908252506040808a0135602083015280516080818101835291909201919060608b0190600490839083908082843760009201919091525050508152602001620010f160e08a018a620025a0565b620010fc91620026b4565b81526101008901356020808301919091526040805191820181526101208b01358252820152606001620011346101408a018a620025a0565b808060200260200160405190810160405280939291908181526020018383602002808284376000920191909152505050908252506020016200117f6101808a016101608b0162001f02565b15158152602001620011966101808a018a620025ec565b808060200260200160405190810160405280939291908181526020016000905b82821015620011e657620011d66080830286013681900381019062001f3a565b81526020019060010190620011b6565b5050509183525050602001620012056101c08a016101a08b0162001c2e565b6001600160a01b03168152602001620012236101c08a018a62002638565b8080601f01602080910402602001604051908101604052809392919081815260200183838082843760009201919091525050509152506040516001600160e01b031960e084901b1681526200127c9190600401620023c5565b600060405180830381600087803b1580156200129757600080fd5b505af1158015620012ac573d6000803e3d6000fd5b5050506001600160a01b03841690507f594ec7b44a013d8f9acb28d0b57d742a9367c7c8601838741bfee9d115e863ec620012e8878062002638565b620012f760208a018a62002638565b336040516200130b95949392919062002287565b60405180910390a250909392505050565b62001326620017d1565b6001600160a01b0381166200138d5760405162461bcd60e51b815260206004820152602660248201527f4f776e61626c653a206e6577206f776e657220697320746865207a65726f206160448201526564647265737360d01b60648201526084016200048a565b62000519816200182d565b600054610100900460ff1615808015620013b95750600054600160ff909116105b80620013d55750303b158015620013d5575060005460ff166001145b6200143a5760405162461bcd60e51b815260206004820152602e60248201527f496e697469616c697a61626c653a20636f6e747261637420697320616c72656160448201526d191e481a5b9a5d1a585b1a5e995960921b60648201526084016200048a565b6000805460ff1916600117905580156200145e576000805461ff0019166101001790555b620014686200187f565b62001474858562000b16565b6001600160a01b038316620014c45760405162461bcd60e51b815260206004820152601560248201527419dbdd995c9b919858dd1bdc9e481a5cc81b9d5b1b605a1b60448201526064016200048a565b6001600160a01b0382166200150b5760405162461bcd60e51b815260206004820152600c60248201526b1d19585b481a5cc81b9d5b1b60a21b60448201526064016200048a565b60cd80546001600160a01b038086166001600160a01b0319928316811790935560ce80549186169190921617905560408051635ba15b4d60e01b81529051620015d0928c928c928c928c929091635ba15b4d91600480820192602092909190829003018186803b1580156200157f57600080fd5b505afa15801562001594573d6000803e3d6000fd5b505050506040513d601f19601f82011682018060405250810190620015ba919062001c4e565b6040518060200160405280600081525062000842565b801562001617576000805461ff0019169055604051600181527f7f26b83ff96e1f2b6a682f133852f6798a09c465da95921460cefb38474024989060200160405180910390a15b505050505050505050565b60008051602062002f07833981519152546001600160a01b031690565b62000519620017d1565b7f4910fdfa16fed3260ed0e7147f7cc6da11a60208b5b9406d12a635614ffd91435460ff16156200167f576200083d83620018b3565b826001600160a01b03166352d1902d6040518163ffffffff1660e01b815260040160206040518083038186803b158015620016b957600080fd5b505afa925050508015620016ec575060408051601f3d908101601f19168201909252620016e99181019062001f20565b60015b620017515760405162461bcd60e51b815260206004820152602e60248201527f45524331393637557067726164653a206e657720696d706c656d656e7461746960448201526d6f6e206973206e6f74205555505360901b60648201526084016200048a565b60008051602062002f078339815191528114620017c35760405162461bcd60e51b815260206004820152602960248201527f45524331393637557067726164653a20756e737570706f727465642070726f786044820152681a58589b195555525160ba1b60648201526084016200048a565b506200083d83838362001952565b6097546001600160a01b03163314620006ae5760405162461bcd60e51b815260206004820181905260248201527f4f776e61626c653a2063616c6c6572206973206e6f7420746865206f776e657260448201526064016200048a565b609780546001600160a01b038381166001600160a01b0319831681179093556040519116919082907f8be0079c531659141344cd1fd0a4f28419497f9722a3daafe3b4186f6b6457e090600090a35050565b600054610100900460ff16620018a95760405162461bcd60e51b81526004016200048a906200237a565b620006ae62001983565b6001600160a01b0381163b620019225760405162461bcd60e51b815260206004820152602d60248201527f455243313936373a206e657720696d706c656d656e746174696f6e206973206e60448201526c1bdd08184818dbdb9d1c9858dd609a1b60648201526084016200048a565b60008051602062002f0783398151915280546001600160a01b0319166001600160a01b0392909216919091179055565b6200195d83620019b8565b6000825111806200196b5750805b156200083d576200197d8383620019fa565b50505050565b600054610100900460ff16620019ad5760405162461bcd60e51b81526004016200048a906200237a565b620006ae336200182d565b620019c381620018b3565b6040516001600160a01b038216907fbc7cd75a20ee27fd9adebab32041f755214dbc6bffa90cc0225b39da2e5c2d3b90600090a250565b60606001600160a01b0383163b62001a645760405162461bcd60e51b815260206004820152602660248201527f416464726573733a2064656c65676174652063616c6c20746f206e6f6e2d636f6044820152651b9d1c9858dd60d21b60648201526084016200048a565b600080846001600160a01b03168460405162001a8191906200216a565b600060405180830381855af49150503d806000811462001abe576040519150601f19603f3d011682016040523d82523d6000602084013e62001ac3565b606091505b509150915062001aee828260405180606001604052806027815260200162002f276027913962001af7565b95945050505050565b6060831562001b0857508162001b35565b82511562001b195782518084602001fd5b8160405162461bcd60e51b81526004016200048a9190620022cd565b9392505050565b61072180620027e683390190565b60006001600160401b0383111562001b665762001b66620027b9565b62001b7b601f8401601f191660200162002681565b905082815283838301111562001b9057600080fd5b828260208301376000602084830101529392505050565b60008083601f84011262001bba57600080fd5b5081356001600160401b0381111562001bd257600080fd5b6020830191508360208260051b850101111562001bee57600080fd5b9250929050565b8035801515811462001c0657600080fd5b919050565b600082601f83011262001c1d57600080fd5b62001b358383356020850162001b4a565b60006020828403121562001c4157600080fd5b813562001b3581620027cf565b60006020828403121562001c6157600080fd5b815162001b3581620027cf565b600080600080600060a0868803121562001c8757600080fd5b853562001c9481620027cf565b9450602086013562001ca681620027cf565b9350604086013562001cb881620027cf565b9250606086013562001cca81620027cf565b9150608086013562001cdc81620027cf565b809150509295509295909350565b60008060008060008060c0878903121562001d0457600080fd5b863562001d1181620027cf565b9550602087013562001d2381620027cf565b9450604087013562001d3581620027cf565b9350606087013562001d4781620027cf565b9250608087013562001d5981620027cf565b915060a08701356001600160401b0381111562001d7557600080fd5b62001d8389828a0162001c0b565b9150509295509295509295565b60008060008060008060008060e0898b03121562001dad57600080fd5b883562001dba81620027cf565b9750602089013562001dcc81620027cf565b9650604089013562001dde81620027cf565b9550606089013562001df081620027cf565b945060808901356001600160401b0381111562001e0c57600080fd5b62001e1a8b828c0162001ba7565b90955093505060a089013562001e3081620027cf565b915060c089013562001e4281620027cf565b809150509295985092959890939650565b6000806040838503121562001e6757600080fd5b823562001e7481620027cf565b915060208301356001600160401b0381111562001e9057600080fd5b8301601f8101851362001ea257600080fd5b62001eb38582356020840162001b4a565b9150509250929050565b6000806020838503121562001ed157600080fd5b82356001600160401b0381111562001ee857600080fd5b62001ef68582860162001ba7565b90969095509350505050565b60006020828403121562001f1557600080fd5b62001b358262001bf5565b60006020828403121562001f3357600080fd5b5051919050565b60006080828403121562001f4d57600080fd5b604051608081018181106001600160401b038211171562001f725762001f72620027b9565b604052823562001f8281620027cf565b80825250602083013560208201526040830135604082015262001fa86060840162001bf5565b60608201529392505050565b60006020828403121562001fc757600080fd5b81356001600160401b0381111562001fde57600080fd5b8201610200818503121562001b3557600080fd5b600081518084526020808501945080840160005b838110156200202d5781516001600160a01b03168752958201959082019060010162002006565b509495945050505050565b600081518084526020808501808196508360051b8101915082860160005b8581101562002084578284038952620020718483516200213c565b9885019893509084019060010162002056565b5091979650505050505050565b600081518084526020808501945080840160005b838110156200202d57815180516001600160a01b0316885283810151848901526040808201519089015260609081015115159088015260809096019590820190600101620020a5565b8060005b60048110156200197d578151845260209384019390910190600101620020f2565b81835281816020850137506000828201602090810191909152601f909101601f19169091010190565b60008151808452620021568160208601602086016200274a565b601f01601f19169290920160200192915050565b600082516200217e8184602087016200274a565b9190910192915050565b6001600160a01b0388811682528781166020830152868116604083015285811660608301528481166080830152831660a082015260e060c08201819052600090620021d6908301846200213c565b9998505050505050505050565b6001600160a01b03858116825260606020808401829052908301859052600091869160808501845b88811015620022365784356200222181620027cf565b8416825293820193908201906001016200220b565b5080945050508085166040850152505095945050505050565b6001600160a01b038516815260606020820181905260009062002276908301858762002113565b905082604083015295945050505050565b6060815260006200229d60608301878962002113565b8281036020840152620022b281868862002113565b91505060018060a01b03831660408301529695505050505050565b60208152600062001b3560208301846200213c565b6020808252602c908201527f46756e6374696f6e206d7573742062652063616c6c6564207468726f7567682060408201526b19195b1959d85d1958d85b1b60a21b606082015260800190565b6020808252602c908201527f46756e6374696f6e206d7573742062652063616c6c6564207468726f7567682060408201526b6163746976652070726f787960a01b606082015260800190565b6020808252602b908201527f496e697469616c697a61626c653a20636f6e7472616374206973206e6f74206960408201526a6e697469616c697a696e6760a81b606082015260800190565b60208152620023e06020820183516001600160a01b03169052565b60006020830151620023fd60408401826001600160a01b03169052565b5060408301516001600160a01b03811660608401525060608301516001600160a01b03811660808401525060808301516001600160a01b03811660a08401525060a08301516001600160a01b03811660c08401525060c08301516102a08060e0850152620024706102c08501836200213c565b915060e0850151601f196101008187860301818801526200249285846200213c565b90880151610120888101919091528801519094509150610140620024b981880184620020ee565b808801519250506101c0818786030181880152620024d8858462002038565b945061016088015192506101e08381890152610180890151935061020062002502818a0186519052565b6101a08a01519450610220848a890301818b015262002522888762001ff2565b9750838b015195506200253a6102408b018715159052565b828b01519550848a8903016102608b015262002557888762002091565b9750818b01519550620025766102808b01876001600160a01b03169052565b808b0151955050505050808685030183870152506200259683826200213c565b9695505050505050565b6000808335601e19843603018112620025b857600080fd5b8301803591506001600160401b03821115620025d357600080fd5b6020019150600581901b360382131562001bee57600080fd5b6000808335601e198436030181126200260457600080fd5b8301803591506001600160401b038211156200261f57600080fd5b6020019150600781901b360382131562001bee57600080fd5b6000808335601e198436030181126200265057600080fd5b8301803591506001600160401b038211156200266b57600080fd5b60200191503681900382131562001bee57600080fd5b604051601f8201601f191681016001600160401b0381118282101715620026ac57620026ac620027b9565b604052919050565b60006001600160401b0380841115620026d157620026d1620027b9565b8360051b6020620026e481830162002681565b8681528181019086368582011115620026fc57600080fd5b60009450845b898110156200273c578135878111156200271a578687fd5b6200272836828c0162001c0b565b855250928401929084019060010162002702565b509098975050505050505050565b60005b83811015620027675781810151838201526020016200274d565b838111156200197d5750506000910152565b60006000198214156200279c57634e487b7160e01b600052601160045260246000fd5b5060010190565b634e487b7160e01b600052603260045260246000fd5b634e487b7160e01b600052604160045260246000fd5b6001600160a01b03811681146200051957600080fdfe6080604052604051610721380380610721833981016040819052610022916102d2565b61002e82826000610035565b5050610431565b61003e8361006b565b60008251118061004b5750805b156100665761006483836100ab60201b6100291760201c565b505b505050565b610074816100d7565b6040516001600160a01b038216907fbc7cd75a20ee27fd9adebab32041f755214dbc6bffa90cc0225b39da2e5c2d3b90600090a250565b60606100d083836040518060600160405280602781526020016106fa602791396101a9565b9392505050565b6100ea8161028760201b6100551760201c565b6101515760405162461bcd60e51b815260206004820152602d60248201527f455243313936373a206e657720696d706c656d656e746174696f6e206973206e60448201526c1bdd08184818dbdb9d1c9858dd609a1b60648201526084015b60405180910390fd5b806101887f360894a13ba1a3210667c828492db98dca3e2076cc3735a920a3ca505d382bbc60001b61029660201b6100641760201c565b80546001600160a01b0319166001600160a01b039290921691909117905550565b60606001600160a01b0384163b6102115760405162461bcd60e51b815260206004820152602660248201527f416464726573733a2064656c65676174652063616c6c20746f206e6f6e2d636f6044820152651b9d1c9858dd60d21b6064820152608401610148565b600080856001600160a01b03168560405161022c91906103a0565b600060405180830381855af49150503d8060008114610267576040519150601f19603f3d011682016040523d82523d6000602084013e61026c565b606091505b50909250905061027d828286610299565b9695505050505050565b6001600160a01b03163b151590565b90565b606083156102a85750816100d0565b8251156102b85782518084602001fd5b8160405162461bcd60e51b815260040161014891906103bc565b600080604083850312156102e557600080fd5b82516001600160a01b03811681146102fc57600080fd5b60208401519092506001600160401b038082111561031957600080fd5b818501915085601f83011261032d57600080fd5b81518181111561033f5761033f61041b565b604051601f8201601f19908116603f011681019083821181831017156103675761036761041b565b8160405282815288602084870101111561038057600080fd5b6103918360208301602088016103ef565b80955050505050509250929050565b600082516103b28184602087016103ef565b9190910192915050565b60208152600082518060208401526103db8160408501602087016103ef565b601f01601f19169190910160400192915050565b60005b8381101561040a5781810151838201526020016103f2565b838111156100645750506000910152565b634e487b7160e01b600052604160045260246000fd5b6102ba806104406000396000f3fe60806040523661001357610011610017565b005b6100115b610027610022610067565b61009f565b565b606061004e838360405180606001604052806027815260200161025e602791396100c3565b9392505050565b6001600160a01b03163b151590565b90565b600061009a7f360894a13ba1a3210667c828492db98dca3e2076cc3735a920a3ca505d382bbc546001600160a01b031690565b905090565b3660008037600080366000845af43d6000803e8080156100be573d6000f35b3d6000fd5b60606001600160a01b0384163b6101305760405162461bcd60e51b815260206004820152602660248201527f416464726573733a2064656c65676174652063616c6c20746f206e6f6e2d636f6044820152651b9d1c9858dd60d21b60648201526084015b60405180910390fd5b600080856001600160a01b03168560405161014b91906101de565b600060405180830381855af49150503d8060008114610186576040519150601f19603f3d011682016040523d82523d6000602084013e61018b565b606091505b509150915061019b8282866101a5565b9695505050505050565b606083156101b457508161004e565b8251156101c45782518084602001fd5b8160405162461bcd60e51b815260040161012791906101fa565b600082516101f081846020870161022d565b9190910192915050565b602081526000825180602084015261021981604085016020870161022d565b601f01601f19169190910160400192915050565b60005b83811015610248578181015183820152602001610230565b83811115610257576000848401525b5050505056fe416464726573733a206c6f772d6c6576656c2064656c65676174652063616c6c206661696c6564a2646970667358221220fb537d1df0a2f3ea0050d30fb82ca020f06a83116d3853b9eda518a67b0c9be764736f6c63430008070033416464726573733a206c6f772d6c6576656c2064656c65676174652063616c6c206661696c6564360894a13ba1a3210667c828492db98dca3e2076cc3735a920a3ca505d382bbc416464726573733a206c6f772d6c6576656c2064656c65676174652063616c6c206661696c6564a2646970667358221220d391dab42835154e68918aa0a8518be7043eaa2c7c104ce18b37def70f15b12064736f6c63430008070033",
  "linkReferences": {},
  "deployedLinkReferences": {}
}