{
  "_format": "hh-sol-artifact-1",
  "contractName": "Adam",
  "sourceName": "contracts/Adam.sol",
  "abi": [
    {
      "anonymous": false,
      "inputs": [
        {
          "indexed": false,
          "internalType": "address",
          "name": "previousAdmin",
          "type": "address"
        },
        {
          "indexed": false,
          "internalType": "address",
          "name": "newAdmin",
          "type": "address"
        }
      ],
      "name": "AdminChanged",
      "type": "event"
    },
    {
      "anonymous": false,
      "inputs": [
        {
          "indexed": true,
          "internalType": "address",
          "name": "beacon",
          "type": "address"
        }
      ],
      "name": "BeaconUpgraded",
      "type": "event"
    },
    {
      "anonymous": false,
      "inputs": [
        {
          "indexed": false,
          "internalType": "address",
          "name": "dao",
          "type": "address"
        },
        {
          "indexed": false,
          "internalType": "string",
          "name": "name",
          "type": "string"
        },
        {
          "indexed": false,
          "internalType": "string",
          "name": "description",
          "type": "string"
        },
        {
          "indexed": false,
          "internalType": "address",
          "name": "creator",
          "type": "address"
        }
      ],
      "name": "CreateDao",
      "type": "event"
    },
    {
      "anonymous": false,
      "inputs": [
        {
          "indexed": true,
          "internalType": "address",
          "name": "implementation",
          "type": "address"
        }
      ],
      "name": "Upgraded",
      "type": "event"
    },
    {
      "anonymous": false,
      "inputs": [
        {
          "indexed": false,
          "internalType": "address",
          "name": "budgetApproval",
          "type": "address"
        }
      ],
      "name": "WhitelistBudgetApproval",
      "type": "event"
    },
    {
      "inputs": [
        {
          "internalType": "address",
          "name": "",
          "type": "address"
        }
      ],
      "name": "budgetApprovalRegistry",
      "outputs": [
        {
          "internalType": "bool",
          "name": "",
          "type": "bool"
        }
      ],
      "stateMutability": "view",
      "type": "function"
    },
    {
      "inputs": [
        {
          "internalType": "uint256",
          "name": "",
          "type": "uint256"
        }
      ],
      "name": "budgetApprovals",
      "outputs": [
        {
          "internalType": "address",
          "name": "",
          "type": "address"
        }
      ],
      "stateMutability": "view",
      "type": "function"
    },
    {
      "inputs": [],
      "name": "constantState",
      "outputs": [
        {
          "internalType": "address",
          "name": "",
          "type": "address"
        }
      ],
      "stateMutability": "view",
      "type": "function"
    },
    {
      "inputs": [
        {
          "components": [
            {
              "internalType": "string",
              "name": "_name",
              "type": "string"
            },
            {
              "internalType": "string",
              "name": "_description",
              "type": "string"
            },
            {
              "internalType": "uint256",
              "name": "_locktime",
              "type": "uint256"
            },
            {
              "internalType": "uint8",
              "name": "memberTokenType",
              "type": "uint8"
            },
            {
              "internalType": "address",
              "name": "memberToken",
              "type": "address"
            },
            {
              "internalType": "uint256[4]",
              "name": "budgetApproval",
              "type": "uint256[4]"
            },
            {
              "internalType": "uint256[4]",
              "name": "revokeBudgetApproval",
              "type": "uint256[4]"
            },
            {
              "internalType": "uint256[4]",
              "name": "general",
              "type": "uint256[4]"
            },
            {
              "internalType": "uint256[4]",
              "name": "daoSettingApproval",
              "type": "uint256[4]"
            },
            {
              "internalType": "string[]",
              "name": "tokenInfo",
              "type": "string[]"
            },
            {
              "internalType": "uint256",
              "name": "tokenAmount",
              "type": "uint256"
            },
            {
              "internalType": "uint256",
              "name": "minDepositAmount",
              "type": "uint256"
            },
            {
              "internalType": "uint256",
              "name": "minMemberTokenToJoin",
              "type": "uint256"
            }
          ],
          "internalType": "struct IAdam.CreateDaoParams",
          "name": "params",
          "type": "tuple"
        }
      ],
      "name": "createDao",
      "outputs": [
        {
          "internalType": "address",
          "name": "",
          "type": "address"
        }
      ],
      "stateMutability": "nonpayable",
      "type": "function"
    },
    {
      "inputs": [],
      "name": "daoImplementation",
      "outputs": [
        {
          "internalType": "address",
          "name": "",
          "type": "address"
        }
      ],
      "stateMutability": "view",
      "type": "function"
    },
    {
      "inputs": [
        {
          "internalType": "address",
          "name": "",
          "type": "address"
        }
      ],
      "name": "daoRegistry",
      "outputs": [
        {
          "internalType": "bool",
          "name": "",
          "type": "bool"
        }
      ],
      "stateMutability": "view",
      "type": "function"
    },
    {
      "inputs": [
        {
          "internalType": "uint256",
          "name": "",
          "type": "uint256"
        }
      ],
      "name": "daos",
      "outputs": [
        {
          "internalType": "address",
          "name": "",
          "type": "address"
        }
      ],
      "stateMutability": "view",
      "type": "function"
    },
    {
      "inputs": [],
      "name": "governFactory",
      "outputs": [
        {
          "internalType": "address",
          "name": "",
          "type": "address"
        }
      ],
      "stateMutability": "view",
      "type": "function"
    },
    {
      "inputs": [],
      "name": "governImplementation",
      "outputs": [
        {
          "internalType": "address",
          "name": "",
          "type": "address"
        }
      ],
      "stateMutability": "view",
      "type": "function"
    },
    {
      "inputs": [
        {
          "internalType": "address",
          "name": "_daoImplementation",
          "type": "address"
        },
        {
          "internalType": "address",
          "name": "_membershipImplementation",
          "type": "address"
        },
        {
          "internalType": "address",
          "name": "_multiTokenImplementation",
          "type": "address"
        },
        {
          "internalType": "address",
          "name": "_memberTokenImplementation",
          "type": "address"
        },
        {
          "internalType": "address[]",
          "name": "_budgetApprovalImplementations",
          "type": "address[]"
        },
        {
          "internalType": "address",
          "name": "_governFactory",
          "type": "address"
        },
        {
          "internalType": "address",
          "name": "_constantState",
          "type": "address"
        }
      ],
      "name": "initialize",
      "outputs": [],
      "stateMutability": "nonpayable",
      "type": "function"
    },
    {
      "inputs": [],
      "name": "memberTokenImplementation",
      "outputs": [
        {
          "internalType": "address",
          "name": "",
          "type": "address"
        }
      ],
      "stateMutability": "view",
      "type": "function"
    },
    {
      "inputs": [],
      "name": "membershipImplementation",
      "outputs": [
        {
          "internalType": "address",
          "name": "",
          "type": "address"
        }
      ],
      "stateMutability": "view",
      "type": "function"
    },
    {
      "inputs": [],
      "name": "multiTokenImplementation",
      "outputs": [
        {
          "internalType": "address",
          "name": "",
          "type": "address"
        }
      ],
      "stateMutability": "view",
      "type": "function"
    },
    {
      "inputs": [],
      "name": "proxiableUUID",
      "outputs": [
        {
          "internalType": "bytes32",
          "name": "",
          "type": "bytes32"
        }
      ],
      "stateMutability": "view",
      "type": "function"
    },
    {
      "inputs": [
        {
          "internalType": "address",
          "name": "_daoImplementation",
          "type": "address"
        }
      ],
      "name": "setDaoImplementation",
      "outputs": [],
      "stateMutability": "nonpayable",
      "type": "function"
    },
    {
      "inputs": [
        {
          "internalType": "address",
          "name": "_membershipImplementation",
          "type": "address"
        }
      ],
      "name": "setMembershipImplementation",
      "outputs": [],
      "stateMutability": "nonpayable",
      "type": "function"
    },
    {
      "inputs": [],
      "name": "totalDaos",
      "outputs": [
        {
          "internalType": "uint256",
          "name": "",
          "type": "uint256"
        }
      ],
      "stateMutability": "view",
      "type": "function"
    },
    {
      "inputs": [
        {
          "internalType": "address",
          "name": "newImplementation",
          "type": "address"
        }
      ],
      "name": "upgradeTo",
      "outputs": [],
      "stateMutability": "nonpayable",
      "type": "function"
    },
    {
      "inputs": [
        {
          "internalType": "address",
          "name": "newImplementation",
          "type": "address"
        },
        {
          "internalType": "bytes",
          "name": "data",
          "type": "bytes"
        }
      ],
      "name": "upgradeToAndCall",
      "outputs": [],
      "stateMutability": "payable",
      "type": "function"
    },
    {
      "inputs": [
        {
          "internalType": "address[]",
          "name": "_budgetApprovals",
          "type": "address[]"
        }
      ],
      "name": "whitelistBudgetApprovals",
      "outputs": [],
      "stateMutability": "nonpayable",
      "type": "function"
    }
  ],
  "bytecode": "0x60a06040523060601b60805234801561001757600080fd5b5060805160601c6124de61005260003960008181610482015281816104ce01528181610ad801528181610b1b0152610bb701526124de6000f3fe608060405260043610620001375760003560e01c80635faa788c11620000ad578063b78b13e5116200006c578063b78b13e514620003cf578063c9354bb514620003f4578063ccbbd260146200040b578063d3b18bcd1462000430578063f615fd1b146200045257600080fd5b80635faa788c146200030657806365a8aa77146200032857806366cd5e9e146200036957806389409516146200038b5780639d69932614620003ad57600080fd5b80633830c6aa11620000fa5780633830c6aa146200025c578063461cf45114620002815780634f1ef28614620002a657806352d1902d14620002bd5780635ba15b4d14620002e457600080fd5b80632587b607146200013c57806328acbdc21462000185578063293e743814620001c85780633659cfe6146200020357806336c5e5101462000228575b600080fd5b3480156200014957600080fd5b50620001706200015b366004620014c3565b606f6020526000908152604090205460ff1681565b60405190151581526020015b60405180910390f35b3480156200019257600080fd5b50620001c6620001a4366004620014c3565b606580546001600160a01b0319166001600160a01b0392909216919091179055565b005b348015620001d557600080fd5b50606a54620001ea906001600160a01b031681565b6040516001600160a01b0390911681526020016200017c565b3480156200021057600080fd5b50620001c662000222366004620014c3565b62000477565b3480156200023557600080fd5b506200017062000247366004620014c3565b606d6020526000908152604090205460ff1681565b3480156200026957600080fd5b50620001ea6200027b36600462001694565b6200056c565b3480156200028e57600080fd5b50620001ea620002a036600462001658565b62000597565b620001c6620002b736600462001595565b62000acd565b348015620002ca57600080fd5b50620002d562000baa565b6040519081526020016200017c565b348015620002f157600080fd5b50606954620001ea906001600160a01b031681565b3480156200031357600080fd5b50606654620001ea906001600160a01b031681565b3480156200033557600080fd5b50620001c662000347366004620014c3565b606680546001600160a01b0319166001600160a01b0392909216919091179055565b3480156200037657600080fd5b50606754620001ea906001600160a01b031681565b3480156200039857600080fd5b50606854620001ea906001600160a01b031681565b348015620003ba57600080fd5b50606554620001ea906001600160a01b031681565b348015620003dc57600080fd5b50620001c6620003ee366004620015fb565b62000c60565b3480156200040157600080fd5b50606e54620002d5565b3480156200041857600080fd5b50620001ea6200042a36600462001694565b62000e80565b3480156200043d57600080fd5b50606b54620001ea906001600160a01b031681565b3480156200045f57600080fd5b50620001c662000471366004620014e0565b62000e91565b306001600160a01b037f0000000000000000000000000000000000000000000000000000000000000000161415620004cc5760405162461bcd60e51b8152600401620004c39062001852565b60405180910390fd5b7f00000000000000000000000000000000000000000000000000000000000000006001600160a01b03166200051760008051602062002462833981519152546001600160a01b031690565b6001600160a01b031614620005405760405162461bcd60e51b8152600401620004c3906200189e565b6200054b8162000f98565b60408051600080825260208201909252620005699183919062001011565b50565b606c81815481106200057d57600080fd5b6000918252602090912001546001600160a01b0316905081565b60655460405160009182916001600160a01b0390911690620005b990620013ed565b6001600160a01b039091168152604060208201819052600090820152606001604051809103906000f080158015620005f5573d6000803e3d6000fd5b506066546040519192506000916001600160a01b03909116906200061990620013ed565b6001600160a01b039091168152604060208201819052600090820152606001604051809103906000f08015801562000655573d6000803e3d6000fd5b506067546040519192506000916001600160a01b03909116906200067990620013ed565b6001600160a01b039091168152604060208201819052600090820152606001604051809103906000f080158015620006b5573d6000803e3d6000fd5b5090506001600160a01b03821663f399e22e84620006d4888062001b2f565b6040518463ffffffff1660e01b8152600401620006f493929190620017c5565b600060405180830381600087803b1580156200070f57600080fd5b505af115801562000724573d6000803e3d6000fd5b505060405163189acdbd60e31b81526001600160a01b0386811660048301528416925063c4d66de89150602401600060405180830381600087803b1580156200076c57600080fd5b505af115801562000781573d6000803e3d6000fd5b505060408051610220810182523381526001600160a01b0386811660208301528581169282019290925260685482166060820152606a5482166080820152908616925063f83103d1915060a08101620007db898062001b2f565b8080601f01602080910402602001604051908101604052809392919081815260200183838082843760009201919091525050509082525060209081019062000826908a018a62001b2f565b8080601f0160208091040260200160405190810160405280939291908181526020018383808284376000920191909152505050908252506040808a01356020830152016200087b60808a0160608b01620016ad565b60ff1681526020016200089560a08a0160808b01620014c3565b6001600160a01b031681526020018860a001600480602002604051908101604052809291908260046020028082843760009201919091525050508152604080516080818101909252602090920191906101208b0190600490839083908082843760009201919091525050508152604080516080818101909252602090920191906101a08b0190600490839083908082843760009201919091525050508152604080516080818101909252602090920191906102208b0190600490839083908082843760009201919091525050508152602001620009776102a08a018a62001ae4565b620009829162001bab565b8152602001886102c00135815260200160405180604001604052808a6102e0013581526020018a61030001358152508152506040518263ffffffff1660e01b8152600401620009d2919062001938565b600060405180830381600087803b158015620009ed57600080fd5b505af115801562000a02573d6000803e3d6000fd5b5050606e805460018082019092557f9930d9ff0dee0ef5ca2f7710ea66b8f84dd0f5f5351ecffe72b952cd9db7142a0180546001600160a01b0319166001600160a01b0388169081179091556000908152606f60205260409020805460ff19169091179055507f594ec7b44a013d8f9acb28d0b57d742a9367c7c8601838741bfee9d115e863ec90508362000a98878062001b2f565b62000aa760208a018a62001b2f565b3360405162000abc96959493929190620017ec565b60405180910390a150909392505050565b306001600160a01b037f000000000000000000000000000000000000000000000000000000000000000016141562000b195760405162461bcd60e51b8152600401620004c39062001852565b7f00000000000000000000000000000000000000000000000000000000000000006001600160a01b031662000b6460008051602062002462833981519152546001600160a01b031690565b6001600160a01b03161462000b8d5760405162461bcd60e51b8152600401620004c3906200189e565b62000b988262000f98565b62000ba68282600162001011565b5050565b6000306001600160a01b037f0000000000000000000000000000000000000000000000000000000000000000161462000c4c5760405162461bcd60e51b815260206004820152603860248201527f555550535570677261646561626c653a206d757374206e6f742062652063616c60448201527f6c6564207468726f7567682064656c656761746563616c6c00000000000000006064820152608401620004c3565b506000805160206200246283398151915290565b60005b8181101562000e7b57606d600084848481811062000c9157634e487b7160e01b600052603260045260246000fd5b905060200201602081019062000ca89190620014c3565b6001600160a01b0316815260208101919091526040016000205460ff161562000d205760405162461bcd60e51b815260206004820152602360248201527f62756467657420617070726f76616c20616c72656164792077686974656c69736044820152621d195960ea1b6064820152608401620004c3565b606c83838381811062000d4357634e487b7160e01b600052603260045260246000fd5b905060200201602081019062000d5a9190620014c3565b81546001808201845560009384526020842090910180546001600160a01b0319166001600160a01b03939093169290921790915590606d9085858581811062000db357634e487b7160e01b600052603260045260246000fd5b905060200201602081019062000dca9190620014c3565b6001600160a01b031681526020810191909152604001600020805460ff19169115159190911790557f398b08b0a1d9aec4b7246b4b9d1aa8bb17eb661955c1e5eab31bbab77c714b2283838381811062000e3457634e487b7160e01b600052603260045260246000fd5b905060200201602081019062000e4b9190620014c3565b6040516001600160a01b03909116815260200160405180910390a18062000e728162001c81565b91505062000c63565b505050565b606e81815481106200057d57600080fd5b600054610100900460ff1662000eae5760005460ff161562000eb2565b303b155b62000ed15760405162461bcd60e51b8152600401620004c390620018ea565b600054610100900460ff1615801562000ef4576000805461ffff19166101011790555b606580546001600160a01b03808c166001600160a01b031992831617909255606680548b8416908316179055606780548a8416908316179055606a80549289169290911691909117905562000f4a858562000c60565b606880546001600160a01b038086166001600160a01b031992831617909255606b805492851692909116919091179055801562000f8d576000805461ff00191690555b505050505050505050565b600054610100900460ff1662000fb55760005460ff161562000fb9565b303b155b62000fd85760405162461bcd60e51b8152600401620004c390620018ea565b600054610100900460ff1615801562000ffb576000805461ffff19166101011790555b801562000ba6576000805461ff00191690555050565b7f4910fdfa16fed3260ed0e7147f7cc6da11a60208b5b9406d12a635614ffd91435460ff1615620010475762000e7b8362001199565b826001600160a01b03166352d1902d6040518163ffffffff1660e01b815260040160206040518083038186803b1580156200108157600080fd5b505afa925050508015620010b4575060408051601f3d908101601f19168201909252620010b1918101906200163f565b60015b620011195760405162461bcd60e51b815260206004820152602e60248201527f45524331393637557067726164653a206e657720696d706c656d656e7461746960448201526d6f6e206973206e6f74205555505360901b6064820152608401620004c3565b6000805160206200246283398151915281146200118b5760405162461bcd60e51b815260206004820152602960248201527f45524331393637557067726164653a20756e737570706f727465642070726f786044820152681a58589b195555525160ba1b6064820152608401620004c3565b5062000e7b83838362001238565b6001600160a01b0381163b620012085760405162461bcd60e51b815260206004820152602d60248201527f455243313936373a206e657720696d706c656d656e746174696f6e206973206e60448201526c1bdd08184818dbdb9d1c9858dd609a1b6064820152608401620004c3565b6000805160206200246283398151915280546001600160a01b0319166001600160a01b0392909216919091179055565b620012438362001269565b600082511180620012515750805b1562000e7b57620012638383620012ab565b50505050565b620012748162001199565b6040516001600160a01b038216907fbc7cd75a20ee27fd9adebab32041f755214dbc6bffa90cc0225b39da2e5c2d3b90600090a250565b60606001600160a01b0383163b620013155760405162461bcd60e51b815260206004820152602660248201527f416464726573733a2064656c65676174652063616c6c20746f206e6f6e2d636f6044820152651b9d1c9858dd60d21b6064820152608401620004c3565b600080846001600160a01b031684604051620013329190620017a7565b600060405180830381855af49150503d80600081146200136f576040519150601f19603f3d011682016040523d82523d6000602084013e62001374565b606091505b50915091506200139f82826040518060600160405280602781526020016200248260279139620013a8565b95945050505050565b60608315620013b9575081620013e6565b825115620013ca5782518084602001fd5b8160405162461bcd60e51b8152600401620004c391906200183d565b9392505050565b6107a28062001cc083390190565b600067ffffffffffffffff83111562001418576200141862001ca9565b6200142d601f8401601f191660200162001b77565b90508281528383830111156200144257600080fd5b828260208301376000602084830101529392505050565b80356001600160a01b03811681146200147157600080fd5b919050565b60008083601f84011262001488578182fd5b50813567ffffffffffffffff811115620014a0578182fd5b6020830191508360208260051b8501011115620014bc57600080fd5b9250929050565b600060208284031215620014d5578081fd5b620013e68262001459565b60008060008060008060008060e0898b031215620014fc578384fd5b620015078962001459565b97506200151760208a0162001459565b96506200152760408a0162001459565b95506200153760608a0162001459565b9450608089013567ffffffffffffffff81111562001553578485fd5b620015618b828c0162001476565b909550935062001576905060a08a0162001459565b91506200158660c08a0162001459565b90509295985092959890939650565b60008060408385031215620015a8578182fd5b620015b38362001459565b9150602083013567ffffffffffffffff811115620015cf578182fd5b8301601f81018513620015e0578182fd5b620015f185823560208401620013fb565b9150509250929050565b600080602083850312156200160e578182fd5b823567ffffffffffffffff81111562001625578283fd5b620016338582860162001476565b90969095509350505050565b60006020828403121562001651578081fd5b5051919050565b6000602082840312156200166a578081fd5b813567ffffffffffffffff81111562001681578182fd5b82016103208185031215620013e6578182fd5b600060208284031215620016a6578081fd5b5035919050565b600060208284031215620016bf578081fd5b813560ff81168114620013e6578182fd5b600082825180855260208086019550808260051b840101818601855b848110156200171e57601f198684030189526200170b83835162001779565b98840198925090830190600101620016ec565b5090979650505050505050565b8060005b6004811015620012635781518452602093840193909101906001016200172f565b81835281816020850137506000828201602090810191909152601f909101601f19169091010190565b600081518084526200179381602086016020860162001c52565b601f01601f19169290920160200192915050565b60008251620017bb81846020870162001c52565b9190910192915050565b6001600160a01b03841681526040602082018190526000906200139f908301848662001750565b600060018060a01b038089168352608060208401526200181160808401888a62001750565b83810360408501526200182681878962001750565b925050808416606084015250979650505050505050565b602081526000620013e6602083018462001779565b6020808252602c908201527f46756e6374696f6e206d7573742062652063616c6c6564207468726f7567682060408201526b19195b1959d85d1958d85b1b60a21b606082015260800190565b6020808252602c908201527f46756e6374696f6e206d7573742062652063616c6c6564207468726f7567682060408201526b6163746976652070726f787960a01b606082015260800190565b6020808252602e908201527f496e697469616c697a61626c653a20636f6e747261637420697320616c72656160408201526d191e481a5b9a5d1a585b1a5e995960921b606082015260800190565b60208152620019536020820183516001600160a01b03169052565b600060208301516200197060408401826001600160a01b03169052565b5060408301516001600160a01b03811660608401525060608301516001600160a01b03811660808401525060808301516001600160a01b03811660a08401525060a08301516103c060c0840152620019cd6103e084018262001779565b905060c0840151601f19808584030160e0860152620019ed838362001779565b60e087015161010087810191909152870151909350915061012062001a168187018460ff169052565b860151915061014062001a33868201846001600160a01b03169052565b860151915061016062001a49868201846200172b565b86015191506101e062001a5f868201846200172b565b610180870151925062001a776102608701846200172b565b6101a0870151925062001a8f6102e08701846200172b565b6101c08701519250818685030161036087015262001aae8484620016d0565b93508087015161038087015250505061020084015162001adc6103a085018280518252602090810151910152565b509392505050565b6000808335601e1984360301811262001afb578283fd5b83018035915067ffffffffffffffff82111562001b16578283fd5b6020019150600581901b3603821315620014bc57600080fd5b6000808335601e1984360301811262001b46578182fd5b83018035915067ffffffffffffffff82111562001b61578283fd5b602001915036819003821315620014bc57600080fd5b604051601f8201601f1916810167ffffffffffffffff8111828210171562001ba35762001ba362001ca9565b604052919050565b600067ffffffffffffffff8084111562001bc95762001bc962001ca9565b8360051b602062001bdc81830162001b77565b868152818101908636858201111562001bf3578687fd5b8694505b8885101562001c465780358681111562001c0f578788fd5b880136601f82011262001c20578788fd5b62001c30368235878401620013fb565b8452506001949094019391830191830162001bf7565b50979650505050505050565b60005b8381101562001c6f57818101518382015260200162001c55565b83811115620012635750506000910152565b600060001982141562001ca257634e487b7160e01b81526011600452602481fd5b5060010190565b634e487b7160e01b600052604160045260246000fdfe60806040526040516107a23803806107a283398101604081905261002291610315565b61004d60017f360894a13ba1a3210667c828492db98dca3e2076cc3735a920a3ca505d382bbd61042d565b60008051602061075b8339815191521461007757634e487b7160e01b600052600160045260246000fd5b6100838282600061008a565b5050610492565b610093836100c0565b6000825111806100a05750805b156100bb576100b9838361010060201b6100291760201c565b505b505050565b6100c98161012c565b6040516001600160a01b038216907fbc7cd75a20ee27fd9adebab32041f755214dbc6bffa90cc0225b39da2e5c2d3b90600090a250565b6060610125838360405180606001604052806027815260200161077b602791396101ec565b9392505050565b61013f816102ca60201b6100551760201c565b6101a65760405162461bcd60e51b815260206004820152602d60248201527f455243313936373a206e657720696d706c656d656e746174696f6e206973206e60448201526c1bdd08184818dbdb9d1c9858dd609a1b60648201526084015b60405180910390fd5b806101cb60008051602061075b83398151915260001b6102d960201b6100641760201c565b80546001600160a01b0319166001600160a01b039290921691909117905550565b60606001600160a01b0384163b6102545760405162461bcd60e51b815260206004820152602660248201527f416464726573733a2064656c65676174652063616c6c20746f206e6f6e2d636f6044820152651b9d1c9858dd60d21b606482015260840161019d565b600080856001600160a01b03168560405161026f91906103de565b600060405180830381855af49150503d80600081146102aa576040519150601f19603f3d011682016040523d82523d6000602084013e6102af565b606091505b5090925090506102c08282866102dc565b9695505050505050565b6001600160a01b03163b151590565b90565b606083156102eb575081610125565b8251156102fb5782518084602001fd5b8160405162461bcd60e51b815260040161019d91906103fa565b60008060408385031215610327578182fd5b82516001600160a01b038116811461033d578283fd5b60208401519092506001600160401b0380821115610359578283fd5b818501915085601f83011261036c578283fd5b81518181111561037e5761037e61047c565b604051601f8201601f19908116603f011681019083821181831017156103a6576103a661047c565b816040528281528860208487010111156103be578586fd5b6103cf836020830160208801610450565b80955050505050509250929050565b600082516103f0818460208701610450565b9190910192915050565b6020815260008251806020840152610419816040850160208701610450565b601f01601f19169190910160400192915050565b60008282101561044b57634e487b7160e01b81526011600452602481fd5b500390565b60005b8381101561046b578181015183820152602001610453565b838111156100b95750506000910152565b634e487b7160e01b600052604160045260246000fd5b6102ba806104a16000396000f3fe60806040523661001357610011610017565b005b6100115b610027610022610067565b61009f565b565b606061004e838360405180606001604052806027815260200161025e602791396100c3565b9392505050565b6001600160a01b03163b151590565b90565b600061009a7f360894a13ba1a3210667c828492db98dca3e2076cc3735a920a3ca505d382bbc546001600160a01b031690565b905090565b3660008037600080366000845af43d6000803e8080156100be573d6000f35b3d6000fd5b60606001600160a01b0384163b6101305760405162461bcd60e51b815260206004820152602660248201527f416464726573733a2064656c65676174652063616c6c20746f206e6f6e2d636f6044820152651b9d1c9858dd60d21b60648201526084015b60405180910390fd5b600080856001600160a01b03168560405161014b91906101de565b600060405180830381855af49150503d8060008114610186576040519150601f19603f3d011682016040523d82523d6000602084013e61018b565b606091505b509150915061019b8282866101a5565b9695505050505050565b606083156101b457508161004e565b8251156101c45782518084602001fd5b8160405162461bcd60e51b815260040161012791906101fa565b600082516101f081846020870161022d565b9190910192915050565b602081526000825180602084015261021981604085016020870161022d565b601f01601f19169190910160400192915050565b60005b83811015610248578181015183820152602001610230565b83811115610257576000848401525b5050505056fe416464726573733a206c6f772d6c6576656c2064656c65676174652063616c6c206661696c6564a2646970667358221220e14c3fee28687df8af621b132b9789cfe2ceb6f7d6de514bb73c2956ffe9d6dd64736f6c63430008040033360894a13ba1a3210667c828492db98dca3e2076cc3735a920a3ca505d382bbc416464726573733a206c6f772d6c6576656c2064656c65676174652063616c6c206661696c6564360894a13ba1a3210667c828492db98dca3e2076cc3735a920a3ca505d382bbc416464726573733a206c6f772d6c6576656c2064656c65676174652063616c6c206661696c6564a2646970667358221220698f558bc1e37571ccce09a359832569ba6e7aa67fe3b2ecc9023cf87f35b18664736f6c63430008040033",
  "linkReferences": {},
  "deployedLinkReferences": {}
}