{
  "_format": "hh-sol-artifact-1",
  "contractName": "Dao",
  "sourceName": "contracts/Dao.sol",
  "abi": [
    {
      "inputs": [],
      "stateMutability": "nonpayable",
      "type": "constructor"
    },
    {
      "anonymous": false,
      "inputs": [
        {
          "indexed": false,
          "internalType": "address",
          "name": "token",
          "type": "address"
        },
        {
          "indexed": false,
          "internalType": "uint256",
          "name": "minTokenToAdmit",
          "type": "uint256"
        },
        {
          "indexed": false,
          "internalType": "uint256",
          "name": "tokenId",
          "type": "uint256"
        },
        {
          "indexed": false,
          "internalType": "bool",
          "name": "isMemberToken",
          "type": "bool"
        }
      ],
      "name": "AddAdmissionToken",
      "type": "event"
    },
    {
      "anonymous": false,
      "inputs": [
        {
          "indexed": false,
          "internalType": "address",
          "name": "previousAdmin",
          "type": "address"
        },
        {
          "indexed": false,
          "internalType": "address",
          "name": "newAdmin",
          "type": "address"
        }
      ],
      "name": "AdminChanged",
      "type": "event"
    },
    {
      "anonymous": false,
      "inputs": [
        {
          "indexed": false,
          "internalType": "address",
          "name": "token",
          "type": "address"
        }
      ],
      "name": "AllowDepositToken",
      "type": "event"
    },
    {
      "anonymous": false,
      "inputs": [
        {
          "indexed": true,
          "internalType": "address",
          "name": "beacon",
          "type": "address"
        }
      ],
      "name": "BeaconUpgraded",
      "type": "event"
    },
    {
      "anonymous": false,
      "inputs": [
        {
          "indexed": false,
          "internalType": "address",
          "name": "budgetApproval",
          "type": "address"
        },
        {
          "indexed": false,
          "internalType": "bytes",
          "name": "data",
          "type": "bytes"
        }
      ],
      "name": "CreateBudgetApproval",
      "type": "event"
    },
    {
      "anonymous": false,
      "inputs": [
        {
          "indexed": false,
          "internalType": "address",
          "name": "account",
          "type": "address"
        },
        {
          "indexed": false,
          "internalType": "uint256",
          "name": "depositAmount",
          "type": "uint256"
        }
      ],
      "name": "CreateMember",
      "type": "event"
    },
    {
      "anonymous": false,
      "inputs": [
        {
          "indexed": false,
          "internalType": "address",
          "name": "creator",
          "type": "address"
        },
        {
          "indexed": false,
          "internalType": "address",
          "name": "token",
          "type": "address"
        }
      ],
      "name": "CreateMemberToken",
      "type": "event"
    },
    {
      "anonymous": false,
      "inputs": [
        {
          "indexed": false,
          "internalType": "address",
          "name": "account",
          "type": "address"
        },
        {
          "indexed": false,
          "internalType": "uint256",
          "name": "amount",
          "type": "uint256"
        }
      ],
      "name": "Deposit",
      "type": "event"
    },
    {
      "anonymous": false,
      "inputs": [
        {
          "indexed": false,
          "internalType": "address",
          "name": "budgetApproval",
          "type": "address"
        },
        {
          "indexed": false,
          "internalType": "bytes",
          "name": "data",
          "type": "bytes"
        }
      ],
      "name": "ExecuteByBudgetApproval",
      "type": "event"
    },
    {
      "anonymous": false,
      "inputs": [
        {
          "indexed": false,
          "internalType": "uint8",
          "name": "version",
          "type": "uint8"
        }
      ],
      "name": "Initialized",
      "type": "event"
    },
    {
      "anonymous": false,
      "inputs": [
        {
          "indexed": false,
          "internalType": "address",
          "name": "owner",
          "type": "address"
        },
        {
          "indexed": false,
          "internalType": "uint256",
          "name": "time",
          "type": "uint256"
        }
      ],
      "name": "SetFirstDepositTime",
      "type": "event"
    },
    {
      "anonymous": false,
      "inputs": [
        {
          "indexed": false,
          "internalType": "uint256",
          "name": "minDepositAmount",
          "type": "uint256"
        }
      ],
      "name": "UpdateDaoSetting",
      "type": "event"
    },
    {
      "anonymous": false,
      "inputs": [
        {
          "indexed": false,
          "internalType": "string",
          "name": "remark",
          "type": "string"
        }
      ],
      "name": "UpgradeDao",
      "type": "event"
    },
    {
      "anonymous": false,
      "inputs": [
        {
          "indexed": true,
          "internalType": "address",
          "name": "implementation",
          "type": "address"
        }
      ],
      "name": "Upgraded",
      "type": "event"
    },
    {
      "anonymous": false,
      "inputs": [
        {
          "indexed": false,
          "internalType": "uint256",
          "name": "tokenId",
          "type": "uint256"
        }
      ],
      "name": "WhitelistTeam",
      "type": "event"
    },
    {
      "inputs": [],
      "name": "adam",
      "outputs": [
        {
          "internalType": "address",
          "name": "",
          "type": "address"
        }
      ],
      "stateMutability": "view",
      "type": "function"
    },
    {
      "inputs": [
        {
          "internalType": "address[]",
          "name": "erc20s",
          "type": "address[]"
        }
      ],
      "name": "addAssets",
      "outputs": [],
      "stateMutability": "nonpayable",
      "type": "function"
    },
    {
      "inputs": [
        {
          "internalType": "address",
          "name": "",
          "type": "address"
        }
      ],
      "name": "admissionTokenSetting",
      "outputs": [
        {
          "internalType": "uint256",
          "name": "minTokenToAdmit",
          "type": "uint256"
        },
        {
          "internalType": "uint256",
          "name": "tokenId",
          "type": "uint256"
        },
        {
          "internalType": "bool",
          "name": "active",
          "type": "bool"
        }
      ],
      "stateMutability": "view",
      "type": "function"
    },
    {
      "inputs": [
        {
          "internalType": "uint256",
          "name": "",
          "type": "uint256"
        }
      ],
      "name": "admissionTokens",
      "outputs": [
        {
          "internalType": "address",
          "name": "",
          "type": "address"
        }
      ],
      "stateMutability": "view",
      "type": "function"
    },
    {
      "inputs": [],
      "name": "admissionTokensLength",
      "outputs": [
        {
          "internalType": "uint256",
          "name": "",
          "type": "uint256"
        }
      ],
      "stateMutability": "view",
      "type": "function"
    },
    {
      "inputs": [
        {
          "internalType": "address",
          "name": "account",
          "type": "address"
        },
        {
          "internalType": "uint256",
          "name": "amount",
          "type": "uint256"
        }
      ],
      "name": "afterDeposit",
      "outputs": [],
      "stateMutability": "nonpayable",
      "type": "function"
    },
    {
      "inputs": [],
      "name": "baseCurrency",
      "outputs": [
        {
          "internalType": "address",
          "name": "",
          "type": "address"
        }
      ],
      "stateMutability": "view",
      "type": "function"
    },
    {
      "inputs": [
        {
          "internalType": "address",
          "name": "template",
          "type": "address"
        }
      ],
      "name": "budgetApprovals",
      "outputs": [
        {
          "internalType": "bool",
          "name": "",
          "type": "bool"
        }
      ],
      "stateMutability": "view",
      "type": "function"
    },
    {
      "inputs": [
        {
          "internalType": "address",
          "name": "account",
          "type": "address"
        }
      ],
      "name": "byPassGovern",
      "outputs": [
        {
          "internalType": "bool",
          "name": "",
          "type": "bool"
        }
      ],
      "stateMutability": "view",
      "type": "function"
    },
    {
      "inputs": [
        {
          "internalType": "address",
          "name": "budgetApproval",
          "type": "address"
        }
      ],
      "name": "canCreateBudgetApproval",
      "outputs": [
        {
          "internalType": "bool",
          "name": "",
          "type": "bool"
        }
      ],
      "stateMutability": "view",
      "type": "function"
    },
    {
      "inputs": [
        {
          "internalType": "address[]",
          "name": "__budgetApprovals",
          "type": "address[]"
        },
        {
          "internalType": "bytes[]",
          "name": "data",
          "type": "bytes[]"
        }
      ],
      "name": "createBudgetApprovals",
      "outputs": [],
      "stateMutability": "nonpayable",
      "type": "function"
    },
    {
      "inputs": [
        {
          "internalType": "string",
          "name": "_name",
          "type": "string"
        },
        {
          "internalType": "uint256",
          "name": "duration",
          "type": "uint256"
        },
        {
          "internalType": "uint256",
          "name": "quorum",
          "type": "uint256"
        },
        {
          "internalType": "uint256",
          "name": "passThreshold",
          "type": "uint256"
        },
        {
          "internalType": "uint256",
          "name": "voteToken",
          "type": "uint256"
        }
      ],
      "name": "createGovern",
      "outputs": [],
      "stateMutability": "nonpayable",
      "type": "function"
    },
    {
      "inputs": [
        {
          "internalType": "string",
          "name": "title",
          "type": "string"
        },
        {
          "internalType": "address",
          "name": "minter",
          "type": "address"
        },
        {
          "internalType": "address[]",
          "name": "members",
          "type": "address[]"
        },
        {
          "internalType": "string",
          "name": "description",
          "type": "string"
        }
      ],
      "name": "createTeam",
      "outputs": [],
      "stateMutability": "nonpayable",
      "type": "function"
    },
    {
      "inputs": [],
      "name": "creator",
      "outputs": [
        {
          "internalType": "address",
          "name": "",
          "type": "address"
        }
      ],
      "stateMutability": "view",
      "type": "function"
    },
    {
      "inputs": [
        {
          "internalType": "address",
          "name": "_to",
          "type": "address"
        },
        {
          "internalType": "bytes",
          "name": "_data",
          "type": "bytes"
        },
        {
          "internalType": "uint256",
          "name": "_value",
          "type": "uint256"
        }
      ],
      "name": "executeByBudgetApproval",
      "outputs": [
        {
          "internalType": "bytes",
          "name": "",
          "type": "bytes"
        }
      ],
      "stateMutability": "nonpayable",
      "type": "function"
    },
    {
      "inputs": [
        {
          "internalType": "address",
          "name": "",
          "type": "address"
        }
      ],
      "name": "firstDepositTime",
      "outputs": [
        {
          "internalType": "uint256",
          "name": "",
          "type": "uint256"
        }
      ],
      "stateMutability": "view",
      "type": "function"
    },
    {
      "inputs": [
        {
          "internalType": "string",
          "name": "gName",
          "type": "string"
        }
      ],
      "name": "govern",
      "outputs": [
        {
          "internalType": "address",
          "name": "",
          "type": "address"
        }
      ],
      "stateMutability": "view",
      "type": "function"
    },
    {
      "inputs": [],
      "name": "governFactory",
      "outputs": [
        {
          "internalType": "address",
          "name": "",
          "type": "address"
        }
      ],
      "stateMutability": "view",
      "type": "function"
    },
    {
      "inputs": [
        {
          "components": [
            {
              "internalType": "address",
              "name": "_creator",
              "type": "address"
            },
            {
              "internalType": "address",
              "name": "_membership",
              "type": "address"
            },
            {
              "internalType": "address",
              "name": "_liquidPool",
              "type": "address"
            },
            {
              "internalType": "address",
              "name": "_governFactory",
              "type": "address"
            },
            {
              "internalType": "address",
              "name": "_team",
              "type": "address"
            },
            {
              "internalType": "address",
              "name": "_memberTokenImplementation",
              "type": "address"
            },
            {
              "internalType": "string",
              "name": "_name",
              "type": "string"
            },
            {
              "internalType": "string",
              "name": "_description",
              "type": "string"
            },
            {
              "internalType": "uint256",
              "name": "_locktime",
              "type": "uint256"
            },
            {
              "internalType": "uint256[4]",
              "name": "generalGovernSetting",
              "type": "uint256[4]"
            },
            {
              "internalType": "string[]",
              "name": "tokenInfo",
              "type": "string[]"
            },
            {
              "internalType": "uint256",
              "name": "tokenAmount",
              "type": "uint256"
            },
            {
              "components": [
                {
                  "internalType": "uint256",
                  "name": "minDepositAmount",
                  "type": "uint256"
                }
              ],
              "internalType": "struct Dao.DaoSetting",
              "name": "daoSetting",
              "type": "tuple"
            },
            {
              "internalType": "address[]",
              "name": "depositTokens",
              "type": "address[]"
            },
            {
              "internalType": "bool",
              "name": "mintMemberToken",
              "type": "bool"
            },
            {
              "components": [
                {
                  "internalType": "address",
                  "name": "token",
                  "type": "address"
                },
                {
                  "internalType": "uint256",
                  "name": "minTokenToAdmit",
                  "type": "uint256"
                },
                {
                  "internalType": "uint256",
                  "name": "tokenId",
                  "type": "uint256"
                },
                {
                  "internalType": "bool",
                  "name": "isMemberToken",
                  "type": "bool"
                }
              ],
              "internalType": "struct Dao.AdmissionToken[]",
              "name": "admissionTokens",
              "type": "tuple[]"
            },
            {
              "internalType": "address",
              "name": "baseCurrency",
              "type": "address"
            },
            {
              "internalType": "string",
              "name": "logoCID",
              "type": "string"
            }
          ],
          "internalType": "struct Dao.InitializeParams",
          "name": "params",
          "type": "tuple"
        }
      ],
      "name": "initialize",
      "outputs": [],
      "stateMutability": "nonpayable",
      "type": "function"
    },
    {
      "inputs": [
        {
          "internalType": "address",
          "name": "",
          "type": "address"
        }
      ],
      "name": "isAssetSupported",
      "outputs": [
        {
          "internalType": "bool",
          "name": "",
          "type": "bool"
        }
      ],
      "stateMutability": "view",
      "type": "function"
    },
    {
      "inputs": [
        {
          "internalType": "address",
          "name": "account",
          "type": "address"
        }
      ],
      "name": "isMember",
      "outputs": [
        {
          "internalType": "bool",
          "name": "",
          "type": "bool"
        }
      ],
      "stateMutability": "view",
      "type": "function"
    },
    {
      "inputs": [
        {
          "internalType": "address",
          "name": "account",
          "type": "address"
        }
      ],
      "name": "isPassAdmissionToken",
      "outputs": [
        {
          "internalType": "bool",
          "name": "",
          "type": "bool"
        }
      ],
      "stateMutability": "view",
      "type": "function"
    },
    {
      "inputs": [],
      "name": "liquidPool",
      "outputs": [
        {
          "internalType": "address",
          "name": "",
          "type": "address"
        }
      ],
      "stateMutability": "view",
      "type": "function"
    },
    {
      "inputs": [],
      "name": "locktime",
      "outputs": [
        {
          "internalType": "uint256",
          "name": "",
          "type": "uint256"
        }
      ],
      "stateMutability": "view",
      "type": "function"
    },
    {
      "inputs": [],
      "name": "logoCID",
      "outputs": [
        {
          "internalType": "string",
          "name": "",
          "type": "string"
        }
      ],
      "stateMutability": "view",
      "type": "function"
    },
    {
      "inputs": [],
      "name": "memberToken",
      "outputs": [
        {
          "internalType": "address",
          "name": "",
          "type": "address"
        }
      ],
      "stateMutability": "view",
      "type": "function"
    },
    {
      "inputs": [],
      "name": "membership",
      "outputs": [
        {
          "internalType": "address",
          "name": "",
          "type": "address"
        }
      ],
      "stateMutability": "view",
      "type": "function"
    },
    {
      "inputs": [],
      "name": "minDepositAmount",
      "outputs": [
        {
          "internalType": "uint256",
          "name": "",
          "type": "uint256"
        }
      ],
      "stateMutability": "view",
      "type": "function"
    },
    {
      "inputs": [
        {
          "internalType": "address",
          "name": "owner",
          "type": "address"
        }
      ],
      "name": "mintMember",
      "outputs": [],
      "stateMutability": "nonpayable",
      "type": "function"
    },
    {
      "inputs": [
        {
          "internalType": "uint256",
          "name": "amount",
          "type": "uint256"
        }
      ],
      "name": "mintMemberToken",
      "outputs": [],
      "stateMutability": "nonpayable",
      "type": "function"
    },
    {
      "inputs": [],
      "name": "name",
      "outputs": [
        {
          "internalType": "string",
          "name": "",
          "type": "string"
        }
      ],
      "stateMutability": "view",
      "type": "function"
    },
    {
      "inputs": [
        {
          "internalType": "address",
          "name": "",
          "type": "address"
        },
        {
          "internalType": "address",
          "name": "",
          "type": "address"
        },
        {
          "internalType": "uint256[]",
          "name": "",
          "type": "uint256[]"
        },
        {
          "internalType": "uint256[]",
          "name": "",
          "type": "uint256[]"
        },
        {
          "internalType": "bytes",
          "name": "",
          "type": "bytes"
        }
      ],
      "name": "onERC1155BatchReceived",
      "outputs": [
        {
          "internalType": "bytes4",
          "name": "",
          "type": "bytes4"
        }
      ],
      "stateMutability": "nonpayable",
      "type": "function"
    },
    {
      "inputs": [
        {
          "internalType": "address",
          "name": "",
          "type": "address"
        },
        {
          "internalType": "address",
          "name": "",
          "type": "address"
        },
        {
          "internalType": "uint256",
          "name": "",
          "type": "uint256"
        },
        {
          "internalType": "uint256",
          "name": "",
          "type": "uint256"
        },
        {
          "internalType": "bytes",
          "name": "",
          "type": "bytes"
        }
      ],
      "name": "onERC1155Received",
      "outputs": [
        {
          "internalType": "bytes4",
          "name": "",
          "type": "bytes4"
        }
      ],
      "stateMutability": "nonpayable",
      "type": "function"
    },
    {
      "inputs": [
        {
          "internalType": "address",
          "name": "",
          "type": "address"
        },
        {
          "internalType": "address",
          "name": "",
          "type": "address"
        },
        {
          "internalType": "uint256",
          "name": "",
          "type": "uint256"
        },
        {
          "internalType": "bytes",
          "name": "",
          "type": "bytes"
        }
      ],
      "name": "onERC721Received",
      "outputs": [
        {
          "internalType": "bytes4",
          "name": "",
          "type": "bytes4"
        }
      ],
      "stateMutability": "nonpayable",
      "type": "function"
    },
    {
      "inputs": [],
      "name": "proxiableUUID",
      "outputs": [
        {
          "internalType": "bytes32",
          "name": "",
          "type": "bytes32"
        }
      ],
      "stateMutability": "view",
      "type": "function"
    },
    {
      "inputs": [
        {
          "internalType": "address",
          "name": "owner",
          "type": "address"
        }
      ],
      "name": "setFirstDepositTime",
      "outputs": [],
      "stateMutability": "nonpayable",
      "type": "function"
    },
    {
      "inputs": [
        {
          "internalType": "bytes4",
          "name": "interfaceId",
          "type": "bytes4"
        }
      ],
      "name": "supportsInterface",
      "outputs": [
        {
          "internalType": "bool",
          "name": "",
          "type": "bool"
        }
      ],
      "stateMutability": "view",
      "type": "function"
    },
    {
      "inputs": [],
      "name": "team",
      "outputs": [
        {
          "internalType": "address",
          "name": "",
          "type": "address"
        }
      ],
      "stateMutability": "view",
      "type": "function"
    },
    {
      "inputs": [
        {
          "internalType": "uint256",
          "name": "",
          "type": "uint256"
        }
      ],
      "name": "teamWhitelist",
      "outputs": [
        {
          "internalType": "bool",
          "name": "",
          "type": "bool"
        }
      ],
      "stateMutability": "view",
      "type": "function"
    },
    {
      "inputs": [
        {
          "internalType": "address",
          "name": "to",
          "type": "address"
        },
        {
          "internalType": "uint256",
          "name": "amount",
          "type": "uint256"
        }
      ],
      "name": "transferMemberToken",
      "outputs": [],
      "stateMutability": "nonpayable",
      "type": "function"
    },
    {
      "inputs": [
        {
          "components": [
            {
              "internalType": "uint256",
              "name": "minDepositAmount",
              "type": "uint256"
            }
          ],
          "internalType": "struct Dao.DaoSetting",
          "name": "_setting",
          "type": "tuple"
        }
      ],
      "name": "updateDaoSetting",
      "outputs": [],
      "stateMutability": "nonpayable",
      "type": "function"
    },
    {
      "inputs": [
        {
          "internalType": "address[]",
          "name": "targets",
          "type": "address[]"
        },
        {
          "internalType": "address[]",
          "name": "newImplementations",
          "type": "address[]"
        },
        {
          "internalType": "string",
          "name": "remark",
          "type": "string"
        }
      ],
      "name": "upgradeImplementations",
      "outputs": [],
      "stateMutability": "nonpayable",
      "type": "function"
    },
    {
      "inputs": [
        {
          "internalType": "address",
          "name": "newImplementation",
          "type": "address"
        }
      ],
      "name": "upgradeTo",
      "outputs": [],
      "stateMutability": "nonpayable",
      "type": "function"
    },
    {
      "inputs": [
        {
          "internalType": "address",
          "name": "newImplementation",
          "type": "address"
        },
        {
          "internalType": "bytes",
          "name": "data",
          "type": "bytes"
        }
      ],
      "name": "upgradeToAndCall",
      "outputs": [],
      "stateMutability": "payable",
      "type": "function"
    },
    {
      "stateMutability": "payable",
      "type": "receive"
    }
  ],
  "bytecode": "0x60a06040523060601b6080523480156200001857600080fd5b506200002362000033565b6200002d62000033565b620000f5565b600054610100900460ff1615620000a05760405162461bcd60e51b815260206004820152602760248201527f496e697469616c697a61626c653a20636f6e747261637420697320696e697469604482015266616c697a696e6760c81b606482015260840160405180910390fd5b60005460ff9081161015620000f3576000805460ff191660ff9081179091556040519081527f7f26b83ff96e1f2b6a682f133852f6798a09c465da95921460cefb38474024989060200160405180910390a15b565b60805160601c614c616200013060003960008181610acd01528181610b19015281816111b3015281816111f601526112920152614c616000f3fe6080604052600436106200029f5760003560e01c80639c7880d7116200015f578063c69e6c4011620000c5578063df79812e1162000084578063df79812e14620008da578063e3c1fe9814620008ff578063eb6d00a61462000924578063ed0b66bc1462000986578063f23a6e6114620009ab578063fbf6cf5d14620009db57600080fd5b8063c69e6c401462000821578063c71511571462000846578063d0244e82146200086b578063d0b8f4e41462000890578063d3abc28b14620008b557600080fd5b8063aea321c6116200011e578063aea321c61462000745578063b34bacdd146200076a578063b6dbbc561462000782578063bc197c8114620007a7578063bcfb1a4014620007d7578063c311769514620007fc57600080fd5b80639c7880d71462000675578063a177db13146200069a578063a230c52414620006bf578063a240663e14620006e4578063a2bf68b9146200072257600080fd5b806352d1902d11620002055780636cb7c6f911620001c45780636cb7c6f9146200059457806385f2aef214620005c65780638940951614620005e75780638b805e96146200060a5780638e3d5d56146200062f57806392a85fde146200065257600080fd5b806352d1902d14620004f557806357338b22146200051c5780635cb54384146200053f57806361c533b41462000562578063645006ca146200057b57600080fd5b80633659cfe6116200025e5780633659cfe614620004155780633e0f7fde146200043a578063406cfb75146200045f578063464b415814620004845780634b31c1d814620004b95780634f1ef28614620004de57600080fd5b806301ffc9a714620002fa57806302d05d3f146200033457806306fdde031462000370578063150b7a0214620003975780632f10e23614620003e057600080fd5b36620002f5573315801590620002b457503415155b15620002f357604080513381523460208201527fe1fffcc4923d04b559f4d29a8bfc6cda04eb5b0d3c460751c2402c5c5cc9109c910160405180910390a15b005b600080fd5b3480156200030757600080fd5b506200031f6200031936600462003caf565b620009f3565b60405190151581526020015b60405180910390f35b3480156200034157600080fd5b506101625462000357906001600160a01b031681565b6040516001600160a01b0390911681526020016200032b565b3480156200037d57600080fd5b506200038862000a2b565b6040516200032b9190620040c4565b348015620003a457600080fd5b50620003c6620003b6366004620038e1565b630a85bd0160e11b949350505050565b6040516001600160e01b031990911681526020016200032b565b348015620003ed57600080fd5b506200031f620003ff36600462003f94565b61016f6020526000908152604090205460ff1681565b3480156200042257600080fd5b50620002f362000434366004620037e6565b62000ac2565b3480156200044757600080fd5b50620002f36200045936600462003e25565b62000bb7565b3480156200046c57600080fd5b506200031f6200047e366004620037e6565b62000d26565b3480156200049157600080fd5b506200031f620004a3366004620037e6565b61016e6020526000908152604090205460ff1681565b348015620004c657600080fd5b50620002f3620004d836600462003aeb565b62000f58565b620002f3620004ef366004620039c4565b620011a8565b3480156200050257600080fd5b506200050d62001285565b6040519081526020016200032b565b3480156200052957600080fd5b506101655462000357906001600160a01b031681565b3480156200054c57600080fd5b506101615462000357906001600160a01b031681565b3480156200056f57600080fd5b506200050d6101685481565b3480156200058857600080fd5b506200050d6101695481565b348015620005a157600080fd5b506200050d620005b3366004620037e6565b61016d6020526000908152604090205481565b348015620005d357600080fd5b5061012d546001600160a01b031662000357565b348015620005f457600080fd5b506101665462000357906001600160a01b031681565b3480156200061757600080fd5b50620002f36200062936600462003f94565b6200133b565b3480156200063c57600080fd5b506101635462000357906001600160a01b031681565b3480156200065f57600080fd5b5061016a5462000357906001600160a01b031681565b3480156200068257600080fd5b50620002f36200069436600462003f3d565b620013b7565b348015620006a757600080fd5b50620002f3620006b9366004620037e6565b62001468565b348015620006cc57600080fd5b506200031f620006de366004620037e6565b62001509565b348015620006f157600080fd5b506200031f62000703366004620037e6565b6001600160a01b0316600090815261012e602052604090205460ff1690565b3480156200072f57600080fd5b506101645462000357906001600160a01b031681565b3480156200075257600080fd5b50620002f36200076436600462003aa6565b6200158d565b3480156200077757600080fd5b506200038862001641565b3480156200078f57600080fd5b506200031f620007a1366004620037e6565b62001651565b348015620007b457600080fd5b50620003c6620007c636600462003826565b63bc197c8160e01b95945050505050565b348015620007e457600080fd5b5062000357620007f636600462003f94565b620016e9565b3480156200080957600080fd5b50620002f36200081b36600462003a77565b62001715565b3480156200082e57600080fd5b50620003576200084036600462003d6f565b62001792565b3480156200085357600080fd5b50620002f362000865366004620037e6565b6200181c565b3480156200087857600080fd5b50620002f36200088a36600462003f56565b6200186e565b3480156200089d57600080fd5b50620002f3620008af36600462003cdb565b62001dab565b348015620008c257600080fd5b5062000388620008d436600462003a19565b62001e6c565b348015620008e757600080fd5b50620002f3620008f936600462003b6c565b62001ff7565b3480156200090c57600080fd5b50620002f36200091e36600462003a77565b620021d6565b3480156200093157600080fd5b506200096862000943366004620037e6565b6101706020526000908152604090208054600182015460029092015490919060ff1683565b6040805193845260208401929092521515908201526060016200032b565b3480156200099357600080fd5b506200031f620009a5366004620037e6565b6200230e565b348015620009b857600080fd5b50620003c6620009ca36600462003954565b63f23a6e6160e01b95945050505050565b348015620009e857600080fd5b5061016c546200050d565b60006001600160e01b03198216630271189760e51b148062000a2557506301ffc9a760e01b6001600160e01b03198316145b92915050565b610167805462000a3b90620043fb565b80601f016020809104026020016040519081016040528092919081815260200182805462000a6990620043fb565b801562000aba5780601f1062000a8e5761010080835404028352916020019162000aba565b820191906000526020600020905b81548152906001019060200180831162000a9c57829003601f168201915b505050505081565b306001600160a01b037f000000000000000000000000000000000000000000000000000000000000000016141562000b175760405162461bcd60e51b815260040162000b0e90620041d0565b60405180910390fd5b7f00000000000000000000000000000000000000000000000000000000000000006001600160a01b031662000b6260008051602062004be5833981519152546001600160a01b031690565b6001600160a01b03161462000b8b5760405162461bcd60e51b815260040162000b0e906200421c565b62000b968162002343565b6040805160008082526020820190925262000bb491839190620023b4565b50565b6040518060400160405280600781526020016611d95b995c985b60ca1b81525062000be23362001651565b8062000c09575062000bf48162001792565b6001600160a01b0316336001600160a01b0316145b62000c285760405162461bcd60e51b815260040162000b0e90620041a2565b600062000c3e61012d546001600160a01b031690565b6001600160a01b03166253153b878787876040518563ffffffff1660e01b815260040162000c709493929190620040d9565b602060405180830381600087803b15801562000c8b57600080fd5b505af115801562000ca0573d6000803e3d6000fd5b505050506040513d601f19601f8201168201806040525081019062000cc6919062003c95565b600081815261016f602052604090819020805460ff19166001179055519091507ff94f63f5f9de5de7659ae3ccaa099cce39347833cbd85ffe78570b86f4051ab49062000d169083815260200190565b60405180910390a1505050505050565b61016c54600090815b8181101562000f4e57600061016c828154811062000d515762000d5162004472565b60009182526020808320909101546001600160a01b0316808352610170909152604090912054909150801562000f3657600062000d97836001600160a01b03166200253c565b1562000e23576040516370a0823160e01b81526001600160a01b0388811660048301528416906370a08231906024015b60206040518083038186803b15801562000de057600080fd5b505afa15801562000df5573d6000803e3d6000fd5b505050506040513d601f19601f8201168201806040525081019062000e1b919062003c95565b905062000f1e565b62000e37836001600160a01b0316620025c7565b1562000e84576001600160a01b038381166000818152610170602052604090819020600101549051627eeac760e11b8152928a16600484015260248301529062fdd58e9060440162000dc7565b62000e98836001600160a01b0316620025fe565b1562000f1e576040516370a0823160e01b81526001600160a01b0388811660048301528416906370a082319060240160206040518083038186803b15801562000ee057600080fd5b505afa15801562000ef5573d6000803e3d6000fd5b505050506040513d601f19601f8201168201806040525081019062000f1b919062003c95565b90505b8181101562000f34575060009695505050505050565b505b5050808062000f459062004432565b91505062000d2f565b5060019392505050565b6040518060400160405280600781526020016611d95b995c985b60ca1b81525062000f833362001651565b8062000faa575062000f958162001792565b6001600160a01b0316336001600160a01b0316145b62000fc95760405162461bcd60e51b815260040162000b0e90620041a2565b8483146200101a5760405162461bcd60e51b815260206004820152601760248201527f706172616d73206c656e677468206e6f74206d61746368000000000000000000604482015260640162000b0e565b60005b858110156200117657308787838181106200103c576200103c62004472565b9050602002016020810190620010539190620037e6565b6001600160a01b031614156200109f57620010998585838181106200107c576200107c62004472565b9050602002016020810190620010939190620037e6565b620026a3565b62001161565b868682818110620010b457620010b462004472565b9050602002016020810190620010cb9190620037e6565b6001600160a01b0316633659cfe6868684818110620010ee57620010ee62004472565b9050602002016020810190620011059190620037e6565b6040516001600160e01b031960e084901b1681526001600160a01b039091166004820152602401600060405180830381600087803b1580156200114757600080fd5b505af11580156200115c573d6000803e3d6000fd5b505050505b806200116d8162004432565b9150506200101d565b507fae65f73ea44fb5b0663fb704952c68701722f2eff0f95e69900bd903f9770f388260405162000d169190620040c4565b306001600160a01b037f0000000000000000000000000000000000000000000000000000000000000000161415620011f45760405162461bcd60e51b815260040162000b0e90620041d0565b7f00000000000000000000000000000000000000000000000000000000000000006001600160a01b03166200123f60008051602062004be5833981519152546001600160a01b031690565b6001600160a01b031614620012685760405162461bcd60e51b815260040162000b0e906200421c565b620012738262002343565b6200128182826001620023b4565b5050565b6000306001600160a01b037f00000000000000000000000000000000000000000000000000000000000000001614620013275760405162461bcd60e51b815260206004820152603860248201527f555550535570677261646561626c653a206d757374206e6f742062652063616c60448201527f6c6564207468726f7567682064656c656761746563616c6c0000000000000000606482015260840162000b0e565b5060008051602062004be583398151915290565b6040518060400160405280600781526020016611d95b995c985b60ca1b815250620013663362001651565b806200138d5750620013788162001792565b6001600160a01b0316336001600160a01b0316145b620013ac5760405162461bcd60e51b815260040162000b0e90620041a2565b6200128182620026e5565b6040518060400160405280600781526020016611d95b995c985b60ca1b815250620013e23362001651565b80620014095750620013f48162001792565b6001600160a01b0316336001600160a01b0316145b620014285760405162461bcd60e51b815260040162000b0e90620041a2565b81356101698190556040519081527f79486b012294e8f7bb11a0cebc0a5f216f258eb3da2819a09962d2217c702950906020015b60405180910390a15050565b610165546001600160a01b03163314620014af5760405162461bcd60e51b815260206004820152600760248201526606f6e6c79204c560cc1b604482015260640162000b0e565b6001600160a01b038116600081815261016d602090815260409182902042908190558251938452908301527f7ac58570d3e556be8ffd5d5bda8bc949958077c3aa21c4b5fa11b63ed12dafa791015b60405180910390a150565b6101645460405163288c314960e21b81526001600160a01b038381166004830152600092169063a230c524906024015b60206040518083038186803b1580156200155257600080fd5b505afa15801562001567573d6000803e3d6000fd5b505050506040513d601f19601f8201168201806040525081019062000a25919062003c75565b6040518060400160405280600781526020016611d95b995c985b60ca1b815250620015b83362001651565b80620015df5750620015ca8162001792565b6001600160a01b0316336001600160a01b0316145b620015fe5760405162461bcd60e51b815260040162000b0e90620041a2565b6200163c838380806020026020016040519081016040528093929190818152602001838360200280828437600092019190915250620027a192505050565b505050565b61016b805462000a3b90620043fb565b61016454604080516318160ddd60e01b815290516000926001600160a01b0316916318160ddd916004808301926020929190829003018186803b1580156200169857600080fd5b505afa158015620016ad573d6000803e3d6000fd5b505050506040513d601f19601f82011682018060405250810190620016d3919062003c95565b600114801562000a25575062000a258262001509565b61016c8181548110620016fb57600080fd5b6000918252602090912001546001600160a01b0316905081565b6040518060400160405280600781526020016611d95b995c985b60ca1b815250620017403362001651565b80620017675750620017528162001792565b6001600160a01b0316336001600160a01b0316145b620017865760405162461bcd60e51b815260040162000b0e90620041a2565b6200163c83836200286b565b6101665460405163385f5d8f60e11b81526000916001600160a01b0316906370bebb1e90620017c8903090869060040162004056565b60206040518083038186803b158015620017e157600080fd5b505afa158015620017f6573d6000803e3d6000fd5b505050506040513d601f19601f8201168201806040525081019062000a25919062003806565b610165546001600160a01b03163314620018635760405162461bcd60e51b815260206004820152600760248201526606f6e6c79204c560cc1b604482015260640162000b0e565b62000bb4816200294d565b600054610100900460ff16158080156200188f5750600054600160ff909116105b80620018ab5750303b158015620018ab575060005460ff166001145b620019105760405162461bcd60e51b815260206004820152602e60248201527f496e697469616c697a61626c653a20636f6e747261637420697320616c72656160448201526d191e481a5b9a5d1a585b1a5e995960921b606482015260840162000b0e565b6000805460ff19166001179055801562001934576000805461ff0019166101001790555b6000620019456020840184620037e6565b6001600160a01b03161415801562001978575060006200196c6040840160208501620037e6565b6001600160a01b031614155b8015620019a057506000620019946060840160408501620037e6565b6001600160a01b031614155b8015620019c857506000620019bc6080840160608501620037e6565b6001600160a01b031614155b8015620019f057506000620019e460a0840160808501620037e6565b6001600160a01b031614155b801562001a185750600062001a0c60c0840160a08501620037e6565b6001600160a01b031614155b801562001a425750600062001a3661028084016102608501620037e6565b6001600160a01b031614155b62001a865760405162461bcd60e51b8152602060048201526013602482015272496e7661696c642044616f2053657474696e6760681b604482015260640162000b0e565b62001aa262001a9c60a0840160808501620037e6565b620029b2565b61016380546001600160a01b0319163317905562001ac46020830183620037e6565b61016280546001600160a01b0319166001600160a01b039290921691909117905562001af76040830160208401620037e6565b61016480546001600160a01b0319166001600160a01b039290921691909117905562001b2a6060830160408401620037e6565b61016580546001600160a01b0319166001600160a01b039290921691909117905562001b5a60c083018362004300565b62001b699161016791620035a2565b506101008201356101685562001b866080830160608401620037e6565b61016680546001600160a01b0319166001600160a01b03929092169190911790556101e08201356101695562001bc561028083016102608401620037e6565b61016a80546001600160a01b0319166001600160a01b039290921691909117905562001bf661028083018362004300565b62001c059161016b91620035a2565b5062001c1a6102408301610220840162003c55565b1562001c525762001c5262001c3660c0840160a08501620037e6565b62001c466101a085018562004268565b856101c0013562002a42565b60408051808201909152600781526611d95b995c985b60ca1b602082015262001c939061012084013561014085013561016086013561018087013562002c76565b62001d0262001ca7610240840184620042b4565b808060200260200160405190810160405280939291908181526020016000905b8282101562001cf75762001ce76080830286013681900381019062003ec1565b8152602001906001019062001cc7565b505050505062002d0f565b62001d1b62001d156020840184620037e6565b6200294d565b62001d6762001d2f61020084018462004268565b80806020026020016040519081016040528093929190818152602001838360200280828437600092019190915250620027a192505050565b801562001281576000805461ff0019169055604051600181527f7f26b83ff96e1f2b6a682f133852f6798a09c465da95921460cefb3847402498906020016200145c565b6040518060400160405280600781526020016611d95b995c985b60ca1b81525062001dd63362001651565b8062001dfd575062001de88162001792565b6001600160a01b0316336001600160a01b0316145b62001e1c5760405162461bcd60e51b815260040162000b0e90620041a2565b62001e6387878080601f0160208091040260200160405190810160405280939291908181526020018383808284376000920191909152508992508891508790508662002c76565b50505050505050565b33600090815261012e602052604090205460609060ff1662001edf5760405162461bcd60e51b815260206004820152602560248201527f427564676574417070726f76616c45786563757465653a206163636573732064604482015264195b9a595960da1b606482015260840162000b0e565b600080856001600160a01b0316848660405162001efd919062004005565b60006040518083038185875af1925050503d806000811462001f3c576040519150601f19603f3d011682016040523d82523d6000602084013e62001f41565b606091505b50915091508162001fb15762001f9662001f5b8262003085565b60408051808201909152601d81527f52657665727465642062792065787465726e616c20636f6e7472616374000000602082015290620030e2565b60405162461bcd60e51b815260040162000b0e9190620040c4565b7fcf452d48646654954090c61dd69f99a99bea4e2264594078fc81bfd43d6f6a9e338660405162001fe492919062004056565b60405180910390a19150505b9392505050565b80518251146200203f5760405162461bcd60e51b8152602060048201526012602482015271496e636f72726563742043616c6c6461746160701b604482015260640162000b0e565b60005b82518110156200163c576200207383828151811062002065576200206562004472565b602002602001015162003110565b60008382815181106200208a576200208a62004472565b6020026020010151838381518110620020a757620020a762004472565b6020026020010151604051620020bd9062003631565b620020ca92919062004056565b604051809103906000f080158015620020e7573d6000803e3d6000fd5b506001600160a01b038116600090815261012e60205260409020805460ff1916600117905583519091507f26c79e13dd63e8716f130c25331c09f2fdd55d6880bbfa7bcc38868207e8a6709082908590859081106200214a576200214a62004472565b60200260200101516040516200216292919062004056565b60405180910390a1806001600160a01b031663cf26fec66040518163ffffffff1660e01b8152600401600060405180830381600087803b158015620021a657600080fd5b505af1158015620021bb573d6000803e3d6000fd5b50505050508080620021cd9062004432565b91505062002042565b6001600160a01b038216600090815261016d60205260409020546200128157620022008262001468565b61016954811015620022555760405162461bcd60e51b815260206004820152601960248201527f6465706f73697420616d6f756e74206e6f7420656e6f75676800000000000000604482015260640162000b0e565b620022608262001509565b156200226a575050565b620022758262000d26565b620022c35760405162461bcd60e51b815260206004820152601a60248201527f41646d697373696f6e20746f6b656e206e6f7420656e6f756768000000000000604482015260640162000b0e565b620022ce826200181c565b604080516001600160a01b0384168152602081018390527fbd251213ab4f4d6ca44f082b3e6aadf9c5153e7c16bac3ac4f959462d425c23c91016200145c565b61016354604051635120331f60e11b81526001600160a01b038381166004830152600092169063a240663e9060240162001539565b6040518060400160405280600781526020016611d95b995c985b60ca1b8152506200236e3362001651565b80620023955750620023808162001792565b6001600160a01b0316336001600160a01b0316145b620012815760405162461bcd60e51b815260040162000b0e90620041a2565b7f4910fdfa16fed3260ed0e7147f7cc6da11a60208b5b9406d12a635614ffd91435460ff1615620023ea576200163c83620031e8565b826001600160a01b03166352d1902d6040518163ffffffff1660e01b815260040160206040518083038186803b1580156200242457600080fd5b505afa92505050801562002457575060408051601f3d908101601f19168201909252620024549181019062003c95565b60015b620024bc5760405162461bcd60e51b815260206004820152602e60248201527f45524331393637557067726164653a206e657720696d706c656d656e7461746960448201526d6f6e206973206e6f74205555505360901b606482015260840162000b0e565b60008051602062004be583398151915281146200252e5760405162461bcd60e51b815260206004820152602960248201527f45524331393637557067726164653a20756e737570706f727465642070726f786044820152681a58589b195555525160ba1b606482015260840162000b0e565b506200163c83838362003287565b6040516301ffc9a760e01b81526380ac58cd60e01b60048201526000906001600160a01b038316906301ffc9a7906024015b60206040518083038186803b1580156200258757600080fd5b505afa925050508015620025ba575060408051601f3d908101601f19168201909252620025b79181019062003c75565b60015b62000a2557506000919050565b6040516301ffc9a760e01b8152636cdb3d1360e11b60048201526000906001600160a01b038316906301ffc9a7906024016200256e565b60006200260b826200253c565b156200261957506000919050565b6040516370a0823160e01b8152600060048201526001600160a01b038316906370a082319060240160206040518083038186803b1580156200265a57600080fd5b505afa9250505080156200268d575060408051601f3d908101601f191682019092526200268a9181019062003c95565b60015b6200269a57506000919050565b50600192915050565b620026ae81620031e8565b6040516001600160a01b038216907fbc7cd75a20ee27fd9adebab32041f755214dbc6bffa90cc0225b39da2e5c2d3b90600090a250565b610161546001600160a01b0316806200273b5760405162461bcd60e51b815260206004820152601760248201527626b2b6b132b9102a37b5b2b7103737ba1022bc34b9ba1760491b604482015260640162000b0e565b6040516340c10f1960e01b8152306004820152602481018390526001600160a01b038216906340c10f1990604401600060405180830381600087803b1580156200278457600080fd5b505af115801562002799573d6000803e3d6000fd5b505050505050565b60005b8151811015620012815760006001600160a01b0316828281518110620027ce57620027ce62004472565b60200260200101516001600160a01b031614156200282f5760405162461bcd60e51b815260206004820152601960248201527f4e6f7420537570706f7274656420455243323020546f6b656e00000000000000604482015260640162000b0e565b6200285682828151811062002848576200284862004472565b6020026020010151620032b2565b80620028628162004432565b915050620027a4565b610161546001600160a01b031680620028c15760405162461bcd60e51b815260206004820152601760248201527626b2b6b132b9102a37b5b2b7103737ba1022bc34b9ba1760491b604482015260640162000b0e565b60405163a9059cbb60e01b81526001600160a01b0384811660048301526024820184905282169063a9059cbb90604401602060405180830381600087803b1580156200290c57600080fd5b505af115801562002921573d6000803e3d6000fd5b505050506040513d601f19601f8201168201806040525081019062002947919062003c75565b50505050565b61016454604051632124d52960e01b81526001600160a01b03838116600483015290911690632124d52990602401600060405180830381600087803b1580156200299657600080fd5b505af1158015620029ab573d6000803e3d6000fd5b5050505050565b600054610100900460ff1662002a1f5760405162461bcd60e51b815260206004820152602b60248201527f496e697469616c697a61626c653a20636f6e7472616374206973206e6f74206960448201526a6e697469616c697a696e6760a81b606482015260840162000b0e565b61012d80546001600160a01b0319166001600160a01b0392909216919091179055565b610161546001600160a01b03161562002a9e5760405162461bcd60e51b815260206004820181905260248201527f4d656d62657220746f6b656e20616c726561647920696e697469616c697a6564604482015260640162000b0e565b6002821462002b015760405162461bcd60e51b815260206004820152602860248201527f496e73756666696369656e7420696e666f20746f20637265617465206d656d6260448201526732b9103a37b5b2b760c11b606482015260840162000b0e565b60008460405162002b129062003631565b6001600160a01b039091168152604060208201819052600090820152606001604051809103906000f08015801562002b4e573d6000803e3d6000fd5b5061016180546001600160a01b0319166001600160a01b0383169081179091559091508190639065714730878760008162002b8d5762002b8d62004472565b905060200281019062002ba1919062004300565b8989600181811062002bb75762002bb762004472565b905060200281019062002bcb919062004300565b6040518663ffffffff1660e01b815260040162002bed9594939291906200407c565b600060405180830381600087803b15801562002c0857600080fd5b505af115801562002c1d573d6000803e3d6000fd5b5050505062002c2c81620032b2565b62002c3783620026e5565b604080513381526001600160a01b03831660208201527f51872b89ca0a4559a29252fabe8e58a51d77923ec1fdb596822e56c918df96eb910162000d16565b600062002c9782600281111562002c915762002c916200445c565b62003308565b610166546040516337b75fcd60e01b81529192506001600160a01b0316906337b75fcd9062002cd3908990899089908990889060040162004160565b600060405180830381600087803b15801562002cee57600080fd5b505af115801562002d03573d6000803e3d6000fd5b50505050505050505050565b6101615481516001600160a01b03909116906003101562002d735760405162461bcd60e51b815260206004820181905260248201527f41646d697373696f6e20546f6b656e206c656e67746820746f6f206c6f6e672e604482015260640162000b0e565b60005b82518110156200163c57600083828151811062002d975762002d9762004472565b60200260200101516060015162002dcf5783828151811062002dbd5762002dbd62004472565b60200260200101516000015162002dd1565b825b6001600160a01b0381166000908152610170602052604090206002015490915060ff161562002e435760405162461bcd60e51b815260206004820152601760248201527f41646d697373696f6e20546f6b656e2065786973746564000000000000000000604482015260640162000b0e565b6001600160a01b0381163b62002e9c5760405162461bcd60e51b815260206004820152601c60248201527f41646d697373696f6e20546f6b656e206e6f7420537570706f72742100000000604482015260640162000b0e565b61016c80546001810182556000919091527fe5af487827b121aa2456a019311df153887da6c98285803eea72252e4f09489b0180546001600160a01b0319166001600160a01b03831617905560408051606081019091528451819086908590811062002f0c5762002f0c62004472565b602002602001015160200151815260200185848151811062002f325762002f3262004472565b602090810291909101810151604090810151835260019282018390526001600160a01b038516600090815261017083528190208451815591840151928201929092559101516002909101805460ff191691151591909117905583517fc7ff60e3f07d1e83c30c2fb716313eccef5470e6bdf300d865c747e76f379a839085908490811062002fc45762002fc462004472565b60200260200101516000015185848151811062002fe55762002fe562004472565b60200260200101516020015186858151811062003006576200300662004472565b60200260200101516040015187868151811062003027576200302762004472565b6020026020010151606001516040516200306794939291906001600160a01b03949094168452602084019290925260408301521515606082015260800190565b60405180910390a150806200307c8162004432565b91505062002d76565b6060604482511015620030a657505060408051602081019091526000815290565b60048201915062000a2582806020019051810190620030c6919062003daf565b60408051808201909152600381526201016960ed1b6020820152905b60608282604051602001620030f992919062004023565b604051602081830303815290604052905092915050565b6040518060400160405280600781526020016611d95b995c985b60ca1b8152506200313b3362001651565b806200316257506200314d8162001792565b6001600160a01b0316336001600160a01b0316145b620031815760405162461bcd60e51b815260040162000b0e90620041a2565b6200318c826200230e565b620012815760405162461bcd60e51b815260206004820152602560248201527f42756467657420496d706c656d656e746174696f6e206e6f742077686974656c6044820152641a5cdd195960da1b606482015260840162000b0e565b6001600160a01b0381163b620032575760405162461bcd60e51b815260206004820152602d60248201527f455243313936373a206e657720696d706c656d656e746174696f6e206973206e60448201526c1bdd08184818dbdb9d1c9858dd609a1b606482015260840162000b0e565b60008051602062004be583398151915280546001600160a01b0319166001600160a01b0392909216919091179055565b6200329283620026a3565b600082511180620032a05750805b156200163c5762002947838362003467565b6001600160a01b038116600081815261016e6020908152604091829020805460ff1916600117905590519182527f808665eda000f8d729f31a384bae411282aa3be62cb73ed74e2225e2eef7125d9101620014fe565b61016454610161546000916001600160a01b0390811691168360028111156200333557620033356200445c565b62003399576001600160a01b038216620033925760405162461bcd60e51b815260206004820152601e60248201527f4d656d62657273686970206e6f742079657420696e697469616c697a65640000604482015260640162000b0e565b5092915050565b836002811115620033ae57620033ae6200445c565b600114156200340f576001600160a01b03811662001ff05760405162461bcd60e51b815260206004820152601f60248201527f4d656d626572546f6b656e206e6f742079657420696e697469616c697a656400604482015260640162000b0e565b8360028111156200342457620034246200445c565b5060405162461bcd60e51b8152602060048201526016602482015275556e737570706f7274656420546f6b656e207479706560501b604482015260640162000b0e565b60606001600160a01b0383163b620034d15760405162461bcd60e51b815260206004820152602660248201527f416464726573733a2064656c65676174652063616c6c20746f206e6f6e2d636f6044820152651b9d1c9858dd60d21b606482015260840162000b0e565b600080846001600160a01b031684604051620034ee919062004005565b600060405180830381855af49150503d80600081146200352b576040519150601f19603f3d011682016040523d82523d6000602084013e62003530565b606091505b50915091506200355b828260405180606001604052806027815260200162004c056027913962003564565b95945050505050565b606083156200357557508162001ff0565b825115620035865782518084602001fd5b8160405162461bcd60e51b815260040162000b0e9190620040c4565b828054620035b090620043fb565b90600052602060002090601f016020900481019282620035d457600085556200361f565b82601f10620035ef5782800160ff198235161785556200361f565b828001600101855582156200361f579182015b828111156200361f57823582559160200191906001019062003602565b506200362d9291506200363f565b5090565b61072180620044c483390190565b5b808211156200362d576000815560010162003640565b60008083601f8401126200366957600080fd5b5081356001600160401b038111156200368157600080fd5b6020830191508360208260051b85010111156200369d57600080fd5b9250929050565b600082601f830112620036b657600080fd5b81356020620036cf620036c9836200437c565b62004349565b80838252828201915082860187848660051b8901011115620036f057600080fd5b60005b858110156200371c57813562003709816200449e565b84529284019290840190600101620036f3565b5090979650505050505050565b600082601f8301126200373b57600080fd5b813560206200374e620036c9836200437c565b80838252828201915082860187848660051b89010111156200376f57600080fd5b60005b858110156200371c5781358452928401929084019060010162003772565b600082601f830112620037a257600080fd5b8135620037b3620036c982620043a2565b818152846020838601011115620037c957600080fd5b816020850160208301376000918101602001919091529392505050565b600060208284031215620037f957600080fd5b813562001ff0816200449e565b6000602082840312156200381957600080fd5b815162001ff0816200449e565b600080600080600060a086880312156200383f57600080fd5b85356200384c816200449e565b945060208601356200385e816200449e565b935060408601356001600160401b03808211156200387b57600080fd5b6200388989838a0162003729565b94506060880135915080821115620038a057600080fd5b620038ae89838a0162003729565b93506080880135915080821115620038c557600080fd5b50620038d48882890162003790565b9150509295509295909350565b60008060008060808587031215620038f857600080fd5b843562003905816200449e565b9350602085013562003917816200449e565b92506040850135915060608501356001600160401b038111156200393a57600080fd5b620039488782880162003790565b91505092959194509250565b600080600080600060a086880312156200396d57600080fd5b85356200397a816200449e565b945060208601356200398c816200449e565b9350604086013592506060860135915060808601356001600160401b03811115620039b657600080fd5b620038d48882890162003790565b60008060408385031215620039d857600080fd5b8235620039e5816200449e565b915060208301356001600160401b0381111562003a0157600080fd5b62003a0f8582860162003790565b9150509250929050565b60008060006060848603121562003a2f57600080fd5b833562003a3c816200449e565b925060208401356001600160401b0381111562003a5857600080fd5b62003a668682870162003790565b925050604084013590509250925092565b6000806040838503121562003a8b57600080fd5b823562003a98816200449e565b946020939093013593505050565b6000806020838503121562003aba57600080fd5b82356001600160401b0381111562003ad157600080fd5b62003adf8582860162003656565b90969095509350505050565b60008060008060006060868803121562003b0457600080fd5b85356001600160401b038082111562003b1c57600080fd5b62003b2a89838a0162003656565b9097509550602088013591508082111562003b4457600080fd5b62003b5289838a0162003656565b90955093506040880135915080821115620038c557600080fd5b6000806040838503121562003b8057600080fd5b82356001600160401b038082111562003b9857600080fd5b62003ba686838701620036a4565b935060209150818501358181111562003bbe57600080fd5b8501601f8101871362003bd057600080fd5b803562003be1620036c9826200437c565b8082825285820191508584018a878560051b870101111562003c0257600080fd5b6000805b8581101562003c425782358881111562003c1e578283fd5b62003c2e8e8b838b010162003790565b865250938801939188019160010162003c06565b5050508096505050505050509250929050565b60006020828403121562003c6857600080fd5b813562001ff081620044b4565b60006020828403121562003c8857600080fd5b815162001ff081620044b4565b60006020828403121562003ca857600080fd5b5051919050565b60006020828403121562003cc257600080fd5b81356001600160e01b03198116811462001ff057600080fd5b60008060008060008060a0878903121562003cf557600080fd5b86356001600160401b038082111562003d0d57600080fd5b818901915089601f83011262003d2257600080fd5b81358181111562003d3257600080fd5b8a602082850101111562003d4557600080fd5b60209283019b909a5091890135986040810135985060608101359750608001359550909350505050565b60006020828403121562003d8257600080fd5b81356001600160401b0381111562003d9957600080fd5b62003da78482850162003790565b949350505050565b60006020828403121562003dc257600080fd5b81516001600160401b0381111562003dd957600080fd5b8201601f8101841362003deb57600080fd5b805162003dfc620036c982620043a2565b81815285602083850101111562003e1257600080fd5b6200355b826020830160208601620043cc565b6000806000806080858703121562003e3c57600080fd5b84356001600160401b038082111562003e5457600080fd5b62003e628883890162003790565b95506020870135915062003e76826200449e565b9093506040860135908082111562003e8d57600080fd5b62003e9b88838901620036a4565b9350606087013591508082111562003eb257600080fd5b50620039488782880162003790565b60006080828403121562003ed457600080fd5b604051608081018181106001600160401b038211171562003ef95762003ef962004488565b604052823562003f09816200449e565b808252506020830135602082015260408301356040820152606083013562003f3181620044b4565b60608201529392505050565b60006020828403121562003f5057600080fd5b50919050565b60006020828403121562003f6957600080fd5b81356001600160401b0381111562003f8057600080fd5b82016102a0818503121562001ff057600080fd5b60006020828403121562003fa757600080fd5b5035919050565b6000815180845262003fc8816020860160208601620043cc565b601f01601f19169290920160200192915050565b81835281816020850137506000828201602090810191909152601f909101601f19169091010190565b6000825162004019818460208701620043cc565b9190910192915050565b6000835162004037818460208801620043cc565b8351908301906200404d818360208801620043cc565b01949350505050565b6001600160a01b038316815260406020820181905260009062003da79083018462003fae565b6001600160a01b0386168152606060208201819052600090620040a3908301868862003fdc565b8281036040840152620040b881858762003fdc565b98975050505050505050565b60208152600062001ff0602083018462003fae565b608081526000620040ee608083018762003fae565b6001600160a01b03868116602085810191909152848303604086015286518084528782019391929183019060005b818110156200413c5785518416835294840194918401916001016200411c565b5050858103606087015262004152818862003fae565b9a9950505050505050505050565b60a0815260006200417560a083018862003fae565b602083019690965250604081019390935260608301919091526001600160a01b0316608090910152919050565b6020808252601490820152731058dd1a5bdb881b9bdd081c195c9b5a5d1d195960621b604082015260600190565b6020808252602c908201527f46756e6374696f6e206d7573742062652063616c6c6564207468726f7567682060408201526b19195b1959d85d1958d85b1b60a21b606082015260800190565b6020808252602c908201527f46756e6374696f6e206d7573742062652063616c6c6564207468726f7567682060408201526b6163746976652070726f787960a01b606082015260800190565b6000808335601e198436030181126200428057600080fd5b8301803591506001600160401b038211156200429b57600080fd5b6020019150600581901b36038213156200369d57600080fd5b6000808335601e19843603018112620042cc57600080fd5b8301803591506001600160401b03821115620042e757600080fd5b6020019150600781901b36038213156200369d57600080fd5b6000808335601e198436030181126200431857600080fd5b8301803591506001600160401b038211156200433357600080fd5b6020019150368190038213156200369d57600080fd5b604051601f8201601f191681016001600160401b038111828210171562004374576200437462004488565b604052919050565b60006001600160401b0382111562004398576200439862004488565b5060051b60200190565b60006001600160401b03821115620043be57620043be62004488565b50601f01601f191660200190565b60005b83811015620043e9578181015183820152602001620043cf565b83811115620029475750506000910152565b600181811c908216806200441057607f821691505b6020821081141562003f5057634e487b7160e01b600052602260045260246000fd5b60006000198214156200445557634e487b7160e01b600052601160045260246000fd5b5060010190565b634e487b7160e01b600052602160045260246000fd5b634e487b7160e01b600052603260045260246000fd5b634e487b7160e01b600052604160045260246000fd5b6001600160a01b038116811462000bb457600080fd5b801515811462000bb457600080fdfe6080604052604051610721380380610721833981016040819052610022916102d2565b61002e82826000610035565b5050610431565b61003e8361006b565b60008251118061004b5750805b156100665761006483836100ab60201b6100291760201c565b505b505050565b610074816100d7565b6040516001600160a01b038216907fbc7cd75a20ee27fd9adebab32041f755214dbc6bffa90cc0225b39da2e5c2d3b90600090a250565b60606100d083836040518060600160405280602781526020016106fa602791396101a9565b9392505050565b6100ea8161028760201b6100551760201c565b6101515760405162461bcd60e51b815260206004820152602d60248201527f455243313936373a206e657720696d706c656d656e746174696f6e206973206e60448201526c1bdd08184818dbdb9d1c9858dd609a1b60648201526084015b60405180910390fd5b806101887f360894a13ba1a3210667c828492db98dca3e2076cc3735a920a3ca505d382bbc60001b61029660201b6100641760201c565b80546001600160a01b0319166001600160a01b039290921691909117905550565b60606001600160a01b0384163b6102115760405162461bcd60e51b815260206004820152602660248201527f416464726573733a2064656c65676174652063616c6c20746f206e6f6e2d636f6044820152651b9d1c9858dd60d21b6064820152608401610148565b600080856001600160a01b03168560405161022c91906103a0565b600060405180830381855af49150503d8060008114610267576040519150601f19603f3d011682016040523d82523d6000602084013e61026c565b606091505b50909250905061027d828286610299565b9695505050505050565b6001600160a01b03163b151590565b90565b606083156102a85750816100d0565b8251156102b85782518084602001fd5b8160405162461bcd60e51b815260040161014891906103bc565b600080604083850312156102e557600080fd5b82516001600160a01b03811681146102fc57600080fd5b60208401519092506001600160401b038082111561031957600080fd5b818501915085601f83011261032d57600080fd5b81518181111561033f5761033f61041b565b604051601f8201601f19908116603f011681019083821181831017156103675761036761041b565b8160405282815288602084870101111561038057600080fd5b6103918360208301602088016103ef565b80955050505050509250929050565b600082516103b28184602087016103ef565b9190910192915050565b60208152600082518060208401526103db8160408501602087016103ef565b601f01601f19169190910160400192915050565b60005b8381101561040a5781810151838201526020016103f2565b838111156100645750506000910152565b634e487b7160e01b600052604160045260246000fd5b6102ba806104406000396000f3fe60806040523661001357610011610017565b005b6100115b610027610022610067565b61009f565b565b606061004e838360405180606001604052806027815260200161025e602791396100c3565b9392505050565b6001600160a01b03163b151590565b90565b600061009a7f360894a13ba1a3210667c828492db98dca3e2076cc3735a920a3ca505d382bbc546001600160a01b031690565b905090565b3660008037600080366000845af43d6000803e8080156100be573d6000f35b3d6000fd5b60606001600160a01b0384163b6101305760405162461bcd60e51b815260206004820152602660248201527f416464726573733a2064656c65676174652063616c6c20746f206e6f6e2d636f6044820152651b9d1c9858dd60d21b60648201526084015b60405180910390fd5b600080856001600160a01b03168560405161014b91906101de565b600060405180830381855af49150503d8060008114610186576040519150601f19603f3d011682016040523d82523d6000602084013e61018b565b606091505b509150915061019b8282866101a5565b9695505050505050565b606083156101b457508161004e565b8251156101c45782518084602001fd5b8160405162461bcd60e51b815260040161012791906101fa565b600082516101f081846020870161022d565b9190910192915050565b602081526000825180602084015261021981604085016020870161022d565b601f01601f19169190910160400192915050565b60005b83811015610248578181015183820152602001610230565b83811115610257576000848401525b5050505056fe416464726573733a206c6f772d6c6576656c2064656c65676174652063616c6c206661696c6564a2646970667358221220fb537d1df0a2f3ea0050d30fb82ca020f06a83116d3853b9eda518a67b0c9be764736f6c63430008070033416464726573733a206c6f772d6c6576656c2064656c65676174652063616c6c206661696c6564360894a13ba1a3210667c828492db98dca3e2076cc3735a920a3ca505d382bbc416464726573733a206c6f772d6c6576656c2064656c65676174652063616c6c206661696c6564a26469706673582212201325fb8763a9a54d55ac186f1984b2162c1d81952df5a5e6ddd3fe211f41b9fd64736f6c63430008070033",
  "linkReferences": {},
  "deployedLinkReferences": {}
}