{
  "_format": "hh-sol-artifact-1",
  "contractName": "Dao",
  "sourceName": "contracts/Dao.sol",
  "abi": [
    {
      "anonymous": false,
      "inputs": [
        {
          "indexed": false,
          "internalType": "address",
          "name": "previousAdmin",
          "type": "address"
        },
        {
          "indexed": false,
          "internalType": "address",
          "name": "newAdmin",
          "type": "address"
        }
      ],
      "name": "AdminChanged",
      "type": "event"
    },
    {
      "anonymous": false,
      "inputs": [
        {
          "indexed": false,
          "internalType": "address[]",
          "name": "token",
          "type": "address[]"
        }
      ],
      "name": "AllowDepositToken",
      "type": "event"
    },
    {
      "anonymous": false,
      "inputs": [
        {
          "indexed": true,
          "internalType": "address",
          "name": "beacon",
          "type": "address"
        }
      ],
      "name": "BeaconUpgraded",
      "type": "event"
    },
    {
      "anonymous": false,
      "inputs": [
        {
          "indexed": false,
          "internalType": "address",
          "name": "budgetApproval",
          "type": "address"
        },
        {
          "indexed": false,
          "internalType": "bytes",
          "name": "data",
          "type": "bytes"
        }
      ],
      "name": "CreateBudgetApproval",
      "type": "event"
    },
    {
      "anonymous": false,
      "inputs": [
        {
          "indexed": false,
          "internalType": "address",
          "name": "creator",
          "type": "address"
        },
        {
          "indexed": false,
          "internalType": "address",
          "name": "token",
          "type": "address"
        }
      ],
      "name": "CreateMemberToken",
      "type": "event"
    },
    {
      "anonymous": false,
      "inputs": [
        {
          "indexed": false,
          "internalType": "address",
          "name": "member",
          "type": "address"
        },
        {
          "indexed": false,
          "internalType": "address",
          "name": "token",
          "type": "address"
        },
        {
          "indexed": false,
          "internalType": "uint256",
          "name": "amount",
          "type": "uint256"
        }
      ],
      "name": "Deposit",
      "type": "event"
    },
    {
      "anonymous": false,
      "inputs": [
        {
          "indexed": false,
          "internalType": "address",
          "name": "member",
          "type": "address"
        },
        {
          "indexed": false,
          "internalType": "address",
          "name": "token",
          "type": "address"
        },
        {
          "indexed": false,
          "internalType": "uint256",
          "name": "amount",
          "type": "uint256"
        }
      ],
      "name": "Redeem",
      "type": "event"
    },
    {
      "anonymous": false,
      "inputs": [
        {
          "indexed": false,
          "internalType": "address",
          "name": "portfolio",
          "type": "address"
        },
        {
          "indexed": false,
          "internalType": "uint256",
          "name": "src",
          "type": "uint256"
        },
        {
          "indexed": false,
          "internalType": "uint256",
          "name": "dst",
          "type": "uint256"
        },
        {
          "indexed": false,
          "internalType": "uint256",
          "name": "srcAmount",
          "type": "uint256"
        },
        {
          "indexed": false,
          "internalType": "uint256",
          "name": "dstAmount",
          "type": "uint256"
        }
      ],
      "name": "SwapToken",
      "type": "event"
    },
    {
      "anonymous": false,
      "inputs": [
        {
          "indexed": true,
          "internalType": "address",
          "name": "implementation",
          "type": "address"
        }
      ],
      "name": "Upgraded",
      "type": "event"
    },
    {
      "inputs": [],
      "name": "ETH_ADDRESS",
      "outputs": [
        {
          "internalType": "address",
          "name": "",
          "type": "address"
        }
      ],
      "stateMutability": "view",
      "type": "function"
    },
    {
      "inputs": [],
      "name": "adam",
      "outputs": [
        {
          "internalType": "address",
          "name": "",
          "type": "address"
        }
      ],
      "stateMutability": "view",
      "type": "function"
    },
    {
      "inputs": [
        {
          "internalType": "address",
          "name": "",
          "type": "address"
        }
      ],
      "name": "allowDepositTokens",
      "outputs": [
        {
          "internalType": "bool",
          "name": "",
          "type": "bool"
        }
      ],
      "stateMutability": "view",
      "type": "function"
    },
    {
      "inputs": [
        {
          "internalType": "address",
          "name": "_token",
          "type": "address"
        },
        {
          "internalType": "address",
          "name": "_to",
          "type": "address"
        },
        {
          "internalType": "uint256",
          "name": "_amount",
          "type": "uint256"
        }
      ],
      "name": "approveERC20",
      "outputs": [],
      "stateMutability": "nonpayable",
      "type": "function"
    },
    {
      "inputs": [
        {
          "internalType": "address",
          "name": "",
          "type": "address"
        }
      ],
      "name": "budgetApprovals",
      "outputs": [
        {
          "internalType": "bool",
          "name": "",
          "type": "bool"
        }
      ],
      "stateMutability": "view",
      "type": "function"
    },
    {
      "inputs": [
        {
          "internalType": "address",
          "name": "_budgetApproval",
          "type": "address"
        },
        {
          "internalType": "bytes",
          "name": "_data",
          "type": "bytes"
        },
        {
          "internalType": "uint256",
          "name": "_deadline",
          "type": "uint256"
        },
        {
          "internalType": "bool",
          "name": "_execute",
          "type": "bool"
        }
      ],
      "name": "createBudgetApprovalTransaction",
      "outputs": [],
      "stateMutability": "nonpayable",
      "type": "function"
    },
    {
      "inputs": [
        {
          "internalType": "address[]",
          "name": "_budgetApprovals",
          "type": "address[]"
        },
        {
          "internalType": "bytes[]",
          "name": "data",
          "type": "bytes[]"
        }
      ],
      "name": "createBudgetApprovals",
      "outputs": [],
      "stateMutability": "nonpayable",
      "type": "function"
    },
    {
      "inputs": [
        {
          "internalType": "string",
          "name": "_name",
          "type": "string"
        },
        {
          "internalType": "uint256",
          "name": "duration",
          "type": "uint256"
        },
        {
          "internalType": "uint256",
          "name": "quorum",
          "type": "uint256"
        },
        {
          "internalType": "uint256",
          "name": "passThreshold",
          "type": "uint256"
        },
        {
          "internalType": "uint256[]",
          "name": "voteWeights",
          "type": "uint256[]"
        },
        {
          "internalType": "uint256",
          "name": "voteToken",
          "type": "uint256"
        }
      ],
      "name": "createGovern",
      "outputs": [],
      "stateMutability": "nonpayable",
      "type": "function"
    },
    {
      "inputs": [
        {
          "internalType": "string[]",
          "name": "tokenInfo",
          "type": "string[]"
        },
        {
          "internalType": "uint256",
          "name": "tokenAmount",
          "type": "uint256"
        }
      ],
      "name": "createMemberToken",
      "outputs": [],
      "stateMutability": "nonpayable",
      "type": "function"
    },
    {
      "inputs": [],
      "name": "creator",
      "outputs": [
        {
          "internalType": "address",
          "name": "",
          "type": "address"
        }
      ],
      "stateMutability": "view",
      "type": "function"
    },
    {
      "inputs": [],
      "name": "deposit",
      "outputs": [],
      "stateMutability": "payable",
      "type": "function"
    },
    {
      "inputs": [
        {
          "internalType": "address",
          "name": "_token",
          "type": "address"
        },
        {
          "internalType": "address[]",
          "name": "_members",
          "type": "address[]"
        },
        {
          "internalType": "uint256[]",
          "name": "_amounts",
          "type": "uint256[]"
        },
        {
          "internalType": "bool",
          "name": "transferred",
          "type": "bool"
        }
      ],
      "name": "depositByBudgetApproval",
      "outputs": [
        {
          "internalType": "uint256",
          "name": "totalAmount",
          "type": "uint256"
        }
      ],
      "stateMutability": "payable",
      "type": "function"
    },
    {
      "inputs": [
        {
          "internalType": "address",
          "name": "",
          "type": "address"
        }
      ],
      "name": "firstDeposit",
      "outputs": [
        {
          "internalType": "uint256",
          "name": "",
          "type": "uint256"
        }
      ],
      "stateMutability": "view",
      "type": "function"
    },
    {
      "inputs": [],
      "name": "getMintedContracts",
      "outputs": [
        {
          "internalType": "address[]",
          "name": "",
          "type": "address[]"
        }
      ],
      "stateMutability": "view",
      "type": "function"
    },
    {
      "inputs": [],
      "name": "governFactory",
      "outputs": [
        {
          "internalType": "address",
          "name": "",
          "type": "address"
        }
      ],
      "stateMutability": "view",
      "type": "function"
    },
    {
      "inputs": [
        {
          "components": [
            {
              "internalType": "address",
              "name": "_creator",
              "type": "address"
            },
            {
              "internalType": "address",
              "name": "_membership",
              "type": "address"
            },
            {
              "internalType": "address",
              "name": "_multiToken",
              "type": "address"
            },
            {
              "internalType": "address",
              "name": "_governFactory",
              "type": "address"
            },
            {
              "internalType": "address",
              "name": "_memberTokenImplementation",
              "type": "address"
            },
            {
              "internalType": "string",
              "name": "_name",
              "type": "string"
            },
            {
              "internalType": "string",
              "name": "_description",
              "type": "string"
            },
            {
              "internalType": "uint256",
              "name": "_locktime",
              "type": "uint256"
            },
            {
              "internalType": "uint8",
              "name": "memberTokenType",
              "type": "uint8"
            },
            {
              "internalType": "address",
              "name": "memberToken",
              "type": "address"
            },
            {
              "internalType": "uint256[4]",
              "name": "budgetApproval",
              "type": "uint256[4]"
            },
            {
              "internalType": "uint256[4]",
              "name": "revokeBudgetApproval",
              "type": "uint256[4]"
            },
            {
              "internalType": "uint256[4]",
              "name": "general",
              "type": "uint256[4]"
            },
            {
              "internalType": "uint256[4]",
              "name": "daoSettingApproval",
              "type": "uint256[4]"
            },
            {
              "internalType": "string[]",
              "name": "tokenInfo",
              "type": "string[]"
            },
            {
              "internalType": "uint256",
              "name": "tokenAmount",
              "type": "uint256"
            },
            {
              "components": [
                {
                  "internalType": "uint256",
                  "name": "minDepositAmount",
                  "type": "uint256"
                },
                {
                  "internalType": "uint256",
                  "name": "minMemberTokenToJoin",
                  "type": "uint256"
                }
              ],
              "internalType": "struct IDao.DaoSetting",
              "name": "daoSetting",
              "type": "tuple"
            }
          ],
          "internalType": "struct IDao.InitializeParams",
          "name": "params",
          "type": "tuple"
        }
      ],
      "name": "initialize",
      "outputs": [],
      "stateMutability": "nonpayable",
      "type": "function"
    },
    {
      "inputs": [],
      "name": "locktime",
      "outputs": [
        {
          "internalType": "uint256",
          "name": "",
          "type": "uint256"
        }
      ],
      "stateMutability": "view",
      "type": "function"
    },
    {
      "inputs": [],
      "name": "memberToken",
      "outputs": [
        {
          "internalType": "address",
          "name": "",
          "type": "address"
        }
      ],
      "stateMutability": "view",
      "type": "function"
    },
    {
      "inputs": [],
      "name": "memberTokenImplementation",
      "outputs": [
        {
          "internalType": "address",
          "name": "",
          "type": "address"
        }
      ],
      "stateMutability": "view",
      "type": "function"
    },
    {
      "inputs": [],
      "name": "memberTokenType",
      "outputs": [
        {
          "internalType": "uint8",
          "name": "",
          "type": "uint8"
        }
      ],
      "stateMutability": "view",
      "type": "function"
    },
    {
      "inputs": [],
      "name": "membership",
      "outputs": [
        {
          "internalType": "address",
          "name": "",
          "type": "address"
        }
      ],
      "stateMutability": "view",
      "type": "function"
    },
    {
      "inputs": [],
      "name": "minDepositAmount",
      "outputs": [
        {
          "internalType": "uint256",
          "name": "",
          "type": "uint256"
        }
      ],
      "stateMutability": "view",
      "type": "function"
    },
    {
      "inputs": [],
      "name": "minMemberTokenToJoin",
      "outputs": [
        {
          "internalType": "uint256",
          "name": "",
          "type": "uint256"
        }
      ],
      "stateMutability": "view",
      "type": "function"
    },
    {
      "inputs": [
        {
          "internalType": "uint256",
          "name": "amount",
          "type": "uint256"
        }
      ],
      "name": "mintMemberToken",
      "outputs": [],
      "stateMutability": "nonpayable",
      "type": "function"
    },
    {
      "inputs": [],
      "name": "multiToken",
      "outputs": [
        {
          "internalType": "address",
          "name": "",
          "type": "address"
        }
      ],
      "stateMutability": "view",
      "type": "function"
    },
    {
      "inputs": [],
      "name": "name",
      "outputs": [
        {
          "internalType": "string",
          "name": "",
          "type": "string"
        }
      ],
      "stateMutability": "view",
      "type": "function"
    },
    {
      "inputs": [
        {
          "internalType": "address",
          "name": "",
          "type": "address"
        },
        {
          "internalType": "address",
          "name": "",
          "type": "address"
        },
        {
          "internalType": "uint256[]",
          "name": "",
          "type": "uint256[]"
        },
        {
          "internalType": "uint256[]",
          "name": "",
          "type": "uint256[]"
        },
        {
          "internalType": "bytes",
          "name": "",
          "type": "bytes"
        }
      ],
      "name": "onERC1155BatchReceived",
      "outputs": [
        {
          "internalType": "bytes4",
          "name": "",
          "type": "bytes4"
        }
      ],
      "stateMutability": "nonpayable",
      "type": "function"
    },
    {
      "inputs": [
        {
          "internalType": "address",
          "name": "",
          "type": "address"
        },
        {
          "internalType": "address",
          "name": "",
          "type": "address"
        },
        {
          "internalType": "uint256",
          "name": "",
          "type": "uint256"
        },
        {
          "internalType": "uint256",
          "name": "",
          "type": "uint256"
        },
        {
          "internalType": "bytes",
          "name": "",
          "type": "bytes"
        }
      ],
      "name": "onERC1155Received",
      "outputs": [
        {
          "internalType": "bytes4",
          "name": "",
          "type": "bytes4"
        }
      ],
      "stateMutability": "nonpayable",
      "type": "function"
    },
    {
      "inputs": [
        {
          "internalType": "address",
          "name": "",
          "type": "address"
        },
        {
          "internalType": "address",
          "name": "",
          "type": "address"
        },
        {
          "internalType": "uint256",
          "name": "",
          "type": "uint256"
        },
        {
          "internalType": "bytes",
          "name": "",
          "type": "bytes"
        }
      ],
      "name": "onERC721Received",
      "outputs": [
        {
          "internalType": "bytes4",
          "name": "",
          "type": "bytes4"
        }
      ],
      "stateMutability": "nonpayable",
      "type": "function"
    },
    {
      "inputs": [],
      "name": "proxiableUUID",
      "outputs": [
        {
          "internalType": "bytes32",
          "name": "",
          "type": "bytes32"
        }
      ],
      "stateMutability": "view",
      "type": "function"
    },
    {
      "inputs": [
        {
          "internalType": "uint256",
          "name": "_amount",
          "type": "uint256"
        }
      ],
      "name": "redeem",
      "outputs": [],
      "stateMutability": "nonpayable",
      "type": "function"
    },
    {
      "inputs": [
        {
          "internalType": "bytes4",
          "name": "interfaceId",
          "type": "bytes4"
        }
      ],
      "name": "supportsInterface",
      "outputs": [
        {
          "internalType": "bool",
          "name": "",
          "type": "bool"
        }
      ],
      "stateMutability": "view",
      "type": "function"
    },
    {
      "inputs": [
        {
          "internalType": "address",
          "name": "to",
          "type": "address"
        },
        {
          "internalType": "uint256",
          "name": "amount",
          "type": "uint256"
        }
      ],
      "name": "transferMemberToken",
      "outputs": [],
      "stateMutability": "nonpayable",
      "type": "function"
    },
    {
      "inputs": [
        {
          "components": [
            {
              "internalType": "uint256",
              "name": "minDepositAmount",
              "type": "uint256"
            },
            {
              "internalType": "uint256",
              "name": "minMemberTokenToJoin",
              "type": "uint256"
            }
          ],
          "internalType": "struct IDao.DaoSetting",
          "name": "_setting",
          "type": "tuple"
        }
      ],
      "name": "updateDaoSetting",
      "outputs": [],
      "stateMutability": "nonpayable",
      "type": "function"
    },
    {
      "inputs": [
        {
          "internalType": "address",
          "name": "newImplementation",
          "type": "address"
        }
      ],
      "name": "upgradeTo",
      "outputs": [],
      "stateMutability": "nonpayable",
      "type": "function"
    },
    {
      "inputs": [
        {
          "internalType": "address",
          "name": "newImplementation",
          "type": "address"
        },
        {
          "internalType": "bytes",
          "name": "data",
          "type": "bytes"
        }
      ],
      "name": "upgradeToAndCall",
      "outputs": [],
      "stateMutability": "payable",
      "type": "function"
    },
    {
      "inputs": [
        {
          "internalType": "address",
          "name": "_token",
          "type": "address"
        },
        {
          "internalType": "address[]",
          "name": "_members",
          "type": "address[]"
        },
        {
          "internalType": "uint256[]",
          "name": "_amounts",
          "type": "uint256[]"
        },
        {
          "internalType": "bool",
          "name": "transferred",
          "type": "bool"
        }
      ],
      "name": "withdrawByBudgetApproval",
      "outputs": [
        {
          "internalType": "uint256",
          "name": "totalAmount",
          "type": "uint256"
        }
      ],
      "stateMutability": "nonpayable",
      "type": "function"
    },
    {
      "stateMutability": "payable",
      "type": "receive"
    }
  ],
  "bytecode": "0x60a06040523060601b60805234801561001757600080fd5b5060805160601c615df06200005360003960008181610c0201528181610c4501528181610ce301528181610d260152610db70152615df06000f3fe6080604052600436106200024b5760003560e01c8063961853b6116200013b578063c311769511620000b9578063f23a6e611162000078578063f23a6e61146200070e578063f3c60beb146200073e578063f53fd6de1462000763578063f5c697a9146200078a578063f83103d114620007af57600080fd5b8063c31176951462000666578063ce35cb91146200068b578063d0e30db014620006ba578063db006a7514620006c4578063df79812e14620006e957600080fd5b8063a5b7c83f1162000106578063a5b7c83f1462000595578063a734f06e14620005c9578063a8e5e4aa14620005e0578063ac4b3c041462000605578063bc197c81146200063657600080fd5b8063961853b614620004f557806399353316146200051a578063a240663e146200053f578063a2bf68b9146200057357600080fd5b80634f1ef28611620001c9578063645006ca1162000194578063645006ca146200044f578063728a7095146200046757806389409516146200048c5780638b805e9614620004ae5780638e3d5d5614620004d357600080fd5b80634f1ef28614620003e657806352d1902d14620003fd5780635cb54384146200041557806361c533b4146200043757600080fd5b806314c09ede116200021657806314c09ede146200031a578063150b7a0214620003325780631904e5c9146200037b578063293e7438146200039d5780633659cfe614620003bf57600080fd5b806301ffc9a7146200025857806302d05d3f1462000292578063067fa4f114620002cd57806306fdde0314620002f357600080fd5b366200025357005b600080fd5b3480156200026557600080fd5b506200027d6200027736600462004f28565b620007d4565b60405190151581526020015b60405180910390f35b3480156200029f57600080fd5b50609954620002b4906001600160a01b031681565b6040516001600160a01b03909116815260200162000289565b620002e4620002de36600462004b9b565b6200080c565b60405190815260200162000289565b3480156200030057600080fd5b506200030b62000b61565b6040516200028991906200529f565b3480156200032757600080fd5b50620002e460a45481565b3480156200033f57600080fd5b50620003616200035136600462004abc565b630a85bd0160e11b949350505050565b6040516001600160e01b0319909116815260200162000289565b3480156200038857600080fd5b50609c54620002b4906001600160a01b031681565b348015620003aa57600080fd5b50609e54620002b4906001600160a01b031681565b348015620003cc57600080fd5b50620003e4620003de36600462004982565b62000bf7565b005b620003e4620003f736600462004d0d565b62000cd8565b3480156200040a57600080fd5b50620002e462000daa565b3480156200042257600080fd5b50609854620002b4906001600160a01b031681565b3480156200044457600080fd5b50620002e460a25481565b3480156200045c57600080fd5b50620002e460a35481565b3480156200047457600080fd5b50620003e46200048636600462004fe9565b62000e60565b3480156200049957600080fd5b50609d54620002b4906001600160a01b031681565b348015620004bb57600080fd5b50620003e4620004cd3660046200503c565b620011d1565b348015620004e057600080fd5b50609a54620002b4906001600160a01b031681565b3480156200050257600080fd5b50620002e46200051436600462004b9b565b62001542565b3480156200052757600080fd5b50620003e46200053936600462004f52565b6200176f565b3480156200054c57600080fd5b506200027d6200055e36600462004982565b60a06020526000908152604090205460ff1681565b3480156200058057600080fd5b50609b54620002b4906001600160a01b031681565b348015620005a257600080fd5b506200027d620005b436600462004982565b60a56020526000908152604090205460ff1681565b348015620005d657600080fd5b50620002b4600081565b348015620005ed57600080fd5b50620003e4620005ff36600462004a77565b62001b50565b3480156200061257600080fd5b50620002e46200062436600462004982565b60a16020526000908152604090205481565b3480156200064357600080fd5b506200036162000655366004620049c0565b63bc197c8160e01b95945050505050565b3480156200067357600080fd5b50620003e46200068536600462004d60565b62001c0e565b3480156200069857600080fd5b5060a654620006a79060ff1681565b60405160ff909116815260200162000289565b620003e462001f85565b348015620006d157600080fd5b50620003e4620006e33660046200503c565b62001f93565b348015620006f657600080fd5b50620003e46200070836600462004d8e565b620023f3565b3480156200071b57600080fd5b50620003616200072d36600462004b2d565b63f23a6e6160e01b95945050505050565b3480156200074b57600080fd5b50620003e46200075d36600462004c94565b62002a04565b3480156200077057600080fd5b506200077b62002c12565b6040516200028991906200525c565b3480156200079757600080fd5b50620003e4620007a936600462004ea3565b62002c9c565b348015620007bc57600080fd5b50620003e4620007ce36600462005001565b6200300b565b60006001600160e01b03198216630271189760e51b14806200080657506301ffc9a760e01b6001600160e01b03198316145b92915050565b33600090815260a0602052604081205460ff16620008475760405162461bcd60e51b81526004016200083e90620053d0565b60405180910390fd5b82518451146200088a5760405162461bcd60e51b815260206004820152600d60248201526c1a5b9d985b1a59081a5b9c1d5d609a1b60448201526064016200083e565b60005b8451811015620009ac57609c5485516001600160a01b0390911690635e315f8b90879084908110620008cf57634e487b7160e01b600052603260045260246000fd5b6020026020010151620008e2896200359f565b8785815181106200090357634e487b7160e01b600052603260045260246000fd5b60200260200101516040518463ffffffff1660e01b81526004016200092b939291906200522c565b600060405180830381600087803b1580156200094657600080fd5b505af11580156200095b573d6000803e3d6000fd5b505050508381815181106200098057634e487b7160e01b600052603260045260246000fd5b602002602001015182620009959190620054e1565b915080620009a38162005562565b9150506200088d565b508162000b59576001600160a01b03851662000a0a5780341462000a045760405162461bcd60e51b815260206004820152600e60248201526d185b5bdd5b9d081a5b9d985b1a5960921b60448201526064016200083e565b62000b59565b604051636eb1769f60e11b815233600482015230602482015281906001600160a01b0387169063dd62ed3e9060440160206040518083038186803b15801562000a5257600080fd5b505afa15801562000a67573d6000803e3d6000fd5b505050506040513d601f19601f8201168201806040525081019062000a8d919062004f0f565b101562000acc5760405162461bcd60e51b815260206004820152600c60248201526b1b9bdd08185c1c1c9bdd995960a21b60448201526064016200083e565b6040516323b872dd60e01b8152336004820152306024820152604481018290526001600160a01b038616906323b872dd906064015b602060405180830381600087803b15801562000b1c57600080fd5b505af115801562000b31573d6000803e3d6000fd5b505050506040513d601f19601f8201168201806040525081019062000b57919062004ef0565b505b949350505050565b609f805462000b70906200552b565b80601f016020809104026020016040519081016040528092919081815260200182805462000b9e906200552b565b801562000bef5780601f1062000bc35761010080835404028352916020019162000bef565b820191906000526020600020905b81548152906001019060200180831162000bd157829003601f168201915b505050505081565b306001600160a01b037f000000000000000000000000000000000000000000000000000000000000000016141562000c435760405162461bcd60e51b81526004016200083e9062005338565b7f00000000000000000000000000000000000000000000000000000000000000006001600160a01b031662000c8e60008051602062005d74833981519152546001600160a01b031690565b6001600160a01b03161462000cb75760405162461bcd60e51b81526004016200083e9062005384565b6040805160008082526020820190925262000cd5918391906200372c565b50565b306001600160a01b037f000000000000000000000000000000000000000000000000000000000000000016141562000d245760405162461bcd60e51b81526004016200083e9062005338565b7f00000000000000000000000000000000000000000000000000000000000000006001600160a01b031662000d6f60008051602062005d74833981519152546001600160a01b031690565b6001600160a01b03161462000d985760405162461bcd60e51b81526004016200083e9062005384565b62000da6828260016200372c565b5050565b6000306001600160a01b037f0000000000000000000000000000000000000000000000000000000000000000161462000e4c5760405162461bcd60e51b815260206004820152603860248201527f555550535570677261646561626c653a206d757374206e6f742062652063616c60448201527f6c6564207468726f7567682064656c656761746563616c6c000000000000000060648201526084016200083e565b5060008051602062005d7483398151915290565b6040518060400160405280600a81526020016944616f53657474696e6760b01b815250609b60009054906101000a90046001600160a01b03166001600160a01b03166318160ddd6040518163ffffffff1660e01b815260040160206040518083038186803b15801562000ed257600080fd5b505afa15801562000ee7573d6000803e3d6000fd5b505050506040513d601f19601f8201168201806040525081019062000f0d919062004f0f565b600114801562000f9a5750609b54604051634814f03560e01b81523360048201526001600160a01b0390911690634814f0359060240160206040518083038186803b15801562000f5c57600080fd5b505afa15801562000f71573d6000803e3d6000fd5b505050506040513d601f19601f8201168201806040525081019062000f97919062004f0f565b15155b80620010cf5750609b60009054906101000a90046001600160a01b03166001600160a01b03166318160ddd6040518163ffffffff1660e01b815260040160206040518083038186803b15801562000ff057600080fd5b505afa15801562001005573d6000803e3d6000fd5b505050506040513d601f19601f820116820180604052508101906200102b919062004f0f565b6002148015620010b85750609b54604051634814f03560e01b81523360048201526001600160a01b0390911690634814f0359060240160206040518083038186803b1580156200107a57600080fd5b505afa1580156200108f573d6000803e3d6000fd5b505050506040513d601f19601f82011682018060405250810190620010b5919062004f0f565b15155b8015620010cf57506098546001600160a01b031615155b80620011735750609d5460405163385f5d8f60e11b81526001600160a01b03909116906370bebb1e906200110a903090859060040162005206565b60206040518083038186803b1580156200112357600080fd5b505afa15801562001138573d6000803e3d6000fd5b505050506040513d601f19601f820116820180604052508101906200115e9190620049a1565b6001600160a01b0316336001600160a01b0316145b60408051808201909152600a81526902230b79d1037b7363c960b51b6020820152620011a09083620038b4565b90620011c15760405162461bcd60e51b81526004016200083e91906200529f565b5050803560a3556020013560a455565b6040518060400160405280600e81526020016d109d5919d95d105c1c1c9bdd985b60921b815250609b60009054906101000a90046001600160a01b03166001600160a01b03166318160ddd6040518163ffffffff1660e01b815260040160206040518083038186803b1580156200124757600080fd5b505afa1580156200125c573d6000803e3d6000fd5b505050506040513d601f19601f8201168201806040525081019062001282919062004f0f565b60011480156200130f5750609b54604051634814f03560e01b81523360048201526001600160a01b0390911690634814f0359060240160206040518083038186803b158015620012d157600080fd5b505afa158015620012e6573d6000803e3d6000fd5b505050506040513d601f19601f820116820180604052508101906200130c919062004f0f565b15155b80620014445750609b60009054906101000a90046001600160a01b03166001600160a01b03166318160ddd6040518163ffffffff1660e01b815260040160206040518083038186803b1580156200136557600080fd5b505afa1580156200137a573d6000803e3d6000fd5b505050506040513d601f19601f82011682018060405250810190620013a0919062004f0f565b60021480156200142d5750609b54604051634814f03560e01b81523360048201526001600160a01b0390911690634814f0359060240160206040518083038186803b158015620013ef57600080fd5b505afa15801562001404573d6000803e3d6000fd5b505050506040513d601f19601f820116820180604052508101906200142a919062004f0f565b15155b80156200144457506098546001600160a01b031615155b80620014e85750609d5460405163385f5d8f60e11b81526001600160a01b03909116906370bebb1e906200147f903090859060040162005206565b60206040518083038186803b1580156200149857600080fd5b505afa158015620014ad573d6000803e3d6000fd5b505050506040513d601f19601f82011682018060405250810190620014d39190620049a1565b6001600160a01b0316336001600160a01b0316145b60408051808201909152600a81526902230b79d1037b7363c960b51b6020820152620015159083620038b4565b90620015365760405162461bcd60e51b81526004016200083e91906200529f565b5062000da682620038e2565b33600090815260a0602052604081205460ff16620015745760405162461bcd60e51b81526004016200083e90620053d0565b8251845114620015b75760405162461bcd60e51b815260206004820152600d60248201526c1a5b9d985b1a59081a5b9c1d5d609a1b60448201526064016200083e565b60005b8451811015620016f057609c5485516001600160a01b039091169063ed8c593890879084908110620015fc57634e487b7160e01b600052603260045260246000fd5b60200260200101516200160f896200359f565b8785815181106200163057634e487b7160e01b600052603260045260246000fd5b60209081029190910101516040516001600160e01b031960e086901b1681526001600160a01b03909316600484015260248301919091526044820152606401600060405180830381600087803b1580156200168a57600080fd5b505af11580156200169f573d6000803e3d6000fd5b50505050838181518110620016c457634e487b7160e01b600052603260045260246000fd5b602002602001015182620016d99190620054e1565b915080620016e78162005562565b915050620015ba565b508162000b59576001600160a01b0385166200173b57604051339082156108fc029083906000818181858888f1935050505015801562001734573d6000803e3d6000fd5b5062000b59565b60405163a9059cbb60e01b8152336004820152602481018290526001600160a01b0386169063a9059cbb9060440162000b01565b6040518060400160405280600681526020016523b7bb32b93760d11b815250609b60009054906101000a90046001600160a01b03166001600160a01b03166318160ddd6040518163ffffffff1660e01b815260040160206040518083038186803b158015620017dd57600080fd5b505afa158015620017f2573d6000803e3d6000fd5b505050506040513d601f19601f8201168201806040525081019062001818919062004f0f565b6001148015620018a55750609b54604051634814f03560e01b81523360048201526001600160a01b0390911690634814f0359060240160206040518083038186803b1580156200186757600080fd5b505afa1580156200187c573d6000803e3d6000fd5b505050506040513d601f19601f82011682018060405250810190620018a2919062004f0f565b15155b80620019da5750609b60009054906101000a90046001600160a01b03166001600160a01b03166318160ddd6040518163ffffffff1660e01b815260040160206040518083038186803b158015620018fb57600080fd5b505afa15801562001910573d6000803e3d6000fd5b505050506040513d601f19601f8201168201806040525081019062001936919062004f0f565b6002148015620019c35750609b54604051634814f03560e01b81523360048201526001600160a01b0390911690634814f0359060240160206040518083038186803b1580156200198557600080fd5b505afa1580156200199a573d6000803e3d6000fd5b505050506040513d601f19601f82011682018060405250810190620019c0919062004f0f565b15155b8015620019da57506098546001600160a01b031615155b8062001a7e5750609d5460405163385f5d8f60e11b81526001600160a01b03909116906370bebb1e9062001a15903090859060040162005206565b60206040518083038186803b15801562001a2e57600080fd5b505afa15801562001a43573d6000803e3d6000fd5b505050506040513d601f19601f8201168201806040525081019062001a699190620049a1565b6001600160a01b0316336001600160a01b0316145b60408051808201909152600a81526902230b79d1037b7363c960b51b602082015262001aab9083620038b4565b9062001acc5760405162461bcd60e51b81526004016200083e91906200529f565b5062001b4589898080601f01602080910402602001604051908101604052809392919081815260200183838082843760009201919091525050604080516020808a0282810182019093528982528d94508c93508b928b918b9182918501908490808284376000920191909152508a92506200394b915050565b505050505050505050565b33600090815260a0602052604090205460ff1662001b825760405162461bcd60e51b81526004016200083e90620053d0565b60405163095ea7b360e01b81526001600160a01b0383811660048301526024820183905284169063095ea7b390604401602060405180830381600087803b15801562001bcd57600080fd5b505af115801562001be2573d6000803e3d6000fd5b505050506040513d601f19601f8201168201806040525081019062001c08919062004ef0565b50505050565b6040518060400160405280600e81526020016d109d5919d95d105c1c1c9bdd985b60921b815250609b60009054906101000a90046001600160a01b03166001600160a01b03166318160ddd6040518163ffffffff1660e01b815260040160206040518083038186803b15801562001c8457600080fd5b505afa15801562001c99573d6000803e3d6000fd5b505050506040513d601f19601f8201168201806040525081019062001cbf919062004f0f565b600114801562001d4c5750609b54604051634814f03560e01b81523360048201526001600160a01b0390911690634814f0359060240160206040518083038186803b15801562001d0e57600080fd5b505afa15801562001d23573d6000803e3d6000fd5b505050506040513d601f19601f8201168201806040525081019062001d49919062004f0f565b15155b8062001e815750609b60009054906101000a90046001600160a01b03166001600160a01b03166318160ddd6040518163ffffffff1660e01b815260040160206040518083038186803b15801562001da257600080fd5b505afa15801562001db7573d6000803e3d6000fd5b505050506040513d601f19601f8201168201806040525081019062001ddd919062004f0f565b600214801562001e6a5750609b54604051634814f03560e01b81523360048201526001600160a01b0390911690634814f0359060240160206040518083038186803b15801562001e2c57600080fd5b505afa15801562001e41573d6000803e3d6000fd5b505050506040513d601f19601f8201168201806040525081019062001e67919062004f0f565b15155b801562001e8157506098546001600160a01b031615155b8062001f255750609d5460405163385f5d8f60e11b81526001600160a01b03909116906370bebb1e9062001ebc903090859060040162005206565b60206040518083038186803b15801562001ed557600080fd5b505afa15801562001eea573d6000803e3d6000fd5b505050506040513d601f19601f8201168201806040525081019062001f109190620049a1565b6001600160a01b0316336001600160a01b0316145b60408051808201909152600a81526902230b79d1037b7363c960b51b602082015262001f529083620038b4565b9062001f735760405162461bcd60e51b81526004016200083e91906200529f565b5062001f808383620039f2565b505050565b62001f91333462003a7c565b565b609b54604051634814f03560e01b81523360048201526000916001600160a01b031690634814f0359060240160206040518083038186803b15801562001fd857600080fd5b505afa15801562001fed573d6000803e3d6000fd5b505050506040513d601f19601f8201168201806040525081019062002013919062004f0f565b905080620020545760405162461bcd60e51b815260206004820152600d60248201526c06e6f206d656d6265727368697609c1b60448201526064016200083e565b609b5460405163441d120360e11b8152600481018390526000916001600160a01b03169063883a24069060240160206040518083038186803b1580156200209a57600080fd5b505afa158015620020af573d6000803e3d6000fd5b505050506040513d601f19601f82011682018060405250810190620020d59190620049a1565b60a2546001600160a01b038216600090815260a160205260409020549192504291620021029190620054e1565b1115620021405760405162461bcd60e51b815260206004820152600b60248201526a6c6f636b75702074696d6560a81b60448201526064016200083e565b609c5460408051635ec5dfed60e01b815290516001600160a01b039092169162fdd58e9184918491635ec5dfed916004808301926020929190829003018186803b1580156200218e57600080fd5b505afa158015620021a3573d6000803e3d6000fd5b505050506040513d601f19601f82011682018060405250810190620021c9919062004f0f565b6040516001600160e01b031960e085901b1681526001600160a01b039092166004830152602482015260440160206040518083038186803b1580156200220e57600080fd5b505afa15801562002223573d6000803e3d6000fd5b505050506040513d601f19601f8201168201806040525081019062002249919062004f0f565b831115620022845760405162461bcd60e51b8152602060048201526007602482015266746f6f2062696760c81b60448201526064016200083e565b609c5460408051635ec5dfed60e01b815290516001600160a01b039092169163ed8c59389184918491635ec5dfed916004808301926020929190829003018186803b158015620022d357600080fd5b505afa158015620022e8573d6000803e3d6000fd5b505050506040513d601f19601f820116820180604052508101906200230e919062004f0f565b6040516001600160e01b031960e085901b1681526001600160a01b039092166004830152602482015260448101869052606401600060405180830381600087803b1580156200235c57600080fd5b505af115801562002371573d6000803e3d6000fd5b505060405133925085156108fc02915085906000818181858888f19350505050158015620023a3573d6000803e3d6000fd5b50604080516001600160a01b0383168152600060208201529081018490527fd12200efa34901b99367694174c3b0d32c99585fdf37c7c26892136ddd0836d99060600160405180910390a1505050565b6040518060400160405280600e81526020016d109d5919d95d105c1c1c9bdd985b60921b815250609b60009054906101000a90046001600160a01b03166001600160a01b03166318160ddd6040518163ffffffff1660e01b815260040160206040518083038186803b1580156200246957600080fd5b505afa1580156200247e573d6000803e3d6000fd5b505050506040513d601f19601f82011682018060405250810190620024a4919062004f0f565b6001148015620025315750609b54604051634814f03560e01b81523360048201526001600160a01b0390911690634814f0359060240160206040518083038186803b158015620024f357600080fd5b505afa15801562002508573d6000803e3d6000fd5b505050506040513d601f19601f820116820180604052508101906200252e919062004f0f565b15155b80620026665750609b60009054906101000a90046001600160a01b03166001600160a01b03166318160ddd6040518163ffffffff1660e01b815260040160206040518083038186803b1580156200258757600080fd5b505afa1580156200259c573d6000803e3d6000fd5b505050506040513d601f19601f82011682018060405250810190620025c2919062004f0f565b60021480156200264f5750609b54604051634814f03560e01b81523360048201526001600160a01b0390911690634814f0359060240160206040518083038186803b1580156200261157600080fd5b505afa15801562002626573d6000803e3d6000fd5b505050506040513d601f19601f820116820180604052508101906200264c919062004f0f565b15155b80156200266657506098546001600160a01b031615155b806200270a5750609d5460405163385f5d8f60e11b81526001600160a01b03909116906370bebb1e90620026a1903090859060040162005206565b60206040518083038186803b158015620026ba57600080fd5b505afa158015620026cf573d6000803e3d6000fd5b505050506040513d601f19601f82011682018060405250810190620026f59190620049a1565b6001600160a01b0316336001600160a01b0316145b60408051808201909152600a81526902230b79d1037b7363c960b51b6020820152620027379083620038b4565b90620027585760405162461bcd60e51b81526004016200083e91906200529f565b508382146200279a5760405162461bcd60e51b815260206004820152600d60248201526c1a5b9c1d5d081a5b9d985b1a59609a1b60448201526064016200083e565b60005b84811015620029fc57609a546001600160a01b03166336c5e510878784818110620027d857634e487b7160e01b600052603260045260246000fd5b9050602002016020810190620027ef919062004982565b6040516001600160e01b031960e084901b1681526001600160a01b03909116600482015260240160206040518083038186803b1580156200282f57600080fd5b505afa15801562002844573d6000803e3d6000fd5b505050506040513d601f19601f820116820180604052508101906200286a919062004ef0565b620028a85760405162461bcd60e51b815260206004820152600d60248201526c1b9bdd081dda1a5d195b1a5cdd609a1b60448201526064016200083e565b6000868683818110620028cb57634e487b7160e01b600052603260045260246000fd5b9050602002016020810190620028e2919062004982565b8585848181106200290357634e487b7160e01b600052603260045260246000fd5b905060200281019062002917919062005441565b604051620029259062004746565b620029339392919062005197565b604051809103906000f08015801562002950573d6000803e3d6000fd5b506001600160a01b038116600090815260a060205260409020805460ff1916600117905590507f26c79e13dd63e8716f130c25331c09f2fdd55d6880bbfa7bcc38868207e8a67081868685818110620029b957634e487b7160e01b600052603260045260246000fd5b9050602002810190620029cd919062005441565b604051620029de9392919062005197565b60405180910390a15080620029f38162005562565b9150506200279d565b505050505050565b6001600160a01b038516600090815260a0602052604090205460ff1662002a6e5760405162461bcd60e51b815260206004820152601760248201527f62756467657420617070726f76616c20696e76616c696400000000000000000060448201526064016200083e565b846001600160a01b03166301ffc9a762002ac3600087878080601f016020809104026020016040519081016040528093929190818152602001838380828437600092019190915250929392505062003d249050565b6040516001600160e01b031960e084901b81168252919091166004820152602401602060405180830381600087803b15801562002aff57600080fd5b505af115801562002b14573d6000803e3d6000fd5b505050506040513d601f19601f8201168201806040525081019062002b3a919062004ef0565b62002b885760405162461bcd60e51b815260206004820152601760248201527f6e6f7420737570706f7274656420696e7465726661636500000000000000000060448201526064016200083e565b604051630b993cdb60e01b81526001600160a01b03861690630b993cdb9062002bbc90879087908790879060040162005271565b602060405180830381600087803b15801562002bd757600080fd5b505af115801562002bec573d6000803e3d6000fd5b505050506040513d601f19601f82011682018060405250810190620029fc919062004f0f565b609c546040805163475280bd60e01b815290516060926001600160a01b03169163475280bd916004808301926000929190829003018186803b15801562002c5857600080fd5b505afa15801562002c6d573d6000803e3d6000fd5b505050506040513d6000823e601f3d908101601f1916820160405262002c97919081019062004dfd565b905090565b6040518060400160405280600a81526020016944616f53657474696e6760b01b815250609b60009054906101000a90046001600160a01b03166001600160a01b03166318160ddd6040518163ffffffff1660e01b815260040160206040518083038186803b15801562002d0e57600080fd5b505afa15801562002d23573d6000803e3d6000fd5b505050506040513d601f19601f8201168201806040525081019062002d49919062004f0f565b600114801562002dd65750609b54604051634814f03560e01b81523360048201526001600160a01b0390911690634814f0359060240160206040518083038186803b15801562002d9857600080fd5b505afa15801562002dad573d6000803e3d6000fd5b505050506040513d601f19601f8201168201806040525081019062002dd3919062004f0f565b15155b8062002f0b5750609b60009054906101000a90046001600160a01b03166001600160a01b03166318160ddd6040518163ffffffff1660e01b815260040160206040518083038186803b15801562002e2c57600080fd5b505afa15801562002e41573d6000803e3d6000fd5b505050506040513d601f19601f8201168201806040525081019062002e67919062004f0f565b600214801562002ef45750609b54604051634814f03560e01b81523360048201526001600160a01b0390911690634814f0359060240160206040518083038186803b15801562002eb657600080fd5b505afa15801562002ecb573d6000803e3d6000fd5b505050506040513d601f19601f8201168201806040525081019062002ef1919062004f0f565b15155b801562002f0b57506098546001600160a01b031615155b8062002faf5750609d5460405163385f5d8f60e11b81526001600160a01b03909116906370bebb1e9062002f46903090859060040162005206565b60206040518083038186803b15801562002f5f57600080fd5b505afa15801562002f74573d6000803e3d6000fd5b505050506040513d601f19601f8201168201806040525081019062002f9a9190620049a1565b6001600160a01b0316336001600160a01b0316145b60408051808201909152600a81526902230b79d1037b7363c960b51b602082015262002fdc9083620038b4565b9062002ffd5760405162461bcd60e51b81526004016200083e91906200529f565b5062001c0884848462003d85565b600054610100900460ff16620030285760005460ff16156200302c565b303b155b620030915760405162461bcd60e51b815260206004820152602e60248201527f496e697469616c697a61626c653a20636f6e747261637420697320616c72656160448201526d191e481a5b9a5d1a585b1a5e995960921b60648201526084016200083e565b600054610100900460ff16158015620030b4576000805461ffff19166101011790555b620030be62004065565b609a80546001600160a01b03191633179055620030df602083018362004982565b609980546001600160a01b0319166001600160a01b039290921691909117905562003111604083016020840162004982565b609b80546001600160a01b0319166001600160a01b039290921691909117905562003143606083016040840162004982565b609c80546001600160a01b0319166001600160a01b03929092169190911790556200317260a083018362005441565b6200318091609f9162004754565b5060e082013560a2556200319b608083016060840162004982565b609d80546001600160a01b0319166001600160a01b0392909216919091179055620031cd60a083016080840162004982565b609e80546001600160a01b0319166001600160a01b039290921691909117905561038082013560a3556103a082013560a455620032136101208301610100840162005087565b60a6805460ff191660ff9290921691821790556001141562003255576200324f62003243610340840184620053f7565b84610360013562003d85565b620033b5565b60a65460ff1660021415620033b557620032786101408301610120840162004982565b6040516301ffc9a760e01b81526380ac58cd60e01b60048201526001600160a01b0391909116906301ffc9a79060240160206040518083038186803b158015620032c157600080fd5b505afa925050508015620032f4575060408051601f3d908101601f19168201909252620032f19181019062004ef0565b60015b620033395760405162461bcd60e51b8152602060048201526014602482015273139bdd08115490c80dcc8c481cdd185b99185c9960621b60448201526064016200083e565b806200337f5760405162461bcd60e51b8152602060048201526014602482015273139bdd08115490c80dcc8c481cdd185b99185c9960621b60448201526064016200083e565b50620033946101408301610120840162004982565b609880546001600160a01b0319166001600160a01b03929092169190911790555b60408051600180825281830190925260009160208083019080368337019050509050600181600081518110620033fb57634e487b7160e01b600052603260045260246000fd5b6020026020010181815250506200347d6040518060400160405280600e81526020016d109d5919d95d105c1c1c9bdd985b60921b81525084610140016000600481106200345857634e487b7160e01b600052603260045260246000fd5b602002013561016086013561018087013585610140890160035b60200201356200394b565b60408051808201909152601481527314995d9bdad9509d5919d95d105c1c1c9bdd985b60621b6020820152620034d2906101c085018035906101e08701359060025b6020020135856101c08901600362003472565b60408051808201909152600781526611d95b995c985b60ca1b60208201526200350c906102408501803590610260870135906002620034bf565b60408051808201909152600a81526944616f53657474696e6760b01b602082015262003552906102c085018035906102e087013590610300880135908690600362003472565b60006200356d62003567602086018662004982565b620040d2565b6001600160a01b0316600090815260a1602052604090204290555050801562000da6576000805461ff00191690555050565b609c5460405163cb0e0d7d60e01b81526001600160a01b038381166004830152600092169063cb0e0d7d9060240160206040518083038186803b158015620035e657600080fd5b505afa158015620035fb573d6000803e3d6000fd5b505050506040513d601f19601f8201168201806040525081019062003621919062004f0f565b620036ab57609c5460405163c21ab7f960e01b81526001600160a01b0384811660048301529091169063c21ab7f990602401602060405180830381600087803b1580156200366e57600080fd5b505af115801562003683573d6000803e3d6000fd5b505050506040513d601f19601f82011682018060405250810190620036a9919062004f0f565b505b609c5460405163cb0e0d7d60e01b81526001600160a01b0384811660048301529091169063cb0e0d7d9060240160206040518083038186803b158015620036f157600080fd5b505afa15801562003706573d6000803e3d6000fd5b505050506040513d601f19601f8201168201806040525081019062000806919062004f0f565b7f4910fdfa16fed3260ed0e7147f7cc6da11a60208b5b9406d12a635614ffd91435460ff1615620037625762001f80836200426c565b826001600160a01b03166352d1902d6040518163ffffffff1660e01b815260040160206040518083038186803b1580156200379c57600080fd5b505afa925050508015620037cf575060408051601f3d908101601f19168201909252620037cc9181019062004f0f565b60015b620038345760405162461bcd60e51b815260206004820152602e60248201527f45524331393637557067726164653a206e657720696d706c656d656e7461746960448201526d6f6e206973206e6f74205555505360901b60648201526084016200083e565b60008051602062005d748339815191528114620038a65760405162461bcd60e51b815260206004820152602960248201527f45524331393637557067726164653a20756e737570706f727465642070726f786044820152681a58589b195555525160ba1b60648201526084016200083e565b5062001f808383836200430b565b60608282604051602001620038cb92919062005164565b604051602081830303815290604052905092915050565b6098546040516340c10f1960e01b8152306004820152602481018390526001600160a01b03909116906340c10f1990604401600060405180830381600087803b1580156200392f57600080fd5b505af115801562003944573d6000803e3d6000fd5b5050505050565b6000620039788260028111156200397257634e487b7160e01b600052602160045260246000fd5b62004336565b609d5460405163c7934a2360e01b81529192506001600160a01b03169063c7934a2390620039b5908a908a908a908a908a908990600401620052b4565b600060405180830381600087803b158015620039d057600080fd5b505af1158015620039e5573d6000803e3d6000fd5b5050505050505050505050565b60985460405163a9059cbb60e01b81526001600160a01b038481166004830152602482018490529091169063a9059cbb90604401602060405180830381600087803b15801562003a4157600080fd5b505af115801562003a56573d6000803e3d6000fd5b505050506040513d601f19601f8201168201806040525081019062001f80919062004ef0565b600062003a8983620040d2565b609c549091506001600160a01b0316635e315f8b8262003aaa60006200359f565b856040518463ffffffff1660e01b815260040162003acb939291906200522c565b600060405180830381600087803b15801562003ae657600080fd5b505af115801562003afb573d6000803e3d6000fd5b5050604080516001600160a01b0385168152600060208201529081018590527f5548c837ab068cf56a2c2479df0882a4922fd203edb7517321831d95078c5f629250606001905060405180910390a16001600160a01b038116600090815260a1602052604090205462003b6e9062004560565b6001600160a01b038116600090815260a1602052604090205462001f80576001600160a01b038116600090815260a16020526040902042905560a35482101562003bfb5760405162461bcd60e51b815260206004820152601960248201527f6465706f73697420616d6f756e74206e6f7420656e6f7567680000000000000060448201526064016200083e565b60a65460ff166001141562003cdf5760a4546098546040516370a0823160e01b81526001600160a01b038681166004830152909116906370a08231906024015b60206040518083038186803b15801562003c5457600080fd5b505afa15801562003c69573d6000803e3d6000fd5b505050506040513d601f19601f8201168201806040525081019062003c8f919062004f0f565b101562001f805760405162461bcd60e51b815260206004820152601760248201527f6d656d62657220746f6b656e206e6f7420656e6f75676800000000000000000060448201526064016200083e565b60a65460ff166002141562001f805760a4546098546040516370a0823160e01b81526001600160a01b038681166004830152909116906370a082319060240162003c3b565b600062003d33826004620054e1565b8351101562003d7c5760405162461bcd60e51b8152602060048201526014602482015273746f4279746573345f6f75744f66426f756e647360601b60448201526064016200083e565b50016020015190565b6098546001600160a01b03161562003de05760405162461bcd60e51b815260206004820181905260248201527f4d656d62657220746f6b656e20616c726561647920696e697469616c697a656460448201526064016200083e565b6002821462003e435760405162461bcd60e51b815260206004820152602860248201527f496e73756666696369656e7420696e666f20746f20637265617465206d656d6260448201526732b9103a37b5b2b760c11b60648201526084016200083e565b609e546040516000916001600160a01b03169062003e619062004746565b6001600160a01b039091168152604060208201819052600090820152606001604051809103906000f08015801562003e9d573d6000803e3d6000fd5b50609880546001600160a01b0319166001600160a01b038316908117909155909150639065714730868660008162003ee557634e487b7160e01b600052603260045260246000fd5b905060200281019062003ef9919062005441565b8888600181811062003f1b57634e487b7160e01b600052603260045260246000fd5b905060200281019062003f2f919062005441565b6040518663ffffffff1660e01b815260040162003f51959493929190620051be565b600060405180830381600087803b15801562003f6c57600080fd5b505af115801562003f81573d6000803e3d6000fd5b5050609c546001600160a01b03169150635e315f8b905062003fa330620040d2565b60985462003fba906001600160a01b03166200359f565b856040518463ffffffff1660e01b815260040162003fdb939291906200522c565b600060405180830381600087803b15801562003ff657600080fd5b505af11580156200400b573d6000803e3d6000fd5b505050506200401a82620038e2565b609854604080513381526001600160a01b0390921660208301527f51872b89ca0a4559a29252fabe8e58a51d77923ec1fdb596822e56c918df96eb910160405180910390a150505050565b600054610100900460ff1662001f915760405162461bcd60e51b815260206004820152602b60248201527f496e697469616c697a61626c653a20636f6e7472616374206973206e6f74206960448201526a6e697469616c697a696e6760a81b60648201526084016200083e565b609b54604051634814f03560e01b81526001600160a01b0383811660048301526000928392911690634814f0359060240160206040518083038186803b1580156200411c57600080fd5b505afa15801562004131573d6000803e3d6000fd5b505050506040513d601f19601f8201168201806040525081019062004157919062004f0f565b905080620041e557609b54604051632124d52960e01b81526001600160a01b03858116600483015290911690632124d529906024016040805180830381600087803b158015620041a657600080fd5b505af1158015620041bb573d6000803e3d6000fd5b505050506040513d601f19601f82011682018060405250810190620041e1919062005055565b5090505b609b5460405163441d120360e11b8152600481018390526001600160a01b039091169063883a24069060240160206040518083038186803b1580156200422a57600080fd5b505afa1580156200423f573d6000803e3d6000fd5b505050506040513d601f19601f82011682018060405250810190620042659190620049a1565b9392505050565b6001600160a01b0381163b620042db5760405162461bcd60e51b815260206004820152602d60248201527f455243313936373a206e657720696d706c656d656e746174696f6e206973206e60448201526c1bdd08184818dbdb9d1c9858dd609a1b60648201526084016200083e565b60008051602062005d7483398151915280546001600160a01b0319166001600160a01b0392909216919091179055565b6200431683620045a8565b600082511180620043245750805b1562001f805762001c088383620045ea565b60608160028111156200435957634e487b7160e01b600052602160045260246000fd5b6200442757609b546001600160a01b0316620043b85760405162461bcd60e51b815260206004820152601e60248201527f4d656d62657273686970206e6f742079657420696e697469616c697a6564000060448201526064016200083e565b604080516001808252818301909252600091602080830190803683375050609b5482519293506001600160a01b0316918391506000906200440957634e487b7160e01b600052603260045260246000fd5b6001600160a01b039092166020928302919091019091015292915050565b8160028111156200444857634e487b7160e01b600052602160045260246000fd5b60011415620044fc576098546001600160a01b0316620044ab5760405162461bcd60e51b815260206004820152601f60248201527f4d656d626572546f6b656e206e6f742079657420696e697469616c697a65640060448201526064016200083e565b60408051600180825281830190925260009160208083019080368337505060985482519293506001600160a01b0316918391506000906200440957634e487b7160e01b600052603260045260246000fd5b8160028111156200451d57634e487b7160e01b600052602160045260246000fd5b5060405162461bcd60e51b8152602060048201526016602482015275556e737570706f7274656420546f6b656e207479706560501b60448201526064016200083e565b62000cd5816040516024016200457891815260200190565b60408051601f198184030181529190526020810180516001600160e01b031663f5b1bba960e01b179052620046e7565b620045b3816200426c565b6040516001600160a01b038216907fbc7cd75a20ee27fd9adebab32041f755214dbc6bffa90cc0225b39da2e5c2d3b90600090a250565b60606001600160a01b0383163b620046545760405162461bcd60e51b815260206004820152602660248201527f416464726573733a2064656c65676174652063616c6c20746f206e6f6e2d636f6044820152651b9d1c9858dd60d21b60648201526084016200083e565b600080846001600160a01b03168460405162004671919062005146565b600060405180830381855af49150503d8060008114620046ae576040519150601f19603f3d011682016040523d82523d6000602084013e620046b3565b606091505b5091509150620046de828260405180606001604052806027815260200162005d946027913962004708565b95945050505050565b80516a636f6e736f6c652e6c6f67602083016000808483855afa5050505050565b606083156200471957508162004265565b8251156200472a5782518084602001fd5b8160405162461bcd60e51b81526004016200083e91906200529f565b6107a280620055d283390190565b82805462004762906200552b565b90600052602060002090601f016020900481019282620047865760008555620047d1565b82601f10620047a15782800160ff19823516178555620047d1565b82800160010185558215620047d1579182015b82811115620047d1578235825591602001919060010190620047b4565b50620047df929150620047e3565b5090565b5b80821115620047df5760008155600101620047e4565b60008083601f8401126200480c578182fd5b5081356001600160401b0381111562004823578182fd5b6020830191508360208260051b85010111156200483f57600080fd5b9250929050565b600082601f83011262004857578081fd5b81356020620048706200486a83620054bb565b62005488565b80838252828201915082860187848660051b890101111562004890578586fd5b855b85811015620048b05781358452928401929084019060010162004892565b5090979650505050505050565b8035620048ca81620055c2565b919050565b60008083601f840112620048e1578182fd5b5081356001600160401b03811115620048f8578182fd5b6020830191508360208285010111156200483f57600080fd5b600082601f83011262004922578081fd5b81356001600160401b038111156200493e576200493e62005596565b62004953601f8201601f191660200162005488565b81815284602083860101111562004968578283fd5b816020850160208301379081016020019190915292915050565b60006020828403121562004994578081fd5b81356200426581620055ac565b600060208284031215620049b3578081fd5b81516200426581620055ac565b600080600080600060a08688031215620049d8578081fd5b8535620049e581620055ac565b94506020860135620049f781620055ac565b935060408601356001600160401b038082111562004a13578283fd5b62004a2189838a0162004846565b9450606088013591508082111562004a37578283fd5b62004a4589838a0162004846565b9350608088013591508082111562004a5b578283fd5b5062004a6a8882890162004911565b9150509295509295909350565b60008060006060848603121562004a8c578081fd5b833562004a9981620055ac565b9250602084013562004aab81620055ac565b929592945050506040919091013590565b6000806000806080858703121562004ad2578182fd5b843562004adf81620055ac565b9350602085013562004af181620055ac565b92506040850135915060608501356001600160401b0381111562004b13578182fd5b62004b218782880162004911565b91505092959194509250565b600080600080600060a0868803121562004b45578283fd5b853562004b5281620055ac565b9450602086013562004b6481620055ac565b9350604086013592506060860135915060808601356001600160401b0381111562004b8d578182fd5b62004a6a8882890162004911565b6000806000806080858703121562004bb1578182fd5b843562004bbe81620055ac565b93506020858101356001600160401b038082111562004bdb578485fd5b818801915088601f83011262004bef578485fd5b813562004c006200486a82620054bb565b8082825285820191508585018c878560051b880101111562004c20578889fd5b8895505b8386101562004c4f57803562004c3a81620055ac565b83526001959095019491860191860162004c24565b5097505050604088013592508083111562004c68578485fd5b505062004c788782880162004846565b92505062004c8960608601620048bd565b905092959194509250565b60008060008060006080868803121562004cac578283fd5b853562004cb981620055ac565b945060208601356001600160401b0381111562004cd4578384fd5b62004ce288828901620048cf565b90955093505060408601359150606086013562004cff81620055c2565b809150509295509295909350565b6000806040838503121562004d20578182fd5b823562004d2d81620055ac565b915060208301356001600160401b0381111562004d48578182fd5b62004d568582860162004911565b9150509250929050565b6000806040838503121562004d73578182fd5b823562004d8081620055ac565b946020939093013593505050565b6000806000806040858703121562004da4578182fd5b84356001600160401b038082111562004dbb578384fd5b62004dc988838901620047fa565b9096509450602087013591508082111562004de2578384fd5b5062004df187828801620047fa565b95989497509550505050565b6000602080838503121562004e10578182fd5b82516001600160401b0381111562004e26578283fd5b8301601f8101851362004e37578283fd5b805162004e486200486a82620054bb565b80828252848201915084840188868560051b870101111562004e68578687fd5b8694505b8385101562004e9757805162004e8281620055ac565b83526001949094019391850191850162004e6c565b50979650505050505050565b60008060006040848603121562004eb8578081fd5b83356001600160401b0381111562004ece578182fd5b62004edc86828701620047fa565b909790965060209590950135949350505050565b60006020828403121562004f02578081fd5b81516200426581620055c2565b60006020828403121562004f21578081fd5b5051919050565b60006020828403121562004f3a578081fd5b81356001600160e01b03198116811462004265578182fd5b60008060008060008060008060c0898b03121562004f6e578586fd5b88356001600160401b038082111562004f85578788fd5b62004f938c838d01620048cf565b909a50985060208b0135975060408b0135965060608b0135955060808b013591508082111562004fc1578485fd5b5062004fd08b828c01620047fa565b999c989b50969995989497949560a00135949350505050565b60006040828403121562004ffb578081fd5b50919050565b60006020828403121562005013578081fd5b81356001600160401b0381111562005029578182fd5b82016103c0818503121562004265578182fd5b6000602082840312156200504e578081fd5b5035919050565b6000806040838503121562005068578182fd5b8251915060208301516200507c81620055ac565b809150509250929050565b60006020828403121562005099578081fd5b813560ff8116811462004265578182fd5b6000815180845260208085019450808401835b83811015620050e45781516001600160a01b031687529582019590820190600101620050bd565b509495945050505050565b81835281816020850137506000828201602090810191909152601f909101601f19169091010190565b6000815180845262005132816020860160208601620054fc565b601f01601f19169290920160200192915050565b600082516200515a818460208701620054fc565b9190910192915050565b6000835162005178818460208801620054fc565b8351908301906200518e818360208801620054fc565b01949350505050565b6001600160a01b0384168152604060208201819052600090620046de9083018486620050ef565b6001600160a01b0386168152606060208201819052600090620051e59083018688620050ef565b8281036040840152620051fa818587620050ef565b98975050505050505050565b6001600160a01b038316815260406020820181905260009062000b599083018462005118565b6001600160a01b039390931683526020830191909152604082015260806060820181905260009082015260a00190565b602081526000620042656020830184620050aa565b60608152600062005287606083018688620050ef565b60208301949094525090151560409091015292915050565b60208152600062004265602083018462005118565b60c081526000620052c960c083018962005118565b602083810189905260408401889052606084018790528382036080850152855180835286820192820190845b818110156200531357845183529383019391830191600101620052f5565b505084810360a0860152620053298187620050aa565b9b9a5050505050505050505050565b6020808252602c908201527f46756e6374696f6e206d7573742062652063616c6c6564207468726f7567682060408201526b19195b1959d85d1958d85b1b60a21b606082015260800190565b6020808252602c908201527f46756e6374696f6e206d7573742062652063616c6c6564207468726f7567682060408201526b6163746976652070726f787960a01b606082015260800190565b6020808252600d908201526c1858d8d95cdcc819195b9a5959609a1b604082015260600190565b6000808335601e198436030181126200540e578283fd5b8301803591506001600160401b0382111562005428578283fd5b6020019150600581901b36038213156200483f57600080fd5b6000808335601e1984360301811262005458578283fd5b8301803591506001600160401b0382111562005472578283fd5b6020019150368190038213156200483f57600080fd5b604051601f8201601f191681016001600160401b0381118282101715620054b357620054b362005596565b604052919050565b60006001600160401b03821115620054d757620054d762005596565b5060051b60200190565b60008219821115620054f757620054f762005580565b500190565b60005b8381101562005519578181015183820152602001620054ff565b8381111562001c085750506000910152565b600181811c908216806200554057607f821691505b6020821081141562004ffb57634e487b7160e01b600052602260045260246000fd5b600060001982141562005579576200557962005580565b5060010190565b634e487b7160e01b600052601160045260246000fd5b634e487b7160e01b600052604160045260246000fd5b6001600160a01b038116811462000cd557600080fd5b801515811462000cd557600080fdfe60806040526040516107a23803806107a283398101604081905261002291610315565b61004d60017f360894a13ba1a3210667c828492db98dca3e2076cc3735a920a3ca505d382bbd61042d565b60008051602061075b8339815191521461007757634e487b7160e01b600052600160045260246000fd5b6100838282600061008a565b5050610492565b610093836100c0565b6000825111806100a05750805b156100bb576100b9838361010060201b6100291760201c565b505b505050565b6100c98161012c565b6040516001600160a01b038216907fbc7cd75a20ee27fd9adebab32041f755214dbc6bffa90cc0225b39da2e5c2d3b90600090a250565b6060610125838360405180606001604052806027815260200161077b602791396101ec565b9392505050565b61013f816102ca60201b6100551760201c565b6101a65760405162461bcd60e51b815260206004820152602d60248201527f455243313936373a206e657720696d706c656d656e746174696f6e206973206e60448201526c1bdd08184818dbdb9d1c9858dd609a1b60648201526084015b60405180910390fd5b806101cb60008051602061075b83398151915260001b6102d960201b6100641760201c565b80546001600160a01b0319166001600160a01b039290921691909117905550565b60606001600160a01b0384163b6102545760405162461bcd60e51b815260206004820152602660248201527f416464726573733a2064656c65676174652063616c6c20746f206e6f6e2d636f6044820152651b9d1c9858dd60d21b606482015260840161019d565b600080856001600160a01b03168560405161026f91906103de565b600060405180830381855af49150503d80600081146102aa576040519150601f19603f3d011682016040523d82523d6000602084013e6102af565b606091505b5090925090506102c08282866102dc565b9695505050505050565b6001600160a01b03163b151590565b90565b606083156102eb575081610125565b8251156102fb5782518084602001fd5b8160405162461bcd60e51b815260040161019d91906103fa565b60008060408385031215610327578182fd5b82516001600160a01b038116811461033d578283fd5b60208401519092506001600160401b0380821115610359578283fd5b818501915085601f83011261036c578283fd5b81518181111561037e5761037e61047c565b604051601f8201601f19908116603f011681019083821181831017156103a6576103a661047c565b816040528281528860208487010111156103be578586fd5b6103cf836020830160208801610450565b80955050505050509250929050565b600082516103f0818460208701610450565b9190910192915050565b6020815260008251806020840152610419816040850160208701610450565b601f01601f19169190910160400192915050565b60008282101561044b57634e487b7160e01b81526011600452602481fd5b500390565b60005b8381101561046b578181015183820152602001610453565b838111156100b95750506000910152565b634e487b7160e01b600052604160045260246000fd5b6102ba806104a16000396000f3fe60806040523661001357610011610017565b005b6100115b610027610022610067565b61009f565b565b606061004e838360405180606001604052806027815260200161025e602791396100c3565b9392505050565b6001600160a01b03163b151590565b90565b600061009a7f360894a13ba1a3210667c828492db98dca3e2076cc3735a920a3ca505d382bbc546001600160a01b031690565b905090565b3660008037600080366000845af43d6000803e8080156100be573d6000f35b3d6000fd5b60606001600160a01b0384163b6101305760405162461bcd60e51b815260206004820152602660248201527f416464726573733a2064656c65676174652063616c6c20746f206e6f6e2d636f6044820152651b9d1c9858dd60d21b60648201526084015b60405180910390fd5b600080856001600160a01b03168560405161014b91906101de565b600060405180830381855af49150503d8060008114610186576040519150601f19603f3d011682016040523d82523d6000602084013e61018b565b606091505b509150915061019b8282866101a5565b9695505050505050565b606083156101b457508161004e565b8251156101c45782518084602001fd5b8160405162461bcd60e51b815260040161012791906101fa565b600082516101f081846020870161022d565b9190910192915050565b602081526000825180602084015261021981604085016020870161022d565b601f01601f19169190910160400192915050565b60005b83811015610248578181015183820152602001610230565b83811115610257576000848401525b5050505056fe416464726573733a206c6f772d6c6576656c2064656c65676174652063616c6c206661696c6564a2646970667358221220e14c3fee28687df8af621b132b9789cfe2ceb6f7d6de514bb73c2956ffe9d6dd64736f6c63430008040033360894a13ba1a3210667c828492db98dca3e2076cc3735a920a3ca505d382bbc416464726573733a206c6f772d6c6576656c2064656c65676174652063616c6c206661696c6564360894a13ba1a3210667c828492db98dca3e2076cc3735a920a3ca505d382bbc416464726573733a206c6f772d6c6576656c2064656c65676174652063616c6c206661696c6564a26469706673582212205dc08b3711801592a9d43f5ec3e83b93a73e818330325c66ccefecbbb595f49c64736f6c63430008040033",
  "linkReferences": {},
  "deployedLinkReferences": {}
}