{
  "_format": "hh-sol-artifact-1",
  "contractName": "Dao",
  "sourceName": "contracts/Dao.sol",
  "abi": [
    {
      "inputs": [],
      "stateMutability": "nonpayable",
      "type": "constructor"
    },
    {
      "anonymous": false,
      "inputs": [
        {
          "indexed": false,
          "internalType": "address",
          "name": "token",
          "type": "address"
        },
        {
          "indexed": false,
          "internalType": "uint256",
          "name": "minTokenToAdmit",
          "type": "uint256"
        },
        {
          "indexed": false,
          "internalType": "uint256",
          "name": "tokenId",
          "type": "uint256"
        },
        {
          "indexed": false,
          "internalType": "bool",
          "name": "isMemberToken",
          "type": "bool"
        }
      ],
      "name": "AddAdmissionToken",
      "type": "event"
    },
    {
      "anonymous": false,
      "inputs": [
        {
          "indexed": false,
          "internalType": "address",
          "name": "previousAdmin",
          "type": "address"
        },
        {
          "indexed": false,
          "internalType": "address",
          "name": "newAdmin",
          "type": "address"
        }
      ],
      "name": "AdminChanged",
      "type": "event"
    },
    {
      "anonymous": false,
      "inputs": [
        {
          "indexed": false,
          "internalType": "address",
          "name": "token",
          "type": "address"
        }
      ],
      "name": "AllowDepositToken",
      "type": "event"
    },
    {
      "anonymous": false,
      "inputs": [
        {
          "indexed": true,
          "internalType": "address",
          "name": "beacon",
          "type": "address"
        }
      ],
      "name": "BeaconUpgraded",
      "type": "event"
    },
    {
      "anonymous": false,
      "inputs": [
        {
          "indexed": false,
          "internalType": "address",
          "name": "budgetApproval",
          "type": "address"
        },
        {
          "indexed": false,
          "internalType": "bytes",
          "name": "data",
          "type": "bytes"
        }
      ],
      "name": "CreateBudgetApproval",
      "type": "event"
    },
    {
      "anonymous": false,
      "inputs": [
        {
          "indexed": false,
          "internalType": "address",
          "name": "account",
          "type": "address"
        },
        {
          "indexed": false,
          "internalType": "uint256",
          "name": "depositAmount",
          "type": "uint256"
        }
      ],
      "name": "CreateMember",
      "type": "event"
    },
    {
      "anonymous": false,
      "inputs": [
        {
          "indexed": false,
          "internalType": "address",
          "name": "creator",
          "type": "address"
        },
        {
          "indexed": false,
          "internalType": "address",
          "name": "token",
          "type": "address"
        }
      ],
      "name": "CreateMemberToken",
      "type": "event"
    },
    {
      "anonymous": false,
      "inputs": [
        {
          "indexed": false,
          "internalType": "address",
          "name": "account",
          "type": "address"
        },
        {
          "indexed": false,
          "internalType": "uint256",
          "name": "amount",
          "type": "uint256"
        }
      ],
      "name": "Deposit",
      "type": "event"
    },
    {
      "anonymous": false,
      "inputs": [
        {
          "indexed": false,
          "internalType": "address",
          "name": "budgetApproval",
          "type": "address"
        },
        {
          "indexed": false,
          "internalType": "bytes",
          "name": "data",
          "type": "bytes"
        }
      ],
      "name": "ExecuteByBudgetApproval",
      "type": "event"
    },
    {
      "anonymous": false,
      "inputs": [
        {
          "indexed": false,
          "internalType": "uint8",
          "name": "version",
          "type": "uint8"
        }
      ],
      "name": "Initialized",
      "type": "event"
    },
    {
      "anonymous": false,
      "inputs": [
        {
          "indexed": false,
          "internalType": "address",
          "name": "token",
          "type": "address"
        }
      ],
      "name": "RemoveAdmissionToken",
      "type": "event"
    },
    {
      "anonymous": false,
      "inputs": [
        {
          "indexed": false,
          "internalType": "address",
          "name": "budgetApproval",
          "type": "address"
        }
      ],
      "name": "RevokeBudgetApproval",
      "type": "event"
    },
    {
      "anonymous": false,
      "inputs": [
        {
          "indexed": false,
          "internalType": "address",
          "name": "owner",
          "type": "address"
        },
        {
          "indexed": false,
          "internalType": "uint256",
          "name": "time",
          "type": "uint256"
        }
      ],
      "name": "SetFirstDepositTime",
      "type": "event"
    },
    {
      "anonymous": false,
      "inputs": [
        {
          "indexed": false,
          "internalType": "uint256",
          "name": "locktime",
          "type": "uint256"
        }
      ],
      "name": "UpdateLocktime",
      "type": "event"
    },
    {
      "anonymous": false,
      "inputs": [
        {
          "indexed": false,
          "internalType": "string",
          "name": "logoCID",
          "type": "string"
        }
      ],
      "name": "UpdateLogoCID",
      "type": "event"
    },
    {
      "anonymous": false,
      "inputs": [
        {
          "indexed": false,
          "internalType": "uint256",
          "name": "amount",
          "type": "uint256"
        }
      ],
      "name": "UpdateMinDepositAmount",
      "type": "event"
    },
    {
      "anonymous": false,
      "inputs": [
        {
          "indexed": false,
          "internalType": "string",
          "name": "remark",
          "type": "string"
        }
      ],
      "name": "UpgradeDao",
      "type": "event"
    },
    {
      "anonymous": false,
      "inputs": [
        {
          "indexed": true,
          "internalType": "address",
          "name": "implementation",
          "type": "address"
        }
      ],
      "name": "Upgraded",
      "type": "event"
    },
    {
      "anonymous": false,
      "inputs": [
        {
          "indexed": false,
          "internalType": "uint256",
          "name": "tokenId",
          "type": "uint256"
        }
      ],
      "name": "WhitelistTeam",
      "type": "event"
    },
    {
      "inputs": [],
      "name": "adam",
      "outputs": [
        {
          "internalType": "address",
          "name": "",
          "type": "address"
        }
      ],
      "stateMutability": "view",
      "type": "function"
    },
    {
      "inputs": [
        {
          "internalType": "address",
          "name": "token",
          "type": "address"
        },
        {
          "internalType": "uint256",
          "name": "minTokenToAdmit",
          "type": "uint256"
        },
        {
          "internalType": "uint256",
          "name": "tokenId",
          "type": "uint256"
        }
      ],
      "name": "addAdmissionToken",
      "outputs": [],
      "stateMutability": "nonpayable",
      "type": "function"
    },
    {
      "inputs": [
        {
          "internalType": "address[]",
          "name": "erc20s",
          "type": "address[]"
        }
      ],
      "name": "addAssets",
      "outputs": [],
      "stateMutability": "nonpayable",
      "type": "function"
    },
    {
      "inputs": [
        {
          "internalType": "address",
          "name": "",
          "type": "address"
        }
      ],
      "name": "admissionTokenSetting",
      "outputs": [
        {
          "internalType": "uint256",
          "name": "minTokenToAdmit",
          "type": "uint256"
        },
        {
          "internalType": "uint256",
          "name": "tokenId",
          "type": "uint256"
        },
        {
          "internalType": "bool",
          "name": "active",
          "type": "bool"
        }
      ],
      "stateMutability": "view",
      "type": "function"
    },
    {
      "inputs": [
        {
          "internalType": "uint256",
          "name": "",
          "type": "uint256"
        }
      ],
      "name": "admissionTokens",
      "outputs": [
        {
          "internalType": "address",
          "name": "",
          "type": "address"
        }
      ],
      "stateMutability": "view",
      "type": "function"
    },
    {
      "inputs": [],
      "name": "admissionTokensLength",
      "outputs": [
        {
          "internalType": "uint256",
          "name": "",
          "type": "uint256"
        }
      ],
      "stateMutability": "view",
      "type": "function"
    },
    {
      "inputs": [
        {
          "internalType": "address",
          "name": "account",
          "type": "address"
        },
        {
          "internalType": "uint256",
          "name": "amount",
          "type": "uint256"
        }
      ],
      "name": "afterDeposit",
      "outputs": [],
      "stateMutability": "nonpayable",
      "type": "function"
    },
    {
      "inputs": [],
      "name": "baseCurrency",
      "outputs": [
        {
          "internalType": "address",
          "name": "",
          "type": "address"
        }
      ],
      "stateMutability": "view",
      "type": "function"
    },
    {
      "inputs": [
        {
          "internalType": "address",
          "name": "template",
          "type": "address"
        }
      ],
      "name": "budgetApprovals",
      "outputs": [
        {
          "internalType": "bool",
          "name": "",
          "type": "bool"
        }
      ],
      "stateMutability": "view",
      "type": "function"
    },
    {
      "inputs": [
        {
          "internalType": "address",
          "name": "account",
          "type": "address"
        }
      ],
      "name": "byPassGovern",
      "outputs": [
        {
          "internalType": "bool",
          "name": "",
          "type": "bool"
        }
      ],
      "stateMutability": "view",
      "type": "function"
    },
    {
      "inputs": [
        {
          "internalType": "address",
          "name": "budgetApproval",
          "type": "address"
        }
      ],
      "name": "canCreateBudgetApproval",
      "outputs": [
        {
          "internalType": "bool",
          "name": "",
          "type": "bool"
        }
      ],
      "stateMutability": "view",
      "type": "function"
    },
    {
      "inputs": [
        {
          "internalType": "address[]",
          "name": "__budgetApprovals",
          "type": "address[]"
        },
        {
          "internalType": "bytes[]",
          "name": "data",
          "type": "bytes[]"
        }
      ],
      "name": "createBudgetApprovals",
      "outputs": [],
      "stateMutability": "nonpayable",
      "type": "function"
    },
    {
      "inputs": [
        {
          "internalType": "string",
          "name": "_name",
          "type": "string"
        },
        {
          "internalType": "uint256",
          "name": "duration",
          "type": "uint256"
        },
        {
          "internalType": "uint256",
          "name": "quorum",
          "type": "uint256"
        },
        {
          "internalType": "uint256",
          "name": "passThreshold",
          "type": "uint256"
        },
        {
          "internalType": "enum Dao.VoteType",
          "name": "voteType",
          "type": "uint8"
        },
        {
          "internalType": "address",
          "name": "externalVoteToken",
          "type": "address"
        }
      ],
      "name": "createGovern",
      "outputs": [],
      "stateMutability": "nonpayable",
      "type": "function"
    },
    {
      "inputs": [
        {
          "internalType": "string",
          "name": "title",
          "type": "string"
        },
        {
          "internalType": "address",
          "name": "minter",
          "type": "address"
        },
        {
          "internalType": "address[]",
          "name": "members",
          "type": "address[]"
        },
        {
          "internalType": "string",
          "name": "description",
          "type": "string"
        }
      ],
      "name": "createTeam",
      "outputs": [],
      "stateMutability": "nonpayable",
      "type": "function"
    },
    {
      "inputs": [],
      "name": "creator",
      "outputs": [
        {
          "internalType": "address",
          "name": "",
          "type": "address"
        }
      ],
      "stateMutability": "view",
      "type": "function"
    },
    {
      "inputs": [
        {
          "internalType": "address",
          "name": "_to",
          "type": "address"
        },
        {
          "internalType": "bytes",
          "name": "_data",
          "type": "bytes"
        },
        {
          "internalType": "uint256",
          "name": "_value",
          "type": "uint256"
        }
      ],
      "name": "executeByBudgetApproval",
      "outputs": [
        {
          "internalType": "bytes",
          "name": "",
          "type": "bytes"
        }
      ],
      "stateMutability": "nonpayable",
      "type": "function"
    },
    {
      "inputs": [
        {
          "internalType": "address",
          "name": "",
          "type": "address"
        }
      ],
      "name": "firstDepositTime",
      "outputs": [
        {
          "internalType": "uint256",
          "name": "",
          "type": "uint256"
        }
      ],
      "stateMutability": "view",
      "type": "function"
    },
    {
      "inputs": [
        {
          "internalType": "string",
          "name": "gName",
          "type": "string"
        }
      ],
      "name": "govern",
      "outputs": [
        {
          "internalType": "address",
          "name": "",
          "type": "address"
        }
      ],
      "stateMutability": "view",
      "type": "function"
    },
    {
      "inputs": [],
      "name": "governFactory",
      "outputs": [
        {
          "internalType": "address",
          "name": "",
          "type": "address"
        }
      ],
      "stateMutability": "view",
      "type": "function"
    },
    {
      "inputs": [
        {
          "components": [
            {
              "internalType": "address",
              "name": "_creator",
              "type": "address"
            },
            {
              "internalType": "address",
              "name": "_membership",
              "type": "address"
            },
            {
              "internalType": "address",
              "name": "_liquidPool",
              "type": "address"
            },
            {
              "internalType": "address",
              "name": "_governFactory",
              "type": "address"
            },
            {
              "internalType": "address",
              "name": "_team",
              "type": "address"
            },
            {
              "internalType": "address",
              "name": "_memberTokenImplementation",
              "type": "address"
            },
            {
              "internalType": "string",
              "name": "_name",
              "type": "string"
            },
            {
              "internalType": "string",
              "name": "_description",
              "type": "string"
            },
            {
              "internalType": "address",
              "name": "baseCurrency",
              "type": "address"
            },
            {
              "internalType": "string",
              "name": "_memberTokenName",
              "type": "string"
            },
            {
              "internalType": "string",
              "name": "_memberTokenSymbol",
              "type": "string"
            },
            {
              "internalType": "address[]",
              "name": "depositTokens",
              "type": "address[]"
            }
          ],
          "internalType": "struct Dao.InitializeParams",
          "name": "params",
          "type": "tuple"
        },
        {
          "internalType": "bytes[]",
          "name": "data",
          "type": "bytes[]"
        }
      ],
      "name": "initialize",
      "outputs": [],
      "stateMutability": "nonpayable",
      "type": "function"
    },
    {
      "inputs": [
        {
          "internalType": "address",
          "name": "",
          "type": "address"
        }
      ],
      "name": "isAssetSupported",
      "outputs": [
        {
          "internalType": "bool",
          "name": "",
          "type": "bool"
        }
      ],
      "stateMutability": "view",
      "type": "function"
    },
    {
      "inputs": [
        {
          "internalType": "address",
          "name": "account",
          "type": "address"
        }
      ],
      "name": "isMember",
      "outputs": [
        {
          "internalType": "bool",
          "name": "",
          "type": "bool"
        }
      ],
      "stateMutability": "view",
      "type": "function"
    },
    {
      "inputs": [
        {
          "internalType": "address",
          "name": "account",
          "type": "address"
        }
      ],
      "name": "isPassAdmissionToken",
      "outputs": [
        {
          "internalType": "bool",
          "name": "",
          "type": "bool"
        }
      ],
      "stateMutability": "view",
      "type": "function"
    },
    {
      "inputs": [],
      "name": "liquidPool",
      "outputs": [
        {
          "internalType": "address",
          "name": "",
          "type": "address"
        }
      ],
      "stateMutability": "view",
      "type": "function"
    },
    {
      "inputs": [],
      "name": "locktime",
      "outputs": [
        {
          "internalType": "uint256",
          "name": "",
          "type": "uint256"
        }
      ],
      "stateMutability": "view",
      "type": "function"
    },
    {
      "inputs": [],
      "name": "logoCID",
      "outputs": [
        {
          "internalType": "string",
          "name": "",
          "type": "string"
        }
      ],
      "stateMutability": "view",
      "type": "function"
    },
    {
      "inputs": [],
      "name": "memberToken",
      "outputs": [
        {
          "internalType": "address",
          "name": "",
          "type": "address"
        }
      ],
      "stateMutability": "view",
      "type": "function"
    },
    {
      "inputs": [],
      "name": "membership",
      "outputs": [
        {
          "internalType": "address",
          "name": "",
          "type": "address"
        }
      ],
      "stateMutability": "view",
      "type": "function"
    },
    {
      "inputs": [],
      "name": "minDepositAmount",
      "outputs": [
        {
          "internalType": "uint256",
          "name": "",
          "type": "uint256"
        }
      ],
      "stateMutability": "view",
      "type": "function"
    },
    {
      "inputs": [
        {
          "internalType": "uint256",
          "name": "amount",
          "type": "uint256"
        }
      ],
      "name": "mintMemberToken",
      "outputs": [],
      "stateMutability": "nonpayable",
      "type": "function"
    },
    {
      "inputs": [],
      "name": "name",
      "outputs": [
        {
          "internalType": "string",
          "name": "",
          "type": "string"
        }
      ],
      "stateMutability": "view",
      "type": "function"
    },
    {
      "inputs": [
        {
          "internalType": "address",
          "name": "",
          "type": "address"
        },
        {
          "internalType": "address",
          "name": "",
          "type": "address"
        },
        {
          "internalType": "uint256[]",
          "name": "",
          "type": "uint256[]"
        },
        {
          "internalType": "uint256[]",
          "name": "",
          "type": "uint256[]"
        },
        {
          "internalType": "bytes",
          "name": "",
          "type": "bytes"
        }
      ],
      "name": "onERC1155BatchReceived",
      "outputs": [
        {
          "internalType": "bytes4",
          "name": "",
          "type": "bytes4"
        }
      ],
      "stateMutability": "nonpayable",
      "type": "function"
    },
    {
      "inputs": [
        {
          "internalType": "address",
          "name": "",
          "type": "address"
        },
        {
          "internalType": "address",
          "name": "",
          "type": "address"
        },
        {
          "internalType": "uint256",
          "name": "",
          "type": "uint256"
        },
        {
          "internalType": "uint256",
          "name": "",
          "type": "uint256"
        },
        {
          "internalType": "bytes",
          "name": "",
          "type": "bytes"
        }
      ],
      "name": "onERC1155Received",
      "outputs": [
        {
          "internalType": "bytes4",
          "name": "",
          "type": "bytes4"
        }
      ],
      "stateMutability": "nonpayable",
      "type": "function"
    },
    {
      "inputs": [
        {
          "internalType": "address",
          "name": "",
          "type": "address"
        },
        {
          "internalType": "address",
          "name": "",
          "type": "address"
        },
        {
          "internalType": "uint256",
          "name": "",
          "type": "uint256"
        },
        {
          "internalType": "bytes",
          "name": "",
          "type": "bytes"
        }
      ],
      "name": "onERC721Received",
      "outputs": [
        {
          "internalType": "bytes4",
          "name": "",
          "type": "bytes4"
        }
      ],
      "stateMutability": "nonpayable",
      "type": "function"
    },
    {
      "inputs": [],
      "name": "proxiableUUID",
      "outputs": [
        {
          "internalType": "bytes32",
          "name": "",
          "type": "bytes32"
        }
      ],
      "stateMutability": "view",
      "type": "function"
    },
    {
      "inputs": [
        {
          "internalType": "uint256",
          "name": "index",
          "type": "uint256"
        }
      ],
      "name": "removeAdmissionToken",
      "outputs": [],
      "stateMutability": "nonpayable",
      "type": "function"
    },
    {
      "inputs": [
        {
          "internalType": "address[]",
          "name": "__budgetApprovals",
          "type": "address[]"
        }
      ],
      "name": "revokeBudgetApprovals",
      "outputs": [],
      "stateMutability": "nonpayable",
      "type": "function"
    },
    {
      "inputs": [
        {
          "internalType": "address",
          "name": "owner",
          "type": "address"
        }
      ],
      "name": "setFirstDepositTime",
      "outputs": [],
      "stateMutability": "nonpayable",
      "type": "function"
    },
    {
      "inputs": [
        {
          "internalType": "uint256",
          "name": "_locktime",
          "type": "uint256"
        }
      ],
      "name": "setLocktime",
      "outputs": [],
      "stateMutability": "nonpayable",
      "type": "function"
    },
    {
      "inputs": [
        {
          "internalType": "string",
          "name": "_logoCID",
          "type": "string"
        }
      ],
      "name": "setLogoCID",
      "outputs": [],
      "stateMutability": "nonpayable",
      "type": "function"
    },
    {
      "inputs": [
        {
          "internalType": "uint256",
          "name": "minTokenToAdmit",
          "type": "uint256"
        }
      ],
      "name": "setMemberTokenAsAdmissionToken",
      "outputs": [],
      "stateMutability": "nonpayable",
      "type": "function"
    },
    {
      "inputs": [
        {
          "internalType": "uint256",
          "name": "_minDepositAmount",
          "type": "uint256"
        }
      ],
      "name": "setMinDepositAmount",
      "outputs": [],
      "stateMutability": "nonpayable",
      "type": "function"
    },
    {
      "inputs": [
        {
          "internalType": "bytes4",
          "name": "interfaceId",
          "type": "bytes4"
        }
      ],
      "name": "supportsInterface",
      "outputs": [
        {
          "internalType": "bool",
          "name": "",
          "type": "bool"
        }
      ],
      "stateMutability": "view",
      "type": "function"
    },
    {
      "inputs": [],
      "name": "team",
      "outputs": [
        {
          "internalType": "address",
          "name": "",
          "type": "address"
        }
      ],
      "stateMutability": "view",
      "type": "function"
    },
    {
      "inputs": [
        {
          "internalType": "uint256",
          "name": "",
          "type": "uint256"
        }
      ],
      "name": "teamWhitelist",
      "outputs": [
        {
          "internalType": "bool",
          "name": "",
          "type": "bool"
        }
      ],
      "stateMutability": "view",
      "type": "function"
    },
    {
      "inputs": [
        {
          "internalType": "address",
          "name": "to",
          "type": "address"
        },
        {
          "internalType": "uint256",
          "name": "amount",
          "type": "uint256"
        }
      ],
      "name": "transferMemberToken",
      "outputs": [],
      "stateMutability": "nonpayable",
      "type": "function"
    },
    {
      "inputs": [
        {
          "internalType": "address[]",
          "name": "targets",
          "type": "address[]"
        },
        {
          "internalType": "address[]",
          "name": "newImplementations",
          "type": "address[]"
        },
        {
          "internalType": "string",
          "name": "remark",
          "type": "string"
        }
      ],
      "name": "upgradeImplementations",
      "outputs": [],
      "stateMutability": "nonpayable",
      "type": "function"
    },
    {
      "inputs": [
        {
          "internalType": "address",
          "name": "newImplementation",
          "type": "address"
        }
      ],
      "name": "upgradeTo",
      "outputs": [],
      "stateMutability": "nonpayable",
      "type": "function"
    },
    {
      "inputs": [
        {
          "internalType": "address",
          "name": "newImplementation",
          "type": "address"
        },
        {
          "internalType": "bytes",
          "name": "data",
          "type": "bytes"
        }
      ],
      "name": "upgradeToAndCall",
      "outputs": [],
      "stateMutability": "payable",
      "type": "function"
    },
    {
      "stateMutability": "payable",
      "type": "receive"
    }
  ],
  "bytecode": "0x60a06040523060601b6080523480156200001857600080fd5b506200002362000033565b6200002d62000033565b620000f5565b600054610100900460ff1615620000a05760405162461bcd60e51b815260206004820152602760248201527f496e697469616c697a61626c653a20636f6e747261637420697320696e697469604482015266616c697a696e6760c81b606482015260840160405180910390fd5b60005460ff9081161015620000f3576000805460ff191660ff9081179091556040519081527f7f26b83ff96e1f2b6a682f133852f6798a09c465da95921460cefb38474024989060200160405180910390a15b565b60805160601c6152b66200013060003960008181610f0601528181610f4901528181611a0001528181611a430152611adf01526152b66000f3fe608060405260043610620002ec5760003560e01c80638b805e961162000194578063bcfb1a4011620000ee578063df79812e11620000a1578063ed0b66bc1162000078578063ed0b66bc1462000a67578063f1fc061f1462000a8c578063f23a6e611462000ab1578063fbf6cf5d1462000ae157600080fd5b8063df79812e14620009bb578063e3c1fe9814620009e0578063eb6d00a61462000a0557600080fd5b8063bcfb1a4014620008dd578063c31176951462000902578063c69e6c401462000927578063d00e8ed0146200094c578063d3abc28b1462000971578063d80ec813146200099657600080fd5b8063a240663e1162000147578063a240663e14620007ea578063a2bf68b91462000828578063aea321c6146200084b578063b34bacdd1462000870578063b6dbbc561462000888578063bc197c8114620008ad57600080fd5b80638b805e9614620007105780638e3d5d56146200073557806392a85fde14620007585780639b1c505e146200077b578063a177db1314620007a0578063a230c52414620007c557600080fd5b8063464b415811620002465780635cb5438411620001f95780635cb54384146200064557806361c533b41462000668578063645006ca14620006815780636cb7c6f9146200069a57806385f2aef214620006cc5780638940951614620006ed57600080fd5b8063464b415814620005655780634866b9e0146200059a5780634b31c1d814620005bf5780634f1ef28614620005e457806352d1902d14620005fb57806357338b22146200062257600080fd5b80632a80cda3116200029f5780632a80cda314620004775780632f10e236146200049c578063301099a314620004d15780633659cfe614620004f65780633e0f7fde146200051b578063406cfb75146200054057600080fd5b806301ffc9a714620003475780630280179e146200038157806302d05d3f14620003a657806306fdde0314620003e2578063150b7a02146200040957806319f6ac09146200045257600080fd5b36620003425733158015906200030157503415155b156200034057604080513381523460208201527fe1fffcc4923d04b559f4d29a8bfc6cda04eb5b0d3c460751c2402c5c5cc9109c910160405180910390a15b005b600080fd5b3480156200035457600080fd5b506200036c620003663660046200426b565b62000af9565b60405190151581526020015b60405180910390f35b3480156200038e57600080fd5b5062000340620003a03660046200408f565b62000b31565b348015620003b357600080fd5b5061016254620003c9906001600160a01b031681565b6040516001600160a01b03909116815260200162000378565b348015620003ef57600080fd5b50620003fa62000c1f565b60405162000378919062004785565b3480156200041657600080fd5b50620004386200042836600462003eca565b630a85bd0160e11b949350505050565b6040516001600160e01b0319909116815260200162000378565b3480156200045f57600080fd5b50620003406200047136600462004297565b62000cb6565b3480156200048457600080fd5b50620003406200049636600462004659565b62000d86565b348015620004a957600080fd5b506200036c620004bb36600462004659565b6101706020526000908152604090205460ff1681565b348015620004de57600080fd5b5062000340620004f036600462004659565b62000e44565b3480156200050357600080fd5b50620003406200051536600462003dcf565b62000efb565b3480156200052857600080fd5b50620003406200053a3660046200440f565b62000fe7565b3480156200054d57600080fd5b506200036c6200055f36600462003dcf565b62001165565b3480156200057257600080fd5b506200036c6200058436600462003dcf565b61016f6020526000908152604090205460ff1681565b348015620005a757600080fd5b5062000340620005b9366004620044ab565b62001397565b348015620005cc57600080fd5b5062000340620005de3660046200410c565b62001796565b62000340620005f536600462003fad565b620019f5565b3480156200060857600080fd5b506200061362001ad2565b60405190815260200162000378565b3480156200062f57600080fd5b5061016554620003c9906001600160a01b031681565b3480156200065257600080fd5b5061016154620003c9906001600160a01b031681565b3480156200067557600080fd5b50620006136101685481565b3480156200068e57600080fd5b50620006136101695481565b348015620006a757600080fd5b5062000613620006b936600462003dcf565b61016e6020526000908152604090205481565b348015620006d957600080fd5b5061012d546001600160a01b0316620003c9565b348015620006fa57600080fd5b5061016654620003c9906001600160a01b031681565b3480156200071d57600080fd5b50620003406200072f36600462004659565b62001b88565b3480156200074257600080fd5b5061016354620003c9906001600160a01b031681565b3480156200076557600080fd5b5061016a54620003c9906001600160a01b031681565b3480156200078857600080fd5b50620003406200079a36600462004659565b62001c13565b348015620007ad57600080fd5b5062000340620007bf36600462003dcf565b62001e1f565b348015620007d257600080fd5b506200036c620007e436600462003dcf565b62001ec0565b348015620007f757600080fd5b506200036c6200080936600462003dcf565b6001600160a01b0316600090815261012e602052604090205460ff1690565b3480156200083557600080fd5b5061016454620003c9906001600160a01b031681565b3480156200085857600080fd5b50620003406200086a366004620040c7565b62001f44565b3480156200087d57600080fd5b50620003fa62002002565b3480156200089557600080fd5b506200036c620008a736600462003dcf565b62002012565b348015620008ba57600080fd5b5062000438620008cc36600462003e0f565b63bc197c8160e01b95945050505050565b348015620008ea57600080fd5b50620003c9620008fc36600462004659565b620020aa565b3480156200090f57600080fd5b50620003406200092136600462004060565b620020d6565b3480156200093457600080fd5b50620003c96200094636600462004361565b62002162565b3480156200095957600080fd5b50620003406200096b3660046200418d565b620021ec565b3480156200097e57600080fd5b50620003fa6200099036600462004002565b6200239f565b348015620009a357600080fd5b5062000340620009b5366004620042d0565b6200252a565b348015620009c857600080fd5b5062000340620009da366004620041cd565b62002793565b348015620009ed57600080fd5b5062000340620009ff36600462004060565b62002972565b34801562000a1257600080fd5b5062000a4962000a2436600462003dcf565b6101716020526000908152604090208054600182015460029092015490919060ff1683565b60408051938452602084019290925215159082015260600162000378565b34801562000a7457600080fd5b506200036c62000a8636600462003dcf565b62002af1565b34801562000a9957600080fd5b506200034062000aab36600462004659565b62002b26565b34801562000abe57600080fd5b506200043862000ad036600462003f3d565b63f23a6e6160e01b95945050505050565b34801562000aee57600080fd5b5061016c5462000613565b60006001600160e01b03198216630271189760e51b148062000b2b57506301ffc9a760e01b6001600160e01b03198316145b92915050565b6040518060400160405280600781526020016611d95b995c985b60ca1b81525062000b5c3362002012565b8062000b83575062000b6e8162002162565b6001600160a01b0316336001600160a01b0316145b8062000b92575061016d5460ff165b62000bba5760405162461bcd60e51b815260040162000bb1906200487b565b60405180910390fd5b62000bc784848462002c13565b604080516001600160a01b038616815260208101859052908101839052600060608201527fc7ff60e3f07d1e83c30c2fb716313eccef5470e6bdf300d865c747e76f379a83906080015b60405180910390a150505050565b610167805462000c2f9062004a39565b80601f016020809104026020016040519081016040528092919081815260200182805462000c5d9062004a39565b801562000cae5780601f1062000c825761010080835404028352916020019162000cae565b820191906000526020600020905b81548152906001019060200180831162000c9057829003601f168201915b505050505081565b6040518060400160405280600781526020016611d95b995c985b60ca1b81525062000ce13362002012565b8062000d08575062000cf38162002162565b6001600160a01b0316336001600160a01b0316145b8062000d17575061016d5460ff165b62000d365760405162461bcd60e51b815260040162000bb1906200487b565b62000d4561016b848462003a22565b507f73fe47029acc9de832b3f5412b2a47ba49a85ed9c4aa1c3ab65fcc23ec943cf8838360405162000d799291906200479a565b60405180910390a1505050565b6040518060400160405280600781526020016611d95b995c985b60ca1b81525062000db13362002012565b8062000dd8575062000dc38162002162565b6001600160a01b0316336001600160a01b0316145b8062000de7575061016d5460ff165b62000e065760405162461bcd60e51b815260040162000bb1906200487b565b6101698290556040518281527fbe19bc97d2bca5ac16c999faf6d2fbde29b13fae7020e3a390febf030f8242d7906020015b60405180910390a15050565b6040518060400160405280600781526020016611d95b995c985b60ca1b81525062000e6f3362002012565b8062000e96575062000e818162002162565b6001600160a01b0316336001600160a01b0316145b8062000ea5575061016d5460ff165b62000ec45760405162461bcd60e51b815260040162000bb1906200487b565b6101688290556040518281527fd74e243e16d9026669a4805403df1e6c18e3f0c38e89e50e8846c3f329f81e7e9060200162000e38565b306001600160a01b037f000000000000000000000000000000000000000000000000000000000000000016141562000f475760405162461bcd60e51b815260040162000bb190620048a9565b7f00000000000000000000000000000000000000000000000000000000000000006001600160a01b031662000f926000805160206200523a833981519152546001600160a01b031690565b6001600160a01b03161462000fbb5760405162461bcd60e51b815260040162000bb190620048f5565b62000fc68162002dc6565b6040805160008082526020820190925262000fe49183919062002e46565b50565b6040518060400160405280600781526020016611d95b995c985b60ca1b815250620010123362002012565b80620010395750620010248162002162565b6001600160a01b0316336001600160a01b0316145b8062001048575061016d5460ff165b620010675760405162461bcd60e51b815260040162000bb1906200487b565b60006200107d61012d546001600160a01b031690565b6001600160a01b03166253153b878787876040518563ffffffff1660e01b8152600401620010af9493929190620047f4565b602060405180830381600087803b158015620010ca57600080fd5b505af1158015620010df573d6000803e3d6000fd5b505050506040513d601f19601f8201168201806040525081019062001105919062004251565b6000818152610170602052604090819020805460ff19166001179055519091507ff94f63f5f9de5de7659ae3ccaa099cce39347833cbd85ffe78570b86f4051ab490620011559083815260200190565b60405180910390a1505050505050565b61016c54600090815b818110156200138d57600061016c828154811062001190576200119062004ad6565b60009182526020808320909101546001600160a01b0316808352610171909152604090912054909150801562001375576000620011d6836001600160a01b031662002fce565b1562001262576040516370a0823160e01b81526001600160a01b0388811660048301528416906370a08231906024015b60206040518083038186803b1580156200121f57600080fd5b505afa15801562001234573d6000803e3d6000fd5b505050506040513d601f19601f820116820180604052508101906200125a919062004251565b90506200135d565b62001276836001600160a01b03166200305e565b15620012c3576001600160a01b038381166000818152610171602052604090819020600101549051627eeac760e11b8152928a16600484015260248301529062fdd58e9060440162001206565b620012d7836001600160a01b031662003095565b156200135d576040516370a0823160e01b81526001600160a01b0388811660048301528416906370a082319060240160206040518083038186803b1580156200131f57600080fd5b505afa15801562001334573d6000803e3d6000fd5b505050506040513d601f19601f820116820180604052508101906200135a919062004251565b90505b8181101562001373575060009695505050505050565b505b50508080620013849062004a76565b9150506200116e565b5060019392505050565b600054610100900460ff1615808015620013b85750600054600160ff909116105b80620013d45750303b158015620013d4575060005460ff166001145b620014395760405162461bcd60e51b815260206004820152602e60248201527f496e697469616c697a61626c653a20636f6e747261637420697320616c72656160448201526d191e481a5b9a5d1a585b1a5e995960921b606482015260840162000bb1565b6000805460ff1916600117905580156200145d576000805461ff0019166101001790555b82516001600160a01b03161580159062001483575060208301516001600160a01b031615155b80156200149c575060408301516001600160a01b031615155b8015620014b5575060608301516001600160a01b031615155b8015620014ce575060808301516001600160a01b031615155b8015620014e7575060a08301516001600160a01b031615155b80156200150157506101008301516001600160a01b031615155b620015455760405162461bcd60e51b8152602060048201526013602482015272496e7661696c642044616f2053657474696e6760681b604482015260640162000bb1565b61016d805460ff19166001179055608083015162001563906200313a565b61016380546001600160a01b0319163317905560c0830151805162001592916101679160209091019062003ab1565b50825161016280546001600160a01b038084166001600160a01b03199283161790925560208601516101648054918416918316919091179055604086015161016580549184169183169190911790556060860151610166805491841691831691909117905561010086015161016a80549190931691161790556200161690620031ca565b620016318360a001518461012001518561014001516200322f565b62001641836101600151620033ab565b60005b82518110156200174157600080306001600160a01b031685848151811062001670576200167062004ad6565b6020026020010151604051620016879190620046ca565b6000604051808303816000865af19150503d8060008114620016c6576040519150601f19603f3d011682016040523d82523d6000602084013e620016cb565b606091505b50915091508162001707620016e08362003475565b6040805180820190915260098152681a5b9a5d0819985a5b60ba1b602082015290620034d2565b90620017285760405162461bcd60e51b815260040162000bb1919062004785565b5050508080620017389062004a76565b91505062001644565b5061016d805460ff19169055801562001791576000805461ff0019169055604051600181527f7f26b83ff96e1f2b6a682f133852f6798a09c465da95921460cefb38474024989060200162000d79565b505050565b6040518060400160405280600781526020016611d95b995c985b60ca1b815250620017c13362002012565b80620017e85750620017d38162002162565b6001600160a01b0316336001600160a01b0316145b80620017f7575061016d5460ff165b620018165760405162461bcd60e51b815260040162000bb1906200487b565b848314620018675760405162461bcd60e51b815260206004820152601760248201527f706172616d73206c656e677468206e6f74206d61746368000000000000000000604482015260640162000bb1565b60005b85811015620019c3573087878381811062001889576200188962004ad6565b9050602002016020810190620018a0919062003dcf565b6001600160a01b03161415620018ec57620018e6858583818110620018c957620018c962004ad6565b9050602002016020810190620018e0919062003dcf565b62003500565b620019ae565b86868281811062001901576200190162004ad6565b905060200201602081019062001918919062003dcf565b6001600160a01b0316633659cfe68686848181106200193b576200193b62004ad6565b905060200201602081019062001952919062003dcf565b6040516001600160e01b031960e084901b1681526001600160a01b039091166004820152602401600060405180830381600087803b1580156200199457600080fd5b505af1158015620019a9573d6000803e3d6000fd5b505050505b80620019ba8162004a76565b9150506200186a565b507fae65f73ea44fb5b0663fb704952c68701722f2eff0f95e69900bd903f9770f388260405162001155919062004785565b306001600160a01b037f000000000000000000000000000000000000000000000000000000000000000016141562001a415760405162461bcd60e51b815260040162000bb190620048a9565b7f00000000000000000000000000000000000000000000000000000000000000006001600160a01b031662001a8c6000805160206200523a833981519152546001600160a01b031690565b6001600160a01b03161462001ab55760405162461bcd60e51b815260040162000bb190620048f5565b62001ac08262002dc6565b62001ace8282600162002e46565b5050565b6000306001600160a01b037f0000000000000000000000000000000000000000000000000000000000000000161462001b745760405162461bcd60e51b815260206004820152603860248201527f555550535570677261646561626c653a206d757374206e6f742062652063616c60448201527f6c6564207468726f7567682064656c656761746563616c6c0000000000000000606482015260840162000bb1565b506000805160206200523a83398151915290565b6040518060400160405280600781526020016611d95b995c985b60ca1b81525062001bb33362002012565b8062001bda575062001bc58162002162565b6001600160a01b0316336001600160a01b0316145b8062001be9575061016d5460ff165b62001c085760405162461bcd60e51b815260040162000bb1906200487b565b62001ace8262003542565b6040518060400160405280600781526020016611d95b995c985b60ca1b81525062001c3e3362002012565b8062001c65575062001c508162002162565b6001600160a01b0316336001600160a01b0316145b8062001c74575061016d5460ff165b62001c935760405162461bcd60e51b815260040162000bb1906200487b565b61016c54821062001cd85760405162461bcd60e51b815260206004820152600e60248201526d696e646578206f766572666c6f7760901b604482015260640162000bb1565b600061016c838154811062001cf15762001cf162004ad6565b60009182526020808320909101546001600160a01b031680835261017190915260408220600201805460ff1916905561016c80549193509062001d3790600190620049f0565b8154811062001d4a5762001d4a62004ad6565b60009182526020909120015461016c80546001600160a01b03909216925082918690811062001d7d5762001d7d62004ad6565b9060005260206000200160006101000a8154816001600160a01b0302191690836001600160a01b0316021790555061016c80548062001dc05762001dc062004ac0565b6000828152602090819020600019908301810180546001600160a01b03191690559091019091556040516001600160a01b03841681527f1b2ddeaa10e8a80ec9f117d308c60a01824809ed74e531d768c0b1b7542606b9910162000c11565b610165546001600160a01b0316331462001e665760405162461bcd60e51b815260206004820152600760248201526606f6e6c79204c560cc1b604482015260640162000bb1565b6001600160a01b038116600081815261016e602090815260409182902042908190558251938452908301527f7ac58570d3e556be8ffd5d5bda8bc949958077c3aa21c4b5fa11b63ed12dafa791015b60405180910390a150565b6101645460405163288c314960e21b81526001600160a01b038381166004830152600092169063a230c524906024015b60206040518083038186803b15801562001f0957600080fd5b505afa15801562001f1e573d6000803e3d6000fd5b505050506040513d601f19601f8201168201806040525081019062000b2b91906200422d565b6040518060400160405280600781526020016611d95b995c985b60ca1b81525062001f6f3362002012565b8062001f96575062001f818162002162565b6001600160a01b0316336001600160a01b0316145b8062001fa5575061016d5460ff165b62001fc45760405162461bcd60e51b815260040162000bb1906200487b565b62001791838380806020026020016040519081016040528093929190818152602001838360200280828437600092019190915250620033ab92505050565b61016b805462000c2f9062004a39565b61016454604080516318160ddd60e01b815290516000926001600160a01b0316916318160ddd916004808301926020929190829003018186803b1580156200205957600080fd5b505afa1580156200206e573d6000803e3d6000fd5b505050506040513d601f19601f8201168201806040525081019062002094919062004251565b600114801562000b2b575062000b2b8262001ec0565b61016c8181548110620020bc57600080fd5b6000918252602090912001546001600160a01b0316905081565b6040518060400160405280600781526020016611d95b995c985b60ca1b815250620021013362002012565b80620021285750620021138162002162565b6001600160a01b0316336001600160a01b0316145b8062002137575061016d5460ff165b620021565760405162461bcd60e51b815260040162000bb1906200487b565b620017918383620035fe565b6101665460405163385f5d8f60e11b81526000916001600160a01b0316906370bebb1e906200219890309086906004016200471b565b60206040518083038186803b158015620021b157600080fd5b505afa158015620021c6573d6000803e3d6000fd5b505050506040513d601f19601f8201168201806040525081019062000b2b919062003def565b60005b815181101562001ace5761012e600083838151811062002213576200221362004ad6565b6020908102919091018101516001600160a01b031682528101919091526040016000205460ff16620022a55760405162461bcd60e51b815260206004820152603460248201527f427564676574417070726f76616c45786563757465653a2062756467657420616044820152731c1c1c9bdd985b081a5cc81b9bdd081d985b1a5960621b606482015260840162000bb1565b620022cc828281518110620022be57620022be62004ad6565b602002602001015162002dc6565b600061012e6000848481518110620022e857620022e862004ad6565b60200260200101516001600160a01b03166001600160a01b0316815260200190815260200160002060006101000a81548160ff0219169083151502179055507f3562b8c49e34d53119756b2b8b55a910ed22c2cda0d3b07398510d804c2dc6218282815181106200235d576200235d62004ad6565b60200260200101516040516200238291906001600160a01b0391909116815260200190565b60405180910390a180620023968162004a76565b915050620021ef565b33600090815261012e602052604090205460609060ff16620024125760405162461bcd60e51b815260206004820152602560248201527f427564676574417070726f76616c45786563757465653a206163636573732064604482015264195b9a595960da1b606482015260840162000bb1565b600080856001600160a01b03168486604051620024309190620046ca565b60006040518083038185875af1925050503d80600081146200246f576040519150601f19603f3d011682016040523d82523d6000602084013e62002474565b606091505b509150915081620024e457620024c96200248e8262003475565b60408051808201909152601d81527f52657665727465642062792065787465726e616c20636f6e7472616374000000602082015290620034d2565b60405162461bcd60e51b815260040162000bb1919062004785565b7fcf452d48646654954090c61dd69f99a99bea4e2264594078fc81bfd43d6f6a9e3386604051620025179291906200471b565b60405180910390a19150505b9392505050565b6040518060400160405280600781526020016611d95b995c985b60ca1b815250620025553362002012565b806200257c5750620025678162002162565b6001600160a01b0316336001600160a01b0316145b806200258b575061016d5460ff165b620025aa5760405162461bcd60e51b815260040162000bb1906200487b565b600080846002811115620025c257620025c262004aaa565b14156200262d57610164546001600160a01b031680620026255760405162461bcd60e51b815260206004820152601e60248201527f4d656d62657273686970206e6f742079657420696e697469616c697a65640000604482015260640162000bb1565b905062002717565b600184600281111562002644576200264462004aaa565b1415620026a757610161546001600160a01b031680620026255760405162461bcd60e51b815260206004820152601f60248201527f4d656d626572546f6b656e206e6f742079657420696e697469616c697a656400604482015260640162000bb1565b6002846002811115620026be57620026be62004aaa565b141562002717576001600160a01b038316620027145760405162461bcd60e51b8152602060048201526014602482015273159bdd19481d1bdad95b881b9bdd08195e1a5cdd60621b604482015260640162000bb1565b50815b610166546040516337b75fcd60e01b81526001600160a01b03909116906337b75fcd9062002754908c908c908c908c908c908990600401620047b0565b600060405180830381600087803b1580156200276f57600080fd5b505af115801562002784573d6000803e3d6000fd5b50505050505050505050505050565b8051825114620027db5760405162461bcd60e51b8152602060048201526012602482015271496e636f72726563742043616c6c6461746160701b604482015260640162000bb1565b60005b825181101562001791576200280f83828151811062002801576200280162004ad6565b6020026020010151620036e0565b600083828151811062002826576200282662004ad6565b602002602001015183838151811062002843576200284362004ad6565b6020026020010151604051620028599062003b2e565b620028669291906200471b565b604051809103906000f08015801562002883573d6000803e3d6000fd5b506001600160a01b038116600090815261012e60205260409020805460ff1916600117905583519091507f26c79e13dd63e8716f130c25331c09f2fdd55d6880bbfa7bcc38868207e8a670908290859085908110620028e657620028e662004ad6565b6020026020010151604051620028fe9291906200471b565b60405180910390a1806001600160a01b031663cf26fec66040518163ffffffff1660e01b8152600401600060405180830381600087803b1580156200294257600080fd5b505af115801562002957573d6000803e3d6000fd5b50505050508080620029699062004a76565b915050620027de565b610165546001600160a01b03163314620029b95760405162461bcd60e51b815260206004820152600760248201526606f6e6c79204c560cc1b604482015260640162000bb1565b6001600160a01b038216600090815261016e602052604090205462001ace57620029e38262001e1f565b6101695481101562002a385760405162461bcd60e51b815260206004820152601960248201527f6465706f73697420616d6f756e74206e6f7420656e6f75676800000000000000604482015260640162000bb1565b62002a438262001ec0565b1562002a4d575050565b62002a588262001165565b62002aa65760405162461bcd60e51b815260206004820152601a60248201527f41646d697373696f6e20746f6b656e206e6f7420656e6f756768000000000000604482015260640162000bb1565b62002ab182620031ca565b604080516001600160a01b0384168152602081018390527fbd251213ab4f4d6ca44f082b3e6aadf9c5153e7c16bac3ac4f959462d425c23c910162000e38565b61016354604051635120331f60e11b81526001600160a01b038381166004830152600092169063a240663e9060240162001ef0565b6040518060400160405280600781526020016611d95b995c985b60ca1b81525062002b513362002012565b8062002b78575062002b638162002162565b6001600160a01b0316336001600160a01b0316145b8062002b87575061016d5460ff165b62002ba65760405162461bcd60e51b815260040162000bb1906200487b565b610161546001600160a01b031662002bc18184600062002c13565b604080516001600160a01b038316815260208101859052600091810191909152600160608201527fc7ff60e3f07d1e83c30c2fb716313eccef5470e6bdf300d865c747e76f379a839060800162000d79565b6001600160a01b0383166000908152610171602052604090206002015460ff161562002c825760405162461bcd60e51b815260206004820152601760248201527f41646d697373696f6e20546f6b656e2065786973746564000000000000000000604482015260640162000bb1565b6001600160a01b0383163b62002cdb5760405162461bcd60e51b815260206004820152601c60248201527f41646d697373696f6e20546f6b656e206e6f7420537570706f72742100000000604482015260640162000bb1565b61016c8054600180820183557fe5af487827b121aa2456a019311df153887da6c98285803eea72252e4f09489b90910180546001600160a01b0319166001600160a01b03871690811790915560408051606081018252868152602080820187815282840186815260009586526101719092529290932090518155905192810192909255516002909101805460ff19169115159190911790555460031015620017915760405162461bcd60e51b815260206004820181905260248201527f41646d697373696f6e20546f6b656e206c656e67746820746f6f206c6f6e672e604482015260640162000bb1565b6040518060400160405280600781526020016611d95b995c985b60ca1b81525062002df13362002012565b8062002e18575062002e038162002162565b6001600160a01b0316336001600160a01b0316145b8062002e27575061016d5460ff165b62001ace5760405162461bcd60e51b815260040162000bb1906200487b565b7f4910fdfa16fed3260ed0e7147f7cc6da11a60208b5b9406d12a635614ffd91435460ff161562002e7c576200179183620037c7565b826001600160a01b03166352d1902d6040518163ffffffff1660e01b815260040160206040518083038186803b15801562002eb657600080fd5b505afa92505050801562002ee9575060408051601f3d908101601f1916820190925262002ee69181019062004251565b60015b62002f4e5760405162461bcd60e51b815260206004820152602e60248201527f45524331393637557067726164653a206e657720696d706c656d656e7461746960448201526d6f6e206973206e6f74205555505360901b606482015260840162000bb1565b6000805160206200523a833981519152811462002fc05760405162461bcd60e51b815260206004820152602960248201527f45524331393637557067726164653a20756e737570706f727465642070726f786044820152681a58589b195555525160ba1b606482015260840162000bb1565b506200179183838362003866565b6040516301ffc9a760e01b81526380ac58cd60e01b60048201526000906001600160a01b038316906301ffc9a7906024015b60206040518083038186803b1580156200301957600080fd5b505afa9250505080156200304c575060408051601f3d908101601f1916820190925262003049918101906200422d565b60015b62000b2b57506000919050565b919050565b6040516301ffc9a760e01b8152636cdb3d1360e11b60048201526000906001600160a01b038316906301ffc9a79060240162003000565b6000620030a28262002fce565b15620030b057506000919050565b6040516370a0823160e01b8152600060048201526001600160a01b038316906370a082319060240160206040518083038186803b158015620030f157600080fd5b505afa92505050801562003124575060408051601f3d908101601f19168201909252620031219181019062004251565b60015b6200313157506000919050565b50600192915050565b600054610100900460ff16620031a75760405162461bcd60e51b815260206004820152602b60248201527f496e697469616c697a61626c653a20636f6e7472616374206973206e6f74206960448201526a6e697469616c697a696e6760a81b606482015260840162000bb1565b61012d80546001600160a01b0319166001600160a01b0392909216919091179055565b61016454604051632124d52960e01b81526001600160a01b03838116600483015290911690632124d52990602401600060405180830381600087803b1580156200321357600080fd5b505af115801562003228573d6000803e3d6000fd5b5050505050565b610161546001600160a01b0316156200328b5760405162461bcd60e51b815260206004820181905260248201527f4d656d62657220746f6b656e20616c726561647920696e697469616c697a6564604482015260640162000bb1565b6000836040516200329c9062003b2e565b6001600160a01b039091168152604060208201819052600090820152606001604051809103906000f080158015620032d8573d6000803e3d6000fd5b5061016180546001600160a01b0319166001600160a01b038316908117909155604051639065714760e01b81529192508291639065714790620033249030908890889060040162004741565b600060405180830381600087803b1580156200333f57600080fd5b505af115801562003354573d6000803e3d6000fd5b50505050620033638162003891565b604080513381526001600160a01b03831660208201527f51872b89ca0a4559a29252fabe8e58a51d77923ec1fdb596822e56c918df96eb910160405180910390a15050505050565b60005b815181101562001ace5760006001600160a01b0316828281518110620033d857620033d862004ad6565b60200260200101516001600160a01b03161415620034395760405162461bcd60e51b815260206004820152601960248201527f4e6f7420537570706f7274656420455243323020546f6b656e00000000000000604482015260640162000bb1565b6200346082828151811062003452576200345262004ad6565b602002602001015162003891565b806200346c8162004a76565b915050620033ae565b60606044825110156200349657505060408051602081019091526000815290565b60048201915062000b2b82806020019051810190620034b6919062004399565b60408051808201909152600381526201016960ed1b6020820152905b60608282604051602001620034e9929190620046e8565b604051602081830303815290604052905092915050565b6200350b81620037c7565b6040516001600160a01b038216907fbc7cd75a20ee27fd9adebab32041f755214dbc6bffa90cc0225b39da2e5c2d3b90600090a250565b610161546001600160a01b031680620035985760405162461bcd60e51b815260206004820152601760248201527626b2b6b132b9102a37b5b2b7103737ba1022bc34b9ba1760491b604482015260640162000bb1565b6040516340c10f1960e01b8152306004820152602481018390526001600160a01b038216906340c10f1990604401600060405180830381600087803b158015620035e157600080fd5b505af1158015620035f6573d6000803e3d6000fd5b505050505050565b610161546001600160a01b031680620036545760405162461bcd60e51b815260206004820152601760248201527626b2b6b132b9102a37b5b2b7103737ba1022bc34b9ba1760491b604482015260640162000bb1565b60405163a9059cbb60e01b81526001600160a01b0384811660048301526024820184905282169063a9059cbb90604401602060405180830381600087803b1580156200369f57600080fd5b505af1158015620036b4573d6000803e3d6000fd5b505050506040513d601f19601f82011682018060405250810190620036da91906200422d565b50505050565b6040518060400160405280600781526020016611d95b995c985b60ca1b8152506200370b3362002012565b806200373257506200371d8162002162565b6001600160a01b0316336001600160a01b0316145b8062003741575061016d5460ff165b620037605760405162461bcd60e51b815260040162000bb1906200487b565b6200376b8262002af1565b62001ace5760405162461bcd60e51b815260206004820152602560248201527f42756467657420496d706c656d656e746174696f6e206e6f742077686974656c6044820152641a5cdd195960da1b606482015260840162000bb1565b6001600160a01b0381163b620038365760405162461bcd60e51b815260206004820152602d60248201527f455243313936373a206e657720696d706c656d656e746174696f6e206973206e60448201526c1bdd08184818dbdb9d1c9858dd609a1b606482015260840162000bb1565b6000805160206200523a83398151915280546001600160a01b0319166001600160a01b0392909216919091179055565b620038718362003500565b6000825111806200387f5750805b156200179157620036da8383620038e7565b6001600160a01b038116600081815261016f6020908152604091829020805460ff1916600117905590519182527f808665eda000f8d729f31a384bae411282aa3be62cb73ed74e2225e2eef7125d910162001eb5565b60606001600160a01b0383163b620039515760405162461bcd60e51b815260206004820152602660248201527f416464726573733a2064656c65676174652063616c6c20746f206e6f6e2d636f6044820152651b9d1c9858dd60d21b606482015260840162000bb1565b600080846001600160a01b0316846040516200396e9190620046ca565b600060405180830381855af49150503d8060008114620039ab576040519150601f19603f3d011682016040523d82523d6000602084013e620039b0565b606091505b5091509150620039db82826040518060600160405280602781526020016200525a60279139620039e4565b95945050505050565b60608315620039f557508162002523565b82511562003a065782518084602001fd5b8160405162461bcd60e51b815260040162000bb1919062004785565b82805462003a309062004a39565b90600052602060002090601f01602090048101928262003a54576000855562003a9f565b82601f1062003a6f5782800160ff1982351617855562003a9f565b8280016001018555821562003a9f579182015b8281111562003a9f57823582559160200191906001019062003a82565b5062003aad92915062003b3c565b5090565b82805462003abf9062004a39565b90600052602060002090601f01602090048101928262003ae3576000855562003a9f565b82601f1062003afe57805160ff191683800117855562003a9f565b8280016001018555821562003a9f579182015b8281111562003a9f57825182559160200191906001019062003b11565b6107218062004b1983390190565b5b8082111562003aad576000815560010162003b3d565b8035620030598162004b02565b60008083601f84011262003b7357600080fd5b5081356001600160401b0381111562003b8b57600080fd5b6020830191508360208260051b850101111562003ba757600080fd5b9250929050565b600082601f83011262003bc057600080fd5b8135602062003bd962003bd383620049a0565b6200496d565b80838252828201915082860187848660051b890101111562003bfa57600080fd5b60005b8581101562003c2657813562003c138162004b02565b8452928401929084019060010162003bfd565b5090979650505050505050565b600082601f83011262003c4557600080fd5b8135602062003c5862003bd383620049a0565b80838252828201915082860187848660051b890101111562003c7957600080fd5b6000805b8681101562003cc05782356001600160401b0381111562003c9c578283fd5b62003cac8b88838d010162003d35565b865250938501939185019160010162003c7d565b509198975050505050505050565b600082601f83011262003ce057600080fd5b8135602062003cf362003bd383620049a0565b80838252828201915082860187848660051b890101111562003d1457600080fd5b60005b8581101562003c265781358452928401929084019060010162003d17565b600082601f83011262003d4757600080fd5b813562003d5862003bd382620049c6565b81815284602083860101111562003d6e57600080fd5b816020850160208301376000918101602001919091529392505050565b60008083601f84011262003d9e57600080fd5b5081356001600160401b0381111562003db657600080fd5b60208301915083602082850101111562003ba757600080fd5b60006020828403121562003de257600080fd5b8135620025238162004b02565b60006020828403121562003e0257600080fd5b8151620025238162004b02565b600080600080600060a0868803121562003e2857600080fd5b853562003e358162004b02565b9450602086013562003e478162004b02565b935060408601356001600160401b038082111562003e6457600080fd5b62003e7289838a0162003cce565b9450606088013591508082111562003e8957600080fd5b62003e9789838a0162003cce565b9350608088013591508082111562003eae57600080fd5b5062003ebd8882890162003d35565b9150509295509295909350565b6000806000806080858703121562003ee157600080fd5b843562003eee8162004b02565b9350602085013562003f008162004b02565b92506040850135915060608501356001600160401b0381111562003f2357600080fd5b62003f318782880162003d35565b91505092959194509250565b600080600080600060a0868803121562003f5657600080fd5b853562003f638162004b02565b9450602086013562003f758162004b02565b9350604086013592506060860135915060808601356001600160401b0381111562003f9f57600080fd5b62003ebd8882890162003d35565b6000806040838503121562003fc157600080fd5b823562003fce8162004b02565b915060208301356001600160401b0381111562003fea57600080fd5b62003ff88582860162003d35565b9150509250929050565b6000806000606084860312156200401857600080fd5b8335620040258162004b02565b925060208401356001600160401b038111156200404157600080fd5b6200404f8682870162003d35565b925050604084013590509250925092565b600080604083850312156200407457600080fd5b8235620040818162004b02565b946020939093013593505050565b600080600060608486031215620040a557600080fd5b8335620040b28162004b02565b95602085013595506040909401359392505050565b60008060208385031215620040db57600080fd5b82356001600160401b03811115620040f257600080fd5b620041008582860162003b60565b90969095509350505050565b6000806000806000606086880312156200412557600080fd5b85356001600160401b03808211156200413d57600080fd5b6200414b89838a0162003b60565b909750955060208801359150808211156200416557600080fd5b6200417389838a0162003b60565b9095509350604088013591508082111562003eae57600080fd5b600060208284031215620041a057600080fd5b81356001600160401b03811115620041b757600080fd5b620041c58482850162003bae565b949350505050565b60008060408385031215620041e157600080fd5b82356001600160401b0380821115620041f957600080fd5b620042078683870162003bae565b935060208501359150808211156200421e57600080fd5b5062003ff88582860162003c33565b6000602082840312156200424057600080fd5b815180151581146200252357600080fd5b6000602082840312156200426457600080fd5b5051919050565b6000602082840312156200427e57600080fd5b81356001600160e01b0319811681146200252357600080fd5b60008060208385031215620042ab57600080fd5b82356001600160401b03811115620042c257600080fd5b620041008582860162003d8b565b600080600080600080600060c0888a031215620042ec57600080fd5b87356001600160401b038111156200430357600080fd5b620043118a828b0162003d8b565b9098509650506020880135945060408801359350606088013592506080880135600381106200433f57600080fd5b915060a0880135620043518162004b02565b8091505092959891949750929550565b6000602082840312156200437457600080fd5b81356001600160401b038111156200438b57600080fd5b620041c58482850162003d35565b600060208284031215620043ac57600080fd5b81516001600160401b03811115620043c357600080fd5b8201601f81018413620043d557600080fd5b8051620043e662003bd382620049c6565b818152856020838501011115620043fc57600080fd5b620039db82602083016020860162004a0a565b600080600080608085870312156200442657600080fd5b84356001600160401b03808211156200443e57600080fd5b6200444c8883890162003d35565b955060208701359150620044608262004b02565b909350604086013590808211156200447757600080fd5b620044858883890162003bae565b935060608701359150808211156200449c57600080fd5b5062003f318782880162003d35565b60008060408385031215620044bf57600080fd5b82356001600160401b0380821115620044d757600080fd5b908401906101808287031215620044ed57600080fd5b620044f762004941565b620045028362003b53565b8152620045126020840162003b53565b6020820152620045256040840162003b53565b6040820152620045386060840162003b53565b60608201526200454b6080840162003b53565b60808201526200455e60a0840162003b53565b60a082015260c0830135828111156200457657600080fd5b620045848882860162003d35565b60c08301525060e0830135828111156200459d57600080fd5b620045ab8882860162003d35565b60e083015250610100620045c181850162003b53565b908201526101208381013583811115620045da57600080fd5b620045e88982870162003d35565b82840152505061014080840135838111156200460357600080fd5b620046118982870162003d35565b82840152505061016080840135838111156200462c57600080fd5b6200463a8982870162003bae565b8284015250508094505060208501359150808211156200421e57600080fd5b6000602082840312156200466c57600080fd5b5035919050565b600081518084526200468d81602086016020860162004a0a565b601f01601f19169290920160200192915050565b81835281816020850137506000828201602090810191909152601f909101601f19169091010190565b60008251620046de81846020870162004a0a565b9190910192915050565b60008351620046fc81846020880162004a0a565b8351908301906200471281836020880162004a0a565b01949350505050565b6001600160a01b0383168152604060208201819052600090620041c59083018462004673565b6001600160a01b0384168152606060208201819052600090620047679083018562004673565b82810360408401526200477b818562004673565b9695505050505050565b60208152600062002523602083018462004673565b602081526000620041c5602083018486620046a1565b60a081526000620047c660a08301888a620046a1565b602083019690965250604081019390935260608301919091526001600160a01b031660809091015292915050565b60808152600062004809608083018762004673565b6001600160a01b03868116602085810191909152848303604086015286518084528782019391929183019060005b818110156200485757855184168352948401949184019160010162004837565b505085810360608701526200486d818862004673565b9a9950505050505050505050565b6020808252601490820152731058dd1a5bdb881b9bdd081c195c9b5a5d1d195960621b604082015260600190565b6020808252602c908201527f46756e6374696f6e206d7573742062652063616c6c6564207468726f7567682060408201526b19195b1959d85d1958d85b1b60a21b606082015260800190565b6020808252602c908201527f46756e6374696f6e206d7573742062652063616c6c6564207468726f7567682060408201526b6163746976652070726f787960a01b606082015260800190565b60405161018081016001600160401b038111828210171562004967576200496762004aec565b60405290565b604051601f8201601f191681016001600160401b038111828210171562004998576200499862004aec565b604052919050565b60006001600160401b03821115620049bc57620049bc62004aec565b5060051b60200190565b60006001600160401b03821115620049e257620049e262004aec565b50601f01601f191660200190565b60008282101562004a055762004a0562004a94565b500390565b60005b8381101562004a2757818101518382015260200162004a0d565b83811115620036da5750506000910152565b600181811c9082168062004a4e57607f821691505b6020821081141562004a7057634e487b7160e01b600052602260045260246000fd5b50919050565b600060001982141562004a8d5762004a8d62004a94565b5060010190565b634e487b7160e01b600052601160045260246000fd5b634e487b7160e01b600052602160045260246000fd5b634e487b7160e01b600052603160045260246000fd5b634e487b7160e01b600052603260045260246000fd5b634e487b7160e01b600052604160045260246000fd5b6001600160a01b038116811462000fe457600080fdfe6080604052604051610721380380610721833981016040819052610022916102d2565b61002e82826000610035565b5050610431565b61003e8361006b565b60008251118061004b5750805b156100665761006483836100ab60201b6100291760201c565b505b505050565b610074816100d7565b6040516001600160a01b038216907fbc7cd75a20ee27fd9adebab32041f755214dbc6bffa90cc0225b39da2e5c2d3b90600090a250565b60606100d083836040518060600160405280602781526020016106fa602791396101a9565b9392505050565b6100ea8161028760201b6100551760201c565b6101515760405162461bcd60e51b815260206004820152602d60248201527f455243313936373a206e657720696d706c656d656e746174696f6e206973206e60448201526c1bdd08184818dbdb9d1c9858dd609a1b60648201526084015b60405180910390fd5b806101887f360894a13ba1a3210667c828492db98dca3e2076cc3735a920a3ca505d382bbc60001b61029660201b6100641760201c565b80546001600160a01b0319166001600160a01b039290921691909117905550565b60606001600160a01b0384163b6102115760405162461bcd60e51b815260206004820152602660248201527f416464726573733a2064656c65676174652063616c6c20746f206e6f6e2d636f6044820152651b9d1c9858dd60d21b6064820152608401610148565b600080856001600160a01b03168560405161022c91906103a0565b600060405180830381855af49150503d8060008114610267576040519150601f19603f3d011682016040523d82523d6000602084013e61026c565b606091505b50909250905061027d828286610299565b9695505050505050565b6001600160a01b03163b151590565b90565b606083156102a85750816100d0565b8251156102b85782518084602001fd5b8160405162461bcd60e51b815260040161014891906103bc565b600080604083850312156102e557600080fd5b82516001600160a01b03811681146102fc57600080fd5b60208401519092506001600160401b038082111561031957600080fd5b818501915085601f83011261032d57600080fd5b81518181111561033f5761033f61041b565b604051601f8201601f19908116603f011681019083821181831017156103675761036761041b565b8160405282815288602084870101111561038057600080fd5b6103918360208301602088016103ef565b80955050505050509250929050565b600082516103b28184602087016103ef565b9190910192915050565b60208152600082518060208401526103db8160408501602087016103ef565b601f01601f19169190910160400192915050565b60005b8381101561040a5781810151838201526020016103f2565b838111156100645750506000910152565b634e487b7160e01b600052604160045260246000fd5b6102ba806104406000396000f3fe60806040523661001357610011610017565b005b6100115b610027610022610067565b61009f565b565b606061004e838360405180606001604052806027815260200161025e602791396100c3565b9392505050565b6001600160a01b03163b151590565b90565b600061009a7f360894a13ba1a3210667c828492db98dca3e2076cc3735a920a3ca505d382bbc546001600160a01b031690565b905090565b3660008037600080366000845af43d6000803e8080156100be573d6000f35b3d6000fd5b60606001600160a01b0384163b6101305760405162461bcd60e51b815260206004820152602660248201527f416464726573733a2064656c65676174652063616c6c20746f206e6f6e2d636f6044820152651b9d1c9858dd60d21b60648201526084015b60405180910390fd5b600080856001600160a01b03168560405161014b91906101de565b600060405180830381855af49150503d8060008114610186576040519150601f19603f3d011682016040523d82523d6000602084013e61018b565b606091505b509150915061019b8282866101a5565b9695505050505050565b606083156101b457508161004e565b8251156101c45782518084602001fd5b8160405162461bcd60e51b815260040161012791906101fa565b600082516101f081846020870161022d565b9190910192915050565b602081526000825180602084015261021981604085016020870161022d565b601f01601f19169190910160400192915050565b60005b83811015610248578181015183820152602001610230565b83811115610257576000848401525b5050505056fe416464726573733a206c6f772d6c6576656c2064656c65676174652063616c6c206661696c6564a2646970667358221220fb537d1df0a2f3ea0050d30fb82ca020f06a83116d3853b9eda518a67b0c9be764736f6c63430008070033416464726573733a206c6f772d6c6576656c2064656c65676174652063616c6c206661696c6564360894a13ba1a3210667c828492db98dca3e2076cc3735a920a3ca505d382bbc416464726573733a206c6f772d6c6576656c2064656c65676174652063616c6c206661696c6564a26469706673582212201779f0df3e8b95fc95451323264ceb85785672b99aed901e40b0b82ac424a9ee64736f6c63430008070033",
  "linkReferences": {},
  "deployedLinkReferences": {}
}