{
  "_format": "hh-sol-artifact-1",
  "contractName": "DaoV2",
  "sourceName": "contracts/v2/DaoV2.sol",
  "abi": [
    {
      "inputs": [],
      "stateMutability": "nonpayable",
      "type": "constructor"
    },
    {
      "anonymous": false,
      "inputs": [
        {
          "indexed": false,
          "internalType": "address",
          "name": "token",
          "type": "address"
        },
        {
          "indexed": false,
          "internalType": "uint256",
          "name": "minTokenToAdmit",
          "type": "uint256"
        },
        {
          "indexed": false,
          "internalType": "uint256",
          "name": "tokenId",
          "type": "uint256"
        },
        {
          "indexed": false,
          "internalType": "bool",
          "name": "isMemberToken",
          "type": "bool"
        }
      ],
      "name": "AddAdmissionToken",
      "type": "event"
    },
    {
      "anonymous": false,
      "inputs": [
        {
          "indexed": false,
          "internalType": "address",
          "name": "previousAdmin",
          "type": "address"
        },
        {
          "indexed": false,
          "internalType": "address",
          "name": "newAdmin",
          "type": "address"
        }
      ],
      "name": "AdminChanged",
      "type": "event"
    },
    {
      "anonymous": false,
      "inputs": [
        {
          "indexed": false,
          "internalType": "address",
          "name": "token",
          "type": "address"
        }
      ],
      "name": "AllowDepositToken",
      "type": "event"
    },
    {
      "anonymous": false,
      "inputs": [
        {
          "indexed": true,
          "internalType": "address",
          "name": "beacon",
          "type": "address"
        }
      ],
      "name": "BeaconUpgraded",
      "type": "event"
    },
    {
      "anonymous": false,
      "inputs": [
        {
          "indexed": false,
          "internalType": "address",
          "name": "budgetApproval",
          "type": "address"
        },
        {
          "indexed": false,
          "internalType": "bytes",
          "name": "data",
          "type": "bytes"
        }
      ],
      "name": "CreateBudgetApproval",
      "type": "event"
    },
    {
      "anonymous": false,
      "inputs": [
        {
          "indexed": false,
          "internalType": "address",
          "name": "account",
          "type": "address"
        },
        {
          "indexed": false,
          "internalType": "uint256",
          "name": "depositAmount",
          "type": "uint256"
        }
      ],
      "name": "CreateMember",
      "type": "event"
    },
    {
      "anonymous": false,
      "inputs": [
        {
          "indexed": false,
          "internalType": "address",
          "name": "creator",
          "type": "address"
        },
        {
          "indexed": false,
          "internalType": "address",
          "name": "token",
          "type": "address"
        }
      ],
      "name": "CreateMemberToken",
      "type": "event"
    },
    {
      "anonymous": false,
      "inputs": [
        {
          "indexed": false,
          "internalType": "address",
          "name": "account",
          "type": "address"
        },
        {
          "indexed": false,
          "internalType": "uint256",
          "name": "amount",
          "type": "uint256"
        }
      ],
      "name": "Deposit",
      "type": "event"
    },
    {
      "anonymous": false,
      "inputs": [
        {
          "indexed": false,
          "internalType": "address",
          "name": "budgetApproval",
          "type": "address"
        },
        {
          "indexed": false,
          "internalType": "bytes",
          "name": "data",
          "type": "bytes"
        }
      ],
      "name": "ExecuteByBudgetApproval",
      "type": "event"
    },
    {
      "anonymous": false,
      "inputs": [
        {
          "indexed": false,
          "internalType": "uint8",
          "name": "version",
          "type": "uint8"
        }
      ],
      "name": "Initialized",
      "type": "event"
    },
    {
      "anonymous": false,
      "inputs": [
        {
          "indexed": false,
          "internalType": "address",
          "name": "token",
          "type": "address"
        }
      ],
      "name": "RemoveAdmissionToken",
      "type": "event"
    },
    {
      "anonymous": false,
      "inputs": [
        {
          "indexed": false,
          "internalType": "address",
          "name": "owner",
          "type": "address"
        },
        {
          "indexed": false,
          "internalType": "uint256",
          "name": "time",
          "type": "uint256"
        }
      ],
      "name": "SetFirstDepositTime",
      "type": "event"
    },
    {
      "anonymous": false,
      "inputs": [
        {
          "indexed": false,
          "internalType": "uint256",
          "name": "locktime",
          "type": "uint256"
        }
      ],
      "name": "UpdateLocktime",
      "type": "event"
    },
    {
      "anonymous": false,
      "inputs": [
        {
          "indexed": false,
          "internalType": "string",
          "name": "logoCID",
          "type": "string"
        }
      ],
      "name": "UpdateLogoCID",
      "type": "event"
    },
    {
      "anonymous": false,
      "inputs": [
        {
          "indexed": false,
          "internalType": "uint256",
          "name": "amount",
          "type": "uint256"
        }
      ],
      "name": "UpdateMinDepositAmount",
      "type": "event"
    },
    {
      "anonymous": false,
      "inputs": [
        {
          "indexed": false,
          "internalType": "string",
          "name": "remark",
          "type": "string"
        }
      ],
      "name": "UpgradeDao",
      "type": "event"
    },
    {
      "anonymous": false,
      "inputs": [
        {
          "indexed": true,
          "internalType": "address",
          "name": "implementation",
          "type": "address"
        }
      ],
      "name": "Upgraded",
      "type": "event"
    },
    {
      "anonymous": false,
      "inputs": [
        {
          "indexed": false,
          "internalType": "uint256",
          "name": "tokenId",
          "type": "uint256"
        }
      ],
      "name": "WhitelistTeam",
      "type": "event"
    },
    {
      "inputs": [],
      "name": "adam",
      "outputs": [
        {
          "internalType": "address",
          "name": "",
          "type": "address"
        }
      ],
      "stateMutability": "view",
      "type": "function"
    },
    {
      "inputs": [
        {
          "internalType": "address",
          "name": "token",
          "type": "address"
        },
        {
          "internalType": "uint256",
          "name": "minTokenToAdmit",
          "type": "uint256"
        },
        {
          "internalType": "uint256",
          "name": "tokenId",
          "type": "uint256"
        }
      ],
      "name": "addAdmissionToken",
      "outputs": [],
      "stateMutability": "nonpayable",
      "type": "function"
    },
    {
      "inputs": [
        {
          "internalType": "address[]",
          "name": "erc20s",
          "type": "address[]"
        }
      ],
      "name": "addAssets",
      "outputs": [],
      "stateMutability": "nonpayable",
      "type": "function"
    },
    {
      "inputs": [
        {
          "internalType": "address",
          "name": "",
          "type": "address"
        }
      ],
      "name": "admissionTokenSetting",
      "outputs": [
        {
          "internalType": "uint256",
          "name": "minTokenToAdmit",
          "type": "uint256"
        },
        {
          "internalType": "uint256",
          "name": "tokenId",
          "type": "uint256"
        },
        {
          "internalType": "bool",
          "name": "active",
          "type": "bool"
        }
      ],
      "stateMutability": "view",
      "type": "function"
    },
    {
      "inputs": [
        {
          "internalType": "uint256",
          "name": "",
          "type": "uint256"
        }
      ],
      "name": "admissionTokens",
      "outputs": [
        {
          "internalType": "address",
          "name": "",
          "type": "address"
        }
      ],
      "stateMutability": "view",
      "type": "function"
    },
    {
      "inputs": [],
      "name": "admissionTokensLength",
      "outputs": [
        {
          "internalType": "uint256",
          "name": "",
          "type": "uint256"
        }
      ],
      "stateMutability": "view",
      "type": "function"
    },
    {
      "inputs": [
        {
          "internalType": "address",
          "name": "account",
          "type": "address"
        },
        {
          "internalType": "uint256",
          "name": "amount",
          "type": "uint256"
        }
      ],
      "name": "afterDeposit",
      "outputs": [],
      "stateMutability": "nonpayable",
      "type": "function"
    },
    {
      "inputs": [],
      "name": "baseCurrency",
      "outputs": [
        {
          "internalType": "address",
          "name": "",
          "type": "address"
        }
      ],
      "stateMutability": "view",
      "type": "function"
    },
    {
      "inputs": [
        {
          "internalType": "address",
          "name": "template",
          "type": "address"
        }
      ],
      "name": "budgetApprovals",
      "outputs": [
        {
          "internalType": "bool",
          "name": "",
          "type": "bool"
        }
      ],
      "stateMutability": "view",
      "type": "function"
    },
    {
      "inputs": [
        {
          "internalType": "address",
          "name": "account",
          "type": "address"
        }
      ],
      "name": "byPassGovern",
      "outputs": [
        {
          "internalType": "bool",
          "name": "",
          "type": "bool"
        }
      ],
      "stateMutability": "view",
      "type": "function"
    },
    {
      "inputs": [
        {
          "internalType": "address",
          "name": "budgetApproval",
          "type": "address"
        }
      ],
      "name": "canCreateBudgetApproval",
      "outputs": [
        {
          "internalType": "bool",
          "name": "",
          "type": "bool"
        }
      ],
      "stateMutability": "view",
      "type": "function"
    },
    {
      "inputs": [
        {
          "internalType": "address[]",
          "name": "__budgetApprovals",
          "type": "address[]"
        },
        {
          "internalType": "bytes[]",
          "name": "data",
          "type": "bytes[]"
        }
      ],
      "name": "createBudgetApprovals",
      "outputs": [],
      "stateMutability": "nonpayable",
      "type": "function"
    },
    {
      "inputs": [
        {
          "internalType": "string",
          "name": "_name",
          "type": "string"
        },
        {
          "internalType": "uint256",
          "name": "duration",
          "type": "uint256"
        },
        {
          "internalType": "uint256",
          "name": "quorum",
          "type": "uint256"
        },
        {
          "internalType": "uint256",
          "name": "passThreshold",
          "type": "uint256"
        },
        {
          "internalType": "uint256",
          "name": "voteToken",
          "type": "uint256"
        }
      ],
      "name": "createGovern",
      "outputs": [],
      "stateMutability": "nonpayable",
      "type": "function"
    },
    {
      "inputs": [
        {
          "internalType": "string",
          "name": "title",
          "type": "string"
        },
        {
          "internalType": "address",
          "name": "minter",
          "type": "address"
        },
        {
          "internalType": "address[]",
          "name": "members",
          "type": "address[]"
        },
        {
          "internalType": "string",
          "name": "description",
          "type": "string"
        }
      ],
      "name": "createTeam",
      "outputs": [],
      "stateMutability": "nonpayable",
      "type": "function"
    },
    {
      "inputs": [],
      "name": "creator",
      "outputs": [
        {
          "internalType": "address",
          "name": "",
          "type": "address"
        }
      ],
      "stateMutability": "view",
      "type": "function"
    },
    {
      "inputs": [
        {
          "internalType": "address",
          "name": "_to",
          "type": "address"
        },
        {
          "internalType": "bytes",
          "name": "_data",
          "type": "bytes"
        },
        {
          "internalType": "uint256",
          "name": "_value",
          "type": "uint256"
        }
      ],
      "name": "executeByBudgetApproval",
      "outputs": [
        {
          "internalType": "bytes",
          "name": "",
          "type": "bytes"
        }
      ],
      "stateMutability": "nonpayable",
      "type": "function"
    },
    {
      "inputs": [
        {
          "internalType": "address",
          "name": "",
          "type": "address"
        }
      ],
      "name": "firstDepositTime",
      "outputs": [
        {
          "internalType": "uint256",
          "name": "",
          "type": "uint256"
        }
      ],
      "stateMutability": "view",
      "type": "function"
    },
    {
      "inputs": [
        {
          "internalType": "string",
          "name": "gName",
          "type": "string"
        }
      ],
      "name": "govern",
      "outputs": [
        {
          "internalType": "address",
          "name": "",
          "type": "address"
        }
      ],
      "stateMutability": "view",
      "type": "function"
    },
    {
      "inputs": [],
      "name": "governFactory",
      "outputs": [
        {
          "internalType": "address",
          "name": "",
          "type": "address"
        }
      ],
      "stateMutability": "view",
      "type": "function"
    },
    {
      "inputs": [
        {
          "components": [
            {
              "internalType": "address",
              "name": "_creator",
              "type": "address"
            },
            {
              "internalType": "address",
              "name": "_membership",
              "type": "address"
            },
            {
              "internalType": "address",
              "name": "_liquidPool",
              "type": "address"
            },
            {
              "internalType": "address",
              "name": "_governFactory",
              "type": "address"
            },
            {
              "internalType": "address",
              "name": "_team",
              "type": "address"
            },
            {
              "internalType": "address",
              "name": "_memberTokenImplementation",
              "type": "address"
            },
            {
              "internalType": "string",
              "name": "_name",
              "type": "string"
            },
            {
              "internalType": "string",
              "name": "_description",
              "type": "string"
            },
            {
              "internalType": "address",
              "name": "baseCurrency",
              "type": "address"
            },
            {
              "internalType": "string",
              "name": "_memberTokenName",
              "type": "string"
            },
            {
              "internalType": "string",
              "name": "_memberTokenSymbol",
              "type": "string"
            },
            {
              "internalType": "address[]",
              "name": "depositTokens",
              "type": "address[]"
            }
          ],
          "internalType": "struct DaoV2.InitializeParams",
          "name": "params",
          "type": "tuple"
        },
        {
          "internalType": "bytes[]",
          "name": "data",
          "type": "bytes[]"
        }
      ],
      "name": "initialize",
      "outputs": [],
      "stateMutability": "nonpayable",
      "type": "function"
    },
    {
      "inputs": [
        {
          "internalType": "address",
          "name": "",
          "type": "address"
        }
      ],
      "name": "isAssetSupported",
      "outputs": [
        {
          "internalType": "bool",
          "name": "",
          "type": "bool"
        }
      ],
      "stateMutability": "view",
      "type": "function"
    },
    {
      "inputs": [
        {
          "internalType": "address",
          "name": "account",
          "type": "address"
        }
      ],
      "name": "isMember",
      "outputs": [
        {
          "internalType": "bool",
          "name": "",
          "type": "bool"
        }
      ],
      "stateMutability": "view",
      "type": "function"
    },
    {
      "inputs": [
        {
          "internalType": "address",
          "name": "account",
          "type": "address"
        }
      ],
      "name": "isPassAdmissionToken",
      "outputs": [
        {
          "internalType": "bool",
          "name": "",
          "type": "bool"
        }
      ],
      "stateMutability": "view",
      "type": "function"
    },
    {
      "inputs": [],
      "name": "liquidPool",
      "outputs": [
        {
          "internalType": "address",
          "name": "",
          "type": "address"
        }
      ],
      "stateMutability": "view",
      "type": "function"
    },
    {
      "inputs": [],
      "name": "locktime",
      "outputs": [
        {
          "internalType": "uint256",
          "name": "",
          "type": "uint256"
        }
      ],
      "stateMutability": "view",
      "type": "function"
    },
    {
      "inputs": [],
      "name": "logoCID",
      "outputs": [
        {
          "internalType": "string",
          "name": "",
          "type": "string"
        }
      ],
      "stateMutability": "view",
      "type": "function"
    },
    {
      "inputs": [],
      "name": "memberToken",
      "outputs": [
        {
          "internalType": "address",
          "name": "",
          "type": "address"
        }
      ],
      "stateMutability": "view",
      "type": "function"
    },
    {
      "inputs": [],
      "name": "membership",
      "outputs": [
        {
          "internalType": "address",
          "name": "",
          "type": "address"
        }
      ],
      "stateMutability": "view",
      "type": "function"
    },
    {
      "inputs": [],
      "name": "minDepositAmount",
      "outputs": [
        {
          "internalType": "uint256",
          "name": "",
          "type": "uint256"
        }
      ],
      "stateMutability": "view",
      "type": "function"
    },
    {
      "inputs": [
        {
          "internalType": "uint256",
          "name": "amount",
          "type": "uint256"
        }
      ],
      "name": "mintMemberToken",
      "outputs": [],
      "stateMutability": "nonpayable",
      "type": "function"
    },
    {
      "inputs": [],
      "name": "name",
      "outputs": [
        {
          "internalType": "string",
          "name": "",
          "type": "string"
        }
      ],
      "stateMutability": "view",
      "type": "function"
    },
    {
      "inputs": [
        {
          "internalType": "address",
          "name": "",
          "type": "address"
        },
        {
          "internalType": "address",
          "name": "",
          "type": "address"
        },
        {
          "internalType": "uint256[]",
          "name": "",
          "type": "uint256[]"
        },
        {
          "internalType": "uint256[]",
          "name": "",
          "type": "uint256[]"
        },
        {
          "internalType": "bytes",
          "name": "",
          "type": "bytes"
        }
      ],
      "name": "onERC1155BatchReceived",
      "outputs": [
        {
          "internalType": "bytes4",
          "name": "",
          "type": "bytes4"
        }
      ],
      "stateMutability": "nonpayable",
      "type": "function"
    },
    {
      "inputs": [
        {
          "internalType": "address",
          "name": "",
          "type": "address"
        },
        {
          "internalType": "address",
          "name": "",
          "type": "address"
        },
        {
          "internalType": "uint256",
          "name": "",
          "type": "uint256"
        },
        {
          "internalType": "uint256",
          "name": "",
          "type": "uint256"
        },
        {
          "internalType": "bytes",
          "name": "",
          "type": "bytes"
        }
      ],
      "name": "onERC1155Received",
      "outputs": [
        {
          "internalType": "bytes4",
          "name": "",
          "type": "bytes4"
        }
      ],
      "stateMutability": "nonpayable",
      "type": "function"
    },
    {
      "inputs": [
        {
          "internalType": "address",
          "name": "",
          "type": "address"
        },
        {
          "internalType": "address",
          "name": "",
          "type": "address"
        },
        {
          "internalType": "uint256",
          "name": "",
          "type": "uint256"
        },
        {
          "internalType": "bytes",
          "name": "",
          "type": "bytes"
        }
      ],
      "name": "onERC721Received",
      "outputs": [
        {
          "internalType": "bytes4",
          "name": "",
          "type": "bytes4"
        }
      ],
      "stateMutability": "nonpayable",
      "type": "function"
    },
    {
      "inputs": [],
      "name": "proxiableUUID",
      "outputs": [
        {
          "internalType": "bytes32",
          "name": "",
          "type": "bytes32"
        }
      ],
      "stateMutability": "view",
      "type": "function"
    },
    {
      "inputs": [
        {
          "internalType": "uint256",
          "name": "index",
          "type": "uint256"
        }
      ],
      "name": "removeAdmissionToken",
      "outputs": [],
      "stateMutability": "nonpayable",
      "type": "function"
    },
    {
      "inputs": [
        {
          "internalType": "address",
          "name": "owner",
          "type": "address"
        }
      ],
      "name": "setFirstDepositTime",
      "outputs": [],
      "stateMutability": "nonpayable",
      "type": "function"
    },
    {
      "inputs": [
        {
          "internalType": "uint256",
          "name": "_locktime",
          "type": "uint256"
        }
      ],
      "name": "setLocktime",
      "outputs": [],
      "stateMutability": "nonpayable",
      "type": "function"
    },
    {
      "inputs": [
        {
          "internalType": "string",
          "name": "_logoCID",
          "type": "string"
        }
      ],
      "name": "setLogoCID",
      "outputs": [],
      "stateMutability": "nonpayable",
      "type": "function"
    },
    {
      "inputs": [
        {
          "internalType": "uint256",
          "name": "minTokenToAdmit",
          "type": "uint256"
        }
      ],
      "name": "setMemberTokenAsAdmissionToken",
      "outputs": [],
      "stateMutability": "nonpayable",
      "type": "function"
    },
    {
      "inputs": [
        {
          "internalType": "uint256",
          "name": "_minDepositAmount",
          "type": "uint256"
        }
      ],
      "name": "setMinDepositAmount",
      "outputs": [],
      "stateMutability": "nonpayable",
      "type": "function"
    },
    {
      "inputs": [
        {
          "internalType": "bytes4",
          "name": "interfaceId",
          "type": "bytes4"
        }
      ],
      "name": "supportsInterface",
      "outputs": [
        {
          "internalType": "bool",
          "name": "",
          "type": "bool"
        }
      ],
      "stateMutability": "view",
      "type": "function"
    },
    {
      "inputs": [],
      "name": "team",
      "outputs": [
        {
          "internalType": "address",
          "name": "",
          "type": "address"
        }
      ],
      "stateMutability": "view",
      "type": "function"
    },
    {
      "inputs": [
        {
          "internalType": "uint256",
          "name": "",
          "type": "uint256"
        }
      ],
      "name": "teamWhitelist",
      "outputs": [
        {
          "internalType": "bool",
          "name": "",
          "type": "bool"
        }
      ],
      "stateMutability": "view",
      "type": "function"
    },
    {
      "inputs": [
        {
          "internalType": "address",
          "name": "to",
          "type": "address"
        },
        {
          "internalType": "uint256",
          "name": "amount",
          "type": "uint256"
        }
      ],
      "name": "transferMemberToken",
      "outputs": [],
      "stateMutability": "nonpayable",
      "type": "function"
    },
    {
      "inputs": [
        {
          "internalType": "address[]",
          "name": "targets",
          "type": "address[]"
        },
        {
          "internalType": "address[]",
          "name": "newImplementations",
          "type": "address[]"
        },
        {
          "internalType": "string",
          "name": "remark",
          "type": "string"
        }
      ],
      "name": "upgradeImplementations",
      "outputs": [],
      "stateMutability": "nonpayable",
      "type": "function"
    },
    {
      "inputs": [
        {
          "internalType": "address",
          "name": "newImplementation",
          "type": "address"
        }
      ],
      "name": "upgradeTo",
      "outputs": [],
      "stateMutability": "nonpayable",
      "type": "function"
    },
    {
      "inputs": [
        {
          "internalType": "address",
          "name": "newImplementation",
          "type": "address"
        },
        {
          "internalType": "bytes",
          "name": "data",
          "type": "bytes"
        }
      ],
      "name": "upgradeToAndCall",
      "outputs": [],
      "stateMutability": "payable",
      "type": "function"
    },
    {
      "stateMutability": "payable",
      "type": "receive"
    }
  ],
  "bytecode": "0x60a06040523060601b6080523480156200001857600080fd5b506200002362000033565b6200002d62000033565b620000f5565b600054610100900460ff1615620000a05760405162461bcd60e51b815260206004820152602760248201527f496e697469616c697a61626c653a20636f6e747261637420697320696e697469604482015266616c697a696e6760c81b606482015260840160405180910390fd5b60005460ff9081161015620000f3576000805460ff191660ff9081179091556040519081527f7f26b83ff96e1f2b6a682f133852f6798a09c465da95921460cefb38474024989060200160405180910390a15b565b60805160601c6150706200013060003960008181610ec401528181610f07015281816119be01528181611a010152611a9d01526150706000f3fe608060405260043610620002cf5760003560e01c80638b805e961162000177578063bcfb1a4011620000d1578063e3c1fe981162000084578063e3c1fe98146200099e578063eb6d00a614620009c3578063ed0b66bc1462000a25578063f1fc061f1462000a4a578063f23a6e611462000a6f578063fbf6cf5d1462000a9f57600080fd5b8063bcfb1a4014620008c0578063c311769514620008e5578063c69e6c40146200090a578063d0b8f4e4146200092f578063d3abc28b1462000954578063df79812e146200097957600080fd5b8063a240663e116200012a578063a240663e14620007cd578063a2bf68b9146200080b578063aea321c6146200082e578063b34bacdd1462000853578063b6dbbc56146200086b578063bc197c81146200089057600080fd5b80638b805e9614620006f35780638e3d5d56146200071857806392a85fde146200073b5780639b1c505e146200075e578063a177db131462000783578063a230c52414620007a857600080fd5b8063464b415811620002295780635cb5438411620001dc5780635cb54384146200062857806361c533b4146200064b578063645006ca14620006645780636cb7c6f9146200067d57806385f2aef214620006af5780638940951614620006d057600080fd5b8063464b415814620005485780634866b9e0146200057d5780634b31c1d814620005a25780634f1ef28614620005c757806352d1902d14620005de57806357338b22146200060557600080fd5b80632a80cda311620002825780632a80cda3146200045a5780632f10e236146200047f578063301099a314620004b45780633659cfe614620004d95780633e0f7fde14620004fe578063406cfb75146200052357600080fd5b806301ffc9a7146200032a5780630280179e146200036457806302d05d3f146200038957806306fdde0314620003c5578063150b7a0214620003ec57806319f6ac09146200043557600080fd5b3662000325573315801590620002e457503415155b156200032357604080513381523460208201527fe1fffcc4923d04b559f4d29a8bfc6cda04eb5b0d3c460751c2402c5c5cc9109c910160405180910390a15b005b600080fd5b3480156200033757600080fd5b506200034f6200034936600462004049565b62000ab7565b60405190151581526020015b60405180910390f35b3480156200037157600080fd5b50620003236200038336600462003ead565b62000aef565b3480156200039657600080fd5b5061016254620003ac906001600160a01b031681565b6040516001600160a01b0390911681526020016200035b565b348015620003d257600080fd5b50620003dd62000bdd565b6040516200035b91906200453f565b348015620003f957600080fd5b506200041b6200040b36600462003ce8565b630a85bd0160e11b949350505050565b6040516001600160e01b031990911681526020016200035b565b3480156200044257600080fd5b50620003236200045436600462004075565b62000c74565b3480156200046757600080fd5b50620003236200047936600462004413565b62000d44565b3480156200048c57600080fd5b506200034f6200049e36600462004413565b6101706020526000908152604090205460ff1681565b348015620004c157600080fd5b5062000323620004d336600462004413565b62000e02565b348015620004e657600080fd5b5062000323620004f836600462003bed565b62000eb9565b3480156200050b57600080fd5b50620003236200051d366004620041c9565b62000fa5565b3480156200053057600080fd5b506200034f6200054236600462003bed565b62001123565b3480156200055557600080fd5b506200034f6200056736600462003bed565b61016f6020526000908152604090205460ff1681565b3480156200058a57600080fd5b50620003236200059c36600462004265565b62001355565b348015620005af57600080fd5b5062000323620005c136600462003f2a565b62001754565b62000323620005d836600462003dcb565b620019b3565b348015620005eb57600080fd5b50620005f662001a90565b6040519081526020016200035b565b3480156200061257600080fd5b5061016554620003ac906001600160a01b031681565b3480156200063557600080fd5b5061016154620003ac906001600160a01b031681565b3480156200065857600080fd5b50620005f66101685481565b3480156200067157600080fd5b50620005f66101695481565b3480156200068a57600080fd5b50620005f66200069c36600462003bed565b61016e6020526000908152604090205481565b348015620006bc57600080fd5b5061012d546001600160a01b0316620003ac565b348015620006dd57600080fd5b5061016654620003ac906001600160a01b031681565b3480156200070057600080fd5b50620003236200071236600462004413565b62001b46565b3480156200072557600080fd5b5061016354620003ac906001600160a01b031681565b3480156200074857600080fd5b5061016a54620003ac906001600160a01b031681565b3480156200076b57600080fd5b50620003236200077d36600462004413565b62001bd1565b3480156200079057600080fd5b5062000323620007a236600462003bed565b62001ddd565b348015620007b557600080fd5b506200034f620007c736600462003bed565b62001e7e565b348015620007da57600080fd5b506200034f620007ec36600462003bed565b6001600160a01b0316600090815261012e602052604090205460ff1690565b3480156200081857600080fd5b5061016454620003ac906001600160a01b031681565b3480156200083b57600080fd5b50620003236200084d36600462003ee5565b62001f02565b3480156200086057600080fd5b50620003dd62001fc0565b3480156200087857600080fd5b506200034f6200088a36600462003bed565b62001fd0565b3480156200089d57600080fd5b506200041b620008af36600462003c2d565b63bc197c8160e01b95945050505050565b348015620008cd57600080fd5b50620003ac620008df36600462004413565b62002068565b348015620008f257600080fd5b50620003236200090436600462003e7e565b62002094565b3480156200091757600080fd5b50620003ac6200092936600462004113565b62002120565b3480156200093c57600080fd5b50620003236200094e366004620040ae565b620021aa565b3480156200096157600080fd5b50620003dd6200097336600462003e20565b620022c7565b3480156200098657600080fd5b50620003236200099836600462003fab565b62002452565b348015620009ab57600080fd5b5062000323620009bd36600462003e7e565b62002631565b348015620009d057600080fd5b5062000a07620009e236600462003bed565b6101716020526000908152604090208054600182015460029092015490919060ff1683565b6040805193845260208401929092521515908201526060016200035b565b34801562000a3257600080fd5b506200034f62000a4436600462003bed565b620027b0565b34801562000a5757600080fd5b506200032362000a6936600462004413565b620027e5565b34801562000a7c57600080fd5b506200041b62000a8e36600462003d5b565b63f23a6e6160e01b95945050505050565b34801562000aac57600080fd5b5061016c54620005f6565b60006001600160e01b03198216630271189760e51b148062000ae957506301ffc9a760e01b6001600160e01b03198316145b92915050565b6040518060400160405280600781526020016611d95b995c985b60ca1b81525062000b1a3362001fd0565b8062000b41575062000b2c8162002120565b6001600160a01b0316336001600160a01b0316145b8062000b50575061016d5460ff165b62000b785760405162461bcd60e51b815260040162000b6f9062004635565b60405180910390fd5b62000b85848484620028d2565b604080516001600160a01b038616815260208101859052908101839052600060608201527fc7ff60e3f07d1e83c30c2fb716313eccef5470e6bdf300d865c747e76f379a83906080015b60405180910390a150505050565b610167805462000bed90620047f3565b80601f016020809104026020016040519081016040528092919081815260200182805462000c1b90620047f3565b801562000c6c5780601f1062000c405761010080835404028352916020019162000c6c565b820191906000526020600020905b81548152906001019060200180831162000c4e57829003601f168201915b505050505081565b6040518060400160405280600781526020016611d95b995c985b60ca1b81525062000c9f3362001fd0565b8062000cc6575062000cb18162002120565b6001600160a01b0316336001600160a01b0316145b8062000cd5575061016d5460ff165b62000cf45760405162461bcd60e51b815260040162000b6f9062004635565b62000d0361016b848462003840565b507f73fe47029acc9de832b3f5412b2a47ba49a85ed9c4aa1c3ab65fcc23ec943cf8838360405162000d3792919062004554565b60405180910390a1505050565b6040518060400160405280600781526020016611d95b995c985b60ca1b81525062000d6f3362001fd0565b8062000d96575062000d818162002120565b6001600160a01b0316336001600160a01b0316145b8062000da5575061016d5460ff165b62000dc45760405162461bcd60e51b815260040162000b6f9062004635565b6101698290556040518281527fbe19bc97d2bca5ac16c999faf6d2fbde29b13fae7020e3a390febf030f8242d7906020015b60405180910390a15050565b6040518060400160405280600781526020016611d95b995c985b60ca1b81525062000e2d3362001fd0565b8062000e54575062000e3f8162002120565b6001600160a01b0316336001600160a01b0316145b8062000e63575061016d5460ff165b62000e825760405162461bcd60e51b815260040162000b6f9062004635565b6101688290556040518281527fd74e243e16d9026669a4805403df1e6c18e3f0c38e89e50e8846c3f329f81e7e9060200162000df6565b306001600160a01b037f000000000000000000000000000000000000000000000000000000000000000016141562000f055760405162461bcd60e51b815260040162000b6f9062004663565b7f00000000000000000000000000000000000000000000000000000000000000006001600160a01b031662000f5060008051602062004ff4833981519152546001600160a01b031690565b6001600160a01b03161462000f795760405162461bcd60e51b815260040162000b6f90620046af565b62000f848162002a85565b6040805160008082526020820190925262000fa29183919062002b05565b50565b6040518060400160405280600781526020016611d95b995c985b60ca1b81525062000fd03362001fd0565b8062000ff7575062000fe28162002120565b6001600160a01b0316336001600160a01b0316145b8062001006575061016d5460ff165b620010255760405162461bcd60e51b815260040162000b6f9062004635565b60006200103b61012d546001600160a01b031690565b6001600160a01b03166253153b878787876040518563ffffffff1660e01b81526004016200106d9493929190620045ae565b602060405180830381600087803b1580156200108857600080fd5b505af11580156200109d573d6000803e3d6000fd5b505050506040513d601f19601f82011682018060405250810190620010c391906200402f565b6000818152610170602052604090819020805460ff19166001179055519091507ff94f63f5f9de5de7659ae3ccaa099cce39347833cbd85ffe78570b86f4051ab490620011139083815260200190565b60405180910390a1505050505050565b61016c54600090815b818110156200134b57600061016c82815481106200114e576200114e62004890565b60009182526020808320909101546001600160a01b031680835261017190915260409091205490915080156200133357600062001194836001600160a01b031662002c8d565b1562001220576040516370a0823160e01b81526001600160a01b0388811660048301528416906370a08231906024015b60206040518083038186803b158015620011dd57600080fd5b505afa158015620011f2573d6000803e3d6000fd5b505050506040513d601f19601f820116820180604052508101906200121891906200402f565b90506200131b565b62001234836001600160a01b031662002d1d565b1562001281576001600160a01b038381166000818152610171602052604090819020600101549051627eeac760e11b8152928a16600484015260248301529062fdd58e90604401620011c4565b62001295836001600160a01b031662002d54565b156200131b576040516370a0823160e01b81526001600160a01b0388811660048301528416906370a082319060240160206040518083038186803b158015620012dd57600080fd5b505afa158015620012f2573d6000803e3d6000fd5b505050506040513d601f19601f820116820180604052508101906200131891906200402f565b90505b8181101562001331575060009695505050505050565b505b50508080620013429062004830565b9150506200112c565b5060019392505050565b600054610100900460ff1615808015620013765750600054600160ff909116105b80620013925750303b15801562001392575060005460ff166001145b620013f75760405162461bcd60e51b815260206004820152602e60248201527f496e697469616c697a61626c653a20636f6e747261637420697320616c72656160448201526d191e481a5b9a5d1a585b1a5e995960921b606482015260840162000b6f565b6000805460ff1916600117905580156200141b576000805461ff0019166101001790555b82516001600160a01b03161580159062001441575060208301516001600160a01b031615155b80156200145a575060408301516001600160a01b031615155b801562001473575060608301516001600160a01b031615155b80156200148c575060808301516001600160a01b031615155b8015620014a5575060a08301516001600160a01b031615155b8015620014bf57506101008301516001600160a01b031615155b620015035760405162461bcd60e51b8152602060048201526013602482015272496e7661696c642044616f2053657474696e6760681b604482015260640162000b6f565b61016d805460ff191660011790556080830151620015219062002df9565b61016380546001600160a01b0319163317905560c08301518051620015509161016791602090910190620038cf565b50825161016280546001600160a01b038084166001600160a01b03199283161790925560208601516101648054918416918316919091179055604086015161016580549184169183169190911790556060860151610166805491841691831691909117905561010086015161016a8054919093169116179055620015d49062002e89565b620015ef8360a0015184610120015185610140015162002eee565b620015ff8361016001516200306a565b60005b8251811015620016ff57600080306001600160a01b03168584815181106200162e576200162e62004890565b602002602001015160405162001645919062004484565b6000604051808303816000865af19150503d806000811462001684576040519150601f19603f3d011682016040523d82523d6000602084013e62001689565b606091505b509150915081620016c56200169e8362003134565b6040805180820190915260098152681a5b9a5d0819985a5b60ba1b60208201529062003191565b90620016e65760405162461bcd60e51b815260040162000b6f91906200453f565b5050508080620016f69062004830565b91505062001602565b5061016d805460ff1916905580156200174f576000805461ff0019169055604051600181527f7f26b83ff96e1f2b6a682f133852f6798a09c465da95921460cefb38474024989060200162000d37565b505050565b6040518060400160405280600781526020016611d95b995c985b60ca1b8152506200177f3362001fd0565b80620017a65750620017918162002120565b6001600160a01b0316336001600160a01b0316145b80620017b5575061016d5460ff165b620017d45760405162461bcd60e51b815260040162000b6f9062004635565b848314620018255760405162461bcd60e51b815260206004820152601760248201527f706172616d73206c656e677468206e6f74206d61746368000000000000000000604482015260640162000b6f565b60005b8581101562001981573087878381811062001847576200184762004890565b90506020020160208101906200185e919062003bed565b6001600160a01b03161415620018aa57620018a485858381811062001887576200188762004890565b90506020020160208101906200189e919062003bed565b620031bf565b6200196c565b868682818110620018bf57620018bf62004890565b9050602002016020810190620018d6919062003bed565b6001600160a01b0316633659cfe6868684818110620018f957620018f962004890565b905060200201602081019062001910919062003bed565b6040516001600160e01b031960e084901b1681526001600160a01b039091166004820152602401600060405180830381600087803b1580156200195257600080fd5b505af115801562001967573d6000803e3d6000fd5b505050505b80620019788162004830565b91505062001828565b507fae65f73ea44fb5b0663fb704952c68701722f2eff0f95e69900bd903f9770f38826040516200111391906200453f565b306001600160a01b037f0000000000000000000000000000000000000000000000000000000000000000161415620019ff5760405162461bcd60e51b815260040162000b6f9062004663565b7f00000000000000000000000000000000000000000000000000000000000000006001600160a01b031662001a4a60008051602062004ff4833981519152546001600160a01b031690565b6001600160a01b03161462001a735760405162461bcd60e51b815260040162000b6f90620046af565b62001a7e8262002a85565b62001a8c8282600162002b05565b5050565b6000306001600160a01b037f0000000000000000000000000000000000000000000000000000000000000000161462001b325760405162461bcd60e51b815260206004820152603860248201527f555550535570677261646561626c653a206d757374206e6f742062652063616c60448201527f6c6564207468726f7567682064656c656761746563616c6c0000000000000000606482015260840162000b6f565b5060008051602062004ff483398151915290565b6040518060400160405280600781526020016611d95b995c985b60ca1b81525062001b713362001fd0565b8062001b98575062001b838162002120565b6001600160a01b0316336001600160a01b0316145b8062001ba7575061016d5460ff165b62001bc65760405162461bcd60e51b815260040162000b6f9062004635565b62001a8c8262003201565b6040518060400160405280600781526020016611d95b995c985b60ca1b81525062001bfc3362001fd0565b8062001c23575062001c0e8162002120565b6001600160a01b0316336001600160a01b0316145b8062001c32575061016d5460ff165b62001c515760405162461bcd60e51b815260040162000b6f9062004635565b61016c54821062001c965760405162461bcd60e51b815260206004820152600e60248201526d696e646578206f766572666c6f7760901b604482015260640162000b6f565b600061016c838154811062001caf5762001caf62004890565b60009182526020808320909101546001600160a01b031680835261017190915260408220600201805460ff1916905561016c80549193509062001cf590600190620047aa565b8154811062001d085762001d0862004890565b60009182526020909120015461016c80546001600160a01b03909216925082918690811062001d3b5762001d3b62004890565b9060005260206000200160006101000a8154816001600160a01b0302191690836001600160a01b0316021790555061016c80548062001d7e5762001d7e6200487a565b6000828152602090819020600019908301810180546001600160a01b03191690559091019091556040516001600160a01b03841681527f1b2ddeaa10e8a80ec9f117d308c60a01824809ed74e531d768c0b1b7542606b9910162000bcf565b610165546001600160a01b0316331462001e245760405162461bcd60e51b815260206004820152600760248201526606f6e6c79204c560cc1b604482015260640162000b6f565b6001600160a01b038116600081815261016e602090815260409182902042908190558251938452908301527f7ac58570d3e556be8ffd5d5bda8bc949958077c3aa21c4b5fa11b63ed12dafa791015b60405180910390a150565b6101645460405163288c314960e21b81526001600160a01b038381166004830152600092169063a230c524906024015b60206040518083038186803b15801562001ec757600080fd5b505afa15801562001edc573d6000803e3d6000fd5b505050506040513d601f19601f8201168201806040525081019062000ae991906200400b565b6040518060400160405280600781526020016611d95b995c985b60ca1b81525062001f2d3362001fd0565b8062001f54575062001f3f8162002120565b6001600160a01b0316336001600160a01b0316145b8062001f63575061016d5460ff165b62001f825760405162461bcd60e51b815260040162000b6f9062004635565b6200174f8383808060200260200160405190810160405280939291908181526020018383602002808284376000920191909152506200306a92505050565b61016b805462000bed90620047f3565b61016454604080516318160ddd60e01b815290516000926001600160a01b0316916318160ddd916004808301926020929190829003018186803b1580156200201757600080fd5b505afa1580156200202c573d6000803e3d6000fd5b505050506040513d601f19601f820116820180604052508101906200205291906200402f565b600114801562000ae9575062000ae98262001e7e565b61016c81815481106200207a57600080fd5b6000918252602090912001546001600160a01b0316905081565b6040518060400160405280600781526020016611d95b995c985b60ca1b815250620020bf3362001fd0565b80620020e65750620020d18162002120565b6001600160a01b0316336001600160a01b0316145b80620020f5575061016d5460ff165b620021145760405162461bcd60e51b815260040162000b6f9062004635565b6200174f8383620032bd565b6101665460405163385f5d8f60e11b81526000916001600160a01b0316906370bebb1e90620021569030908690600401620044d5565b60206040518083038186803b1580156200216f57600080fd5b505afa15801562002184573d6000803e3d6000fd5b505050506040513d601f19601f8201168201806040525081019062000ae9919062003c0d565b6040518060400160405280600781526020016611d95b995c985b60ca1b815250620021d53362001fd0565b80620021fc5750620021e78162002120565b6001600160a01b0316336001600160a01b0316145b806200220b575061016d5460ff165b6200222a5760405162461bcd60e51b815260040162000b6f9062004635565b60006200224b83600281111562002245576200224562004864565b6200339f565b610166546040516337b75fcd60e01b81529192506001600160a01b0316906337b75fcd9062002289908b908b908b908b908b9089906004016200456a565b600060405180830381600087803b158015620022a457600080fd5b505af1158015620022b9573d6000803e3d6000fd5b505050505050505050505050565b33600090815261012e602052604090205460609060ff166200233a5760405162461bcd60e51b815260206004820152602560248201527f427564676574417070726f76616c45786563757465653a206163636573732064604482015264195b9a595960da1b606482015260840162000b6f565b600080856001600160a01b0316848660405162002358919062004484565b60006040518083038185875af1925050503d806000811462002397576040519150601f19603f3d011682016040523d82523d6000602084013e6200239c565b606091505b5091509150816200240c57620023f1620023b68262003134565b60408051808201909152601d81527f52657665727465642062792065787465726e616c20636f6e747261637400000060208201529062003191565b60405162461bcd60e51b815260040162000b6f91906200453f565b7fcf452d48646654954090c61dd69f99a99bea4e2264594078fc81bfd43d6f6a9e33866040516200243f929190620044d5565b60405180910390a19150505b9392505050565b80518251146200249a5760405162461bcd60e51b8152602060048201526012602482015271496e636f72726563742043616c6c6461746160701b604482015260640162000b6f565b60005b82518110156200174f57620024ce838281518110620024c057620024c062004890565b6020026020010151620034fe565b6000838281518110620024e557620024e562004890565b602002602001015183838151811062002502576200250262004890565b602002602001015160405162002518906200394c565b62002525929190620044d5565b604051809103906000f08015801562002542573d6000803e3d6000fd5b506001600160a01b038116600090815261012e60205260409020805460ff1916600117905583519091507f26c79e13dd63e8716f130c25331c09f2fdd55d6880bbfa7bcc38868207e8a670908290859085908110620025a557620025a562004890565b6020026020010151604051620025bd929190620044d5565b60405180910390a1806001600160a01b031663cf26fec66040518163ffffffff1660e01b8152600401600060405180830381600087803b1580156200260157600080fd5b505af115801562002616573d6000803e3d6000fd5b50505050508080620026289062004830565b9150506200249d565b610165546001600160a01b03163314620026785760405162461bcd60e51b815260206004820152600760248201526606f6e6c79204c560cc1b604482015260640162000b6f565b6001600160a01b038216600090815261016e602052604090205462001a8c57620026a28262001ddd565b61016954811015620026f75760405162461bcd60e51b815260206004820152601960248201527f6465706f73697420616d6f756e74206e6f7420656e6f75676800000000000000604482015260640162000b6f565b620027028262001e7e565b156200270c575050565b620027178262001123565b620027655760405162461bcd60e51b815260206004820152601a60248201527f41646d697373696f6e20746f6b656e206e6f7420656e6f756768000000000000604482015260640162000b6f565b620027708262002e89565b604080516001600160a01b0384168152602081018390527fbd251213ab4f4d6ca44f082b3e6aadf9c5153e7c16bac3ac4f959462d425c23c910162000df6565b61016354604051635120331f60e11b81526001600160a01b038381166004830152600092169063a240663e9060240162001eae565b6040518060400160405280600781526020016611d95b995c985b60ca1b815250620028103362001fd0565b80620028375750620028228162002120565b6001600160a01b0316336001600160a01b0316145b8062002846575061016d5460ff165b620028655760405162461bcd60e51b815260040162000b6f9062004635565b610161546001600160a01b03166200288081846000620028d2565b604080516001600160a01b038316815260208101859052600091810191909152600160608201527fc7ff60e3f07d1e83c30c2fb716313eccef5470e6bdf300d865c747e76f379a839060800162000d37565b6001600160a01b0383166000908152610171602052604090206002015460ff1615620029415760405162461bcd60e51b815260206004820152601760248201527f41646d697373696f6e20546f6b656e2065786973746564000000000000000000604482015260640162000b6f565b6001600160a01b0383163b6200299a5760405162461bcd60e51b815260206004820152601c60248201527f41646d697373696f6e20546f6b656e206e6f7420537570706f72742100000000604482015260640162000b6f565b61016c8054600180820183557fe5af487827b121aa2456a019311df153887da6c98285803eea72252e4f09489b90910180546001600160a01b0319166001600160a01b03871690811790915560408051606081018252868152602080820187815282840186815260009586526101719092529290932090518155905192810192909255516002909101805460ff191691151591909117905554600310156200174f5760405162461bcd60e51b815260206004820181905260248201527f41646d697373696f6e20546f6b656e206c656e67746820746f6f206c6f6e672e604482015260640162000b6f565b6040518060400160405280600781526020016611d95b995c985b60ca1b81525062002ab03362001fd0565b8062002ad7575062002ac28162002120565b6001600160a01b0316336001600160a01b0316145b8062002ae6575061016d5460ff165b62001a8c5760405162461bcd60e51b815260040162000b6f9062004635565b7f4910fdfa16fed3260ed0e7147f7cc6da11a60208b5b9406d12a635614ffd91435460ff161562002b3b576200174f83620035e5565b826001600160a01b03166352d1902d6040518163ffffffff1660e01b815260040160206040518083038186803b15801562002b7557600080fd5b505afa92505050801562002ba8575060408051601f3d908101601f1916820190925262002ba5918101906200402f565b60015b62002c0d5760405162461bcd60e51b815260206004820152602e60248201527f45524331393637557067726164653a206e657720696d706c656d656e7461746960448201526d6f6e206973206e6f74205555505360901b606482015260840162000b6f565b60008051602062004ff4833981519152811462002c7f5760405162461bcd60e51b815260206004820152602960248201527f45524331393637557067726164653a20756e737570706f727465642070726f786044820152681a58589b195555525160ba1b606482015260840162000b6f565b506200174f83838362003684565b6040516301ffc9a760e01b81526380ac58cd60e01b60048201526000906001600160a01b038316906301ffc9a7906024015b60206040518083038186803b15801562002cd857600080fd5b505afa92505050801562002d0b575060408051601f3d908101601f1916820190925262002d08918101906200400b565b60015b62000ae957506000919050565b919050565b6040516301ffc9a760e01b8152636cdb3d1360e11b60048201526000906001600160a01b038316906301ffc9a79060240162002cbf565b600062002d618262002c8d565b1562002d6f57506000919050565b6040516370a0823160e01b8152600060048201526001600160a01b038316906370a082319060240160206040518083038186803b15801562002db057600080fd5b505afa92505050801562002de3575060408051601f3d908101601f1916820190925262002de0918101906200402f565b60015b62002df057506000919050565b50600192915050565b600054610100900460ff1662002e665760405162461bcd60e51b815260206004820152602b60248201527f496e697469616c697a61626c653a20636f6e7472616374206973206e6f74206960448201526a6e697469616c697a696e6760a81b606482015260840162000b6f565b61012d80546001600160a01b0319166001600160a01b0392909216919091179055565b61016454604051632124d52960e01b81526001600160a01b03838116600483015290911690632124d52990602401600060405180830381600087803b15801562002ed257600080fd5b505af115801562002ee7573d6000803e3d6000fd5b5050505050565b610161546001600160a01b03161562002f4a5760405162461bcd60e51b815260206004820181905260248201527f4d656d62657220746f6b656e20616c726561647920696e697469616c697a6564604482015260640162000b6f565b60008360405162002f5b906200394c565b6001600160a01b039091168152604060208201819052600090820152606001604051809103906000f08015801562002f97573d6000803e3d6000fd5b5061016180546001600160a01b0319166001600160a01b038316908117909155604051639065714760e01b8152919250829163906571479062002fe390309088908890600401620044fb565b600060405180830381600087803b15801562002ffe57600080fd5b505af115801562003013573d6000803e3d6000fd5b505050506200302281620036af565b604080513381526001600160a01b03831660208201527f51872b89ca0a4559a29252fabe8e58a51d77923ec1fdb596822e56c918df96eb910160405180910390a15050505050565b60005b815181101562001a8c5760006001600160a01b031682828151811062003097576200309762004890565b60200260200101516001600160a01b03161415620030f85760405162461bcd60e51b815260206004820152601960248201527f4e6f7420537570706f7274656420455243323020546f6b656e00000000000000604482015260640162000b6f565b6200311f82828151811062003111576200311162004890565b6020026020010151620036af565b806200312b8162004830565b9150506200306d565b60606044825110156200315557505060408051602081019091526000815290565b60048201915062000ae98280602001905181019062003175919062004153565b60408051808201909152600381526201016960ed1b6020820152905b60608282604051602001620031a8929190620044a2565b604051602081830303815290604052905092915050565b620031ca81620035e5565b6040516001600160a01b038216907fbc7cd75a20ee27fd9adebab32041f755214dbc6bffa90cc0225b39da2e5c2d3b90600090a250565b610161546001600160a01b031680620032575760405162461bcd60e51b815260206004820152601760248201527626b2b6b132b9102a37b5b2b7103737ba1022bc34b9ba1760491b604482015260640162000b6f565b6040516340c10f1960e01b8152306004820152602481018390526001600160a01b038216906340c10f1990604401600060405180830381600087803b158015620032a057600080fd5b505af1158015620032b5573d6000803e3d6000fd5b505050505050565b610161546001600160a01b031680620033135760405162461bcd60e51b815260206004820152601760248201527626b2b6b132b9102a37b5b2b7103737ba1022bc34b9ba1760491b604482015260640162000b6f565b60405163a9059cbb60e01b81526001600160a01b0384811660048301526024820184905282169063a9059cbb90604401602060405180830381600087803b1580156200335e57600080fd5b505af115801562003373573d6000803e3d6000fd5b505050506040513d601f19601f820116820180604052508101906200339991906200400b565b50505050565b61016454610161546000916001600160a01b039081169116836002811115620033cc57620033cc62004864565b62003430576001600160a01b038216620034295760405162461bcd60e51b815260206004820152601e60248201527f4d656d62657273686970206e6f742079657420696e697469616c697a65640000604482015260640162000b6f565b5092915050565b83600281111562003445576200344562004864565b60011415620034a6576001600160a01b0381166200244b5760405162461bcd60e51b815260206004820152601f60248201527f4d656d626572546f6b656e206e6f742079657420696e697469616c697a656400604482015260640162000b6f565b836002811115620034bb57620034bb62004864565b5060405162461bcd60e51b8152602060048201526016602482015275556e737570706f7274656420546f6b656e207479706560501b604482015260640162000b6f565b6040518060400160405280600781526020016611d95b995c985b60ca1b815250620035293362001fd0565b806200355057506200353b8162002120565b6001600160a01b0316336001600160a01b0316145b806200355f575061016d5460ff165b6200357e5760405162461bcd60e51b815260040162000b6f9062004635565b6200358982620027b0565b62001a8c5760405162461bcd60e51b815260206004820152602560248201527f42756467657420496d706c656d656e746174696f6e206e6f742077686974656c6044820152641a5cdd195960da1b606482015260840162000b6f565b6001600160a01b0381163b620036545760405162461bcd60e51b815260206004820152602d60248201527f455243313936373a206e657720696d706c656d656e746174696f6e206973206e60448201526c1bdd08184818dbdb9d1c9858dd609a1b606482015260840162000b6f565b60008051602062004ff483398151915280546001600160a01b0319166001600160a01b0392909216919091179055565b6200368f83620031bf565b6000825111806200369d5750805b156200174f5762003399838362003705565b6001600160a01b038116600081815261016f6020908152604091829020805460ff1916600117905590519182527f808665eda000f8d729f31a384bae411282aa3be62cb73ed74e2225e2eef7125d910162001e73565b60606001600160a01b0383163b6200376f5760405162461bcd60e51b815260206004820152602660248201527f416464726573733a2064656c65676174652063616c6c20746f206e6f6e2d636f6044820152651b9d1c9858dd60d21b606482015260840162000b6f565b600080846001600160a01b0316846040516200378c919062004484565b600060405180830381855af49150503d8060008114620037c9576040519150601f19603f3d011682016040523d82523d6000602084013e620037ce565b606091505b5091509150620037f98282604051806060016040528060278152602001620050146027913962003802565b95945050505050565b60608315620038135750816200244b565b825115620038245782518084602001fd5b8160405162461bcd60e51b815260040162000b6f91906200453f565b8280546200384e90620047f3565b90600052602060002090601f016020900481019282620038725760008555620038bd565b82601f106200388d5782800160ff19823516178555620038bd565b82800160010185558215620038bd579182015b82811115620038bd578235825591602001919060010190620038a0565b50620038cb9291506200395a565b5090565b828054620038dd90620047f3565b90600052602060002090601f016020900481019282620039015760008555620038bd565b82601f106200391c57805160ff1916838001178555620038bd565b82800160010185558215620038bd579182015b82811115620038bd5782518255916020019190600101906200392f565b61072180620048d383390190565b5b80821115620038cb57600081556001016200395b565b803562002d1881620048bc565b60008083601f8401126200399157600080fd5b5081356001600160401b03811115620039a957600080fd5b6020830191508360208260051b8501011115620039c557600080fd5b9250929050565b600082601f830112620039de57600080fd5b81356020620039f7620039f1836200475a565b62004727565b80838252828201915082860187848660051b890101111562003a1857600080fd5b60005b8581101562003a4457813562003a3181620048bc565b8452928401929084019060010162003a1b565b5090979650505050505050565b600082601f83011262003a6357600080fd5b8135602062003a76620039f1836200475a565b80838252828201915082860187848660051b890101111562003a9757600080fd5b6000805b8681101562003ade5782356001600160401b0381111562003aba578283fd5b62003aca8b88838d010162003b53565b865250938501939185019160010162003a9b565b509198975050505050505050565b600082601f83011262003afe57600080fd5b8135602062003b11620039f1836200475a565b80838252828201915082860187848660051b890101111562003b3257600080fd5b60005b8581101562003a445781358452928401929084019060010162003b35565b600082601f83011262003b6557600080fd5b813562003b76620039f18262004780565b81815284602083860101111562003b8c57600080fd5b816020850160208301376000918101602001919091529392505050565b60008083601f84011262003bbc57600080fd5b5081356001600160401b0381111562003bd457600080fd5b602083019150836020828501011115620039c557600080fd5b60006020828403121562003c0057600080fd5b81356200244b81620048bc565b60006020828403121562003c2057600080fd5b81516200244b81620048bc565b600080600080600060a0868803121562003c4657600080fd5b853562003c5381620048bc565b9450602086013562003c6581620048bc565b935060408601356001600160401b038082111562003c8257600080fd5b62003c9089838a0162003aec565b9450606088013591508082111562003ca757600080fd5b62003cb589838a0162003aec565b9350608088013591508082111562003ccc57600080fd5b5062003cdb8882890162003b53565b9150509295509295909350565b6000806000806080858703121562003cff57600080fd5b843562003d0c81620048bc565b9350602085013562003d1e81620048bc565b92506040850135915060608501356001600160401b0381111562003d4157600080fd5b62003d4f8782880162003b53565b91505092959194509250565b600080600080600060a0868803121562003d7457600080fd5b853562003d8181620048bc565b9450602086013562003d9381620048bc565b9350604086013592506060860135915060808601356001600160401b0381111562003dbd57600080fd5b62003cdb8882890162003b53565b6000806040838503121562003ddf57600080fd5b823562003dec81620048bc565b915060208301356001600160401b0381111562003e0857600080fd5b62003e168582860162003b53565b9150509250929050565b60008060006060848603121562003e3657600080fd5b833562003e4381620048bc565b925060208401356001600160401b0381111562003e5f57600080fd5b62003e6d8682870162003b53565b925050604084013590509250925092565b6000806040838503121562003e9257600080fd5b823562003e9f81620048bc565b946020939093013593505050565b60008060006060848603121562003ec357600080fd5b833562003ed081620048bc565b95602085013595506040909401359392505050565b6000806020838503121562003ef957600080fd5b82356001600160401b0381111562003f1057600080fd5b62003f1e858286016200397e565b90969095509350505050565b60008060008060006060868803121562003f4357600080fd5b85356001600160401b038082111562003f5b57600080fd5b62003f6989838a016200397e565b9097509550602088013591508082111562003f8357600080fd5b62003f9189838a016200397e565b9095509350604088013591508082111562003ccc57600080fd5b6000806040838503121562003fbf57600080fd5b82356001600160401b038082111562003fd757600080fd5b62003fe586838701620039cc565b9350602085013591508082111562003ffc57600080fd5b5062003e168582860162003a51565b6000602082840312156200401e57600080fd5b815180151581146200244b57600080fd5b6000602082840312156200404257600080fd5b5051919050565b6000602082840312156200405c57600080fd5b81356001600160e01b0319811681146200244b57600080fd5b600080602083850312156200408957600080fd5b82356001600160401b03811115620040a057600080fd5b62003f1e8582860162003ba9565b60008060008060008060a08789031215620040c857600080fd5b86356001600160401b03811115620040df57600080fd5b620040ed89828a0162003ba9565b909a90995060208901359860408101359850606081013597506080013595509350505050565b6000602082840312156200412657600080fd5b81356001600160401b038111156200413d57600080fd5b6200414b8482850162003b53565b949350505050565b6000602082840312156200416657600080fd5b81516001600160401b038111156200417d57600080fd5b8201601f810184136200418f57600080fd5b8051620041a0620039f18262004780565b818152856020838501011115620041b657600080fd5b620037f9826020830160208601620047c4565b60008060008060808587031215620041e057600080fd5b84356001600160401b0380821115620041f857600080fd5b620042068883890162003b53565b9550602087013591506200421a82620048bc565b909350604086013590808211156200423157600080fd5b6200423f88838901620039cc565b935060608701359150808211156200425657600080fd5b5062003d4f8782880162003b53565b600080604083850312156200427957600080fd5b82356001600160401b03808211156200429157600080fd5b908401906101808287031215620042a757600080fd5b620042b1620046fb565b620042bc8362003971565b8152620042cc6020840162003971565b6020820152620042df6040840162003971565b6040820152620042f26060840162003971565b6060820152620043056080840162003971565b60808201526200431860a0840162003971565b60a082015260c0830135828111156200433057600080fd5b6200433e8882860162003b53565b60c08301525060e0830135828111156200435757600080fd5b620043658882860162003b53565b60e0830152506101006200437b81850162003971565b9082015261012083810135838111156200439457600080fd5b620043a28982870162003b53565b8284015250506101408084013583811115620043bd57600080fd5b620043cb8982870162003b53565b8284015250506101608084013583811115620043e657600080fd5b620043f489828701620039cc565b82840152505080945050602085013591508082111562003ffc57600080fd5b6000602082840312156200442657600080fd5b5035919050565b6000815180845262004447816020860160208601620047c4565b601f01601f19169290920160200192915050565b81835281816020850137506000828201602090810191909152601f909101601f19169091010190565b6000825162004498818460208701620047c4565b9190910192915050565b60008351620044b6818460208801620047c4565b835190830190620044cc818360208801620047c4565b01949350505050565b6001600160a01b03831681526040602082018190526000906200414b908301846200442d565b6001600160a01b038416815260606020820181905260009062004521908301856200442d565b82810360408401526200453581856200442d565b9695505050505050565b6020815260006200244b60208301846200442d565b6020815260006200414b6020830184866200445b565b60a0815260006200458060a08301888a6200445b565b602083019690965250604081019390935260608301919091526001600160a01b031660809091015292915050565b608081526000620045c360808301876200442d565b6001600160a01b03868116602085810191909152848303604086015286518084528782019391929183019060005b8181101562004611578551841683529484019491840191600101620045f1565b505085810360608701526200462781886200442d565b9a9950505050505050505050565b6020808252601490820152731058dd1a5bdb881b9bdd081c195c9b5a5d1d195960621b604082015260600190565b6020808252602c908201527f46756e6374696f6e206d7573742062652063616c6c6564207468726f7567682060408201526b19195b1959d85d1958d85b1b60a21b606082015260800190565b6020808252602c908201527f46756e6374696f6e206d7573742062652063616c6c6564207468726f7567682060408201526b6163746976652070726f787960a01b606082015260800190565b60405161018081016001600160401b0381118282101715620047215762004721620048a6565b60405290565b604051601f8201601f191681016001600160401b0381118282101715620047525762004752620048a6565b604052919050565b60006001600160401b03821115620047765762004776620048a6565b5060051b60200190565b60006001600160401b038211156200479c576200479c620048a6565b50601f01601f191660200190565b600082821015620047bf57620047bf6200484e565b500390565b60005b83811015620047e1578181015183820152602001620047c7565b83811115620033995750506000910152565b600181811c908216806200480857607f821691505b602082108114156200482a57634e487b7160e01b600052602260045260246000fd5b50919050565b60006000198214156200484757620048476200484e565b5060010190565b634e487b7160e01b600052601160045260246000fd5b634e487b7160e01b600052602160045260246000fd5b634e487b7160e01b600052603160045260246000fd5b634e487b7160e01b600052603260045260246000fd5b634e487b7160e01b600052604160045260246000fd5b6001600160a01b038116811462000fa257600080fdfe6080604052604051610721380380610721833981016040819052610022916102d2565b61002e82826000610035565b5050610431565b61003e8361006b565b60008251118061004b5750805b156100665761006483836100ab60201b6100291760201c565b505b505050565b610074816100d7565b6040516001600160a01b038216907fbc7cd75a20ee27fd9adebab32041f755214dbc6bffa90cc0225b39da2e5c2d3b90600090a250565b60606100d083836040518060600160405280602781526020016106fa602791396101a9565b9392505050565b6100ea8161028760201b6100551760201c565b6101515760405162461bcd60e51b815260206004820152602d60248201527f455243313936373a206e657720696d706c656d656e746174696f6e206973206e60448201526c1bdd08184818dbdb9d1c9858dd609a1b60648201526084015b60405180910390fd5b806101887f360894a13ba1a3210667c828492db98dca3e2076cc3735a920a3ca505d382bbc60001b61029660201b6100641760201c565b80546001600160a01b0319166001600160a01b039290921691909117905550565b60606001600160a01b0384163b6102115760405162461bcd60e51b815260206004820152602660248201527f416464726573733a2064656c65676174652063616c6c20746f206e6f6e2d636f6044820152651b9d1c9858dd60d21b6064820152608401610148565b600080856001600160a01b03168560405161022c91906103a0565b600060405180830381855af49150503d8060008114610267576040519150601f19603f3d011682016040523d82523d6000602084013e61026c565b606091505b50909250905061027d828286610299565b9695505050505050565b6001600160a01b03163b151590565b90565b606083156102a85750816100d0565b8251156102b85782518084602001fd5b8160405162461bcd60e51b815260040161014891906103bc565b600080604083850312156102e557600080fd5b82516001600160a01b03811681146102fc57600080fd5b60208401519092506001600160401b038082111561031957600080fd5b818501915085601f83011261032d57600080fd5b81518181111561033f5761033f61041b565b604051601f8201601f19908116603f011681019083821181831017156103675761036761041b565b8160405282815288602084870101111561038057600080fd5b6103918360208301602088016103ef565b80955050505050509250929050565b600082516103b28184602087016103ef565b9190910192915050565b60208152600082518060208401526103db8160408501602087016103ef565b601f01601f19169190910160400192915050565b60005b8381101561040a5781810151838201526020016103f2565b838111156100645750506000910152565b634e487b7160e01b600052604160045260246000fd5b6102ba806104406000396000f3fe60806040523661001357610011610017565b005b6100115b610027610022610067565b61009f565b565b606061004e838360405180606001604052806027815260200161025e602791396100c3565b9392505050565b6001600160a01b03163b151590565b90565b600061009a7f360894a13ba1a3210667c828492db98dca3e2076cc3735a920a3ca505d382bbc546001600160a01b031690565b905090565b3660008037600080366000845af43d6000803e8080156100be573d6000f35b3d6000fd5b60606001600160a01b0384163b6101305760405162461bcd60e51b815260206004820152602660248201527f416464726573733a2064656c65676174652063616c6c20746f206e6f6e2d636f6044820152651b9d1c9858dd60d21b60648201526084015b60405180910390fd5b600080856001600160a01b03168560405161014b91906101de565b600060405180830381855af49150503d8060008114610186576040519150601f19603f3d011682016040523d82523d6000602084013e61018b565b606091505b509150915061019b8282866101a5565b9695505050505050565b606083156101b457508161004e565b8251156101c45782518084602001fd5b8160405162461bcd60e51b815260040161012791906101fa565b600082516101f081846020870161022d565b9190910192915050565b602081526000825180602084015261021981604085016020870161022d565b601f01601f19169190910160400192915050565b60005b83811015610248578181015183820152602001610230565b83811115610257576000848401525b5050505056fe416464726573733a206c6f772d6c6576656c2064656c65676174652063616c6c206661696c6564a2646970667358221220fb537d1df0a2f3ea0050d30fb82ca020f06a83116d3853b9eda518a67b0c9be764736f6c63430008070033416464726573733a206c6f772d6c6576656c2064656c65676174652063616c6c206661696c6564360894a13ba1a3210667c828492db98dca3e2076cc3735a920a3ca505d382bbc416464726573733a206c6f772d6c6576656c2064656c65676174652063616c6c206661696c6564a26469706673582212208096144027c16c2fc5c7401cbad7426a7560d58017dbcc70583cc0b25c062d7964736f6c63430008070033",
  "linkReferences": {},
  "deployedLinkReferences": {}
}