{
  "_format": "hh-sol-artifact-1",
  "contractName": "GovernFactory",
  "sourceName": "contracts/GovernFactory.sol",
  "abi": [
    {
      "inputs": [],
      "stateMutability": "nonpayable",
      "type": "constructor"
    },
    {
      "anonymous": false,
      "inputs": [
        {
          "indexed": false,
          "internalType": "address",
          "name": "previousAdmin",
          "type": "address"
        },
        {
          "indexed": false,
          "internalType": "address",
          "name": "newAdmin",
          "type": "address"
        }
      ],
      "name": "AdminChanged",
      "type": "event"
    },
    {
      "anonymous": false,
      "inputs": [
        {
          "indexed": true,
          "internalType": "address",
          "name": "beacon",
          "type": "address"
        }
      ],
      "name": "BeaconUpgraded",
      "type": "event"
    },
    {
      "anonymous": false,
      "inputs": [
        {
          "indexed": false,
          "internalType": "string",
          "name": "name",
          "type": "string"
        },
        {
          "indexed": false,
          "internalType": "address",
          "name": "govern",
          "type": "address"
        },
        {
          "indexed": false,
          "internalType": "address",
          "name": "caller",
          "type": "address"
        },
        {
          "indexed": false,
          "internalType": "address",
          "name": "voteToken",
          "type": "address"
        }
      ],
      "name": "CreateGovern",
      "type": "event"
    },
    {
      "anonymous": false,
      "inputs": [
        {
          "indexed": false,
          "internalType": "uint8",
          "name": "version",
          "type": "uint8"
        }
      ],
      "name": "Initialized",
      "type": "event"
    },
    {
      "anonymous": false,
      "inputs": [
        {
          "indexed": true,
          "internalType": "address",
          "name": "previousOwner",
          "type": "address"
        },
        {
          "indexed": true,
          "internalType": "address",
          "name": "newOwner",
          "type": "address"
        }
      ],
      "name": "OwnershipTransferred",
      "type": "event"
    },
    {
      "anonymous": false,
      "inputs": [
        {
          "indexed": true,
          "internalType": "address",
          "name": "implementation",
          "type": "address"
        }
      ],
      "name": "Upgraded",
      "type": "event"
    },
    {
      "inputs": [
        {
          "internalType": "string",
          "name": "name",
          "type": "string"
        },
        {
          "internalType": "uint256",
          "name": "duration",
          "type": "uint256"
        },
        {
          "internalType": "uint256",
          "name": "quorum",
          "type": "uint256"
        },
        {
          "internalType": "uint256",
          "name": "passThreshold",
          "type": "uint256"
        },
        {
          "internalType": "address",
          "name": "voteToken",
          "type": "address"
        }
      ],
      "name": "createGovern",
      "outputs": [],
      "stateMutability": "nonpayable",
      "type": "function"
    },
    {
      "inputs": [],
      "name": "governImplementation",
      "outputs": [
        {
          "internalType": "address",
          "name": "",
          "type": "address"
        }
      ],
      "stateMutability": "view",
      "type": "function"
    },
    {
      "inputs": [
        {
          "internalType": "address",
          "name": "",
          "type": "address"
        },
        {
          "internalType": "string",
          "name": "",
          "type": "string"
        }
      ],
      "name": "governMap",
      "outputs": [
        {
          "internalType": "address",
          "name": "",
          "type": "address"
        }
      ],
      "stateMutability": "view",
      "type": "function"
    },
    {
      "inputs": [
        {
          "internalType": "address",
          "name": "_governImplementation",
          "type": "address"
        }
      ],
      "name": "initialize",
      "outputs": [],
      "stateMutability": "nonpayable",
      "type": "function"
    },
    {
      "inputs": [],
      "name": "owner",
      "outputs": [
        {
          "internalType": "address",
          "name": "",
          "type": "address"
        }
      ],
      "stateMutability": "view",
      "type": "function"
    },
    {
      "inputs": [],
      "name": "proxiableUUID",
      "outputs": [
        {
          "internalType": "bytes32",
          "name": "",
          "type": "bytes32"
        }
      ],
      "stateMutability": "view",
      "type": "function"
    },
    {
      "inputs": [],
      "name": "renounceOwnership",
      "outputs": [],
      "stateMutability": "nonpayable",
      "type": "function"
    },
    {
      "inputs": [
        {
          "internalType": "address",
          "name": "_governImplementation",
          "type": "address"
        }
      ],
      "name": "setGovernImplementation",
      "outputs": [],
      "stateMutability": "nonpayable",
      "type": "function"
    },
    {
      "inputs": [
        {
          "internalType": "address",
          "name": "newOwner",
          "type": "address"
        }
      ],
      "name": "transferOwnership",
      "outputs": [],
      "stateMutability": "nonpayable",
      "type": "function"
    },
    {
      "inputs": [
        {
          "internalType": "address",
          "name": "newImplementation",
          "type": "address"
        }
      ],
      "name": "upgradeTo",
      "outputs": [],
      "stateMutability": "nonpayable",
      "type": "function"
    },
    {
      "inputs": [
        {
          "internalType": "address",
          "name": "newImplementation",
          "type": "address"
        },
        {
          "internalType": "bytes",
          "name": "data",
          "type": "bytes"
        }
      ],
      "name": "upgradeToAndCall",
      "outputs": [],
      "stateMutability": "payable",
      "type": "function"
    }
  ],
  "bytecode": "0x60a06040523060601b60805234801561001757600080fd5b50610020610025565b6100e5565b600054610100900460ff16156100915760405162461bcd60e51b815260206004820152602760248201527f496e697469616c697a61626c653a20636f6e747261637420697320696e697469604482015266616c697a696e6760c81b606482015260840160405180910390fd5b60005460ff90811610156100e3576000805460ff191660ff9081179091556040519081527f7f26b83ff96e1f2b6a682f133852f6798a09c465da95921460cefb38474024989060200160405180910390a15b565b60805160601c611a4d61011f6000396000818161027f015281816102cb0152818161054f01528181610592015261062e0152611a4d6000f3fe608060405260043610620000a95760003560e01c8063672392a1116200006c578063672392a1146200017757806370bebb1e146200019c578063715018a614620001f25780638da5cb5b146200020a578063c4d66de8146200022a578063f2fde38b146200024f57600080fd5b80633659cfe614620000ae57806337b75fcd14620000d55780634f1ef28614620000fa57806352d1902d14620001115780635ba15b4d146200013c575b600080fd5b348015620000bb57600080fd5b50620000d3620000cd36600462000f2a565b62000274565b005b348015620000e257600080fd5b50620000d3620000f436600462000fcb565b62000369565b620000d36200010b36600462000f48565b62000544565b3480156200011e57600080fd5b506200012962000621565b6040519081526020015b60405180910390f35b3480156200014957600080fd5b5060c9546200015e906001600160a01b031681565b6040516001600160a01b03909116815260200162000133565b3480156200018457600080fd5b50620000d36200019636600462000f2a565b620006d7565b348015620001a957600080fd5b506200015e620001bb36600462000f48565b60ca60209081526000928352604090922081518083018401805192815290840192909301919091209152546001600160a01b031681565b348015620001ff57600080fd5b50620000d362000750565b3480156200021757600080fd5b506097546001600160a01b03166200015e565b3480156200023757600080fd5b50620000d36200024936600462000f2a565b62000768565b3480156200025c57600080fd5b50620000d36200026e36600462000f2a565b62000904565b306001600160a01b037f0000000000000000000000000000000000000000000000000000000000000000161415620002c95760405162461bcd60e51b8152600401620002c09062001187565b60405180910390fd5b7f00000000000000000000000000000000000000000000000000000000000000006001600160a01b031662000314600080516020620019d1833981519152546001600160a01b031690565b6001600160a01b0316146200033d5760405162461bcd60e51b8152600401620002c090620011d3565b620003488162000980565b6040805160008082526020820190925262000366918391906200098a565b50565b33600090815260ca602052604080822090516200038a9089908990620010b4565b908152604051908190036020019020546001600160a01b031614620003da5760405162461bcd60e51b815260206004820152600560248201526432b93937b960d91b6044820152606401620002c0565b60c9546040516000916001600160a01b031690620003f89062000e82565b6001600160a01b039091168152604060208201819052600090820152606001604051809103906000f08015801562000434573d6000803e3d6000fd5b5060405163894f5a0560e01b81529091506001600160a01b0382169063894f5a0590620004729033908b908b908b908b908b908b90600401620010c4565b600060405180830381600087803b1580156200048d57600080fd5b505af1158015620004a2573d6000803e3d6000fd5b505033600090815260ca6020526040908190209051849350909150620004cc908a908a90620010b4565b90815260405190819003602001812080546001600160a01b03939093166001600160a01b0319909316929092179091557f05de4d66352da22166e48d2b6908a187ea6b5543a40ba97d107bed5a4c2021b29062000533908990899085903390889062001112565b60405180910390a150505050505050565b306001600160a01b037f0000000000000000000000000000000000000000000000000000000000000000161415620005905760405162461bcd60e51b8152600401620002c09062001187565b7f00000000000000000000000000000000000000000000000000000000000000006001600160a01b0316620005db600080516020620019d1833981519152546001600160a01b031690565b6001600160a01b031614620006045760405162461bcd60e51b8152600401620002c090620011d3565b6200060f8262000980565b6200061d828260016200098a565b5050565b6000306001600160a01b037f00000000000000000000000000000000000000000000000000000000000000001614620006c35760405162461bcd60e51b815260206004820152603860248201527f555550535570677261646561626c653a206d757374206e6f742062652063616c60448201527f6c6564207468726f7567682064656c656761746563616c6c00000000000000006064820152608401620002c0565b50600080516020620019d183398151915290565b620006e162000b17565b6001600160a01b0381166200072e5760405162461bcd60e51b815260206004820152601260248201527119dbdd995c9b925b5c1b081a5cc81b9d5b1b60721b6044820152606401620002c0565b60c980546001600160a01b0319166001600160a01b0392909216919091179055565b6200075a62000b17565b62000766600062000b73565b565b600054610100900460ff1615808015620007895750600054600160ff909116105b80620007a55750303b158015620007a5575060005460ff166001145b6200080a5760405162461bcd60e51b815260206004820152602e60248201527f496e697469616c697a61626c653a20636f6e747261637420697320616c72656160448201526d191e481a5b9a5d1a585b1a5e995960921b6064820152608401620002c0565b6000805460ff1916600117905580156200082e576000805461ff0019166101001790555b6200083862000bc5565b6001600160a01b0382166200089f5760405162461bcd60e51b815260206004820152602660248201527f476f7665726e20696d706c656d656e746174696f6e206d757374206e6f74206260448201526519481b9d5b1b60d21b6064820152608401620002c0565b60c980546001600160a01b0319166001600160a01b03841617905580156200061d576000805461ff0019169055604051600181527f7f26b83ff96e1f2b6a682f133852f6798a09c465da95921460cefb38474024989060200160405180910390a15050565b6200090e62000b17565b6001600160a01b038116620009755760405162461bcd60e51b815260206004820152602660248201527f4f776e61626c653a206e6577206f776e657220697320746865207a65726f206160448201526564647265737360d01b6064820152608401620002c0565b620003668162000b73565b6200036662000b17565b7f4910fdfa16fed3260ed0e7147f7cc6da11a60208b5b9406d12a635614ffd91435460ff1615620009c557620009c08362000bf9565b505050565b826001600160a01b03166352d1902d6040518163ffffffff1660e01b815260040160206040518083038186803b158015620009ff57600080fd5b505afa92505050801562000a32575060408051601f3d908101601f1916820190925262000a2f9181019062000fb1565b60015b62000a975760405162461bcd60e51b815260206004820152602e60248201527f45524331393637557067726164653a206e657720696d706c656d656e7461746960448201526d6f6e206973206e6f74205555505360901b6064820152608401620002c0565b600080516020620019d1833981519152811462000b095760405162461bcd60e51b815260206004820152602960248201527f45524331393637557067726164653a20756e737570706f727465642070726f786044820152681a58589b195555525160ba1b6064820152608401620002c0565b50620009c083838362000c98565b6097546001600160a01b03163314620007665760405162461bcd60e51b815260206004820181905260248201527f4f776e61626c653a2063616c6c6572206973206e6f7420746865206f776e65726044820152606401620002c0565b609780546001600160a01b038381166001600160a01b0319831681179093556040519116919082907f8be0079c531659141344cd1fd0a4f28419497f9722a3daafe3b4186f6b6457e090600090a35050565b600054610100900460ff1662000bef5760405162461bcd60e51b8152600401620002c0906200121f565b6200076662000cc9565b6001600160a01b0381163b62000c685760405162461bcd60e51b815260206004820152602d60248201527f455243313936373a206e657720696d706c656d656e746174696f6e206973206e60448201526c1bdd08184818dbdb9d1c9858dd609a1b6064820152608401620002c0565b600080516020620019d183398151915280546001600160a01b0319166001600160a01b0392909216919091179055565b62000ca38362000cfe565b60008251118062000cb15750805b15620009c05762000cc3838362000d40565b50505050565b600054610100900460ff1662000cf35760405162461bcd60e51b8152600401620002c0906200121f565b620007663362000b73565b62000d098162000bf9565b6040516001600160a01b038216907fbc7cd75a20ee27fd9adebab32041f755214dbc6bffa90cc0225b39da2e5c2d3b90600090a250565b60606001600160a01b0383163b62000daa5760405162461bcd60e51b815260206004820152602660248201527f416464726573733a2064656c65676174652063616c6c20746f206e6f6e2d636f6044820152651b9d1c9858dd60d21b6064820152608401620002c0565b600080846001600160a01b03168460405162000dc7919062001096565b600060405180830381855af49150503d806000811462000e04576040519150601f19603f3d011682016040523d82523d6000602084013e62000e09565b606091505b509150915062000e348282604051806060016040528060278152602001620019f16027913962000e3d565b95945050505050565b6060831562000e4e57508162000e7b565b82511562000e5f5782518084602001fd5b8160405162461bcd60e51b8152600401620002c0919062001152565b9392505050565b61072180620012b083390190565b600067ffffffffffffffff8084111562000eae5762000eae62001299565b604051601f8501601f19908116603f0116810190828211818310171562000ed95762000ed962001299565b8160405280935085815286868601111562000ef357600080fd5b858560208301376000602087830101525050509392505050565b80356001600160a01b038116811462000f2557600080fd5b919050565b60006020828403121562000f3d57600080fd5b62000e7b8262000f0d565b6000806040838503121562000f5c57600080fd5b62000f678362000f0d565b9150602083013567ffffffffffffffff81111562000f8457600080fd5b8301601f8101851362000f9657600080fd5b62000fa78582356020840162000e90565b9150509250929050565b60006020828403121562000fc457600080fd5b5051919050565b60008060008060008060a0878903121562000fe557600080fd5b863567ffffffffffffffff8082111562000ffe57600080fd5b818901915089601f8301126200101357600080fd5b8135818111156200102357600080fd5b8a60208285010111156200103657600080fd5b6020928301985096505087013593506040870135925060608701359150620010616080880162000f0d565b90509295509295509295565b81835281816020850137506000828201602090810191909152601f909101601f19169091010190565b60008251620010aa8184602087016200126a565b9190910192915050565b8183823760009101908152919050565b600060018060a01b03808a16835260c06020840152620010e960c08401898b6200106d565b915086604084015285606084015284608084015280841660a08401525098975050505050505050565b608081526000620011286080830187896200106d565b6001600160a01b039586166020840152938516604083015250921660609092019190915292915050565b6020815260008251806020840152620011738160408501602087016200126a565b601f01601f19169190910160400192915050565b6020808252602c908201527f46756e6374696f6e206d7573742062652063616c6c6564207468726f7567682060408201526b19195b1959d85d1958d85b1b60a21b606082015260800190565b6020808252602c908201527f46756e6374696f6e206d7573742062652063616c6c6564207468726f7567682060408201526b6163746976652070726f787960a01b606082015260800190565b6020808252602b908201527f496e697469616c697a61626c653a20636f6e7472616374206973206e6f74206960408201526a6e697469616c697a696e6760a81b606082015260800190565b60005b83811015620012875781810151838201526020016200126d565b8381111562000cc35750506000910152565b634e487b7160e01b600052604160045260246000fdfe6080604052604051610721380380610721833981016040819052610022916102d2565b61002e82826000610035565b5050610431565b61003e8361006b565b60008251118061004b5750805b156100665761006483836100ab60201b6100291760201c565b505b505050565b610074816100d7565b6040516001600160a01b038216907fbc7cd75a20ee27fd9adebab32041f755214dbc6bffa90cc0225b39da2e5c2d3b90600090a250565b60606100d083836040518060600160405280602781526020016106fa602791396101a9565b9392505050565b6100ea8161028760201b6100551760201c565b6101515760405162461bcd60e51b815260206004820152602d60248201527f455243313936373a206e657720696d706c656d656e746174696f6e206973206e60448201526c1bdd08184818dbdb9d1c9858dd609a1b60648201526084015b60405180910390fd5b806101887f360894a13ba1a3210667c828492db98dca3e2076cc3735a920a3ca505d382bbc60001b61029660201b6100641760201c565b80546001600160a01b0319166001600160a01b039290921691909117905550565b60606001600160a01b0384163b6102115760405162461bcd60e51b815260206004820152602660248201527f416464726573733a2064656c65676174652063616c6c20746f206e6f6e2d636f6044820152651b9d1c9858dd60d21b6064820152608401610148565b600080856001600160a01b03168560405161022c91906103a0565b600060405180830381855af49150503d8060008114610267576040519150601f19603f3d011682016040523d82523d6000602084013e61026c565b606091505b50909250905061027d828286610299565b9695505050505050565b6001600160a01b03163b151590565b90565b606083156102a85750816100d0565b8251156102b85782518084602001fd5b8160405162461bcd60e51b815260040161014891906103bc565b600080604083850312156102e557600080fd5b82516001600160a01b03811681146102fc57600080fd5b60208401519092506001600160401b038082111561031957600080fd5b818501915085601f83011261032d57600080fd5b81518181111561033f5761033f61041b565b604051601f8201601f19908116603f011681019083821181831017156103675761036761041b565b8160405282815288602084870101111561038057600080fd5b6103918360208301602088016103ef565b80955050505050509250929050565b600082516103b28184602087016103ef565b9190910192915050565b60208152600082518060208401526103db8160408501602087016103ef565b601f01601f19169190910160400192915050565b60005b8381101561040a5781810151838201526020016103f2565b838111156100645750506000910152565b634e487b7160e01b600052604160045260246000fd5b6102ba806104406000396000f3fe60806040523661001357610011610017565b005b6100115b610027610022610067565b61009f565b565b606061004e838360405180606001604052806027815260200161025e602791396100c3565b9392505050565b6001600160a01b03163b151590565b90565b600061009a7f360894a13ba1a3210667c828492db98dca3e2076cc3735a920a3ca505d382bbc546001600160a01b031690565b905090565b3660008037600080366000845af43d6000803e8080156100be573d6000f35b3d6000fd5b60606001600160a01b0384163b6101305760405162461bcd60e51b815260206004820152602660248201527f416464726573733a2064656c65676174652063616c6c20746f206e6f6e2d636f6044820152651b9d1c9858dd60d21b60648201526084015b60405180910390fd5b600080856001600160a01b03168560405161014b91906101de565b600060405180830381855af49150503d8060008114610186576040519150601f19603f3d011682016040523d82523d6000602084013e61018b565b606091505b509150915061019b8282866101a5565b9695505050505050565b606083156101b457508161004e565b8251156101c45782518084602001fd5b8160405162461bcd60e51b815260040161012791906101fa565b600082516101f081846020870161022d565b9190910192915050565b602081526000825180602084015261021981604085016020870161022d565b601f01601f19169190910160400192915050565b60005b83811015610248578181015183820152602001610230565b83811115610257576000848401525b5050505056fe416464726573733a206c6f772d6c6576656c2064656c65676174652063616c6c206661696c6564a2646970667358221220fb537d1df0a2f3ea0050d30fb82ca020f06a83116d3853b9eda518a67b0c9be764736f6c63430008070033416464726573733a206c6f772d6c6576656c2064656c65676174652063616c6c206661696c6564360894a13ba1a3210667c828492db98dca3e2076cc3735a920a3ca505d382bbc416464726573733a206c6f772d6c6576656c2064656c65676174652063616c6c206661696c6564a2646970667358221220d16bf4ea7c138041b4406b3a7363ea8b72dbcf1ceb9d1adfd09ec6835d11de8364736f6c63430008070033",
  "linkReferences": {},
  "deployedLinkReferences": {}
}