{
  "_format": "hh-sol-artifact-1",
  "contractName": "GovernFactory",
  "sourceName": "contracts/GovernFactory.sol",
  "abi": [
    {
      "anonymous": false,
      "inputs": [
        {
          "indexed": false,
          "internalType": "address",
          "name": "previousAdmin",
          "type": "address"
        },
        {
          "indexed": false,
          "internalType": "address",
          "name": "newAdmin",
          "type": "address"
        }
      ],
      "name": "AdminChanged",
      "type": "event"
    },
    {
      "anonymous": false,
      "inputs": [
        {
          "indexed": true,
          "internalType": "address",
          "name": "beacon",
          "type": "address"
        }
      ],
      "name": "BeaconUpgraded",
      "type": "event"
    },
    {
      "anonymous": false,
      "inputs": [
        {
          "indexed": false,
          "internalType": "string",
          "name": "name",
          "type": "string"
        },
        {
          "indexed": false,
          "internalType": "address",
          "name": "govern",
          "type": "address"
        },
        {
          "indexed": false,
          "internalType": "address",
          "name": "caller",
          "type": "address"
        }
      ],
      "name": "CreateGovern",
      "type": "event"
    },
    {
      "anonymous": false,
      "inputs": [
        {
          "indexed": true,
          "internalType": "address",
          "name": "implementation",
          "type": "address"
        }
      ],
      "name": "Upgraded",
      "type": "event"
    },
    {
      "inputs": [
        {
          "internalType": "string",
          "name": "name",
          "type": "string"
        },
        {
          "internalType": "address",
          "name": "token",
          "type": "address"
        },
        {
          "internalType": "uint256",
          "name": "weight",
          "type": "uint256"
        }
      ],
      "name": "addVoteToken",
      "outputs": [],
      "stateMutability": "nonpayable",
      "type": "function"
    },
    {
      "inputs": [
        {
          "internalType": "string",
          "name": "name",
          "type": "string"
        },
        {
          "internalType": "uint256",
          "name": "duration",
          "type": "uint256"
        },
        {
          "internalType": "uint256",
          "name": "quorum",
          "type": "uint256"
        },
        {
          "internalType": "uint256",
          "name": "passThreshold",
          "type": "uint256"
        },
        {
          "internalType": "uint256[]",
          "name": "voteWeights",
          "type": "uint256[]"
        },
        {
          "internalType": "address[]",
          "name": "voteTokens",
          "type": "address[]"
        }
      ],
      "name": "createGovern",
      "outputs": [],
      "stateMutability": "nonpayable",
      "type": "function"
    },
    {
      "inputs": [],
      "name": "governImplementation",
      "outputs": [
        {
          "internalType": "address",
          "name": "",
          "type": "address"
        }
      ],
      "stateMutability": "view",
      "type": "function"
    },
    {
      "inputs": [
        {
          "internalType": "address",
          "name": "",
          "type": "address"
        },
        {
          "internalType": "string",
          "name": "",
          "type": "string"
        }
      ],
      "name": "governMap",
      "outputs": [
        {
          "internalType": "address",
          "name": "",
          "type": "address"
        }
      ],
      "stateMutability": "view",
      "type": "function"
    },
    {
      "inputs": [
        {
          "internalType": "address",
          "name": "_governImplementation",
          "type": "address"
        }
      ],
      "name": "initialize",
      "outputs": [],
      "stateMutability": "nonpayable",
      "type": "function"
    },
    {
      "inputs": [],
      "name": "proxiableUUID",
      "outputs": [
        {
          "internalType": "bytes32",
          "name": "",
          "type": "bytes32"
        }
      ],
      "stateMutability": "view",
      "type": "function"
    },
    {
      "inputs": [
        {
          "internalType": "address",
          "name": "newImplementation",
          "type": "address"
        }
      ],
      "name": "upgradeTo",
      "outputs": [],
      "stateMutability": "nonpayable",
      "type": "function"
    },
    {
      "inputs": [
        {
          "internalType": "address",
          "name": "newImplementation",
          "type": "address"
        },
        {
          "internalType": "bytes",
          "name": "data",
          "type": "bytes"
        }
      ],
      "name": "upgradeToAndCall",
      "outputs": [],
      "stateMutability": "payable",
      "type": "function"
    }
  ],
  "bytecode": "0x60a06040523060601b60805234801561001757600080fd5b5060805160601c611a50610052600039600081816101fe0152818161024a015281816102f30152818161033601526103d20152611a506000f3fe608060405260043610620000855760003560e01c806370bebb1e116200005457806370bebb1e146200012e578063867871cc1462000184578063c4d66de814620001a9578063c7934a2314620001ce57600080fd5b80633659cfe6146200008a5780634f1ef28614620000b157806352d1902d14620000c85780635ba15b4d14620000f3575b600080fd5b3480156200009757600080fd5b50620000af620000a936600462000d5d565b620001f3565b005b620000af620000c236600462000d7a565b620002e8565b348015620000d557600080fd5b50620000e0620003c5565b6040519081526020015b60405180910390f35b3480156200010057600080fd5b5060655462000115906001600160a01b031681565b6040516001600160a01b039091168152602001620000ea565b3480156200013b57600080fd5b50620001156200014d36600462000de0565b606660209081526000928352604090922081518083018401805192815290840192909301919091209152546001600160a01b031681565b3480156200019157600080fd5b50620000af620001a336600462000f29565b6200047b565b348015620001b657600080fd5b50620000af620001c836600462000d5d565b62000513565b348015620001db57600080fd5b50620000af620001ed36600462000e41565b620005a7565b306001600160a01b037f0000000000000000000000000000000000000000000000000000000000000000161415620002485760405162461bcd60e51b81526004016200023f9062001106565b60405180910390fd5b7f00000000000000000000000000000000000000000000000000000000000000006001600160a01b031662000293600080516020620019d4833981519152546001600160a01b031690565b6001600160a01b031614620002bc5760405162461bcd60e51b81526004016200023f9062001152565b620002c781620007ec565b60408051600080825260208201909252620002e59183919062000865565b50565b306001600160a01b037f0000000000000000000000000000000000000000000000000000000000000000161415620003345760405162461bcd60e51b81526004016200023f9062001106565b7f00000000000000000000000000000000000000000000000000000000000000006001600160a01b03166200037f600080516020620019d4833981519152546001600160a01b031690565b6001600160a01b031614620003a85760405162461bcd60e51b81526004016200023f9062001152565b620003b382620007ec565b620003c18282600162000865565b5050565b6000306001600160a01b037f00000000000000000000000000000000000000000000000000000000000000001614620004675760405162461bcd60e51b815260206004820152603860248201527f555550535570677261646561626c653a206d757374206e6f742062652063616c60448201527f6c6564207468726f7567682064656c656761746563616c6c000000000000000060648201526084016200023f565b50600080516020620019d483398151915290565b3360009081526066602052604080822090516200049a90869062000fad565b9081526040519081900360200181205463da043af360e01b82526001600160a01b03858116600484015260248301859052169150819063da043af390604401600060405180830381600087803b158015620004f457600080fd5b505af115801562000509573d6000803e3d6000fd5b5050505050505050565b600054610100900460ff16620005305760005460ff161562000534565b303b155b620005535760405162461bcd60e51b81526004016200023f906200119e565b600054610100900460ff1615801562000576576000805461ffff19166101011790555b606580546001600160a01b0319166001600160a01b0384161790558015620003c1576000805461ff00191690555050565b336000908152606660205260408082209051620005c8908c908c9062000fcb565b908152604051908190036020019020546001600160a01b031614620006185760405162461bcd60e51b815260206004820152600560248201526432b93937b960d91b60448201526064016200023f565b8281146200067b5760405162461bcd60e51b815260206004820152602960248201527f566f746520776569676874732c20766f746520746f6b656e73206c656e677468604482015268040dad2e6dac2e8c6d60bb1b60648201526084016200023f565b6065546040516000916001600160a01b031690620006999062000c46565b6001600160a01b039091168152604060208201819052600090820152606001604051809103906000f080158015620006d5573d6000803e3d6000fd5b50604051631ad9965360e31b81529091506001600160a01b0382169063d6ccb29890620007199030908e908e908e908e908e908e908e908e908e9060040162000fdb565b600060405180830381600087803b1580156200073457600080fd5b505af115801562000749573d6000803e3d6000fd5b50503360009081526066602052604090819020905184935090915062000773908d908d9062000fcb565b90815260405190819003602001812080546001600160a01b03939093166001600160a01b0319909316929092179091557fc685553edb53be6940b1daea7daa652cb0c5345ccfb49d6987116c332de6842e90620007d8908c908c90859033906200109a565b60405180910390a150505050505050505050565b600054610100900460ff16620008095760005460ff16156200080d565b303b155b6200082c5760405162461bcd60e51b81526004016200023f906200119e565b600054610100900460ff161580156200084f576000805461ffff19166101011790555b8015620003c1576000805461ff00191690555050565b7f4910fdfa16fed3260ed0e7147f7cc6da11a60208b5b9406d12a635614ffd91435460ff1615620008a0576200089b83620009f2565b505050565b826001600160a01b03166352d1902d6040518163ffffffff1660e01b815260040160206040518083038186803b158015620008da57600080fd5b505afa9250505080156200090d575060408051601f3d908101601f191682019092526200090a9181019062000e28565b60015b620009725760405162461bcd60e51b815260206004820152602e60248201527f45524331393637557067726164653a206e657720696d706c656d656e7461746960448201526d6f6e206973206e6f74205555505360901b60648201526084016200023f565b600080516020620019d48339815191528114620009e45760405162461bcd60e51b815260206004820152602960248201527f45524331393637557067726164653a20756e737570706f727465642070726f786044820152681a58589b195555525160ba1b60648201526084016200023f565b506200089b83838362000a91565b6001600160a01b0381163b62000a615760405162461bcd60e51b815260206004820152602d60248201527f455243313936373a206e657720696d706c656d656e746174696f6e206973206e60448201526c1bdd08184818dbdb9d1c9858dd609a1b60648201526084016200023f565b600080516020620019d483398151915280546001600160a01b0319166001600160a01b0392909216919091179055565b62000a9c8362000ac2565b60008251118062000aaa5750805b156200089b5762000abc838362000b04565b50505050565b62000acd81620009f2565b6040516001600160a01b038216907fbc7cd75a20ee27fd9adebab32041f755214dbc6bffa90cc0225b39da2e5c2d3b90600090a250565b60606001600160a01b0383163b62000b6e5760405162461bcd60e51b815260206004820152602660248201527f416464726573733a2064656c65676174652063616c6c20746f206e6f6e2d636f6044820152651b9d1c9858dd60d21b60648201526084016200023f565b600080846001600160a01b03168460405162000b8b919062000fad565b600060405180830381855af49150503d806000811462000bc8576040519150601f19603f3d011682016040523d82523d6000602084013e62000bcd565b606091505b509150915062000bf88282604051806060016040528060278152602001620019f46027913962000c01565b95945050505050565b6060831562000c1257508162000c3f565b82511562000c235782518084602001fd5b8160405162461bcd60e51b81526004016200023f9190620010d1565b9392505050565b6107a2806200123283390190565b600067ffffffffffffffff8084111562000c725762000c726200121b565b604051601f8501601f19908116603f0116810190828211818310171562000c9d5762000c9d6200121b565b8160405280935085815286868601111562000cb757600080fd5b858560208301376000602087830101525050509392505050565b80356001600160a01b038116811462000ce957600080fd5b919050565b60008083601f84011262000d00578081fd5b50813567ffffffffffffffff81111562000d18578182fd5b6020830191508360208260051b850101111562000d3457600080fd5b9250929050565b600082601f83011262000d4c578081fd5b62000c3f8383356020850162000c54565b60006020828403121562000d6f578081fd5b62000c3f8262000cd1565b6000806040838503121562000d8d578081fd5b62000d988362000cd1565b9150602083013567ffffffffffffffff81111562000db4578182fd5b8301601f8101851362000dc5578182fd5b62000dd68582356020840162000c54565b9150509250929050565b6000806040838503121562000df3578182fd5b62000dfe8362000cd1565b9150602083013567ffffffffffffffff81111562000e1a578182fd5b62000dd68582860162000d3b565b60006020828403121562000e3a578081fd5b5051919050565b600080600080600080600080600060c08a8c03121562000e5f578485fd5b893567ffffffffffffffff8082111562000e77578687fd5b818c0191508c601f83011262000e8b578687fd5b81358181111562000e9a578788fd5b8d602082850101111562000eac578788fd5b60209283019b509950908b0135975060408b0135965060608b0135955060808b0135908082111562000edc578586fd5b62000eea8d838e0162000cee565b909650945060a08c013591508082111562000f03578384fd5b5062000f128c828d0162000cee565b915080935050809150509295985092959850929598565b60008060006060848603121562000f3e578283fd5b833567ffffffffffffffff81111562000f55578384fd5b62000f638682870162000d3b565b93505062000f746020850162000cd1565b9150604084013590509250925092565b81835281816020850137506000828201602090810191909152601f909101601f19169091010190565b6000825162000fc1818460208701620011ec565b9190910192915050565b8183823760009101908152919050565b600060018060a01b03808d168352602060e0818501526200100160e085018d8f62000f84565b604085018c9052606085018b9052608085018a905284810360a08601528781526001600160fb1b0388111562001035578384fd5b8760051b808a8484013701848103820160c0860152818101869052869084906040015b878210156200108357846200106d8462000cd1565b1681529183019160019190910190830162001058565b80955050505050509b9a5050505050505050505050565b606081526000620010b060608301868862000f84565b6001600160a01b039485166020840152929093166040909101529392505050565b6020815260008251806020840152620010f2816040850160208701620011ec565b601f01601f19169190910160400192915050565b6020808252602c908201527f46756e6374696f6e206d7573742062652063616c6c6564207468726f7567682060408201526b19195b1959d85d1958d85b1b60a21b606082015260800190565b6020808252602c908201527f46756e6374696f6e206d7573742062652063616c6c6564207468726f7567682060408201526b6163746976652070726f787960a01b606082015260800190565b6020808252602e908201527f496e697469616c697a61626c653a20636f6e747261637420697320616c72656160408201526d191e481a5b9a5d1a585b1a5e995960921b606082015260800190565b60005b8381101562001209578181015183820152602001620011ef565b8381111562000abc5750506000910152565b634e487b7160e01b600052604160045260246000fdfe60806040526040516107a23803806107a283398101604081905261002291610315565b61004d60017f360894a13ba1a3210667c828492db98dca3e2076cc3735a920a3ca505d382bbd61042d565b60008051602061075b8339815191521461007757634e487b7160e01b600052600160045260246000fd5b6100838282600061008a565b5050610492565b610093836100c0565b6000825111806100a05750805b156100bb576100b9838361010060201b6100291760201c565b505b505050565b6100c98161012c565b6040516001600160a01b038216907fbc7cd75a20ee27fd9adebab32041f755214dbc6bffa90cc0225b39da2e5c2d3b90600090a250565b6060610125838360405180606001604052806027815260200161077b602791396101ec565b9392505050565b61013f816102ca60201b6100551760201c565b6101a65760405162461bcd60e51b815260206004820152602d60248201527f455243313936373a206e657720696d706c656d656e746174696f6e206973206e60448201526c1bdd08184818dbdb9d1c9858dd609a1b60648201526084015b60405180910390fd5b806101cb60008051602061075b83398151915260001b6102d960201b6100641760201c565b80546001600160a01b0319166001600160a01b039290921691909117905550565b60606001600160a01b0384163b6102545760405162461bcd60e51b815260206004820152602660248201527f416464726573733a2064656c65676174652063616c6c20746f206e6f6e2d636f6044820152651b9d1c9858dd60d21b606482015260840161019d565b600080856001600160a01b03168560405161026f91906103de565b600060405180830381855af49150503d80600081146102aa576040519150601f19603f3d011682016040523d82523d6000602084013e6102af565b606091505b5090925090506102c08282866102dc565b9695505050505050565b6001600160a01b03163b151590565b90565b606083156102eb575081610125565b8251156102fb5782518084602001fd5b8160405162461bcd60e51b815260040161019d91906103fa565b60008060408385031215610327578182fd5b82516001600160a01b038116811461033d578283fd5b60208401519092506001600160401b0380821115610359578283fd5b818501915085601f83011261036c578283fd5b81518181111561037e5761037e61047c565b604051601f8201601f19908116603f011681019083821181831017156103a6576103a661047c565b816040528281528860208487010111156103be578586fd5b6103cf836020830160208801610450565b80955050505050509250929050565b600082516103f0818460208701610450565b9190910192915050565b6020815260008251806020840152610419816040850160208701610450565b601f01601f19169190910160400192915050565b60008282101561044b57634e487b7160e01b81526011600452602481fd5b500390565b60005b8381101561046b578181015183820152602001610453565b838111156100b95750506000910152565b634e487b7160e01b600052604160045260246000fd5b6102ba806104a16000396000f3fe60806040523661001357610011610017565b005b6100115b610027610022610067565b61009f565b565b606061004e838360405180606001604052806027815260200161025e602791396100c3565b9392505050565b6001600160a01b03163b151590565b90565b600061009a7f360894a13ba1a3210667c828492db98dca3e2076cc3735a920a3ca505d382bbc546001600160a01b031690565b905090565b3660008037600080366000845af43d6000803e8080156100be573d6000f35b3d6000fd5b60606001600160a01b0384163b6101305760405162461bcd60e51b815260206004820152602660248201527f416464726573733a2064656c65676174652063616c6c20746f206e6f6e2d636f6044820152651b9d1c9858dd60d21b60648201526084015b60405180910390fd5b600080856001600160a01b03168560405161014b91906101de565b600060405180830381855af49150503d8060008114610186576040519150601f19603f3d011682016040523d82523d6000602084013e61018b565b606091505b509150915061019b8282866101a5565b9695505050505050565b606083156101b457508161004e565b8251156101c45782518084602001fd5b8160405162461bcd60e51b815260040161012791906101fa565b600082516101f081846020870161022d565b9190910192915050565b602081526000825180602084015261021981604085016020870161022d565b601f01601f19169190910160400192915050565b60005b83811015610248578181015183820152602001610230565b83811115610257576000848401525b5050505056fe416464726573733a206c6f772d6c6576656c2064656c65676174652063616c6c206661696c6564a2646970667358221220e14c3fee28687df8af621b132b9789cfe2ceb6f7d6de514bb73c2956ffe9d6dd64736f6c63430008040033360894a13ba1a3210667c828492db98dca3e2076cc3735a920a3ca505d382bbc416464726573733a206c6f772d6c6576656c2064656c65676174652063616c6c206661696c6564360894a13ba1a3210667c828492db98dca3e2076cc3735a920a3ca505d382bbc416464726573733a206c6f772d6c6576656c2064656c65676174652063616c6c206661696c6564a264697066735822122030de9e2a4171e184adf351d8b78df7f77cead349b3406c6b45b1878929d9b1e364736f6c63430008040033",
  "linkReferences": {},
  "deployedLinkReferences": {}
}