{
  "_format": "hh-sol-artifact-1",
  "contractName": "Govern",
  "sourceName": "contracts/Govern.sol",
  "abi": [
    {
      "anonymous": false,
      "inputs": [
        {
          "indexed": false,
          "internalType": "address",
          "name": "token",
          "type": "address"
        },
        {
          "indexed": false,
          "internalType": "uint256",
          "name": "weight",
          "type": "uint256"
        }
      ],
      "name": "AddVoteToken",
      "type": "event"
    },
    {
      "anonymous": false,
      "inputs": [
        {
          "indexed": false,
          "internalType": "address",
          "name": "previousAdmin",
          "type": "address"
        },
        {
          "indexed": false,
          "internalType": "address",
          "name": "newAdmin",
          "type": "address"
        }
      ],
      "name": "AdminChanged",
      "type": "event"
    },
    {
      "anonymous": false,
      "inputs": [
        {
          "indexed": true,
          "internalType": "address",
          "name": "beacon",
          "type": "address"
        }
      ],
      "name": "BeaconUpgraded",
      "type": "event"
    },
    {
      "anonymous": false,
      "inputs": [
        {
          "indexed": false,
          "internalType": "uint256",
          "name": "proposalId",
          "type": "uint256"
        }
      ],
      "name": "ProposalCanceled",
      "type": "event"
    },
    {
      "anonymous": false,
      "inputs": [
        {
          "indexed": false,
          "internalType": "uint256",
          "name": "proposalId",
          "type": "uint256"
        },
        {
          "indexed": false,
          "internalType": "address",
          "name": "proposer",
          "type": "address"
        },
        {
          "indexed": false,
          "internalType": "address[]",
          "name": "targets",
          "type": "address[]"
        },
        {
          "indexed": false,
          "internalType": "uint256[]",
          "name": "values",
          "type": "uint256[]"
        },
        {
          "indexed": false,
          "internalType": "string[]",
          "name": "signatures",
          "type": "string[]"
        },
        {
          "indexed": false,
          "internalType": "bytes[]",
          "name": "calldatas",
          "type": "bytes[]"
        },
        {
          "indexed": false,
          "internalType": "uint256",
          "name": "startBlock",
          "type": "uint256"
        },
        {
          "indexed": false,
          "internalType": "uint256",
          "name": "endBlock",
          "type": "uint256"
        },
        {
          "indexed": false,
          "internalType": "string",
          "name": "description",
          "type": "string"
        }
      ],
      "name": "ProposalCreated",
      "type": "event"
    },
    {
      "anonymous": false,
      "inputs": [
        {
          "indexed": false,
          "internalType": "uint256",
          "name": "proposalId",
          "type": "uint256"
        }
      ],
      "name": "ProposalExecuted",
      "type": "event"
    },
    {
      "anonymous": false,
      "inputs": [
        {
          "indexed": true,
          "internalType": "address",
          "name": "implementation",
          "type": "address"
        }
      ],
      "name": "Upgraded",
      "type": "event"
    },
    {
      "anonymous": false,
      "inputs": [
        {
          "indexed": true,
          "internalType": "address",
          "name": "voter",
          "type": "address"
        },
        {
          "indexed": false,
          "internalType": "uint256",
          "name": "proposalId",
          "type": "uint256"
        },
        {
          "indexed": false,
          "internalType": "uint8",
          "name": "support",
          "type": "uint8"
        },
        {
          "indexed": false,
          "internalType": "uint256",
          "name": "weight",
          "type": "uint256"
        },
        {
          "indexed": false,
          "internalType": "string",
          "name": "reason",
          "type": "string"
        }
      ],
      "name": "VoteCast",
      "type": "event"
    },
    {
      "inputs": [],
      "name": "BALLOT_TYPEHASH",
      "outputs": [
        {
          "internalType": "bytes32",
          "name": "",
          "type": "bytes32"
        }
      ],
      "stateMutability": "view",
      "type": "function"
    },
    {
      "inputs": [],
      "name": "COUNTING_MODE",
      "outputs": [
        {
          "internalType": "string",
          "name": "",
          "type": "string"
        }
      ],
      "stateMutability": "pure",
      "type": "function"
    },
    {
      "inputs": [
        {
          "internalType": "address",
          "name": "token",
          "type": "address"
        },
        {
          "internalType": "uint256",
          "name": "weight",
          "type": "uint256"
        }
      ],
      "name": "addVoteToken",
      "outputs": [],
      "stateMutability": "nonpayable",
      "type": "function"
    },
    {
      "inputs": [
        {
          "internalType": "uint256",
          "name": "proposalId",
          "type": "uint256"
        },
        {
          "internalType": "uint8",
          "name": "support",
          "type": "uint8"
        }
      ],
      "name": "castVote",
      "outputs": [
        {
          "internalType": "uint256",
          "name": "",
          "type": "uint256"
        }
      ],
      "stateMutability": "nonpayable",
      "type": "function"
    },
    {
      "inputs": [
        {
          "internalType": "uint256",
          "name": "proposalId",
          "type": "uint256"
        },
        {
          "internalType": "uint8",
          "name": "support",
          "type": "uint8"
        },
        {
          "internalType": "uint8",
          "name": "v",
          "type": "uint8"
        },
        {
          "internalType": "bytes32",
          "name": "r",
          "type": "bytes32"
        },
        {
          "internalType": "bytes32",
          "name": "s",
          "type": "bytes32"
        }
      ],
      "name": "castVoteBySig",
      "outputs": [
        {
          "internalType": "uint256",
          "name": "",
          "type": "uint256"
        }
      ],
      "stateMutability": "nonpayable",
      "type": "function"
    },
    {
      "inputs": [
        {
          "internalType": "uint256",
          "name": "proposalId",
          "type": "uint256"
        },
        {
          "internalType": "uint8",
          "name": "support",
          "type": "uint8"
        },
        {
          "internalType": "string",
          "name": "reason",
          "type": "string"
        }
      ],
      "name": "castVoteWithReason",
      "outputs": [
        {
          "internalType": "uint256",
          "name": "",
          "type": "uint256"
        }
      ],
      "stateMutability": "nonpayable",
      "type": "function"
    },
    {
      "inputs": [],
      "name": "duration",
      "outputs": [
        {
          "internalType": "uint256",
          "name": "",
          "type": "uint256"
        }
      ],
      "stateMutability": "view",
      "type": "function"
    },
    {
      "inputs": [
        {
          "internalType": "address[]",
          "name": "targets",
          "type": "address[]"
        },
        {
          "internalType": "uint256[]",
          "name": "values",
          "type": "uint256[]"
        },
        {
          "internalType": "bytes[]",
          "name": "calldatas",
          "type": "bytes[]"
        },
        {
          "internalType": "bytes32",
          "name": "descriptionHash",
          "type": "bytes32"
        }
      ],
      "name": "execute",
      "outputs": [
        {
          "internalType": "uint256",
          "name": "",
          "type": "uint256"
        }
      ],
      "stateMutability": "payable",
      "type": "function"
    },
    {
      "inputs": [
        {
          "internalType": "uint256",
          "name": "proposalId",
          "type": "uint256"
        },
        {
          "internalType": "uint8",
          "name": "support",
          "type": "uint8"
        }
      ],
      "name": "getProposalVote",
      "outputs": [
        {
          "internalType": "uint256",
          "name": "",
          "type": "uint256"
        }
      ],
      "stateMutability": "view",
      "type": "function"
    },
    {
      "inputs": [
        {
          "internalType": "address",
          "name": "account",
          "type": "address"
        },
        {
          "internalType": "uint256",
          "name": "blockNumber",
          "type": "uint256"
        }
      ],
      "name": "getVotes",
      "outputs": [
        {
          "internalType": "uint256",
          "name": "",
          "type": "uint256"
        }
      ],
      "stateMutability": "view",
      "type": "function"
    },
    {
      "inputs": [
        {
          "internalType": "uint256",
          "name": "proposalId",
          "type": "uint256"
        },
        {
          "internalType": "address",
          "name": "account",
          "type": "address"
        }
      ],
      "name": "hasVoted",
      "outputs": [
        {
          "internalType": "bool",
          "name": "",
          "type": "bool"
        }
      ],
      "stateMutability": "view",
      "type": "function"
    },
    {
      "inputs": [
        {
          "internalType": "address[]",
          "name": "targets",
          "type": "address[]"
        },
        {
          "internalType": "uint256[]",
          "name": "values",
          "type": "uint256[]"
        },
        {
          "internalType": "bytes[]",
          "name": "calldatas",
          "type": "bytes[]"
        },
        {
          "internalType": "bytes32",
          "name": "descriptionHash",
          "type": "bytes32"
        }
      ],
      "name": "hashProposal",
      "outputs": [
        {
          "internalType": "uint256",
          "name": "",
          "type": "uint256"
        }
      ],
      "stateMutability": "pure",
      "type": "function"
    },
    {
      "inputs": [
        {
          "internalType": "address",
          "name": "_owner",
          "type": "address"
        },
        {
          "internalType": "string",
          "name": "_name",
          "type": "string"
        },
        {
          "internalType": "uint256",
          "name": "_duration",
          "type": "uint256"
        },
        {
          "internalType": "uint256",
          "name": "_quorum",
          "type": "uint256"
        },
        {
          "internalType": "uint256",
          "name": "_passThreshold",
          "type": "uint256"
        },
        {
          "internalType": "uint256[]",
          "name": "_voteWeights",
          "type": "uint256[]"
        },
        {
          "internalType": "address[]",
          "name": "_voteTokens",
          "type": "address[]"
        }
      ],
      "name": "initialize",
      "outputs": [],
      "stateMutability": "nonpayable",
      "type": "function"
    },
    {
      "inputs": [],
      "name": "name",
      "outputs": [
        {
          "internalType": "string",
          "name": "",
          "type": "string"
        }
      ],
      "stateMutability": "view",
      "type": "function"
    },
    {
      "inputs": [],
      "name": "owner",
      "outputs": [
        {
          "internalType": "address",
          "name": "",
          "type": "address"
        }
      ],
      "stateMutability": "view",
      "type": "function"
    },
    {
      "inputs": [],
      "name": "passThreshold",
      "outputs": [
        {
          "internalType": "uint256",
          "name": "",
          "type": "uint256"
        }
      ],
      "stateMutability": "view",
      "type": "function"
    },
    {
      "inputs": [
        {
          "internalType": "uint256",
          "name": "proposalId",
          "type": "uint256"
        }
      ],
      "name": "proposalDeadline",
      "outputs": [
        {
          "internalType": "uint256",
          "name": "",
          "type": "uint256"
        }
      ],
      "stateMutability": "view",
      "type": "function"
    },
    {
      "inputs": [
        {
          "internalType": "uint256",
          "name": "proposalId",
          "type": "uint256"
        }
      ],
      "name": "proposalSnapshot",
      "outputs": [
        {
          "internalType": "uint256",
          "name": "",
          "type": "uint256"
        }
      ],
      "stateMutability": "view",
      "type": "function"
    },
    {
      "inputs": [],
      "name": "proposalThreshold",
      "outputs": [
        {
          "internalType": "uint256",
          "name": "",
          "type": "uint256"
        }
      ],
      "stateMutability": "pure",
      "type": "function"
    },
    {
      "inputs": [
        {
          "internalType": "address[]",
          "name": "targets",
          "type": "address[]"
        },
        {
          "internalType": "uint256[]",
          "name": "values",
          "type": "uint256[]"
        },
        {
          "internalType": "bytes[]",
          "name": "calldatas",
          "type": "bytes[]"
        },
        {
          "internalType": "string",
          "name": "description",
          "type": "string"
        }
      ],
      "name": "propose",
      "outputs": [
        {
          "internalType": "uint256",
          "name": "",
          "type": "uint256"
        }
      ],
      "stateMutability": "nonpayable",
      "type": "function"
    },
    {
      "inputs": [],
      "name": "proxiableUUID",
      "outputs": [
        {
          "internalType": "bytes32",
          "name": "",
          "type": "bytes32"
        }
      ],
      "stateMutability": "view",
      "type": "function"
    },
    {
      "inputs": [
        {
          "internalType": "uint256",
          "name": "blockNumber",
          "type": "uint256"
        }
      ],
      "name": "quorum",
      "outputs": [
        {
          "internalType": "uint256",
          "name": "",
          "type": "uint256"
        }
      ],
      "stateMutability": "view",
      "type": "function"
    },
    {
      "inputs": [
        {
          "internalType": "uint256",
          "name": "proposalId",
          "type": "uint256"
        }
      ],
      "name": "quorumReached",
      "outputs": [
        {
          "internalType": "bool",
          "name": "",
          "type": "bool"
        }
      ],
      "stateMutability": "view",
      "type": "function"
    },
    {
      "inputs": [],
      "name": "quorumThreshold",
      "outputs": [
        {
          "internalType": "uint256",
          "name": "",
          "type": "uint256"
        }
      ],
      "stateMutability": "view",
      "type": "function"
    },
    {
      "inputs": [
        {
          "internalType": "address",
          "name": "target",
          "type": "address"
        },
        {
          "internalType": "uint256",
          "name": "value",
          "type": "uint256"
        },
        {
          "internalType": "bytes",
          "name": "data",
          "type": "bytes"
        }
      ],
      "name": "relay",
      "outputs": [],
      "stateMutability": "nonpayable",
      "type": "function"
    },
    {
      "inputs": [
        {
          "internalType": "uint256",
          "name": "proposalId",
          "type": "uint256"
        }
      ],
      "name": "state",
      "outputs": [
        {
          "internalType": "enum IGovernorUpgradeable.ProposalState",
          "name": "",
          "type": "uint8"
        }
      ],
      "stateMutability": "view",
      "type": "function"
    },
    {
      "inputs": [
        {
          "internalType": "bytes4",
          "name": "interfaceId",
          "type": "bytes4"
        }
      ],
      "name": "supportsInterface",
      "outputs": [
        {
          "internalType": "bool",
          "name": "",
          "type": "bool"
        }
      ],
      "stateMutability": "view",
      "type": "function"
    },
    {
      "inputs": [
        {
          "internalType": "uint256",
          "name": "blockNumber",
          "type": "uint256"
        }
      ],
      "name": "totalPastSupply",
      "outputs": [
        {
          "internalType": "uint256",
          "name": "",
          "type": "uint256"
        }
      ],
      "stateMutability": "view",
      "type": "function"
    },
    {
      "inputs": [
        {
          "internalType": "address",
          "name": "newImplementation",
          "type": "address"
        }
      ],
      "name": "upgradeTo",
      "outputs": [],
      "stateMutability": "nonpayable",
      "type": "function"
    },
    {
      "inputs": [
        {
          "internalType": "address",
          "name": "newImplementation",
          "type": "address"
        },
        {
          "internalType": "bytes",
          "name": "data",
          "type": "bytes"
        }
      ],
      "name": "upgradeToAndCall",
      "outputs": [],
      "stateMutability": "payable",
      "type": "function"
    },
    {
      "inputs": [],
      "name": "version",
      "outputs": [
        {
          "internalType": "string",
          "name": "",
          "type": "string"
        }
      ],
      "stateMutability": "view",
      "type": "function"
    },
    {
      "inputs": [
        {
          "internalType": "uint256",
          "name": "proposalId",
          "type": "uint256"
        }
      ],
      "name": "voteSucceeded",
      "outputs": [
        {
          "internalType": "bool",
          "name": "",
          "type": "bool"
        }
      ],
      "stateMutability": "view",
      "type": "function"
    },
    {
      "inputs": [
        {
          "internalType": "uint256",
          "name": "",
          "type": "uint256"
        }
      ],
      "name": "voteTokens",
      "outputs": [
        {
          "internalType": "address",
          "name": "",
          "type": "address"
        }
      ],
      "stateMutability": "view",
      "type": "function"
    },
    {
      "inputs": [
        {
          "internalType": "uint256",
          "name": "",
          "type": "uint256"
        }
      ],
      "name": "voteWeights",
      "outputs": [
        {
          "internalType": "uint256",
          "name": "",
          "type": "uint256"
        }
      ],
      "stateMutability": "view",
      "type": "function"
    },
    {
      "inputs": [],
      "name": "votingDelay",
      "outputs": [
        {
          "internalType": "uint256",
          "name": "",
          "type": "uint256"
        }
      ],
      "stateMutability": "pure",
      "type": "function"
    },
    {
      "inputs": [],
      "name": "votingPeriod",
      "outputs": [
        {
          "internalType": "uint256",
          "name": "",
          "type": "uint256"
        }
      ],
      "stateMutability": "view",
      "type": "function"
    },
    {
      "stateMutability": "payable",
      "type": "receive"
    }
  ],
  "bytecode": "0x60a06040523060601b60805234801561001757600080fd5b5060805160601c61344c610052600039600081816108be015281816108fe01528181610bd701528181610c170152610caa015261344c6000f3fe6080604052600436106102135760003560e01c80636482ff9811610118578063c59057e4116100a0578063dc5dadc01161006f578063dc5dadc01461060a578063dd4e2ba51461062a578063deaaa7cc14610670578063eb9019d4146106a4578063f8ce560a146106c457600080fd5b8063c59057e41461058a578063d4a8dd98146105aa578063d6ccb298146105ca578063da043af3146105ea57600080fd5b80638d73b031116100e75780638d73b031146105095780638da5cb5b14610529578063b58131b014610305578063c01f9e371461054a578063c28bc2fa1461056a57600080fd5b80636482ff981461047a5780637b3c71d3146104b25780637b7a91dd146104d25780637d5e81e2146104e957600080fd5b80633e4f49e61161019b5780634f1ef2861161016a5780634f1ef286146103e857806352d1902d146103fb57806354fd4d5014610410578063567813881461043a57806356f40aa21461045a57600080fd5b80633e4f49e614610339578063438596321461036657806345f3c4d6146103b15780634b3a9a2c146103d157600080fd5b80632656227d116101e25780632656227d146102b25780632d63f693146102c55780633659cfe6146102e55780633932abb1146103055780633bccf4fd1461031957600080fd5b806301ffc9a71461022157806302a251a31461025657806306fdde03146102795780630fb5a6b41461029b57600080fd5b3661021c57005b005b600080fd5b34801561022d57600080fd5b5061024161023c366004612cb0565b6106e4565b60405190151581526020015b60405180910390f35b34801561026257600080fd5b5061026b61071b565b60405190815260200161024d565b34801561028557600080fd5b5061028e610732565b60405161024d9190612f4a565b3480156102a757600080fd5b5061026b6101625481565b61026b6102c0366004612b66565b6107c5565b3480156102d157600080fd5b5061026b6102e0366004612cd8565b61087b565b3480156102f157600080fd5b5061021a6103003660046129d0565b6108b3565b34801561031157600080fd5b50600061026b565b34801561032557600080fd5b5061026b610334366004612d7c565b610993565b34801561034557600080fd5b50610359610354366004612cd8565b610a27565b60405161024d9190612f22565b34801561037257600080fd5b50610241610381366004612cf0565b6000828152610167602090815260408083206001600160a01b038516845260030190915290205460ff1692915050565b3480156103bd57600080fd5b5061026b6103cc366004612d1b565b610b25565b3480156103dd57600080fd5b5061026b6101645481565b61021a6103f63660046129ea565b610bcc565b34801561040757600080fd5b5061026b610c9d565b34801561041c57600080fd5b506040805180820190915260018152603160f81b602082015261028e565b34801561044657600080fd5b5061026b610455366004612d1b565b610d50565b34801561046657600080fd5b5061026b610475366004612cd8565b610d79565b34801561048657600080fd5b5061049a610495366004612cd8565b610d9b565b6040516001600160a01b03909116815260200161024d565b3480156104be57600080fd5b5061026b6104cd366004612d3d565b610dc6565b3480156104de57600080fd5b5061026b6101635481565b3480156104f557600080fd5b5061026b610504366004612bf1565b610e18565b34801561051557600080fd5b50610241610524366004612cd8565b6110f9565b34801561053557600080fd5b506101615461049a906001600160a01b031681565b34801561055657600080fd5b5061026b610565366004612cd8565b611104565b34801561057657600080fd5b5061021a610585366004612b0f565b611134565b34801561059657600080fd5b5061026b6105a5366004612b66565b6111cc565b3480156105b657600080fd5b506102416105c5366004612cd8565b611206565b3480156105d657600080fd5b5061021a6105e5366004612a35565b611211565b3480156105f657600080fd5b5061021a610605366004612ae6565b6112eb565b34801561061657600080fd5b5061026b610625366004612cd8565b61149a565b34801561063657600080fd5b5060408051808201909152601a81527f737570706f72743d627261766f2671756f72756d3d627261766f000000000000602082015261028e565b34801561067c57600080fd5b5061026b7f150214d74d59b7d1e90c73fc22ef3d991dd0a76b046543d4d80ab92d2a50328f81565b3480156106b057600080fd5b5061026b6106bf366004612ae6565b61157c565b3480156106d057600080fd5b5061026b6106df366004612cd8565b61169f565b60006001600160e01b0319821663bf26d89760e01b148061071557506301ffc9a760e01b6001600160e01b03198316145b92915050565b6000600d6101625461072d919061327b565b905090565b606061012f8054610742906132fd565b80601f016020809104026020016040519081016040528092919081815260200182805461076e906132fd565b80156107bb5780601f10610790576101008083540402835291602001916107bb565b820191906000526020600020905b81548152906001019060200180831161079e57829003601f168201915b5050505050905090565b6000806001600160a01b0316856000815181106107f257634e487b7160e01b600052603260045260246000fd5b60200260200101516001600160a01b031614156108665760405162461bcd60e51b815260206004820152602760248201527f47656e6572616c2070726f706f73616c2073686f756c64206e6f7420626520656044820152661e1958dd5d195960ca1b60648201526084015b60405180910390fd5b610872858585856116c4565b50949350505050565b6000818152610130602090815260408083208151928301909152546001600160401b0316908190525b6001600160401b031692915050565b306001600160a01b037f00000000000000000000000000000000000000000000000000000000000000001614156108fc5760405162461bcd60e51b815260040161085d90612f9e565b7f00000000000000000000000000000000000000000000000000000000000000006001600160a01b03166109456000805160206133a7833981519152546001600160a01b031690565b6001600160a01b03161461096b5760405162461bcd60e51b815260040161085d90612fea565b610974816117f3565b6040805160008082526020820190925261099091839190611865565b50565b604080517f150214d74d59b7d1e90c73fc22ef3d991dd0a76b046543d4d80ab92d2a50328f602082015290810186905260ff8516606082015260009081906109ff906109f790608001604051602081830303815290604052805190602001206119e4565b868686611a32565b9050610a1c87828860405180602001604052806000815250611a50565b979650505050505050565b600081815261013060205260408120600281015460ff1615610a4c5750600792915050565b6002810154610100900460ff1615610a675750600292915050565b6000610a728461087b565b905080610ac15760405162461bcd60e51b815260206004820152601d60248201527f476f7665726e6f723a20756e6b6e6f776e2070726f706f73616c206964000000604482015260640161085d565b438110610ad2575060009392505050565b6000610add85611104565b9050438110610af157506001949350505050565b610afa85611b69565b8015610b0a5750610b0a85611bb0565b15610b1a57506004949350505050565b506003949350505050565b60008281526101676020526040812060ff8316610b4457549050610715565b60ff831660011415610b5b57600101549050610715565b60ff831660021415610b7257600201549050610715565b60405162461bcd60e51b815260206004820152602960248201527f476f7665726e6f723a20696e76616c69642076616c756520666f7220656e756d60448201526820566f74655479706560b81b606482015260840161085d565b306001600160a01b037f0000000000000000000000000000000000000000000000000000000000000000161415610c155760405162461bcd60e51b815260040161085d90612f9e565b7f00000000000000000000000000000000000000000000000000000000000000006001600160a01b0316610c5e6000805160206133a7833981519152546001600160a01b031690565b6001600160a01b031614610c845760405162461bcd60e51b815260040161085d90612fea565b610c8d826117f3565b610c9982826001611865565b5050565b6000306001600160a01b037f00000000000000000000000000000000000000000000000000000000000000001614610d3d5760405162461bcd60e51b815260206004820152603860248201527f555550535570677261646561626c653a206d757374206e6f742062652063616c60448201527f6c6564207468726f7567682064656c656761746563616c6c0000000000000000606482015260840161085d565b506000805160206133a783398151915290565b600080339050610d7184828560405180602001604052806000815250611a50565b949350505050565b6101658181548110610d8a57600080fd5b600091825260209091200154905081565b6101668181548110610dac57600080fd5b6000918252602090912001546001600160a01b0316905081565b600080339050610e0e86828787878080601f016020809104026020016040519081016040528093929190818152602001838380828437600092019190915250611a5092505050565b9695505050505050565b600080610e2a336106bf6001436132ba565b1015610eaa5760405162461bcd60e51b815260206004820152604360248201527f476f7665726e6f72436f6d7061746962696c697479427261766f3a2070726f7060448201527f6f73657220766f7465732062656c6f772070726f706f73616c207468726573686064820152621bdb1960ea1b608482015260a40161085d565b6000610ebf86868686805190602001206111cc565b90508451865114610ee25760405162461bcd60e51b815260040161085d90612f5d565b8351865114610f035760405162461bcd60e51b815260040161085d90612f5d565b6000865111610f545760405162461bcd60e51b815260206004820152601860248201527f476f7665726e6f723a20656d7074792070726f706f73616c0000000000000000604482015260640161085d565b60008181526101306020908152604091829020825191820190925281546001600160401b03169081905215610fd55760405162461bcd60e51b815260206004820152602160248201527f476f7665726e6f723a2070726f706f73616c20616c72656164792065786973746044820152607360f81b606482015260840161085d565b6000610fe581611c08565b611c08565b610fee43611c08565b610ff89190613250565b90506000611007610fe061071b565b6110119083613250565b835467ffffffffffffffff19166001600160401b038416178455905060018301805467ffffffffffffffff19166001600160401b0383161790557f7d84a6263ae0d98d3329bd7b46bb4e8d6f98cd35a7adb45c274c8b7fd5ebd5e084338b8b8d516001600160401b0381111561109757634e487b7160e01b600052604160045260246000fd5b6040519080825280602002602001820160405280156110ca57816020015b60608152602001906001900390816110b55790505b508c88888e6040516110e4999897969594939291906130cf565b60405180910390a15091979650505050505050565b600061071582611bb0565b6000818152610130602090815260408083208151928301909152600101546001600160401b0316908190526108a4565b3330146111835760405162461bcd60e51b815260206004820152601860248201527f476f7665726e6f723a206f6e6c79476f7665726e616e63650000000000000000604482015260640161085d565b6111c58483838080601f016020809104026020016040519081016040528093929190818152602001838380828437600092019190915250889250611c74915050565b5050505050565b6000848484846040516020016111e59493929190612ed7565b60408051601f19818403018152919052805160209091012095945050505050565b600061071582611b69565b600054610100900460ff1661122c5760005460ff1615611230565b303b155b61124c5760405162461bcd60e51b815260040161085d90613036565b600054610100900460ff1615801561126e576000805461ffff19166101011790555b61127787611ca4565b61016180546001600160a01b0319166001600160a01b038a1617905561016286905561016385905561016484905582516112b99061016590602086019061267d565b5081516112ce906101669060208501906126c4565b5080156112e1576000805461ff00191690555b5050505050505050565b610161546001600160a01b031633146113365760405162461bcd60e51b815260206004820152600d60248201526c1058d8d95cdcc819195b9a5959609a1b604482015260640161085d565b60005b610166548110156113dd57826001600160a01b0316610166828154811061137057634e487b7160e01b600052603260045260246000fd5b6000918252602090912001546001600160a01b031614156113cb5760405162461bcd60e51b8152602060048201526015602482015274151bdad95b88185b1c9958591e481a5b881b1a5cdd605a1b604482015260640161085d565b806113d581613338565b915050611339565b50610166805460018082019092557fa5a4c57b7184ec73d55be4993773cb4eef681bc86a28d0285cd66efb50676a970180546001600160a01b0319166001600160a01b038516908117909155610165805492830181556000527fd91ca5e44fa96a1732bfaed7fe33fc20ed69a9895cde1f18c7dcabca39d6a78b90910182905560408051918252602082018390527f6ceb863bca038349b7317c60cc616d536413690f5699e38b4a6748284600e34f910160405180910390a15050565b600080805b6101665481101561157557600061016682815481106114ce57634e487b7160e01b600052603260045260246000fd5b600091825260209091200154604051632394e7a360e21b8152600481018790526001600160a01b0390911690638e539e8c9060240160206040518083038186803b15801561151b57600080fd5b505afa15801561152f573d6000803e3d6000fd5b505050506040513d601f19601f820116820180604052508101906115539190612c98565b905061155f8184613238565b925050808061156d90613338565b91505061149f565b5092915050565b600080805b6101665481101561169757600061016682815481106115b057634e487b7160e01b600052603260045260246000fd5b600091825260209091200154604051630748d63560e31b81526001600160a01b0388811660048301526024820188905290911690633a46b1a89060440160206040518083038186803b15801561160557600080fd5b505afa158015611619573d6000803e3d6000fd5b505050506040513d601f19601f8201168201806040525081019061163d9190612c98565b9050610165828154811061166157634e487b7160e01b600052603260045260246000fd5b906000526020600020015481611677919061329b565b6116819084613238565b925050808061168f90613338565b915050611581565b509392505050565b60006064610163546116b1919061327b565b6116ba8361149a565b610715919061329b565b6000806116d3868686866111cc565b905060006116e082610a27565b9050600481600781111561170457634e487b7160e01b600052602160045260246000fd5b148061172f5750600581600781111561172d57634e487b7160e01b600052602160045260246000fd5b145b6117855760405162461bcd60e51b815260206004820152602160248201527f476f7665726e6f723a2070726f706f73616c206e6f74207375636365737366756044820152601b60fa1b606482015260840161085d565b6000828152610130602052604090819020600201805460ff19166001179055517f712ae1383f79ac853f8d882153778e0260ef8f03b504e2866e0593e04d2b291f906117d49084815260200190565b60405180910390a16117e98288888888611cfb565b5095945050505050565b600054610100900460ff1661180e5760005460ff1615611812565b303b155b61182e5760405162461bcd60e51b815260040161085d90613036565b600054610100900460ff16158015611850576000805461ffff19166101011790555b8015610c99576000805461ff00191690555050565b7f4910fdfa16fed3260ed0e7147f7cc6da11a60208b5b9406d12a635614ffd91435460ff161561189d5761189883611e24565b505050565b826001600160a01b03166352d1902d6040518163ffffffff1660e01b815260040160206040518083038186803b1580156118d657600080fd5b505afa925050508015611906575060408051601f3d908101601f1916820190925261190391810190612c98565b60015b6119695760405162461bcd60e51b815260206004820152602e60248201527f45524331393637557067726164653a206e657720696d706c656d656e7461746960448201526d6f6e206973206e6f74205555505360901b606482015260840161085d565b6000805160206133a783398151915281146119d85760405162461bcd60e51b815260206004820152602960248201527f45524331393637557067726164653a20756e737570706f727465642070726f786044820152681a58589b195555525160ba1b606482015260840161085d565b50611898838383611ec0565b60006107156119f1611eeb565b8360405161190160f01b6020820152602281018390526042810182905260009060620160405160208183030381529060405280519060200120905092915050565b6000806000611a4387878787611f66565b915091506117e981612053565b6000848152610130602052604081206001611a6a87610a27565b6007811115611a8957634e487b7160e01b600052602160045260246000fd5b14611ae25760405162461bcd60e51b815260206004820152602360248201527f476f7665726e6f723a20766f7465206e6f742063757272656e746c792061637460448201526269766560e81b606482015260840161085d565b604080516020810190915281546001600160401b031690819052600090611b0a90879061157c565b9050611b1887878784612254565b856001600160a01b03167fb8e138887d0aa13bab447e82de9d5c1777041ecd21ca36ba824ff1e6c07ddda488878488604051611b5794939291906131bd565b60405180910390a29695505050505050565b600081815261016760205260408120600281015460018201548391611b8d91613238565b9050611b9a81606461329b565b611ba66106df8661087b565b1115949350505050565b600081815261016760205260408120805460018201548391611bd191613238565b905060646101645482611be4919061329b565b611bee919061327b565b6001830154611bfe90606461329b565b1015949350505050565b60006001600160401b03821115611c705760405162461bcd60e51b815260206004820152602660248201527f53616665436173743a2076616c756520646f65736e27742066697420696e203660448201526534206269747360d01b606482015260840161085d565b5090565b6060611c9a8484846040518060600160405280602981526020016133c76029913961236e565b90505b9392505050565b600054610100900460ff16611ccb5760405162461bcd60e51b815260040161085d90613084565b611cf281611ced6040805180820190915260018152603160f81b602082015290565b612494565b610990816124d5565b600060405180606001604052806027815260200161338060279139905060005b8551811015611e1b57600080878381518110611d4757634e487b7160e01b600052603260045260246000fd5b60200260200101516001600160a01b0316878481518110611d7857634e487b7160e01b600052603260045260246000fd5b6020026020010151878581518110611da057634e487b7160e01b600052603260045260246000fd5b6020026020010151604051611db59190612ebb565b60006040518083038185875af1925050503d8060008114611df2576040519150601f19603f3d011682016040523d82523d6000602084013e611df7565b606091505b5091509150611e07828286612510565b50505080611e1490613338565b9050611d1b565b50505050505050565b6001600160a01b0381163b611e915760405162461bcd60e51b815260206004820152602d60248201527f455243313936373a206e657720696d706c656d656e746174696f6e206973206e60448201526c1bdd08184818dbdb9d1c9858dd609a1b606482015260840161085d565b6000805160206133a783398151915280546001600160a01b0319166001600160a01b0392909216919091179055565b611ec983612549565b600082511180611ed65750805b1561189857611ee58383612589565b50505050565b600061072d7f8b73c3c69bb8fe3d512ecc4cf759cc79239f7b179b0ffacaa9a75d522b39400f611f1a60c95490565b60ca546040805160208101859052908101839052606081018290524660808201523060a082015260009060c0016040516020818303038152906040528051906020012090509392505050565b6000807f7fffffffffffffffffffffffffffffff5d576e7357a4501ddfe92f46681b20a0831115611f9d575060009050600361204a565b8460ff16601b14158015611fb557508460ff16601c14155b15611fc6575060009050600461204a565b6040805160008082526020820180845289905260ff881692820192909252606081018690526080810185905260019060a0016020604051602081039080840390855afa15801561201a573d6000803e3d6000fd5b5050604051601f1901519150506001600160a01b0381166120435760006001925092505061204a565b9150600090505b94509492505050565b600081600481111561207557634e487b7160e01b600052602160045260246000fd5b141561207e5750565b60018160048111156120a057634e487b7160e01b600052602160045260246000fd5b14156120ee5760405162461bcd60e51b815260206004820152601860248201527f45434453413a20696e76616c6964207369676e61747572650000000000000000604482015260640161085d565b600281600481111561211057634e487b7160e01b600052602160045260246000fd5b141561215e5760405162461bcd60e51b815260206004820152601f60248201527f45434453413a20696e76616c6964207369676e6174757265206c656e67746800604482015260640161085d565b600381600481111561218057634e487b7160e01b600052602160045260246000fd5b14156121d95760405162461bcd60e51b815260206004820152602260248201527f45434453413a20696e76616c6964207369676e6174757265202773272076616c604482015261756560f01b606482015260840161085d565b60048160048111156121fb57634e487b7160e01b600052602160045260246000fd5b14156109905760405162461bcd60e51b815260206004820152602260248201527f45434453413a20696e76616c6964207369676e6174757265202776272076616c604482015261756560f01b606482015260840161085d565b6000848152610167602090815260408083206001600160a01b0387168452600381019092529091205460ff16156122dd5760405162461bcd60e51b815260206004820152602760248201527f476f7665726e6f72566f74696e6753696d706c653a20766f746520616c726561604482015266191e4818d85cdd60ca1b606482015260840161085d565b6001600160a01b03841660009081526003820160205260408120805460ff1916600117905560ff168360ff16141561232e57818160000160008282546123239190613238565b909155506111c59050565b60ff83166001141561234e57818160010160008282546123239190613238565b60ff831660021415610b7257818160020160008282546123239190613238565b6060824710156123cf5760405162461bcd60e51b815260206004820152602660248201527f416464726573733a20696e73756666696369656e742062616c616e636520666f6044820152651c8818d85b1b60d21b606482015260840161085d565b6001600160a01b0385163b6124265760405162461bcd60e51b815260206004820152601d60248201527f416464726573733a2063616c6c20746f206e6f6e2d636f6e7472616374000000604482015260640161085d565b600080866001600160a01b031685876040516124429190612ebb565b60006040518083038185875af1925050503d806000811461247f576040519150601f19603f3d011682016040523d82523d6000602084013e612484565b606091505b5091509150610a1c828286612510565b600054610100900460ff166124bb5760405162461bcd60e51b815260040161085d90613084565b81516020928301208151919092012060c99190915560ca55565b600054610100900460ff166124fc5760405162461bcd60e51b815260040161085d90613084565b8051610c999061012f906020840190612719565b6060831561251f575081611c9d565b82511561252f5782518084602001fd5b8160405162461bcd60e51b815260040161085d9190612f4a565b61255281611e24565b6040516001600160a01b038216907fbc7cd75a20ee27fd9adebab32041f755214dbc6bffa90cc0225b39da2e5c2d3b90600090a250565b60606001600160a01b0383163b6125f15760405162461bcd60e51b815260206004820152602660248201527f416464726573733a2064656c65676174652063616c6c20746f206e6f6e2d636f6044820152651b9d1c9858dd60d21b606482015260840161085d565b600080846001600160a01b03168460405161260c9190612ebb565b600060405180830381855af49150503d8060008114612647576040519150601f19603f3d011682016040523d82523d6000602084013e61264c565b606091505b509150915061267482826040518060600160405280602781526020016133f060279139612510565b95945050505050565b8280548282559060005260206000209081019282156126b8579160200282015b828111156126b857825182559160200191906001019061269d565b50611c7092915061278c565b8280548282559060005260206000209081019282156126b8579160200282015b828111156126b857825182546001600160a01b0319166001600160a01b039091161782556020909201916001909101906126e4565b828054612725906132fd565b90600052602060002090601f01602090048101928261274757600085556126b8565b82601f1061276057805160ff19168380011785556126b8565b828001600101855582156126b857918201828111156126b857825182559160200191906001019061269d565b5b80821115611c70576000815560010161278d565b80356001600160a01b03811681146127b857600080fd5b919050565b600082601f8301126127cd578081fd5b813560206127e26127dd83613215565b6131e5565b80838252828201915082860187848660051b8901011115612801578586fd5b855b8581101561282657612814826127a1565b84529284019290840190600101612803565b5090979650505050505050565b600082601f830112612843578081fd5b813560206128536127dd83613215565b80838252828201915082860187848660051b8901011115612872578586fd5b855b858110156128265781356001600160401b03811115612891578788fd5b61289f8a87838c0101612955565b8552509284019290840190600101612874565b600082601f8301126128c2578081fd5b813560206128d26127dd83613215565b80838252828201915082860187848660051b89010111156128f1578586fd5b855b85811015612826578135845292840192908401906001016128f3565b60008083601f840112612920578182fd5b5081356001600160401b03811115612936578182fd5b60208301915083602082850101111561294e57600080fd5b9250929050565b600082601f830112612965578081fd5b81356001600160401b0381111561297e5761297e613369565b612991601f8201601f19166020016131e5565b8181528460208386010111156129a5578283fd5b816020850160208301379081016020019190915292915050565b803560ff811681146127b857600080fd5b6000602082840312156129e1578081fd5b611c9d826127a1565b600080604083850312156129fc578081fd5b612a05836127a1565b915060208301356001600160401b03811115612a1f578182fd5b612a2b85828601612955565b9150509250929050565b600080600080600080600060e0888a031215612a4f578283fd5b612a58886127a1565b965060208801356001600160401b0380821115612a73578485fd5b612a7f8b838c01612955565b975060408a0135965060608a0135955060808a0135945060a08a0135915080821115612aa9578384fd5b612ab58b838c016128b2565b935060c08a0135915080821115612aca578283fd5b50612ad78a828b016127bd565b91505092959891949750929550565b60008060408385031215612af8578182fd5b612b01836127a1565b946020939093013593505050565b60008060008060608587031215612b24578182fd5b612b2d856127a1565b93506020850135925060408501356001600160401b03811115612b4e578283fd5b612b5a8782880161290f565b95989497509550505050565b60008060008060808587031215612b7b578182fd5b84356001600160401b0380821115612b91578384fd5b612b9d888389016127bd565b95506020870135915080821115612bb2578384fd5b612bbe888389016128b2565b94506040870135915080821115612bd3578384fd5b50612be087828801612833565b949793965093946060013593505050565b60008060008060808587031215612c06578182fd5b84356001600160401b0380821115612c1c578384fd5b612c28888389016127bd565b95506020870135915080821115612c3d578384fd5b612c49888389016128b2565b94506040870135915080821115612c5e578384fd5b612c6a88838901612833565b93506060870135915080821115612c7f578283fd5b50612c8c87828801612955565b91505092959194509250565b600060208284031215612ca9578081fd5b5051919050565b600060208284031215612cc1578081fd5b81356001600160e01b031981168114611c9d578182fd5b600060208284031215612ce9578081fd5b5035919050565b60008060408385031215612d02578182fd5b82359150612d12602084016127a1565b90509250929050565b60008060408385031215612d2d578182fd5b82359150612d12602084016129bf565b60008060008060608587031215612d52578182fd5b84359350612d62602086016129bf565b925060408501356001600160401b03811115612b4e578283fd5b600080600080600060a08688031215612d93578283fd5b85359450612da3602087016129bf565b9350612db1604087016129bf565b94979396509394606081013594506080013592915050565b6000815180845260208085019450808401835b83811015612e015781516001600160a01b031687529582019590820190600101612ddc565b509495945050505050565b600081518084526020808501808196508360051b81019150828601855b85811015612e53578284038952612e41848351612e8f565b98850198935090840190600101612e29565b5091979650505050505050565b6000815180845260208085019450808401835b83811015612e0157815187529582019590820190600101612e73565b60008151808452612ea78160208601602086016132d1565b601f01601f19169290920160200192915050565b60008251612ecd8184602087016132d1565b9190910192915050565b608081526000612eea6080830187612dc9565b8281036020840152612efc8187612e60565b90508281036040840152612f108186612e0c565b91505082606083015295945050505050565b6020810160088310612f4457634e487b7160e01b600052602160045260246000fd5b91905290565b602081526000611c9d6020830184612e8f565b60208082526021908201527f476f7665726e6f723a20696e76616c69642070726f706f73616c206c656e67746040820152600d60fb1b606082015260800190565b6020808252602c908201527f46756e6374696f6e206d7573742062652063616c6c6564207468726f7567682060408201526b19195b1959d85d1958d85b1b60a21b606082015260800190565b6020808252602c908201527f46756e6374696f6e206d7573742062652063616c6c6564207468726f7567682060408201526b6163746976652070726f787960a01b606082015260800190565b6020808252602e908201527f496e697469616c697a61626c653a20636f6e747261637420697320616c72656160408201526d191e481a5b9a5d1a585b1a5e995960921b606082015260800190565b6020808252602b908201527f496e697469616c697a61626c653a20636f6e7472616374206973206e6f74206960408201526a6e697469616c697a696e6760a81b606082015260800190565b60006101208b8352602060018060a01b038c16818501528160408501526130f88285018c612dc9565b9150838203606085015261310c828b612e60565b915083820360808501528189518084528284019150828160051b850101838c01865b8381101561315c57601f1987840301855261314a838351612e8f565b9486019492509085019060010161312e565b505086810360a0880152613170818c612e0c565b94505050505061318b60c08401876001600160401b03169052565b6001600160401b03851660e08401528281036101008401526131ad8185612e8f565b9c9b505050505050505050505050565b84815260ff84166020820152826040820152608060608201526000610e0e6080830184612e8f565b604051601f8201601f191681016001600160401b038111828210171561320d5761320d613369565b604052919050565b60006001600160401b0382111561322e5761322e613369565b5060051b60200190565b6000821982111561324b5761324b613353565b500190565b60006001600160401b0380831681851680830382111561327257613272613353565b01949350505050565b60008261329657634e487b7160e01b81526012600452602481fd5b500490565b60008160001904831182151516156132b5576132b5613353565b500290565b6000828210156132cc576132cc613353565b500390565b60005b838110156132ec5781810151838201526020016132d4565b83811115611ee55750506000910152565b600181811c9082168061331157607f821691505b6020821081141561333257634e487b7160e01b600052602260045260246000fd5b50919050565b600060001982141561334c5761334c613353565b5060010190565b634e487b7160e01b600052601160045260246000fd5b634e487b7160e01b600052604160045260246000fdfe476f7665726e6f723a2063616c6c20726576657274656420776974686f7574206d657373616765360894a13ba1a3210667c828492db98dca3e2076cc3735a920a3ca505d382bbc416464726573733a206c6f772d6c6576656c2063616c6c20776974682076616c7565206661696c6564416464726573733a206c6f772d6c6576656c2064656c65676174652063616c6c206661696c6564a264697066735822122001a87f3a9258a07ce496065553ce14645b078fab8df46b1fe9cfb7eb11927e8664736f6c63430008040033",
  "linkReferences": {},
  "deployedLinkReferences": {}
}