{
  "_format": "hh-sol-artifact-1",
  "contractName": "Membership",
  "sourceName": "contracts/Membership.sol",
  "abi": [
    {
      "anonymous": false,
      "inputs": [
        {
          "indexed": false,
          "internalType": "address",
          "name": "previousAdmin",
          "type": "address"
        },
        {
          "indexed": false,
          "internalType": "address",
          "name": "newAdmin",
          "type": "address"
        }
      ],
      "name": "AdminChanged",
      "type": "event"
    },
    {
      "anonymous": false,
      "inputs": [
        {
          "indexed": true,
          "internalType": "address",
          "name": "owner",
          "type": "address"
        },
        {
          "indexed": true,
          "internalType": "address",
          "name": "approved",
          "type": "address"
        },
        {
          "indexed": true,
          "internalType": "uint256",
          "name": "tokenId",
          "type": "uint256"
        }
      ],
      "name": "Approval",
      "type": "event"
    },
    {
      "anonymous": false,
      "inputs": [
        {
          "indexed": true,
          "internalType": "address",
          "name": "owner",
          "type": "address"
        },
        {
          "indexed": true,
          "internalType": "address",
          "name": "operator",
          "type": "address"
        },
        {
          "indexed": false,
          "internalType": "bool",
          "name": "approved",
          "type": "bool"
        }
      ],
      "name": "ApprovalForAll",
      "type": "event"
    },
    {
      "anonymous": false,
      "inputs": [
        {
          "indexed": true,
          "internalType": "address",
          "name": "beacon",
          "type": "address"
        }
      ],
      "name": "BeaconUpgraded",
      "type": "event"
    },
    {
      "anonymous": false,
      "inputs": [
        {
          "indexed": false,
          "internalType": "uint256",
          "name": "tokenId",
          "type": "uint256"
        },
        {
          "indexed": false,
          "internalType": "address",
          "name": "member",
          "type": "address"
        },
        {
          "indexed": false,
          "internalType": "address",
          "name": "owner",
          "type": "address"
        }
      ],
      "name": "CreateMember",
      "type": "event"
    },
    {
      "anonymous": false,
      "inputs": [
        {
          "indexed": true,
          "internalType": "address",
          "name": "delegator",
          "type": "address"
        },
        {
          "indexed": true,
          "internalType": "address",
          "name": "fromDelegate",
          "type": "address"
        },
        {
          "indexed": true,
          "internalType": "address",
          "name": "toDelegate",
          "type": "address"
        }
      ],
      "name": "DelegateChanged",
      "type": "event"
    },
    {
      "anonymous": false,
      "inputs": [
        {
          "indexed": true,
          "internalType": "address",
          "name": "delegate",
          "type": "address"
        },
        {
          "indexed": false,
          "internalType": "uint256",
          "name": "previousBalance",
          "type": "uint256"
        },
        {
          "indexed": false,
          "internalType": "uint256",
          "name": "newBalance",
          "type": "uint256"
        }
      ],
      "name": "DelegateVotesChanged",
      "type": "event"
    },
    {
      "anonymous": false,
      "inputs": [
        {
          "indexed": true,
          "internalType": "address",
          "name": "from",
          "type": "address"
        },
        {
          "indexed": true,
          "internalType": "address",
          "name": "to",
          "type": "address"
        },
        {
          "indexed": true,
          "internalType": "uint256",
          "name": "tokenId",
          "type": "uint256"
        }
      ],
      "name": "Transfer",
      "type": "event"
    },
    {
      "anonymous": false,
      "inputs": [
        {
          "indexed": false,
          "internalType": "uint256",
          "name": "tokenId",
          "type": "uint256"
        },
        {
          "indexed": false,
          "internalType": "address",
          "name": "member",
          "type": "address"
        },
        {
          "indexed": false,
          "internalType": "address",
          "name": "owner",
          "type": "address"
        }
      ],
      "name": "UpdateMember",
      "type": "event"
    },
    {
      "anonymous": false,
      "inputs": [
        {
          "indexed": true,
          "internalType": "address",
          "name": "implementation",
          "type": "address"
        }
      ],
      "name": "Upgraded",
      "type": "event"
    },
    {
      "inputs": [],
      "name": "DOMAIN_SEPARATOR",
      "outputs": [
        {
          "internalType": "bytes32",
          "name": "",
          "type": "bytes32"
        }
      ],
      "stateMutability": "view",
      "type": "function"
    },
    {
      "inputs": [
        {
          "internalType": "address",
          "name": "to",
          "type": "address"
        },
        {
          "internalType": "uint256",
          "name": "tokenId",
          "type": "uint256"
        }
      ],
      "name": "approve",
      "outputs": [],
      "stateMutability": "nonpayable",
      "type": "function"
    },
    {
      "inputs": [
        {
          "internalType": "address",
          "name": "owner",
          "type": "address"
        }
      ],
      "name": "balanceOf",
      "outputs": [
        {
          "internalType": "uint256",
          "name": "",
          "type": "uint256"
        }
      ],
      "stateMutability": "view",
      "type": "function"
    },
    {
      "inputs": [
        {
          "internalType": "address",
          "name": "to",
          "type": "address"
        }
      ],
      "name": "createMember",
      "outputs": [
        {
          "internalType": "uint256",
          "name": "",
          "type": "uint256"
        },
        {
          "internalType": "address",
          "name": "",
          "type": "address"
        }
      ],
      "stateMutability": "nonpayable",
      "type": "function"
    },
    {
      "inputs": [],
      "name": "dao",
      "outputs": [
        {
          "internalType": "address payable",
          "name": "",
          "type": "address"
        }
      ],
      "stateMutability": "view",
      "type": "function"
    },
    {
      "inputs": [
        {
          "internalType": "address",
          "name": "delegatee",
          "type": "address"
        }
      ],
      "name": "delegate",
      "outputs": [],
      "stateMutability": "nonpayable",
      "type": "function"
    },
    {
      "inputs": [
        {
          "internalType": "address",
          "name": "delegatee",
          "type": "address"
        },
        {
          "internalType": "uint256",
          "name": "nonce",
          "type": "uint256"
        },
        {
          "internalType": "uint256",
          "name": "expiry",
          "type": "uint256"
        },
        {
          "internalType": "uint8",
          "name": "v",
          "type": "uint8"
        },
        {
          "internalType": "bytes32",
          "name": "r",
          "type": "bytes32"
        },
        {
          "internalType": "bytes32",
          "name": "s",
          "type": "bytes32"
        }
      ],
      "name": "delegateBySig",
      "outputs": [],
      "stateMutability": "nonpayable",
      "type": "function"
    },
    {
      "inputs": [
        {
          "internalType": "address",
          "name": "account",
          "type": "address"
        }
      ],
      "name": "delegates",
      "outputs": [
        {
          "internalType": "address",
          "name": "",
          "type": "address"
        }
      ],
      "stateMutability": "view",
      "type": "function"
    },
    {
      "inputs": [],
      "name": "getAllMembers",
      "outputs": [
        {
          "internalType": "address[]",
          "name": "",
          "type": "address[]"
        }
      ],
      "stateMutability": "view",
      "type": "function"
    },
    {
      "inputs": [
        {
          "internalType": "uint256",
          "name": "tokenId",
          "type": "uint256"
        }
      ],
      "name": "getApproved",
      "outputs": [
        {
          "internalType": "address",
          "name": "",
          "type": "address"
        }
      ],
      "stateMutability": "view",
      "type": "function"
    },
    {
      "inputs": [
        {
          "internalType": "uint256",
          "name": "blockNumber",
          "type": "uint256"
        }
      ],
      "name": "getPastTotalSupply",
      "outputs": [
        {
          "internalType": "uint256",
          "name": "",
          "type": "uint256"
        }
      ],
      "stateMutability": "view",
      "type": "function"
    },
    {
      "inputs": [
        {
          "internalType": "address",
          "name": "account",
          "type": "address"
        },
        {
          "internalType": "uint256",
          "name": "blockNumber",
          "type": "uint256"
        }
      ],
      "name": "getPastVotes",
      "outputs": [
        {
          "internalType": "uint256",
          "name": "",
          "type": "uint256"
        }
      ],
      "stateMutability": "view",
      "type": "function"
    },
    {
      "inputs": [
        {
          "internalType": "address",
          "name": "account",
          "type": "address"
        }
      ],
      "name": "getVotes",
      "outputs": [
        {
          "internalType": "uint256",
          "name": "",
          "type": "uint256"
        }
      ],
      "stateMutability": "view",
      "type": "function"
    },
    {
      "inputs": [
        {
          "internalType": "address",
          "name": "_dao",
          "type": "address"
        },
        {
          "internalType": "string",
          "name": "_name",
          "type": "string"
        }
      ],
      "name": "initialize",
      "outputs": [],
      "stateMutability": "nonpayable",
      "type": "function"
    },
    {
      "inputs": [
        {
          "internalType": "address",
          "name": "owner",
          "type": "address"
        },
        {
          "internalType": "address",
          "name": "operator",
          "type": "address"
        }
      ],
      "name": "isApprovedForAll",
      "outputs": [
        {
          "internalType": "bool",
          "name": "",
          "type": "bool"
        }
      ],
      "stateMutability": "view",
      "type": "function"
    },
    {
      "inputs": [],
      "name": "lastTokenId",
      "outputs": [
        {
          "internalType": "uint256",
          "name": "",
          "type": "uint256"
        }
      ],
      "stateMutability": "view",
      "type": "function"
    },
    {
      "inputs": [
        {
          "internalType": "uint256",
          "name": "index",
          "type": "uint256"
        }
      ],
      "name": "members",
      "outputs": [
        {
          "internalType": "address",
          "name": "",
          "type": "address"
        }
      ],
      "stateMutability": "view",
      "type": "function"
    },
    {
      "inputs": [],
      "name": "name",
      "outputs": [
        {
          "internalType": "string",
          "name": "",
          "type": "string"
        }
      ],
      "stateMutability": "view",
      "type": "function"
    },
    {
      "inputs": [
        {
          "internalType": "address",
          "name": "owner",
          "type": "address"
        }
      ],
      "name": "nonces",
      "outputs": [
        {
          "internalType": "uint256",
          "name": "",
          "type": "uint256"
        }
      ],
      "stateMutability": "view",
      "type": "function"
    },
    {
      "inputs": [
        {
          "internalType": "uint256",
          "name": "tokenId",
          "type": "uint256"
        }
      ],
      "name": "ownerOf",
      "outputs": [
        {
          "internalType": "address",
          "name": "",
          "type": "address"
        }
      ],
      "stateMutability": "view",
      "type": "function"
    },
    {
      "inputs": [
        {
          "internalType": "address",
          "name": "",
          "type": "address"
        }
      ],
      "name": "ownerToTokenId",
      "outputs": [
        {
          "internalType": "uint256",
          "name": "",
          "type": "uint256"
        }
      ],
      "stateMutability": "view",
      "type": "function"
    },
    {
      "inputs": [],
      "name": "proxiableUUID",
      "outputs": [
        {
          "internalType": "bytes32",
          "name": "",
          "type": "bytes32"
        }
      ],
      "stateMutability": "view",
      "type": "function"
    },
    {
      "inputs": [
        {
          "internalType": "address",
          "name": "from",
          "type": "address"
        },
        {
          "internalType": "address",
          "name": "to",
          "type": "address"
        },
        {
          "internalType": "uint256",
          "name": "tokenId",
          "type": "uint256"
        }
      ],
      "name": "safeTransferFrom",
      "outputs": [],
      "stateMutability": "nonpayable",
      "type": "function"
    },
    {
      "inputs": [
        {
          "internalType": "address",
          "name": "from",
          "type": "address"
        },
        {
          "internalType": "address",
          "name": "to",
          "type": "address"
        },
        {
          "internalType": "uint256",
          "name": "tokenId",
          "type": "uint256"
        },
        {
          "internalType": "bytes",
          "name": "_data",
          "type": "bytes"
        }
      ],
      "name": "safeTransferFrom",
      "outputs": [],
      "stateMutability": "nonpayable",
      "type": "function"
    },
    {
      "inputs": [
        {
          "internalType": "address",
          "name": "operator",
          "type": "address"
        },
        {
          "internalType": "bool",
          "name": "approved",
          "type": "bool"
        }
      ],
      "name": "setApprovalForAll",
      "outputs": [],
      "stateMutability": "nonpayable",
      "type": "function"
    },
    {
      "inputs": [
        {
          "internalType": "bytes4",
          "name": "interfaceId",
          "type": "bytes4"
        }
      ],
      "name": "supportsInterface",
      "outputs": [
        {
          "internalType": "bool",
          "name": "",
          "type": "bool"
        }
      ],
      "stateMutability": "view",
      "type": "function"
    },
    {
      "inputs": [],
      "name": "symbol",
      "outputs": [
        {
          "internalType": "string",
          "name": "",
          "type": "string"
        }
      ],
      "stateMutability": "view",
      "type": "function"
    },
    {
      "inputs": [
        {
          "internalType": "uint256",
          "name": "",
          "type": "uint256"
        }
      ],
      "name": "tokenIdToMember",
      "outputs": [
        {
          "internalType": "address",
          "name": "",
          "type": "address"
        }
      ],
      "stateMutability": "view",
      "type": "function"
    },
    {
      "inputs": [
        {
          "internalType": "uint256",
          "name": "tokenId",
          "type": "uint256"
        }
      ],
      "name": "tokenURI",
      "outputs": [
        {
          "internalType": "string",
          "name": "",
          "type": "string"
        }
      ],
      "stateMutability": "view",
      "type": "function"
    },
    {
      "inputs": [],
      "name": "totalMembers",
      "outputs": [
        {
          "internalType": "uint256",
          "name": "",
          "type": "uint256"
        }
      ],
      "stateMutability": "view",
      "type": "function"
    },
    {
      "inputs": [],
      "name": "totalSupply",
      "outputs": [
        {
          "internalType": "uint256",
          "name": "",
          "type": "uint256"
        }
      ],
      "stateMutability": "view",
      "type": "function"
    },
    {
      "inputs": [
        {
          "internalType": "address",
          "name": "from",
          "type": "address"
        },
        {
          "internalType": "address",
          "name": "to",
          "type": "address"
        },
        {
          "internalType": "uint256",
          "name": "tokenId",
          "type": "uint256"
        }
      ],
      "name": "transferFrom",
      "outputs": [],
      "stateMutability": "nonpayable",
      "type": "function"
    },
    {
      "inputs": [
        {
          "internalType": "address",
          "name": "newImplementation",
          "type": "address"
        }
      ],
      "name": "upgradeTo",
      "outputs": [],
      "stateMutability": "nonpayable",
      "type": "function"
    },
    {
      "inputs": [
        {
          "internalType": "address",
          "name": "newImplementation",
          "type": "address"
        },
        {
          "internalType": "bytes",
          "name": "data",
          "type": "bytes"
        }
      ],
      "name": "upgradeToAndCall",
      "outputs": [],
      "stateMutability": "payable",
      "type": "function"
    }
  ],
  "bytecode": "0x60a06040523060601b60805234801561001757600080fd5b5060805160601c6140b861005260003960008181610c2101528181610c6401528181610d4b01528181610d8e0152610e1f01526140b86000f3fe608060405260043610620002235760003560e01c80635daf08ca116200012357806395d89b4111620000ad578063c3cda5201162000078578063c3cda520146200066f578063c87b56dd1462000694578063e985e9c514620006b9578063f399e22e1462000706578063f84ddf0b146200072b57600080fd5b806395d89b4114620005e85780639ab24eb01462000600578063a22cb4651462000625578063b88d4fde146200064a57600080fd5b80637c0f6b3511620000ee5780637c0f6b35146200053c5780637ecebe001462000563578063883a240614620005885780638e539e8c14620005c357600080fd5b80635daf08ca14620004cd5780636352211e14620004f257806370a08231146200051757806376e9255914620002ee57600080fd5b80633659cfe611620001b15780634814f035116200017c5780634814f03514620004225780634f1ef286146200045457806352d1902d146200046b578063587cde1e14620004835780635c19a95c14620004a857600080fd5b80633659cfe614620003905780633a46b1a814620003b55780634162169f14620003da57806342842e0e14620003fd57600080fd5b806318160ddd11620001f257806318160ddd14620002ee5780632124d529146200031057806323b872dd14620003535780633644e515146200037857600080fd5b806301ffc9a7146200022857806306fdde031462000262578063081812fc1462000289578063095ea7b314620002c7575b600080fd5b3480156200023557600080fd5b506200024d62000247366004620035bc565b62000743565b60405190151581526020015b60405180910390f35b3480156200026f57600080fd5b506200027a62000797565b6040516200025991906200384c565b3480156200029657600080fd5b50620002ae620002a8366004620035fa565b62000831565b6040516001600160a01b03909116815260200162000259565b348015620002d457600080fd5b50620002ec620002e636600462003515565b620008cc565b005b348015620002fb57600080fd5b50610194545b60405190815260200162000259565b3480156200031d57600080fd5b50620003356200032f36600462003327565b620009ed565b604080519283526001600160a01b0390911660208301520162000259565b3480156200036057600080fd5b50620002ec620003723660046200337b565b62000bcd565b3480156200038557600080fd5b506200030162000c05565b3480156200039d57600080fd5b50620002ec620003af36600462003327565b62000c16565b348015620003c257600080fd5b5062000301620003d436600462003515565b62000cf7565b348015620003e757600080fd5b5061019354620002ae906001600160a01b031681565b3480156200040a57600080fd5b50620002ec6200041c3660046200337b565b62000d23565b3480156200042f57600080fd5b50620003016200044136600462003327565b6101976020526000908152604090205481565b620002ec6200046536600462003467565b62000d40565b3480156200047857600080fd5b506200030162000e12565b3480156200049057600080fd5b50620002ae620004a236600462003327565b62000ec8565b348015620004b557600080fd5b50620002ec620004c736600462003327565b62000ee7565b348015620004da57600080fd5b50620002ae620004ec366004620035fa565b62000ef4565b348015620004ff57600080fd5b50620002ae62000511366004620035fa565b62000f34565b3480156200052457600080fd5b50620003016200053636600462003327565b62000fad565b3480156200054957600080fd5b506200055462001036565b604051620002599190620037fd565b3480156200057057600080fd5b50620003016200058236600462003327565b6200109a565b3480156200059557600080fd5b50620002ae620005a7366004620035fa565b610196602052600090815260409020546001600160a01b031681565b348015620005d057600080fd5b5062000301620005e2366004620035fa565b620010ba565b348015620005f557600080fd5b506200027a6200111b565b3480156200060d57600080fd5b50620003016200061f36600462003327565b6200112c565b3480156200063257600080fd5b50620002ec6200064436600462003429565b62001150565b3480156200065757600080fd5b50620002ec62000669366004620033bb565b6200115d565b3480156200067c57600080fd5b50620002ec6200068e36600462003541565b6200119c565b348015620006a157600080fd5b506200027a620006b3366004620035fa565b620012d5565b348015620006c657600080fd5b506200024d620006d836600462003344565b6001600160a01b03918216600090815260ce6020908152604080832093909416825291909152205460ff1690565b3480156200071357600080fd5b50620002ec62000725366004620034b9565b6200136b565b3480156200073857600080fd5b5062000301620014a4565b60006001600160e01b031982166380ac58cd60e01b14806200077557506001600160e01b03198216635b5e139f60e01b145b806200079157506301ffc9a760e01b6001600160e01b03198316145b92915050565b606060c98054620007a89062003a84565b80601f0160208091040260200160405190810160405280929190818152602001828054620007d69062003a84565b8015620008275780601f10620007fb5761010080835404028352916020019162000827565b820191906000526020600020905b8154815290600101906020018083116200080957829003601f168201915b5050505050905090565b600081815260cb60205260408120546001600160a01b0316620008b05760405162461bcd60e51b815260206004820152602c60248201527f4552433732313a20617070726f76656420717565727920666f72206e6f6e657860448201526b34b9ba32b73a103a37b5b2b760a11b60648201526084015b60405180910390fd5b50600090815260cd60205260409020546001600160a01b031690565b6000620008d98262000f34565b9050806001600160a01b0316836001600160a01b03161415620009495760405162461bcd60e51b815260206004820152602160248201527f4552433732313a20617070726f76616c20746f2063757272656e74206f776e656044820152603960f91b6064820152608401620008a7565b336001600160a01b0382161480620009685750620009688133620006d8565b620009dc5760405162461bcd60e51b815260206004820152603860248201527f4552433732313a20617070726f76652063616c6c6572206973206e6f74206f7760448201527f6e6572206e6f7220617070726f76656420666f7220616c6c00000000000000006064820152608401620008a7565b620009e88383620014b1565b505050565b6101935460009081906001600160a01b0316331462000a3f5760405162461bcd60e51b815260206004820152600d60248201526c1858d8d95cdcc819195b9a5959609a1b6044820152606401620008a7565b62000a4f61019580546001019055565b600062000a5c6101955490565b90506000308260405162000a7090620031c1565b6001600160a01b0390921682526020820152604001604051809103906000f08015801562000aa2573d6000803e3d6000fd5b5060008381526101966020908152604080832080546001600160a01b0386166001600160a01b0319918216811790925561019480546001810182559086527fa6f1ac7ad7b125ba5a5e1c96b00ad6914f90a503b1ac3d85a9dadbb4c639df9201805490911690911790558051918201905290815290915062000b28908690849062001521565b60008281526101966020526040908190205490517fc9959c6dc683a0c4166a6bc595616ac5efd4c4b2b30b36fae93fd8ccef7707c29162000b909185916001600160a01b03169089909283526001600160a01b03918216602084015216604082015260600190565b60405180910390a1506001600160a01b03938416600090815261019760209081526040808320549383526101969091529020549094931692915050565b62000bd933826200155b565b62000bf85760405162461bcd60e51b8152600401620008a7906200394b565b620009e88383836200165a565b600062000c1162001817565b905090565b306001600160a01b037f000000000000000000000000000000000000000000000000000000000000000016141562000c625760405162461bcd60e51b8152600401620008a790620038b3565b7f00000000000000000000000000000000000000000000000000000000000000006001600160a01b031662000cad60008051602062003ffc833981519152546001600160a01b031690565b6001600160a01b03161462000cd65760405162461bcd60e51b8152600401620008a790620038ff565b6040805160008082526020820190925262000cf49183919062001894565b50565b6001600160a01b03821660009081526101306020526040812062000d1c908362001a1c565b9392505050565b620009e8838383604051806020016040528060008152506200115d565b306001600160a01b037f000000000000000000000000000000000000000000000000000000000000000016141562000d8c5760405162461bcd60e51b8152600401620008a790620038b3565b7f00000000000000000000000000000000000000000000000000000000000000006001600160a01b031662000dd760008051602062003ffc833981519152546001600160a01b031690565b6001600160a01b03161462000e005760405162461bcd60e51b8152600401620008a790620038ff565b62000e0e8282600162001894565b5050565b6000306001600160a01b037f0000000000000000000000000000000000000000000000000000000000000000161462000eb45760405162461bcd60e51b815260206004820152603860248201527f555550535570677261646561626c653a206d757374206e6f742062652063616c60448201527f6c6564207468726f7567682064656c656761746563616c6c00000000000000006064820152608401620008a7565b5060008051602062003ffc83398151915290565b6001600160a01b03908116600090815261012f60205260409020541690565b3362000e0e818362001b57565b6000610194828154811062000f1957634e487b7160e01b600052603260045260246000fd5b6000918252602090912001546001600160a01b031692915050565b600081815260cb60205260408120546001600160a01b031680620007915760405162461bcd60e51b815260206004820152602960248201527f4552433732313a206f776e657220717565727920666f72206e6f6e657869737460448201526832b73a103a37b5b2b760b91b6064820152608401620008a7565b60006001600160a01b0382166200101a5760405162461bcd60e51b815260206004820152602a60248201527f4552433732313a2062616c616e636520717565727920666f7220746865207a65604482015269726f206164647265737360b01b6064820152608401620008a7565b506001600160a01b0316600090815260cc602052604090205490565b60606101948054806020026020016040519081016040528092919081815260200182805480156200082757602002820191906000526020600020905b81546001600160a01b0316815260019091019060200180831162001072575050505050905090565b6001600160a01b0381166000908152610132602052604081205462000791565b60004382106200110d5760405162461bcd60e51b815260206004820152601a60248201527f566f7465733a20626c6f636b206e6f7420796574206d696e65640000000000006044820152606401620008a7565b620007916101318362001a1c565b606060ca8054620007a89062003a84565b6001600160a01b038116600090815261013060205260408120620007919062001bd9565b62000e0e33838362001c48565b6200116933836200155b565b620011885760405162461bcd60e51b8152600401620008a7906200394b565b620011968484848462001d19565b50505050565b83421115620011ee5760405162461bcd60e51b815260206004820152601860248201527f566f7465733a207369676e6174757265206578706972656400000000000000006044820152606401620008a7565b604080517fe48329057bfd03d55e49b547132e39cffd9c1820ad7b9d4c5307691425d15adf60208201526001600160a01b0388169181019190915260608101869052608081018590526000906200126c90620012639060a0016040516020818303038152906040528051906020012062001d53565b85858562001da4565b9050620012798162001dd0565b8614620012c05760405162461bcd60e51b8152602060048201526014602482015273566f7465733a20696e76616c6964206e6f6e636560601b6044820152606401620008a7565b620012cc818862001b57565b50505050505050565b60606000620012e362000797565b620012ee8462001df9565b6000858152610196602052604090205462001312906001600160a01b031662001f27565b604051602001620013269392919062003692565b6040516020818303038152906040529050620013428162001f61565b60405160200162001354919062003777565b604051602081830303815290604052915050919050565b600054610100900460ff16620013885760005460ff16156200138c565b303b155b620013f15760405162461bcd60e51b815260206004820152602e60248201527f496e697469616c697a61626c653a20636f6e747261637420697320616c72656160448201526d191e481a5b9a5d1a585b1a5e995960921b6064820152608401620008a7565b600054610100900460ff1615801562001414576000805461ffff19166101011790555b62001471620014506040518060400160405280600b81526020016a0204d656d626572736869760ac1b81525084620020e990919063ffffffff16565b604051806040016040528060028152602001614d5360f01b81525062002117565b61019380546001600160a01b0319166001600160a01b0385161790558015620009e8576000805461ff0019169055505050565b600062000c116101955490565b600081815260cd6020526040902080546001600160a01b0319166001600160a01b0384169081179091558190620014e88262000f34565b6001600160a01b03167f8c5be1e5ebec7d5bd14f71427d1e84f3dd0314c0f7b2291e5b200ac8c7c3b92560405160405180910390a45050565b6200152d83836200214d565b6200153c6000848484620022ad565b620009e85760405162461bcd60e51b8152600401620008a79062003861565b600081815260cb60205260408120546001600160a01b0316620015d65760405162461bcd60e51b815260206004820152602c60248201527f4552433732313a206f70657261746f7220717565727920666f72206e6f6e657860448201526b34b9ba32b73a103a37b5b2b760a11b6064820152608401620008a7565b6000620015e38362000f34565b9050806001600160a01b0316846001600160a01b03161480620016215750836001600160a01b0316620016168462000831565b6001600160a01b0316145b806200165257506001600160a01b03808216600090815260ce602090815260408083209388168352929052205460ff165b949350505050565b826001600160a01b03166200166f8262000f34565b6001600160a01b031614620016d55760405162461bcd60e51b815260206004820152602560248201527f4552433732313a207472616e736665722066726f6d20696e636f72726563742060448201526437bbb732b960d91b6064820152608401620008a7565b6001600160a01b038216620017395760405162461bcd60e51b8152602060048201526024808201527f4552433732313a207472616e7366657220746f20746865207a65726f206164646044820152637265737360e01b6064820152608401620008a7565b62001746838383620023c6565b62001753600082620014b1565b6001600160a01b038316600090815260cc602052604081208054600192906200177e90849062003a3b565b90915550506001600160a01b038216600090815260cc60205260408120805460019290620017ae908490620039e7565b9091555050600081815260cb602052604080822080546001600160a01b0319166001600160a01b0386811691821790925591518493918716917fddf252ad1be2c89b69c2b068fc378daa952ba7f163c4a11628f55a4df523b3ef91a4620009e8838383620024ab565b600062000c117f8b73c3c69bb8fe3d512ecc4cf759cc79239f7b179b0ffacaa9a75d522b39400f6200184860fb5490565b60fc546040805160208101859052908101839052606081018290524660808201523060a082015260009060c0016040516020818303038152906040528051906020012090509392505050565b7f4910fdfa16fed3260ed0e7147f7cc6da11a60208b5b9406d12a635614ffd91435460ff1615620018ca57620009e8836200250a565b826001600160a01b03166352d1902d6040518163ffffffff1660e01b815260040160206040518083038186803b1580156200190457600080fd5b505afa92505050801562001937575060408051601f3d908101601f191682019092526200193491810190620035a3565b60015b6200199c5760405162461bcd60e51b815260206004820152602e60248201527f45524331393637557067726164653a206e657720696d706c656d656e7461746960448201526d6f6e206973206e6f74205555505360901b6064820152608401620008a7565b60008051602062003ffc833981519152811462001a0e5760405162461bcd60e51b815260206004820152602960248201527f45524331393637557067726164653a20756e737570706f727465642070726f786044820152681a58589b195555525160ba1b6064820152608401620008a7565b50620009e8838383620025a9565b600043821062001a6f5760405162461bcd60e51b815260206004820181905260248201527f436865636b706f696e74733a20626c6f636b206e6f7420796574206d696e65646044820152606401620008a7565b825460005b8181101562001aeb57600062001a8b8284620025d4565b90508486600001828154811062001ab257634e487b7160e01b600052603260045260246000fd5b60009182526020909120015463ffffffff16111562001ad45780925062001ae4565b62001ae1816001620039e7565b91505b5062001a74565b811562001b42578462001b0060018462003a3b565b8154811062001b1f57634e487b7160e01b600052603260045260246000fd5b60009182526020909120015464010000000090046001600160e01b031662001b45565b60005b6001600160e01b031695945050505050565b600062001b648362000ec8565b6001600160a01b03848116600081815261012f602052604080822080546001600160a01b031916888616908117909155905194955093928516927f3134e8a2e6d97e929a7e54011ea5485d7d196dd5f0ba4d4ef95803e8e3fc257f9190a4620009e8818362001bd386620025f3565b62002600565b8054600090801562001c35578262001bf360018362003a3b565b8154811062001c1257634e487b7160e01b600052603260045260246000fd5b60009182526020909120015464010000000090046001600160e01b031662001c38565b60005b6001600160e01b03169392505050565b816001600160a01b0316836001600160a01b0316141562001cac5760405162461bcd60e51b815260206004820152601960248201527f4552433732313a20617070726f766520746f2063616c6c6572000000000000006044820152606401620008a7565b6001600160a01b03838116600081815260ce6020908152604080832094871680845294825291829020805460ff191686151590811790915591519182527f17307eab39ab6107e8899845ad3d59bd9653f200f220920489ca2b5937696c31910160405180910390a3505050565b62001d268484846200165a565b62001d3484848484620022ad565b620011965760405162461bcd60e51b8152600401620008a79062003861565b60006200079162001d6362001817565b8360405161190160f01b6020820152602281018390526042810182905260009060620160405160208183030381529060405280519060200120905092915050565b600080600062001db7878787876200274b565b9150915062001dc68162002840565b5095945050505050565b6001600160a01b0381166000908152610132602052604090208054600181018255905b50919050565b60608162001e1e5750506040805180820190915260018152600360fc1b602082015290565b8160005b811562001e4e578062001e358162003abb565b915062001e469050600a8362003a02565b915062001e22565b60008167ffffffffffffffff81111562001e7857634e487b7160e01b600052604160045260246000fd5b6040519080825280601f01601f19166020018201604052801562001ea3576020820181803683370190505b5090505b8415620016525762001ebb60018362003a3b565b915062001eca600a8662003ad9565b62001ed7906030620039e7565b60f81b81838151811062001efb57634e487b7160e01b600052603260045260246000fd5b60200101906001600160f81b031916908160001a90535062001f1f600a8662003a02565b945062001ea7565b604051606082811b6bffffffffffffffffffffffff1916602083015290620007919060340160405160208183030381529060405262002a4f565b606081516000141562001f8257505060408051602081019091526000815290565b60006040518060600160405280604081526020016200401c604091399050600060038451600262001fb49190620039e7565b62001fc0919062003a02565b62001fcd90600462003a19565b9050600062001fde826020620039e7565b67ffffffffffffffff8111156200200557634e487b7160e01b600052604160045260246000fd5b6040519080825280601f01601f19166020018201604052801562002030576020820181803683370190505b509050818152600183018586518101602084015b81831015620020a05760039283018051603f601282901c811687015160f890811b8552600c83901c8216880151811b6001860152600683901c8216880151811b60028601529116860151901b9382019390935260040162002044565b600389510660018114620020bd5760028114620020cf57620020db565b613d3d60f01b600119830152620020db565b603d60f81b6000198301525b509398975050505050505050565b60608282604051602001620021009291906200365f565b604051602081830303815290604052905092915050565b600054610100900460ff16620021415760405162461bcd60e51b8152600401620008a7906200399c565b62000e0e828262002d00565b6001600160a01b038216620021a55760405162461bcd60e51b815260206004820181905260248201527f4552433732313a206d696e7420746f20746865207a65726f20616464726573736044820152606401620008a7565b600081815260cb60205260409020546001600160a01b0316156200220c5760405162461bcd60e51b815260206004820152601c60248201527f4552433732313a20746f6b656e20616c7265616479206d696e746564000000006044820152606401620008a7565b6200221a60008383620023c6565b6001600160a01b038216600090815260cc6020526040812080546001929062002245908490620039e7565b9091555050600081815260cb602052604080822080546001600160a01b0319166001600160a01b03861690811790915590518392907fddf252ad1be2c89b69c2b068fc378daa952ba7f163c4a11628f55a4df523b3ef908290a462000e0e60008383620024ab565b60006001600160a01b0384163b15620023bd57604051630a85bd0160e11b81526001600160a01b0385169063150b7a0290620022f4903390899088908890600401620037be565b602060405180830381600087803b1580156200230f57600080fd5b505af192505050801562002342575060408051601f3d908101601f191682019092526200233f91810190620035db565b60015b620023a2573d80801562002373576040519150601f19603f3d011682016040523d82523d6000602084013e62002378565b606091505b5080516200239a5760405162461bcd60e51b8152600401620008a79062003861565b805181602001fd5b6001600160e01b031916630a85bd0160e11b14905062001652565b50600162001652565b6001600160a01b03821660009081526101976020526040902054156200242f5760405162461bcd60e51b815260206004820152601f60248201527f6f776e65722063616e206f776e2031206d656d62657273686970206f6e6c79006044820152606401620008a7565b6001600160a01b038381166000908152610197602090815260408083208390558584168084528184208690558584526101968352928190205481518681529416918401919091528201527f8090fcde9ff3528acb07317484d47f975ff0e2ba80568890eb06ec27b238c8069060600160405180910390a1505050565b620024b883838362002d55565b6001600160a01b038316158015620024d857506001600160a01b03821615155b8015620024f857506000620024ed8362000ec8565b6001600160a01b0316145b15620009e857620009e8828362001b57565b6001600160a01b0381163b620025795760405162461bcd60e51b815260206004820152602d60248201527f455243313936373a206e657720696d706c656d656e746174696f6e206973206e60448201526c1bdd08184818dbdb9d1c9858dd609a1b6064820152608401620008a7565b60008051602062003ffc83398151915280546001600160a01b0319166001600160a01b0392909216919091179055565b620025b48362002d63565b600082511180620025c25750805b15620009e85762001196838362002da5565b6000620025e5600284841862003a02565b62000d1c90848416620039e7565b6000620007918262000fad565b816001600160a01b0316836001600160a01b031614158015620026235750600081115b15620009e8576001600160a01b03831615620026b8576001600160a01b0383166000908152610130602052604081208190620026649062002ea28562002eb0565b91509150846001600160a01b03167fdec2bacdd2f05b59de34da9b523dff8be42e5e38e818c82fdb0bae774387a7248383604051620026ad929190918252602082015260400190565b60405180910390a250505b6001600160a01b03821615620009e8576001600160a01b0382166000908152610130602052604081208190620026f39062002ee38562002eb0565b91509150836001600160a01b03167fdec2bacdd2f05b59de34da9b523dff8be42e5e38e818c82fdb0bae774387a72483836040516200273c929190918252602082015260400190565b60405180910390a25050505050565b6000807f7fffffffffffffffffffffffffffffff5d576e7357a4501ddfe92f46681b20a083111562002784575060009050600362002837565b8460ff16601b141580156200279d57508460ff16601c14155b15620027b0575060009050600462002837565b6040805160008082526020820180845289905260ff881692820192909252606081018690526080810185905260019060a0016020604051602081039080840390855afa15801562002805573d6000803e3d6000fd5b5050604051601f1901519150506001600160a01b038116620028305760006001925092505062002837565b9150600090505b94509492505050565b60008160048111156200286357634e487b7160e01b600052602160045260246000fd5b14156200286d5750565b60018160048111156200289057634e487b7160e01b600052602160045260246000fd5b1415620028e05760405162461bcd60e51b815260206004820152601860248201527f45434453413a20696e76616c6964207369676e617475726500000000000000006044820152606401620008a7565b60028160048111156200290357634e487b7160e01b600052602160045260246000fd5b1415620029535760405162461bcd60e51b815260206004820152601f60248201527f45434453413a20696e76616c6964207369676e6174757265206c656e677468006044820152606401620008a7565b60038160048111156200297657634e487b7160e01b600052602160045260246000fd5b1415620029d15760405162461bcd60e51b815260206004820152602260248201527f45434453413a20696e76616c6964207369676e6174757265202773272076616c604482015261756560f01b6064820152608401620008a7565b6004816004811115620029f457634e487b7160e01b600052602160045260246000fd5b141562000cf45760405162461bcd60e51b815260206004820152602260248201527f45434453413a20696e76616c6964207369676e6174757265202776272076616c604482015261756560f01b6064820152608401620008a7565b60408051808201909152601081526f181899199a1a9b1b9c1cb0b131b232b360811b602082015281516060919060009062002a8c90600262003a19565b62002a99906002620039e7565b67ffffffffffffffff81111562002ac057634e487b7160e01b600052604160045260246000fd5b6040519080825280601f01601f19166020018201604052801562002aeb576020820181803683370190505b509050600360fc1b8160008151811062002b1557634e487b7160e01b600052603260045260246000fd5b60200101906001600160f81b031916908160001a905350600f60fb1b8160018151811062002b5357634e487b7160e01b600052603260045260246000fd5b60200101906001600160f81b031916908160001a90535060005b845181101562002cf85782600486838151811062002b9b57634e487b7160e01b600052603260045260246000fd5b016020015182516001600160f81b031990911690911c60f81c90811062002bd257634e487b7160e01b600052603260045260246000fd5b01602001516001600160f81b0319168262002bef83600262003a19565b62002bfc906002620039e7565b8151811062002c1b57634e487b7160e01b600052603260045260246000fd5b60200101906001600160f81b031916908160001a9053508285828151811062002c5457634e487b7160e01b600052603260045260246000fd5b602091010151815160f89190911c600f1690811062002c8357634e487b7160e01b600052603260045260246000fd5b01602001516001600160f81b0319168262002ca083600262003a19565b62002cad906003620039e7565b8151811062002ccc57634e487b7160e01b600052603260045260246000fd5b60200101906001600160f81b031916908160001a9053508062002cef8162003abb565b91505062002b6d565b509392505050565b600054610100900460ff1662002d2a5760405162461bcd60e51b8152600401620008a7906200399c565b815162002d3f9060c9906020850190620031cf565b508051620009e89060ca906020840190620031cf565b620009e88383600162002ef1565b62002d6e816200250a565b6040516001600160a01b038216907fbc7cd75a20ee27fd9adebab32041f755214dbc6bffa90cc0225b39da2e5c2d3b90600090a250565b60606001600160a01b0383163b62002e0f5760405162461bcd60e51b815260206004820152602660248201527f416464726573733a2064656c65676174652063616c6c20746f206e6f6e2d636f6044820152651b9d1c9858dd60d21b6064820152608401620008a7565b600080846001600160a01b03168460405162002e2c919062003641565b600060405180830381855af49150503d806000811462002e69576040519150601f19603f3d011682016040523d82523d6000602084013e62002e6e565b606091505b509150915062002e9982826040518060600160405280602781526020016200405c6027913962002f5a565b95945050505050565b600062000d1c828462003a3b565b60008062002ed78562002ed162002ec78862001bd9565b868863ffffffff16565b62002f98565b91509150935093915050565b600062000d1c8284620039e7565b6001600160a01b03831662002f155762002f1261013162002ee38362002eb0565b50505b6001600160a01b03821662002f395762002f3661013162002ea28362002eb0565b50505b620009e862002f488462000ec8565b62002f538462000ec8565b8362002600565b6060831562002f6b57508162000d1c565b82511562002f7c5782518084602001fd5b8160405162461bcd60e51b8152600401620008a791906200384c565b815460009081908162002fab8662001bd9565b905060008211801562002ffb5750438662002fc860018562003a3b565b8154811062002fe757634e487b7160e01b600052603260045260246000fd5b60009182526020909120015463ffffffff16145b1562003070576200300c85620030eb565b866200301a60018562003a3b565b815481106200303957634e487b7160e01b600052603260045260246000fd5b9060005260206000200160000160046101000a8154816001600160e01b0302191690836001600160e01b03160217905550620030e2565b8560000160405180604001604052806200308a436200315a565b63ffffffff168152602001620030a088620030eb565b6001600160e01b0390811690915282546001810184556000938452602093849020835194909301519091166401000000000263ffffffff909316929092179101555b95939450505050565b60006001600160e01b03821115620031565760405162461bcd60e51b815260206004820152602760248201527f53616665436173743a2076616c756520646f65736e27742066697420696e20326044820152663234206269747360c81b6064820152608401620008a7565b5090565b600063ffffffff821115620031565760405162461bcd60e51b815260206004820152602660248201527f53616665436173743a2076616c756520646f65736e27742066697420696e203360448201526532206269747360d01b6064820152608401620008a7565b6104b28062003b4a83390190565b828054620031dd9062003a84565b90600052602060002090601f0160209004810192826200320157600085556200324c565b82601f106200321c57805160ff19168380011785556200324c565b828001600101855582156200324c579182015b828111156200324c5782518255916020019190600101906200322f565b50620031569291505b8082111562003156576000815560010162003255565b600067ffffffffffffffff8084111562003289576200328962003b1c565b604051601f8501601f19908116603f01168101908282118183101715620032b457620032b462003b1c565b81604052809350858152868686011115620032ce57600080fd5b858560208301376000602087830101525050509392505050565b80356001600160a01b03811681146200330057600080fd5b919050565b600082601f83011262003316578081fd5b62000d1c838335602085016200326b565b60006020828403121562003339578081fd5b62000d1c82620032e8565b6000806040838503121562003357578081fd5b6200336283620032e8565b91506200337260208401620032e8565b90509250929050565b60008060006060848603121562003390578081fd5b6200339b84620032e8565b9250620033ab60208501620032e8565b9150604084013590509250925092565b60008060008060808587031215620033d1578081fd5b620033dc85620032e8565b9350620033ec60208601620032e8565b925060408501359150606085013567ffffffffffffffff8111156200340f578182fd5b6200341d8782880162003305565b91505092959194509250565b600080604083850312156200343c578182fd5b6200344783620032e8565b9150602083013580151581146200345c578182fd5b809150509250929050565b600080604083850312156200347a578182fd5b6200348583620032e8565b9150602083013567ffffffffffffffff811115620034a1578182fd5b620034af8582860162003305565b9150509250929050565b60008060408385031215620034cc578182fd5b620034d783620032e8565b9150602083013567ffffffffffffffff811115620034f3578182fd5b8301601f8101851362003504578182fd5b620034af858235602084016200326b565b6000806040838503121562003528578182fd5b6200353383620032e8565b946020939093013593505050565b60008060008060008060c087890312156200355a578182fd5b6200356587620032e8565b95506020870135945060408701359350606087013560ff8116811462003589578283fd5b9598949750929560808101359460a0909101359350915050565b600060208284031215620035b5578081fd5b5051919050565b600060208284031215620035ce578081fd5b813562000d1c8162003b32565b600060208284031215620035ed578081fd5b815162000d1c8162003b32565b6000602082840312156200360c578081fd5b5035919050565b600081518084526200362d81602086016020860162003a55565b601f01601f19169290920160200192915050565b600082516200365581846020870162003a55565b9190910192915050565b600083516200367381846020880162003a55565b8351908301906200368981836020880162003a55565b01949350505050565b693d913730b6b2911d101160b11b81528351600090620036ba81600a85016020890162003a55565b61202360f01b600a918401918201528451620036de81600c84016020890162003a55565b7f222c20226465736372697074696f6e223a2022222c2022617474726962757465600c92909101918201526239911d60e91b602c8201527f5b7b226b6579223a2261646472657373222c2276616c7565223a220000000000602f82015283516200375081604a84016020880162003a55565b62227d5d60e81b604a9290910191820152607d60f81b604d820152604e0195945050505050565b7f646174613a6170706c69636174696f6e2f6a736f6e3b6261736536342c000000815260008251620037b181601d85016020870162003a55565b91909101601d0192915050565b6001600160a01b0385811682528416602082015260408101839052608060608201819052600090620037f39083018462003613565b9695505050505050565b6020808252825182820181905260009190848201906040850190845b81811015620038405783516001600160a01b03168352928401929184019160010162003819565b50909695505050505050565b60208152600062000d1c602083018462003613565b60208082526032908201527f4552433732313a207472616e7366657220746f206e6f6e20455243373231526560408201527131b2b4bb32b91034b6b83632b6b2b73a32b960711b606082015260800190565b6020808252602c908201527f46756e6374696f6e206d7573742062652063616c6c6564207468726f7567682060408201526b19195b1959d85d1958d85b1b60a21b606082015260800190565b6020808252602c908201527f46756e6374696f6e206d7573742062652063616c6c6564207468726f7567682060408201526b6163746976652070726f787960a01b606082015260800190565b60208082526031908201527f4552433732313a207472616e736665722063616c6c6572206973206e6f74206f6040820152701ddb995c881b9bdc88185c1c1c9bdd9959607a1b606082015260800190565b6020808252602b908201527f496e697469616c697a61626c653a20636f6e7472616374206973206e6f74206960408201526a6e697469616c697a696e6760a81b606082015260800190565b60008219821115620039fd57620039fd62003af0565b500190565b60008262003a145762003a1462003b06565b500490565b600081600019048311821515161562003a365762003a3662003af0565b500290565b60008282101562003a505762003a5062003af0565b500390565b60005b8381101562003a7257818101518382015260200162003a58565b83811115620011965750506000910152565b600181811c9082168062003a9957607f821691505b6020821081141562001df357634e487b7160e01b600052602260045260246000fd5b600060001982141562003ad25762003ad262003af0565b5060010190565b60008262003aeb5762003aeb62003b06565b500690565b634e487b7160e01b600052601160045260246000fd5b634e487b7160e01b600052601260045260246000fd5b634e487b7160e01b600052604160045260246000fd5b6001600160e01b03198116811462000cf457600080fdfe608060405234801561001057600080fd5b506040516104b23803806104b283398101604081905261002f91610058565b600080546001600160a01b0319166001600160a01b039390931692909217909155600155610090565b6000806040838503121561006a578182fd5b82516001600160a01b0381168114610080578283fd5b6020939093015192949293505050565b6104138061009f6000396000f3fe608060405234801561001057600080fd5b50600436106100575760003560e01c806301ffc9a71461005c57806317d70f7c146100845780634162169f1461009b578063bc197c81146100c6578063f23a6e61146100fe575b600080fd5b61006f61006a366004610367565b61011d565b60405190151581526020015b60405180910390f35b61008d60015481565b60405190815260200161007b565b6000546100ae906001600160a01b031681565b6040516001600160a01b03909116815260200161007b565b6100e56100d436600461025e565b63bc197c8160e01b95945050505050565b6040516001600160e01b0319909116815260200161007b565b6100e561010c366004610304565b63f23a6e6160e01b95945050505050565b60006001600160e01b03198216630271189760e51b148061014e57506301ffc9a760e01b6001600160e01b03198316145b92915050565b80356001600160a01b038116811461016b57600080fd5b919050565b600082601f830112610180578081fd5b8135602067ffffffffffffffff82111561019c5761019c6103c7565b8160051b6101ab828201610396565b8381528281019086840183880185018910156101c5578687fd5b8693505b858410156101e75780358352600193909301929184019184016101c9565b50979650505050505050565b600082601f830112610203578081fd5b813567ffffffffffffffff81111561021d5761021d6103c7565b610230601f8201601f1916602001610396565b818152846020838601011115610244578283fd5b816020850160208301379081016020019190915292915050565b600080600080600060a08688031215610275578081fd5b61027e86610154565b945061028c60208701610154565b9350604086013567ffffffffffffffff808211156102a8578283fd5b6102b489838a01610170565b945060608801359150808211156102c9578283fd5b6102d589838a01610170565b935060808801359150808211156102ea578283fd5b506102f7888289016101f3565b9150509295509295909350565b600080600080600060a0868803121561031b578081fd5b61032486610154565b945061033260208701610154565b93506040860135925060608601359150608086013567ffffffffffffffff81111561035b578182fd5b6102f7888289016101f3565b600060208284031215610378578081fd5b81356001600160e01b03198116811461038f578182fd5b9392505050565b604051601f8201601f1916810167ffffffffffffffff811182821017156103bf576103bf6103c7565b604052919050565b634e487b7160e01b600052604160045260246000fdfea26469706673582212208993e4e69162efbe619bf9588aee4c6a5cb76e738d3a8634f48952043412dafc64736f6c63430008040033360894a13ba1a3210667c828492db98dca3e2076cc3735a920a3ca505d382bbc4142434445464748494a4b4c4d4e4f505152535455565758595a6162636465666768696a6b6c6d6e6f707172737475767778797a303132333435363738392b2f416464726573733a206c6f772d6c6576656c2064656c65676174652063616c6c206661696c6564a2646970667358221220344b7099dba76df7656546f6e5a1bb4e7051cf2e55cdd5e02a5d65340ea1847564736f6c63430008040033",
  "linkReferences": {},
  "deployedLinkReferences": {}
}