{
  "_format": "hh-sol-artifact-1",
  "contractName": "Member",
  "sourceName": "contracts/Member.sol",
  "abi": [
    {
      "inputs": [
        {
          "internalType": "address",
          "name": "_dao",
          "type": "address"
        },
        {
          "internalType": "uint256",
          "name": "_tokenId",
          "type": "uint256"
        }
      ],
      "stateMutability": "nonpayable",
      "type": "constructor"
    },
    {
      "inputs": [],
      "name": "dao",
      "outputs": [
        {
          "internalType": "address payable",
          "name": "",
          "type": "address"
        }
      ],
      "stateMutability": "view",
      "type": "function"
    },
    {
      "inputs": [
        {
          "internalType": "address",
          "name": "",
          "type": "address"
        },
        {
          "internalType": "address",
          "name": "",
          "type": "address"
        },
        {
          "internalType": "uint256[]",
          "name": "",
          "type": "uint256[]"
        },
        {
          "internalType": "uint256[]",
          "name": "",
          "type": "uint256[]"
        },
        {
          "internalType": "bytes",
          "name": "",
          "type": "bytes"
        }
      ],
      "name": "onERC1155BatchReceived",
      "outputs": [
        {
          "internalType": "bytes4",
          "name": "",
          "type": "bytes4"
        }
      ],
      "stateMutability": "nonpayable",
      "type": "function"
    },
    {
      "inputs": [
        {
          "internalType": "address",
          "name": "",
          "type": "address"
        },
        {
          "internalType": "address",
          "name": "",
          "type": "address"
        },
        {
          "internalType": "uint256",
          "name": "",
          "type": "uint256"
        },
        {
          "internalType": "uint256",
          "name": "",
          "type": "uint256"
        },
        {
          "internalType": "bytes",
          "name": "",
          "type": "bytes"
        }
      ],
      "name": "onERC1155Received",
      "outputs": [
        {
          "internalType": "bytes4",
          "name": "",
          "type": "bytes4"
        }
      ],
      "stateMutability": "nonpayable",
      "type": "function"
    },
    {
      "inputs": [
        {
          "internalType": "bytes4",
          "name": "interfaceId",
          "type": "bytes4"
        }
      ],
      "name": "supportsInterface",
      "outputs": [
        {
          "internalType": "bool",
          "name": "",
          "type": "bool"
        }
      ],
      "stateMutability": "view",
      "type": "function"
    },
    {
      "inputs": [],
      "name": "tokenId",
      "outputs": [
        {
          "internalType": "uint256",
          "name": "",
          "type": "uint256"
        }
      ],
      "stateMutability": "view",
      "type": "function"
    }
  ],
  "bytecode": "0x608060405234801561001057600080fd5b506040516104b23803806104b283398101604081905261002f91610058565b600080546001600160a01b0319166001600160a01b039390931692909217909155600155610090565b6000806040838503121561006a578182fd5b82516001600160a01b0381168114610080578283fd5b6020939093015192949293505050565b6104138061009f6000396000f3fe608060405234801561001057600080fd5b50600436106100575760003560e01c806301ffc9a71461005c57806317d70f7c146100845780634162169f1461009b578063bc197c81146100c6578063f23a6e61146100fe575b600080fd5b61006f61006a366004610367565b61011d565b60405190151581526020015b60405180910390f35b61008d60015481565b60405190815260200161007b565b6000546100ae906001600160a01b031681565b6040516001600160a01b03909116815260200161007b565b6100e56100d436600461025e565b63bc197c8160e01b95945050505050565b6040516001600160e01b0319909116815260200161007b565b6100e561010c366004610304565b63f23a6e6160e01b95945050505050565b60006001600160e01b03198216630271189760e51b148061014e57506301ffc9a760e01b6001600160e01b03198316145b92915050565b80356001600160a01b038116811461016b57600080fd5b919050565b600082601f830112610180578081fd5b8135602067ffffffffffffffff82111561019c5761019c6103c7565b8160051b6101ab828201610396565b8381528281019086840183880185018910156101c5578687fd5b8693505b858410156101e75780358352600193909301929184019184016101c9565b50979650505050505050565b600082601f830112610203578081fd5b813567ffffffffffffffff81111561021d5761021d6103c7565b610230601f8201601f1916602001610396565b818152846020838601011115610244578283fd5b816020850160208301379081016020019190915292915050565b600080600080600060a08688031215610275578081fd5b61027e86610154565b945061028c60208701610154565b9350604086013567ffffffffffffffff808211156102a8578283fd5b6102b489838a01610170565b945060608801359150808211156102c9578283fd5b6102d589838a01610170565b935060808801359150808211156102ea578283fd5b506102f7888289016101f3565b9150509295509295909350565b600080600080600060a0868803121561031b578081fd5b61032486610154565b945061033260208701610154565b93506040860135925060608601359150608086013567ffffffffffffffff81111561035b578182fd5b6102f7888289016101f3565b600060208284031215610378578081fd5b81356001600160e01b03198116811461038f578182fd5b9392505050565b604051601f8201601f1916810167ffffffffffffffff811182821017156103bf576103bf6103c7565b604052919050565b634e487b7160e01b600052604160045260246000fdfea26469706673582212208993e4e69162efbe619bf9588aee4c6a5cb76e738d3a8634f48952043412dafc64736f6c63430008040033",
  "linkReferences": {},
  "deployedLinkReferences": {}
}