{
  "_format": "hh-sol-artifact-1",
  "contractName": "Membership",
  "sourceName": "contracts/Membership.sol",
  "abi": [
    {
      "inputs": [],
      "stateMutability": "nonpayable",
      "type": "constructor"
    },
    {
      "anonymous": false,
      "inputs": [
        {
          "indexed": false,
          "internalType": "address",
          "name": "previousAdmin",
          "type": "address"
        },
        {
          "indexed": false,
          "internalType": "address",
          "name": "newAdmin",
          "type": "address"
        }
      ],
      "name": "AdminChanged",
      "type": "event"
    },
    {
      "anonymous": false,
      "inputs": [
        {
          "indexed": true,
          "internalType": "address",
          "name": "owner",
          "type": "address"
        },
        {
          "indexed": true,
          "internalType": "address",
          "name": "approved",
          "type": "address"
        },
        {
          "indexed": true,
          "internalType": "uint256",
          "name": "tokenId",
          "type": "uint256"
        }
      ],
      "name": "Approval",
      "type": "event"
    },
    {
      "anonymous": false,
      "inputs": [
        {
          "indexed": true,
          "internalType": "address",
          "name": "owner",
          "type": "address"
        },
        {
          "indexed": true,
          "internalType": "address",
          "name": "operator",
          "type": "address"
        },
        {
          "indexed": false,
          "internalType": "bool",
          "name": "approved",
          "type": "bool"
        }
      ],
      "name": "ApprovalForAll",
      "type": "event"
    },
    {
      "anonymous": false,
      "inputs": [
        {
          "indexed": true,
          "internalType": "address",
          "name": "beacon",
          "type": "address"
        }
      ],
      "name": "BeaconUpgraded",
      "type": "event"
    },
    {
      "anonymous": false,
      "inputs": [
        {
          "indexed": false,
          "internalType": "address",
          "name": "to",
          "type": "address"
        }
      ],
      "name": "CreateMember",
      "type": "event"
    },
    {
      "anonymous": false,
      "inputs": [
        {
          "indexed": true,
          "internalType": "address",
          "name": "delegator",
          "type": "address"
        },
        {
          "indexed": true,
          "internalType": "address",
          "name": "fromDelegate",
          "type": "address"
        },
        {
          "indexed": true,
          "internalType": "address",
          "name": "toDelegate",
          "type": "address"
        }
      ],
      "name": "DelegateChanged",
      "type": "event"
    },
    {
      "anonymous": false,
      "inputs": [
        {
          "indexed": true,
          "internalType": "address",
          "name": "delegate",
          "type": "address"
        },
        {
          "indexed": false,
          "internalType": "uint256",
          "name": "previousBalance",
          "type": "uint256"
        },
        {
          "indexed": false,
          "internalType": "uint256",
          "name": "newBalance",
          "type": "uint256"
        }
      ],
      "name": "DelegateVotesChanged",
      "type": "event"
    },
    {
      "anonymous": false,
      "inputs": [
        {
          "indexed": false,
          "internalType": "uint8",
          "name": "version",
          "type": "uint8"
        }
      ],
      "name": "Initialized",
      "type": "event"
    },
    {
      "anonymous": false,
      "inputs": [
        {
          "indexed": true,
          "internalType": "address",
          "name": "from",
          "type": "address"
        },
        {
          "indexed": true,
          "internalType": "address",
          "name": "to",
          "type": "address"
        },
        {
          "indexed": true,
          "internalType": "uint256",
          "name": "tokenId",
          "type": "uint256"
        }
      ],
      "name": "Transfer",
      "type": "event"
    },
    {
      "anonymous": false,
      "inputs": [
        {
          "indexed": true,
          "internalType": "address",
          "name": "implementation",
          "type": "address"
        }
      ],
      "name": "Upgraded",
      "type": "event"
    },
    {
      "inputs": [],
      "name": "DOMAIN_SEPARATOR",
      "outputs": [
        {
          "internalType": "bytes32",
          "name": "",
          "type": "bytes32"
        }
      ],
      "stateMutability": "view",
      "type": "function"
    },
    {
      "inputs": [
        {
          "internalType": "address",
          "name": "to",
          "type": "address"
        },
        {
          "internalType": "uint256",
          "name": "tokenId",
          "type": "uint256"
        }
      ],
      "name": "approve",
      "outputs": [],
      "stateMutability": "nonpayable",
      "type": "function"
    },
    {
      "inputs": [
        {
          "internalType": "address",
          "name": "owner",
          "type": "address"
        }
      ],
      "name": "balanceOf",
      "outputs": [
        {
          "internalType": "uint256",
          "name": "",
          "type": "uint256"
        }
      ],
      "stateMutability": "view",
      "type": "function"
    },
    {
      "inputs": [
        {
          "internalType": "address",
          "name": "to",
          "type": "address"
        }
      ],
      "name": "createMember",
      "outputs": [],
      "stateMutability": "nonpayable",
      "type": "function"
    },
    {
      "inputs": [],
      "name": "dao",
      "outputs": [
        {
          "internalType": "address payable",
          "name": "",
          "type": "address"
        }
      ],
      "stateMutability": "view",
      "type": "function"
    },
    {
      "inputs": [
        {
          "internalType": "address",
          "name": "delegatee",
          "type": "address"
        }
      ],
      "name": "delegate",
      "outputs": [],
      "stateMutability": "nonpayable",
      "type": "function"
    },
    {
      "inputs": [
        {
          "internalType": "address",
          "name": "delegatee",
          "type": "address"
        },
        {
          "internalType": "uint256",
          "name": "nonce",
          "type": "uint256"
        },
        {
          "internalType": "uint256",
          "name": "expiry",
          "type": "uint256"
        },
        {
          "internalType": "uint8",
          "name": "v",
          "type": "uint8"
        },
        {
          "internalType": "bytes32",
          "name": "r",
          "type": "bytes32"
        },
        {
          "internalType": "bytes32",
          "name": "s",
          "type": "bytes32"
        }
      ],
      "name": "delegateBySig",
      "outputs": [],
      "stateMutability": "nonpayable",
      "type": "function"
    },
    {
      "inputs": [
        {
          "internalType": "address",
          "name": "account",
          "type": "address"
        }
      ],
      "name": "delegates",
      "outputs": [
        {
          "internalType": "address",
          "name": "",
          "type": "address"
        }
      ],
      "stateMutability": "view",
      "type": "function"
    },
    {
      "inputs": [
        {
          "internalType": "uint256",
          "name": "tokenId",
          "type": "uint256"
        }
      ],
      "name": "getApproved",
      "outputs": [
        {
          "internalType": "address",
          "name": "",
          "type": "address"
        }
      ],
      "stateMutability": "view",
      "type": "function"
    },
    {
      "inputs": [
        {
          "internalType": "uint256",
          "name": "blockNumber",
          "type": "uint256"
        }
      ],
      "name": "getPastTotalSupply",
      "outputs": [
        {
          "internalType": "uint256",
          "name": "",
          "type": "uint256"
        }
      ],
      "stateMutability": "view",
      "type": "function"
    },
    {
      "inputs": [
        {
          "internalType": "address",
          "name": "account",
          "type": "address"
        },
        {
          "internalType": "uint256",
          "name": "blockNumber",
          "type": "uint256"
        }
      ],
      "name": "getPastVotes",
      "outputs": [
        {
          "internalType": "uint256",
          "name": "",
          "type": "uint256"
        }
      ],
      "stateMutability": "view",
      "type": "function"
    },
    {
      "inputs": [
        {
          "internalType": "address",
          "name": "account",
          "type": "address"
        }
      ],
      "name": "getVotes",
      "outputs": [
        {
          "internalType": "uint256",
          "name": "",
          "type": "uint256"
        }
      ],
      "stateMutability": "view",
      "type": "function"
    },
    {
      "inputs": [
        {
          "internalType": "address",
          "name": "_dao",
          "type": "address"
        },
        {
          "internalType": "string",
          "name": "_name",
          "type": "string"
        },
        {
          "internalType": "uint256",
          "name": "_maxMemberLimit",
          "type": "uint256"
        }
      ],
      "name": "initialize",
      "outputs": [],
      "stateMutability": "nonpayable",
      "type": "function"
    },
    {
      "inputs": [
        {
          "internalType": "address",
          "name": "owner",
          "type": "address"
        },
        {
          "internalType": "address",
          "name": "operator",
          "type": "address"
        }
      ],
      "name": "isApprovedForAll",
      "outputs": [
        {
          "internalType": "bool",
          "name": "",
          "type": "bool"
        }
      ],
      "stateMutability": "view",
      "type": "function"
    },
    {
      "inputs": [
        {
          "internalType": "address",
          "name": "",
          "type": "address"
        }
      ],
      "name": "isMember",
      "outputs": [
        {
          "internalType": "bool",
          "name": "",
          "type": "bool"
        }
      ],
      "stateMutability": "view",
      "type": "function"
    },
    {
      "inputs": [],
      "name": "maxMemberLimit",
      "outputs": [
        {
          "internalType": "uint256",
          "name": "",
          "type": "uint256"
        }
      ],
      "stateMutability": "view",
      "type": "function"
    },
    {
      "inputs": [],
      "name": "name",
      "outputs": [
        {
          "internalType": "string",
          "name": "",
          "type": "string"
        }
      ],
      "stateMutability": "view",
      "type": "function"
    },
    {
      "inputs": [
        {
          "internalType": "address",
          "name": "owner",
          "type": "address"
        }
      ],
      "name": "nonces",
      "outputs": [
        {
          "internalType": "uint256",
          "name": "",
          "type": "uint256"
        }
      ],
      "stateMutability": "view",
      "type": "function"
    },
    {
      "inputs": [
        {
          "internalType": "uint256",
          "name": "tokenId",
          "type": "uint256"
        }
      ],
      "name": "ownerOf",
      "outputs": [
        {
          "internalType": "address",
          "name": "",
          "type": "address"
        }
      ],
      "stateMutability": "view",
      "type": "function"
    },
    {
      "inputs": [],
      "name": "proxiableUUID",
      "outputs": [
        {
          "internalType": "bytes32",
          "name": "",
          "type": "bytes32"
        }
      ],
      "stateMutability": "view",
      "type": "function"
    },
    {
      "inputs": [
        {
          "internalType": "address",
          "name": "from",
          "type": "address"
        },
        {
          "internalType": "address",
          "name": "to",
          "type": "address"
        },
        {
          "internalType": "uint256",
          "name": "tokenId",
          "type": "uint256"
        }
      ],
      "name": "safeTransferFrom",
      "outputs": [],
      "stateMutability": "nonpayable",
      "type": "function"
    },
    {
      "inputs": [
        {
          "internalType": "address",
          "name": "from",
          "type": "address"
        },
        {
          "internalType": "address",
          "name": "to",
          "type": "address"
        },
        {
          "internalType": "uint256",
          "name": "tokenId",
          "type": "uint256"
        },
        {
          "internalType": "bytes",
          "name": "data",
          "type": "bytes"
        }
      ],
      "name": "safeTransferFrom",
      "outputs": [],
      "stateMutability": "nonpayable",
      "type": "function"
    },
    {
      "inputs": [
        {
          "internalType": "address",
          "name": "operator",
          "type": "address"
        },
        {
          "internalType": "bool",
          "name": "approved",
          "type": "bool"
        }
      ],
      "name": "setApprovalForAll",
      "outputs": [],
      "stateMutability": "nonpayable",
      "type": "function"
    },
    {
      "inputs": [
        {
          "internalType": "bytes4",
          "name": "interfaceId",
          "type": "bytes4"
        }
      ],
      "name": "supportsInterface",
      "outputs": [
        {
          "internalType": "bool",
          "name": "",
          "type": "bool"
        }
      ],
      "stateMutability": "view",
      "type": "function"
    },
    {
      "inputs": [],
      "name": "symbol",
      "outputs": [
        {
          "internalType": "string",
          "name": "",
          "type": "string"
        }
      ],
      "stateMutability": "view",
      "type": "function"
    },
    {
      "inputs": [
        {
          "internalType": "uint256",
          "name": "tokenId",
          "type": "uint256"
        }
      ],
      "name": "tokenURI",
      "outputs": [
        {
          "internalType": "string",
          "name": "",
          "type": "string"
        }
      ],
      "stateMutability": "view",
      "type": "function"
    },
    {
      "inputs": [],
      "name": "totalSupply",
      "outputs": [
        {
          "internalType": "uint256",
          "name": "",
          "type": "uint256"
        }
      ],
      "stateMutability": "view",
      "type": "function"
    },
    {
      "inputs": [
        {
          "internalType": "address",
          "name": "from",
          "type": "address"
        },
        {
          "internalType": "address",
          "name": "to",
          "type": "address"
        },
        {
          "internalType": "uint256",
          "name": "tokenId",
          "type": "uint256"
        }
      ],
      "name": "transferFrom",
      "outputs": [],
      "stateMutability": "nonpayable",
      "type": "function"
    },
    {
      "inputs": [
        {
          "internalType": "address",
          "name": "newImplementation",
          "type": "address"
        }
      ],
      "name": "upgradeTo",
      "outputs": [],
      "stateMutability": "nonpayable",
      "type": "function"
    },
    {
      "inputs": [
        {
          "internalType": "address",
          "name": "newImplementation",
          "type": "address"
        },
        {
          "internalType": "bytes",
          "name": "data",
          "type": "bytes"
        }
      ],
      "name": "upgradeToAndCall",
      "outputs": [],
      "stateMutability": "payable",
      "type": "function"
    }
  ],
  "bytecode": "0x60a06040523060601b6080523480156200001857600080fd5b506200002362000029565b620000eb565b600054610100900460ff1615620000965760405162461bcd60e51b815260206004820152602760248201527f496e697469616c697a61626c653a20636f6e747261637420697320696e697469604482015266616c697a696e6760c81b606482015260840160405180910390fd5b60005460ff9081161015620000e9576000805460ff191660ff9081179091556040519081527f7f26b83ff96e1f2b6a682f133852f6798a09c465da95921460cefb38474024989060200160405180910390a15b565b60805160601c6133b962000126600039600081816109de01528181610a1e01528181610b0301528181610b430152610bd601526133b96000f3fe6080604052600436106101cd5760003560e01c80635c19a95c116100f75780639ab24eb011610095578063c3cda52011610064578063c3cda5201461052c578063c87b56dd1461054c578063d23a403c1461056c578063e985e9c51461058357600080fd5b80639ab24eb01461049b578063a22cb465146104bb578063a230c524146104db578063b88d4fde1461050c57600080fd5b80637ecebe00116100d15780637ecebe00146104265780638dac9bbc146104465780638e539e8c1461046657806395d89b411461048657600080fd5b80635c19a95c146103c65780636352211e146103e657806370a082311461040657600080fd5b80633644e5151161016f57806342842e0e1161013e57806342842e0e1461035e5780634f1ef2861461037e57806352d1902d14610391578063587cde1e146103a657600080fd5b80633644e515146102e85780633659cfe6146102fd5780633a46b1a81461031d5780634162169f1461033d57600080fd5b8063095ea7b3116101ab578063095ea7b31461026157806318160ddd146102835780632124d529146102a857806323b872dd146102c857600080fd5b806301ffc9a7146101d257806306fdde0314610207578063081812fc14610229575b600080fd5b3480156101de57600080fd5b506101f26101ed366004612e41565b6105cc565b60405190151581526020015b60405180910390f35b34801561021357600080fd5b5061021c61061e565b6040516101fe9190612ff0565b34801561023557600080fd5b50610249610244366004612e7b565b6106b0565b6040516001600160a01b0390911681526020016101fe565b34801561026d57600080fd5b5061028161027c366004612d9e565b6106d7565b005b34801561028f57600080fd5b5061029a6101945481565b6040519081526020016101fe565b3480156102b457600080fd5b506102816102c3366004612bb7565b6107f2565b3480156102d457600080fd5b506102816102e3366004612c05565b610993565b3480156102f457600080fd5b5061029a6109c4565b34801561030957600080fd5b50610281610318366004612bb7565b6109d3565b34801561032957600080fd5b5061029a610338366004612d9e565b610ab3565b34801561034957600080fd5b5061019354610249906001600160a01b031681565b34801561036a57600080fd5b50610281610379366004612c05565b610add565b61028161038c366004612ce5565b610af8565b34801561039d57600080fd5b5061029a610bc9565b3480156103b257600080fd5b506102496103c1366004612bb7565b610c7c565b3480156103d257600080fd5b506102816103e1366004612bb7565b610c9b565b3480156103f257600080fd5b50610249610401366004612e7b565b610ca6565b34801561041257600080fd5b5061029a610421366004612bb7565b610d06565b34801561043257600080fd5b5061029a610441366004612bb7565b610d8c565b34801561045257600080fd5b50610281610461366004612d33565b610dab565b34801561047257600080fd5b5061029a610481366004612e7b565b610f8a565b34801561049257600080fd5b5061021c610fe7565b3480156104a757600080fd5b5061029a6104b6366004612bb7565b610ff6565b3480156104c757600080fd5b506102816104d6366004612ca9565b611018565b3480156104e757600080fd5b506101f26104f6366004612bb7565b6101976020526000908152604090205460ff1681565b34801561051857600080fd5b50610281610527366004612c41565b611023565b34801561053857600080fd5b50610281610547366004612dc8565b611055565b34801561055857600080fd5b5061021c610567366004612e7b565b611182565b34801561057857600080fd5b5061029a6101955481565b34801561058f57600080fd5b506101f261059e366004612bd2565b6001600160a01b03918216600090815260ce6020908152604080832093909416825291909152205460ff1690565b60006001600160e01b031982166380ac58cd60e01b14806105fd57506001600160e01b03198216635b5e139f60e01b145b8061061857506301ffc9a760e01b6001600160e01b03198316145b92915050565b606060c9805461062d90613214565b80601f016020809104026020016040519081016040528092919081815260200182805461065990613214565b80156106a65780601f1061067b576101008083540402835291602001916106a6565b820191906000526020600020905b81548152906001019060200180831161068957829003601f168201915b5050505050905090565b60006106bb826111e9565b50600090815260cd60205260409020546001600160a01b031690565b60006106e282610ca6565b9050806001600160a01b0316836001600160a01b031614156107555760405162461bcd60e51b815260206004820152602160248201527f4552433732313a20617070726f76616c20746f2063757272656e74206f776e656044820152603960f91b60648201526084015b60405180910390fd5b336001600160a01b03821614806107715750610771813361059e565b6107e35760405162461bcd60e51b815260206004820152603e60248201527f4552433732313a20617070726f76652063616c6c6572206973206e6f7420746f60448201527f6b656e206f776e6572206e6f7220617070726f76656420666f7220616c6c0000606482015260840161074c565b6107ed8383611248565b505050565b610193546001600160a01b031633146108375760405162461bcd60e51b81526020600482015260076024820152666e6f742064616f60c81b604482015260640161074c565b610194546001600160a01b0382166000908152610197602052604090205460ff161561089e5760405162461bcd60e51b815260206004820152601660248201527513595b58995c88185b1c9958591e4818dc99585d195960521b604482015260640161074c565b6101955481106108f05760405162461bcd60e51b815260206004820152601960248201527f6d656d62657220636f756e7420657863656564206c696d697400000000000000604482015260640161074c565b6108ff61019680546001019055565b600061090b6101965490565b90506109278382604051806020016040528060008152506112b6565b610932826001613186565b610194556001600160a01b03831660008181526101976020908152604091829020805460ff1916600117905590519182527f2e95375ba4496573ca74b6c456a1b885cfdd78ae502d985f1f0ca779444a1af4910160405180910390a1505050565b61099d33826112e9565b6109b95760405162461bcd60e51b815260040161074c90613138565b6107ed838383611368565b60006109ce611515565b905090565b306001600160a01b037f0000000000000000000000000000000000000000000000000000000000000000161415610a1c5760405162461bcd60e51b815260040161074c90613055565b7f00000000000000000000000000000000000000000000000000000000000000006001600160a01b0316610a656000805160206132fd833981519152546001600160a01b031690565b6001600160a01b031614610a8b5760405162461bcd60e51b815260040161074c906130a1565b610a9481611590565b60408051600080825260208201909252610ab0918391906115d5565b50565b6001600160a01b038216600090815261013060205260408120610ad6908361174f565b9392505050565b6107ed83838360405180602001604052806000815250611023565b306001600160a01b037f0000000000000000000000000000000000000000000000000000000000000000161415610b415760405162461bcd60e51b815260040161074c90613055565b7f00000000000000000000000000000000000000000000000000000000000000006001600160a01b0316610b8a6000805160206132fd833981519152546001600160a01b031690565b6001600160a01b031614610bb05760405162461bcd60e51b815260040161074c906130a1565b610bb982611590565b610bc5828260016115d5565b5050565b6000306001600160a01b037f00000000000000000000000000000000000000000000000000000000000000001614610c695760405162461bcd60e51b815260206004820152603860248201527f555550535570677261646561626c653a206d757374206e6f742062652063616c60448201527f6c6564207468726f7567682064656c656761746563616c6c0000000000000000606482015260840161074c565b506000805160206132fd83398151915290565b6001600160a01b03908116600090815261012f60205260409020541690565b33610bc5818361185e565b600081815260cb60205260408120546001600160a01b0316806106185760405162461bcd60e51b8152602060048201526018602482015277115490cdcc8c4e881a5b9d985b1a59081d1bdad95b88125160421b604482015260640161074c565b60006001600160a01b038216610d705760405162461bcd60e51b815260206004820152602960248201527f4552433732313a2061646472657373207a65726f206973206e6f7420612076616044820152683634b21037bbb732b960b91b606482015260840161074c565b506001600160a01b0316600090815260cc602052604090205490565b6001600160a01b03811660009081526101326020526040812054610618565b600054610100900460ff1615808015610dcb5750600054600160ff909116105b80610de55750303b158015610de5575060005460ff166001145b610e485760405162461bcd60e51b815260206004820152602e60248201527f496e697469616c697a61626c653a20636f6e747261637420697320616c72656160448201526d191e481a5b9a5d1a585b1a5e995960921b606482015260840161074c565b6000805460ff191660011790558015610e6b576000805461ff0019166101001790555b610ec3610ea46040518060400160405280600b81526020016a0204d656d626572736869760ac1b815250856118da90919063ffffffff16565b604051806040016040528060018152602001603160f81b815250611906565b610f1c610efc6040518060400160405280600b81526020016a0204d656d626572736869760ac1b815250856118da90919063ffffffff16565b604051806040016040528060028152602001614d5360f01b815250611937565b61019380546001600160a01b0319166001600160a01b0386161790556101958290558015610f84576000805461ff0019169055604051600181527f7f26b83ff96e1f2b6a682f133852f6798a09c465da95921460cefb38474024989060200160405180910390a15b50505050565b6000438210610fdb5760405162461bcd60e51b815260206004820152601a60248201527f566f7465733a20626c6f636b206e6f7420796574206d696e6564000000000000604482015260640161074c565b6106186101318361174f565b606060ca805461062d90613214565b6001600160a01b03811660009081526101306020526040812061061890611968565b610bc53383836119c4565b61102d33836112e9565b6110495760405162461bcd60e51b815260040161074c90613138565b610f8484848484611a93565b834211156110a55760405162461bcd60e51b815260206004820152601860248201527f566f7465733a207369676e617475726520657870697265640000000000000000604482015260640161074c565b604080517fe48329057bfd03d55e49b547132e39cffd9c1820ad7b9d4c5307691425d15adf60208201526001600160a01b03881691810191909152606081018690526080810185905260009061111f906111179060a00160405160208183030381529060405280519060200120611ac6565b858585611b14565b905061112a81611b3c565b861461116f5760405162461bcd60e51b8152602060048201526014602482015273566f7465733a20696e76616c6964206e6f6e636560601b604482015260640161074c565b611179818861185e565b50505050505050565b6060600061118e61061e565b61119784611b65565b6040516020016111a8929190612f0b565b60405160208183030381529060405290506111c281611c63565b6040516020016111d29190612f6e565b604051602081830303815290604052915050919050565b600081815260cb60205260409020546001600160a01b0316610ab05760405162461bcd60e51b8152602060048201526018602482015277115490cdcc8c4e881a5b9d985b1a59081d1bdad95b88125160421b604482015260640161074c565b600081815260cd6020526040902080546001600160a01b0319166001600160a01b038416908117909155819061127d82610ca6565b6001600160a01b03167f8c5be1e5ebec7d5bd14f71427d1e84f3dd0314c0f7b2291e5b200ac8c7c3b92560405160405180910390a45050565b6112c08383611dcb565b6112cd6000848484611f21565b6107ed5760405162461bcd60e51b815260040161074c90613003565b6000806112f583610ca6565b9050806001600160a01b0316846001600160a01b0316148061133c57506001600160a01b03808216600090815260ce602090815260408083209388168352929052205460ff165b806113605750836001600160a01b0316611355846106b0565b6001600160a01b0316145b949350505050565b826001600160a01b031661137b82610ca6565b6001600160a01b0316146113df5760405162461bcd60e51b815260206004820152602560248201527f4552433732313a207472616e736665722066726f6d20696e636f72726563742060448201526437bbb732b960d91b606482015260840161074c565b6001600160a01b0382166114415760405162461bcd60e51b8152602060048201526024808201527f4552433732313a207472616e7366657220746f20746865207a65726f206164646044820152637265737360e01b606482015260840161074c565b61144c83838361202b565b611457600082611248565b6001600160a01b038316600090815260cc602052604081208054600192906114809084906131d1565b90915550506001600160a01b038216600090815260cc602052604081208054600192906114ae908490613186565b9091555050600081815260cb602052604080822080546001600160a01b0319166001600160a01b0386811691821790925591518493918716917fddf252ad1be2c89b69c2b068fc378daa952ba7f163c4a11628f55a4df523b3ef91a46107ed8383836120b0565b60006109ce7f8b73c3c69bb8fe3d512ecc4cf759cc79239f7b179b0ffacaa9a75d522b39400f61154460fb5490565b60fc546040805160208101859052908101839052606081018290524660808201523060a082015260009060c0016040516020818303038152906040528051906020012090509392505050565b610193546001600160a01b03163314610ab05760405162461bcd60e51b81526020600482015260076024820152666e6f742064616f60c81b604482015260640161074c565b7f4910fdfa16fed3260ed0e7147f7cc6da11a60208b5b9406d12a635614ffd91435460ff1615611608576107ed83612106565b826001600160a01b03166352d1902d6040518163ffffffff1660e01b815260040160206040518083038186803b15801561164157600080fd5b505afa925050508015611671575060408051601f3d908101601f1916820190925261166e91810190612e28565b60015b6116d45760405162461bcd60e51b815260206004820152602e60248201527f45524331393637557067726164653a206e657720696d706c656d656e7461746960448201526d6f6e206973206e6f74205555505360901b606482015260840161074c565b6000805160206132fd83398151915281146117435760405162461bcd60e51b815260206004820152602960248201527f45524331393637557067726164653a20756e737570706f727465642070726f786044820152681a58589b195555525160ba1b606482015260840161074c565b506107ed8383836121a2565b60004382106117a05760405162461bcd60e51b815260206004820181905260248201527f436865636b706f696e74733a20626c6f636b206e6f7420796574206d696e6564604482015260640161074c565b825460005b818110156118055760006117b982846121c7565b9050848660000182815481106117d1576117d16132ba565b60009182526020909120015463ffffffff1611156117f1578092506117ff565b6117fc816001613186565b91505b506117a5565b811561184957846118176001846131d1565b81548110611827576118276132ba565b60009182526020909120015464010000000090046001600160e01b031661184c565b60005b6001600160e01b031695945050505050565b600061186983610c7c565b6001600160a01b03848116600081815261012f602052604080822080546001600160a01b031916888616908117909155905194955093928516927f3134e8a2e6d97e929a7e54011ea5485d7d196dd5f0ba4d4ef95803e8e3fc257f9190a46107ed81836118d5866121e2565b6121ed565b606082826040516020016118ef929190612edc565b604051602081830303815290604052905092915050565b600054610100900460ff1661192d5760405162461bcd60e51b815260040161074c906130ed565b610bc5828261232c565b600054610100900460ff1661195e5760405162461bcd60e51b815260040161074c906130ed565b610bc5828261236d565b805460009080156119b1578261197f6001836131d1565b8154811061198f5761198f6132ba565b60009182526020909120015464010000000090046001600160e01b03166119b4565b60005b6001600160e01b03169392505050565b816001600160a01b0316836001600160a01b03161415611a265760405162461bcd60e51b815260206004820152601960248201527f4552433732313a20617070726f766520746f2063616c6c657200000000000000604482015260640161074c565b6001600160a01b03838116600081815260ce6020908152604080832094871680845294825291829020805460ff191686151590811790915591519182527f17307eab39ab6107e8899845ad3d59bd9653f200f220920489ca2b5937696c31910160405180910390a3505050565b611a9e848484611368565b611aaa84848484611f21565b610f845760405162461bcd60e51b815260040161074c90613003565b6000610618611ad3611515565b8360405161190160f01b6020820152602281018390526042810182905260009060620160405160208183030381529060405280519060200120905092915050565b6000806000611b25878787876123bb565b91509150611b32816124a8565b5095945050505050565b6001600160a01b0381166000908152610132602052604090208054600181018255905b50919050565b606081611b895750506040805180820190915260018152600360fc1b602082015290565b8160005b8115611bb35780611b9d81613249565b9150611bac9050600a8361319e565b9150611b8d565b60008167ffffffffffffffff811115611bce57611bce6132d0565b6040519080825280601f01601f191660200182016040528015611bf8576020820181803683370190505b5090505b841561136057611c0d6001836131d1565b9150611c1a600a86613264565b611c25906030613186565b60f81b818381518110611c3a57611c3a6132ba565b60200101906001600160f81b031916908160001a905350611c5c600a8661319e565b9450611bfc565b6060815160001415611c8357505060408051602081019091526000815290565b600060405180606001604052806040815260200161331d6040913990506000600384516002611cb29190613186565b611cbc919061319e565b611cc79060046131b2565b90506000611cd6826020613186565b67ffffffffffffffff811115611cee57611cee6132d0565b6040519080825280601f01601f191660200182016040528015611d18576020820181803683370190505b509050818152600183018586518101602084015b81831015611d865760039283018051603f601282901c811687015160f890811b8552600c83901c8216880151811b6001860152600683901c8216880151811b60028601529116860151901b93820193909352600401611d2c565b600389510660018114611da05760028114611db157611dbd565b613d3d60f01b600119830152611dbd565b603d60f81b6000198301525b509398975050505050505050565b6001600160a01b038216611e215760405162461bcd60e51b815260206004820181905260248201527f4552433732313a206d696e7420746f20746865207a65726f2061646472657373604482015260640161074c565b600081815260cb60205260409020546001600160a01b031615611e865760405162461bcd60e51b815260206004820152601c60248201527f4552433732313a20746f6b656e20616c7265616479206d696e74656400000000604482015260640161074c565b611e926000838361202b565b6001600160a01b038216600090815260cc60205260408120805460019290611ebb908490613186565b9091555050600081815260cb602052604080822080546001600160a01b0319166001600160a01b03861690811790915590518392907fddf252ad1be2c89b69c2b068fc378daa952ba7f163c4a11628f55a4df523b3ef908290a4610bc5600083836120b0565b60006001600160a01b0384163b1561202357604051630a85bd0160e11b81526001600160a01b0385169063150b7a0290611f65903390899088908890600401612fb3565b602060405180830381600087803b158015611f7f57600080fd5b505af1925050508015611faf575060408051601f3d908101601f19168201909252611fac91810190612e5e565b60015b612009573d808015611fdd576040519150601f19603f3d011682016040523d82523d6000602084013e611fe2565b606091505b5080516120015760405162461bcd60e51b815260040161074c90613003565b805181602001fd5b6001600160e01b031916630a85bd0160e11b149050611360565b506001611360565b6001600160a01b0383161580159061204b57506001600160a01b03821615155b156107ed5760405162461bcd60e51b815260206004820152602f60248201527f4d656d626572736869703a205472616e73666572206f66206d656d626572736860448201526e1a5c081a5cc818589bdd5b99185b99608a1b606482015260840161074c565b6120bb838383612663565b6001600160a01b0383161580156120da57506001600160a01b03821615155b80156120f7575060006120ec83610c7c565b6001600160a01b0316145b156107ed576107ed828361185e565b6001600160a01b0381163b6121735760405162461bcd60e51b815260206004820152602d60248201527f455243313936373a206e657720696d706c656d656e746174696f6e206973206e60448201526c1bdd08184818dbdb9d1c9858dd609a1b606482015260840161074c565b6000805160206132fd83398151915280546001600160a01b0319166001600160a01b0392909216919091179055565b6121ab8361266f565b6000825111806121b85750805b156107ed57610f8483836126af565b60006121d6600284841861319e565b610ad690848416613186565b600061061882610d06565b816001600160a01b0316836001600160a01b03161415801561220f5750600081115b156107ed576001600160a01b0383161561229e576001600160a01b038316600090815261013060205260408120819061224b906127a3856127af565b91509150846001600160a01b03167fdec2bacdd2f05b59de34da9b523dff8be42e5e38e818c82fdb0bae774387a7248383604051612293929190918252602082015260400190565b60405180910390a250505b6001600160a01b038216156107ed576001600160a01b03821660009081526101306020526040812081906122d5906127dd856127af565b91509150836001600160a01b03167fdec2bacdd2f05b59de34da9b523dff8be42e5e38e818c82fdb0bae774387a724838360405161231d929190918252602082015260400190565b60405180910390a25050505050565b600054610100900460ff166123535760405162461bcd60e51b815260040161074c906130ed565b81516020928301208151919092012060fb9190915560fc55565b600054610100900460ff166123945760405162461bcd60e51b815260040161074c906130ed565b81516123a79060c9906020850190612a75565b5080516107ed9060ca906020840190612a75565b6000807f7fffffffffffffffffffffffffffffff5d576e7357a4501ddfe92f46681b20a08311156123f2575060009050600361249f565b8460ff16601b1415801561240a57508460ff16601c14155b1561241b575060009050600461249f565b6040805160008082526020820180845289905260ff881692820192909252606081018690526080810185905260019060a0016020604051602081039080840390855afa15801561246f573d6000803e3d6000fd5b5050604051601f1901519150506001600160a01b0381166124985760006001925092505061249f565b9150600090505b94509492505050565b60008160048111156124bc576124bc6132a4565b14156124c55750565b60018160048111156124d9576124d96132a4565b14156125275760405162461bcd60e51b815260206004820152601860248201527f45434453413a20696e76616c6964207369676e61747572650000000000000000604482015260640161074c565b600281600481111561253b5761253b6132a4565b14156125895760405162461bcd60e51b815260206004820152601f60248201527f45434453413a20696e76616c6964207369676e6174757265206c656e67746800604482015260640161074c565b600381600481111561259d5761259d6132a4565b14156125f65760405162461bcd60e51b815260206004820152602260248201527f45434453413a20696e76616c6964207369676e6174757265202773272076616c604482015261756560f01b606482015260840161074c565b600481600481111561260a5761260a6132a4565b1415610ab05760405162461bcd60e51b815260206004820152602260248201527f45434453413a20696e76616c6964207369676e6174757265202776272076616c604482015261756560f01b606482015260840161074c565b6107ed838360016127e9565b61267881612106565b6040516001600160a01b038216907fbc7cd75a20ee27fd9adebab32041f755214dbc6bffa90cc0225b39da2e5c2d3b90600090a250565b60606001600160a01b0383163b6127175760405162461bcd60e51b815260206004820152602660248201527f416464726573733a2064656c65676174652063616c6c20746f206e6f6e2d636f6044820152651b9d1c9858dd60d21b606482015260840161074c565b600080846001600160a01b0316846040516127329190612ec0565b600060405180830381855af49150503d806000811461276d576040519150601f19603f3d011682016040523d82523d6000602084013e612772565b606091505b509150915061279a828260405180606001604052806027815260200161335d60279139612844565b95945050505050565b6000610ad682846131d1565b6000806127d1856127cc6127c288611968565b868863ffffffff16565b61287d565b91509150935093915050565b6000610ad68284613186565b6001600160a01b038316612809576128066101316127dd836127af565b50505b6001600160a01b038216612829576128266101316127a3836127af565b50505b6107ed61283584610c7c565b61283e84610c7c565b836121ed565b60608315612853575081610ad6565b8251156128635782518084602001fd5b8160405162461bcd60e51b815260040161074c9190612ff0565b815460009081908161288e86611968565b90506000821180156128cc575043866128a86001856131d1565b815481106128b8576128b86132ba565b60009182526020909120015463ffffffff16145b1561292c576128da856129a3565b866128e66001856131d1565b815481106128f6576128f66132ba565b9060005260206000200160000160046101000a8154816001600160e01b0302191690836001600160e01b0316021790555061299a565b85600001604051806040016040528061294443612a10565b63ffffffff168152602001612958886129a3565b6001600160e01b0390811690915282546001810184556000938452602093849020835194909301519091166401000000000263ffffffff909316929092179101555b95939450505050565b60006001600160e01b03821115612a0c5760405162461bcd60e51b815260206004820152602760248201527f53616665436173743a2076616c756520646f65736e27742066697420696e20326044820152663234206269747360c81b606482015260840161074c565b5090565b600063ffffffff821115612a0c5760405162461bcd60e51b815260206004820152602660248201527f53616665436173743a2076616c756520646f65736e27742066697420696e203360448201526532206269747360d01b606482015260840161074c565b828054612a8190613214565b90600052602060002090601f016020900481019282612aa35760008555612ae9565b82601f10612abc57805160ff1916838001178555612ae9565b82800160010185558215612ae9579182015b82811115612ae9578251825591602001919060010190612ace565b50612a0c9291505b80821115612a0c5760008155600101612af1565b600067ffffffffffffffff80841115612b2057612b206132d0565b604051601f8501601f19908116603f01168101908282118183101715612b4857612b486132d0565b81604052809350858152868686011115612b6157600080fd5b858560208301376000602087830101525050509392505050565b80356001600160a01b0381168114612b9257600080fd5b919050565b600082601f830112612ba857600080fd5b610ad683833560208501612b05565b600060208284031215612bc957600080fd5b610ad682612b7b565b60008060408385031215612be557600080fd5b612bee83612b7b565b9150612bfc60208401612b7b565b90509250929050565b600080600060608486031215612c1a57600080fd5b612c2384612b7b565b9250612c3160208501612b7b565b9150604084013590509250925092565b60008060008060808587031215612c5757600080fd5b612c6085612b7b565b9350612c6e60208601612b7b565b925060408501359150606085013567ffffffffffffffff811115612c9157600080fd5b612c9d87828801612b97565b91505092959194509250565b60008060408385031215612cbc57600080fd5b612cc583612b7b565b915060208301358015158114612cda57600080fd5b809150509250929050565b60008060408385031215612cf857600080fd5b612d0183612b7b565b9150602083013567ffffffffffffffff811115612d1d57600080fd5b612d2985828601612b97565b9150509250929050565b600080600060608486031215612d4857600080fd5b612d5184612b7b565b9250602084013567ffffffffffffffff811115612d6d57600080fd5b8401601f81018613612d7e57600080fd5b612d8d86823560208401612b05565b925050604084013590509250925092565b60008060408385031215612db157600080fd5b612dba83612b7b565b946020939093013593505050565b60008060008060008060c08789031215612de157600080fd5b612dea87612b7b565b95506020870135945060408701359350606087013560ff81168114612e0e57600080fd5b9598949750929560808101359460a0909101359350915050565b600060208284031215612e3a57600080fd5b5051919050565b600060208284031215612e5357600080fd5b8135610ad6816132e6565b600060208284031215612e7057600080fd5b8151610ad6816132e6565b600060208284031215612e8d57600080fd5b5035919050565b60008151808452612eac8160208601602086016131e8565b601f01601f19169290920160200192915050565b60008251612ed28184602087016131e8565b9190910192915050565b60008351612eee8184602088016131e8565b835190830190612f028183602088016131e8565b01949350505050565b693d913730b6b2911d101160b11b81528251600090612f3181600a8501602088016131e8565b61202360f01b600a918401918201528351612f5381600c8401602088016131e8565b61227d60f01b600c9290910191820152600e01949350505050565b7f646174613a6170706c69636174696f6e2f6a736f6e3b6261736536342c000000815260008251612fa681601d8501602087016131e8565b91909101601d0192915050565b6001600160a01b0385811682528416602082015260408101839052608060608201819052600090612fe690830184612e94565b9695505050505050565b602081526000610ad66020830184612e94565b60208082526032908201527f4552433732313a207472616e7366657220746f206e6f6e20455243373231526560408201527131b2b4bb32b91034b6b83632b6b2b73a32b960711b606082015260800190565b6020808252602c908201527f46756e6374696f6e206d7573742062652063616c6c6564207468726f7567682060408201526b19195b1959d85d1958d85b1b60a21b606082015260800190565b6020808252602c908201527f46756e6374696f6e206d7573742062652063616c6c6564207468726f7567682060408201526b6163746976652070726f787960a01b606082015260800190565b6020808252602b908201527f496e697469616c697a61626c653a20636f6e7472616374206973206e6f74206960408201526a6e697469616c697a696e6760a81b606082015260800190565b6020808252602e908201527f4552433732313a2063616c6c6572206973206e6f7420746f6b656e206f776e6560408201526d1c881b9bdc88185c1c1c9bdd995960921b606082015260800190565b6000821982111561319957613199613278565b500190565b6000826131ad576131ad61328e565b500490565b60008160001904831182151516156131cc576131cc613278565b500290565b6000828210156131e3576131e3613278565b500390565b60005b838110156132035781810151838201526020016131eb565b83811115610f845750506000910152565b600181811c9082168061322857607f821691505b60208210811415611b5f57634e487b7160e01b600052602260045260246000fd5b600060001982141561325d5761325d613278565b5060010190565b6000826132735761327361328e565b500690565b634e487b7160e01b600052601160045260246000fd5b634e487b7160e01b600052601260045260246000fd5b634e487b7160e01b600052602160045260246000fd5b634e487b7160e01b600052603260045260246000fd5b634e487b7160e01b600052604160045260246000fd5b6001600160e01b031981168114610ab057600080fdfe360894a13ba1a3210667c828492db98dca3e2076cc3735a920a3ca505d382bbc4142434445464748494a4b4c4d4e4f505152535455565758595a6162636465666768696a6b6c6d6e6f707172737475767778797a303132333435363738392b2f416464726573733a206c6f772d6c6576656c2064656c65676174652063616c6c206661696c6564a2646970667358221220ce4178d68251b33624d6711bcfbf61f38c4b958c6432371a5779285cf94a656664736f6c63430008070033",
  "linkReferences": {},
  "deployedLinkReferences": {}
}