{
  "_format": "hh-sol-artifact-1",
  "contractName": "MultiToken",
  "sourceName": "contracts/MultiToken.sol",
  "abi": [
    {
      "anonymous": false,
      "inputs": [
        {
          "indexed": true,
          "internalType": "address",
          "name": "account",
          "type": "address"
        },
        {
          "indexed": true,
          "internalType": "address",
          "name": "operator",
          "type": "address"
        },
        {
          "indexed": false,
          "internalType": "bool",
          "name": "approved",
          "type": "bool"
        }
      ],
      "name": "ApprovalForAll",
      "type": "event"
    },
    {
      "anonymous": false,
      "inputs": [
        {
          "indexed": false,
          "internalType": "uint256",
          "name": "id",
          "type": "uint256"
        },
        {
          "indexed": false,
          "internalType": "address",
          "name": "contractAddress",
          "type": "address"
        }
      ],
      "name": "CreateToken",
      "type": "event"
    },
    {
      "anonymous": false,
      "inputs": [
        {
          "indexed": true,
          "internalType": "address",
          "name": "operator",
          "type": "address"
        },
        {
          "indexed": true,
          "internalType": "address",
          "name": "from",
          "type": "address"
        },
        {
          "indexed": true,
          "internalType": "address",
          "name": "to",
          "type": "address"
        },
        {
          "indexed": false,
          "internalType": "uint256[]",
          "name": "ids",
          "type": "uint256[]"
        },
        {
          "indexed": false,
          "internalType": "uint256[]",
          "name": "values",
          "type": "uint256[]"
        }
      ],
      "name": "TransferBatch",
      "type": "event"
    },
    {
      "anonymous": false,
      "inputs": [
        {
          "indexed": true,
          "internalType": "address",
          "name": "operator",
          "type": "address"
        },
        {
          "indexed": true,
          "internalType": "address",
          "name": "from",
          "type": "address"
        },
        {
          "indexed": true,
          "internalType": "address",
          "name": "to",
          "type": "address"
        },
        {
          "indexed": false,
          "internalType": "uint256",
          "name": "id",
          "type": "uint256"
        },
        {
          "indexed": false,
          "internalType": "uint256",
          "name": "value",
          "type": "uint256"
        }
      ],
      "name": "TransferSingle",
      "type": "event"
    },
    {
      "anonymous": false,
      "inputs": [
        {
          "indexed": false,
          "internalType": "string",
          "name": "value",
          "type": "string"
        },
        {
          "indexed": true,
          "internalType": "uint256",
          "name": "id",
          "type": "uint256"
        }
      ],
      "name": "URI",
      "type": "event"
    },
    {
      "inputs": [
        {
          "internalType": "address",
          "name": "",
          "type": "address"
        }
      ],
      "name": "addressToId",
      "outputs": [
        {
          "internalType": "uint256",
          "name": "",
          "type": "uint256"
        }
      ],
      "stateMutability": "view",
      "type": "function"
    },
    {
      "inputs": [
        {
          "internalType": "address",
          "name": "account",
          "type": "address"
        },
        {
          "internalType": "uint256",
          "name": "id",
          "type": "uint256"
        }
      ],
      "name": "balanceOf",
      "outputs": [
        {
          "internalType": "uint256",
          "name": "",
          "type": "uint256"
        }
      ],
      "stateMutability": "view",
      "type": "function"
    },
    {
      "inputs": [
        {
          "internalType": "address[]",
          "name": "accounts",
          "type": "address[]"
        },
        {
          "internalType": "uint256[]",
          "name": "ids",
          "type": "uint256[]"
        }
      ],
      "name": "balanceOfBatch",
      "outputs": [
        {
          "internalType": "uint256[]",
          "name": "",
          "type": "uint256[]"
        }
      ],
      "stateMutability": "view",
      "type": "function"
    },
    {
      "inputs": [
        {
          "internalType": "address",
          "name": "from",
          "type": "address"
        },
        {
          "internalType": "uint256",
          "name": "id",
          "type": "uint256"
        },
        {
          "internalType": "uint256",
          "name": "amount",
          "type": "uint256"
        }
      ],
      "name": "burnToken",
      "outputs": [],
      "stateMutability": "nonpayable",
      "type": "function"
    },
    {
      "inputs": [
        {
          "internalType": "address",
          "name": "_contractAddress",
          "type": "address"
        }
      ],
      "name": "createToken",
      "outputs": [
        {
          "internalType": "uint256",
          "name": "",
          "type": "uint256"
        }
      ],
      "stateMutability": "nonpayable",
      "type": "function"
    },
    {
      "inputs": [],
      "name": "ethId",
      "outputs": [
        {
          "internalType": "uint256",
          "name": "",
          "type": "uint256"
        }
      ],
      "stateMutability": "view",
      "type": "function"
    },
    {
      "inputs": [
        {
          "internalType": "address",
          "name": "_owner",
          "type": "address"
        }
      ],
      "name": "initialize",
      "outputs": [],
      "stateMutability": "nonpayable",
      "type": "function"
    },
    {
      "inputs": [
        {
          "internalType": "address",
          "name": "account",
          "type": "address"
        },
        {
          "internalType": "address",
          "name": "operator",
          "type": "address"
        }
      ],
      "name": "isApprovedForAll",
      "outputs": [
        {
          "internalType": "bool",
          "name": "",
          "type": "bool"
        }
      ],
      "stateMutability": "view",
      "type": "function"
    },
    {
      "inputs": [],
      "name": "lastTokenId",
      "outputs": [
        {
          "internalType": "uint256",
          "name": "",
          "type": "uint256"
        }
      ],
      "stateMutability": "view",
      "type": "function"
    },
    {
      "inputs": [
        {
          "internalType": "address",
          "name": "to",
          "type": "address"
        },
        {
          "internalType": "uint256",
          "name": "id",
          "type": "uint256"
        },
        {
          "internalType": "uint256",
          "name": "amount",
          "type": "uint256"
        },
        {
          "internalType": "bytes",
          "name": "data",
          "type": "bytes"
        }
      ],
      "name": "mintToken",
      "outputs": [],
      "stateMutability": "nonpayable",
      "type": "function"
    },
    {
      "inputs": [],
      "name": "mintedContracts",
      "outputs": [
        {
          "internalType": "address[]",
          "name": "",
          "type": "address[]"
        }
      ],
      "stateMutability": "view",
      "type": "function"
    },
    {
      "inputs": [],
      "name": "owner",
      "outputs": [
        {
          "internalType": "address",
          "name": "",
          "type": "address"
        }
      ],
      "stateMutability": "view",
      "type": "function"
    },
    {
      "inputs": [
        {
          "internalType": "address",
          "name": "from",
          "type": "address"
        },
        {
          "internalType": "address",
          "name": "to",
          "type": "address"
        },
        {
          "internalType": "uint256[]",
          "name": "ids",
          "type": "uint256[]"
        },
        {
          "internalType": "uint256[]",
          "name": "amounts",
          "type": "uint256[]"
        },
        {
          "internalType": "bytes",
          "name": "data",
          "type": "bytes"
        }
      ],
      "name": "safeBatchTransferFrom",
      "outputs": [],
      "stateMutability": "nonpayable",
      "type": "function"
    },
    {
      "inputs": [
        {
          "internalType": "address",
          "name": "from",
          "type": "address"
        },
        {
          "internalType": "address",
          "name": "to",
          "type": "address"
        },
        {
          "internalType": "uint256",
          "name": "id",
          "type": "uint256"
        },
        {
          "internalType": "uint256",
          "name": "amount",
          "type": "uint256"
        },
        {
          "internalType": "bytes",
          "name": "data",
          "type": "bytes"
        }
      ],
      "name": "safeTransferFrom",
      "outputs": [],
      "stateMutability": "nonpayable",
      "type": "function"
    },
    {
      "inputs": [
        {
          "internalType": "address",
          "name": "operator",
          "type": "address"
        },
        {
          "internalType": "bool",
          "name": "approved",
          "type": "bool"
        }
      ],
      "name": "setApprovalForAll",
      "outputs": [],
      "stateMutability": "nonpayable",
      "type": "function"
    },
    {
      "inputs": [
        {
          "internalType": "bytes4",
          "name": "interfaceId",
          "type": "bytes4"
        }
      ],
      "name": "supportsInterface",
      "outputs": [
        {
          "internalType": "bool",
          "name": "",
          "type": "bool"
        }
      ],
      "stateMutability": "view",
      "type": "function"
    },
    {
      "inputs": [
        {
          "internalType": "uint256",
          "name": "_id",
          "type": "uint256"
        }
      ],
      "name": "tokenAddress",
      "outputs": [
        {
          "internalType": "address",
          "name": "",
          "type": "address"
        }
      ],
      "stateMutability": "view",
      "type": "function"
    },
    {
      "inputs": [
        {
          "internalType": "uint256",
          "name": "_id",
          "type": "uint256"
        }
      ],
      "name": "tokenDecimals",
      "outputs": [
        {
          "internalType": "uint8",
          "name": "",
          "type": "uint8"
        }
      ],
      "stateMutability": "view",
      "type": "function"
    },
    {
      "inputs": [
        {
          "internalType": "uint256",
          "name": "_id",
          "type": "uint256"
        }
      ],
      "name": "tokenName",
      "outputs": [
        {
          "internalType": "string",
          "name": "",
          "type": "string"
        }
      ],
      "stateMutability": "view",
      "type": "function"
    },
    {
      "inputs": [
        {
          "internalType": "uint256",
          "name": "_id",
          "type": "uint256"
        }
      ],
      "name": "tokenTotalSupply",
      "outputs": [
        {
          "internalType": "uint256",
          "name": "",
          "type": "uint256"
        }
      ],
      "stateMutability": "view",
      "type": "function"
    },
    {
      "inputs": [
        {
          "internalType": "uint256",
          "name": "_id",
          "type": "uint256"
        }
      ],
      "name": "uri",
      "outputs": [
        {
          "internalType": "string",
          "name": "",
          "type": "string"
        }
      ],
      "stateMutability": "view",
      "type": "function"
    }
  ],
  "bytecode": "0x608060405234801561001057600080fd5b50612817806100206000396000f3fe608060405234801561001057600080fd5b50600436106101365760003560e01c80638da5cb5b116100b8578063cb0e0d7d1161007c578063cb0e0d7d146102e2578063e725f87714610302578063e985e9c514610315578063ed8c593814610351578063f242432a14610364578063f84ddf0b1461037757600080fd5b80638da5cb5b146102525780639e6b26ba1461027d578063a22cb465146102a9578063c21ab7f9146102bc578063c4d66de8146102cf57600080fd5b80634e1273f4116100ff5780634e1273f4146101ce5780635e315f8b146101ee5780635ec5dfed146102015780636468e3171461020a5780638609f4581461022d57600080fd5b8062fdd58e1461013b57806301ffc9a7146101615780630e89341c146101845780632eb2c2d6146101a4578063475280bd146101b9575b600080fd5b61014e610149366004611e77565b61037f565b6040519081526020015b60405180910390f35b61017461016f366004611ffa565b610418565b6040519015158152602001610158565b6101976101923660046120af565b61046a565b60405161015891906123e2565b6101b76101b2366004611d36565b61051e565b005b6101c16105b5565b6040516101589190612354565b6101e16101dc366004611f30565b610617565b60405161015891906123a1565b6101b76101fc366004611ed2565b610778565b61014e609c5481565b61014e6102183660046120af565b60009081526098602052604090206002015490565b61024061023b3660046120af565b6107db565b60405160ff9091168152602001610158565b609a54610265906001600160a01b031681565b6040516001600160a01b039091168152602001610158565b61026561028b3660046120af565b6000908152609860205260409020600101546001600160a01b031690565b6101b76102b7366004611e3d565b610882565b61014e6102ca366004611ce3565b610891565b6101b76102dd366004611ce3565b6108c7565b61014e6102f0366004611ce3565b609b6020526000908152604090205481565b6101976103103660046120af565b6109c0565b610174610323366004611d04565b6001600160a01b03918216600090815260666020908152604080832093909416825291909152205460ff1690565b6101b761035f366004611ea0565b610a75565b6101b7610372366004611ddb565b610ad6565b61014e610b5d565b60006001600160a01b0383166103f05760405162461bcd60e51b815260206004820152602b60248201527f455243313135353a2062616c616e636520717565727920666f7220746865207a60448201526a65726f206164647265737360a81b60648201526084015b60405180910390fd5b5060009081526065602090815260408083206001600160a01b03949094168352929052205490565b60006001600160e01b03198216636cdb3d1360e11b148061044957506001600160e01b031982166303a24d0760e21b145b8061046457506301ffc9a760e01b6001600160e01b03198316145b92915050565b60606000610477836109c0565b61048b610483856107db565b60ff16610b6d565b6000858152609860205260409020600201546104a690610b6d565b6000868152609860205260409020600101546104ca906001600160a01b0316610c8e565b6040516020016104dd949392919061214e565b60405160208183030381529060405290506104f781610cc6565b6040516020016105079190612278565b604051602081830303815290604052915050919050565b6001600160a01b03851633148061053a575061053a8533610323565b6105a15760405162461bcd60e51b815260206004820152603260248201527f455243313135353a207472616e736665722063616c6c6572206973206e6f74206044820152711bdddb995c881b9bdc88185c1c1c9bdd995960721b60648201526084016103e7565b6105ae8585858585610e3b565b5050505050565b6060609980548060200260200160405190810160405280929190818152602001828054801561060d57602002820191906000526020600020905b81546001600160a01b031681526001909101906020018083116105ef575b5050505050905090565b6060815183511461067c5760405162461bcd60e51b815260206004820152602960248201527f455243313135353a206163636f756e747320616e6420696473206c656e677468604482015268040dad2e6dac2e8c6d60bb1b60648201526084016103e7565b600083516001600160401b038111156106a557634e487b7160e01b600052604160045260246000fd5b6040519080825280602002602001820160405280156106ce578160200160208202803683370190505b50905060005b84518110156107705761073585828151811061070057634e487b7160e01b600052603260045260246000fd5b602002602001015185838151811061072857634e487b7160e01b600052603260045260246000fd5b602002602001015161037f565b82828151811061075557634e487b7160e01b600052603260045260246000fd5b602090810291909101015261076981612679565b90506106d4565b509392505050565b609a546001600160a01b031633146107a25760405162461bcd60e51b81526004016103e790612517565b600083815260986020526040812060020180548492906107c3908490612584565b909155506107d5905084848484611037565b50505050565b6000609c548214156107ef57506012919050565b60008281526098602090815260409182902060010154825163313ce56760e01b815292516001600160a01b039091169263313ce567926004808301939192829003018186803b15801561084157600080fd5b505afa925050508015610871575060408051601f3d908101601f1916820190925261086e918101906120c7565b60015b61046457506000919050565b919050565b61088d338383611143565b5050565b609a546000906001600160a01b031633146108be5760405162461bcd60e51b81526004016103e790612517565b61046482611224565b600054610100900460ff166108e25760005460ff16156108e6565b303b155b6109495760405162461bcd60e51b815260206004820152602e60248201527f496e697469616c697a61626c653a20636f6e747261637420697320616c72656160448201526d191e481a5b9a5d1a585b1a5e995960921b60648201526084016103e7565b600054610100900460ff1615801561096b576000805461ffff19166101011790555b61098360405180602001604052806000815250611341565b609a80546001600160a01b0319166001600160a01b0384161790556109a86000611224565b609c55801561088d576000805461ff00191690555050565b6060609c548214156109eb57505060408051808201909152600381526208aa8960eb1b602082015290565b6000828152609860205260408082206001015481516306fdde0360e01b815291516001600160a01b03909116926306fdde039260048082019391829003018186803b158015610a3957600080fd5b505afa158015610a4d573d6000803e3d6000fd5b505050506040513d6000823e601f3d908101601f191682016040526104649190810190612032565b609a546001600160a01b03163314610a9f5760405162461bcd60e51b81526004016103e790612517565b60008281526098602052604081206002018054839290610ac09084906125cf565b90915550610ad19050838383611374565b505050565b6001600160a01b038516331480610af25750610af28533610323565b610b505760405162461bcd60e51b815260206004820152602960248201527f455243313135353a2063616c6c6572206973206e6f74206f776e6572206e6f7260448201526808185c1c1c9bdd995960ba1b60648201526084016103e7565b6105ae85858585856114f2565b6000610b6860975490565b905090565b606081610b915750506040805180820190915260018152600360fc1b602082015290565b8160005b8115610bbb5780610ba581612679565b9150610bb49050600a8361259c565b9150610b95565b6000816001600160401b03811115610be357634e487b7160e01b600052604160045260246000fd5b6040519080825280601f01601f191660200182016040528015610c0d576020820181803683370190505b5090505b8415610c8657610c226001836125cf565b9150610c2f600a86612694565b610c3a906030612584565b60f81b818381518110610c5d57634e487b7160e01b600052603260045260246000fd5b60200101906001600160f81b031916908160001a905350610c7f600a8661259c565b9450610c11565b949350505050565b604051606082811b6bffffffffffffffffffffffff191660208301529061046490603401604051602081830303815290604052611613565b6060815160001415610ce657505060408051602081019091526000815290565b60006040518060600160405280604081526020016127a26040913990506000600384516002610d159190612584565b610d1f919061259c565b610d2a9060046125b0565b90506000610d39826020612584565b6001600160401b03811115610d5e57634e487b7160e01b600052604160045260246000fd5b6040519080825280601f01601f191660200182016040528015610d88576020820181803683370190505b509050818152600183018586518101602084015b81831015610df65760039283018051603f601282901c811687015160f890811b8552600c83901c8216880151811b6001860152600683901c8216880151811b60028601529116860151901b93820193909352600401610d9c565b600389510660018114610e105760028114610e2157610e2d565b613d3d60f01b600119830152610e2d565b603d60f81b6000198301525b509398975050505050505050565b8151835114610e9d5760405162461bcd60e51b815260206004820152602860248201527f455243313135353a2069647320616e6420616d6f756e7473206c656e677468206044820152670dad2e6dac2e8c6d60c31b60648201526084016103e7565b6001600160a01b038416610ec35760405162461bcd60e51b81526004016103e79061243d565b3360005b8451811015610fc9576000858281518110610ef257634e487b7160e01b600052603260045260246000fd5b602002602001015190506000858381518110610f1e57634e487b7160e01b600052603260045260246000fd5b60209081029190910181015160008481526065835260408082206001600160a01b038e168352909352919091205490915081811015610f6f5760405162461bcd60e51b81526004016103e790612482565b60008381526065602090815260408083206001600160a01b038e8116855292528083208585039055908b16825281208054849290610fae908490612584565b9250508190555050505080610fc290612679565b9050610ec7565b50846001600160a01b0316866001600160a01b0316826001600160a01b03167f4a39dc06d4c0dbc64b70af90fd698a233a518aa5d07e595d983b8c0526c8f7fb87876040516110199291906123b4565b60405180910390a461102f8187878787876118a1565b505050505050565b6001600160a01b0384166110975760405162461bcd60e51b815260206004820152602160248201527f455243313135353a206d696e7420746f20746865207a65726f206164647265736044820152607360f81b60648201526084016103e7565b336110b1816000876110a888611a0c565b6105ae88611a0c565b60008481526065602090815260408083206001600160a01b0389168452909152812080548592906110e3908490612584565b909155505060408051858152602081018590526001600160a01b0380881692600092918516917fc3d58168c5ae7397731d063d5bbf3d657854427343f4c083240f7aacaa2d0f62910160405180910390a46105ae81600087878787611a65565b816001600160a01b0316836001600160a01b031614156111b75760405162461bcd60e51b815260206004820152602960248201527f455243313135353a2073657474696e6720617070726f76616c20737461747573604482015268103337b91039b2b63360b91b60648201526084016103e7565b6001600160a01b03838116600081815260666020908152604080832094871680845294825291829020805460ff191686151590811790915591519182527f17307eab39ab6107e8899845ad3d59bd9653f200f220920489ca2b5937696c31910160405180910390a3505050565b6000611234609780546001019055565b600061123f60975490565b6001600160a01b038481166000818152609b6020908152604080832086905580516080810182528681528083018581528183018581526001606084018181528a88526098875285882094518555925184820180546001600160a01b031990811692909b169190911790559051600284015590516003909201805460ff1916921515929092179091556099805491820181559093527f72a152ddfb8e864297c917af52ea6c1c68aead0fee1a62673fcc7e0c94979d00909201805490941683179093558051848152928301919091529192507f20083cb7eb1c58b3c0fd13a9da9120c4a541f6ee8340360fdf9af2fbcb9a97fd910160405180910390a192915050565b600054610100900460ff166113685760405162461bcd60e51b81526004016103e7906124cc565b61137181611b2f565b50565b6001600160a01b0383166113d65760405162461bcd60e51b815260206004820152602360248201527f455243313135353a206275726e2066726f6d20746865207a65726f206164647260448201526265737360e81b60648201526084016103e7565b33611406818560006113e787611a0c565b6113f087611a0c565b5050604080516020810190915260009052505050565b60008381526065602090815260408083206001600160a01b0388168452909152902054828110156114855760405162461bcd60e51b8152602060048201526024808201527f455243313135353a206275726e20616d6f756e7420657863656564732062616c604482015263616e636560e01b60648201526084016103e7565b60008481526065602090815260408083206001600160a01b03898116808652918452828520888703905582518981529384018890529092908616917fc3d58168c5ae7397731d063d5bbf3d657854427343f4c083240f7aacaa2d0f62910160405180910390a45050505050565b6001600160a01b0384166115185760405162461bcd60e51b81526004016103e79061243d565b336115288187876110a888611a0c565b60008481526065602090815260408083206001600160a01b038a1684529091529020548381101561156b5760405162461bcd60e51b81526004016103e790612482565b60008581526065602090815260408083206001600160a01b038b81168552925280832087850390559088168252812080548692906115aa908490612584565b909155505060408051868152602081018690526001600160a01b03808916928a821692918616917fc3d58168c5ae7397731d063d5bbf3d657854427343f4c083240f7aacaa2d0f62910160405180910390a461160a828888888888611a65565b50505050505050565b60408051808201909152601081526f181899199a1a9b1b9c1cb0b131b232b360811b602082015281516060919060009061164e9060026125b0565b611659906002612584565b6001600160401b0381111561167e57634e487b7160e01b600052604160045260246000fd5b6040519080825280601f01601f1916602001820160405280156116a8576020820181803683370190505b509050600360fc1b816000815181106116d157634e487b7160e01b600052603260045260246000fd5b60200101906001600160f81b031916908160001a905350600f60fb1b8160018151811061170e57634e487b7160e01b600052603260045260246000fd5b60200101906001600160f81b031916908160001a90535060005b84518110156107705782600486838151811061175457634e487b7160e01b600052603260045260246000fd5b016020015182516001600160f81b031990911690911c60f81c90811061178a57634e487b7160e01b600052603260045260246000fd5b01602001516001600160f81b031916826117a58360026125b0565b6117b0906002612584565b815181106117ce57634e487b7160e01b600052603260045260246000fd5b60200101906001600160f81b031916908160001a9053508285828151811061180657634e487b7160e01b600052603260045260246000fd5b602091010151815160f89190911c600f1690811061183457634e487b7160e01b600052603260045260246000fd5b01602001516001600160f81b0319168261184f8360026125b0565b61185a906003612584565b8151811061187857634e487b7160e01b600052603260045260246000fd5b60200101906001600160f81b031916908160001a9053508061189981612679565b915050611728565b6001600160a01b0384163b1561102f5760405163bc197c8160e01b81526001600160a01b0385169063bc197c81906118e590899089908890889088906004016122bd565b602060405180830381600087803b1580156118ff57600080fd5b505af192505050801561192f575060408051601f3d908101601f1916820190925261192c91810190612016565b60015b6119dc5761193b6126ea565b806308c379a014156119755750611950612702565b8061195b5750611977565b8060405162461bcd60e51b81526004016103e791906123e2565b505b60405162461bcd60e51b815260206004820152603460248201527f455243313135353a207472616e7366657220746f206e6f6e20455243313135356044820152732932b1b2b4bb32b91034b6b83632b6b2b73a32b960611b60648201526084016103e7565b6001600160e01b0319811663bc197c8160e01b1461160a5760405162461bcd60e51b81526004016103e7906123f5565b60408051600180825281830190925260609160009190602080830190803683370190505090508281600081518110611a5457634e487b7160e01b600052603260045260246000fd5b602090810291909101015292915050565b6001600160a01b0384163b1561102f5760405163f23a6e6160e01b81526001600160a01b0385169063f23a6e6190611aa9908990899088908890889060040161230f565b602060405180830381600087803b158015611ac357600080fd5b505af1925050508015611af3575060408051601f3d908101601f19168201909252611af091810190612016565b60015b611aff5761193b6126ea565b6001600160e01b0319811663f23a6e6160e01b1461160a5760405162461bcd60e51b81526004016103e7906123f5565b600054610100900460ff16611b565760405162461bcd60e51b81526004016103e7906124cc565b61137181805161088d906067906020840190828054611b7490612612565b90600052602060002090601f016020900481019282611b965760008555611bdc565b82601f10611baf57805160ff1916838001178555611bdc565b82800160010185558215611bdc579182015b82811115611bdc578251825591602001919060010190611bc1565b50611be8929150611bec565b5090565b5b80821115611be85760008155600101611bed565b80356001600160a01b038116811461087d57600080fd5b600082601f830112611c28578081fd5b81356020611c358261253a565b604051611c42828261264d565b8381528281019150858301600585901b87018401881015611c61578586fd5b855b85811015611c7f57813584529284019290840190600101611c63565b5090979650505050505050565b600082601f830112611c9c578081fd5b8135611ca78161255d565b604051611cb4828261264d565b828152856020848701011115611cc8578384fd5b82602086016020830137918201602001929092529392505050565b600060208284031215611cf4578081fd5b611cfd82611c01565b9392505050565b60008060408385031215611d16578081fd5b611d1f83611c01565b9150611d2d60208401611c01565b90509250929050565b600080600080600060a08688031215611d4d578081fd5b611d5686611c01565b9450611d6460208701611c01565b935060408601356001600160401b0380821115611d7f578283fd5b611d8b89838a01611c18565b94506060880135915080821115611da0578283fd5b611dac89838a01611c18565b93506080880135915080821115611dc1578283fd5b50611dce88828901611c8c565b9150509295509295909350565b600080600080600060a08688031215611df2578081fd5b611dfb86611c01565b9450611e0960208701611c01565b9350604086013592506060860135915060808601356001600160401b03811115611e31578182fd5b611dce88828901611c8c565b60008060408385031215611e4f578182fd5b611e5883611c01565b915060208301358015158114611e6c578182fd5b809150509250929050565b60008060408385031215611e89578182fd5b611e9283611c01565b946020939093013593505050565b600080600060608486031215611eb4578283fd5b611ebd84611c01565b95602085013595506040909401359392505050565b60008060008060808587031215611ee7578182fd5b611ef085611c01565b9350602085013592506040850135915060608501356001600160401b03811115611f18578182fd5b611f2487828801611c8c565b91505092959194509250565b60008060408385031215611f42578182fd5b82356001600160401b0380821115611f58578384fd5b818501915085601f830112611f6b578384fd5b81356020611f788261253a565b604051611f85828261264d565b8381528281019150858301600585901b870184018b1015611fa4578889fd5b8896505b84871015611fcd57611fb981611c01565b835260019690960195918301918301611fa8565b5096505086013592505080821115611fe3578283fd5b50611ff085828601611c18565b9150509250929050565b60006020828403121561200b578081fd5b8135611cfd8161278b565b600060208284031215612027578081fd5b8151611cfd8161278b565b600060208284031215612043578081fd5b81516001600160401b03811115612058578182fd5b8201601f81018413612068578182fd5b80516120738161255d565b604051612080828261264d565b828152866020848601011115612094578485fd5b6120a58360208301602087016125e6565b9695505050505050565b6000602082840312156120c0578081fd5b5035919050565b6000602082840312156120d8578081fd5b815160ff81168114611cfd578182fd5b6000815180845260208085019450808401835b83811015612117578151875295820195908201906001016120fb565b509495945050505050565b6000815180845261213a8160208601602086016125e6565b601f01601f19169290920160200192915050565b693d913730b6b2911d101160b11b8152845160009061217481600a850160208a016125e6565b6e0111610113232b1b4b6b0b639911d1608d1b600a9184019182015285516121a3816019840160208a016125e6565b7001610113a37ba30b629bab838363c911d1607d1b6019929091019182015284516121d581602a8401602089016125e6565b7f2c20226465736372697074696f6e223a2022222c202261747472696275746573602a929091019182015261111d60f11b604a8201527f5b7b226b6579223a2261646472657373222c2276616c7565223a220000000000604c82015283516122448160678401602088016125e6565b61226c61225f60678385010162227d5d60e81b815260030190565b607d60f81b815260010190565b98975050505050505050565b7f646174613a6170706c69636174696f6e2f6a736f6e3b6261736536342c0000008152600082516122b081601d8501602087016125e6565b91909101601d0192915050565b6001600160a01b0386811682528516602082015260a0604082018190526000906122e9908301866120e8565b82810360608401526122fb81866120e8565b9050828103608084015261226c8185612122565b6001600160a01b03868116825285166020820152604081018490526060810183905260a06080820181905260009061234990830184612122565b979650505050505050565b6020808252825182820181905260009190848201906040850190845b818110156123955783516001600160a01b031683529284019291840191600101612370565b50909695505050505050565b602081526000611cfd60208301846120e8565b6040815260006123c760408301856120e8565b82810360208401526123d981856120e8565b95945050505050565b602081526000611cfd6020830184612122565b60208082526028908201527f455243313135353a204552433131353552656365697665722072656a656374656040820152676420746f6b656e7360c01b606082015260800190565b60208082526025908201527f455243313135353a207472616e7366657220746f20746865207a65726f206164604082015264647265737360d81b606082015260800190565b6020808252602a908201527f455243313135353a20696e73756666696369656e742062616c616e636520666f60408201526939103a3930b739b332b960b11b606082015260800190565b6020808252602b908201527f496e697469616c697a61626c653a20636f6e7472616374206973206e6f74206960408201526a6e697469616c697a696e6760a81b606082015260800190565b6020808252600990820152683737ba1037bbb732b960b91b604082015260600190565b60006001600160401b03821115612553576125536126d4565b5060051b60200190565b60006001600160401b03821115612576576125766126d4565b50601f01601f191660200190565b60008219821115612597576125976126a8565b500190565b6000826125ab576125ab6126be565b500490565b60008160001904831182151516156125ca576125ca6126a8565b500290565b6000828210156125e1576125e16126a8565b500390565b60005b838110156126015781810151838201526020016125e9565b838111156107d55750506000910152565b600181811c9082168061262657607f821691505b6020821081141561264757634e487b7160e01b600052602260045260246000fd5b50919050565b601f8201601f191681016001600160401b0381118282101715612672576126726126d4565b6040525050565b600060001982141561268d5761268d6126a8565b5060010190565b6000826126a3576126a36126be565b500690565b634e487b7160e01b600052601160045260246000fd5b634e487b7160e01b600052601260045260246000fd5b634e487b7160e01b600052604160045260246000fd5b600060033d11156126ff57600481823e5160e01c5b90565b600060443d10156127105790565b6040516003193d81016004833e81513d6001600160401b03816024840111818411171561273f57505050505090565b82850191508151818111156127575750505050505090565b843d87010160208285010111156127715750505050505090565b6127806020828601018761264d565b509095945050505050565b6001600160e01b03198116811461137157600080fdfe4142434445464748494a4b4c4d4e4f505152535455565758595a6162636465666768696a6b6c6d6e6f707172737475767778797a303132333435363738392b2fa264697066735822122084b5baaf1e6a09afaa4e2ae20ca65bde562bd1894ba4b35e82703776f1b3d18364736f6c63430008040033",
  "linkReferences": {},
  "deployedLinkReferences": {}
}