{
  "_format": "hh-sol-artifact-1",
  "contractName": "TransferLiquidERC20BudgetApproval",
  "sourceName": "contracts/TransferLiquidERC20BudgetApproval.sol",
  "abi": [
    {
      "inputs": [],
      "stateMutability": "nonpayable",
      "type": "constructor"
    },
    {
      "anonymous": false,
      "inputs": [
        {
          "indexed": false,
          "internalType": "address",
          "name": "target",
          "type": "address"
        }
      ],
      "name": "AllowAddress",
      "type": "event"
    },
    {
      "anonymous": false,
      "inputs": [
        {
          "indexed": false,
          "internalType": "uint256",
          "name": "amount",
          "type": "uint256"
        }
      ],
      "name": "AllowAmount",
      "type": "event"
    },
    {
      "anonymous": false,
      "inputs": [
        {
          "indexed": false,
          "internalType": "address",
          "name": "token",
          "type": "address"
        }
      ],
      "name": "AllowToken",
      "type": "event"
    },
    {
      "anonymous": false,
      "inputs": [
        {
          "indexed": true,
          "internalType": "uint256",
          "name": "id",
          "type": "uint256"
        },
        {
          "indexed": false,
          "internalType": "address",
          "name": "approver",
          "type": "address"
        },
        {
          "indexed": false,
          "internalType": "string",
          "name": "comment",
          "type": "string"
        }
      ],
      "name": "ApproveTransaction",
      "type": "event"
    },
    {
      "anonymous": false,
      "inputs": [
        {
          "indexed": true,
          "internalType": "uint256",
          "name": "id",
          "type": "uint256"
        },
        {
          "indexed": false,
          "internalType": "bytes[]",
          "name": "data",
          "type": "bytes[]"
        },
        {
          "indexed": false,
          "internalType": "uint256",
          "name": "deadline",
          "type": "uint256"
        },
        {
          "indexed": false,
          "internalType": "enum CommonBudgetApproval.Status",
          "name": "status",
          "type": "uint8"
        },
        {
          "indexed": false,
          "internalType": "string",
          "name": "comment",
          "type": "string"
        },
        {
          "indexed": false,
          "internalType": "address",
          "name": "creator",
          "type": "address"
        }
      ],
      "name": "CreateTransaction",
      "type": "event"
    },
    {
      "anonymous": false,
      "inputs": [
        {
          "indexed": true,
          "internalType": "uint256",
          "name": "id",
          "type": "uint256"
        },
        {
          "indexed": false,
          "internalType": "bytes[]",
          "name": "data",
          "type": "bytes[]"
        },
        {
          "indexed": false,
          "internalType": "address",
          "name": "_executor",
          "type": "address"
        }
      ],
      "name": "ExecuteTransaction",
      "type": "event"
    },
    {
      "anonymous": false,
      "inputs": [
        {
          "indexed": true,
          "internalType": "uint256",
          "name": "id",
          "type": "uint256"
        },
        {
          "indexed": true,
          "internalType": "address",
          "name": "executor",
          "type": "address"
        },
        {
          "indexed": true,
          "internalType": "address",
          "name": "toAddress",
          "type": "address"
        },
        {
          "indexed": false,
          "internalType": "address",
          "name": "token",
          "type": "address"
        },
        {
          "indexed": false,
          "internalType": "uint256",
          "name": "amount",
          "type": "uint256"
        }
      ],
      "name": "ExecuteTransferLiquidERC20Transaction",
      "type": "event"
    },
    {
      "anonymous": false,
      "inputs": [
        {
          "indexed": false,
          "internalType": "uint8",
          "name": "version",
          "type": "uint8"
        }
      ],
      "name": "Initialized",
      "type": "event"
    },
    {
      "anonymous": false,
      "inputs": [
        {
          "indexed": true,
          "internalType": "uint256",
          "name": "id",
          "type": "uint256"
        }
      ],
      "name": "RevokeTransaction",
      "type": "event"
    },
    {
      "anonymous": false,
      "inputs": [
        {
          "indexed": false,
          "internalType": "address",
          "name": "approver",
          "type": "address"
        }
      ],
      "name": "SetApprover",
      "type": "event"
    },
    {
      "inputs": [
        {
          "internalType": "address",
          "name": "",
          "type": "address"
        }
      ],
      "name": "addressesMapping",
      "outputs": [
        {
          "internalType": "bool",
          "name": "",
          "type": "bool"
        }
      ],
      "stateMutability": "view",
      "type": "function"
    },
    {
      "inputs": [],
      "name": "afterInitialized",
      "outputs": [],
      "stateMutability": "nonpayable",
      "type": "function"
    },
    {
      "inputs": [],
      "name": "allowAllAddresses",
      "outputs": [
        {
          "internalType": "bool",
          "name": "",
          "type": "bool"
        }
      ],
      "stateMutability": "view",
      "type": "function"
    },
    {
      "inputs": [],
      "name": "allowAnyAmount",
      "outputs": [
        {
          "internalType": "bool",
          "name": "",
          "type": "bool"
        }
      ],
      "stateMutability": "view",
      "type": "function"
    },
    {
      "inputs": [],
      "name": "allowUnlimitedUsageCount",
      "outputs": [
        {
          "internalType": "bool",
          "name": "",
          "type": "bool"
        }
      ],
      "stateMutability": "view",
      "type": "function"
    },
    {
      "inputs": [
        {
          "internalType": "uint256",
          "name": "id",
          "type": "uint256"
        },
        {
          "internalType": "string",
          "name": "comment",
          "type": "string"
        }
      ],
      "name": "approveTransaction",
      "outputs": [],
      "stateMutability": "nonpayable",
      "type": "function"
    },
    {
      "inputs": [],
      "name": "approverTeamId",
      "outputs": [
        {
          "internalType": "uint256",
          "name": "",
          "type": "uint256"
        }
      ],
      "stateMutability": "view",
      "type": "function"
    },
    {
      "inputs": [
        {
          "internalType": "address",
          "name": "eoa",
          "type": "address"
        }
      ],
      "name": "approversMapping",
      "outputs": [
        {
          "internalType": "bool",
          "name": "",
          "type": "bool"
        }
      ],
      "stateMutability": "view",
      "type": "function"
    },
    {
      "inputs": [
        {
          "internalType": "address",
          "name": "asset",
          "type": "address"
        },
        {
          "internalType": "uint256",
          "name": "amount",
          "type": "uint256"
        }
      ],
      "name": "assetBaseCurrencyPrice",
      "outputs": [
        {
          "internalType": "uint256",
          "name": "",
          "type": "uint256"
        }
      ],
      "stateMutability": "view",
      "type": "function"
    },
    {
      "inputs": [
        {
          "internalType": "address",
          "name": "asset",
          "type": "address"
        },
        {
          "internalType": "uint256",
          "name": "amount",
          "type": "uint256"
        }
      ],
      "name": "assetEthPrice",
      "outputs": [
        {
          "internalType": "uint256",
          "name": "",
          "type": "uint256"
        }
      ],
      "stateMutability": "view",
      "type": "function"
    },
    {
      "inputs": [],
      "name": "baseCurrency",
      "outputs": [
        {
          "internalType": "address",
          "name": "",
          "type": "address"
        }
      ],
      "stateMutability": "view",
      "type": "function"
    },
    {
      "inputs": [],
      "name": "baseCurrencyDecimals",
      "outputs": [
        {
          "internalType": "uint8",
          "name": "",
          "type": "uint8"
        }
      ],
      "stateMutability": "view",
      "type": "function"
    },
    {
      "inputs": [
        {
          "internalType": "address",
          "name": "asset",
          "type": "address"
        }
      ],
      "name": "canResolvePrice",
      "outputs": [
        {
          "internalType": "bool",
          "name": "",
          "type": "bool"
        }
      ],
      "stateMutability": "view",
      "type": "function"
    },
    {
      "inputs": [
        {
          "internalType": "bytes[]",
          "name": "_data",
          "type": "bytes[]"
        },
        {
          "internalType": "uint32",
          "name": "_deadline",
          "type": "uint32"
        },
        {
          "internalType": "bool",
          "name": "_isExecute",
          "type": "bool"
        },
        {
          "internalType": "string",
          "name": "comment",
          "type": "string"
        }
      ],
      "name": "createTransaction",
      "outputs": [
        {
          "internalType": "uint256",
          "name": "",
          "type": "uint256"
        }
      ],
      "stateMutability": "nonpayable",
      "type": "function"
    },
    {
      "inputs": [],
      "name": "endTime",
      "outputs": [
        {
          "internalType": "uint256",
          "name": "",
          "type": "uint256"
        }
      ],
      "stateMutability": "view",
      "type": "function"
    },
    {
      "inputs": [
        {
          "internalType": "address",
          "name": "asset",
          "type": "address"
        },
        {
          "internalType": "uint256",
          "name": "ethAmount",
          "type": "uint256"
        }
      ],
      "name": "ethAssetPrice",
      "outputs": [
        {
          "internalType": "uint256",
          "name": "",
          "type": "uint256"
        }
      ],
      "stateMutability": "view",
      "type": "function"
    },
    {
      "inputs": [],
      "name": "executeParams",
      "outputs": [
        {
          "internalType": "string[]",
          "name": "",
          "type": "string[]"
        }
      ],
      "stateMutability": "pure",
      "type": "function"
    },
    {
      "inputs": [
        {
          "internalType": "uint256",
          "name": "id",
          "type": "uint256"
        }
      ],
      "name": "executeTransaction",
      "outputs": [],
      "stateMutability": "nonpayable",
      "type": "function"
    },
    {
      "inputs": [],
      "name": "executee",
      "outputs": [
        {
          "internalType": "address",
          "name": "",
          "type": "address"
        }
      ],
      "stateMutability": "view",
      "type": "function"
    },
    {
      "inputs": [],
      "name": "executor",
      "outputs": [
        {
          "internalType": "address",
          "name": "",
          "type": "address"
        }
      ],
      "stateMutability": "view",
      "type": "function"
    },
    {
      "inputs": [],
      "name": "executorTeamId",
      "outputs": [
        {
          "internalType": "uint256",
          "name": "",
          "type": "uint256"
        }
      ],
      "stateMutability": "view",
      "type": "function"
    },
    {
      "inputs": [
        {
          "components": [
            {
              "internalType": "address",
              "name": "executor",
              "type": "address"
            },
            {
              "internalType": "uint256",
              "name": "executorTeamId",
              "type": "uint256"
            },
            {
              "internalType": "address[]",
              "name": "approvers",
              "type": "address[]"
            },
            {
              "internalType": "uint256",
              "name": "approverTeamId",
              "type": "uint256"
            },
            {
              "internalType": "uint256",
              "name": "minApproval",
              "type": "uint256"
            },
            {
              "internalType": "string",
              "name": "text",
              "type": "string"
            },
            {
              "internalType": "string",
              "name": "transactionType",
              "type": "string"
            },
            {
              "internalType": "uint256",
              "name": "startTime",
              "type": "uint256"
            },
            {
              "internalType": "uint256",
              "name": "endTime",
              "type": "uint256"
            },
            {
              "internalType": "bool",
              "name": "allowUnlimitedUsageCount",
              "type": "bool"
            },
            {
              "internalType": "uint256",
              "name": "usageCount",
              "type": "uint256"
            },
            {
              "internalType": "address",
              "name": "team",
              "type": "address"
            }
          ],
          "internalType": "struct CommonBudgetApproval.InitializeParams",
          "name": "params",
          "type": "tuple"
        },
        {
          "internalType": "bool",
          "name": "_allowAllAddresses",
          "type": "bool"
        },
        {
          "internalType": "address[]",
          "name": "_toAddresses",
          "type": "address[]"
        },
        {
          "internalType": "address[]",
          "name": "_tokens",
          "type": "address[]"
        },
        {
          "internalType": "bool",
          "name": "_allowAnyAmount",
          "type": "bool"
        },
        {
          "internalType": "uint256",
          "name": "_totalAmount",
          "type": "uint256"
        },
        {
          "internalType": "address",
          "name": "_baseCurrency",
          "type": "address"
        }
      ],
      "name": "initialize",
      "outputs": [],
      "stateMutability": "nonpayable",
      "type": "function"
    },
    {
      "inputs": [],
      "name": "minApproval",
      "outputs": [
        {
          "internalType": "uint256",
          "name": "",
          "type": "uint256"
        }
      ],
      "stateMutability": "view",
      "type": "function"
    },
    {
      "inputs": [],
      "name": "name",
      "outputs": [
        {
          "internalType": "string",
          "name": "",
          "type": "string"
        }
      ],
      "stateMutability": "view",
      "type": "function"
    },
    {
      "inputs": [
        {
          "internalType": "uint256",
          "name": "id",
          "type": "uint256"
        }
      ],
      "name": "revokeTransaction",
      "outputs": [],
      "stateMutability": "nonpayable",
      "type": "function"
    },
    {
      "inputs": [],
      "name": "startTime",
      "outputs": [
        {
          "internalType": "uint256",
          "name": "",
          "type": "uint256"
        }
      ],
      "stateMutability": "view",
      "type": "function"
    },
    {
      "inputs": [],
      "name": "team",
      "outputs": [
        {
          "internalType": "address",
          "name": "",
          "type": "address"
        }
      ],
      "stateMutability": "view",
      "type": "function"
    },
    {
      "inputs": [],
      "name": "text",
      "outputs": [
        {
          "internalType": "string",
          "name": "",
          "type": "string"
        }
      ],
      "stateMutability": "view",
      "type": "function"
    },
    {
      "inputs": [
        {
          "internalType": "uint256",
          "name": "",
          "type": "uint256"
        }
      ],
      "name": "tokens",
      "outputs": [
        {
          "internalType": "address",
          "name": "",
          "type": "address"
        }
      ],
      "stateMutability": "view",
      "type": "function"
    },
    {
      "inputs": [],
      "name": "tokensLength",
      "outputs": [
        {
          "internalType": "uint256",
          "name": "",
          "type": "uint256"
        }
      ],
      "stateMutability": "view",
      "type": "function"
    },
    {
      "inputs": [
        {
          "internalType": "address",
          "name": "",
          "type": "address"
        }
      ],
      "name": "tokensMapping",
      "outputs": [
        {
          "internalType": "bool",
          "name": "",
          "type": "bool"
        }
      ],
      "stateMutability": "view",
      "type": "function"
    },
    {
      "inputs": [],
      "name": "totalAmount",
      "outputs": [
        {
          "internalType": "uint256",
          "name": "",
          "type": "uint256"
        }
      ],
      "stateMutability": "view",
      "type": "function"
    },
    {
      "inputs": [],
      "name": "transactionType",
      "outputs": [
        {
          "internalType": "string",
          "name": "",
          "type": "string"
        }
      ],
      "stateMutability": "view",
      "type": "function"
    },
    {
      "inputs": [
        {
          "internalType": "uint256",
          "name": "",
          "type": "uint256"
        }
      ],
      "name": "transactions",
      "outputs": [
        {
          "internalType": "uint256",
          "name": "id",
          "type": "uint256"
        },
        {
          "internalType": "enum CommonBudgetApproval.Status",
          "name": "status",
          "type": "uint8"
        },
        {
          "internalType": "uint32",
          "name": "deadline",
          "type": "uint32"
        },
        {
          "internalType": "bool",
          "name": "isExist",
          "type": "bool"
        },
        {
          "internalType": "uint256",
          "name": "approvedCount",
          "type": "uint256"
        }
      ],
      "stateMutability": "view",
      "type": "function"
    },
    {
      "inputs": [],
      "name": "usageCount",
      "outputs": [
        {
          "internalType": "uint256",
          "name": "",
          "type": "uint256"
        }
      ],
      "stateMutability": "view",
      "type": "function"
    }
  ],
  "bytecode": "0x60806040523480156200001157600080fd5b506200001c62000036565b6200002662000036565b6200003062000036565b620000f8565b600054610100900460ff1615620000a35760405162461bcd60e51b815260206004820152602760248201527f496e697469616c697a61626c653a20636f6e747261637420697320696e697469604482015266616c697a696e6760c81b606482015260840160405180910390fd5b60005460ff9081161015620000f6576000805460ff191660ff9081179091556040519081527f7f26b83ff96e1f2b6a682f133852f6798a09c465da95921460cefb38474024989060200160405180910390a15b565b613b9580620001086000396000f3fe608060405234801561001057600080fd5b50600436106102115760003560e01c806378e9792511610125578063b617b3ee116100ad578063d92fc67b1161007c578063d92fc67b146104a8578063d96c9196146104b0578063de755e2f146104b8578063ee22610b146104c0578063f5c03852146104d357600080fd5b8063b617b3ee1461046f578063bc9c5e901461047c578063c34c08e51461048f578063cf26fec6146104a057600080fd5b80638d1c5c29116100f45780638d1c5c29146103b657806392a85fde146103d957806397c85a61146103ea5780639ace38c2146103fd578063b49612ba1461045c57600080fd5b806378e97925146103885780637cd47d9314610390578063850154371461039857806385f2aef2146103a557600080fd5b80634f64b2be116101a85780635ad32502116101775780635ad325021461031157806360d8bb221461031c57806363d727dc1461032f5780636bdebe5e14610349578063735631ad1461037557600080fd5b80634f64b2be146102b657806350bd881f146102e15780635258f9cd146102e95780635aaaefad146102fe57600080fd5b80631f1bd692116101e45780631f1bd6921461025e5780633197cbb61461026657806331a7bdd91461026e5780633d70015a1461028357600080fd5b806303ff90f61461021657806306fdde031461022d57806314b893f9146102425780631a39d8ef14610255575b600080fd5b6008545b6040519081526020015b60405180910390f35b6102356104e4565b6040516102249190613587565b61021a610250366004612fc8565b610500565b61021a607a5481565b61023561071b565b600e5461021a565b6102766107ad565b6040516102249190613525565b6102a6610291366004612f3c565b60786020526000908152604090205460ff1681565b6040519015158152602001610224565b6102c96102c436600461328a565b6108ae565b6040516001600160a01b039091168152602001610224565b600c5461021a565b6102fc6102f73660046131bc565b6108d8565b005b61021a61030c366004612f9c565b610a9d565b600b5460ff166102a6565b61021a61032a366004612f9c565b610d65565b610337611044565b60405160ff9091168152602001610224565b6102a6610357366004612f3c565b6001600160a01b031660009081526006602052604090205460ff1690565b6102fc61038336600461328a565b6110ff565b600d5461021a565b6102356112f5565b6079546102a69060ff1681565b600f546001600160a01b03166102c9565b6102a66103c4366004612f3c565b60766020526000908152604090205460ff1681565b6042546001600160a01b03166102c9565b6102fc6103f83660046132bc565b611304565b61044b61040b36600461328a565b600260208190526000918252604090912080549181015460039091015460ff8083169263ffffffff61010082041692650100000000009091049091169085565b60405161022495949392919061365e565b61021a61046a366004612f9c565b611634565b6075546102a69060ff1681565b6102a661048a366004612f3c565b6118d7565b6003546001600160a01b03166102c9565b6102fc611a04565b60775461021a565b60075461021a565b60045461021a565b6102fc6104ce36600461328a565b611a6b565b6005546001600160a01b03166102c9565b604051806060016040528060258152602001613b1b6025913981565b60006105146003546001600160a01b031690565b6001600160a01b0316336001600160a01b031614806105d757506000610542600f546001600160a01b031690565b6001600160a01b031662fdd58e3361055960045490565b6040516001600160e01b031960e085901b1681526001600160a01b039092166004830152602482015260440160206040518083038186803b15801561059d57600080fd5b505afa1580156105b1573d6000803e3d6000fd5b505050506040513d601f19601f820116820180604052508101906105d591906132a3565b115b6105fc5760405162461bcd60e51b81526004016105f39061361c565b60405180910390fd5b61060a600180546001019055565b600061061560015490565b6000818152600260209081526040909120828155895192935091610641916001840191908b0190612c72565b506002810180546501000000000065ffffffffff001990911661010063ffffffff8b160265ff000000000019161717905560085461069b57600082815260026020819052604090912001805460ff191660011790556106b6565b600082815260026020819052604090912001805460ff191690555b600281015460405183917f8a5186dbaf6f344b2837e11834be94edebb633f05034f422c6b1fe1595b4d0cc916106f9918c918c9160ff16908b908b9033906134ca565b60405180910390a285156107105761071082611a6b565b509695505050505050565b60606009805461072a90613a41565b80601f016020809104026020016040519081016040528092919081815260200182805461075690613a41565b80156107a35780601f10610778576101008083540402835291602001916107a3565b820191906000526020600020905b81548152906001019060200180831161078657829003601f168201915b5050505050905090565b6040805160038082526080820190925260609160009190816020015b60608152602001906001900390816107c95790505090506040518060400160405280600d81526020016c30b2323932b9b9903a37b5b2b760991b8152508160008151811061081957610819613ad9565b60200260200101819052506040518060400160405280600a8152602001696164647265737320746f60b01b8152508160018151811061085a5761085a613ad9565b60200260200101819052506040518060400160405280600d81526020016c75696e743235362076616c756560981b8152508160028151811061089e5761089e613ad9565b6020908102919091010152919050565b607781815481106108be57600080fd5b6000918252602090912001546001600160a01b0316905081565b600054610100900460ff16158080156108f85750600054600160ff909116105b806109125750303b158015610912575060005460ff166001145b6109755760405162461bcd60e51b815260206004820152602e60248201527f496e697469616c697a61626c653a20636f6e747261637420697320616c72656160448201526d191e481a5b9a5d1a585b1a5e995960921b60648201526084016105f3565b6000805460ff191660011790558015610998576000805461ff0019166101001790555b6109a188611ef3565b6075805460ff191688151517905560005b86518110156109ef576109dd8782815181106109d0576109d0613ad9565b602002602001015161217d565b806109e781613a7c565b9150506109b2565b5060005b8551811015610a3057610a1e868281518110610a1157610a11613ad9565b6020026020010151612253565b80610a2881613a7c565b9150506109f3565b506079805460ff1916851515179055607a839055610a4d826123c4565b8015610a93576000805461ff0019169055604051600181527f7f26b83ff96e1f2b6a682f133852f6798a09c465da95921460cefb38474024989060200160405180910390a15b5050505050505050565b60006001600160a01b038316600080516020613b408339815191521480610ae057506001600160a01b03831673b4fbf271143f4fbf7b91a5ded31805e42b2208d6145b15610aec575080610d5f565b60405163bcfd032d60e01b81526001600160a01b0384166004820152600080516020613b40833981519152602482015260009081908190819073abc30d61d30f19de38897eba18252868b34596649063bcfd032d9060440160a06040518083038186803b158015610b5c57600080fd5b505afa158015610b70573d6000803e3d6000fd5b505050506040513d601f19601f82011682018060405250810190610b949190613308565b604051630b1c5a7560e31b81526001600160a01b038d166004820152600080516020613b408339815191526024820152949850929650945090925060009173abc30d61d30f19de38897eba18252868b345966491506358e2d3a89060440160206040518083038186803b158015610c0a57600080fd5b505afa158015610c1e573d6000803e3d6000fd5b505050506040513d601f19601f82011682018060405250810190610c429190613358565b9050846001600160501b0316826001600160501b03161015610c765760405162461bcd60e51b81526004016105f39061359a565b610c8362015180846137a2565b421115610ca25760405162461bcd60e51b81526004016105f39061359a565b610cae8482601261240d565b93506000841315610d5557876001600160a01b031663313ce5676040518163ffffffff1660e01b815260040160206040518083038186803b158015610cf257600080fd5b505afa158015610d06573d6000803e3d6000fd5b505050506040513d601f19601f82011682018060405250810190610d2a9190613358565b610d3590600a613870565b610d3f88866139a1565b610d49919061380d565b95505050505050610d5f565b6000955050505050505b92915050565b600080610d7a6042546001600160a01b031690565b9050806001600160a01b0316846001600160a01b03161415610d9f5782915050610d5f565b6001600160a01b038116600080516020613b408339815191521480610de057506001600160a01b03811673b4fbf271143f4fbf7b91a5ded31805e42b2208d6145b15610df757610def8484610a9d565b915050610d5f565b6001600160a01b038416600080516020613b408339815191521480610e3857506001600160a01b03841673b4fbf271143f4fbf7b91a5ded31805e42b2208d6145b15610e4757610def8184611634565b60405163d2edb6dd60e01b81526001600160a01b0382166004820152600080516020613b40833981519152602482015260009073abc30d61d30f19de38897eba18252868b34596649063d2edb6dd9060440160206040518083038186803b158015610eb157600080fd5b505afa158015610ec5573d6000803e3d6000fd5b505050506040513d601f19601f82011682018060405250810190610ee9919061319f565b60405163d2edb6dd60e01b81526001600160a01b0387166004820152600080516020613b40833981519152602482015290915060009073abc30d61d30f19de38897eba18252868b34596649063d2edb6dd9060440160206040518083038186803b158015610f5657600080fd5b505afa158015610f6a573d6000803e3d6000fd5b505050506040513d601f19601f82011682018060405250810190610f8e919061319f565b90506000610f9a611044565b90506000610faa83856012612480565b90506000811315610d5557610d49610fc2888361391c565b896001600160a01b031663313ce5676040518163ffffffff1660e01b815260040160206040518083038186803b158015610ffb57600080fd5b505afa15801561100f573d6000803e3d6000fd5b505050506040513d601f19601f820116820180604052508101906110339190613358565b61103e9060126137ba565b8461240d565b6000600080516020613b408339815191526110676042546001600160a01b031690565b6001600160a01b0316141561107c5750601290565b6042546001600160a01b03166001600160a01b031663313ce5676040518163ffffffff1660e01b815260040160206040518083038186803b1580156110c057600080fd5b505afa9250505080156110f0575060408051601f3d908101601f191682019092526110ed91810190613358565b60015b6110fa5750600090565b919050565b6003546001600160a01b03163314806111bc57506000611127600f546001600160a01b031690565b6001600160a01b031662fdd58e3361113e60045490565b6040516001600160e01b031960e085901b1681526001600160a01b039092166004830152602482015260440160206040518083038186803b15801561118257600080fd5b505afa158015611196573d6000803e3d6000fd5b505050506040513d601f19601f820116820180604052508101906111ba91906132a3565b115b6111d85760405162461bcd60e51b81526004016105f39061361c565b806111e260015490565b10156112285760405162461bcd60e51b8152602060048201526015602482015274125b9d985a5b1908151c985b9cd858dd1a5bdb9259605a1b60448201526064016105f3565b60026000828152600260208190526040909120015460ff16600381111561125157611251613ac3565b14156112ad5760405162461bcd60e51b815260206004820152602560248201527f5472616e73616374696f6e20686173206265656e20636f6d706c65746564206260448201526465666f726560d81b60648201526084016105f3565b6000818152600260208190526040808320909101805460ff191660031790555182917f92a917be073b79ab50f9d997e9514a5d101e052ce04228014947e7883a7c034691a250565b6060600a805461072a90613a41565b3360009081526006602052604090205460ff16806113c657506000611331600f546001600160a01b031690565b6001600160a01b031662fdd58e3361134860075490565b6040516001600160e01b031960e085901b1681526001600160a01b039092166004830152602482015260440160206040518083038186803b15801561138c57600080fd5b505afa1580156113a0573d6000803e3d6000fd5b505050506040513d601f19601f820116820180604052508101906113c491906132a3565b115b61141d5760405162461bcd60e51b815260206004820152602260248201527f417070726f766572206e6f742077686974656c697374656420696e2062756467604482015261195d60f21b60648201526084016105f3565b8261142760015490565b101561146d5760405162461bcd60e51b8152602060048201526015602482015274125b9d985a5b1908151c985b9cd858dd1a5bdb9259605a1b60448201526064016105f3565b600083815260026020819052604082209081015460039091015460ff90911691906114999060016137a2565b905060008260038111156114af576114af613ac3565b14806114cc575060018260038111156114ca576114ca613ac3565b145b6115185760405162461bcd60e51b815260206004820152601d60248201527f556e6578706563746564207472616e73616374696f6e2073746174757300000060448201526064016105f3565b600085815260026020908152604080832033845260040190915290205460ff16156115915760405162461bcd60e51b8152602060048201526024808201527f5472616e73616374696f6e20686173206265656e20617070726f766564206265604482015263666f726560e01b60648201526084016105f3565b6000858152600260208181526040808420338552600481018352908420805460ff1916600117905592889052526003018190556115cd60085490565b81106115f157600085815260026020819052604090912001805460ff191660011790555b847f3399030f87676a97e30e211a48f9c46e2ff806d0b4cedf7100782f08c52902c93386866040516116259392919061347b565b60405180910390a25050505050565b60006001600160a01b038316600080516020613b40833981519152148061167757506001600160a01b03831673b4fbf271143f4fbf7b91a5ded31805e42b2208d6145b15611683575080610d5f565b60405163bcfd032d60e01b81526001600160a01b0384166004820152600080516020613b40833981519152602482015260009081908190819073abc30d61d30f19de38897eba18252868b34596649063bcfd032d9060440160a06040518083038186803b1580156116f357600080fd5b505afa158015611707573d6000803e3d6000fd5b505050506040513d601f19601f8201168201806040525081019061172b9190613308565b604051630b1c5a7560e31b81526001600160a01b038d166004820152600080516020613b408339815191526024820152949850929650945090925060009173abc30d61d30f19de38897eba18252868b345966491506358e2d3a89060440160206040518083038186803b1580156117a157600080fd5b505afa1580156117b5573d6000803e3d6000fd5b505050506040513d601f19601f820116820180604052508101906117d99190613358565b9050846001600160501b0316826001600160501b0316101561180d5760405162461bcd60e51b81526004016105f39061359a565b61181a62015180846137a2565b4211156118395760405162461bcd60e51b81526004016105f39061359a565b6118458482601261240d565b93506000841315610d555783886001600160a01b031663313ce5676040518163ffffffff1660e01b815260040160206040518083038186803b15801561188a57600080fd5b505afa15801561189e573d6000803e3d6000fd5b505050506040513d601f19601f820116820180604052508101906118c29190613358565b6118cd90600a613870565b610d3f90896139a1565b60006001600160a01b038216600080516020613b40833981519152148061191a57506001600160a01b03821673b4fbf271143f4fbf7b91a5ded31805e42b2208d6145b1561192757506001919050565b60405163d2edb6dd60e01b81526001600160a01b0383166004820152600080516020613b40833981519152602482015273abc30d61d30f19de38897eba18252868b34596649063d2edb6dd9060440160206040518083038186803b15801561198e57600080fd5b505afa9250505080156119be575060408051601f3d908101601f191682019092526119bb9181019061319f565b60015b6119fb573d8080156119ec576040519150601f19603f3d011682016040523d82523d6000602084013e6119f1565b606091505b5060009392505050565b50600192915050565b6005546001600160a01b03163314611a695760405162461bcd60e51b815260206004820152602260248201527f4578656375746565206e6f742077686974656c697374656420696e2062756467604482015261195d60f21b60648201526084016105f3565b565b806001806000838152600260208190526040909120015460ff166003811115611a9657611a96613ac3565b14611ae35760405162461bcd60e51b815260206004820152601a60248201527f5472616e73616374696f6e2073746174757320696e76616c696400000000000060448201526064016105f3565b600083815260026020819052604090912001548390610100900463ffffffff16421115611b485760405162461bcd60e51b8152602060048201526013602482015272151c985b9cd858dd1a5bdb88195e1c1a5c9959606a1b60448201526064016105f3565b600d54421015611b9a5760405162461bcd60e51b815260206004820152601f60248201527f42756467657420757361676520706572696f64206e6f7420737461727465640060448201526064016105f3565b6000611ba5600e5490565b90508015611bfc57804210611bfc5760405162461bcd60e51b815260206004820152601d60248201527f42756467657420757361676520706572696f642068617320656e64656400000060448201526064016105f3565b6003546001600160a01b0316331480611cb957506000611c24600f546001600160a01b031690565b6001600160a01b031662fdd58e33611c3b60045490565b6040516001600160e01b031960e085901b1681526001600160a01b039092166004830152602482015260440160206040518083038186803b158015611c7f57600080fd5b505afa158015611c93573d6000803e3d6000fd5b505050506040513d601f19601f82011682018060405250810190611cb791906132a3565b115b611cd55760405162461bcd60e51b81526004016105f39061361c565b6000611ce3600b5460ff1690565b90506000611cf0600c5490565b9050600060026000898152602001908152602001600020600101805480602002602001604051908101604052809291908181526020016000905b82821015611dd6578382906000526020600020018054611d4990613a41565b80601f0160208091040260200160405190810160405280929190818152602001828054611d7590613a41565b8015611dc25780601f10611d9757610100808354040283529160200191611dc2565b820191906000526020600020905b815481529060010190602001808311611da557829003601f168201915b505050505081526020019060010190611d2a565b50505050905060005b8151811015611e88578380611df45750600083115b611e405760405162461bcd60e51b815260206004820152601b60248201527f457863656564656420627564676574207573616765206c696d6974000000000060448201526064016105f3565b83611e535782611e4f81613a2a565b9350505b611e7689838381518110611e6957611e69613ad9565b6020026020010151612892565b80611e8081613a7c565b915050611ddf565b50600c82905560008881526002602081905260409091208101805460ff19166001830217905550877f9060adf413860c5ab6e376e0aa4269e49a13f0853edb1583fce8129d4c756d798233604051611ee19291906134a0565b60405180910390a25050505050505050565b600054610100900460ff16611f1a5760405162461bcd60e51b81526004016105f3906135d1565b600081606001351180611f3f5750611f356040820182613694565b9050816080013511155b611f835760405162461bcd60e51b8152602060048201526015602482015274125b9d985b1a5908185c1c1c9bdd995c881b1a5cdd605a1b60448201526064016105f3565b600580546001600160a01b03191633179055611fa26020820182612f3c565b600380546001600160a01b0319166001600160a01b0392909216919091179055611fcf60a08201826136de565b611fdb91600991612ccf565b50611fe960c08201826136de565b611ff591600a91612ccf565b50608081013560085560e0810135600d55610100810135600e556120216101408201610120830161310d565b600b805460ff1916911515919091179055610140810135600c5561204d61018082016101608301612f3c565b600f80546001600160a01b0319166001600160a01b03929092169190911790556020810135600455606081013560075560005b61208d6040830183613694565b9050811015612179576001600660006120a96040860186613694565b858181106120b9576120b9613ad9565b90506020020160208101906120ce9190612f3c565b6001600160a01b0316815260208101919091526040908101600020805460ff1916921515929092179091557f4664777dbfbcb27de0f602e1da5d5a259992cd7edf5b29192929c96e8fd50def9061212790840184613694565b8381811061213757612137613ad9565b905060200201602081019061214c9190612f3c565b6040516001600160a01b03909116815260200160405180910390a18061217181613a7c565b915050612080565b5050565b6001600160a01b03811660009081526076602052604090205460ff16156121f85760405162461bcd60e51b815260206004820152602960248201527f4475706c696361746564206164647265737320696e20746172676574206164646044820152681c995cdcc81b1a5cdd60ba1b60648201526084016105f3565b6001600160a01b038116600081815260766020908152604091829020805460ff1916600117905590519182527ff11283a265d7a5f95fbc149dc65464f1f5be0151aac387fd76a938e1e558460491015b60405180910390a150565b6001600160a01b03811660009081526078602052604090205460ff16156122ca5760405162461bcd60e51b815260206004820152602560248201527f4475706c696361746564204974656d20696e20736f7572636520746f6b656e206044820152643634b9ba1760d91b60648201526084016105f3565b6122d3816118d7565b6123305760405162461bcd60e51b815260206004820152602860248201527f556e7265736f6c7661626c6520746f6b656e20696e2074617267657420746f6b60448201526732b7103634b9ba1760c11b60648201526084016105f3565b6077805460018082019092557f7901cb5addcae2d210a531c604a76a660d77039093bac314de0816a16392aff10180546001600160a01b0319166001600160a01b038416908117909155600081815260786020908152604091829020805460ff1916909417909355519081527f14009112f2dcb15cad32dab6bf972d6d85286e4ae1178f27323ffe25359459e69101612248565b600054610100900460ff166123eb5760405162461bcd60e51b81526004016105f3906135d1565b604280546001600160a01b0319166001600160a01b0392909216919091179055565b60008160ff168360ff1610156124465761242783836139d7565b6124359060ff16600a613864565b61243f908561391c565b9050612479565b8160ff168360ff1611156124765761245e82846139d7565b61246c9060ff16600a613864565b61243f90856137df565b50825b9392505050565b600060ff8216158015906124985750601260ff831611155b6124d85760405162461bcd60e51b8152602060048201526011602482015270496e76616c6964205f646563696d616c7360781b60448201526064016105f3565b60006124e860ff8416600a613864565b9050600080600080886001600160a01b031663feaf968c6040518163ffffffff1660e01b815260040160a06040518083038186803b15801561252957600080fd5b505afa15801561253d573d6000803e3d6000fd5b505050506040513d601f19601f820116820180604052508101906125619190613308565b945094505093509350836001600160501b0316816001600160501b031610156125cc5760405162461bcd60e51b815260206004820152601c60248201527f5374616c6520707269636520696e20436861696e6c696e6b203130340000000060448201526064016105f3565b6125d962015180836137a2565b4211156126285760405162461bcd60e51b815260206004820152601c60248201527f5374616c6520707269636520696e20436861696e6c696e6b203130350000000060448201526064016105f3565b6000896001600160a01b031663313ce5676040518163ffffffff1660e01b815260040160206040518083038186803b15801561266357600080fd5b505afa158015612677573d6000803e3d6000fd5b505050506040513d601f19601f8201168201806040525081019061269b9190613358565b90506126a884828a61240d565b93506000806000808c6001600160a01b031663feaf968c6040518163ffffffff1660e01b815260040160a06040518083038186803b1580156126e957600080fd5b505afa1580156126fd573d6000803e3d6000fd5b505050506040513d601f19601f820116820180604052508101906127219190613308565b945094505093509350836001600160501b0316816001600160501b0316101561278c5760405162461bcd60e51b815260206004820152601c60248201527f5374616c6520707269636520696e20436861696e6c696e6b203131320000000060448201526064016105f3565b61279962015180836137a2565b4211156127e85760405162461bcd60e51b815260206004820152601c60248201527f5374616c6520707269636520696e20436861696e6c696e6b203131330000000060448201526064016105f3565b60008d6001600160a01b031663313ce5676040518163ffffffff1660e01b815260040160206040518083038186803b15801561282357600080fd5b505afa158015612837573d6000803e3d6000fd5b505050506040513d601f19601f8201168201806040525081019061285b9190613358565b905061286884828f61240d565b9350836128758c8b61391c565b61287f91906137df565b9f9e505050505050505050505050505050565b6000806000838060200190518101906128ab9190612f59565b607a54607954939650919450925060009160ff166001600160a01b038616600080516020613b408339815191521415612986576005546001600160a01b031660405163d3abc28b60e01b81526001600160a01b038781166004830152606060248301526000606483015260448201879052919091169063d3abc28b90608401600060405180830381600087803b15801561294457600080fd5b505af1158015612958573d6000803e3d6000fd5b505050506040513d6000823e601f3d908101601f191682016040526129809190810190613128565b50612a52565b604080516001600160a01b038781166024830152604480830188905283518084039091018152606490920183526020820180516001600160e01b031663a9059cbb60e01b179052600554925163d3abc28b60e01b81529192169063d3abc28b906129f9908a908590600090600401613447565b600060405180830381600087803b158015612a1357600080fd5b505af1158015612a27573d6000803e3d6000fd5b505050506040513d6000823e601f3d908101601f19168201604052612a4f9190810190613128565b50505b612a5c8685610d65565b60755490935060ff1680612a8857506001600160a01b03851660009081526076602052604090205460ff165b612ae05760405162461bcd60e51b815260206004820152602360248201527f526563697069656e74206e6f742077686974656c697374656420696e2062756460448201526219d95d60ea1b60648201526084016105f3565b6001600160a01b03861660009081526078602052604090205460ff16612b485760405162461bcd60e51b815260206004820152601f60248201527f546f6b656e206e6f742077686974656c697374656420696e206275646765740060448201526064016105f3565b60008311612ba35760405162461bcd60e51b815260206004820152602260248201527f5472616e7366657220616d6f756e742073686f756c64206e6f74206265207a65604482015261726f60f01b60648201526084016105f3565b8080612baf5750818311155b612c0b5760405162461bcd60e51b815260206004820152602760248201527f4578636565646564206d617820627564676574207472616e7366657261626c6560448201526608185b5bdd5b9d60ca1b60648201526084016105f3565b80612c1e57612c1a83836139c0565b607a555b604080516001600160a01b0388811682526020820187905287169133918b917f7bd766f3afc51ba3017c95a3a83ebdafe5e32cf39497f7efc628b13715da4289910160405180910390a45050505050505050565b828054828255906000526020600020908101928215612cbf579160200282015b82811115612cbf5782518051612caf918491602090910190612d4f565b5091602001919060010190612c92565b50612ccb929150612dc3565b5090565b828054612cdb90613a41565b90600052602060002090601f016020900481019282612cfd5760008555612d43565b82601f10612d165782800160ff19823516178555612d43565b82800160010185558215612d43579182015b82811115612d43578235825591602001919060010190612d28565b50612ccb929150612de0565b828054612d5b90613a41565b90600052602060002090601f016020900481019282612d7d5760008555612d43565b82601f10612d9657805160ff1916838001178555612d43565b82800160010185558215612d43579182015b82811115612d43578251825591602001919060010190612da8565b80821115612ccb576000612dd78282612df5565b50600101612dc3565b5b80821115612ccb5760008155600101612de1565b508054612e0190613a41565b6000825580601f10612e11575050565b601f016020900490600052602060002090810190612e2f9190612de0565b50565b80356110fa81613b05565b600082601f830112612e4e57600080fd5b81356020612e63612e5e83613756565b613725565b80838252828201915082860187848660051b8901011115612e8357600080fd5b60005b85811015612eab578135612e9981613b05565b84529284019290840190600101612e86565b5090979650505050505050565b803580151581146110fa57600080fd5b60008083601f840112612eda57600080fd5b50813567ffffffffffffffff811115612ef257600080fd5b602083019150836020828501011115612f0a57600080fd5b9250929050565b803563ffffffff811681146110fa57600080fd5b80516001600160501b03811681146110fa57600080fd5b600060208284031215612f4e57600080fd5b813561247981613b05565b600080600060608486031215612f6e57600080fd5b8351612f7981613b05565b6020850151909350612f8a81613b05565b80925050604084015190509250925092565b60008060408385031215612faf57600080fd5b8235612fba81613b05565b946020939093013593505050565b600080600080600060808688031215612fe057600080fd5b67ffffffffffffffff8087351115612ff757600080fd5b8635870188601f82011261300a57600080fd5b613017612e5e8235613756565b8082358252602082019150602083018b6020853560051b860101111561303c57600080fd5b60005b84358110156130b757858235111561305657600080fd5b813585018d603f82011261306957600080fd5b602081013561307a612e5e8261377a565b8181528f604083850101111561308f57600080fd5b816040840160208301376000602092820183015286529485019492909201915060010161303f565b50508098505050506130cb60208801612f11565b94506130d960408801612eb8565b935080606088013511156130ec57600080fd5b506130fd8760608801358801612ec8565b9598949750929550919392915050565b60006020828403121561311f57600080fd5b61247982612eb8565b60006020828403121561313a57600080fd5b815167ffffffffffffffff81111561315157600080fd5b8201601f8101841361316257600080fd5b8051613170612e5e8261377a565b81815285602083850101111561318557600080fd5b6131968260208301602086016139fa565b95945050505050565b6000602082840312156131b157600080fd5b815161247981613b05565b600080600080600080600060e0888a0312156131d757600080fd5b873567ffffffffffffffff808211156131ef57600080fd5b90890190610180828c03121561320457600080fd5b81985061321360208b01612eb8565b975060408a013591508082111561322957600080fd5b6132358b838c01612e3d565b965060608a013591508082111561324b57600080fd5b506132588a828b01612e3d565b94505061326760808901612eb8565b925060a0880135915061327c60c08901612e32565b905092959891949750929550565b60006020828403121561329c57600080fd5b5035919050565b6000602082840312156132b557600080fd5b5051919050565b6000806000604084860312156132d157600080fd5b83359250602084013567ffffffffffffffff8111156132ef57600080fd5b6132fb86828701612ec8565b9497909650939450505050565b600080600080600060a0868803121561332057600080fd5b61332986612f25565b945060208601519350604086015192506060860151915061334c60808701612f25565b90509295509295909350565b60006020828403121561336a57600080fd5b815160ff8116811461247957600080fd5b600081518084526020808501808196508360051b8101915082860160005b858110156133c35782840389526133b18483516133d0565b98850198935090840190600101613399565b5091979650505050505050565b600081518084526133e88160208601602086016139fa565b601f01601f19169290920160200192915050565b6004811061341a57634e487b7160e01b600052602160045260246000fd5b9052565b81835281816020850137506000828201602090810191909152601f909101601f19169091010190565b6001600160a01b038416815260606020820181905260009061346b908301856133d0565b9050826040830152949350505050565b6001600160a01b0384168152604060208201819052600090613196908301848661341e565b6040815260006134b3604083018561337b565b905060018060a01b03831660208301529392505050565b60a0815260006134dd60a083018961337b565b63ffffffff881660208401526134f660408401886133fc565b828103606084015261350981868861341e565b91505060018060a01b0383166080830152979650505050505050565b6000602080830181845280855180835260408601915060408160051b870101925083870160005b8281101561357a57603f198886030184526135688583516133d0565b9450928501929085019060010161354c565b5092979650505050505050565b60208152600061247960208301846133d0565b60208082526018908201527f5374616c6520707269636520696e20436861696e6c696e6b0000000000000000604082015260600190565b6020808252602b908201527f496e697469616c697a61626c653a20636f6e7472616374206973206e6f74206960408201526a6e697469616c697a696e6760a81b606082015260800190565b60208082526022908201527f4578656375746f72206e6f742077686974656c697374656420696e2062756467604082015261195d60f21b606082015260800190565b85815260a0810161367260208301876133fc565b63ffffffff949094166040820152911515606083015260809091015292915050565b6000808335601e198436030181126136ab57600080fd5b83018035915067ffffffffffffffff8211156136c657600080fd5b6020019150600581901b3603821315612f0a57600080fd5b6000808335601e198436030181126136f557600080fd5b83018035915067ffffffffffffffff82111561371057600080fd5b602001915036819003821315612f0a57600080fd5b604051601f8201601f1916810167ffffffffffffffff8111828210171561374e5761374e613aef565b604052919050565b600067ffffffffffffffff82111561377057613770613aef565b5060051b60200190565b600067ffffffffffffffff82111561379457613794613aef565b50601f01601f191660200190565b600082198211156137b5576137b5613a97565b500190565b600060ff821660ff84168060ff038211156137d7576137d7613a97565b019392505050565b6000826137ee576137ee613aad565b600160ff1b82146000198414161561380857613808613a97565b500590565b60008261381c5761381c613aad565b500490565b600181815b8085111561385c57816000190482111561384257613842613a97565b8085161561384f57918102915b93841c9390800290613826565b509250929050565b6000612479838361387b565b600061247960ff8416835b60008261388a57506001610d5f565b8161389757506000610d5f565b81600181146138ad57600281146138b7576138d3565b6001915050610d5f565b60ff8411156138c8576138c8613a97565b50506001821b610d5f565b5060208310610133831016604e8410600b84101617156138f6575081810a610d5f565b6139008383613821565b806000190482111561391457613914613a97565b029392505050565b60006001600160ff1b038184138284138082168684048611161561394257613942613a97565b600160ff1b600087128281168783058912161561396157613961613a97565b6000871292508782058712848416161561397d5761397d613a97565b8785058712818416161561399357613993613a97565b505050929093029392505050565b60008160001904831182151516156139bb576139bb613a97565b500290565b6000828210156139d2576139d2613a97565b500390565b600060ff821660ff8416808210156139f1576139f1613a97565b90039392505050565b60005b83811015613a155781810151838201526020016139fd565b83811115613a24576000848401525b50505050565b600081613a3957613a39613a97565b506000190190565b600181811c90821680613a5557607f821691505b60208210811415613a7657634e487b7160e01b600052602260045260246000fd5b50919050565b6000600019821415613a9057613a90613a97565b5060010190565b634e487b7160e01b600052601160045260246000fd5b634e487b7160e01b600052601260045260246000fd5b634e487b7160e01b600052602160045260246000fd5b634e487b7160e01b600052603260045260246000fd5b634e487b7160e01b600052604160045260246000fd5b6001600160a01b0381168114612e2f57600080fdfe5472616e73666572204c69717569642045524332302042756467657420417070726f76616c000000000000000000000000eeeeeeeeeeeeeeeeeeeeeeeeeeeeeeeeeeeeeeeea264697066735822122028bf4ff20e765707b4006631d03f08eff0cd6d1dc267b9c43859d03f929892a464736f6c63430008070033",
  "linkReferences": {},
  "deployedLinkReferences": {}
}