{
  "_format": "hh-sol-artifact-1",
  "contractName": "TransferERC20BudgetApproval",
  "sourceName": "contracts/TransferERC20BudgetApproval.sol",
  "abi": [
    {
      "anonymous": false,
      "inputs": [
        {
          "indexed": false,
          "internalType": "address",
          "name": "previousAdmin",
          "type": "address"
        },
        {
          "indexed": false,
          "internalType": "address",
          "name": "newAdmin",
          "type": "address"
        }
      ],
      "name": "AdminChanged",
      "type": "event"
    },
    {
      "anonymous": false,
      "inputs": [
        {
          "indexed": false,
          "internalType": "address",
          "name": "target",
          "type": "address"
        }
      ],
      "name": "AllowAddress",
      "type": "event"
    },
    {
      "anonymous": false,
      "inputs": [
        {
          "indexed": false,
          "internalType": "uint256",
          "name": "amount",
          "type": "uint256"
        }
      ],
      "name": "AllowAmount",
      "type": "event"
    },
    {
      "anonymous": false,
      "inputs": [
        {
          "indexed": false,
          "internalType": "address",
          "name": "token",
          "type": "address"
        }
      ],
      "name": "AllowToken",
      "type": "event"
    },
    {
      "anonymous": false,
      "inputs": [
        {
          "indexed": true,
          "internalType": "address",
          "name": "beacon",
          "type": "address"
        }
      ],
      "name": "BeaconUpgraded",
      "type": "event"
    },
    {
      "anonymous": false,
      "inputs": [
        {
          "indexed": false,
          "internalType": "uint256",
          "name": "id",
          "type": "uint256"
        },
        {
          "indexed": false,
          "internalType": "bytes",
          "name": "data",
          "type": "bytes"
        },
        {
          "indexed": false,
          "internalType": "uint256",
          "name": "deadline",
          "type": "uint256"
        }
      ],
      "name": "CreateTransaction",
      "type": "event"
    },
    {
      "anonymous": false,
      "inputs": [
        {
          "indexed": false,
          "internalType": "uint256",
          "name": "id",
          "type": "uint256"
        },
        {
          "indexed": false,
          "internalType": "bytes",
          "name": "data",
          "type": "bytes"
        }
      ],
      "name": "ExecuteTransaction",
      "type": "event"
    },
    {
      "anonymous": false,
      "inputs": [
        {
          "indexed": true,
          "internalType": "address",
          "name": "implementation",
          "type": "address"
        }
      ],
      "name": "Upgraded",
      "type": "event"
    },
    {
      "anonymous": false,
      "inputs": [
        {
          "indexed": false,
          "internalType": "uint256",
          "name": "count",
          "type": "uint256"
        }
      ],
      "name": "UsageCount",
      "type": "event"
    },
    {
      "inputs": [],
      "name": "ETH_ADDRESS",
      "outputs": [
        {
          "internalType": "address",
          "name": "",
          "type": "address"
        }
      ],
      "stateMutability": "view",
      "type": "function"
    },
    {
      "inputs": [],
      "name": "NAME",
      "outputs": [
        {
          "internalType": "string",
          "name": "",
          "type": "string"
        }
      ],
      "stateMutability": "view",
      "type": "function"
    },
    {
      "inputs": [
        {
          "internalType": "address",
          "name": "",
          "type": "address"
        }
      ],
      "name": "addressesMapping",
      "outputs": [
        {
          "internalType": "bool",
          "name": "",
          "type": "bool"
        }
      ],
      "stateMutability": "view",
      "type": "function"
    },
    {
      "inputs": [],
      "name": "allowAllAddresses",
      "outputs": [
        {
          "internalType": "bool",
          "name": "",
          "type": "bool"
        }
      ],
      "stateMutability": "view",
      "type": "function"
    },
    {
      "inputs": [],
      "name": "allowAnyAmount",
      "outputs": [
        {
          "internalType": "bool",
          "name": "",
          "type": "bool"
        }
      ],
      "stateMutability": "view",
      "type": "function"
    },
    {
      "inputs": [],
      "name": "allowUnlimitedUsageCount",
      "outputs": [
        {
          "internalType": "bool",
          "name": "",
          "type": "bool"
        }
      ],
      "stateMutability": "view",
      "type": "function"
    },
    {
      "inputs": [],
      "name": "amountPercentage",
      "outputs": [
        {
          "internalType": "uint8",
          "name": "",
          "type": "uint8"
        }
      ],
      "stateMutability": "view",
      "type": "function"
    },
    {
      "inputs": [
        {
          "internalType": "uint256",
          "name": "_transactionId",
          "type": "uint256"
        }
      ],
      "name": "approveTransaction",
      "outputs": [],
      "stateMutability": "nonpayable",
      "type": "function"
    },
    {
      "inputs": [
        {
          "internalType": "uint256",
          "name": "",
          "type": "uint256"
        }
      ],
      "name": "approvers",
      "outputs": [
        {
          "internalType": "address",
          "name": "",
          "type": "address"
        }
      ],
      "stateMutability": "view",
      "type": "function"
    },
    {
      "inputs": [
        {
          "internalType": "address",
          "name": "",
          "type": "address"
        }
      ],
      "name": "approversMapping",
      "outputs": [
        {
          "internalType": "bool",
          "name": "",
          "type": "bool"
        }
      ],
      "stateMutability": "view",
      "type": "function"
    },
    {
      "inputs": [
        {
          "internalType": "address",
          "name": "to",
          "type": "address"
        }
      ],
      "name": "checkAddressValid",
      "outputs": [
        {
          "internalType": "bool",
          "name": "",
          "type": "bool"
        }
      ],
      "stateMutability": "view",
      "type": "function"
    },
    {
      "inputs": [
        {
          "internalType": "uint256",
          "name": "_transactionId",
          "type": "uint256"
        }
      ],
      "name": "checkAllApproved",
      "outputs": [
        {
          "internalType": "bool",
          "name": "",
          "type": "bool"
        }
      ],
      "stateMutability": "view",
      "type": "function"
    },
    {
      "inputs": [
        {
          "internalType": "uint256",
          "name": "amount",
          "type": "uint256"
        },
        {
          "internalType": "bool",
          "name": "executed",
          "type": "bool"
        }
      ],
      "name": "checkAmountPercentageValid",
      "outputs": [
        {
          "internalType": "bool",
          "name": "",
          "type": "bool"
        }
      ],
      "stateMutability": "view",
      "type": "function"
    },
    {
      "inputs": [
        {
          "internalType": "uint256",
          "name": "amount",
          "type": "uint256"
        }
      ],
      "name": "checkAmountValid",
      "outputs": [
        {
          "internalType": "bool",
          "name": "",
          "type": "bool"
        }
      ],
      "stateMutability": "view",
      "type": "function"
    },
    {
      "inputs": [
        {
          "internalType": "address",
          "name": "token",
          "type": "address"
        }
      ],
      "name": "checkTokenValid",
      "outputs": [
        {
          "internalType": "bool",
          "name": "",
          "type": "bool"
        }
      ],
      "stateMutability": "view",
      "type": "function"
    },
    {
      "inputs": [],
      "name": "checkUsageCountValid",
      "outputs": [
        {
          "internalType": "bool",
          "name": "",
          "type": "bool"
        }
      ],
      "stateMutability": "view",
      "type": "function"
    },
    {
      "inputs": [
        {
          "internalType": "address",
          "name": "_token",
          "type": "address"
        },
        {
          "internalType": "address",
          "name": "_recipient",
          "type": "address"
        },
        {
          "internalType": "uint256",
          "name": "_amount",
          "type": "uint256"
        },
        {
          "internalType": "bool",
          "name": "executed",
          "type": "bool"
        }
      ],
      "name": "checkValid",
      "outputs": [
        {
          "internalType": "bool",
          "name": "valid",
          "type": "bool"
        }
      ],
      "stateMutability": "view",
      "type": "function"
    },
    {
      "inputs": [
        {
          "internalType": "bytes",
          "name": "_data",
          "type": "bytes"
        },
        {
          "internalType": "uint256",
          "name": "_deadline",
          "type": "uint256"
        },
        {
          "internalType": "bool",
          "name": "_execute",
          "type": "bool"
        }
      ],
      "name": "createTransaction",
      "outputs": [
        {
          "internalType": "uint256",
          "name": "",
          "type": "uint256"
        }
      ],
      "stateMutability": "nonpayable",
      "type": "function"
    },
    {
      "inputs": [],
      "name": "dao",
      "outputs": [
        {
          "internalType": "address payable",
          "name": "",
          "type": "address"
        }
      ],
      "stateMutability": "view",
      "type": "function"
    },
    {
      "inputs": [
        {
          "internalType": "address",
          "name": "to",
          "type": "address"
        },
        {
          "internalType": "bytes",
          "name": "data",
          "type": "bytes"
        },
        {
          "internalType": "uint256",
          "name": "value",
          "type": "uint256"
        }
      ],
      "name": "decode",
      "outputs": [
        {
          "internalType": "address",
          "name": "",
          "type": "address"
        },
        {
          "internalType": "address",
          "name": "",
          "type": "address"
        },
        {
          "internalType": "uint256",
          "name": "",
          "type": "uint256"
        }
      ],
      "stateMutability": "pure",
      "type": "function"
    },
    {
      "inputs": [
        {
          "internalType": "bytes",
          "name": "_data",
          "type": "bytes"
        }
      ],
      "name": "decodeInitializeData",
      "outputs": [
        {
          "components": [
            {
              "internalType": "address",
              "name": "dao",
              "type": "address"
            },
            {
              "internalType": "address",
              "name": "executor",
              "type": "address"
            },
            {
              "internalType": "address[]",
              "name": "approvers",
              "type": "address[]"
            },
            {
              "internalType": "string",
              "name": "text",
              "type": "string"
            },
            {
              "internalType": "string",
              "name": "transactionType",
              "type": "string"
            },
            {
              "internalType": "bool",
              "name": "allowAllAddresses",
              "type": "bool"
            },
            {
              "internalType": "address[]",
              "name": "addresses",
              "type": "address[]"
            },
            {
              "internalType": "address[]",
              "name": "tokens",
              "type": "address[]"
            },
            {
              "internalType": "bool",
              "name": "allowAnyAmount",
              "type": "bool"
            },
            {
              "internalType": "uint256",
              "name": "totalAmount",
              "type": "uint256"
            },
            {
              "internalType": "uint8",
              "name": "amountPercentage",
              "type": "uint8"
            },
            {
              "internalType": "uint256",
              "name": "startTime",
              "type": "uint256"
            },
            {
              "internalType": "uint256",
              "name": "endTime",
              "type": "uint256"
            },
            {
              "internalType": "bool",
              "name": "allowUnlimitedUsageCount",
              "type": "bool"
            },
            {
              "internalType": "uint256",
              "name": "usageCount",
              "type": "uint256"
            }
          ],
          "internalType": "struct CommonBudgetApproval.InitializeParams",
          "name": "result",
          "type": "tuple"
        }
      ],
      "stateMutability": "pure",
      "type": "function"
    },
    {
      "inputs": [
        {
          "internalType": "bytes",
          "name": "_data",
          "type": "bytes"
        }
      ],
      "name": "decodeTransactionData",
      "outputs": [
        {
          "internalType": "address",
          "name": "",
          "type": "address"
        },
        {
          "internalType": "bytes",
          "name": "",
          "type": "bytes"
        },
        {
          "internalType": "uint256",
          "name": "",
          "type": "uint256"
        }
      ],
      "stateMutability": "pure",
      "type": "function"
    },
    {
      "inputs": [
        {
          "components": [
            {
              "internalType": "address",
              "name": "dao",
              "type": "address"
            },
            {
              "internalType": "address",
              "name": "executor",
              "type": "address"
            },
            {
              "internalType": "address[]",
              "name": "approvers",
              "type": "address[]"
            },
            {
              "internalType": "string",
              "name": "text",
              "type": "string"
            },
            {
              "internalType": "string",
              "name": "transactionType",
              "type": "string"
            },
            {
              "internalType": "bool",
              "name": "allowAllAddresses",
              "type": "bool"
            },
            {
              "internalType": "address[]",
              "name": "addresses",
              "type": "address[]"
            },
            {
              "internalType": "address[]",
              "name": "tokens",
              "type": "address[]"
            },
            {
              "internalType": "bool",
              "name": "allowAnyAmount",
              "type": "bool"
            },
            {
              "internalType": "uint256",
              "name": "totalAmount",
              "type": "uint256"
            },
            {
              "internalType": "uint8",
              "name": "amountPercentage",
              "type": "uint8"
            },
            {
              "internalType": "uint256",
              "name": "startTime",
              "type": "uint256"
            },
            {
              "internalType": "uint256",
              "name": "endTime",
              "type": "uint256"
            },
            {
              "internalType": "bool",
              "name": "allowUnlimitedUsageCount",
              "type": "bool"
            },
            {
              "internalType": "uint256",
              "name": "usageCount",
              "type": "uint256"
            }
          ],
          "internalType": "struct CommonBudgetApproval.InitializeParams",
          "name": "params",
          "type": "tuple"
        }
      ],
      "name": "encodeInitializeData",
      "outputs": [
        {
          "internalType": "bytes",
          "name": "data",
          "type": "bytes"
        }
      ],
      "stateMutability": "pure",
      "type": "function"
    },
    {
      "inputs": [
        {
          "internalType": "address",
          "name": "_to",
          "type": "address"
        },
        {
          "internalType": "bytes",
          "name": "_data",
          "type": "bytes"
        },
        {
          "internalType": "uint256",
          "name": "_amount",
          "type": "uint256"
        }
      ],
      "name": "encodeTransactionData",
      "outputs": [
        {
          "internalType": "bytes",
          "name": "",
          "type": "bytes"
        }
      ],
      "stateMutability": "pure",
      "type": "function"
    },
    {
      "inputs": [
        {
          "internalType": "address[]",
          "name": "_to",
          "type": "address[]"
        },
        {
          "internalType": "bytes[]",
          "name": "_data",
          "type": "bytes[]"
        },
        {
          "internalType": "uint256[]",
          "name": "_amount",
          "type": "uint256[]"
        }
      ],
      "name": "encodeTransactionData",
      "outputs": [
        {
          "internalType": "bytes",
          "name": "",
          "type": "bytes"
        }
      ],
      "stateMutability": "pure",
      "type": "function"
    },
    {
      "inputs": [],
      "name": "endTime",
      "outputs": [
        {
          "internalType": "uint256",
          "name": "",
          "type": "uint256"
        }
      ],
      "stateMutability": "view",
      "type": "function"
    },
    {
      "inputs": [
        {
          "internalType": "address[]",
          "name": "to",
          "type": "address[]"
        },
        {
          "internalType": "bytes[]",
          "name": "data",
          "type": "bytes[]"
        },
        {
          "internalType": "uint256[]",
          "name": "value",
          "type": "uint256[]"
        }
      ],
      "name": "execute",
      "outputs": [],
      "stateMutability": "nonpayable",
      "type": "function"
    },
    {
      "inputs": [
        {
          "internalType": "address",
          "name": "to",
          "type": "address"
        },
        {
          "internalType": "bytes",
          "name": "data",
          "type": "bytes"
        },
        {
          "internalType": "uint256",
          "name": "value",
          "type": "uint256"
        }
      ],
      "name": "execute",
      "outputs": [],
      "stateMutability": "nonpayable",
      "type": "function"
    },
    {
      "inputs": [
        {
          "internalType": "uint256",
          "name": "_transactionId",
          "type": "uint256"
        }
      ],
      "name": "executeTransaction",
      "outputs": [],
      "stateMutability": "nonpayable",
      "type": "function"
    },
    {
      "inputs": [],
      "name": "executor",
      "outputs": [
        {
          "internalType": "address",
          "name": "",
          "type": "address"
        }
      ],
      "stateMutability": "view",
      "type": "function"
    },
    {
      "inputs": [
        {
          "internalType": "address",
          "name": "to",
          "type": "address"
        },
        {
          "internalType": "bytes",
          "name": "data",
          "type": "bytes"
        },
        {
          "internalType": "uint256",
          "name": "value",
          "type": "uint256"
        }
      ],
      "name": "getRequiredAmount",
      "outputs": [
        {
          "internalType": "bool",
          "name": "isRequireToken",
          "type": "bool"
        },
        {
          "internalType": "address",
          "name": "requiredToken",
          "type": "address"
        },
        {
          "internalType": "uint256",
          "name": "requiredAmount",
          "type": "uint256"
        }
      ],
      "stateMutability": "pure",
      "type": "function"
    },
    {
      "inputs": [
        {
          "components": [
            {
              "internalType": "address",
              "name": "dao",
              "type": "address"
            },
            {
              "internalType": "address",
              "name": "executor",
              "type": "address"
            },
            {
              "internalType": "address[]",
              "name": "approvers",
              "type": "address[]"
            },
            {
              "internalType": "string",
              "name": "text",
              "type": "string"
            },
            {
              "internalType": "string",
              "name": "transactionType",
              "type": "string"
            },
            {
              "internalType": "bool",
              "name": "allowAllAddresses",
              "type": "bool"
            },
            {
              "internalType": "address[]",
              "name": "addresses",
              "type": "address[]"
            },
            {
              "internalType": "address[]",
              "name": "tokens",
              "type": "address[]"
            },
            {
              "internalType": "bool",
              "name": "allowAnyAmount",
              "type": "bool"
            },
            {
              "internalType": "uint256",
              "name": "totalAmount",
              "type": "uint256"
            },
            {
              "internalType": "uint8",
              "name": "amountPercentage",
              "type": "uint8"
            },
            {
              "internalType": "uint256",
              "name": "startTime",
              "type": "uint256"
            },
            {
              "internalType": "uint256",
              "name": "endTime",
              "type": "uint256"
            },
            {
              "internalType": "bool",
              "name": "allowUnlimitedUsageCount",
              "type": "bool"
            },
            {
              "internalType": "uint256",
              "name": "usageCount",
              "type": "uint256"
            }
          ],
          "internalType": "struct CommonBudgetApproval.InitializeParams",
          "name": "params",
          "type": "tuple"
        }
      ],
      "name": "initialize",
      "outputs": [],
      "stateMutability": "nonpayable",
      "type": "function"
    },
    {
      "inputs": [],
      "name": "lastTransactionId",
      "outputs": [
        {
          "internalType": "uint256",
          "name": "",
          "type": "uint256"
        }
      ],
      "stateMutability": "view",
      "type": "function"
    },
    {
      "inputs": [],
      "name": "proxiableUUID",
      "outputs": [
        {
          "internalType": "bytes32",
          "name": "",
          "type": "bytes32"
        }
      ],
      "stateMutability": "view",
      "type": "function"
    },
    {
      "inputs": [
        {
          "internalType": "uint256",
          "name": "_transactionId",
          "type": "uint256"
        }
      ],
      "name": "rejectTransaction",
      "outputs": [],
      "stateMutability": "nonpayable",
      "type": "function"
    },
    {
      "inputs": [],
      "name": "startTime",
      "outputs": [
        {
          "internalType": "uint256",
          "name": "",
          "type": "uint256"
        }
      ],
      "stateMutability": "view",
      "type": "function"
    },
    {
      "inputs": [
        {
          "internalType": "bytes4",
          "name": "interfaceID",
          "type": "bytes4"
        }
      ],
      "name": "supportsInterface",
      "outputs": [
        {
          "internalType": "bool",
          "name": "",
          "type": "bool"
        }
      ],
      "stateMutability": "pure",
      "type": "function"
    },
    {
      "inputs": [],
      "name": "text",
      "outputs": [
        {
          "internalType": "string",
          "name": "",
          "type": "string"
        }
      ],
      "stateMutability": "view",
      "type": "function"
    },
    {
      "inputs": [
        {
          "internalType": "uint256",
          "name": "",
          "type": "uint256"
        }
      ],
      "name": "tokens",
      "outputs": [
        {
          "internalType": "address",
          "name": "",
          "type": "address"
        }
      ],
      "stateMutability": "view",
      "type": "function"
    },
    {
      "inputs": [
        {
          "internalType": "address",
          "name": "",
          "type": "address"
        }
      ],
      "name": "tokensMapping",
      "outputs": [
        {
          "internalType": "bool",
          "name": "",
          "type": "bool"
        }
      ],
      "stateMutability": "view",
      "type": "function"
    },
    {
      "inputs": [],
      "name": "totalAmount",
      "outputs": [
        {
          "internalType": "uint256",
          "name": "",
          "type": "uint256"
        }
      ],
      "stateMutability": "view",
      "type": "function"
    },
    {
      "inputs": [],
      "name": "transactionType",
      "outputs": [
        {
          "internalType": "string",
          "name": "",
          "type": "string"
        }
      ],
      "stateMutability": "view",
      "type": "function"
    },
    {
      "inputs": [
        {
          "internalType": "uint256",
          "name": "",
          "type": "uint256"
        }
      ],
      "name": "transactions",
      "outputs": [
        {
          "internalType": "uint256",
          "name": "id",
          "type": "uint256"
        },
        {
          "internalType": "bytes",
          "name": "data",
          "type": "bytes"
        },
        {
          "internalType": "enum CommonBudgetApproval.Status",
          "name": "status",
          "type": "uint8"
        },
        {
          "internalType": "uint256",
          "name": "deadline",
          "type": "uint256"
        },
        {
          "internalType": "bool",
          "name": "isExist",
          "type": "bool"
        }
      ],
      "stateMutability": "view",
      "type": "function"
    },
    {
      "inputs": [
        {
          "internalType": "address",
          "name": "newImplementation",
          "type": "address"
        }
      ],
      "name": "upgradeTo",
      "outputs": [],
      "stateMutability": "nonpayable",
      "type": "function"
    },
    {
      "inputs": [
        {
          "internalType": "address",
          "name": "newImplementation",
          "type": "address"
        },
        {
          "internalType": "bytes",
          "name": "data",
          "type": "bytes"
        }
      ],
      "name": "upgradeToAndCall",
      "outputs": [],
      "stateMutability": "payable",
      "type": "function"
    },
    {
      "inputs": [],
      "name": "usageCount",
      "outputs": [
        {
          "internalType": "uint256",
          "name": "",
          "type": "uint256"
        }
      ],
      "stateMutability": "view",
      "type": "function"
    },
    {
      "stateMutability": "payable",
      "type": "receive"
    }
  ],
  "bytecode": "0x60a06040523060601b60805234801561001757600080fd5b5060805160601c6142b66100526000396000818161135d0152818161139d015281816115c30152818161160301526116bc01526142b66000f3fe6080604052600436106102815760003560e01c80636bdebe5e1161014f578063a734f06e116100c1578063c34c08e51161007a578063c34c08e514610836578063c573281614610856578063d3650fb81461088f578063e249ff96146108af578063e6b3f0a1146108c4578063ee22610b146108e457600080fd5b8063a734f06e14610756578063a7b9a2c41461076b578063b18b32fb146107b0578063b3d25e10146107dc578063b617b3ee146107fc578063bd6f10581461081657600080fd5b80638855436a116101135780638855436a1461064c5780638d1c5c291461066c578063947fe8121461069c5780639ace38c2146106bc578063a04a0908146106ed578063a3f4df7e1461070d57600080fd5b80636bdebe5e1461059157806378e97925146105c15780637cd47d93146105d757806381754607146105ec578063850154371461063257600080fd5b80633659cfe6116101f357806350bd881f116101ac57806350bd881f146104e857806352d1902d146104fe5780635ad32502146105135780635cf1b0631461052d578063607202a31461054d57806368e13c3b1461056257600080fd5b80633659cfe61461040d5780633d70015a1461042d5780634162169f1461045d578063439da016146104955780634f1ef286146104b55780634f64b2be146104c857600080fd5b80631e9ed9da116102455780631e9ed9da146103555780631f1bd692146103755780631fdbb0f114610397578063242232d1146103b75780633197cbb6146103d757806335db2c8e146103ed57600080fd5b806301ffc9a71461028d57806303f7c51e146102c257806305bf37aa146102ef5780630b993cdb146103115780631a39d8ef1461033f57600080fd5b3661028857005b600080fd5b34801561029957600080fd5b506102ad6102a8366004613404565b610904565b60405190151581526020015b60405180910390f35b3480156102ce57600080fd5b506102e26102dd36600461342c565b610950565b6040516102b99190613cc6565b3480156102fb57600080fd5b5061030f61030a3660046136b8565b610a7c565b005b34801561031d57600080fd5b5061033161032c36600461345e565b610b27565b6040519081526020016102b9565b34801561034b57600080fd5b5061033160725481565b34801561036157600080fd5b5061030f6103703660046134e8565b610c2e565b34801561038157600080fd5b5061038a611147565b6040516102b991906139c9565b3480156103a357600080fd5b5061038a6103b23660046131c6565b6111d5565b3480156103c357600080fd5b5061030f6103d23660046136b8565b61121f565b3480156103e357600080fd5b5061033160755481565b3480156103f957600080fd5b5061038a61040836600461321c565b6112ff565b34801561041957600080fd5b5061030f610428366004613058565b611352565b34801561043957600080fd5b506102ad610448366004613058565b60706020526000908152604090205460ff1681565b34801561046957600080fd5b5060685461047d906001600160a01b031681565b6040516001600160a01b0390911681526020016102b9565b3480156104a157600080fd5b506102ad6104b03660046136d0565b611432565b61030f6104c3366004613179565b6115b8565b3480156104d457600080fd5b5061047d6104e33660046136b8565b611685565b3480156104f457600080fd5b5061033160775481565b34801561050a57600080fd5b506103316116af565b34801561051f57600080fd5b506076546102ad9060ff1681565b34801561053957600080fd5b506102ad610548366004613058565b611762565b34801561055957600080fd5b50610331611790565b34801561056e57600080fd5b5061058261057d36600461342c565b6117a0565b6040516102b9939291906138eb565b34801561059d57600080fd5b506102ad6105ac366004613058565b606a6020526000908152604090205460ff1681565b3480156105cd57600080fd5b5061033160745481565b3480156105e357600080fd5b5061038a611843565b3480156105f857600080fd5b5061060c6106073660046131c6565b611850565b604080516001600160a01b039485168152939092166020840152908201526060016102b9565b34801561063e57600080fd5b506071546102ad9060ff1681565b34801561065857600080fd5b506102ad6106673660046136b8565b611916565b34801561067857600080fd5b506102ad610687366004613058565b606e6020526000908152604090205460ff1681565b3480156106a857600080fd5b5061030f6106b73660046132eb565b6119ad565b3480156106c857600080fd5b506106dc6106d73660046136b8565b611ad3565b6040516102b9959493929190613e22565b3480156106f957600080fd5b5061030f6107083660046131c6565b611b91565b34801561071957600080fd5b5061038a6040518060400160405280601e81526020017f5472616e736665722045524332302042756467657420417070726f76616c000081525081565b34801561076257600080fd5b5061047d600081565b34801561077757600080fd5b5061078b6107863660046131c6565b611dd6565b6040805193151584526001600160a01b039092166020840152908201526060016102b9565b3480156107bc57600080fd5b506073546107ca9060ff1681565b60405160ff90911681526020016102b9565b3480156107e857600080fd5b506102ad6107f73660046136b8565b611e0d565b34801561080857600080fd5b50606d546102ad9060ff1681565b34801561082257600080fd5b506102ad610831366004613127565b611e25565b34801561084257600080fd5b5060675461047d906001600160a01b031681565b34801561086257600080fd5b506102ad610871366004613058565b6001600160a01b031660009081526070602052604090205460ff1690565b34801561089b57600080fd5b5061047d6108aa3660046136b8565b611e8d565b3480156108bb57600080fd5b506102ad611e9d565b3480156108d057600080fd5b5061038a6108df3660046134e8565b611eb5565b3480156108f057600080fd5b5061030f6108ff3660046136b8565b611f08565b6000631409412160e31b6001600160e01b03198316141561092757506001919050565b634a3ff40960e11b6001600160e01b03198316141561094857506001919050565b506000919050565b6109e4604051806101e0016040528060006001600160a01b0316815260200160006001600160a01b03168152602001606081526020016060815260200160608152602001600015158152602001606081526020016060815260200160001515815260200160008152602001600060ff1681526020016000815260200160008152602001600015158152602001600081525090565b630f4f6ced60e11b6109f783600061217d565b6001600160e01b03191614610a495760405162461bcd60e51b81526020600482015260136024820152723ab732bc3832b1ba32b210333ab731ba34b7b760691b60448201526064015b60405180910390fd5b610a636004808451610a5b919061412b565b8491906121da565b806020019051810190610a769190613520565b92915050565b336000908152606a602052604090205460ff16610aab5760405162461bcd60e51b8152600401610a4090613aea565b8060008060008381526066602052604090206002015460ff166003811115610ae357634e487b7160e01b600052602160045260246000fd5b14610b005760405162461bcd60e51b8152600401610a40906139dc565b60008381526066602052604090206002908101805460ff19166001835b0217905550505050565b6068546000906001600160a01b03163314610b545760405162461bcd60e51b8152600401610a4090613aea565b610b62606580546001019055565b6000610b6d60655490565b6000818152606660209081526040909120828155875192935091610b9991600184019190890190612c80565b50606954610bb55760028101805460ff19166001179055610bc2565b60028101805460ff191690555b6003810185905560058101805460ff191660011790556040517ff76ea1aca27c97ca6fddffb23f8e7f52b876abbc1d3aad77dde4316b6586db3290610c0c90849089908990613e79565b60405180910390a18315610c2357610c2382611f08565b5090505b9392505050565b600054610100900460ff16610c495760005460ff1615610c4d565b303b155b610c695760405162461bcd60e51b8152600401610a4090613a9c565b600054610100900460ff16158015610c8b576000805461ffff19166101011790555b610c986020830183613058565b606880546001600160a01b0319166001600160a01b0392909216919091179055610cc86040830160208401613058565b606780546001600160a01b0319166001600160a01b0392909216919091179055610cf56060830183613f62565b610d0191606b91612d04565b50610d0f6080830183613f62565b610d1b91606c91612d04565b50610d296040830183613f1b565b610d3591606991612d78565b5060005b610d466040840184613f1b565b9050811015610dcf576001606a6000610d626040870187613f1b565b85818110610d8057634e487b7160e01b600052603260045260246000fd5b9050602002016020810190610d959190613058565b6001600160a01b031681526020810191909152604001600020805460ff191691151591909117905580610dc7816141c0565b915050610d39565b50610de060c0830160a084016133d0565b606d805460ff191691151591909117905560005b610e0160c0840184613f1b565b9050811015610f06576001606e6000610e1d60c0870187613f1b565b85818110610e3b57634e487b7160e01b600052603260045260246000fd5b9050602002016020810190610e509190613058565b6001600160a01b031681526020810191909152604001600020805460ff19169115159190911790557ff11283a265d7a5f95fbc149dc65464f1f5be0151aac387fd76a938e1e5584604610ea660c0850185613f1b565b83818110610ec457634e487b7160e01b600052603260045260246000fd5b9050602002016020810190610ed99190613058565b6040516001600160a01b03909116815260200160405180910390a180610efe816141c0565b915050610df4565b50610f1460e0830183613f1b565b610f2091606f91612d78565b5060005b610f3160e0840184613f1b565b905081101561103657600160706000610f4d60e0870187613f1b565b85818110610f6b57634e487b7160e01b600052603260045260246000fd5b9050602002016020810190610f809190613058565b6001600160a01b031681526020810191909152604001600020805460ff19169115159190911790557f14009112f2dcb15cad32dab6bf972d6d85286e4ae1178f27323ffe25359459e6610fd660e0850185613f1b565b83818110610ff457634e487b7160e01b600052603260045260246000fd5b90506020020160208101906110099190613058565b6040516001600160a01b03909116815260200160405180910390a18061102e816141c0565b915050610f24565b50611049610120830161010084016133d0565b6071805460ff191691151591909117905561012082013560728190556040519081527f31ccd12cbf208164ec1a18279a3cf91497cd7087f3c4c30a378fb32c896bf9049060200160405180910390a16110aa610160830161014084016136ff565b6073805460ff191660ff929092169190911790556101608201356074556101808201356075556110e26101c083016101a084016133d0565b6076805460ff19169115159190911790556101c082013560778190556040519081527f1712bb6003c6ad6a4019ccb21da09673f73c995cb2b0be3cf6bc4fff8ed49fcc9060200160405180910390a18015611143576000805461ff00191690555b5050565b606b805461115490614185565b80601f016020809104026020016040519081016040528092919081815260200182805461118090614185565b80156111cd5780601f106111a2576101008083540402835291602001916111cd565b820191906000526020600020905b8154815290600101906020018083116111b057829003601f168201915b505050505081565b60608383836040516024016111ec939291906138eb565b60408051601f198184030181529190526020810180516001600160e01b0316631409412160e31b17905290509392505050565b336000908152606a602052604090205460ff1661124e5760405162461bcd60e51b8152600401610a4090613aea565b8060008060008381526066602052604090206002015460ff16600381111561128657634e487b7160e01b600052602160045260246000fd5b146112a35760405162461bcd60e51b8152600401610a40906139dc565b60008381526066602090815260408083203384526004019091529020805460ff191660011790556112d383611916565b156112fa57600083815260666020526040902060020180546001919060ff19168280610b1d565b505050565b606086868686868660405160240161131c9695949392919061391f565b60408051601f198184030181529190526020810180516001600160e01b0316634a3ff40960e11b17905290509695505050505050565b306001600160a01b037f000000000000000000000000000000000000000000000000000000000000000016141561139b5760405162461bcd60e51b8152600401610a4090613a04565b7f00000000000000000000000000000000000000000000000000000000000000006001600160a01b03166113e460008051602061423a833981519152546001600160a01b031690565b6001600160a01b03161461140a5760405162461bcd60e51b8152600401610a4090613a50565b611413816122e6565b6040805160008082526020820190925261142f91839190612358565b50565b60008082156114485761144584826140d4565b90505b60005b606f548110156115825760006001600160a01b0316606f828154811061148157634e487b7160e01b600052603260045260246000fd5b6000918252602090912001546001600160a01b031614156114ba576068546114b3906001600160a01b031631836140d4565b9150611570565b606f81815481106114db57634e487b7160e01b600052603260045260246000fd5b6000918252602090912001546068546040516370a0823160e01b81526001600160a01b0391821660048201529116906370a082319060240160206040518083038186803b15801561152b57600080fd5b505afa15801561153f573d6000803e3d6000fd5b505050506040513d601f19601f8201168201806040525081019061156391906133ec565b61156d90836140d4565b91505b8061157a816141c0565b91505061144b565b5080611592576000915050610a76565b60735460ff16816115a486606461410c565b6115ae91906140ec565b1115949350505050565b306001600160a01b037f00000000000000000000000000000000000000000000000000000000000000001614156116015760405162461bcd60e51b8152600401610a4090613a04565b7f00000000000000000000000000000000000000000000000000000000000000006001600160a01b031661164a60008051602061423a833981519152546001600160a01b031690565b6001600160a01b0316146116705760405162461bcd60e51b8152600401610a4090613a50565b611679826122e6565b61114382826001612358565b606f818154811061169557600080fd5b6000918252602090912001546001600160a01b0316905081565b6000306001600160a01b037f0000000000000000000000000000000000000000000000000000000000000000161461174f5760405162461bcd60e51b815260206004820152603860248201527f555550535570677261646561626c653a206d757374206e6f742062652063616c60448201527f6c6564207468726f7567682064656c656761746563616c6c00000000000000006064820152608401610a40565b5060008051602061423a83398151915290565b606d5460009060ff1680610a765750506001600160a01b03166000908152606e602052604090205460ff1690565b600061179b60655490565b905090565b60006060816117af848261217d565b6001600160e01b03191663a04a090860e01b146118095760405162461bcd60e51b81526020600482015260186024820152771d5b995e1c1958dd195908199d5b98dd1a5bdb8818d85b1b60421b6044820152606401610a40565b611823600480865161181b919061412b565b8691906121da565b8060200190518101906118369190613090565b9250925092509193909250565b606c805461115490614185565b600080600084516000141561186d5750600091508490508261190d565b61187885600061217d565b6001600160e01b03191663a9059cbb60e01b146118d25760405162461bcd60e51b81526020600482015260186024820152771d5b995e1c1958dd195908199d5b98dd1a5bdb8818d85b1b60421b6044820152606401610a40565b6000806118ef60048089516118e7919061412b565b8991906121da565b80602001905181019061190291906130fa565b899650909450925050505b93509350939050565b6000805b6069548110156119a4576066600084815260200190815260200160002060040160006069838154811061195d57634e487b7160e01b600052603260045260246000fd5b60009182526020808320909101546001600160a01b0316835282019290925260400190205460ff166119925750600092915050565b8061199c816141c0565b91505061191a565b50600192915050565b82518251146119ee5760405162461bcd60e51b815260206004820152600d60248201526c1a5b9d985b1a59081a5b9c1d5d609a1b6044820152606401610a40565b8051825114611a2f5760405162461bcd60e51b815260206004820152600d60248201526c1a5b9d985b1a59081a5b9c1d5d609a1b6044820152606401610a40565b60005b8251811015611acd57611abb848281518110611a5e57634e487b7160e01b600052603260045260246000fd5b6020026020010151848381518110611a8657634e487b7160e01b600052603260045260246000fd5b6020026020010151848481518110611aae57634e487b7160e01b600052603260045260246000fd5b6020026020010151611b91565b80611ac5816141c0565b915050611a32565b50505050565b60666020526000908152604090208054600182018054919291611af590614185565b80601f0160208091040260200160405190810160405280929190818152602001828054611b2190614185565b8015611b6e5780601f10611b4357610100808354040283529160200191611b6e565b820191906000526020600020905b815481529060010190602001808311611b5157829003601f168201915b5050505060028301546003840154600590940154929360ff918216939092501685565b333014611bb05760405162461bcd60e51b8152600401610a4090613aea565b6000806000611bc0868686611dd6565b9250925092508215611ca957600080611bd984846124d2565b606854604051634b0c29db60e11b81529294509092506000916001600160a01b039091169063961853b690611c1890889087908790879060040161387b565b602060405180830381600087803b158015611c3257600080fd5b505af1158015611c46573d6000803e3d6000fd5b505050506040513d601f19601f82011682018060405250810190611c6a91906133ec565b9050838114611ca55760405162461bcd60e51b81526020600482015260076024820152661a5b9d985b1a5960ca1b6044820152606401610a40565b5050505b6000866001600160a01b03168587604051611cc491906137f0565b60006040518083038185875af1925050503d8060008114611d01576040519150601f19603f3d011682016040523d82523d6000602084013e611d06565b606091505b5050905080611d4a5760405162461bcd60e51b815260206004820152601060248201526f195e1958dd5d1a5bdb8819985a5b195960821b6044820152606401610a40565b6000806000611d5a8a8a8a611850565b925092509250611d6d8383836001611e25565b611db95760405162461bcd60e51b815260206004820152601760248201527f7472616e73616374696f6e206e6f7420616c6c6f7765640000000000000000006044820152606401610a40565b611dc28161294a565b611dca6129a4565b50505050505050505050565b6000806000806000611de9888888611850565b92505091506000811115611e0257600194508193508092505b505093509350939050565b60715460009060ff1680610a76575050607254101590565b6000611e3084611762565b8015611e5457506001600160a01b03851660009081526070602052604090205460ff165b8015611e645750611e6483611e0d565b8015611e755750611e758383611432565b8015611e845750611e84611e9d565b95945050505050565b6069818154811061169557600080fd5b60765460009060ff168061179b575050607754151590565b6060631e9ed9da60e01b82604051602401611ed09190613b11565b60408051601f198184030181529190526020810180516001600160e01b03166001600160e01b03199093169290921790915292915050565b8060018060008381526066602052604090206002015460ff166003811115611f4057634e487b7160e01b600052602160045260246000fd5b14611f5d5760405162461bcd60e51b8152600401610a40906139dc565b6000838152606660205260409020600301548390421115611fb65760405162461bcd60e51b81526020600482015260136024820152721d1c985b9cd858dd1a5bdb88195e1c1a5c9959606a1b6044820152606401610a40565b6074544210156120085760405162461bcd60e51b815260206004820152601f60248201527f62756467657420617070726f76616c206e6f74207965742073746172746564006044820152606401610a40565b607554156120595760755442106120595760405162461bcd60e51b8152602060048201526015602482015274189d5919d95d08185c1c1c9bdd985b08195b991959605a1b6044820152606401610a40565b6067546001600160a01b031633148061207c57506068546001600160a01b031633145b6120985760405162461bcd60e51b8152600401610a4090613aea565b6000848152606660205260408082209051829130916120ba916001019061380c565b6000604051808303816000865af19150503d80600081146120f7576040519150601f19603f3d011682016040523d82523d6000602084013e6120fc565b606091505b50915091508161210b82612a01565b906121295760405162461bcd60e51b8152600401610a4091906139c9565b506000868152606660205260409081902090517f73bfd8893d61df5634e57288730916927200fdcc4514a01a2a0a891e748d7dc49161216d91899160010190613e92565b60405180910390a1505050505050565b600061218a8260046140d4565b835110156121d15760405162461bcd60e51b8152602060048201526014602482015273746f4279746573345f6f75744f66426f756e647360601b6044820152606401610a40565b50016020015190565b6060816121e881601f6140d4565b10156122275760405162461bcd60e51b815260206004820152600e60248201526d736c6963655f6f766572666c6f7760901b6044820152606401610a40565b61223182846140d4565b845110156122755760405162461bcd60e51b8152602060048201526011602482015270736c6963655f6f75744f66426f756e647360781b6044820152606401610a40565b6060821580156122945760405191506000825260208201604052610c23565b6040519150601f8416801560200281840101858101878315602002848b0101015b818310156122cd5780518352602092830192016122b5565b5050858452601f01601f19166040525050949350505050565b600054610100900460ff166123015760005460ff1615612305565b303b155b6123215760405162461bcd60e51b8152600401610a4090613a9c565b600054610100900460ff16158015612343576000805461ffff19166101011790555b8015611143576000805461ff00191690555050565b7f4910fdfa16fed3260ed0e7147f7cc6da11a60208b5b9406d12a635614ffd91435460ff161561238b576112fa83612a60565b826001600160a01b03166352d1902d6040518163ffffffff1660e01b815260040160206040518083038186803b1580156123c457600080fd5b505afa9250505080156123f4575060408051601f3d908101601f191682019092526123f1918101906133ec565b60015b6124575760405162461bcd60e51b815260206004820152602e60248201527f45524331393637557067726164653a206e657720696d706c656d656e7461746960448201526d6f6e206973206e6f74205555505360901b6064820152608401610a40565b60008051602061423a83398151915281146124c65760405162461bcd60e51b815260206004820152602960248201527f45524331393637557067726164653a20756e737570706f727465642070726f786044820152681a58589b195555525160ba1b6064820152608401610a40565b506112fa838383612afc565b6060806000606860009054906101000a90046001600160a01b03166001600160a01b031663a2bf68b96040518163ffffffff1660e01b815260040160206040518083038186803b15801561252557600080fd5b505afa158015612539573d6000803e3d6000fd5b505050506040513d601f19601f8201168201806040525081019061255d9190613074565b90506000606860009054906101000a90046001600160a01b03166001600160a01b0316631904e5c96040518163ffffffff1660e01b815260040160206040518083038186803b1580156125af57600080fd5b505afa1580156125c3573d6000803e3d6000fd5b505050506040513d601f19601f820116820180604052508101906125e79190613074565b60405163cb0e0d7d60e01b81526001600160a01b03888116600483015291925060009183169063cb0e0d7d9060240160206040518083038186803b15801561262e57600080fd5b505afa158015612642573d6000803e3d6000fd5b505050506040513d601f19601f8201168201806040525081019061266691906133ec565b90506000836001600160a01b0316637c0f6b356040518163ffffffff1660e01b815260040160006040518083038186803b1580156126a357600080fd5b505afa1580156126b7573d6000803e3d6000fd5b505050506040513d6000823e601f3d908101601f191682016040526126df91908101906132b1565b9050600081516001600160401b0381111561270a57634e487b7160e01b600052604160045260246000fd5b604051908082528060200260200182016040528015612733578160200160208202803683370190505b50604051636468e31760e01b8152600481018590529091506000906001600160a01b03861690636468e3179060240160206040518083038186803b15801561277a57600080fd5b505afa15801561278e573d6000803e3d6000fd5b505050506040513d601f19601f820116820180604052508101906127b291906133ec565b90508860005b600185516127c6919061412b565b8110156128fe576000876001600160a01b031662fdd58e8784815181106127fd57634e487b7160e01b600052603260045260246000fd5b6020026020010151896040518363ffffffff1660e01b81526004016128379291906001600160a01b03929092168252602082015260400190565b60206040518083038186803b15801561284f57600080fd5b505afa158015612863573d6000803e3d6000fd5b505050506040513d601f19601f8201168201806040525081019061288791906133ec565b905083612894828e61410c565b61289e91906140ec565b8583815181106128be57634e487b7160e01b600052603260045260246000fd5b6020908102919091010152836128d4828e61410c565b6128de91906140ec565b6128e8908461412b565b92505080806128f6906141c0565b9150506127b8565b5080836001865161290f919061412b565b8151811061292d57634e487b7160e01b600052603260045260246000fd5b6020908102919091010152509196509450505050505b9250929050565b60715460ff1661142f578060726000828254612966919061412b565b90915550506072546040519081527f31ccd12cbf208164ec1a18279a3cf91497cd7087f3c4c30a378fb32c896bf9049060200160405180910390a150565b60765460ff166129ff57607780549060006129be8361416e565b91905055507f1712bb6003c6ad6a4019ccb21da09673f73c995cb2b0be3cf6bc4fff8ed49fcc6077546040516129f691815260200190565b60405180910390a15b565b6060604482511015612a4657505060408051808201909152601d81527f5472616e73616374696f6e2072657665727465642073696c656e746c79000000602082015290565b60048201915081806020019051810190610a7691906134b6565b6001600160a01b0381163b612acd5760405162461bcd60e51b815260206004820152602d60248201527f455243313936373a206e657720696d706c656d656e746174696f6e206973206e60448201526c1bdd08184818dbdb9d1c9858dd609a1b6064820152608401610a40565b60008051602061423a83398151915280546001600160a01b0319166001600160a01b0392909216919091179055565b612b0583612b21565b600082511180612b125750805b156112fa57611acd8383612b61565b612b2a81612a60565b6040516001600160a01b038216907fbc7cd75a20ee27fd9adebab32041f755214dbc6bffa90cc0225b39da2e5c2d3b90600090a250565b60606001600160a01b0383163b612bc95760405162461bcd60e51b815260206004820152602660248201527f416464726573733a2064656c65676174652063616c6c20746f206e6f6e2d636f6044820152651b9d1c9858dd60d21b6064820152608401610a40565b600080846001600160a01b031684604051612be491906137f0565b600060405180830381855af49150503d8060008114612c1f576040519150601f19603f3d011682016040523d82523d6000602084013e612c24565b606091505b5091509150611e84828260405180606001604052806027815260200161425a6027913960608315612c56575081610c27565b825115612c665782518084602001fd5b8160405162461bcd60e51b8152600401610a4091906139c9565b828054612c8c90614185565b90600052602060002090601f016020900481019282612cae5760008555612cf4565b82601f10612cc757805160ff1916838001178555612cf4565b82800160010185558215612cf4579182015b82811115612cf4578251825591602001919060010190612cd9565b50612d00929150612dcb565b5090565b828054612d1090614185565b90600052602060002090601f016020900481019282612d325760008555612cf4565b82601f10612d4b5782800160ff19823516178555612cf4565b82800160010185558215612cf4579182015b82811115612cf4578235825591602001919060010190612d5d565b828054828255906000526020600020908101928215612cf4579160200282015b82811115612cf45781546001600160a01b0319166001600160a01b03843516178255602090920191600190910190612d98565b5b80821115612d005760008155600101612dcc565b6000612df3612dee84614022565b613fcf565b9050828152838383011115612e0757600080fd5b610c27836020830184614142565b8035612e2081614207565b919050565b8051612e2081614207565b60008083601f840112612e41578182fd5b5081356001600160401b03811115612e57578182fd5b6020830191508360208260051b850101111561294357600080fd5b600082601f830112612e82578081fd5b81516020612e92612dee83613fff565b80838252828201915082860187848660051b8901011115612eb1578586fd5b855b85811015612ed8578151612ec681614207565b84529284019290840190600101612eb3565b5090979650505050505050565b600082601f830112612ef5578081fd5b81356020612f05612dee83613fff565b80838252828201915082860187848660051b8901011115612f24578586fd5b855b85811015612ed85781356001600160401b03811115612f43578788fd5b612f518a87838c0101612fd7565b8552509284019290840190600101612f26565b600082601f830112612f74578081fd5b81356020612f84612dee83613fff565b80838252828201915082860187848660051b8901011115612fa3578586fd5b855b85811015612ed857813584529284019290840190600101612fa5565b8035612e208161421c565b8051612e208161421c565b600082601f830112612fe7578081fd5b8135612ff5612dee82614022565b818152846020838601011115613009578283fd5b816020850160208301379081016020019190915292915050565b600082601f830112613033578081fd5b610c2783835160208501612de0565b8035612e208161422a565b8051612e208161422a565b600060208284031215613069578081fd5b8135610c2781614207565b600060208284031215613085578081fd5b8151610c2781614207565b6000806000606084860312156130a4578182fd5b83516130af81614207565b60208501519093506001600160401b038111156130ca578283fd5b8401601f810186136130da578283fd5b6130e986825160208401612de0565b925050604084015190509250925092565b6000806040838503121561310c578182fd5b825161311781614207565b6020939093015192949293505050565b6000806000806080858703121561313c578182fd5b843561314781614207565b9350602085013561315781614207565b925060408501359150606085013561316e8161421c565b939692955090935050565b6000806040838503121561318b578182fd5b823561319681614207565b915060208301356001600160401b038111156131b0578182fd5b6131bc85828601612fd7565b9150509250929050565b6000806000606084860312156131da578081fd5b83356131e581614207565b925060208401356001600160401b038111156131ff578182fd5b61320b86828701612fd7565b925050604084013590509250925092565b60008060008060008060608789031215613234578384fd5b86356001600160401b038082111561324a578586fd5b6132568a838b01612e30565b9098509650602089013591508082111561326e578586fd5b61327a8a838b01612e30565b90965094506040890135915080821115613292578384fd5b5061329f89828a01612e30565b979a9699509497509295939492505050565b6000602082840312156132c2578081fd5b81516001600160401b038111156132d7578182fd5b6132e384828501612e72565b949350505050565b6000806000606084860312156132ff578081fd5b83356001600160401b0380821115613315578283fd5b818601915086601f830112613328578283fd5b81356020613338612dee83613fff565b8083825282820191508286018b848660051b8901011115613357578788fd5b8796505b8487101561338257803561336e81614207565b83526001969096019591830191830161335b565b5097505087013592505080821115613398578283fd5b6133a487838801612ee5565b935060408601359150808211156133b9578283fd5b506133c686828701612f64565b9150509250925092565b6000602082840312156133e1578081fd5b8135610c278161421c565b6000602082840312156133fd578081fd5b5051919050565b600060208284031215613415578081fd5b81356001600160e01b031981168114610c27578182fd5b60006020828403121561343d578081fd5b81356001600160401b03811115613452578182fd5b6132e384828501612fd7565b600080600060608486031215613472578081fd5b83356001600160401b03811115613487578182fd5b61349386828701612fd7565b9350506020840135915060408401356134ab8161421c565b809150509250925092565b6000602082840312156134c7578081fd5b81516001600160401b038111156134dc578182fd5b6132e384828501613023565b6000602082840312156134f9578081fd5b81356001600160401b0381111561350e578182fd5b82016101e08185031215610c27578182fd5b600060208284031215613531578081fd5b81516001600160401b0380821115613547578283fd5b908301906101e0828603121561355b578283fd5b613563613fa6565b61356c83612e25565b815261357a60208401612e25565b6020820152604083015182811115613590578485fd5b61359c87828601612e72565b6040830152506060830151828111156135b3578485fd5b6135bf87828601613023565b6060830152506080830151828111156135d6578485fd5b6135e287828601613023565b6080830152506135f460a08401612fcc565b60a082015260c08301518281111561360a578485fd5b61361687828601612e72565b60c08301525060e08301518281111561362d578485fd5b61363987828601612e72565b60e083015250610100915061364f828401612fcc565b8282015261012091508183015182820152610140915061367082840161304d565b91810191909152610160828101519082015261018080830151908201526101a09061369c828401612fcc565b918101919091526101c091820151918101919091529392505050565b6000602082840312156136c9578081fd5b5035919050565b600080604083850312156136e2578182fd5b8235915060208301356136f48161421c565b809150509250929050565b600060208284031215613710578081fd5b8135610c278161422a565b81835260006020808501945082825b8581101561375857813561373d81614207565b6001600160a01b03168752958201959082019060010161372a565b509495945050505050565b6000815180845260208085019450808401835b838110156137585781516001600160a01b031687529582019590820190600101613776565b81835281816020850137506000828201602090810191909152601f909101601f19169091010190565b600081518084526137dc816020860160208601614142565b601f01601f19169290920160200192915050565b60008251613802818460208701614142565b9190910192915050565b600080835461381a81614185565b6001828116801561383257600181146138435761386f565b60ff1984168752828701945061386f565b8786526020808720875b858110156138665781548a82015290840190820161384d565b50505082870194505b50929695505050505050565b6001600160a01b0385168152608060208083018290526000916138a090840187613763565b8381036040850152855180825282870191830190845b818110156138d2578351835292840192918401916001016138b6565b5050809350505050821515606083015295945050505050565b6001600160a01b038416815260606020820181905260009061390f908301856137c4565b9050826040830152949350505050565b60608152600061393360608301888a61371b565b602083820381850152818783528183019050818860051b84010189855b8a81101561398a57858303601f1901845261396b828d614090565b61397685828461379b565b958701959450505090840190600101613950565b505085810360408701528681526001600160fb1b038711156139aa578485fd5b8660051b93508388848301379092010191825250979650505050505050565b602081526000610c2760208301846137c4565b6020808252600e908201526d1cdd185d1d5cc81a5b9d985b1a5960921b604082015260600190565b6020808252602c908201527f46756e6374696f6e206d7573742062652063616c6c6564207468726f7567682060408201526b19195b1959d85d1958d85b1b60a21b606082015260800190565b6020808252602c908201527f46756e6374696f6e206d7573742062652063616c6c6564207468726f7567682060408201526b6163746976652070726f787960a01b606082015260800190565b6020808252602e908201527f496e697469616c697a61626c653a20636f6e747261637420697320616c72656160408201526d191e481a5b9a5d1a585b1a5e995960921b606082015260800190565b6020808252600d908201526c1858d8d95cdcc819195b9a5959609a1b604082015260600190565b60208152613b3260208201613b2584612e15565b6001600160a01b03169052565b6000613b4060208401612e15565b6001600160a01b038116604084015250613b5d6040840184614049565b6101e0806060860152613b756102008601838561371b565b9250613b846060870187614090565b9250601f1980878603016080880152613b9e85858461379b565b9450613bad6080890189614090565b94509150808786030160a0880152613bc685858461379b565b9450613bd460a08901612fc1565b80151560c08901529350613beb60c0890189614049565b94509150808786030160e0880152613c0485858461371b565b9450613c1360e0890189614049565b94509150610100818887030181890152613c2e86868561371b565b9550613c3b818a01612fc1565b9450505050610120613c508187018415159052565b6101409250808701358387015250613c69828701613042565b9150610160613c7c8187018460ff169052565b61018092508087013583870152506101a08287013581870152613ca0818801612fc1565b9250506101c0613cb38187018415159052565b9590950135939094019290925250919050565b60208152613ce06020820183516001600160a01b03169052565b60006020830151613cfc60408401826001600160a01b03169052565b5060408301516101e0806060850152613d19610200850183613763565b91506060850151601f1980868503016080870152613d3784836137c4565b935060808701519150808685030160a0870152613d5484836137c4565b935060a08701519150613d6b60c087018315159052565b60c08701519150808685030160e0870152613d868483613763565b935060e08701519150610100818786030181880152613da58584613763565b94508088015192505050610120613dbf8187018315159052565b860151610140868101919091528601519050610160613de28187018360ff169052565b860151610180868101919091528601516101a08087019190915286015190506101c0613e118187018315159052565b959095015193019290925250919050565b85815260a060208201526000613e3b60a08301876137c4565b905060048510613e5b57634e487b7160e01b600052602160045260246000fd5b84604083015283606083015282151560808301529695505050505050565b83815260606020820152600061390f60608301856137c4565b82815260006020604081840152818454613eab81614185565b8060408701526060600180841660008114613ecd5760018114613ee157613f0c565b60ff19851689840152608089019550613f0c565b898852868820885b85811015613f045781548b8201860152908301908801613ee9565b8a0184019650505b50939998505050505050505050565b6000808335601e19843603018112613f31578283fd5b8301803591506001600160401b03821115613f4a578283fd5b6020019150600581901b360382131561294357600080fd5b6000808335601e19843603018112613f78578283fd5b8301803591506001600160401b03821115613f91578283fd5b60200191503681900382131561294357600080fd5b6040516101e081016001600160401b0381118282101715613fc957613fc96141f1565b60405290565b604051601f8201601f191681016001600160401b0381118282101715613ff757613ff76141f1565b604052919050565b60006001600160401b03821115614018576140186141f1565b5060051b60200190565b60006001600160401b0382111561403b5761403b6141f1565b50601f01601f191660200190565b6000808335601e1984360301811261405f578283fd5b83016020810192503590506001600160401b0381111561407e57600080fd5b8060051b360383131561294357600080fd5b6000808335601e198436030181126140a6578283fd5b83016020810192503590506001600160401b038111156140c557600080fd5b80360383131561294357600080fd5b600082198211156140e7576140e76141db565b500190565b60008261410757634e487b7160e01b81526012600452602481fd5b500490565b6000816000190483118215151615614126576141266141db565b500290565b60008282101561413d5761413d6141db565b500390565b60005b8381101561415d578181015183820152602001614145565b83811115611acd5750506000910152565b60008161417d5761417d6141db565b506000190190565b600181811c9082168061419957607f821691505b602082108114156141ba57634e487b7160e01b600052602260045260246000fd5b50919050565b60006000198214156141d4576141d46141db565b5060010190565b634e487b7160e01b600052601160045260246000fd5b634e487b7160e01b600052604160045260246000fd5b6001600160a01b038116811461142f57600080fd5b801515811461142f57600080fd5b60ff8116811461142f57600080fdfe360894a13ba1a3210667c828492db98dca3e2076cc3735a920a3ca505d382bbc416464726573733a206c6f772d6c6576656c2064656c65676174652063616c6c206661696c6564a264697066735822122015b37e785d0774a4aac0f2aa560792723659fb879e3eb7392026cc90a07d8b8564736f6c63430008040033",
  "linkReferences": {},
  "deployedLinkReferences": {}
}