{
  "_format": "hh-sol-artifact-1",
  "contractName": "UniswapLiquidBudgetApproval",
  "sourceName": "contracts/UniswapLiquidBudgetApproval.sol",
  "abi": [
    {
      "inputs": [],
      "stateMutability": "nonpayable",
      "type": "constructor"
    },
    {
      "anonymous": false,
      "inputs": [
        {
          "indexed": false,
          "internalType": "address",
          "name": "target",
          "type": "address"
        }
      ],
      "name": "AllowAddress",
      "type": "event"
    },
    {
      "anonymous": false,
      "inputs": [
        {
          "indexed": false,
          "internalType": "uint256",
          "name": "amount",
          "type": "uint256"
        }
      ],
      "name": "AllowAmount",
      "type": "event"
    },
    {
      "anonymous": false,
      "inputs": [
        {
          "indexed": false,
          "internalType": "address",
          "name": "token",
          "type": "address"
        }
      ],
      "name": "AllowToToken",
      "type": "event"
    },
    {
      "anonymous": false,
      "inputs": [
        {
          "indexed": false,
          "internalType": "address",
          "name": "token",
          "type": "address"
        }
      ],
      "name": "AllowToken",
      "type": "event"
    },
    {
      "anonymous": false,
      "inputs": [
        {
          "indexed": true,
          "internalType": "uint256",
          "name": "id",
          "type": "uint256"
        },
        {
          "indexed": false,
          "internalType": "address",
          "name": "approver",
          "type": "address"
        },
        {
          "indexed": false,
          "internalType": "string",
          "name": "comment",
          "type": "string"
        }
      ],
      "name": "ApproveTransaction",
      "type": "event"
    },
    {
      "anonymous": false,
      "inputs": [
        {
          "indexed": true,
          "internalType": "uint256",
          "name": "id",
          "type": "uint256"
        },
        {
          "indexed": false,
          "internalType": "bytes[]",
          "name": "data",
          "type": "bytes[]"
        },
        {
          "indexed": false,
          "internalType": "uint256",
          "name": "deadline",
          "type": "uint256"
        },
        {
          "indexed": false,
          "internalType": "enum CommonBudgetApproval.Status",
          "name": "status",
          "type": "uint8"
        },
        {
          "indexed": false,
          "internalType": "string",
          "name": "comment",
          "type": "string"
        },
        {
          "indexed": false,
          "internalType": "address",
          "name": "creator",
          "type": "address"
        }
      ],
      "name": "CreateTransaction",
      "type": "event"
    },
    {
      "anonymous": false,
      "inputs": [
        {
          "indexed": true,
          "internalType": "uint256",
          "name": "id",
          "type": "uint256"
        },
        {
          "indexed": false,
          "internalType": "bytes[]",
          "name": "data",
          "type": "bytes[]"
        },
        {
          "indexed": false,
          "internalType": "address",
          "name": "_executor",
          "type": "address"
        }
      ],
      "name": "ExecuteTransaction",
      "type": "event"
    },
    {
      "anonymous": false,
      "inputs": [
        {
          "indexed": true,
          "internalType": "uint256",
          "name": "id",
          "type": "uint256"
        },
        {
          "indexed": true,
          "internalType": "address",
          "name": "executor",
          "type": "address"
        },
        {
          "indexed": true,
          "internalType": "address",
          "name": "toAddress",
          "type": "address"
        },
        {
          "indexed": false,
          "internalType": "address",
          "name": "token",
          "type": "address"
        },
        {
          "indexed": false,
          "internalType": "uint256",
          "name": "amount",
          "type": "uint256"
        }
      ],
      "name": "ExecuteUniswapInTransaction",
      "type": "event"
    },
    {
      "anonymous": false,
      "inputs": [
        {
          "indexed": true,
          "internalType": "uint256",
          "name": "id",
          "type": "uint256"
        },
        {
          "indexed": true,
          "internalType": "address",
          "name": "executor",
          "type": "address"
        },
        {
          "indexed": true,
          "internalType": "address",
          "name": "toAddress",
          "type": "address"
        },
        {
          "indexed": false,
          "internalType": "address",
          "name": "token",
          "type": "address"
        },
        {
          "indexed": false,
          "internalType": "uint256",
          "name": "amount",
          "type": "uint256"
        }
      ],
      "name": "ExecuteUniswapOutTransaction",
      "type": "event"
    },
    {
      "anonymous": false,
      "inputs": [
        {
          "indexed": true,
          "internalType": "uint256",
          "name": "id",
          "type": "uint256"
        },
        {
          "indexed": true,
          "internalType": "address",
          "name": "executor",
          "type": "address"
        },
        {
          "indexed": true,
          "internalType": "address",
          "name": "toAddress",
          "type": "address"
        },
        {
          "indexed": false,
          "internalType": "address",
          "name": "tokenIn",
          "type": "address"
        },
        {
          "indexed": false,
          "internalType": "address",
          "name": "tokenOut",
          "type": "address"
        },
        {
          "indexed": false,
          "internalType": "uint256",
          "name": "amount",
          "type": "uint256"
        }
      ],
      "name": "ExecuteWETH9Transaction",
      "type": "event"
    },
    {
      "anonymous": false,
      "inputs": [
        {
          "indexed": false,
          "internalType": "uint8",
          "name": "version",
          "type": "uint8"
        }
      ],
      "name": "Initialized",
      "type": "event"
    },
    {
      "anonymous": false,
      "inputs": [
        {
          "indexed": true,
          "internalType": "uint256",
          "name": "id",
          "type": "uint256"
        }
      ],
      "name": "RevokeTransaction",
      "type": "event"
    },
    {
      "anonymous": false,
      "inputs": [
        {
          "indexed": false,
          "internalType": "address",
          "name": "approver",
          "type": "address"
        }
      ],
      "name": "SetApprover",
      "type": "event"
    },
    {
      "inputs": [],
      "name": "RECIPIENT_EXECUTEE",
      "outputs": [
        {
          "internalType": "address",
          "name": "",
          "type": "address"
        }
      ],
      "stateMutability": "view",
      "type": "function"
    },
    {
      "inputs": [],
      "name": "RECIPIENT_UNISWAP_ROUTER",
      "outputs": [
        {
          "internalType": "address",
          "name": "",
          "type": "address"
        }
      ],
      "stateMutability": "view",
      "type": "function"
    },
    {
      "inputs": [],
      "name": "WETH9",
      "outputs": [
        {
          "internalType": "address",
          "name": "",
          "type": "address"
        }
      ],
      "stateMutability": "pure",
      "type": "function"
    },
    {
      "inputs": [],
      "name": "afterInitialized",
      "outputs": [],
      "stateMutability": "nonpayable",
      "type": "function"
    },
    {
      "inputs": [],
      "name": "allowAllToTokens",
      "outputs": [
        {
          "internalType": "bool",
          "name": "",
          "type": "bool"
        }
      ],
      "stateMutability": "view",
      "type": "function"
    },
    {
      "inputs": [],
      "name": "allowAnyAmount",
      "outputs": [
        {
          "internalType": "bool",
          "name": "",
          "type": "bool"
        }
      ],
      "stateMutability": "view",
      "type": "function"
    },
    {
      "inputs": [],
      "name": "allowUnlimitedUsageCount",
      "outputs": [
        {
          "internalType": "bool",
          "name": "",
          "type": "bool"
        }
      ],
      "stateMutability": "view",
      "type": "function"
    },
    {
      "inputs": [],
      "name": "amountPercentage",
      "outputs": [
        {
          "internalType": "uint8",
          "name": "",
          "type": "uint8"
        }
      ],
      "stateMutability": "view",
      "type": "function"
    },
    {
      "inputs": [
        {
          "internalType": "uint256",
          "name": "id",
          "type": "uint256"
        },
        {
          "internalType": "string",
          "name": "comment",
          "type": "string"
        }
      ],
      "name": "approveTransaction",
      "outputs": [],
      "stateMutability": "nonpayable",
      "type": "function"
    },
    {
      "inputs": [],
      "name": "approverTeamId",
      "outputs": [
        {
          "internalType": "uint256",
          "name": "",
          "type": "uint256"
        }
      ],
      "stateMutability": "view",
      "type": "function"
    },
    {
      "inputs": [
        {
          "internalType": "address",
          "name": "eoa",
          "type": "address"
        }
      ],
      "name": "approversMapping",
      "outputs": [
        {
          "internalType": "bool",
          "name": "",
          "type": "bool"
        }
      ],
      "stateMutability": "view",
      "type": "function"
    },
    {
      "inputs": [
        {
          "internalType": "address",
          "name": "asset",
          "type": "address"
        },
        {
          "internalType": "uint256",
          "name": "amount",
          "type": "uint256"
        }
      ],
      "name": "assetBaseCurrencyPrice",
      "outputs": [
        {
          "internalType": "uint256",
          "name": "",
          "type": "uint256"
        }
      ],
      "stateMutability": "view",
      "type": "function"
    },
    {
      "inputs": [
        {
          "internalType": "address",
          "name": "asset",
          "type": "address"
        },
        {
          "internalType": "uint256",
          "name": "amount",
          "type": "uint256"
        }
      ],
      "name": "assetEthPrice",
      "outputs": [
        {
          "internalType": "uint256",
          "name": "",
          "type": "uint256"
        }
      ],
      "stateMutability": "view",
      "type": "function"
    },
    {
      "inputs": [],
      "name": "baseCurrency",
      "outputs": [
        {
          "internalType": "address",
          "name": "",
          "type": "address"
        }
      ],
      "stateMutability": "view",
      "type": "function"
    },
    {
      "inputs": [],
      "name": "baseCurrencyDecimals",
      "outputs": [
        {
          "internalType": "uint8",
          "name": "",
          "type": "uint8"
        }
      ],
      "stateMutability": "view",
      "type": "function"
    },
    {
      "inputs": [
        {
          "internalType": "address",
          "name": "asset",
          "type": "address"
        }
      ],
      "name": "canResolvePrice",
      "outputs": [
        {
          "internalType": "bool",
          "name": "",
          "type": "bool"
        }
      ],
      "stateMutability": "view",
      "type": "function"
    },
    {
      "inputs": [
        {
          "internalType": "bytes[]",
          "name": "_data",
          "type": "bytes[]"
        },
        {
          "internalType": "uint32",
          "name": "_deadline",
          "type": "uint32"
        },
        {
          "internalType": "bool",
          "name": "_isExecute",
          "type": "bool"
        },
        {
          "internalType": "string",
          "name": "comment",
          "type": "string"
        }
      ],
      "name": "createTransaction",
      "outputs": [
        {
          "internalType": "uint256",
          "name": "",
          "type": "uint256"
        }
      ],
      "stateMutability": "nonpayable",
      "type": "function"
    },
    {
      "inputs": [
        {
          "internalType": "bytes",
          "name": "rawData",
          "type": "bytes"
        },
        {
          "internalType": "uint256",
          "name": "value",
          "type": "uint256"
        },
        {
          "internalType": "bytes",
          "name": "response",
          "type": "bytes"
        }
      ],
      "name": "decodeUniswapMulticall",
      "outputs": [
        {
          "components": [
            {
              "internalType": "address",
              "name": "recipient",
              "type": "address"
            },
            {
              "internalType": "address",
              "name": "tokenIn",
              "type": "address"
            },
            {
              "internalType": "address",
              "name": "tokenOut",
              "type": "address"
            },
            {
              "internalType": "uint256",
              "name": "amountIn",
              "type": "uint256"
            },
            {
              "internalType": "uint256",
              "name": "amountOut",
              "type": "uint256"
            },
            {
              "internalType": "enum UniswapSwapper.MulticallResultAttribute",
              "name": "resultType",
              "type": "uint8"
            }
          ],
          "internalType": "struct UniswapSwapper.MulticallData[]",
          "name": "multicalData",
          "type": "tuple[]"
        }
      ],
      "stateMutability": "view",
      "type": "function"
    },
    {
      "inputs": [
        {
          "internalType": "bytes",
          "name": "data",
          "type": "bytes"
        },
        {
          "internalType": "uint256",
          "name": "value",
          "type": "uint256"
        }
      ],
      "name": "decodeWETH9Call",
      "outputs": [
        {
          "internalType": "address",
          "name": "tokenIn",
          "type": "address"
        },
        {
          "internalType": "address",
          "name": "tokenOut",
          "type": "address"
        },
        {
          "internalType": "uint256",
          "name": "amount",
          "type": "uint256"
        }
      ],
      "stateMutability": "pure",
      "type": "function"
    },
    {
      "inputs": [],
      "name": "endTime",
      "outputs": [
        {
          "internalType": "uint256",
          "name": "",
          "type": "uint256"
        }
      ],
      "stateMutability": "view",
      "type": "function"
    },
    {
      "inputs": [
        {
          "internalType": "address",
          "name": "asset",
          "type": "address"
        },
        {
          "internalType": "uint256",
          "name": "ethAmount",
          "type": "uint256"
        }
      ],
      "name": "ethAssetPrice",
      "outputs": [
        {
          "internalType": "uint256",
          "name": "",
          "type": "uint256"
        }
      ],
      "stateMutability": "view",
      "type": "function"
    },
    {
      "inputs": [
        {
          "components": [
            {
              "internalType": "bytes",
              "name": "path",
              "type": "bytes"
            },
            {
              "internalType": "address",
              "name": "recipient",
              "type": "address"
            },
            {
              "internalType": "uint256",
              "name": "amountIn",
              "type": "uint256"
            },
            {
              "internalType": "uint256",
              "name": "amountOutMinimum",
              "type": "uint256"
            }
          ],
          "internalType": "struct IV3SwapRouter.ExactInputParams",
          "name": "params",
          "type": "tuple"
        }
      ],
      "name": "exactInput",
      "outputs": [
        {
          "components": [
            {
              "internalType": "address",
              "name": "recipient",
              "type": "address"
            },
            {
              "internalType": "address",
              "name": "tokenIn",
              "type": "address"
            },
            {
              "internalType": "address",
              "name": "tokenOut",
              "type": "address"
            },
            {
              "internalType": "uint256",
              "name": "amountIn",
              "type": "uint256"
            },
            {
              "internalType": "uint256",
              "name": "amountOut",
              "type": "uint256"
            },
            {
              "internalType": "enum UniswapSwapper.MulticallResultAttribute",
              "name": "resultType",
              "type": "uint8"
            }
          ],
          "internalType": "struct UniswapSwapper.MulticallData",
          "name": "",
          "type": "tuple"
        }
      ],
      "stateMutability": "pure",
      "type": "function"
    },
    {
      "inputs": [
        {
          "components": [
            {
              "internalType": "address",
              "name": "tokenIn",
              "type": "address"
            },
            {
              "internalType": "address",
              "name": "tokenOut",
              "type": "address"
            },
            {
              "internalType": "uint24",
              "name": "fee",
              "type": "uint24"
            },
            {
              "internalType": "address",
              "name": "recipient",
              "type": "address"
            },
            {
              "internalType": "uint256",
              "name": "amountIn",
              "type": "uint256"
            },
            {
              "internalType": "uint256",
              "name": "amountOutMinimum",
              "type": "uint256"
            },
            {
              "internalType": "uint160",
              "name": "sqrtPriceLimitX96",
              "type": "uint160"
            }
          ],
          "internalType": "struct IV3SwapRouter.ExactInputSingleParams",
          "name": "params",
          "type": "tuple"
        }
      ],
      "name": "exactInputSingle",
      "outputs": [
        {
          "components": [
            {
              "internalType": "address",
              "name": "recipient",
              "type": "address"
            },
            {
              "internalType": "address",
              "name": "tokenIn",
              "type": "address"
            },
            {
              "internalType": "address",
              "name": "tokenOut",
              "type": "address"
            },
            {
              "internalType": "uint256",
              "name": "amountIn",
              "type": "uint256"
            },
            {
              "internalType": "uint256",
              "name": "amountOut",
              "type": "uint256"
            },
            {
              "internalType": "enum UniswapSwapper.MulticallResultAttribute",
              "name": "resultType",
              "type": "uint8"
            }
          ],
          "internalType": "struct UniswapSwapper.MulticallData",
          "name": "",
          "type": "tuple"
        }
      ],
      "stateMutability": "pure",
      "type": "function"
    },
    {
      "inputs": [
        {
          "components": [
            {
              "internalType": "bytes",
              "name": "path",
              "type": "bytes"
            },
            {
              "internalType": "address",
              "name": "recipient",
              "type": "address"
            },
            {
              "internalType": "uint256",
              "name": "amountOut",
              "type": "uint256"
            },
            {
              "internalType": "uint256",
              "name": "amountInMaximum",
              "type": "uint256"
            }
          ],
          "internalType": "struct IV3SwapRouter.ExactOutputParams",
          "name": "params",
          "type": "tuple"
        }
      ],
      "name": "exactOutput",
      "outputs": [
        {
          "components": [
            {
              "internalType": "address",
              "name": "recipient",
              "type": "address"
            },
            {
              "internalType": "address",
              "name": "tokenIn",
              "type": "address"
            },
            {
              "internalType": "address",
              "name": "tokenOut",
              "type": "address"
            },
            {
              "internalType": "uint256",
              "name": "amountIn",
              "type": "uint256"
            },
            {
              "internalType": "uint256",
              "name": "amountOut",
              "type": "uint256"
            },
            {
              "internalType": "enum UniswapSwapper.MulticallResultAttribute",
              "name": "resultType",
              "type": "uint8"
            }
          ],
          "internalType": "struct UniswapSwapper.MulticallData",
          "name": "",
          "type": "tuple"
        }
      ],
      "stateMutability": "pure",
      "type": "function"
    },
    {
      "inputs": [
        {
          "components": [
            {
              "internalType": "address",
              "name": "tokenIn",
              "type": "address"
            },
            {
              "internalType": "address",
              "name": "tokenOut",
              "type": "address"
            },
            {
              "internalType": "uint24",
              "name": "fee",
              "type": "uint24"
            },
            {
              "internalType": "address",
              "name": "recipient",
              "type": "address"
            },
            {
              "internalType": "uint256",
              "name": "amountOut",
              "type": "uint256"
            },
            {
              "internalType": "uint256",
              "name": "amountInMaximum",
              "type": "uint256"
            },
            {
              "internalType": "uint160",
              "name": "sqrtPriceLimitX96",
              "type": "uint160"
            }
          ],
          "internalType": "struct IV3SwapRouter.ExactOutputSingleParams",
          "name": "params",
          "type": "tuple"
        }
      ],
      "name": "exactOutputSingle",
      "outputs": [
        {
          "components": [
            {
              "internalType": "address",
              "name": "recipient",
              "type": "address"
            },
            {
              "internalType": "address",
              "name": "tokenIn",
              "type": "address"
            },
            {
              "internalType": "address",
              "name": "tokenOut",
              "type": "address"
            },
            {
              "internalType": "uint256",
              "name": "amountIn",
              "type": "uint256"
            },
            {
              "internalType": "uint256",
              "name": "amountOut",
              "type": "uint256"
            },
            {
              "internalType": "enum UniswapSwapper.MulticallResultAttribute",
              "name": "resultType",
              "type": "uint8"
            }
          ],
          "internalType": "struct UniswapSwapper.MulticallData",
          "name": "",
          "type": "tuple"
        }
      ],
      "stateMutability": "pure",
      "type": "function"
    },
    {
      "inputs": [],
      "name": "executeParams",
      "outputs": [
        {
          "internalType": "string[]",
          "name": "",
          "type": "string[]"
        }
      ],
      "stateMutability": "pure",
      "type": "function"
    },
    {
      "inputs": [
        {
          "internalType": "uint256",
          "name": "id",
          "type": "uint256"
        }
      ],
      "name": "executeTransaction",
      "outputs": [],
      "stateMutability": "nonpayable",
      "type": "function"
    },
    {
      "inputs": [],
      "name": "executee",
      "outputs": [
        {
          "internalType": "address",
          "name": "",
          "type": "address"
        }
      ],
      "stateMutability": "view",
      "type": "function"
    },
    {
      "inputs": [],
      "name": "executor",
      "outputs": [
        {
          "internalType": "address",
          "name": "",
          "type": "address"
        }
      ],
      "stateMutability": "view",
      "type": "function"
    },
    {
      "inputs": [],
      "name": "executorTeamId",
      "outputs": [
        {
          "internalType": "uint256",
          "name": "",
          "type": "uint256"
        }
      ],
      "stateMutability": "view",
      "type": "function"
    },
    {
      "inputs": [
        {
          "internalType": "uint256",
          "name": "",
          "type": "uint256"
        }
      ],
      "name": "fromTokens",
      "outputs": [
        {
          "internalType": "address",
          "name": "",
          "type": "address"
        }
      ],
      "stateMutability": "view",
      "type": "function"
    },
    {
      "inputs": [
        {
          "internalType": "address",
          "name": "",
          "type": "address"
        }
      ],
      "name": "fromTokensMapping",
      "outputs": [
        {
          "internalType": "bool",
          "name": "",
          "type": "bool"
        }
      ],
      "stateMutability": "view",
      "type": "function"
    },
    {
      "inputs": [
        {
          "components": [
            {
              "internalType": "address",
              "name": "executor",
              "type": "address"
            },
            {
              "internalType": "uint256",
              "name": "executorTeamId",
              "type": "uint256"
            },
            {
              "internalType": "address[]",
              "name": "approvers",
              "type": "address[]"
            },
            {
              "internalType": "uint256",
              "name": "approverTeamId",
              "type": "uint256"
            },
            {
              "internalType": "uint256",
              "name": "minApproval",
              "type": "uint256"
            },
            {
              "internalType": "string",
              "name": "text",
              "type": "string"
            },
            {
              "internalType": "string",
              "name": "transactionType",
              "type": "string"
            },
            {
              "internalType": "uint256",
              "name": "startTime",
              "type": "uint256"
            },
            {
              "internalType": "uint256",
              "name": "endTime",
              "type": "uint256"
            },
            {
              "internalType": "bool",
              "name": "allowUnlimitedUsageCount",
              "type": "bool"
            },
            {
              "internalType": "uint256",
              "name": "usageCount",
              "type": "uint256"
            },
            {
              "internalType": "address",
              "name": "team",
              "type": "address"
            }
          ],
          "internalType": "struct CommonBudgetApproval.InitializeParams",
          "name": "params",
          "type": "tuple"
        },
        {
          "internalType": "address[]",
          "name": "_fromTokens",
          "type": "address[]"
        },
        {
          "internalType": "bool",
          "name": "_allowAllToTokens",
          "type": "bool"
        },
        {
          "internalType": "address[]",
          "name": "_toTokens",
          "type": "address[]"
        },
        {
          "internalType": "bool",
          "name": "_allowAnyAmount",
          "type": "bool"
        },
        {
          "internalType": "uint256",
          "name": "_totalAmount",
          "type": "uint256"
        },
        {
          "internalType": "uint8",
          "name": "_amountPercentage",
          "type": "uint8"
        },
        {
          "internalType": "address",
          "name": "_baseCurrency",
          "type": "address"
        }
      ],
      "name": "initialize",
      "outputs": [],
      "stateMutability": "nonpayable",
      "type": "function"
    },
    {
      "inputs": [],
      "name": "minApproval",
      "outputs": [
        {
          "internalType": "uint256",
          "name": "",
          "type": "uint256"
        }
      ],
      "stateMutability": "view",
      "type": "function"
    },
    {
      "inputs": [],
      "name": "name",
      "outputs": [
        {
          "internalType": "string",
          "name": "",
          "type": "string"
        }
      ],
      "stateMutability": "view",
      "type": "function"
    },
    {
      "inputs": [],
      "name": "refundETH",
      "outputs": [
        {
          "components": [
            {
              "internalType": "address",
              "name": "recipient",
              "type": "address"
            },
            {
              "internalType": "address",
              "name": "tokenIn",
              "type": "address"
            },
            {
              "internalType": "address",
              "name": "tokenOut",
              "type": "address"
            },
            {
              "internalType": "uint256",
              "name": "amountIn",
              "type": "uint256"
            },
            {
              "internalType": "uint256",
              "name": "amountOut",
              "type": "uint256"
            },
            {
              "internalType": "enum UniswapSwapper.MulticallResultAttribute",
              "name": "resultType",
              "type": "uint8"
            }
          ],
          "internalType": "struct UniswapSwapper.MulticallData",
          "name": "",
          "type": "tuple"
        }
      ],
      "stateMutability": "pure",
      "type": "function"
    },
    {
      "inputs": [
        {
          "internalType": "uint256",
          "name": "id",
          "type": "uint256"
        }
      ],
      "name": "revokeTransaction",
      "outputs": [],
      "stateMutability": "nonpayable",
      "type": "function"
    },
    {
      "inputs": [
        {
          "internalType": "address",
          "name": "",
          "type": "address"
        },
        {
          "internalType": "uint256",
          "name": "",
          "type": "uint256"
        },
        {
          "internalType": "uint256",
          "name": "",
          "type": "uint256"
        },
        {
          "internalType": "uint8",
          "name": "",
          "type": "uint8"
        },
        {
          "internalType": "bytes32",
          "name": "",
          "type": "bytes32"
        },
        {
          "internalType": "bytes32",
          "name": "",
          "type": "bytes32"
        }
      ],
      "name": "selfPermit",
      "outputs": [
        {
          "components": [
            {
              "internalType": "address",
              "name": "recipient",
              "type": "address"
            },
            {
              "internalType": "address",
              "name": "tokenIn",
              "type": "address"
            },
            {
              "internalType": "address",
              "name": "tokenOut",
              "type": "address"
            },
            {
              "internalType": "uint256",
              "name": "amountIn",
              "type": "uint256"
            },
            {
              "internalType": "uint256",
              "name": "amountOut",
              "type": "uint256"
            },
            {
              "internalType": "enum UniswapSwapper.MulticallResultAttribute",
              "name": "resultType",
              "type": "uint8"
            }
          ],
          "internalType": "struct UniswapSwapper.MulticallData",
          "name": "",
          "type": "tuple"
        }
      ],
      "stateMutability": "pure",
      "type": "function"
    },
    {
      "inputs": [],
      "name": "startTime",
      "outputs": [
        {
          "internalType": "uint256",
          "name": "",
          "type": "uint256"
        }
      ],
      "stateMutability": "view",
      "type": "function"
    },
    {
      "inputs": [
        {
          "internalType": "uint256",
          "name": "amountIn",
          "type": "uint256"
        },
        {
          "internalType": "uint256",
          "name": "amountOutMin",
          "type": "uint256"
        },
        {
          "internalType": "address[]",
          "name": "path",
          "type": "address[]"
        },
        {
          "internalType": "address",
          "name": "recipient",
          "type": "address"
        }
      ],
      "name": "swapExactTokensForTokens",
      "outputs": [
        {
          "components": [
            {
              "internalType": "address",
              "name": "recipient",
              "type": "address"
            },
            {
              "internalType": "address",
              "name": "tokenIn",
              "type": "address"
            },
            {
              "internalType": "address",
              "name": "tokenOut",
              "type": "address"
            },
            {
              "internalType": "uint256",
              "name": "amountIn",
              "type": "uint256"
            },
            {
              "internalType": "uint256",
              "name": "amountOut",
              "type": "uint256"
            },
            {
              "internalType": "enum UniswapSwapper.MulticallResultAttribute",
              "name": "resultType",
              "type": "uint8"
            }
          ],
          "internalType": "struct UniswapSwapper.MulticallData",
          "name": "",
          "type": "tuple"
        }
      ],
      "stateMutability": "pure",
      "type": "function"
    },
    {
      "inputs": [
        {
          "internalType": "uint256",
          "name": "amountOut",
          "type": "uint256"
        },
        {
          "internalType": "uint256",
          "name": "amountInMax",
          "type": "uint256"
        },
        {
          "internalType": "address[]",
          "name": "path",
          "type": "address[]"
        },
        {
          "internalType": "address",
          "name": "recipient",
          "type": "address"
        }
      ],
      "name": "swapTokensForExactTokens",
      "outputs": [
        {
          "components": [
            {
              "internalType": "address",
              "name": "recipient",
              "type": "address"
            },
            {
              "internalType": "address",
              "name": "tokenIn",
              "type": "address"
            },
            {
              "internalType": "address",
              "name": "tokenOut",
              "type": "address"
            },
            {
              "internalType": "uint256",
              "name": "amountIn",
              "type": "uint256"
            },
            {
              "internalType": "uint256",
              "name": "amountOut",
              "type": "uint256"
            },
            {
              "internalType": "enum UniswapSwapper.MulticallResultAttribute",
              "name": "resultType",
              "type": "uint8"
            }
          ],
          "internalType": "struct UniswapSwapper.MulticallData",
          "name": "",
          "type": "tuple"
        }
      ],
      "stateMutability": "pure",
      "type": "function"
    },
    {
      "inputs": [
        {
          "internalType": "address",
          "name": "token",
          "type": "address"
        },
        {
          "internalType": "uint256",
          "name": "amountMinimum",
          "type": "uint256"
        },
        {
          "internalType": "address",
          "name": "recipient",
          "type": "address"
        }
      ],
      "name": "sweepToken",
      "outputs": [
        {
          "components": [
            {
              "internalType": "address",
              "name": "recipient",
              "type": "address"
            },
            {
              "internalType": "address",
              "name": "tokenIn",
              "type": "address"
            },
            {
              "internalType": "address",
              "name": "tokenOut",
              "type": "address"
            },
            {
              "internalType": "uint256",
              "name": "amountIn",
              "type": "uint256"
            },
            {
              "internalType": "uint256",
              "name": "amountOut",
              "type": "uint256"
            },
            {
              "internalType": "enum UniswapSwapper.MulticallResultAttribute",
              "name": "resultType",
              "type": "uint8"
            }
          ],
          "internalType": "struct UniswapSwapper.MulticallData",
          "name": "",
          "type": "tuple"
        }
      ],
      "stateMutability": "pure",
      "type": "function"
    },
    {
      "inputs": [],
      "name": "team",
      "outputs": [
        {
          "internalType": "address",
          "name": "",
          "type": "address"
        }
      ],
      "stateMutability": "view",
      "type": "function"
    },
    {
      "inputs": [],
      "name": "text",
      "outputs": [
        {
          "internalType": "string",
          "name": "",
          "type": "string"
        }
      ],
      "stateMutability": "view",
      "type": "function"
    },
    {
      "inputs": [
        {
          "internalType": "address",
          "name": "",
          "type": "address"
        }
      ],
      "name": "toTokensMapping",
      "outputs": [
        {
          "internalType": "bool",
          "name": "",
          "type": "bool"
        }
      ],
      "stateMutability": "view",
      "type": "function"
    },
    {
      "inputs": [],
      "name": "totalAmount",
      "outputs": [
        {
          "internalType": "uint256",
          "name": "",
          "type": "uint256"
        }
      ],
      "stateMutability": "view",
      "type": "function"
    },
    {
      "inputs": [],
      "name": "transactionType",
      "outputs": [
        {
          "internalType": "string",
          "name": "",
          "type": "string"
        }
      ],
      "stateMutability": "view",
      "type": "function"
    },
    {
      "inputs": [
        {
          "internalType": "uint256",
          "name": "",
          "type": "uint256"
        }
      ],
      "name": "transactions",
      "outputs": [
        {
          "internalType": "uint256",
          "name": "id",
          "type": "uint256"
        },
        {
          "internalType": "enum CommonBudgetApproval.Status",
          "name": "status",
          "type": "uint8"
        },
        {
          "internalType": "uint32",
          "name": "deadline",
          "type": "uint32"
        },
        {
          "internalType": "bool",
          "name": "isExist",
          "type": "bool"
        },
        {
          "internalType": "uint256",
          "name": "approvedCount",
          "type": "uint256"
        }
      ],
      "stateMutability": "view",
      "type": "function"
    },
    {
      "inputs": [
        {
          "internalType": "uint256",
          "name": "amountMinimum",
          "type": "uint256"
        },
        {
          "internalType": "address",
          "name": "recipient",
          "type": "address"
        }
      ],
      "name": "unwrapWETH9",
      "outputs": [
        {
          "components": [
            {
              "internalType": "address",
              "name": "recipient",
              "type": "address"
            },
            {
              "internalType": "address",
              "name": "tokenIn",
              "type": "address"
            },
            {
              "internalType": "address",
              "name": "tokenOut",
              "type": "address"
            },
            {
              "internalType": "uint256",
              "name": "amountIn",
              "type": "uint256"
            },
            {
              "internalType": "uint256",
              "name": "amountOut",
              "type": "uint256"
            },
            {
              "internalType": "enum UniswapSwapper.MulticallResultAttribute",
              "name": "resultType",
              "type": "uint8"
            }
          ],
          "internalType": "struct UniswapSwapper.MulticallData",
          "name": "",
          "type": "tuple"
        }
      ],
      "stateMutability": "pure",
      "type": "function"
    },
    {
      "inputs": [],
      "name": "usageCount",
      "outputs": [
        {
          "internalType": "uint256",
          "name": "",
          "type": "uint256"
        }
      ],
      "stateMutability": "view",
      "type": "function"
    }
  ],
  "bytecode": "0x60806040523480156200001157600080fd5b506200001c62000040565b6200002662000040565b6200003062000040565b6200003a62000040565b62000102565b600054610100900460ff1615620000ad5760405162461bcd60e51b815260206004820152602760248201527f496e697469616c697a61626c653a20636f6e747261637420697320696e697469604482015266616c697a696e6760c81b606482015260840160405180910390fd5b60005460ff908116101562000100576000805460ff191660ff9081179091556040519081527f7f26b83ff96e1f2b6a682f133852f6798a09c465da95921460cefb38474024989060200160405180910390a15b565b615a9080620001126000396000f3fe608060405234801561001057600080fd5b50600436106102d65760003560e01c806378e9792511610182578063b49612ba116100e9578063de755e2f116100a2578063ee22610b1161007c578063ee22610b146106b6578063f3995c67146106c9578063f5c03852146106dc578063f961f79a146106ed57600080fd5b8063de755e2f14610693578063df2ab5bb1461069b578063e99dd444146106ae57600080fd5b8063b49612ba14610639578063b858183f1461064c578063bc9c5e901461065f578063c34c08e514610672578063cf26fec614610683578063d96c91961461068b57600080fd5b806392a85fde1161013b57806392a85fde1461056357806397c85a61146105745780639ace38c214610587578063a63cee6d146105e6578063a7d69bd214610609578063b18b32fb1461062c57600080fd5b806378e979251461050f5780637a5a0d13146105175780637af3b84e1461052a5780637cd47d931461053d578063850154371461054557806385f2aef21461055257600080fd5b8063472b43f3116102415780635aaaefad116101fa57806363d727dc116101d457806363d727dc146104ac5780636bdebe5e146104c6578063735631ad146104f2578063765b60321461050757600080fd5b80635aaaefad1461047b5780635ad325021461048e57806360d8bb221461049957600080fd5b8063472b43f3146103ea57806349404b7c146103fd5780634aa4a4fc146104105780634c41e0e31461043e5780635023b4df1461046057806350bd881f1461047357600080fd5b80631a39d8ef116102935780631a39d8ef146103895780631f1bd692146103925780633197cbb61461039a57806331a7bdd9146103a25780633814d251146103b757806342712a67146103d757600080fd5b806303ff90f6146102db57806304e45aaf146102f257806306fdde031461031257806309b813461461035b57806312210e8a1461036e57806314b893f914610376575b600080fd5b6008545b6040519081526020015b60405180910390f35b610305610300366004614ec7565b610726565b6040516102e99190615570565b61034e6040518060400160405280601e81526020017f556e6973776170204c69717569642042756467657420417070726f76616c000081525081565b6040516102e99190615499565b610305610369366004614e93565b6107b5565b61030561088f565b6102df610384366004614b8f565b6108cc565b6102df60785481565b61034e610ae7565b600e546102df565b6103aa610b79565b6040516102e99190615392565b6103ca6103c5366004614e0a565b610c77565b6040516102e991906153f4565b6103056103e5366004615086565b610fd5565b6103056103f8366004615086565b611089565b61030561040b36600461500b565b611135565b73c02aaa39b223fe8d0a0e5c4f27ead9083c756cc25b6040516001600160a01b0390911681526020016102e9565b60795461045090610100900460ff1681565b60405190151581526020016102e9565b61030561046e366004614ec7565b6111af565b600c546102df565b6102df610489366004614a91565b61123a565b600b5460ff16610450565b6102df6104a7366004614a91565b6114fb565b6104b46116a7565b60405160ff90911681526020016102e9565b6104506104d43660046149d8565b6001600160a01b031660009081526006602052604090205460ff1690565b610505610500366004614fd9565b611762565b005b610426600181565b600d546102df565b610426610525366004614fd9565b611958565b610505610538366004614ee3565b611982565b61034e611b6b565b6077546104509060ff1681565b600f546001600160a01b0316610426565b6042546001600160a01b0316610426565b61050561058236600461503b565b611b7a565b6105d5610595366004614fd9565b600260208190526000918252604090912080549181015460039091015460ff8083169263ffffffff61010082041692650100000000009091049091169085565b6040516102e995949392919061557e565b6104506105f43660046149d8565b60766020526000908152604090205460ff1681565b6104506106173660046149d8565b607a6020526000908152604090205460ff1681565b6079546104b49060ff1681565b6102df610647366004614a91565b611eaa565b61030561065a366004614e93565b612148565b61045061066d3660046149d8565b6121dc565b6003546001600160a01b0316610426565b610505612301565b6007546102df565b6004546102df565b6103056106a9366004614abd565b6124c5565b610426600281565b6105056106c4366004614fd9565b612532565b6103056106d7366004614aff565b6129ba565b6005546001600160a01b0316610426565b6107006106fb366004614dc6565b6129fd565b604080516001600160a01b039485168152939092166020840152908201526060016102e9565b61072e614483565b6040805160c081019091528061074a60808501606086016149d8565b6001600160a01b03168152602090810190610767908501856149d8565b6001600160a01b0316815260200183602001602081019061078891906149d8565b6001600160a01b031681526080840135602082015260a0840135604082015260600160025b905292915050565b6107bd614483565b6040518060c001604052808360200160208101906107db91906149d8565b6001600160a01b0316815260200161083560006107f886806155fd565b8080601f0160208091040260200160405190810160405280939291908181526020018383808284376000920191909152509293925050612b279050565b6001600160a01b03168152602001610867601461085286806155fd565b61085d9291506158db565b6107f886806155fd565b6001600160a01b031681526060808501356020830152604080860135908301520160016107ad565b610897614483565b6040805160c08101825260008082526020820181905291810182905260608101829052608081018290529060a0820152919050565b60006108e06003546001600160a01b031690565b6001600160a01b0316336001600160a01b031614806109a35750600061090e600f546001600160a01b031690565b6001600160a01b031662fdd58e3361092560045490565b6040516001600160e01b031960e085901b1681526001600160a01b039092166004830152602482015260440160206040518083038186803b15801561096957600080fd5b505afa15801561097d573d6000803e3d6000fd5b505050506040513d601f19601f820116820180604052508101906109a19190614ff2565b115b6109c85760405162461bcd60e51b81526004016109bf9061552e565b60405180910390fd5b6109d6600180546001019055565b60006109e160015490565b6000818152600260209081526040909120828155895192935091610a0d916001840191908b01906144b6565b506002810180546501000000000065ffffffffff001990911661010063ffffffff8b160265ff0000000000191617179055600854610a6757600082815260026020819052604090912001805460ff19166001179055610a82565b600082815260026020819052604090912001805460ff191690555b600281015460405183917f8a5186dbaf6f344b2837e11834be94edebb633f05034f422c6b1fe1595b4d0cc91610ac5918c918c9160ff16908b908b903390615337565b60405180910390a28515610adc57610adc82612532565b509695505050505050565b606060098054610af690615958565b80601f0160208091040260200160405190810160405280929190818152602001828054610b2290615958565b8015610b6f5780601f10610b4457610100808354040283529160200191610b6f565b820191906000526020600020905b815481529060010190602001808311610b5257829003601f168201915b5050505050905090565b6040805160038082526080820190925260609160009190816020015b6060815260200190600190039081610b955790505090506040518060400160405280600a8152602001696164647265737320746f60b01b81525081600081518110610be257610be26159ea565b60200260200101819052506040518060400160405280600a8152602001696279746573206461746160b01b81525081600181518110610c2357610c236159ea565b60200260200101819052506040518060400160405280600d81526020016c75696e743235362076616c756560981b81525081600281518110610c6757610c676159ea565b6020908102919091010152919050565b60606000610c8485612b8c565b90506060600085905082516001600160401b03811115610ca657610ca6615a00565b604051908082528060200260200182016040528015610cdf57816020015b610ccc614483565b815260200190600190039081610cc45790505b5093508451600014610d025784806020019051810190610cff9190614b5b565b91505b60005b8351811015610f7c57600080306001600160a01b0316868481518110610d2d57610d2d6159ea565b6020026020010151604051610d429190615275565b600060405180830381855afa9150503d8060008114610d7d576040519150601f19603f3d011682016040523d82523d6000602084013e610d82565b606091505b509150915081610dd45760405162461bcd60e51b815260206004820181905260248201527f6661696c20746f206465636f646520756e6973776170206d756c746963616c6c60448201526064016109bf565b600081806020019051810190610dea9190614fbd565b60208101519091506001600160a01b031673c02aaa39b223fe8d0a0e5c4f27ead9083c756cc2148015610e1c57508415155b15610e9b578481606001511115610e755760405162461bcd60e51b815260206004820152601d60248201527f6661696c20746f206465636f646520574554482073776170206461746100000060448201526064016109bf565b600080516020615a3b83398151915260208201526060810151610e9890866158db565b94505b855115610f485760018160a001516002811115610eba57610eba6159d4565b1415610ef757858481518110610ed257610ed26159ea565b6020026020010151806020019051810190610eed9190614ff2565b6060820152610f48565b60028160a001516002811115610f0f57610f0f6159d4565b1415610f4857858481518110610f2757610f276159ea565b6020026020010151806020019051810190610f429190614ff2565b60808201525b80888581518110610f5b57610f5b6159ea565b60200260200101819052505050508080610f749061598d565b915050610d05565b508015610fcb5760405162461bcd60e51b815260206004820152601f60248201527f70617373696e6720746f6f206d7563682045544820746f20756e69737761700060448201526064016109bf565b5050509392505050565b610fdd614483565b6040518060c00160405280836001600160a01b031681526020018585600081811061100a5761100a6159ea565b905060200201602081019061101f91906149d8565b6001600160a01b03168152602001858561103a6001826158db565b818110611049576110496159ea565b905060200201602081019061105e91906149d8565b6001600160a01b03168152602081018790526040810188905260600160015b90529695505050505050565b611091614483565b6040518060c00160405280836001600160a01b03168152602001858560008181106110be576110be6159ea565b90506020020160208101906110d391906149d8565b6001600160a01b0316815260200185856110ee6001826158db565b8181106110fd576110fd6159ea565b905060200201602081019061111291906149d8565b6001600160a01b031681526020810188905260408101879052606001600261107d565b61113d614483565b6040518060c00160405280836001600160a01b0316815260200160006001600160a01b03168152602001600080516020615a3b8339815191526001600160a01b0316815260200160008152602001848152602001600060028111156111a4576111a46159d4565b905290505b92915050565b6111b7614483565b6040805160c08101909152806111d360808501606086016149d8565b6001600160a01b031681526020908101906111f0908501856149d8565b6001600160a01b0316815260200183602001602081019061121191906149d8565b6001600160a01b0316815260a084013560208201526080840135604082015260600160016107ad565b60006001600160a01b038316600080516020615a3b833981519152148061127d57506001600160a01b03831673c02aaa39b223fe8d0a0e5c4f27ead9083c756cc2145b156112895750806111a9565b6000806000807347fb2585d2c56fe188d0e6ec628a38b74fceeedf6001600160a01b031663bcfd032d88600080516020615a3b8339815191526040518363ffffffff1660e01b81526004016112df929190615291565b60a06040518083038186803b1580156112f757600080fd5b505afa15801561130b573d6000803e3d6000fd5b505050506040513d601f19601f8201168201806040525081019061132f91906150f0565b94509450509350935060007347fb2585d2c56fe188d0e6ec628a38b74fceeedf6001600160a01b03166358e2d3a889600080516020615a3b8339815191526040518363ffffffff1660e01b815260040161138a929190615291565b60206040518083038186803b1580156113a257600080fd5b505afa1580156113b6573d6000803e3d6000fd5b505050506040513d601f19601f820116820180604052508101906113da9190615140565b9050846001600160501b0316826001600160501b0316101561140e5760405162461bcd60e51b81526004016109bf906154ac565b61141b62015180846156bd565b42111561143a5760405162461bcd60e51b81526004016109bf906154ac565b61144684826012612c78565b935060008413156114ed57876001600160a01b031663313ce5676040518163ffffffff1660e01b815260040160206040518083038186803b15801561148a57600080fd5b505afa15801561149e573d6000803e3d6000fd5b505050506040513d601f19601f820116820180604052508101906114c29190615140565b6114cd90600a61578b565b6114d788866158bc565b6114e19190615728565b955050505050506111a9565b506000979650505050505050565b6000806115106042546001600160a01b031690565b9050806001600160a01b0316846001600160a01b0316141561153557829150506111a9565b6001600160a01b038116600080516020615a3b833981519152148061157657506001600160a01b03811673c02aaa39b223fe8d0a0e5c4f27ead9083c756cc2145b1561158d57611585848461123a565b9150506111a9565b6001600160a01b038416600080516020615a3b83398151915214806115ce57506001600160a01b03841673c02aaa39b223fe8d0a0e5c4f27ead9083c756cc2145b156115dd576115858184611eaa565b60006115e76116a7565b905060006115f786846012612ce9565b9050600081131561169b5761169161160f8683615837565b876001600160a01b031663313ce5676040518163ffffffff1660e01b815260040160206040518083038186803b15801561164857600080fd5b505afa15801561165c573d6000803e3d6000fd5b505050506040513d601f19601f820116820180604052508101906116809190615140565b61168b9060126156d5565b84612c78565b93505050506111a9565b50600095945050505050565b6000600080516020615a3b8339815191526116ca6042546001600160a01b031690565b6001600160a01b031614156116df5750601290565b6042546001600160a01b03166001600160a01b031663313ce5676040518163ffffffff1660e01b815260040160206040518083038186803b15801561172357600080fd5b505afa925050508015611753575060408051601f3d908101601f1916820190925261175091810190615140565b60015b61175d5750600090565b919050565b6003546001600160a01b031633148061181f5750600061178a600f546001600160a01b031690565b6001600160a01b031662fdd58e336117a160045490565b6040516001600160e01b031960e085901b1681526001600160a01b039092166004830152602482015260440160206040518083038186803b1580156117e557600080fd5b505afa1580156117f9573d6000803e3d6000fd5b505050506040513d601f19601f8201168201806040525081019061181d9190614ff2565b115b61183b5760405162461bcd60e51b81526004016109bf9061552e565b8061184560015490565b101561188b5760405162461bcd60e51b8152602060048201526015602482015274125b9d985a5b1908151c985b9cd858dd1a5bdb9259605a1b60448201526064016109bf565b60026000828152600260208190526040909120015460ff1660038111156118b4576118b46159d4565b14156119105760405162461bcd60e51b815260206004820152602560248201527f5472616e73616374696f6e20686173206265656e20636f6d706c65746564206260448201526465666f726560d81b60648201526084016109bf565b6000818152600260208190526040808320909101805460ff191660031790555182917f92a917be073b79ab50f9d997e9514a5d101e052ce04228014947e7883a7c034691a250565b6075818154811061196857600080fd5b6000918252602090912001546001600160a01b0316905081565b600054610100900460ff16158080156119a25750600054600160ff909116105b806119bc5750303b1580156119bc575060005460ff166001145b611a1f5760405162461bcd60e51b815260206004820152602e60248201527f496e697469616c697a61626c653a20636f6e747261637420697320616c72656160448201526d191e481a5b9a5d1a585b1a5e995960921b60648201526084016109bf565b6000805460ff191660011790558015611a42576000805461ff0019166101001790555b611a4b8a6131af565b60005b8951811015611a8b57611a798a8281518110611a6c57611a6c6159ea565b6020026020010151613439565b80611a838161598d565b915050611a4e565b506079805461ff0019166101008a15150217905560005b86811015611aeb57611ad9888883818110611abf57611abf6159ea565b9050602002016020810190611ad491906149d8565b61357a565b80611ae38161598d565b915050611aa2565b506077805460ff199081168715151790915560788590556079805490911660ff8516179055611b198261362a565b8015611b5f576000805461ff0019169055604051600181527f7f26b83ff96e1f2b6a682f133852f6798a09c465da95921460cefb38474024989060200160405180910390a15b50505050505050505050565b6060600a8054610af690615958565b3360009081526006602052604090205460ff1680611c3c57506000611ba7600f546001600160a01b031690565b6001600160a01b031662fdd58e33611bbe60075490565b6040516001600160e01b031960e085901b1681526001600160a01b039092166004830152602482015260440160206040518083038186803b158015611c0257600080fd5b505afa158015611c16573d6000803e3d6000fd5b505050506040513d601f19601f82011682018060405250810190611c3a9190614ff2565b115b611c935760405162461bcd60e51b815260206004820152602260248201527f417070726f766572206e6f742077686974656c697374656420696e2062756467604482015261195d60f21b60648201526084016109bf565b82611c9d60015490565b1015611ce35760405162461bcd60e51b8152602060048201526015602482015274125b9d985a5b1908151c985b9cd858dd1a5bdb9259605a1b60448201526064016109bf565b600083815260026020819052604082209081015460039091015460ff9091169190611d0f9060016156bd565b90506000826003811115611d2557611d256159d4565b1480611d4257506001826003811115611d4057611d406159d4565b145b611d8e5760405162461bcd60e51b815260206004820152601d60248201527f556e6578706563746564207472616e73616374696f6e2073746174757300000060448201526064016109bf565b600085815260026020908152604080832033845260040190915290205460ff1615611e075760405162461bcd60e51b8152602060048201526024808201527f5472616e73616374696f6e20686173206265656e20617070726f766564206265604482015263666f726560e01b60648201526084016109bf565b6000858152600260208181526040808420338552600481018352908420805460ff191660011790559288905252600301819055611e4360085490565b8110611e6757600085815260026020819052604090912001805460ff191660011790555b847f3399030f87676a97e30e211a48f9c46e2ff806d0b4cedf7100782f08c52902c9338686604051611e9b939291906152df565b60405180910390a25050505050565b60006001600160a01b038316600080516020615a3b8339815191521480611eed57506001600160a01b03831673c02aaa39b223fe8d0a0e5c4f27ead9083c756cc2145b15611ef95750806111a9565b6000806000807347fb2585d2c56fe188d0e6ec628a38b74fceeedf6001600160a01b031663bcfd032d88600080516020615a3b8339815191526040518363ffffffff1660e01b8152600401611f4f929190615291565b60a06040518083038186803b158015611f6757600080fd5b505afa158015611f7b573d6000803e3d6000fd5b505050506040513d601f19601f82011682018060405250810190611f9f91906150f0565b94509450509350935060007347fb2585d2c56fe188d0e6ec628a38b74fceeedf6001600160a01b03166358e2d3a889600080516020615a3b8339815191526040518363ffffffff1660e01b8152600401611ffa929190615291565b60206040518083038186803b15801561201257600080fd5b505afa158015612026573d6000803e3d6000fd5b505050506040513d601f19601f8201168201806040525081019061204a9190615140565b9050846001600160501b0316826001600160501b0316101561207e5760405162461bcd60e51b81526004016109bf906154ac565b61208b62015180846156bd565b4211156120aa5760405162461bcd60e51b81526004016109bf906154ac565b6120b684826012612c78565b935060008413156114ed5783886001600160a01b031663313ce5676040518163ffffffff1660e01b815260040160206040518083038186803b1580156120fb57600080fd5b505afa15801561210f573d6000803e3d6000fd5b505050506040513d601f19601f820116820180604052508101906121339190615140565b61213e90600a61578b565b6114d790896158bc565b612150614483565b6040518060c0016040528083602001602081019061216e91906149d8565b6001600160a01b0316815260200161218b60006107f886806155fd565b6001600160a01b031681526020016121a8601461085286806155fd565b6001600160a01b0316815260200183604001358152602001836060013581526020016002808111156107ad576107ad6159d4565b60006001600160a01b038216600080516020615a3b833981519152148061221f57506001600160a01b03821673c02aaa39b223fe8d0a0e5c4f27ead9083c756cc2145b1561222c57506001919050565b60405163d2edb6dd60e01b81527347fb2585d2c56fe188d0e6ec628a38b74fceeedf9063d2edb6dd90612273908590600080516020615a3b83398151915290600401615291565b60206040518083038186803b15801561228b57600080fd5b505afa9250505080156122bb575060408051601f3d908101601f191682019092526122b891810190614e76565b60015b6122f8573d8080156122e9576040519150601f19603f3d011682016040523d82523d6000602084013e6122ee565b606091505b5060009392505050565b50600192915050565b6005546001600160a01b031633146123665760405162461bcd60e51b815260206004820152602260248201527f4578656375746565206e6f742077686974656c697374656420696e2062756467604482015261195d60f21b60648201526084016109bf565b6040517368b3465833fb72a70ecdf485e0e4c7bd8665fc456024820152600019604482015260009060640160408051601f198184030181529190526020810180516001600160e01b031663095ea7b360e01b179052905060006123d16005546001600160a01b031690565b60755490915060005b818110156124bf576000607582815481106123f7576123f76159ea565b6000918252602090912001546001600160a01b03169050600080516020615a3b83398151915281146124ac5760405163d3abc28b60e01b81526001600160a01b0385169063d3abc28b9061245490849089906000906004016152ab565b600060405180830381600087803b15801561246e57600080fd5b505af1158015612482573d6000803e3d6000fd5b505050506040513d6000823e601f3d908101601f191682016040526124aa9190810190614d92565b505b50806124b78161598d565b9150506123da565b50505050565b6124cd614483565b6040518060c00160405280836001600160a01b0316815260200160006001600160a01b03168152602001856001600160a01b031681526020016000815260200184815260200160006002811115612526576125266159d4565b905290505b9392505050565b806001806000838152600260208190526040909120015460ff16600381111561255d5761255d6159d4565b146125aa5760405162461bcd60e51b815260206004820152601a60248201527f5472616e73616374696f6e2073746174757320696e76616c696400000000000060448201526064016109bf565b600083815260026020819052604090912001548390610100900463ffffffff1642111561260f5760405162461bcd60e51b8152602060048201526013602482015272151c985b9cd858dd1a5bdb88195e1c1a5c9959606a1b60448201526064016109bf565b600d544210156126615760405162461bcd60e51b815260206004820152601f60248201527f42756467657420757361676520706572696f64206e6f7420737461727465640060448201526064016109bf565b600061266c600e5490565b905080156126c3578042106126c35760405162461bcd60e51b815260206004820152601d60248201527f42756467657420757361676520706572696f642068617320656e64656400000060448201526064016109bf565b6003546001600160a01b0316331480612780575060006126eb600f546001600160a01b031690565b6001600160a01b031662fdd58e3361270260045490565b6040516001600160e01b031960e085901b1681526001600160a01b039092166004830152602482015260440160206040518083038186803b15801561274657600080fd5b505afa15801561275a573d6000803e3d6000fd5b505050506040513d601f19601f8201168201806040525081019061277e9190614ff2565b115b61279c5760405162461bcd60e51b81526004016109bf9061552e565b60006127aa600b5460ff1690565b905060006127b7600c5490565b9050600060026000898152602001908152602001600020600101805480602002602001604051908101604052809291908181526020016000905b8282101561289d57838290600052602060002001805461281090615958565b80601f016020809104026020016040519081016040528092919081815260200182805461283c90615958565b80156128895780601f1061285e57610100808354040283529160200191612889565b820191906000526020600020905b81548152906001019060200180831161286c57829003601f168201915b5050505050815260200190600101906127f1565b50505050905060005b815181101561294f5783806128bb5750600083115b6129075760405162461bcd60e51b815260206004820152601b60248201527f457863656564656420627564676574207573616765206c696d6974000000000060448201526064016109bf565b8361291a578261291681615941565b9350505b61293d89838381518110612930576129306159ea565b6020026020010151613673565b806129478161598d565b9150506128a6565b50600c82905560008881526002602081905260409091208101805460ff19166001830217905550877f9060adf413860c5ab6e376e0aa4269e49a13f0853edb1583fce8129d4c756d7982336040516129a892919061530d565b60405180910390a25050505050505050565b6129c2614483565b6040805160c08101825260008082526020820181905291810182905260608101829052608081018290529060a0820152979650505050505050565b6000808080612a0c8682613742565b90506001600160e01b03198116630d0e30db60e41b1415612a5857600080516020615a3b83398151915273c02aaa39b223fe8d0a0e5c4f27ead9083c756cc28693509350935050612b20565b6001600160e01b03198116632e1a7d4d60e01b1415612ace5773c02aaa39b223fe8d0a0e5c4f27ead9083c756cc2600080516020615a3b833981519152612aaf6004808a51612aa791906158db565b8a919061379f565b806020019051810190612ac29190614ff2565b93509350935050612b20565b60405162461bcd60e51b815260206004820152602160248201527f4661696c656420746f206465636f646520556e69737761702062797465636f646044820152606560f81b60648201526084016109bf565b9250925092565b6000612b348260146156bd565b83511015612b7c5760405162461bcd60e51b8152602060048201526015602482015274746f416464726573735f6f75744f66426f756e647360581b60448201526064016109bf565b500160200151600160601b900490565b60606000612b9a8382613742565b90506001600160e01b031981166316b9007760e21b1415612beb57612bcf6004808551612bc791906158db565b85919061379f565b806020019051810190612be29190614d4c565b9250612c729050565b6001600160e01b03198116631f0464d160e01b1415612c1657612bcf6004808551612bc791906158db565b60405162461bcd60e51b815260206004820152602b60248201527f4661696c656420746f206465636f646520556e6973776170206d756c7469636160448201526a6c6c2062797465636f646560a81b60648201526084016109bf565b50919050565b60008160ff168360ff161015612cb157612c9283836158f2565b612ca09060ff16600a61577f565b612caa9085615837565b905061252b565b8160ff168360ff161115612ce157612cc982846158f2565b612cd79060ff16600a61577f565b612caa90856156fa565b509192915050565b600060ff821615801590612d015750601260ff831611155b612d415760405162461bcd60e51b8152602060048201526011602482015270496e76616c6964205f646563696d616c7360781b60448201526064016109bf565b6000612d5160ff8416600a61577f565b90506000806000807347fb2585d2c56fe188d0e6ec628a38b74fceeedf6001600160a01b031663bcfd032d8a600080516020615a3b8339815191526040518363ffffffff1660e01b8152600401612da9929190615291565b60a06040518083038186803b158015612dc157600080fd5b505afa158015612dd5573d6000803e3d6000fd5b505050506040513d601f19601f82011682018060405250810190612df991906150f0565b945094505093509350836001600160501b0316816001600160501b03161015612e645760405162461bcd60e51b815260206004820152601c60248201527f5374616c6520707269636520696e20436861696e6c696e6b203130340000000060448201526064016109bf565b612e7162015180836156bd565b421115612ec05760405162461bcd60e51b815260206004820152601c60248201527f5374616c6520707269636520696e20436861696e6c696e6b203130350000000060448201526064016109bf565b604051630b1c5a7560e31b81526000907347fb2585d2c56fe188d0e6ec628a38b74fceeedf906358e2d3a890612f0a908d90600080516020615a3b83398151915290600401615291565b60206040518083038186803b158015612f2257600080fd5b505afa158015612f36573d6000803e3d6000fd5b505050506040513d601f19601f82011682018060405250810190612f5a9190615140565b9050612f6784828a612c78565b93506000806000807347fb2585d2c56fe188d0e6ec628a38b74fceeedf6001600160a01b031663bcfd032d8e600080516020615a3b8339815191526040518363ffffffff1660e01b8152600401612fbf929190615291565b60a06040518083038186803b158015612fd757600080fd5b505afa158015612feb573d6000803e3d6000fd5b505050506040513d601f19601f8201168201806040525081019061300f91906150f0565b945094505093509350836001600160501b0316816001600160501b0316101561307a5760405162461bcd60e51b815260206004820152601c60248201527f5374616c6520707269636520696e20436861696e6c696e6b203131320000000060448201526064016109bf565b61308762015180836156bd565b4211156130d65760405162461bcd60e51b815260206004820152601c60248201527f5374616c6520707269636520696e20436861696e6c696e6b203131330000000060448201526064016109bf565b60007347fb2585d2c56fe188d0e6ec628a38b74fceeedf6001600160a01b03166358e2d3a88f600080516020615a3b8339815191526040518363ffffffff1660e01b8152600401613128929190615291565b60206040518083038186803b15801561314057600080fd5b505afa158015613154573d6000803e3d6000fd5b505050506040513d601f19601f820116820180604052508101906131789190615140565b905061318584828f612c78565b9350836131928c8b615837565b61319c91906156fa565b9f9e505050505050505050505050505050565b600054610100900460ff166131d65760405162461bcd60e51b81526004016109bf906154e3565b6000816060013511806131fb57506131f160408201826155b4565b9050816080013511155b61323f5760405162461bcd60e51b8152602060048201526015602482015274125b9d985b1a5908185c1c1c9bdd995c881b1a5cdd605a1b60448201526064016109bf565b600580546001600160a01b0319163317905561325e60208201826149d8565b600380546001600160a01b0319166001600160a01b039290921691909117905561328b60a08201826155fd565b61329791600991614513565b506132a560c08201826155fd565b6132b191600a91614513565b50608081013560085560e0810135600d55610100810135600e556132dd61014082016101208301614d31565b600b805460ff1916911515919091179055610140810135600c55613309610180820161016083016149d8565b600f80546001600160a01b0319166001600160a01b03929092169190911790556020810135600455606081013560075560005b61334960408301836155b4565b90508110156134355760016006600061336560408601866155b4565b85818110613375576133756159ea565b905060200201602081019061338a91906149d8565b6001600160a01b0316815260208101919091526040908101600020805460ff1916921515929092179091557f4664777dbfbcb27de0f602e1da5d5a259992cd7edf5b29192929c96e8fd50def906133e3908401846155b4565b838181106133f3576133f36159ea565b905060200201602081019061340891906149d8565b6040516001600160a01b03909116815260200160405180910390a18061342d8161598d565b91505061333c565b5050565b6001600160a01b03811660009081526076602052604090205460ff16156134955760405162461bcd60e51b815260206004820152601060248201526f223ab83634b1b0ba32b2103a37b5b2b760811b60448201526064016109bf565b61349e816121dc565b6134df5760405162461bcd60e51b81526020600482015260126024820152712ab73932b9b7b63b30b13632903a37b5b2b760711b60448201526064016109bf565b6075805460018082019092557f9a8d93986a7b9e6294572ea6736696119c195c1a9f5eae642d3c5fcd44e49dea0180546001600160a01b0319166001600160a01b038416908117909155600081815260766020908152604091829020805460ff1916909417909355519081527f14009112f2dcb15cad32dab6bf972d6d85286e4ae1178f27323ffe25359459e691015b60405180910390a150565b6001600160a01b0381166000908152607a602052604090205460ff16156135d65760405162461bcd60e51b815260206004820152601060248201526f223ab83634b1b0ba32b2103a37b5b2b760811b60448201526064016109bf565b6001600160a01b0381166000818152607a6020908152604091829020805460ff1916600117905590519182527f0df56a0b46d63ff03be79aa2e27aa9f7d6af565748bac8f4b41d6df16ba9f618910161356f565b600054610100900460ff166136515760405162461bcd60e51b81526004016109bf906154e3565b604280546001600160a01b0319166001600160a01b0392909216919091179055565b60008060008380602001905181019061368c91906149f5565b919450925090506001600160a01b0383167368b3465833fb72a70ecdf485e0e4c7bd8665fc4514156136c9576136c4858484846138ac565b61373b565b6001600160a01b03831673c02aaa39b223fe8d0a0e5c4f27ead9083c756cc214156136fa576136c485848484613f58565b60405162461bcd60e51b8152602060048201526016602482015275496e76616c696420746172676574206164647265737360501b60448201526064016109bf565b5050505050565b600061374f8260046156bd565b835110156137965760405162461bcd60e51b8152602060048201526014602482015273746f4279746573345f6f75744f66426f756e647360601b60448201526064016109bf565b50016020015190565b6060816137ad81601f6156bd565b10156137ec5760405162461bcd60e51b815260206004820152600e60248201526d736c6963655f6f766572666c6f7760901b60448201526064016109bf565b6137f682846156bd565b8451101561383a5760405162461bcd60e51b8152602060048201526011602482015270736c6963655f6f75744f66426f756e647360781b60448201526064016109bf565b60608215801561385957604051915060008252602082016040526138a3565b6040519150601f8416801560200281840101858101878315602002848b0101015b8183101561389257805183526020928301920161387a565b5050858452601f01601f1916604052505b50949350505050565b60006138b66142f4565b905060006138cc6005546001600160a01b031690565b90506000816001600160a01b031663d3abc28b8787876040518463ffffffff1660e01b8152600401613900939291906152ab565b600060405180830381600087803b15801561391a57600080fd5b505af115801561392e573d6000803e3d6000fd5b505050506040513d6000823e601f3d908101601f191682016040526139569190810190614d92565b604051633814d25160e01b81529091506000903090633814d2519061398390899089908790600401615464565b60006040518083038186803b15801561399b57600080fd5b505afa1580156139af573d6000803e3d6000fd5b505050506040513d6000823e601f3d908101601f191682016040526139d79190810190614c8f565b6000898152607c60209081526040808320607b909252822092935091905b8351811015613da9576000848281518110613a1257613a126159ea565b6020026020010151905060006001600160a01b031681600001516001600160a01b03161480613a4b575080516001600160a01b03166001145b80613a60575080516001600160a01b03166002145b80613a805750866001600160a01b031681600001516001600160a01b0316145b613acc5760405162461bcd60e51b815260206004820152601960248201527f526563697069656e74206e6f742077686974656c69737465640000000000000060448201526064016109bf565b6020808201516001600160a01b03166000908152908490526040902054606082015115613c57576020808301516001600160a01b031660009081526076909152604090205460ff16613b605760405162461bcd60e51b815260206004820152601c60248201527f536f7572636520746f6b656e206e6f742077686974656c69737465640000000060448201526064016109bf565b80613b9d57602082810151865460018101885560008881529290922090910180546001600160a01b0319166001600160a01b039092169190911790555b6060820151613bac90826156bd565b84600084602001516001600160a01b03166001600160a01b03168152602001908152602001600020819055507368b3465833fb72a70ecdf485e0e4c7bd8665fc456001600160a01b0316336001600160a01b03168e7f6b2315dc82c675e98d173b73a035ea18b30fa040368177ae8dfa90d3cd5a127a85602001518660600151604051613c4e9291906001600160a01b03929092168252602082015260400190565b60405180910390a45b60008260800151118015613c94575081516001600160a01b031660011480613c945750876001600160a01b031682600001516001600160a01b0316145b15613d9457607954610100900460ff1680613cc957506040808301516001600160a01b03166000908152607a602052205460ff165b613d155760405162461bcd60e51b815260206004820152601c60248201527f54617267657420746f6b656e206e6f742077686974656c69737465640000000060448201526064016109bf565b7368b3465833fb72a70ecdf485e0e4c7bd8665fc456001600160a01b0316336001600160a01b03168e7ff10ffe9795dc198303bf64c2f1bfec7ed5256325dee3026154df4c82f43c54f085604001518660800151604051613d8b9291906001600160a01b03929092168252602082015260400190565b60405180910390a45b50508080613da19061598d565b9150506139f5565b5060775460785460ff90911690811580613dca5750607954606460ff909116105b15613f4a578354600090815b81811015613e44576000878281548110613df257613df26159ea565b60009182526020808320909101546001600160a01b031680835290899052604090912054909150613e249082906114fb565b613e2e90856156bd565b9350508080613e3c9061598d565b915050613dd6565b5060008211613e955760405162461bcd60e51b815260206004820152601e60248201527f5377617020616d6f756e742073686f756c64206e6f74206265207a65726f000060448201526064016109bf565b8380613ea15750828211155b613ee35760405162461bcd60e51b8152602060048201526013602482015272115e18d959591959081b585e08185b5bdd5b9d606a1b60448201526064016109bf565b613eed8a83614434565b613f2f5760405162461bcd60e51b815260206004820152601360248201527245786365656465642070657263656e7461676560681b60448201526064016109bf565b60775460ff16613f4757613f4382846158db565b6078555b50505b505050505050505050505050565b6000613f626142f4565b60775460785491925060ff1690613f816005546001600160a01b031690565b6001600160a01b031663d3abc28b8787876040518463ffffffff1660e01b8152600401613fb0939291906152ab565b600060405180830381600087803b158015613fca57600080fd5b505af1158015613fde573d6000803e3d6000fd5b505050506040513d6000823e601f3d908101601f191682016040526140069190810190614d92565b50604051637cb0fbcd60e11b815260009081908190309063f961f79a90614033908b908b90600401615442565b60606040518083038186803b15801561404b57600080fd5b505afa15801561405f573d6000803e3d6000fd5b505050506040513d601f19601f820116820180604052508101906140839190614a4e565b925092509250600061409584836114fb565b6001600160a01b03851660009081526076602052604090205490915060ff166141005760405162461bcd60e51b815260206004820152601c60248201527f536f7572636520746f6b656e206e6f742077686974656c69737465640000000060448201526064016109bf565b607954610100900460ff168061412e57506001600160a01b0383166000908152607a602052604090205460ff165b61417a5760405162461bcd60e51b815260206004820152601c60248201527f54617267657420746f6b656e206e6f742077686974656c69737465640000000060448201526064016109bf565b600081116141d55760405162461bcd60e51b815260206004820152602260248201527f5472616e7366657220616d6f756e742073686f756c64206e6f74206265207a65604482015261726f60f01b60648201526084016109bf565b85806141e15750848111155b6142235760405162461bcd60e51b8152602060048201526013602482015272115e18d959591959081b585e08185b5bdd5b9d606a1b60448201526064016109bf565b61422d8782614434565b61426f5760405162461bcd60e51b815260206004820152601360248201527245786365656465642070657263656e7461676560681b60448201526064016109bf565b856142825761427e81866158db565b6078555b604080516001600160a01b03868116825285166020820152808201849052905173c02aaa39b223fe8d0a0e5c4f27ead9083c756cc29133918e917ff2600da0d3c22c74870d03f19fbe7663ec5f72616966e884f806a2d44ee7d644919081900360600190a45050505050505050505050565b6075546000908161430d6005546001600160a01b031690565b905060005b8281101561442e5760006075828154811061432f5761432f6159ea565b6000918252602090912001546001600160a01b03169050600080516020615a3b83398151915281141561438f5761437e600080516020615a3b833981519152846001600160a01b0316316114fb565b61438890866156bd565b945061441b565b6040516370a0823160e01b81526001600160a01b03848116600483015261440e9183918216906370a082319060240160206040518083038186803b1580156143d657600080fd5b505afa1580156143ea573d6000803e3d6000fd5b505050506040513d601f19601f820116820180604052508101906104a79190614ff2565b61441890866156bd565b94505b50806144268161598d565b915050614312565b50505090565b60795460009060ff1660648114156144505760019150506111a9565b8361445f5760009150506111a9565b606461446e60ff8316866158bc565b6144789190615728565b909211159392505050565b6040805160c08101825260008082526020820181905291810182905260608101829052608081018290529060a082015290565b828054828255906000526020600020908101928215614503579160200282015b8281111561450357825180516144f3918491602090910190614593565b50916020019190600101906144d6565b5061450f929150614607565b5090565b82805461451f90615958565b90600052602060002090601f0160209004810192826145415760008555614587565b82601f1061455a5782800160ff19823516178555614587565b82800160010185558215614587579182015b8281111561458757823582559160200191906001019061456c565b5061450f929150614624565b82805461459f90615958565b90600052602060002090601f0160209004810192826145c15760008555614587565b82601f106145da57805160ff1916838001178555614587565b82800160010185558215614587579182015b828111156145875782518255916020019190600101906145ec565b8082111561450f57600061461b8282614639565b50600101614607565b5b8082111561450f5760008155600101614625565b50805461464590615958565b6000825580601f10614655575050565b601f0160209004906000526020600020908101906146739190614624565b50565b803561175d81615a16565b60008083601f84011261469357600080fd5b5081356001600160401b038111156146aa57600080fd5b6020830191508360208260051b85010111156146c557600080fd5b9250929050565b600082601f8301126146dd57600080fd5b813560206146f26146ed83615673565b615643565b80838252828201915082860187848660051b890101111561471257600080fd5b60005b8581101561473a57813561472881615a16565b84529284019290840190600101614715565b5090979650505050505050565b600082601f83011261475857600080fd5b815160206147686146ed83615673565b80838252828201915082860187848660051b890101111561478857600080fd5b6000805b868110156147ca5782516001600160401b038111156147a9578283fd5b6147b78b88838d0101614839565b865250938501939185019160010161478c565b509198975050505050505050565b8035801515811461175d57600080fd5b600082601f8301126147f957600080fd5b81356148076146ed82615696565b81815284602083860101111561481c57600080fd5b816020850160208301376000918101602001919091529392505050565b600082601f83011261484a57600080fd5b81516148586146ed82615696565b81815284602083860101111561486d57600080fd5b61487e826020830160208701615915565b949350505050565b60008083601f84011261489857600080fd5b5081356001600160401b038111156148af57600080fd5b6020830191508360208285010111156146c557600080fd5b600060808284031215612c7257600080fd5b600060e08284031215612c7257600080fd5b60006101808284031215612c7257600080fd5b600060c0828403121561491057600080fd5b60405160c081018181106001600160401b038211171561493257614932615a00565b8060405250809150825161494581615a16565b8152602083015161495581615a16565b6020820152604083015161496881615a16565b80604083015250606083015160608201526080830151608082015260a08301516003811061499557600080fd5b60a0919091015292915050565b803563ffffffff8116811461175d57600080fd5b803561175d81615a2b565b80516001600160501b038116811461175d57600080fd5b6000602082840312156149ea57600080fd5b813561252b81615a16565b600080600060608486031215614a0a57600080fd5b8351614a1581615a16565b60208501519093506001600160401b03811115614a3157600080fd5b614a3d86828701614839565b925050604084015190509250925092565b600080600060608486031215614a6357600080fd5b8351614a6e81615a16565b6020850151909350614a7f81615a16565b80925050604084015190509250925092565b60008060408385031215614aa457600080fd5b8235614aaf81615a16565b946020939093013593505050565b600080600060608486031215614ad257600080fd5b8335614add81615a16565b9250602084013591506040840135614af481615a16565b809150509250925092565b60008060008060008060c08789031215614b1857600080fd5b8635614b2381615a16565b955060208701359450604087013593506060870135614b4181615a2b565b9598949750929560808101359460a0909101359350915050565b600060208284031215614b6d57600080fd5b81516001600160401b03811115614b8357600080fd5b61487e84828501614747565b600080600080600060808688031215614ba757600080fd5b6001600160401b038087351115614bbd57600080fd5b8635870188601f820112614bd057600080fd5b80356020614be06146ed83615673565b8083825282820191508285018d848660051b8801011115614c0057600080fd5b60005b85811015614c3a578782351115614c1957600080fd5b614c288f8684358a01016147e8565b84529284019290840190600101614c03565b5050809a505050614c4c818b016149a2565b9750505050614c5d604088016147d8565b9350606087013581811115614c7157600080fd5b614c7d89828a01614886565b979a9699509497509395949350505050565b60006020808385031215614ca257600080fd5b82516001600160401b03811115614cb857600080fd5b8301601f81018513614cc957600080fd5b8051614cd76146ed82615673565b8181528381019083850160c0808502860187018a1015614cf657600080fd5b600095505b84861015614d2357614d0d8a836148fe565b8452600195909501949286019290810190614cfb565b509098975050505050505050565b600060208284031215614d4357600080fd5b61252b826147d8565b60008060408385031215614d5f57600080fd5b8251915060208301516001600160401b03811115614d7c57600080fd5b614d8885828601614747565b9150509250929050565b600060208284031215614da457600080fd5b81516001600160401b03811115614dba57600080fd5b61487e84828501614839565b60008060408385031215614dd957600080fd5b82356001600160401b03811115614def57600080fd5b614dfb858286016147e8565b95602094909401359450505050565b600080600060608486031215614e1f57600080fd5b83356001600160401b0380821115614e3657600080fd5b614e42878388016147e8565b9450602086013593506040860135915080821115614e5f57600080fd5b50614e6c868287016147e8565b9150509250925092565b600060208284031215614e8857600080fd5b815161252b81615a16565b600060208284031215614ea557600080fd5b81356001600160401b03811115614ebb57600080fd5b61487e848285016148c7565b600060e08284031215614ed957600080fd5b61252b83836148d9565b60008060008060008060008060006101008a8c031215614f0257600080fd5b89356001600160401b0380821115614f1957600080fd5b614f258d838e016148eb565b9a5060208c0135915080821115614f3b57600080fd5b614f478d838e016146cc565b9950614f5560408d016147d8565b985060608c0135915080821115614f6b57600080fd5b50614f788c828d01614681565b9097509550614f8b905060808b016147d8565b935060a08a01359250614fa060c08b016149b6565b9150614fae60e08b01614676565b90509295985092959850929598565b600060c08284031215614fcf57600080fd5b61252b83836148fe565b600060208284031215614feb57600080fd5b5035919050565b60006020828403121561500457600080fd5b5051919050565b6000806040838503121561501e57600080fd5b82359150602083013561503081615a16565b809150509250929050565b60008060006040848603121561505057600080fd5b8335925060208401356001600160401b0381111561506d57600080fd5b61507986828701614886565b9497909650939450505050565b60008060008060006080868803121561509e57600080fd5b853594506020860135935060408601356001600160401b038111156150c257600080fd5b6150ce88828901614681565b90945092505060608601356150e281615a16565b809150509295509295909350565b600080600080600060a0868803121561510857600080fd5b615111866149c1565b9450602086015193506040860151925060608601519150615134608087016149c1565b90509295509295909350565b60006020828403121561515257600080fd5b815161252b81615a2b565b600081518084526020808501808196508360051b8101915082860160005b858110156151a55782840389526151938483516151b2565b9885019893509084019060010161517b565b5091979650505050505050565b600081518084526151ca816020860160208601615915565b601f01601f19169290920160200192915050565b600481106151ee576151ee6159d4565b9052565b81835281816020850137506000828201602090810191909152601f909101601f19169091010190565b60018060a01b0380825116835280602083015116602084015280604083015116604084015250606081015160608301526080810151608083015260a08101516003811061526a5761526a6159d4565b8060a0840152505050565b60008251615287818460208701615915565b9190910192915050565b6001600160a01b0392831681529116602082015260400190565b6001600160a01b03841681526060602082018190526000906152cf908301856151b2565b9050826040830152949350505050565b6001600160a01b038416815260406020820181905260009061530490830184866151f2565b95945050505050565b604081526000615320604083018561515d565b905060018060a01b03831660208301529392505050565b60a08152600061534a60a083018961515d565b63ffffffff8816602084015261536360408401886151de565b82810360608401526153768186886151f2565b91505060018060a01b0383166080830152979650505050505050565b6000602080830181845280855180835260408601915060408160051b870101925083870160005b828110156153e757603f198886030184526153d58583516151b2565b945092850192908501906001016153b9565b5092979650505050505050565b6020808252825182820181905260009190848201906040850190845b818110156154365761542383855161521b565b9284019260c09290920191600101615410565b50909695505050505050565b60408152600061545560408301856151b2565b90508260208301529392505050565b60608152600061547760608301866151b2565b846020840152828103604084015261548f81856151b2565b9695505050505050565b60208152600061252b60208301846151b2565b60208082526018908201527f5374616c6520707269636520696e20436861696e6c696e6b0000000000000000604082015260600190565b6020808252602b908201527f496e697469616c697a61626c653a20636f6e7472616374206973206e6f74206960408201526a6e697469616c697a696e6760a81b606082015260800190565b60208082526022908201527f4578656375746f72206e6f742077686974656c697374656420696e2062756467604082015261195d60f21b606082015260800190565b60c081016111a9828461521b565b85815260a0810161559260208301876151de565b63ffffffff949094166040820152911515606083015260809091015292915050565b6000808335601e198436030181126155cb57600080fd5b8301803591506001600160401b038211156155e557600080fd5b6020019150600581901b36038213156146c557600080fd5b6000808335601e1984360301811261561457600080fd5b8301803591506001600160401b0382111561562e57600080fd5b6020019150368190038213156146c557600080fd5b604051601f8201601f191681016001600160401b038111828210171561566b5761566b615a00565b604052919050565b60006001600160401b0382111561568c5761568c615a00565b5060051b60200190565b60006001600160401b038211156156af576156af615a00565b50601f01601f191660200190565b600082198211156156d0576156d06159a8565b500190565b600060ff821660ff84168060ff038211156156f2576156f26159a8565b019392505050565b600082615709576157096159be565b600160ff1b821460001984141615615723576157236159a8565b500590565b600082615737576157376159be565b500490565b600181815b8085111561577757816000190482111561575d5761575d6159a8565b8085161561576a57918102915b93841c9390800290615741565b509250929050565b600061252b8383615796565b600061252b60ff8416835b6000826157a5575060016111a9565b816157b2575060006111a9565b81600181146157c857600281146157d2576157ee565b60019150506111a9565b60ff8411156157e3576157e36159a8565b50506001821b6111a9565b5060208310610133831016604e8410600b8410161715615811575081810a6111a9565b61581b838361573c565b806000190482111561582f5761582f6159a8565b029392505050565b60006001600160ff1b038184138284138082168684048611161561585d5761585d6159a8565b600160ff1b600087128281168783058912161561587c5761587c6159a8565b60008712925087820587128484161615615898576158986159a8565b878505871281841616156158ae576158ae6159a8565b505050929093029392505050565b60008160001904831182151516156158d6576158d66159a8565b500290565b6000828210156158ed576158ed6159a8565b500390565b600060ff821660ff84168082101561590c5761590c6159a8565b90039392505050565b60005b83811015615930578181015183820152602001615918565b838111156124bf5750506000910152565b600081615950576159506159a8565b506000190190565b600181811c9082168061596c57607f821691505b60208210811415612c7257634e487b7160e01b600052602260045260246000fd5b60006000198214156159a1576159a16159a8565b5060010190565b634e487b7160e01b600052601160045260246000fd5b634e487b7160e01b600052601260045260246000fd5b634e487b7160e01b600052602160045260246000fd5b634e487b7160e01b600052603260045260246000fd5b634e487b7160e01b600052604160045260246000fd5b6001600160a01b038116811461467357600080fd5b60ff8116811461467357600080fdfe000000000000000000000000eeeeeeeeeeeeeeeeeeeeeeeeeeeeeeeeeeeeeeeea2646970667358221220d73d1b7286ed3465b998ab204f305b71dc8c36135f9d2d6e0b1c5a71c56352f464736f6c63430008070033",
  "linkReferences": {},
  "deployedLinkReferences": {}
}