{
    "_format": "hh-sol-artifact-1",
    "contractName": "VestingERC20BudgetApproval",
    "sourceName": "contracts/VestingERC20BudgetApproval.sol",
    "abi": [
        {
            "inputs": [],
            "stateMutability": "nonpayable",
            "type": "constructor"
        },
        {
            "anonymous": false,
            "inputs": [
                {
                    "indexed": false,
                    "internalType": "address",
                    "name": "target",
                    "type": "address"
                }
            ],
            "name": "AllowAddress",
            "type": "event"
        },
        {
            "anonymous": false,
            "inputs": [
                {
                    "indexed": false,
                    "internalType": "uint256",
                    "name": "amount",
                    "type": "uint256"
                }
            ],
            "name": "AllowAmount",
            "type": "event"
        },
        {
            "anonymous": false,
            "inputs": [
                {
                    "indexed": false,
                    "internalType": "address",
                    "name": "token",
                    "type": "address"
                }
            ],
            "name": "AllowToken",
            "type": "event"
        },
        {
            "anonymous": false,
            "inputs": [
                {
                    "indexed": true,
                    "internalType": "uint256",
                    "name": "id",
                    "type": "uint256"
                },
                {
                    "indexed": false,
                    "internalType": "address",
                    "name": "approver",
                    "type": "address"
                },
                {
                    "indexed": false,
                    "internalType": "string",
                    "name": "comment",
                    "type": "string"
                }
            ],
            "name": "ApproveTransaction",
            "type": "event"
        },
        {
            "anonymous": false,
            "inputs": [
                {
                    "indexed": true,
                    "internalType": "uint256",
                    "name": "id",
                    "type": "uint256"
                },
                {
                    "indexed": false,
                    "internalType": "bytes[]",
                    "name": "data",
                    "type": "bytes[]"
                },
                {
                    "indexed": false,
                    "internalType": "uint256",
                    "name": "deadline",
                    "type": "uint256"
                },
                {
                    "indexed": false,
                    "internalType": "enum CommonBudgetApproval.Status",
                    "name": "status",
                    "type": "uint8"
                },
                {
                    "indexed": false,
                    "internalType": "string",
                    "name": "comment",
                    "type": "string"
                },
                {
                    "indexed": false,
                    "internalType": "address",
                    "name": "creator",
                    "type": "address"
                }
            ],
            "name": "CreateTransaction",
            "type": "event"
        },
        {
            "anonymous": false,
            "inputs": [
                {
                    "indexed": true,
                    "internalType": "uint256",
                    "name": "id",
                    "type": "uint256"
                },
                {
                    "indexed": false,
                    "internalType": "bytes[]",
                    "name": "data",
                    "type": "bytes[]"
                },
                {
                    "indexed": false,
                    "internalType": "address",
                    "name": "_executor",
                    "type": "address"
                }
            ],
            "name": "ExecuteTransaction",
            "type": "event"
        },
        {
            "anonymous": false,
            "inputs": [
                {
                    "indexed": true,
                    "internalType": "uint256",
                    "name": "id",
                    "type": "uint256"
                },
                {
                    "indexed": true,
                    "internalType": "address",
                    "name": "executor",
                    "type": "address"
                },
                {
                    "indexed": true,
                    "internalType": "address",
                    "name": "toAddress",
                    "type": "address"
                },
                {
                    "indexed": false,
                    "internalType": "address",
                    "name": "token",
                    "type": "address"
                },
                {
                    "indexed": false,
                    "internalType": "uint256",
                    "name": "amount",
                    "type": "uint256"
                }
            ],
            "name": "ExecuteVestingERC20Transaction",
            "type": "event"
        },
        {
            "anonymous": false,
            "inputs": [
                {
                    "indexed": false,
                    "internalType": "uint8",
                    "name": "version",
                    "type": "uint8"
                }
            ],
            "name": "Initialized",
            "type": "event"
        },
        {
            "anonymous": false,
            "inputs": [
                {
                    "indexed": true,
                    "internalType": "uint256",
                    "name": "id",
                    "type": "uint256"
                }
            ],
            "name": "RevokeTransaction",
            "type": "event"
        },
        {
            "anonymous": false,
            "inputs": [
                {
                    "indexed": false,
                    "internalType": "address",
                    "name": "approver",
                    "type": "address"
                }
            ],
            "name": "SetApprover",
            "type": "event"
        },
        {
            "inputs": [],
            "name": "afterInitialized",
            "outputs": [],
            "stateMutability": "nonpayable",
            "type": "function"
        },
        {
            "inputs": [],
            "name": "allowUnlimitedUsageCount",
            "outputs": [
                {
                    "internalType": "bool",
                    "name": "",
                    "type": "bool"
                }
            ],
            "stateMutability": "view",
            "type": "function"
        },
        {
            "inputs": [
                {
                    "internalType": "uint256",
                    "name": "id",
                    "type": "uint256"
                },
                {
                    "internalType": "string",
                    "name": "comment",
                    "type": "string"
                }
            ],
            "name": "approveTransaction",
            "outputs": [],
            "stateMutability": "nonpayable",
            "type": "function"
        },
        {
            "inputs": [],
            "name": "approverTeamId",
            "outputs": [
                {
                    "internalType": "uint256",
                    "name": "",
                    "type": "uint256"
                }
            ],
            "stateMutability": "view",
            "type": "function"
        },
        {
            "inputs": [
                {
                    "internalType": "address",
                    "name": "eoa",
                    "type": "address"
                }
            ],
            "name": "approversMapping",
            "outputs": [
                {
                    "internalType": "bool",
                    "name": "",
                    "type": "bool"
                }
            ],
            "stateMutability": "view",
            "type": "function"
        },
        {
            "inputs": [],
            "name": "cliffPeriod",
            "outputs": [
                {
                    "internalType": "uint256",
                    "name": "",
                    "type": "uint256"
                }
            ],
            "stateMutability": "view",
            "type": "function"
        },
        {
            "inputs": [
                {
                    "internalType": "bytes[]",
                    "name": "_data",
                    "type": "bytes[]"
                },
                {
                    "internalType": "uint32",
                    "name": "_deadline",
                    "type": "uint32"
                },
                {
                    "internalType": "bool",
                    "name": "_isExecute",
                    "type": "bool"
                },
                {
                    "internalType": "string",
                    "name": "comment",
                    "type": "string"
                }
            ],
            "name": "createTransaction",
            "outputs": [
                {
                    "internalType": "uint256",
                    "name": "",
                    "type": "uint256"
                }
            ],
            "stateMutability": "payable",
            "type": "function"
        },
        {
            "inputs": [],
            "name": "currentReleasableAmount",
            "outputs": [
                {
                    "internalType": "uint256",
                    "name": "",
                    "type": "uint256"
                }
            ],
            "stateMutability": "view",
            "type": "function"
        },
        {
            "inputs": [],
            "name": "cycleCount",
            "outputs": [
                {
                    "internalType": "uint256",
                    "name": "",
                    "type": "uint256"
                }
            ],
            "stateMutability": "view",
            "type": "function"
        },
        {
            "inputs": [],
            "name": "cyclePeriod",
            "outputs": [
                {
                    "internalType": "uint256",
                    "name": "",
                    "type": "uint256"
                }
            ],
            "stateMutability": "view",
            "type": "function"
        },
        {
            "inputs": [],
            "name": "cycleTokenAmount",
            "outputs": [
                {
                    "internalType": "uint256",
                    "name": "",
                    "type": "uint256"
                }
            ],
            "stateMutability": "view",
            "type": "function"
        },
        {
            "inputs": [],
            "name": "endTime",
            "outputs": [
                {
                    "internalType": "uint256",
                    "name": "",
                    "type": "uint256"
                }
            ],
            "stateMutability": "view",
            "type": "function"
        },
        {
            "inputs": [],
            "name": "executeParams",
            "outputs": [
                {
                    "internalType": "string[]",
                    "name": "",
                    "type": "string[]"
                }
            ],
            "stateMutability": "pure",
            "type": "function"
        },
        {
            "inputs": [
                {
                    "internalType": "uint256",
                    "name": "id",
                    "type": "uint256"
                }
            ],
            "name": "executeTransaction",
            "outputs": [],
            "stateMutability": "payable",
            "type": "function"
        },
        {
            "inputs": [],
            "name": "executee",
            "outputs": [
                {
                    "internalType": "address",
                    "name": "",
                    "type": "address"
                }
            ],
            "stateMutability": "view",
            "type": "function"
        },
        {
            "inputs": [],
            "name": "executor",
            "outputs": [
                {
                    "internalType": "address",
                    "name": "",
                    "type": "address"
                }
            ],
            "stateMutability": "view",
            "type": "function"
        },
        {
            "inputs": [],
            "name": "executorTeamId",
            "outputs": [
                {
                    "internalType": "uint256",
                    "name": "",
                    "type": "uint256"
                }
            ],
            "stateMutability": "view",
            "type": "function"
        },
        {
            "inputs": [],
            "name": "initTokenAmount",
            "outputs": [
                {
                    "internalType": "uint256",
                    "name": "",
                    "type": "uint256"
                }
            ],
            "stateMutability": "view",
            "type": "function"
        },
        {
            "inputs": [
                {
                    "components": [
                        {
                            "internalType": "address",
                            "name": "executor",
                            "type": "address"
                        },
                        {
                            "internalType": "uint256",
                            "name": "executorTeamId",
                            "type": "uint256"
                        },
                        {
                            "internalType": "address[]",
                            "name": "approvers",
                            "type": "address[]"
                        },
                        {
                            "internalType": "uint256",
                            "name": "approverTeamId",
                            "type": "uint256"
                        },
                        {
                            "internalType": "uint256",
                            "name": "minApproval",
                            "type": "uint256"
                        },
                        {
                            "internalType": "string",
                            "name": "text",
                            "type": "string"
                        },
                        {
                            "internalType": "string",
                            "name": "transactionType",
                            "type": "string"
                        },
                        {
                            "internalType": "uint256",
                            "name": "startTime",
                            "type": "uint256"
                        },
                        {
                            "internalType": "uint256",
                            "name": "endTime",
                            "type": "uint256"
                        },
                        {
                            "internalType": "bool",
                            "name": "allowUnlimitedUsageCount",
                            "type": "bool"
                        },
                        {
                            "internalType": "uint256",
                            "name": "usageCount",
                            "type": "uint256"
                        },
                        {
                            "internalType": "address",
                            "name": "team",
                            "type": "address"
                        }
                    ],
                    "internalType": "struct CommonBudgetApproval.InitializeParams",
                    "name": "params",
                    "type": "tuple"
                },
                {
                    "internalType": "address",
                    "name": "_token",
                    "type": "address"
                },
                {
                    "internalType": "address",
                    "name": "_toAddress",
                    "type": "address"
                },
                {
                    "internalType": "uint256",
                    "name": "_cliffPeriod",
                    "type": "uint256"
                },
                {
                    "internalType": "uint256",
                    "name": "_cyclePeriod",
                    "type": "uint256"
                },
                {
                    "internalType": "uint256",
                    "name": "_cycleCount",
                    "type": "uint256"
                },
                {
                    "internalType": "uint256",
                    "name": "_cycleTokenAmount",
                    "type": "uint256"
                },
                {
                    "internalType": "uint256",
                    "name": "_initTokenAmount",
                    "type": "uint256"
                }
            ],
            "name": "initialize",
            "outputs": [],
            "stateMutability": "nonpayable",
            "type": "function"
        },
        {
            "inputs": [],
            "name": "isCliffPassed",
            "outputs": [
                {
                    "internalType": "bool",
                    "name": "",
                    "type": "bool"
                }
            ],
            "stateMutability": "view",
            "type": "function"
        },
        {
            "inputs": [],
            "name": "minApproval",
            "outputs": [
                {
                    "internalType": "uint256",
                    "name": "",
                    "type": "uint256"
                }
            ],
            "stateMutability": "view",
            "type": "function"
        },
        {
            "inputs": [],
            "name": "name",
            "outputs": [
                {
                    "internalType": "string",
                    "name": "",
                    "type": "string"
                }
            ],
            "stateMutability": "view",
            "type": "function"
        },
        {
            "inputs": [],
            "name": "releasedAmount",
            "outputs": [
                {
                    "internalType": "uint256",
                    "name": "",
                    "type": "uint256"
                }
            ],
            "stateMutability": "view",
            "type": "function"
        },
        {
            "inputs": [],
            "name": "remainingAmount",
            "outputs": [
                {
                    "internalType": "uint256",
                    "name": "",
                    "type": "uint256"
                }
            ],
            "stateMutability": "view",
            "type": "function"
        },
        {
            "inputs": [
                {
                    "internalType": "uint256",
                    "name": "id",
                    "type": "uint256"
                }
            ],
            "name": "revokeTransaction",
            "outputs": [],
            "stateMutability": "nonpayable",
            "type": "function"
        },
        {
            "inputs": [],
            "name": "startTime",
            "outputs": [
                {
                    "internalType": "uint256",
                    "name": "",
                    "type": "uint256"
                }
            ],
            "stateMutability": "view",
            "type": "function"
        },
        {
            "inputs": [],
            "name": "team",
            "outputs": [
                {
                    "internalType": "address",
                    "name": "",
                    "type": "address"
                }
            ],
            "stateMutability": "view",
            "type": "function"
        },
        {
            "inputs": [],
            "name": "text",
            "outputs": [
                {
                    "internalType": "string",
                    "name": "",
                    "type": "string"
                }
            ],
            "stateMutability": "view",
            "type": "function"
        },
        {
            "inputs": [],
            "name": "toAddress",
            "outputs": [
                {
                    "internalType": "address",
                    "name": "",
                    "type": "address"
                }
            ],
            "stateMutability": "view",
            "type": "function"
        },
        {
            "inputs": [],
            "name": "token",
            "outputs": [
                {
                    "internalType": "address",
                    "name": "",
                    "type": "address"
                }
            ],
            "stateMutability": "view",
            "type": "function"
        },
        {
            "inputs": [],
            "name": "totalAmount",
            "outputs": [
                {
                    "internalType": "uint256",
                    "name": "",
                    "type": "uint256"
                }
            ],
            "stateMutability": "view",
            "type": "function"
        },
        {
            "inputs": [],
            "name": "transactionType",
            "outputs": [
                {
                    "internalType": "string",
                    "name": "",
                    "type": "string"
                }
            ],
            "stateMutability": "view",
            "type": "function"
        },
        {
            "inputs": [
                {
                    "internalType": "uint256",
                    "name": "",
                    "type": "uint256"
                }
            ],
            "name": "transactions",
            "outputs": [
                {
                    "internalType": "uint256",
                    "name": "id",
                    "type": "uint256"
                },
                {
                    "internalType": "enum CommonBudgetApproval.Status",
                    "name": "status",
                    "type": "uint8"
                },
                {
                    "internalType": "uint32",
                    "name": "deadline",
                    "type": "uint32"
                },
                {
                    "internalType": "bool",
                    "name": "isExist",
                    "type": "bool"
                },
                {
                    "internalType": "uint256",
                    "name": "approvedCount",
                    "type": "uint256"
                }
            ],
            "stateMutability": "view",
            "type": "function"
        },
        {
            "inputs": [],
            "name": "usageCount",
            "outputs": [
                {
                    "internalType": "uint256",
                    "name": "",
                    "type": "uint256"
                }
            ],
            "stateMutability": "view",
            "type": "function"
        }
    ],
    "bytecode": "0x60806040523480156200001157600080fd5b506200001c6200002c565b620000266200002c565b620000ee565b600054610100900460ff1615620000995760405162461bcd60e51b815260206004820152602760248201527f496e697469616c697a61626c653a20636f6e747261637420697320696e697469604482015266616c697a696e6760c81b606482015260840160405180910390fd5b60005460ff9081161015620000ec576000805460ff191660ff9081179091556040519081527f7f26b83ff96e1f2b6a682f133852f6798a09c465da95921460cefb38474024989060200160405180910390a15b565b61235780620000fe6000396000f3fe6080604052600436106101f95760003560e01c806378e979251161010d578063c34c08e5116100a0578063de755e2f1161006f578063de755e2f1461059a578063ee22610b146105af578063f5c03852146105c2578063fb9db4f7146105e0578063fc0c546a1461060057600080fd5b8063c34c08e51461053c578063ce9329191461055a578063cf26fec614610570578063d96c91961461058557600080fd5b806397c85a61116100dc57806397c85a61146104855780639ace38c2146104a5578063a50a1fe614610511578063a7ccc0ed1461052657600080fd5b806378e97925146104275780637cd47d931461043c57806385f2aef214610451578063905562641461046f57600080fd5b80632f6619461161019057806345d30a171161015f57806345d30a171461038a57806350bd881f1461039f5780635ad32502146103b45780636bdebe5e146103cc578063735631ad1461040557600080fd5b80632f66194614610327578063316fda0f1461033d5780633197cbb61461035357806331a7bdd91461036857600080fd5b80631a39d8ef116101cc5780631a39d8ef146102c35780631f1bd692146102d8578063212b1033146102ed5780632eaaecd81461031257600080fd5b806303ff90f6146101fe57806306fdde031461022257806314b893f91461027857806319c87f1f1461028b575b600080fd5b34801561020a57600080fd5b506008545b6040519081526020015b60405180910390f35b34801561022e57600080fd5b5061026b6040518060400160405280601d81526020017f56657374696e672045524332302042756467657420417070726f76616c00000081525081565b6040516102199190612047565b61020f610286366004611b38565b610620565b34801561029757600080fd5b506011546102ab906001600160a01b031681565b6040516001600160a01b039091168152602001610219565b3480156102cf57600080fd5b5061020f61076f565b3480156102e457600080fd5b5061026b610793565b3480156102f957600080fd5b50610302610825565b6040519015158152602001610219565b34801561031e57600080fd5b5061020f610844565b34801561033357600080fd5b5061020f60125481565b34801561034957600080fd5b5061020f60145481565b34801561035f57600080fd5b50600e5461020f565b34801561037457600080fd5b5061037d6108c0565b6040516102199190611fe5565b34801561039657600080fd5b5060175461020f565b3480156103ab57600080fd5b50600c5461020f565b3480156103c057600080fd5b50600b5460ff16610302565b3480156103d857600080fd5b506103026103e7366004611b16565b6001600160a01b031660009081526006602052604090205460ff1690565b34801561041157600080fd5b50610425610420366004611dba565b61093b565b005b34801561043357600080fd5b50600d5461020f565b34801561044857600080fd5b5061026b610a7d565b34801561045d57600080fd5b50600f546001600160a01b03166102ab565b34801561047b57600080fd5b5061020f60155481565b34801561049157600080fd5b506104256104a0366004611dec565b610a8c565b3480156104b157600080fd5b506105006104c0366004611dba565b600260208190526000918252604090912080549181015460039091015460ff8083169263ffffffff61010082041692650100000000009091049091169085565b60405161021995949392919061209c565b34801561051d57600080fd5b5061020f610d03565b34801561053257600080fd5b5061020f60165481565b34801561054857600080fd5b506003546001600160a01b03166102ab565b34801561056657600080fd5b5061020f60135481565b34801561057c57600080fd5b50610425610d20565b34801561059157600080fd5b5060075461020f565b3480156105a657600080fd5b5060045461020f565b6104256105bd366004611dba565b610d87565b3480156105ce57600080fd5b506005546001600160a01b03166102ab565b3480156105ec57600080fd5b506104256105fb366004611d28565b61115b565b34801561060c57600080fd5b506010546102ab906001600160a01b031681565b600061062b336112c3565b6106505760405162461bcd60e51b81526004016106479061205a565b60405180910390fd5b61065e600180546001019055565b600061066960015490565b6000818152600260209081526040909120828155895192935091610695916001840191908b01906118cd565b506002810180546501000000000065ffffffffff001990911661010063ffffffff8b160265ff00000000001916171790556008546106ef57600082815260026020819052604090912001805460ff1916600117905561070a565b600082815260026020819052604090912001805460ff191690555b600281015460405183917f8a5186dbaf6f344b2837e11834be94edebb633f05034f422c6b1fe1595b4d0cc9161074d918c918c9160ff16908b908b903390611f8a565b60405180910390a285156107645761076482610d87565b509695505050505050565b600060145460155461078191906121f6565b60165461078e91906121bc565b905090565b6060600980546107a290612273565b80601f01602080910402602001604051908101604052809291908181526020018280546107ce90612273565b801561081b5780601f106107f05761010080835404028352916020019161081b565b820191906000526020600020905b8154815290600101906020018083116107fe57829003601f168201915b5050505050905090565b6000601254610833600d5490565b61083d91906121bc565b4211905090565b600061084e610825565b6108585750600090565b60135461086f5760175460165461078e9190612215565b600060135461087d600d5490565b6108879042612215565b61089191906121d4565b90506017546015546108a390836121f6565b6016546108b091906121bc565b6108ba9190612215565b91505090565b60408051600180825281830190925260609160009190816020015b60608152602001906001900390816108db5790505090506040518060400160405280600d81526020016c75696e743235362076616c756560981b8152508160008151811061092b5761092b6122f5565b6020908102919091010152919050565b610944336112c3565b6109605760405162461bcd60e51b81526004016106479061205a565b8061096a60015490565b10156109b05760405162461bcd60e51b8152602060048201526015602482015274125b9d985a5b1908151c985b9cd858dd1a5bdb9259605a1b6044820152606401610647565b60026000828152600260208190526040909120015460ff1660038111156109d9576109d96122df565b1415610a355760405162461bcd60e51b815260206004820152602560248201527f5472616e73616374696f6e20686173206265656e20636f6d706c65746564206260448201526465666f726560d81b6064820152608401610647565b6000818152600260208190526040808320909101805460ff191660031790555182917f92a917be073b79ab50f9d997e9514a5d101e052ce04228014947e7883a7c034691a250565b6060600a80546107a290612273565b610a95336113a0565b610aec5760405162461bcd60e51b815260206004820152602260248201527f417070726f766572206e6f742077686974656c697374656420696e2062756467604482015261195d60f21b6064820152608401610647565b82610af660015490565b1015610b3c5760405162461bcd60e51b8152602060048201526015602482015274125b9d985a5b1908151c985b9cd858dd1a5bdb9259605a1b6044820152606401610647565b600083815260026020819052604082209081015460039091015460ff9091169190610b689060016121bc565b90506000826003811115610b7e57610b7e6122df565b1480610b9b57506001826003811115610b9957610b996122df565b145b610be75760405162461bcd60e51b815260206004820152601d60248201527f556e6578706563746564207472616e73616374696f6e207374617475730000006044820152606401610647565b600085815260026020908152604080832033845260040190915290205460ff1615610c605760405162461bcd60e51b8152602060048201526024808201527f5472616e73616374696f6e20686173206265656e20617070726f766564206265604482015263666f726560e01b6064820152608401610647565b6000858152600260208181526040808420338552600481018352908420805460ff191660011790559288905252600301819055610c9c60085490565b8110610cc057600085815260026020819052604090912001805460ff191660011790555b847f3399030f87676a97e30e211a48f9c46e2ff806d0b4cedf7100782f08c52902c9338686604051610cf493929190611f3b565b60405180910390a25050505050565b6000610d0e60175490565b610d1661076f565b61078e9190612215565b6005546001600160a01b03163314610d855760405162461bcd60e51b815260206004820152602260248201527f4578656375746565206e6f742077686974656c697374656420696e2062756467604482015261195d60f21b6064820152608401610647565b565b806001806000838152600260208190526040909120015460ff166003811115610db257610db26122df565b14610dff5760405162461bcd60e51b815260206004820152601a60248201527f5472616e73616374696f6e2073746174757320696e76616c69640000000000006044820152606401610647565b600083815260026020819052604090912001548390610100900463ffffffff16421115610e645760405162461bcd60e51b8152602060048201526013602482015272151c985b9cd858dd1a5bdb88195e1c1a5c9959606a1b6044820152606401610647565b600d54421015610eb65760405162461bcd60e51b815260206004820152601f60248201527f42756467657420757361676520706572696f64206e6f742073746172746564006044820152606401610647565b6000610ec1600e5490565b90508015610f1857804210610f185760405162461bcd60e51b815260206004820152601d60248201527f42756467657420757361676520706572696f642068617320656e6465640000006044820152606401610647565b610f21336112c3565b610f3d5760405162461bcd60e51b81526004016106479061205a565b6000610f4b600b5460ff1690565b90506000610f58600c5490565b9050600060026000898152602001908152602001600020600101805480602002602001604051908101604052809291908181526020016000905b8282101561103e578382906000526020600020018054610fb190612273565b80601f0160208091040260200160405190810160405280929190818152602001828054610fdd90612273565b801561102a5780601f10610fff5761010080835404028352916020019161102a565b820191906000526020600020905b81548152906001019060200180831161100d57829003601f168201915b505050505081526020019060010190610f92565b50505050905060005b81518110156110f057838061105c5750600083115b6110a85760405162461bcd60e51b815260206004820152601b60248201527f457863656564656420627564676574207573616765206c696d697400000000006044820152606401610647565b836110bb57826110b78161225c565b9350505b6110de898383815181106110d1576110d16122f5565b60200260200101516113ed565b806110e8816122ae565b915050611047565b50600c82905560008881526002602081905260409091208101805460ff19166001830217905550877f9060adf413860c5ab6e376e0aa4269e49a13f0853edb1583fce8129d4c756d798233604051611149929190611f60565b60405180910390a25050505050505050565b600054610100900460ff161580801561117b5750600054600160ff909116105b806111955750303b158015611195575060005460ff166001145b6111f85760405162461bcd60e51b815260206004820152602e60248201527f496e697469616c697a61626c653a20636f6e747261637420697320616c72656160448201526d191e481a5b9a5d1a585b1a5e995960921b6064820152608401610647565b6000805460ff19166001179055801561121b576000805461ff0019166101001790555b611224896115ff565b601080546001600160a01b03808b166001600160a01b03199283161790925560118054928a169290911691909117905560128690556013859055601484905560158390556016829055600060175580156112b8576000805461ff0019169055604051600181527f7f26b83ff96e1f2b6a682f133852f6798a09c465da95921460cefb38474024989060200160405180910390a15b505050505050505050565b60006112d76003546001600160a01b031690565b6001600160a01b0316826001600160a01b0316148061139a57506000611305600f546001600160a01b031690565b6001600160a01b031662fdd58e8461131c60045490565b6040516001600160e01b031960e085901b1681526001600160a01b039092166004830152602482015260440160206040518083038186803b15801561136057600080fd5b505afa158015611374573d6000803e3d6000fd5b505050506040513d601f19601f820116820180604052508101906113989190611dd3565b115b92915050565b6001600160a01b03811660009081526006602052604081205460ff168061139a575060006113d6600f546001600160a01b031690565b6001600160a01b031662fdd58e8461131c60075490565b6000818060200190518101906114039190611dd3565b601154604080516001600160a01b039283166024820152604480820185905282518083039091018152606490910182526020810180516001600160e01b031663a9059cbb60e01b179052601754600554601054935163d3abc28b60e01b8152959650919490939182169263d3abc28b92611487929116908690600090600401611f07565b600060405180830381600087803b1580156114a157600080fd5b505af11580156114b5573d6000803e3d6000fd5b505050506040513d6000823e601f3d908101601f191682016040526114dd9190810190611cb1565b506114e6610825565b6115325760405162461bcd60e51b815260206004820152601760248201527f436c69666620506572696f64206e6f74207061737365640000000000000000006044820152606401610647565b61153a610844565b8311156115995760405162461bcd60e51b815260206004820152602760248201527f45786365656465642063757272656e742072656c657361626c6520746f6b656e60448201526608185b5bdd5b9d60ca1b6064820152608401610647565b6115a383826121bc565b601755601154601054604080516001600160a01b039283168152602081018790529190921691339188917f73f0fa8ea7077ea3457c220370d1eb9a4da896c2fe4021067b7c99c5073cf268910160405180910390a45050505050565b600054610100900460ff1661166a5760405162461bcd60e51b815260206004820152602b60248201527f496e697469616c697a61626c653a20636f6e7472616374206973206e6f74206960448201526a6e697469616c697a696e6760a81b6064820152608401610647565b60008160600135118061168f575061168560408201826120d2565b9050816080013511155b6116d35760405162461bcd60e51b8152602060048201526015602482015274125b9d985b1a5908185c1c1c9bdd995c881b1a5cdd605a1b6044820152606401610647565b600580546001600160a01b031916331790556116f26020820182611b16565b600380546001600160a01b0319166001600160a01b039290921691909117905561171f60a082018261211c565b61172b9160099161192a565b5061173960c082018261211c565b61174591600a9161192a565b50608081013560085560e0810135600d55610100810135600e5561177161014082016101208301611c96565b600b805460ff1916911515919091179055610140810135600c5561179d61018082016101608301611b16565b600f80546001600160a01b0319166001600160a01b03929092169190911790556020810135600455606081013560075560005b6117dd60408301836120d2565b90508110156118c9576001600660006117f960408601866120d2565b85818110611809576118096122f5565b905060200201602081019061181e9190611b16565b6001600160a01b0316815260208101919091526040908101600020805460ff1916921515929092179091557f4664777dbfbcb27de0f602e1da5d5a259992cd7edf5b29192929c96e8fd50def90611877908401846120d2565b83818110611887576118876122f5565b905060200201602081019061189c9190611b16565b6040516001600160a01b03909116815260200160405180910390a1806118c1816122ae565b9150506117d0565b5050565b82805482825590600052602060002090810192821561191a579160200282015b8281111561191a578251805161190a9184916020909101906119aa565b50916020019190600101906118ed565b50611926929150611a1e565b5090565b82805461193690612273565b90600052602060002090601f016020900481019282611958576000855561199e565b82601f106119715782800160ff1982351617855561199e565b8280016001018555821561199e579182015b8281111561199e578235825591602001919060010190611983565b50611926929150611a3b565b8280546119b690612273565b90600052602060002090601f0160209004810192826119d8576000855561199e565b82601f106119f157805160ff191683800117855561199e565b8280016001018555821561199e579182015b8281111561199e578251825591602001919060010190611a03565b80821115611926576000611a328282611a50565b50600101611a1e565b5b808211156119265760008155600101611a3c565b508054611a5c90612273565b6000825580601f10611a6c575050565b601f016020900490600052602060002090810190611a8a9190611a3b565b50565b80356001600160a01b0381168114611aa457600080fd5b919050565b80358015158114611aa457600080fd5b60008083601f840112611acb57600080fd5b50813567ffffffffffffffff811115611ae357600080fd5b602083019150836020828501011115611afb57600080fd5b9250929050565b803563ffffffff81168114611aa457600080fd5b600060208284031215611b2857600080fd5b611b3182611a8d565b9392505050565b600080600080600060808688031215611b5057600080fd5b67ffffffffffffffff8087351115611b6757600080fd5b8635870188601f820112611b7a57600080fd5b8181351115611b8b57611b8b61230b565b611b9b6020823560051b01612163565b8082358252602082019150602083018b6020853560051b8601011115611bc057600080fd5b60005b8435811015611c40578582351115611bda57600080fd5b813585018d603f820112611bed57600080fd5b6020810135611c03611bfe82612194565b612163565b8181528f6040838501011115611c1857600080fd5b8160408401602083013760006020928201830152865294850194929092019150600101611bc3565b5050809850505050611c5460208801611b02565b9450611c6260408801611aa9565b93508060608801351115611c7557600080fd5b50611c868760608801358801611ab9565b9598949750929550919392915050565b600060208284031215611ca857600080fd5b611b3182611aa9565b600060208284031215611cc357600080fd5b815167ffffffffffffffff811115611cda57600080fd5b8201601f81018413611ceb57600080fd5b8051611cf9611bfe82612194565b818152856020838501011115611d0e57600080fd5b611d1f82602083016020860161222c565b95945050505050565b600080600080600080600080610100898b031215611d4557600080fd5b883567ffffffffffffffff811115611d5c57600080fd5b8901610180818c031215611d6f57600080fd5b9750611d7d60208a01611a8d565b9650611d8b60408a01611a8d565b979a96995096976060810135975060808101359660a0820135965060c0820135955060e0909101359350915050565b600060208284031215611dcc57600080fd5b5035919050565b600060208284031215611de557600080fd5b5051919050565b600080600060408486031215611e0157600080fd5b83359250602084013567ffffffffffffffff811115611e1f57600080fd5b611e2b86828701611ab9565b9497909650939450505050565b600082825180855260208086019550808260051b84010181860160005b84811015611e8357601f19868403018952611e71838351611e90565b98840198925090830190600101611e55565b5090979650505050505050565b60008151808452611ea881602086016020860161222c565b601f01601f19169290920160200192915050565b60048110611eda57634e487b7160e01b600052602160045260246000fd5b9052565b81835281816020850137506000828201602090810191909152601f909101601f19169091010190565b6001600160a01b0384168152606060208201819052600090611f2b90830185611e90565b9050826040830152949350505050565b6001600160a01b0384168152604060208201819052600090611d1f9083018486611ede565b604081526000611f736040830185611e38565b905060018060a01b03831660208301529392505050565b60a081526000611f9d60a0830189611e38565b63ffffffff88166020840152611fb66040840188611ebc565b8281036060840152611fc9818688611ede565b91505060018060a01b0383166080830152979650505050505050565b6000602080830181845280855180835260408601915060408160051b870101925083870160005b8281101561203a57603f19888603018452612028858351611e90565b9450928501929085019060010161200c565b5092979650505050505050565b602081526000611b316020830184611e90565b60208082526022908201527f4578656375746f72206e6f742077686974656c697374656420696e2062756467604082015261195d60f21b606082015260800190565b85815260a081016120b06020830187611ebc565b63ffffffff949094166040820152911515606083015260809091015292915050565b6000808335601e198436030181126120e957600080fd5b83018035915067ffffffffffffffff82111561210457600080fd5b6020019150600581901b3603821315611afb57600080fd5b6000808335601e1984360301811261213357600080fd5b83018035915067ffffffffffffffff82111561214e57600080fd5b602001915036819003821315611afb57600080fd5b604051601f8201601f1916810167ffffffffffffffff8111828210171561218c5761218c61230b565b604052919050565b600067ffffffffffffffff8211156121ae576121ae61230b565b50601f01601f191660200190565b600082198211156121cf576121cf6122c9565b500190565b6000826121f157634e487b7160e01b600052601260045260246000fd5b500490565b6000816000190483118215151615612210576122106122c9565b500290565b600082821015612227576122276122c9565b500390565b60005b8381101561224757818101518382015260200161222f565b83811115612256576000848401525b50505050565b60008161226b5761226b6122c9565b506000190190565b600181811c9082168061228757607f821691505b602082108114156122a857634e487b7160e01b600052602260045260246000fd5b50919050565b60006000198214156122c2576122c26122c9565b5060010190565b634e487b7160e01b600052601160045260246000fd5b634e487b7160e01b600052602160045260246000fd5b634e487b7160e01b600052603260045260246000fd5b634e487b7160e01b600052604160045260246000fdfea26469706673582212209788c18648826094e2cba472f058b384dd4204412af091f370d83d5b17b3d36464736f6c63430008070033",
    "linkReferences": {},
    "deployedLinkReferences": {}
}