{
  "address": "0xB1b85C89A56FA93e9cbf367523099F6ec739de61",
  "abi": [
    {
      "inputs": [],
      "stateMutability": "nonpayable",
      "type": "constructor"
    },
    {
      "inputs": [
        {
          "internalType": "uint256",
          "name": "count1",
          "type": "uint256"
        },
        {
          "internalType": "uint256",
          "name": "count2",
          "type": "uint256"
        }
      ],
      "name": "InputLengthNotMatch",
      "type": "error"
    },
    {
      "inputs": [
        {
          "internalType": "address",
          "name": "priceGateway",
          "type": "address"
        }
      ],
      "name": "OwnerNotPermit",
      "type": "error"
    },
    {
      "inputs": [
        {
          "internalType": "address",
          "name": "asset",
          "type": "address"
        },
        {
          "internalType": "address",
          "name": "base",
          "type": "address"
        }
      ],
      "name": "PairNotSupport",
      "type": "error"
    },
    {
      "inputs": [
        {
          "internalType": "address",
          "name": "priceGateway",
          "type": "address"
        }
      ],
      "name": "PriceGatewayExist",
      "type": "error"
    },
    {
      "inputs": [
        {
          "internalType": "address",
          "name": "priceGateway",
          "type": "address"
        }
      ],
      "name": "PriceGatewayOmit",
      "type": "error"
    },
    {
      "anonymous": false,
      "inputs": [
        {
          "indexed": false,
          "internalType": "address",
          "name": "priceGateway",
          "type": "address"
        }
      ],
      "name": "AddPriceGateway",
      "type": "event"
    },
    {
      "anonymous": false,
      "inputs": [
        {
          "indexed": false,
          "internalType": "uint8",
          "name": "version",
          "type": "uint8"
        }
      ],
      "name": "Initialized",
      "type": "event"
    },
    {
      "anonymous": false,
      "inputs": [
        {
          "indexed": true,
          "internalType": "address",
          "name": "previousOwner",
          "type": "address"
        },
        {
          "indexed": true,
          "internalType": "address",
          "name": "newOwner",
          "type": "address"
        }
      ],
      "name": "OwnershipTransferred",
      "type": "event"
    },
    {
      "inputs": [
        {
          "internalType": "address",
          "name": "priceGateway",
          "type": "address"
        }
      ],
      "name": "addPriceGateway",
      "outputs": [],
      "stateMutability": "nonpayable",
      "type": "function"
    },
    {
      "inputs": [
        {
          "internalType": "address",
          "name": "asset",
          "type": "address"
        },
        {
          "internalType": "address",
          "name": "base",
          "type": "address"
        },
        {
          "internalType": "uint256",
          "name": "amount",
          "type": "uint256"
        }
      ],
      "name": "assetPrice",
      "outputs": [
        {
          "internalType": "uint256",
          "name": "",
          "type": "uint256"
        }
      ],
      "stateMutability": "view",
      "type": "function"
    },
    {
      "inputs": [],
      "name": "defaultPriceGateway",
      "outputs": [
        {
          "internalType": "address",
          "name": "",
          "type": "address"
        }
      ],
      "stateMutability": "view",
      "type": "function"
    },
    {
      "inputs": [
        {
          "internalType": "address[]",
          "name": "_priceGateways",
          "type": "address[]"
        }
      ],
      "name": "initialize",
      "outputs": [],
      "stateMutability": "nonpayable",
      "type": "function"
    },
    {
      "inputs": [
        {
          "internalType": "address",
          "name": "asset",
          "type": "address"
        },
        {
          "internalType": "address",
          "name": "base",
          "type": "address"
        }
      ],
      "name": "isSupportedPair",
      "outputs": [
        {
          "internalType": "bool",
          "name": "",
          "type": "bool"
        }
      ],
      "stateMutability": "view",
      "type": "function"
    },
    {
      "inputs": [],
      "name": "owner",
      "outputs": [
        {
          "internalType": "address",
          "name": "",
          "type": "address"
        }
      ],
      "stateMutability": "view",
      "type": "function"
    },
    {
      "inputs": [
        {
          "internalType": "address",
          "name": "",
          "type": "address"
        }
      ],
      "name": "priceGateways",
      "outputs": [
        {
          "internalType": "bool",
          "name": "",
          "type": "bool"
        }
      ],
      "stateMutability": "view",
      "type": "function"
    },
    {
      "inputs": [],
      "name": "renounceOwnership",
      "outputs": [],
      "stateMutability": "nonpayable",
      "type": "function"
    },
    {
      "inputs": [
        {
          "internalType": "address[]",
          "name": "_assets",
          "type": "address[]"
        },
        {
          "internalType": "address[]",
          "name": "_bases",
          "type": "address[]"
        },
        {
          "internalType": "address",
          "name": "priceGateway",
          "type": "address"
        }
      ],
      "name": "setTokenPairPriceGatewayMap",
      "outputs": [],
      "stateMutability": "nonpayable",
      "type": "function"
    },
    {
      "inputs": [
        {
          "internalType": "address",
          "name": "",
          "type": "address"
        },
        {
          "internalType": "address",
          "name": "",
          "type": "address"
        }
      ],
      "name": "tokenPairPriceGatewayMap",
      "outputs": [
        {
          "internalType": "address",
          "name": "",
          "type": "address"
        }
      ],
      "stateMutability": "view",
      "type": "function"
    },
    {
      "inputs": [
        {
          "internalType": "address",
          "name": "newOwner",
          "type": "address"
        }
      ],
      "name": "transferOwnership",
      "outputs": [],
      "stateMutability": "nonpayable",
      "type": "function"
    }
  ],
  "transactionHash": "0x39f7c2733f8ec410e2e2ae225af0e206f0154744d5e02f71cdea3789850ece6a",
  "args": [],
  "numDeployments": 1,
  "solcInputHash": "620a3fefea25e6b6df861fc5d6b8881e",
  "bytecode": "0x608060405234801561001057600080fd5b5061001961001e565b6100de565b600054610100900460ff161561008a5760405162461bcd60e51b815260206004820152602760248201527f496e697469616c697a61626c653a20636f6e747261637420697320696e697469604482015266616c697a696e6760c81b606482015260840160405180910390fd5b60005460ff90811610156100dc576000805460ff191660ff9081179091556040519081527f7f26b83ff96e1f2b6a682f133852f6798a09c465da95921460cefb38474024989060200160405180910390a15b565b610ed0806100ed6000396000f3fe608060405234801561001057600080fd5b50600436106100a95760003560e01c8063a224cee711610071578063a224cee71461013b578063c949d3e61461014e578063cbec417714610182578063ce58da3314610195578063e019c23c146101a8578063f2fde38b146101c957600080fd5b806344e9506d146100ae578063599efac5146100c3578063715018a6146100d65780638da5cb5b146100de5780639113376414610108575b600080fd5b6100c16100bc366004610c72565b6101dc565b005b6100c16100d1366004610be8565b6101f8565b6100c161020c565b6033546001600160a01b03165b6040516001600160a01b0390911681526020015b60405180910390f35b61012b610116366004610be8565b60666020526000908152604090205460ff1681565b60405190151581526020016100ff565b6100c1610149366004610cf3565b610220565b6100eb61015c366004610c03565b60676020908152600092835260408084209091529082529020546001600160a01b031681565b6065546100eb906001600160a01b031681565b61012b6101a3366004610c03565b6103be565b6101bb6101b6366004610c36565b6104b4565b6040519081526020016100ff565b6100c16101d7366004610be8565b610624565b6101e461069a565b6101f185858585856106f4565b5050505050565b61020061069a565b61020981610986565b50565b61021461069a565b61021e6000610ad4565b565b600054610100900460ff16158080156102405750600054600160ff909116105b8061025a5750303b15801561025a575060005460ff166001145b6102c25760405162461bcd60e51b815260206004820152602e60248201527f496e697469616c697a61626c653a20636f6e747261637420697320616c72656160448201526d191e481a5b9a5d1a585b1a5e995960921b60648201526084015b60405180910390fd5b6000805460ff1916600117905580156102e5576000805461ff0019166101001790555b6102ed610b26565b60005b8251811015610373578061033f5782818151811061031057610310610e6e565b6020026020010151606560006101000a8154816001600160a01b0302191690836001600160a01b031602179055505b61036183828151811061035457610354610e6e565b60200260200101516101f8565b8061036b81610e45565b9150506102f0565b5080156103ba576000805461ff0019169055604051600181527f7f26b83ff96e1f2b6a682f133852f6798a09c465da95921460cefb38474024989060200160405180910390a15b5050565b6000816001600160a01b0316836001600160a01b03161480156103e957506001600160a01b03831615155b156103f6575060016104ae565b6001600160a01b0383811660009081526067602090815260408083208685168452909152902054161515806104ab575060655460405163ce58da3360e01b81526001600160a01b03858116600483015284811660248301529091169063ce58da339060440160206040518083038186803b15801561047357600080fd5b505afa158015610487573d6000803e3d6000fd5b505050506040513d601f19601f820116820180604052508101906104ab9190610dbf565b90505b92915050565b6000826001600160a01b0316846001600160a01b03161480156104df57506001600160a01b03841615155b156104eb57508061061d565b6104f584846103be565b61052557604051633d487fe560e11b81526001600160a01b038086166004830152841660248201526044016102b9565b6001600160a01b0384811660009081526067602090815260408083208785168452909152812054909116610564576065546001600160a01b031661058d565b6001600160a01b0380861660009081526067602090815260408083208885168452909152902054165b604051633806708f60e21b81526001600160a01b0387811660048301528681166024830152604482018690529192509082169063e019c23c9060640160206040518083038186803b1580156105e157600080fd5b505afa1580156105f5573d6000803e3d6000fd5b505050506040513d601f19601f820116820180604052508101906106199190610de1565b9150505b9392505050565b61062c61069a565b6001600160a01b0381166106915760405162461bcd60e51b815260206004820152602660248201527f4f776e61626c653a206e6577206f776e657220697320746865207a65726f206160448201526564647265737360d01b60648201526084016102b9565b61020981610ad4565b6033546001600160a01b0316331461021e5760405162461bcd60e51b815260206004820181905260248201527f4f776e61626c653a2063616c6c6572206973206e6f7420746865206f776e657260448201526064016102b9565b6001600160a01b03811660009081526066602052604090205460ff1661073857604051637bf95b7b60e11b81526001600160a01b03821660048201526024016102b9565b838214610762576040516341a0572360e01b815260048101859052602481018390526044016102b9565b60005b8481101561097e57816001600160a01b031663ce58da3387878481811061078e5761078e610e6e565b90506020020160208101906107a39190610be8565b8686858181106107b5576107b5610e6e565b90506020020160208101906107ca9190610be8565b6040516001600160e01b031960e085901b1681526001600160a01b0392831660048201529116602482015260440160206040518083038186803b15801561081057600080fd5b505afa158015610824573d6000803e3d6000fd5b505050506040513d601f19601f820116820180604052508101906108489190610dbf565b6108c65785858281811061085e5761085e610e6e565b90506020020160208101906108739190610be8565b84848381811061088557610885610e6e565b905060200201602081019061089a9190610be8565b604051633d487fe560e11b81526001600160a01b039283166004820152911660248201526044016102b9565b81606760008888858181106108dd576108dd610e6e565b90506020020160208101906108f29190610be8565b6001600160a01b03166001600160a01b03168152602001908152602001600020600086868581811061092657610926610e6e565b905060200201602081019061093b9190610be8565b6001600160a01b039081168252602082019290925260400160002080546001600160a01b031916929091169190911790558061097681610e45565b915050610765565b505050505050565b6033546001600160a01b0316604051631dafcd9f60e11b81526001600160a01b0383811660048301529190911690633b5f9b3e9060240160206040518083038186803b1580156109d557600080fd5b505afa1580156109e9573d6000803e3d6000fd5b505050506040513d601f19601f82011682018060405250810190610a0d9190610dbf565b610a3557604051630ba1dc7b60e41b81526001600160a01b03821660048201526024016102b9565b6001600160a01b03811660009081526066602052604090205460ff1615610a7a576040516309241c2360e11b81526001600160a01b03821660048201526024016102b9565b6001600160a01b038116600081815260666020908152604091829020805460ff1916600117905590519182527f81626d1aa3487c965b76754ec1ae5c89b1e06ed8a7de45aa92bd8150af6bb8f0910160405180910390a150565b603380546001600160a01b038381166001600160a01b0319831681179093556040519116919082907f8be0079c531659141344cd1fd0a4f28419497f9722a3daafe3b4186f6b6457e090600090a35050565b600054610100900460ff16610b4d5760405162461bcd60e51b81526004016102b990610dfa565b61021e600054610100900460ff16610b775760405162461bcd60e51b81526004016102b990610dfa565b61021e33610ad4565b80356001600160a01b0381168114610b9757600080fd5b919050565b60008083601f840112610bae57600080fd5b50813567ffffffffffffffff811115610bc657600080fd5b6020830191508360208260051b8501011115610be157600080fd5b9250929050565b600060208284031215610bfa57600080fd5b6104ab82610b80565b60008060408385031215610c1657600080fd5b610c1f83610b80565b9150610c2d60208401610b80565b90509250929050565b600080600060608486031215610c4b57600080fd5b610c5484610b80565b9250610c6260208501610b80565b9150604084013590509250925092565b600080600080600060608688031215610c8a57600080fd5b853567ffffffffffffffff80821115610ca257600080fd5b610cae89838a01610b9c565b90975095506020880135915080821115610cc757600080fd5b50610cd488828901610b9c565b9094509250610ce7905060408701610b80565b90509295509295909350565b60006020808385031215610d0657600080fd5b823567ffffffffffffffff80821115610d1e57600080fd5b818501915085601f830112610d3257600080fd5b813581811115610d4457610d44610e84565b8060051b604051601f19603f83011681018181108582111715610d6957610d69610e84565b604052828152858101935084860182860187018a1015610d8857600080fd5b600095505b83861015610db257610d9e81610b80565b855260019590950194938601938601610d8d565b5098975050505050505050565b600060208284031215610dd157600080fd5b8151801515811461061d57600080fd5b600060208284031215610df357600080fd5b5051919050565b6020808252602b908201527f496e697469616c697a61626c653a20636f6e7472616374206973206e6f74206960408201526a6e697469616c697a696e6760a81b606082015260800190565b6000600019821415610e6757634e487b7160e01b600052601160045260246000fd5b5060010190565b634e487b7160e01b600052603260045260246000fd5b634e487b7160e01b600052604160045260246000fdfea26469706673582212208e46e02687d9e277ac5d1c5b8fd0c56ffe2c4617e2bf4c2df23a22f152f34b6964736f6c63430008070033",
  "devdoc": {
    "details": "The contract is interacted with priceResolver.solCustom price gateway is allowed, but need to implement priceGateway.sol and set by governAccountingSystem implemented price gateway since it will handle set price by govern",
    "kind": "dev",
    "methods": {
      "addPriceGateway(address)": {
        "details": "This function must be called by govern, will logic occur in internal function",
        "params": {
          "priceGateway": "price Gateway address that want to whitelist"
        }
      },
      "assetPrice(address,address,uint256)": {
        "details": "accept ETH / USD as Asset / Base Token",
        "params": {
          "amount": "Asset Amount in term of Asset decimal",
          "asset": "Asset token address",
          "base": "Base token address"
        }
      },
      "constructor": {
        "custom:oz-upgrades-unsafe-allow": "constructor"
      },
      "isSupportedPair(address,address)": {
        "details": "This function not really check in gateway,since the checking will be done when setting tokenPairPriceGatewayMap",
        "params": {
          "asset": "Asset token address",
          "base": "Base token address"
        },
        "returns": {
          "_0": "Bool Result of the checking"
        }
      },
      "owner()": {
        "details": "Returns the address of the current owner."
      },
      "renounceOwnership()": {
        "details": "Leaves the contract without owner. It will not be possible to call `onlyOwner` functions anymore. Can only be called by the current owner. NOTE: Renouncing ownership will leave the contract without an owner, thereby removing any functionality that is only available to the owner."
      },
      "setTokenPairPriceGatewayMap(address[],address[],address)": {
        "details": "This function must be called by govern, will logic occur in internal function",
        "params": {
          "_assets": "Asset List that supported by price gateway",
          "_bases": "Base token List that supported by price gateway",
          "priceGateway": "Price gateway address"
        }
      },
      "transferOwnership(address)": {
        "details": "Transfers ownership of the contract to a new account (`newOwner`). Can only be called by the current owner."
      }
    },
    "title": "Dao Account System",
    "version": 1
  },
  "userdoc": {
    "kind": "user",
    "methods": {
      "addPriceGateway(address)": {
        "notice": "Add the price gateway to whitelist"
      },
      "assetPrice(address,address,uint256)": {
        "notice": "Provide Asset Price"
      },
      "isSupportedPair(address,address)": {
        "notice": "Check the token pair is support or not"
      },
      "setTokenPairPriceGatewayMap(address[],address[],address)": {
        "notice": "Set the price gateway which will handle the pairs of price"
      }
    },
    "notice": "This contract helps managing price gateway and allow set price by govern",
    "version": 1
  },
  "storageLayout": {
    "storage": [
      {
        "astId": 3247,
        "contract": "contracts/AccountingSystem.sol:AccountingSystem",
        "label": "_initialized",
        "offset": 0,
        "slot": "0",
        "type": "t_uint8"
      },
      {
        "astId": 3250,
        "contract": "contracts/AccountingSystem.sol:AccountingSystem",
        "label": "_initializing",
        "offset": 1,
        "slot": "0",
        "type": "t_bool"
      },
      {
        "astId": 8642,
        "contract": "contracts/AccountingSystem.sol:AccountingSystem",
        "label": "__gap",
        "offset": 0,
        "slot": "1",
        "type": "t_array(t_uint256)50_storage"
      },
      {
        "astId": 541,
        "contract": "contracts/AccountingSystem.sol:AccountingSystem",
        "label": "_owner",
        "offset": 0,
        "slot": "51",
        "type": "t_address"
      },
      {
        "astId": 661,
        "contract": "contracts/AccountingSystem.sol:AccountingSystem",
        "label": "__gap",
        "offset": 0,
        "slot": "52",
        "type": "t_array(t_uint256)49_storage"
      },
      {
        "astId": 20803,
        "contract": "contracts/AccountingSystem.sol:AccountingSystem",
        "label": "defaultPriceGateway",
        "offset": 0,
        "slot": "101",
        "type": "t_address"
      },
      {
        "astId": 20807,
        "contract": "contracts/AccountingSystem.sol:AccountingSystem",
        "label": "priceGateways",
        "offset": 0,
        "slot": "102",
        "type": "t_mapping(t_address,t_bool)"
      },
      {
        "astId": 20813,
        "contract": "contracts/AccountingSystem.sol:AccountingSystem",
        "label": "tokenPairPriceGatewayMap",
        "offset": 0,
        "slot": "103",
        "type": "t_mapping(t_address,t_mapping(t_address,t_address))"
      },
      {
        "astId": 21168,
        "contract": "contracts/AccountingSystem.sol:AccountingSystem",
        "label": "__gap",
        "offset": 0,
        "slot": "104",
        "type": "t_array(t_uint256)50_storage"
      }
    ],
    "types": {
      "t_address": {
        "encoding": "inplace",
        "label": "address",
        "numberOfBytes": "20"
      },
      "t_array(t_uint256)49_storage": {
        "base": "t_uint256",
        "encoding": "inplace",
        "label": "uint256[49]",
        "numberOfBytes": "1568"
      },
      "t_array(t_uint256)50_storage": {
        "base": "t_uint256",
        "encoding": "inplace",
        "label": "uint256[50]",
        "numberOfBytes": "1600"
      },
      "t_bool": {
        "encoding": "inplace",
        "label": "bool",
        "numberOfBytes": "1"
      },
      "t_mapping(t_address,t_address)": {
        "encoding": "mapping",
        "key": "t_address",
        "label": "mapping(address => address)",
        "numberOfBytes": "32",
        "value": "t_address"
      },
      "t_mapping(t_address,t_bool)": {
        "encoding": "mapping",
        "key": "t_address",
        "label": "mapping(address => bool)",
        "numberOfBytes": "32",
        "value": "t_bool"
      },
      "t_mapping(t_address,t_mapping(t_address,t_address))": {
        "encoding": "mapping",
        "key": "t_address",
        "label": "mapping(address => mapping(address => address))",
        "numberOfBytes": "32",
        "value": "t_mapping(t_address,t_address)"
      },
      "t_uint256": {
        "encoding": "inplace",
        "label": "uint256",
        "numberOfBytes": "32"
      },
      "t_uint8": {
        "encoding": "inplace",
        "label": "uint8",
        "numberOfBytes": "1"
      }
    }
  }
}