{
  "address": "0xe44F5219B8A33602275D5c0d219b79a41c42B16C",
  "abi": [
    {
      "inputs": [],
      "stateMutability": "nonpayable",
      "type": "constructor"
    },
    {
      "inputs": [
        {
          "internalType": "address",
          "name": "token",
          "type": "address"
        }
      ],
      "name": "AdmissionTokenAlreadyExists",
      "type": "error"
    },
    {
      "inputs": [],
      "name": "AdmissionTokenLimitExceeds",
      "type": "error"
    },
    {
      "inputs": [],
      "name": "AdmissionTokenNotExists",
      "type": "error"
    },
    {
      "inputs": [
        {
          "internalType": "address",
          "name": "member",
          "type": "address"
        }
      ],
      "name": "InsufficientAdmissionToken",
      "type": "error"
    },
    {
      "inputs": [
        {
          "internalType": "address",
          "name": "_contract",
          "type": "address"
        }
      ],
      "name": "InvalidContract",
      "type": "error"
    },
    {
      "inputs": [
        {
          "internalType": "address",
          "name": "member",
          "type": "address"
        }
      ],
      "name": "MemberAlreadyExists",
      "type": "error"
    },
    {
      "inputs": [],
      "name": "MemberLimitExceeds",
      "type": "error"
    },
    {
      "inputs": [],
      "name": "OwnerLiquidPoolBalanceNonZero",
      "type": "error"
    },
    {
      "inputs": [],
      "name": "OwnerMemberTokenRequired",
      "type": "error"
    },
    {
      "inputs": [],
      "name": "TransferNotAllow",
      "type": "error"
    },
    {
      "inputs": [],
      "name": "Unauthorized",
      "type": "error"
    },
    {
      "anonymous": false,
      "inputs": [
        {
          "indexed": false,
          "internalType": "address",
          "name": "token",
          "type": "address"
        },
        {
          "indexed": false,
          "internalType": "uint256",
          "name": "minTokenToAdmit",
          "type": "uint256"
        },
        {
          "indexed": false,
          "internalType": "uint256",
          "name": "tokenId",
          "type": "uint256"
        },
        {
          "indexed": false,
          "internalType": "bool",
          "name": "isMemberToken",
          "type": "bool"
        }
      ],
      "name": "AddAdmissionToken",
      "type": "event"
    },
    {
      "anonymous": false,
      "inputs": [
        {
          "indexed": true,
          "internalType": "address",
          "name": "owner",
          "type": "address"
        },
        {
          "indexed": true,
          "internalType": "address",
          "name": "approved",
          "type": "address"
        },
        {
          "indexed": true,
          "internalType": "uint256",
          "name": "tokenId",
          "type": "uint256"
        }
      ],
      "name": "Approval",
      "type": "event"
    },
    {
      "anonymous": false,
      "inputs": [
        {
          "indexed": true,
          "internalType": "address",
          "name": "owner",
          "type": "address"
        },
        {
          "indexed": true,
          "internalType": "address",
          "name": "operator",
          "type": "address"
        },
        {
          "indexed": false,
          "internalType": "bool",
          "name": "approved",
          "type": "bool"
        }
      ],
      "name": "ApprovalForAll",
      "type": "event"
    },
    {
      "anonymous": false,
      "inputs": [
        {
          "indexed": false,
          "internalType": "address",
          "name": "to",
          "type": "address"
        }
      ],
      "name": "CreateMember",
      "type": "event"
    },
    {
      "anonymous": false,
      "inputs": [
        {
          "indexed": true,
          "internalType": "address",
          "name": "delegator",
          "type": "address"
        },
        {
          "indexed": true,
          "internalType": "address",
          "name": "fromDelegate",
          "type": "address"
        },
        {
          "indexed": true,
          "internalType": "address",
          "name": "toDelegate",
          "type": "address"
        }
      ],
      "name": "DelegateChanged",
      "type": "event"
    },
    {
      "anonymous": false,
      "inputs": [
        {
          "indexed": true,
          "internalType": "address",
          "name": "delegate",
          "type": "address"
        },
        {
          "indexed": false,
          "internalType": "uint256",
          "name": "previousBalance",
          "type": "uint256"
        },
        {
          "indexed": false,
          "internalType": "uint256",
          "name": "newBalance",
          "type": "uint256"
        }
      ],
      "name": "DelegateVotesChanged",
      "type": "event"
    },
    {
      "anonymous": false,
      "inputs": [
        {
          "indexed": false,
          "internalType": "uint8",
          "name": "version",
          "type": "uint8"
        }
      ],
      "name": "Initialized",
      "type": "event"
    },
    {
      "anonymous": false,
      "inputs": [
        {
          "indexed": true,
          "internalType": "address",
          "name": "previousOwner",
          "type": "address"
        },
        {
          "indexed": true,
          "internalType": "address",
          "name": "newOwner",
          "type": "address"
        }
      ],
      "name": "OwnershipTransferred",
      "type": "event"
    },
    {
      "anonymous": false,
      "inputs": [
        {
          "indexed": false,
          "internalType": "address",
          "name": "token",
          "type": "address"
        }
      ],
      "name": "RemoveAdmissionToken",
      "type": "event"
    },
    {
      "anonymous": false,
      "inputs": [
        {
          "indexed": false,
          "internalType": "address",
          "name": "member",
          "type": "address"
        },
        {
          "indexed": false,
          "internalType": "uint256",
          "name": "tokenId",
          "type": "uint256"
        }
      ],
      "name": "RemoveMember",
      "type": "event"
    },
    {
      "anonymous": false,
      "inputs": [
        {
          "indexed": true,
          "internalType": "address",
          "name": "from",
          "type": "address"
        },
        {
          "indexed": true,
          "internalType": "address",
          "name": "to",
          "type": "address"
        },
        {
          "indexed": true,
          "internalType": "uint256",
          "name": "tokenId",
          "type": "uint256"
        }
      ],
      "name": "Transfer",
      "type": "event"
    },
    {
      "inputs": [],
      "name": "DOMAIN_SEPARATOR",
      "outputs": [
        {
          "internalType": "bytes32",
          "name": "",
          "type": "bytes32"
        }
      ],
      "stateMutability": "view",
      "type": "function"
    },
    {
      "inputs": [
        {
          "internalType": "address",
          "name": "token",
          "type": "address"
        },
        {
          "internalType": "uint256",
          "name": "minTokenToAdmit",
          "type": "uint256"
        },
        {
          "internalType": "uint256",
          "name": "tokenId",
          "type": "uint256"
        }
      ],
      "name": "addAdmissionToken",
      "outputs": [],
      "stateMutability": "nonpayable",
      "type": "function"
    },
    {
      "inputs": [
        {
          "internalType": "address",
          "name": "",
          "type": "address"
        }
      ],
      "name": "admissionTokenSetting",
      "outputs": [
        {
          "internalType": "uint256",
          "name": "minTokenToAdmit",
          "type": "uint256"
        },
        {
          "internalType": "uint256",
          "name": "tokenId",
          "type": "uint256"
        },
        {
          "internalType": "bool",
          "name": "active",
          "type": "bool"
        },
        {
          "internalType": "uint256",
          "name": "index",
          "type": "uint256"
        }
      ],
      "stateMutability": "view",
      "type": "function"
    },
    {
      "inputs": [
        {
          "internalType": "uint256",
          "name": "",
          "type": "uint256"
        }
      ],
      "name": "admissionTokens",
      "outputs": [
        {
          "internalType": "address",
          "name": "",
          "type": "address"
        }
      ],
      "stateMutability": "view",
      "type": "function"
    },
    {
      "inputs": [
        {
          "internalType": "address",
          "name": "to",
          "type": "address"
        },
        {
          "internalType": "uint256",
          "name": "tokenId",
          "type": "uint256"
        }
      ],
      "name": "approve",
      "outputs": [],
      "stateMutability": "nonpayable",
      "type": "function"
    },
    {
      "inputs": [
        {
          "internalType": "address",
          "name": "owner",
          "type": "address"
        }
      ],
      "name": "balanceOf",
      "outputs": [
        {
          "internalType": "uint256",
          "name": "",
          "type": "uint256"
        }
      ],
      "stateMutability": "view",
      "type": "function"
    },
    {
      "inputs": [],
      "name": "countAdmissionTokens",
      "outputs": [
        {
          "internalType": "uint256",
          "name": "",
          "type": "uint256"
        }
      ],
      "stateMutability": "view",
      "type": "function"
    },
    {
      "inputs": [
        {
          "internalType": "address",
          "name": "to",
          "type": "address"
        }
      ],
      "name": "createMember",
      "outputs": [],
      "stateMutability": "nonpayable",
      "type": "function"
    },
    {
      "inputs": [
        {
          "internalType": "address",
          "name": "delegatee",
          "type": "address"
        }
      ],
      "name": "delegate",
      "outputs": [],
      "stateMutability": "nonpayable",
      "type": "function"
    },
    {
      "inputs": [
        {
          "internalType": "address",
          "name": "delegatee",
          "type": "address"
        },
        {
          "internalType": "uint256",
          "name": "nonce",
          "type": "uint256"
        },
        {
          "internalType": "uint256",
          "name": "expiry",
          "type": "uint256"
        },
        {
          "internalType": "uint8",
          "name": "v",
          "type": "uint8"
        },
        {
          "internalType": "bytes32",
          "name": "r",
          "type": "bytes32"
        },
        {
          "internalType": "bytes32",
          "name": "s",
          "type": "bytes32"
        }
      ],
      "name": "delegateBySig",
      "outputs": [],
      "stateMutability": "nonpayable",
      "type": "function"
    },
    {
      "inputs": [
        {
          "internalType": "address",
          "name": "account",
          "type": "address"
        }
      ],
      "name": "delegates",
      "outputs": [
        {
          "internalType": "address",
          "name": "",
          "type": "address"
        }
      ],
      "stateMutability": "view",
      "type": "function"
    },
    {
      "inputs": [
        {
          "internalType": "uint256",
          "name": "tokenId",
          "type": "uint256"
        }
      ],
      "name": "getApproved",
      "outputs": [
        {
          "internalType": "address",
          "name": "",
          "type": "address"
        }
      ],
      "stateMutability": "view",
      "type": "function"
    },
    {
      "inputs": [
        {
          "internalType": "uint256",
          "name": "blockNumber",
          "type": "uint256"
        }
      ],
      "name": "getPastTotalSupply",
      "outputs": [
        {
          "internalType": "uint256",
          "name": "",
          "type": "uint256"
        }
      ],
      "stateMutability": "view",
      "type": "function"
    },
    {
      "inputs": [
        {
          "internalType": "address",
          "name": "account",
          "type": "address"
        },
        {
          "internalType": "uint256",
          "name": "blockNumber",
          "type": "uint256"
        }
      ],
      "name": "getPastVotes",
      "outputs": [
        {
          "internalType": "uint256",
          "name": "",
          "type": "uint256"
        }
      ],
      "stateMutability": "view",
      "type": "function"
    },
    {
      "inputs": [
        {
          "internalType": "address",
          "name": "account",
          "type": "address"
        }
      ],
      "name": "getVotes",
      "outputs": [
        {
          "internalType": "uint256",
          "name": "",
          "type": "uint256"
        }
      ],
      "stateMutability": "view",
      "type": "function"
    },
    {
      "inputs": [
        {
          "internalType": "string",
          "name": "_name",
          "type": "string"
        },
        {
          "internalType": "uint256",
          "name": "_maxMemberLimit",
          "type": "uint256"
        }
      ],
      "name": "initialize",
      "outputs": [],
      "stateMutability": "nonpayable",
      "type": "function"
    },
    {
      "inputs": [
        {
          "internalType": "address",
          "name": "owner",
          "type": "address"
        },
        {
          "internalType": "address",
          "name": "operator",
          "type": "address"
        }
      ],
      "name": "isApprovedForAll",
      "outputs": [
        {
          "internalType": "bool",
          "name": "",
          "type": "bool"
        }
      ],
      "stateMutability": "view",
      "type": "function"
    },
    {
      "inputs": [
        {
          "internalType": "address",
          "name": "",
          "type": "address"
        }
      ],
      "name": "isMember",
      "outputs": [
        {
          "internalType": "bool",
          "name": "",
          "type": "bool"
        }
      ],
      "stateMutability": "view",
      "type": "function"
    },
    {
      "inputs": [
        {
          "internalType": "address",
          "name": "account",
          "type": "address"
        }
      ],
      "name": "isPassAdmissionToken",
      "outputs": [
        {
          "internalType": "bool",
          "name": "",
          "type": "bool"
        }
      ],
      "stateMutability": "view",
      "type": "function"
    },
    {
      "inputs": [],
      "name": "maxMemberLimit",
      "outputs": [
        {
          "internalType": "uint256",
          "name": "",
          "type": "uint256"
        }
      ],
      "stateMutability": "view",
      "type": "function"
    },
    {
      "inputs": [],
      "name": "name",
      "outputs": [
        {
          "internalType": "string",
          "name": "",
          "type": "string"
        }
      ],
      "stateMutability": "view",
      "type": "function"
    },
    {
      "inputs": [
        {
          "internalType": "address",
          "name": "owner",
          "type": "address"
        }
      ],
      "name": "nonces",
      "outputs": [
        {
          "internalType": "uint256",
          "name": "",
          "type": "uint256"
        }
      ],
      "stateMutability": "view",
      "type": "function"
    },
    {
      "inputs": [],
      "name": "owner",
      "outputs": [
        {
          "internalType": "address",
          "name": "",
          "type": "address"
        }
      ],
      "stateMutability": "view",
      "type": "function"
    },
    {
      "inputs": [
        {
          "internalType": "uint256",
          "name": "tokenId",
          "type": "uint256"
        }
      ],
      "name": "ownerOf",
      "outputs": [
        {
          "internalType": "address",
          "name": "",
          "type": "address"
        }
      ],
      "stateMutability": "view",
      "type": "function"
    },
    {
      "inputs": [
        {
          "internalType": "uint256",
          "name": "tokenId",
          "type": "uint256"
        }
      ],
      "name": "quit",
      "outputs": [],
      "stateMutability": "nonpayable",
      "type": "function"
    },
    {
      "inputs": [
        {
          "internalType": "address",
          "name": "token",
          "type": "address"
        }
      ],
      "name": "removeAdmissionToken",
      "outputs": [],
      "stateMutability": "nonpayable",
      "type": "function"
    },
    {
      "inputs": [],
      "name": "renounceOwnership",
      "outputs": [],
      "stateMutability": "nonpayable",
      "type": "function"
    },
    {
      "inputs": [
        {
          "internalType": "address",
          "name": "from",
          "type": "address"
        },
        {
          "internalType": "address",
          "name": "to",
          "type": "address"
        },
        {
          "internalType": "uint256",
          "name": "tokenId",
          "type": "uint256"
        }
      ],
      "name": "safeTransferFrom",
      "outputs": [],
      "stateMutability": "nonpayable",
      "type": "function"
    },
    {
      "inputs": [
        {
          "internalType": "address",
          "name": "from",
          "type": "address"
        },
        {
          "internalType": "address",
          "name": "to",
          "type": "address"
        },
        {
          "internalType": "uint256",
          "name": "tokenId",
          "type": "uint256"
        },
        {
          "internalType": "bytes",
          "name": "data",
          "type": "bytes"
        }
      ],
      "name": "safeTransferFrom",
      "outputs": [],
      "stateMutability": "nonpayable",
      "type": "function"
    },
    {
      "inputs": [
        {
          "internalType": "address",
          "name": "operator",
          "type": "address"
        },
        {
          "internalType": "bool",
          "name": "approved",
          "type": "bool"
        }
      ],
      "name": "setApprovalForAll",
      "outputs": [],
      "stateMutability": "nonpayable",
      "type": "function"
    },
    {
      "inputs": [
        {
          "internalType": "uint256",
          "name": "minTokenToAdmit",
          "type": "uint256"
        }
      ],
      "name": "setMemberTokenAsAdmissionToken",
      "outputs": [],
      "stateMutability": "nonpayable",
      "type": "function"
    },
    {
      "inputs": [
        {
          "internalType": "bytes4",
          "name": "interfaceId",
          "type": "bytes4"
        }
      ],
      "name": "supportsInterface",
      "outputs": [
        {
          "internalType": "bool",
          "name": "",
          "type": "bool"
        }
      ],
      "stateMutability": "view",
      "type": "function"
    },
    {
      "inputs": [],
      "name": "symbol",
      "outputs": [
        {
          "internalType": "string",
          "name": "",
          "type": "string"
        }
      ],
      "stateMutability": "view",
      "type": "function"
    },
    {
      "inputs": [
        {
          "internalType": "uint256",
          "name": "tokenId",
          "type": "uint256"
        }
      ],
      "name": "tokenURI",
      "outputs": [
        {
          "internalType": "string",
          "name": "",
          "type": "string"
        }
      ],
      "stateMutability": "view",
      "type": "function"
    },
    {
      "inputs": [],
      "name": "totalSupply",
      "outputs": [
        {
          "internalType": "uint256",
          "name": "",
          "type": "uint256"
        }
      ],
      "stateMutability": "view",
      "type": "function"
    },
    {
      "inputs": [
        {
          "internalType": "address",
          "name": "from",
          "type": "address"
        },
        {
          "internalType": "address",
          "name": "to",
          "type": "address"
        },
        {
          "internalType": "uint256",
          "name": "tokenId",
          "type": "uint256"
        }
      ],
      "name": "transferFrom",
      "outputs": [],
      "stateMutability": "nonpayable",
      "type": "function"
    },
    {
      "inputs": [
        {
          "internalType": "address",
          "name": "newOwner",
          "type": "address"
        }
      ],
      "name": "transferOwnership",
      "outputs": [],
      "stateMutability": "nonpayable",
      "type": "function"
    },
    {
      "inputs": [
        {
          "internalType": "address",
          "name": "",
          "type": "address"
        }
      ],
      "name": "wasMember",
      "outputs": [
        {
          "internalType": "bool",
          "name": "",
          "type": "bool"
        }
      ],
      "stateMutability": "view",
      "type": "function"
    }
  ],
  "transactionHash": "0xf3b06766155bcf08793fce9f80a6d380df5a2d31d8deb0f5224f50c8837132fa",
  "args": [],
  "numDeployments": 1,
  "solcInputHash": "7977d73098725631028e99ee706eff64",
  "bytecode": "0x60806040523480156200001157600080fd5b506200001c62000022565b620000e4565b600054610100900460ff16156200008f5760405162461bcd60e51b815260206004820152602760248201527f496e697469616c697a61626c653a20636f6e747261637420697320696e697469604482015266616c697a696e6760c81b606482015260840160405180910390fd5b60005460ff9081161015620000e2576000805460ff191660ff9081179091556040519081527f7f26b83ff96e1f2b6a682f133852f6798a09c465da95921460cefb38474024989060200160405180910390a15b565b61395680620000f46000396000f3fe608060405234801561001057600080fd5b50600436106102325760003560e01c8063715018a611610130578063a230c524116100b8578063d23a403c1161007c578063d23a403c146104d6578063e985e9c5146104e0578063eb6d00a61461051c578063f1fc061f1461057e578063f2fde38b1461059157600080fd5b8063a230c52414610466578063b88d4fde1461048a578063bcfb1a401461049d578063c3cda520146104b0578063c87b56dd146104c357600080fd5b80638da5cb5b116100ff5780638da5cb5b146104135780638e539e8c1461042557806395d89b41146104385780639ab24eb014610440578063a22cb4651461045357600080fd5b8063715018a6146103c15780637ecebe00146103c95780638370578c146103dc5780638beaf7d71461040057600080fd5b80633644e515116101be578063587cde1e11610182578063587cde1e146103625780635c19a95c146103755780635ffb7ae3146103885780636352211e1461039b57806370a08231146103ae57600080fd5b80633644e515146103185780633a46b1a814610320578063406cfb751461033357806342842e0e146103465780635187c9891461035957600080fd5b8063095ea7b311610205578063095ea7b3146102b457806318160ddd146102c75780632124d529146102df57806323b872dd146102f2578063344cbc681461030557600080fd5b806301ffc9a7146102375780630280179e1461025f57806306fdde0314610274578063081812fc14610289575b600080fd5b61024a61024536600461342e565b6105a4565b60405190151581526020015b60405180910390f35b61027261026d36600461337a565b6105f6565b005b61027c610660565b6040516102569190613633565b61029c6102973660046134c1565b6106f2565b6040516001600160a01b039091168152602001610256565b6102726102c236600461334e565b610719565b6102d16101615481565b604051908152602001610256565b6102726102ed3660046131ec565b610834565b61027261030036600461325f565b610988565b6102726103133660046134c1565b6109b9565b6102d1610c1b565b6102d161032e36600461334e565b610c2a565b61024a6103413660046131ec565b610c53565b61027261035436600461325f565b610e69565b610166546102d1565b61029c6103703660046131ec565b610e84565b6102726103833660046131ec565b610ea2565b6102726103963660046131ec565b610eb1565b61029c6103a93660046134c1565b61102d565b6102d16103bc3660046131ec565b61108d565b610272611113565b6102d16103d73660046131ec565b611127565b61024a6103ea3660046131ec565b6101656020526000908152604090205460ff1681565b61027261040e366004613468565b611145565b61012f546001600160a01b031661029c565b6102d16104333660046134c1565b611306565b61027c611362565b6102d161044e3660046131ec565b611371565b610272610461366004613320565b611392565b61024a6104743660046131ec565b6101646020526000908152604090205460ff1681565b6102726104983660046132a0565b61139d565b61029c6104ab3660046134c1565b6113d5565b6102726104be3660046133af565b611400565b61027c6104d13660046134c1565b61152d565b6102d16101625481565b61024a6104ee366004613226565b6001600160a01b039182166000908152606a6020908152604080832093909416825291909152205460ff1690565b61055861052a3660046131ec565b6101676020526000908152604090208054600182015460028301546003909301549192909160ff9091169084565b604080519485526020850193909352901515918301919091526060820152608001610256565b61027261058c3660046134c1565b611594565b61027261059f3660046131ec565b61169f565b60006001600160e01b031982166380ac58cd60e01b14806105d557506001600160e01b03198216635b5e139f60e01b145b806105f057506301ffc9a760e01b6001600160e01b03198316145b92915050565b6105fe611718565b610609838383611773565b604080516001600160a01b038516815260208101849052908101829052600060608201527fc7ff60e3f07d1e83c30c2fb716313eccef5470e6bdf300d865c747e76f379a83906080015b60405180910390a1505050565b60606065805461066f906137bf565b80601f016020809104026020016040519081016040528092919081815260200182805461069b906137bf565b80156106e85780601f106106bd576101008083540402835291602001916106e8565b820191906000526020600020905b8154815290600101906020018083116106cb57829003601f168201915b5050505050905090565b60006106fd826118d9565b506000908152606960205260409020546001600160a01b031690565b60006107248261102d565b9050806001600160a01b0316836001600160a01b031614156107975760405162461bcd60e51b815260206004820152602160248201527f4552433732313a20617070726f76616c20746f2063757272656e74206f776e656044820152603960f91b60648201526084015b60405180910390fd5b336001600160a01b03821614806107b357506107b381336104ee565b6108255760405162461bcd60e51b815260206004820152603e60248201527f4552433732313a20617070726f76652063616c6c6572206973206e6f7420746f60448201527f6b656e206f776e6572206e6f7220617070726f76656420666f7220616c6c0000606482015260840161078e565b61082f8383611938565b505050565b61083c611718565b610161546001600160a01b0382166000908152610164602052604090205460ff161561088657604051631f5da49160e21b81526001600160a01b038316600482015260240161078e565b6101625481106108a95760405163b3d94c1d60e01b815260040160405180910390fd5b6108b282610c53565b6108da57604051637db5429360e01b81526001600160a01b038316600482015260240161078e565b6108e961016380546001019055565b60006108f56101635490565b90506109118382604051806020016040528060008152506119a6565b61091c826001613731565b610161556001600160a01b0383166000818152610164602090815260408083208054600160ff1991821617909155610165835292819020805490931690925590519182527f2e95375ba4496573ca74b6c456a1b885cfdd78ae502d985f1f0ca779444a1af49101610653565b61099233826119d9565b6109ae5760405162461bcd60e51b815260040161078e906136e3565b61082f838383611a58565b60006109c48261102d565b905060006109d0611c05565b6001600160a01b03166357338b226040518163ffffffff1660e01b815260040160206040518083038186803b158015610a0857600080fd5b505afa158015610a1c573d6000803e3d6000fd5b505050506040513d601f19601f82011682018060405250810190610a409190613209565b9050336001600160a01b03831614610a6a576040516282b42960e81b815260040160405180910390fd5b6001600160a01b03811615801590610af957506040516370a0823160e01b81526001600160a01b0383811660048301528216906370a082319060240160206040518083038186803b158015610abe57600080fd5b505afa158015610ad2573d6000803e3d6000fd5b505050506040513d601f19601f82011682018060405250810190610af691906134da565b15155b15610b1757604051631a499d1f60e11b815260040160405180910390fd5b610b2083611c1a565b6001600160a01b038216600090815261016460209081526040808320805460ff199081169091556101659092529091208054909116600190811790915561016154610b6b919061377c565b61016155610b77611c05565b604051633a69807760e21b81526001600160a01b03848116600483015260006024830152919091169063e9a601dc90604401600060405180830381600087803b158015610bc357600080fd5b505af1158015610bd7573d6000803e3d6000fd5b5050604080516001600160a01b0386168152602081018790527fd2d4adb8c32a13493d1fe695d2a5cc51c680de90ffaf0b3b3c4c9d4335ac4f9c9350019050610653565b6000610c25611cc9565b905090565b6001600160a01b038216600090815260cc60205260408120610c4c9083611d44565b9392505050565b61016654600090815b81811015610e5f5760006101668281548110610c7a57610c7a61387b565b60009182526020808320909101546001600160a01b03168083526101679091526040909120549091508015610e4a576000610cbd836001600160a01b0316611e53565b15610d43576040516370a0823160e01b81526001600160a01b0388811660048301528416906370a08231906024015b60206040518083038186803b158015610d0457600080fd5b505afa158015610d18573d6000803e3d6000fd5b505050506040513d601f19601f82011682018060405250810190610d3c91906134da565b9050610e33565b610d55836001600160a01b0316611ed9565b15610da0576001600160a01b038381166000818152610167602052604090819020600101549051627eeac760e11b8152928a16600484015260248301529062fdd58e90604401610cec565b610db2836001600160a01b0316611f0f565b15610e33576040516370a0823160e01b81526001600160a01b0388811660048301528416906370a082319060240160206040518083038186803b158015610df857600080fd5b505afa158015610e0c573d6000803e3d6000fd5b505050506040513d601f19601f82011682018060405250810190610e3091906134da565b90505b81811015610e48575060009695505050505050565b505b50508080610e57906137f4565b915050610c5c565b5060019392505050565b61082f8383836040518060200160405280600081525061139d565b6001600160a01b03908116600090815260cb60205260409020541690565b33610ead8183611fac565b5050565b610eb9611718565b6001600160a01b0381166000908152610167602052604090206002015460ff16610ef657604051635fcd021560e11b815260040160405180910390fd5b6001600160a01b038116600090815261016760205260408120600301546101668054919291610f279060019061377c565b81548110610f3757610f3761387b565b60009182526020808320909101546001600160a01b0386811684526101679092526040808420600201805460ff19169055911680835291206003018390556101668054919250829184908110610f8f57610f8f61387b565b9060005260206000200160006101000a8154816001600160a01b0302191690836001600160a01b03160217905550610166805480610fcf57610fcf613865565b6000828152602090819020600019908301810180546001600160a01b03191690559091019091556040516001600160a01b03851681527f1b2ddeaa10e8a80ec9f117d308c60a01824809ed74e531d768c0b1b7542606b99101610653565b6000818152606760205260408120546001600160a01b0316806105f05760405162461bcd60e51b8152602060048201526018602482015277115490cdcc8c4e881a5b9d985b1a59081d1bdad95b88125160421b604482015260640161078e565b60006001600160a01b0382166110f75760405162461bcd60e51b815260206004820152602960248201527f4552433732313a2061646472657373207a65726f206973206e6f7420612076616044820152683634b21037bbb732b960b91b606482015260840161078e565b506001600160a01b031660009081526068602052604090205490565b61111b611718565b6111256000612027565b565b6001600160a01b038116600090815260ce60205260408120546105f0565b600054610100900460ff16158080156111655750600054600160ff909116105b8061117f5750303b15801561117f575060005460ff166001145b6111e25760405162461bcd60e51b815260206004820152602e60248201527f496e697469616c697a61626c653a20636f6e747261637420697320616c72656160448201526d191e481a5b9a5d1a585b1a5e995960921b606482015260840161078e565b6000805460ff191660011790558015611205576000805461ff0019166101001790555b61120d61207a565b6112656112466040518060400160405280600b81526020016a0204d656d626572736869760ac1b815250856120a990919063ffffffff16565b604051806040016040528060018152602001603160f81b8152506120d5565b6112be61129e6040518060400160405280600b81526020016a0204d656d626572736869760ac1b815250856120a990919063ffffffff16565b604051806040016040528060028152602001614d5360f01b815250612106565b610162829055801561082f576000805461ff0019169055604051600181527f7f26b83ff96e1f2b6a682f133852f6798a09c465da95921460cefb384740249890602001610653565b60004382106113575760405162461bcd60e51b815260206004820152601a60248201527f566f7465733a20626c6f636b206e6f7420796574206d696e6564000000000000604482015260640161078e565b6105f060cd83611d44565b60606066805461066f906137bf565b6001600160a01b038116600090815260cc602052604081206105f090612137565b610ead338383612193565b6113a733836119d9565b6113c35760405162461bcd60e51b815260040161078e906136e3565b6113cf84848484612262565b50505050565b61016681815481106113e657600080fd5b6000918252602090912001546001600160a01b0316905081565b834211156114505760405162461bcd60e51b815260206004820152601860248201527f566f7465733a207369676e617475726520657870697265640000000000000000604482015260640161078e565b604080517fe48329057bfd03d55e49b547132e39cffd9c1820ad7b9d4c5307691425d15adf60208201526001600160a01b0388169181019190915260608101869052608081018590526000906114ca906114c29060a00160405160208183030381529060405280519060200120612295565b858585612326565b90506114d58161234e565b861461151a5760405162461bcd60e51b8152602060048201526014602482015273566f7465733a20696e76616c6964206e6f6e636560601b604482015260640161078e565b6115248188611fac565b50505050505050565b60606000611539610660565b61154284612376565b60405160200161155392919061354e565b604051602081830303815290604052905061156d81612474565b60405160200161157d91906135b1565b604051602081830303815290604052915050919050565b61159c611718565b60006115a6611c05565b6001600160a01b0316635cb543846040518163ffffffff1660e01b815260040160206040518083038186803b1580156115de57600080fd5b505afa1580156115f2573d6000803e3d6000fd5b505050506040513d601f19601f820116820180604052508101906116169190613209565b90506001600160a01b03811661163f576040516313c2dfab60e11b815260040160405180910390fd5b61164b81836000611773565b604080516001600160a01b0383168152602081018490526000818301526001606082015290517fc7ff60e3f07d1e83c30c2fb716313eccef5470e6bdf300d865c747e76f379a839181900360800190a15050565b6116a7611718565b6001600160a01b03811661170c5760405162461bcd60e51b815260206004820152602660248201527f4f776e61626c653a206e6577206f776e657220697320746865207a65726f206160448201526564647265737360d01b606482015260840161078e565b61171581612027565b50565b61012f546001600160a01b031633146111255760405162461bcd60e51b815260206004820181905260248201527f4f776e61626c653a2063616c6c6572206973206e6f7420746865206f776e6572604482015260640161078e565b6001600160a01b0383166000908152610167602052604090206002015460ff16156117bc5760405163b4d5b1eb60e01b81526001600160a01b038416600482015260240161078e565b6001600160a01b0383163b6117ef57604051633b00592160e21b81526001600160a01b038416600482015260240161078e565b61016680546001808201835560008390527fa5a4c57b7184ec73d55be4993773cb4eef681bc86a28d0285cd66efb50676a9790910180546001600160a01b0319166001600160a01b0387161790556040805160808101825285815260208101859052908101829052915460608301916118679161377c565b90526001600160a01b03841660009081526101676020908152604091829020835181559083015160018201559082015160028201805460ff191691151591909117905560609091015160039182015561016654111561082f5760405163c982357360e01b815260040160405180910390fd5b6000818152606760205260409020546001600160a01b03166117155760405162461bcd60e51b8152602060048201526018602482015277115490cdcc8c4e881a5b9d985b1a59081d1bdad95b88125160421b604482015260640161078e565b600081815260696020526040902080546001600160a01b0319166001600160a01b038416908117909155819061196d8261102d565b6001600160a01b03167f8c5be1e5ebec7d5bd14f71427d1e84f3dd0314c0f7b2291e5b200ac8c7c3b92560405160405180910390a45050565b6119b083836125dc565b6119bd6000848484612732565b61082f5760405162461bcd60e51b815260040161078e90613646565b6000806119e58361102d565b9050806001600160a01b0316846001600160a01b03161480611a2c57506001600160a01b038082166000908152606a602090815260408083209388168352929052205460ff165b80611a505750836001600160a01b0316611a45846106f2565b6001600160a01b0316145b949350505050565b826001600160a01b0316611a6b8261102d565b6001600160a01b031614611acf5760405162461bcd60e51b815260206004820152602560248201527f4552433732313a207472616e736665722066726f6d20696e636f72726563742060448201526437bbb732b960d91b606482015260840161078e565b6001600160a01b038216611b315760405162461bcd60e51b8152602060048201526024808201527f4552433732313a207472616e7366657220746f20746865207a65726f206164646044820152637265737360e01b606482015260840161078e565b611b3c83838361283c565b611b47600082611938565b6001600160a01b0383166000908152606860205260408120805460019290611b7090849061377c565b90915550506001600160a01b0382166000908152606860205260408120805460019290611b9e908490613731565b909155505060008181526067602052604080822080546001600160a01b0319166001600160a01b0386811691821790925591518493918716917fddf252ad1be2c89b69c2b068fc378daa952ba7f163c4a11628f55a4df523b3ef91a461082f83838361287a565b6000610c2561012f546001600160a01b031690565b6000611c258261102d565b9050611c338160008461283c565b611c3e600083611938565b6001600160a01b0381166000908152606860205260408120805460019290611c6790849061377c565b909155505060008281526067602052604080822080546001600160a01b0319169055518391906001600160a01b038416907fddf252ad1be2c89b69c2b068fc378daa952ba7f163c4a11628f55a4df523b3ef908390a4610ead8160008461287a565b6000610c257f8b73c3c69bb8fe3d512ecc4cf759cc79239f7b179b0ffacaa9a75d522b39400f611cf860975490565b6098546040805160208101859052908101839052606081018290524660808201523060a082015260009060c0016040516020818303038152906040528051906020012090509392505050565b6000438210611d955760405162461bcd60e51b815260206004820181905260248201527f436865636b706f696e74733a20626c6f636b206e6f7420796574206d696e6564604482015260640161078e565b825460005b81811015611dfa576000611dae82846128d0565b905084866000018281548110611dc657611dc661387b565b60009182526020909120015463ffffffff161115611de657809250611df4565b611df1816001613731565b91505b50611d9a565b8115611e3e5784611e0c60018461377c565b81548110611e1c57611e1c61387b565b60009182526020909120015464010000000090046001600160e01b0316611e41565b60005b6001600160e01b031695945050505050565b6040516301ffc9a760e01b81526380ac58cd60e01b60048201526000906001600160a01b038316906301ffc9a7906024015b60206040518083038186803b158015611e9d57600080fd5b505afa925050508015611ecd575060408051601f3d908101601f19168201909252611eca91810190613411565b60015b6105f057506000919050565b6040516301ffc9a760e01b8152636cdb3d1360e11b60048201526000906001600160a01b038316906301ffc9a790602401611e85565b6000611f1a82611e53565b15611f2757506000919050565b6040516370a0823160e01b8152600060048201526001600160a01b038316906370a082319060240160206040518083038186803b158015611f6757600080fd5b505afa925050508015611f97575060408051601f3d908101601f19168201909252611f94918101906134da565b60015b611fa357506000919050565b50600192915050565b6000611fb783610e84565b6001600160a01b03848116600081815260cb602052604080822080546001600160a01b031916888616908117909155905194955093928516927f3134e8a2e6d97e929a7e54011ea5485d7d196dd5f0ba4d4ef95803e8e3fc257f9190a461082f8183612022866128eb565b6128f6565b61012f80546001600160a01b038381166001600160a01b0319831681179093556040519116919082907f8be0079c531659141344cd1fd0a4f28419497f9722a3daafe3b4186f6b6457e090600090a35050565b600054610100900460ff166120a15760405162461bcd60e51b815260040161078e90613698565b611125612a33565b606082826040516020016120be92919061351f565b604051602081830303815290604052905092915050565b600054610100900460ff166120fc5760405162461bcd60e51b815260040161078e90613698565b610ead8282612a63565b600054610100900460ff1661212d5760405162461bcd60e51b815260040161078e90613698565b610ead8282612aa4565b80546000908015612180578261214e60018361377c565b8154811061215e5761215e61387b565b60009182526020909120015464010000000090046001600160e01b0316612183565b60005b6001600160e01b03169392505050565b816001600160a01b0316836001600160a01b031614156121f55760405162461bcd60e51b815260206004820152601960248201527f4552433732313a20617070726f766520746f2063616c6c657200000000000000604482015260640161078e565b6001600160a01b038381166000818152606a6020908152604080832094871680845294825291829020805460ff191686151590811790915591519182527f17307eab39ab6107e8899845ad3d59bd9653f200f220920489ca2b5937696c31910160405180910390a3505050565b61226d848484611a58565b61227984848484612732565b6113cf5760405162461bcd60e51b815260040161078e90613646565b60006122ca6040518060400160405280601281526020017117d91bdb585a5b94d95c185c985d1bdc958d60721b815250612af2565b6122da6122d5611cc9565b612b35565b6105f06122e5611cc9565b8360405161190160f01b6020820152602281018390526042810182905260009060620160405160208183030381529060405280519060200120905092915050565b600080600061233787878787612b7a565b9150915061234481612c67565b5095945050505050565b6001600160a01b038116600090815260ce602052604090208054600181018255905b50919050565b60608161239a5750506040805180820190915260018152600360fc1b602082015290565b8160005b81156123c457806123ae816137f4565b91506123bd9050600a83613749565b915061239e565b60008167ffffffffffffffff8111156123df576123df613891565b6040519080825280601f01601f191660200182016040528015612409576020820181803683370190505b5090505b8415611a505761241e60018361377c565b915061242b600a8661380f565b612436906030613731565b60f81b81838151811061244b5761244b61387b565b60200101906001600160f81b031916908160001a90535061246d600a86613749565b945061240d565b606081516000141561249457505060408051602081019091526000815290565b60006040518060600160405280604081526020016138e160409139905060006003845160026124c39190613731565b6124cd9190613749565b6124d890600461375d565b905060006124e7826020613731565b67ffffffffffffffff8111156124ff576124ff613891565b6040519080825280601f01601f191660200182016040528015612529576020820181803683370190505b509050818152600183018586518101602084015b818310156125975760039283018051603f601282901c811687015160f890811b8552600c83901c8216880151811b6001860152600683901c8216880151811b60028601529116860151901b9382019390935260040161253d565b6003895106600181146125b157600281146125c2576125ce565b613d3d60f01b6001198301526125ce565b603d60f81b6000198301525b509398975050505050505050565b6001600160a01b0382166126325760405162461bcd60e51b815260206004820181905260248201527f4552433732313a206d696e7420746f20746865207a65726f2061646472657373604482015260640161078e565b6000818152606760205260409020546001600160a01b0316156126975760405162461bcd60e51b815260206004820152601c60248201527f4552433732313a20746f6b656e20616c7265616479206d696e74656400000000604482015260640161078e565b6126a36000838361283c565b6001600160a01b03821660009081526068602052604081208054600192906126cc908490613731565b909155505060008181526067602052604080822080546001600160a01b0319166001600160a01b03861690811790915590518392907fddf252ad1be2c89b69c2b068fc378daa952ba7f163c4a11628f55a4df523b3ef908290a4610ead6000838361287a565b60006001600160a01b0384163b1561283457604051630a85bd0160e11b81526001600160a01b0385169063150b7a02906127769033908990889088906004016135f6565b602060405180830381600087803b15801561279057600080fd5b505af19250505080156127c0575060408051601f3d908101601f191682019092526127bd9181019061344b565b60015b61281a573d8080156127ee576040519150601f19603f3d011682016040523d82523d6000602084013e6127f3565b606091505b5080516128125760405162461bcd60e51b815260040161078e90613646565b805181602001fd5b6001600160e01b031916630a85bd0160e11b149050611a50565b506001611a50565b6001600160a01b0383161580159061285c57506001600160a01b03821615155b1561082f57604051635d330ffb60e01b815260040160405180910390fd5b612885838383612e22565b6001600160a01b0383161580156128a457506001600160a01b03821615155b80156128c1575060006128b683610e84565b6001600160a01b0316145b1561082f5761082f8283611fac565b60006128df6002848418613749565b610c4c90848416613731565b60006105f08261108d565b816001600160a01b0316836001600160a01b0316141580156129185750600081115b1561082f576001600160a01b038316156129a6576001600160a01b038316600090815260cc60205260408120819061295390612e2e85612e3a565b91509150846001600160a01b03167fdec2bacdd2f05b59de34da9b523dff8be42e5e38e818c82fdb0bae774387a724838360405161299b929190918252602082015260400190565b60405180910390a250505b6001600160a01b0382161561082f576001600160a01b038216600090815260cc6020526040812081906129dc90612e6885612e3a565b91509150836001600160a01b03167fdec2bacdd2f05b59de34da9b523dff8be42e5e38e818c82fdb0bae774387a7248383604051612a24929190918252602082015260400190565b60405180910390a25050505050565b600054610100900460ff16612a5a5760405162461bcd60e51b815260040161078e90613698565b61112533612027565b600054610100900460ff16612a8a5760405162461bcd60e51b815260040161078e90613698565b815160209283012081519190920120609791909155609855565b600054610100900460ff16612acb5760405162461bcd60e51b815260040161078e90613698565b8151612ade9060659060208501906130e6565b50805161082f9060669060208401906130e6565b61171581604051602401612b069190613633565b60408051601f198184030181529190526020810180516001600160e01b031663104c13eb60e21b179052612e74565b61171581604051602401612b4b91815260200190565b60408051601f198184030181529190526020810180516001600160e01b03166327b7cf8560e01b179052612e74565b6000807f7fffffffffffffffffffffffffffffff5d576e7357a4501ddfe92f46681b20a0831115612bb15750600090506003612c5e565b8460ff16601b14158015612bc957508460ff16601c14155b15612bda5750600090506004612c5e565b6040805160008082526020820180845289905260ff881692820192909252606081018690526080810185905260019060a0016020604051602081039080840390855afa158015612c2e573d6000803e3d6000fd5b5050604051601f1901519150506001600160a01b038116612c5757600060019250925050612c5e565b9150600090505b94509492505050565b6000816004811115612c7b57612c7b61384f565b1415612c845750565b6001816004811115612c9857612c9861384f565b1415612ce65760405162461bcd60e51b815260206004820152601860248201527f45434453413a20696e76616c6964207369676e61747572650000000000000000604482015260640161078e565b6002816004811115612cfa57612cfa61384f565b1415612d485760405162461bcd60e51b815260206004820152601f60248201527f45434453413a20696e76616c6964207369676e6174757265206c656e67746800604482015260640161078e565b6003816004811115612d5c57612d5c61384f565b1415612db55760405162461bcd60e51b815260206004820152602260248201527f45434453413a20696e76616c6964207369676e6174757265202773272076616c604482015261756560f01b606482015260840161078e565b6004816004811115612dc957612dc961384f565b14156117155760405162461bcd60e51b815260206004820152602260248201527f45434453413a20696e76616c6964207369676e6174757265202776272076616c604482015261756560f01b606482015260840161078e565b61082f83836001612e95565b6000610c4c828461377c565b600080612e5c85612e57612e4d88612137565b868863ffffffff16565b612eee565b91509150935093915050565b6000610c4c8284613731565b80516a636f6e736f6c652e6c6f67602083016000808483855afa5050505050565b6001600160a01b038316612eb457612eb160cd612e6883612e3a565b50505b6001600160a01b038216612ed357612ed060cd612e2e83612e3a565b50505b61082f612edf84610e84565b612ee884610e84565b836128f6565b8154600090819081612eff86612137565b9050600082118015612f3d57504386612f1960018561377c565b81548110612f2957612f2961387b565b60009182526020909120015463ffffffff16145b15612f9d57612f4b85613014565b86612f5760018561377c565b81548110612f6757612f6761387b565b9060005260206000200160000160046101000a8154816001600160e01b0302191690836001600160e01b0316021790555061300b565b856000016040518060400160405280612fb543613081565b63ffffffff168152602001612fc988613014565b6001600160e01b0390811690915282546001810184556000938452602093849020835194909301519091166401000000000263ffffffff909316929092179101555b95939450505050565b60006001600160e01b0382111561307d5760405162461bcd60e51b815260206004820152602760248201527f53616665436173743a2076616c756520646f65736e27742066697420696e20326044820152663234206269747360c81b606482015260840161078e565b5090565b600063ffffffff82111561307d5760405162461bcd60e51b815260206004820152602660248201527f53616665436173743a2076616c756520646f65736e27742066697420696e203360448201526532206269747360d01b606482015260840161078e565b8280546130f2906137bf565b90600052602060002090601f016020900481019282613114576000855561315a565b82601f1061312d57805160ff191683800117855561315a565b8280016001018555821561315a579182015b8281111561315a57825182559160200191906001019061313f565b5061307d9291505b8082111561307d5760008155600101613162565b600067ffffffffffffffff8084111561319157613191613891565b604051601f8501601f19908116603f011681019082821181831017156131b9576131b9613891565b816040528093508581528686860111156131d257600080fd5b858560208301376000602087830101525050509392505050565b6000602082840312156131fe57600080fd5b8135610c4c816138a7565b60006020828403121561321b57600080fd5b8151610c4c816138a7565b6000806040838503121561323957600080fd5b8235613244816138a7565b91506020830135613254816138a7565b809150509250929050565b60008060006060848603121561327457600080fd5b833561327f816138a7565b9250602084013561328f816138a7565b929592945050506040919091013590565b600080600080608085870312156132b657600080fd5b84356132c1816138a7565b935060208501356132d1816138a7565b925060408501359150606085013567ffffffffffffffff8111156132f457600080fd5b8501601f8101871361330557600080fd5b61331487823560208401613176565b91505092959194509250565b6000806040838503121561333357600080fd5b823561333e816138a7565b91506020830135613254816138bc565b6000806040838503121561336157600080fd5b823561336c816138a7565b946020939093013593505050565b60008060006060848603121561338f57600080fd5b833561339a816138a7565b95602085013595506040909401359392505050565b60008060008060008060c087890312156133c857600080fd5b86356133d3816138a7565b95506020870135945060408701359350606087013560ff811681146133f757600080fd5b9598949750929560808101359460a0909101359350915050565b60006020828403121561342357600080fd5b8151610c4c816138bc565b60006020828403121561344057600080fd5b8135610c4c816138ca565b60006020828403121561345d57600080fd5b8151610c4c816138ca565b6000806040838503121561347b57600080fd5b823567ffffffffffffffff81111561349257600080fd5b8301601f810185136134a357600080fd5b6134b285823560208401613176565b95602094909401359450505050565b6000602082840312156134d357600080fd5b5035919050565b6000602082840312156134ec57600080fd5b5051919050565b6000815180845261350b816020860160208601613793565b601f01601f19169290920160200192915050565b60008351613531818460208801613793565b835190830190613545818360208801613793565b01949350505050565b693d913730b6b2911d101160b11b8152825160009061357481600a850160208801613793565b61202360f01b600a91840191820152835161359681600c840160208801613793565b61227d60f01b600c9290910191820152600e01949350505050565b7f646174613a6170706c69636174696f6e2f6a736f6e3b6261736536342c0000008152600082516135e981601d850160208701613793565b91909101601d0192915050565b6001600160a01b0385811682528416602082015260408101839052608060608201819052600090613629908301846134f3565b9695505050505050565b602081526000610c4c60208301846134f3565b60208082526032908201527f4552433732313a207472616e7366657220746f206e6f6e20455243373231526560408201527131b2b4bb32b91034b6b83632b6b2b73a32b960711b606082015260800190565b6020808252602b908201527f496e697469616c697a61626c653a20636f6e7472616374206973206e6f74206960408201526a6e697469616c697a696e6760a81b606082015260800190565b6020808252602e908201527f4552433732313a2063616c6c6572206973206e6f7420746f6b656e206f776e6560408201526d1c881b9bdc88185c1c1c9bdd995960921b606082015260800190565b6000821982111561374457613744613823565b500190565b60008261375857613758613839565b500490565b600081600019048311821515161561377757613777613823565b500290565b60008282101561378e5761378e613823565b500390565b60005b838110156137ae578181015183820152602001613796565b838111156113cf5750506000910152565b600181811c908216806137d357607f821691505b6020821081141561237057634e487b7160e01b600052602260045260246000fd5b600060001982141561380857613808613823565b5060010190565b60008261381e5761381e613839565b500690565b634e487b7160e01b600052601160045260246000fd5b634e487b7160e01b600052601260045260246000fd5b634e487b7160e01b600052602160045260246000fd5b634e487b7160e01b600052603160045260246000fd5b634e487b7160e01b600052603260045260246000fd5b634e487b7160e01b600052604160045260246000fd5b6001600160a01b038116811461171557600080fd5b801515811461171557600080fd5b6001600160e01b03198116811461171557600080fdfe4142434445464748494a4b4c4d4e4f505152535455565758595a6162636465666768696a6b6c6d6e6f707172737475767778797a303132333435363738392b2fa26469706673582212206dee6123b83483d929a53184cd78f3a74f732e3a2f781487c6ff7373dc9f5b3064736f6c63430008070033",
  "devdoc": {
    "kind": "dev",
    "methods": {
      "DOMAIN_SEPARATOR()": {
        "details": "Returns the contract's {EIP712} domain separator."
      },
      "approve(address,uint256)": {
        "details": "See {IERC721-approve}."
      },
      "balanceOf(address)": {
        "details": "See {IERC721-balanceOf}."
      },
      "constructor": {
        "custom:oz-upgrades-unsafe-allow": "constructor"
      },
      "delegate(address)": {
        "details": "Delegates votes from the sender to `delegatee`."
      },
      "delegateBySig(address,uint256,uint256,uint8,bytes32,bytes32)": {
        "details": "Delegates votes from signer to `delegatee`."
      },
      "delegates(address)": {
        "details": "Returns the delegate that `account` has chosen."
      },
      "getApproved(uint256)": {
        "details": "See {IERC721-getApproved}."
      },
      "getPastTotalSupply(uint256)": {
        "details": "Returns the total supply of votes available at the end of a past block (`blockNumber`). NOTE: This value is the sum of all available votes, which is not necessarily the sum of all delegated votes. Votes that have not been delegated are still part of total supply, even though they would not participate in a vote. Requirements: - `blockNumber` must have been already mined"
      },
      "getPastVotes(address,uint256)": {
        "details": "Returns the amount of votes that `account` had at the end of a past block (`blockNumber`). Requirements: - `blockNumber` must have been already mined"
      },
      "getVotes(address)": {
        "details": "Returns the current amount of votes that `account` has."
      },
      "isApprovedForAll(address,address)": {
        "details": "See {IERC721-isApprovedForAll}."
      },
      "name()": {
        "details": "See {IERC721Metadata-name}."
      },
      "nonces(address)": {
        "details": "Returns an address nonce."
      },
      "owner()": {
        "details": "Returns the address of the current owner."
      },
      "ownerOf(uint256)": {
        "details": "See {IERC721-ownerOf}."
      },
      "renounceOwnership()": {
        "details": "Leaves the contract without owner. It will not be possible to call `onlyOwner` functions anymore. Can only be called by the current owner. NOTE: Renouncing ownership will leave the contract without an owner, thereby removing any functionality that is only available to the owner."
      },
      "safeTransferFrom(address,address,uint256)": {
        "details": "See {IERC721-safeTransferFrom}."
      },
      "safeTransferFrom(address,address,uint256,bytes)": {
        "details": "See {IERC721-safeTransferFrom}."
      },
      "setApprovalForAll(address,bool)": {
        "details": "See {IERC721-setApprovalForAll}."
      },
      "supportsInterface(bytes4)": {
        "details": "See {IERC165-supportsInterface}."
      },
      "symbol()": {
        "details": "See {IERC721Metadata-symbol}."
      },
      "tokenURI(uint256)": {
        "details": "See {IERC721Metadata-tokenURI}."
      },
      "transferFrom(address,address,uint256)": {
        "details": "See {IERC721-transferFrom}."
      },
      "transferOwnership(address)": {
        "details": "Transfers ownership of the contract to a new account (`newOwner`). Can only be called by the current owner."
      }
    },
    "version": 1
  },
  "userdoc": {
    "kind": "user",
    "methods": {},
    "version": 1
  },
  "storageLayout": {
    "storage": [
      {
        "astId": 2327,
        "contract": "contracts/Membership.sol:Membership",
        "label": "_initialized",
        "offset": 0,
        "slot": "0",
        "type": "t_uint8"
      },
      {
        "astId": 2330,
        "contract": "contracts/Membership.sol:Membership",
        "label": "_initializing",
        "offset": 1,
        "slot": "0",
        "type": "t_bool"
      },
      {
        "astId": 5764,
        "contract": "contracts/Membership.sol:Membership",
        "label": "__gap",
        "offset": 0,
        "slot": "1",
        "type": "t_array(t_uint256)50_storage"
      },
      {
        "astId": 6874,
        "contract": "contracts/Membership.sol:Membership",
        "label": "__gap",
        "offset": 0,
        "slot": "51",
        "type": "t_array(t_uint256)50_storage"
      },
      {
        "astId": 4152,
        "contract": "contracts/Membership.sol:Membership",
        "label": "_name",
        "offset": 0,
        "slot": "101",
        "type": "t_string_storage"
      },
      {
        "astId": 4154,
        "contract": "contracts/Membership.sol:Membership",
        "label": "_symbol",
        "offset": 0,
        "slot": "102",
        "type": "t_string_storage"
      },
      {
        "astId": 4158,
        "contract": "contracts/Membership.sol:Membership",
        "label": "_owners",
        "offset": 0,
        "slot": "103",
        "type": "t_mapping(t_uint256,t_address)"
      },
      {
        "astId": 4162,
        "contract": "contracts/Membership.sol:Membership",
        "label": "_balances",
        "offset": 0,
        "slot": "104",
        "type": "t_mapping(t_address,t_uint256)"
      },
      {
        "astId": 4166,
        "contract": "contracts/Membership.sol:Membership",
        "label": "_tokenApprovals",
        "offset": 0,
        "slot": "105",
        "type": "t_mapping(t_uint256,t_address)"
      },
      {
        "astId": 4172,
        "contract": "contracts/Membership.sol:Membership",
        "label": "_operatorApprovals",
        "offset": 0,
        "slot": "106",
        "type": "t_mapping(t_address,t_mapping(t_address,t_bool))"
      },
      {
        "astId": 5014,
        "contract": "contracts/Membership.sol:Membership",
        "label": "__gap",
        "offset": 0,
        "slot": "107",
        "type": "t_array(t_uint256)44_storage"
      },
      {
        "astId": 6677,
        "contract": "contracts/Membership.sol:Membership",
        "label": "_HASHED_NAME",
        "offset": 0,
        "slot": "151",
        "type": "t_bytes32"
      },
      {
        "astId": 6679,
        "contract": "contracts/Membership.sol:Membership",
        "label": "_HASHED_VERSION",
        "offset": 0,
        "slot": "152",
        "type": "t_bytes32"
      },
      {
        "astId": 6830,
        "contract": "contracts/Membership.sol:Membership",
        "label": "__gap",
        "offset": 0,
        "slot": "153",
        "type": "t_array(t_uint256)50_storage"
      },
      {
        "astId": 1892,
        "contract": "contracts/Membership.sol:Membership",
        "label": "_delegation",
        "offset": 0,
        "slot": "203",
        "type": "t_mapping(t_address,t_address)"
      },
      {
        "astId": 1897,
        "contract": "contracts/Membership.sol:Membership",
        "label": "_delegateCheckpoints",
        "offset": 0,
        "slot": "204",
        "type": "t_mapping(t_address,t_struct(History)5504_storage)"
      },
      {
        "astId": 1900,
        "contract": "contracts/Membership.sol:Membership",
        "label": "_totalCheckpoints",
        "offset": 0,
        "slot": "205",
        "type": "t_struct(History)5504_storage"
      },
      {
        "astId": 1905,
        "contract": "contracts/Membership.sol:Membership",
        "label": "_nonces",
        "offset": 0,
        "slot": "206",
        "type": "t_mapping(t_address,t_struct(Counter)5771_storage)"
      },
      {
        "astId": 2319,
        "contract": "contracts/Membership.sol:Membership",
        "label": "__gap",
        "offset": 0,
        "slot": "207",
        "type": "t_array(t_uint256)46_storage"
      },
      {
        "astId": 5245,
        "contract": "contracts/Membership.sol:Membership",
        "label": "__gap",
        "offset": 0,
        "slot": "253",
        "type": "t_array(t_uint256)50_storage"
      },
      {
        "astId": 10,
        "contract": "contracts/Membership.sol:Membership",
        "label": "_owner",
        "offset": 0,
        "slot": "303",
        "type": "t_address"
      },
      {
        "astId": 130,
        "contract": "contracts/Membership.sol:Membership",
        "label": "__gap",
        "offset": 0,
        "slot": "304",
        "type": "t_array(t_uint256)49_storage"
      },
      {
        "astId": 11021,
        "contract": "contracts/Membership.sol:Membership",
        "label": "totalSupply",
        "offset": 0,
        "slot": "353",
        "type": "t_uint256"
      },
      {
        "astId": 11023,
        "contract": "contracts/Membership.sol:Membership",
        "label": "maxMemberLimit",
        "offset": 0,
        "slot": "354",
        "type": "t_uint256"
      },
      {
        "astId": 11026,
        "contract": "contracts/Membership.sol:Membership",
        "label": "_tokenIds",
        "offset": 0,
        "slot": "355",
        "type": "t_struct(Counter)9917_storage"
      },
      {
        "astId": 11030,
        "contract": "contracts/Membership.sol:Membership",
        "label": "isMember",
        "offset": 0,
        "slot": "356",
        "type": "t_mapping(t_address,t_bool)"
      },
      {
        "astId": 11034,
        "contract": "contracts/Membership.sol:Membership",
        "label": "wasMember",
        "offset": 0,
        "slot": "357",
        "type": "t_mapping(t_address,t_bool)"
      },
      {
        "astId": 11037,
        "contract": "contracts/Membership.sol:Membership",
        "label": "admissionTokens",
        "offset": 0,
        "slot": "358",
        "type": "t_array(t_address)dyn_storage"
      },
      {
        "astId": 11042,
        "contract": "contracts/Membership.sol:Membership",
        "label": "admissionTokenSetting",
        "offset": 0,
        "slot": "359",
        "type": "t_mapping(t_address,t_struct(AdmissionTokenSetting)11019_storage)"
      },
      {
        "astId": 11740,
        "contract": "contracts/Membership.sol:Membership",
        "label": "__gap",
        "offset": 0,
        "slot": "360",
        "type": "t_array(t_uint256)50_storage"
      }
    ],
    "types": {
      "t_address": {
        "encoding": "inplace",
        "label": "address",
        "numberOfBytes": "20"
      },
      "t_array(t_address)dyn_storage": {
        "base": "t_address",
        "encoding": "dynamic_array",
        "label": "address[]",
        "numberOfBytes": "32"
      },
      "t_array(t_struct(Checkpoint)5499_storage)dyn_storage": {
        "base": "t_struct(Checkpoint)5499_storage",
        "encoding": "dynamic_array",
        "label": "struct CheckpointsUpgradeable.Checkpoint[]",
        "numberOfBytes": "32"
      },
      "t_array(t_uint256)44_storage": {
        "base": "t_uint256",
        "encoding": "inplace",
        "label": "uint256[44]",
        "numberOfBytes": "1408"
      },
      "t_array(t_uint256)46_storage": {
        "base": "t_uint256",
        "encoding": "inplace",
        "label": "uint256[46]",
        "numberOfBytes": "1472"
      },
      "t_array(t_uint256)49_storage": {
        "base": "t_uint256",
        "encoding": "inplace",
        "label": "uint256[49]",
        "numberOfBytes": "1568"
      },
      "t_array(t_uint256)50_storage": {
        "base": "t_uint256",
        "encoding": "inplace",
        "label": "uint256[50]",
        "numberOfBytes": "1600"
      },
      "t_bool": {
        "encoding": "inplace",
        "label": "bool",
        "numberOfBytes": "1"
      },
      "t_bytes32": {
        "encoding": "inplace",
        "label": "bytes32",
        "numberOfBytes": "32"
      },
      "t_mapping(t_address,t_address)": {
        "encoding": "mapping",
        "key": "t_address",
        "label": "mapping(address => address)",
        "numberOfBytes": "32",
        "value": "t_address"
      },
      "t_mapping(t_address,t_bool)": {
        "encoding": "mapping",
        "key": "t_address",
        "label": "mapping(address => bool)",
        "numberOfBytes": "32",
        "value": "t_bool"
      },
      "t_mapping(t_address,t_mapping(t_address,t_bool))": {
        "encoding": "mapping",
        "key": "t_address",
        "label": "mapping(address => mapping(address => bool))",
        "numberOfBytes": "32",
        "value": "t_mapping(t_address,t_bool)"
      },
      "t_mapping(t_address,t_struct(AdmissionTokenSetting)11019_storage)": {
        "encoding": "mapping",
        "key": "t_address",
        "label": "mapping(address => struct Membership.AdmissionTokenSetting)",
        "numberOfBytes": "32",
        "value": "t_struct(AdmissionTokenSetting)11019_storage"
      },
      "t_mapping(t_address,t_struct(Counter)5771_storage)": {
        "encoding": "mapping",
        "key": "t_address",
        "label": "mapping(address => struct CountersUpgradeable.Counter)",
        "numberOfBytes": "32",
        "value": "t_struct(Counter)5771_storage"
      },
      "t_mapping(t_address,t_struct(History)5504_storage)": {
        "encoding": "mapping",
        "key": "t_address",
        "label": "mapping(address => struct CheckpointsUpgradeable.History)",
        "numberOfBytes": "32",
        "value": "t_struct(History)5504_storage"
      },
      "t_mapping(t_address,t_uint256)": {
        "encoding": "mapping",
        "key": "t_address",
        "label": "mapping(address => uint256)",
        "numberOfBytes": "32",
        "value": "t_uint256"
      },
      "t_mapping(t_uint256,t_address)": {
        "encoding": "mapping",
        "key": "t_uint256",
        "label": "mapping(uint256 => address)",
        "numberOfBytes": "32",
        "value": "t_address"
      },
      "t_string_storage": {
        "encoding": "bytes",
        "label": "string",
        "numberOfBytes": "32"
      },
      "t_struct(AdmissionTokenSetting)11019_storage": {
        "encoding": "inplace",
        "label": "struct Membership.AdmissionTokenSetting",
        "members": [
          {
            "astId": 11012,
            "contract": "contracts/Membership.sol:Membership",
            "label": "minTokenToAdmit",
            "offset": 0,
            "slot": "0",
            "type": "t_uint256"
          },
          {
            "astId": 11014,
            "contract": "contracts/Membership.sol:Membership",
            "label": "tokenId",
            "offset": 0,
            "slot": "1",
            "type": "t_uint256"
          },
          {
            "astId": 11016,
            "contract": "contracts/Membership.sol:Membership",
            "label": "active",
            "offset": 0,
            "slot": "2",
            "type": "t_bool"
          },
          {
            "astId": 11018,
            "contract": "contracts/Membership.sol:Membership",
            "label": "index",
            "offset": 0,
            "slot": "3",
            "type": "t_uint256"
          }
        ],
        "numberOfBytes": "128"
      },
      "t_struct(Checkpoint)5499_storage": {
        "encoding": "inplace",
        "label": "struct CheckpointsUpgradeable.Checkpoint",
        "members": [
          {
            "astId": 5496,
            "contract": "contracts/Membership.sol:Membership",
            "label": "_blockNumber",
            "offset": 0,
            "slot": "0",
            "type": "t_uint32"
          },
          {
            "astId": 5498,
            "contract": "contracts/Membership.sol:Membership",
            "label": "_value",
            "offset": 4,
            "slot": "0",
            "type": "t_uint224"
          }
        ],
        "numberOfBytes": "32"
      },
      "t_struct(Counter)5771_storage": {
        "encoding": "inplace",
        "label": "struct CountersUpgradeable.Counter",
        "members": [
          {
            "astId": 5770,
            "contract": "contracts/Membership.sol:Membership",
            "label": "_value",
            "offset": 0,
            "slot": "0",
            "type": "t_uint256"
          }
        ],
        "numberOfBytes": "32"
      },
      "t_struct(Counter)9917_storage": {
        "encoding": "inplace",
        "label": "struct Counters.Counter",
        "members": [
          {
            "astId": 9916,
            "contract": "contracts/Membership.sol:Membership",
            "label": "_value",
            "offset": 0,
            "slot": "0",
            "type": "t_uint256"
          }
        ],
        "numberOfBytes": "32"
      },
      "t_struct(History)5504_storage": {
        "encoding": "inplace",
        "label": "struct CheckpointsUpgradeable.History",
        "members": [
          {
            "astId": 5503,
            "contract": "contracts/Membership.sol:Membership",
            "label": "_checkpoints",
            "offset": 0,
            "slot": "0",
            "type": "t_array(t_struct(Checkpoint)5499_storage)dyn_storage"
          }
        ],
        "numberOfBytes": "32"
      },
      "t_uint224": {
        "encoding": "inplace",
        "label": "uint224",
        "numberOfBytes": "28"
      },
      "t_uint256": {
        "encoding": "inplace",
        "label": "uint256",
        "numberOfBytes": "32"
      },
      "t_uint32": {
        "encoding": "inplace",
        "label": "uint32",
        "numberOfBytes": "4"
      },
      "t_uint8": {
        "encoding": "inplace",
        "label": "uint8",
        "numberOfBytes": "1"
      }
    }
  }
}