{
  "address": "0x82c9c9e0DB59048bfa3BaE01Df163Fd4A94A266a",
  "abi": [
    {
      "inputs": [],
      "stateMutability": "nonpayable",
      "type": "constructor"
    },
    {
      "inputs": [
        {
          "internalType": "uint8",
          "name": "decimals",
          "type": "uint8"
        }
      ],
      "name": "InvaildDecimal",
      "type": "error"
    },
    {
      "inputs": [
        {
          "internalType": "uint80",
          "name": "roundID",
          "type": "uint80"
        },
        {
          "internalType": "uint80",
          "name": "answeredInRound",
          "type": "uint80"
        }
      ],
      "name": "StaleRoundId",
      "type": "error"
    },
    {
      "inputs": [
        {
          "internalType": "uint256",
          "name": "currentTimeStamp",
          "type": "uint256"
        },
        {
          "internalType": "uint256",
          "name": "updatedAtTimeStamp",
          "type": "uint256"
        }
      ],
      "name": "StaleTimestamp",
      "type": "error"
    },
    {
      "inputs": [
        {
          "internalType": "address",
          "name": "asset",
          "type": "address"
        }
      ],
      "name": "assetDecimals",
      "outputs": [
        {
          "internalType": "uint8",
          "name": "",
          "type": "uint8"
        }
      ],
      "stateMutability": "view",
      "type": "function"
    },
    {
      "inputs": [
        {
          "internalType": "address",
          "name": "asset",
          "type": "address"
        },
        {
          "internalType": "address",
          "name": "base",
          "type": "address"
        },
        {
          "internalType": "uint256",
          "name": "amount",
          "type": "uint256"
        }
      ],
      "name": "assetPrice",
      "outputs": [
        {
          "internalType": "uint256",
          "name": "",
          "type": "uint256"
        }
      ],
      "stateMutability": "view",
      "type": "function"
    },
    {
      "inputs": [
        {
          "internalType": "address",
          "name": "asset",
          "type": "address"
        },
        {
          "internalType": "uint256",
          "name": "amount",
          "type": "uint256"
        }
      ],
      "name": "assetUSDPrice",
      "outputs": [
        {
          "internalType": "uint256",
          "name": "",
          "type": "uint256"
        }
      ],
      "stateMutability": "view",
      "type": "function"
    },
    {
      "inputs": [
        {
          "internalType": "address",
          "name": "asset",
          "type": "address"
        },
        {
          "internalType": "address",
          "name": "base",
          "type": "address"
        },
        {
          "internalType": "uint256",
          "name": "amount",
          "type": "uint256"
        }
      ],
      "name": "derivedAssetPrice",
      "outputs": [
        {
          "internalType": "uint256",
          "name": "",
          "type": "uint256"
        }
      ],
      "stateMutability": "view",
      "type": "function"
    },
    {
      "inputs": [
        {
          "internalType": "address",
          "name": "asset",
          "type": "address"
        },
        {
          "internalType": "address",
          "name": "base",
          "type": "address"
        }
      ],
      "name": "isSupportedPair",
      "outputs": [
        {
          "internalType": "bool",
          "name": "",
          "type": "bool"
        }
      ],
      "stateMutability": "view",
      "type": "function"
    },
    {
      "inputs": [],
      "name": "name",
      "outputs": [
        {
          "internalType": "string",
          "name": "",
          "type": "string"
        }
      ],
      "stateMutability": "view",
      "type": "function"
    },
    {
      "inputs": [
        {
          "internalType": "address",
          "name": "asset",
          "type": "address"
        },
        {
          "internalType": "uint256",
          "name": "usdAmount",
          "type": "uint256"
        }
      ],
      "name": "usdAssetPrice",
      "outputs": [
        {
          "internalType": "uint256",
          "name": "",
          "type": "uint256"
        }
      ],
      "stateMutability": "view",
      "type": "function"
    }
  ],
  "transactionHash": "0x4180a356850900fec27ee630bf73e99edb7778af1bf6dc9bfa9b242f32c8e43f",
  "args": [],
  "numDeployments": 1,
  "solcInputHash": "4230e0f4607fc05439ed1b341b0788ef",
  "bytecode": "0x608060405234801561001057600080fd5b50611235806100206000396000f3fe608060405234801561001057600080fd5b506004361061007d5760003560e01c80635d8009a61161005b5780635d8009a614610108578063ce58da331461011b578063e019c23c1461013e578063e366da2c1461015157600080fd5b806306fdde03146100825780632851e17d146100d457806352e2a7c5146100f5575b600080fd5b6100be6040518060400160405280601f81526020017f506f6c79676f6e20436861696e6c696e6b20507269636520476174657761790081525081565b6040516100cb9190610f25565b60405180910390f35b6100e76100e2366004610e0e565b610176565b6040519081526020016100cb565b6100e7610103366004610e4f565b6101d4565b6100e7610116366004610e4f565b610436565b61012e610129366004610dd5565b610680565b60405190151581526020016100cb565b6100e761014c366004610e0e565b61069b565b61016461015f366004610db8565b610772565b60405160ff90911681526020016100cb565b60008061018585856012610836565b905060008113156101c7576101bf61019d84836110f4565b6101a687610772565b6101b1906012610f92565b6101ba87610772565b610c26565b9150506101cd565b60009150505b9392505050565b60006001600160a01b03831661034814156101f0575080610430565b6001600160a01b038316730d500b1d8e8ef31e21c99d1db9a6444d3adf12701461021a578261021e565b6110105b925060008060008073b8a7e3b6dc0e597e3efa8e9dfeb15865679b7cd06001600160a01b031663bcfd032d886103486040518363ffffffff1660e01b815260040161026a929190610f0b565b60a06040518083038186803b15801561028257600080fd5b505afa158015610296573d6000803e3d6000fd5b505050506040513d601f19601f820116820180604052508101906102ba9190610e98565b945094505093509350600073b8a7e3b6dc0e597e3efa8e9dfeb15865679b7cd06001600160a01b03166358e2d3a8896103486040518363ffffffff1660e01b8152600401610309929190610f0b565b60206040518083038186803b15801561032157600080fd5b505afa158015610335573d6000803e3d6000fd5b505050506040513d601f19601f820116820180604052508101906103599190610ee8565b9050846001600160501b0316826001600160501b031610156103a557604051623a0beb60e31b81526001600160501b038087166004830152831660248201526044015b60405180910390fd5b6103b26201518084610f7a565b4211156103db5760405163e80214f160e01b81524260048201526024810184905260440161039c565b6103e784826008610c26565b93506000841315610426576103fb88610772565b61040690600a611048565b6104108886611179565b61041a9190610fe5565b95505050505050610430565b6000955050505050505b92915050565b60006001600160a01b0383166103481415610452575080610430565b6001600160a01b038316730d500b1d8e8ef31e21c99d1db9a6444d3adf12701461047c5782610492565b73eeeeeeeeeeeeeeeeeeeeeeeeeeeeeeeeeeeeeeee5b925060008060008073b8a7e3b6dc0e597e3efa8e9dfeb15865679b7cd06001600160a01b031663bcfd032d886103486040518363ffffffff1660e01b81526004016104de929190610f0b565b60a06040518083038186803b1580156104f657600080fd5b505afa15801561050a573d6000803e3d6000fd5b505050506040513d601f19601f8201168201806040525081019061052e9190610e98565b945094505093509350600073b8a7e3b6dc0e597e3efa8e9dfeb15865679b7cd06001600160a01b03166358e2d3a8896103486040518363ffffffff1660e01b815260040161057d929190610f0b565b60206040518083038186803b15801561059557600080fd5b505afa1580156105a9573d6000803e3d6000fd5b505050506040513d601f19601f820116820180604052508101906105cd9190610ee8565b9050846001600160501b0316826001600160501b0316101561061457604051623a0beb60e31b81526001600160501b0380871660048301528316602482015260440161039c565b6106216201518084610f7a565b42111561064a5760405163e80214f160e01b81524260048201526024810184905260440161039c565b61065684826008610c26565b93506000841315610426578361066b89610772565b61067690600a611048565b6104109089611179565b600061068b83610c90565b80156101cd57506101cd82610c90565b60006001600160a01b038416730d500b1d8e8ef31e21c99d1db9a6444d3adf1270146106c757836106cb565b6110105b93506001600160a01b038316730d500b1d8e8ef31e21c99d1db9a6444d3adf1270146106f757826106fb565b6110105b9250826001600160a01b0316846001600160a01b0316141561071e5750806101cd565b6001600160a01b03831661034814156107425761073b84836101d4565b90506101cd565b6001600160a01b038416610348141561075f5761073b8383610436565b61076a848484610176565b949350505050565b60006001600160a01b03821673eeeeeeeeeeeeeeeeeeeeeeeeeeeeeeeeeeeeeeee14156107a157506012919050565b6001600160a01b03821661034814156107bc57506008919050565b816001600160a01b031663313ce5676040518163ffffffff1660e01b815260040160206040518083038186803b1580156107f557600080fd5b505afa925050508015610825575060408051601f3d908101601f1916820190925261082291810190610ee8565b60015b61043057506000919050565b919050565b600060ff8216158061084b5750601260ff8316115b1561086e57604051631e19a7dd60e31b815260ff8316600482015260240161039c565b600061087e60ff8416600a61103c565b905060008060008073b8a7e3b6dc0e597e3efa8e9dfeb15865679b7cd06001600160a01b031663bcfd032d8a6103486040518363ffffffff1660e01b81526004016108ca929190610f0b565b60a06040518083038186803b1580156108e257600080fd5b505afa1580156108f6573d6000803e3d6000fd5b505050506040513d601f19601f8201168201806040525081019061091a9190610e98565b945094505093509350836001600160501b0316816001600160501b0316101561096857604051623a0beb60e31b81526001600160501b0380831660048301528516602482015260440161039c565b6109756201518083610f7a565b42111561099e5760405163e80214f160e01b81524260048201526024810183905260440161039c565b604051630b1c5a7560e31b815260009073b8a7e3b6dc0e597e3efa8e9dfeb15865679b7cd0906358e2d3a8906109dc908d9061034890600401610f0b565b60206040518083038186803b1580156109f457600080fd5b505afa158015610a08573d6000803e3d6000fd5b505050506040513d601f19601f82011682018060405250810190610a2c9190610ee8565b9050610a3984828a610c26565b935060008060008073b8a7e3b6dc0e597e3efa8e9dfeb15865679b7cd06001600160a01b031663bcfd032d8e6103486040518363ffffffff1660e01b8152600401610a85929190610f0b565b60a06040518083038186803b158015610a9d57600080fd5b505afa158015610ab1573d6000803e3d6000fd5b505050506040513d601f19601f82011682018060405250810190610ad59190610e98565b945094505093509350836001600160501b0316816001600160501b03161015610b2357604051623a0beb60e31b81526001600160501b0380831660048301528516602482015260440161039c565b610b306201518083610f7a565b421115610b595760405163e80214f160e01b81524260048201526024810183905260440161039c565b600073b8a7e3b6dc0e597e3efa8e9dfeb15865679b7cd06001600160a01b03166358e2d3a88f6103486040518363ffffffff1660e01b8152600401610b9f929190610f0b565b60206040518083038186803b158015610bb757600080fd5b505afa158015610bcb573d6000803e3d6000fd5b505050506040513d601f19601f82011682018060405250810190610bef9190610ee8565b9050610bfc84828f610c26565b935083610c098c8b6110f4565b610c139190610fb7565b9f9e505050505050505050505050505050565b60008160ff168360ff161015610c5857610c408383611198565b610c4e9060ff16600a61103c565b61073b90856110f4565b8160ff168360ff161115610c8857610c708284611198565b610c7e9060ff16600a61103c565b61073b9085610fb7565b509192915050565b60006001600160a01b0382166103481415610cad57506001919050565b6001600160a01b038216730d500b1d8e8ef31e21c99d1db9a6444d3adf12701415610cd85761101091505b60405163d2edb6dd60e01b815273b8a7e3b6dc0e597e3efa8e9dfeb15865679b7cd09063d2edb6dd90610d1390859061034890600401610f0b565b60206040518083038186803b158015610d2b57600080fd5b505afa925050508015610d5b575060408051601f3d908101601f19168201909252610d5891810190610e7b565b60015b610d98573d808015610d89576040519150601f19603f3d011682016040523d82523d6000602084013e610d8e565b606091505b5060009392505050565b50600192915050565b80516001600160501b038116811461083157600080fd5b600060208284031215610dca57600080fd5b81356101cd816111e7565b60008060408385031215610de857600080fd5b8235610df3816111e7565b91506020830135610e03816111e7565b809150509250929050565b600080600060608486031215610e2357600080fd5b8335610e2e816111e7565b92506020840135610e3e816111e7565b929592945050506040919091013590565b60008060408385031215610e6257600080fd5b8235610e6d816111e7565b946020939093013593505050565b600060208284031215610e8d57600080fd5b81516101cd816111e7565b600080600080600060a08688031215610eb057600080fd5b610eb986610da1565b9450602086015193506040860151925060608601519150610edc60808701610da1565b90509295509295909350565b600060208284031215610efa57600080fd5b815160ff811681146101cd57600080fd5b6001600160a01b0392831681529116602082015260400190565b600060208083528351808285015260005b81811015610f5257858101830151858201604001528201610f36565b81811115610f64576000604083870101525b50601f01601f1916929092016040019392505050565b60008219821115610f8d57610f8d6111bb565b500190565b600060ff821660ff84168060ff03821115610faf57610faf6111bb565b019392505050565b600082610fc657610fc66111d1565b600160ff1b821460001984141615610fe057610fe06111bb565b500590565b600082610ff457610ff46111d1565b500490565b600181815b8085111561103457816000190482111561101a5761101a6111bb565b8085161561102757918102915b93841c9390800290610ffe565b509250929050565b60006101cd8383611053565b60006101cd60ff8416835b60008261106257506001610430565b8161106f57506000610430565b8160018114611085576002811461108f576110ab565b6001915050610430565b60ff8411156110a0576110a06111bb565b50506001821b610430565b5060208310610133831016604e8410600b84101617156110ce575081810a610430565b6110d88383610ff9565b80600019048211156110ec576110ec6111bb565b029392505050565b60006001600160ff1b038184138284138082168684048611161561111a5761111a6111bb565b600160ff1b6000871282811687830589121615611139576111396111bb565b60008712925087820587128484161615611155576111556111bb565b8785058712818416161561116b5761116b6111bb565b505050929093029392505050565b6000816000190483118215151615611193576111936111bb565b500290565b600060ff821660ff8416808210156111b2576111b26111bb565b90039392505050565b634e487b7160e01b600052601160045260246000fd5b634e487b7160e01b600052601260045260246000fd5b6001600160a01b03811681146111fc57600080fd5b5056fea2646970667358221220cbbc316a3fa698e80746153a7e28a0a1a7ec005cd753ac30b144b918d41a482264736f6c63430008070033",
  "devdoc": {
    "details": "A price gateway that uses Chainlink price feeds to calculate asset prices in terms of base tokens. It supports WETH, MATIC, WMATIC and other ERC20 tokens as assets or base tokens. This contract is inherited from the PriceGateway base contract,  which provides basic functions to check the support of the pair and calculate asset prices.",
    "kind": "dev",
    "methods": {
      "assetPrice(address,address,uint256)": {
        "details": "For those outside contract , Please used this as the entry pointthis Function will help to route the calculate to other cal function,Please do not directly call the below cal function",
        "params": {
          "amount": "the amount of asset, in asset decimal",
          "asset": "the asset token address, support WETH, MATIC, WMATIC and other ERC20",
          "base": "the base token address, support WETH, MATIC, WMATIC and other ERC20"
        },
        "returns": {
          "_0": "uint256 the Asset Price in term of base token in base token decimal"
        }
      },
      "assetUSDPrice(address,uint256)": {
        "details": "Get the rate in Chainlink and scale the Price to decimal 8",
        "params": {
          "amount": "Asset Amount in term of asset's decimal",
          "asset": "the asset token address, support WETH, MATIC, WMATIC and other ERC20"
        },
        "returns": {
          "_0": "uint256 the Asset Price in term of USD with hardcoded decimal 8"
        }
      },
      "isSupportedPair(address,address)": {
        "details": "Custom price gateway is allowed, but need to implement priceGateway.sol and set by govern",
        "params": {
          "asset": "the asset token address, support WETH, MATIC, WMATIC and other ERC20",
          "base": "the base token address, support WETH, MATIC, WMATIC and other ERC20"
        },
        "returns": {
          "_0": "boolean Is support or not"
        }
      },
      "usdAssetPrice(address,uint256)": {
        "details": "Get the rate in Chainlink and scale the Price to asset decimal",
        "params": {
          "asset": "the asset token address, support WETH, MATIC, WMATIC and other ERC20, used as base token address",
          "usdAmount": "Usd Amount with 8 decimal (arbitrum)"
        },
        "returns": {
          "_0": "uint256 the price by using asset as base with assets decimal"
        }
      }
    },
    "stateVariables": {
      "name": {
        "custom:oz-upgrades-unsafe-allow": "constructor"
      }
    },
    "title": "PolygonChainlinkPriceGateway",
    "version": 1
  },
  "userdoc": {
    "kind": "user",
    "methods": {
      "assetPrice(address,address,uint256)": {
        "notice": "inherited from PriceGateway, to cal the asset price base on different token"
      },
      "assetUSDPrice(address,uint256)": {
        "notice": "Get Asset Price in Term of USD"
      },
      "isSupportedPair(address,address)": {
        "notice": "inherited from PriceGateway, help to check the imported pair support or not"
      },
      "usdAssetPrice(address,uint256)": {
        "notice": "Get USD Price in term of Asset"
      }
    },
    "version": 1
  },
  "storageLayout": {
    "storage": [
      {
        "astId": 16917,
        "contract": "contracts/PolygonChainlinkPriceGateway.sol:PolygonChainlinkPriceGateway",
        "label": "__gap",
        "offset": 0,
        "slot": "0",
        "type": "t_array(t_uint256)50_storage"
      }
    ],
    "types": {
      "t_array(t_uint256)50_storage": {
        "base": "t_uint256",
        "encoding": "inplace",
        "label": "uint256[50]",
        "numberOfBytes": "1600"
      },
      "t_uint256": {
        "encoding": "inplace",
        "label": "uint256",
        "numberOfBytes": "32"
      }
    }
  }
}