{
  "address": "0xfbc0d2Df1300afA0C2c4b7a44540a538fa322Ed7",
  "abi": [
    {
      "inputs": [
        {
          "internalType": "address",
          "name": "_owner",
          "type": "address"
        }
      ],
      "stateMutability": "nonpayable",
      "type": "constructor"
    },
    {
      "inputs": [
        {
          "internalType": "bytes",
          "name": "",
          "type": "bytes"
        }
      ],
      "name": "ContractCallFail",
      "type": "error"
    },
    {
      "inputs": [],
      "name": "InputLengthNotMatch",
      "type": "error"
    },
    {
      "inputs": [],
      "name": "MsgValueNotMatch",
      "type": "error"
    },
    {
      "inputs": [],
      "name": "Unauthorized",
      "type": "error"
    },
    {
      "inputs": [
        {
          "internalType": "address[]",
          "name": "targets",
          "type": "address[]"
        },
        {
          "internalType": "bytes[]",
          "name": "data",
          "type": "bytes[]"
        },
        {
          "internalType": "uint256[]",
          "name": "values",
          "type": "uint256[]"
        }
      ],
      "name": "multicall",
      "outputs": [
        {
          "internalType": "bytes[]",
          "name": "",
          "type": "bytes[]"
        }
      ],
      "stateMutability": "payable",
      "type": "function"
    },
    {
      "inputs": [],
      "name": "owner",
      "outputs": [
        {
          "internalType": "address",
          "name": "",
          "type": "address"
        }
      ],
      "stateMutability": "view",
      "type": "function"
    }
  ],
  "transactionHash": "0xdb56e92f8dd3fdb756119335983d24ce9096196c7b557831c46a41ac3a8484af",
  "args": [
    "0xc5A00702Bb8ddB2214b87F04813dF658F07f81D9"
  ],
  "numDeployments": 1,
  "solcInputHash": "ff09b55880fdfc79f6212ccb7e7c3acd",
  "bytecode": "0x608060405234801561001057600080fd5b5060405161063a38038061063a83398101604081905261002f91610054565b600080546001600160a01b0319166001600160a01b0392909216919091179055610084565b60006020828403121561006657600080fd5b81516001600160a01b038116811461007d57600080fd5b9392505050565b6105a7806100936000396000f3fe6080604052600436106100295760003560e01c8063281818291461002e5780638da5cb5b14610057575b600080fd5b61004161003c366004610349565b61008f565b60405161004e9190610440565b60405180910390f35b34801561006357600080fd5b50600054610077906001600160a01b031681565b6040516001600160a01b03909116815260200161004e565b6000546060906001600160a01b031633146100bc576040516282b42960e81b815260040160405180910390fd5b8582146100dc5760405163d01c11b560e01b815260040160405180910390fd5b8584146100fc5760405163d01c11b560e01b815260040160405180910390fd5b60008667ffffffffffffffff8111156101175761011761055b565b60405190808252806020026020018201604052801561014a57816020015b60608152602001906001900390816101355790505b5090506000805b888110156102a0576000808b8b8481811061016e5761016e610545565b90506020020160208101906101839190610319565b6001600160a01b031688888581811061019e5761019e610545565b905060200201358b8b868181106101b7576101b7610545565b90506020028101906101c991906104b5565b6040516101d7929190610430565b60006040518083038185875af1925050503d8060008114610214576040519150601f19603f3d011682016040523d82523d6000602084013e610219565b606091505b509150915087878481811061023057610230610545565b905060200201358461024291906104fc565b93508161026d5780604051631c2c90ef60e11b815260040161026491906104a2565b60405180910390fd5b8085848151811061028057610280610545565b60200260200101819052505050808061029890610514565b915050610151565b503481146102c1576040516352d3078760e11b815260040160405180910390fd5b50979650505050505050565b60008083601f8401126102df57600080fd5b50813567ffffffffffffffff8111156102f757600080fd5b6020830191508360208260051b850101111561031257600080fd5b9250929050565b60006020828403121561032b57600080fd5b81356001600160a01b038116811461034257600080fd5b9392505050565b6000806000806000806060878903121561036257600080fd5b863567ffffffffffffffff8082111561037a57600080fd5b6103868a838b016102cd565b9098509650602089013591508082111561039f57600080fd5b6103ab8a838b016102cd565b909650945060408901359150808211156103c457600080fd5b506103d189828a016102cd565b979a9699509497509295939492505050565b6000815180845260005b81811015610409576020818501810151868301820152016103ed565b8181111561041b576000602083870101525b50601f01601f19169290920160200192915050565b8183823760009101908152919050565b6000602080830181845280855180835260408601915060408160051b870101925083870160005b8281101561049557603f198886030184526104838583516103e3565b94509285019290850190600101610467565b5092979650505050505050565b60208152600061034260208301846103e3565b6000808335601e198436030181126104cc57600080fd5b83018035915067ffffffffffffffff8211156104e757600080fd5b60200191503681900382131561031257600080fd5b6000821982111561050f5761050f61052f565b500190565b60006000198214156105285761052861052f565b5060010190565b634e487b7160e01b600052601160045260246000fd5b634e487b7160e01b600052603260045260246000fd5b634e487b7160e01b600052604160045260246000fdfea26469706673582212200e1522696e98fd874da8fea5d62aed70e8f212e5d2c2df699bce227110aae13764736f6c63430008070033",
  "devdoc": {
    "kind": "dev",
    "methods": {},
    "version": 1
  },
  "userdoc": {
    "kind": "user",
    "methods": {},
    "version": 1
  },
  "storageLayout": {
    "storage": [
      {
        "astId": 17388,
        "contract": "contracts/SimpleMulticall.sol:SimpleMulticall",
        "label": "owner",
        "offset": 0,
        "slot": "0",
        "type": "t_address"
      }
    ],
    "types": {
      "t_address": {
        "encoding": "inplace",
        "label": "address",
        "numberOfBytes": "20"
      }
    }
  }
}