{
  "address": "0xC63F08844C2791D41193FC59b376165f2f15dD18",
  "abi": [
    {
      "inputs": [],
      "stateMutability": "nonpayable",
      "type": "constructor"
    },
    {
      "inputs": [
        {
          "internalType": "address",
          "name": "addr",
          "type": "address"
        }
      ],
      "name": "InvalidAddress",
      "type": "error"
    },
    {
      "inputs": [
        {
          "internalType": "uint256",
          "name": "tokenId",
          "type": "uint256"
        },
        {
          "internalType": "address",
          "name": "member",
          "type": "address"
        }
      ],
      "name": "MemberExists",
      "type": "error"
    },
    {
      "inputs": [
        {
          "internalType": "uint256",
          "name": "tokenId",
          "type": "uint256"
        },
        {
          "internalType": "address",
          "name": "member",
          "type": "address"
        }
      ],
      "name": "MemberNotFound",
      "type": "error"
    },
    {
      "inputs": [],
      "name": "TransferNotAllowed",
      "type": "error"
    },
    {
      "inputs": [],
      "name": "Unauthorized",
      "type": "error"
    },
    {
      "anonymous": false,
      "inputs": [
        {
          "indexed": false,
          "internalType": "uint256",
          "name": "tokenId",
          "type": "uint256"
        },
        {
          "indexed": false,
          "internalType": "address[]",
          "name": "members",
          "type": "address[]"
        }
      ],
      "name": "AddMembers",
      "type": "event"
    },
    {
      "anonymous": false,
      "inputs": [
        {
          "indexed": false,
          "internalType": "uint256",
          "name": "tokenId",
          "type": "uint256"
        },
        {
          "indexed": false,
          "internalType": "address",
          "name": "minter",
          "type": "address"
        },
        {
          "indexed": false,
          "internalType": "string",
          "name": "name",
          "type": "string"
        },
        {
          "indexed": false,
          "internalType": "string",
          "name": "description",
          "type": "string"
        }
      ],
      "name": "AddTeam",
      "type": "event"
    },
    {
      "anonymous": false,
      "inputs": [
        {
          "indexed": true,
          "internalType": "address",
          "name": "account",
          "type": "address"
        },
        {
          "indexed": true,
          "internalType": "address",
          "name": "operator",
          "type": "address"
        },
        {
          "indexed": false,
          "internalType": "bool",
          "name": "approved",
          "type": "bool"
        }
      ],
      "name": "ApprovalForAll",
      "type": "event"
    },
    {
      "anonymous": false,
      "inputs": [
        {
          "indexed": false,
          "internalType": "string",
          "name": "name",
          "type": "string"
        },
        {
          "indexed": false,
          "internalType": "string",
          "name": "description",
          "type": "string"
        },
        {
          "indexed": false,
          "internalType": "uint256",
          "name": "tokenId",
          "type": "uint256"
        }
      ],
      "name": "EditInfo",
      "type": "event"
    },
    {
      "anonymous": false,
      "inputs": [
        {
          "indexed": false,
          "internalType": "uint8",
          "name": "version",
          "type": "uint8"
        }
      ],
      "name": "Initialized",
      "type": "event"
    },
    {
      "anonymous": false,
      "inputs": [
        {
          "indexed": true,
          "internalType": "address",
          "name": "previousOwner",
          "type": "address"
        },
        {
          "indexed": true,
          "internalType": "address",
          "name": "newOwner",
          "type": "address"
        }
      ],
      "name": "OwnershipTransferred",
      "type": "event"
    },
    {
      "anonymous": false,
      "inputs": [
        {
          "indexed": false,
          "internalType": "uint256",
          "name": "tokenId",
          "type": "uint256"
        },
        {
          "indexed": false,
          "internalType": "address[]",
          "name": "members",
          "type": "address[]"
        }
      ],
      "name": "RemoveMembers",
      "type": "event"
    },
    {
      "anonymous": false,
      "inputs": [
        {
          "indexed": false,
          "internalType": "uint256",
          "name": "tokenId",
          "type": "uint256"
        },
        {
          "indexed": false,
          "internalType": "address",
          "name": "minter",
          "type": "address"
        }
      ],
      "name": "SetMinter",
      "type": "event"
    },
    {
      "anonymous": false,
      "inputs": [
        {
          "indexed": true,
          "internalType": "address",
          "name": "operator",
          "type": "address"
        },
        {
          "indexed": true,
          "internalType": "address",
          "name": "from",
          "type": "address"
        },
        {
          "indexed": true,
          "internalType": "address",
          "name": "to",
          "type": "address"
        },
        {
          "indexed": false,
          "internalType": "uint256[]",
          "name": "ids",
          "type": "uint256[]"
        },
        {
          "indexed": false,
          "internalType": "uint256[]",
          "name": "values",
          "type": "uint256[]"
        }
      ],
      "name": "TransferBatch",
      "type": "event"
    },
    {
      "anonymous": false,
      "inputs": [
        {
          "indexed": true,
          "internalType": "address",
          "name": "operator",
          "type": "address"
        },
        {
          "indexed": true,
          "internalType": "address",
          "name": "from",
          "type": "address"
        },
        {
          "indexed": true,
          "internalType": "address",
          "name": "to",
          "type": "address"
        },
        {
          "indexed": false,
          "internalType": "uint256",
          "name": "id",
          "type": "uint256"
        },
        {
          "indexed": false,
          "internalType": "uint256",
          "name": "value",
          "type": "uint256"
        }
      ],
      "name": "TransferSingle",
      "type": "event"
    },
    {
      "anonymous": false,
      "inputs": [
        {
          "indexed": false,
          "internalType": "string",
          "name": "value",
          "type": "string"
        },
        {
          "indexed": true,
          "internalType": "uint256",
          "name": "id",
          "type": "uint256"
        }
      ],
      "name": "URI",
      "type": "event"
    },
    {
      "inputs": [
        {
          "internalType": "address[]",
          "name": "members",
          "type": "address[]"
        },
        {
          "internalType": "uint256",
          "name": "tokenId",
          "type": "uint256"
        }
      ],
      "name": "addMembers",
      "outputs": [],
      "stateMutability": "nonpayable",
      "type": "function"
    },
    {
      "inputs": [
        {
          "internalType": "string",
          "name": "name",
          "type": "string"
        },
        {
          "internalType": "address",
          "name": "minter",
          "type": "address"
        },
        {
          "internalType": "address[]",
          "name": "members",
          "type": "address[]"
        },
        {
          "internalType": "string",
          "name": "description",
          "type": "string"
        }
      ],
      "name": "addTeam",
      "outputs": [
        {
          "internalType": "uint256",
          "name": "",
          "type": "uint256"
        }
      ],
      "stateMutability": "nonpayable",
      "type": "function"
    },
    {
      "inputs": [
        {
          "internalType": "address",
          "name": "account",
          "type": "address"
        },
        {
          "internalType": "uint256",
          "name": "id",
          "type": "uint256"
        }
      ],
      "name": "balanceOf",
      "outputs": [
        {
          "internalType": "uint256",
          "name": "",
          "type": "uint256"
        }
      ],
      "stateMutability": "view",
      "type": "function"
    },
    {
      "inputs": [
        {
          "internalType": "address[]",
          "name": "accounts",
          "type": "address[]"
        },
        {
          "internalType": "uint256[]",
          "name": "ids",
          "type": "uint256[]"
        }
      ],
      "name": "balanceOfBatch",
      "outputs": [
        {
          "internalType": "uint256[]",
          "name": "",
          "type": "uint256[]"
        }
      ],
      "stateMutability": "view",
      "type": "function"
    },
    {
      "inputs": [
        {
          "internalType": "uint256",
          "name": "",
          "type": "uint256"
        }
      ],
      "name": "descriptionOf",
      "outputs": [
        {
          "internalType": "string",
          "name": "",
          "type": "string"
        }
      ],
      "stateMutability": "view",
      "type": "function"
    },
    {
      "inputs": [],
      "name": "initialize",
      "outputs": [],
      "stateMutability": "nonpayable",
      "type": "function"
    },
    {
      "inputs": [
        {
          "internalType": "address",
          "name": "account",
          "type": "address"
        },
        {
          "internalType": "address",
          "name": "operator",
          "type": "address"
        }
      ],
      "name": "isApprovedForAll",
      "outputs": [
        {
          "internalType": "bool",
          "name": "",
          "type": "bool"
        }
      ],
      "stateMutability": "view",
      "type": "function"
    },
    {
      "inputs": [
        {
          "internalType": "uint256",
          "name": "",
          "type": "uint256"
        }
      ],
      "name": "minterOf",
      "outputs": [
        {
          "internalType": "address",
          "name": "",
          "type": "address"
        }
      ],
      "stateMutability": "view",
      "type": "function"
    },
    {
      "inputs": [
        {
          "internalType": "uint256",
          "name": "",
          "type": "uint256"
        }
      ],
      "name": "nameOf",
      "outputs": [
        {
          "internalType": "string",
          "name": "",
          "type": "string"
        }
      ],
      "stateMutability": "view",
      "type": "function"
    },
    {
      "inputs": [],
      "name": "owner",
      "outputs": [
        {
          "internalType": "address",
          "name": "",
          "type": "address"
        }
      ],
      "stateMutability": "view",
      "type": "function"
    },
    {
      "inputs": [
        {
          "internalType": "address[]",
          "name": "members",
          "type": "address[]"
        },
        {
          "internalType": "uint256",
          "name": "tokenId",
          "type": "uint256"
        }
      ],
      "name": "removeMembers",
      "outputs": [],
      "stateMutability": "nonpayable",
      "type": "function"
    },
    {
      "inputs": [],
      "name": "renounceOwnership",
      "outputs": [],
      "stateMutability": "nonpayable",
      "type": "function"
    },
    {
      "inputs": [
        {
          "internalType": "address",
          "name": "from",
          "type": "address"
        },
        {
          "internalType": "address",
          "name": "to",
          "type": "address"
        },
        {
          "internalType": "uint256[]",
          "name": "ids",
          "type": "uint256[]"
        },
        {
          "internalType": "uint256[]",
          "name": "amounts",
          "type": "uint256[]"
        },
        {
          "internalType": "bytes",
          "name": "data",
          "type": "bytes"
        }
      ],
      "name": "safeBatchTransferFrom",
      "outputs": [],
      "stateMutability": "nonpayable",
      "type": "function"
    },
    {
      "inputs": [
        {
          "internalType": "address",
          "name": "from",
          "type": "address"
        },
        {
          "internalType": "address",
          "name": "to",
          "type": "address"
        },
        {
          "internalType": "uint256",
          "name": "id",
          "type": "uint256"
        },
        {
          "internalType": "uint256",
          "name": "amount",
          "type": "uint256"
        },
        {
          "internalType": "bytes",
          "name": "data",
          "type": "bytes"
        }
      ],
      "name": "safeTransferFrom",
      "outputs": [],
      "stateMutability": "nonpayable",
      "type": "function"
    },
    {
      "inputs": [
        {
          "internalType": "address",
          "name": "operator",
          "type": "address"
        },
        {
          "internalType": "bool",
          "name": "approved",
          "type": "bool"
        }
      ],
      "name": "setApprovalForAll",
      "outputs": [],
      "stateMutability": "nonpayable",
      "type": "function"
    },
    {
      "inputs": [
        {
          "internalType": "string",
          "name": "name",
          "type": "string"
        },
        {
          "internalType": "string",
          "name": "description",
          "type": "string"
        },
        {
          "internalType": "uint256",
          "name": "tokenId",
          "type": "uint256"
        }
      ],
      "name": "setInfo",
      "outputs": [],
      "stateMutability": "nonpayable",
      "type": "function"
    },
    {
      "inputs": [
        {
          "internalType": "address",
          "name": "minter",
          "type": "address"
        },
        {
          "internalType": "uint256",
          "name": "tokenId",
          "type": "uint256"
        }
      ],
      "name": "setMinter",
      "outputs": [],
      "stateMutability": "nonpayable",
      "type": "function"
    },
    {
      "inputs": [
        {
          "internalType": "bytes4",
          "name": "interfaceId",
          "type": "bytes4"
        }
      ],
      "name": "supportsInterface",
      "outputs": [
        {
          "internalType": "bool",
          "name": "",
          "type": "bool"
        }
      ],
      "stateMutability": "view",
      "type": "function"
    },
    {
      "inputs": [
        {
          "internalType": "address",
          "name": "newOwner",
          "type": "address"
        }
      ],
      "name": "transferOwnership",
      "outputs": [],
      "stateMutability": "nonpayable",
      "type": "function"
    },
    {
      "inputs": [
        {
          "internalType": "uint256",
          "name": "_id",
          "type": "uint256"
        }
      ],
      "name": "uri",
      "outputs": [
        {
          "internalType": "string",
          "name": "",
          "type": "string"
        }
      ],
      "stateMutability": "view",
      "type": "function"
    }
  ],
  "transactionHash": "0x53de1469078ac2e54e6dc3e886c88d8dca21fd4c37b5c31e5956ad88b9955f0a",
  "args": [],
  "numDeployments": 1,
  "solcInputHash": "620a3fefea25e6b6df861fc5d6b8881e",
  "bytecode": "0x60806040523480156200001157600080fd5b506200001c62000022565b620000e4565b600054610100900460ff16156200008f5760405162461bcd60e51b815260206004820152602760248201527f496e697469616c697a61626c653a20636f6e747261637420697320696e697469604482015266616c697a696e6760c81b606482015260840160405180910390fd5b60005460ff9081161015620000e2576000805460ff191660ff9081179091556040519081527f7f26b83ff96e1f2b6a682f133852f6798a09c465da95921460cefb38474024989060200160405180910390a15b565b612a7c80620000f46000396000f3fe608060405234801561001057600080fd5b506004361061012a5760003560e01c80638129fc1c116100ad578063a22cb46511610071578063a22cb4651461029d578063b9e2b544146102b0578063e985e9c5146102c3578063f242432a146102ff578063f2fde38b1461031257600080fd5b80638129fc1c146102215780638304fc25146102295780638da5cb5b1461023c5780639ce38998146102615780639e942ace1461027457600080fd5b80632eb2c2d6116100f45780632eb2c2d6146101be5780633e0fb267146101d35780634e1273f4146101e65780636c2d185214610206578063715018a61461021957600080fd5b806253153b1461012f578062fdd58e1461015557806301ffc9a714610168578063051a26641461018b5780630e89341c146101ab575b600080fd5b61014261013d366004612191565b610325565b6040519081526020015b60405180910390f35b610142610163366004612086565b610434565b61017b610176366004612157565b6104c7565b604051901515815260200161014c565b61019e610199366004612295565b610519565b60405161014c919061259b565b61019e6101b9366004612295565b6105b3565b6101d16101cc366004611f3d565b61066c565b005b61019e6101e1366004612295565b6106b8565b6101f96101f43660046120b0565b6106d1565b60405161014c919061255a565b6101d1610214366004612113565b6107fa565b6101d161087a565b6101d161088e565b6101d1610237366004612113565b6109b7565b6097546001600160a01b03165b6040516001600160a01b03909116815260200161014c565b6101d161026f366004612086565b610a2a565b610249610282366004612295565b60c9602052600090815260409020546001600160a01b031681565b6101d16102ab36600461204a565b610aca565b6101d16102be366004612229565b610ad9565b61017b6102d1366004611f0a565b6001600160a01b03918216600090815260666020908152604080832093909416825291909152205460ff1690565b6101d161030d366004611fe6565b610b92565b6101d1610320366004611ee8565b610bd7565b600061032f610c4d565b6001600160a01b03841661036657604051634726455360e11b81526001600160a01b03851660048201526024015b60405180910390fd5b61037460cc80546001019055565b600061037f60cc5490565b600081815260c96020908152604080832080546001600160a01b0319166001600160a01b038b1617905560ca825290912088519293506103c3929091890190611cd8565b50600081815260cb6020908152604090912084516103e392860190611cd8565b506103ee8482610ca7565b7f11ebcfa4d6f58fc5729334680932554fc784d6eebd0218d2b9ae507ff0285451818688866040516104239493929190612755565b60405180910390a195945050505050565b60006001600160a01b03831661049f5760405162461bcd60e51b815260206004820152602a60248201527f455243313135353a2061646472657373207a65726f206973206e6f742061207660448201526930b634b21037bbb732b960b11b606482015260840161035d565b5060009081526065602090815260408083206001600160a01b03949094168352929052205490565b60006001600160e01b03198216636cdb3d1360e11b14806104f857506001600160e01b031982166303a24d0760e21b145b8061051357506301ffc9a760e01b6001600160e01b03198316145b92915050565b60ca602052600090815260409020805461053290612887565b80601f016020809104026020016040519081016040528092919081815260200182805461055e90612887565b80156105ab5780601f10610580576101008083540402835291602001916105ab565b820191906000526020600020905b81548152906001019060200180831161058e57829003601f168201915b505050505081565b600081815260ca60205260408120606091906105e86105da6097546001600160a01b031690565b6001600160a01b0316610cff565b600085815260c96020526040902054610609906001600160a01b0316610cff565b600086815260cb6020908152604091829020915161062b9594939291016123af565b604051602081830303815290604052905061064581610d37565b6040516020016106559190612472565b604051602081830303815290604052915050919050565b6001600160a01b038516331480610688575061068885336102d1565b6106a45760405162461bcd60e51b815260040161035d906125e4565b6106b18585858585610e9e565b5050505050565b60cb602052600090815260409020805461053290612887565b606081518351146107365760405162461bcd60e51b815260206004820152602960248201527f455243313135353a206163636f756e747320616e6420696473206c656e677468604482015268040dad2e6dac2e8c6d60bb1b606482015260840161035d565b600083516001600160401b0381111561075157610751612935565b60405190808252806020026020018201604052801561077a578160200160208202803683370190505b50905060005b84518110156107f2576107c585828151811061079e5761079e61291f565b60200260200101518583815181106107b8576107b861291f565b6020026020010151610434565b8282815181106107d7576107d761291f565b60209081029190910101526107eb816128ee565b9050610780565b509392505050565b600081815260c9602052604090205481906001600160a01b03163314610832576040516282b42960e81b815260040160405180910390fd5b61083c838361108c565b7f54eaa0bdcd636dd6b6c138e7c324ab68ebb60622f8cc13d20d31eeb757e7bfec828460405161086d929190612791565b60405180910390a1505050565b610882610c4d565b61088c60006110f0565b565b600054610100900460ff16158080156108ae5750600054600160ff909116105b806108c85750303b1580156108c8575060005460ff166001145b61092b5760405162461bcd60e51b815260206004820152602e60248201527f496e697469616c697a61626c653a20636f6e747261637420697320616c72656160448201526d191e481a5b9a5d1a585b1a5e995960921b606482015260840161035d565b6000805460ff19166001179055801561094e576000805461ff0019166101001790555b610956611142565b61096e60405180602001604052806000815250611171565b80156109b4576000805461ff0019169055604051600181527f7f26b83ff96e1f2b6a682f133852f6798a09c465da95921460cefb38474024989060200160405180910390a15b50565b600081815260c9602052604090205481906001600160a01b031633146109ef576040516282b42960e81b815260040160405180910390fd5b6109f98383610ca7565b7ff5bb0cafb1d317496246986216c7574b6b7185f34694344f31c88a3dea072ff8828460405161086d929190612791565b610a32610c4d565b6001600160a01b038216610a6457604051634726455360e11b81526001600160a01b038316600482015260240161035d565b600081815260c9602090815260409182902080546001600160a01b0319166001600160a01b0386169081179091558251848152918201527f154933cf3e220494f8a0abb0ebf8ec33fcba21e15da759d777aa8418cfd7ff18910160405180910390a15050565b610ad53383836111a1565b5050565b600081815260c9602052604090205481906001600160a01b03163314610b11576040516282b42960e81b815260040160405180910390fd5b600082815260ca602090815260409091208551610b3092870190611cd8565b50600082815260cb602090815260409091208451610b5092860190611cd8565b507f9a9f1e87acdbebd6a43613eb3302ce8597ca8fd373aaf822705b2d7771f96cc1848484604051610b84939291906125ae565b60405180910390a150505050565b6001600160a01b038516331480610bae5750610bae85336102d1565b610bca5760405162461bcd60e51b815260040161035d906125e4565b6106b18585858585611282565b610bdf610c4d565b6001600160a01b038116610c445760405162461bcd60e51b815260206004820152602660248201527f4f776e61626c653a206e6577206f776e657220697320746865207a65726f206160448201526564647265737360d01b606482015260840161035d565b6109b4816110f0565b6097546001600160a01b0316331461088c5760405162461bcd60e51b815260206004820181905260248201527f4f776e61626c653a2063616c6c6572206973206e6f7420746865206f776e6572604482015260640161035d565b60005b8251811015610cfa57610ce8838281518110610cc857610cc861291f565b6020026020010151836001604051806020016040528060008152506113be565b80610cf2816128ee565b915050610caa565b505050565b604051606082811b6bffffffffffffffffffffffff1916602083015290610513906034016040516020818303038152906040526114e3565b6060815160001415610d5757505060408051602081019091526000815290565b6000604051806060016040528060408152602001612a076040913990506000600384516002610d8691906127fe565b610d909190612816565b610d9b906004612838565b90506000610daa8260206127fe565b6001600160401b03811115610dc157610dc1612935565b6040519080825280601f01601f191660200182016040528015610deb576020820181803683370190505b509050818152600183018586518101602084015b81831015610e595760039283018051603f601282901c811687015160f890811b8552600c83901c8216880151811b6001860152600683901c8216880151811b60028601529116860151901b93820193909352600401610dff565b600389510660018114610e735760028114610e8457610e90565b613d3d60f01b600119830152610e90565b603d60f81b6000198301525b509398975050505050505050565b8151835114610f005760405162461bcd60e51b815260206004820152602860248201527f455243313135353a2069647320616e6420616d6f756e7473206c656e677468206044820152670dad2e6dac2e8c6d60c31b606482015260840161035d565b6001600160a01b038416610f265760405162461bcd60e51b815260040161035d9061267b565b33610f358187878787876116f3565b60005b845181101561101e576000858281518110610f5557610f5561291f565b602002602001015190506000858381518110610f7357610f7361291f565b60209081029190910181015160008481526065835260408082206001600160a01b038e168352909352919091205490915081811015610fc45760405162461bcd60e51b815260040161035d906126c0565b60008381526065602090815260408083206001600160a01b038e8116855292528083208585039055908b168252812080548492906110039084906127fe565b9250508190555050505080611017906128ee565b9050610f38565b50846001600160a01b0316866001600160a01b0316826001600160a01b03167f4a39dc06d4c0dbc64b70af90fd698a233a518aa5d07e595d983b8c0526c8f7fb878760405161106e92919061256d565b60405180910390a4611084818787878787611855565b505050505050565b60005b8251811015610cfa576110de8382815181106110ad576110ad61291f565b6020026020010151836110d98685815181106110cb576110cb61291f565b602002602001015186610434565b6119c0565b806110e8816128ee565b91505061108f565b609780546001600160a01b038381166001600160a01b0319831681179093556040519116919082907f8be0079c531659141344cd1fd0a4f28419497f9722a3daafe3b4186f6b6457e090600090a35050565b600054610100900460ff166111695760405162461bcd60e51b815260040161035d9061270a565b61088c611b54565b600054610100900460ff166111985760405162461bcd60e51b815260040161035d9061270a565b6109b481611b84565b816001600160a01b0316836001600160a01b031614156112155760405162461bcd60e51b815260206004820152602960248201527f455243313135353a2073657474696e6720617070726f76616c20737461747573604482015268103337b91039b2b63360b91b606482015260840161035d565b6001600160a01b03838116600081815260666020908152604080832094871680845294825291829020805460ff191686151590811790915591519182527f17307eab39ab6107e8899845ad3d59bd9653f200f220920489ca2b5937696c31910160405180910390a3505050565b6001600160a01b0384166112a85760405162461bcd60e51b815260040161035d9061267b565b3360006112b485611bb4565b905060006112c185611bb4565b90506112d18389898585896116f3565b60008681526065602090815260408083206001600160a01b038c168452909152902054858110156113145760405162461bcd60e51b815260040161035d906126c0565b60008781526065602090815260408083206001600160a01b038d8116855292528083208985039055908a168252812080548892906113539084906127fe565b909155505060408051888152602081018890526001600160a01b03808b16928c821692918816917fc3d58168c5ae7397731d063d5bbf3d657854427343f4c083240f7aacaa2d0f62910160405180910390a46113b3848a8a8a8a8a611bff565b505050505050505050565b6001600160a01b03841661141e5760405162461bcd60e51b815260206004820152602160248201527f455243313135353a206d696e7420746f20746865207a65726f206164647265736044820152607360f81b606482015260840161035d565b33600061142a85611bb4565b9050600061143785611bb4565b9050611448836000898585896116f3565b60008681526065602090815260408083206001600160a01b038b1684529091528120805487929061147a9084906127fe565b909155505060408051878152602081018790526001600160a01b03808a1692600092918716917fc3d58168c5ae7397731d063d5bbf3d657854427343f4c083240f7aacaa2d0f62910160405180910390a46114da83600089898989611bff565b50505050505050565b60408051808201909152601081526f181899199a1a9b1b9c1cb0b131b232b360811b602082015281516060919060009061151e906002612838565b6115299060026127fe565b6001600160401b0381111561154057611540612935565b6040519080825280601f01601f19166020018201604052801561156a576020820181803683370190505b509050600360fc1b816000815181106115855761158561291f565b60200101906001600160f81b031916908160001a905350600f60fb1b816001815181106115b4576115b461291f565b60200101906001600160f81b031916908160001a90535060005b84518110156107f2578260048683815181106115ec576115ec61291f565b016020015182516001600160f81b031990911690911c60f81c9081106116145761161461291f565b01602001516001600160f81b0319168261162f836002612838565b61163a9060026127fe565b8151811061164a5761164a61291f565b60200101906001600160f81b031916908160001a905350828582815181106116745761167461291f565b602091010151815160f89190911c600f169081106116945761169461291f565b01602001516001600160f81b031916826116af836002612838565b6116ba9060036127fe565b815181106116ca576116ca61291f565b60200101906001600160f81b031916908160001a905350806116eb816128ee565b9150506115ce565b6001600160a01b0385166117875760005b8351811015611785576000611725868684815181106107b8576107b861291f565b11156117735783818151811061173d5761173d61291f565b602002602001015185604051630f419f7760e11b815260040161035d9291909182526001600160a01b0316602082015260400190565b8061177d816128ee565b915050611704565b505b6001600160a01b0384166118175760005b8351811015611815576117b7868583815181106107b8576107b861291f565b611803578381815181106117cd576117cd61291f565b6020026020010151866040516303e73bfd60e41b815260040161035d9291909182526001600160a01b0316602082015260400190565b8061180d816128ee565b915050611798565b505b6001600160a01b0385161580159061183757506001600160a01b03841615155b1561108457604051638cd22d1960e01b815260040160405180910390fd5b6001600160a01b0384163b156110845760405163bc197c8160e01b81526001600160a01b0385169063bc197c819061189990899089908890889088906004016124b7565b602060405180830381600087803b1580156118b357600080fd5b505af19250505080156118e3575060408051601f3d908101601f191682019092526118e091810190612174565b60015b611990576118ef61294b565b806308c379a014156119295750611904612967565b8061190f575061192b565b8060405162461bcd60e51b815260040161035d919061259b565b505b60405162461bcd60e51b815260206004820152603460248201527f455243313135353a207472616e7366657220746f206e6f6e20455243313135356044820152732932b1b2b4bb32b91034b6b83632b6b2b73a32b960611b606482015260840161035d565b6001600160e01b0319811663bc197c8160e01b146114da5760405162461bcd60e51b815260040161035d90612633565b6001600160a01b038316611a225760405162461bcd60e51b815260206004820152602360248201527f455243313135353a206275726e2066726f6d20746865207a65726f206164647260448201526265737360e81b606482015260840161035d565b336000611a2e84611bb4565b90506000611a3b84611bb4565b9050611a5b838760008585604051806020016040528060008152506116f3565b60008581526065602090815260408083206001600160a01b038a16845290915290205484811015611ada5760405162461bcd60e51b8152602060048201526024808201527f455243313135353a206275726e20616d6f756e7420657863656564732062616c604482015263616e636560e01b606482015260840161035d565b60008681526065602090815260408083206001600160a01b038b81168086529184528285208a8703905582518b81529384018a90529092908816917fc3d58168c5ae7397731d063d5bbf3d657854427343f4c083240f7aacaa2d0f62910160405180910390a46040805160208101909152600090526114da565b600054610100900460ff16611b7b5760405162461bcd60e51b815260040161035d9061270a565b61088c336110f0565b600054610100900460ff16611bab5760405162461bcd60e51b815260040161035d9061270a565b6109b481611cc9565b60408051600180825281830190925260609160009190602080830190803683370190505090508281600081518110611bee57611bee61291f565b602090810291909101015292915050565b6001600160a01b0384163b156110845760405163f23a6e6160e01b81526001600160a01b0385169063f23a6e6190611c439089908990889088908890600401612515565b602060405180830381600087803b158015611c5d57600080fd5b505af1925050508015611c8d575060408051601f3d908101601f19168201909252611c8a91810190612174565b60015b611c99576118ef61294b565b6001600160e01b0319811663f23a6e6160e01b146114da5760405162461bcd60e51b815260040161035d90612633565b8051610ad59060679060208401905b828054611ce490612887565b90600052602060002090601f016020900481019282611d065760008555611d4c565b82601f10611d1f57805160ff1916838001178555611d4c565b82800160010185558215611d4c579182015b82811115611d4c578251825591602001919060010190611d31565b50611d58929150611d5c565b5090565b5b80821115611d585760008155600101611d5d565b80356001600160a01b0381168114611d8857600080fd5b919050565b600082601f830112611d9e57600080fd5b81356020611dab826127db565b604051611db882826128c2565b8381528281019150858301600585901b87018401881015611dd857600080fd5b60005b85811015611dfe57611dec82611d71565b84529284019290840190600101611ddb565b5090979650505050505050565b600082601f830112611e1c57600080fd5b81356020611e29826127db565b604051611e3682826128c2565b8381528281019150858301600585901b87018401881015611e5657600080fd5b60005b85811015611dfe57813584529284019290840190600101611e59565b600082601f830112611e8657600080fd5b81356001600160401b03811115611e9f57611e9f612935565b604051611eb6601f8301601f1916602001826128c2565b818152846020838601011115611ecb57600080fd5b816020850160208301376000918101602001919091529392505050565b600060208284031215611efa57600080fd5b611f0382611d71565b9392505050565b60008060408385031215611f1d57600080fd5b611f2683611d71565b9150611f3460208401611d71565b90509250929050565b600080600080600060a08688031215611f5557600080fd5b611f5e86611d71565b9450611f6c60208701611d71565b935060408601356001600160401b0380821115611f8857600080fd5b611f9489838a01611e0b565b94506060880135915080821115611faa57600080fd5b611fb689838a01611e0b565b93506080880135915080821115611fcc57600080fd5b50611fd988828901611e75565b9150509295509295909350565b600080600080600060a08688031215611ffe57600080fd5b61200786611d71565b945061201560208701611d71565b9350604086013592506060860135915060808601356001600160401b0381111561203e57600080fd5b611fd988828901611e75565b6000806040838503121561205d57600080fd5b61206683611d71565b91506020830135801515811461207b57600080fd5b809150509250929050565b6000806040838503121561209957600080fd5b6120a283611d71565b946020939093013593505050565b600080604083850312156120c357600080fd5b82356001600160401b03808211156120da57600080fd5b6120e686838701611d8d565b935060208501359150808211156120fc57600080fd5b5061210985828601611e0b565b9150509250929050565b6000806040838503121561212657600080fd5b82356001600160401b0381111561213c57600080fd5b61214885828601611d8d565b95602094909401359450505050565b60006020828403121561216957600080fd5b8135611f03816129f0565b60006020828403121561218657600080fd5b8151611f03816129f0565b600080600080608085870312156121a757600080fd5b84356001600160401b03808211156121be57600080fd5b6121ca88838901611e75565b95506121d860208801611d71565b945060408701359150808211156121ee57600080fd5b6121fa88838901611d8d565b9350606087013591508082111561221057600080fd5b5061221d87828801611e75565b91505092959194509250565b60008060006060848603121561223e57600080fd5b83356001600160401b038082111561225557600080fd5b61226187838801611e75565b9450602086013591508082111561227757600080fd5b5061228486828701611e75565b925050604084013590509250925092565b6000602082840312156122a757600080fd5b5035919050565b600081518084526020808501945080840160005b838110156122de578151875295820195908201906001016122c2565b509495945050505050565b60008151808452612301816020860160208601612857565b601f01601f19169290920160200192915050565b8054600090600181811c908083168061232f57607f831692505b602080841082141561235157634e487b7160e01b600052602260045260246000fd5b8180156123655760018114612376576123a3565b60ff198616895284890196506123a3565b60008881526020902060005b8681101561239b5781548b820152908501908301612382565b505084890196505b50505050505092915050565b693d913730b6b2911d101160b11b815260006123ce600a830187612315565b6e1116101131b932b0ba37b9111d101160891b815285516123f681600f840160208a01612857565b6d1116101136b4b73a32b9111d101160911b600f9290910191820152845161242581601d840160208901612857565b72111610113232b9b1b934b83a34b7b7111d101160691b601d92909101918201526124536030820185612315565b601160f91b8152607d60f81b6001820152600201979650505050505050565b7f646174613a6170706c69636174696f6e2f6a736f6e3b6261736536342c0000008152600082516124aa81601d850160208701612857565b91909101601d0192915050565b6001600160a01b0386811682528516602082015260a0604082018190526000906124e3908301866122ae565b82810360608401526124f581866122ae565b9050828103608084015261250981856122e9565b98975050505050505050565b6001600160a01b03868116825285166020820152604081018490526060810183905260a06080820181905260009061254f908301846122e9565b979650505050505050565b602081526000611f0360208301846122ae565b60408152600061258060408301856122ae565b828103602084015261259281856122ae565b95945050505050565b602081526000611f0360208301846122e9565b6060815260006125c160608301866122e9565b82810360208401526125d381866122e9565b915050826040830152949350505050565b6020808252602f908201527f455243313135353a2063616c6c6572206973206e6f7420746f6b656e206f776e60408201526e195c881b9bdc88185c1c1c9bdd9959608a1b606082015260800190565b60208082526028908201527f455243313135353a204552433131353552656365697665722072656a656374656040820152676420746f6b656e7360c01b606082015260800190565b60208082526025908201527f455243313135353a207472616e7366657220746f20746865207a65726f206164604082015264647265737360d81b606082015260800190565b6020808252602a908201527f455243313135353a20696e73756666696369656e742062616c616e636520666f60408201526939103a3930b739b332b960b11b606082015260800190565b6020808252602b908201527f496e697469616c697a61626c653a20636f6e7472616374206973206e6f74206960408201526a6e697469616c697a696e6760a81b606082015260800190565b8481526001600160a01b038416602082015260806040820181905260009061277f908301856122e9565b828103606084015261254f81856122e9565b6000604082018483526020604081850152818551808452606086019150828701935060005b81811015611dfe5784516001600160a01b0316835293830193918301916001016127b6565b60006001600160401b038211156127f4576127f4612935565b5060051b60200190565b6000821982111561281157612811612909565b500190565b60008261283357634e487b7160e01b600052601260045260246000fd5b500490565b600081600019048311821515161561285257612852612909565b500290565b60005b8381101561287257818101518382015260200161285a565b83811115612881576000848401525b50505050565b600181811c9082168061289b57607f821691505b602082108114156128bc57634e487b7160e01b600052602260045260246000fd5b50919050565b601f8201601f191681016001600160401b03811182821017156128e7576128e7612935565b6040525050565b600060001982141561290257612902612909565b5060010190565b634e487b7160e01b600052601160045260246000fd5b634e487b7160e01b600052603260045260246000fd5b634e487b7160e01b600052604160045260246000fd5b600060033d11156129645760046000803e5060005160e01c5b90565b600060443d10156129755790565b6040516003193d81016004833e81513d6001600160401b0381602484011181841117156129a457505050505090565b82850191508151818111156129bc5750505050505090565b843d87010160208285010111156129d65750505050505090565b6129e5602082860101876128c2565b509095945050505050565b6001600160e01b0319811681146109b457600080fdfe4142434445464748494a4b4c4d4e4f505152535455565758595a6162636465666768696a6b6c6d6e6f707172737475767778797a303132333435363738392b2fa2646970667358221220efb698e89500fbdf31957245e0f652b7c2cfc3e14952deac367591c6e55eefc864736f6c63430008070033",
  "devdoc": {
    "kind": "dev",
    "methods": {
      "balanceOf(address,uint256)": {
        "details": "See {IERC1155-balanceOf}. Requirements: - `account` cannot be the zero address."
      },
      "balanceOfBatch(address[],uint256[])": {
        "details": "See {IERC1155-balanceOfBatch}. Requirements: - `accounts` and `ids` must have the same length."
      },
      "constructor": {
        "custom:oz-upgrades-unsafe-allow": "constructor"
      },
      "isApprovedForAll(address,address)": {
        "details": "See {IERC1155-isApprovedForAll}."
      },
      "owner()": {
        "details": "Returns the address of the current owner."
      },
      "renounceOwnership()": {
        "details": "Leaves the contract without owner. It will not be possible to call `onlyOwner` functions anymore. Can only be called by the current owner. NOTE: Renouncing ownership will leave the contract without an owner, thereby removing any functionality that is only available to the owner."
      },
      "safeBatchTransferFrom(address,address,uint256[],uint256[],bytes)": {
        "details": "See {IERC1155-safeBatchTransferFrom}."
      },
      "safeTransferFrom(address,address,uint256,uint256,bytes)": {
        "details": "See {IERC1155-safeTransferFrom}."
      },
      "setApprovalForAll(address,bool)": {
        "details": "See {IERC1155-setApprovalForAll}."
      },
      "supportsInterface(bytes4)": {
        "details": "See {IERC165-supportsInterface}."
      },
      "transferOwnership(address)": {
        "details": "Transfers ownership of the contract to a new account (`newOwner`). Can only be called by the current owner."
      }
    },
    "version": 1
  },
  "userdoc": {
    "kind": "user",
    "methods": {},
    "version": 1
  },
  "storageLayout": {
    "storage": [
      {
        "astId": 3247,
        "contract": "contracts/Team.sol:Team",
        "label": "_initialized",
        "offset": 0,
        "slot": "0",
        "type": "t_uint8"
      },
      {
        "astId": 3250,
        "contract": "contracts/Team.sol:Team",
        "label": "_initializing",
        "offset": 1,
        "slot": "0",
        "type": "t_bool"
      },
      {
        "astId": 8642,
        "contract": "contracts/Team.sol:Team",
        "label": "__gap",
        "offset": 0,
        "slot": "1",
        "type": "t_array(t_uint256)50_storage"
      },
      {
        "astId": 9798,
        "contract": "contracts/Team.sol:Team",
        "label": "__gap",
        "offset": 0,
        "slot": "51",
        "type": "t_array(t_uint256)50_storage"
      },
      {
        "astId": 3556,
        "contract": "contracts/Team.sol:Team",
        "label": "_balances",
        "offset": 0,
        "slot": "101",
        "type": "t_mapping(t_uint256,t_mapping(t_address,t_uint256))"
      },
      {
        "astId": 3562,
        "contract": "contracts/Team.sol:Team",
        "label": "_operatorApprovals",
        "offset": 0,
        "slot": "102",
        "type": "t_mapping(t_address,t_mapping(t_address,t_bool))"
      },
      {
        "astId": 3564,
        "contract": "contracts/Team.sol:Team",
        "label": "_uri",
        "offset": 0,
        "slot": "103",
        "type": "t_string_storage"
      },
      {
        "astId": 4771,
        "contract": "contracts/Team.sol:Team",
        "label": "__gap",
        "offset": 0,
        "slot": "104",
        "type": "t_array(t_uint256)47_storage"
      },
      {
        "astId": 541,
        "contract": "contracts/Team.sol:Team",
        "label": "_owner",
        "offset": 0,
        "slot": "151",
        "type": "t_address"
      },
      {
        "astId": 661,
        "contract": "contracts/Team.sol:Team",
        "label": "__gap",
        "offset": 0,
        "slot": "152",
        "type": "t_array(t_uint256)49_storage"
      },
      {
        "astId": 28595,
        "contract": "contracts/Team.sol:Team",
        "label": "minterOf",
        "offset": 0,
        "slot": "201",
        "type": "t_mapping(t_uint256,t_address)"
      },
      {
        "astId": 28599,
        "contract": "contracts/Team.sol:Team",
        "label": "nameOf",
        "offset": 0,
        "slot": "202",
        "type": "t_mapping(t_uint256,t_string_storage)"
      },
      {
        "astId": 28603,
        "contract": "contracts/Team.sol:Team",
        "label": "descriptionOf",
        "offset": 0,
        "slot": "203",
        "type": "t_mapping(t_uint256,t_string_storage)"
      },
      {
        "astId": 28606,
        "contract": "contracts/Team.sol:Team",
        "label": "_tokenIds",
        "offset": 0,
        "slot": "204",
        "type": "t_struct(Counter)17376_storage"
      },
      {
        "astId": 29060,
        "contract": "contracts/Team.sol:Team",
        "label": "__gap",
        "offset": 0,
        "slot": "205",
        "type": "t_array(t_uint256)50_storage"
      }
    ],
    "types": {
      "t_address": {
        "encoding": "inplace",
        "label": "address",
        "numberOfBytes": "20"
      },
      "t_array(t_uint256)47_storage": {
        "base": "t_uint256",
        "encoding": "inplace",
        "label": "uint256[47]",
        "numberOfBytes": "1504"
      },
      "t_array(t_uint256)49_storage": {
        "base": "t_uint256",
        "encoding": "inplace",
        "label": "uint256[49]",
        "numberOfBytes": "1568"
      },
      "t_array(t_uint256)50_storage": {
        "base": "t_uint256",
        "encoding": "inplace",
        "label": "uint256[50]",
        "numberOfBytes": "1600"
      },
      "t_bool": {
        "encoding": "inplace",
        "label": "bool",
        "numberOfBytes": "1"
      },
      "t_mapping(t_address,t_bool)": {
        "encoding": "mapping",
        "key": "t_address",
        "label": "mapping(address => bool)",
        "numberOfBytes": "32",
        "value": "t_bool"
      },
      "t_mapping(t_address,t_mapping(t_address,t_bool))": {
        "encoding": "mapping",
        "key": "t_address",
        "label": "mapping(address => mapping(address => bool))",
        "numberOfBytes": "32",
        "value": "t_mapping(t_address,t_bool)"
      },
      "t_mapping(t_address,t_uint256)": {
        "encoding": "mapping",
        "key": "t_address",
        "label": "mapping(address => uint256)",
        "numberOfBytes": "32",
        "value": "t_uint256"
      },
      "t_mapping(t_uint256,t_address)": {
        "encoding": "mapping",
        "key": "t_uint256",
        "label": "mapping(uint256 => address)",
        "numberOfBytes": "32",
        "value": "t_address"
      },
      "t_mapping(t_uint256,t_mapping(t_address,t_uint256))": {
        "encoding": "mapping",
        "key": "t_uint256",
        "label": "mapping(uint256 => mapping(address => uint256))",
        "numberOfBytes": "32",
        "value": "t_mapping(t_address,t_uint256)"
      },
      "t_mapping(t_uint256,t_string_storage)": {
        "encoding": "mapping",
        "key": "t_uint256",
        "label": "mapping(uint256 => string)",
        "numberOfBytes": "32",
        "value": "t_string_storage"
      },
      "t_string_storage": {
        "encoding": "bytes",
        "label": "string",
        "numberOfBytes": "32"
      },
      "t_struct(Counter)17376_storage": {
        "encoding": "inplace",
        "label": "struct Counters.Counter",
        "members": [
          {
            "astId": 17375,
            "contract": "contracts/Team.sol:Team",
            "label": "_value",
            "offset": 0,
            "slot": "0",
            "type": "t_uint256"
          }
        ],
        "numberOfBytes": "32"
      },
      "t_uint256": {
        "encoding": "inplace",
        "label": "uint256",
        "numberOfBytes": "32"
      },
      "t_uint8": {
        "encoding": "inplace",
        "label": "uint8",
        "numberOfBytes": "1"
      }
    }
  }
}