{
  "address": "0xBa79Cd5422Db43afE2AC46eAb92524442313bD9d",
  "abi": [
    {
      "inputs": [],
      "stateMutability": "nonpayable",
      "type": "constructor"
    },
    {
      "anonymous": false,
      "inputs": [
        {
          "indexed": false,
          "internalType": "address",
          "name": "previousAdmin",
          "type": "address"
        },
        {
          "indexed": false,
          "internalType": "address",
          "name": "newAdmin",
          "type": "address"
        }
      ],
      "name": "AdminChanged",
      "type": "event"
    },
    {
      "anonymous": false,
      "inputs": [
        {
          "indexed": false,
          "internalType": "address",
          "name": "token",
          "type": "address"
        }
      ],
      "name": "AllowDepositToken",
      "type": "event"
    },
    {
      "anonymous": false,
      "inputs": [
        {
          "indexed": true,
          "internalType": "address",
          "name": "owner",
          "type": "address"
        },
        {
          "indexed": true,
          "internalType": "address",
          "name": "spender",
          "type": "address"
        },
        {
          "indexed": false,
          "internalType": "uint256",
          "name": "value",
          "type": "uint256"
        }
      ],
      "name": "Approval",
      "type": "event"
    },
    {
      "anonymous": false,
      "inputs": [
        {
          "indexed": true,
          "internalType": "address",
          "name": "beacon",
          "type": "address"
        }
      ],
      "name": "BeaconUpgraded",
      "type": "event"
    },
    {
      "anonymous": false,
      "inputs": [
        {
          "indexed": false,
          "internalType": "address",
          "name": "budgetApproval",
          "type": "address"
        },
        {
          "indexed": false,
          "internalType": "bytes",
          "name": "data",
          "type": "bytes"
        }
      ],
      "name": "CreateBudgetApproval",
      "type": "event"
    },
    {
      "anonymous": false,
      "inputs": [
        {
          "indexed": false,
          "internalType": "address",
          "name": "account",
          "type": "address"
        },
        {
          "indexed": false,
          "internalType": "address",
          "name": "token",
          "type": "address"
        },
        {
          "indexed": false,
          "internalType": "uint256",
          "name": "depositAmount",
          "type": "uint256"
        }
      ],
      "name": "Deposit",
      "type": "event"
    },
    {
      "anonymous": false,
      "inputs": [
        {
          "indexed": false,
          "internalType": "address",
          "name": "token",
          "type": "address"
        }
      ],
      "name": "DisallowDepositToken",
      "type": "event"
    },
    {
      "anonymous": false,
      "inputs": [
        {
          "indexed": false,
          "internalType": "address",
          "name": "budgetApproval",
          "type": "address"
        },
        {
          "indexed": false,
          "internalType": "bytes",
          "name": "data",
          "type": "bytes"
        }
      ],
      "name": "ExecuteByBudgetApproval",
      "type": "event"
    },
    {
      "anonymous": false,
      "inputs": [
        {
          "indexed": false,
          "internalType": "uint8",
          "name": "version",
          "type": "uint8"
        }
      ],
      "name": "Initialized",
      "type": "event"
    },
    {
      "anonymous": false,
      "inputs": [
        {
          "indexed": false,
          "internalType": "address",
          "name": "budgetApproval",
          "type": "address"
        }
      ],
      "name": "RevokeBudgetApproval",
      "type": "event"
    },
    {
      "anonymous": false,
      "inputs": [
        {
          "indexed": true,
          "internalType": "address",
          "name": "from",
          "type": "address"
        },
        {
          "indexed": true,
          "internalType": "address",
          "name": "to",
          "type": "address"
        },
        {
          "indexed": false,
          "internalType": "uint256",
          "name": "value",
          "type": "uint256"
        }
      ],
      "name": "Transfer",
      "type": "event"
    },
    {
      "anonymous": false,
      "inputs": [
        {
          "indexed": true,
          "internalType": "address",
          "name": "implementation",
          "type": "address"
        }
      ],
      "name": "Upgraded",
      "type": "event"
    },
    {
      "inputs": [
        {
          "internalType": "address[]",
          "name": "erc20s",
          "type": "address[]"
        }
      ],
      "name": "addAssets",
      "outputs": [],
      "stateMutability": "nonpayable",
      "type": "function"
    },
    {
      "inputs": [
        {
          "internalType": "address",
          "name": "owner",
          "type": "address"
        },
        {
          "internalType": "address",
          "name": "spender",
          "type": "address"
        }
      ],
      "name": "allowance",
      "outputs": [
        {
          "internalType": "uint256",
          "name": "",
          "type": "uint256"
        }
      ],
      "stateMutability": "view",
      "type": "function"
    },
    {
      "inputs": [
        {
          "internalType": "address",
          "name": "spender",
          "type": "address"
        },
        {
          "internalType": "uint256",
          "name": "amount",
          "type": "uint256"
        }
      ],
      "name": "approve",
      "outputs": [
        {
          "internalType": "bool",
          "name": "",
          "type": "bool"
        }
      ],
      "stateMutability": "nonpayable",
      "type": "function"
    },
    {
      "inputs": [
        {
          "internalType": "address",
          "name": "asset",
          "type": "address"
        },
        {
          "internalType": "uint256",
          "name": "amount",
          "type": "uint256"
        }
      ],
      "name": "assetBaseCurrencyPrice",
      "outputs": [
        {
          "internalType": "uint256",
          "name": "",
          "type": "uint256"
        }
      ],
      "stateMutability": "view",
      "type": "function"
    },
    {
      "inputs": [
        {
          "internalType": "address",
          "name": "asset",
          "type": "address"
        },
        {
          "internalType": "uint256",
          "name": "amount",
          "type": "uint256"
        }
      ],
      "name": "assetEthPrice",
      "outputs": [
        {
          "internalType": "uint256",
          "name": "",
          "type": "uint256"
        }
      ],
      "stateMutability": "view",
      "type": "function"
    },
    {
      "inputs": [
        {
          "internalType": "uint256",
          "name": "",
          "type": "uint256"
        }
      ],
      "name": "assets",
      "outputs": [
        {
          "internalType": "address",
          "name": "",
          "type": "address"
        }
      ],
      "stateMutability": "view",
      "type": "function"
    },
    {
      "inputs": [],
      "name": "assetsLength",
      "outputs": [
        {
          "internalType": "uint256",
          "name": "",
          "type": "uint256"
        }
      ],
      "stateMutability": "view",
      "type": "function"
    },
    {
      "inputs": [
        {
          "internalType": "address",
          "name": "asset",
          "type": "address"
        },
        {
          "internalType": "uint256",
          "name": "amount",
          "type": "uint256"
        }
      ],
      "name": "assetsShares",
      "outputs": [
        {
          "internalType": "uint256",
          "name": "",
          "type": "uint256"
        }
      ],
      "stateMutability": "view",
      "type": "function"
    },
    {
      "inputs": [
        {
          "internalType": "address",
          "name": "account",
          "type": "address"
        }
      ],
      "name": "balanceOf",
      "outputs": [
        {
          "internalType": "uint256",
          "name": "",
          "type": "uint256"
        }
      ],
      "stateMutability": "view",
      "type": "function"
    },
    {
      "inputs": [],
      "name": "baseCurrency",
      "outputs": [
        {
          "internalType": "address",
          "name": "",
          "type": "address"
        }
      ],
      "stateMutability": "view",
      "type": "function"
    },
    {
      "inputs": [],
      "name": "baseCurrencyDecimals",
      "outputs": [
        {
          "internalType": "uint8",
          "name": "",
          "type": "uint8"
        }
      ],
      "stateMutability": "view",
      "type": "function"
    },
    {
      "inputs": [
        {
          "internalType": "address",
          "name": "template",
          "type": "address"
        }
      ],
      "name": "budgetApprovals",
      "outputs": [
        {
          "internalType": "bool",
          "name": "",
          "type": "bool"
        }
      ],
      "stateMutability": "view",
      "type": "function"
    },
    {
      "inputs": [
        {
          "internalType": "address",
          "name": "asset",
          "type": "address"
        }
      ],
      "name": "canAddAsset",
      "outputs": [
        {
          "internalType": "bool",
          "name": "",
          "type": "bool"
        }
      ],
      "stateMutability": "view",
      "type": "function"
    },
    {
      "inputs": [
        {
          "internalType": "address",
          "name": "asset",
          "type": "address"
        }
      ],
      "name": "canResolvePrice",
      "outputs": [
        {
          "internalType": "bool",
          "name": "",
          "type": "bool"
        }
      ],
      "stateMutability": "view",
      "type": "function"
    },
    {
      "inputs": [
        {
          "internalType": "address[]",
          "name": "__budgetApprovals",
          "type": "address[]"
        },
        {
          "internalType": "bytes[]",
          "name": "data",
          "type": "bytes[]"
        }
      ],
      "name": "createBudgetApprovals",
      "outputs": [],
      "stateMutability": "nonpayable",
      "type": "function"
    },
    {
      "inputs": [],
      "name": "dao",
      "outputs": [
        {
          "internalType": "contract IDao",
          "name": "",
          "type": "address"
        }
      ],
      "stateMutability": "view",
      "type": "function"
    },
    {
      "inputs": [],
      "name": "decimals",
      "outputs": [
        {
          "internalType": "uint8",
          "name": "",
          "type": "uint8"
        }
      ],
      "stateMutability": "view",
      "type": "function"
    },
    {
      "inputs": [
        {
          "internalType": "address",
          "name": "spender",
          "type": "address"
        },
        {
          "internalType": "uint256",
          "name": "subtractedValue",
          "type": "uint256"
        }
      ],
      "name": "decreaseAllowance",
      "outputs": [
        {
          "internalType": "bool",
          "name": "",
          "type": "bool"
        }
      ],
      "stateMutability": "nonpayable",
      "type": "function"
    },
    {
      "inputs": [
        {
          "internalType": "address",
          "name": "receiver",
          "type": "address"
        }
      ],
      "name": "deposit",
      "outputs": [],
      "stateMutability": "payable",
      "type": "function"
    },
    {
      "inputs": [
        {
          "internalType": "address",
          "name": "receiver",
          "type": "address"
        },
        {
          "internalType": "address",
          "name": "asset",
          "type": "address"
        },
        {
          "internalType": "uint256",
          "name": "amount",
          "type": "uint256"
        }
      ],
      "name": "depositToken",
      "outputs": [],
      "stateMutability": "nonpayable",
      "type": "function"
    },
    {
      "inputs": [
        {
          "internalType": "address",
          "name": "asset",
          "type": "address"
        },
        {
          "internalType": "uint256",
          "name": "ethAmount",
          "type": "uint256"
        }
      ],
      "name": "ethAssetPrice",
      "outputs": [
        {
          "internalType": "uint256",
          "name": "",
          "type": "uint256"
        }
      ],
      "stateMutability": "view",
      "type": "function"
    },
    {
      "inputs": [
        {
          "internalType": "address",
          "name": "_to",
          "type": "address"
        },
        {
          "internalType": "bytes",
          "name": "_data",
          "type": "bytes"
        },
        {
          "internalType": "uint256",
          "name": "_value",
          "type": "uint256"
        }
      ],
      "name": "executeByBudgetApproval",
      "outputs": [
        {
          "internalType": "bytes",
          "name": "",
          "type": "bytes"
        }
      ],
      "stateMutability": "nonpayable",
      "type": "function"
    },
    {
      "inputs": [
        {
          "internalType": "address",
          "name": "spender",
          "type": "address"
        },
        {
          "internalType": "uint256",
          "name": "addedValue",
          "type": "uint256"
        }
      ],
      "name": "increaseAllowance",
      "outputs": [
        {
          "internalType": "bool",
          "name": "",
          "type": "bool"
        }
      ],
      "stateMutability": "nonpayable",
      "type": "function"
    },
    {
      "inputs": [
        {
          "internalType": "address",
          "name": "owner",
          "type": "address"
        },
        {
          "internalType": "address[]",
          "name": "depositTokens",
          "type": "address[]"
        },
        {
          "internalType": "address",
          "name": "_baseCurrency",
          "type": "address"
        }
      ],
      "name": "initialize",
      "outputs": [],
      "stateMutability": "nonpayable",
      "type": "function"
    },
    {
      "inputs": [
        {
          "internalType": "address",
          "name": "asset",
          "type": "address"
        }
      ],
      "name": "isAssetSupported",
      "outputs": [
        {
          "internalType": "bool",
          "name": "",
          "type": "bool"
        }
      ],
      "stateMutability": "view",
      "type": "function"
    },
    {
      "inputs": [],
      "name": "name",
      "outputs": [
        {
          "internalType": "string",
          "name": "",
          "type": "string"
        }
      ],
      "stateMutability": "view",
      "type": "function"
    },
    {
      "inputs": [],
      "name": "proxiableUUID",
      "outputs": [
        {
          "internalType": "bytes32",
          "name": "",
          "type": "bytes32"
        }
      ],
      "stateMutability": "view",
      "type": "function"
    },
    {
      "inputs": [
        {
          "internalType": "uint256",
          "name": "amount",
          "type": "uint256"
        }
      ],
      "name": "quote",
      "outputs": [
        {
          "internalType": "uint256",
          "name": "",
          "type": "uint256"
        }
      ],
      "stateMutability": "view",
      "type": "function"
    },
    {
      "inputs": [
        {
          "internalType": "uint256",
          "name": "amount",
          "type": "uint256"
        }
      ],
      "name": "redeem",
      "outputs": [],
      "stateMutability": "nonpayable",
      "type": "function"
    },
    {
      "inputs": [
        {
          "internalType": "address[]",
          "name": "erc20s",
          "type": "address[]"
        }
      ],
      "name": "removeAssets",
      "outputs": [],
      "stateMutability": "nonpayable",
      "type": "function"
    },
    {
      "inputs": [
        {
          "internalType": "address[]",
          "name": "__budgetApprovals",
          "type": "address[]"
        }
      ],
      "name": "revokeBudgetApprovals",
      "outputs": [],
      "stateMutability": "nonpayable",
      "type": "function"
    },
    {
      "inputs": [],
      "name": "symbol",
      "outputs": [
        {
          "internalType": "string",
          "name": "",
          "type": "string"
        }
      ],
      "stateMutability": "view",
      "type": "function"
    },
    {
      "inputs": [],
      "name": "team",
      "outputs": [
        {
          "internalType": "address",
          "name": "",
          "type": "address"
        }
      ],
      "stateMutability": "view",
      "type": "function"
    },
    {
      "inputs": [],
      "name": "totalPrice",
      "outputs": [
        {
          "internalType": "uint256",
          "name": "",
          "type": "uint256"
        }
      ],
      "stateMutability": "view",
      "type": "function"
    },
    {
      "inputs": [],
      "name": "totalPriceInEth",
      "outputs": [
        {
          "internalType": "uint256",
          "name": "",
          "type": "uint256"
        }
      ],
      "stateMutability": "view",
      "type": "function"
    },
    {
      "inputs": [],
      "name": "totalSupply",
      "outputs": [
        {
          "internalType": "uint256",
          "name": "",
          "type": "uint256"
        }
      ],
      "stateMutability": "view",
      "type": "function"
    },
    {
      "inputs": [
        {
          "internalType": "address",
          "name": "to",
          "type": "address"
        },
        {
          "internalType": "uint256",
          "name": "amount",
          "type": "uint256"
        }
      ],
      "name": "transfer",
      "outputs": [
        {
          "internalType": "bool",
          "name": "",
          "type": "bool"
        }
      ],
      "stateMutability": "nonpayable",
      "type": "function"
    },
    {
      "inputs": [
        {
          "internalType": "address",
          "name": "from",
          "type": "address"
        },
        {
          "internalType": "address",
          "name": "to",
          "type": "address"
        },
        {
          "internalType": "uint256",
          "name": "amount",
          "type": "uint256"
        }
      ],
      "name": "transferFrom",
      "outputs": [
        {
          "internalType": "bool",
          "name": "",
          "type": "bool"
        }
      ],
      "stateMutability": "nonpayable",
      "type": "function"
    },
    {
      "inputs": [
        {
          "internalType": "address",
          "name": "newImplementation",
          "type": "address"
        }
      ],
      "name": "upgradeTo",
      "outputs": [],
      "stateMutability": "nonpayable",
      "type": "function"
    },
    {
      "inputs": [
        {
          "internalType": "address",
          "name": "newImplementation",
          "type": "address"
        },
        {
          "internalType": "bytes",
          "name": "data",
          "type": "bytes"
        }
      ],
      "name": "upgradeToAndCall",
      "outputs": [],
      "stateMutability": "payable",
      "type": "function"
    },
    {
      "stateMutability": "payable",
      "type": "receive"
    }
  ],
  "transactionHash": "0xac96bdef9e029feb52332f515c40b4b13c0b979b00305a4d50b88a7a7e491b8d",
  "args": [],
  "numDeployments": 1,
  "solcInputHash": "add97976287adc0d2c9024a4776aefda",
  "bytecode": "0x60a06040523060601b6080523480156200001857600080fd5b50620000236200003d565b6200002d6200003d565b620000376200003d565b620000ff565b600054610100900460ff1615620000aa5760405162461bcd60e51b815260206004820152602760248201527f496e697469616c697a61626c653a20636f6e747261637420697320696e697469604482015266616c697a696e6760c81b606482015260840160405180910390fd5b60005460ff9081161015620000fd576000805460ff191660ff9081179091556040519081527f7f26b83ff96e1f2b6a682f133852f6798a09c465da95921460cefb38474024989060200160405180910390a15b565b60805160601c61596c6200013a600039600081816109d601528181610a1901528181610b8901528181610bcc0152610c68015261596c6000f3fe6080604052600436106200026f5760003560e01c806395d89b411162000147578063d3abc28b11620000b9578063df79812e1162000078578063df79812e146200078f578063ed1bd76c14620007b4578063f340fa0114620007d9578063f50477a214620007f0578063fb0f97a8146200080857600080fd5b8063d3abc28b14620006d6578063db006a7514620006fb578063dc5b68a61462000720578063dd62ed3e1462000745578063df30e97c146200076a57600080fd5b8063aea321c61162000106578063aea321c6146200061d578063b49612ba1462000642578063bc9c5e901462000667578063cf35bdd0146200068c578063d00e8ed014620006b157600080fd5b806395d89b411462000566578063a240663e146200057e578063a457c2d714620005bb578063a9059cbb14620005e0578063ab0d92dd146200060557600080fd5b8063464b415811620001e157806363d727dc11620001a057806363d727dc14620004af5780636f7a4b2314620004c757806370a0823114620004ec57806385f2aef2146200052657806392a85fde146200054657600080fd5b8063464b415814620004115780634f1ef286146200043657806352d1902d146200044d5780635aaaefad146200046557806360d8bb22146200048a57600080fd5b8063313ce567116200022e578063313ce567146200034d5780633659cfe6146200037157806337dde58a14620003985780633950935114620003b05780634162169f14620003d557600080fd5b806306fdde03146200027c578063095ea7b314620002ac57806318160ddd14620002e257806323b872dd146200030357806330c88fd7146200032857600080fd5b366200027757005b600080fd5b3480156200028957600080fd5b50620002946200082d565b604051620002a3919062004c28565b60405180910390f35b348015620002b957600080fd5b50620002d1620002cb36600462004830565b620008c7565b6040519015158152602001620002a3565b348015620002ef57600080fd5b506099545b604051908152602001620002a3565b3480156200031057600080fd5b50620002d162000322366004620046c9565b620008e3565b3480156200033557600080fd5b50620002f46200034736600462004830565b6200090d565b3480156200035a57600080fd5b5060125b60405160ff9091168152602001620002a3565b3480156200037e57600080fd5b5062000396620003903660046200464b565b620009cb565b005b348015620003a557600080fd5b50620002f462000ab7565b348015620003bd57600080fd5b50620002d1620003cf36600462004830565b62000b38565b348015620003e257600080fd5b5061013054620003f8906001600160a01b031681565b6040516001600160a01b039091168152602001620002a3565b3480156200041e57600080fd5b50620002d1620004303660046200464b565b62000b60565b62000396620004473660046200477b565b62000b7e565b3480156200045a57600080fd5b50620002f462000c5b565b3480156200047257600080fd5b50620002f46200048436600462004830565b62000d11565b3480156200049757600080fd5b50620002f4620004a936600462004830565b62000ffa565b348015620004bc57600080fd5b506200035e620011c4565b348015620004d457600080fd5b50620002d1620004e63660046200464b565b62001287565b348015620004f957600080fd5b50620002f46200050b3660046200464b565b6001600160a01b031660009081526097602052604090205490565b3480156200053357600080fd5b5060fc546001600160a01b0316620003f8565b3480156200055357600080fd5b5060c9546001600160a01b0316620003f8565b3480156200057357600080fd5b506200029462001294565b3480156200058b57600080fd5b50620002d16200059d3660046200464b565b6001600160a01b0316600090815260fd602052604090205460ff1690565b348015620005c857600080fd5b50620002d1620005da36600462004830565b620012a5565b348015620005ed57600080fd5b50620002d1620005ff36600462004830565b62001331565b3480156200061257600080fd5b50620002f462001341565b3480156200062a57600080fd5b50620003966200063c3660046200485f565b620013ba565b3480156200064f57600080fd5b50620002f46200066136600462004830565b6200158f565b3480156200067457600080fd5b50620002d1620006863660046200464b565b62001852565b3480156200069957600080fd5b50620003f8620006ab36600462004ab1565b62001984565b348015620006be57600080fd5b5062000396620006d0366004620048d9565b620019b0565b348015620006e357600080fd5b5062000294620006f5366004620047d1565b62001b61565b3480156200070857600080fd5b50620003966200071a36600462004ab1565b62001ce9565b3480156200072d57600080fd5b50620003966200073f3660046200470f565b62001f17565b3480156200075257600080fd5b50620002f4620007643660046200468b565b62002123565b3480156200077757600080fd5b5062000396620007893660046200485f565b6200214e565b3480156200079c57600080fd5b5062000396620007ae36600462004912565b6200231d565b348015620007c157600080fd5b50620002f4620007d336600462004ab1565b620024fb565b62000396620007ea3660046200464b565b62002539565b348015620007fd57600080fd5b5061013154620002f4565b3480156200081557600080fd5b506200039662000827366004620046c9565b620026c0565b6060609a80546200083e90620050cf565b80601f01602080910402602001604051908101604052809291908181526020018280546200086c90620050cf565b8015620008bd5780601f106200089157610100808354040283529160200191620008bd565b820191906000526020600020905b8154815290600101906020018083116200089f57829003601f168201915b5050505050905090565b600033620008d781858562002826565b60019150505b92915050565b600033620008f38582856200294e565b62000900858585620029c9565b60019150505b9392505050565b6000806200091a60995490565b905080831115620009635760405162461bcd60e51b815260206004820152600e60248201526d677420746f74616c537570706c7960901b60448201526064015b60405180910390fd5b6200096e8462000b60565b6200098d5760405162461bcd60e51b81526004016200095a9062004c89565b806200099e576000915050620008dd565b8083620009ab8662002ba1565b620009b791906200503e565b620009c3919062004e7f565b949350505050565b306001600160a01b037f000000000000000000000000000000000000000000000000000000000000000016141562000a175760405162461bcd60e51b81526004016200095a9062004c3d565b7f00000000000000000000000000000000000000000000000000000000000000006001600160a01b031662000a62600080516020620058d0833981519152546001600160a01b031690565b6001600160a01b03161462000a8b5760405162461bcd60e51b81526004016200095a9062004ceb565b62000a968162002c46565b6040805160008082526020820190925262000ab49183919062002c8d565b50565b610131546000908190815b8181101562000b30576000610131828154811062000ae45762000ae46200516c565b6000918252602090912001546001600160a01b0316905062000b0b81620004848162002ba1565b62000b17908562004e08565b935050808062000b27906200510c565b91505062000ac2565b509092915050565b600033620008d781858562000b4e838362002123565b62000b5a919062004e08565b62002826565b6001600160a01b031660009081526101326020526040902054151590565b306001600160a01b037f000000000000000000000000000000000000000000000000000000000000000016141562000bca5760405162461bcd60e51b81526004016200095a9062004c3d565b7f00000000000000000000000000000000000000000000000000000000000000006001600160a01b031662000c15600080516020620058d0833981519152546001600160a01b031690565b6001600160a01b03161462000c3e5760405162461bcd60e51b81526004016200095a9062004ceb565b62000c498262002c46565b62000c578282600162002c8d565b5050565b6000306001600160a01b037f0000000000000000000000000000000000000000000000000000000000000000161462000cfd5760405162461bcd60e51b815260206004820152603860248201527f555550535570677261646561626c653a206d757374206e6f742062652063616c60448201527f6c6564207468726f7567682064656c656761746563616c6c000000000000000060648201526084016200095a565b50600080516020620058d083398151915290565b60006001600160a01b038316600080516020620058f0833981519152148062000d5657506001600160a01b03831673b4fbf271143f4fbf7b91a5ded31805e42b2208d6145b1562000d64575080620008dd565b60008060008073abc30d61d30f19de38897eba18252868b34596646001600160a01b031663bcfd032d88600080516020620058f08339815191526040518363ffffffff1660e01b815260040162000dbd92919062004bc4565b60a06040518083038186803b15801562000dd657600080fd5b505afa15801562000deb573d6000803e3d6000fd5b505050506040513d601f19601f8201168201806040525081019062000e11919062004acb565b945094505093509350600073abc30d61d30f19de38897eba18252868b34596646001600160a01b03166358e2d3a889600080516020620058f08339815191526040518363ffffffff1660e01b815260040162000e6f92919062004bc4565b60206040518083038186803b15801562000e8857600080fd5b505afa15801562000e9d573d6000803e3d6000fd5b505050506040513d601f19601f8201168201806040525081019062000ec3919062004b20565b9050846001600160501b0316826001600160501b0316101562000efa5760405162461bcd60e51b81526004016200095a9062004cb4565b62000f09620151808462004e08565b42111562000f2b5760405162461bcd60e51b81526004016200095a9062004cb4565b62000f398482601262002e15565b9350600084131562000fec57876001600160a01b031663313ce5676040518163ffffffff1660e01b815260040160206040518083038186803b15801562000f7f57600080fd5b505afa15801562000f94573d6000803e3d6000fd5b505050506040513d601f19601f8201168201806040525081019062000fba919062004b20565b62000fc790600a62004eed565b62000fd388866200503e565b62000fdf919062004e7f565b95505050505050620008dd565b506000979650505050505050565b6000806200101060c9546001600160a01b031690565b9050806001600160a01b0316846001600160a01b03161415620010375782915050620008dd565b6001600160a01b038116600080516020620058f083398151915214806200107a57506001600160a01b03811673b4fbf271143f4fbf7b91a5ded31805e42b2208d6145b1562001095576200108c848462000d11565b915050620008dd565b6001600160a01b038416600080516020620058f08339815191521480620010d857506001600160a01b03841673b4fbf271143f4fbf7b91a5ded31805e42b2208d6145b15620010ea576200108c81846200158f565b6000620010f6620011c4565b90506000620011088684601262002e95565b90506000811315620011b857620011ad62001124868362004fad565b876001600160a01b031663313ce5676040518163ffffffff1660e01b815260040160206040518083038186803b1580156200115e57600080fd5b505afa15801562001173573d6000803e3d6000fd5b505050506040513d601f19601f8201168201806040525081019062001199919062004b20565b620011a690601262004e23565b8462002e15565b9350505050620008dd565b50600095945050505050565b6000600080516020620058f0833981519152620011e960c9546001600160a01b031690565b6001600160a01b03161415620011ff5750601290565b60c9546001600160a01b03166001600160a01b031663313ce5676040518163ffffffff1660e01b815260040160206040518083038186803b1580156200124457600080fd5b505afa92505050801562001277575060408051601f3d908101601f19168201909252620012749181019062004b20565b60015b620012825750600090565b919050565b6000620008dd8262001852565b6060609b80546200083e90620050cf565b60003381620012b5828662002123565b905083811015620013175760405162461bcd60e51b815260206004820152602560248201527f45524332303a2064656372656173656420616c6c6f77616e63652062656c6f77604482015264207a65726f60d81b60648201526084016200095a565b62001326828686840362002826565b506001949350505050565b600033620008d7818585620029c9565b610131546000908190815b8181101562000b3057600061013182815481106200136e576200136e6200516c565b6000918252602090912001546001600160a01b031690506200139581620004a98162002ba1565b620013a1908562004e08565b9350508080620013b1906200510c565b9150506200134c565b604080518082018252600781526611d95b995c985b60ca1b6020820152610130549151635b6dde2b60e11b815233600482015290916001600160a01b031690819063b6dbbc569060240160206040518083038186803b1580156200141d57600080fd5b505afa15801562001432573d6000803e3d6000fd5b505050506040513d601f19601f82011682018060405250810190620014589190620049fc565b80620014f6575060405163031a79b160e61b81526001600160a01b0382169063c69e6c40906200148d90859060040162004c28565b60206040518083038186803b158015620014a657600080fd5b505afa158015620014bb573d6000803e3d6000fd5b505050506040513d601f19601f82011682018060405250810190620014e191906200466b565b6001600160a01b0316336001600160a01b0316145b60408051808201909152601081526f2230b79d1037b7363c9023b7bb32b93760811b602082015262001529908462003390565b906200154a5760405162461bcd60e51b81526004016200095a919062004c28565b5062001589848480806020026020016040519081016040528093929190818152602001838360200280828437600092019190915250620033be92505050565b50505050565b60006001600160a01b038316600080516020620058f08339815191521480620015d457506001600160a01b03831673b4fbf271143f4fbf7b91a5ded31805e42b2208d6145b15620015e2575080620008dd565b60008060008073abc30d61d30f19de38897eba18252868b34596646001600160a01b031663bcfd032d88600080516020620058f08339815191526040518363ffffffff1660e01b81526004016200163b92919062004bc4565b60a06040518083038186803b1580156200165457600080fd5b505afa15801562001669573d6000803e3d6000fd5b505050506040513d601f19601f820116820180604052508101906200168f919062004acb565b945094505093509350600073abc30d61d30f19de38897eba18252868b34596646001600160a01b03166358e2d3a889600080516020620058f08339815191526040518363ffffffff1660e01b8152600401620016ed92919062004bc4565b60206040518083038186803b1580156200170657600080fd5b505afa1580156200171b573d6000803e3d6000fd5b505050506040513d601f19601f8201168201806040525081019062001741919062004b20565b9050846001600160501b0316826001600160501b03161015620017785760405162461bcd60e51b81526004016200095a9062004cb4565b62001787620151808462004e08565b421115620017a95760405162461bcd60e51b81526004016200095a9062004cb4565b620017b78482601262002e15565b9350600084131562000fec5783886001600160a01b031663313ce5676040518163ffffffff1660e01b815260040160206040518083038186803b158015620017fe57600080fd5b505afa15801562001813573d6000803e3d6000fd5b505050506040513d601f19601f8201168201806040525081019062001839919062004b20565b6200184690600a62004eed565b62000fd390896200503e565b60006001600160a01b038216600080516020620058f083398151915214806200189757506001600160a01b03821673b4fbf271143f4fbf7b91a5ded31805e42b2208d6145b15620018a557506001919050565b60405163d2edb6dd60e01b815273abc30d61d30f19de38897eba18252868b34596649063d2edb6dd90620018ef908590600080516020620058f08339815191529060040162004bc4565b60206040518083038186803b1580156200190857600080fd5b505afa9250505080156200193b575060408051601f3d908101601f1916820190925262001938918101906200466b565b60015b6200197b573d8080156200196c576040519150601f19603f3d011682016040523d82523d6000602084013e62001971565b606091505b5060009392505050565b50600192915050565b61013181815481106200199657600080fd5b6000918252602090912001546001600160a01b0316905081565b60005b815181101562000c575760fd6000838381518110620019d657620019d66200516c565b6020908102919091018101516001600160a01b031682528101919091526040016000205460ff1662001a685760405162461bcd60e51b815260206004820152603460248201527f427564676574417070726f76616c45786563757465653a2062756467657420616044820152731c1c1c9bdd985b081a5cc81b9bdd081d985b1a5960621b60648201526084016200095a565b62001a8f82828151811062001a815762001a816200516c565b602002602001015162003407565b600060fd600084848151811062001aaa5762001aaa6200516c565b60200260200101516001600160a01b03166001600160a01b0316815260200190815260200160002060006101000a81548160ff0219169083151502179055507f3562b8c49e34d53119756b2b8b55a910ed22c2cda0d3b07398510d804c2dc62182828151811062001b1f5762001b1f6200516c565b602002602001015160405162001b4491906001600160a01b0391909116815260200190565b60405180910390a18062001b58816200510c565b915050620019b3565b33600090815260fd602052604090205460609060ff1662001bd35760405162461bcd60e51b815260206004820152602560248201527f427564676574417070726f76616c45786563757465653a206163636573732064604482015264195b9a595960da1b60648201526084016200095a565b600080856001600160a01b0316848660405162001bf1919062004b73565b60006040518083038185875af1925050503d806000811462001c30576040519150601f19603f3d011682016040523d82523d6000602084013e62001c35565b606091505b50915091508162001ca55762001c8a62001c4f8262003597565b60408051808201909152601d81527f52657665727465642062792065787465726e616c20636f6e747261637400000060208201529062003390565b60405162461bcd60e51b81526004016200095a919062004c28565b7fcf452d48646654954090c61dd69f99a99bea4e2264594078fc81bfd43d6f6a9e338660405162001cd892919062004c02565b60405180910390a195945050505050565b610130546001600160a01b03168162001d17336001600160a01b031660009081526097602052604090205490565b101562001d5c5760405162461bcd60e51b81526020600482015260126024820152716e6f7420656e6f7567682062616c616e636560701b60448201526064016200095a565b42816001600160a01b03166361c533b46040518163ffffffff1660e01b815260040160206040518083038186803b15801562001d9757600080fd5b505afa15801562001dac573d6000803e3d6000fd5b505050506040513d601f19601f8201168201806040525081019062001dd2919062004a20565b604051636cb7c6f960e01b81523360048201526001600160a01b03841690636cb7c6f99060240160206040518083038186803b15801562001e1257600080fd5b505afa15801562001e27573d6000803e3d6000fd5b505050506040513d601f19601f8201168201806040525081019062001e4d919062004a20565b62001e59919062004e08565b111562001e975760405162461bcd60e51b815260206004820152600b60248201526a6c6f636b75702074696d6560a81b60448201526064016200095a565b6101315460005b8181101562001f05576000610131828154811062001ec05762001ec06200516c565b6000918252602090912001546001600160a01b0316905062001eef338262001ee981896200090d565b620035f9565b508062001efc816200510c565b91505062001e9e565b5062001f123384620036ce565b505050565b600054610100900460ff161580801562001f385750600054600160ff909116105b8062001f545750303b15801562001f54575060005460ff166001145b62001fb95760405162461bcd60e51b815260206004820152602e60248201527f496e697469616c697a61626c653a20636f6e747261637420697320616c72656160448201526d191e481a5b9a5d1a585b1a5e995960921b60648201526084016200095a565b6000805460ff19166001179055801562001fdd576000805461ff0019166101001790555b620020256040518060400160405280600a815260200169131a5c5d5a59141bdbdb60b21b8152506040518060400160405280600281526020016104c560f41b81525062003822565b620020308262003858565b61013080546001600160a01b0319166001600160a01b0386161790556200205783620033be565b620020d6846001600160a01b03166385f2aef26040518163ffffffff1660e01b815260040160206040518083038186803b1580156200209557600080fd5b505afa158015620020aa573d6000803e3d6000fd5b505050506040513d601f19601f82011682018060405250810190620020d091906200466b565b620038a4565b801562001589576000805461ff0019169055604051600181527f7f26b83ff96e1f2b6a682f133852f6798a09c465da95921460cefb3847402498906020015b60405180910390a150505050565b6001600160a01b03918216600090815260986020908152604080832093909416825291909152205490565b604080518082018252600781526611d95b995c985b60ca1b6020820152610130549151635b6dde2b60e11b815233600482015290916001600160a01b031690819063b6dbbc569060240160206040518083038186803b158015620021b157600080fd5b505afa158015620021c6573d6000803e3d6000fd5b505050506040513d601f19601f82011682018060405250810190620021ec9190620049fc565b806200228a575060405163031a79b160e61b81526001600160a01b0382169063c69e6c40906200222190859060040162004c28565b60206040518083038186803b1580156200223a57600080fd5b505afa1580156200224f573d6000803e3d6000fd5b505050506040513d601f19601f820116820180604052508101906200227591906200466b565b6001600160a01b0316336001600160a01b0316145b60408051808201909152601081526f2230b79d1037b7363c9023b7bb32b93760811b6020820152620022bd908462003390565b90620022de5760405162461bcd60e51b81526004016200095a919062004c28565b5062001589848480806020026020016040519081016040528093929190818152602001838360200280828437600092019190915250620038f092505050565b8051825114620023655760405162461bcd60e51b8152602060048201526012602482015271496e636f72726563742043616c6c6461746160701b60448201526064016200095a565b60005b825181101562001f1257620023998382815181106200238b576200238b6200516c565b602002602001015162003939565b6000838281518110620023b057620023b06200516c565b6020026020010151838381518110620023cd57620023cd6200516c565b6020026020010151604051620023e390620044a4565b620023f092919062004c02565b604051809103906000f0801580156200240d573d6000803e3d6000fd5b506001600160a01b038116600090815260fd60205260409020805460ff1916600117905583519091507f26c79e13dd63e8716f130c25331c09f2fdd55d6880bbfa7bcc38868207e8a6709082908590859081106200246f576200246f6200516c565b60200260200101516040516200248792919062004c02565b60405180910390a1806001600160a01b031663cf26fec66040518163ffffffff1660e01b8152600401600060405180830381600087803b158015620024cb57600080fd5b505af1158015620024e0573d6000803e3d6000fd5b50505050508080620024f2906200510c565b91505062002368565b6000806200250860995490565b90508062002517575090919050565b6200252162001341565b6200252d82856200503e565b62000906919062004e7f565b62002553600080516020620058f083398151915262000b60565b620025955760405162461bcd60e51b8152602060048201526011602482015270185cdcd95d081b9bdd081cdd5c1c1bdc9d607a1b60448201526064016200095a565b6000620025a160995490565b90506000620025c0600080516020620058f08339815191523462000ffa565b9050816200263157620025d4838262003b8a565b620025e0838262003c6f565b7f5548c837ab068cf56a2c2479df0882a4922fd203edb7517321831d95078c5f6283600080516020620058f083398151915234604051620026249392919062004bde565b60405180910390a1505050565b6000816200263e62001341565b6200264a919062005060565b90506200267084826200265e86866200503e565b6200266a919062004e7f565b62003b8a565b6200267c848362003c6f565b7f5548c837ab068cf56a2c2479df0882a4922fd203edb7517321831d95078c5f6284600080516020620058f083398151915234604051620021159392919062004bde565b620026cb8262000b60565b620026ea5760405162461bcd60e51b81526004016200095a9062004c89565b604051636eb1769f60e11b815281906001600160a01b0384169063dd62ed3e906200271c903390309060040162004bc4565b60206040518083038186803b1580156200273557600080fd5b505afa1580156200274a573d6000803e3d6000fd5b505050506040513d601f19601f8201168201806040525081019062002770919062004a20565b1015620027ae5760405162461bcd60e51b815260206004820152600b60248201526a6e6f7420617070726f766560a81b60448201526064016200095a565b6000620027bc838362000ffa565b9050620027ce846200266a83620024fb565b620027e56001600160a01b03841633308562003cdc565b620027f1848262003c6f565b7f5548c837ab068cf56a2c2479df0882a4922fd203edb7517321831d95078c5f62848484604051620021159392919062004bde565b6001600160a01b0383166200288a5760405162461bcd60e51b8152602060048201526024808201527f45524332303a20617070726f76652066726f6d20746865207a65726f206164646044820152637265737360e01b60648201526084016200095a565b6001600160a01b038216620028ed5760405162461bcd60e51b815260206004820152602260248201527f45524332303a20617070726f766520746f20746865207a65726f206164647265604482015261737360f01b60648201526084016200095a565b6001600160a01b0383811660008181526098602090815260408083209487168084529482529182902085905590518481527f8c5be1e5ebec7d5bd14f71427d1e84f3dd0314c0f7b2291e5b200ac8c7c3b925910160405180910390a3505050565b60006200295c848462002123565b90506000198114620015895781811015620029ba5760405162461bcd60e51b815260206004820152601d60248201527f45524332303a20696e73756666696369656e7420616c6c6f77616e636500000060448201526064016200095a565b62001589848484840362002826565b6001600160a01b03831662002a2f5760405162461bcd60e51b815260206004820152602560248201527f45524332303a207472616e736665722066726f6d20746865207a65726f206164604482015264647265737360d81b60648201526084016200095a565b6001600160a01b03821662002a935760405162461bcd60e51b815260206004820152602360248201527f45524332303a207472616e7366657220746f20746865207a65726f206164647260448201526265737360e81b60648201526084016200095a565b6001600160a01b0383166000908152609760205260409020548181101562002b0d5760405162461bcd60e51b815260206004820152602660248201527f45524332303a207472616e7366657220616d6f756e7420657863656564732062604482015265616c616e636560d01b60648201526084016200095a565b6001600160a01b0380851660009081526097602052604080822085850390559185168152908120805484929062002b4690849062004e08565b92505081905550826001600160a01b0316846001600160a01b03167fddf252ad1be2c89b69c2b068fc378daa952ba7f163c4a11628f55a4df523b3ef8460405162002b9391815260200190565b60405180910390a362001589565b60006001600160a01b038216600080516020620058f0833981519152141562002bcb575047919050565b6040516370a0823160e01b81523060048201526001600160a01b038316906370a082319060240160206040518083038186803b15801562002c0b57600080fd5b505afa15801562002c20573d6000803e3d6000fd5b505050506040513d601f19601f82011682018060405250810190620008dd919062004a20565b610130546001600160a01b0316331462000ab45760405162461bcd60e51b81526020600482015260076024820152666e6f742064616f60c81b60448201526064016200095a565b7f4910fdfa16fed3260ed0e7147f7cc6da11a60208b5b9406d12a635614ffd91435460ff161562002cc35762001f128362003d38565b826001600160a01b03166352d1902d6040518163ffffffff1660e01b815260040160206040518083038186803b15801562002cfd57600080fd5b505afa92505050801562002d30575060408051601f3d908101601f1916820190925262002d2d9181019062004a20565b60015b62002d955760405162461bcd60e51b815260206004820152602e60248201527f45524331393637557067726164653a206e657720696d706c656d656e7461746960448201526d6f6e206973206e6f74205555505360901b60648201526084016200095a565b600080516020620058d0833981519152811462002e075760405162461bcd60e51b815260206004820152602960248201527f45524331393637557067726164653a20756e737570706f727465642070726f786044820152681a58589b195555525160ba1b60648201526084016200095a565b5062001f1283838362003dd7565b60008160ff168360ff16101562002e565762002e3283836200507a565b62002e429060ff16600a62004edf565b62002e4e908562004fad565b905062000906565b8160ff168360ff16111562002e8d5762002e7182846200507a565b62002e819060ff16600a62004edf565b62002e4e908562004e4b565b509192915050565b600060ff82161580159062002eae5750601260ff831611155b62002ef05760405162461bcd60e51b8152602060048201526011602482015270496e76616c6964205f646563696d616c7360781b60448201526064016200095a565b600062002f0260ff8416600a62004edf565b905060008060008073abc30d61d30f19de38897eba18252868b34596646001600160a01b031663bcfd032d8a600080516020620058f08339815191526040518363ffffffff1660e01b815260040162002f5d92919062004bc4565b60a06040518083038186803b15801562002f7657600080fd5b505afa15801562002f8b573d6000803e3d6000fd5b505050506040513d601f19601f8201168201806040525081019062002fb1919062004acb565b945094505093509350836001600160501b0316816001600160501b031610156200301e5760405162461bcd60e51b815260206004820152601c60248201527f5374616c6520707269636520696e20436861696e6c696e6b203130340000000060448201526064016200095a565b6200302d620151808362004e08565b4211156200307e5760405162461bcd60e51b815260206004820152601c60248201527f5374616c6520707269636520696e20436861696e6c696e6b203130350000000060448201526064016200095a565b604051630b1c5a7560e31b815260009073abc30d61d30f19de38897eba18252868b3459664906358e2d3a890620030cb908d90600080516020620058f08339815191529060040162004bc4565b60206040518083038186803b158015620030e457600080fd5b505afa158015620030f9573d6000803e3d6000fd5b505050506040513d601f19601f820116820180604052508101906200311f919062004b20565b90506200312e84828a62002e15565b935060008060008073abc30d61d30f19de38897eba18252868b34596646001600160a01b031663bcfd032d8e600080516020620058f08339815191526040518363ffffffff1660e01b81526004016200318992919062004bc4565b60a06040518083038186803b158015620031a257600080fd5b505afa158015620031b7573d6000803e3d6000fd5b505050506040513d601f19601f82011682018060405250810190620031dd919062004acb565b945094505093509350836001600160501b0316816001600160501b031610156200324a5760405162461bcd60e51b815260206004820152601c60248201527f5374616c6520707269636520696e20436861696e6c696e6b203131320000000060448201526064016200095a565b62003259620151808362004e08565b421115620032aa5760405162461bcd60e51b815260206004820152601c60248201527f5374616c6520707269636520696e20436861696e6c696e6b203131330000000060448201526064016200095a565b600073abc30d61d30f19de38897eba18252868b34596646001600160a01b03166358e2d3a88f600080516020620058f08339815191526040518363ffffffff1660e01b8152600401620032ff92919062004bc4565b60206040518083038186803b1580156200331857600080fd5b505afa1580156200332d573d6000803e3d6000fd5b505050506040513d601f19601f8201168201806040525081019062003353919062004b20565b90506200336284828f62002e15565b935083620033718c8b62004fad565b6200337d919062004e4b565b9f9e505050505050505050505050505050565b60608282604051602001620033a792919062004b91565b604051602081830303815290604052905092915050565b60005b815181101562000c5757620033f2828281518110620033e457620033e46200516c565b602002602001015162003e02565b80620033fe816200510c565b915050620033c1565b604080518082018252600781526611d95b995c985b60ca1b6020820152610130549151635b6dde2b60e11b815233600482015290916001600160a01b031690819063b6dbbc569060240160206040518083038186803b1580156200346a57600080fd5b505afa1580156200347f573d6000803e3d6000fd5b505050506040513d601f19601f82011682018060405250810190620034a59190620049fc565b8062003543575060405163031a79b160e61b81526001600160a01b0382169063c69e6c4090620034da90859060040162004c28565b60206040518083038186803b158015620034f357600080fd5b505afa15801562003508573d6000803e3d6000fd5b505050506040513d601f19601f820116820180604052508101906200352e91906200466b565b6001600160a01b0316336001600160a01b0316145b60408051808201909152601081526f2230b79d1037b7363c9023b7bb32b93760811b602082015262003576908462003390565b90620015895760405162461bcd60e51b81526004016200095a919062004c28565b6060604482511015620035b857505060408051602081019091526000815290565b600482019150620008dd82806020019051810190620035d8919062004a3a565b60408051808201909152600381526201016960ed1b60208201529062003390565b6001600160a01b038216600080516020620058f08339815191521415620036b8576000836001600160a01b03168260405160006040518083038185875af1925050503d806000811462003669576040519150601f19603f3d011682016040523d82523d6000602084013e6200366e565b606091505b5050905080620015895760405162461bcd60e51b81526020600482015260146024820152732330b4b632b2103a379039b2b7321022ba3432b960611b60448201526064016200095a565b62001f126001600160a01b038316848362003ed5565b6001600160a01b038216620037305760405162461bcd60e51b815260206004820152602160248201527f45524332303a206275726e2066726f6d20746865207a65726f206164647265736044820152607360f81b60648201526084016200095a565b6001600160a01b03821660009081526097602052604090205481811015620037a65760405162461bcd60e51b815260206004820152602260248201527f45524332303a206275726e20616d6f756e7420657863656564732062616c616e604482015261636560f01b60648201526084016200095a565b6001600160a01b0383166000908152609760205260408120838303905560998054849290620037d790849062005060565b90915550506040518281526000906001600160a01b038516907fddf252ad1be2c89b69c2b068fc378daa952ba7f163c4a11628f55a4df523b3ef9060200160405180910390a3505050565b600054610100900460ff166200384c5760405162461bcd60e51b81526004016200095a9062004d37565b62000c57828262003f07565b600054610100900460ff16620038825760405162461bcd60e51b81526004016200095a9062004d37565b60c980546001600160a01b0319166001600160a01b0392909216919091179055565b600054610100900460ff16620038ce5760405162461bcd60e51b81526004016200095a9062004d37565b60fc80546001600160a01b0319166001600160a01b0392909216919091179055565b60005b815181101562000c5757620039248282815181106200391657620039166200516c565b602002602001015162003f5c565b8062003930816200510c565b915050620038f3565b604080518082018252600781526611d95b995c985b60ca1b6020820152610130549151635b6dde2b60e11b815233600482015290916001600160a01b031690819063b6dbbc569060240160206040518083038186803b1580156200399c57600080fd5b505afa158015620039b1573d6000803e3d6000fd5b505050506040513d601f19601f82011682018060405250810190620039d79190620049fc565b8062003a75575060405163031a79b160e61b81526001600160a01b0382169063c69e6c409062003a0c90859060040162004c28565b60206040518083038186803b15801562003a2557600080fd5b505afa15801562003a3a573d6000803e3d6000fd5b505050506040513d601f19601f8201168201806040525081019062003a6091906200466b565b6001600160a01b0316336001600160a01b0316145b60408051808201909152601081526f2230b79d1037b7363c9023b7bb32b93760811b602082015262003aa8908462003390565b9062003ac95760405162461bcd60e51b81526004016200095a919062004c28565b5061013054604051633b42d9af60e21b81526001600160a01b0385811660048301529091169063ed0b66bc9060240160206040518083038186803b15801562003b1157600080fd5b505afa15801562003b26573d6000803e3d6000fd5b505050506040513d601f19601f8201168201806040525081019062003b4c9190620049fc565b62001f125760405162461bcd60e51b815260206004820152600d60248201526c1b9bdd081dda1a5d195b1a5cdd609a1b60448201526064016200095a565b6001600160a01b03821662003be25760405162461bcd60e51b815260206004820152601f60248201527f45524332303a206d696e7420746f20746865207a65726f20616464726573730060448201526064016200095a565b806099600082825462003bf6919062004e08565b90915550506001600160a01b0382166000908152609760205260408120805483929062003c2590849062004e08565b90915550506040518181526001600160a01b038316906000907fddf252ad1be2c89b69c2b068fc378daa952ba7f163c4a11628f55a4df523b3ef9060200160405180910390a35050565b61013054604051631c783fd360e31b81526001600160a01b038481166004830152602482018490529091169063e3c1fe9890604401600060405180830381600087803b15801562003cbf57600080fd5b505af115801562003cd4573d6000803e3d6000fd5b505050505050565b62001589846323b872dd60e01b85858560405160240162003d009392919062004bde565b60408051601f198184030181529190526020810180516001600160e01b03166001600160e01b03199093169290921790915262004102565b6001600160a01b0381163b62003da75760405162461bcd60e51b815260206004820152602d60248201527f455243313936373a206e657720696d706c656d656e746174696f6e206973206e60448201526c1bdd08184818dbdb9d1c9858dd609a1b60648201526084016200095a565b600080516020620058d083398151915280546001600160a01b0319166001600160a01b0392909216919091179055565b62003de283620041db565b60008251118062003df05750805b1562001f12576200158983836200421d565b62003e0d8162001287565b801562003e22575062003e208162000b60565b155b62003e415760405162461bcd60e51b81526004016200095a9062004c89565b61013180546001810182557fbd987ad6ccdb7c7567f7335ea839f95dc944431abcf935b6924f70215963db730180546001600160a01b0319166001600160a01b03841690811790915590546000828152610132602090815260409182902092909255519182527f808665eda000f8d729f31a384bae411282aa3be62cb73ed74e2225e2eef7125d910160405180910390a150565b6040516001600160a01b03831660248201526044810182905262001f1290849063a9059cbb60e01b9060640162003d00565b600054610100900460ff1662003f315760405162461bcd60e51b81526004016200095a9062004d37565b815162003f4690609a906020850190620044b2565b50805162001f1290609b906020840190620044b2565b62003f678162000b60565b62003fa95760405162461bcd60e51b8152602060048201526011602482015270105cdcd95d081b9bdd081a5b881b1a5cdd607a1b60448201526064016200095a565b6001600160a01b0381166000908152610132602052604081205462003fd19060019062005060565b610131805491925060009162003fea9060019062005060565b8154811062003ffd5762003ffd6200516c565b60009182526020909120015461013180546001600160a01b0390921692508291849081106200403057620040306200516c565b600091825260209091200180546001600160a01b0319166001600160a01b03929092169190911790556200406682600162004e08565b6001600160a01b038083166000908152610132602052604080822093909355908516815290812055610131805480620040a357620040a362005156565b6000828152602090819020600019908301810180546001600160a01b03191690559091019091556040516001600160a01b03851681527f289634222e6533fbe86ba920f2c134b0c959102a872f93ccc13ca9346a93f2f9910162002624565b600062004159826040518060400160405280602081526020017f5361666545524332303a206c6f772d6c6576656c2063616c6c206661696c6564815250856001600160a01b03166200431a9092919063ffffffff16565b80519091501562001f1257808060200190518101906200417a9190620049fc565b62001f125760405162461bcd60e51b815260206004820152602a60248201527f5361666545524332303a204552433230206f7065726174696f6e20646964206e6044820152691bdd081cdd58d8d9595960b21b60648201526084016200095a565b620041e68162003d38565b6040516001600160a01b038216907fbc7cd75a20ee27fd9adebab32041f755214dbc6bffa90cc0225b39da2e5c2d3b90600090a250565b60606001600160a01b0383163b620042875760405162461bcd60e51b815260206004820152602660248201527f416464726573733a2064656c65676174652063616c6c20746f206e6f6e2d636f6044820152651b9d1c9858dd60d21b60648201526084016200095a565b600080846001600160a01b031684604051620042a4919062004b73565b600060405180830381855af49150503d8060008114620042e1576040519150601f19603f3d011682016040523d82523d6000602084013e620042e6565b606091505b509150915062004311828260405180606001604052806027815260200162005910602791396200432b565b95945050505050565b6060620009c3848460008562004369565b606083156200433c57508162000906565b8251156200434d5782518084602001fd5b8160405162461bcd60e51b81526004016200095a919062004c28565b606082471015620043cc5760405162461bcd60e51b815260206004820152602660248201527f416464726573733a20696e73756666696369656e742062616c616e636520666f6044820152651c8818d85b1b60d21b60648201526084016200095a565b6001600160a01b0385163b620044255760405162461bcd60e51b815260206004820152601d60248201527f416464726573733a2063616c6c20746f206e6f6e2d636f6e747261637400000060448201526064016200095a565b600080866001600160a01b0316858760405162004443919062004b73565b60006040518083038185875af1925050503d806000811462004482576040519150601f19603f3d011682016040523d82523d6000602084013e62004487565b606091505b5091509150620044998282866200432b565b979650505050505050565b61072180620051af83390190565b828054620044c090620050cf565b90600052602060002090601f016020900481019282620044e457600085556200452f565b82601f10620044ff57805160ff19168380011785556200452f565b828001600101855582156200452f579182015b828111156200452f57825182559160200191906001019062004512565b506200453d92915062004541565b5090565b5b808211156200453d576000815560010162004542565b600082601f8301126200456a57600080fd5b81356020620045836200457d8362004db6565b62004d82565b80838252828201915082860187848660051b8901011115620045a457600080fd5b60005b85811015620045d0578135620045bd8162005198565b84529284019290840190600101620045a7565b5090979650505050505050565b600082601f830112620045ef57600080fd5b8135620046006200457d8262004ddd565b8181528460208386010111156200461657600080fd5b816020850160208301376000918101602001919091529392505050565b80516001600160501b03811681146200128257600080fd5b6000602082840312156200465e57600080fd5b8135620009068162005198565b6000602082840312156200467e57600080fd5b8151620009068162005198565b600080604083850312156200469f57600080fd5b8235620046ac8162005198565b91506020830135620046be8162005198565b809150509250929050565b600080600060608486031215620046df57600080fd5b8335620046ec8162005198565b92506020840135620046fe8162005198565b929592945050506040919091013590565b6000806000606084860312156200472557600080fd5b8335620047328162005198565b9250602084013567ffffffffffffffff8111156200474f57600080fd5b6200475d8682870162004558565b9250506040840135620047708162005198565b809150509250925092565b600080604083850312156200478f57600080fd5b82356200479c8162005198565b9150602083013567ffffffffffffffff811115620047b957600080fd5b620047c785828601620045dd565b9150509250929050565b600080600060608486031215620047e757600080fd5b8335620047f48162005198565b9250602084013567ffffffffffffffff8111156200481157600080fd5b6200481f86828701620045dd565b925050604084013590509250925092565b600080604083850312156200484457600080fd5b8235620048518162005198565b946020939093013593505050565b600080602083850312156200487357600080fd5b823567ffffffffffffffff808211156200488c57600080fd5b818501915085601f830112620048a157600080fd5b813581811115620048b157600080fd5b8660208260051b8501011115620048c757600080fd5b60209290920196919550909350505050565b600060208284031215620048ec57600080fd5b813567ffffffffffffffff8111156200490457600080fd5b620009c38482850162004558565b600080604083850312156200492657600080fd5b823567ffffffffffffffff808211156200493f57600080fd5b6200494d8683870162004558565b93506020915081850135818111156200496557600080fd5b8501601f810187136200497757600080fd5b8035620049886200457d8262004db6565b8082825285820191508584018a878560051b8701011115620049a957600080fd5b6000805b85811015620049e957823588811115620049c5578283fd5b620049d58e8b838b0101620045dd565b8652509388019391880191600101620049ad565b5050508096505050505050509250929050565b60006020828403121562004a0f57600080fd5b815180151581146200090657600080fd5b60006020828403121562004a3357600080fd5b5051919050565b60006020828403121562004a4d57600080fd5b815167ffffffffffffffff81111562004a6557600080fd5b8201601f8101841362004a7757600080fd5b805162004a886200457d8262004ddd565b81815285602083850101111562004a9e57600080fd5b62004311826020830160208601620050a0565b60006020828403121562004ac457600080fd5b5035919050565b600080600080600060a0868803121562004ae457600080fd5b62004aef8662004633565b945060208601519350604086015192506060860151915062004b146080870162004633565b90509295509295909350565b60006020828403121562004b3357600080fd5b815160ff811681146200090657600080fd5b6000815180845262004b5f816020860160208601620050a0565b601f01601f19169290920160200192915050565b6000825162004b87818460208701620050a0565b9190910192915050565b6000835162004ba5818460208801620050a0565b83519083019062004bbb818360208801620050a0565b01949350505050565b6001600160a01b0392831681529116602082015260400190565b6001600160a01b039384168152919092166020820152604081019190915260600190565b6001600160a01b0383168152604060208201819052600090620009c39083018462004b45565b60208152600062000906602083018462004b45565b6020808252602c908201527f46756e6374696f6e206d7573742062652063616c6c6564207468726f7567682060408201526b19195b1959d85d1958d85b1b60a21b606082015260800190565b602080825260119082015270105cdcd95d081b9bdd081cdd5c1c1bdc9d607a1b604082015260600190565b60208082526018908201527f5374616c6520707269636520696e20436861696e6c696e6b0000000000000000604082015260600190565b6020808252602c908201527f46756e6374696f6e206d7573742062652063616c6c6564207468726f7567682060408201526b6163746976652070726f787960a01b606082015260800190565b6020808252602b908201527f496e697469616c697a61626c653a20636f6e7472616374206973206e6f74206960408201526a6e697469616c697a696e6760a81b606082015260800190565b604051601f8201601f1916810167ffffffffffffffff8111828210171562004dae5762004dae62005182565b604052919050565b600067ffffffffffffffff82111562004dd35762004dd362005182565b5060051b60200190565b600067ffffffffffffffff82111562004dfa5762004dfa62005182565b50601f01601f191660200190565b6000821982111562004e1e5762004e1e6200512a565b500190565b600060ff821660ff84168060ff0382111562004e435762004e436200512a565b019392505050565b60008262004e5d5762004e5d62005140565b600160ff1b82146000198414161562004e7a5762004e7a6200512a565b500590565b60008262004e915762004e9162005140565b500490565b600181815b8085111562004ed757816000190482111562004ebb5762004ebb6200512a565b8085161562004ec957918102915b93841c939080029062004e9b565b509250929050565b600062000906838362004ef9565b60006200090660ff8416835b60008262004f0a57506001620008dd565b8162004f1957506000620008dd565b816001811462004f32576002811462004f3d5762004f5d565b6001915050620008dd565b60ff84111562004f515762004f516200512a565b50506001821b620008dd565b5060208310610133831016604e8410600b841016171562004f82575081810a620008dd565b62004f8e838362004e96565b806000190482111562004fa55762004fa56200512a565b029392505050565b60006001600160ff1b038184138284138082168684048611161562004fd65762004fd66200512a565b600160ff1b600087128281168783058912161562004ff85762004ff86200512a565b600087129250878205871284841616156200501757620050176200512a565b878505871281841616156200503057620050306200512a565b505050929093029392505050565b60008160001904831182151516156200505b576200505b6200512a565b500290565b6000828210156200507557620050756200512a565b500390565b600060ff821660ff8416808210156200509757620050976200512a565b90039392505050565b60005b83811015620050bd578181015183820152602001620050a3565b83811115620015895750506000910152565b600181811c90821680620050e457607f821691505b602082108114156200510657634e487b7160e01b600052602260045260246000fd5b50919050565b60006000198214156200512357620051236200512a565b5060010190565b634e487b7160e01b600052601160045260246000fd5b634e487b7160e01b600052601260045260246000fd5b634e487b7160e01b600052603160045260246000fd5b634e487b7160e01b600052603260045260246000fd5b634e487b7160e01b600052604160045260246000fd5b6001600160a01b038116811462000ab457600080fdfe6080604052604051610721380380610721833981016040819052610022916102d2565b61002e82826000610035565b5050610431565b61003e8361006b565b60008251118061004b5750805b156100665761006483836100ab60201b6100291760201c565b505b505050565b610074816100d7565b6040516001600160a01b038216907fbc7cd75a20ee27fd9adebab32041f755214dbc6bffa90cc0225b39da2e5c2d3b90600090a250565b60606100d083836040518060600160405280602781526020016106fa602791396101a9565b9392505050565b6100ea8161028760201b6100551760201c565b6101515760405162461bcd60e51b815260206004820152602d60248201527f455243313936373a206e657720696d706c656d656e746174696f6e206973206e60448201526c1bdd08184818dbdb9d1c9858dd609a1b60648201526084015b60405180910390fd5b806101887f360894a13ba1a3210667c828492db98dca3e2076cc3735a920a3ca505d382bbc60001b61029660201b6100641760201c565b80546001600160a01b0319166001600160a01b039290921691909117905550565b60606001600160a01b0384163b6102115760405162461bcd60e51b815260206004820152602660248201527f416464726573733a2064656c65676174652063616c6c20746f206e6f6e2d636f6044820152651b9d1c9858dd60d21b6064820152608401610148565b600080856001600160a01b03168560405161022c91906103a0565b600060405180830381855af49150503d8060008114610267576040519150601f19603f3d011682016040523d82523d6000602084013e61026c565b606091505b50909250905061027d828286610299565b9695505050505050565b6001600160a01b03163b151590565b90565b606083156102a85750816100d0565b8251156102b85782518084602001fd5b8160405162461bcd60e51b815260040161014891906103bc565b600080604083850312156102e557600080fd5b82516001600160a01b03811681146102fc57600080fd5b60208401519092506001600160401b038082111561031957600080fd5b818501915085601f83011261032d57600080fd5b81518181111561033f5761033f61041b565b604051601f8201601f19908116603f011681019083821181831017156103675761036761041b565b8160405282815288602084870101111561038057600080fd5b6103918360208301602088016103ef565b80955050505050509250929050565b600082516103b28184602087016103ef565b9190910192915050565b60208152600082518060208401526103db8160408501602087016103ef565b601f01601f19169190910160400192915050565b60005b8381101561040a5781810151838201526020016103f2565b838111156100645750506000910152565b634e487b7160e01b600052604160045260246000fd5b6102ba806104406000396000f3fe60806040523661001357610011610017565b005b6100115b610027610022610067565b61009f565b565b606061004e838360405180606001604052806027815260200161025e602791396100c3565b9392505050565b6001600160a01b03163b151590565b90565b600061009a7f360894a13ba1a3210667c828492db98dca3e2076cc3735a920a3ca505d382bbc546001600160a01b031690565b905090565b3660008037600080366000845af43d6000803e8080156100be573d6000f35b3d6000fd5b60606001600160a01b0384163b6101305760405162461bcd60e51b815260206004820152602660248201527f416464726573733a2064656c65676174652063616c6c20746f206e6f6e2d636f6044820152651b9d1c9858dd60d21b60648201526084015b60405180910390fd5b600080856001600160a01b03168560405161014b91906101de565b600060405180830381855af49150503d8060008114610186576040519150601f19603f3d011682016040523d82523d6000602084013e61018b565b606091505b509150915061019b8282866101a5565b9695505050505050565b606083156101b457508161004e565b8251156101c45782518084602001fd5b8160405162461bcd60e51b815260040161012791906101fa565b600082516101f081846020870161022d565b9190910192915050565b602081526000825180602084015261021981604085016020870161022d565b601f01601f19169190910160400192915050565b60005b83811015610248578181015183820152602001610230565b83811115610257576000848401525b5050505056fe416464726573733a206c6f772d6c6576656c2064656c65676174652063616c6c206661696c6564a2646970667358221220fb537d1df0a2f3ea0050d30fb82ca020f06a83116d3853b9eda518a67b0c9be764736f6c63430008070033416464726573733a206c6f772d6c6576656c2064656c65676174652063616c6c206661696c6564360894a13ba1a3210667c828492db98dca3e2076cc3735a920a3ca505d382bbc000000000000000000000000eeeeeeeeeeeeeeeeeeeeeeeeeeeeeeeeeeeeeeee416464726573733a206c6f772d6c6576656c2064656c65676174652063616c6c206661696c6564a26469706673582212203d2b464c53c7b99c5ea2db54c24e28b3e322adbc29aa463740e92760aece0fdf64736f6c63430008070033",
  "devdoc": {
    "kind": "dev",
    "methods": {
      "allowance(address,address)": {
        "details": "See {IERC20-allowance}."
      },
      "approve(address,uint256)": {
        "details": "See {IERC20-approve}. NOTE: If `amount` is the maximum `uint256`, the allowance is not updated on `transferFrom`. This is semantically equivalent to an infinite approval. Requirements: - `spender` cannot be the zero address."
      },
      "balanceOf(address)": {
        "details": "See {IERC20-balanceOf}."
      },
      "constructor": {
        "custom:oz-upgrades-unsafe-allow": "constructor"
      },
      "decimals()": {
        "details": "Returns the number of decimals used to get its user representation. For example, if `decimals` equals `2`, a balance of `505` tokens should be displayed to a user as `5.05` (`505 / 10 ** 2`). Tokens usually opt for a value of 18, imitating the relationship between Ether and Wei. This is the value {ERC20} uses, unless this function is overridden; NOTE: This information is only used for _display_ purposes: it in no way affects any of the arithmetic of the contract, including {IERC20-balanceOf} and {IERC20-transfer}."
      },
      "decreaseAllowance(address,uint256)": {
        "details": "Atomically decreases the allowance granted to `spender` by the caller. This is an alternative to {approve} that can be used as a mitigation for problems described in {IERC20-approve}. Emits an {Approval} event indicating the updated allowance. Requirements: - `spender` cannot be the zero address. - `spender` must have allowance for the caller of at least `subtractedValue`."
      },
      "increaseAllowance(address,uint256)": {
        "details": "Atomically increases the allowance granted to `spender` by the caller. This is an alternative to {approve} that can be used as a mitigation for problems described in {IERC20-approve}. Emits an {Approval} event indicating the updated allowance. Requirements: - `spender` cannot be the zero address."
      },
      "name()": {
        "details": "Returns the name of the token."
      },
      "proxiableUUID()": {
        "details": "Implementation of the ERC1822 {proxiableUUID} function. This returns the storage slot used by the implementation. It is used to validate that the this implementation remains valid after an upgrade. IMPORTANT: A proxy pointing at a proxiable contract should not be considered proxiable itself, because this risks bricking a proxy that upgrades to it, by delegating to itself until out of gas. Thus it is critical that this function revert if invoked through a proxy. This is guaranteed by the `notDelegated` modifier."
      },
      "symbol()": {
        "details": "Returns the symbol of the token, usually a shorter version of the name."
      },
      "totalSupply()": {
        "details": "See {IERC20-totalSupply}."
      },
      "transfer(address,uint256)": {
        "details": "See {IERC20-transfer}. Requirements: - `to` cannot be the zero address. - the caller must have a balance of at least `amount`."
      },
      "transferFrom(address,address,uint256)": {
        "details": "See {IERC20-transferFrom}. Emits an {Approval} event indicating the updated allowance. This is not required by the EIP. See the note at the beginning of {ERC20}. NOTE: Does not update the allowance if the current allowance is the maximum `uint256`. Requirements: - `from` and `to` cannot be the zero address. - `from` must have a balance of at least `amount`. - the caller must have allowance for ``from``'s tokens of at least `amount`."
      },
      "upgradeTo(address)": {
        "details": "Upgrade the implementation of the proxy to `newImplementation`. Calls {_authorizeUpgrade}. Emits an {Upgraded} event."
      },
      "upgradeToAndCall(address,bytes)": {
        "details": "Upgrade the implementation of the proxy to `newImplementation`, and subsequently execute the function call encoded in `data`. Calls {_authorizeUpgrade}. Emits an {Upgraded} event."
      }
    },
    "version": 1
  },
  "userdoc": {
    "kind": "user",
    "methods": {
      "assetBaseCurrencyPrice(address,uint256)": {
        "notice": "This function is imported by other contract, thus cannot be external"
      },
      "canResolvePrice(address)": {
        "notice": "This function is imported by other contract, thus cannot be external"
      }
    },
    "version": 1
  },
  "storageLayout": {
    "storage": [
      {
        "astId": 3247,
        "contract": "contracts/LiquidPool.sol:LiquidPool",
        "label": "_initialized",
        "offset": 0,
        "slot": "0",
        "type": "t_uint8"
      },
      {
        "astId": 3250,
        "contract": "contracts/LiquidPool.sol:LiquidPool",
        "label": "_initializing",
        "offset": 1,
        "slot": "0",
        "type": "t_bool"
      },
      {
        "astId": 3229,
        "contract": "contracts/LiquidPool.sol:LiquidPool",
        "label": "__gap",
        "offset": 0,
        "slot": "1",
        "type": "t_array(t_uint256)50_storage"
      },
      {
        "astId": 3526,
        "contract": "contracts/LiquidPool.sol:LiquidPool",
        "label": "__gap",
        "offset": 0,
        "slot": "51",
        "type": "t_array(t_uint256)50_storage"
      },
      {
        "astId": 8642,
        "contract": "contracts/LiquidPool.sol:LiquidPool",
        "label": "__gap",
        "offset": 0,
        "slot": "101",
        "type": "t_array(t_uint256)50_storage"
      },
      {
        "astId": 5094,
        "contract": "contracts/LiquidPool.sol:LiquidPool",
        "label": "_balances",
        "offset": 0,
        "slot": "151",
        "type": "t_mapping(t_address,t_uint256)"
      },
      {
        "astId": 5100,
        "contract": "contracts/LiquidPool.sol:LiquidPool",
        "label": "_allowances",
        "offset": 0,
        "slot": "152",
        "type": "t_mapping(t_address,t_mapping(t_address,t_uint256))"
      },
      {
        "astId": 5102,
        "contract": "contracts/LiquidPool.sol:LiquidPool",
        "label": "_totalSupply",
        "offset": 0,
        "slot": "153",
        "type": "t_uint256"
      },
      {
        "astId": 5104,
        "contract": "contracts/LiquidPool.sol:LiquidPool",
        "label": "_name",
        "offset": 0,
        "slot": "154",
        "type": "t_string_storage"
      },
      {
        "astId": 5106,
        "contract": "contracts/LiquidPool.sol:LiquidPool",
        "label": "_symbol",
        "offset": 0,
        "slot": "155",
        "type": "t_string_storage"
      },
      {
        "astId": 5685,
        "contract": "contracts/LiquidPool.sol:LiquidPool",
        "label": "__gap",
        "offset": 0,
        "slot": "156",
        "type": "t_array(t_uint256)45_storage"
      },
      {
        "astId": 29755,
        "contract": "contracts/LiquidPool.sol:LiquidPool",
        "label": "_baseCurrency",
        "offset": 0,
        "slot": "201",
        "type": "t_address"
      },
      {
        "astId": 30379,
        "contract": "contracts/LiquidPool.sol:LiquidPool",
        "label": "__gap",
        "offset": 0,
        "slot": "202",
        "type": "t_array(t_uint256)50_storage"
      },
      {
        "astId": 28605,
        "contract": "contracts/LiquidPool.sol:LiquidPool",
        "label": "_team",
        "offset": 0,
        "slot": "252",
        "type": "t_address"
      },
      {
        "astId": 28609,
        "contract": "contracts/LiquidPool.sol:LiquidPool",
        "label": "_budgetApprovals",
        "offset": 0,
        "slot": "253",
        "type": "t_mapping(t_address,t_bool)"
      },
      {
        "astId": 28872,
        "contract": "contracts/LiquidPool.sol:LiquidPool",
        "label": "__gap",
        "offset": 0,
        "slot": "254",
        "type": "t_array(t_uint256)50_storage"
      },
      {
        "astId": 23504,
        "contract": "contracts/LiquidPool.sol:LiquidPool",
        "label": "dao",
        "offset": 0,
        "slot": "304",
        "type": "t_contract(IDao)31823"
      },
      {
        "astId": 23507,
        "contract": "contracts/LiquidPool.sol:LiquidPool",
        "label": "assets",
        "offset": 0,
        "slot": "305",
        "type": "t_array(t_address)dyn_storage"
      },
      {
        "astId": 23511,
        "contract": "contracts/LiquidPool.sol:LiquidPool",
        "label": "_assetIndex",
        "offset": 0,
        "slot": "306",
        "type": "t_mapping(t_address,t_uint256)"
      },
      {
        "astId": 24356,
        "contract": "contracts/LiquidPool.sol:LiquidPool",
        "label": "__gap",
        "offset": 0,
        "slot": "307",
        "type": "t_array(t_uint256)50_storage"
      }
    ],
    "types": {
      "t_address": {
        "encoding": "inplace",
        "label": "address",
        "numberOfBytes": "20"
      },
      "t_array(t_address)dyn_storage": {
        "base": "t_address",
        "encoding": "dynamic_array",
        "label": "address[]",
        "numberOfBytes": "32"
      },
      "t_array(t_uint256)45_storage": {
        "base": "t_uint256",
        "encoding": "inplace",
        "label": "uint256[45]",
        "numberOfBytes": "1440"
      },
      "t_array(t_uint256)50_storage": {
        "base": "t_uint256",
        "encoding": "inplace",
        "label": "uint256[50]",
        "numberOfBytes": "1600"
      },
      "t_bool": {
        "encoding": "inplace",
        "label": "bool",
        "numberOfBytes": "1"
      },
      "t_contract(IDao)31823": {
        "encoding": "inplace",
        "label": "contract IDao",
        "numberOfBytes": "20"
      },
      "t_mapping(t_address,t_bool)": {
        "encoding": "mapping",
        "key": "t_address",
        "label": "mapping(address => bool)",
        "numberOfBytes": "32",
        "value": "t_bool"
      },
      "t_mapping(t_address,t_mapping(t_address,t_uint256))": {
        "encoding": "mapping",
        "key": "t_address",
        "label": "mapping(address => mapping(address => uint256))",
        "numberOfBytes": "32",
        "value": "t_mapping(t_address,t_uint256)"
      },
      "t_mapping(t_address,t_uint256)": {
        "encoding": "mapping",
        "key": "t_address",
        "label": "mapping(address => uint256)",
        "numberOfBytes": "32",
        "value": "t_uint256"
      },
      "t_string_storage": {
        "encoding": "bytes",
        "label": "string",
        "numberOfBytes": "32"
      },
      "t_uint256": {
        "encoding": "inplace",
        "label": "uint256",
        "numberOfBytes": "32"
      },
      "t_uint8": {
        "encoding": "inplace",
        "label": "uint8",
        "numberOfBytes": "1"
      }
    }
  }
}