{
  "address": "0x5b481515076755f0550EDFf1521B411D4DC13382",
  "abi": [
    {
      "inputs": [],
      "stateMutability": "nonpayable",
      "type": "constructor"
    },
    {
      "anonymous": false,
      "inputs": [
        {
          "indexed": false,
          "internalType": "address",
          "name": "target",
          "type": "address"
        }
      ],
      "name": "AllowAddress",
      "type": "event"
    },
    {
      "anonymous": false,
      "inputs": [
        {
          "indexed": false,
          "internalType": "uint256",
          "name": "amount",
          "type": "uint256"
        }
      ],
      "name": "AllowAmount",
      "type": "event"
    },
    {
      "anonymous": false,
      "inputs": [
        {
          "indexed": false,
          "internalType": "address",
          "name": "token",
          "type": "address"
        }
      ],
      "name": "AllowToken",
      "type": "event"
    },
    {
      "anonymous": false,
      "inputs": [
        {
          "indexed": true,
          "internalType": "uint256",
          "name": "id",
          "type": "uint256"
        },
        {
          "indexed": false,
          "internalType": "address",
          "name": "approver",
          "type": "address"
        },
        {
          "indexed": false,
          "internalType": "string",
          "name": "comment",
          "type": "string"
        }
      ],
      "name": "ApproveTransaction",
      "type": "event"
    },
    {
      "anonymous": false,
      "inputs": [
        {
          "indexed": true,
          "internalType": "uint256",
          "name": "id",
          "type": "uint256"
        },
        {
          "indexed": false,
          "internalType": "bytes[]",
          "name": "data",
          "type": "bytes[]"
        },
        {
          "indexed": false,
          "internalType": "uint256",
          "name": "deadline",
          "type": "uint256"
        },
        {
          "indexed": false,
          "internalType": "enum CommonBudgetApproval.Status",
          "name": "status",
          "type": "uint8"
        },
        {
          "indexed": false,
          "internalType": "string",
          "name": "comment",
          "type": "string"
        },
        {
          "indexed": false,
          "internalType": "address",
          "name": "creator",
          "type": "address"
        }
      ],
      "name": "CreateTransaction",
      "type": "event"
    },
    {
      "anonymous": false,
      "inputs": [
        {
          "indexed": true,
          "internalType": "uint256",
          "name": "id",
          "type": "uint256"
        },
        {
          "indexed": false,
          "internalType": "bytes[]",
          "name": "data",
          "type": "bytes[]"
        },
        {
          "indexed": false,
          "internalType": "address",
          "name": "_executor",
          "type": "address"
        }
      ],
      "name": "ExecuteTransaction",
      "type": "event"
    },
    {
      "anonymous": false,
      "inputs": [
        {
          "indexed": true,
          "internalType": "uint256",
          "name": "id",
          "type": "uint256"
        },
        {
          "indexed": true,
          "internalType": "address",
          "name": "executor",
          "type": "address"
        },
        {
          "indexed": true,
          "internalType": "address",
          "name": "toAddress",
          "type": "address"
        },
        {
          "indexed": false,
          "internalType": "address",
          "name": "token",
          "type": "address"
        },
        {
          "indexed": false,
          "internalType": "uint256",
          "name": "amount",
          "type": "uint256"
        }
      ],
      "name": "ExecuteTransferLiquidERC20Transaction",
      "type": "event"
    },
    {
      "anonymous": false,
      "inputs": [
        {
          "indexed": false,
          "internalType": "uint8",
          "name": "version",
          "type": "uint8"
        }
      ],
      "name": "Initialized",
      "type": "event"
    },
    {
      "anonymous": false,
      "inputs": [
        {
          "indexed": true,
          "internalType": "uint256",
          "name": "id",
          "type": "uint256"
        }
      ],
      "name": "RevokeTransaction",
      "type": "event"
    },
    {
      "anonymous": false,
      "inputs": [
        {
          "indexed": false,
          "internalType": "address",
          "name": "approver",
          "type": "address"
        }
      ],
      "name": "SetApprover",
      "type": "event"
    },
    {
      "inputs": [
        {
          "internalType": "address",
          "name": "",
          "type": "address"
        }
      ],
      "name": "addressesMapping",
      "outputs": [
        {
          "internalType": "bool",
          "name": "",
          "type": "bool"
        }
      ],
      "stateMutability": "view",
      "type": "function"
    },
    {
      "inputs": [],
      "name": "afterInitialized",
      "outputs": [],
      "stateMutability": "nonpayable",
      "type": "function"
    },
    {
      "inputs": [],
      "name": "allowAllAddresses",
      "outputs": [
        {
          "internalType": "bool",
          "name": "",
          "type": "bool"
        }
      ],
      "stateMutability": "view",
      "type": "function"
    },
    {
      "inputs": [],
      "name": "allowAnyAmount",
      "outputs": [
        {
          "internalType": "bool",
          "name": "",
          "type": "bool"
        }
      ],
      "stateMutability": "view",
      "type": "function"
    },
    {
      "inputs": [],
      "name": "allowUnlimitedUsageCount",
      "outputs": [
        {
          "internalType": "bool",
          "name": "",
          "type": "bool"
        }
      ],
      "stateMutability": "view",
      "type": "function"
    },
    {
      "inputs": [
        {
          "internalType": "uint256",
          "name": "id",
          "type": "uint256"
        },
        {
          "internalType": "string",
          "name": "comment",
          "type": "string"
        }
      ],
      "name": "approveTransaction",
      "outputs": [],
      "stateMutability": "nonpayable",
      "type": "function"
    },
    {
      "inputs": [],
      "name": "approverTeamId",
      "outputs": [
        {
          "internalType": "uint256",
          "name": "",
          "type": "uint256"
        }
      ],
      "stateMutability": "view",
      "type": "function"
    },
    {
      "inputs": [
        {
          "internalType": "address",
          "name": "eoa",
          "type": "address"
        }
      ],
      "name": "approversMapping",
      "outputs": [
        {
          "internalType": "bool",
          "name": "",
          "type": "bool"
        }
      ],
      "stateMutability": "view",
      "type": "function"
    },
    {
      "inputs": [
        {
          "internalType": "address",
          "name": "asset",
          "type": "address"
        },
        {
          "internalType": "uint256",
          "name": "amount",
          "type": "uint256"
        }
      ],
      "name": "assetBaseCurrencyPrice",
      "outputs": [
        {
          "internalType": "uint256",
          "name": "",
          "type": "uint256"
        }
      ],
      "stateMutability": "view",
      "type": "function"
    },
    {
      "inputs": [
        {
          "internalType": "address",
          "name": "asset",
          "type": "address"
        },
        {
          "internalType": "uint256",
          "name": "amount",
          "type": "uint256"
        }
      ],
      "name": "assetEthPrice",
      "outputs": [
        {
          "internalType": "uint256",
          "name": "",
          "type": "uint256"
        }
      ],
      "stateMutability": "view",
      "type": "function"
    },
    {
      "inputs": [],
      "name": "baseCurrency",
      "outputs": [
        {
          "internalType": "address",
          "name": "",
          "type": "address"
        }
      ],
      "stateMutability": "view",
      "type": "function"
    },
    {
      "inputs": [],
      "name": "baseCurrencyDecimals",
      "outputs": [
        {
          "internalType": "uint8",
          "name": "",
          "type": "uint8"
        }
      ],
      "stateMutability": "view",
      "type": "function"
    },
    {
      "inputs": [
        {
          "internalType": "address",
          "name": "asset",
          "type": "address"
        }
      ],
      "name": "canResolvePrice",
      "outputs": [
        {
          "internalType": "bool",
          "name": "",
          "type": "bool"
        }
      ],
      "stateMutability": "view",
      "type": "function"
    },
    {
      "inputs": [
        {
          "internalType": "bytes[]",
          "name": "_data",
          "type": "bytes[]"
        },
        {
          "internalType": "uint32",
          "name": "_deadline",
          "type": "uint32"
        },
        {
          "internalType": "bool",
          "name": "_isExecute",
          "type": "bool"
        },
        {
          "internalType": "string",
          "name": "comment",
          "type": "string"
        }
      ],
      "name": "createTransaction",
      "outputs": [
        {
          "internalType": "uint256",
          "name": "",
          "type": "uint256"
        }
      ],
      "stateMutability": "nonpayable",
      "type": "function"
    },
    {
      "inputs": [],
      "name": "endTime",
      "outputs": [
        {
          "internalType": "uint256",
          "name": "",
          "type": "uint256"
        }
      ],
      "stateMutability": "view",
      "type": "function"
    },
    {
      "inputs": [
        {
          "internalType": "address",
          "name": "asset",
          "type": "address"
        },
        {
          "internalType": "uint256",
          "name": "ethAmount",
          "type": "uint256"
        }
      ],
      "name": "ethAssetPrice",
      "outputs": [
        {
          "internalType": "uint256",
          "name": "",
          "type": "uint256"
        }
      ],
      "stateMutability": "view",
      "type": "function"
    },
    {
      "inputs": [],
      "name": "executeParams",
      "outputs": [
        {
          "internalType": "string[]",
          "name": "",
          "type": "string[]"
        }
      ],
      "stateMutability": "pure",
      "type": "function"
    },
    {
      "inputs": [
        {
          "internalType": "uint256",
          "name": "id",
          "type": "uint256"
        }
      ],
      "name": "executeTransaction",
      "outputs": [],
      "stateMutability": "nonpayable",
      "type": "function"
    },
    {
      "inputs": [],
      "name": "executee",
      "outputs": [
        {
          "internalType": "address",
          "name": "",
          "type": "address"
        }
      ],
      "stateMutability": "view",
      "type": "function"
    },
    {
      "inputs": [],
      "name": "executor",
      "outputs": [
        {
          "internalType": "address",
          "name": "",
          "type": "address"
        }
      ],
      "stateMutability": "view",
      "type": "function"
    },
    {
      "inputs": [],
      "name": "executorTeamId",
      "outputs": [
        {
          "internalType": "uint256",
          "name": "",
          "type": "uint256"
        }
      ],
      "stateMutability": "view",
      "type": "function"
    },
    {
      "inputs": [
        {
          "components": [
            {
              "internalType": "address",
              "name": "executor",
              "type": "address"
            },
            {
              "internalType": "uint256",
              "name": "executorTeamId",
              "type": "uint256"
            },
            {
              "internalType": "address[]",
              "name": "approvers",
              "type": "address[]"
            },
            {
              "internalType": "uint256",
              "name": "approverTeamId",
              "type": "uint256"
            },
            {
              "internalType": "uint256",
              "name": "minApproval",
              "type": "uint256"
            },
            {
              "internalType": "string",
              "name": "text",
              "type": "string"
            },
            {
              "internalType": "string",
              "name": "transactionType",
              "type": "string"
            },
            {
              "internalType": "uint256",
              "name": "startTime",
              "type": "uint256"
            },
            {
              "internalType": "uint256",
              "name": "endTime",
              "type": "uint256"
            },
            {
              "internalType": "bool",
              "name": "allowUnlimitedUsageCount",
              "type": "bool"
            },
            {
              "internalType": "uint256",
              "name": "usageCount",
              "type": "uint256"
            },
            {
              "internalType": "address",
              "name": "team",
              "type": "address"
            }
          ],
          "internalType": "struct CommonBudgetApproval.InitializeParams",
          "name": "params",
          "type": "tuple"
        },
        {
          "internalType": "bool",
          "name": "_allowAllAddresses",
          "type": "bool"
        },
        {
          "internalType": "address[]",
          "name": "_toAddresses",
          "type": "address[]"
        },
        {
          "internalType": "address[]",
          "name": "_tokens",
          "type": "address[]"
        },
        {
          "internalType": "bool",
          "name": "_allowAnyAmount",
          "type": "bool"
        },
        {
          "internalType": "uint256",
          "name": "_totalAmount",
          "type": "uint256"
        },
        {
          "internalType": "address",
          "name": "_baseCurrency",
          "type": "address"
        }
      ],
      "name": "initialize",
      "outputs": [],
      "stateMutability": "nonpayable",
      "type": "function"
    },
    {
      "inputs": [],
      "name": "minApproval",
      "outputs": [
        {
          "internalType": "uint256",
          "name": "",
          "type": "uint256"
        }
      ],
      "stateMutability": "view",
      "type": "function"
    },
    {
      "inputs": [],
      "name": "name",
      "outputs": [
        {
          "internalType": "string",
          "name": "",
          "type": "string"
        }
      ],
      "stateMutability": "view",
      "type": "function"
    },
    {
      "inputs": [
        {
          "internalType": "uint256",
          "name": "id",
          "type": "uint256"
        }
      ],
      "name": "revokeTransaction",
      "outputs": [],
      "stateMutability": "nonpayable",
      "type": "function"
    },
    {
      "inputs": [],
      "name": "startTime",
      "outputs": [
        {
          "internalType": "uint256",
          "name": "",
          "type": "uint256"
        }
      ],
      "stateMutability": "view",
      "type": "function"
    },
    {
      "inputs": [],
      "name": "team",
      "outputs": [
        {
          "internalType": "address",
          "name": "",
          "type": "address"
        }
      ],
      "stateMutability": "view",
      "type": "function"
    },
    {
      "inputs": [],
      "name": "text",
      "outputs": [
        {
          "internalType": "string",
          "name": "",
          "type": "string"
        }
      ],
      "stateMutability": "view",
      "type": "function"
    },
    {
      "inputs": [
        {
          "internalType": "uint256",
          "name": "",
          "type": "uint256"
        }
      ],
      "name": "tokens",
      "outputs": [
        {
          "internalType": "address",
          "name": "",
          "type": "address"
        }
      ],
      "stateMutability": "view",
      "type": "function"
    },
    {
      "inputs": [],
      "name": "tokensLength",
      "outputs": [
        {
          "internalType": "uint256",
          "name": "",
          "type": "uint256"
        }
      ],
      "stateMutability": "view",
      "type": "function"
    },
    {
      "inputs": [
        {
          "internalType": "address",
          "name": "",
          "type": "address"
        }
      ],
      "name": "tokensMapping",
      "outputs": [
        {
          "internalType": "bool",
          "name": "",
          "type": "bool"
        }
      ],
      "stateMutability": "view",
      "type": "function"
    },
    {
      "inputs": [],
      "name": "totalAmount",
      "outputs": [
        {
          "internalType": "uint256",
          "name": "",
          "type": "uint256"
        }
      ],
      "stateMutability": "view",
      "type": "function"
    },
    {
      "inputs": [],
      "name": "transactionType",
      "outputs": [
        {
          "internalType": "string",
          "name": "",
          "type": "string"
        }
      ],
      "stateMutability": "view",
      "type": "function"
    },
    {
      "inputs": [
        {
          "internalType": "uint256",
          "name": "",
          "type": "uint256"
        }
      ],
      "name": "transactions",
      "outputs": [
        {
          "internalType": "uint256",
          "name": "id",
          "type": "uint256"
        },
        {
          "internalType": "enum CommonBudgetApproval.Status",
          "name": "status",
          "type": "uint8"
        },
        {
          "internalType": "uint32",
          "name": "deadline",
          "type": "uint32"
        },
        {
          "internalType": "bool",
          "name": "isExist",
          "type": "bool"
        },
        {
          "internalType": "uint256",
          "name": "approvedCount",
          "type": "uint256"
        }
      ],
      "stateMutability": "view",
      "type": "function"
    },
    {
      "inputs": [],
      "name": "usageCount",
      "outputs": [
        {
          "internalType": "uint256",
          "name": "",
          "type": "uint256"
        }
      ],
      "stateMutability": "view",
      "type": "function"
    }
  ],
  "transactionHash": "0x48f7f4332b0cdb3e9956a8aa1878d5a58ea1f2c276ceb66b9254c85486773050",
  "args": [],
  "numDeployments": 1,
  "solcInputHash": "27880729ae6399ff75bc50d0cf91f9f0",
  "bytecode": "0x60806040523480156200001157600080fd5b506200001c62000036565b6200002662000036565b6200003062000036565b620000f8565b600054610100900460ff1615620000a35760405162461bcd60e51b815260206004820152602760248201527f496e697469616c697a61626c653a20636f6e747261637420697320696e697469604482015266616c697a696e6760c81b606482015260840160405180910390fd5b60005460ff9081161015620000f6576000805460ff191660ff9081179091556040519081527f7f26b83ff96e1f2b6a682f133852f6798a09c465da95921460cefb38474024989060200160405180910390a15b565b613b1e80620001086000396000f3fe608060405234801561001057600080fd5b50600436106102115760003560e01c806378e9792511610125578063b617b3ee116100ad578063d92fc67b1161007c578063d92fc67b146104a8578063d96c9196146104b0578063de755e2f146104b8578063ee22610b146104c0578063f5c03852146104d357600080fd5b8063b617b3ee1461046f578063bc9c5e901461047c578063c34c08e51461048f578063cf26fec6146104a057600080fd5b80638d1c5c29116100f45780638d1c5c29146103b657806392a85fde146103d957806397c85a61146103ea5780639ace38c2146103fd578063b49612ba1461045c57600080fd5b806378e97925146103885780637cd47d9314610390578063850154371461039857806385f2aef2146103a557600080fd5b80634f64b2be116101a85780635ad32502116101775780635ad325021461031157806360d8bb221461031c57806363d727dc1461032f5780636bdebe5e14610349578063735631ad1461037557600080fd5b80634f64b2be146102b657806350bd881f146102e15780635258f9cd146102e95780635aaaefad146102fe57600080fd5b80631f1bd692116101e45780631f1bd6921461025e5780633197cbb61461026657806331a7bdd91461026e5780633d70015a1461028357600080fd5b806303ff90f61461021657806306fdde031461022d57806314b893f9146102425780631a39d8ef14610255575b600080fd5b6008545b6040519081526020015b60405180910390f35b6102356104e4565b6040516102249190613510565b61021a610250366004612f37565b610500565b61021a607a5481565b61023561071b565b600e5461021a565b6102766107ad565b60405161022491906134ae565b6102a6610291366004612eab565b60786020526000908152604090205460ff1681565b6040519015158152602001610224565b6102c96102c43660046131f9565b6108ae565b6040516001600160a01b039091168152602001610224565b600c5461021a565b6102fc6102f736600461312b565b6108d8565b005b61021a61030c366004612f0b565b610a9d565b600b5460ff166102a6565b61021a61032a366004612f0b565b610d60565b610337610f0c565b60405160ff9091168152602001610224565b6102a6610357366004612eab565b6001600160a01b031660009081526006602052604090205460ff1690565b6102fc6103833660046131f9565b610fc7565b600d5461021a565b6102356111bd565b6079546102a69060ff1681565b600f546001600160a01b03166102c9565b6102a66103c4366004612eab565b60766020526000908152604090205460ff1681565b6042546001600160a01b03166102c9565b6102fc6103f836600461322b565b6111cc565b61044b61040b3660046131f9565b600260208190526000918252604090912080549181015460039091015460ff8083169263ffffffff61010082041692650100000000009091049091169085565b6040516102249594939291906135e7565b61021a61046a366004612f0b565b6114fc565b6075546102a69060ff1681565b6102a661048a366004612eab565b61179a565b6003546001600160a01b03166102c9565b6102fc6118bf565b60775461021a565b60075461021a565b60045461021a565b6102fc6104ce3660046131f9565b611926565b6005546001600160a01b03166102c9565b604051806060016040528060258152602001613aa46025913981565b60006105146003546001600160a01b031690565b6001600160a01b0316336001600160a01b031614806105d757506000610542600f546001600160a01b031690565b6001600160a01b031662fdd58e3361055960045490565b6040516001600160e01b031960e085901b1681526001600160a01b039092166004830152602482015260440160206040518083038186803b15801561059d57600080fd5b505afa1580156105b1573d6000803e3d6000fd5b505050506040513d601f19601f820116820180604052508101906105d59190613212565b115b6105fc5760405162461bcd60e51b81526004016105f3906135a5565b60405180910390fd5b61060a600180546001019055565b600061061560015490565b6000818152600260209081526040909120828155895192935091610641916001840191908b0190612be1565b506002810180546501000000000065ffffffffff001990911661010063ffffffff8b160265ff000000000019161717905560085461069b57600082815260026020819052604090912001805460ff191660011790556106b6565b600082815260026020819052604090912001805460ff191690555b600281015460405183917f8a5186dbaf6f344b2837e11834be94edebb633f05034f422c6b1fe1595b4d0cc916106f9918c918c9160ff16908b908b903390613453565b60405180910390a285156107105761071082611926565b509695505050505050565b60606009805461072a906139ca565b80601f0160208091040260200160405190810160405280929190818152602001828054610756906139ca565b80156107a35780601f10610778576101008083540402835291602001916107a3565b820191906000526020600020905b81548152906001019060200180831161078657829003601f168201915b5050505050905090565b6040805160038082526080820190925260609160009190816020015b60608152602001906001900390816107c95790505090506040518060400160405280600d81526020016c30b2323932b9b9903a37b5b2b760991b8152508160008151811061081957610819613a62565b60200260200101819052506040518060400160405280600a8152602001696164647265737320746f60b01b8152508160018151811061085a5761085a613a62565b60200260200101819052506040518060400160405280600d81526020016c75696e743235362076616c756560981b8152508160028151811061089e5761089e613a62565b6020908102919091010152919050565b607781815481106108be57600080fd5b6000918252602090912001546001600160a01b0316905081565b600054610100900460ff16158080156108f85750600054600160ff909116105b806109125750303b158015610912575060005460ff166001145b6109755760405162461bcd60e51b815260206004820152602e60248201527f496e697469616c697a61626c653a20636f6e747261637420697320616c72656160448201526d191e481a5b9a5d1a585b1a5e995960921b60648201526084016105f3565b6000805460ff191660011790558015610998576000805461ff0019166101001790555b6109a188611dae565b6075805460ff191688151517905560005b86518110156109ef576109dd8782815181106109d0576109d0613a62565b6020026020010151612038565b806109e781613a05565b9150506109b2565b5060005b8551811015610a3057610a1e868281518110610a1157610a11613a62565b602002602001015161210e565b80610a2881613a05565b9150506109f3565b506079805460ff1916851515179055607a839055610a4d8261227f565b8015610a93576000805461ff0019169055604051600181527f7f26b83ff96e1f2b6a682f133852f6798a09c465da95921460cefb38474024989060200160405180910390a15b5050505050505050565b60006001600160a01b038316600080516020613ac98339815191521480610ae057506001600160a01b03831673b4fbf271143f4fbf7b91a5ded31805e42b2208d6145b15610aec575080610d5a565b60008060008073abc30d61d30f19de38897eba18252868b34596646001600160a01b031663bcfd032d88600080516020613ac98339815191526040518363ffffffff1660e01b8152600401610b429291906133b6565b60a06040518083038186803b158015610b5a57600080fd5b505afa158015610b6e573d6000803e3d6000fd5b505050506040513d601f19601f82011682018060405250810190610b929190613277565b945094505093509350600073abc30d61d30f19de38897eba18252868b34596646001600160a01b03166358e2d3a889600080516020613ac98339815191526040518363ffffffff1660e01b8152600401610bed9291906133b6565b60206040518083038186803b158015610c0557600080fd5b505afa158015610c19573d6000803e3d6000fd5b505050506040513d601f19601f82011682018060405250810190610c3d91906132c7565b9050846001600160501b0316826001600160501b03161015610c715760405162461bcd60e51b81526004016105f390613523565b610c7e620151808461372b565b421115610c9d5760405162461bcd60e51b81526004016105f390613523565b610ca9848260126122c8565b93506000841315610d5057876001600160a01b031663313ce5676040518163ffffffff1660e01b815260040160206040518083038186803b158015610ced57600080fd5b505afa158015610d01573d6000803e3d6000fd5b505050506040513d601f19601f82011682018060405250810190610d2591906132c7565b610d3090600a6137f9565b610d3a888661392a565b610d449190613796565b95505050505050610d5a565b6000955050505050505b92915050565b600080610d756042546001600160a01b031690565b9050806001600160a01b0316846001600160a01b03161415610d9a5782915050610d5a565b6001600160a01b038116600080516020613ac98339815191521480610ddb57506001600160a01b03811673b4fbf271143f4fbf7b91a5ded31805e42b2208d6145b15610df257610dea8484610a9d565b915050610d5a565b6001600160a01b038416600080516020613ac98339815191521480610e3357506001600160a01b03841673b4fbf271143f4fbf7b91a5ded31805e42b2208d6145b15610e4257610dea81846114fc565b6000610e4c610f0c565b90506000610e5c8684601261233b565b90506000811315610f0057610ef6610e7486836138a5565b876001600160a01b031663313ce5676040518163ffffffff1660e01b815260040160206040518083038186803b158015610ead57600080fd5b505afa158015610ec1573d6000803e3d6000fd5b505050506040513d601f19601f82011682018060405250810190610ee591906132c7565b610ef0906012613743565b846122c8565b9350505050610d5a565b50600095945050505050565b6000600080516020613ac9833981519152610f2f6042546001600160a01b031690565b6001600160a01b03161415610f445750601290565b6042546001600160a01b03166001600160a01b031663313ce5676040518163ffffffff1660e01b815260040160206040518083038186803b158015610f8857600080fd5b505afa925050508015610fb8575060408051601f3d908101601f19168201909252610fb5918101906132c7565b60015b610fc25750600090565b919050565b6003546001600160a01b031633148061108457506000610fef600f546001600160a01b031690565b6001600160a01b031662fdd58e3361100660045490565b6040516001600160e01b031960e085901b1681526001600160a01b039092166004830152602482015260440160206040518083038186803b15801561104a57600080fd5b505afa15801561105e573d6000803e3d6000fd5b505050506040513d601f19601f820116820180604052508101906110829190613212565b115b6110a05760405162461bcd60e51b81526004016105f3906135a5565b806110aa60015490565b10156110f05760405162461bcd60e51b8152602060048201526015602482015274125b9d985a5b1908151c985b9cd858dd1a5bdb9259605a1b60448201526064016105f3565b60026000828152600260208190526040909120015460ff16600381111561111957611119613a4c565b14156111755760405162461bcd60e51b815260206004820152602560248201527f5472616e73616374696f6e20686173206265656e20636f6d706c65746564206260448201526465666f726560d81b60648201526084016105f3565b6000818152600260208190526040808320909101805460ff191660031790555182917f92a917be073b79ab50f9d997e9514a5d101e052ce04228014947e7883a7c034691a250565b6060600a805461072a906139ca565b3360009081526006602052604090205460ff168061128e575060006111f9600f546001600160a01b031690565b6001600160a01b031662fdd58e3361121060075490565b6040516001600160e01b031960e085901b1681526001600160a01b039092166004830152602482015260440160206040518083038186803b15801561125457600080fd5b505afa158015611268573d6000803e3d6000fd5b505050506040513d601f19601f8201168201806040525081019061128c9190613212565b115b6112e55760405162461bcd60e51b815260206004820152602260248201527f417070726f766572206e6f742077686974656c697374656420696e2062756467604482015261195d60f21b60648201526084016105f3565b826112ef60015490565b10156113355760405162461bcd60e51b8152602060048201526015602482015274125b9d985a5b1908151c985b9cd858dd1a5bdb9259605a1b60448201526064016105f3565b600083815260026020819052604082209081015460039091015460ff909116919061136190600161372b565b9050600082600381111561137757611377613a4c565b14806113945750600182600381111561139257611392613a4c565b145b6113e05760405162461bcd60e51b815260206004820152601d60248201527f556e6578706563746564207472616e73616374696f6e2073746174757300000060448201526064016105f3565b600085815260026020908152604080832033845260040190915290205460ff16156114595760405162461bcd60e51b8152602060048201526024808201527f5472616e73616374696f6e20686173206265656e20617070726f766564206265604482015263666f726560e01b60648201526084016105f3565b6000858152600260208181526040808420338552600481018352908420805460ff19166001179055928890525260030181905561149560085490565b81106114b957600085815260026020819052604090912001805460ff191660011790555b847f3399030f87676a97e30e211a48f9c46e2ff806d0b4cedf7100782f08c52902c93386866040516114ed93929190613404565b60405180910390a25050505050565b60006001600160a01b038316600080516020613ac9833981519152148061153f57506001600160a01b03831673b4fbf271143f4fbf7b91a5ded31805e42b2208d6145b1561154b575080610d5a565b60008060008073abc30d61d30f19de38897eba18252868b34596646001600160a01b031663bcfd032d88600080516020613ac98339815191526040518363ffffffff1660e01b81526004016115a19291906133b6565b60a06040518083038186803b1580156115b957600080fd5b505afa1580156115cd573d6000803e3d6000fd5b505050506040513d601f19601f820116820180604052508101906115f19190613277565b945094505093509350600073abc30d61d30f19de38897eba18252868b34596646001600160a01b03166358e2d3a889600080516020613ac98339815191526040518363ffffffff1660e01b815260040161164c9291906133b6565b60206040518083038186803b15801561166457600080fd5b505afa158015611678573d6000803e3d6000fd5b505050506040513d601f19601f8201168201806040525081019061169c91906132c7565b9050846001600160501b0316826001600160501b031610156116d05760405162461bcd60e51b81526004016105f390613523565b6116dd620151808461372b565b4211156116fc5760405162461bcd60e51b81526004016105f390613523565b611708848260126122c8565b93506000841315610d505783886001600160a01b031663313ce5676040518163ffffffff1660e01b815260040160206040518083038186803b15801561174d57600080fd5b505afa158015611761573d6000803e3d6000fd5b505050506040513d601f19601f8201168201806040525081019061178591906132c7565b61179090600a6137f9565b610d3a908961392a565b60006001600160a01b038216600080516020613ac983398151915214806117dd57506001600160a01b03821673b4fbf271143f4fbf7b91a5ded31805e42b2208d6145b156117ea57506001919050565b60405163d2edb6dd60e01b815273abc30d61d30f19de38897eba18252868b34596649063d2edb6dd90611831908590600080516020613ac9833981519152906004016133b6565b60206040518083038186803b15801561184957600080fd5b505afa925050508015611879575060408051601f3d908101601f191682019092526118769181019061310e565b60015b6118b6573d8080156118a7576040519150601f19603f3d011682016040523d82523d6000602084013e6118ac565b606091505b5060009392505050565b50600192915050565b6005546001600160a01b031633146119245760405162461bcd60e51b815260206004820152602260248201527f4578656375746565206e6f742077686974656c697374656420696e2062756467604482015261195d60f21b60648201526084016105f3565b565b806001806000838152600260208190526040909120015460ff16600381111561195157611951613a4c565b1461199e5760405162461bcd60e51b815260206004820152601a60248201527f5472616e73616374696f6e2073746174757320696e76616c696400000000000060448201526064016105f3565b600083815260026020819052604090912001548390610100900463ffffffff16421115611a035760405162461bcd60e51b8152602060048201526013602482015272151c985b9cd858dd1a5bdb88195e1c1a5c9959606a1b60448201526064016105f3565b600d54421015611a555760405162461bcd60e51b815260206004820152601f60248201527f42756467657420757361676520706572696f64206e6f7420737461727465640060448201526064016105f3565b6000611a60600e5490565b90508015611ab757804210611ab75760405162461bcd60e51b815260206004820152601d60248201527f42756467657420757361676520706572696f642068617320656e64656400000060448201526064016105f3565b6003546001600160a01b0316331480611b7457506000611adf600f546001600160a01b031690565b6001600160a01b031662fdd58e33611af660045490565b6040516001600160e01b031960e085901b1681526001600160a01b039092166004830152602482015260440160206040518083038186803b158015611b3a57600080fd5b505afa158015611b4e573d6000803e3d6000fd5b505050506040513d601f19601f82011682018060405250810190611b729190613212565b115b611b905760405162461bcd60e51b81526004016105f3906135a5565b6000611b9e600b5460ff1690565b90506000611bab600c5490565b9050600060026000898152602001908152602001600020600101805480602002602001604051908101604052809291908181526020016000905b82821015611c91578382906000526020600020018054611c04906139ca565b80601f0160208091040260200160405190810160405280929190818152602001828054611c30906139ca565b8015611c7d5780601f10611c5257610100808354040283529160200191611c7d565b820191906000526020600020905b815481529060010190602001808311611c6057829003601f168201915b505050505081526020019060010190611be5565b50505050905060005b8151811015611d43578380611caf5750600083115b611cfb5760405162461bcd60e51b815260206004820152601b60248201527f457863656564656420627564676574207573616765206c696d6974000000000060448201526064016105f3565b83611d0e5782611d0a816139b3565b9350505b611d3189838381518110611d2457611d24613a62565b6020026020010151612801565b80611d3b81613a05565b915050611c9a565b50600c82905560008881526002602081905260409091208101805460ff19166001830217905550877f9060adf413860c5ab6e376e0aa4269e49a13f0853edb1583fce8129d4c756d798233604051611d9c929190613429565b60405180910390a25050505050505050565b600054610100900460ff16611dd55760405162461bcd60e51b81526004016105f39061355a565b600081606001351180611dfa5750611df0604082018261361d565b9050816080013511155b611e3e5760405162461bcd60e51b8152602060048201526015602482015274125b9d985b1a5908185c1c1c9bdd995c881b1a5cdd605a1b60448201526064016105f3565b600580546001600160a01b03191633179055611e5d6020820182612eab565b600380546001600160a01b0319166001600160a01b0392909216919091179055611e8a60a0820182613667565b611e9691600991612c3e565b50611ea460c0820182613667565b611eb091600a91612c3e565b50608081013560085560e0810135600d55610100810135600e55611edc6101408201610120830161307c565b600b805460ff1916911515919091179055610140810135600c55611f0861018082016101608301612eab565b600f80546001600160a01b0319166001600160a01b03929092169190911790556020810135600455606081013560075560005b611f48604083018361361d565b905081101561203457600160066000611f64604086018661361d565b85818110611f7457611f74613a62565b9050602002016020810190611f899190612eab565b6001600160a01b0316815260208101919091526040908101600020805460ff1916921515929092179091557f4664777dbfbcb27de0f602e1da5d5a259992cd7edf5b29192929c96e8fd50def90611fe29084018461361d565b83818110611ff257611ff2613a62565b90506020020160208101906120079190612eab565b6040516001600160a01b03909116815260200160405180910390a18061202c81613a05565b915050611f3b565b5050565b6001600160a01b03811660009081526076602052604090205460ff16156120b35760405162461bcd60e51b815260206004820152602960248201527f4475706c696361746564206164647265737320696e20746172676574206164646044820152681c995cdcc81b1a5cdd60ba1b60648201526084016105f3565b6001600160a01b038116600081815260766020908152604091829020805460ff1916600117905590519182527ff11283a265d7a5f95fbc149dc65464f1f5be0151aac387fd76a938e1e558460491015b60405180910390a150565b6001600160a01b03811660009081526078602052604090205460ff16156121855760405162461bcd60e51b815260206004820152602560248201527f4475706c696361746564204974656d20696e20736f7572636520746f6b656e206044820152643634b9ba1760d91b60648201526084016105f3565b61218e8161179a565b6121eb5760405162461bcd60e51b815260206004820152602860248201527f556e7265736f6c7661626c6520746f6b656e20696e2074617267657420746f6b60448201526732b7103634b9ba1760c11b60648201526084016105f3565b6077805460018082019092557f7901cb5addcae2d210a531c604a76a660d77039093bac314de0816a16392aff10180546001600160a01b0319166001600160a01b038416908117909155600081815260786020908152604091829020805460ff1916909417909355519081527f14009112f2dcb15cad32dab6bf972d6d85286e4ae1178f27323ffe25359459e69101612103565b600054610100900460ff166122a65760405162461bcd60e51b81526004016105f39061355a565b604280546001600160a01b0319166001600160a01b0392909216919091179055565b60008160ff168360ff161015612301576122e28383613960565b6122f09060ff16600a6137ed565b6122fa90856138a5565b9050612334565b8160ff168360ff161115612331576123198284613960565b6123279060ff16600a6137ed565b6122fa9085613768565b50825b9392505050565b600060ff8216158015906123535750601260ff831611155b6123935760405162461bcd60e51b8152602060048201526011602482015270496e76616c6964205f646563696d616c7360781b60448201526064016105f3565b60006123a360ff8416600a6137ed565b905060008060008073abc30d61d30f19de38897eba18252868b34596646001600160a01b031663bcfd032d8a600080516020613ac98339815191526040518363ffffffff1660e01b81526004016123fb9291906133b6565b60a06040518083038186803b15801561241357600080fd5b505afa158015612427573d6000803e3d6000fd5b505050506040513d601f19601f8201168201806040525081019061244b9190613277565b945094505093509350836001600160501b0316816001600160501b031610156124b65760405162461bcd60e51b815260206004820152601c60248201527f5374616c6520707269636520696e20436861696e6c696e6b203130340000000060448201526064016105f3565b6124c3620151808361372b565b4211156125125760405162461bcd60e51b815260206004820152601c60248201527f5374616c6520707269636520696e20436861696e6c696e6b203130350000000060448201526064016105f3565b604051630b1c5a7560e31b815260009073abc30d61d30f19de38897eba18252868b3459664906358e2d3a89061255c908d90600080516020613ac9833981519152906004016133b6565b60206040518083038186803b15801561257457600080fd5b505afa158015612588573d6000803e3d6000fd5b505050506040513d601f19601f820116820180604052508101906125ac91906132c7565b90506125b984828a6122c8565b935060008060008073abc30d61d30f19de38897eba18252868b34596646001600160a01b031663bcfd032d8e600080516020613ac98339815191526040518363ffffffff1660e01b81526004016126119291906133b6565b60a06040518083038186803b15801561262957600080fd5b505afa15801561263d573d6000803e3d6000fd5b505050506040513d601f19601f820116820180604052508101906126619190613277565b945094505093509350836001600160501b0316816001600160501b031610156126cc5760405162461bcd60e51b815260206004820152601c60248201527f5374616c6520707269636520696e20436861696e6c696e6b203131320000000060448201526064016105f3565b6126d9620151808361372b565b4211156127285760405162461bcd60e51b815260206004820152601c60248201527f5374616c6520707269636520696e20436861696e6c696e6b203131330000000060448201526064016105f3565b600073abc30d61d30f19de38897eba18252868b34596646001600160a01b03166358e2d3a88f600080516020613ac98339815191526040518363ffffffff1660e01b815260040161277a9291906133b6565b60206040518083038186803b15801561279257600080fd5b505afa1580156127a6573d6000803e3d6000fd5b505050506040513d601f19601f820116820180604052508101906127ca91906132c7565b90506127d784828f6122c8565b9350836127e48c8b6138a5565b6127ee9190613768565b9f9e505050505050505050505050505050565b60008060008380602001905181019061281a9190612ec8565b607a54607954939650919450925060009160ff166001600160a01b038616600080516020613ac983398151915214156128f5576005546001600160a01b031660405163d3abc28b60e01b81526001600160a01b038781166004830152606060248301526000606483015260448201879052919091169063d3abc28b90608401600060405180830381600087803b1580156128b357600080fd5b505af11580156128c7573d6000803e3d6000fd5b505050506040513d6000823e601f3d908101601f191682016040526128ef9190810190613097565b506129c1565b604080516001600160a01b038781166024830152604480830188905283518084039091018152606490920183526020820180516001600160e01b031663a9059cbb60e01b179052600554925163d3abc28b60e01b81529192169063d3abc28b90612968908a9085906000906004016133d0565b600060405180830381600087803b15801561298257600080fd5b505af1158015612996573d6000803e3d6000fd5b505050506040513d6000823e601f3d908101601f191682016040526129be9190810190613097565b50505b6129cb8685610d60565b60755490935060ff16806129f757506001600160a01b03851660009081526076602052604090205460ff165b612a4f5760405162461bcd60e51b815260206004820152602360248201527f526563697069656e74206e6f742077686974656c697374656420696e2062756460448201526219d95d60ea1b60648201526084016105f3565b6001600160a01b03861660009081526078602052604090205460ff16612ab75760405162461bcd60e51b815260206004820152601f60248201527f546f6b656e206e6f742077686974656c697374656420696e206275646765740060448201526064016105f3565b60008311612b125760405162461bcd60e51b815260206004820152602260248201527f5472616e7366657220616d6f756e742073686f756c64206e6f74206265207a65604482015261726f60f01b60648201526084016105f3565b8080612b1e5750818311155b612b7a5760405162461bcd60e51b815260206004820152602760248201527f4578636565646564206d617820627564676574207472616e7366657261626c6560448201526608185b5bdd5b9d60ca1b60648201526084016105f3565b80612b8d57612b898383613949565b607a555b604080516001600160a01b0388811682526020820187905287169133918b917f7bd766f3afc51ba3017c95a3a83ebdafe5e32cf39497f7efc628b13715da4289910160405180910390a45050505050505050565b828054828255906000526020600020908101928215612c2e579160200282015b82811115612c2e5782518051612c1e918491602090910190612cbe565b5091602001919060010190612c01565b50612c3a929150612d32565b5090565b828054612c4a906139ca565b90600052602060002090601f016020900481019282612c6c5760008555612cb2565b82601f10612c855782800160ff19823516178555612cb2565b82800160010185558215612cb2579182015b82811115612cb2578235825591602001919060010190612c97565b50612c3a929150612d4f565b828054612cca906139ca565b90600052602060002090601f016020900481019282612cec5760008555612cb2565b82601f10612d0557805160ff1916838001178555612cb2565b82800160010185558215612cb2579182015b82811115612cb2578251825591602001919060010190612d17565b80821115612c3a576000612d468282612d64565b50600101612d32565b5b80821115612c3a5760008155600101612d50565b508054612d70906139ca565b6000825580601f10612d80575050565b601f016020900490600052602060002090810190612d9e9190612d4f565b50565b8035610fc281613a8e565b600082601f830112612dbd57600080fd5b81356020612dd2612dcd836136df565b6136ae565b80838252828201915082860187848660051b8901011115612df257600080fd5b60005b85811015612e1a578135612e0881613a8e565b84529284019290840190600101612df5565b5090979650505050505050565b80358015158114610fc257600080fd5b60008083601f840112612e4957600080fd5b50813567ffffffffffffffff811115612e6157600080fd5b602083019150836020828501011115612e7957600080fd5b9250929050565b803563ffffffff81168114610fc257600080fd5b80516001600160501b0381168114610fc257600080fd5b600060208284031215612ebd57600080fd5b813561233481613a8e565b600080600060608486031215612edd57600080fd5b8351612ee881613a8e565b6020850151909350612ef981613a8e565b80925050604084015190509250925092565b60008060408385031215612f1e57600080fd5b8235612f2981613a8e565b946020939093013593505050565b600080600080600060808688031215612f4f57600080fd5b67ffffffffffffffff8087351115612f6657600080fd5b8635870188601f820112612f7957600080fd5b612f86612dcd82356136df565b8082358252602082019150602083018b6020853560051b8601011115612fab57600080fd5b60005b8435811015613026578582351115612fc557600080fd5b813585018d603f820112612fd857600080fd5b6020810135612fe9612dcd82613703565b8181528f6040838501011115612ffe57600080fd5b8160408401602083013760006020928201830152865294850194929092019150600101612fae565b505080985050505061303a60208801612e80565b945061304860408801612e27565b9350806060880135111561305b57600080fd5b5061306c8760608801358801612e37565b9598949750929550919392915050565b60006020828403121561308e57600080fd5b61233482612e27565b6000602082840312156130a957600080fd5b815167ffffffffffffffff8111156130c057600080fd5b8201601f810184136130d157600080fd5b80516130df612dcd82613703565b8181528560208385010111156130f457600080fd5b613105826020830160208601613983565b95945050505050565b60006020828403121561312057600080fd5b815161233481613a8e565b600080600080600080600060e0888a03121561314657600080fd5b873567ffffffffffffffff8082111561315e57600080fd5b90890190610180828c03121561317357600080fd5b81985061318260208b01612e27565b975060408a013591508082111561319857600080fd5b6131a48b838c01612dac565b965060608a01359150808211156131ba57600080fd5b506131c78a828b01612dac565b9450506131d660808901612e27565b925060a088013591506131eb60c08901612da1565b905092959891949750929550565b60006020828403121561320b57600080fd5b5035919050565b60006020828403121561322457600080fd5b5051919050565b60008060006040848603121561324057600080fd5b83359250602084013567ffffffffffffffff81111561325e57600080fd5b61326a86828701612e37565b9497909650939450505050565b600080600080600060a0868803121561328f57600080fd5b61329886612e94565b94506020860151935060408601519250606086015191506132bb60808701612e94565b90509295509295909350565b6000602082840312156132d957600080fd5b815160ff8116811461233457600080fd5b600081518084526020808501808196508360051b8101915082860160005b8581101561333257828403895261332084835161333f565b98850198935090840190600101613308565b5091979650505050505050565b60008151808452613357816020860160208601613983565b601f01601f19169290920160200192915050565b6004811061338957634e487b7160e01b600052602160045260246000fd5b9052565b81835281816020850137506000828201602090810191909152601f909101601f19169091010190565b6001600160a01b0392831681529116602082015260400190565b6001600160a01b03841681526060602082018190526000906133f49083018561333f565b9050826040830152949350505050565b6001600160a01b0384168152604060208201819052600090613105908301848661338d565b60408152600061343c60408301856132ea565b905060018060a01b03831660208301529392505050565b60a08152600061346660a08301896132ea565b63ffffffff8816602084015261347f604084018861336b565b828103606084015261349281868861338d565b91505060018060a01b0383166080830152979650505050505050565b6000602080830181845280855180835260408601915060408160051b870101925083870160005b8281101561350357603f198886030184526134f185835161333f565b945092850192908501906001016134d5565b5092979650505050505050565b602081526000612334602083018461333f565b60208082526018908201527f5374616c6520707269636520696e20436861696e6c696e6b0000000000000000604082015260600190565b6020808252602b908201527f496e697469616c697a61626c653a20636f6e7472616374206973206e6f74206960408201526a6e697469616c697a696e6760a81b606082015260800190565b60208082526022908201527f4578656375746f72206e6f742077686974656c697374656420696e2062756467604082015261195d60f21b606082015260800190565b85815260a081016135fb602083018761336b565b63ffffffff949094166040820152911515606083015260809091015292915050565b6000808335601e1984360301811261363457600080fd5b83018035915067ffffffffffffffff82111561364f57600080fd5b6020019150600581901b3603821315612e7957600080fd5b6000808335601e1984360301811261367e57600080fd5b83018035915067ffffffffffffffff82111561369957600080fd5b602001915036819003821315612e7957600080fd5b604051601f8201601f1916810167ffffffffffffffff811182821017156136d7576136d7613a78565b604052919050565b600067ffffffffffffffff8211156136f9576136f9613a78565b5060051b60200190565b600067ffffffffffffffff82111561371d5761371d613a78565b50601f01601f191660200190565b6000821982111561373e5761373e613a20565b500190565b600060ff821660ff84168060ff0382111561376057613760613a20565b019392505050565b60008261377757613777613a36565b600160ff1b82146000198414161561379157613791613a20565b500590565b6000826137a5576137a5613a36565b500490565b600181815b808511156137e55781600019048211156137cb576137cb613a20565b808516156137d857918102915b93841c93908002906137af565b509250929050565b60006123348383613804565b600061233460ff8416835b60008261381357506001610d5a565b8161382057506000610d5a565b816001811461383657600281146138405761385c565b6001915050610d5a565b60ff84111561385157613851613a20565b50506001821b610d5a565b5060208310610133831016604e8410600b841016171561387f575081810a610d5a565b61388983836137aa565b806000190482111561389d5761389d613a20565b029392505050565b60006001600160ff1b03818413828413808216868404861116156138cb576138cb613a20565b600160ff1b60008712828116878305891216156138ea576138ea613a20565b6000871292508782058712848416161561390657613906613a20565b8785058712818416161561391c5761391c613a20565b505050929093029392505050565b600081600019048311821515161561394457613944613a20565b500290565b60008282101561395b5761395b613a20565b500390565b600060ff821660ff84168082101561397a5761397a613a20565b90039392505050565b60005b8381101561399e578181015183820152602001613986565b838111156139ad576000848401525b50505050565b6000816139c2576139c2613a20565b506000190190565b600181811c908216806139de57607f821691505b602082108114156139ff57634e487b7160e01b600052602260045260246000fd5b50919050565b6000600019821415613a1957613a19613a20565b5060010190565b634e487b7160e01b600052601160045260246000fd5b634e487b7160e01b600052601260045260246000fd5b634e487b7160e01b600052602160045260246000fd5b634e487b7160e01b600052603260045260246000fd5b634e487b7160e01b600052604160045260246000fd5b6001600160a01b0381168114612d9e57600080fdfe5472616e73666572204c69717569642045524332302042756467657420417070726f76616c000000000000000000000000eeeeeeeeeeeeeeeeeeeeeeeeeeeeeeeeeeeeeeeea26469706673582212207cefd545640dc91a50d51bc9434caccb0e6b3d8eb721a695785ee8f1f7cd545764736f6c63430008070033",
  "devdoc": {
    "kind": "dev",
    "methods": {
      "constructor": {
        "custom:oz-upgrades-unsafe-allow": "constructor"
      }
    },
    "version": 1
  },
  "userdoc": {
    "kind": "user",
    "methods": {
      "assetBaseCurrencyPrice(address,uint256)": {
        "notice": "This function is imported by other contract, thus cannot be external"
      },
      "canResolvePrice(address)": {
        "notice": "This function is imported by other contract, thus cannot be external"
      }
    },
    "version": 1
  },
  "storageLayout": {
    "storage": [
      {
        "astId": 3115,
        "contract": "contracts/TransferLiquidERC20BudgetApproval.sol:TransferLiquidERC20BudgetApproval",
        "label": "_initialized",
        "offset": 0,
        "slot": "0",
        "type": "t_uint8"
      },
      {
        "astId": 3118,
        "contract": "contracts/TransferLiquidERC20BudgetApproval.sol:TransferLiquidERC20BudgetApproval",
        "label": "_initializing",
        "offset": 1,
        "slot": "0",
        "type": "t_bool"
      },
      {
        "astId": 14723,
        "contract": "contracts/TransferLiquidERC20BudgetApproval.sol:TransferLiquidERC20BudgetApproval",
        "label": "_transactionIds",
        "offset": 0,
        "slot": "1",
        "type": "t_struct(Counter)9699_storage"
      },
      {
        "astId": 14728,
        "contract": "contracts/TransferLiquidERC20BudgetApproval.sol:TransferLiquidERC20BudgetApproval",
        "label": "transactions",
        "offset": 0,
        "slot": "2",
        "type": "t_mapping(t_uint256,t_struct(Transaction)14667_storage)"
      },
      {
        "astId": 14730,
        "contract": "contracts/TransferLiquidERC20BudgetApproval.sol:TransferLiquidERC20BudgetApproval",
        "label": "_executor",
        "offset": 0,
        "slot": "3",
        "type": "t_address"
      },
      {
        "astId": 14732,
        "contract": "contracts/TransferLiquidERC20BudgetApproval.sol:TransferLiquidERC20BudgetApproval",
        "label": "_executorTeamId",
        "offset": 0,
        "slot": "4",
        "type": "t_uint256"
      },
      {
        "astId": 14734,
        "contract": "contracts/TransferLiquidERC20BudgetApproval.sol:TransferLiquidERC20BudgetApproval",
        "label": "_executee",
        "offset": 0,
        "slot": "5",
        "type": "t_address"
      },
      {
        "astId": 14738,
        "contract": "contracts/TransferLiquidERC20BudgetApproval.sol:TransferLiquidERC20BudgetApproval",
        "label": "_approversMapping",
        "offset": 0,
        "slot": "6",
        "type": "t_mapping(t_address,t_bool)"
      },
      {
        "astId": 14740,
        "contract": "contracts/TransferLiquidERC20BudgetApproval.sol:TransferLiquidERC20BudgetApproval",
        "label": "_approverTeamId",
        "offset": 0,
        "slot": "7",
        "type": "t_uint256"
      },
      {
        "astId": 14742,
        "contract": "contracts/TransferLiquidERC20BudgetApproval.sol:TransferLiquidERC20BudgetApproval",
        "label": "_minApproval",
        "offset": 0,
        "slot": "8",
        "type": "t_uint256"
      },
      {
        "astId": 14744,
        "contract": "contracts/TransferLiquidERC20BudgetApproval.sol:TransferLiquidERC20BudgetApproval",
        "label": "_text",
        "offset": 0,
        "slot": "9",
        "type": "t_string_storage"
      },
      {
        "astId": 14746,
        "contract": "contracts/TransferLiquidERC20BudgetApproval.sol:TransferLiquidERC20BudgetApproval",
        "label": "_transactionType",
        "offset": 0,
        "slot": "10",
        "type": "t_string_storage"
      },
      {
        "astId": 14748,
        "contract": "contracts/TransferLiquidERC20BudgetApproval.sol:TransferLiquidERC20BudgetApproval",
        "label": "_allowUnlimitedUsageCount",
        "offset": 0,
        "slot": "11",
        "type": "t_bool"
      },
      {
        "astId": 14750,
        "contract": "contracts/TransferLiquidERC20BudgetApproval.sol:TransferLiquidERC20BudgetApproval",
        "label": "_usageCount",
        "offset": 0,
        "slot": "12",
        "type": "t_uint256"
      },
      {
        "astId": 14752,
        "contract": "contracts/TransferLiquidERC20BudgetApproval.sol:TransferLiquidERC20BudgetApproval",
        "label": "_startTime",
        "offset": 0,
        "slot": "13",
        "type": "t_uint256"
      },
      {
        "astId": 14754,
        "contract": "contracts/TransferLiquidERC20BudgetApproval.sol:TransferLiquidERC20BudgetApproval",
        "label": "_endTime",
        "offset": 0,
        "slot": "14",
        "type": "t_uint256"
      },
      {
        "astId": 14756,
        "contract": "contracts/TransferLiquidERC20BudgetApproval.sol:TransferLiquidERC20BudgetApproval",
        "label": "_team",
        "offset": 0,
        "slot": "15",
        "type": "t_address"
      },
      {
        "astId": 15500,
        "contract": "contracts/TransferLiquidERC20BudgetApproval.sol:TransferLiquidERC20BudgetApproval",
        "label": "__gap",
        "offset": 0,
        "slot": "16",
        "type": "t_array(t_uint256)50_storage"
      },
      {
        "astId": 15513,
        "contract": "contracts/TransferLiquidERC20BudgetApproval.sol:TransferLiquidERC20BudgetApproval",
        "label": "_baseCurrency",
        "offset": 0,
        "slot": "66",
        "type": "t_address"
      },
      {
        "astId": 16137,
        "contract": "contracts/TransferLiquidERC20BudgetApproval.sol:TransferLiquidERC20BudgetApproval",
        "label": "__gap",
        "offset": 0,
        "slot": "67",
        "type": "t_array(t_uint256)50_storage"
      },
      {
        "astId": 11429,
        "contract": "contracts/TransferLiquidERC20BudgetApproval.sol:TransferLiquidERC20BudgetApproval",
        "label": "allowAllAddresses",
        "offset": 0,
        "slot": "117",
        "type": "t_bool"
      },
      {
        "astId": 11433,
        "contract": "contracts/TransferLiquidERC20BudgetApproval.sol:TransferLiquidERC20BudgetApproval",
        "label": "addressesMapping",
        "offset": 0,
        "slot": "118",
        "type": "t_mapping(t_address,t_bool)"
      },
      {
        "astId": 11436,
        "contract": "contracts/TransferLiquidERC20BudgetApproval.sol:TransferLiquidERC20BudgetApproval",
        "label": "tokens",
        "offset": 0,
        "slot": "119",
        "type": "t_array(t_address)dyn_storage"
      },
      {
        "astId": 11440,
        "contract": "contracts/TransferLiquidERC20BudgetApproval.sol:TransferLiquidERC20BudgetApproval",
        "label": "tokensMapping",
        "offset": 0,
        "slot": "120",
        "type": "t_mapping(t_address,t_bool)"
      },
      {
        "astId": 11442,
        "contract": "contracts/TransferLiquidERC20BudgetApproval.sol:TransferLiquidERC20BudgetApproval",
        "label": "allowAnyAmount",
        "offset": 0,
        "slot": "121",
        "type": "t_bool"
      },
      {
        "astId": 11444,
        "contract": "contracts/TransferLiquidERC20BudgetApproval.sol:TransferLiquidERC20BudgetApproval",
        "label": "totalAmount",
        "offset": 0,
        "slot": "122",
        "type": "t_uint256"
      }
    ],
    "types": {
      "t_address": {
        "encoding": "inplace",
        "label": "address",
        "numberOfBytes": "20"
      },
      "t_array(t_address)dyn_storage": {
        "base": "t_address",
        "encoding": "dynamic_array",
        "label": "address[]",
        "numberOfBytes": "32"
      },
      "t_array(t_bytes_storage)dyn_storage": {
        "base": "t_bytes_storage",
        "encoding": "dynamic_array",
        "label": "bytes[]",
        "numberOfBytes": "32"
      },
      "t_array(t_uint256)50_storage": {
        "base": "t_uint256",
        "encoding": "inplace",
        "label": "uint256[50]",
        "numberOfBytes": "1600"
      },
      "t_bool": {
        "encoding": "inplace",
        "label": "bool",
        "numberOfBytes": "1"
      },
      "t_bytes_storage": {
        "encoding": "bytes",
        "label": "bytes",
        "numberOfBytes": "32"
      },
      "t_enum(Status)14648": {
        "encoding": "inplace",
        "label": "enum CommonBudgetApproval.Status",
        "numberOfBytes": "1"
      },
      "t_mapping(t_address,t_bool)": {
        "encoding": "mapping",
        "key": "t_address",
        "label": "mapping(address => bool)",
        "numberOfBytes": "32",
        "value": "t_bool"
      },
      "t_mapping(t_uint256,t_struct(Transaction)14667_storage)": {
        "encoding": "mapping",
        "key": "t_uint256",
        "label": "mapping(uint256 => struct CommonBudgetApproval.Transaction)",
        "numberOfBytes": "32",
        "value": "t_struct(Transaction)14667_storage"
      },
      "t_string_storage": {
        "encoding": "bytes",
        "label": "string",
        "numberOfBytes": "32"
      },
      "t_struct(Counter)9699_storage": {
        "encoding": "inplace",
        "label": "struct Counters.Counter",
        "members": [
          {
            "astId": 9698,
            "contract": "contracts/TransferLiquidERC20BudgetApproval.sol:TransferLiquidERC20BudgetApproval",
            "label": "_value",
            "offset": 0,
            "slot": "0",
            "type": "t_uint256"
          }
        ],
        "numberOfBytes": "32"
      },
      "t_struct(Transaction)14667_storage": {
        "encoding": "inplace",
        "label": "struct CommonBudgetApproval.Transaction",
        "members": [
          {
            "astId": 14650,
            "contract": "contracts/TransferLiquidERC20BudgetApproval.sol:TransferLiquidERC20BudgetApproval",
            "label": "id",
            "offset": 0,
            "slot": "0",
            "type": "t_uint256"
          },
          {
            "astId": 14653,
            "contract": "contracts/TransferLiquidERC20BudgetApproval.sol:TransferLiquidERC20BudgetApproval",
            "label": "data",
            "offset": 0,
            "slot": "1",
            "type": "t_array(t_bytes_storage)dyn_storage"
          },
          {
            "astId": 14656,
            "contract": "contracts/TransferLiquidERC20BudgetApproval.sol:TransferLiquidERC20BudgetApproval",
            "label": "status",
            "offset": 0,
            "slot": "2",
            "type": "t_enum(Status)14648"
          },
          {
            "astId": 14658,
            "contract": "contracts/TransferLiquidERC20BudgetApproval.sol:TransferLiquidERC20BudgetApproval",
            "label": "deadline",
            "offset": 1,
            "slot": "2",
            "type": "t_uint32"
          },
          {
            "astId": 14660,
            "contract": "contracts/TransferLiquidERC20BudgetApproval.sol:TransferLiquidERC20BudgetApproval",
            "label": "isExist",
            "offset": 5,
            "slot": "2",
            "type": "t_bool"
          },
          {
            "astId": 14662,
            "contract": "contracts/TransferLiquidERC20BudgetApproval.sol:TransferLiquidERC20BudgetApproval",
            "label": "approvedCount",
            "offset": 0,
            "slot": "3",
            "type": "t_uint256"
          },
          {
            "astId": 14666,
            "contract": "contracts/TransferLiquidERC20BudgetApproval.sol:TransferLiquidERC20BudgetApproval",
            "label": "approved",
            "offset": 0,
            "slot": "4",
            "type": "t_mapping(t_address,t_bool)"
          }
        ],
        "numberOfBytes": "160"
      },
      "t_uint256": {
        "encoding": "inplace",
        "label": "uint256",
        "numberOfBytes": "32"
      },
      "t_uint32": {
        "encoding": "inplace",
        "label": "uint32",
        "numberOfBytes": "4"
      },
      "t_uint8": {
        "encoding": "inplace",
        "label": "uint8",
        "numberOfBytes": "1"
      }
    }
  }
}