{
  "address": "0xFA56E00F4fA63E84C1feeE5FbB1f6990BEF9054d",
  "abi": [
    {
      "inputs": [],
      "stateMutability": "nonpayable",
      "type": "constructor"
    },
    {
      "anonymous": false,
      "inputs": [
        {
          "indexed": false,
          "internalType": "address",
          "name": "target",
          "type": "address"
        }
      ],
      "name": "AllowAddress",
      "type": "event"
    },
    {
      "anonymous": false,
      "inputs": [
        {
          "indexed": false,
          "internalType": "uint256",
          "name": "amount",
          "type": "uint256"
        }
      ],
      "name": "AllowAmount",
      "type": "event"
    },
    {
      "anonymous": false,
      "inputs": [
        {
          "indexed": false,
          "internalType": "address",
          "name": "token",
          "type": "address"
        }
      ],
      "name": "AllowToken",
      "type": "event"
    },
    {
      "anonymous": false,
      "inputs": [
        {
          "indexed": true,
          "internalType": "uint256",
          "name": "id",
          "type": "uint256"
        },
        {
          "indexed": false,
          "internalType": "address",
          "name": "approver",
          "type": "address"
        },
        {
          "indexed": false,
          "internalType": "string",
          "name": "comment",
          "type": "string"
        }
      ],
      "name": "ApproveTransaction",
      "type": "event"
    },
    {
      "anonymous": false,
      "inputs": [
        {
          "indexed": true,
          "internalType": "uint256",
          "name": "id",
          "type": "uint256"
        },
        {
          "indexed": false,
          "internalType": "bytes[]",
          "name": "data",
          "type": "bytes[]"
        },
        {
          "indexed": false,
          "internalType": "uint256",
          "name": "deadline",
          "type": "uint256"
        },
        {
          "indexed": false,
          "internalType": "enum CommonBudgetApproval.Status",
          "name": "status",
          "type": "uint8"
        },
        {
          "indexed": false,
          "internalType": "string",
          "name": "comment",
          "type": "string"
        },
        {
          "indexed": false,
          "internalType": "address",
          "name": "creator",
          "type": "address"
        }
      ],
      "name": "CreateTransaction",
      "type": "event"
    },
    {
      "anonymous": false,
      "inputs": [
        {
          "indexed": true,
          "internalType": "uint256",
          "name": "id",
          "type": "uint256"
        },
        {
          "indexed": false,
          "internalType": "bytes[]",
          "name": "data",
          "type": "bytes[]"
        },
        {
          "indexed": false,
          "internalType": "address",
          "name": "_executor",
          "type": "address"
        }
      ],
      "name": "ExecuteTransaction",
      "type": "event"
    },
    {
      "anonymous": false,
      "inputs": [
        {
          "indexed": true,
          "internalType": "uint256",
          "name": "id",
          "type": "uint256"
        },
        {
          "indexed": true,
          "internalType": "address",
          "name": "executor",
          "type": "address"
        },
        {
          "indexed": true,
          "internalType": "address",
          "name": "toAddress",
          "type": "address"
        },
        {
          "indexed": false,
          "internalType": "address",
          "name": "token",
          "type": "address"
        },
        {
          "indexed": false,
          "internalType": "uint256",
          "name": "amount",
          "type": "uint256"
        }
      ],
      "name": "ExecuteVestingERC20Transaction",
      "type": "event"
    },
    {
      "anonymous": false,
      "inputs": [
        {
          "indexed": false,
          "internalType": "uint8",
          "name": "version",
          "type": "uint8"
        }
      ],
      "name": "Initialized",
      "type": "event"
    },
    {
      "anonymous": false,
      "inputs": [
        {
          "indexed": true,
          "internalType": "uint256",
          "name": "id",
          "type": "uint256"
        }
      ],
      "name": "RevokeTransaction",
      "type": "event"
    },
    {
      "anonymous": false,
      "inputs": [
        {
          "indexed": false,
          "internalType": "address",
          "name": "approver",
          "type": "address"
        }
      ],
      "name": "SetApprover",
      "type": "event"
    },
    {
      "inputs": [],
      "name": "afterInitialized",
      "outputs": [],
      "stateMutability": "nonpayable",
      "type": "function"
    },
    {
      "inputs": [],
      "name": "allowUnlimitedUsageCount",
      "outputs": [
        {
          "internalType": "bool",
          "name": "",
          "type": "bool"
        }
      ],
      "stateMutability": "view",
      "type": "function"
    },
    {
      "inputs": [
        {
          "internalType": "uint256",
          "name": "id",
          "type": "uint256"
        },
        {
          "internalType": "string",
          "name": "comment",
          "type": "string"
        }
      ],
      "name": "approveTransaction",
      "outputs": [],
      "stateMutability": "nonpayable",
      "type": "function"
    },
    {
      "inputs": [],
      "name": "approverTeamId",
      "outputs": [
        {
          "internalType": "uint256",
          "name": "",
          "type": "uint256"
        }
      ],
      "stateMutability": "view",
      "type": "function"
    },
    {
      "inputs": [
        {
          "internalType": "address",
          "name": "eoa",
          "type": "address"
        }
      ],
      "name": "approversMapping",
      "outputs": [
        {
          "internalType": "bool",
          "name": "",
          "type": "bool"
        }
      ],
      "stateMutability": "view",
      "type": "function"
    },
    {
      "inputs": [],
      "name": "cliffPeriod",
      "outputs": [
        {
          "internalType": "uint256",
          "name": "",
          "type": "uint256"
        }
      ],
      "stateMutability": "view",
      "type": "function"
    },
    {
      "inputs": [
        {
          "internalType": "bytes[]",
          "name": "_data",
          "type": "bytes[]"
        },
        {
          "internalType": "uint32",
          "name": "_deadline",
          "type": "uint32"
        },
        {
          "internalType": "bool",
          "name": "_isExecute",
          "type": "bool"
        },
        {
          "internalType": "string",
          "name": "comment",
          "type": "string"
        }
      ],
      "name": "createTransaction",
      "outputs": [
        {
          "internalType": "uint256",
          "name": "",
          "type": "uint256"
        }
      ],
      "stateMutability": "payable",
      "type": "function"
    },
    {
      "inputs": [],
      "name": "currentReleasableAmount",
      "outputs": [
        {
          "internalType": "uint256",
          "name": "",
          "type": "uint256"
        }
      ],
      "stateMutability": "view",
      "type": "function"
    },
    {
      "inputs": [],
      "name": "cycleCount",
      "outputs": [
        {
          "internalType": "uint256",
          "name": "",
          "type": "uint256"
        }
      ],
      "stateMutability": "view",
      "type": "function"
    },
    {
      "inputs": [],
      "name": "cyclePeriod",
      "outputs": [
        {
          "internalType": "uint256",
          "name": "",
          "type": "uint256"
        }
      ],
      "stateMutability": "view",
      "type": "function"
    },
    {
      "inputs": [],
      "name": "cycleTokenAmount",
      "outputs": [
        {
          "internalType": "uint256",
          "name": "",
          "type": "uint256"
        }
      ],
      "stateMutability": "view",
      "type": "function"
    },
    {
      "inputs": [],
      "name": "endTime",
      "outputs": [
        {
          "internalType": "uint256",
          "name": "",
          "type": "uint256"
        }
      ],
      "stateMutability": "view",
      "type": "function"
    },
    {
      "inputs": [],
      "name": "executeParams",
      "outputs": [
        {
          "internalType": "string[]",
          "name": "",
          "type": "string[]"
        }
      ],
      "stateMutability": "pure",
      "type": "function"
    },
    {
      "inputs": [
        {
          "internalType": "uint256",
          "name": "id",
          "type": "uint256"
        }
      ],
      "name": "executeTransaction",
      "outputs": [],
      "stateMutability": "payable",
      "type": "function"
    },
    {
      "inputs": [],
      "name": "executee",
      "outputs": [
        {
          "internalType": "address",
          "name": "",
          "type": "address"
        }
      ],
      "stateMutability": "view",
      "type": "function"
    },
    {
      "inputs": [],
      "name": "executor",
      "outputs": [
        {
          "internalType": "address",
          "name": "",
          "type": "address"
        }
      ],
      "stateMutability": "view",
      "type": "function"
    },
    {
      "inputs": [],
      "name": "executorTeamId",
      "outputs": [
        {
          "internalType": "uint256",
          "name": "",
          "type": "uint256"
        }
      ],
      "stateMutability": "view",
      "type": "function"
    },
    {
      "inputs": [],
      "name": "initTokenAmount",
      "outputs": [
        {
          "internalType": "uint256",
          "name": "",
          "type": "uint256"
        }
      ],
      "stateMutability": "view",
      "type": "function"
    },
    {
      "inputs": [
        {
          "components": [
            {
              "internalType": "address",
              "name": "executor",
              "type": "address"
            },
            {
              "internalType": "uint256",
              "name": "executorTeamId",
              "type": "uint256"
            },
            {
              "internalType": "address[]",
              "name": "approvers",
              "type": "address[]"
            },
            {
              "internalType": "uint256",
              "name": "approverTeamId",
              "type": "uint256"
            },
            {
              "internalType": "uint256",
              "name": "minApproval",
              "type": "uint256"
            },
            {
              "internalType": "string",
              "name": "text",
              "type": "string"
            },
            {
              "internalType": "string",
              "name": "transactionType",
              "type": "string"
            },
            {
              "internalType": "uint256",
              "name": "startTime",
              "type": "uint256"
            },
            {
              "internalType": "uint256",
              "name": "endTime",
              "type": "uint256"
            },
            {
              "internalType": "bool",
              "name": "allowUnlimitedUsageCount",
              "type": "bool"
            },
            {
              "internalType": "uint256",
              "name": "usageCount",
              "type": "uint256"
            },
            {
              "internalType": "address",
              "name": "team",
              "type": "address"
            }
          ],
          "internalType": "struct CommonBudgetApproval.InitializeParams",
          "name": "params",
          "type": "tuple"
        },
        {
          "internalType": "address",
          "name": "_token",
          "type": "address"
        },
        {
          "internalType": "address",
          "name": "_toAddress",
          "type": "address"
        },
        {
          "internalType": "uint256",
          "name": "_cliffPeriod",
          "type": "uint256"
        },
        {
          "internalType": "uint256",
          "name": "_cyclePeriod",
          "type": "uint256"
        },
        {
          "internalType": "uint256",
          "name": "_cycleCount",
          "type": "uint256"
        },
        {
          "internalType": "uint256",
          "name": "_cycleTokenAmount",
          "type": "uint256"
        },
        {
          "internalType": "uint256",
          "name": "_initTokenAmount",
          "type": "uint256"
        }
      ],
      "name": "initialize",
      "outputs": [],
      "stateMutability": "nonpayable",
      "type": "function"
    },
    {
      "inputs": [],
      "name": "isCliffPassed",
      "outputs": [
        {
          "internalType": "bool",
          "name": "",
          "type": "bool"
        }
      ],
      "stateMutability": "view",
      "type": "function"
    },
    {
      "inputs": [],
      "name": "minApproval",
      "outputs": [
        {
          "internalType": "uint256",
          "name": "",
          "type": "uint256"
        }
      ],
      "stateMutability": "view",
      "type": "function"
    },
    {
      "inputs": [],
      "name": "name",
      "outputs": [
        {
          "internalType": "string",
          "name": "",
          "type": "string"
        }
      ],
      "stateMutability": "view",
      "type": "function"
    },
    {
      "inputs": [],
      "name": "releasedAmount",
      "outputs": [
        {
          "internalType": "uint256",
          "name": "",
          "type": "uint256"
        }
      ],
      "stateMutability": "view",
      "type": "function"
    },
    {
      "inputs": [],
      "name": "remainingAmount",
      "outputs": [
        {
          "internalType": "uint256",
          "name": "",
          "type": "uint256"
        }
      ],
      "stateMutability": "view",
      "type": "function"
    },
    {
      "inputs": [
        {
          "internalType": "uint256",
          "name": "id",
          "type": "uint256"
        }
      ],
      "name": "revokeTransaction",
      "outputs": [],
      "stateMutability": "nonpayable",
      "type": "function"
    },
    {
      "inputs": [],
      "name": "startTime",
      "outputs": [
        {
          "internalType": "uint256",
          "name": "",
          "type": "uint256"
        }
      ],
      "stateMutability": "view",
      "type": "function"
    },
    {
      "inputs": [],
      "name": "team",
      "outputs": [
        {
          "internalType": "address",
          "name": "",
          "type": "address"
        }
      ],
      "stateMutability": "view",
      "type": "function"
    },
    {
      "inputs": [],
      "name": "text",
      "outputs": [
        {
          "internalType": "string",
          "name": "",
          "type": "string"
        }
      ],
      "stateMutability": "view",
      "type": "function"
    },
    {
      "inputs": [],
      "name": "toAddress",
      "outputs": [
        {
          "internalType": "address",
          "name": "",
          "type": "address"
        }
      ],
      "stateMutability": "view",
      "type": "function"
    },
    {
      "inputs": [],
      "name": "token",
      "outputs": [
        {
          "internalType": "address",
          "name": "",
          "type": "address"
        }
      ],
      "stateMutability": "view",
      "type": "function"
    },
    {
      "inputs": [],
      "name": "totalAmount",
      "outputs": [
        {
          "internalType": "uint256",
          "name": "",
          "type": "uint256"
        }
      ],
      "stateMutability": "view",
      "type": "function"
    },
    {
      "inputs": [],
      "name": "transactionType",
      "outputs": [
        {
          "internalType": "string",
          "name": "",
          "type": "string"
        }
      ],
      "stateMutability": "view",
      "type": "function"
    },
    {
      "inputs": [
        {
          "internalType": "uint256",
          "name": "",
          "type": "uint256"
        }
      ],
      "name": "transactions",
      "outputs": [
        {
          "internalType": "uint256",
          "name": "id",
          "type": "uint256"
        },
        {
          "internalType": "enum CommonBudgetApproval.Status",
          "name": "status",
          "type": "uint8"
        },
        {
          "internalType": "uint32",
          "name": "deadline",
          "type": "uint32"
        },
        {
          "internalType": "bool",
          "name": "isExist",
          "type": "bool"
        },
        {
          "internalType": "uint256",
          "name": "approvedCount",
          "type": "uint256"
        }
      ],
      "stateMutability": "view",
      "type": "function"
    },
    {
      "inputs": [],
      "name": "usageCount",
      "outputs": [
        {
          "internalType": "uint256",
          "name": "",
          "type": "uint256"
        }
      ],
      "stateMutability": "view",
      "type": "function"
    }
  ],
  "transactionHash": "0x38a755b0c190f86af2c7ad7913e8c1405cde7bc129fe754e9482634f02ee0b5f",
  "args": [],
  "numDeployments": 1,
  "solcInputHash": "4968d3680f1be561b23e815574528926",
  "bytecode": "0x60806040523480156200001157600080fd5b506200001c6200002c565b620000266200002c565b620000ee565b600054610100900460ff1615620000995760405162461bcd60e51b815260206004820152602760248201527f496e697469616c697a61626c653a20636f6e747261637420697320696e697469604482015266616c697a696e6760c81b606482015260840160405180910390fd5b60005460ff9081161015620000ec576000805460ff191660ff9081179091556040519081527f7f26b83ff96e1f2b6a682f133852f6798a09c465da95921460cefb38474024989060200160405180910390a15b565b6124ce80620000fe6000396000f3fe6080604052600436106101f95760003560e01c806378e979251161010d578063c34c08e5116100a0578063de755e2f1161006f578063de755e2f1461059a578063ee22610b146105af578063f5c03852146105c2578063fb9db4f7146105e0578063fc0c546a1461060057600080fd5b8063c34c08e51461053c578063ce9329191461055a578063cf26fec614610570578063d96c91961461058557600080fd5b806397c85a61116100dc57806397c85a61146104855780639ace38c2146104a5578063a50a1fe614610511578063a7ccc0ed1461052657600080fd5b806378e97925146104275780637cd47d931461043c57806385f2aef214610451578063905562641461046f57600080fd5b80632f6619461161019057806345d30a171161015f57806345d30a171461038a57806350bd881f1461039f5780635ad32502146103b45780636bdebe5e146103cc578063735631ad1461040557600080fd5b80632f66194614610327578063316fda0f1461033d5780633197cbb61461035357806331a7bdd91461036857600080fd5b80631a39d8ef116101cc5780631a39d8ef146102c35780631f1bd692146102d8578063212b1033146102ed5780632eaaecd81461031257600080fd5b806303ff90f6146101fe57806306fdde031461022257806314b893f91461027857806319c87f1f1461028b575b600080fd5b34801561020a57600080fd5b506008545b6040519081526020015b60405180910390f35b34801561022e57600080fd5b5061026b6040518060400160405280601d81526020017f56657374696e672045524332302042756467657420417070726f76616c00000081525081565b60405161021991906121be565b61020f610286366004611caf565b610620565b34801561029757600080fd5b506011546102ab906001600160a01b031681565b6040516001600160a01b039091168152602001610219565b3480156102cf57600080fd5b5061020f61076f565b3480156102e457600080fd5b5061026b610793565b3480156102f957600080fd5b50610302610825565b6040519015158152602001610219565b34801561031e57600080fd5b5061020f610844565b34801561033357600080fd5b5061020f60125481565b34801561034957600080fd5b5061020f60145481565b34801561035f57600080fd5b50600e5461020f565b34801561037457600080fd5b5061037d6108cf565b604051610219919061215c565b34801561039657600080fd5b5060175461020f565b3480156103ab57600080fd5b50600c5461020f565b3480156103c057600080fd5b50600b5460ff16610302565b3480156103d857600080fd5b506103026103e7366004611c8d565b6001600160a01b031660009081526006602052604090205460ff1690565b34801561041157600080fd5b50610425610420366004611f31565b61094b565b005b34801561043357600080fd5b50600d5461020f565b34801561044857600080fd5b5061026b610a8d565b34801561045d57600080fd5b50600f546001600160a01b03166102ab565b34801561047b57600080fd5b5061020f60155481565b34801561049157600080fd5b506104256104a0366004611f63565b610a9c565b3480156104b157600080fd5b506105006104c0366004611f31565b600260208190526000918252604090912080549181015460039091015460ff8083169263ffffffff61010082041692650100000000009091049091169085565b604051610219959493929190612213565b34801561051d57600080fd5b5061020f610d13565b34801561053257600080fd5b5061020f60165481565b34801561054857600080fd5b506003546001600160a01b03166102ab565b34801561056657600080fd5b5061020f60135481565b34801561057c57600080fd5b50610425610d30565b34801561059157600080fd5b5060075461020f565b3480156105a657600080fd5b5060045461020f565b6104256105bd366004611f31565b610d97565b3480156105ce57600080fd5b506005546001600160a01b03166102ab565b3480156105ec57600080fd5b506104256105fb366004611e9f565b61116b565b34801561060c57600080fd5b506010546102ab906001600160a01b031681565b600061062b33611439565b6106505760405162461bcd60e51b8152600401610647906121d1565b60405180910390fd5b61065e600180546001019055565b600061066960015490565b6000818152600260209081526040909120828155895192935091610695916001840191908b0190611a44565b506002810180546501000000000065ffffffffff001990911661010063ffffffff8b160265ff00000000001916171790556008546106ef57600082815260026020819052604090912001805460ff1916600117905561070a565b600082815260026020819052604090912001805460ff191690555b600281015460405183917f8a5186dbaf6f344b2837e11834be94edebb633f05034f422c6b1fe1595b4d0cc9161074d918c918c9160ff16908b908b903390612101565b60405180910390a285156107645761076482610d97565b509695505050505050565b6000601454601554610781919061236d565b60165461078e9190612333565b905090565b6060600980546107a2906123ea565b80601f01602080910402602001604051908101604052809291908181526020018280546107ce906123ea565b801561081b5780601f106107f05761010080835404028352916020019161081b565b820191906000526020600020905b8154815290600101906020018083116107fe57829003601f168201915b5050505050905090565b6000601254610833600d5490565b61083d9190612333565b4211905090565b600061084e610825565b6108585750600090565b60135461086f5760175460165461078e919061238c565b600060135461087d600d5490565b610887904261238c565b610891919061234b565b90506014548111156108a257506014545b6017546015546108b2908361236d565b6016546108bf9190612333565b6108c9919061238c565b91505090565b60408051600180825281830190925260609160009190816020015b60608152602001906001900390816108ea5790505090506040518060400160405280600e81526020016d1d5a5b9d0c8d4d88185b5bdd5b9d60921b8152508160008151811061093b5761093b61246c565b6020908102919091010152919050565b61095433611439565b6109705760405162461bcd60e51b8152600401610647906121d1565b8061097a60015490565b10156109c05760405162461bcd60e51b8152602060048201526015602482015274125b9d985a5b1908151c985b9cd858dd1a5bdb9259605a1b6044820152606401610647565b60026000828152600260208190526040909120015460ff1660038111156109e9576109e9612456565b1415610a455760405162461bcd60e51b815260206004820152602560248201527f5472616e73616374696f6e20686173206265656e20636f6d706c65746564206260448201526465666f726560d81b6064820152608401610647565b6000818152600260208190526040808320909101805460ff191660031790555182917f92a917be073b79ab50f9d997e9514a5d101e052ce04228014947e7883a7c034691a250565b6060600a80546107a2906123ea565b610aa533611516565b610afc5760405162461bcd60e51b815260206004820152602260248201527f417070726f766572206e6f742077686974656c697374656420696e2062756467604482015261195d60f21b6064820152608401610647565b82610b0660015490565b1015610b4c5760405162461bcd60e51b8152602060048201526015602482015274125b9d985a5b1908151c985b9cd858dd1a5bdb9259605a1b6044820152606401610647565b600083815260026020819052604082209081015460039091015460ff9091169190610b78906001612333565b90506000826003811115610b8e57610b8e612456565b1480610bab57506001826003811115610ba957610ba9612456565b145b610bf75760405162461bcd60e51b815260206004820152601d60248201527f556e6578706563746564207472616e73616374696f6e207374617475730000006044820152606401610647565b600085815260026020908152604080832033845260040190915290205460ff1615610c705760405162461bcd60e51b8152602060048201526024808201527f5472616e73616374696f6e20686173206265656e20617070726f766564206265604482015263666f726560e01b6064820152608401610647565b6000858152600260208181526040808420338552600481018352908420805460ff191660011790559288905252600301819055610cac60085490565b8110610cd057600085815260026020819052604090912001805460ff191660011790555b847f3399030f87676a97e30e211a48f9c46e2ff806d0b4cedf7100782f08c52902c9338686604051610d04939291906120b2565b60405180910390a25050505050565b6000610d1e60175490565b610d2661076f565b61078e919061238c565b6005546001600160a01b03163314610d955760405162461bcd60e51b815260206004820152602260248201527f4578656375746565206e6f742077686974656c697374656420696e2062756467604482015261195d60f21b6064820152608401610647565b565b806001806000838152600260208190526040909120015460ff166003811115610dc257610dc2612456565b14610e0f5760405162461bcd60e51b815260206004820152601a60248201527f5472616e73616374696f6e2073746174757320696e76616c69640000000000006044820152606401610647565b600083815260026020819052604090912001548390610100900463ffffffff16421115610e745760405162461bcd60e51b8152602060048201526013602482015272151c985b9cd858dd1a5bdb88195e1c1a5c9959606a1b6044820152606401610647565b600d54421015610ec65760405162461bcd60e51b815260206004820152601f60248201527f42756467657420757361676520706572696f64206e6f742073746172746564006044820152606401610647565b6000610ed1600e5490565b90508015610f2857804210610f285760405162461bcd60e51b815260206004820152601d60248201527f42756467657420757361676520706572696f642068617320656e6465640000006044820152606401610647565b610f3133611439565b610f4d5760405162461bcd60e51b8152600401610647906121d1565b6000610f5b600b5460ff1690565b90506000610f68600c5490565b9050600060026000898152602001908152602001600020600101805480602002602001604051908101604052809291908181526020016000905b8282101561104e578382906000526020600020018054610fc1906123ea565b80601f0160208091040260200160405190810160405280929190818152602001828054610fed906123ea565b801561103a5780601f1061100f5761010080835404028352916020019161103a565b820191906000526020600020905b81548152906001019060200180831161101d57829003601f168201915b505050505081526020019060010190610fa2565b50505050905060005b815181101561110057838061106c5750600083115b6110b85760405162461bcd60e51b815260206004820152601b60248201527f457863656564656420627564676574207573616765206c696d697400000000006044820152606401610647565b836110cb57826110c7816123d3565b9350505b6110ee898383815181106110e1576110e161246c565b6020026020010151611563565b806110f881612425565b915050611057565b50600c82905560008881526002602081905260409091208101805460ff19166001830217905550877f9060adf413860c5ab6e376e0aa4269e49a13f0853edb1583fce8129d4c756d7982336040516111599291906120d7565b60405180910390a25050505050505050565b600054610100900460ff161580801561118b5750600054600160ff909116105b806111a55750303b1580156111a5575060005460ff166001145b6112085760405162461bcd60e51b815260206004820152602e60248201527f496e697469616c697a61626c653a20636f6e747261637420697320616c72656160448201526d191e481a5b9a5d1a585b1a5e995960921b6064820152608401610647565b6000805460ff19166001179055801561122b576000805461ff0019166101001790555b61123489611776565b601080546001600160a01b03808b166001600160a01b03199283161790925560118054928a1692909116919091179055601286905560138590556014849055601583905560168290556000601755831561130e57600060155411801561129c57506000601354115b61130e5760405162461bcd60e51b815260206004820152603a60248201527f4379636c6520746f6b656e20616d6f756e7420616e64204379636c652070657260448201527f696f64206d757374206265206c617261676572207468616e20300000000000006064820152608401610647565b601254601454601354611321919061236d565b10156113855760405162461bcd60e51b815260206004820152602d60248201527f56657374696e6720706572696f64206d757374206265206c6f6e67207468616e60448201526c0810db1a59998814195c9a5bd9609a1b6064820152608401610647565b600061138f61076f565b116113e85760405162461bcd60e51b8152602060048201526024808201527f56657374696e6720616d6f756e74206d757374206265206c61726765722074686044820152630616e20360e41b6064820152608401610647565b801561142e576000805461ff0019169055604051600181527f7f26b83ff96e1f2b6a682f133852f6798a09c465da95921460cefb38474024989060200160405180910390a15b505050505050505050565b600061144d6003546001600160a01b031690565b6001600160a01b0316826001600160a01b031614806115105750600061147b600f546001600160a01b031690565b6001600160a01b031662fdd58e8461149260045490565b6040516001600160e01b031960e085901b1681526001600160a01b039092166004830152602482015260440160206040518083038186803b1580156114d657600080fd5b505afa1580156114ea573d6000803e3d6000fd5b505050506040513d601f19601f8201168201806040525081019061150e9190611f4a565b115b92915050565b6001600160a01b03811660009081526006602052604081205460ff16806115105750600061154c600f546001600160a01b031690565b6001600160a01b031662fdd58e8461149260075490565b6000818060200190518101906115799190611f4a565b601154604080516001600160a01b039283166024820152604480820185905282518083039091018152606490910182526020810180516001600160e01b031663a9059cbb60e01b179052601754600554601054935163d3abc28b60e01b8152959650919490939182169263d3abc28b926115fd92911690869060009060040161207e565b600060405180830381600087803b15801561161757600080fd5b505af115801561162b573d6000803e3d6000fd5b505050506040513d6000823e601f3d908101601f191682016040526116539190810190611e28565b5061165c610825565b6116a85760405162461bcd60e51b815260206004820152601760248201527f436c69666620506572696f64206e6f74207061737365640000000000000000006044820152606401610647565b6116b0610844565b8311156117105760405162461bcd60e51b815260206004820152602860248201527f45786365656465642063757272656e742072656c65617361626c6520746f6b656044820152671b88185b5bdd5b9d60c21b6064820152608401610647565b61171a8382612333565b601755601154601054604080516001600160a01b039283168152602081018790529190921691339188917f73f0fa8ea7077ea3457c220370d1eb9a4da896c2fe4021067b7c99c5073cf268910160405180910390a45050505050565b600054610100900460ff166117e15760405162461bcd60e51b815260206004820152602b60248201527f496e697469616c697a61626c653a20636f6e7472616374206973206e6f74206960448201526a6e697469616c697a696e6760a81b6064820152608401610647565b60008160600135118061180657506117fc6040820182612249565b9050816080013511155b61184a5760405162461bcd60e51b8152602060048201526015602482015274125b9d985b1a5908185c1c1c9bdd995c881b1a5cdd605a1b6044820152606401610647565b600580546001600160a01b031916331790556118696020820182611c8d565b600380546001600160a01b0319166001600160a01b039290921691909117905561189660a0820182612293565b6118a291600991611aa1565b506118b060c0820182612293565b6118bc91600a91611aa1565b50608081013560085560e0810135600d55610100810135600e556118e861014082016101208301611e0d565b600b805460ff1916911515919091179055610140810135600c5561191461018082016101608301611c8d565b600f80546001600160a01b0319166001600160a01b03929092169190911790556020810135600455606081013560075560005b6119546040830183612249565b9050811015611a40576001600660006119706040860186612249565b858181106119805761198061246c565b90506020020160208101906119959190611c8d565b6001600160a01b0316815260208101919091526040908101600020805460ff1916921515929092179091557f4664777dbfbcb27de0f602e1da5d5a259992cd7edf5b29192929c96e8fd50def906119ee90840184612249565b838181106119fe576119fe61246c565b9050602002016020810190611a139190611c8d565b6040516001600160a01b03909116815260200160405180910390a180611a3881612425565b915050611947565b5050565b828054828255906000526020600020908101928215611a91579160200282015b82811115611a915782518051611a81918491602090910190611b21565b5091602001919060010190611a64565b50611a9d929150611b95565b5090565b828054611aad906123ea565b90600052602060002090601f016020900481019282611acf5760008555611b15565b82601f10611ae85782800160ff19823516178555611b15565b82800160010185558215611b15579182015b82811115611b15578235825591602001919060010190611afa565b50611a9d929150611bb2565b828054611b2d906123ea565b90600052602060002090601f016020900481019282611b4f5760008555611b15565b82601f10611b6857805160ff1916838001178555611b15565b82800160010185558215611b15579182015b82811115611b15578251825591602001919060010190611b7a565b80821115611a9d576000611ba98282611bc7565b50600101611b95565b5b80821115611a9d5760008155600101611bb3565b508054611bd3906123ea565b6000825580601f10611be3575050565b601f016020900490600052602060002090810190611c019190611bb2565b50565b80356001600160a01b0381168114611c1b57600080fd5b919050565b80358015158114611c1b57600080fd5b60008083601f840112611c4257600080fd5b50813567ffffffffffffffff811115611c5a57600080fd5b602083019150836020828501011115611c7257600080fd5b9250929050565b803563ffffffff81168114611c1b57600080fd5b600060208284031215611c9f57600080fd5b611ca882611c04565b9392505050565b600080600080600060808688031215611cc757600080fd5b67ffffffffffffffff8087351115611cde57600080fd5b8635870188601f820112611cf157600080fd5b8181351115611d0257611d02612482565b611d126020823560051b016122da565b8082358252602082019150602083018b6020853560051b8601011115611d3757600080fd5b60005b8435811015611db7578582351115611d5157600080fd5b813585018d603f820112611d6457600080fd5b6020810135611d7a611d758261230b565b6122da565b8181528f6040838501011115611d8f57600080fd5b8160408401602083013760006020928201830152865294850194929092019150600101611d3a565b5050809850505050611dcb60208801611c79565b9450611dd960408801611c20565b93508060608801351115611dec57600080fd5b50611dfd8760608801358801611c30565b9598949750929550919392915050565b600060208284031215611e1f57600080fd5b611ca882611c20565b600060208284031215611e3a57600080fd5b815167ffffffffffffffff811115611e5157600080fd5b8201601f81018413611e6257600080fd5b8051611e70611d758261230b565b818152856020838501011115611e8557600080fd5b611e968260208301602086016123a3565b95945050505050565b600080600080600080600080610100898b031215611ebc57600080fd5b883567ffffffffffffffff811115611ed357600080fd5b8901610180818c031215611ee657600080fd5b9750611ef460208a01611c04565b9650611f0260408a01611c04565b979a96995096976060810135975060808101359660a0820135965060c0820135955060e0909101359350915050565b600060208284031215611f4357600080fd5b5035919050565b600060208284031215611f5c57600080fd5b5051919050565b600080600060408486031215611f7857600080fd5b83359250602084013567ffffffffffffffff811115611f9657600080fd5b611fa286828701611c30565b9497909650939450505050565b600082825180855260208086019550808260051b84010181860160005b84811015611ffa57601f19868403018952611fe8838351612007565b98840198925090830190600101611fcc565b5090979650505050505050565b6000815180845261201f8160208601602086016123a3565b601f01601f19169290920160200192915050565b6004811061205157634e487b7160e01b600052602160045260246000fd5b9052565b81835281816020850137506000828201602090810191909152601f909101601f19169091010190565b6001600160a01b03841681526060602082018190526000906120a290830185612007565b9050826040830152949350505050565b6001600160a01b0384168152604060208201819052600090611e969083018486612055565b6040815260006120ea6040830185611faf565b905060018060a01b03831660208301529392505050565b60a08152600061211460a0830189611faf565b63ffffffff8816602084015261212d6040840188612033565b8281036060840152612140818688612055565b91505060018060a01b0383166080830152979650505050505050565b6000602080830181845280855180835260408601915060408160051b870101925083870160005b828110156121b157603f1988860301845261219f858351612007565b94509285019290850190600101612183565b5092979650505050505050565b602081526000611ca86020830184612007565b60208082526022908201527f4578656375746f72206e6f742077686974656c697374656420696e2062756467604082015261195d60f21b606082015260800190565b85815260a081016122276020830187612033565b63ffffffff949094166040820152911515606083015260809091015292915050565b6000808335601e1984360301811261226057600080fd5b83018035915067ffffffffffffffff82111561227b57600080fd5b6020019150600581901b3603821315611c7257600080fd5b6000808335601e198436030181126122aa57600080fd5b83018035915067ffffffffffffffff8211156122c557600080fd5b602001915036819003821315611c7257600080fd5b604051601f8201601f1916810167ffffffffffffffff8111828210171561230357612303612482565b604052919050565b600067ffffffffffffffff82111561232557612325612482565b50601f01601f191660200190565b6000821982111561234657612346612440565b500190565b60008261236857634e487b7160e01b600052601260045260246000fd5b500490565b600081600019048311821515161561238757612387612440565b500290565b60008282101561239e5761239e612440565b500390565b60005b838110156123be5781810151838201526020016123a6565b838111156123cd576000848401525b50505050565b6000816123e2576123e2612440565b506000190190565b600181811c908216806123fe57607f821691505b6020821081141561241f57634e487b7160e01b600052602260045260246000fd5b50919050565b600060001982141561243957612439612440565b5060010190565b634e487b7160e01b600052601160045260246000fd5b634e487b7160e01b600052602160045260246000fd5b634e487b7160e01b600052603260045260246000fd5b634e487b7160e01b600052604160045260246000fdfea2646970667358221220c66b0075f8e354b2492fa6fcdde9cf77b3772b03d00bd700be06891195b5f45d64736f6c63430008070033",
  "devdoc": {
    "kind": "dev",
    "methods": {
      "constructor": {
        "custom:oz-upgrades-unsafe-allow": "constructor"
      },
      "currentReleasableAmount()": {
        "details": "Returns the current releasable token amount of the vesting"
      },
      "isCliffPassed()": {
        "details": "Returns whether the cliff period has passed"
      },
      "releasedAmount()": {
        "details": "Returns the amount of tokens that has been released to the beneficial address."
      },
      "remainingAmount()": {
        "details": "Returns the remaining token amount of the overall vesting"
      },
      "totalAmount()": {
        "details": "Returns the total amount of tokens that will be released over the entire vesting period."
      }
    },
    "version": 1
  },
  "userdoc": {
    "kind": "user",
    "methods": {},
    "version": 1
  },
  "storageLayout": {
    "storage": [
      {
        "astId": 3247,
        "contract": "contracts/VestingERC20BudgetApproval.sol:VestingERC20BudgetApproval",
        "label": "_initialized",
        "offset": 0,
        "slot": "0",
        "type": "t_uint8"
      },
      {
        "astId": 3250,
        "contract": "contracts/VestingERC20BudgetApproval.sol:VestingERC20BudgetApproval",
        "label": "_initializing",
        "offset": 1,
        "slot": "0",
        "type": "t_bool"
      },
      {
        "astId": 30051,
        "contract": "contracts/VestingERC20BudgetApproval.sol:VestingERC20BudgetApproval",
        "label": "_transactionIds",
        "offset": 0,
        "slot": "1",
        "type": "t_struct(Counter)17310_storage"
      },
      {
        "astId": 30056,
        "contract": "contracts/VestingERC20BudgetApproval.sol:VestingERC20BudgetApproval",
        "label": "transactions",
        "offset": 0,
        "slot": "2",
        "type": "t_mapping(t_uint256,t_struct(Transaction)29995_storage)"
      },
      {
        "astId": 30058,
        "contract": "contracts/VestingERC20BudgetApproval.sol:VestingERC20BudgetApproval",
        "label": "_executor",
        "offset": 0,
        "slot": "3",
        "type": "t_address"
      },
      {
        "astId": 30060,
        "contract": "contracts/VestingERC20BudgetApproval.sol:VestingERC20BudgetApproval",
        "label": "_executorTeamId",
        "offset": 0,
        "slot": "4",
        "type": "t_uint256"
      },
      {
        "astId": 30062,
        "contract": "contracts/VestingERC20BudgetApproval.sol:VestingERC20BudgetApproval",
        "label": "_executee",
        "offset": 0,
        "slot": "5",
        "type": "t_address"
      },
      {
        "astId": 30066,
        "contract": "contracts/VestingERC20BudgetApproval.sol:VestingERC20BudgetApproval",
        "label": "_approversMapping",
        "offset": 0,
        "slot": "6",
        "type": "t_mapping(t_address,t_bool)"
      },
      {
        "astId": 30068,
        "contract": "contracts/VestingERC20BudgetApproval.sol:VestingERC20BudgetApproval",
        "label": "_approverTeamId",
        "offset": 0,
        "slot": "7",
        "type": "t_uint256"
      },
      {
        "astId": 30070,
        "contract": "contracts/VestingERC20BudgetApproval.sol:VestingERC20BudgetApproval",
        "label": "_minApproval",
        "offset": 0,
        "slot": "8",
        "type": "t_uint256"
      },
      {
        "astId": 30072,
        "contract": "contracts/VestingERC20BudgetApproval.sol:VestingERC20BudgetApproval",
        "label": "_text",
        "offset": 0,
        "slot": "9",
        "type": "t_string_storage"
      },
      {
        "astId": 30074,
        "contract": "contracts/VestingERC20BudgetApproval.sol:VestingERC20BudgetApproval",
        "label": "_transactionType",
        "offset": 0,
        "slot": "10",
        "type": "t_string_storage"
      },
      {
        "astId": 30076,
        "contract": "contracts/VestingERC20BudgetApproval.sol:VestingERC20BudgetApproval",
        "label": "_allowUnlimitedUsageCount",
        "offset": 0,
        "slot": "11",
        "type": "t_bool"
      },
      {
        "astId": 30078,
        "contract": "contracts/VestingERC20BudgetApproval.sol:VestingERC20BudgetApproval",
        "label": "_usageCount",
        "offset": 0,
        "slot": "12",
        "type": "t_uint256"
      },
      {
        "astId": 30080,
        "contract": "contracts/VestingERC20BudgetApproval.sol:VestingERC20BudgetApproval",
        "label": "_startTime",
        "offset": 0,
        "slot": "13",
        "type": "t_uint256"
      },
      {
        "astId": 30082,
        "contract": "contracts/VestingERC20BudgetApproval.sol:VestingERC20BudgetApproval",
        "label": "_endTime",
        "offset": 0,
        "slot": "14",
        "type": "t_uint256"
      },
      {
        "astId": 30084,
        "contract": "contracts/VestingERC20BudgetApproval.sol:VestingERC20BudgetApproval",
        "label": "_team",
        "offset": 0,
        "slot": "15",
        "type": "t_address"
      },
      {
        "astId": 29357,
        "contract": "contracts/VestingERC20BudgetApproval.sol:VestingERC20BudgetApproval",
        "label": "token",
        "offset": 0,
        "slot": "16",
        "type": "t_address"
      },
      {
        "astId": 29359,
        "contract": "contracts/VestingERC20BudgetApproval.sol:VestingERC20BudgetApproval",
        "label": "toAddress",
        "offset": 0,
        "slot": "17",
        "type": "t_address"
      },
      {
        "astId": 29361,
        "contract": "contracts/VestingERC20BudgetApproval.sol:VestingERC20BudgetApproval",
        "label": "cliffPeriod",
        "offset": 0,
        "slot": "18",
        "type": "t_uint256"
      },
      {
        "astId": 29363,
        "contract": "contracts/VestingERC20BudgetApproval.sol:VestingERC20BudgetApproval",
        "label": "cyclePeriod",
        "offset": 0,
        "slot": "19",
        "type": "t_uint256"
      },
      {
        "astId": 29365,
        "contract": "contracts/VestingERC20BudgetApproval.sol:VestingERC20BudgetApproval",
        "label": "cycleCount",
        "offset": 0,
        "slot": "20",
        "type": "t_uint256"
      },
      {
        "astId": 29367,
        "contract": "contracts/VestingERC20BudgetApproval.sol:VestingERC20BudgetApproval",
        "label": "cycleTokenAmount",
        "offset": 0,
        "slot": "21",
        "type": "t_uint256"
      },
      {
        "astId": 29369,
        "contract": "contracts/VestingERC20BudgetApproval.sol:VestingERC20BudgetApproval",
        "label": "initTokenAmount",
        "offset": 0,
        "slot": "22",
        "type": "t_uint256"
      },
      {
        "astId": 29371,
        "contract": "contracts/VestingERC20BudgetApproval.sol:VestingERC20BudgetApproval",
        "label": "releasedTokenAmount",
        "offset": 0,
        "slot": "23",
        "type": "t_uint256"
      }
    ],
    "types": {
      "t_address": {
        "encoding": "inplace",
        "label": "address",
        "numberOfBytes": "20"
      },
      "t_array(t_bytes_storage)dyn_storage": {
        "base": "t_bytes_storage",
        "encoding": "dynamic_array",
        "label": "bytes[]",
        "numberOfBytes": "32"
      },
      "t_bool": {
        "encoding": "inplace",
        "label": "bool",
        "numberOfBytes": "1"
      },
      "t_bytes_storage": {
        "encoding": "bytes",
        "label": "bytes",
        "numberOfBytes": "32"
      },
      "t_enum(Status)29976": {
        "encoding": "inplace",
        "label": "enum CommonBudgetApproval.Status",
        "numberOfBytes": "1"
      },
      "t_mapping(t_address,t_bool)": {
        "encoding": "mapping",
        "key": "t_address",
        "label": "mapping(address => bool)",
        "numberOfBytes": "32",
        "value": "t_bool"
      },
      "t_mapping(t_uint256,t_struct(Transaction)29995_storage)": {
        "encoding": "mapping",
        "key": "t_uint256",
        "label": "mapping(uint256 => struct CommonBudgetApproval.Transaction)",
        "numberOfBytes": "32",
        "value": "t_struct(Transaction)29995_storage"
      },
      "t_string_storage": {
        "encoding": "bytes",
        "label": "string",
        "numberOfBytes": "32"
      },
      "t_struct(Counter)17310_storage": {
        "encoding": "inplace",
        "label": "struct Counters.Counter",
        "members": [
          {
            "astId": 17309,
            "contract": "contracts/VestingERC20BudgetApproval.sol:VestingERC20BudgetApproval",
            "label": "_value",
            "offset": 0,
            "slot": "0",
            "type": "t_uint256"
          }
        ],
        "numberOfBytes": "32"
      },
      "t_struct(Transaction)29995_storage": {
        "encoding": "inplace",
        "label": "struct CommonBudgetApproval.Transaction",
        "members": [
          {
            "astId": 29978,
            "contract": "contracts/VestingERC20BudgetApproval.sol:VestingERC20BudgetApproval",
            "label": "id",
            "offset": 0,
            "slot": "0",
            "type": "t_uint256"
          },
          {
            "astId": 29981,
            "contract": "contracts/VestingERC20BudgetApproval.sol:VestingERC20BudgetApproval",
            "label": "data",
            "offset": 0,
            "slot": "1",
            "type": "t_array(t_bytes_storage)dyn_storage"
          },
          {
            "astId": 29984,
            "contract": "contracts/VestingERC20BudgetApproval.sol:VestingERC20BudgetApproval",
            "label": "status",
            "offset": 0,
            "slot": "2",
            "type": "t_enum(Status)29976"
          },
          {
            "astId": 29986,
            "contract": "contracts/VestingERC20BudgetApproval.sol:VestingERC20BudgetApproval",
            "label": "deadline",
            "offset": 1,
            "slot": "2",
            "type": "t_uint32"
          },
          {
            "astId": 29988,
            "contract": "contracts/VestingERC20BudgetApproval.sol:VestingERC20BudgetApproval",
            "label": "isExist",
            "offset": 5,
            "slot": "2",
            "type": "t_bool"
          },
          {
            "astId": 29990,
            "contract": "contracts/VestingERC20BudgetApproval.sol:VestingERC20BudgetApproval",
            "label": "approvedCount",
            "offset": 0,
            "slot": "3",
            "type": "t_uint256"
          },
          {
            "astId": 29994,
            "contract": "contracts/VestingERC20BudgetApproval.sol:VestingERC20BudgetApproval",
            "label": "approved",
            "offset": 0,
            "slot": "4",
            "type": "t_mapping(t_address,t_bool)"
          }
        ],
        "numberOfBytes": "160"
      },
      "t_uint256": {
        "encoding": "inplace",
        "label": "uint256",
        "numberOfBytes": "32"
      },
      "t_uint32": {
        "encoding": "inplace",
        "label": "uint32",
        "numberOfBytes": "4"
      },
      "t_uint8": {
        "encoding": "inplace",
        "label": "uint8",
        "numberOfBytes": "1"
      }
    }
  }
}