{
  "address": "0xc15F1745698e9c08d1A46Fc30a70c6056a4B6822",
  "abi": [
    {
      "inputs": [],
      "stateMutability": "nonpayable",
      "type": "constructor"
    },
    {
      "inputs": [
        {
          "internalType": "uint8",
          "name": "decimals",
          "type": "uint8"
        }
      ],
      "name": "InvaildDecimal",
      "type": "error"
    },
    {
      "inputs": [
        {
          "internalType": "uint80",
          "name": "roundID",
          "type": "uint80"
        },
        {
          "internalType": "uint80",
          "name": "answeredInRound",
          "type": "uint80"
        }
      ],
      "name": "StaleRoundId",
      "type": "error"
    },
    {
      "inputs": [
        {
          "internalType": "uint256",
          "name": "currentTimeStamp",
          "type": "uint256"
        },
        {
          "internalType": "uint256",
          "name": "updatedAtTimeStamp",
          "type": "uint256"
        }
      ],
      "name": "StaleTimestamp",
      "type": "error"
    },
    {
      "inputs": [
        {
          "internalType": "address",
          "name": "asset",
          "type": "address"
        }
      ],
      "name": "assetDecimals",
      "outputs": [
        {
          "internalType": "uint8",
          "name": "",
          "type": "uint8"
        }
      ],
      "stateMutability": "view",
      "type": "function"
    },
    {
      "inputs": [
        {
          "internalType": "address",
          "name": "asset",
          "type": "address"
        },
        {
          "internalType": "uint256",
          "name": "amount",
          "type": "uint256"
        }
      ],
      "name": "assetEthPrice",
      "outputs": [
        {
          "internalType": "uint256",
          "name": "",
          "type": "uint256"
        }
      ],
      "stateMutability": "view",
      "type": "function"
    },
    {
      "inputs": [
        {
          "internalType": "address",
          "name": "asset",
          "type": "address"
        },
        {
          "internalType": "address",
          "name": "base",
          "type": "address"
        },
        {
          "internalType": "uint256",
          "name": "amount",
          "type": "uint256"
        }
      ],
      "name": "assetPrice",
      "outputs": [
        {
          "internalType": "uint256",
          "name": "",
          "type": "uint256"
        }
      ],
      "stateMutability": "view",
      "type": "function"
    },
    {
      "inputs": [
        {
          "internalType": "address",
          "name": "asset",
          "type": "address"
        },
        {
          "internalType": "address",
          "name": "base",
          "type": "address"
        },
        {
          "internalType": "uint256",
          "name": "amount",
          "type": "uint256"
        }
      ],
      "name": "derivedAssetPrice",
      "outputs": [
        {
          "internalType": "uint256",
          "name": "",
          "type": "uint256"
        }
      ],
      "stateMutability": "view",
      "type": "function"
    },
    {
      "inputs": [
        {
          "internalType": "address",
          "name": "asset",
          "type": "address"
        },
        {
          "internalType": "uint256",
          "name": "ethAmount",
          "type": "uint256"
        }
      ],
      "name": "ethAssetPrice",
      "outputs": [
        {
          "internalType": "uint256",
          "name": "",
          "type": "uint256"
        }
      ],
      "stateMutability": "view",
      "type": "function"
    },
    {
      "inputs": [
        {
          "internalType": "address",
          "name": "asset",
          "type": "address"
        },
        {
          "internalType": "address",
          "name": "base",
          "type": "address"
        }
      ],
      "name": "isSupportedPair",
      "outputs": [
        {
          "internalType": "bool",
          "name": "",
          "type": "bool"
        }
      ],
      "stateMutability": "view",
      "type": "function"
    },
    {
      "inputs": [],
      "name": "name",
      "outputs": [
        {
          "internalType": "string",
          "name": "",
          "type": "string"
        }
      ],
      "stateMutability": "view",
      "type": "function"
    }
  ],
  "transactionHash": "0x7da4e45425b3f1474c4ce4faee246eaf3ac3d22a9dbebb9a0facb4773e8e2f39",
  "args": [],
  "numDeployments": 1,
  "solcInputHash": "af18ea8043de5ce666898263f5c38e68",
  "bytecode": "0x608060405234801561001057600080fd5b50611372806100206000396000f3fe608060405234801561001057600080fd5b506004361061007d5760003560e01c8063b49612ba1161005b578063b49612ba14610108578063ce58da331461011b578063e019c23c1461013e578063e366da2c1461015157600080fd5b806306fdde03146100825780632851e17d146100d45780635aaaefad146100f5575b600080fd5b6100be6040518060400160405280602081526020017f457468657265756d20436861696e6c696e6b205072696365204761746577617981525081565b6040516100cb9190611042565b60405180910390f35b6100e76100e2366004610f2b565b610176565b6040519081526020016100cb565b6100e7610103366004610f6c565b6101d4565b6100e7610116366004610f6c565b6104b9565b61012e610129366004610ef2565b610774565b60405190151581526020016100cb565b6100e761014c366004610f2b565b61078f565b61016461015f366004610ed5565b61086c565b60405160ff90911681526020016100cb565b6000806101858585601261090f565b905060008113156101c7576101bf61019d8483611211565b6101a68761086c565b6101b19060126110af565b6101ba8761086c565b610d2f565b9150506101cd565b60009150505b9392505050565b60006001600160a01b03831660008051602061131d833981519152148061021757506001600160a01b03831673b4fbf271143f4fbf7b91a5ded31805e42b2208d6145b156102235750806104b3565b60008060008073abc30d61d30f19de38897eba18252868b34596646001600160a01b031663bcfd032d8860008051602061131d8339815191526040518363ffffffff1660e01b8152600401610279929190611028565b60a06040518083038186803b15801561029157600080fd5b505afa1580156102a5573d6000803e3d6000fd5b505050506040513d601f19601f820116820180604052508101906102c99190610fb5565b945094505093509350600073abc30d61d30f19de38897eba18252868b34596646001600160a01b03166358e2d3a88960008051602061131d8339815191526040518363ffffffff1660e01b8152600401610324929190611028565b60206040518083038186803b15801561033c57600080fd5b505afa158015610350573d6000803e3d6000fd5b505050506040513d601f19601f820116820180604052508101906103749190611005565b9050846001600160501b0316826001600160501b031610156103c057604051623a0beb60e31b81526001600160501b038087166004830152831660248201526044015b60405180910390fd5b6103cd6201518084611097565b4211156103f65760405163e80214f160e01b8152426004820152602481018490526044016103b7565b61040284826012610d2f565b935060008413156104a957876001600160a01b031663313ce5676040518163ffffffff1660e01b815260040160206040518083038186803b15801561044657600080fd5b505afa15801561045a573d6000803e3d6000fd5b505050506040513d601f19601f8201168201806040525081019061047e9190611005565b61048990600a611165565b6104938886611296565b61049d9190611102565b955050505050506104b3565b6000955050505050505b92915050565b60006001600160a01b03831660008051602061131d83398151915214806104fc57506001600160a01b03831673b4fbf271143f4fbf7b91a5ded31805e42b2208d6145b156105085750806104b3565b60008060008073abc30d61d30f19de38897eba18252868b34596646001600160a01b031663bcfd032d8860008051602061131d8339815191526040518363ffffffff1660e01b815260040161055e929190611028565b60a06040518083038186803b15801561057657600080fd5b505afa15801561058a573d6000803e3d6000fd5b505050506040513d601f19601f820116820180604052508101906105ae9190610fb5565b945094505093509350600073abc30d61d30f19de38897eba18252868b34596646001600160a01b03166358e2d3a88960008051602061131d8339815191526040518363ffffffff1660e01b8152600401610609929190611028565b60206040518083038186803b15801561062157600080fd5b505afa158015610635573d6000803e3d6000fd5b505050506040513d601f19601f820116820180604052508101906106599190611005565b9050846001600160501b0316826001600160501b031610156106a057604051623a0beb60e31b81526001600160501b038087166004830152831660248201526044016103b7565b6106ad6201518084611097565b4211156106d65760405163e80214f160e01b8152426004820152602481018490526044016103b7565b6106e284826012610d2f565b935060008413156104a95783886001600160a01b031663313ce5676040518163ffffffff1660e01b815260040160206040518083038186803b15801561072757600080fd5b505afa15801561073b573d6000803e3d6000fd5b505050506040513d601f19601f8201168201806040525081019061075f9190611005565b61076a90600a611165565b6104939089611296565b600061077f83610d99565b80156101cd57506101cd82610d99565b6000826001600160a01b0316846001600160a01b031614156107b25750806101cd565b6001600160a01b03831660008051602061131d83398151915214806107f357506001600160a01b03831673b4fbf271143f4fbf7b91a5ded31805e42b2208d6145b156108095761080284836101d4565b90506101cd565b6001600160a01b03841660008051602061131d833981519152148061084a57506001600160a01b03841673b4fbf271143f4fbf7b91a5ded31805e42b2208d6145b156108595761080283836104b9565b610864848484610176565b949350505050565b60006001600160a01b03821660008051602061131d833981519152141561089557506012919050565b816001600160a01b031663313ce5676040518163ffffffff1660e01b815260040160206040518083038186803b1580156108ce57600080fd5b505afa9250505080156108fe575060408051601f3d908101601f191682019092526108fb91810190611005565b60015b6104b357506000919050565b919050565b600060ff821615806109245750601260ff8316115b1561094757604051631e19a7dd60e31b815260ff831660048201526024016103b7565b600061095760ff8416600a611159565b905060008060008073abc30d61d30f19de38897eba18252868b34596646001600160a01b031663bcfd032d8a60008051602061131d8339815191526040518363ffffffff1660e01b81526004016109af929190611028565b60a06040518083038186803b1580156109c757600080fd5b505afa1580156109db573d6000803e3d6000fd5b505050506040513d601f19601f820116820180604052508101906109ff9190610fb5565b945094505093509350836001600160501b0316816001600160501b03161015610a4d57604051623a0beb60e31b81526001600160501b038086166004830152821660248201526044016103b7565b610a5a6201518083611097565b421115610a835760405163e80214f160e01b8152426004820152602481018390526044016103b7565b604051630b1c5a7560e31b815260009073abc30d61d30f19de38897eba18252868b3459664906358e2d3a890610acd908d9060008051602061131d83398151915290600401611028565b60206040518083038186803b158015610ae557600080fd5b505afa158015610af9573d6000803e3d6000fd5b505050506040513d601f19601f82011682018060405250810190610b1d9190611005565b9050610b2a84828a610d2f565b935060008060008073abc30d61d30f19de38897eba18252868b34596646001600160a01b031663bcfd032d8e60008051602061131d8339815191526040518363ffffffff1660e01b8152600401610b82929190611028565b60a06040518083038186803b158015610b9a57600080fd5b505afa158015610bae573d6000803e3d6000fd5b505050506040513d601f19601f82011682018060405250810190610bd29190610fb5565b945094505093509350836001600160501b0316816001600160501b03161015610c2057604051623a0beb60e31b81526001600160501b038086166004830152821660248201526044016103b7565b610c2d6201518083611097565b421115610c565760405163e80214f160e01b8152426004820152602481018390526044016103b7565b600073abc30d61d30f19de38897eba18252868b34596646001600160a01b03166358e2d3a88f60008051602061131d8339815191526040518363ffffffff1660e01b8152600401610ca8929190611028565b60206040518083038186803b158015610cc057600080fd5b505afa158015610cd4573d6000803e3d6000fd5b505050506040513d601f19601f82011682018060405250810190610cf89190611005565b9050610d0584828f610d2f565b935083610d128c8b611211565b610d1c91906110d4565b9f9e505050505050505050505050505050565b60008160ff168360ff161015610d6157610d4983836112b5565b610d579060ff16600a611159565b6108029085611211565b8160ff168360ff161115610d9157610d7982846112b5565b610d879060ff16600a611159565b61080290856110d4565b509192915050565b60006001600160a01b03821660008051602061131d8339815191521480610ddc57506001600160a01b03821673b4fbf271143f4fbf7b91a5ded31805e42b2208d6145b15610de957506001919050565b60405163d2edb6dd60e01b815273abc30d61d30f19de38897eba18252868b34596649063d2edb6dd90610e3090859060008051602061131d83398151915290600401611028565b60206040518083038186803b158015610e4857600080fd5b505afa925050508015610e78575060408051601f3d908101601f19168201909252610e7591810190610f98565b60015b610eb5573d808015610ea6576040519150601f19603f3d011682016040523d82523d6000602084013e610eab565b606091505b5060009392505050565b50600192915050565b80516001600160501b038116811461090a57600080fd5b600060208284031215610ee757600080fd5b81356101cd81611304565b60008060408385031215610f0557600080fd5b8235610f1081611304565b91506020830135610f2081611304565b809150509250929050565b600080600060608486031215610f4057600080fd5b8335610f4b81611304565b92506020840135610f5b81611304565b929592945050506040919091013590565b60008060408385031215610f7f57600080fd5b8235610f8a81611304565b946020939093013593505050565b600060208284031215610faa57600080fd5b81516101cd81611304565b600080600080600060a08688031215610fcd57600080fd5b610fd686610ebe565b9450602086015193506040860151925060608601519150610ff960808701610ebe565b90509295509295909350565b60006020828403121561101757600080fd5b815160ff811681146101cd57600080fd5b6001600160a01b0392831681529116602082015260400190565b600060208083528351808285015260005b8181101561106f57858101830151858201604001528201611053565b81811115611081576000604083870101525b50601f01601f1916929092016040019392505050565b600082198211156110aa576110aa6112d8565b500190565b600060ff821660ff84168060ff038211156110cc576110cc6112d8565b019392505050565b6000826110e3576110e36112ee565b600160ff1b8214600019841416156110fd576110fd6112d8565b500590565b600082611111576111116112ee565b500490565b600181815b80851115611151578160001904821115611137576111376112d8565b8085161561114457918102915b93841c939080029061111b565b509250929050565b60006101cd8383611170565b60006101cd60ff8416835b60008261117f575060016104b3565b8161118c575060006104b3565b81600181146111a257600281146111ac576111c8565b60019150506104b3565b60ff8411156111bd576111bd6112d8565b50506001821b6104b3565b5060208310610133831016604e8410600b84101617156111eb575081810a6104b3565b6111f58383611116565b8060001904821115611209576112096112d8565b029392505050565b60006001600160ff1b0381841382841380821686840486111615611237576112376112d8565b600160ff1b6000871282811687830589121615611256576112566112d8565b60008712925087820587128484161615611272576112726112d8565b87850587128184161615611288576112886112d8565b505050929093029392505050565b60008160001904831182151516156112b0576112b06112d8565b500290565b600060ff821660ff8416808210156112cf576112cf6112d8565b90039392505050565b634e487b7160e01b600052601160045260246000fd5b634e487b7160e01b600052601260045260246000fd5b6001600160a01b038116811461131957600080fd5b5056fe000000000000000000000000eeeeeeeeeeeeeeeeeeeeeeeeeeeeeeeeeeeeeeeea26469706673582212206d83bf0dc286ed7e19fddbe1ddb5b1646bf195901627e06275c8ba421af147b464736f6c63430008070033",
  "devdoc": {
    "kind": "dev",
    "methods": {
      "assetPrice(address,address,uint256)": {
        "details": "For those outside contract , Please used this as the entry pointthis Function will help to route the calculate to other cal function,Please do not directly call the below cal function",
        "params": {
          "amount": "the amount of asset, in asset decimal",
          "asset": "the asset token address, support ETH , WETH and other ERC20",
          "base": "the base token address, support ETH , WETH and other ERC20"
        },
        "returns": {
          "_0": "uint256 the Asset Price in term of base token in base token decimal"
        }
      },
      "isSupportedPair(address,address)": {
        "details": "Custom price gateway is allowed, but need to implement priceGateway.sol and set by govern",
        "params": {
          "asset": "the asset token address, support ETH , WETH and other ERC20",
          "base": "the base token address, support ETH , WETH and other ERC20"
        },
        "returns": {
          "_0": "boolean Is support or not"
        }
      }
    },
    "stateVariables": {
      "name": {
        "custom:oz-upgrades-unsafe-allow": "constructor"
      }
    },
    "version": 1
  },
  "userdoc": {
    "kind": "user",
    "methods": {
      "assetPrice(address,address,uint256)": {
        "notice": "inherited from PriceGateway, to cal the asset price base on different token"
      },
      "isSupportedPair(address,address)": {
        "notice": "inherited from PriceGateway, help to check the imported pair support or not"
      }
    },
    "version": 1
  },
  "storageLayout": {
    "storage": [],
    "types": null
  }
}