{
  "address": "0xb9871d4a8D0aF26B724f3e87390A1b4C6d5F72Cd",
  "abi": [
    {
      "inputs": [],
      "stateMutability": "nonpayable",
      "type": "constructor"
    },
    {
      "anonymous": false,
      "inputs": [
        {
          "indexed": false,
          "internalType": "address",
          "name": "previousAdmin",
          "type": "address"
        },
        {
          "indexed": false,
          "internalType": "address",
          "name": "newAdmin",
          "type": "address"
        }
      ],
      "name": "AdminChanged",
      "type": "event"
    },
    {
      "anonymous": false,
      "inputs": [
        {
          "indexed": false,
          "internalType": "address",
          "name": "token",
          "type": "address"
        }
      ],
      "name": "AllowDepositToken",
      "type": "event"
    },
    {
      "anonymous": false,
      "inputs": [
        {
          "indexed": true,
          "internalType": "address",
          "name": "owner",
          "type": "address"
        },
        {
          "indexed": true,
          "internalType": "address",
          "name": "spender",
          "type": "address"
        },
        {
          "indexed": false,
          "internalType": "uint256",
          "name": "value",
          "type": "uint256"
        }
      ],
      "name": "Approval",
      "type": "event"
    },
    {
      "anonymous": false,
      "inputs": [
        {
          "indexed": true,
          "internalType": "address",
          "name": "beacon",
          "type": "address"
        }
      ],
      "name": "BeaconUpgraded",
      "type": "event"
    },
    {
      "anonymous": false,
      "inputs": [
        {
          "indexed": false,
          "internalType": "address",
          "name": "budgetApproval",
          "type": "address"
        },
        {
          "indexed": false,
          "internalType": "bytes",
          "name": "data",
          "type": "bytes"
        }
      ],
      "name": "CreateBudgetApproval",
      "type": "event"
    },
    {
      "anonymous": false,
      "inputs": [
        {
          "indexed": false,
          "internalType": "address",
          "name": "account",
          "type": "address"
        },
        {
          "indexed": false,
          "internalType": "address",
          "name": "token",
          "type": "address"
        },
        {
          "indexed": false,
          "internalType": "uint256",
          "name": "depositAmount",
          "type": "uint256"
        }
      ],
      "name": "Deposit",
      "type": "event"
    },
    {
      "anonymous": false,
      "inputs": [
        {
          "indexed": false,
          "internalType": "address",
          "name": "token",
          "type": "address"
        }
      ],
      "name": "DisallowDepositToken",
      "type": "event"
    },
    {
      "anonymous": false,
      "inputs": [
        {
          "indexed": false,
          "internalType": "address",
          "name": "budgetApproval",
          "type": "address"
        },
        {
          "indexed": false,
          "internalType": "bytes",
          "name": "data",
          "type": "bytes"
        }
      ],
      "name": "ExecuteByBudgetApproval",
      "type": "event"
    },
    {
      "anonymous": false,
      "inputs": [
        {
          "indexed": false,
          "internalType": "uint8",
          "name": "version",
          "type": "uint8"
        }
      ],
      "name": "Initialized",
      "type": "event"
    },
    {
      "anonymous": false,
      "inputs": [
        {
          "indexed": true,
          "internalType": "address",
          "name": "from",
          "type": "address"
        },
        {
          "indexed": true,
          "internalType": "address",
          "name": "to",
          "type": "address"
        },
        {
          "indexed": false,
          "internalType": "uint256",
          "name": "value",
          "type": "uint256"
        }
      ],
      "name": "Transfer",
      "type": "event"
    },
    {
      "anonymous": false,
      "inputs": [
        {
          "indexed": true,
          "internalType": "address",
          "name": "implementation",
          "type": "address"
        }
      ],
      "name": "Upgraded",
      "type": "event"
    },
    {
      "inputs": [
        {
          "internalType": "address[]",
          "name": "erc20s",
          "type": "address[]"
        }
      ],
      "name": "addAssets",
      "outputs": [],
      "stateMutability": "nonpayable",
      "type": "function"
    },
    {
      "inputs": [
        {
          "internalType": "address",
          "name": "owner",
          "type": "address"
        },
        {
          "internalType": "address",
          "name": "spender",
          "type": "address"
        }
      ],
      "name": "allowance",
      "outputs": [
        {
          "internalType": "uint256",
          "name": "",
          "type": "uint256"
        }
      ],
      "stateMutability": "view",
      "type": "function"
    },
    {
      "inputs": [
        {
          "internalType": "address",
          "name": "spender",
          "type": "address"
        },
        {
          "internalType": "uint256",
          "name": "amount",
          "type": "uint256"
        }
      ],
      "name": "approve",
      "outputs": [
        {
          "internalType": "bool",
          "name": "",
          "type": "bool"
        }
      ],
      "stateMutability": "nonpayable",
      "type": "function"
    },
    {
      "inputs": [
        {
          "internalType": "address",
          "name": "asset",
          "type": "address"
        },
        {
          "internalType": "uint256",
          "name": "amount",
          "type": "uint256"
        }
      ],
      "name": "assetBaseCurrencyPrice",
      "outputs": [
        {
          "internalType": "uint256",
          "name": "",
          "type": "uint256"
        }
      ],
      "stateMutability": "view",
      "type": "function"
    },
    {
      "inputs": [
        {
          "internalType": "address",
          "name": "asset",
          "type": "address"
        },
        {
          "internalType": "uint256",
          "name": "amount",
          "type": "uint256"
        }
      ],
      "name": "assetEthPrice",
      "outputs": [
        {
          "internalType": "uint256",
          "name": "",
          "type": "uint256"
        }
      ],
      "stateMutability": "view",
      "type": "function"
    },
    {
      "inputs": [
        {
          "internalType": "uint256",
          "name": "",
          "type": "uint256"
        }
      ],
      "name": "assets",
      "outputs": [
        {
          "internalType": "address",
          "name": "",
          "type": "address"
        }
      ],
      "stateMutability": "view",
      "type": "function"
    },
    {
      "inputs": [],
      "name": "assetsLength",
      "outputs": [
        {
          "internalType": "uint256",
          "name": "",
          "type": "uint256"
        }
      ],
      "stateMutability": "view",
      "type": "function"
    },
    {
      "inputs": [
        {
          "internalType": "address",
          "name": "asset",
          "type": "address"
        },
        {
          "internalType": "uint256",
          "name": "amount",
          "type": "uint256"
        }
      ],
      "name": "assetsShares",
      "outputs": [
        {
          "internalType": "uint256",
          "name": "",
          "type": "uint256"
        }
      ],
      "stateMutability": "view",
      "type": "function"
    },
    {
      "inputs": [
        {
          "internalType": "address",
          "name": "account",
          "type": "address"
        }
      ],
      "name": "balanceOf",
      "outputs": [
        {
          "internalType": "uint256",
          "name": "",
          "type": "uint256"
        }
      ],
      "stateMutability": "view",
      "type": "function"
    },
    {
      "inputs": [],
      "name": "baseCurrency",
      "outputs": [
        {
          "internalType": "address",
          "name": "",
          "type": "address"
        }
      ],
      "stateMutability": "view",
      "type": "function"
    },
    {
      "inputs": [],
      "name": "baseCurrencyDecimals",
      "outputs": [
        {
          "internalType": "uint8",
          "name": "",
          "type": "uint8"
        }
      ],
      "stateMutability": "view",
      "type": "function"
    },
    {
      "inputs": [
        {
          "internalType": "address",
          "name": "template",
          "type": "address"
        }
      ],
      "name": "budgetApprovals",
      "outputs": [
        {
          "internalType": "bool",
          "name": "",
          "type": "bool"
        }
      ],
      "stateMutability": "view",
      "type": "function"
    },
    {
      "inputs": [
        {
          "internalType": "address",
          "name": "asset",
          "type": "address"
        }
      ],
      "name": "canAddAsset",
      "outputs": [
        {
          "internalType": "bool",
          "name": "",
          "type": "bool"
        }
      ],
      "stateMutability": "view",
      "type": "function"
    },
    {
      "inputs": [
        {
          "internalType": "address",
          "name": "asset",
          "type": "address"
        }
      ],
      "name": "canResolvePrice",
      "outputs": [
        {
          "internalType": "bool",
          "name": "",
          "type": "bool"
        }
      ],
      "stateMutability": "view",
      "type": "function"
    },
    {
      "inputs": [
        {
          "internalType": "address[]",
          "name": "__budgetApprovals",
          "type": "address[]"
        },
        {
          "internalType": "bytes[]",
          "name": "data",
          "type": "bytes[]"
        }
      ],
      "name": "createBudgetApprovals",
      "outputs": [],
      "stateMutability": "nonpayable",
      "type": "function"
    },
    {
      "inputs": [],
      "name": "dao",
      "outputs": [
        {
          "internalType": "contract IDao",
          "name": "",
          "type": "address"
        }
      ],
      "stateMutability": "view",
      "type": "function"
    },
    {
      "inputs": [],
      "name": "decimals",
      "outputs": [
        {
          "internalType": "uint8",
          "name": "",
          "type": "uint8"
        }
      ],
      "stateMutability": "view",
      "type": "function"
    },
    {
      "inputs": [
        {
          "internalType": "address",
          "name": "spender",
          "type": "address"
        },
        {
          "internalType": "uint256",
          "name": "subtractedValue",
          "type": "uint256"
        }
      ],
      "name": "decreaseAllowance",
      "outputs": [
        {
          "internalType": "bool",
          "name": "",
          "type": "bool"
        }
      ],
      "stateMutability": "nonpayable",
      "type": "function"
    },
    {
      "inputs": [
        {
          "internalType": "address",
          "name": "receiver",
          "type": "address"
        }
      ],
      "name": "deposit",
      "outputs": [],
      "stateMutability": "payable",
      "type": "function"
    },
    {
      "inputs": [
        {
          "internalType": "address",
          "name": "receiver",
          "type": "address"
        },
        {
          "internalType": "address",
          "name": "asset",
          "type": "address"
        },
        {
          "internalType": "uint256",
          "name": "amount",
          "type": "uint256"
        }
      ],
      "name": "depositToken",
      "outputs": [],
      "stateMutability": "nonpayable",
      "type": "function"
    },
    {
      "inputs": [
        {
          "internalType": "address",
          "name": "asset",
          "type": "address"
        },
        {
          "internalType": "uint256",
          "name": "ethAmount",
          "type": "uint256"
        }
      ],
      "name": "ethAssetPrice",
      "outputs": [
        {
          "internalType": "uint256",
          "name": "",
          "type": "uint256"
        }
      ],
      "stateMutability": "view",
      "type": "function"
    },
    {
      "inputs": [
        {
          "internalType": "address",
          "name": "_to",
          "type": "address"
        },
        {
          "internalType": "bytes",
          "name": "_data",
          "type": "bytes"
        },
        {
          "internalType": "uint256",
          "name": "_value",
          "type": "uint256"
        }
      ],
      "name": "executeByBudgetApproval",
      "outputs": [
        {
          "internalType": "bytes",
          "name": "",
          "type": "bytes"
        }
      ],
      "stateMutability": "nonpayable",
      "type": "function"
    },
    {
      "inputs": [
        {
          "internalType": "address",
          "name": "spender",
          "type": "address"
        },
        {
          "internalType": "uint256",
          "name": "addedValue",
          "type": "uint256"
        }
      ],
      "name": "increaseAllowance",
      "outputs": [
        {
          "internalType": "bool",
          "name": "",
          "type": "bool"
        }
      ],
      "stateMutability": "nonpayable",
      "type": "function"
    },
    {
      "inputs": [
        {
          "internalType": "address",
          "name": "owner",
          "type": "address"
        },
        {
          "internalType": "address[]",
          "name": "depositTokens",
          "type": "address[]"
        },
        {
          "internalType": "address",
          "name": "_baseCurrency",
          "type": "address"
        }
      ],
      "name": "initialize",
      "outputs": [],
      "stateMutability": "nonpayable",
      "type": "function"
    },
    {
      "inputs": [
        {
          "internalType": "address",
          "name": "asset",
          "type": "address"
        }
      ],
      "name": "isAssetSupported",
      "outputs": [
        {
          "internalType": "bool",
          "name": "",
          "type": "bool"
        }
      ],
      "stateMutability": "view",
      "type": "function"
    },
    {
      "inputs": [],
      "name": "name",
      "outputs": [
        {
          "internalType": "string",
          "name": "",
          "type": "string"
        }
      ],
      "stateMutability": "view",
      "type": "function"
    },
    {
      "inputs": [],
      "name": "proxiableUUID",
      "outputs": [
        {
          "internalType": "bytes32",
          "name": "",
          "type": "bytes32"
        }
      ],
      "stateMutability": "view",
      "type": "function"
    },
    {
      "inputs": [
        {
          "internalType": "uint256",
          "name": "amount",
          "type": "uint256"
        }
      ],
      "name": "quote",
      "outputs": [
        {
          "internalType": "uint256",
          "name": "",
          "type": "uint256"
        }
      ],
      "stateMutability": "view",
      "type": "function"
    },
    {
      "inputs": [
        {
          "internalType": "uint256",
          "name": "amount",
          "type": "uint256"
        }
      ],
      "name": "redeem",
      "outputs": [],
      "stateMutability": "nonpayable",
      "type": "function"
    },
    {
      "inputs": [
        {
          "internalType": "address[]",
          "name": "erc20s",
          "type": "address[]"
        }
      ],
      "name": "removeAssets",
      "outputs": [],
      "stateMutability": "nonpayable",
      "type": "function"
    },
    {
      "inputs": [],
      "name": "symbol",
      "outputs": [
        {
          "internalType": "string",
          "name": "",
          "type": "string"
        }
      ],
      "stateMutability": "view",
      "type": "function"
    },
    {
      "inputs": [],
      "name": "team",
      "outputs": [
        {
          "internalType": "address",
          "name": "",
          "type": "address"
        }
      ],
      "stateMutability": "view",
      "type": "function"
    },
    {
      "inputs": [],
      "name": "totalPrice",
      "outputs": [
        {
          "internalType": "uint256",
          "name": "",
          "type": "uint256"
        }
      ],
      "stateMutability": "view",
      "type": "function"
    },
    {
      "inputs": [],
      "name": "totalPriceInEth",
      "outputs": [
        {
          "internalType": "uint256",
          "name": "",
          "type": "uint256"
        }
      ],
      "stateMutability": "view",
      "type": "function"
    },
    {
      "inputs": [],
      "name": "totalSupply",
      "outputs": [
        {
          "internalType": "uint256",
          "name": "",
          "type": "uint256"
        }
      ],
      "stateMutability": "view",
      "type": "function"
    },
    {
      "inputs": [
        {
          "internalType": "address",
          "name": "to",
          "type": "address"
        },
        {
          "internalType": "uint256",
          "name": "amount",
          "type": "uint256"
        }
      ],
      "name": "transfer",
      "outputs": [
        {
          "internalType": "bool",
          "name": "",
          "type": "bool"
        }
      ],
      "stateMutability": "nonpayable",
      "type": "function"
    },
    {
      "inputs": [
        {
          "internalType": "address",
          "name": "from",
          "type": "address"
        },
        {
          "internalType": "address",
          "name": "to",
          "type": "address"
        },
        {
          "internalType": "uint256",
          "name": "amount",
          "type": "uint256"
        }
      ],
      "name": "transferFrom",
      "outputs": [
        {
          "internalType": "bool",
          "name": "",
          "type": "bool"
        }
      ],
      "stateMutability": "nonpayable",
      "type": "function"
    },
    {
      "inputs": [
        {
          "internalType": "address",
          "name": "newImplementation",
          "type": "address"
        }
      ],
      "name": "upgradeTo",
      "outputs": [],
      "stateMutability": "nonpayable",
      "type": "function"
    },
    {
      "inputs": [
        {
          "internalType": "address",
          "name": "newImplementation",
          "type": "address"
        },
        {
          "internalType": "bytes",
          "name": "data",
          "type": "bytes"
        }
      ],
      "name": "upgradeToAndCall",
      "outputs": [],
      "stateMutability": "payable",
      "type": "function"
    },
    {
      "stateMutability": "payable",
      "type": "receive"
    }
  ],
  "transactionHash": "0x79201646bbbc50e79674590f184c25bbcb8a643b4bfaa2b1e73323a701611cc2",
  "args": [],
  "numDeployments": 1,
  "solcInputHash": "8923c11c38e6f922668b41a497f5bc5a",
  "bytecode": "0x60a06040523060601b6080523480156200001857600080fd5b50620000236200003d565b6200002d6200003d565b620000376200003d565b620000ff565b600054610100900460ff1615620000aa5760405162461bcd60e51b815260206004820152602760248201527f496e697469616c697a61626c653a20636f6e747261637420697320696e697469604482015266616c697a696e6760c81b606482015260840160405180910390fd5b60005460ff9081161015620000fd576000805460ff191660ff9081179091556040519081527f7f26b83ff96e1f2b6a682f133852f6798a09c465da95921460cefb38474024989060200160405180910390a15b565b60805160601c6156316200013a600039600081816109a5015281816109e801528181610b5801528181610b9b0152610c3701526156316000f3fe608060405260043610620002635760003560e01c806392a85fde1162000147578063d3abc28b11620000b9578063df79812e1162000078578063df79812e146200075e578063ed1bd76c1462000783578063f340fa0114620007a8578063f50477a214620007bf578063fb0f97a814620007d757600080fd5b8063d3abc28b14620006a5578063db006a7514620006ca578063dc5b68a614620006ef578063dd62ed3e1462000714578063df30e97c146200073957600080fd5b8063ab0d92dd1162000106578063ab0d92dd14620005f9578063aea321c61462000611578063b49612ba1462000636578063bc9c5e90146200065b578063cf35bdd0146200068057600080fd5b806392a85fde146200053a57806395d89b41146200055a578063a240663e1462000572578063a457c2d714620005af578063a9059cbb14620005d457600080fd5b80634162169f11620001e157806360d8bb2211620001a057806360d8bb22146200047e57806363d727dc14620004a35780636f7a4b2314620004bb57806370a0823114620004e057806385f2aef2146200051a57600080fd5b80634162169f14620003c9578063464b415814620004055780634f1ef286146200042a57806352d1902d14620004415780635aaaefad146200045957600080fd5b806330c88fd7116200022e57806330c88fd7146200031c578063313ce56714620003415780633659cfe6146200036557806337dde58a146200038c5780633950935114620003a457600080fd5b806306fdde031462000270578063095ea7b314620002a057806318160ddd14620002d657806323b872dd14620002f757600080fd5b366200026b57005b600080fd5b3480156200027d57600080fd5b5062000288620007fc565b604051620002979190620048ed565b60405180910390f35b348015620002ad57600080fd5b50620002c5620002bf3660046200452e565b62000896565b604051901515815260200162000297565b348015620002e357600080fd5b506099545b60405190815260200162000297565b3480156200030457600080fd5b50620002c562000316366004620043c7565b620008b2565b3480156200032957600080fd5b50620002e86200033b3660046200452e565b620008dc565b3480156200034e57600080fd5b5060125b60405160ff909116815260200162000297565b3480156200037257600080fd5b506200038a6200038436600462004349565b6200099a565b005b3480156200039957600080fd5b50620002e862000a86565b348015620003b157600080fd5b50620002c5620003c33660046200452e565b62000b07565b348015620003d657600080fd5b5061013054620003ec906001600160a01b031681565b6040516001600160a01b03909116815260200162000297565b3480156200041257600080fd5b50620002c56200042436600462004349565b62000b2f565b6200038a6200043b36600462004479565b62000b4d565b3480156200044e57600080fd5b50620002e862000c2a565b3480156200046657600080fd5b50620002e8620004783660046200452e565b62000ce0565b3480156200048b57600080fd5b50620002e86200049d3660046200452e565b62000fc9565b348015620004b057600080fd5b5062000352620012c3565b348015620004c857600080fd5b50620002c5620004da36600462004349565b62001386565b348015620004ed57600080fd5b50620002e8620004ff36600462004349565b6001600160a01b031660009081526097602052604090205490565b3480156200052757600080fd5b5060fc546001600160a01b0316620003ec565b3480156200054757600080fd5b5060c9546001600160a01b0316620003ec565b3480156200056757600080fd5b506200028862001393565b3480156200057f57600080fd5b50620002c56200059136600462004349565b6001600160a01b0316600090815260fd602052604090205460ff1690565b348015620005bc57600080fd5b50620002c5620005ce3660046200452e565b620013a4565b348015620005e157600080fd5b50620002c5620005f33660046200452e565b62001430565b3480156200060657600080fd5b50620002e862001440565b3480156200061e57600080fd5b506200038a620006303660046200455d565b620014b9565b3480156200064357600080fd5b50620002e8620006553660046200452e565b6200168e565b3480156200066857600080fd5b50620002c56200067a36600462004349565b62001951565b3480156200068d57600080fd5b50620003ec6200069f36600462004776565b62001a83565b348015620006b257600080fd5b5062000288620006c4366004620044cf565b62001aaf565b348015620006d757600080fd5b506200038a620006e936600462004776565b62001c37565b348015620006fc57600080fd5b506200038a6200070e3660046200440d565b62001e65565b3480156200072157600080fd5b50620002e86200073336600462004389565b62002071565b3480156200074657600080fd5b506200038a620007583660046200455d565b6200209c565b3480156200076b57600080fd5b506200038a6200077d366004620045d7565b6200226b565b3480156200079057600080fd5b50620002e8620007a236600462004776565b62002449565b6200038a620007b936600462004349565b62002487565b348015620007cc57600080fd5b5061013154620002e8565b348015620007e457600080fd5b506200038a620007f6366004620043c7565b6200260e565b6060609a80546200080d9062004d94565b80601f01602080910402602001604051908101604052809291908181526020018280546200083b9062004d94565b80156200088c5780601f1062000860576101008083540402835291602001916200088c565b820191906000526020600020905b8154815290600101906020018083116200086e57829003601f168201915b5050505050905090565b600033620008a681858562002774565b60019150505b92915050565b600033620008c28582856200289c565b620008cf85858562002917565b60019150505b9392505050565b600080620008e960995490565b905080831115620009325760405162461bcd60e51b815260206004820152600e60248201526d677420746f74616c537570706c7960901b60448201526064015b60405180910390fd5b6200093d8462000b2f565b6200095c5760405162461bcd60e51b815260040162000929906200494e565b806200096d576000915050620008ac565b80836200097a8662002aef565b62000986919062004d03565b62000992919062004b44565b949350505050565b306001600160a01b037f0000000000000000000000000000000000000000000000000000000000000000161415620009e65760405162461bcd60e51b8152600401620009299062004902565b7f00000000000000000000000000000000000000000000000000000000000000006001600160a01b031662000a3160008051602062005595833981519152546001600160a01b031690565b6001600160a01b03161462000a5a5760405162461bcd60e51b81526004016200092990620049b0565b62000a658162002b94565b6040805160008082526020820190925262000a839183919062002bdb565b50565b610131546000908190815b8181101562000aff576000610131828154811062000ab35762000ab362004e31565b6000918252602090912001546001600160a01b0316905062000ada81620004788162002aef565b62000ae6908562004acd565b935050808062000af69062004dd1565b91505062000a91565b509092915050565b600033620008a681858562000b1d838362002071565b62000b29919062004acd565b62002774565b6001600160a01b031660009081526101326020526040902054151590565b306001600160a01b037f000000000000000000000000000000000000000000000000000000000000000016141562000b995760405162461bcd60e51b8152600401620009299062004902565b7f00000000000000000000000000000000000000000000000000000000000000006001600160a01b031662000be460008051602062005595833981519152546001600160a01b031690565b6001600160a01b03161462000c0d5760405162461bcd60e51b81526004016200092990620049b0565b62000c188262002b94565b62000c268282600162002bdb565b5050565b6000306001600160a01b037f0000000000000000000000000000000000000000000000000000000000000000161462000ccc5760405162461bcd60e51b815260206004820152603860248201527f555550535570677261646561626c653a206d757374206e6f742062652063616c60448201527f6c6564207468726f7567682064656c656761746563616c6c0000000000000000606482015260840162000929565b506000805160206200559583398151915290565b60006001600160a01b038316600080516020620055b5833981519152148062000d2557506001600160a01b03831673b4fbf271143f4fbf7b91a5ded31805e42b2208d6145b1562000d33575080620008ac565b60008060008073abc30d61d30f19de38897eba18252868b34596646001600160a01b031663bcfd032d88600080516020620055b58339815191526040518363ffffffff1660e01b815260040162000d8c92919062004889565b60a06040518083038186803b15801562000da557600080fd5b505afa15801562000dba573d6000803e3d6000fd5b505050506040513d601f19601f8201168201806040525081019062000de0919062004790565b945094505093509350600073abc30d61d30f19de38897eba18252868b34596646001600160a01b03166358e2d3a889600080516020620055b58339815191526040518363ffffffff1660e01b815260040162000e3e92919062004889565b60206040518083038186803b15801562000e5757600080fd5b505afa15801562000e6c573d6000803e3d6000fd5b505050506040513d601f19601f8201168201806040525081019062000e929190620047e5565b9050846001600160501b0316826001600160501b0316101562000ec95760405162461bcd60e51b8152600401620009299062004979565b62000ed8620151808462004acd565b42111562000efa5760405162461bcd60e51b8152600401620009299062004979565b62000f088482601262002d63565b9350600084131562000fbb57876001600160a01b031663313ce5676040518163ffffffff1660e01b815260040160206040518083038186803b15801562000f4e57600080fd5b505afa15801562000f63573d6000803e3d6000fd5b505050506040513d601f19601f8201168201806040525081019062000f899190620047e5565b62000f9690600a62004bb2565b62000fa2888662004d03565b62000fae919062004b44565b95505050505050620008ac565b506000979650505050505050565b60008062000fdf60c9546001600160a01b031690565b9050806001600160a01b0316846001600160a01b03161415620010065782915050620008ac565b6001600160a01b038116600080516020620055b583398151915214806200104957506001600160a01b03811673b4fbf271143f4fbf7b91a5ded31805e42b2208d6145b1562001064576200105b848462000ce0565b915050620008ac565b6001600160a01b038416600080516020620055b58339815191521480620010a757506001600160a01b03841673b4fbf271143f4fbf7b91a5ded31805e42b2208d6145b15620010b9576200105b81846200168e565b60405163d2edb6dd60e01b815260009073abc30d61d30f19de38897eba18252868b34596649063d2edb6dd9062001106908590600080516020620055b58339815191529060040162004889565b60206040518083038186803b1580156200111f57600080fd5b505afa15801562001134573d6000803e3d6000fd5b505050506040513d601f19601f820116820180604052508101906200115a919062004369565b60405163d2edb6dd60e01b815290915060009073abc30d61d30f19de38897eba18252868b34596649063d2edb6dd90620011aa908990600080516020620055b58339815191529060040162004889565b60206040518083038186803b158015620011c357600080fd5b505afa158015620011d8573d6000803e3d6000fd5b505050506040513d601f19601f82011682018060405250810190620011fe919062004369565b905060006200120c620012c3565b905060006200121e8385601262002de3565b9050600081131562000fbb5762000fae6200123a888362004c72565b896001600160a01b031663313ce5676040518163ffffffff1660e01b815260040160206040518083038186803b1580156200127457600080fd5b505afa15801562001289573d6000803e3d6000fd5b505050506040513d601f19601f82011682018060405250810190620012af9190620047e5565b620012bc90601262004ae8565b8462002d63565b6000600080516020620055b5833981519152620012e860c9546001600160a01b031690565b6001600160a01b03161415620012fe5750601290565b60c9546001600160a01b03166001600160a01b031663313ce5676040518163ffffffff1660e01b815260040160206040518083038186803b1580156200134357600080fd5b505afa92505050801562001376575060408051601f3d908101601f191682019092526200137391810190620047e5565b60015b620013815750600090565b919050565b6000620008ac8262001951565b6060609b80546200080d9062004d94565b60003381620013b4828662002071565b905083811015620014165760405162461bcd60e51b815260206004820152602560248201527f45524332303a2064656372656173656420616c6c6f77616e63652062656c6f77604482015264207a65726f60d81b606482015260840162000929565b62001425828686840362002774565b506001949350505050565b600033620008a681858562002917565b610131546000908190815b8181101562000aff57600061013182815481106200146d576200146d62004e31565b6000918252602090912001546001600160a01b0316905062001494816200049d8162002aef565b620014a0908562004acd565b9350508080620014b09062004dd1565b9150506200144b565b604080518082018252600781526611d95b995c985b60ca1b6020820152610130549151635b6dde2b60e11b815233600482015290916001600160a01b031690819063b6dbbc569060240160206040518083038186803b1580156200151c57600080fd5b505afa15801562001531573d6000803e3d6000fd5b505050506040513d601f19601f82011682018060405250810190620015579190620046c1565b80620015f5575060405163031a79b160e61b81526001600160a01b0382169063c69e6c40906200158c908590600401620048ed565b60206040518083038186803b158015620015a557600080fd5b505afa158015620015ba573d6000803e3d6000fd5b505050506040513d601f19601f82011682018060405250810190620015e0919062004369565b6001600160a01b0316336001600160a01b0316145b60408051808201909152601081526f2230b79d1037b7363c9023b7bb32b93760811b60208201526200162890846200321e565b90620016495760405162461bcd60e51b8152600401620009299190620048ed565b50620016888484808060200260200160405190810160405280939291908181526020018383602002808284376000920191909152506200324c92505050565b50505050565b60006001600160a01b038316600080516020620055b58339815191521480620016d357506001600160a01b03831673b4fbf271143f4fbf7b91a5ded31805e42b2208d6145b15620016e1575080620008ac565b60008060008073abc30d61d30f19de38897eba18252868b34596646001600160a01b031663bcfd032d88600080516020620055b58339815191526040518363ffffffff1660e01b81526004016200173a92919062004889565b60a06040518083038186803b1580156200175357600080fd5b505afa15801562001768573d6000803e3d6000fd5b505050506040513d601f19601f820116820180604052508101906200178e919062004790565b945094505093509350600073abc30d61d30f19de38897eba18252868b34596646001600160a01b03166358e2d3a889600080516020620055b58339815191526040518363ffffffff1660e01b8152600401620017ec92919062004889565b60206040518083038186803b1580156200180557600080fd5b505afa1580156200181a573d6000803e3d6000fd5b505050506040513d601f19601f82011682018060405250810190620018409190620047e5565b9050846001600160501b0316826001600160501b03161015620018775760405162461bcd60e51b8152600401620009299062004979565b62001886620151808462004acd565b421115620018a85760405162461bcd60e51b8152600401620009299062004979565b620018b68482601262002d63565b9350600084131562000fbb5783886001600160a01b031663313ce5676040518163ffffffff1660e01b815260040160206040518083038186803b158015620018fd57600080fd5b505afa15801562001912573d6000803e3d6000fd5b505050506040513d601f19601f82011682018060405250810190620019389190620047e5565b6200194590600a62004bb2565b62000fa2908962004d03565b60006001600160a01b038216600080516020620055b583398151915214806200199657506001600160a01b03821673b4fbf271143f4fbf7b91a5ded31805e42b2208d6145b15620019a457506001919050565b60405163d2edb6dd60e01b815273abc30d61d30f19de38897eba18252868b34596649063d2edb6dd90620019ee908590600080516020620055b58339815191529060040162004889565b60206040518083038186803b15801562001a0757600080fd5b505afa92505050801562001a3a575060408051601f3d908101601f1916820190925262001a379181019062004369565b60015b62001a7a573d80801562001a6b576040519150601f19603f3d011682016040523d82523d6000602084013e62001a70565b606091505b5060009392505050565b50600192915050565b610131818154811062001a9557600080fd5b6000918252602090912001546001600160a01b0316905081565b33600090815260fd602052604090205460609060ff1662001b215760405162461bcd60e51b815260206004820152602560248201527f427564676574417070726f76616c45786563757465653a206163636573732064604482015264195b9a595960da1b606482015260840162000929565b600080856001600160a01b0316848660405162001b3f919062004838565b60006040518083038185875af1925050503d806000811462001b7e576040519150601f19603f3d011682016040523d82523d6000602084013e62001b83565b606091505b50915091508162001bf35762001bd862001b9d8262003295565b60408051808201909152601d81527f52657665727465642062792065787465726e616c20636f6e74726163740000006020820152906200321e565b60405162461bcd60e51b8152600401620009299190620048ed565b7fcf452d48646654954090c61dd69f99a99bea4e2264594078fc81bfd43d6f6a9e338660405162001c26929190620048c7565b60405180910390a195945050505050565b610130546001600160a01b03168162001c65336001600160a01b031660009081526097602052604090205490565b101562001caa5760405162461bcd60e51b81526020600482015260126024820152716e6f7420656e6f7567682062616c616e636560701b604482015260640162000929565b42816001600160a01b03166361c533b46040518163ffffffff1660e01b815260040160206040518083038186803b15801562001ce557600080fd5b505afa15801562001cfa573d6000803e3d6000fd5b505050506040513d601f19601f8201168201806040525081019062001d209190620046e5565b604051636cb7c6f960e01b81523360048201526001600160a01b03841690636cb7c6f99060240160206040518083038186803b15801562001d6057600080fd5b505afa15801562001d75573d6000803e3d6000fd5b505050506040513d601f19601f8201168201806040525081019062001d9b9190620046e5565b62001da7919062004acd565b111562001de55760405162461bcd60e51b815260206004820152600b60248201526a6c6f636b75702074696d6560a81b604482015260640162000929565b6101315460005b8181101562001e53576000610131828154811062001e0e5762001e0e62004e31565b6000918252602090912001546001600160a01b0316905062001e3d338262001e378189620008dc565b620032f7565b508062001e4a8162004dd1565b91505062001dec565b5062001e603384620033cc565b505050565b600054610100900460ff161580801562001e865750600054600160ff909116105b8062001ea25750303b15801562001ea2575060005460ff166001145b62001f075760405162461bcd60e51b815260206004820152602e60248201527f496e697469616c697a61626c653a20636f6e747261637420697320616c72656160448201526d191e481a5b9a5d1a585b1a5e995960921b606482015260840162000929565b6000805460ff19166001179055801562001f2b576000805461ff0019166101001790555b62001f736040518060400160405280600a815260200169131a5c5d5a59141bdbdb60b21b8152506040518060400160405280600281526020016104c560f41b81525062003520565b62001f7e8262003556565b61013080546001600160a01b0319166001600160a01b03861617905562001fa5836200324c565b62002024846001600160a01b03166385f2aef26040518163ffffffff1660e01b815260040160206040518083038186803b15801562001fe357600080fd5b505afa15801562001ff8573d6000803e3d6000fd5b505050506040513d601f19601f820116820180604052508101906200201e919062004369565b620035a2565b801562001688576000805461ff0019169055604051600181527f7f26b83ff96e1f2b6a682f133852f6798a09c465da95921460cefb3847402498906020015b60405180910390a150505050565b6001600160a01b03918216600090815260986020908152604080832093909416825291909152205490565b604080518082018252600781526611d95b995c985b60ca1b6020820152610130549151635b6dde2b60e11b815233600482015290916001600160a01b031690819063b6dbbc569060240160206040518083038186803b158015620020ff57600080fd5b505afa15801562002114573d6000803e3d6000fd5b505050506040513d601f19601f820116820180604052508101906200213a9190620046c1565b80620021d8575060405163031a79b160e61b81526001600160a01b0382169063c69e6c40906200216f908590600401620048ed565b60206040518083038186803b1580156200218857600080fd5b505afa1580156200219d573d6000803e3d6000fd5b505050506040513d601f19601f82011682018060405250810190620021c3919062004369565b6001600160a01b0316336001600160a01b0316145b60408051808201909152601081526f2230b79d1037b7363c9023b7bb32b93760811b60208201526200220b90846200321e565b906200222c5760405162461bcd60e51b8152600401620009299190620048ed565b5062001688848480806020026020016040519081016040528093929190818152602001838360200280828437600092019190915250620035ee92505050565b8051825114620022b35760405162461bcd60e51b8152602060048201526012602482015271496e636f72726563742043616c6c6461746160701b604482015260640162000929565b60005b825181101562001e6057620022e7838281518110620022d957620022d962004e31565b602002602001015162003637565b6000838281518110620022fe57620022fe62004e31565b60200260200101518383815181106200231b576200231b62004e31565b60200260200101516040516200233190620041a2565b6200233e929190620048c7565b604051809103906000f0801580156200235b573d6000803e3d6000fd5b506001600160a01b038116600090815260fd60205260409020805460ff1916600117905583519091507f26c79e13dd63e8716f130c25331c09f2fdd55d6880bbfa7bcc38868207e8a670908290859085908110620023bd57620023bd62004e31565b6020026020010151604051620023d5929190620048c7565b60405180910390a1806001600160a01b031663cf26fec66040518163ffffffff1660e01b8152600401600060405180830381600087803b1580156200241957600080fd5b505af11580156200242e573d6000803e3d6000fd5b50505050508080620024409062004dd1565b915050620022b6565b6000806200245660995490565b90508062002465575090919050565b6200246f62001440565b6200247b828562004d03565b620008d5919062004b44565b620024a1600080516020620055b583398151915262000b2f565b620024e35760405162461bcd60e51b8152602060048201526011602482015270185cdcd95d081b9bdd081cdd5c1c1bdc9d607a1b604482015260640162000929565b6000620024ef60995490565b905060006200250e600080516020620055b58339815191523462000fc9565b9050816200257f5762002522838262003888565b6200252e83826200396d565b7f5548c837ab068cf56a2c2479df0882a4922fd203edb7517321831d95078c5f6283600080516020620055b5833981519152346040516200257293929190620048a3565b60405180910390a1505050565b6000816200258c62001440565b62002598919062004d25565b9050620025be8482620025ac868662004d03565b620025b8919062004b44565b62003888565b620025ca84836200396d565b7f5548c837ab068cf56a2c2479df0882a4922fd203edb7517321831d95078c5f6284600080516020620055b5833981519152346040516200206393929190620048a3565b620026198262000b2f565b620026385760405162461bcd60e51b815260040162000929906200494e565b604051636eb1769f60e11b815281906001600160a01b0384169063dd62ed3e906200266a903390309060040162004889565b60206040518083038186803b1580156200268357600080fd5b505afa15801562002698573d6000803e3d6000fd5b505050506040513d601f19601f82011682018060405250810190620026be9190620046e5565b1015620026fc5760405162461bcd60e51b815260206004820152600b60248201526a6e6f7420617070726f766560a81b604482015260640162000929565b60006200270a838362000fc9565b90506200271c84620025b88362002449565b620027336001600160a01b038416333085620039da565b6200273f84826200396d565b7f5548c837ab068cf56a2c2479df0882a4922fd203edb7517321831d95078c5f628484846040516200206393929190620048a3565b6001600160a01b038316620027d85760405162461bcd60e51b8152602060048201526024808201527f45524332303a20617070726f76652066726f6d20746865207a65726f206164646044820152637265737360e01b606482015260840162000929565b6001600160a01b0382166200283b5760405162461bcd60e51b815260206004820152602260248201527f45524332303a20617070726f766520746f20746865207a65726f206164647265604482015261737360f01b606482015260840162000929565b6001600160a01b0383811660008181526098602090815260408083209487168084529482529182902085905590518481527f8c5be1e5ebec7d5bd14f71427d1e84f3dd0314c0f7b2291e5b200ac8c7c3b925910160405180910390a3505050565b6000620028aa848462002071565b90506000198114620016885781811015620029085760405162461bcd60e51b815260206004820152601d60248201527f45524332303a20696e73756666696369656e7420616c6c6f77616e6365000000604482015260640162000929565b62001688848484840362002774565b6001600160a01b0383166200297d5760405162461bcd60e51b815260206004820152602560248201527f45524332303a207472616e736665722066726f6d20746865207a65726f206164604482015264647265737360d81b606482015260840162000929565b6001600160a01b038216620029e15760405162461bcd60e51b815260206004820152602360248201527f45524332303a207472616e7366657220746f20746865207a65726f206164647260448201526265737360e81b606482015260840162000929565b6001600160a01b0383166000908152609760205260409020548181101562002a5b5760405162461bcd60e51b815260206004820152602660248201527f45524332303a207472616e7366657220616d6f756e7420657863656564732062604482015265616c616e636560d01b606482015260840162000929565b6001600160a01b0380851660009081526097602052604080822085850390559185168152908120805484929062002a9490849062004acd565b92505081905550826001600160a01b0316846001600160a01b03167fddf252ad1be2c89b69c2b068fc378daa952ba7f163c4a11628f55a4df523b3ef8460405162002ae191815260200190565b60405180910390a362001688565b60006001600160a01b038216600080516020620055b5833981519152141562002b19575047919050565b6040516370a0823160e01b81523060048201526001600160a01b038316906370a082319060240160206040518083038186803b15801562002b5957600080fd5b505afa15801562002b6e573d6000803e3d6000fd5b505050506040513d601f19601f82011682018060405250810190620008ac9190620046e5565b610130546001600160a01b0316331462000a835760405162461bcd60e51b81526020600482015260076024820152666e6f742064616f60c81b604482015260640162000929565b7f4910fdfa16fed3260ed0e7147f7cc6da11a60208b5b9406d12a635614ffd91435460ff161562002c115762001e608362003a36565b826001600160a01b03166352d1902d6040518163ffffffff1660e01b815260040160206040518083038186803b15801562002c4b57600080fd5b505afa92505050801562002c7e575060408051601f3d908101601f1916820190925262002c7b91810190620046e5565b60015b62002ce35760405162461bcd60e51b815260206004820152602e60248201527f45524331393637557067726164653a206e657720696d706c656d656e7461746960448201526d6f6e206973206e6f74205555505360901b606482015260840162000929565b60008051602062005595833981519152811462002d555760405162461bcd60e51b815260206004820152602960248201527f45524331393637557067726164653a20756e737570706f727465642070726f786044820152681a58589b195555525160ba1b606482015260840162000929565b5062001e6083838362003ad5565b60008160ff168360ff16101562002da45762002d80838362004d3f565b62002d909060ff16600a62004ba4565b62002d9c908562004c72565b9050620008d5565b8160ff168360ff16111562002ddb5762002dbf828462004d3f565b62002dcf9060ff16600a62004ba4565b62002d9c908562004b10565b509192915050565b600060ff82161580159062002dfc5750601260ff831611155b62002e3e5760405162461bcd60e51b8152602060048201526011602482015270496e76616c6964205f646563696d616c7360781b604482015260640162000929565b600062002e5060ff8416600a62004ba4565b9050600080600080886001600160a01b031663feaf968c6040518163ffffffff1660e01b815260040160a06040518083038186803b15801562002e9257600080fd5b505afa15801562002ea7573d6000803e3d6000fd5b505050506040513d601f19601f8201168201806040525081019062002ecd919062004790565b945094505093509350836001600160501b0316816001600160501b0316101562002f3a5760405162461bcd60e51b815260206004820152601c60248201527f5374616c6520707269636520696e20436861696e6c696e6b2031303400000000604482015260640162000929565b62002f49620151808362004acd565b42111562002f9a5760405162461bcd60e51b815260206004820152601c60248201527f5374616c6520707269636520696e20436861696e6c696e6b2031303500000000604482015260640162000929565b6000896001600160a01b031663313ce5676040518163ffffffff1660e01b815260040160206040518083038186803b15801562002fd657600080fd5b505afa15801562002feb573d6000803e3d6000fd5b505050506040513d601f19601f82011682018060405250810190620030119190620047e5565b90506200302084828a62002d63565b93506000806000808c6001600160a01b031663feaf968c6040518163ffffffff1660e01b815260040160a06040518083038186803b1580156200306257600080fd5b505afa15801562003077573d6000803e3d6000fd5b505050506040513d601f19601f820116820180604052508101906200309d919062004790565b945094505093509350836001600160501b0316816001600160501b031610156200310a5760405162461bcd60e51b815260206004820152601c60248201527f5374616c6520707269636520696e20436861696e6c696e6b2031313200000000604482015260640162000929565b62003119620151808362004acd565b4211156200316a5760405162461bcd60e51b815260206004820152601c60248201527f5374616c6520707269636520696e20436861696e6c696e6b2031313300000000604482015260640162000929565b60008d6001600160a01b031663313ce5676040518163ffffffff1660e01b815260040160206040518083038186803b158015620031a657600080fd5b505afa158015620031bb573d6000803e3d6000fd5b505050506040513d601f19601f82011682018060405250810190620031e19190620047e5565b9050620031f084828f62002d63565b935083620031ff8c8b62004c72565b6200320b919062004b10565b9f9e505050505050505050505050505050565b606082826040516020016200323592919062004856565b604051602081830303815290604052905092915050565b60005b815181101562000c26576200328082828151811062003272576200327262004e31565b602002602001015162003b00565b806200328c8162004dd1565b9150506200324f565b6060604482511015620032b657505060408051602081019091526000815290565b600482019150620008ac82806020019051810190620032d69190620046ff565b60408051808201909152600381526201016960ed1b6020820152906200321e565b6001600160a01b038216600080516020620055b58339815191521415620033b6576000836001600160a01b03168260405160006040518083038185875af1925050503d806000811462003367576040519150601f19603f3d011682016040523d82523d6000602084013e6200336c565b606091505b5050905080620016885760405162461bcd60e51b81526020600482015260146024820152732330b4b632b2103a379039b2b7321022ba3432b960611b604482015260640162000929565b62001e606001600160a01b038316848362003bd3565b6001600160a01b0382166200342e5760405162461bcd60e51b815260206004820152602160248201527f45524332303a206275726e2066726f6d20746865207a65726f206164647265736044820152607360f81b606482015260840162000929565b6001600160a01b03821660009081526097602052604090205481811015620034a45760405162461bcd60e51b815260206004820152602260248201527f45524332303a206275726e20616d6f756e7420657863656564732062616c616e604482015261636560f01b606482015260840162000929565b6001600160a01b0383166000908152609760205260408120838303905560998054849290620034d590849062004d25565b90915550506040518281526000906001600160a01b038516907fddf252ad1be2c89b69c2b068fc378daa952ba7f163c4a11628f55a4df523b3ef9060200160405180910390a3505050565b600054610100900460ff166200354a5760405162461bcd60e51b81526004016200092990620049fc565b62000c26828262003c05565b600054610100900460ff16620035805760405162461bcd60e51b81526004016200092990620049fc565b60c980546001600160a01b0319166001600160a01b0392909216919091179055565b600054610100900460ff16620035cc5760405162461bcd60e51b81526004016200092990620049fc565b60fc80546001600160a01b0319166001600160a01b0392909216919091179055565b60005b815181101562000c26576200362282828151811062003614576200361462004e31565b602002602001015162003c5a565b806200362e8162004dd1565b915050620035f1565b604080518082018252600781526611d95b995c985b60ca1b6020820152610130549151635b6dde2b60e11b815233600482015290916001600160a01b031690819063b6dbbc569060240160206040518083038186803b1580156200369a57600080fd5b505afa158015620036af573d6000803e3d6000fd5b505050506040513d601f19601f82011682018060405250810190620036d59190620046c1565b8062003773575060405163031a79b160e61b81526001600160a01b0382169063c69e6c40906200370a908590600401620048ed565b60206040518083038186803b1580156200372357600080fd5b505afa15801562003738573d6000803e3d6000fd5b505050506040513d601f19601f820116820180604052508101906200375e919062004369565b6001600160a01b0316336001600160a01b0316145b60408051808201909152601081526f2230b79d1037b7363c9023b7bb32b93760811b6020820152620037a690846200321e565b90620037c75760405162461bcd60e51b8152600401620009299190620048ed565b5061013054604051633b42d9af60e21b81526001600160a01b0385811660048301529091169063ed0b66bc9060240160206040518083038186803b1580156200380f57600080fd5b505afa15801562003824573d6000803e3d6000fd5b505050506040513d601f19601f820116820180604052508101906200384a9190620046c1565b62001e605760405162461bcd60e51b815260206004820152600d60248201526c1b9bdd081dda1a5d195b1a5cdd609a1b604482015260640162000929565b6001600160a01b038216620038e05760405162461bcd60e51b815260206004820152601f60248201527f45524332303a206d696e7420746f20746865207a65726f206164647265737300604482015260640162000929565b8060996000828254620038f4919062004acd565b90915550506001600160a01b038216600090815260976020526040812080548392906200392390849062004acd565b90915550506040518181526001600160a01b038316906000907fddf252ad1be2c89b69c2b068fc378daa952ba7f163c4a11628f55a4df523b3ef9060200160405180910390a35050565b61013054604051631c783fd360e31b81526001600160a01b038481166004830152602482018490529091169063e3c1fe9890604401600060405180830381600087803b158015620039bd57600080fd5b505af1158015620039d2573d6000803e3d6000fd5b505050505050565b62001688846323b872dd60e01b858585604051602401620039fe93929190620048a3565b60408051601f198184030181529190526020810180516001600160e01b03166001600160e01b03199093169290921790915262003e00565b6001600160a01b0381163b62003aa55760405162461bcd60e51b815260206004820152602d60248201527f455243313936373a206e657720696d706c656d656e746174696f6e206973206e60448201526c1bdd08184818dbdb9d1c9858dd609a1b606482015260840162000929565b6000805160206200559583398151915280546001600160a01b0319166001600160a01b0392909216919091179055565b62003ae08362003ed9565b60008251118062003aee5750805b1562001e605762001688838362003f1b565b62003b0b8162001386565b801562003b20575062003b1e8162000b2f565b155b62003b3f5760405162461bcd60e51b815260040162000929906200494e565b61013180546001810182557fbd987ad6ccdb7c7567f7335ea839f95dc944431abcf935b6924f70215963db730180546001600160a01b0319166001600160a01b03841690811790915590546000828152610132602090815260409182902092909255519182527f808665eda000f8d729f31a384bae411282aa3be62cb73ed74e2225e2eef7125d910160405180910390a150565b6040516001600160a01b03831660248201526044810182905262001e6090849063a9059cbb60e01b90606401620039fe565b600054610100900460ff1662003c2f5760405162461bcd60e51b81526004016200092990620049fc565b815162003c4490609a906020850190620041b0565b50805162001e6090609b906020840190620041b0565b62003c658162000b2f565b62003ca75760405162461bcd60e51b8152602060048201526011602482015270105cdcd95d081b9bdd081a5b881b1a5cdd607a1b604482015260640162000929565b6001600160a01b0381166000908152610132602052604081205462003ccf9060019062004d25565b610131805491925060009162003ce89060019062004d25565b8154811062003cfb5762003cfb62004e31565b60009182526020909120015461013180546001600160a01b03909216925082918490811062003d2e5762003d2e62004e31565b600091825260209091200180546001600160a01b0319166001600160a01b039290921691909117905562003d6482600162004acd565b6001600160a01b03808316600090815261013260205260408082209390935590851681529081205561013180548062003da15762003da162004e1b565b6000828152602090819020600019908301810180546001600160a01b03191690559091019091556040516001600160a01b03851681527f289634222e6533fbe86ba920f2c134b0c959102a872f93ccc13ca9346a93f2f9910162002572565b600062003e57826040518060400160405280602081526020017f5361666545524332303a206c6f772d6c6576656c2063616c6c206661696c6564815250856001600160a01b0316620040189092919063ffffffff16565b80519091501562001e60578080602001905181019062003e789190620046c1565b62001e605760405162461bcd60e51b815260206004820152602a60248201527f5361666545524332303a204552433230206f7065726174696f6e20646964206e6044820152691bdd081cdd58d8d9595960b21b606482015260840162000929565b62003ee48162003a36565b6040516001600160a01b038216907fbc7cd75a20ee27fd9adebab32041f755214dbc6bffa90cc0225b39da2e5c2d3b90600090a250565b60606001600160a01b0383163b62003f855760405162461bcd60e51b815260206004820152602660248201527f416464726573733a2064656c65676174652063616c6c20746f206e6f6e2d636f6044820152651b9d1c9858dd60d21b606482015260840162000929565b600080846001600160a01b03168460405162003fa2919062004838565b600060405180830381855af49150503d806000811462003fdf576040519150601f19603f3d011682016040523d82523d6000602084013e62003fe4565b606091505b50915091506200400f8282604051806060016040528060278152602001620055d56027913962004029565b95945050505050565b606062000992848460008562004067565b606083156200403a575081620008d5565b8251156200404b5782518084602001fd5b8160405162461bcd60e51b8152600401620009299190620048ed565b606082471015620040ca5760405162461bcd60e51b815260206004820152602660248201527f416464726573733a20696e73756666696369656e742062616c616e636520666f6044820152651c8818d85b1b60d21b606482015260840162000929565b6001600160a01b0385163b620041235760405162461bcd60e51b815260206004820152601d60248201527f416464726573733a2063616c6c20746f206e6f6e2d636f6e7472616374000000604482015260640162000929565b600080866001600160a01b0316858760405162004141919062004838565b60006040518083038185875af1925050503d806000811462004180576040519150601f19603f3d011682016040523d82523d6000602084013e62004185565b606091505b50915091506200419782828662004029565b979650505050505050565b6107218062004e7483390190565b828054620041be9062004d94565b90600052602060002090601f016020900481019282620041e257600085556200422d565b82601f10620041fd57805160ff19168380011785556200422d565b828001600101855582156200422d579182015b828111156200422d57825182559160200191906001019062004210565b506200423b9291506200423f565b5090565b5b808211156200423b576000815560010162004240565b600082601f8301126200426857600080fd5b81356020620042816200427b8362004a7b565b62004a47565b80838252828201915082860187848660051b8901011115620042a257600080fd5b60005b85811015620042ce578135620042bb8162004e5d565b84529284019290840190600101620042a5565b5090979650505050505050565b600082601f830112620042ed57600080fd5b8135620042fe6200427b8262004aa2565b8181528460208386010111156200431457600080fd5b816020850160208301376000918101602001919091529392505050565b80516001600160501b03811681146200138157600080fd5b6000602082840312156200435c57600080fd5b8135620008d58162004e5d565b6000602082840312156200437c57600080fd5b8151620008d58162004e5d565b600080604083850312156200439d57600080fd5b8235620043aa8162004e5d565b91506020830135620043bc8162004e5d565b809150509250929050565b600080600060608486031215620043dd57600080fd5b8335620043ea8162004e5d565b92506020840135620043fc8162004e5d565b929592945050506040919091013590565b6000806000606084860312156200442357600080fd5b8335620044308162004e5d565b9250602084013567ffffffffffffffff8111156200444d57600080fd5b6200445b8682870162004256565b92505060408401356200446e8162004e5d565b809150509250925092565b600080604083850312156200448d57600080fd5b82356200449a8162004e5d565b9150602083013567ffffffffffffffff811115620044b757600080fd5b620044c585828601620042db565b9150509250929050565b600080600060608486031215620044e557600080fd5b8335620044f28162004e5d565b9250602084013567ffffffffffffffff8111156200450f57600080fd5b6200451d86828701620042db565b925050604084013590509250925092565b600080604083850312156200454257600080fd5b82356200454f8162004e5d565b946020939093013593505050565b600080602083850312156200457157600080fd5b823567ffffffffffffffff808211156200458a57600080fd5b818501915085601f8301126200459f57600080fd5b813581811115620045af57600080fd5b8660208260051b8501011115620045c557600080fd5b60209290920196919550909350505050565b60008060408385031215620045eb57600080fd5b823567ffffffffffffffff808211156200460457600080fd5b620046128683870162004256565b93506020915081850135818111156200462a57600080fd5b8501601f810187136200463c57600080fd5b80356200464d6200427b8262004a7b565b8082825285820191508584018a878560051b87010111156200466e57600080fd5b6000805b85811015620046ae578235888111156200468a578283fd5b6200469a8e8b838b0101620042db565b865250938801939188019160010162004672565b5050508096505050505050509250929050565b600060208284031215620046d457600080fd5b81518015158114620008d557600080fd5b600060208284031215620046f857600080fd5b5051919050565b6000602082840312156200471257600080fd5b815167ffffffffffffffff8111156200472a57600080fd5b8201601f810184136200473c57600080fd5b80516200474d6200427b8262004aa2565b8181528560208385010111156200476357600080fd5b6200400f82602083016020860162004d65565b6000602082840312156200478957600080fd5b5035919050565b600080600080600060a08688031215620047a957600080fd5b620047b48662004331565b9450602086015193506040860151925060608601519150620047d96080870162004331565b90509295509295909350565b600060208284031215620047f857600080fd5b815160ff81168114620008d557600080fd5b600081518084526200482481602086016020860162004d65565b601f01601f19169290920160200192915050565b600082516200484c81846020870162004d65565b9190910192915050565b600083516200486a81846020880162004d65565b8351908301906200488081836020880162004d65565b01949350505050565b6001600160a01b0392831681529116602082015260400190565b6001600160a01b039384168152919092166020820152604081019190915260600190565b6001600160a01b038316815260406020820181905260009062000992908301846200480a565b602081526000620008d560208301846200480a565b6020808252602c908201527f46756e6374696f6e206d7573742062652063616c6c6564207468726f7567682060408201526b19195b1959d85d1958d85b1b60a21b606082015260800190565b602080825260119082015270105cdcd95d081b9bdd081cdd5c1c1bdc9d607a1b604082015260600190565b60208082526018908201527f5374616c6520707269636520696e20436861696e6c696e6b0000000000000000604082015260600190565b6020808252602c908201527f46756e6374696f6e206d7573742062652063616c6c6564207468726f7567682060408201526b6163746976652070726f787960a01b606082015260800190565b6020808252602b908201527f496e697469616c697a61626c653a20636f6e7472616374206973206e6f74206960408201526a6e697469616c697a696e6760a81b606082015260800190565b604051601f8201601f1916810167ffffffffffffffff8111828210171562004a735762004a7362004e47565b604052919050565b600067ffffffffffffffff82111562004a985762004a9862004e47565b5060051b60200190565b600067ffffffffffffffff82111562004abf5762004abf62004e47565b50601f01601f191660200190565b6000821982111562004ae35762004ae362004def565b500190565b600060ff821660ff84168060ff0382111562004b085762004b0862004def565b019392505050565b60008262004b225762004b2262004e05565b600160ff1b82146000198414161562004b3f5762004b3f62004def565b500590565b60008262004b565762004b5662004e05565b500490565b600181815b8085111562004b9c57816000190482111562004b805762004b8062004def565b8085161562004b8e57918102915b93841c939080029062004b60565b509250929050565b6000620008d5838362004bbe565b6000620008d560ff8416835b60008262004bcf57506001620008ac565b8162004bde57506000620008ac565b816001811462004bf7576002811462004c025762004c22565b6001915050620008ac565b60ff84111562004c165762004c1662004def565b50506001821b620008ac565b5060208310610133831016604e8410600b841016171562004c47575081810a620008ac565b62004c53838362004b5b565b806000190482111562004c6a5762004c6a62004def565b029392505050565b60006001600160ff1b038184138284138082168684048611161562004c9b5762004c9b62004def565b600160ff1b600087128281168783058912161562004cbd5762004cbd62004def565b6000871292508782058712848416161562004cdc5762004cdc62004def565b8785058712818416161562004cf55762004cf562004def565b505050929093029392505050565b600081600019048311821515161562004d205762004d2062004def565b500290565b60008282101562004d3a5762004d3a62004def565b500390565b600060ff821660ff84168082101562004d5c5762004d5c62004def565b90039392505050565b60005b8381101562004d8257818101518382015260200162004d68565b83811115620016885750506000910152565b600181811c9082168062004da957607f821691505b6020821081141562004dcb57634e487b7160e01b600052602260045260246000fd5b50919050565b600060001982141562004de85762004de862004def565b5060010190565b634e487b7160e01b600052601160045260246000fd5b634e487b7160e01b600052601260045260246000fd5b634e487b7160e01b600052603160045260246000fd5b634e487b7160e01b600052603260045260246000fd5b634e487b7160e01b600052604160045260246000fd5b6001600160a01b038116811462000a8357600080fdfe6080604052604051610721380380610721833981016040819052610022916102d2565b61002e82826000610035565b5050610431565b61003e8361006b565b60008251118061004b5750805b156100665761006483836100ab60201b6100291760201c565b505b505050565b610074816100d7565b6040516001600160a01b038216907fbc7cd75a20ee27fd9adebab32041f755214dbc6bffa90cc0225b39da2e5c2d3b90600090a250565b60606100d083836040518060600160405280602781526020016106fa602791396101a9565b9392505050565b6100ea8161028760201b6100551760201c565b6101515760405162461bcd60e51b815260206004820152602d60248201527f455243313936373a206e657720696d706c656d656e746174696f6e206973206e60448201526c1bdd08184818dbdb9d1c9858dd609a1b60648201526084015b60405180910390fd5b806101887f360894a13ba1a3210667c828492db98dca3e2076cc3735a920a3ca505d382bbc60001b61029660201b6100641760201c565b80546001600160a01b0319166001600160a01b039290921691909117905550565b60606001600160a01b0384163b6102115760405162461bcd60e51b815260206004820152602660248201527f416464726573733a2064656c65676174652063616c6c20746f206e6f6e2d636f6044820152651b9d1c9858dd60d21b6064820152608401610148565b600080856001600160a01b03168560405161022c91906103a0565b600060405180830381855af49150503d8060008114610267576040519150601f19603f3d011682016040523d82523d6000602084013e61026c565b606091505b50909250905061027d828286610299565b9695505050505050565b6001600160a01b03163b151590565b90565b606083156102a85750816100d0565b8251156102b85782518084602001fd5b8160405162461bcd60e51b815260040161014891906103bc565b600080604083850312156102e557600080fd5b82516001600160a01b03811681146102fc57600080fd5b60208401519092506001600160401b038082111561031957600080fd5b818501915085601f83011261032d57600080fd5b81518181111561033f5761033f61041b565b604051601f8201601f19908116603f011681019083821181831017156103675761036761041b565b8160405282815288602084870101111561038057600080fd5b6103918360208301602088016103ef565b80955050505050509250929050565b600082516103b28184602087016103ef565b9190910192915050565b60208152600082518060208401526103db8160408501602087016103ef565b601f01601f19169190910160400192915050565b60005b8381101561040a5781810151838201526020016103f2565b838111156100645750506000910152565b634e487b7160e01b600052604160045260246000fd5b6102ba806104406000396000f3fe60806040523661001357610011610017565b005b6100115b610027610022610067565b61009f565b565b606061004e838360405180606001604052806027815260200161025e602791396100c3565b9392505050565b6001600160a01b03163b151590565b90565b600061009a7f360894a13ba1a3210667c828492db98dca3e2076cc3735a920a3ca505d382bbc546001600160a01b031690565b905090565b3660008037600080366000845af43d6000803e8080156100be573d6000f35b3d6000fd5b60606001600160a01b0384163b6101305760405162461bcd60e51b815260206004820152602660248201527f416464726573733a2064656c65676174652063616c6c20746f206e6f6e2d636f6044820152651b9d1c9858dd60d21b60648201526084015b60405180910390fd5b600080856001600160a01b03168560405161014b91906101de565b600060405180830381855af49150503d8060008114610186576040519150601f19603f3d011682016040523d82523d6000602084013e61018b565b606091505b509150915061019b8282866101a5565b9695505050505050565b606083156101b457508161004e565b8251156101c45782518084602001fd5b8160405162461bcd60e51b815260040161012791906101fa565b600082516101f081846020870161022d565b9190910192915050565b602081526000825180602084015261021981604085016020870161022d565b601f01601f19169190910160400192915050565b60005b83811015610248578181015183820152602001610230565b83811115610257576000848401525b5050505056fe416464726573733a206c6f772d6c6576656c2064656c65676174652063616c6c206661696c6564a2646970667358221220fb537d1df0a2f3ea0050d30fb82ca020f06a83116d3853b9eda518a67b0c9be764736f6c63430008070033416464726573733a206c6f772d6c6576656c2064656c65676174652063616c6c206661696c6564360894a13ba1a3210667c828492db98dca3e2076cc3735a920a3ca505d382bbc000000000000000000000000eeeeeeeeeeeeeeeeeeeeeeeeeeeeeeeeeeeeeeee416464726573733a206c6f772d6c6576656c2064656c65676174652063616c6c206661696c6564a2646970667358221220aa08fbf973977a0076d77c5dd1c395cdb777bc70dc2bfb5d45f6dc2b50e9962664736f6c63430008070033",
  "devdoc": {
    "kind": "dev",
    "methods": {
      "allowance(address,address)": {
        "details": "See {IERC20-allowance}."
      },
      "approve(address,uint256)": {
        "details": "See {IERC20-approve}. NOTE: If `amount` is the maximum `uint256`, the allowance is not updated on `transferFrom`. This is semantically equivalent to an infinite approval. Requirements: - `spender` cannot be the zero address."
      },
      "balanceOf(address)": {
        "details": "See {IERC20-balanceOf}."
      },
      "constructor": {
        "custom:oz-upgrades-unsafe-allow": "constructor"
      },
      "decimals()": {
        "details": "Returns the number of decimals used to get its user representation. For example, if `decimals` equals `2`, a balance of `505` tokens should be displayed to a user as `5.05` (`505 / 10 ** 2`). Tokens usually opt for a value of 18, imitating the relationship between Ether and Wei. This is the value {ERC20} uses, unless this function is overridden; NOTE: This information is only used for _display_ purposes: it in no way affects any of the arithmetic of the contract, including {IERC20-balanceOf} and {IERC20-transfer}."
      },
      "decreaseAllowance(address,uint256)": {
        "details": "Atomically decreases the allowance granted to `spender` by the caller. This is an alternative to {approve} that can be used as a mitigation for problems described in {IERC20-approve}. Emits an {Approval} event indicating the updated allowance. Requirements: - `spender` cannot be the zero address. - `spender` must have allowance for the caller of at least `subtractedValue`."
      },
      "increaseAllowance(address,uint256)": {
        "details": "Atomically increases the allowance granted to `spender` by the caller. This is an alternative to {approve} that can be used as a mitigation for problems described in {IERC20-approve}. Emits an {Approval} event indicating the updated allowance. Requirements: - `spender` cannot be the zero address."
      },
      "name()": {
        "details": "Returns the name of the token."
      },
      "proxiableUUID()": {
        "details": "Implementation of the ERC1822 {proxiableUUID} function. This returns the storage slot used by the implementation. It is used to validate that the this implementation remains valid after an upgrade. IMPORTANT: A proxy pointing at a proxiable contract should not be considered proxiable itself, because this risks bricking a proxy that upgrades to it, by delegating to itself until out of gas. Thus it is critical that this function revert if invoked through a proxy. This is guaranteed by the `notDelegated` modifier."
      },
      "symbol()": {
        "details": "Returns the symbol of the token, usually a shorter version of the name."
      },
      "totalSupply()": {
        "details": "See {IERC20-totalSupply}."
      },
      "transfer(address,uint256)": {
        "details": "See {IERC20-transfer}. Requirements: - `to` cannot be the zero address. - the caller must have a balance of at least `amount`."
      },
      "transferFrom(address,address,uint256)": {
        "details": "See {IERC20-transferFrom}. Emits an {Approval} event indicating the updated allowance. This is not required by the EIP. See the note at the beginning of {ERC20}. NOTE: Does not update the allowance if the current allowance is the maximum `uint256`. Requirements: - `from` and `to` cannot be the zero address. - `from` must have a balance of at least `amount`. - the caller must have allowance for ``from``'s tokens of at least `amount`."
      },
      "upgradeTo(address)": {
        "details": "Upgrade the implementation of the proxy to `newImplementation`. Calls {_authorizeUpgrade}. Emits an {Upgraded} event."
      },
      "upgradeToAndCall(address,bytes)": {
        "details": "Upgrade the implementation of the proxy to `newImplementation`, and subsequently execute the function call encoded in `data`. Calls {_authorizeUpgrade}. Emits an {Upgraded} event."
      }
    },
    "version": 1
  },
  "userdoc": {
    "kind": "user",
    "methods": {
      "assetBaseCurrencyPrice(address,uint256)": {
        "notice": "This function is imported by other contract, thus cannot be external"
      },
      "canResolvePrice(address)": {
        "notice": "This function is imported by other contract, thus cannot be external"
      }
    },
    "version": 1
  },
  "storageLayout": {
    "storage": [
      {
        "astId": 3247,
        "contract": "contracts/LiquidPool.sol:LiquidPool",
        "label": "_initialized",
        "offset": 0,
        "slot": "0",
        "type": "t_uint8"
      },
      {
        "astId": 3250,
        "contract": "contracts/LiquidPool.sol:LiquidPool",
        "label": "_initializing",
        "offset": 1,
        "slot": "0",
        "type": "t_bool"
      },
      {
        "astId": 3229,
        "contract": "contracts/LiquidPool.sol:LiquidPool",
        "label": "__gap",
        "offset": 0,
        "slot": "1",
        "type": "t_array(t_uint256)50_storage"
      },
      {
        "astId": 3526,
        "contract": "contracts/LiquidPool.sol:LiquidPool",
        "label": "__gap",
        "offset": 0,
        "slot": "51",
        "type": "t_array(t_uint256)50_storage"
      },
      {
        "astId": 8642,
        "contract": "contracts/LiquidPool.sol:LiquidPool",
        "label": "__gap",
        "offset": 0,
        "slot": "101",
        "type": "t_array(t_uint256)50_storage"
      },
      {
        "astId": 5094,
        "contract": "contracts/LiquidPool.sol:LiquidPool",
        "label": "_balances",
        "offset": 0,
        "slot": "151",
        "type": "t_mapping(t_address,t_uint256)"
      },
      {
        "astId": 5100,
        "contract": "contracts/LiquidPool.sol:LiquidPool",
        "label": "_allowances",
        "offset": 0,
        "slot": "152",
        "type": "t_mapping(t_address,t_mapping(t_address,t_uint256))"
      },
      {
        "astId": 5102,
        "contract": "contracts/LiquidPool.sol:LiquidPool",
        "label": "_totalSupply",
        "offset": 0,
        "slot": "153",
        "type": "t_uint256"
      },
      {
        "astId": 5104,
        "contract": "contracts/LiquidPool.sol:LiquidPool",
        "label": "_name",
        "offset": 0,
        "slot": "154",
        "type": "t_string_storage"
      },
      {
        "astId": 5106,
        "contract": "contracts/LiquidPool.sol:LiquidPool",
        "label": "_symbol",
        "offset": 0,
        "slot": "155",
        "type": "t_string_storage"
      },
      {
        "astId": 5685,
        "contract": "contracts/LiquidPool.sol:LiquidPool",
        "label": "__gap",
        "offset": 0,
        "slot": "156",
        "type": "t_array(t_uint256)45_storage"
      },
      {
        "astId": 28435,
        "contract": "contracts/LiquidPool.sol:LiquidPool",
        "label": "_baseCurrency",
        "offset": 0,
        "slot": "201",
        "type": "t_address"
      },
      {
        "astId": 29073,
        "contract": "contracts/LiquidPool.sol:LiquidPool",
        "label": "__gap",
        "offset": 0,
        "slot": "202",
        "type": "t_array(t_uint256)50_storage"
      },
      {
        "astId": 27340,
        "contract": "contracts/LiquidPool.sol:LiquidPool",
        "label": "_team",
        "offset": 0,
        "slot": "252",
        "type": "t_address"
      },
      {
        "astId": 27344,
        "contract": "contracts/LiquidPool.sol:LiquidPool",
        "label": "_budgetApprovals",
        "offset": 0,
        "slot": "253",
        "type": "t_mapping(t_address,t_bool)"
      },
      {
        "astId": 27548,
        "contract": "contracts/LiquidPool.sol:LiquidPool",
        "label": "__gap",
        "offset": 0,
        "slot": "254",
        "type": "t_array(t_uint256)50_storage"
      },
      {
        "astId": 23514,
        "contract": "contracts/LiquidPool.sol:LiquidPool",
        "label": "dao",
        "offset": 0,
        "slot": "304",
        "type": "t_contract(IDao)30755"
      },
      {
        "astId": 23517,
        "contract": "contracts/LiquidPool.sol:LiquidPool",
        "label": "assets",
        "offset": 0,
        "slot": "305",
        "type": "t_array(t_address)dyn_storage"
      },
      {
        "astId": 23521,
        "contract": "contracts/LiquidPool.sol:LiquidPool",
        "label": "_assetIndex",
        "offset": 0,
        "slot": "306",
        "type": "t_mapping(t_address,t_uint256)"
      },
      {
        "astId": 24356,
        "contract": "contracts/LiquidPool.sol:LiquidPool",
        "label": "__gap",
        "offset": 0,
        "slot": "307",
        "type": "t_array(t_uint256)50_storage"
      }
    ],
    "types": {
      "t_address": {
        "encoding": "inplace",
        "label": "address",
        "numberOfBytes": "20"
      },
      "t_array(t_address)dyn_storage": {
        "base": "t_address",
        "encoding": "dynamic_array",
        "label": "address[]",
        "numberOfBytes": "32"
      },
      "t_array(t_uint256)45_storage": {
        "base": "t_uint256",
        "encoding": "inplace",
        "label": "uint256[45]",
        "numberOfBytes": "1440"
      },
      "t_array(t_uint256)50_storage": {
        "base": "t_uint256",
        "encoding": "inplace",
        "label": "uint256[50]",
        "numberOfBytes": "1600"
      },
      "t_bool": {
        "encoding": "inplace",
        "label": "bool",
        "numberOfBytes": "1"
      },
      "t_contract(IDao)30755": {
        "encoding": "inplace",
        "label": "contract IDao",
        "numberOfBytes": "20"
      },
      "t_mapping(t_address,t_bool)": {
        "encoding": "mapping",
        "key": "t_address",
        "label": "mapping(address => bool)",
        "numberOfBytes": "32",
        "value": "t_bool"
      },
      "t_mapping(t_address,t_mapping(t_address,t_uint256))": {
        "encoding": "mapping",
        "key": "t_address",
        "label": "mapping(address => mapping(address => uint256))",
        "numberOfBytes": "32",
        "value": "t_mapping(t_address,t_uint256)"
      },
      "t_mapping(t_address,t_uint256)": {
        "encoding": "mapping",
        "key": "t_address",
        "label": "mapping(address => uint256)",
        "numberOfBytes": "32",
        "value": "t_uint256"
      },
      "t_string_storage": {
        "encoding": "bytes",
        "label": "string",
        "numberOfBytes": "32"
      },
      "t_uint256": {
        "encoding": "inplace",
        "label": "uint256",
        "numberOfBytes": "32"
      },
      "t_uint8": {
        "encoding": "inplace",
        "label": "uint8",
        "numberOfBytes": "1"
      }
    }
  }
}