{
  "address": "0x0797b6142ce6E41c893791Aa2fE59578B34932D9",
  "abi": [
    {
      "inputs": [],
      "stateMutability": "nonpayable",
      "type": "constructor"
    },
    {
      "inputs": [],
      "name": "AccountingSystemRequired",
      "type": "error"
    },
    {
      "inputs": [
        {
          "internalType": "address",
          "name": "token",
          "type": "address"
        }
      ],
      "name": "AssetAlreadyAdded",
      "type": "error"
    },
    {
      "inputs": [
        {
          "internalType": "address",
          "name": "token",
          "type": "address"
        }
      ],
      "name": "AssetNotFound",
      "type": "error"
    },
    {
      "inputs": [],
      "name": "BlockedByLocktime",
      "type": "error"
    },
    {
      "inputs": [
        {
          "internalType": "address",
          "name": "budgetApproval",
          "type": "address"
        }
      ],
      "name": "BudgetApprovalNotExists",
      "type": "error"
    },
    {
      "inputs": [
        {
          "internalType": "uint256",
          "name": "count1",
          "type": "uint256"
        },
        {
          "internalType": "uint256",
          "name": "count2",
          "type": "uint256"
        }
      ],
      "name": "InputLengthNotMatch",
      "type": "error"
    },
    {
      "inputs": [],
      "name": "InvalidAmount",
      "type": "error"
    },
    {
      "inputs": [],
      "name": "OnlyBudgetApproval",
      "type": "error"
    },
    {
      "inputs": [
        {
          "internalType": "address",
          "name": "asset",
          "type": "address"
        },
        {
          "internalType": "address",
          "name": "base",
          "type": "address"
        }
      ],
      "name": "PairNotSupport",
      "type": "error"
    },
    {
      "inputs": [
        {
          "internalType": "address",
          "name": "template",
          "type": "address"
        }
      ],
      "name": "TemplateNotWhitelisted",
      "type": "error"
    },
    {
      "inputs": [
        {
          "internalType": "bytes",
          "name": "result",
          "type": "bytes"
        }
      ],
      "name": "TransferFailed",
      "type": "error"
    },
    {
      "inputs": [
        {
          "internalType": "address",
          "name": "token",
          "type": "address"
        }
      ],
      "name": "UnsupportedAsset",
      "type": "error"
    },
    {
      "anonymous": false,
      "inputs": [
        {
          "indexed": false,
          "internalType": "address",
          "name": "token",
          "type": "address"
        }
      ],
      "name": "AllowDepositToken",
      "type": "event"
    },
    {
      "anonymous": false,
      "inputs": [
        {
          "indexed": true,
          "internalType": "address",
          "name": "owner",
          "type": "address"
        },
        {
          "indexed": true,
          "internalType": "address",
          "name": "spender",
          "type": "address"
        },
        {
          "indexed": false,
          "internalType": "uint256",
          "name": "value",
          "type": "uint256"
        }
      ],
      "name": "Approval",
      "type": "event"
    },
    {
      "anonymous": false,
      "inputs": [
        {
          "indexed": false,
          "internalType": "address",
          "name": "budgetApproval",
          "type": "address"
        },
        {
          "indexed": false,
          "internalType": "bytes",
          "name": "data",
          "type": "bytes"
        }
      ],
      "name": "CreateBudgetApproval",
      "type": "event"
    },
    {
      "anonymous": false,
      "inputs": [
        {
          "indexed": false,
          "internalType": "address",
          "name": "account",
          "type": "address"
        },
        {
          "indexed": false,
          "internalType": "address",
          "name": "token",
          "type": "address"
        },
        {
          "indexed": false,
          "internalType": "uint256",
          "name": "depositAmount",
          "type": "uint256"
        }
      ],
      "name": "Deposit",
      "type": "event"
    },
    {
      "anonymous": false,
      "inputs": [
        {
          "indexed": false,
          "internalType": "address",
          "name": "token",
          "type": "address"
        }
      ],
      "name": "DisallowDepositToken",
      "type": "event"
    },
    {
      "anonymous": false,
      "inputs": [
        {
          "indexed": false,
          "internalType": "address",
          "name": "budgetApproval",
          "type": "address"
        },
        {
          "indexed": false,
          "internalType": "bytes",
          "name": "data",
          "type": "bytes"
        }
      ],
      "name": "ExecuteByBudgetApproval",
      "type": "event"
    },
    {
      "anonymous": false,
      "inputs": [
        {
          "indexed": false,
          "internalType": "uint8",
          "name": "version",
          "type": "uint8"
        }
      ],
      "name": "Initialized",
      "type": "event"
    },
    {
      "anonymous": false,
      "inputs": [
        {
          "indexed": true,
          "internalType": "address",
          "name": "previousOwner",
          "type": "address"
        },
        {
          "indexed": true,
          "internalType": "address",
          "name": "newOwner",
          "type": "address"
        }
      ],
      "name": "OwnershipTransferred",
      "type": "event"
    },
    {
      "anonymous": false,
      "inputs": [
        {
          "indexed": false,
          "internalType": "address",
          "name": "budgetApproval",
          "type": "address"
        }
      ],
      "name": "RevokeBudgetApproval",
      "type": "event"
    },
    {
      "anonymous": false,
      "inputs": [
        {
          "indexed": true,
          "internalType": "address",
          "name": "from",
          "type": "address"
        },
        {
          "indexed": true,
          "internalType": "address",
          "name": "to",
          "type": "address"
        },
        {
          "indexed": false,
          "internalType": "uint256",
          "name": "value",
          "type": "uint256"
        }
      ],
      "name": "Transfer",
      "type": "event"
    },
    {
      "inputs": [],
      "name": "accountingSystem",
      "outputs": [
        {
          "internalType": "address",
          "name": "",
          "type": "address"
        }
      ],
      "stateMutability": "view",
      "type": "function"
    },
    {
      "inputs": [
        {
          "internalType": "address[]",
          "name": "erc20s",
          "type": "address[]"
        }
      ],
      "name": "addAssets",
      "outputs": [],
      "stateMutability": "nonpayable",
      "type": "function"
    },
    {
      "inputs": [
        {
          "internalType": "address",
          "name": "owner",
          "type": "address"
        },
        {
          "internalType": "address",
          "name": "spender",
          "type": "address"
        }
      ],
      "name": "allowance",
      "outputs": [
        {
          "internalType": "uint256",
          "name": "",
          "type": "uint256"
        }
      ],
      "stateMutability": "view",
      "type": "function"
    },
    {
      "inputs": [
        {
          "internalType": "address",
          "name": "spender",
          "type": "address"
        },
        {
          "internalType": "uint256",
          "name": "amount",
          "type": "uint256"
        }
      ],
      "name": "approve",
      "outputs": [
        {
          "internalType": "bool",
          "name": "",
          "type": "bool"
        }
      ],
      "stateMutability": "nonpayable",
      "type": "function"
    },
    {
      "inputs": [
        {
          "internalType": "address",
          "name": "asset",
          "type": "address"
        },
        {
          "internalType": "uint256",
          "name": "amount",
          "type": "uint256"
        }
      ],
      "name": "assetBaseCurrencyPrice",
      "outputs": [
        {
          "internalType": "uint256",
          "name": "",
          "type": "uint256"
        }
      ],
      "stateMutability": "view",
      "type": "function"
    },
    {
      "inputs": [
        {
          "internalType": "address",
          "name": "asset",
          "type": "address"
        },
        {
          "internalType": "address",
          "name": "base",
          "type": "address"
        },
        {
          "internalType": "uint256",
          "name": "amount",
          "type": "uint256"
        }
      ],
      "name": "assetPrice",
      "outputs": [
        {
          "internalType": "uint256",
          "name": "",
          "type": "uint256"
        }
      ],
      "stateMutability": "view",
      "type": "function"
    },
    {
      "inputs": [
        {
          "internalType": "uint256",
          "name": "",
          "type": "uint256"
        }
      ],
      "name": "assets",
      "outputs": [
        {
          "internalType": "address",
          "name": "",
          "type": "address"
        }
      ],
      "stateMutability": "view",
      "type": "function"
    },
    {
      "inputs": [],
      "name": "assetsLength",
      "outputs": [
        {
          "internalType": "uint256",
          "name": "",
          "type": "uint256"
        }
      ],
      "stateMutability": "view",
      "type": "function"
    },
    {
      "inputs": [
        {
          "internalType": "address",
          "name": "asset",
          "type": "address"
        },
        {
          "internalType": "uint256",
          "name": "amount",
          "type": "uint256"
        }
      ],
      "name": "assetsShares",
      "outputs": [
        {
          "internalType": "uint256",
          "name": "",
          "type": "uint256"
        }
      ],
      "stateMutability": "view",
      "type": "function"
    },
    {
      "inputs": [
        {
          "internalType": "address",
          "name": "account",
          "type": "address"
        }
      ],
      "name": "balanceOf",
      "outputs": [
        {
          "internalType": "uint256",
          "name": "",
          "type": "uint256"
        }
      ],
      "stateMutability": "view",
      "type": "function"
    },
    {
      "inputs": [],
      "name": "baseCurrency",
      "outputs": [
        {
          "internalType": "address",
          "name": "",
          "type": "address"
        }
      ],
      "stateMutability": "view",
      "type": "function"
    },
    {
      "inputs": [],
      "name": "baseCurrencyDecimals",
      "outputs": [
        {
          "internalType": "uint8",
          "name": "",
          "type": "uint8"
        }
      ],
      "stateMutability": "view",
      "type": "function"
    },
    {
      "inputs": [
        {
          "internalType": "address",
          "name": "template",
          "type": "address"
        }
      ],
      "name": "budgetApprovals",
      "outputs": [
        {
          "internalType": "bool",
          "name": "",
          "type": "bool"
        }
      ],
      "stateMutability": "view",
      "type": "function"
    },
    {
      "inputs": [
        {
          "internalType": "address",
          "name": "asset",
          "type": "address"
        }
      ],
      "name": "canAddAsset",
      "outputs": [
        {
          "internalType": "bool",
          "name": "",
          "type": "bool"
        }
      ],
      "stateMutability": "view",
      "type": "function"
    },
    {
      "inputs": [
        {
          "internalType": "address",
          "name": "asset",
          "type": "address"
        }
      ],
      "name": "canResolvePrice",
      "outputs": [
        {
          "internalType": "bool",
          "name": "",
          "type": "bool"
        }
      ],
      "stateMutability": "view",
      "type": "function"
    },
    {
      "inputs": [
        {
          "internalType": "address[]",
          "name": "__budgetApprovals",
          "type": "address[]"
        },
        {
          "internalType": "bytes[]",
          "name": "data",
          "type": "bytes[]"
        }
      ],
      "name": "createBudgetApprovals",
      "outputs": [],
      "stateMutability": "nonpayable",
      "type": "function"
    },
    {
      "inputs": [],
      "name": "decimals",
      "outputs": [
        {
          "internalType": "uint8",
          "name": "",
          "type": "uint8"
        }
      ],
      "stateMutability": "view",
      "type": "function"
    },
    {
      "inputs": [
        {
          "internalType": "address",
          "name": "spender",
          "type": "address"
        },
        {
          "internalType": "uint256",
          "name": "subtractedValue",
          "type": "uint256"
        }
      ],
      "name": "decreaseAllowance",
      "outputs": [
        {
          "internalType": "bool",
          "name": "",
          "type": "bool"
        }
      ],
      "stateMutability": "nonpayable",
      "type": "function"
    },
    {
      "inputs": [
        {
          "internalType": "address",
          "name": "receiver",
          "type": "address"
        }
      ],
      "name": "deposit",
      "outputs": [],
      "stateMutability": "payable",
      "type": "function"
    },
    {
      "inputs": [
        {
          "internalType": "address",
          "name": "receiver",
          "type": "address"
        },
        {
          "internalType": "address",
          "name": "asset",
          "type": "address"
        },
        {
          "internalType": "uint256",
          "name": "amount",
          "type": "uint256"
        }
      ],
      "name": "depositToken",
      "outputs": [],
      "stateMutability": "nonpayable",
      "type": "function"
    },
    {
      "inputs": [
        {
          "internalType": "address",
          "name": "_to",
          "type": "address"
        },
        {
          "internalType": "bytes",
          "name": "_data",
          "type": "bytes"
        },
        {
          "internalType": "uint256",
          "name": "_value",
          "type": "uint256"
        }
      ],
      "name": "executeByBudgetApproval",
      "outputs": [
        {
          "internalType": "bytes",
          "name": "",
          "type": "bytes"
        }
      ],
      "stateMutability": "nonpayable",
      "type": "function"
    },
    {
      "inputs": [
        {
          "internalType": "address",
          "name": "spender",
          "type": "address"
        },
        {
          "internalType": "uint256",
          "name": "addedValue",
          "type": "uint256"
        }
      ],
      "name": "increaseAllowance",
      "outputs": [
        {
          "internalType": "bool",
          "name": "",
          "type": "bool"
        }
      ],
      "stateMutability": "nonpayable",
      "type": "function"
    },
    {
      "inputs": [
        {
          "internalType": "address[]",
          "name": "depositTokens",
          "type": "address[]"
        },
        {
          "internalType": "address",
          "name": "__baseCurrency",
          "type": "address"
        }
      ],
      "name": "initialize",
      "outputs": [],
      "stateMutability": "nonpayable",
      "type": "function"
    },
    {
      "inputs": [
        {
          "internalType": "address",
          "name": "asset",
          "type": "address"
        }
      ],
      "name": "isAssetSupported",
      "outputs": [
        {
          "internalType": "bool",
          "name": "",
          "type": "bool"
        }
      ],
      "stateMutability": "view",
      "type": "function"
    },
    {
      "inputs": [],
      "name": "name",
      "outputs": [
        {
          "internalType": "string",
          "name": "",
          "type": "string"
        }
      ],
      "stateMutability": "view",
      "type": "function"
    },
    {
      "inputs": [],
      "name": "owner",
      "outputs": [
        {
          "internalType": "address",
          "name": "",
          "type": "address"
        }
      ],
      "stateMutability": "view",
      "type": "function"
    },
    {
      "inputs": [
        {
          "internalType": "uint256",
          "name": "amount",
          "type": "uint256"
        }
      ],
      "name": "quote",
      "outputs": [
        {
          "internalType": "uint256",
          "name": "",
          "type": "uint256"
        }
      ],
      "stateMutability": "view",
      "type": "function"
    },
    {
      "inputs": [
        {
          "internalType": "uint256",
          "name": "amount",
          "type": "uint256"
        }
      ],
      "name": "redeem",
      "outputs": [],
      "stateMutability": "nonpayable",
      "type": "function"
    },
    {
      "inputs": [
        {
          "internalType": "address[]",
          "name": "erc20s",
          "type": "address[]"
        }
      ],
      "name": "removeAssets",
      "outputs": [],
      "stateMutability": "nonpayable",
      "type": "function"
    },
    {
      "inputs": [],
      "name": "renounceOwnership",
      "outputs": [],
      "stateMutability": "nonpayable",
      "type": "function"
    },
    {
      "inputs": [
        {
          "internalType": "address[]",
          "name": "__budgetApprovals",
          "type": "address[]"
        }
      ],
      "name": "revokeBudgetApprovals",
      "outputs": [],
      "stateMutability": "nonpayable",
      "type": "function"
    },
    {
      "inputs": [],
      "name": "symbol",
      "outputs": [
        {
          "internalType": "string",
          "name": "",
          "type": "string"
        }
      ],
      "stateMutability": "view",
      "type": "function"
    },
    {
      "inputs": [],
      "name": "team",
      "outputs": [
        {
          "internalType": "address",
          "name": "",
          "type": "address"
        }
      ],
      "stateMutability": "view",
      "type": "function"
    },
    {
      "inputs": [],
      "name": "totalPrice",
      "outputs": [
        {
          "internalType": "uint256",
          "name": "",
          "type": "uint256"
        }
      ],
      "stateMutability": "view",
      "type": "function"
    },
    {
      "inputs": [],
      "name": "totalPriceInEth",
      "outputs": [
        {
          "internalType": "uint256",
          "name": "",
          "type": "uint256"
        }
      ],
      "stateMutability": "view",
      "type": "function"
    },
    {
      "inputs": [],
      "name": "totalSupply",
      "outputs": [
        {
          "internalType": "uint256",
          "name": "",
          "type": "uint256"
        }
      ],
      "stateMutability": "view",
      "type": "function"
    },
    {
      "inputs": [
        {
          "internalType": "address",
          "name": "to",
          "type": "address"
        },
        {
          "internalType": "uint256",
          "name": "amount",
          "type": "uint256"
        }
      ],
      "name": "transfer",
      "outputs": [
        {
          "internalType": "bool",
          "name": "",
          "type": "bool"
        }
      ],
      "stateMutability": "nonpayable",
      "type": "function"
    },
    {
      "inputs": [
        {
          "internalType": "address",
          "name": "from",
          "type": "address"
        },
        {
          "internalType": "address",
          "name": "to",
          "type": "address"
        },
        {
          "internalType": "uint256",
          "name": "amount",
          "type": "uint256"
        }
      ],
      "name": "transferFrom",
      "outputs": [
        {
          "internalType": "bool",
          "name": "",
          "type": "bool"
        }
      ],
      "stateMutability": "nonpayable",
      "type": "function"
    },
    {
      "inputs": [
        {
          "internalType": "address",
          "name": "newOwner",
          "type": "address"
        }
      ],
      "name": "transferOwnership",
      "outputs": [],
      "stateMutability": "nonpayable",
      "type": "function"
    },
    {
      "stateMutability": "payable",
      "type": "receive"
    }
  ],
  "transactionHash": "0xf2cdef975198c3e478b87d97120157446720b80ef5bdc64b1d8a2de5c5bbf7c5",
  "args": [],
  "numDeployments": 2,
  "solcInputHash": "e9f5c2c82b7c036751b143f26333d555",
  "bytecode": "0x60806040523480156200001157600080fd5b506200001c62000022565b620000e4565b600054610100900460ff16156200008f5760405162461bcd60e51b815260206004820152602760248201527f496e697469616c697a61626c653a20636f6e747261637420697320696e697469604482015266616c697a696e6760c81b606482015260840160405180910390fd5b60005460ff9081161015620000e2576000805460ff191660ff9081179091556040519081527f7f26b83ff96e1f2b6a682f133852f6798a09c465da95921460cefb38474024989060200160405180910390a15b565b613c5480620000f46000396000f3fe608060405260043610620002635760003560e01c806395d89b411162000147578063db006a7511620000b9578063ed1bd76c1162000078578063ed1bd76c1462000754578063f2fde38b1462000779578063f340fa01146200079e578063f50477a214620007b5578063fb0f97a814620007cc57600080fd5b8063db006a75146200069b578063dd62ed3e14620006c0578063df30e97c14620006e5578063df79812e146200070a578063e019c23c146200072f57600080fd5b8063aea321c61162000106578063aea321c614620005e2578063bc9c5e901462000607578063cf35bdd0146200062c578063d00e8ed01462000651578063d3abc28b146200067657600080fd5b806395d89b41146200052b578063a240663e1462000543578063a457c2d71462000580578063a9059cbb14620005a5578063ab0d92dd14620005ca57600080fd5b8063464b415811620001e157806370a0823111620001a057806370a082311462000481578063715018a614620004bb57806385f2aef214620004d35780638da5cb5b14620004eb57806392a85fde146200050b57600080fd5b8063464b415814620003c9578063608e091214620003ee57806360d8bb22146200041f57806363d727dc14620004445780636f7a4b23146200045c57600080fd5b806330c88fd7116200022e57806330c88fd7146200031c578063313ce567146200034157806337dde58a146200036557806339509351146200037d578063462d0b2e14620003a257600080fd5b806306fdde031462000270578063095ea7b314620002a057806318160ddd14620002d657806323b872dd14620002f757600080fd5b366200026b57005b600080fd5b3480156200027d57600080fd5b5062000288620007f1565b604051620002979190620032a5565b60405180910390f35b348015620002ad57600080fd5b50620002c5620002bf36600462002ecf565b6200088b565b604051901515815260200162000297565b348015620002e357600080fd5b506035545b60405190815260200162000297565b3480156200030457600080fd5b50620002c56200031636600462002e2a565b620008a7565b3480156200032957600080fd5b50620002e86200033b36600462002ecf565b620008d1565b3480156200034e57600080fd5b5060125b60405160ff909116815260200162000297565b3480156200037257600080fd5b50620002e862000979565b3480156200038a57600080fd5b50620002c56200039c36600462002ecf565b62000a0d565b348015620003af57600080fd5b50620003c7620003c136600462002fb1565b62000a35565b005b348015620003d657600080fd5b50620002c5620003e836600462002dac565b62000bfb565b348015620003fb57600080fd5b506200040662000c18565b6040516001600160a01b03909116815260200162000297565b3480156200042c57600080fd5b50620002e86200043e36600462002ecf565b62000c9d565b3480156200045157600080fd5b506200035262000e46565b3480156200046957600080fd5b50620002c56200047b36600462002dac565b62000f0a565b3480156200048e57600080fd5b50620002e8620004a036600462002dac565b6001600160a01b031660009081526033602052604090205490565b348015620004c857600080fd5b50620003c762000f17565b348015620004e057600080fd5b506200040662000f2f565b348015620004f857600080fd5b506098546001600160a01b031662000406565b3480156200051857600080fd5b5060ca546001600160a01b031662000406565b3480156200053857600080fd5b506200028862000f74565b3480156200055057600080fd5b50620002c56200056236600462002dac565b6001600160a01b031660009081526065602052604090205460ff1690565b3480156200058d57600080fd5b50620002c56200059f36600462002ecf565b62000f85565b348015620005b257600080fd5b50620002c5620005c436600462002ecf565b62001011565b348015620005d757600080fd5b50620002e862001021565b348015620005ef57600080fd5b50620003c76200060136600462002efe565b62001098565b3480156200061457600080fd5b50620002c56200062636600462002dac565b620010e4565b3480156200063957600080fd5b50620004066200064b36600462003183565b62001194565b3480156200065e57600080fd5b50620003c76200067036600462002f78565b620011bf565b3480156200068357600080fd5b50620002886200069536600462002e70565b620012ae565b348015620006a857600080fd5b50620003c7620006ba36600462003183565b620013f8565b348015620006cd57600080fd5b50620002e8620006df36600462002dec565b620015ce565b348015620006f257600080fd5b50620003c76200070436600462002efe565b620015f9565b3480156200071757600080fd5b50620003c76200072936600462002ffe565b62001641565b3480156200073c57600080fd5b50620002e86200074e36600462002e2a565b62001808565b3480156200076157600080fd5b50620002e86200077336600462003183565b6200190c565b3480156200078657600080fd5b50620003c76200079836600462002dac565b6200194a565b620003c7620007af36600462002dac565b620019c9565b348015620007c257600080fd5b5060cb54620002e8565b348015620007d957600080fd5b50620003c7620007eb36600462002e2a565b62001b58565b606060368054620008029062003434565b80601f0160208091040260200160405190810160405280929190818152602001828054620008309062003434565b8015620008815780601f10620008555761010080835404028352916020019162000881565b820191906000526020600020905b8154815290600101906020018083116200086357829003601f168201915b5050505050905090565b6000336200089b81858562001c05565b60019150505b92915050565b600033620008b785828562001d2d565b620008c485858562001dae565b60019150505b9392505050565b600080620008de60355490565b905080831115620009025760405163162908e360e11b815260040160405180910390fd5b6200090d8462000bfb565b6200093b5760405163ee84f40b60e01b81526001600160a01b03851660048201526024015b60405180910390fd5b806200094c576000915050620008a1565b8083620009598662001f86565b620009659190620033c9565b620009719190620033a6565b949350505050565b60cb546000908190815b8181101562000a0557600060cb8281548110620009a457620009a4620034bb565b6000918252602090912001546001600160a01b03169050620009e08173eeeeeeeeeeeeeeeeeeeeeeeeeeeeeeeeeeeeeeee6200074e8262001f86565b620009ec90856200338b565b9350508080620009fc9062003471565b91505062000983565b509092915050565b6000336200089b81858562000a238383620015ce565b62000a2f91906200338b565b62001c05565b600054610100900460ff161580801562000a565750600054600160ff909116105b8062000a725750303b15801562000a72575060005460ff166001145b62000ad75760405162461bcd60e51b815260206004820152602e60248201527f496e697469616c697a61626c653a20636f6e747261637420697320616c72656160448201526d191e481a5b9a5d1a585b1a5e995960921b606482015260840162000932565b6000805460ff19166001179055801562000afb576000805461ff0019166101001790555b62000b0562002030565b62000b2262000b1362000c18565b6001600160a01b03163b151590565b62000b405760405163da11b66d60e01b815260040160405180910390fd5b62000b886040518060400160405280600a815260200169131a5c5d5a59141bdbdb60b21b8152506040518060400160405280600281526020016104c560f41b81525062002064565b60ca80546001600160a01b0319166001600160a01b03841617905562000bae836200209a565b801562000bf6576000805461ff0019169055604051600181527f7f26b83ff96e1f2b6a682f133852f6798a09c465da95921460cefb3847402498906020015b60405180910390a15b505050565b6001600160a01b0316600090815260cc6020526040902054151590565b600062000c24620020e3565b6001600160a01b031663608e09126040518163ffffffff1660e01b815260040160206040518083038186803b15801562000c5d57600080fd5b505afa15801562000c72573d6000803e3d6000fd5b505050506040513d601f19601f8201168201806040525081019062000c98919062002dcc565b905090565b60008062000cb360ca546001600160a01b031690565b9050600062000cc162000c18565b905062000ccd62000c18565b6001600160a01b031663ce58da338662000cef60ca546001600160a01b031690565b6040516001600160e01b031960e085901b1681526001600160a01b0392831660048201529116602482015260440160206040518083038186803b15801562000d3657600080fd5b505afa15801562000d4b573d6000803e3d6000fd5b505050506040513d601f19601f8201168201806040525081019062000d719190620030e8565b62000db7578462000d8a60ca546001600160a01b031690565b604051633d487fe560e11b81526001600160a01b0392831660048201529116602482015260440162000932565b604051633806708f60e21b81526001600160a01b0382169063e019c23c9062000de9908890869089906004016200325b565b60206040518083038186803b15801562000e0257600080fd5b505afa15801562000e17573d6000803e3d6000fd5b505050506040513d601f19601f8201168201806040525081019062000e3d91906200319d565b95945050505050565b60008062000e5c60ca546001600160a01b031690565b90506001600160a01b03811673eeeeeeeeeeeeeeeeeeeeeeeeeeeeeeeeeeeeeeee141562000e8c57601291505090565b806001600160a01b031663313ce5676040518163ffffffff1660e01b815260040160206040518083038186803b15801562000ec657600080fd5b505afa92505050801562000ef9575060408051601f3d908101601f1916820190925262000ef691810190620031b7565b60015b620008a157600091505090565b5090565b6000620008a182620010e4565b62000f21620020f8565b62000f2d600062002154565b565b600062000f3b620020e3565b6001600160a01b03166385f2aef26040518163ffffffff1660e01b815260040160206040518083038186803b15801562000c5d57600080fd5b606060378054620008029062003434565b6000338162000f958286620015ce565b90508381101562000ff75760405162461bcd60e51b815260206004820152602560248201527f45524332303a2064656372656173656420616c6c6f77616e63652062656c6f77604482015264207a65726f60d81b606482015260840162000932565b62001006828686840362001c05565b506001949350505050565b6000336200089b81858562001dae565b60cb546000908190815b8181101562000a0557600060cb82815481106200104c576200104c620034bb565b6000918252602090912001546001600160a01b0316905062001073816200043e8162001f86565b6200107f90856200338b565b93505080806200108f9062003471565b9150506200102b565b620010a2620020f8565b620010e08282808060200260200160405190810160405280939291908181526020018383602002808284376000920191909152506200209a92505050565b5050565b6000620010f062000c18565b6001600160a01b031663ce58da33836200111260ca546001600160a01b031690565b6040516001600160e01b031960e085901b1681526001600160a01b0392831660048201529116602482015260440160206040518083038186803b1580156200115957600080fd5b505afa1580156200116e573d6000803e3d6000fd5b505050506040513d601f19601f82011682018060405250810190620008a19190620030e8565b60cb8181548110620011a557600080fd5b6000918252602090912001546001600160a01b0316905081565b60005b8151811015620010e0576000828281518110620011e357620011e3620034bb565b6020908102919091018101516001600160a01b0381166000908152606590925260409091205490915060ff16620012395760405163122ab6a960e21b81526001600160a01b038216600482015260240162000932565b6200124481620021a6565b6001600160a01b038116600081815260656020908152604091829020805460ff1916905590519182527f3562b8c49e34d53119756b2b8b55a910ed22c2cda0d3b07398510d804c2dc621910160405180910390a15080620012a58162003471565b915050620011c2565b3360009081526065602052604090205460609060ff16620012e257604051639d5b229960e01b815260040160405180910390fd5b600080856001600160a01b031684866040516200130091906200320a565b60006040518083038185875af1925050503d80600081146200133f576040519150601f19603f3d011682016040523d82523d6000602084013e62001344565b606091505b509150915081620013b457620013996200135e82620021b0565b6040805180820190915260208082527f52657665727465642062792065787465726e616c20636f6e7472616374202d209082015290620021ed565b60405162461bcd60e51b8152600401620009329190620032a5565b7fcf452d48646654954090c61dd69f99a99bea4e2264594078fc81bfd43d6f6a9e3386604051620013e79291906200327f565b60405180910390a195945050505050565b600062001404620020e3565b33600090815260336020526040902054909150821115620014385760405163162908e360e11b815260040160405180910390fd5b42816001600160a01b03166361c533b46040518163ffffffff1660e01b815260040160206040518083038186803b1580156200147357600080fd5b505afa15801562001488573d6000803e3d6000fd5b505050506040513d601f19601f82011682018060405250810190620014ae91906200319d565b604051636cb7c6f960e01b81523360048201526001600160a01b03841690636cb7c6f99060240160206040518083038186803b158015620014ee57600080fd5b505afa15801562001503573d6000803e3d6000fd5b505050506040513d601f19601f820116820180604052508101906200152991906200319d565b6200153591906200338b565b11156200155557604051631a874cc960e11b815260040160405180910390fd5b60cb5460005b81811015620015c157600060cb82815481106200157c576200157c620034bb565b6000918252602090912001546001600160a01b03169050620015ab3382620015a58189620008d1565b6200221b565b5080620015b88162003471565b9150506200155b565b5062000bf63384620022db565b6001600160a01b03918216600090815260346020908152604080832093909416825291909152205490565b62001603620020f8565b620010e08282808060200260200160405190810160405280939291908181526020018383602002808284376000920191909152506200242f92505050565b80518251146200167257815181516040516341a0572360e01b81526004810192909252602482015260440162000932565b60005b825181101562000bf657620016a6838281518110620016985762001698620034bb565b602002602001015162002478565b6000838281518110620016bd57620016bd620034bb565b6020026020010151838381518110620016da57620016da620034bb565b6020026020010151604051620016f09062002c27565b620016fd9291906200327f565b604051809103906000f0801580156200171a573d6000803e3d6000fd5b506001600160a01b0381166000908152606560205260409020805460ff1916600117905583519091507f26c79e13dd63e8716f130c25331c09f2fdd55d6880bbfa7bcc38868207e8a6709082908590859081106200177c576200177c620034bb565b6020026020010151604051620017949291906200327f565b60405180910390a1806001600160a01b031663cf26fec66040518163ffffffff1660e01b8152600401600060405180830381600087803b158015620017d857600080fd5b505af1158015620017ed573d6000803e3d6000fd5b50505050508080620017ff9062003471565b91505062001675565b6000806200181562000c18565b90506200182162000c18565b60405163ce58da3360e01b81526001600160a01b0387811660048301528681166024830152919091169063ce58da339060440160206040518083038186803b1580156200186d57600080fd5b505afa15801562001882573d6000803e3d6000fd5b505050506040513d601f19601f82011682018060405250810190620018a89190620030e8565b620018da57604051633d487fe560e11b81526001600160a01b0380871660048301528516602482015260440162000932565b604051633806708f60e21b81526001600160a01b0382169063e019c23c9062000de9908890889088906004016200325b565b6000806200191960355490565b90508062001928575090919050565b6200193262001021565b6200193e8285620033c9565b620008ca9190620033a6565b62001954620020f8565b6001600160a01b038116620019bb5760405162461bcd60e51b815260206004820152602660248201527f4f776e61626c653a206e6577206f776e657220697320746865207a65726f206160448201526564647265737360d01b606482015260840162000932565b620019c68162002154565b50565b620019e873eeeeeeeeeeeeeeeeeeeeeeeeeeeeeeeeeeeeeeee62000bfb565b62001a1d5760405163ee84f40b60e01b815273eeeeeeeeeeeeeeeeeeeeeeeeeeeeeeeeeeeeeeee600482015260240162000932565b600062001a2960355490565b9050600062001a4d73eeeeeeeeeeeeeeeeeeeeeeeeeeeeeeeeeeeeeeee3462000c9d565b90508162001ab65762001a61838262002535565b62001a6d83826200261a565b7f5548c837ab068cf56a2c2479df0882a4922fd203edb7517321831d95078c5f628373eeeeeeeeeeeeeeeeeeeeeeeeeeeeeeeeeeeeeeee3460405162000bed939291906200325b565b60008162001ac362001021565b62001acf9190620033eb565b905062001af5848262001ae38686620033c9565b62001aef9190620033a6565b62002535565b62001b0184836200261a565b7f5548c837ab068cf56a2c2479df0882a4922fd203edb7517321831d95078c5f628473eeeeeeeeeeeeeeeeeeeeeeeeeeeeeeeeeeeeeeee3460405162001b4a939291906200325b565b60405180910390a150505050565b62001b638262000bfb565b62001b8d5760405163ee84f40b60e01b81526001600160a01b038316600482015260240162000932565b600062001b9b838362000c9d565b905062001bad8462001aef836200190c565b62001bc46001600160a01b0384163330856200268e565b62001bd084826200261a565b7f5548c837ab068cf56a2c2479df0882a4922fd203edb7517321831d95078c5f6284848460405162001b4a939291906200325b565b6001600160a01b03831662001c695760405162461bcd60e51b8152602060048201526024808201527f45524332303a20617070726f76652066726f6d20746865207a65726f206164646044820152637265737360e01b606482015260840162000932565b6001600160a01b03821662001ccc5760405162461bcd60e51b815260206004820152602260248201527f45524332303a20617070726f766520746f20746865207a65726f206164647265604482015261737360f01b606482015260840162000932565b6001600160a01b0383811660008181526034602090815260408083209487168084529482529182902085905590518481527f8c5be1e5ebec7d5bd14f71427d1e84f3dd0314c0f7b2291e5b200ac8c7c3b925910160405180910390a3505050565b600062001d3b8484620015ce565b9050600019811462001da8578181101562001d995760405162461bcd60e51b815260206004820152601d60248201527f45524332303a20696e73756666696369656e7420616c6c6f77616e6365000000604482015260640162000932565b62001da8848484840362001c05565b50505050565b6001600160a01b03831662001e145760405162461bcd60e51b815260206004820152602560248201527f45524332303a207472616e736665722066726f6d20746865207a65726f206164604482015264647265737360d81b606482015260840162000932565b6001600160a01b03821662001e785760405162461bcd60e51b815260206004820152602360248201527f45524332303a207472616e7366657220746f20746865207a65726f206164647260448201526265737360e81b606482015260840162000932565b6001600160a01b0383166000908152603360205260409020548181101562001ef25760405162461bcd60e51b815260206004820152602660248201527f45524332303a207472616e7366657220616d6f756e7420657863656564732062604482015265616c616e636560d01b606482015260840162000932565b6001600160a01b0380851660009081526033602052604080822085850390559185168152908120805484929062001f2b9084906200338b565b92505081905550826001600160a01b0316846001600160a01b03167fddf252ad1be2c89b69c2b068fc378daa952ba7f163c4a11628f55a4df523b3ef8460405162001f7891815260200190565b60405180910390a362001da8565b60006001600160a01b03821673eeeeeeeeeeeeeeeeeeeeeeeeeeeeeeeeeeeeeeee141562001fb5575047919050565b6040516370a0823160e01b81523060048201526001600160a01b038316906370a082319060240160206040518083038186803b15801562001ff557600080fd5b505afa1580156200200a573d6000803e3d6000fd5b505050506040513d601f19601f82011682018060405250810190620008a191906200319d565b600054610100900460ff166200205a5760405162461bcd60e51b81526004016200093290620032ba565b62000f2d620026ea565b600054610100900460ff166200208e5760405162461bcd60e51b81526004016200093290620032ba565b620010e082826200271f565b60005b8151811015620010e057620020ce828281518110620020c057620020c0620034bb565b602002602001015162002774565b80620020da8162003471565b9150506200209d565b600062000c986098546001600160a01b031690565b6098546001600160a01b0316331462000f2d5760405162461bcd60e51b815260206004820181905260248201527f4f776e61626c653a2063616c6c6572206973206e6f7420746865206f776e6572604482015260640162000932565b609880546001600160a01b038381166001600160a01b0319831681179093556040519116919082907f8be0079c531659141344cd1fd0a4f28419497f9722a3daafe3b4186f6b6457e090600090a35050565b620019c6620020f8565b6060604482511015620021d157505060408051602081019091526000815290565b60048201915081806020019051810190620008a191906200310c565b606082826040516020016200220492919062003228565b604051602081830303815290604052905092915050565b6001600160a01b03821673eeeeeeeeeeeeeeeeeeeeeeeeeeeeeeeeeeeeeeee1415620022c557600080846001600160a01b03168360405160006040518083038185875af1925050503d806000811462002291576040519150601f19603f3d011682016040523d82523d6000602084013e62002296565b606091505b509150915081620022be5780604051639a367e1760e01b8152600401620009329190620032a5565b5050505050565b62000bf66001600160a01b038316848362002871565b6001600160a01b0382166200233d5760405162461bcd60e51b815260206004820152602160248201527f45524332303a206275726e2066726f6d20746865207a65726f206164647265736044820152607360f81b606482015260840162000932565b6001600160a01b03821660009081526033602052604090205481811015620023b35760405162461bcd60e51b815260206004820152602260248201527f45524332303a206275726e20616d6f756e7420657863656564732062616c616e604482015261636560f01b606482015260840162000932565b6001600160a01b0383166000908152603360205260408120838303905560358054849290620023e4908490620033eb565b90915550506040518281526000906001600160a01b038516907fddf252ad1be2c89b69c2b068fc378daa952ba7f163c4a11628f55a4df523b3ef9060200160405180910390a3505050565b60005b8151811015620010e05762002463828281518110620024555762002455620034bb565b6020026020010151620028a3565b806200246f8162003471565b91505062002432565b62002482620020f8565b6200248c620020e3565b604051633b42d9af60e21b81526001600160a01b038381166004830152919091169063ed0b66bc9060240160206040518083038186803b158015620024d057600080fd5b505afa158015620024e5573d6000803e3d6000fd5b505050506040513d601f19601f820116820180604052508101906200250b9190620030e8565b620019c657604051635ef0ef1560e01b81526001600160a01b038216600482015260240162000932565b6001600160a01b0382166200258d5760405162461bcd60e51b815260206004820152601f60248201527f45524332303a206d696e7420746f20746865207a65726f206164647265737300604482015260640162000932565b8060356000828254620025a191906200338b565b90915550506001600160a01b03821660009081526033602052604081208054839290620025d09084906200338b565b90915550506040518181526001600160a01b038316906000907fddf252ad1be2c89b69c2b068fc378daa952ba7f163c4a11628f55a4df523b3ef9060200160405180910390a35050565b62002624620020e3565b604051631c783fd360e31b81526001600160a01b03848116600483015260248201849052919091169063e3c1fe9890604401600060405180830381600087803b1580156200267157600080fd5b505af115801562002686573d6000803e3d6000fd5b505050505050565b62001da8846323b872dd60e01b858585604051602401620026b2939291906200325b565b60408051601f198184030181529190526020810180516001600160e01b03166001600160e01b03199093169290921790915262002a2c565b600054610100900460ff16620027145760405162461bcd60e51b81526004016200093290620032ba565b62000f2d3362002154565b600054610100900460ff16620027495760405162461bcd60e51b81526004016200093290620032ba565b81516200275e90603690602085019062002c35565b50805162000bf690603790602084019062002c35565b6200277f8162000bfb565b15620027aa5760405163371d045b60e21b81526001600160a01b038216600482015260240162000932565b620027b58162000f0a565b620027df5760405163ee84f40b60e01b81526001600160a01b038216600482015260240162000932565b60cb80546001810182557fa7ce836d032b2bf62b7e2097a8e0a6d8aeb35405ad15271e96d3b0188a1d06fb0180546001600160a01b0319166001600160a01b0384169081179091559054600082815260cc602090815260409182902092909255519182527f808665eda000f8d729f31a384bae411282aa3be62cb73ed74e2225e2eef7125d910160405180910390a150565b6040516001600160a01b03831660248201526044810182905262000bf690849063a9059cbb60e01b90606401620026b2565b620028ae8162000bfb565b620028d85760405163067c787f60e41b81526001600160a01b038216600482015260240162000932565b6001600160a01b038116600090815260cc6020526040812054620028ff90600190620033eb565b60cb80549192506000916200291790600190620033eb565b815481106200292a576200292a620034bb565b60009182526020909120015460cb80546001600160a01b0390921692508291849081106200295c576200295c620034bb565b600091825260209091200180546001600160a01b0319166001600160a01b0392909216919091179055620029928260016200338b565b6001600160a01b03808316600090815260cc60205260408082209390935590851681529081205560cb805480620029cd57620029cd620034a5565b6000828152602090819020600019908301810180546001600160a01b03191690559091019091556040516001600160a01b03851681527f289634222e6533fbe86ba920f2c134b0c959102a872f93ccc13ca9346a93f2f9910162000bed565b600062002a83826040518060400160405280602081526020017f5361666545524332303a206c6f772d6c6576656c2063616c6c206661696c6564815250856001600160a01b031662002b059092919063ffffffff16565b80519091501562000bf6578080602001905181019062002aa49190620030e8565b62000bf65760405162461bcd60e51b815260206004820152602a60248201527f5361666545524332303a204552433230206f7065726174696f6e20646964206e6044820152691bdd081cdd58d8d9595960b21b606482015260840162000932565b6060620009718484600085856001600160a01b0385163b62002b6a5760405162461bcd60e51b815260206004820152601d60248201527f416464726573733a2063616c6c20746f206e6f6e2d636f6e7472616374000000604482015260640162000932565b600080866001600160a01b0316858760405162002b8891906200320a565b60006040518083038185875af1925050503d806000811462002bc7576040519150601f19603f3d011682016040523d82523d6000602084013e62002bcc565b606091505b509150915062002bde82828662002be9565b979650505050505050565b6060831562002bfa575081620008ca565b82511562002c0b5782518084602001fd5b8160405162461bcd60e51b8152600401620009329190620032a5565b61072180620034fe83390190565b82805462002c439062003434565b90600052602060002090601f01602090048101928262002c67576000855562002cb2565b82601f1062002c8257805160ff191683800117855562002cb2565b8280016001018555821562002cb2579182015b8281111562002cb257825182559160200191906001019062002c95565b5062000f069291505b8082111562000f06576000815560010162002cbb565b600082601f83011262002ce357600080fd5b8135602062002cfc62002cf68362003339565b62003305565b80838252828201915082860187848660051b890101111562002d1d57600080fd5b60005b8581101562002d4957813562002d3681620034e7565b8452928401929084019060010162002d20565b5090979650505050505050565b600082601f83011262002d6857600080fd5b813562002d7962002cf68262003360565b81815284602083860101111562002d8f57600080fd5b816020850160208301376000918101602001919091529392505050565b60006020828403121562002dbf57600080fd5b8135620008ca81620034e7565b60006020828403121562002ddf57600080fd5b8151620008ca81620034e7565b6000806040838503121562002e0057600080fd5b823562002e0d81620034e7565b9150602083013562002e1f81620034e7565b809150509250929050565b60008060006060848603121562002e4057600080fd5b833562002e4d81620034e7565b9250602084013562002e5f81620034e7565b929592945050506040919091013590565b60008060006060848603121562002e8657600080fd5b833562002e9381620034e7565b9250602084013567ffffffffffffffff81111562002eb057600080fd5b62002ebe8682870162002d56565b925050604084013590509250925092565b6000806040838503121562002ee357600080fd5b823562002ef081620034e7565b946020939093013593505050565b6000806020838503121562002f1257600080fd5b823567ffffffffffffffff8082111562002f2b57600080fd5b818501915085601f83011262002f4057600080fd5b81358181111562002f5057600080fd5b8660208260051b850101111562002f6657600080fd5b60209290920196919550909350505050565b60006020828403121562002f8b57600080fd5b813567ffffffffffffffff81111562002fa357600080fd5b620009718482850162002cd1565b6000806040838503121562002fc557600080fd5b823567ffffffffffffffff81111562002fdd57600080fd5b62002feb8582860162002cd1565b925050602083013562002e1f81620034e7565b600080604083850312156200301257600080fd5b823567ffffffffffffffff808211156200302b57600080fd5b620030398683870162002cd1565b93506020915081850135818111156200305157600080fd5b8501601f810187136200306357600080fd5b80356200307462002cf68262003339565b8082825285820191508584018a878560051b87010111156200309557600080fd5b6000805b85811015620030d557823588811115620030b1578283fd5b620030c18e8b838b010162002d56565b865250938801939188019160010162003099565b5050508096505050505050509250929050565b600060208284031215620030fb57600080fd5b81518015158114620008ca57600080fd5b6000602082840312156200311f57600080fd5b815167ffffffffffffffff8111156200313757600080fd5b8201601f810184136200314957600080fd5b80516200315a62002cf68262003360565b8181528560208385010111156200317057600080fd5b62000e3d82602083016020860162003405565b6000602082840312156200319657600080fd5b5035919050565b600060208284031215620031b057600080fd5b5051919050565b600060208284031215620031ca57600080fd5b815160ff81168114620008ca57600080fd5b60008151808452620031f681602086016020860162003405565b601f01601f19169290920160200192915050565b600082516200321e81846020870162003405565b9190910192915050565b600083516200323c81846020880162003405565b8351908301906200325281836020880162003405565b01949350505050565b6001600160a01b039384168152919092166020820152604081019190915260600190565b6001600160a01b03831681526040602082018190526000906200097190830184620031dc565b602081526000620008ca6020830184620031dc565b6020808252602b908201527f496e697469616c697a61626c653a20636f6e7472616374206973206e6f74206960408201526a6e697469616c697a696e6760a81b606082015260800190565b604051601f8201601f1916810167ffffffffffffffff81118282101715620033315762003331620034d1565b604052919050565b600067ffffffffffffffff821115620033565762003356620034d1565b5060051b60200190565b600067ffffffffffffffff8211156200337d576200337d620034d1565b50601f01601f191660200190565b60008219821115620033a157620033a16200348f565b500190565b600082620033c457634e487b7160e01b600052601260045260246000fd5b500490565b6000816000190483118215151615620033e657620033e66200348f565b500290565b6000828210156200340057620034006200348f565b500390565b60005b838110156200342257818101518382015260200162003408565b8381111562001da85750506000910152565b600181811c908216806200344957607f821691505b602082108114156200346b57634e487b7160e01b600052602260045260246000fd5b50919050565b60006000198214156200348857620034886200348f565b5060010190565b634e487b7160e01b600052601160045260246000fd5b634e487b7160e01b600052603160045260246000fd5b634e487b7160e01b600052603260045260246000fd5b634e487b7160e01b600052604160045260246000fd5b6001600160a01b0381168114620019c657600080fdfe6080604052604051610721380380610721833981016040819052610022916102d2565b61002e82826000610035565b5050610431565b61003e8361006b565b60008251118061004b5750805b156100665761006483836100ab60201b6100291760201c565b505b505050565b610074816100d7565b6040516001600160a01b038216907fbc7cd75a20ee27fd9adebab32041f755214dbc6bffa90cc0225b39da2e5c2d3b90600090a250565b60606100d083836040518060600160405280602781526020016106fa602791396101a9565b9392505050565b6100ea8161028760201b6100551760201c565b6101515760405162461bcd60e51b815260206004820152602d60248201527f455243313936373a206e657720696d706c656d656e746174696f6e206973206e60448201526c1bdd08184818dbdb9d1c9858dd609a1b60648201526084015b60405180910390fd5b806101887f360894a13ba1a3210667c828492db98dca3e2076cc3735a920a3ca505d382bbc60001b61029660201b6100641760201c565b80546001600160a01b0319166001600160a01b039290921691909117905550565b60606001600160a01b0384163b6102115760405162461bcd60e51b815260206004820152602660248201527f416464726573733a2064656c65676174652063616c6c20746f206e6f6e2d636f6044820152651b9d1c9858dd60d21b6064820152608401610148565b600080856001600160a01b03168560405161022c91906103a0565b600060405180830381855af49150503d8060008114610267576040519150601f19603f3d011682016040523d82523d6000602084013e61026c565b606091505b50909250905061027d828286610299565b9695505050505050565b6001600160a01b03163b151590565b90565b606083156102a85750816100d0565b8251156102b85782518084602001fd5b8160405162461bcd60e51b815260040161014891906103bc565b600080604083850312156102e557600080fd5b82516001600160a01b03811681146102fc57600080fd5b60208401519092506001600160401b038082111561031957600080fd5b818501915085601f83011261032d57600080fd5b81518181111561033f5761033f61041b565b604051601f8201601f19908116603f011681019083821181831017156103675761036761041b565b8160405282815288602084870101111561038057600080fd5b6103918360208301602088016103ef565b80955050505050509250929050565b600082516103b28184602087016103ef565b9190910192915050565b60208152600082518060208401526103db8160408501602087016103ef565b601f01601f19169190910160400192915050565b60005b8381101561040a5781810151838201526020016103f2565b838111156100645750506000910152565b634e487b7160e01b600052604160045260246000fd5b6102ba806104406000396000f3fe60806040523661001357610011610017565b005b6100115b610027610022610067565b61009f565b565b606061004e838360405180606001604052806027815260200161025e602791396100c3565b9392505050565b6001600160a01b03163b151590565b90565b600061009a7f360894a13ba1a3210667c828492db98dca3e2076cc3735a920a3ca505d382bbc546001600160a01b031690565b905090565b3660008037600080366000845af43d6000803e8080156100be573d6000f35b3d6000fd5b60606001600160a01b0384163b6101305760405162461bcd60e51b815260206004820152602660248201527f416464726573733a2064656c65676174652063616c6c20746f206e6f6e2d636f6044820152651b9d1c9858dd60d21b60648201526084015b60405180910390fd5b600080856001600160a01b03168560405161014b91906101de565b600060405180830381855af49150503d8060008114610186576040519150601f19603f3d011682016040523d82523d6000602084013e61018b565b606091505b509150915061019b8282866101a5565b9695505050505050565b606083156101b457508161004e565b8251156101c45782518084602001fd5b8160405162461bcd60e51b815260040161012791906101fa565b600082516101f081846020870161022d565b9190910192915050565b602081526000825180602084015261021981604085016020870161022d565b601f01601f19169190910160400192915050565b60005b83811015610248578181015183820152602001610230565b83811115610257576000848401525b5050505056fe416464726573733a206c6f772d6c6576656c2064656c65676174652063616c6c206661696c6564a2646970667358221220fb537d1df0a2f3ea0050d30fb82ca020f06a83116d3853b9eda518a67b0c9be764736f6c63430008070033416464726573733a206c6f772d6c6576656c2064656c65676174652063616c6c206661696c6564a2646970667358221220c5fe200f6bf135de3ff9045cedc8562c43f0f1414b8e91b6ce77b8d58cdd334664736f6c63430008070033",
  "devdoc": {
    "kind": "dev",
    "methods": {
      "allowance(address,address)": {
        "details": "See {IERC20-allowance}."
      },
      "approve(address,uint256)": {
        "details": "See {IERC20-approve}. NOTE: If `amount` is the maximum `uint256`, the allowance is not updated on `transferFrom`. This is semantically equivalent to an infinite approval. Requirements: - `spender` cannot be the zero address."
      },
      "balanceOf(address)": {
        "details": "See {IERC20-balanceOf}."
      },
      "constructor": {
        "custom:oz-upgrades-unsafe-allow": "constructor"
      },
      "decimals()": {
        "details": "Returns the number of decimals used to get its user representation. For example, if `decimals` equals `2`, a balance of `505` tokens should be displayed to a user as `5.05` (`505 / 10 ** 2`). Tokens usually opt for a value of 18, imitating the relationship between Ether and Wei. This is the value {ERC20} uses, unless this function is overridden; NOTE: This information is only used for _display_ purposes: it in no way affects any of the arithmetic of the contract, including {IERC20-balanceOf} and {IERC20-transfer}."
      },
      "decreaseAllowance(address,uint256)": {
        "details": "Atomically decreases the allowance granted to `spender` by the caller. This is an alternative to {approve} that can be used as a mitigation for problems described in {IERC20-approve}. Emits an {Approval} event indicating the updated allowance. Requirements: - `spender` cannot be the zero address. - `spender` must have allowance for the caller of at least `subtractedValue`."
      },
      "increaseAllowance(address,uint256)": {
        "details": "Atomically increases the allowance granted to `spender` by the caller. This is an alternative to {approve} that can be used as a mitigation for problems described in {IERC20-approve}. Emits an {Approval} event indicating the updated allowance. Requirements: - `spender` cannot be the zero address."
      },
      "name()": {
        "details": "Returns the name of the token."
      },
      "owner()": {
        "details": "Returns the address of the current owner."
      },
      "renounceOwnership()": {
        "details": "Leaves the contract without owner. It will not be possible to call `onlyOwner` functions anymore. Can only be called by the current owner. NOTE: Renouncing ownership will leave the contract without an owner, thereby removing any functionality that is only available to the owner."
      },
      "symbol()": {
        "details": "Returns the symbol of the token, usually a shorter version of the name."
      },
      "totalSupply()": {
        "details": "See {IERC20-totalSupply}."
      },
      "transfer(address,uint256)": {
        "details": "See {IERC20-transfer}. Requirements: - `to` cannot be the zero address. - the caller must have a balance of at least `amount`."
      },
      "transferFrom(address,address,uint256)": {
        "details": "See {IERC20-transferFrom}. Emits an {Approval} event indicating the updated allowance. This is not required by the EIP. See the note at the beginning of {ERC20}. NOTE: Does not update the allowance if the current allowance is the maximum `uint256`. Requirements: - `from` and `to` cannot be the zero address. - `from` must have a balance of at least `amount`. - the caller must have allowance for ``from``'s tokens of at least `amount`."
      },
      "transferOwnership(address)": {
        "details": "Transfers ownership of the contract to a new account (`newOwner`). Can only be called by the current owner."
      }
    },
    "version": 1
  },
  "userdoc": {
    "kind": "user",
    "methods": {
      "assetBaseCurrencyPrice(address,uint256)": {
        "notice": "This function is imported by other contract, thus cannot be external"
      },
      "canResolvePrice(address)": {
        "notice": "This function is imported by other contract, thus cannot be external"
      }
    },
    "version": 1
  },
  "storageLayout": {
    "storage": [
      {
        "astId": 3247,
        "contract": "contracts/LiquidPool.sol:LiquidPool",
        "label": "_initialized",
        "offset": 0,
        "slot": "0",
        "type": "t_uint8"
      },
      {
        "astId": 3250,
        "contract": "contracts/LiquidPool.sol:LiquidPool",
        "label": "_initializing",
        "offset": 1,
        "slot": "0",
        "type": "t_bool"
      },
      {
        "astId": 8642,
        "contract": "contracts/LiquidPool.sol:LiquidPool",
        "label": "__gap",
        "offset": 0,
        "slot": "1",
        "type": "t_array(t_uint256)50_storage"
      },
      {
        "astId": 5094,
        "contract": "contracts/LiquidPool.sol:LiquidPool",
        "label": "_balances",
        "offset": 0,
        "slot": "51",
        "type": "t_mapping(t_address,t_uint256)"
      },
      {
        "astId": 5100,
        "contract": "contracts/LiquidPool.sol:LiquidPool",
        "label": "_allowances",
        "offset": 0,
        "slot": "52",
        "type": "t_mapping(t_address,t_mapping(t_address,t_uint256))"
      },
      {
        "astId": 5102,
        "contract": "contracts/LiquidPool.sol:LiquidPool",
        "label": "_totalSupply",
        "offset": 0,
        "slot": "53",
        "type": "t_uint256"
      },
      {
        "astId": 5104,
        "contract": "contracts/LiquidPool.sol:LiquidPool",
        "label": "_name",
        "offset": 0,
        "slot": "54",
        "type": "t_string_storage"
      },
      {
        "astId": 5106,
        "contract": "contracts/LiquidPool.sol:LiquidPool",
        "label": "_symbol",
        "offset": 0,
        "slot": "55",
        "type": "t_string_storage"
      },
      {
        "astId": 5685,
        "contract": "contracts/LiquidPool.sol:LiquidPool",
        "label": "__gap",
        "offset": 0,
        "slot": "56",
        "type": "t_array(t_uint256)45_storage"
      },
      {
        "astId": 31625,
        "contract": "contracts/LiquidPool.sol:LiquidPool",
        "label": "_budgetApprovals",
        "offset": 0,
        "slot": "101",
        "type": "t_mapping(t_address,t_bool)"
      },
      {
        "astId": 31890,
        "contract": "contracts/LiquidPool.sol:LiquidPool",
        "label": "__gap",
        "offset": 0,
        "slot": "102",
        "type": "t_array(t_uint256)50_storage"
      },
      {
        "astId": 541,
        "contract": "contracts/LiquidPool.sol:LiquidPool",
        "label": "_owner",
        "offset": 0,
        "slot": "152",
        "type": "t_address"
      },
      {
        "astId": 661,
        "contract": "contracts/LiquidPool.sol:LiquidPool",
        "label": "__gap",
        "offset": 0,
        "slot": "153",
        "type": "t_array(t_uint256)49_storage"
      },
      {
        "astId": 25506,
        "contract": "contracts/LiquidPool.sol:LiquidPool",
        "label": "_baseCurrency",
        "offset": 0,
        "slot": "202",
        "type": "t_address"
      },
      {
        "astId": 25509,
        "contract": "contracts/LiquidPool.sol:LiquidPool",
        "label": "assets",
        "offset": 0,
        "slot": "203",
        "type": "t_array(t_address)dyn_storage"
      },
      {
        "astId": 25513,
        "contract": "contracts/LiquidPool.sol:LiquidPool",
        "label": "_assetIndex",
        "offset": 0,
        "slot": "204",
        "type": "t_mapping(t_address,t_uint256)"
      },
      {
        "astId": 26380,
        "contract": "contracts/LiquidPool.sol:LiquidPool",
        "label": "__gap",
        "offset": 0,
        "slot": "205",
        "type": "t_array(t_uint256)50_storage"
      }
    ],
    "types": {
      "t_address": {
        "encoding": "inplace",
        "label": "address",
        "numberOfBytes": "20"
      },
      "t_array(t_address)dyn_storage": {
        "base": "t_address",
        "encoding": "dynamic_array",
        "label": "address[]",
        "numberOfBytes": "32"
      },
      "t_array(t_uint256)45_storage": {
        "base": "t_uint256",
        "encoding": "inplace",
        "label": "uint256[45]",
        "numberOfBytes": "1440"
      },
      "t_array(t_uint256)49_storage": {
        "base": "t_uint256",
        "encoding": "inplace",
        "label": "uint256[49]",
        "numberOfBytes": "1568"
      },
      "t_array(t_uint256)50_storage": {
        "base": "t_uint256",
        "encoding": "inplace",
        "label": "uint256[50]",
        "numberOfBytes": "1600"
      },
      "t_bool": {
        "encoding": "inplace",
        "label": "bool",
        "numberOfBytes": "1"
      },
      "t_mapping(t_address,t_bool)": {
        "encoding": "mapping",
        "key": "t_address",
        "label": "mapping(address => bool)",
        "numberOfBytes": "32",
        "value": "t_bool"
      },
      "t_mapping(t_address,t_mapping(t_address,t_uint256))": {
        "encoding": "mapping",
        "key": "t_address",
        "label": "mapping(address => mapping(address => uint256))",
        "numberOfBytes": "32",
        "value": "t_mapping(t_address,t_uint256)"
      },
      "t_mapping(t_address,t_uint256)": {
        "encoding": "mapping",
        "key": "t_address",
        "label": "mapping(address => uint256)",
        "numberOfBytes": "32",
        "value": "t_uint256"
      },
      "t_string_storage": {
        "encoding": "bytes",
        "label": "string",
        "numberOfBytes": "32"
      },
      "t_uint256": {
        "encoding": "inplace",
        "label": "uint256",
        "numberOfBytes": "32"
      },
      "t_uint8": {
        "encoding": "inplace",
        "label": "uint8",
        "numberOfBytes": "1"
      }
    }
  }
}