{
  "address": "0x9D5865102dcDF84e653Fcf3FDD511697790818a0",
  "abi": [
    {
      "inputs": [],
      "stateMutability": "nonpayable",
      "type": "constructor"
    },
    {
      "anonymous": false,
      "inputs": [
        {
          "indexed": false,
          "internalType": "address",
          "name": "token",
          "type": "address"
        },
        {
          "indexed": false,
          "internalType": "uint256",
          "name": "minTokenToAdmit",
          "type": "uint256"
        },
        {
          "indexed": false,
          "internalType": "uint256",
          "name": "tokenId",
          "type": "uint256"
        },
        {
          "indexed": false,
          "internalType": "bool",
          "name": "isMemberToken",
          "type": "bool"
        }
      ],
      "name": "AddAdmissionToken",
      "type": "event"
    },
    {
      "anonymous": false,
      "inputs": [
        {
          "indexed": true,
          "internalType": "address",
          "name": "owner",
          "type": "address"
        },
        {
          "indexed": true,
          "internalType": "address",
          "name": "approved",
          "type": "address"
        },
        {
          "indexed": true,
          "internalType": "uint256",
          "name": "tokenId",
          "type": "uint256"
        }
      ],
      "name": "Approval",
      "type": "event"
    },
    {
      "anonymous": false,
      "inputs": [
        {
          "indexed": true,
          "internalType": "address",
          "name": "owner",
          "type": "address"
        },
        {
          "indexed": true,
          "internalType": "address",
          "name": "operator",
          "type": "address"
        },
        {
          "indexed": false,
          "internalType": "bool",
          "name": "approved",
          "type": "bool"
        }
      ],
      "name": "ApprovalForAll",
      "type": "event"
    },
    {
      "anonymous": false,
      "inputs": [
        {
          "indexed": false,
          "internalType": "address",
          "name": "to",
          "type": "address"
        }
      ],
      "name": "CreateMember",
      "type": "event"
    },
    {
      "anonymous": false,
      "inputs": [
        {
          "indexed": true,
          "internalType": "address",
          "name": "delegator",
          "type": "address"
        },
        {
          "indexed": true,
          "internalType": "address",
          "name": "fromDelegate",
          "type": "address"
        },
        {
          "indexed": true,
          "internalType": "address",
          "name": "toDelegate",
          "type": "address"
        }
      ],
      "name": "DelegateChanged",
      "type": "event"
    },
    {
      "anonymous": false,
      "inputs": [
        {
          "indexed": true,
          "internalType": "address",
          "name": "delegate",
          "type": "address"
        },
        {
          "indexed": false,
          "internalType": "uint256",
          "name": "previousBalance",
          "type": "uint256"
        },
        {
          "indexed": false,
          "internalType": "uint256",
          "name": "newBalance",
          "type": "uint256"
        }
      ],
      "name": "DelegateVotesChanged",
      "type": "event"
    },
    {
      "anonymous": false,
      "inputs": [
        {
          "indexed": false,
          "internalType": "uint8",
          "name": "version",
          "type": "uint8"
        }
      ],
      "name": "Initialized",
      "type": "event"
    },
    {
      "anonymous": false,
      "inputs": [
        {
          "indexed": true,
          "internalType": "address",
          "name": "previousOwner",
          "type": "address"
        },
        {
          "indexed": true,
          "internalType": "address",
          "name": "newOwner",
          "type": "address"
        }
      ],
      "name": "OwnershipTransferred",
      "type": "event"
    },
    {
      "anonymous": false,
      "inputs": [
        {
          "indexed": false,
          "internalType": "address",
          "name": "token",
          "type": "address"
        }
      ],
      "name": "RemoveAdmissionToken",
      "type": "event"
    },
    {
      "anonymous": false,
      "inputs": [
        {
          "indexed": false,
          "internalType": "address",
          "name": "member",
          "type": "address"
        },
        {
          "indexed": false,
          "internalType": "uint256",
          "name": "tokenId",
          "type": "uint256"
        }
      ],
      "name": "RemoveMember",
      "type": "event"
    },
    {
      "anonymous": false,
      "inputs": [
        {
          "indexed": true,
          "internalType": "address",
          "name": "from",
          "type": "address"
        },
        {
          "indexed": true,
          "internalType": "address",
          "name": "to",
          "type": "address"
        },
        {
          "indexed": true,
          "internalType": "uint256",
          "name": "tokenId",
          "type": "uint256"
        }
      ],
      "name": "Transfer",
      "type": "event"
    },
    {
      "inputs": [],
      "name": "DOMAIN_SEPARATOR",
      "outputs": [
        {
          "internalType": "bytes32",
          "name": "",
          "type": "bytes32"
        }
      ],
      "stateMutability": "view",
      "type": "function"
    },
    {
      "inputs": [
        {
          "internalType": "address",
          "name": "token",
          "type": "address"
        },
        {
          "internalType": "uint256",
          "name": "minTokenToAdmit",
          "type": "uint256"
        },
        {
          "internalType": "uint256",
          "name": "tokenId",
          "type": "uint256"
        }
      ],
      "name": "addAdmissionToken",
      "outputs": [],
      "stateMutability": "nonpayable",
      "type": "function"
    },
    {
      "inputs": [
        {
          "internalType": "address",
          "name": "",
          "type": "address"
        }
      ],
      "name": "admissionTokenSetting",
      "outputs": [
        {
          "internalType": "uint256",
          "name": "minTokenToAdmit",
          "type": "uint256"
        },
        {
          "internalType": "uint256",
          "name": "tokenId",
          "type": "uint256"
        },
        {
          "internalType": "bool",
          "name": "active",
          "type": "bool"
        }
      ],
      "stateMutability": "view",
      "type": "function"
    },
    {
      "inputs": [
        {
          "internalType": "uint256",
          "name": "",
          "type": "uint256"
        }
      ],
      "name": "admissionTokens",
      "outputs": [
        {
          "internalType": "address",
          "name": "",
          "type": "address"
        }
      ],
      "stateMutability": "view",
      "type": "function"
    },
    {
      "inputs": [
        {
          "internalType": "address",
          "name": "to",
          "type": "address"
        },
        {
          "internalType": "uint256",
          "name": "tokenId",
          "type": "uint256"
        }
      ],
      "name": "approve",
      "outputs": [],
      "stateMutability": "nonpayable",
      "type": "function"
    },
    {
      "inputs": [
        {
          "internalType": "address",
          "name": "owner",
          "type": "address"
        }
      ],
      "name": "balanceOf",
      "outputs": [
        {
          "internalType": "uint256",
          "name": "",
          "type": "uint256"
        }
      ],
      "stateMutability": "view",
      "type": "function"
    },
    {
      "inputs": [],
      "name": "countAdmissionTokens",
      "outputs": [
        {
          "internalType": "uint256",
          "name": "",
          "type": "uint256"
        }
      ],
      "stateMutability": "view",
      "type": "function"
    },
    {
      "inputs": [
        {
          "internalType": "address",
          "name": "to",
          "type": "address"
        }
      ],
      "name": "createMember",
      "outputs": [],
      "stateMutability": "nonpayable",
      "type": "function"
    },
    {
      "inputs": [
        {
          "internalType": "address",
          "name": "delegatee",
          "type": "address"
        }
      ],
      "name": "delegate",
      "outputs": [],
      "stateMutability": "nonpayable",
      "type": "function"
    },
    {
      "inputs": [
        {
          "internalType": "address",
          "name": "delegatee",
          "type": "address"
        },
        {
          "internalType": "uint256",
          "name": "nonce",
          "type": "uint256"
        },
        {
          "internalType": "uint256",
          "name": "expiry",
          "type": "uint256"
        },
        {
          "internalType": "uint8",
          "name": "v",
          "type": "uint8"
        },
        {
          "internalType": "bytes32",
          "name": "r",
          "type": "bytes32"
        },
        {
          "internalType": "bytes32",
          "name": "s",
          "type": "bytes32"
        }
      ],
      "name": "delegateBySig",
      "outputs": [],
      "stateMutability": "nonpayable",
      "type": "function"
    },
    {
      "inputs": [
        {
          "internalType": "address",
          "name": "account",
          "type": "address"
        }
      ],
      "name": "delegates",
      "outputs": [
        {
          "internalType": "address",
          "name": "",
          "type": "address"
        }
      ],
      "stateMutability": "view",
      "type": "function"
    },
    {
      "inputs": [
        {
          "internalType": "uint256",
          "name": "tokenId",
          "type": "uint256"
        }
      ],
      "name": "getApproved",
      "outputs": [
        {
          "internalType": "address",
          "name": "",
          "type": "address"
        }
      ],
      "stateMutability": "view",
      "type": "function"
    },
    {
      "inputs": [
        {
          "internalType": "uint256",
          "name": "blockNumber",
          "type": "uint256"
        }
      ],
      "name": "getPastTotalSupply",
      "outputs": [
        {
          "internalType": "uint256",
          "name": "",
          "type": "uint256"
        }
      ],
      "stateMutability": "view",
      "type": "function"
    },
    {
      "inputs": [
        {
          "internalType": "address",
          "name": "account",
          "type": "address"
        },
        {
          "internalType": "uint256",
          "name": "blockNumber",
          "type": "uint256"
        }
      ],
      "name": "getPastVotes",
      "outputs": [
        {
          "internalType": "uint256",
          "name": "",
          "type": "uint256"
        }
      ],
      "stateMutability": "view",
      "type": "function"
    },
    {
      "inputs": [
        {
          "internalType": "address",
          "name": "account",
          "type": "address"
        }
      ],
      "name": "getVotes",
      "outputs": [
        {
          "internalType": "uint256",
          "name": "",
          "type": "uint256"
        }
      ],
      "stateMutability": "view",
      "type": "function"
    },
    {
      "inputs": [
        {
          "internalType": "string",
          "name": "_name",
          "type": "string"
        },
        {
          "internalType": "uint256",
          "name": "_maxMemberLimit",
          "type": "uint256"
        }
      ],
      "name": "initialize",
      "outputs": [],
      "stateMutability": "nonpayable",
      "type": "function"
    },
    {
      "inputs": [
        {
          "internalType": "address",
          "name": "owner",
          "type": "address"
        },
        {
          "internalType": "address",
          "name": "operator",
          "type": "address"
        }
      ],
      "name": "isApprovedForAll",
      "outputs": [
        {
          "internalType": "bool",
          "name": "",
          "type": "bool"
        }
      ],
      "stateMutability": "view",
      "type": "function"
    },
    {
      "inputs": [
        {
          "internalType": "address",
          "name": "",
          "type": "address"
        }
      ],
      "name": "isMember",
      "outputs": [
        {
          "internalType": "bool",
          "name": "",
          "type": "bool"
        }
      ],
      "stateMutability": "view",
      "type": "function"
    },
    {
      "inputs": [
        {
          "internalType": "address",
          "name": "account",
          "type": "address"
        }
      ],
      "name": "isPassAdmissionToken",
      "outputs": [
        {
          "internalType": "bool",
          "name": "",
          "type": "bool"
        }
      ],
      "stateMutability": "view",
      "type": "function"
    },
    {
      "inputs": [],
      "name": "maxMemberLimit",
      "outputs": [
        {
          "internalType": "uint256",
          "name": "",
          "type": "uint256"
        }
      ],
      "stateMutability": "view",
      "type": "function"
    },
    {
      "inputs": [],
      "name": "name",
      "outputs": [
        {
          "internalType": "string",
          "name": "",
          "type": "string"
        }
      ],
      "stateMutability": "view",
      "type": "function"
    },
    {
      "inputs": [
        {
          "internalType": "address",
          "name": "owner",
          "type": "address"
        }
      ],
      "name": "nonces",
      "outputs": [
        {
          "internalType": "uint256",
          "name": "",
          "type": "uint256"
        }
      ],
      "stateMutability": "view",
      "type": "function"
    },
    {
      "inputs": [],
      "name": "owner",
      "outputs": [
        {
          "internalType": "address",
          "name": "",
          "type": "address"
        }
      ],
      "stateMutability": "view",
      "type": "function"
    },
    {
      "inputs": [
        {
          "internalType": "uint256",
          "name": "tokenId",
          "type": "uint256"
        }
      ],
      "name": "ownerOf",
      "outputs": [
        {
          "internalType": "address",
          "name": "",
          "type": "address"
        }
      ],
      "stateMutability": "view",
      "type": "function"
    },
    {
      "inputs": [
        {
          "internalType": "uint256",
          "name": "tokenId",
          "type": "uint256"
        }
      ],
      "name": "quit",
      "outputs": [],
      "stateMutability": "nonpayable",
      "type": "function"
    },
    {
      "inputs": [
        {
          "internalType": "uint256",
          "name": "index",
          "type": "uint256"
        }
      ],
      "name": "removeAdmissionToken",
      "outputs": [],
      "stateMutability": "nonpayable",
      "type": "function"
    },
    {
      "inputs": [],
      "name": "renounceOwnership",
      "outputs": [],
      "stateMutability": "nonpayable",
      "type": "function"
    },
    {
      "inputs": [
        {
          "internalType": "address",
          "name": "from",
          "type": "address"
        },
        {
          "internalType": "address",
          "name": "to",
          "type": "address"
        },
        {
          "internalType": "uint256",
          "name": "tokenId",
          "type": "uint256"
        }
      ],
      "name": "safeTransferFrom",
      "outputs": [],
      "stateMutability": "nonpayable",
      "type": "function"
    },
    {
      "inputs": [
        {
          "internalType": "address",
          "name": "from",
          "type": "address"
        },
        {
          "internalType": "address",
          "name": "to",
          "type": "address"
        },
        {
          "internalType": "uint256",
          "name": "tokenId",
          "type": "uint256"
        },
        {
          "internalType": "bytes",
          "name": "data",
          "type": "bytes"
        }
      ],
      "name": "safeTransferFrom",
      "outputs": [],
      "stateMutability": "nonpayable",
      "type": "function"
    },
    {
      "inputs": [
        {
          "internalType": "address",
          "name": "operator",
          "type": "address"
        },
        {
          "internalType": "bool",
          "name": "approved",
          "type": "bool"
        }
      ],
      "name": "setApprovalForAll",
      "outputs": [],
      "stateMutability": "nonpayable",
      "type": "function"
    },
    {
      "inputs": [
        {
          "internalType": "uint256",
          "name": "minTokenToAdmit",
          "type": "uint256"
        }
      ],
      "name": "setMemberTokenAsAdmissionToken",
      "outputs": [],
      "stateMutability": "nonpayable",
      "type": "function"
    },
    {
      "inputs": [
        {
          "internalType": "bytes4",
          "name": "interfaceId",
          "type": "bytes4"
        }
      ],
      "name": "supportsInterface",
      "outputs": [
        {
          "internalType": "bool",
          "name": "",
          "type": "bool"
        }
      ],
      "stateMutability": "view",
      "type": "function"
    },
    {
      "inputs": [],
      "name": "symbol",
      "outputs": [
        {
          "internalType": "string",
          "name": "",
          "type": "string"
        }
      ],
      "stateMutability": "view",
      "type": "function"
    },
    {
      "inputs": [],
      "name": "test",
      "outputs": [],
      "stateMutability": "nonpayable",
      "type": "function"
    },
    {
      "inputs": [
        {
          "internalType": "uint256",
          "name": "tokenId",
          "type": "uint256"
        }
      ],
      "name": "tokenURI",
      "outputs": [
        {
          "internalType": "string",
          "name": "",
          "type": "string"
        }
      ],
      "stateMutability": "view",
      "type": "function"
    },
    {
      "inputs": [],
      "name": "totalSupply",
      "outputs": [
        {
          "internalType": "uint256",
          "name": "",
          "type": "uint256"
        }
      ],
      "stateMutability": "view",
      "type": "function"
    },
    {
      "inputs": [
        {
          "internalType": "address",
          "name": "from",
          "type": "address"
        },
        {
          "internalType": "address",
          "name": "to",
          "type": "address"
        },
        {
          "internalType": "uint256",
          "name": "tokenId",
          "type": "uint256"
        }
      ],
      "name": "transferFrom",
      "outputs": [],
      "stateMutability": "nonpayable",
      "type": "function"
    },
    {
      "inputs": [
        {
          "internalType": "address",
          "name": "newOwner",
          "type": "address"
        }
      ],
      "name": "transferOwnership",
      "outputs": [],
      "stateMutability": "nonpayable",
      "type": "function"
    },
    {
      "inputs": [
        {
          "internalType": "address",
          "name": "",
          "type": "address"
        }
      ],
      "name": "wasMember",
      "outputs": [
        {
          "internalType": "bool",
          "name": "",
          "type": "bool"
        }
      ],
      "stateMutability": "view",
      "type": "function"
    }
  ],
  "transactionHash": "0xe2716d11cdc754b7dde36cc68740348247b7b5d732cf6441ece99f9f334776c0",
  "args": [],
  "numDeployments": 1,
  "solcInputHash": "af18ea8043de5ce666898263f5c38e68",
  "bytecode": "0x60806040523480156200001157600080fd5b506200001c62000022565b620000e4565b600054610100900460ff16156200008f5760405162461bcd60e51b815260206004820152602760248201527f496e697469616c697a61626c653a20636f6e747261637420697320696e697469604482015266616c697a696e6760c81b606482015260840160405180910390fd5b60005460ff9081161015620000e2576000805460ff191660ff9081179091556040519081527f7f26b83ff96e1f2b6a682f133852f6798a09c465da95921460cefb38474024989060200160405180910390a15b565b6139c580620000f46000396000f3fe608060405234801561001057600080fd5b506004361061023d5760003560e01c80637ecebe001161013b578063b88d4fde116100b8578063e985e9c51161007c578063e985e9c5146104eb578063eb6d00a614610527578063f1fc061f14610577578063f2fde38b1461058a578063f8a8fd6d1461027d57600080fd5b8063b88d4fde14610495578063bcfb1a40146104a8578063c3cda520146104bb578063c87b56dd146104ce578063d23a403c146104e157600080fd5b806395d89b41116100ff57806395d89b41146104305780639ab24eb0146104385780639b1c505e1461044b578063a22cb4651461045e578063a230c5241461047157600080fd5b80637ecebe00146103c15780638370578c146103d45780638beaf7d7146103f85780638da5cb5b1461040b5780638e539e8c1461041d57600080fd5b80633644e515116101c9578063587cde1e1161018d578063587cde1e1461036d5780635c19a95c146103805780636352211e1461039357806370a08231146103a6578063715018a6146103b957600080fd5b80633644e515146103235780633a46b1a81461032b578063406cfb751461033e57806342842e0e146103515780635187c9891461036457600080fd5b8063095ea7b311610210578063095ea7b3146102bf57806318160ddd146102d25780632124d529146102ea57806323b872dd146102fd578063344cbc681461031057600080fd5b806301ffc9a7146102425780630280179e1461026a57806306fdde031461027f578063081812fc14610294575b600080fd5b61025561025036600461349d565b61059d565b60405190151581526020015b60405180910390f35b61027d6102783660046133e9565b6105ef565b005b610287610659565b60405161026191906136a2565b6102a76102a2366004613530565b6106eb565b6040516001600160a01b039091168152602001610261565b61027d6102cd3660046133bd565b610712565b6102dc6101615481565b604051908152602001610261565b61027d6102f836600461325b565b61082d565b61027d61030b3660046132ce565b6109f1565b61027d61031e366004613530565b610a22565b6102dc610cba565b6102dc6103393660046133bd565b610cc9565b61025561034c36600461325b565b610cf2565b61027d61035f3660046132ce565b610f08565b610166546102dc565b6102a761037b36600461325b565b610f23565b61027d61038e36600461325b565b610f41565b6102a76103a1366004613530565b610f50565b6102dc6103b436600461325b565b610fb0565b61027d611036565b6102dc6103cf36600461325b565b61104a565b6102556103e236600461325b565b6101656020526000908152604090205460ff1681565b61027d6104063660046134d7565b611068565b61012f546001600160a01b03166102a7565b6102dc61042b366004613530565b611229565b610287611285565b6102dc61044636600461325b565b611294565b61027d610459366004613530565b6112b5565b61027d61046c36600461338f565b611438565b61025561047f36600461325b565b6101646020526000908152604090205460ff1681565b61027d6104a336600461330f565b611443565b6102a76104b6366004613530565b61147b565b61027d6104c936600461341e565b6114a6565b6102876104dc366004613530565b6115d3565b6102dc6101625481565b6102556104f9366004613295565b6001600160a01b039182166000908152606a6020908152604080832093909416825291909152205460ff1690565b61055a61053536600461325b565b6101676020526000908152604090208054600182015460029092015490919060ff1683565b604080519384526020840192909252151590820152606001610261565b61027d610585366004613530565b61163a565b61027d61059836600461325b565b61176c565b60006001600160e01b031982166380ac58cd60e01b14806105ce57506001600160e01b03198216635b5e139f60e01b145b806105e957506301ffc9a760e01b6001600160e01b03198316145b92915050565b6105f76117e5565b610602838383611840565b604080516001600160a01b038516815260208101849052908101829052600060608201527fc7ff60e3f07d1e83c30c2fb716313eccef5470e6bdf300d865c747e76f379a83906080015b60405180910390a1505050565b6060606580546106689061382e565b80601f01602080910402602001604051908101604052809291908181526020018280546106949061382e565b80156106e15780601f106106b6576101008083540402835291602001916106e1565b820191906000526020600020905b8154815290600101906020018083116106c457829003601f168201915b5050505050905090565b60006106f6826119ed565b506000908152606960205260409020546001600160a01b031690565b600061071d82610f50565b9050806001600160a01b0316836001600160a01b031614156107905760405162461bcd60e51b815260206004820152602160248201527f4552433732313a20617070726f76616c20746f2063757272656e74206f776e656044820152603960f91b60648201526084015b60405180910390fd5b336001600160a01b03821614806107ac57506107ac81336104f9565b61081e5760405162461bcd60e51b815260206004820152603e60248201527f4552433732313a20617070726f76652063616c6c6572206973206e6f7420746f60448201527f6b656e206f776e6572206e6f7220617070726f76656420666f7220616c6c00006064820152608401610787565b6108288383611a4c565b505050565b6108356117e5565b610161546001600160a01b0382166000908152610164602052604090205460ff161561089c5760405162461bcd60e51b815260206004820152601660248201527513595b58995c88185b1c9958591e4818dc99585d195960521b6044820152606401610787565b6101625481106108ee5760405162461bcd60e51b815260206004820152601960248201527f6d656d62657220636f756e7420657863656564206c696d6974000000000000006044820152606401610787565b6108f782610cf2565b6109435760405162461bcd60e51b815260206004820152601a60248201527f41646d697373696f6e20746f6b656e206e6f7420656e6f7567680000000000006044820152606401610787565b61095261016380546001019055565b600061095e6101635490565b905061097a838260405180602001604052806000815250611aba565b6109858260016137a0565b610161556001600160a01b0383166000818152610164602090815260408083208054600160ff1991821617909155610165835292819020805490931690925590519182527f2e95375ba4496573ca74b6c456a1b885cfdd78ae502d985f1f0ca779444a1af4910161064c565b6109fb3382611aed565b610a175760405162461bcd60e51b815260040161078790613752565b610828838383611b6c565b6000610a2d82610f50565b90506000610a39611d19565b6001600160a01b03166357338b226040518163ffffffff1660e01b815260040160206040518083038186803b158015610a7157600080fd5b505afa158015610a85573d6000803e3d6000fd5b505050506040513d601f19601f82011682018060405250810190610aa99190613278565b9050336001600160a01b03831614610af75760405162461bcd60e51b815260206004820152601160248201527014195c9b5a5cdcda5bdb8819195b9a5959607a1b6044820152606401610787565b6040516370a0823160e01b81526001600160a01b0383811660048301528216906370a082319060240160206040518083038186803b158015610b3857600080fd5b505afa158015610b4c573d6000803e3d6000fd5b505050506040513d601f19601f82011682018060405250810190610b709190613549565b15610bb65760405162461bcd60e51b81526020600482015260166024820152754c502062616c616e6365206973206e6f74207a65726f60501b6044820152606401610787565b610bbf83611d2e565b6001600160a01b038216600090815261016460209081526040808320805460ff199081169091556101659092529091208054909116600190811790915561016154610c0a91906137eb565b61016155610c16611d19565b604051633a69807760e21b81526001600160a01b03848116600483015260006024830152919091169063e9a601dc90604401600060405180830381600087803b158015610c6257600080fd5b505af1158015610c76573d6000803e3d6000fd5b5050604080516001600160a01b0386168152602081018790527fd2d4adb8c32a13493d1fe695d2a5cc51c680de90ffaf0b3b3c4c9d4335ac4f9c935001905061064c565b6000610cc4611ddd565b905090565b6001600160a01b038216600090815260cc60205260408120610ceb9083611e58565b9392505050565b61016654600090815b81811015610efe5760006101668281548110610d1957610d196138ea565b60009182526020808320909101546001600160a01b03168083526101679091526040909120549091508015610ee9576000610d5c836001600160a01b0316611f67565b15610de2576040516370a0823160e01b81526001600160a01b0388811660048301528416906370a08231906024015b60206040518083038186803b158015610da357600080fd5b505afa158015610db7573d6000803e3d6000fd5b505050506040513d601f19601f82011682018060405250810190610ddb9190613549565b9050610ed2565b610df4836001600160a01b0316611fed565b15610e3f576001600160a01b038381166000818152610167602052604090819020600101549051627eeac760e11b8152928a16600484015260248301529062fdd58e90604401610d8b565b610e51836001600160a01b0316612023565b15610ed2576040516370a0823160e01b81526001600160a01b0388811660048301528416906370a082319060240160206040518083038186803b158015610e9757600080fd5b505afa158015610eab573d6000803e3d6000fd5b505050506040513d601f19601f82011682018060405250810190610ecf9190613549565b90505b81811015610ee7575060009695505050505050565b505b50508080610ef690613863565b915050610cfb565b5060019392505050565b61082883838360405180602001604052806000815250611443565b6001600160a01b03908116600090815260cb60205260409020541690565b33610f4c81836120c0565b5050565b6000818152606760205260408120546001600160a01b0316806105e95760405162461bcd60e51b8152602060048201526018602482015277115490cdcc8c4e881a5b9d985b1a59081d1bdad95b88125160421b6044820152606401610787565b60006001600160a01b03821661101a5760405162461bcd60e51b815260206004820152602960248201527f4552433732313a2061646472657373207a65726f206973206e6f7420612076616044820152683634b21037bbb732b960b91b6064820152608401610787565b506001600160a01b031660009081526068602052604090205490565b61103e6117e5565b611048600061213b565b565b6001600160a01b038116600090815260ce60205260408120546105e9565b600054610100900460ff16158080156110885750600054600160ff909116105b806110a25750303b1580156110a2575060005460ff166001145b6111055760405162461bcd60e51b815260206004820152602e60248201527f496e697469616c697a61626c653a20636f6e747261637420697320616c72656160448201526d191e481a5b9a5d1a585b1a5e995960921b6064820152608401610787565b6000805460ff191660011790558015611128576000805461ff0019166101001790555b61113061218e565b6111886111696040518060400160405280600b81526020016a0204d656d626572736869760ac1b815250856121bd90919063ffffffff16565b604051806040016040528060018152602001603160f81b8152506121e9565b6111e16111c16040518060400160405280600b81526020016a0204d656d626572736869760ac1b815250856121bd90919063ffffffff16565b604051806040016040528060028152602001614d5360f01b81525061221a565b6101628290558015610828576000805461ff0019169055604051600181527f7f26b83ff96e1f2b6a682f133852f6798a09c465da95921460cefb38474024989060200161064c565b600043821061127a5760405162461bcd60e51b815260206004820152601a60248201527f566f7465733a20626c6f636b206e6f7420796574206d696e65640000000000006044820152606401610787565b6105e960cd83611e58565b6060606680546106689061382e565b6001600160a01b038116600090815260cc602052604081206105e99061224b565b6112bd6117e5565b6101665481106113005760405162461bcd60e51b815260206004820152600e60248201526d696e646578206f766572666c6f7760901b6044820152606401610787565b60006101668281548110611316576113166138ea565b60009182526020808320909101546001600160a01b031680835261016790915260408220600201805460ff1916905561016680549193509061135a906001906137eb565b8154811061136a5761136a6138ea565b60009182526020909120015461016680546001600160a01b03909216925082918590811061139a5761139a6138ea565b9060005260206000200160006101000a8154816001600160a01b0302191690836001600160a01b031602179055506101668054806113da576113da6138d4565b6000828152602090819020600019908301810180546001600160a01b03191690559091019091556040516001600160a01b03841681527f1b2ddeaa10e8a80ec9f117d308c60a01824809ed74e531d768c0b1b7542606b9910161064c565b610f4c3383836122a7565b61144d3383611aed565b6114695760405162461bcd60e51b815260040161078790613752565b61147584848484612376565b50505050565b610166818154811061148c57600080fd5b6000918252602090912001546001600160a01b0316905081565b834211156114f65760405162461bcd60e51b815260206004820152601860248201527f566f7465733a207369676e6174757265206578706972656400000000000000006044820152606401610787565b604080517fe48329057bfd03d55e49b547132e39cffd9c1820ad7b9d4c5307691425d15adf60208201526001600160a01b038816918101919091526060810186905260808101859052600090611570906115689060a001604051602081830303815290604052805190602001206123a9565b8585856123f7565b905061157b8161241f565b86146115c05760405162461bcd60e51b8152602060048201526014602482015273566f7465733a20696e76616c6964206e6f6e636560601b6044820152606401610787565b6115ca81886120c0565b50505050505050565b606060006115df610659565b6115e884612447565b6040516020016115f99291906135bd565b604051602081830303815290604052905061161381612545565b6040516020016116239190613620565b604051602081830303815290604052915050919050565b6116426117e5565b600061164c611d19565b6001600160a01b0316635cb543846040518163ffffffff1660e01b815260040160206040518083038186803b15801561168457600080fd5b505afa158015611698573d6000803e3d6000fd5b505050506040513d601f19601f820116820180604052508101906116bc9190613278565b90506001600160a01b03811661170c5760405162461bcd60e51b81526020600482015260156024820152741b595b58995c881d1bdad95b881b9bdd081a5b9a5d605a1b6044820152606401610787565b61171881836000611840565b604080516001600160a01b0383168152602081018490526000818301526001606082015290517fc7ff60e3f07d1e83c30c2fb716313eccef5470e6bdf300d865c747e76f379a839181900360800190a15050565b6117746117e5565b6001600160a01b0381166117d95760405162461bcd60e51b815260206004820152602660248201527f4f776e61626c653a206e6577206f776e657220697320746865207a65726f206160448201526564647265737360d01b6064820152608401610787565b6117e28161213b565b50565b61012f546001600160a01b031633146110485760405162461bcd60e51b815260206004820181905260248201527f4f776e61626c653a2063616c6c6572206973206e6f7420746865206f776e65726044820152606401610787565b6001600160a01b0383166000908152610167602052604090206002015460ff16156118ad5760405162461bcd60e51b815260206004820152601760248201527f41646d697373696f6e20546f6b656e20657869737465640000000000000000006044820152606401610787565b6001600160a01b0383163b6119045760405162461bcd60e51b815260206004820152601c60248201527f41646d697373696f6e20546f6b656e206e6f7420537570706f727421000000006044820152606401610787565b6101668054600180820183557fa5a4c57b7184ec73d55be4993773cb4eef681bc86a28d0285cd66efb50676a9790910180546001600160a01b0319166001600160a01b03871690811790915560408051606081018252868152602080820187815282840186815260009586526101679092529290932090518155905192810192909255516002909101805460ff191691151591909117905554600310156108285760405162461bcd60e51b815260206004820181905260248201527f41646d697373696f6e20546f6b656e206c656e67746820746f6f206c6f6e672e6044820152606401610787565b6000818152606760205260409020546001600160a01b03166117e25760405162461bcd60e51b8152602060048201526018602482015277115490cdcc8c4e881a5b9d985b1a59081d1bdad95b88125160421b6044820152606401610787565b600081815260696020526040902080546001600160a01b0319166001600160a01b0384169081179091558190611a8182610f50565b6001600160a01b03167f8c5be1e5ebec7d5bd14f71427d1e84f3dd0314c0f7b2291e5b200ac8c7c3b92560405160405180910390a45050565b611ac483836126ad565b611ad16000848484612803565b6108285760405162461bcd60e51b8152600401610787906136b5565b600080611af983610f50565b9050806001600160a01b0316846001600160a01b03161480611b4057506001600160a01b038082166000908152606a602090815260408083209388168352929052205460ff165b80611b645750836001600160a01b0316611b59846106eb565b6001600160a01b0316145b949350505050565b826001600160a01b0316611b7f82610f50565b6001600160a01b031614611be35760405162461bcd60e51b815260206004820152602560248201527f4552433732313a207472616e736665722066726f6d20696e636f72726563742060448201526437bbb732b960d91b6064820152608401610787565b6001600160a01b038216611c455760405162461bcd60e51b8152602060048201526024808201527f4552433732313a207472616e7366657220746f20746865207a65726f206164646044820152637265737360e01b6064820152608401610787565b611c5083838361290d565b611c5b600082611a4c565b6001600160a01b0383166000908152606860205260408120805460019290611c849084906137eb565b90915550506001600160a01b0382166000908152606860205260408120805460019290611cb29084906137a0565b909155505060008181526067602052604080822080546001600160a01b0319166001600160a01b0386811691821790925591518493918716917fddf252ad1be2c89b69c2b068fc378daa952ba7f163c4a11628f55a4df523b3ef91a4610828838383612992565b6000610cc461012f546001600160a01b031690565b6000611d3982610f50565b9050611d478160008461290d565b611d52600083611a4c565b6001600160a01b0381166000908152606860205260408120805460019290611d7b9084906137eb565b909155505060008281526067602052604080822080546001600160a01b0319169055518391906001600160a01b038416907fddf252ad1be2c89b69c2b068fc378daa952ba7f163c4a11628f55a4df523b3ef908390a4610f4c81600084612992565b6000610cc47f8b73c3c69bb8fe3d512ecc4cf759cc79239f7b179b0ffacaa9a75d522b39400f611e0c60975490565b6098546040805160208101859052908101839052606081018290524660808201523060a082015260009060c0016040516020818303038152906040528051906020012090509392505050565b6000438210611ea95760405162461bcd60e51b815260206004820181905260248201527f436865636b706f696e74733a20626c6f636b206e6f7420796574206d696e65646044820152606401610787565b825460005b81811015611f0e576000611ec282846129e8565b905084866000018281548110611eda57611eda6138ea565b60009182526020909120015463ffffffff161115611efa57809250611f08565b611f058160016137a0565b91505b50611eae565b8115611f525784611f206001846137eb565b81548110611f3057611f306138ea565b60009182526020909120015464010000000090046001600160e01b0316611f55565b60005b6001600160e01b031695945050505050565b6040516301ffc9a760e01b81526380ac58cd60e01b60048201526000906001600160a01b038316906301ffc9a7906024015b60206040518083038186803b158015611fb157600080fd5b505afa925050508015611fe1575060408051601f3d908101601f19168201909252611fde91810190613480565b60015b6105e957506000919050565b6040516301ffc9a760e01b8152636cdb3d1360e11b60048201526000906001600160a01b038316906301ffc9a790602401611f99565b600061202e82611f67565b1561203b57506000919050565b6040516370a0823160e01b8152600060048201526001600160a01b038316906370a082319060240160206040518083038186803b15801561207b57600080fd5b505afa9250505080156120ab575060408051601f3d908101601f191682019092526120a891810190613549565b60015b6120b757506000919050565b50600192915050565b60006120cb83610f23565b6001600160a01b03848116600081815260cb602052604080822080546001600160a01b031916888616908117909155905194955093928516927f3134e8a2e6d97e929a7e54011ea5485d7d196dd5f0ba4d4ef95803e8e3fc257f9190a4610828818361213686612a03565b612a0e565b61012f80546001600160a01b038381166001600160a01b0319831681179093556040519116919082907f8be0079c531659141344cd1fd0a4f28419497f9722a3daafe3b4186f6b6457e090600090a35050565b600054610100900460ff166121b55760405162461bcd60e51b815260040161078790613707565b611048612b4b565b606082826040516020016121d292919061358e565b604051602081830303815290604052905092915050565b600054610100900460ff166122105760405162461bcd60e51b815260040161078790613707565b610f4c8282612b7b565b600054610100900460ff166122415760405162461bcd60e51b815260040161078790613707565b610f4c8282612bbc565b8054600090801561229457826122626001836137eb565b81548110612272576122726138ea565b60009182526020909120015464010000000090046001600160e01b0316612297565b60005b6001600160e01b03169392505050565b816001600160a01b0316836001600160a01b031614156123095760405162461bcd60e51b815260206004820152601960248201527f4552433732313a20617070726f766520746f2063616c6c6572000000000000006044820152606401610787565b6001600160a01b038381166000818152606a6020908152604080832094871680845294825291829020805460ff191686151590811790915591519182527f17307eab39ab6107e8899845ad3d59bd9653f200f220920489ca2b5937696c31910160405180910390a3505050565b612381848484611b6c565b61238d84848484612803565b6114755760405162461bcd60e51b8152600401610787906136b5565b60006105e96123b6611ddd565b8360405161190160f01b6020820152602281018390526042810182905260009060620160405160208183030381529060405280519060200120905092915050565b600080600061240887878787612c0a565b9150915061241581612cf7565b5095945050505050565b6001600160a01b038116600090815260ce602052604090208054600181018255905b50919050565b60608161246b5750506040805180820190915260018152600360fc1b602082015290565b8160005b8115612495578061247f81613863565b915061248e9050600a836137b8565b915061246f565b60008167ffffffffffffffff8111156124b0576124b0613900565b6040519080825280601f01601f1916602001820160405280156124da576020820181803683370190505b5090505b8415611b64576124ef6001836137eb565b91506124fc600a8661387e565b6125079060306137a0565b60f81b81838151811061251c5761251c6138ea565b60200101906001600160f81b031916908160001a90535061253e600a866137b8565b94506124de565b606081516000141561256557505060408051602081019091526000815290565b6000604051806060016040528060408152602001613950604091399050600060038451600261259491906137a0565b61259e91906137b8565b6125a99060046137cc565b905060006125b88260206137a0565b67ffffffffffffffff8111156125d0576125d0613900565b6040519080825280601f01601f1916602001820160405280156125fa576020820181803683370190505b509050818152600183018586518101602084015b818310156126685760039283018051603f601282901c811687015160f890811b8552600c83901c8216880151811b6001860152600683901c8216880151811b60028601529116860151901b9382019390935260040161260e565b60038951066001811461268257600281146126935761269f565b613d3d60f01b60011983015261269f565b603d60f81b6000198301525b509398975050505050505050565b6001600160a01b0382166127035760405162461bcd60e51b815260206004820181905260248201527f4552433732313a206d696e7420746f20746865207a65726f20616464726573736044820152606401610787565b6000818152606760205260409020546001600160a01b0316156127685760405162461bcd60e51b815260206004820152601c60248201527f4552433732313a20746f6b656e20616c7265616479206d696e746564000000006044820152606401610787565b6127746000838361290d565b6001600160a01b038216600090815260686020526040812080546001929061279d9084906137a0565b909155505060008181526067602052604080822080546001600160a01b0319166001600160a01b03861690811790915590518392907fddf252ad1be2c89b69c2b068fc378daa952ba7f163c4a11628f55a4df523b3ef908290a4610f4c60008383612992565b60006001600160a01b0384163b1561290557604051630a85bd0160e11b81526001600160a01b0385169063150b7a0290612847903390899088908890600401613665565b602060405180830381600087803b15801561286157600080fd5b505af1925050508015612891575060408051601f3d908101601f1916820190925261288e918101906134ba565b60015b6128eb573d8080156128bf576040519150601f19603f3d011682016040523d82523d6000602084013e6128c4565b606091505b5080516128e35760405162461bcd60e51b8152600401610787906136b5565b805181602001fd5b6001600160e01b031916630a85bd0160e11b149050611b64565b506001611b64565b6001600160a01b0383161580159061292d57506001600160a01b03821615155b156108285760405162461bcd60e51b815260206004820152602f60248201527f4d656d626572736869703a205472616e73666572206f66206d656d626572736860448201526e1a5c081a5cc818589bdd5b99185b99608a1b6064820152608401610787565b61299d838383612eb2565b6001600160a01b0383161580156129bc57506001600160a01b03821615155b80156129d9575060006129ce83610f23565b6001600160a01b0316145b156108285761082882836120c0565b60006129f760028484186137b8565b610ceb908484166137a0565b60006105e982610fb0565b816001600160a01b0316836001600160a01b031614158015612a305750600081115b15610828576001600160a01b03831615612abe576001600160a01b038316600090815260cc602052604081208190612a6b90612ebe85612eca565b91509150846001600160a01b03167fdec2bacdd2f05b59de34da9b523dff8be42e5e38e818c82fdb0bae774387a7248383604051612ab3929190918252602082015260400190565b60405180910390a250505b6001600160a01b03821615610828576001600160a01b038216600090815260cc602052604081208190612af490612ef885612eca565b91509150836001600160a01b03167fdec2bacdd2f05b59de34da9b523dff8be42e5e38e818c82fdb0bae774387a7248383604051612b3c929190918252602082015260400190565b60405180910390a25050505050565b600054610100900460ff16612b725760405162461bcd60e51b815260040161078790613707565b6110483361213b565b600054610100900460ff16612ba25760405162461bcd60e51b815260040161078790613707565b815160209283012081519190920120609791909155609855565b600054610100900460ff16612be35760405162461bcd60e51b815260040161078790613707565b8151612bf6906065906020850190613155565b508051610828906066906020840190613155565b6000807f7fffffffffffffffffffffffffffffff5d576e7357a4501ddfe92f46681b20a0831115612c415750600090506003612cee565b8460ff16601b14158015612c5957508460ff16601c14155b15612c6a5750600090506004612cee565b6040805160008082526020820180845289905260ff881692820192909252606081018690526080810185905260019060a0016020604051602081039080840390855afa158015612cbe573d6000803e3d6000fd5b5050604051601f1901519150506001600160a01b038116612ce757600060019250925050612cee565b9150600090505b94509492505050565b6000816004811115612d0b57612d0b6138be565b1415612d145750565b6001816004811115612d2857612d286138be565b1415612d765760405162461bcd60e51b815260206004820152601860248201527f45434453413a20696e76616c6964207369676e617475726500000000000000006044820152606401610787565b6002816004811115612d8a57612d8a6138be565b1415612dd85760405162461bcd60e51b815260206004820152601f60248201527f45434453413a20696e76616c6964207369676e6174757265206c656e677468006044820152606401610787565b6003816004811115612dec57612dec6138be565b1415612e455760405162461bcd60e51b815260206004820152602260248201527f45434453413a20696e76616c6964207369676e6174757265202773272076616c604482015261756560f01b6064820152608401610787565b6004816004811115612e5957612e596138be565b14156117e25760405162461bcd60e51b815260206004820152602260248201527f45434453413a20696e76616c6964207369676e6174757265202776272076616c604482015261756560f01b6064820152608401610787565b61082883836001612f04565b6000610ceb82846137eb565b600080612eec85612ee7612edd8861224b565b868863ffffffff16565b612f5d565b91509150935093915050565b6000610ceb82846137a0565b6001600160a01b038316612f2357612f2060cd612ef883612eca565b50505b6001600160a01b038216612f4257612f3f60cd612ebe83612eca565b50505b610828612f4e84610f23565b612f5784610f23565b83612a0e565b8154600090819081612f6e8661224b565b9050600082118015612fac57504386612f886001856137eb565b81548110612f9857612f986138ea565b60009182526020909120015463ffffffff16145b1561300c57612fba85613083565b86612fc66001856137eb565b81548110612fd657612fd66138ea565b9060005260206000200160000160046101000a8154816001600160e01b0302191690836001600160e01b0316021790555061307a565b856000016040518060400160405280613024436130f0565b63ffffffff16815260200161303888613083565b6001600160e01b0390811690915282546001810184556000938452602093849020835194909301519091166401000000000263ffffffff909316929092179101555b95939450505050565b60006001600160e01b038211156130ec5760405162461bcd60e51b815260206004820152602760248201527f53616665436173743a2076616c756520646f65736e27742066697420696e20326044820152663234206269747360c81b6064820152608401610787565b5090565b600063ffffffff8211156130ec5760405162461bcd60e51b815260206004820152602660248201527f53616665436173743a2076616c756520646f65736e27742066697420696e203360448201526532206269747360d01b6064820152608401610787565b8280546131619061382e565b90600052602060002090601f01602090048101928261318357600085556131c9565b82601f1061319c57805160ff19168380011785556131c9565b828001600101855582156131c9579182015b828111156131c95782518255916020019190600101906131ae565b506130ec9291505b808211156130ec57600081556001016131d1565b600067ffffffffffffffff8084111561320057613200613900565b604051601f8501601f19908116603f0116810190828211818310171561322857613228613900565b8160405280935085815286868601111561324157600080fd5b858560208301376000602087830101525050509392505050565b60006020828403121561326d57600080fd5b8135610ceb81613916565b60006020828403121561328a57600080fd5b8151610ceb81613916565b600080604083850312156132a857600080fd5b82356132b381613916565b915060208301356132c381613916565b809150509250929050565b6000806000606084860312156132e357600080fd5b83356132ee81613916565b925060208401356132fe81613916565b929592945050506040919091013590565b6000806000806080858703121561332557600080fd5b843561333081613916565b9350602085013561334081613916565b925060408501359150606085013567ffffffffffffffff81111561336357600080fd5b8501601f8101871361337457600080fd5b613383878235602084016131e5565b91505092959194509250565b600080604083850312156133a257600080fd5b82356133ad81613916565b915060208301356132c38161392b565b600080604083850312156133d057600080fd5b82356133db81613916565b946020939093013593505050565b6000806000606084860312156133fe57600080fd5b833561340981613916565b95602085013595506040909401359392505050565b60008060008060008060c0878903121561343757600080fd5b863561344281613916565b95506020870135945060408701359350606087013560ff8116811461346657600080fd5b9598949750929560808101359460a0909101359350915050565b60006020828403121561349257600080fd5b8151610ceb8161392b565b6000602082840312156134af57600080fd5b8135610ceb81613939565b6000602082840312156134cc57600080fd5b8151610ceb81613939565b600080604083850312156134ea57600080fd5b823567ffffffffffffffff81111561350157600080fd5b8301601f8101851361351257600080fd5b613521858235602084016131e5565b95602094909401359450505050565b60006020828403121561354257600080fd5b5035919050565b60006020828403121561355b57600080fd5b5051919050565b6000815180845261357a816020860160208601613802565b601f01601f19169290920160200192915050565b600083516135a0818460208801613802565b8351908301906135b4818360208801613802565b01949350505050565b693d913730b6b2911d101160b11b815282516000906135e381600a850160208801613802565b61202360f01b600a91840191820152835161360581600c840160208801613802565b61227d60f01b600c9290910191820152600e01949350505050565b7f646174613a6170706c69636174696f6e2f6a736f6e3b6261736536342c00000081526000825161365881601d850160208701613802565b91909101601d0192915050565b6001600160a01b038581168252841660208201526040810183905260806060820181905260009061369890830184613562565b9695505050505050565b602081526000610ceb6020830184613562565b60208082526032908201527f4552433732313a207472616e7366657220746f206e6f6e20455243373231526560408201527131b2b4bb32b91034b6b83632b6b2b73a32b960711b606082015260800190565b6020808252602b908201527f496e697469616c697a61626c653a20636f6e7472616374206973206e6f74206960408201526a6e697469616c697a696e6760a81b606082015260800190565b6020808252602e908201527f4552433732313a2063616c6c6572206973206e6f7420746f6b656e206f776e6560408201526d1c881b9bdc88185c1c1c9bdd995960921b606082015260800190565b600082198211156137b3576137b3613892565b500190565b6000826137c7576137c76138a8565b500490565b60008160001904831182151516156137e6576137e6613892565b500290565b6000828210156137fd576137fd613892565b500390565b60005b8381101561381d578181015183820152602001613805565b838111156114755750506000910152565b600181811c9082168061384257607f821691505b6020821081141561244157634e487b7160e01b600052602260045260246000fd5b600060001982141561387757613877613892565b5060010190565b60008261388d5761388d6138a8565b500690565b634e487b7160e01b600052601160045260246000fd5b634e487b7160e01b600052601260045260246000fd5b634e487b7160e01b600052602160045260246000fd5b634e487b7160e01b600052603160045260246000fd5b634e487b7160e01b600052603260045260246000fd5b634e487b7160e01b600052604160045260246000fd5b6001600160a01b03811681146117e257600080fd5b80151581146117e257600080fd5b6001600160e01b0319811681146117e257600080fdfe4142434445464748494a4b4c4d4e4f505152535455565758595a6162636465666768696a6b6c6d6e6f707172737475767778797a303132333435363738392b2fa26469706673582212205d9622de3c3ec15a25e1a98506a2f63c0c9d0918847d0b6ec51b8ea4ec56245564736f6c63430008070033",
  "devdoc": {
    "kind": "dev",
    "methods": {
      "DOMAIN_SEPARATOR()": {
        "details": "Returns the contract's {EIP712} domain separator."
      },
      "approve(address,uint256)": {
        "details": "See {IERC721-approve}."
      },
      "balanceOf(address)": {
        "details": "See {IERC721-balanceOf}."
      },
      "constructor": {
        "custom:oz-upgrades-unsafe-allow": "constructor"
      },
      "delegate(address)": {
        "details": "Delegates votes from the sender to `delegatee`."
      },
      "delegateBySig(address,uint256,uint256,uint8,bytes32,bytes32)": {
        "details": "Delegates votes from signer to `delegatee`."
      },
      "delegates(address)": {
        "details": "Returns the delegate that `account` has chosen."
      },
      "getApproved(uint256)": {
        "details": "See {IERC721-getApproved}."
      },
      "getPastTotalSupply(uint256)": {
        "details": "Returns the total supply of votes available at the end of a past block (`blockNumber`). NOTE: This value is the sum of all available votes, which is not necessarily the sum of all delegated votes. Votes that have not been delegated are still part of total supply, even though they would not participate in a vote. Requirements: - `blockNumber` must have been already mined"
      },
      "getPastVotes(address,uint256)": {
        "details": "Returns the amount of votes that `account` had at the end of a past block (`blockNumber`). Requirements: - `blockNumber` must have been already mined"
      },
      "getVotes(address)": {
        "details": "Returns the current amount of votes that `account` has."
      },
      "isApprovedForAll(address,address)": {
        "details": "See {IERC721-isApprovedForAll}."
      },
      "name()": {
        "details": "See {IERC721Metadata-name}."
      },
      "nonces(address)": {
        "details": "Returns an address nonce."
      },
      "owner()": {
        "details": "Returns the address of the current owner."
      },
      "ownerOf(uint256)": {
        "details": "See {IERC721-ownerOf}."
      },
      "renounceOwnership()": {
        "details": "Leaves the contract without owner. It will not be possible to call `onlyOwner` functions anymore. Can only be called by the current owner. NOTE: Renouncing ownership will leave the contract without an owner, thereby removing any functionality that is only available to the owner."
      },
      "safeTransferFrom(address,address,uint256)": {
        "details": "See {IERC721-safeTransferFrom}."
      },
      "safeTransferFrom(address,address,uint256,bytes)": {
        "details": "See {IERC721-safeTransferFrom}."
      },
      "setApprovalForAll(address,bool)": {
        "details": "See {IERC721-setApprovalForAll}."
      },
      "supportsInterface(bytes4)": {
        "details": "See {IERC165-supportsInterface}."
      },
      "symbol()": {
        "details": "See {IERC721Metadata-symbol}."
      },
      "tokenURI(uint256)": {
        "details": "See {IERC721Metadata-tokenURI}."
      },
      "transferFrom(address,address,uint256)": {
        "details": "See {IERC721-transferFrom}."
      },
      "transferOwnership(address)": {
        "details": "Transfers ownership of the contract to a new account (`newOwner`). Can only be called by the current owner."
      }
    },
    "version": 1
  },
  "userdoc": {
    "kind": "user",
    "methods": {},
    "version": 1
  },
  "storageLayout": {
    "storage": [
      {
        "astId": 3247,
        "contract": "contracts/Membership.sol:Membership",
        "label": "_initialized",
        "offset": 0,
        "slot": "0",
        "type": "t_uint8"
      },
      {
        "astId": 3250,
        "contract": "contracts/Membership.sol:Membership",
        "label": "_initializing",
        "offset": 1,
        "slot": "0",
        "type": "t_bool"
      },
      {
        "astId": 8642,
        "contract": "contracts/Membership.sol:Membership",
        "label": "__gap",
        "offset": 0,
        "slot": "1",
        "type": "t_array(t_uint256)50_storage"
      },
      {
        "astId": 9798,
        "contract": "contracts/Membership.sol:Membership",
        "label": "__gap",
        "offset": 0,
        "slot": "51",
        "type": "t_array(t_uint256)50_storage"
      },
      {
        "astId": 6983,
        "contract": "contracts/Membership.sol:Membership",
        "label": "_name",
        "offset": 0,
        "slot": "101",
        "type": "t_string_storage"
      },
      {
        "astId": 6985,
        "contract": "contracts/Membership.sol:Membership",
        "label": "_symbol",
        "offset": 0,
        "slot": "102",
        "type": "t_string_storage"
      },
      {
        "astId": 6989,
        "contract": "contracts/Membership.sol:Membership",
        "label": "_owners",
        "offset": 0,
        "slot": "103",
        "type": "t_mapping(t_uint256,t_address)"
      },
      {
        "astId": 6993,
        "contract": "contracts/Membership.sol:Membership",
        "label": "_balances",
        "offset": 0,
        "slot": "104",
        "type": "t_mapping(t_address,t_uint256)"
      },
      {
        "astId": 6997,
        "contract": "contracts/Membership.sol:Membership",
        "label": "_tokenApprovals",
        "offset": 0,
        "slot": "105",
        "type": "t_mapping(t_uint256,t_address)"
      },
      {
        "astId": 7003,
        "contract": "contracts/Membership.sol:Membership",
        "label": "_operatorApprovals",
        "offset": 0,
        "slot": "106",
        "type": "t_mapping(t_address,t_mapping(t_address,t_bool))"
      },
      {
        "astId": 7845,
        "contract": "contracts/Membership.sol:Membership",
        "label": "__gap",
        "offset": 0,
        "slot": "107",
        "type": "t_array(t_uint256)44_storage"
      },
      {
        "astId": 9614,
        "contract": "contracts/Membership.sol:Membership",
        "label": "_HASHED_NAME",
        "offset": 0,
        "slot": "151",
        "type": "t_bytes32"
      },
      {
        "astId": 9616,
        "contract": "contracts/Membership.sol:Membership",
        "label": "_HASHED_VERSION",
        "offset": 0,
        "slot": "152",
        "type": "t_bytes32"
      },
      {
        "astId": 9754,
        "contract": "contracts/Membership.sol:Membership",
        "label": "__gap",
        "offset": 0,
        "slot": "153",
        "type": "t_array(t_uint256)50_storage"
      },
      {
        "astId": 2423,
        "contract": "contracts/Membership.sol:Membership",
        "label": "_delegation",
        "offset": 0,
        "slot": "203",
        "type": "t_mapping(t_address,t_address)"
      },
      {
        "astId": 2428,
        "contract": "contracts/Membership.sol:Membership",
        "label": "_delegateCheckpoints",
        "offset": 0,
        "slot": "204",
        "type": "t_mapping(t_address,t_struct(History)8382_storage)"
      },
      {
        "astId": 2431,
        "contract": "contracts/Membership.sol:Membership",
        "label": "_totalCheckpoints",
        "offset": 0,
        "slot": "205",
        "type": "t_struct(History)8382_storage"
      },
      {
        "astId": 2436,
        "contract": "contracts/Membership.sol:Membership",
        "label": "_nonces",
        "offset": 0,
        "slot": "206",
        "type": "t_mapping(t_address,t_struct(Counter)8649_storage)"
      },
      {
        "astId": 2850,
        "contract": "contracts/Membership.sol:Membership",
        "label": "__gap",
        "offset": 0,
        "slot": "207",
        "type": "t_array(t_uint256)46_storage"
      },
      {
        "astId": 8076,
        "contract": "contracts/Membership.sol:Membership",
        "label": "__gap",
        "offset": 0,
        "slot": "253",
        "type": "t_array(t_uint256)50_storage"
      },
      {
        "astId": 541,
        "contract": "contracts/Membership.sol:Membership",
        "label": "_owner",
        "offset": 0,
        "slot": "303",
        "type": "t_address"
      },
      {
        "astId": 661,
        "contract": "contracts/Membership.sol:Membership",
        "label": "__gap",
        "offset": 0,
        "slot": "304",
        "type": "t_array(t_uint256)49_storage"
      },
      {
        "astId": 26632,
        "contract": "contracts/Membership.sol:Membership",
        "label": "totalSupply",
        "offset": 0,
        "slot": "353",
        "type": "t_uint256"
      },
      {
        "astId": 26634,
        "contract": "contracts/Membership.sol:Membership",
        "label": "maxMemberLimit",
        "offset": 0,
        "slot": "354",
        "type": "t_uint256"
      },
      {
        "astId": 26637,
        "contract": "contracts/Membership.sol:Membership",
        "label": "_tokenIds",
        "offset": 0,
        "slot": "355",
        "type": "t_struct(Counter)17376_storage"
      },
      {
        "astId": 26641,
        "contract": "contracts/Membership.sol:Membership",
        "label": "isMember",
        "offset": 0,
        "slot": "356",
        "type": "t_mapping(t_address,t_bool)"
      },
      {
        "astId": 26645,
        "contract": "contracts/Membership.sol:Membership",
        "label": "wasMember",
        "offset": 0,
        "slot": "357",
        "type": "t_mapping(t_address,t_bool)"
      },
      {
        "astId": 26648,
        "contract": "contracts/Membership.sol:Membership",
        "label": "admissionTokens",
        "offset": 0,
        "slot": "358",
        "type": "t_array(t_address)dyn_storage"
      },
      {
        "astId": 26653,
        "contract": "contracts/Membership.sol:Membership",
        "label": "admissionTokenSetting",
        "offset": 0,
        "slot": "359",
        "type": "t_mapping(t_address,t_struct(AdmissionTokenSetting)26630_storage)"
      },
      {
        "astId": 27293,
        "contract": "contracts/Membership.sol:Membership",
        "label": "__gap",
        "offset": 0,
        "slot": "360",
        "type": "t_array(t_uint256)50_storage"
      }
    ],
    "types": {
      "t_address": {
        "encoding": "inplace",
        "label": "address",
        "numberOfBytes": "20"
      },
      "t_array(t_address)dyn_storage": {
        "base": "t_address",
        "encoding": "dynamic_array",
        "label": "address[]",
        "numberOfBytes": "32"
      },
      "t_array(t_struct(Checkpoint)8377_storage)dyn_storage": {
        "base": "t_struct(Checkpoint)8377_storage",
        "encoding": "dynamic_array",
        "label": "struct CheckpointsUpgradeable.Checkpoint[]",
        "numberOfBytes": "32"
      },
      "t_array(t_uint256)44_storage": {
        "base": "t_uint256",
        "encoding": "inplace",
        "label": "uint256[44]",
        "numberOfBytes": "1408"
      },
      "t_array(t_uint256)46_storage": {
        "base": "t_uint256",
        "encoding": "inplace",
        "label": "uint256[46]",
        "numberOfBytes": "1472"
      },
      "t_array(t_uint256)49_storage": {
        "base": "t_uint256",
        "encoding": "inplace",
        "label": "uint256[49]",
        "numberOfBytes": "1568"
      },
      "t_array(t_uint256)50_storage": {
        "base": "t_uint256",
        "encoding": "inplace",
        "label": "uint256[50]",
        "numberOfBytes": "1600"
      },
      "t_bool": {
        "encoding": "inplace",
        "label": "bool",
        "numberOfBytes": "1"
      },
      "t_bytes32": {
        "encoding": "inplace",
        "label": "bytes32",
        "numberOfBytes": "32"
      },
      "t_mapping(t_address,t_address)": {
        "encoding": "mapping",
        "key": "t_address",
        "label": "mapping(address => address)",
        "numberOfBytes": "32",
        "value": "t_address"
      },
      "t_mapping(t_address,t_bool)": {
        "encoding": "mapping",
        "key": "t_address",
        "label": "mapping(address => bool)",
        "numberOfBytes": "32",
        "value": "t_bool"
      },
      "t_mapping(t_address,t_mapping(t_address,t_bool))": {
        "encoding": "mapping",
        "key": "t_address",
        "label": "mapping(address => mapping(address => bool))",
        "numberOfBytes": "32",
        "value": "t_mapping(t_address,t_bool)"
      },
      "t_mapping(t_address,t_struct(AdmissionTokenSetting)26630_storage)": {
        "encoding": "mapping",
        "key": "t_address",
        "label": "mapping(address => struct Membership.AdmissionTokenSetting)",
        "numberOfBytes": "32",
        "value": "t_struct(AdmissionTokenSetting)26630_storage"
      },
      "t_mapping(t_address,t_struct(Counter)8649_storage)": {
        "encoding": "mapping",
        "key": "t_address",
        "label": "mapping(address => struct CountersUpgradeable.Counter)",
        "numberOfBytes": "32",
        "value": "t_struct(Counter)8649_storage"
      },
      "t_mapping(t_address,t_struct(History)8382_storage)": {
        "encoding": "mapping",
        "key": "t_address",
        "label": "mapping(address => struct CheckpointsUpgradeable.History)",
        "numberOfBytes": "32",
        "value": "t_struct(History)8382_storage"
      },
      "t_mapping(t_address,t_uint256)": {
        "encoding": "mapping",
        "key": "t_address",
        "label": "mapping(address => uint256)",
        "numberOfBytes": "32",
        "value": "t_uint256"
      },
      "t_mapping(t_uint256,t_address)": {
        "encoding": "mapping",
        "key": "t_uint256",
        "label": "mapping(uint256 => address)",
        "numberOfBytes": "32",
        "value": "t_address"
      },
      "t_string_storage": {
        "encoding": "bytes",
        "label": "string",
        "numberOfBytes": "32"
      },
      "t_struct(AdmissionTokenSetting)26630_storage": {
        "encoding": "inplace",
        "label": "struct Membership.AdmissionTokenSetting",
        "members": [
          {
            "astId": 26625,
            "contract": "contracts/Membership.sol:Membership",
            "label": "minTokenToAdmit",
            "offset": 0,
            "slot": "0",
            "type": "t_uint256"
          },
          {
            "astId": 26627,
            "contract": "contracts/Membership.sol:Membership",
            "label": "tokenId",
            "offset": 0,
            "slot": "1",
            "type": "t_uint256"
          },
          {
            "astId": 26629,
            "contract": "contracts/Membership.sol:Membership",
            "label": "active",
            "offset": 0,
            "slot": "2",
            "type": "t_bool"
          }
        ],
        "numberOfBytes": "96"
      },
      "t_struct(Checkpoint)8377_storage": {
        "encoding": "inplace",
        "label": "struct CheckpointsUpgradeable.Checkpoint",
        "members": [
          {
            "astId": 8374,
            "contract": "contracts/Membership.sol:Membership",
            "label": "_blockNumber",
            "offset": 0,
            "slot": "0",
            "type": "t_uint32"
          },
          {
            "astId": 8376,
            "contract": "contracts/Membership.sol:Membership",
            "label": "_value",
            "offset": 4,
            "slot": "0",
            "type": "t_uint224"
          }
        ],
        "numberOfBytes": "32"
      },
      "t_struct(Counter)17376_storage": {
        "encoding": "inplace",
        "label": "struct Counters.Counter",
        "members": [
          {
            "astId": 17375,
            "contract": "contracts/Membership.sol:Membership",
            "label": "_value",
            "offset": 0,
            "slot": "0",
            "type": "t_uint256"
          }
        ],
        "numberOfBytes": "32"
      },
      "t_struct(Counter)8649_storage": {
        "encoding": "inplace",
        "label": "struct CountersUpgradeable.Counter",
        "members": [
          {
            "astId": 8648,
            "contract": "contracts/Membership.sol:Membership",
            "label": "_value",
            "offset": 0,
            "slot": "0",
            "type": "t_uint256"
          }
        ],
        "numberOfBytes": "32"
      },
      "t_struct(History)8382_storage": {
        "encoding": "inplace",
        "label": "struct CheckpointsUpgradeable.History",
        "members": [
          {
            "astId": 8381,
            "contract": "contracts/Membership.sol:Membership",
            "label": "_checkpoints",
            "offset": 0,
            "slot": "0",
            "type": "t_array(t_struct(Checkpoint)8377_storage)dyn_storage"
          }
        ],
        "numberOfBytes": "32"
      },
      "t_uint224": {
        "encoding": "inplace",
        "label": "uint224",
        "numberOfBytes": "28"
      },
      "t_uint256": {
        "encoding": "inplace",
        "label": "uint256",
        "numberOfBytes": "32"
      },
      "t_uint32": {
        "encoding": "inplace",
        "label": "uint32",
        "numberOfBytes": "4"
      },
      "t_uint8": {
        "encoding": "inplace",
        "label": "uint8",
        "numberOfBytes": "1"
      }
    }
  }
}