{
  "address": "0xBA6496A6f37cbfF35b270279CdE2CD0569545D60",
  "abi": [
    {
      "inputs": [],
      "stateMutability": "nonpayable",
      "type": "constructor"
    },
    {
      "inputs": [],
      "name": "ActionDuplicated",
      "type": "error"
    },
    {
      "inputs": [],
      "name": "BudgetHasEnded",
      "type": "error"
    },
    {
      "inputs": [],
      "name": "BudgetNotStarted",
      "type": "error"
    },
    {
      "inputs": [],
      "name": "BudgetUsageExceeded",
      "type": "error"
    },
    {
      "inputs": [],
      "name": "InvalidApproverList",
      "type": "error"
    },
    {
      "inputs": [],
      "name": "InvalidExecuteeTeam",
      "type": "error"
    },
    {
      "inputs": [
        {
          "internalType": "uint256",
          "name": "id",
          "type": "uint256"
        }
      ],
      "name": "InvalidTransactionId",
      "type": "error"
    },
    {
      "inputs": [
        {
          "internalType": "uint256",
          "name": "id",
          "type": "uint256"
        },
        {
          "internalType": "enum CommonBudgetApproval.Status",
          "name": "status",
          "type": "uint8"
        }
      ],
      "name": "InvalidTransactionStatus",
      "type": "error"
    },
    {
      "inputs": [
        {
          "internalType": "uint256",
          "name": "id",
          "type": "uint256"
        }
      ],
      "name": "TransactionExpired",
      "type": "error"
    },
    {
      "inputs": [],
      "name": "UnauthorizedApprover",
      "type": "error"
    },
    {
      "inputs": [],
      "name": "UnauthorizedExecutee",
      "type": "error"
    },
    {
      "inputs": [],
      "name": "UnauthorizedExecutor",
      "type": "error"
    },
    {
      "anonymous": false,
      "inputs": [
        {
          "indexed": false,
          "internalType": "address",
          "name": "target",
          "type": "address"
        }
      ],
      "name": "AllowAddress",
      "type": "event"
    },
    {
      "anonymous": false,
      "inputs": [
        {
          "indexed": false,
          "internalType": "uint256",
          "name": "amount",
          "type": "uint256"
        }
      ],
      "name": "AllowAmount",
      "type": "event"
    },
    {
      "anonymous": false,
      "inputs": [
        {
          "indexed": true,
          "internalType": "uint256",
          "name": "teamId",
          "type": "uint256"
        }
      ],
      "name": "AllowTeam",
      "type": "event"
    },
    {
      "anonymous": false,
      "inputs": [
        {
          "indexed": false,
          "internalType": "address",
          "name": "token",
          "type": "address"
        }
      ],
      "name": "AllowToken",
      "type": "event"
    },
    {
      "anonymous": false,
      "inputs": [
        {
          "indexed": true,
          "internalType": "uint256",
          "name": "id",
          "type": "uint256"
        },
        {
          "indexed": false,
          "internalType": "address",
          "name": "approver",
          "type": "address"
        },
        {
          "indexed": false,
          "internalType": "string",
          "name": "comment",
          "type": "string"
        }
      ],
      "name": "ApproveTransaction",
      "type": "event"
    },
    {
      "anonymous": false,
      "inputs": [
        {
          "indexed": true,
          "internalType": "uint256",
          "name": "id",
          "type": "uint256"
        },
        {
          "indexed": false,
          "internalType": "bytes[]",
          "name": "data",
          "type": "bytes[]"
        },
        {
          "indexed": false,
          "internalType": "uint256",
          "name": "deadline",
          "type": "uint256"
        },
        {
          "indexed": false,
          "internalType": "enum CommonBudgetApproval.Status",
          "name": "status",
          "type": "uint8"
        },
        {
          "indexed": false,
          "internalType": "string",
          "name": "comment",
          "type": "string"
        },
        {
          "indexed": false,
          "internalType": "address",
          "name": "creator",
          "type": "address"
        }
      ],
      "name": "CreateTransaction",
      "type": "event"
    },
    {
      "anonymous": false,
      "inputs": [
        {
          "indexed": true,
          "internalType": "uint256",
          "name": "id",
          "type": "uint256"
        },
        {
          "indexed": false,
          "internalType": "bytes[]",
          "name": "data",
          "type": "bytes[]"
        },
        {
          "indexed": false,
          "internalType": "address",
          "name": "_executor",
          "type": "address"
        }
      ],
      "name": "ExecuteTransaction",
      "type": "event"
    },
    {
      "anonymous": false,
      "inputs": [
        {
          "indexed": true,
          "internalType": "uint256",
          "name": "id",
          "type": "uint256"
        },
        {
          "indexed": true,
          "internalType": "address",
          "name": "executor",
          "type": "address"
        },
        {
          "indexed": true,
          "internalType": "address",
          "name": "toAddress",
          "type": "address"
        },
        {
          "indexed": false,
          "internalType": "address",
          "name": "token",
          "type": "address"
        },
        {
          "indexed": false,
          "internalType": "uint256",
          "name": "amount",
          "type": "uint256"
        }
      ],
      "name": "ExecuteTransferERC20Transaction",
      "type": "event"
    },
    {
      "anonymous": false,
      "inputs": [
        {
          "indexed": false,
          "internalType": "uint8",
          "name": "version",
          "type": "uint8"
        }
      ],
      "name": "Initialized",
      "type": "event"
    },
    {
      "anonymous": false,
      "inputs": [
        {
          "indexed": true,
          "internalType": "uint256",
          "name": "id",
          "type": "uint256"
        }
      ],
      "name": "RevokeTransaction",
      "type": "event"
    },
    {
      "anonymous": false,
      "inputs": [
        {
          "indexed": false,
          "internalType": "address",
          "name": "approver",
          "type": "address"
        }
      ],
      "name": "SetApprover",
      "type": "event"
    },
    {
      "inputs": [
        {
          "internalType": "address",
          "name": "",
          "type": "address"
        }
      ],
      "name": "addressesMapping",
      "outputs": [
        {
          "internalType": "bool",
          "name": "",
          "type": "bool"
        }
      ],
      "stateMutability": "view",
      "type": "function"
    },
    {
      "inputs": [],
      "name": "afterInitialized",
      "outputs": [],
      "stateMutability": "nonpayable",
      "type": "function"
    },
    {
      "inputs": [],
      "name": "allowAllAddresses",
      "outputs": [
        {
          "internalType": "bool",
          "name": "",
          "type": "bool"
        }
      ],
      "stateMutability": "view",
      "type": "function"
    },
    {
      "inputs": [],
      "name": "allowAllTokens",
      "outputs": [
        {
          "internalType": "bool",
          "name": "",
          "type": "bool"
        }
      ],
      "stateMutability": "view",
      "type": "function"
    },
    {
      "inputs": [],
      "name": "allowAnyAmount",
      "outputs": [
        {
          "internalType": "bool",
          "name": "",
          "type": "bool"
        }
      ],
      "stateMutability": "view",
      "type": "function"
    },
    {
      "inputs": [],
      "name": "allowUnlimitedUsageCount",
      "outputs": [
        {
          "internalType": "bool",
          "name": "",
          "type": "bool"
        }
      ],
      "stateMutability": "view",
      "type": "function"
    },
    {
      "inputs": [
        {
          "internalType": "uint256",
          "name": "id",
          "type": "uint256"
        },
        {
          "internalType": "string",
          "name": "comment",
          "type": "string"
        }
      ],
      "name": "approveTransaction",
      "outputs": [],
      "stateMutability": "nonpayable",
      "type": "function"
    },
    {
      "inputs": [],
      "name": "approverTeamId",
      "outputs": [
        {
          "internalType": "uint256",
          "name": "",
          "type": "uint256"
        }
      ],
      "stateMutability": "view",
      "type": "function"
    },
    {
      "inputs": [
        {
          "internalType": "address",
          "name": "eoa",
          "type": "address"
        }
      ],
      "name": "approversMapping",
      "outputs": [
        {
          "internalType": "bool",
          "name": "",
          "type": "bool"
        }
      ],
      "stateMutability": "view",
      "type": "function"
    },
    {
      "inputs": [
        {
          "internalType": "bytes[]",
          "name": "_data",
          "type": "bytes[]"
        },
        {
          "internalType": "uint32",
          "name": "_deadline",
          "type": "uint32"
        },
        {
          "internalType": "bool",
          "name": "_isExecute",
          "type": "bool"
        },
        {
          "internalType": "string",
          "name": "comment",
          "type": "string"
        }
      ],
      "name": "createTransaction",
      "outputs": [
        {
          "internalType": "uint256",
          "name": "",
          "type": "uint256"
        }
      ],
      "stateMutability": "payable",
      "type": "function"
    },
    {
      "inputs": [],
      "name": "endTime",
      "outputs": [
        {
          "internalType": "uint256",
          "name": "",
          "type": "uint256"
        }
      ],
      "stateMutability": "view",
      "type": "function"
    },
    {
      "inputs": [],
      "name": "executeParams",
      "outputs": [
        {
          "internalType": "string[]",
          "name": "",
          "type": "string[]"
        }
      ],
      "stateMutability": "pure",
      "type": "function"
    },
    {
      "inputs": [
        {
          "internalType": "uint256",
          "name": "id",
          "type": "uint256"
        }
      ],
      "name": "executeTransaction",
      "outputs": [],
      "stateMutability": "payable",
      "type": "function"
    },
    {
      "inputs": [],
      "name": "executee",
      "outputs": [
        {
          "internalType": "address",
          "name": "",
          "type": "address"
        }
      ],
      "stateMutability": "view",
      "type": "function"
    },
    {
      "inputs": [],
      "name": "executor",
      "outputs": [
        {
          "internalType": "address",
          "name": "",
          "type": "address"
        }
      ],
      "stateMutability": "view",
      "type": "function"
    },
    {
      "inputs": [],
      "name": "executorTeamId",
      "outputs": [
        {
          "internalType": "uint256",
          "name": "",
          "type": "uint256"
        }
      ],
      "stateMutability": "view",
      "type": "function"
    },
    {
      "inputs": [
        {
          "components": [
            {
              "internalType": "address",
              "name": "executor",
              "type": "address"
            },
            {
              "internalType": "uint256",
              "name": "executorTeamId",
              "type": "uint256"
            },
            {
              "internalType": "address[]",
              "name": "approvers",
              "type": "address[]"
            },
            {
              "internalType": "uint256",
              "name": "approverTeamId",
              "type": "uint256"
            },
            {
              "internalType": "uint256",
              "name": "minApproval",
              "type": "uint256"
            },
            {
              "internalType": "string",
              "name": "text",
              "type": "string"
            },
            {
              "internalType": "string",
              "name": "transactionType",
              "type": "string"
            },
            {
              "internalType": "uint256",
              "name": "startTime",
              "type": "uint256"
            },
            {
              "internalType": "uint256",
              "name": "endTime",
              "type": "uint256"
            },
            {
              "internalType": "bool",
              "name": "allowUnlimitedUsageCount",
              "type": "bool"
            },
            {
              "internalType": "uint256",
              "name": "usageCount",
              "type": "uint256"
            }
          ],
          "internalType": "struct CommonBudgetApproval.InitializeParams",
          "name": "params",
          "type": "tuple"
        },
        {
          "internalType": "bool",
          "name": "_allowAllAddresses",
          "type": "bool"
        },
        {
          "internalType": "address[]",
          "name": "_toAddresses",
          "type": "address[]"
        },
        {
          "internalType": "bool",
          "name": "_allowAllTokens",
          "type": "bool"
        },
        {
          "internalType": "address",
          "name": "_token",
          "type": "address"
        },
        {
          "internalType": "bool",
          "name": "_allowAnyAmount",
          "type": "bool"
        },
        {
          "internalType": "uint256",
          "name": "_totalAmount",
          "type": "uint256"
        },
        {
          "internalType": "uint256[]",
          "name": "_toTeamIds",
          "type": "uint256[]"
        }
      ],
      "name": "initialize",
      "outputs": [],
      "stateMutability": "nonpayable",
      "type": "function"
    },
    {
      "inputs": [],
      "name": "minApproval",
      "outputs": [
        {
          "internalType": "uint256",
          "name": "",
          "type": "uint256"
        }
      ],
      "stateMutability": "view",
      "type": "function"
    },
    {
      "inputs": [],
      "name": "name",
      "outputs": [
        {
          "internalType": "string",
          "name": "",
          "type": "string"
        }
      ],
      "stateMutability": "view",
      "type": "function"
    },
    {
      "inputs": [
        {
          "internalType": "uint256",
          "name": "id",
          "type": "uint256"
        }
      ],
      "name": "revokeTransaction",
      "outputs": [],
      "stateMutability": "nonpayable",
      "type": "function"
    },
    {
      "inputs": [],
      "name": "startTime",
      "outputs": [
        {
          "internalType": "uint256",
          "name": "",
          "type": "uint256"
        }
      ],
      "stateMutability": "view",
      "type": "function"
    },
    {
      "inputs": [],
      "name": "team",
      "outputs": [
        {
          "internalType": "address",
          "name": "",
          "type": "address"
        }
      ],
      "stateMutability": "view",
      "type": "function"
    },
    {
      "inputs": [],
      "name": "text",
      "outputs": [
        {
          "internalType": "string",
          "name": "",
          "type": "string"
        }
      ],
      "stateMutability": "view",
      "type": "function"
    },
    {
      "inputs": [
        {
          "internalType": "uint256",
          "name": "",
          "type": "uint256"
        }
      ],
      "name": "toTeamIds",
      "outputs": [
        {
          "internalType": "uint256",
          "name": "",
          "type": "uint256"
        }
      ],
      "stateMutability": "view",
      "type": "function"
    },
    {
      "inputs": [
        {
          "internalType": "uint256",
          "name": "",
          "type": "uint256"
        }
      ],
      "name": "toTeamIdsMapping",
      "outputs": [
        {
          "internalType": "bool",
          "name": "",
          "type": "bool"
        }
      ],
      "stateMutability": "view",
      "type": "function"
    },
    {
      "inputs": [],
      "name": "toTeamsLength",
      "outputs": [
        {
          "internalType": "uint256",
          "name": "",
          "type": "uint256"
        }
      ],
      "stateMutability": "view",
      "type": "function"
    },
    {
      "inputs": [],
      "name": "token",
      "outputs": [
        {
          "internalType": "address",
          "name": "",
          "type": "address"
        }
      ],
      "stateMutability": "view",
      "type": "function"
    },
    {
      "inputs": [],
      "name": "totalAmount",
      "outputs": [
        {
          "internalType": "uint256",
          "name": "",
          "type": "uint256"
        }
      ],
      "stateMutability": "view",
      "type": "function"
    },
    {
      "inputs": [],
      "name": "transactionType",
      "outputs": [
        {
          "internalType": "string",
          "name": "",
          "type": "string"
        }
      ],
      "stateMutability": "view",
      "type": "function"
    },
    {
      "inputs": [
        {
          "internalType": "uint256",
          "name": "",
          "type": "uint256"
        }
      ],
      "name": "transactions",
      "outputs": [
        {
          "internalType": "uint256",
          "name": "id",
          "type": "uint256"
        },
        {
          "internalType": "enum CommonBudgetApproval.Status",
          "name": "status",
          "type": "uint8"
        },
        {
          "internalType": "uint32",
          "name": "deadline",
          "type": "uint32"
        },
        {
          "internalType": "bool",
          "name": "isExist",
          "type": "bool"
        },
        {
          "internalType": "uint256",
          "name": "approvedCount",
          "type": "uint256"
        }
      ],
      "stateMutability": "view",
      "type": "function"
    },
    {
      "inputs": [],
      "name": "usageCount",
      "outputs": [
        {
          "internalType": "uint256",
          "name": "",
          "type": "uint256"
        }
      ],
      "stateMutability": "view",
      "type": "function"
    }
  ],
  "transactionHash": "0x76f11983eb7c2c0446524bcbcce9851f4edb5daa718aef17675bf4dfedda2bba",
  "args": [],
  "numDeployments": 1,
  "solcInputHash": "af18ea8043de5ce666898263f5c38e68",
  "bytecode": "0x60806040523480156200001157600080fd5b506200001c6200002c565b620000266200002c565b620000ee565b600054610100900460ff1615620000995760405162461bcd60e51b815260206004820152602760248201527f496e697469616c697a61626c653a20636f6e747261637420697320696e697469604482015266616c697a696e6760c81b606482015260840160405180910390fd5b60005460ff9081161015620000ec576000805460ff191660ff9081179091556040519081527f7f26b83ff96e1f2b6a682f133852f6798a09c465da95921460cefb38474024989060200160405180910390a15b565b6127c480620000fe6000396000f3fe6080604052600436106101d85760003560e01c80638501543711610102578063cf26fec611610095578063e52b4ab211610064578063e52b4ab21461057a578063ee22610b146105aa578063f5c03852146105bd578063fc0c546a146105db57600080fd5b8063cf26fec614610526578063d96c91961461053b578063dd7a070414610550578063de755e2f1461056557600080fd5b80639ace38c2116100d15780639ace38c214610468578063b617b3ee146104d4578063c34c08e5146104ee578063cd753b6c1461050c57600080fd5b806385015437146103ca57806385f2aef2146103eb5780638d1c5c291461041857806397c85a611461044857600080fd5b806331a7bdd91161017a578063735631ad11610149578063735631ad1461036057806378e97925146103805780637cd47d93146103955780637cddb6c3146103aa57600080fd5b806331a7bdd9146102cc57806350bd881f146102ee5780635ad32502146103035780636bdebe5e1461032757600080fd5b80631a39d8ef116101b65780631a39d8ef1461026a5780631bd4f9d7146102805780631f1bd692146102a25780633197cbb6146102b757600080fd5b806303ff90f6146101dd57806306fdde031461020157806314b893f914610257575b600080fd5b3480156101e957600080fd5b506008545b6040519081526020015b60405180910390f35b34801561020d57600080fd5b5061024a6040518060400160405280601e81526020017f5472616e736665722045524332302042756467657420417070726f76616c000081525081565b6040516101f891906124f0565b6101ee610265366004611ea7565b610600565b34801561027657600080fd5b506101ee60125481565b34801561028c57600080fd5b506102a061029b366004612116565b610747565b005b3480156102ae57600080fd5b5061024a61093a565b3480156102c357600080fd5b50600e546101ee565b3480156102d857600080fd5b506102e16109cc565b6040516101f8919061248e565b3480156102fa57600080fd5b50600c546101ee565b34801561030f57600080fd5b50600b5460ff165b60405190151581526020016101f8565b34801561033357600080fd5b50610317610342366004611e23565b6001600160a01b031660009081526006602052604090205460ff1690565b34801561036c57600080fd5b506102a061037b3660046121eb565b610acd565b34801561038c57600080fd5b50600d546101ee565b3480156103a157600080fd5b5061024a610bb5565b3480156103b657600080fd5b506101ee6103c53660046121eb565b610bc4565b3480156103d657600080fd5b5060115461031790600160a81b900460ff1681565b3480156103f757600080fd5b50610400610be5565b6040516001600160a01b0390911681526020016101f8565b34801561042457600080fd5b50610317610433366004611e23565b60106020526000908152604090205460ff1681565b34801561045457600080fd5b506102a061046336600461221d565b610c6e565b34801561047457600080fd5b506104c36104833660046121eb565b600260208190526000918252604090912080549181015460039091015460ff8083169263ffffffff61010082041692650100000000009091049091169085565b6040516101f8959493929190612517565b3480156104e057600080fd5b50600f546103179060ff1681565b3480156104fa57600080fd5b506003546001600160a01b0316610400565b34801561051857600080fd5b506011546103179060ff1681565b34801561053257600080fd5b506102a0610e25565b34801561054757600080fd5b506007546101ee565b34801561055c57600080fd5b506013546101ee565b34801561057157600080fd5b506004546101ee565b34801561058657600080fd5b506103176105953660046121eb565b60146020526000908152604090205460ff1681565b6102a06105b83660046121eb565b610e52565b3480156105c957600080fd5b506005546001600160a01b0316610400565b3480156105e757600080fd5b506011546104009061010090046001600160a01b031681565b600061060b3361113f565b610628576040516341c8302160e11b815260040160405180910390fd5b610636600180546001019055565b600061064160015490565b600081815260026020908152604090912082815589519293509161066d916001840191908b0190611af5565b506002810180546501000000000065ffffffffff001990911661010063ffffffff8b160265ff00000000001916171790556008546106c757600082815260026020819052604090912001805460ff191660011790556106e2565b600082815260026020819052604090912001805460ff191690555b600281015460405183917f8a5186dbaf6f344b2837e11834be94edebb633f05034f422c6b1fe1595b4d0cc91610725918c918c9160ff16908b908b903390612433565b60405180910390a2851561073c5761073c82610e52565b509695505050505050565b600054610100900460ff16158080156107675750600054600160ff909116105b806107815750303b158015610781575060005460ff166001145b6107e95760405162461bcd60e51b815260206004820152602e60248201527f496e697469616c697a61626c653a20636f6e747261637420697320616c72656160448201526d191e481a5b9a5d1a585b1a5e995960921b60648201526084015b60405180910390fd5b6000805460ff19166001179055801561080c576000805461ff0019166101001790555b61081589611185565b600f805460ff191689151517905560005b8751811015610863576108518882815181106108445761084461274d565b602002602001015161142b565b8061085b81612706565b915050610826565b5060005b82518110156108a4576108928382815181106108855761088561274d565b6020026020010151611500565b8061089c81612706565b915050610867565b50601180546001600160a81b031916871515610100600160a81b031916176101006001600160a01b038816021760ff60a81b1916600160a81b861515021790556012839055801561092f576000805461ff0019169055604051600181527f7f26b83ff96e1f2b6a682f133852f6798a09c465da95921460cefb38474024989060200160405180910390a15b505050505050505050565b606060098054610949906126d1565b80601f0160208091040260200160405190810160405280929190818152602001828054610975906126d1565b80156109c25780601f10610997576101008083540402835291602001916109c2565b820191906000526020600020905b8154815290600101906020018083116109a557829003601f168201915b5050505050905090565b6040805160038082526080820190925260609160009190816020015b60608152602001906001900390816109e85790505090506040518060400160405280600d81526020016c30b2323932b9b9903a37b5b2b760991b81525081600081518110610a3857610a3861274d565b60200260200101819052506040518060400160405280600a8152602001696164647265737320746f60b01b81525081600181518110610a7957610a7961274d565b60200260200101819052506040518060400160405280600d81526020016c75696e743235362076616c756560981b81525081600281518110610abd57610abd61274d565b6020908102919091010152919050565b610ad63361113f565b610af3576040516341c8302160e11b815260040160405180910390fd5b80610afd60015490565b1015610b1f57604051630761edaf60e51b8152600481018290526024016107e0565b600081815260026020819052604090912081015460ff1690816003811115610b4957610b49612737565b1415610b6c578181604051637006f4f960e11b81526004016107e0929190612503565b6000828152600260208190526040808320909101805460ff191660031790555183917f92a917be073b79ab50f9d997e9514a5d101e052ce04228014947e7883a7c034691a25050565b6060600a8054610949906126d1565b60138181548110610bd457600080fd5b600091825260209091200154905081565b6000610bf96005546001600160a01b031690565b6001600160a01b03166385f2aef26040518163ffffffff1660e01b815260040160206040518083038186803b158015610c3157600080fd5b505afa158015610c45573d6000803e3d6000fd5b505050506040513d601f19601f82011682018060405250810190610c699190611e47565b905090565b610c77336115e1565b610c94576040516321d9821d60e01b815260040160405180910390fd5b82610c9e60015490565b1015610cc057604051630761edaf60e51b8152600481018490526024016107e0565b600083815260026020819052604082209081015460039091015460ff9091169190610cec90600161265b565b90506000826003811115610d0257610d02612737565b14158015610d2257506001826003811115610d1f57610d1f612737565b14155b15610d44578482604051637006f4f960e11b81526004016107e0929190612503565b600085815260026020908152604080832033845260040190915290205460ff1615610d8257604051634b1a897d60e01b815260040160405180910390fd5b6000858152600260208181526040808420338552600481018352908420805460ff191660011790559288905252600301819055610dbe60085490565b8110610de257600085815260026020819052604090912001805460ff191660011790555b847f3399030f87676a97e30e211a48f9c46e2ff806d0b4cedf7100782f08c52902c9338686604051610e1693929190612369565b60405180910390a25050505050565b6005546001600160a01b03163314610e505760405163668faa7560e01b815260040160405180910390fd5b565b60008181526002602081905260409091200154819060019060ff1681816003811115610e8057610e80612737565b14610ea2578281604051637006f4f960e11b81526004016107e0929190612503565b600084815260026020819052604090912001548490610100900463ffffffff16421115610ee557604051636634e92360e01b8152600481018290526024016107e0565b600d54421015610f08576040516319b9482d60e31b815260040160405180910390fd5b600e544210610f29576040516268af4b60e91b815260040160405180910390fd5b610f323361113f565b610f4f576040516341c8302160e11b815260040160405180910390fd5b6000610f5d600b5460ff1690565b90506000610f6a600c5490565b9050600060026000898152602001908152602001600020600101805480602002602001604051908101604052809291908181526020016000905b82821015611050578382906000526020600020018054610fc3906126d1565b80601f0160208091040260200160405190810160405280929190818152602001828054610fef906126d1565b801561103c5780601f106110115761010080835404028352916020019161103c565b820191906000526020600020905b81548152906001019060200180831161101f57829003601f168201915b505050505081526020019060010190610fa4565b50505050905060005b81518110156110d4578315801561106e575082155b1561108c5760405163a5be600560e01b815260040160405180910390fd5b8361109f578261109b816126ba565b9350505b6110c2898383815181106110b5576110b561274d565b6020026020010151611610565b806110cc81612706565b915050611059565b50600c82905560008881526002602081905260409091208101805460ff19166001830217905550877f9060adf413860c5ab6e376e0aa4269e49a13f0853edb1583fce8129d4c756d79823360405161112d929190612409565b60405180910390a25050505050505050565b60006111536003546001600160a01b031690565b6001600160a01b0316826001600160a01b0316148061117f575061117f8261117a60045490565b6118e7565b92915050565b600054610100900460ff166111f05760405162461bcd60e51b815260206004820152602b60248201527f496e697469616c697a61626c653a20636f6e7472616374206973206e6f74206960448201526a6e697469616c697a696e6760a81b60648201526084016107e0565b6060810135158015611213575061120a604082018261254d565b90508160800135115b1561123157604051635039c6e160e01b815260040160405180910390fd5b600580546001600160a01b031916331790556112506020820182611e23565b600380546001600160a01b0319166001600160a01b039290921691909117905561127d60a0820182612597565b61128991600991611b52565b5061129760c0820182612597565b6112a391600a91611b52565b50608081013560085560e0810135600d55610100810135600e556112cf61014082016101208301612084565b600b805460ff1916911515919091179055610140810135600c556020810135600455606081013560075560005b611309604083018361254d565b90508110156113f557600160066000611325604086018661254d565b858181106113355761133561274d565b905060200201602081019061134a9190611e23565b6001600160a01b0316815260208101919091526040908101600020805460ff1916921515929092179091557f4664777dbfbcb27de0f602e1da5d5a259992cd7edf5b29192929c96e8fd50def906113a39084018461254d565b838181106113b3576113b361274d565b90506020020160208101906113c89190611e23565b6040516001600160a01b03909116815260200160405180910390a1806113ed81612706565b9150506112fc565b506000611400610be5565b6001600160a01b03161415611428576040516309ec7e6960e41b815260040160405180910390fd5b50565b6001600160a01b03811660009081526010602052604090205460ff16156114a65760405162461bcd60e51b815260206004820152602960248201527f4475706c696361746564206164647265737320696e20746172676574206164646044820152681c995cdcc81b1a5cdd60ba1b60648201526084016107e0565b6001600160a01b038116600081815260106020908152604091829020805460ff1916600117905590519182527ff11283a265d7a5f95fbc149dc65464f1f5be0151aac387fd76a938e1e5584604910160405180910390a150565b60008181526014602052604090205460ff161561156b5760405162461bcd60e51b815260206004820152602360248201527f4475706c696361746564207465616d20696e20746172676574207465616d206c6044820152621a5cdd60ea1b60648201526084016107e0565b600081815260146020526040808220805460ff1916600190811790915560138054918201815583527f66de8ffda797e3de9c05e8fc57b3bf0ec28a930d40b0d285d93c06501cf6a090018390555182917f97f63d9e58eec1949a905544927de4308825003ab1dd2aa1b699921c3ca31f9591a250565b6001600160a01b03811660009081526006602052604081205460ff168061117f575061117f8261117a60075490565b6000806000838060200190518101906116299190611e64565b604080516001600160a01b03848116602483015260448083018590528351808403909101815260649092019092526020810180516001600160e01b031663a9059cbb60e01b17905260115460125460055496995094975092955093600160a81b90920460ff169291166001600160a01b031663d3abc28b878560006040518463ffffffff1660e01b81526004016116c293929190612335565b600060405180830381600087803b1580156116dc57600080fd5b505af11580156116f0573d6000803e3d6000fd5b505050506040513d6000823e601f3d908101601f19168201604052611718919081019061209f565b50600f5460ff168061174257506001600160a01b03851660009081526010602052604090205460ff165b8061175157506117518561197a565b6117a95760405162461bcd60e51b815260206004820152602360248201527f526563697069656e74206e6f742077686974656c697374656420696e2062756460448201526219d95d60ea1b60648201526084016107e0565b60115460ff16806117cc57506011546001600160a01b0387811661010090920416145b6118185760405162461bcd60e51b815260206004820152601f60248201527f546f6b656e206e6f742077686974656c697374656420696e206275646765740060448201526064016107e0565b81806118245750808411155b6118805760405162461bcd60e51b815260206004820152602760248201527f4578636565646564206d617820627564676574207472616e7366657261626c6560448201526608185b5bdd5b9d60ca1b60648201526084016107e0565b816118935761188f8482612673565b6012555b604080516001600160a01b0388811682526020820187905287169133918b917fba95307af85e729544b4065b2ee24073a62816d057cf50acb33dcf24d3d4c5b6910160405180910390a45050505050505050565b6000806118f2610be5565b604051627eeac760e11b81526001600160a01b03868116600483015260248201869052919091169062fdd58e9060440160206040518083038186803b15801561193a57600080fd5b505afa15801561194e573d6000803e3d6000fd5b505050506040513d601f19601f820116820180604052508101906119729190612204565b119392505050565b601354600090818167ffffffffffffffff81111561199a5761199a612763565b6040519080825280602002602001820160405280156119c3578160200160208202803683370190505b50905060005b82811015611a0e57848282815181106119e4576119e461274d565b6001600160a01b039092166020928302919091019091015280611a0681612706565b9150506119c9565b506000611a19610be5565b6001600160a01b0316634e1273f48360136040518363ffffffff1660e01b8152600401611a4792919061238e565b60006040518083038186803b158015611a5f57600080fd5b505afa158015611a73573d6000803e3d6000fd5b505050506040513d6000823e601f3d908101601f19168201604052611a9b9190810190611fec565b905060005b8151811015611ae9576000828281518110611abd57611abd61274d565b60200260200101511115611ad75750600195945050505050565b80611ae181612706565b915050611aa0565b50600095945050505050565b828054828255906000526020600020908101928215611b42579160200282015b82811115611b425782518051611b32918491602090910190611bd2565b5091602001919060010190611b15565b50611b4e929150611c46565b5090565b828054611b5e906126d1565b90600052602060002090601f016020900481019282611b805760008555611bc6565b82601f10611b995782800160ff19823516178555611bc6565b82800160010185558215611bc6579182015b82811115611bc6578235825591602001919060010190611bab565b50611b4e929150611c63565b828054611bde906126d1565b90600052602060002090601f016020900481019282611c005760008555611bc6565b82601f10611c1957805160ff1916838001178555611bc6565b82800160010185558215611bc6579182015b82811115611bc6578251825591602001919060010190611c2b565b80821115611b4e576000611c5a8282611c78565b50600101611c46565b5b80821115611b4e5760008155600101611c64565b508054611c84906126d1565b6000825580601f10611c94575050565b601f0160209004906000526020600020908101906114289190611c63565b8035611cbd81612779565b919050565b600082601f830112611cd357600080fd5b81356020611ce8611ce38361260f565b6125de565b80838252828201915082860187848660051b8901011115611d0857600080fd5b60005b85811015611d30578135611d1e81612779565b84529284019290840190600101611d0b565b5090979650505050505050565b600082601f830112611d4e57600080fd5b81356020611d5e611ce38361260f565b80838252828201915082860187848660051b8901011115611d7e57600080fd5b60005b85811015611d3057813584529284019290840190600101611d81565b80358015158114611cbd57600080fd5b60008083601f840112611dbf57600080fd5b50813567ffffffffffffffff811115611dd757600080fd5b602083019150836020828501011115611def57600080fd5b9250929050565b60006101608284031215611e0957600080fd5b50919050565b803563ffffffff81168114611cbd57600080fd5b600060208284031215611e3557600080fd5b8135611e4081612779565b9392505050565b600060208284031215611e5957600080fd5b8151611e4081612779565b600080600060608486031215611e7957600080fd5b8351611e8481612779565b6020850151909350611e9581612779565b80925050604084015190509250925092565b600080600080600060808688031215611ebf57600080fd5b67ffffffffffffffff8087351115611ed657600080fd5b8635870188601f820112611ee957600080fd5b611ef6611ce3823561260f565b8082358252602082019150602083018b6020853560051b8601011115611f1b57600080fd5b60005b8435811015611f96578582351115611f3557600080fd5b813585018d603f820112611f4857600080fd5b6020810135611f59611ce382612633565b8181528f6040838501011115611f6e57600080fd5b8160408401602083013760006020928201830152865294850194929092019150600101611f1e565b5050809850505050611faa60208801611e0f565b9450611fb860408801611d9d565b93508060608801351115611fcb57600080fd5b50611fdc8760608801358801611dad565b9598949750929550919392915050565b60006020808385031215611fff57600080fd5b825167ffffffffffffffff81111561201657600080fd5b8301601f8101851361202757600080fd5b8051612035611ce38261260f565b80828252848201915084840188868560051b870101111561205557600080fd5b600094505b8385101561207857805183526001949094019391850191850161205a565b50979650505050505050565b60006020828403121561209657600080fd5b611e4082611d9d565b6000602082840312156120b157600080fd5b815167ffffffffffffffff8111156120c857600080fd5b8201601f810184136120d957600080fd5b80516120e7611ce382612633565b8181528560208385010111156120fc57600080fd5b61210d82602083016020860161268a565b95945050505050565b600080600080600080600080610100898b03121561213357600080fd5b883567ffffffffffffffff8082111561214b57600080fd5b6121578c838d01611df6565b995061216560208c01611d9d565b985060408b013591508082111561217b57600080fd5b6121878c838d01611cc2565b975061219560608c01611d9d565b96506121a360808c01611cb2565b95506121b160a08c01611d9d565b945060c08b0135935060e08b01359150808211156121ce57600080fd5b506121db8b828c01611d3d565b9150509295985092959890939650565b6000602082840312156121fd57600080fd5b5035919050565b60006020828403121561221657600080fd5b5051919050565b60008060006040848603121561223257600080fd5b83359250602084013567ffffffffffffffff81111561225057600080fd5b61225c86828701611dad565b9497909650939450505050565b600081518084526020808501808196508360051b8101915082860160005b858110156122b157828403895261229f8483516122be565b98850198935090840190600101612287565b5091979650505050505050565b600081518084526122d681602086016020860161268a565b601f01601f19169290920160200192915050565b6004811061230857634e487b7160e01b600052602160045260246000fd5b9052565b81835281816020850137506000828201602090810191909152601f909101601f19169091010190565b6001600160a01b0384168152606060208201819052600090612359908301856122be565b9050826040830152949350505050565b6001600160a01b038416815260406020820181905260009061210d908301848661230c565b604080825283519082018190526000906020906060840190828701845b828110156123d05781516001600160a01b0316845292840192908401906001016123ab565b505050838103828501528454808252600086815283812092840191905b81811015611d30578354835260019384019392850192016123ed565b60408152600061241c6040830185612269565b905060018060a01b03831660208301529392505050565b60a08152600061244660a0830189612269565b63ffffffff8816602084015261245f60408401886122ea565b828103606084015261247281868861230c565b91505060018060a01b0383166080830152979650505050505050565b6000602080830181845280855180835260408601915060408160051b870101925083870160005b828110156124e357603f198886030184526124d18583516122be565b945092850192908501906001016124b5565b5092979650505050505050565b602081526000611e4060208301846122be565b82815260408101611e4060208301846122ea565b85815260a0810161252b60208301876122ea565b63ffffffff949094166040820152911515606083015260809091015292915050565b6000808335601e1984360301811261256457600080fd5b83018035915067ffffffffffffffff82111561257f57600080fd5b6020019150600581901b3603821315611def57600080fd5b6000808335601e198436030181126125ae57600080fd5b83018035915067ffffffffffffffff8211156125c957600080fd5b602001915036819003821315611def57600080fd5b604051601f8201601f1916810167ffffffffffffffff8111828210171561260757612607612763565b604052919050565b600067ffffffffffffffff82111561262957612629612763565b5060051b60200190565b600067ffffffffffffffff82111561264d5761264d612763565b50601f01601f191660200190565b6000821982111561266e5761266e612721565b500190565b60008282101561268557612685612721565b500390565b60005b838110156126a557818101518382015260200161268d565b838111156126b4576000848401525b50505050565b6000816126c9576126c9612721565b506000190190565b600181811c908216806126e557607f821691505b60208210811415611e0957634e487b7160e01b600052602260045260246000fd5b600060001982141561271a5761271a612721565b5060010190565b634e487b7160e01b600052601160045260246000fd5b634e487b7160e01b600052602160045260246000fd5b634e487b7160e01b600052603260045260246000fd5b634e487b7160e01b600052604160045260246000fd5b6001600160a01b038116811461142857600080fdfea2646970667358221220039f69610aaf065bd9013f6a7c4e274ecfca2c62be3a686543d742c869acfbd664736f6c63430008070033",
  "devdoc": {
    "kind": "dev",
    "methods": {
      "constructor": {
        "custom:oz-upgrades-unsafe-allow": "constructor"
      }
    },
    "version": 1
  },
  "userdoc": {
    "kind": "user",
    "methods": {},
    "version": 1
  },
  "storageLayout": {
    "storage": [
      {
        "astId": 3247,
        "contract": "contracts/TransferERC20BudgetApproval.sol:TransferERC20BudgetApproval",
        "label": "_initialized",
        "offset": 0,
        "slot": "0",
        "type": "t_uint8"
      },
      {
        "astId": 3250,
        "contract": "contracts/TransferERC20BudgetApproval.sol:TransferERC20BudgetApproval",
        "label": "_initializing",
        "offset": 1,
        "slot": "0",
        "type": "t_bool"
      },
      {
        "astId": 31795,
        "contract": "contracts/TransferERC20BudgetApproval.sol:TransferERC20BudgetApproval",
        "label": "_transactionIds",
        "offset": 0,
        "slot": "1",
        "type": "t_struct(Counter)17376_storage"
      },
      {
        "astId": 31800,
        "contract": "contracts/TransferERC20BudgetApproval.sol:TransferERC20BudgetApproval",
        "label": "transactions",
        "offset": 0,
        "slot": "2",
        "type": "t_mapping(t_uint256,t_struct(Transaction)31739_storage)"
      },
      {
        "astId": 31802,
        "contract": "contracts/TransferERC20BudgetApproval.sol:TransferERC20BudgetApproval",
        "label": "_executor",
        "offset": 0,
        "slot": "3",
        "type": "t_address"
      },
      {
        "astId": 31804,
        "contract": "contracts/TransferERC20BudgetApproval.sol:TransferERC20BudgetApproval",
        "label": "_executorTeamId",
        "offset": 0,
        "slot": "4",
        "type": "t_uint256"
      },
      {
        "astId": 31806,
        "contract": "contracts/TransferERC20BudgetApproval.sol:TransferERC20BudgetApproval",
        "label": "_executee",
        "offset": 0,
        "slot": "5",
        "type": "t_address"
      },
      {
        "astId": 31810,
        "contract": "contracts/TransferERC20BudgetApproval.sol:TransferERC20BudgetApproval",
        "label": "_approversMapping",
        "offset": 0,
        "slot": "6",
        "type": "t_mapping(t_address,t_bool)"
      },
      {
        "astId": 31812,
        "contract": "contracts/TransferERC20BudgetApproval.sol:TransferERC20BudgetApproval",
        "label": "_approverTeamId",
        "offset": 0,
        "slot": "7",
        "type": "t_uint256"
      },
      {
        "astId": 31814,
        "contract": "contracts/TransferERC20BudgetApproval.sol:TransferERC20BudgetApproval",
        "label": "_minApproval",
        "offset": 0,
        "slot": "8",
        "type": "t_uint256"
      },
      {
        "astId": 31816,
        "contract": "contracts/TransferERC20BudgetApproval.sol:TransferERC20BudgetApproval",
        "label": "_text",
        "offset": 0,
        "slot": "9",
        "type": "t_string_storage"
      },
      {
        "astId": 31818,
        "contract": "contracts/TransferERC20BudgetApproval.sol:TransferERC20BudgetApproval",
        "label": "_transactionType",
        "offset": 0,
        "slot": "10",
        "type": "t_string_storage"
      },
      {
        "astId": 31820,
        "contract": "contracts/TransferERC20BudgetApproval.sol:TransferERC20BudgetApproval",
        "label": "_allowUnlimitedUsageCount",
        "offset": 0,
        "slot": "11",
        "type": "t_bool"
      },
      {
        "astId": 31822,
        "contract": "contracts/TransferERC20BudgetApproval.sol:TransferERC20BudgetApproval",
        "label": "_usageCount",
        "offset": 0,
        "slot": "12",
        "type": "t_uint256"
      },
      {
        "astId": 31824,
        "contract": "contracts/TransferERC20BudgetApproval.sol:TransferERC20BudgetApproval",
        "label": "_startTime",
        "offset": 0,
        "slot": "13",
        "type": "t_uint256"
      },
      {
        "astId": 31826,
        "contract": "contracts/TransferERC20BudgetApproval.sol:TransferERC20BudgetApproval",
        "label": "_endTime",
        "offset": 0,
        "slot": "14",
        "type": "t_uint256"
      },
      {
        "astId": 27863,
        "contract": "contracts/TransferERC20BudgetApproval.sol:TransferERC20BudgetApproval",
        "label": "allowAllAddresses",
        "offset": 0,
        "slot": "15",
        "type": "t_bool"
      },
      {
        "astId": 27867,
        "contract": "contracts/TransferERC20BudgetApproval.sol:TransferERC20BudgetApproval",
        "label": "addressesMapping",
        "offset": 0,
        "slot": "16",
        "type": "t_mapping(t_address,t_bool)"
      },
      {
        "astId": 27869,
        "contract": "contracts/TransferERC20BudgetApproval.sol:TransferERC20BudgetApproval",
        "label": "allowAllTokens",
        "offset": 0,
        "slot": "17",
        "type": "t_bool"
      },
      {
        "astId": 27871,
        "contract": "contracts/TransferERC20BudgetApproval.sol:TransferERC20BudgetApproval",
        "label": "token",
        "offset": 1,
        "slot": "17",
        "type": "t_address"
      },
      {
        "astId": 27873,
        "contract": "contracts/TransferERC20BudgetApproval.sol:TransferERC20BudgetApproval",
        "label": "allowAnyAmount",
        "offset": 21,
        "slot": "17",
        "type": "t_bool"
      },
      {
        "astId": 27875,
        "contract": "contracts/TransferERC20BudgetApproval.sol:TransferERC20BudgetApproval",
        "label": "totalAmount",
        "offset": 0,
        "slot": "18",
        "type": "t_uint256"
      },
      {
        "astId": 27878,
        "contract": "contracts/TransferERC20BudgetApproval.sol:TransferERC20BudgetApproval",
        "label": "toTeamIds",
        "offset": 0,
        "slot": "19",
        "type": "t_array(t_uint256)dyn_storage"
      },
      {
        "astId": 27882,
        "contract": "contracts/TransferERC20BudgetApproval.sol:TransferERC20BudgetApproval",
        "label": "toTeamIdsMapping",
        "offset": 0,
        "slot": "20",
        "type": "t_mapping(t_uint256,t_bool)"
      }
    ],
    "types": {
      "t_address": {
        "encoding": "inplace",
        "label": "address",
        "numberOfBytes": "20"
      },
      "t_array(t_bytes_storage)dyn_storage": {
        "base": "t_bytes_storage",
        "encoding": "dynamic_array",
        "label": "bytes[]",
        "numberOfBytes": "32"
      },
      "t_array(t_uint256)dyn_storage": {
        "base": "t_uint256",
        "encoding": "dynamic_array",
        "label": "uint256[]",
        "numberOfBytes": "32"
      },
      "t_bool": {
        "encoding": "inplace",
        "label": "bool",
        "numberOfBytes": "1"
      },
      "t_bytes_storage": {
        "encoding": "bytes",
        "label": "bytes",
        "numberOfBytes": "32"
      },
      "t_enum(Status)31720": {
        "encoding": "inplace",
        "label": "enum CommonBudgetApproval.Status",
        "numberOfBytes": "1"
      },
      "t_mapping(t_address,t_bool)": {
        "encoding": "mapping",
        "key": "t_address",
        "label": "mapping(address => bool)",
        "numberOfBytes": "32",
        "value": "t_bool"
      },
      "t_mapping(t_uint256,t_bool)": {
        "encoding": "mapping",
        "key": "t_uint256",
        "label": "mapping(uint256 => bool)",
        "numberOfBytes": "32",
        "value": "t_bool"
      },
      "t_mapping(t_uint256,t_struct(Transaction)31739_storage)": {
        "encoding": "mapping",
        "key": "t_uint256",
        "label": "mapping(uint256 => struct CommonBudgetApproval.Transaction)",
        "numberOfBytes": "32",
        "value": "t_struct(Transaction)31739_storage"
      },
      "t_string_storage": {
        "encoding": "bytes",
        "label": "string",
        "numberOfBytes": "32"
      },
      "t_struct(Counter)17376_storage": {
        "encoding": "inplace",
        "label": "struct Counters.Counter",
        "members": [
          {
            "astId": 17375,
            "contract": "contracts/TransferERC20BudgetApproval.sol:TransferERC20BudgetApproval",
            "label": "_value",
            "offset": 0,
            "slot": "0",
            "type": "t_uint256"
          }
        ],
        "numberOfBytes": "32"
      },
      "t_struct(Transaction)31739_storage": {
        "encoding": "inplace",
        "label": "struct CommonBudgetApproval.Transaction",
        "members": [
          {
            "astId": 31722,
            "contract": "contracts/TransferERC20BudgetApproval.sol:TransferERC20BudgetApproval",
            "label": "id",
            "offset": 0,
            "slot": "0",
            "type": "t_uint256"
          },
          {
            "astId": 31725,
            "contract": "contracts/TransferERC20BudgetApproval.sol:TransferERC20BudgetApproval",
            "label": "data",
            "offset": 0,
            "slot": "1",
            "type": "t_array(t_bytes_storage)dyn_storage"
          },
          {
            "astId": 31728,
            "contract": "contracts/TransferERC20BudgetApproval.sol:TransferERC20BudgetApproval",
            "label": "status",
            "offset": 0,
            "slot": "2",
            "type": "t_enum(Status)31720"
          },
          {
            "astId": 31730,
            "contract": "contracts/TransferERC20BudgetApproval.sol:TransferERC20BudgetApproval",
            "label": "deadline",
            "offset": 1,
            "slot": "2",
            "type": "t_uint32"
          },
          {
            "astId": 31732,
            "contract": "contracts/TransferERC20BudgetApproval.sol:TransferERC20BudgetApproval",
            "label": "isExist",
            "offset": 5,
            "slot": "2",
            "type": "t_bool"
          },
          {
            "astId": 31734,
            "contract": "contracts/TransferERC20BudgetApproval.sol:TransferERC20BudgetApproval",
            "label": "approvedCount",
            "offset": 0,
            "slot": "3",
            "type": "t_uint256"
          },
          {
            "astId": 31738,
            "contract": "contracts/TransferERC20BudgetApproval.sol:TransferERC20BudgetApproval",
            "label": "approved",
            "offset": 0,
            "slot": "4",
            "type": "t_mapping(t_address,t_bool)"
          }
        ],
        "numberOfBytes": "160"
      },
      "t_uint256": {
        "encoding": "inplace",
        "label": "uint256",
        "numberOfBytes": "32"
      },
      "t_uint32": {
        "encoding": "inplace",
        "label": "uint32",
        "numberOfBytes": "4"
      },
      "t_uint8": {
        "encoding": "inplace",
        "label": "uint8",
        "numberOfBytes": "1"
      }
    }
  }
}