{
  "address": "0xD8fC01C6Fa518Fc5c91797ada720C32e079dc3db",
  "abi": [
    {
      "inputs": [],
      "stateMutability": "nonpayable",
      "type": "constructor"
    },
    {
      "anonymous": false,
      "inputs": [
        {
          "indexed": false,
          "internalType": "address",
          "name": "target",
          "type": "address"
        }
      ],
      "name": "AllowAddress",
      "type": "event"
    },
    {
      "anonymous": false,
      "inputs": [
        {
          "indexed": false,
          "internalType": "uint256",
          "name": "amount",
          "type": "uint256"
        }
      ],
      "name": "AllowAmount",
      "type": "event"
    },
    {
      "anonymous": false,
      "inputs": [
        {
          "indexed": false,
          "internalType": "address",
          "name": "token",
          "type": "address"
        }
      ],
      "name": "AllowToken",
      "type": "event"
    },
    {
      "anonymous": false,
      "inputs": [
        {
          "indexed": true,
          "internalType": "uint256",
          "name": "id",
          "type": "uint256"
        },
        {
          "indexed": false,
          "internalType": "address",
          "name": "approver",
          "type": "address"
        },
        {
          "indexed": false,
          "internalType": "string",
          "name": "comment",
          "type": "string"
        }
      ],
      "name": "ApproveTransaction",
      "type": "event"
    },
    {
      "anonymous": false,
      "inputs": [
        {
          "indexed": true,
          "internalType": "uint256",
          "name": "id",
          "type": "uint256"
        },
        {
          "indexed": false,
          "internalType": "bytes[]",
          "name": "data",
          "type": "bytes[]"
        },
        {
          "indexed": false,
          "internalType": "uint256",
          "name": "deadline",
          "type": "uint256"
        },
        {
          "indexed": false,
          "internalType": "enum CommonBudgetApproval.Status",
          "name": "status",
          "type": "uint8"
        },
        {
          "indexed": false,
          "internalType": "string",
          "name": "comment",
          "type": "string"
        },
        {
          "indexed": false,
          "internalType": "address",
          "name": "creator",
          "type": "address"
        }
      ],
      "name": "CreateTransaction",
      "type": "event"
    },
    {
      "anonymous": false,
      "inputs": [
        {
          "indexed": true,
          "internalType": "uint256",
          "name": "id",
          "type": "uint256"
        },
        {
          "indexed": false,
          "internalType": "bytes[]",
          "name": "data",
          "type": "bytes[]"
        },
        {
          "indexed": false,
          "internalType": "address",
          "name": "_executor",
          "type": "address"
        }
      ],
      "name": "ExecuteTransaction",
      "type": "event"
    },
    {
      "anonymous": false,
      "inputs": [
        {
          "indexed": true,
          "internalType": "uint256",
          "name": "id",
          "type": "uint256"
        },
        {
          "indexed": true,
          "internalType": "address",
          "name": "executor",
          "type": "address"
        },
        {
          "indexed": true,
          "internalType": "address",
          "name": "toAddress",
          "type": "address"
        },
        {
          "indexed": false,
          "internalType": "address",
          "name": "token",
          "type": "address"
        },
        {
          "indexed": false,
          "internalType": "uint256",
          "name": "tokenId",
          "type": "uint256"
        }
      ],
      "name": "ExecuteTransferERC721Transaction",
      "type": "event"
    },
    {
      "anonymous": false,
      "inputs": [
        {
          "indexed": false,
          "internalType": "uint8",
          "name": "version",
          "type": "uint8"
        }
      ],
      "name": "Initialized",
      "type": "event"
    },
    {
      "anonymous": false,
      "inputs": [
        {
          "indexed": true,
          "internalType": "uint256",
          "name": "id",
          "type": "uint256"
        }
      ],
      "name": "RevokeTransaction",
      "type": "event"
    },
    {
      "anonymous": false,
      "inputs": [
        {
          "indexed": false,
          "internalType": "address",
          "name": "approver",
          "type": "address"
        }
      ],
      "name": "SetApprover",
      "type": "event"
    },
    {
      "inputs": [
        {
          "internalType": "address",
          "name": "",
          "type": "address"
        }
      ],
      "name": "addressesMapping",
      "outputs": [
        {
          "internalType": "bool",
          "name": "",
          "type": "bool"
        }
      ],
      "stateMutability": "view",
      "type": "function"
    },
    {
      "inputs": [],
      "name": "afterInitialized",
      "outputs": [],
      "stateMutability": "nonpayable",
      "type": "function"
    },
    {
      "inputs": [],
      "name": "allowAllAddresses",
      "outputs": [
        {
          "internalType": "bool",
          "name": "",
          "type": "bool"
        }
      ],
      "stateMutability": "view",
      "type": "function"
    },
    {
      "inputs": [],
      "name": "allowAllTokens",
      "outputs": [
        {
          "internalType": "bool",
          "name": "",
          "type": "bool"
        }
      ],
      "stateMutability": "view",
      "type": "function"
    },
    {
      "inputs": [],
      "name": "allowAnyAmount",
      "outputs": [
        {
          "internalType": "bool",
          "name": "",
          "type": "bool"
        }
      ],
      "stateMutability": "view",
      "type": "function"
    },
    {
      "inputs": [],
      "name": "allowUnlimitedUsageCount",
      "outputs": [
        {
          "internalType": "bool",
          "name": "",
          "type": "bool"
        }
      ],
      "stateMutability": "view",
      "type": "function"
    },
    {
      "inputs": [
        {
          "internalType": "uint256",
          "name": "id",
          "type": "uint256"
        },
        {
          "internalType": "string",
          "name": "comment",
          "type": "string"
        }
      ],
      "name": "approveTransaction",
      "outputs": [],
      "stateMutability": "nonpayable",
      "type": "function"
    },
    {
      "inputs": [],
      "name": "approverTeamId",
      "outputs": [
        {
          "internalType": "uint256",
          "name": "",
          "type": "uint256"
        }
      ],
      "stateMutability": "view",
      "type": "function"
    },
    {
      "inputs": [
        {
          "internalType": "address",
          "name": "eoa",
          "type": "address"
        }
      ],
      "name": "approversMapping",
      "outputs": [
        {
          "internalType": "bool",
          "name": "",
          "type": "bool"
        }
      ],
      "stateMutability": "view",
      "type": "function"
    },
    {
      "inputs": [
        {
          "internalType": "bytes[]",
          "name": "_data",
          "type": "bytes[]"
        },
        {
          "internalType": "uint32",
          "name": "_deadline",
          "type": "uint32"
        },
        {
          "internalType": "bool",
          "name": "_isExecute",
          "type": "bool"
        },
        {
          "internalType": "string",
          "name": "comment",
          "type": "string"
        }
      ],
      "name": "createTransaction",
      "outputs": [
        {
          "internalType": "uint256",
          "name": "",
          "type": "uint256"
        }
      ],
      "stateMutability": "nonpayable",
      "type": "function"
    },
    {
      "inputs": [],
      "name": "endTime",
      "outputs": [
        {
          "internalType": "uint256",
          "name": "",
          "type": "uint256"
        }
      ],
      "stateMutability": "view",
      "type": "function"
    },
    {
      "inputs": [],
      "name": "executeParams",
      "outputs": [
        {
          "internalType": "string[]",
          "name": "",
          "type": "string[]"
        }
      ],
      "stateMutability": "pure",
      "type": "function"
    },
    {
      "inputs": [
        {
          "internalType": "uint256",
          "name": "id",
          "type": "uint256"
        }
      ],
      "name": "executeTransaction",
      "outputs": [],
      "stateMutability": "nonpayable",
      "type": "function"
    },
    {
      "inputs": [],
      "name": "executee",
      "outputs": [
        {
          "internalType": "address",
          "name": "",
          "type": "address"
        }
      ],
      "stateMutability": "view",
      "type": "function"
    },
    {
      "inputs": [],
      "name": "executor",
      "outputs": [
        {
          "internalType": "address",
          "name": "",
          "type": "address"
        }
      ],
      "stateMutability": "view",
      "type": "function"
    },
    {
      "inputs": [],
      "name": "executorTeamId",
      "outputs": [
        {
          "internalType": "uint256",
          "name": "",
          "type": "uint256"
        }
      ],
      "stateMutability": "view",
      "type": "function"
    },
    {
      "inputs": [
        {
          "components": [
            {
              "internalType": "address",
              "name": "executor",
              "type": "address"
            },
            {
              "internalType": "uint256",
              "name": "executorTeamId",
              "type": "uint256"
            },
            {
              "internalType": "address[]",
              "name": "approvers",
              "type": "address[]"
            },
            {
              "internalType": "uint256",
              "name": "approverTeamId",
              "type": "uint256"
            },
            {
              "internalType": "uint256",
              "name": "minApproval",
              "type": "uint256"
            },
            {
              "internalType": "string",
              "name": "text",
              "type": "string"
            },
            {
              "internalType": "string",
              "name": "transactionType",
              "type": "string"
            },
            {
              "internalType": "uint256",
              "name": "startTime",
              "type": "uint256"
            },
            {
              "internalType": "uint256",
              "name": "endTime",
              "type": "uint256"
            },
            {
              "internalType": "bool",
              "name": "allowUnlimitedUsageCount",
              "type": "bool"
            },
            {
              "internalType": "uint256",
              "name": "usageCount",
              "type": "uint256"
            },
            {
              "internalType": "address",
              "name": "team",
              "type": "address"
            }
          ],
          "internalType": "struct CommonBudgetApproval.InitializeParams",
          "name": "params",
          "type": "tuple"
        },
        {
          "internalType": "bool",
          "name": "_allowAllAddresses",
          "type": "bool"
        },
        {
          "internalType": "address[]",
          "name": "_toAddresses",
          "type": "address[]"
        },
        {
          "internalType": "bool",
          "name": "_allowAllTokens",
          "type": "bool"
        },
        {
          "internalType": "address[]",
          "name": "_tokens",
          "type": "address[]"
        },
        {
          "internalType": "bool",
          "name": "_allowAnyAmount",
          "type": "bool"
        },
        {
          "internalType": "uint256",
          "name": "_totalAmount",
          "type": "uint256"
        }
      ],
      "name": "initialize",
      "outputs": [],
      "stateMutability": "nonpayable",
      "type": "function"
    },
    {
      "inputs": [],
      "name": "minApproval",
      "outputs": [
        {
          "internalType": "uint256",
          "name": "",
          "type": "uint256"
        }
      ],
      "stateMutability": "view",
      "type": "function"
    },
    {
      "inputs": [],
      "name": "name",
      "outputs": [
        {
          "internalType": "string",
          "name": "",
          "type": "string"
        }
      ],
      "stateMutability": "view",
      "type": "function"
    },
    {
      "inputs": [
        {
          "internalType": "uint256",
          "name": "id",
          "type": "uint256"
        }
      ],
      "name": "revokeTransaction",
      "outputs": [],
      "stateMutability": "nonpayable",
      "type": "function"
    },
    {
      "inputs": [],
      "name": "startTime",
      "outputs": [
        {
          "internalType": "uint256",
          "name": "",
          "type": "uint256"
        }
      ],
      "stateMutability": "view",
      "type": "function"
    },
    {
      "inputs": [],
      "name": "team",
      "outputs": [
        {
          "internalType": "address",
          "name": "",
          "type": "address"
        }
      ],
      "stateMutability": "view",
      "type": "function"
    },
    {
      "inputs": [],
      "name": "text",
      "outputs": [
        {
          "internalType": "string",
          "name": "",
          "type": "string"
        }
      ],
      "stateMutability": "view",
      "type": "function"
    },
    {
      "inputs": [
        {
          "internalType": "uint256",
          "name": "",
          "type": "uint256"
        }
      ],
      "name": "tokens",
      "outputs": [
        {
          "internalType": "address",
          "name": "",
          "type": "address"
        }
      ],
      "stateMutability": "view",
      "type": "function"
    },
    {
      "inputs": [],
      "name": "tokensLength",
      "outputs": [
        {
          "internalType": "uint256",
          "name": "",
          "type": "uint256"
        }
      ],
      "stateMutability": "view",
      "type": "function"
    },
    {
      "inputs": [
        {
          "internalType": "address",
          "name": "",
          "type": "address"
        }
      ],
      "name": "tokensMapping",
      "outputs": [
        {
          "internalType": "bool",
          "name": "",
          "type": "bool"
        }
      ],
      "stateMutability": "view",
      "type": "function"
    },
    {
      "inputs": [],
      "name": "totalAmount",
      "outputs": [
        {
          "internalType": "uint256",
          "name": "",
          "type": "uint256"
        }
      ],
      "stateMutability": "view",
      "type": "function"
    },
    {
      "inputs": [],
      "name": "transactionType",
      "outputs": [
        {
          "internalType": "string",
          "name": "",
          "type": "string"
        }
      ],
      "stateMutability": "view",
      "type": "function"
    },
    {
      "inputs": [
        {
          "internalType": "uint256",
          "name": "",
          "type": "uint256"
        }
      ],
      "name": "transactions",
      "outputs": [
        {
          "internalType": "uint256",
          "name": "id",
          "type": "uint256"
        },
        {
          "internalType": "enum CommonBudgetApproval.Status",
          "name": "status",
          "type": "uint8"
        },
        {
          "internalType": "uint32",
          "name": "deadline",
          "type": "uint32"
        },
        {
          "internalType": "bool",
          "name": "isExist",
          "type": "bool"
        },
        {
          "internalType": "uint256",
          "name": "approvedCount",
          "type": "uint256"
        }
      ],
      "stateMutability": "view",
      "type": "function"
    },
    {
      "inputs": [],
      "name": "usageCount",
      "outputs": [
        {
          "internalType": "uint256",
          "name": "",
          "type": "uint256"
        }
      ],
      "stateMutability": "view",
      "type": "function"
    }
  ],
  "transactionHash": "0xb198391225ca409db941f7574ab53ef561915aad23d337e8012ef419600529b5",
  "args": [],
  "numDeployments": 1,
  "solcInputHash": "2b7fb0d6b040852603fec936456a3f64",
  "bytecode": "0x60806040523480156200001157600080fd5b506200001c6200002c565b620000266200002c565b620000ee565b600054610100900460ff1615620000995760405162461bcd60e51b815260206004820152602760248201527f496e697469616c697a61626c653a20636f6e747261637420697320696e697469604482015266616c697a696e6760c81b606482015260840160405180910390fd5b60005460ff9081161015620000ec576000805460ff191660ff9081179091556040519081527f7f26b83ff96e1f2b6a682f133852f6798a09c465da95921460cefb38474024989060200160405180910390a15b565b61270980620000fe6000396000f3fe608060405234801561001057600080fd5b50600436106101da5760003560e01c80637cd47d9311610104578063c34c08e5116100a2578063d96c919611610071578063d96c919614610443578063de755e2f1461044b578063ee22610b14610453578063f5c038521461046657600080fd5b8063c34c08e514610415578063cd753b6c14610426578063cf26fec614610433578063d92fc67b1461043b57600080fd5b80638d1c5c29116100de5780638d1c5c291461037357806397c85a61146103965780639ace38c2146103a9578063b617b3ee1461040857600080fd5b80637cd47d931461034d578063850154371461035557806385f2aef21461036257600080fd5b80633ba22e651161017c5780635ad325021161014b5780635ad32502146102fb5780636bdebe5e14610306578063735631ad1461033257806378e979251461034557600080fd5b80633ba22e65146102805780633d70015a146102955780634f64b2be146102c857806350bd881f146102f357600080fd5b80631a39d8ef116101b85780631a39d8ef146102525780631f1bd6921461025b5780633197cbb61461026357806331a7bdd91461026b57600080fd5b806303ff90f6146101df57806306fdde03146101f657806314b893f91461023f575b600080fd5b6008545b6040519081526020015b60405180910390f35b6102326040518060400160405280601f81526020017f5472616e73666572204552433732312042756467657420417070726f76616c0081525081565b6040516101ed9190612401565b6101e361024d366004611ee4565b610477565b6101e360485481565b610232610692565b600e546101e3565b610273610724565b6040516101ed919061239f565b61029361028e3660046120b9565b610827565b005b6102b86102a3366004611e7d565b60466020526000908152604090205460ff1681565b60405190151581526020016101ed565b6102db6102d6366004612187565b6109f1565b6040516001600160a01b0390911681526020016101ed565b600c546101e3565b600b5460ff166102b8565b6102b8610314366004611e7d565b6001600160a01b031660009081526006602052604090205460ff1690565b610293610340366004612187565b610a1b565b600d546101e3565b610232610c11565b6047546102b89060ff1681565b600f546001600160a01b03166102db565b6102b8610381366004611e7d565b60436020526000908152604090205460ff1681565b6102936103a43660046121b9565b610c20565b6103f76103b7366004612187565b600260208190526000918252604090912080549181015460039091015460ff8083169263ffffffff61010082041692650100000000009091049091169085565b6040516101ed959493929190612456565b6042546102b89060ff1681565b6003546001600160a01b03166102db565b6044546102b89060ff1681565b610293610f50565b6045546101e3565b6007546101e3565b6004546101e3565b610293610461366004612187565b610fb7565b6005546001600160a01b03166102db565b600061048b6003546001600160a01b031690565b6001600160a01b0316336001600160a01b0316148061054e575060006104b9600f546001600160a01b031690565b6001600160a01b031662fdd58e336104d060045490565b6040516001600160e01b031960e085901b1681526001600160a01b039092166004830152602482015260440160206040518083038186803b15801561051457600080fd5b505afa158015610528573d6000803e3d6000fd5b505050506040513d601f19601f8201168201806040525081019061054c91906121a0565b115b6105735760405162461bcd60e51b815260040161056a90612414565b60405180910390fd5b610581600180546001019055565b600061058c60015490565b60008181526002602090815260409091208281558951929350916105b8916001840191908b0190611bd0565b506002810180546501000000000065ffffffffff001990911661010063ffffffff8b160265ff000000000019161717905560085461061257600082815260026020819052604090912001805460ff1916600117905561062d565b600082815260026020819052604090912001805460ff191690555b600281015460405183917f8a5186dbaf6f344b2837e11834be94edebb633f05034f422c6b1fe1595b4d0cc91610670918c918c9160ff16908b908b903390612344565b60405180910390a285156106875761068782610fb7565b509695505050505050565b6060600980546106a190612610565b80601f01602080910402602001604051908101604052809291908181526020018280546106cd90612610565b801561071a5780601f106106ef5761010080835404028352916020019161071a565b820191906000526020600020905b8154815290600101906020018083116106fd57829003601f168201915b5050505050905090565b6040805160038082526080820190925260609160009190816020015b60608152602001906001900390816107405790505090506040518060400160405280600d81526020016c30b2323932b9b9903a37b5b2b760991b8152508160008151811061079057610790612692565b60200260200101819052506040518060400160405280600a8152602001696164647265737320746f60b01b815250816001815181106107d1576107d1612692565b60200260200101819052506040518060400160405280600f81526020016e1d5a5b9d0c8d4d881d1bdad95b9259608a1b8152508160028151811061081757610817612692565b6020908102919091010152919050565b600054610100900460ff16158080156108475750600054600160ff909116105b806108615750303b158015610861575060005460ff166001145b6108c45760405162461bcd60e51b815260206004820152602e60248201527f496e697469616c697a61626c653a20636f6e747261637420697320616c72656160448201526d191e481a5b9a5d1a585b1a5e995960921b606482015260840161056a565b6000805460ff1916600117905580156108e7576000805461ff0019166101001790555b6108f08861143f565b6042805460ff191688151517905560005b865181101561093e5761092c87828151811061091f5761091f612692565b602002602001015161170d565b806109368161264b565b915050610901565b506044805460ff191686151517905560005b845181101561098d5761097b85828151811061096e5761096e612692565b60200260200101516117e3565b806109858161264b565b915050610950565b506047805460ff1916841515179055604882905580156109e7576000805461ff0019169055604051600181527f7f26b83ff96e1f2b6a682f133852f6798a09c465da95921460cefb38474024989060200160405180910390a15b5050505050505050565b60458181548110610a0157600080fd5b6000918252602090912001546001600160a01b0316905081565b6003546001600160a01b0316331480610ad857506000610a43600f546001600160a01b031690565b6001600160a01b031662fdd58e33610a5a60045490565b6040516001600160e01b031960e085901b1681526001600160a01b039092166004830152602482015260440160206040518083038186803b158015610a9e57600080fd5b505afa158015610ab2573d6000803e3d6000fd5b505050506040513d601f19601f82011682018060405250810190610ad691906121a0565b115b610af45760405162461bcd60e51b815260040161056a90612414565b80610afe60015490565b1015610b445760405162461bcd60e51b8152602060048201526015602482015274125b9d985a5b1908151c985b9cd858dd1a5bdb9259605a1b604482015260640161056a565b60026000828152600260208190526040909120015460ff166003811115610b6d57610b6d61267c565b1415610bc95760405162461bcd60e51b815260206004820152602560248201527f5472616e73616374696f6e20686173206265656e20636f6d706c65746564206260448201526465666f726560d81b606482015260840161056a565b6000818152600260208190526040808320909101805460ff191660031790555182917f92a917be073b79ab50f9d997e9514a5d101e052ce04228014947e7883a7c034691a250565b6060600a80546106a190612610565b3360009081526006602052604090205460ff1680610ce257506000610c4d600f546001600160a01b031690565b6001600160a01b031662fdd58e33610c6460075490565b6040516001600160e01b031960e085901b1681526001600160a01b039092166004830152602482015260440160206040518083038186803b158015610ca857600080fd5b505afa158015610cbc573d6000803e3d6000fd5b505050506040513d601f19601f82011682018060405250810190610ce091906121a0565b115b610d395760405162461bcd60e51b815260206004820152602260248201527f417070726f766572206e6f742077686974656c697374656420696e2062756467604482015261195d60f21b606482015260840161056a565b82610d4360015490565b1015610d895760405162461bcd60e51b8152602060048201526015602482015274125b9d985a5b1908151c985b9cd858dd1a5bdb9259605a1b604482015260640161056a565b600083815260026020819052604082209081015460039091015460ff9091169190610db590600161259a565b90506000826003811115610dcb57610dcb61267c565b1480610de857506001826003811115610de657610de661267c565b145b610e345760405162461bcd60e51b815260206004820152601d60248201527f556e6578706563746564207472616e73616374696f6e20737461747573000000604482015260640161056a565b600085815260026020908152604080832033845260040190915290205460ff1615610ead5760405162461bcd60e51b8152602060048201526024808201527f5472616e73616374696f6e20686173206265656e20617070726f766564206265604482015263666f726560e01b606482015260840161056a565b6000858152600260208181526040808420338552600481018352908420805460ff191660011790559288905252600301819055610ee960085490565b8110610f0d57600085815260026020819052604090912001805460ff191660011790555b847f3399030f87676a97e30e211a48f9c46e2ff806d0b4cedf7100782f08c52902c9338686604051610f41939291906122f5565b60405180910390a25050505050565b6005546001600160a01b03163314610fb55760405162461bcd60e51b815260206004820152602260248201527f4578656375746565206e6f742077686974656c697374656420696e2062756467604482015261195d60f21b606482015260840161056a565b565b806001806000838152600260208190526040909120015460ff166003811115610fe257610fe261267c565b1461102f5760405162461bcd60e51b815260206004820152601a60248201527f5472616e73616374696f6e2073746174757320696e76616c6964000000000000604482015260640161056a565b600083815260026020819052604090912001548390610100900463ffffffff164211156110945760405162461bcd60e51b8152602060048201526013602482015272151c985b9cd858dd1a5bdb88195e1c1a5c9959606a1b604482015260640161056a565b600d544210156110e65760405162461bcd60e51b815260206004820152601f60248201527f42756467657420757361676520706572696f64206e6f74207374617274656400604482015260640161056a565b60006110f1600e5490565b90508015611148578042106111485760405162461bcd60e51b815260206004820152601d60248201527f42756467657420757361676520706572696f642068617320656e646564000000604482015260640161056a565b6003546001600160a01b031633148061120557506000611170600f546001600160a01b031690565b6001600160a01b031662fdd58e3361118760045490565b6040516001600160e01b031960e085901b1681526001600160a01b039092166004830152602482015260440160206040518083038186803b1580156111cb57600080fd5b505afa1580156111df573d6000803e3d6000fd5b505050506040513d601f19601f8201168201806040525081019061120391906121a0565b115b6112215760405162461bcd60e51b815260040161056a90612414565b600061122f600b5460ff1690565b9050600061123c600c5490565b9050600060026000898152602001908152602001600020600101805480602002602001604051908101604052809291908181526020016000905b8282101561132257838290600052602060002001805461129590612610565b80601f01602080910402602001604051908101604052809291908181526020018280546112c190612610565b801561130e5780601f106112e35761010080835404028352916020019161130e565b820191906000526020600020905b8154815290600101906020018083116112f157829003601f168201915b505050505081526020019060010190611276565b50505050905060005b81518110156113d45783806113405750600083115b61138c5760405162461bcd60e51b815260206004820152601b60248201527f457863656564656420627564676574207573616765206c696d69740000000000604482015260640161056a565b8361139f578261139b816125f9565b9350505b6113c2898383815181106113b5576113b5612692565b60200260200101516118ec565b806113cc8161264b565b91505061132b565b50600c82905560008881526002602081905260409091208101805460ff19166001830217905550877f9060adf413860c5ab6e376e0aa4269e49a13f0853edb1583fce8129d4c756d79823360405161142d92919061231a565b60405180910390a25050505050505050565b600054610100900460ff166114aa5760405162461bcd60e51b815260206004820152602b60248201527f496e697469616c697a61626c653a20636f6e7472616374206973206e6f74206960448201526a6e697469616c697a696e6760a81b606482015260840161056a565b6000816060013511806114cf57506114c5604082018261248c565b9050816080013511155b6115135760405162461bcd60e51b8152602060048201526015602482015274125b9d985b1a5908185c1c1c9bdd995c881b1a5cdd605a1b604482015260640161056a565b600580546001600160a01b031916331790556115326020820182611e7d565b600380546001600160a01b0319166001600160a01b039290921691909117905561155f60a08201826124d6565b61156b91600991611c2d565b5061157960c08201826124d6565b61158591600a91611c2d565b50608081013560085560e0810135600d55610100810135600e556115b161014082016101208301612027565b600b805460ff1916911515919091179055610140810135600c556115dd61018082016101608301611e7d565b600f80546001600160a01b0319166001600160a01b03929092169190911790556020810135600455606081013560075560005b61161d604083018361248c565b905081101561170957600160066000611639604086018661248c565b8581811061164957611649612692565b905060200201602081019061165e9190611e7d565b6001600160a01b0316815260208101919091526040908101600020805460ff1916921515929092179091557f4664777dbfbcb27de0f602e1da5d5a259992cd7edf5b29192929c96e8fd50def906116b79084018461248c565b838181106116c7576116c7612692565b90506020020160208101906116dc9190611e7d565b6040516001600160a01b03909116815260200160405180910390a1806117018161264b565b915050611610565b5050565b6001600160a01b03811660009081526043602052604090205460ff16156117885760405162461bcd60e51b815260206004820152602960248201527f4475706c696361746564206164647265737320696e20746172676574206164646044820152681c995cdcc81b1a5cdd60ba1b606482015260840161056a565b6001600160a01b038116600081815260436020908152604091829020805460ff1916600117905590519182527ff11283a265d7a5f95fbc149dc65464f1f5be0151aac387fd76a938e1e558460491015b60405180910390a150565b6001600160a01b03811660009081526046602052604090205460ff16156118585760405162461bcd60e51b8152602060048201526024808201527f4475706c696361746564204974656d20696e20736f7572636520746f6b656e206044820152631b1a5cdd60e21b606482015260840161056a565b6045805460018082019092557fa80a8fcc11760162f08bb091d2c9389d07f2b73d0e996161dfac6f1043b5fc0b0180546001600160a01b0319166001600160a01b038416908117909155600081815260466020908152604091829020805460ff1916909417909355519081527f14009112f2dcb15cad32dab6bf972d6d85286e4ae1178f27323ffe25359459e691016117d8565b6000806000838060200190518101906119059190611ea1565b925092509250600061191f6005546001600160a01b031690565b6047546048546040516001600160a01b038085166024830152871660448201526064810186905292935060ff9091169160009060840160408051601f198184030181529181526020820180516001600160e01b0316632142170760e11b1790525163d3abc28b60e01b81529091506001600160a01b0385169063d3abc28b906119b1908a9085906000906004016122c1565b600060405180830381600087803b1580156119cb57600080fd5b505af11580156119df573d6000803e3d6000fd5b505050506040513d6000823e601f3d908101601f19168201604052611a079190810190612042565b5060425460ff1680611a3157506001600160a01b03861660009081526043602052604090205460ff165b611a895760405162461bcd60e51b815260206004820152602360248201527f526563697069656e74206e6f742077686974656c697374656420696e2062756460448201526219d95d60ea1b606482015260840161056a565b60445460ff1680611ab257506001600160a01b03871660009081526046602052604090205460ff165b611afe5760405162461bcd60e51b815260206004820152601f60248201527f546f6b656e206e6f742077686974656c697374656420696e2062756467657400604482015260640161056a565b8280611b0b575081600111155b611b675760405162461bcd60e51b815260206004820152602760248201527f4578636565646564206d617820627564676574207472616e7366657261626c6560448201526608185b5bdd5b9d60ca1b606482015260840161056a565b82611b7b57611b776001836125b2565b6048555b604080516001600160a01b0389811682526020820188905288169133918c917f38eecad2e39c3d7db3555e30dbbd12e77baba0648126dcda1c1bd58bff86da11910160405180910390a4505050505050505050565b828054828255906000526020600020908101928215611c1d579160200282015b82811115611c1d5782518051611c0d918491602090910190611cad565b5091602001919060010190611bf0565b50611c29929150611d21565b5090565b828054611c3990612610565b90600052602060002090601f016020900481019282611c5b5760008555611ca1565b82601f10611c745782800160ff19823516178555611ca1565b82800160010185558215611ca1579182015b82811115611ca1578235825591602001919060010190611c86565b50611c29929150611d3e565b828054611cb990612610565b90600052602060002090601f016020900481019282611cdb5760008555611ca1565b82601f10611cf457805160ff1916838001178555611ca1565b82800160010185558215611ca1579182015b82811115611ca1578251825591602001919060010190611d06565b80821115611c29576000611d358282611d53565b50600101611d21565b5b80821115611c295760008155600101611d3f565b508054611d5f90612610565b6000825580601f10611d6f575050565b601f016020900490600052602060002090810190611d8d9190611d3e565b50565b600082601f830112611da157600080fd5b81356020611db6611db18361254e565b61251d565b80838252828201915082860187848660051b8901011115611dd657600080fd5b60005b85811015611dfe578135611dec816126be565b84529284019290840190600101611dd9565b5090979650505050505050565b80358015158114611e1b57600080fd5b919050565b60008083601f840112611e3257600080fd5b50813567ffffffffffffffff811115611e4a57600080fd5b602083019150836020828501011115611e6257600080fd5b9250929050565b803563ffffffff81168114611e1b57600080fd5b600060208284031215611e8f57600080fd5b8135611e9a816126be565b9392505050565b600080600060608486031215611eb657600080fd5b8351611ec1816126be565b6020850151909350611ed2816126be565b80925050604084015190509250925092565b600080600080600060808688031215611efc57600080fd5b67ffffffffffffffff8087351115611f1357600080fd5b8635870188601f820112611f2657600080fd5b611f33611db1823561254e565b8082358252602082019150602083018b6020853560051b8601011115611f5857600080fd5b60005b8435811015611fd3578582351115611f7257600080fd5b813585018d603f820112611f8557600080fd5b6020810135611f96611db182612572565b8181528f6040838501011115611fab57600080fd5b8160408401602083013760006020928201830152865294850194929092019150600101611f5b565b5050809850505050611fe760208801611e69565b9450611ff560408801611e0b565b935060608701358181111561200957600080fd5b61201589828a01611e20565b979a9699509497509395949350505050565b60006020828403121561203957600080fd5b611e9a82611e0b565b60006020828403121561205457600080fd5b815167ffffffffffffffff81111561206b57600080fd5b8201601f8101841361207c57600080fd5b805161208a611db182612572565b81815285602083850101111561209f57600080fd5b6120b08260208301602086016125c9565b95945050505050565b600080600080600080600060e0888a0312156120d457600080fd5b873567ffffffffffffffff808211156120ec57600080fd5b90890190610180828c03121561210157600080fd5b81985061211060208b01611e0b565b975060408a013591508082111561212657600080fd5b6121328b838c01611d90565b965061214060608b01611e0b565b955060808a013591508082111561215657600080fd5b506121638a828b01611d90565b93505061217260a08901611e0b565b915060c0880135905092959891949750929550565b60006020828403121561219957600080fd5b5035919050565b6000602082840312156121b257600080fd5b5051919050565b6000806000604084860312156121ce57600080fd5b83359250602084013567ffffffffffffffff8111156121ec57600080fd5b6121f886828701611e20565b9497909650939450505050565b6000815180845260208085019450848260051b860182860160005b85811015611dfe57838303895261223883835161224a565b98850198925090840190600101612220565b600081518084526122628160208601602086016125c9565b601f01601f19169290920160200192915050565b6004811061229457634e487b7160e01b600052602160045260246000fd5b9052565b81835281816020850137506000828201602090810191909152601f909101601f19169091010190565b6001600160a01b03841681526060602082018190526000906122e59083018561224a565b9050826040830152949350505050565b6001600160a01b03841681526040602082018190526000906120b09083018486612298565b60408152600061232d6040830185612205565b905060018060a01b03831660208301529392505050565b60a08152600061235760a0830189612205565b63ffffffff881660208401526123706040840188612276565b8281036060840152612383818688612298565b91505060018060a01b0383166080830152979650505050505050565b6000602080830181845280855180835260408601915060408160051b870101925083870160005b828110156123f457603f198886030184526123e285835161224a565b945092850192908501906001016123c6565b5092979650505050505050565b602081526000611e9a602083018461224a565b60208082526022908201527f4578656375746f72206e6f742077686974656c697374656420696e2062756467604082015261195d60f21b606082015260800190565b85815260a0810161246a6020830187612276565b63ffffffff949094166040820152911515606083015260809091015292915050565b6000808335601e198436030181126124a357600080fd5b83018035915067ffffffffffffffff8211156124be57600080fd5b6020019150600581901b3603821315611e6257600080fd5b6000808335601e198436030181126124ed57600080fd5b83018035915067ffffffffffffffff82111561250857600080fd5b602001915036819003821315611e6257600080fd5b604051601f8201601f1916810167ffffffffffffffff81118282101715612546576125466126a8565b604052919050565b600067ffffffffffffffff821115612568576125686126a8565b5060051b60200190565b600067ffffffffffffffff82111561258c5761258c6126a8565b50601f01601f191660200190565b600082198211156125ad576125ad612666565b500190565b6000828210156125c4576125c4612666565b500390565b60005b838110156125e45781810151838201526020016125cc565b838111156125f3576000848401525b50505050565b60008161260857612608612666565b506000190190565b600181811c9082168061262457607f821691505b6020821081141561264557634e487b7160e01b600052602260045260246000fd5b50919050565b600060001982141561265f5761265f612666565b5060010190565b634e487b7160e01b600052601160045260246000fd5b634e487b7160e01b600052602160045260246000fd5b634e487b7160e01b600052603260045260246000fd5b634e487b7160e01b600052604160045260246000fd5b6001600160a01b0381168114611d8d57600080fdfea2646970667358221220d7fd92d0264ed1b1d98c59069d46fc088726c1d17460fa4b4730e47fed24877664736f6c63430008070033",
  "devdoc": {
    "kind": "dev",
    "methods": {
      "constructor": {
        "custom:oz-upgrades-unsafe-allow": "constructor"
      }
    },
    "version": 1
  },
  "userdoc": {
    "kind": "user",
    "methods": {},
    "version": 1
  },
  "storageLayout": {
    "storage": [
      {
        "astId": 3247,
        "contract": "contracts/TransferERC721BudgetApproval.sol:TransferERC721BudgetApproval",
        "label": "_initialized",
        "offset": 0,
        "slot": "0",
        "type": "t_uint8"
      },
      {
        "astId": 3250,
        "contract": "contracts/TransferERC721BudgetApproval.sol:TransferERC721BudgetApproval",
        "label": "_initializing",
        "offset": 1,
        "slot": "0",
        "type": "t_bool"
      },
      {
        "astId": 27645,
        "contract": "contracts/TransferERC721BudgetApproval.sol:TransferERC721BudgetApproval",
        "label": "_transactionIds",
        "offset": 0,
        "slot": "1",
        "type": "t_struct(Counter)17310_storage"
      },
      {
        "astId": 27650,
        "contract": "contracts/TransferERC721BudgetApproval.sol:TransferERC721BudgetApproval",
        "label": "transactions",
        "offset": 0,
        "slot": "2",
        "type": "t_mapping(t_uint256,t_struct(Transaction)27589_storage)"
      },
      {
        "astId": 27652,
        "contract": "contracts/TransferERC721BudgetApproval.sol:TransferERC721BudgetApproval",
        "label": "_executor",
        "offset": 0,
        "slot": "3",
        "type": "t_address"
      },
      {
        "astId": 27654,
        "contract": "contracts/TransferERC721BudgetApproval.sol:TransferERC721BudgetApproval",
        "label": "_executorTeamId",
        "offset": 0,
        "slot": "4",
        "type": "t_uint256"
      },
      {
        "astId": 27656,
        "contract": "contracts/TransferERC721BudgetApproval.sol:TransferERC721BudgetApproval",
        "label": "_executee",
        "offset": 0,
        "slot": "5",
        "type": "t_address"
      },
      {
        "astId": 27660,
        "contract": "contracts/TransferERC721BudgetApproval.sol:TransferERC721BudgetApproval",
        "label": "_approversMapping",
        "offset": 0,
        "slot": "6",
        "type": "t_mapping(t_address,t_bool)"
      },
      {
        "astId": 27662,
        "contract": "contracts/TransferERC721BudgetApproval.sol:TransferERC721BudgetApproval",
        "label": "_approverTeamId",
        "offset": 0,
        "slot": "7",
        "type": "t_uint256"
      },
      {
        "astId": 27664,
        "contract": "contracts/TransferERC721BudgetApproval.sol:TransferERC721BudgetApproval",
        "label": "_minApproval",
        "offset": 0,
        "slot": "8",
        "type": "t_uint256"
      },
      {
        "astId": 27666,
        "contract": "contracts/TransferERC721BudgetApproval.sol:TransferERC721BudgetApproval",
        "label": "_text",
        "offset": 0,
        "slot": "9",
        "type": "t_string_storage"
      },
      {
        "astId": 27668,
        "contract": "contracts/TransferERC721BudgetApproval.sol:TransferERC721BudgetApproval",
        "label": "_transactionType",
        "offset": 0,
        "slot": "10",
        "type": "t_string_storage"
      },
      {
        "astId": 27670,
        "contract": "contracts/TransferERC721BudgetApproval.sol:TransferERC721BudgetApproval",
        "label": "_allowUnlimitedUsageCount",
        "offset": 0,
        "slot": "11",
        "type": "t_bool"
      },
      {
        "astId": 27672,
        "contract": "contracts/TransferERC721BudgetApproval.sol:TransferERC721BudgetApproval",
        "label": "_usageCount",
        "offset": 0,
        "slot": "12",
        "type": "t_uint256"
      },
      {
        "astId": 27674,
        "contract": "contracts/TransferERC721BudgetApproval.sol:TransferERC721BudgetApproval",
        "label": "_startTime",
        "offset": 0,
        "slot": "13",
        "type": "t_uint256"
      },
      {
        "astId": 27676,
        "contract": "contracts/TransferERC721BudgetApproval.sol:TransferERC721BudgetApproval",
        "label": "_endTime",
        "offset": 0,
        "slot": "14",
        "type": "t_uint256"
      },
      {
        "astId": 27678,
        "contract": "contracts/TransferERC721BudgetApproval.sol:TransferERC721BudgetApproval",
        "label": "_team",
        "offset": 0,
        "slot": "15",
        "type": "t_address"
      },
      {
        "astId": 28422,
        "contract": "contracts/TransferERC721BudgetApproval.sol:TransferERC721BudgetApproval",
        "label": "__gap",
        "offset": 0,
        "slot": "16",
        "type": "t_array(t_uint256)50_storage"
      },
      {
        "astId": 25710,
        "contract": "contracts/TransferERC721BudgetApproval.sol:TransferERC721BudgetApproval",
        "label": "allowAllAddresses",
        "offset": 0,
        "slot": "66",
        "type": "t_bool"
      },
      {
        "astId": 25714,
        "contract": "contracts/TransferERC721BudgetApproval.sol:TransferERC721BudgetApproval",
        "label": "addressesMapping",
        "offset": 0,
        "slot": "67",
        "type": "t_mapping(t_address,t_bool)"
      },
      {
        "astId": 25716,
        "contract": "contracts/TransferERC721BudgetApproval.sol:TransferERC721BudgetApproval",
        "label": "allowAllTokens",
        "offset": 0,
        "slot": "68",
        "type": "t_bool"
      },
      {
        "astId": 25719,
        "contract": "contracts/TransferERC721BudgetApproval.sol:TransferERC721BudgetApproval",
        "label": "tokens",
        "offset": 0,
        "slot": "69",
        "type": "t_array(t_address)dyn_storage"
      },
      {
        "astId": 25723,
        "contract": "contracts/TransferERC721BudgetApproval.sol:TransferERC721BudgetApproval",
        "label": "tokensMapping",
        "offset": 0,
        "slot": "70",
        "type": "t_mapping(t_address,t_bool)"
      },
      {
        "astId": 25725,
        "contract": "contracts/TransferERC721BudgetApproval.sol:TransferERC721BudgetApproval",
        "label": "allowAnyAmount",
        "offset": 0,
        "slot": "71",
        "type": "t_bool"
      },
      {
        "astId": 25727,
        "contract": "contracts/TransferERC721BudgetApproval.sol:TransferERC721BudgetApproval",
        "label": "totalAmount",
        "offset": 0,
        "slot": "72",
        "type": "t_uint256"
      }
    ],
    "types": {
      "t_address": {
        "encoding": "inplace",
        "label": "address",
        "numberOfBytes": "20"
      },
      "t_array(t_address)dyn_storage": {
        "base": "t_address",
        "encoding": "dynamic_array",
        "label": "address[]",
        "numberOfBytes": "32"
      },
      "t_array(t_bytes_storage)dyn_storage": {
        "base": "t_bytes_storage",
        "encoding": "dynamic_array",
        "label": "bytes[]",
        "numberOfBytes": "32"
      },
      "t_array(t_uint256)50_storage": {
        "base": "t_uint256",
        "encoding": "inplace",
        "label": "uint256[50]",
        "numberOfBytes": "1600"
      },
      "t_bool": {
        "encoding": "inplace",
        "label": "bool",
        "numberOfBytes": "1"
      },
      "t_bytes_storage": {
        "encoding": "bytes",
        "label": "bytes",
        "numberOfBytes": "32"
      },
      "t_enum(Status)27570": {
        "encoding": "inplace",
        "label": "enum CommonBudgetApproval.Status",
        "numberOfBytes": "1"
      },
      "t_mapping(t_address,t_bool)": {
        "encoding": "mapping",
        "key": "t_address",
        "label": "mapping(address => bool)",
        "numberOfBytes": "32",
        "value": "t_bool"
      },
      "t_mapping(t_uint256,t_struct(Transaction)27589_storage)": {
        "encoding": "mapping",
        "key": "t_uint256",
        "label": "mapping(uint256 => struct CommonBudgetApproval.Transaction)",
        "numberOfBytes": "32",
        "value": "t_struct(Transaction)27589_storage"
      },
      "t_string_storage": {
        "encoding": "bytes",
        "label": "string",
        "numberOfBytes": "32"
      },
      "t_struct(Counter)17310_storage": {
        "encoding": "inplace",
        "label": "struct Counters.Counter",
        "members": [
          {
            "astId": 17309,
            "contract": "contracts/TransferERC721BudgetApproval.sol:TransferERC721BudgetApproval",
            "label": "_value",
            "offset": 0,
            "slot": "0",
            "type": "t_uint256"
          }
        ],
        "numberOfBytes": "32"
      },
      "t_struct(Transaction)27589_storage": {
        "encoding": "inplace",
        "label": "struct CommonBudgetApproval.Transaction",
        "members": [
          {
            "astId": 27572,
            "contract": "contracts/TransferERC721BudgetApproval.sol:TransferERC721BudgetApproval",
            "label": "id",
            "offset": 0,
            "slot": "0",
            "type": "t_uint256"
          },
          {
            "astId": 27575,
            "contract": "contracts/TransferERC721BudgetApproval.sol:TransferERC721BudgetApproval",
            "label": "data",
            "offset": 0,
            "slot": "1",
            "type": "t_array(t_bytes_storage)dyn_storage"
          },
          {
            "astId": 27578,
            "contract": "contracts/TransferERC721BudgetApproval.sol:TransferERC721BudgetApproval",
            "label": "status",
            "offset": 0,
            "slot": "2",
            "type": "t_enum(Status)27570"
          },
          {
            "astId": 27580,
            "contract": "contracts/TransferERC721BudgetApproval.sol:TransferERC721BudgetApproval",
            "label": "deadline",
            "offset": 1,
            "slot": "2",
            "type": "t_uint32"
          },
          {
            "astId": 27582,
            "contract": "contracts/TransferERC721BudgetApproval.sol:TransferERC721BudgetApproval",
            "label": "isExist",
            "offset": 5,
            "slot": "2",
            "type": "t_bool"
          },
          {
            "astId": 27584,
            "contract": "contracts/TransferERC721BudgetApproval.sol:TransferERC721BudgetApproval",
            "label": "approvedCount",
            "offset": 0,
            "slot": "3",
            "type": "t_uint256"
          },
          {
            "astId": 27588,
            "contract": "contracts/TransferERC721BudgetApproval.sol:TransferERC721BudgetApproval",
            "label": "approved",
            "offset": 0,
            "slot": "4",
            "type": "t_mapping(t_address,t_bool)"
          }
        ],
        "numberOfBytes": "160"
      },
      "t_uint256": {
        "encoding": "inplace",
        "label": "uint256",
        "numberOfBytes": "32"
      },
      "t_uint32": {
        "encoding": "inplace",
        "label": "uint32",
        "numberOfBytes": "4"
      },
      "t_uint8": {
        "encoding": "inplace",
        "label": "uint8",
        "numberOfBytes": "1"
      }
    }
  }
}