{
  "address": "0x133470de146F71707c5dF269ff31f54a7F3c9E42",
  "abi": [
    {
      "inputs": [],
      "stateMutability": "nonpayable",
      "type": "constructor"
    },
    {
      "anonymous": false,
      "inputs": [
        {
          "indexed": false,
          "internalType": "address",
          "name": "target",
          "type": "address"
        }
      ],
      "name": "AllowAddress",
      "type": "event"
    },
    {
      "anonymous": false,
      "inputs": [
        {
          "indexed": false,
          "internalType": "uint256",
          "name": "amount",
          "type": "uint256"
        }
      ],
      "name": "AllowAmount",
      "type": "event"
    },
    {
      "anonymous": false,
      "inputs": [
        {
          "indexed": true,
          "internalType": "uint256",
          "name": "teamId",
          "type": "uint256"
        }
      ],
      "name": "AllowTeam",
      "type": "event"
    },
    {
      "anonymous": false,
      "inputs": [
        {
          "indexed": false,
          "internalType": "address",
          "name": "token",
          "type": "address"
        }
      ],
      "name": "AllowToken",
      "type": "event"
    },
    {
      "anonymous": false,
      "inputs": [
        {
          "indexed": true,
          "internalType": "uint256",
          "name": "id",
          "type": "uint256"
        },
        {
          "indexed": false,
          "internalType": "address",
          "name": "approver",
          "type": "address"
        },
        {
          "indexed": false,
          "internalType": "string",
          "name": "comment",
          "type": "string"
        }
      ],
      "name": "ApproveTransaction",
      "type": "event"
    },
    {
      "anonymous": false,
      "inputs": [
        {
          "indexed": true,
          "internalType": "uint256",
          "name": "id",
          "type": "uint256"
        },
        {
          "indexed": false,
          "internalType": "bytes[]",
          "name": "data",
          "type": "bytes[]"
        },
        {
          "indexed": false,
          "internalType": "uint256",
          "name": "deadline",
          "type": "uint256"
        },
        {
          "indexed": false,
          "internalType": "enum CommonBudgetApprovalV2.Status",
          "name": "status",
          "type": "uint8"
        },
        {
          "indexed": false,
          "internalType": "string",
          "name": "comment",
          "type": "string"
        },
        {
          "indexed": false,
          "internalType": "address",
          "name": "creator",
          "type": "address"
        }
      ],
      "name": "CreateTransaction",
      "type": "event"
    },
    {
      "anonymous": false,
      "inputs": [
        {
          "indexed": true,
          "internalType": "uint256",
          "name": "id",
          "type": "uint256"
        },
        {
          "indexed": false,
          "internalType": "bytes[]",
          "name": "data",
          "type": "bytes[]"
        },
        {
          "indexed": false,
          "internalType": "address",
          "name": "_executor",
          "type": "address"
        }
      ],
      "name": "ExecuteTransaction",
      "type": "event"
    },
    {
      "anonymous": false,
      "inputs": [
        {
          "indexed": true,
          "internalType": "uint256",
          "name": "id",
          "type": "uint256"
        },
        {
          "indexed": true,
          "internalType": "address",
          "name": "executor",
          "type": "address"
        },
        {
          "indexed": true,
          "internalType": "address",
          "name": "toAddress",
          "type": "address"
        },
        {
          "indexed": false,
          "internalType": "address",
          "name": "token",
          "type": "address"
        },
        {
          "indexed": false,
          "internalType": "uint256",
          "name": "tokenId",
          "type": "uint256"
        }
      ],
      "name": "ExecuteTransferERC721Transaction",
      "type": "event"
    },
    {
      "anonymous": false,
      "inputs": [
        {
          "indexed": false,
          "internalType": "uint8",
          "name": "version",
          "type": "uint8"
        }
      ],
      "name": "Initialized",
      "type": "event"
    },
    {
      "anonymous": false,
      "inputs": [
        {
          "indexed": true,
          "internalType": "uint256",
          "name": "id",
          "type": "uint256"
        }
      ],
      "name": "RevokeTransaction",
      "type": "event"
    },
    {
      "anonymous": false,
      "inputs": [
        {
          "indexed": false,
          "internalType": "address",
          "name": "approver",
          "type": "address"
        }
      ],
      "name": "SetApprover",
      "type": "event"
    },
    {
      "inputs": [
        {
          "internalType": "address",
          "name": "",
          "type": "address"
        }
      ],
      "name": "addressesMapping",
      "outputs": [
        {
          "internalType": "bool",
          "name": "",
          "type": "bool"
        }
      ],
      "stateMutability": "view",
      "type": "function"
    },
    {
      "inputs": [],
      "name": "afterInitialized",
      "outputs": [],
      "stateMutability": "nonpayable",
      "type": "function"
    },
    {
      "inputs": [],
      "name": "allowAllAddresses",
      "outputs": [
        {
          "internalType": "bool",
          "name": "",
          "type": "bool"
        }
      ],
      "stateMutability": "view",
      "type": "function"
    },
    {
      "inputs": [],
      "name": "allowAllTokens",
      "outputs": [
        {
          "internalType": "bool",
          "name": "",
          "type": "bool"
        }
      ],
      "stateMutability": "view",
      "type": "function"
    },
    {
      "inputs": [],
      "name": "allowAnyAmount",
      "outputs": [
        {
          "internalType": "bool",
          "name": "",
          "type": "bool"
        }
      ],
      "stateMutability": "view",
      "type": "function"
    },
    {
      "inputs": [],
      "name": "allowUnlimitedUsageCount",
      "outputs": [
        {
          "internalType": "bool",
          "name": "",
          "type": "bool"
        }
      ],
      "stateMutability": "view",
      "type": "function"
    },
    {
      "inputs": [
        {
          "internalType": "uint256",
          "name": "id",
          "type": "uint256"
        },
        {
          "internalType": "string",
          "name": "comment",
          "type": "string"
        }
      ],
      "name": "approveTransaction",
      "outputs": [],
      "stateMutability": "nonpayable",
      "type": "function"
    },
    {
      "inputs": [],
      "name": "approverTeamId",
      "outputs": [
        {
          "internalType": "uint256",
          "name": "",
          "type": "uint256"
        }
      ],
      "stateMutability": "view",
      "type": "function"
    },
    {
      "inputs": [
        {
          "internalType": "address",
          "name": "eoa",
          "type": "address"
        }
      ],
      "name": "approversMapping",
      "outputs": [
        {
          "internalType": "bool",
          "name": "",
          "type": "bool"
        }
      ],
      "stateMutability": "view",
      "type": "function"
    },
    {
      "inputs": [
        {
          "internalType": "bytes[]",
          "name": "_data",
          "type": "bytes[]"
        },
        {
          "internalType": "uint32",
          "name": "_deadline",
          "type": "uint32"
        },
        {
          "internalType": "bool",
          "name": "_isExecute",
          "type": "bool"
        },
        {
          "internalType": "string",
          "name": "comment",
          "type": "string"
        }
      ],
      "name": "createTransaction",
      "outputs": [
        {
          "internalType": "uint256",
          "name": "",
          "type": "uint256"
        }
      ],
      "stateMutability": "nonpayable",
      "type": "function"
    },
    {
      "inputs": [],
      "name": "endTime",
      "outputs": [
        {
          "internalType": "uint256",
          "name": "",
          "type": "uint256"
        }
      ],
      "stateMutability": "view",
      "type": "function"
    },
    {
      "inputs": [],
      "name": "executeParams",
      "outputs": [
        {
          "internalType": "string[]",
          "name": "",
          "type": "string[]"
        }
      ],
      "stateMutability": "pure",
      "type": "function"
    },
    {
      "inputs": [
        {
          "internalType": "uint256",
          "name": "id",
          "type": "uint256"
        }
      ],
      "name": "executeTransaction",
      "outputs": [],
      "stateMutability": "nonpayable",
      "type": "function"
    },
    {
      "inputs": [],
      "name": "executee",
      "outputs": [
        {
          "internalType": "address",
          "name": "",
          "type": "address"
        }
      ],
      "stateMutability": "view",
      "type": "function"
    },
    {
      "inputs": [],
      "name": "executor",
      "outputs": [
        {
          "internalType": "address",
          "name": "",
          "type": "address"
        }
      ],
      "stateMutability": "view",
      "type": "function"
    },
    {
      "inputs": [],
      "name": "executorTeamId",
      "outputs": [
        {
          "internalType": "uint256",
          "name": "",
          "type": "uint256"
        }
      ],
      "stateMutability": "view",
      "type": "function"
    },
    {
      "inputs": [
        {
          "components": [
            {
              "internalType": "address",
              "name": "executor",
              "type": "address"
            },
            {
              "internalType": "uint256",
              "name": "executorTeamId",
              "type": "uint256"
            },
            {
              "internalType": "address[]",
              "name": "approvers",
              "type": "address[]"
            },
            {
              "internalType": "uint256",
              "name": "approverTeamId",
              "type": "uint256"
            },
            {
              "internalType": "uint256",
              "name": "minApproval",
              "type": "uint256"
            },
            {
              "internalType": "string",
              "name": "text",
              "type": "string"
            },
            {
              "internalType": "string",
              "name": "transactionType",
              "type": "string"
            },
            {
              "internalType": "uint256",
              "name": "startTime",
              "type": "uint256"
            },
            {
              "internalType": "uint256",
              "name": "endTime",
              "type": "uint256"
            },
            {
              "internalType": "bool",
              "name": "allowUnlimitedUsageCount",
              "type": "bool"
            },
            {
              "internalType": "uint256",
              "name": "usageCount",
              "type": "uint256"
            },
            {
              "internalType": "address",
              "name": "team",
              "type": "address"
            }
          ],
          "internalType": "struct CommonBudgetApprovalV2.InitializeParams",
          "name": "params",
          "type": "tuple"
        },
        {
          "internalType": "bool",
          "name": "_allowAllAddresses",
          "type": "bool"
        },
        {
          "internalType": "address[]",
          "name": "_toAddresses",
          "type": "address[]"
        },
        {
          "internalType": "bool",
          "name": "_allowAllTokens",
          "type": "bool"
        },
        {
          "internalType": "address[]",
          "name": "_tokens",
          "type": "address[]"
        },
        {
          "internalType": "bool",
          "name": "_allowAnyAmount",
          "type": "bool"
        },
        {
          "internalType": "uint256",
          "name": "_totalAmount",
          "type": "uint256"
        },
        {
          "internalType": "uint256[]",
          "name": "_toTeamIds",
          "type": "uint256[]"
        }
      ],
      "name": "initialize",
      "outputs": [],
      "stateMutability": "nonpayable",
      "type": "function"
    },
    {
      "inputs": [],
      "name": "minApproval",
      "outputs": [
        {
          "internalType": "uint256",
          "name": "",
          "type": "uint256"
        }
      ],
      "stateMutability": "view",
      "type": "function"
    },
    {
      "inputs": [],
      "name": "name",
      "outputs": [
        {
          "internalType": "string",
          "name": "",
          "type": "string"
        }
      ],
      "stateMutability": "view",
      "type": "function"
    },
    {
      "inputs": [
        {
          "internalType": "uint256",
          "name": "id",
          "type": "uint256"
        }
      ],
      "name": "revokeTransaction",
      "outputs": [],
      "stateMutability": "nonpayable",
      "type": "function"
    },
    {
      "inputs": [],
      "name": "startTime",
      "outputs": [
        {
          "internalType": "uint256",
          "name": "",
          "type": "uint256"
        }
      ],
      "stateMutability": "view",
      "type": "function"
    },
    {
      "inputs": [],
      "name": "team",
      "outputs": [
        {
          "internalType": "address",
          "name": "",
          "type": "address"
        }
      ],
      "stateMutability": "view",
      "type": "function"
    },
    {
      "inputs": [],
      "name": "text",
      "outputs": [
        {
          "internalType": "string",
          "name": "",
          "type": "string"
        }
      ],
      "stateMutability": "view",
      "type": "function"
    },
    {
      "inputs": [
        {
          "internalType": "uint256",
          "name": "",
          "type": "uint256"
        }
      ],
      "name": "toTeamIds",
      "outputs": [
        {
          "internalType": "uint256",
          "name": "",
          "type": "uint256"
        }
      ],
      "stateMutability": "view",
      "type": "function"
    },
    {
      "inputs": [
        {
          "internalType": "uint256",
          "name": "",
          "type": "uint256"
        }
      ],
      "name": "toTeamIdsMapping",
      "outputs": [
        {
          "internalType": "bool",
          "name": "",
          "type": "bool"
        }
      ],
      "stateMutability": "view",
      "type": "function"
    },
    {
      "inputs": [],
      "name": "toTeamsLength",
      "outputs": [
        {
          "internalType": "uint256",
          "name": "",
          "type": "uint256"
        }
      ],
      "stateMutability": "view",
      "type": "function"
    },
    {
      "inputs": [
        {
          "internalType": "uint256",
          "name": "",
          "type": "uint256"
        }
      ],
      "name": "tokens",
      "outputs": [
        {
          "internalType": "address",
          "name": "",
          "type": "address"
        }
      ],
      "stateMutability": "view",
      "type": "function"
    },
    {
      "inputs": [],
      "name": "tokensLength",
      "outputs": [
        {
          "internalType": "uint256",
          "name": "",
          "type": "uint256"
        }
      ],
      "stateMutability": "view",
      "type": "function"
    },
    {
      "inputs": [
        {
          "internalType": "address",
          "name": "",
          "type": "address"
        }
      ],
      "name": "tokensMapping",
      "outputs": [
        {
          "internalType": "bool",
          "name": "",
          "type": "bool"
        }
      ],
      "stateMutability": "view",
      "type": "function"
    },
    {
      "inputs": [],
      "name": "totalAmount",
      "outputs": [
        {
          "internalType": "uint256",
          "name": "",
          "type": "uint256"
        }
      ],
      "stateMutability": "view",
      "type": "function"
    },
    {
      "inputs": [],
      "name": "transactionType",
      "outputs": [
        {
          "internalType": "string",
          "name": "",
          "type": "string"
        }
      ],
      "stateMutability": "view",
      "type": "function"
    },
    {
      "inputs": [
        {
          "internalType": "uint256",
          "name": "",
          "type": "uint256"
        }
      ],
      "name": "transactions",
      "outputs": [
        {
          "internalType": "uint256",
          "name": "id",
          "type": "uint256"
        },
        {
          "internalType": "enum CommonBudgetApprovalV2.Status",
          "name": "status",
          "type": "uint8"
        },
        {
          "internalType": "uint32",
          "name": "deadline",
          "type": "uint32"
        },
        {
          "internalType": "bool",
          "name": "isExist",
          "type": "bool"
        },
        {
          "internalType": "uint256",
          "name": "approvedCount",
          "type": "uint256"
        }
      ],
      "stateMutability": "view",
      "type": "function"
    },
    {
      "inputs": [],
      "name": "usageCount",
      "outputs": [
        {
          "internalType": "uint256",
          "name": "",
          "type": "uint256"
        }
      ],
      "stateMutability": "view",
      "type": "function"
    }
  ],
  "transactionHash": "0x9c57e7ffeb04ca95ee20112d8bdd4a7b99ad7256f803570629d09e8559c12bf3",
  "args": [],
  "numDeployments": 1,
  "solcInputHash": "fa5239de73a8719651149b38f4b9f00f",
  "bytecode": "0x60806040523480156200001157600080fd5b506200001c6200002c565b620000266200002c565b620000ee565b600054610100900460ff1615620000995760405162461bcd60e51b815260206004820152602760248201527f496e697469616c697a61626c653a20636f6e747261637420697320696e697469604482015266616c697a696e6760c81b606482015260840160405180910390fd5b60005460ff9081161015620000ec576000805460ff191660ff9081179091556040519081527f7f26b83ff96e1f2b6a682f133852f6798a09c465da95921460cefb38474024989060200160405180910390a15b565b612c0880620000fe6000396000f3fe608060405234801561001057600080fd5b50600436106101fb5760003560e01c80637cddb6c31161011a578063cd753b6c116100ad578063dd7a07041161007c578063dd7a070414610486578063de755e2f1461048e578063e52b4ab214610496578063ee22610b146104b9578063f5c03852146104cc57600080fd5b8063cd753b6c14610461578063cf26fec61461046e578063d92fc67b14610476578063d96c91961461047e57600080fd5b806397c85a61116100e957806397c85a61146103ca5780639ace38c2146103dd578063b617b3ee1461043c578063c34c08e51461045057600080fd5b80637cddb6c314610376578063850154371461038957806385f2aef2146103965780638d1c5c29146103a757600080fd5b80633d70015a116101925780636bdebe5e116101615780636bdebe5e14610327578063735631ad1461035357806378e97925146103665780637cd47d931461036e57600080fd5b80633d70015a146102b65780634f64b2be146102e957806350bd881f146103145780635ad325021461031c57600080fd5b80631f1bd692116101ce5780631f1bd6921461027c5780632ee3af00146102845780633197cbb61461029957806331a7bdd9146102a157600080fd5b806303ff90f61461020057806306fdde031461021757806314b893f9146102605780631a39d8ef14610273575b600080fd5b6008545b6040519081526020015b60405180910390f35b6102536040518060400160405280601f81526020017f5472616e73666572204552433732312042756467657420417070726f76616c0081525081565b60405161020e9190612906565b61020461026e3660046122ab565b6104dd565b61020460155481565b6102536106f8565b610297610292366004612518565b61078a565b005b600e54610204565b6102a961099f565b60405161020e91906128a4565b6102d96102c4366004612244565b60136020526000908152604090205460ff1681565b604051901515815260200161020e565b6102fc6102f7366004612601565b610aa2565b6040516001600160a01b03909116815260200161020e565b600c54610204565b600b5460ff166102d9565b6102d9610335366004612244565b6001600160a01b031660009081526006602052604090205460ff1690565b610297610361366004612601565b610acc565b600d54610204565b610253610cc2565b610204610384366004612601565b610cd1565b6014546102d99060ff1681565b600f546001600160a01b03166102fc565b6102d96103b5366004612244565b60106020526000908152604090205460ff1681565b6102976103d8366004612633565b610cf2565b61042b6103eb366004612601565b600260208190526000918252604090912080549181015460039091015460ff8083169263ffffffff61010082041692650100000000009091049091169085565b60405161020e95949392919061295b565b600f546102d990600160a01b900460ff1681565b6003546001600160a01b03166102fc565b6011546102d99060ff1681565b610297611022565b601254610204565b600754610204565b601654610204565b600454610204565b6102d96104a4366004612601565b60176020526000908152604090205460ff1681565b6102976104c7366004612601565b611089565b6005546001600160a01b03166102fc565b60006104f16003546001600160a01b031690565b6001600160a01b0316336001600160a01b031614806105b45750600061051f600f546001600160a01b031690565b6001600160a01b031662fdd58e3361053660045490565b6040516001600160e01b031960e085901b1681526001600160a01b039092166004830152602482015260440160206040518083038186803b15801561057a57600080fd5b505afa15801561058e573d6000803e3d6000fd5b505050506040513d601f19601f820116820180604052508101906105b2919061261a565b115b6105d95760405162461bcd60e51b81526004016105d090612919565b60405180910390fd5b6105e7600180546001019055565b60006105f260015490565b600081815260026020908152604090912082815589519293509161061e916001840191908b0190611f1e565b506002810180546501000000000065ffffffffff001990911661010063ffffffff8b160265ff000000000019161717905560085461067857600082815260026020819052604090912001805460ff19166001179055610693565b600082815260026020819052604090912001805460ff191690555b600281015460405183917f8a5186dbaf6f344b2837e11834be94edebb633f05034f422c6b1fe1595b4d0cc916106d6918c918c9160ff16908b908b903390612849565b60405180910390a285156106ed576106ed82611089565b509695505050505050565b60606009805461070790612b15565b80601f016020809104026020016040519081016040528092919081815260200182805461073390612b15565b80156107805780601f1061075557610100808354040283529160200191610780565b820191906000526020600020905b81548152906001019060200180831161076357829003601f168201915b5050505050905090565b600054610100900460ff16158080156107aa5750600054600160ff909116105b806107c45750303b1580156107c4575060005460ff166001145b6108275760405162461bcd60e51b815260206004820152602e60248201527f496e697469616c697a61626c653a20636f6e747261637420697320616c72656160448201526d191e481a5b9a5d1a585b1a5e995960921b60648201526084016105d0565b6000805460ff19166001179055801561084a576000805461ff0019166101001790555b61085389611511565b600f805460ff60a01b1916600160a01b8a15150217905560005b87518110156108aa5761089888828151811061088b5761088b612b91565b60200260200101516117df565b806108a281612b4a565b91505061086d565b506011805460ff191687151517905560005b85518110156108f9576108e78682815181106108da576108da612b91565b60200260200101516118b5565b806108f181612b4a565b9150506108bc565b5060005b825181101561093a5761092883828151811061091b5761091b612b91565b60200260200101516119be565b8061093281612b4a565b9150506108fd565b506014805460ff191685151517905560158390558015610994576000805461ff0019169055604051600181527f7f26b83ff96e1f2b6a682f133852f6798a09c465da95921460cefb38474024989060200160405180910390a15b505050505050505050565b6040805160038082526080820190925260609160009190816020015b60608152602001906001900390816109bb5790505090506040518060400160405280600d81526020016c30b2323932b9b9903a37b5b2b760991b81525081600081518110610a0b57610a0b612b91565b60200260200101819052506040518060400160405280600a8152602001696164647265737320746f60b01b81525081600181518110610a4c57610a4c612b91565b60200260200101819052506040518060400160405280600f81526020016e1d5a5b9d0c8d4d881d1bdad95b9259608a1b81525081600281518110610a9257610a92612b91565b6020908102919091010152919050565b60128181548110610ab257600080fd5b6000918252602090912001546001600160a01b0316905081565b6003546001600160a01b0316331480610b8957506000610af4600f546001600160a01b031690565b6001600160a01b031662fdd58e33610b0b60045490565b6040516001600160e01b031960e085901b1681526001600160a01b039092166004830152602482015260440160206040518083038186803b158015610b4f57600080fd5b505afa158015610b63573d6000803e3d6000fd5b505050506040513d601f19601f82011682018060405250810190610b87919061261a565b115b610ba55760405162461bcd60e51b81526004016105d090612919565b80610baf60015490565b1015610bf55760405162461bcd60e51b8152602060048201526015602482015274125b9d985a5b1908151c985b9cd858dd1a5bdb9259605a1b60448201526064016105d0565b60026000828152600260208190526040909120015460ff166003811115610c1e57610c1e612b7b565b1415610c7a5760405162461bcd60e51b815260206004820152602560248201527f5472616e73616374696f6e20686173206265656e20636f6d706c65746564206260448201526465666f726560d81b60648201526084016105d0565b6000818152600260208190526040808320909101805460ff191660031790555182917f92a917be073b79ab50f9d997e9514a5d101e052ce04228014947e7883a7c034691a250565b6060600a805461070790612b15565b60168181548110610ce157600080fd5b600091825260209091200154905081565b3360009081526006602052604090205460ff1680610db457506000610d1f600f546001600160a01b031690565b6001600160a01b031662fdd58e33610d3660075490565b6040516001600160e01b031960e085901b1681526001600160a01b039092166004830152602482015260440160206040518083038186803b158015610d7a57600080fd5b505afa158015610d8e573d6000803e3d6000fd5b505050506040513d601f19601f82011682018060405250810190610db2919061261a565b115b610e0b5760405162461bcd60e51b815260206004820152602260248201527f417070726f766572206e6f742077686974656c697374656420696e2062756467604482015261195d60f21b60648201526084016105d0565b82610e1560015490565b1015610e5b5760405162461bcd60e51b8152602060048201526015602482015274125b9d985a5b1908151c985b9cd858dd1a5bdb9259605a1b60448201526064016105d0565b600083815260026020819052604082209081015460039091015460ff9091169190610e87906001612a9f565b90506000826003811115610e9d57610e9d612b7b565b1480610eba57506001826003811115610eb857610eb8612b7b565b145b610f065760405162461bcd60e51b815260206004820152601d60248201527f556e6578706563746564207472616e73616374696f6e2073746174757300000060448201526064016105d0565b600085815260026020908152604080832033845260040190915290205460ff1615610f7f5760405162461bcd60e51b8152602060048201526024808201527f5472616e73616374696f6e20686173206265656e20617070726f766564206265604482015263666f726560e01b60648201526084016105d0565b6000858152600260208181526040808420338552600481018352908420805460ff191660011790559288905252600301819055610fbb60085490565b8110610fdf57600085815260026020819052604090912001805460ff191660011790555b847f3399030f87676a97e30e211a48f9c46e2ff806d0b4cedf7100782f08c52902c93386866040516110139392919061277f565b60405180910390a25050505050565b6005546001600160a01b031633146110875760405162461bcd60e51b815260206004820152602260248201527f4578656375746565206e6f742077686974656c697374656420696e2062756467604482015261195d60f21b60648201526084016105d0565b565b806001806000838152600260208190526040909120015460ff1660038111156110b4576110b4612b7b565b146111015760405162461bcd60e51b815260206004820152601a60248201527f5472616e73616374696f6e2073746174757320696e76616c696400000000000060448201526064016105d0565b600083815260026020819052604090912001548390610100900463ffffffff164211156111665760405162461bcd60e51b8152602060048201526013602482015272151c985b9cd858dd1a5bdb88195e1c1a5c9959606a1b60448201526064016105d0565b600d544210156111b85760405162461bcd60e51b815260206004820152601f60248201527f42756467657420757361676520706572696f64206e6f7420737461727465640060448201526064016105d0565b60006111c3600e5490565b9050801561121a5780421061121a5760405162461bcd60e51b815260206004820152601d60248201527f42756467657420757361676520706572696f642068617320656e64656400000060448201526064016105d0565b6003546001600160a01b03163314806112d757506000611242600f546001600160a01b031690565b6001600160a01b031662fdd58e3361125960045490565b6040516001600160e01b031960e085901b1681526001600160a01b039092166004830152602482015260440160206040518083038186803b15801561129d57600080fd5b505afa1580156112b1573d6000803e3d6000fd5b505050506040513d601f19601f820116820180604052508101906112d5919061261a565b115b6112f35760405162461bcd60e51b81526004016105d090612919565b6000611301600b5460ff1690565b9050600061130e600c5490565b9050600060026000898152602001908152602001600020600101805480602002602001604051908101604052809291908181526020016000905b828210156113f457838290600052602060002001805461136790612b15565b80601f016020809104026020016040519081016040528092919081815260200182805461139390612b15565b80156113e05780601f106113b5576101008083540402835291602001916113e0565b820191906000526020600020905b8154815290600101906020018083116113c357829003601f168201915b505050505081526020019060010190611348565b50505050905060005b81518110156114a65783806114125750600083115b61145e5760405162461bcd60e51b815260206004820152601b60248201527f457863656564656420627564676574207573616765206c696d6974000000000060448201526064016105d0565b83611471578261146d81612afe565b9350505b6114948983838151811061148757611487612b91565b6020026020010151611a9f565b8061149e81612b4a565b9150506113fd565b50600c82905560008881526002602081905260409091208101805460ff19166001830217905550877f9060adf413860c5ab6e376e0aa4269e49a13f0853edb1583fce8129d4c756d7982336040516114ff92919061281f565b60405180910390a25050505050505050565b600054610100900460ff1661157c5760405162461bcd60e51b815260206004820152602b60248201527f496e697469616c697a61626c653a20636f6e7472616374206973206e6f74206960448201526a6e697469616c697a696e6760a81b60648201526084016105d0565b6000816060013511806115a157506115976040820182612991565b9050816080013511155b6115e55760405162461bcd60e51b8152602060048201526015602482015274125b9d985b1a5908185c1c1c9bdd995c881b1a5cdd605a1b60448201526064016105d0565b600580546001600160a01b031916331790556116046020820182612244565b600380546001600160a01b0319166001600160a01b039290921691909117905561163160a08201826129db565b61163d91600991611f7b565b5061164b60c08201826129db565b61165791600a91611f7b565b50608081013560085560e0810135600d55610100810135600e5561168361014082016101208301612486565b600b805460ff1916911515919091179055610140810135600c556116af61018082016101608301612244565b600f80546001600160a01b0319166001600160a01b03929092169190911790556020810135600455606081013560075560005b6116ef6040830183612991565b90508110156117db5760016006600061170b6040860186612991565b8581811061171b5761171b612b91565b90506020020160208101906117309190612244565b6001600160a01b0316815260208101919091526040908101600020805460ff1916921515929092179091557f4664777dbfbcb27de0f602e1da5d5a259992cd7edf5b29192929c96e8fd50def9061178990840184612991565b8381811061179957611799612b91565b90506020020160208101906117ae9190612244565b6040516001600160a01b03909116815260200160405180910390a1806117d381612b4a565b9150506116e2565b5050565b6001600160a01b03811660009081526010602052604090205460ff161561185a5760405162461bcd60e51b815260206004820152602960248201527f4475706c696361746564206164647265737320696e20746172676574206164646044820152681c995cdcc81b1a5cdd60ba1b60648201526084016105d0565b6001600160a01b038116600081815260106020908152604091829020805460ff1916600117905590519182527ff11283a265d7a5f95fbc149dc65464f1f5be0151aac387fd76a938e1e558460491015b60405180910390a150565b6001600160a01b03811660009081526013602052604090205460ff161561192a5760405162461bcd60e51b8152602060048201526024808201527f4475706c696361746564204974656d20696e20736f7572636520746f6b656e206044820152631b1a5cdd60e21b60648201526084016105d0565b6012805460018082019092557fbb8a6a4669ba250d26cd7a459eca9d215f8307e33aebe50379bc5a3617ec34440180546001600160a01b0319166001600160a01b038416908117909155600081815260136020908152604091829020805460ff1916909417909355519081527f14009112f2dcb15cad32dab6bf972d6d85286e4ae1178f27323ffe25359459e691016118aa565b60008181526017602052604090205460ff1615611a295760405162461bcd60e51b815260206004820152602360248201527f4475706c696361746564207465616d20696e20746172676574207465616d206c6044820152621a5cdd60ea1b60648201526084016105d0565b600081815260176020526040808220805460ff1916600190811790915560168054918201815583527fd833147d7dc355ba459fc788f669e58cfaf9dc25ddcd0702e87d69c7b5124289018390555182917f97f63d9e58eec1949a905544927de4308825003ab1dd2aa1b699921c3ca31f9591a250565b600080600083806020019051810190611ab89190612268565b9250925092506000611ad26005546001600160a01b031690565b6014546015546040516001600160a01b038085166024830152871660448201526064810186905292935060ff9091169160009060840160408051601f198184030181529181526020820180516001600160e01b0316632142170760e11b1790525163d3abc28b60e01b81529091506001600160a01b0385169063d3abc28b90611b64908a90859060009060040161274b565b600060405180830381600087803b158015611b7e57600080fd5b505af1158015611b92573d6000803e3d6000fd5b505050506040513d6000823e601f3d908101601f19168201604052611bba91908101906124a1565b50600f54600160a01b900460ff1680611beb57506001600160a01b03861660009081526010602052604090205460ff165b80611bfa5750611bfa86611d99565b611c525760405162461bcd60e51b815260206004820152602360248201527f526563697069656e74206e6f742077686974656c697374656420696e2062756460448201526219d95d60ea1b60648201526084016105d0565b60115460ff1680611c7b57506001600160a01b03871660009081526013602052604090205460ff165b611cc75760405162461bcd60e51b815260206004820152601f60248201527f546f6b656e206e6f742077686974656c697374656420696e206275646765740060448201526064016105d0565b8280611cd4575081600111155b611d305760405162461bcd60e51b815260206004820152602760248201527f4578636565646564206d617820627564676574207472616e7366657261626c6560448201526608185b5bdd5b9d60ca1b60648201526084016105d0565b82611d4457611d40600183612ab7565b6015555b604080516001600160a01b0389811682526020820188905288169133918c917f38eecad2e39c3d7db3555e30dbbd12e77baba0648126dcda1c1bd58bff86da11910160405180910390a4505050505050505050565b601654600090818167ffffffffffffffff811115611db957611db9612ba7565b604051908082528060200260200182016040528015611de2578160200160208202803683370190505b50905060005b82811015611e2d5784828281518110611e0357611e03612b91565b6001600160a01b039092166020928302919091019091015280611e2581612b4a565b915050611de8565b506000611e42600f546001600160a01b031690565b6001600160a01b0316634e1273f48360166040518363ffffffff1660e01b8152600401611e709291906127a4565b60006040518083038186803b158015611e8857600080fd5b505afa158015611e9c573d6000803e3d6000fd5b505050506040513d6000823e601f3d908101601f19168201604052611ec491908101906123ee565b905060005b8151811015611f12576000828281518110611ee657611ee6612b91565b60200260200101511115611f005750600195945050505050565b80611f0a81612b4a565b915050611ec9565b50600095945050505050565b828054828255906000526020600020908101928215611f6b579160200282015b82811115611f6b5782518051611f5b918491602090910190611ffb565b5091602001919060010190611f3e565b50611f7792915061206f565b5090565b828054611f8790612b15565b90600052602060002090601f016020900481019282611fa95760008555611fef565b82601f10611fc25782800160ff19823516178555611fef565b82800160010185558215611fef579182015b82811115611fef578235825591602001919060010190611fd4565b50611f7792915061208c565b82805461200790612b15565b90600052602060002090601f0160209004810192826120295760008555611fef565b82601f1061204257805160ff1916838001178555611fef565b82800160010185558215611fef579182015b82811115611fef578251825591602001919060010190612054565b80821115611f7757600061208382826120a1565b5060010161206f565b5b80821115611f77576000815560010161208d565b5080546120ad90612b15565b6000825580601f106120bd575050565b601f0160209004906000526020600020908101906120db919061208c565b50565b600082601f8301126120ef57600080fd5b813560206121046120ff83612a53565b612a22565b80838252828201915082860187848660051b890101111561212457600080fd5b60005b8581101561214c57813561213a81612bbd565b84529284019290840190600101612127565b5090979650505050505050565b600082601f83011261216a57600080fd5b8135602061217a6120ff83612a53565b80838252828201915082860187848660051b890101111561219a57600080fd5b60005b8581101561214c5781358452928401929084019060010161219d565b803580151581146121c957600080fd5b919050565b60008083601f8401126121e057600080fd5b50813567ffffffffffffffff8111156121f857600080fd5b60208301915083602082850101111561221057600080fd5b9250929050565b6000610180828403121561222a57600080fd5b50919050565b803563ffffffff811681146121c957600080fd5b60006020828403121561225657600080fd5b813561226181612bbd565b9392505050565b60008060006060848603121561227d57600080fd5b835161228881612bbd565b602085015190935061229981612bbd565b80925050604084015190509250925092565b6000806000806000608086880312156122c357600080fd5b67ffffffffffffffff80873511156122da57600080fd5b8635870188601f8201126122ed57600080fd5b6122fa6120ff8235612a53565b8082358252602082019150602083018b6020853560051b860101111561231f57600080fd5b60005b843581101561239a57858235111561233957600080fd5b813585018d603f82011261234c57600080fd5b602081013561235d6120ff82612a77565b8181528f604083850101111561237257600080fd5b8160408401602083013760006020928201830152865294850194929092019150600101612322565b50508098505050506123ae60208801612230565b94506123bc604088016121b9565b93506060870135818111156123d057600080fd5b6123dc89828a016121ce565b979a9699509497509395949350505050565b6000602080838503121561240157600080fd5b825167ffffffffffffffff81111561241857600080fd5b8301601f8101851361242957600080fd5b80516124376120ff82612a53565b80828252848201915084840188868560051b870101111561245757600080fd5b600094505b8385101561247a57805183526001949094019391850191850161245c565b50979650505050505050565b60006020828403121561249857600080fd5b612261826121b9565b6000602082840312156124b357600080fd5b815167ffffffffffffffff8111156124ca57600080fd5b8201601f810184136124db57600080fd5b80516124e96120ff82612a77565b8181528560208385010111156124fe57600080fd5b61250f826020830160208601612ace565b95945050505050565b600080600080600080600080610100898b03121561253557600080fd5b883567ffffffffffffffff8082111561254d57600080fd5b6125598c838d01612217565b995061256760208c016121b9565b985060408b013591508082111561257d57600080fd5b6125898c838d016120de565b975061259760608c016121b9565b965060808b01359150808211156125ad57600080fd5b6125b98c838d016120de565b95506125c760a08c016121b9565b945060c08b0135935060e08b01359150808211156125e457600080fd5b506125f18b828c01612159565b9150509295985092959890939650565b60006020828403121561261357600080fd5b5035919050565b60006020828403121561262c57600080fd5b5051919050565b60008060006040848603121561264857600080fd5b83359250602084013567ffffffffffffffff81111561266657600080fd5b612672868287016121ce565b9497909650939450505050565b600081518084526020808501808196508360051b8101915082860160005b858110156126c75782840389526126b58483516126d4565b9885019893509084019060010161269d565b5091979650505050505050565b600081518084526126ec816020860160208601612ace565b601f01601f19169290920160200192915050565b6004811061271e57634e487b7160e01b600052602160045260246000fd5b9052565b81835281816020850137506000828201602090810191909152601f909101601f19169091010190565b6001600160a01b038416815260606020820181905260009061276f908301856126d4565b9050826040830152949350505050565b6001600160a01b038416815260406020820181905260009061250f9083018486612722565b604080825283519082018190526000906020906060840190828701845b828110156127e65781516001600160a01b0316845292840192908401906001016127c1565b505050838103828501528454808252600086815283812092840191905b8181101561214c57835483526001938401939285019201612803565b604081526000612832604083018561267f565b905060018060a01b03831660208301529392505050565b60a08152600061285c60a083018961267f565b63ffffffff881660208401526128756040840188612700565b8281036060840152612888818688612722565b91505060018060a01b0383166080830152979650505050505050565b6000602080830181845280855180835260408601915060408160051b870101925083870160005b828110156128f957603f198886030184526128e78583516126d4565b945092850192908501906001016128cb565b5092979650505050505050565b60208152600061226160208301846126d4565b60208082526022908201527f4578656375746f72206e6f742077686974656c697374656420696e2062756467604082015261195d60f21b606082015260800190565b85815260a0810161296f6020830187612700565b63ffffffff949094166040820152911515606083015260809091015292915050565b6000808335601e198436030181126129a857600080fd5b83018035915067ffffffffffffffff8211156129c357600080fd5b6020019150600581901b360382131561221057600080fd5b6000808335601e198436030181126129f257600080fd5b83018035915067ffffffffffffffff821115612a0d57600080fd5b60200191503681900382131561221057600080fd5b604051601f8201601f1916810167ffffffffffffffff81118282101715612a4b57612a4b612ba7565b604052919050565b600067ffffffffffffffff821115612a6d57612a6d612ba7565b5060051b60200190565b600067ffffffffffffffff821115612a9157612a91612ba7565b50601f01601f191660200190565b60008219821115612ab257612ab2612b65565b500190565b600082821015612ac957612ac9612b65565b500390565b60005b83811015612ae9578181015183820152602001612ad1565b83811115612af8576000848401525b50505050565b600081612b0d57612b0d612b65565b506000190190565b600181811c90821680612b2957607f821691505b6020821081141561222a57634e487b7160e01b600052602260045260246000fd5b6000600019821415612b5e57612b5e612b65565b5060010190565b634e487b7160e01b600052601160045260246000fd5b634e487b7160e01b600052602160045260246000fd5b634e487b7160e01b600052603260045260246000fd5b634e487b7160e01b600052604160045260246000fd5b6001600160a01b03811681146120db57600080fdfea26469706673582212203b2fed0c21734ac6076933866cc757391b8c8fef850aecb1b9e16bc228e1506664736f6c63430008070033",
  "devdoc": {
    "kind": "dev",
    "methods": {
      "constructor": {
        "custom:oz-upgrades-unsafe-allow": "constructor"
      }
    },
    "version": 1
  },
  "userdoc": {
    "kind": "user",
    "methods": {},
    "version": 1
  },
  "storageLayout": {
    "storage": [
      {
        "astId": 3247,
        "contract": "contracts/v2/TransferERC721BudgetApprovalV2.sol:TransferERC721BudgetApprovalV2",
        "label": "_initialized",
        "offset": 0,
        "slot": "0",
        "type": "t_uint8"
      },
      {
        "astId": 3250,
        "contract": "contracts/v2/TransferERC721BudgetApprovalV2.sol:TransferERC721BudgetApprovalV2",
        "label": "_initializing",
        "offset": 1,
        "slot": "0",
        "type": "t_bool"
      },
      {
        "astId": 43257,
        "contract": "contracts/v2/TransferERC721BudgetApprovalV2.sol:TransferERC721BudgetApprovalV2",
        "label": "_transactionIds",
        "offset": 0,
        "slot": "1",
        "type": "t_struct(Counter)17310_storage"
      },
      {
        "astId": 43262,
        "contract": "contracts/v2/TransferERC721BudgetApprovalV2.sol:TransferERC721BudgetApprovalV2",
        "label": "transactions",
        "offset": 0,
        "slot": "2",
        "type": "t_mapping(t_uint256,t_struct(Transaction)43201_storage)"
      },
      {
        "astId": 43264,
        "contract": "contracts/v2/TransferERC721BudgetApprovalV2.sol:TransferERC721BudgetApprovalV2",
        "label": "_executor",
        "offset": 0,
        "slot": "3",
        "type": "t_address"
      },
      {
        "astId": 43266,
        "contract": "contracts/v2/TransferERC721BudgetApprovalV2.sol:TransferERC721BudgetApprovalV2",
        "label": "_executorTeamId",
        "offset": 0,
        "slot": "4",
        "type": "t_uint256"
      },
      {
        "astId": 43268,
        "contract": "contracts/v2/TransferERC721BudgetApprovalV2.sol:TransferERC721BudgetApprovalV2",
        "label": "_executee",
        "offset": 0,
        "slot": "5",
        "type": "t_address"
      },
      {
        "astId": 43272,
        "contract": "contracts/v2/TransferERC721BudgetApprovalV2.sol:TransferERC721BudgetApprovalV2",
        "label": "_approversMapping",
        "offset": 0,
        "slot": "6",
        "type": "t_mapping(t_address,t_bool)"
      },
      {
        "astId": 43274,
        "contract": "contracts/v2/TransferERC721BudgetApprovalV2.sol:TransferERC721BudgetApprovalV2",
        "label": "_approverTeamId",
        "offset": 0,
        "slot": "7",
        "type": "t_uint256"
      },
      {
        "astId": 43276,
        "contract": "contracts/v2/TransferERC721BudgetApprovalV2.sol:TransferERC721BudgetApprovalV2",
        "label": "_minApproval",
        "offset": 0,
        "slot": "8",
        "type": "t_uint256"
      },
      {
        "astId": 43278,
        "contract": "contracts/v2/TransferERC721BudgetApprovalV2.sol:TransferERC721BudgetApprovalV2",
        "label": "_text",
        "offset": 0,
        "slot": "9",
        "type": "t_string_storage"
      },
      {
        "astId": 43280,
        "contract": "contracts/v2/TransferERC721BudgetApprovalV2.sol:TransferERC721BudgetApprovalV2",
        "label": "_transactionType",
        "offset": 0,
        "slot": "10",
        "type": "t_string_storage"
      },
      {
        "astId": 43282,
        "contract": "contracts/v2/TransferERC721BudgetApprovalV2.sol:TransferERC721BudgetApprovalV2",
        "label": "_allowUnlimitedUsageCount",
        "offset": 0,
        "slot": "11",
        "type": "t_bool"
      },
      {
        "astId": 43284,
        "contract": "contracts/v2/TransferERC721BudgetApprovalV2.sol:TransferERC721BudgetApprovalV2",
        "label": "_usageCount",
        "offset": 0,
        "slot": "12",
        "type": "t_uint256"
      },
      {
        "astId": 43286,
        "contract": "contracts/v2/TransferERC721BudgetApprovalV2.sol:TransferERC721BudgetApprovalV2",
        "label": "_startTime",
        "offset": 0,
        "slot": "13",
        "type": "t_uint256"
      },
      {
        "astId": 43288,
        "contract": "contracts/v2/TransferERC721BudgetApprovalV2.sol:TransferERC721BudgetApprovalV2",
        "label": "_endTime",
        "offset": 0,
        "slot": "14",
        "type": "t_uint256"
      },
      {
        "astId": 43290,
        "contract": "contracts/v2/TransferERC721BudgetApprovalV2.sol:TransferERC721BudgetApprovalV2",
        "label": "_team",
        "offset": 0,
        "slot": "15",
        "type": "t_address"
      },
      {
        "astId": 42142,
        "contract": "contracts/v2/TransferERC721BudgetApprovalV2.sol:TransferERC721BudgetApprovalV2",
        "label": "allowAllAddresses",
        "offset": 20,
        "slot": "15",
        "type": "t_bool"
      },
      {
        "astId": 42146,
        "contract": "contracts/v2/TransferERC721BudgetApprovalV2.sol:TransferERC721BudgetApprovalV2",
        "label": "addressesMapping",
        "offset": 0,
        "slot": "16",
        "type": "t_mapping(t_address,t_bool)"
      },
      {
        "astId": 42148,
        "contract": "contracts/v2/TransferERC721BudgetApprovalV2.sol:TransferERC721BudgetApprovalV2",
        "label": "allowAllTokens",
        "offset": 0,
        "slot": "17",
        "type": "t_bool"
      },
      {
        "astId": 42151,
        "contract": "contracts/v2/TransferERC721BudgetApprovalV2.sol:TransferERC721BudgetApprovalV2",
        "label": "tokens",
        "offset": 0,
        "slot": "18",
        "type": "t_array(t_address)dyn_storage"
      },
      {
        "astId": 42155,
        "contract": "contracts/v2/TransferERC721BudgetApprovalV2.sol:TransferERC721BudgetApprovalV2",
        "label": "tokensMapping",
        "offset": 0,
        "slot": "19",
        "type": "t_mapping(t_address,t_bool)"
      },
      {
        "astId": 42157,
        "contract": "contracts/v2/TransferERC721BudgetApprovalV2.sol:TransferERC721BudgetApprovalV2",
        "label": "allowAnyAmount",
        "offset": 0,
        "slot": "20",
        "type": "t_bool"
      },
      {
        "astId": 42159,
        "contract": "contracts/v2/TransferERC721BudgetApprovalV2.sol:TransferERC721BudgetApprovalV2",
        "label": "totalAmount",
        "offset": 0,
        "slot": "21",
        "type": "t_uint256"
      },
      {
        "astId": 42162,
        "contract": "contracts/v2/TransferERC721BudgetApprovalV2.sol:TransferERC721BudgetApprovalV2",
        "label": "toTeamIds",
        "offset": 0,
        "slot": "22",
        "type": "t_array(t_uint256)dyn_storage"
      },
      {
        "astId": 42166,
        "contract": "contracts/v2/TransferERC721BudgetApprovalV2.sol:TransferERC721BudgetApprovalV2",
        "label": "toTeamIdsMapping",
        "offset": 0,
        "slot": "23",
        "type": "t_mapping(t_uint256,t_bool)"
      }
    ],
    "types": {
      "t_address": {
        "encoding": "inplace",
        "label": "address",
        "numberOfBytes": "20"
      },
      "t_array(t_address)dyn_storage": {
        "base": "t_address",
        "encoding": "dynamic_array",
        "label": "address[]",
        "numberOfBytes": "32"
      },
      "t_array(t_bytes_storage)dyn_storage": {
        "base": "t_bytes_storage",
        "encoding": "dynamic_array",
        "label": "bytes[]",
        "numberOfBytes": "32"
      },
      "t_array(t_uint256)dyn_storage": {
        "base": "t_uint256",
        "encoding": "dynamic_array",
        "label": "uint256[]",
        "numberOfBytes": "32"
      },
      "t_bool": {
        "encoding": "inplace",
        "label": "bool",
        "numberOfBytes": "1"
      },
      "t_bytes_storage": {
        "encoding": "bytes",
        "label": "bytes",
        "numberOfBytes": "32"
      },
      "t_enum(Status)43182": {
        "encoding": "inplace",
        "label": "enum CommonBudgetApprovalV2.Status",
        "numberOfBytes": "1"
      },
      "t_mapping(t_address,t_bool)": {
        "encoding": "mapping",
        "key": "t_address",
        "label": "mapping(address => bool)",
        "numberOfBytes": "32",
        "value": "t_bool"
      },
      "t_mapping(t_uint256,t_bool)": {
        "encoding": "mapping",
        "key": "t_uint256",
        "label": "mapping(uint256 => bool)",
        "numberOfBytes": "32",
        "value": "t_bool"
      },
      "t_mapping(t_uint256,t_struct(Transaction)43201_storage)": {
        "encoding": "mapping",
        "key": "t_uint256",
        "label": "mapping(uint256 => struct CommonBudgetApprovalV2.Transaction)",
        "numberOfBytes": "32",
        "value": "t_struct(Transaction)43201_storage"
      },
      "t_string_storage": {
        "encoding": "bytes",
        "label": "string",
        "numberOfBytes": "32"
      },
      "t_struct(Counter)17310_storage": {
        "encoding": "inplace",
        "label": "struct Counters.Counter",
        "members": [
          {
            "astId": 17309,
            "contract": "contracts/v2/TransferERC721BudgetApprovalV2.sol:TransferERC721BudgetApprovalV2",
            "label": "_value",
            "offset": 0,
            "slot": "0",
            "type": "t_uint256"
          }
        ],
        "numberOfBytes": "32"
      },
      "t_struct(Transaction)43201_storage": {
        "encoding": "inplace",
        "label": "struct CommonBudgetApprovalV2.Transaction",
        "members": [
          {
            "astId": 43184,
            "contract": "contracts/v2/TransferERC721BudgetApprovalV2.sol:TransferERC721BudgetApprovalV2",
            "label": "id",
            "offset": 0,
            "slot": "0",
            "type": "t_uint256"
          },
          {
            "astId": 43187,
            "contract": "contracts/v2/TransferERC721BudgetApprovalV2.sol:TransferERC721BudgetApprovalV2",
            "label": "data",
            "offset": 0,
            "slot": "1",
            "type": "t_array(t_bytes_storage)dyn_storage"
          },
          {
            "astId": 43190,
            "contract": "contracts/v2/TransferERC721BudgetApprovalV2.sol:TransferERC721BudgetApprovalV2",
            "label": "status",
            "offset": 0,
            "slot": "2",
            "type": "t_enum(Status)43182"
          },
          {
            "astId": 43192,
            "contract": "contracts/v2/TransferERC721BudgetApprovalV2.sol:TransferERC721BudgetApprovalV2",
            "label": "deadline",
            "offset": 1,
            "slot": "2",
            "type": "t_uint32"
          },
          {
            "astId": 43194,
            "contract": "contracts/v2/TransferERC721BudgetApprovalV2.sol:TransferERC721BudgetApprovalV2",
            "label": "isExist",
            "offset": 5,
            "slot": "2",
            "type": "t_bool"
          },
          {
            "astId": 43196,
            "contract": "contracts/v2/TransferERC721BudgetApprovalV2.sol:TransferERC721BudgetApprovalV2",
            "label": "approvedCount",
            "offset": 0,
            "slot": "3",
            "type": "t_uint256"
          },
          {
            "astId": 43200,
            "contract": "contracts/v2/TransferERC721BudgetApprovalV2.sol:TransferERC721BudgetApprovalV2",
            "label": "approved",
            "offset": 0,
            "slot": "4",
            "type": "t_mapping(t_address,t_bool)"
          }
        ],
        "numberOfBytes": "160"
      },
      "t_uint256": {
        "encoding": "inplace",
        "label": "uint256",
        "numberOfBytes": "32"
      },
      "t_uint32": {
        "encoding": "inplace",
        "label": "uint32",
        "numberOfBytes": "4"
      },
      "t_uint8": {
        "encoding": "inplace",
        "label": "uint8",
        "numberOfBytes": "1"
      }
    }
  }
}