{
  "address": "0xee1e568FF940735F8960A6Ff1C19bca7F854b5cd",
  "abi": [
    {
      "inputs": [],
      "stateMutability": "nonpayable",
      "type": "constructor"
    },
    {
      "anonymous": false,
      "inputs": [
        {
          "indexed": false,
          "internalType": "address",
          "name": "target",
          "type": "address"
        }
      ],
      "name": "AllowAddress",
      "type": "event"
    },
    {
      "anonymous": false,
      "inputs": [
        {
          "indexed": false,
          "internalType": "uint256",
          "name": "amount",
          "type": "uint256"
        }
      ],
      "name": "AllowAmount",
      "type": "event"
    },
    {
      "anonymous": false,
      "inputs": [
        {
          "indexed": false,
          "internalType": "address",
          "name": "token",
          "type": "address"
        }
      ],
      "name": "AllowToken",
      "type": "event"
    },
    {
      "anonymous": false,
      "inputs": [
        {
          "indexed": true,
          "internalType": "uint256",
          "name": "id",
          "type": "uint256"
        },
        {
          "indexed": false,
          "internalType": "address",
          "name": "approver",
          "type": "address"
        },
        {
          "indexed": false,
          "internalType": "string",
          "name": "comment",
          "type": "string"
        }
      ],
      "name": "ApproveTransaction",
      "type": "event"
    },
    {
      "anonymous": false,
      "inputs": [
        {
          "indexed": true,
          "internalType": "uint256",
          "name": "id",
          "type": "uint256"
        },
        {
          "indexed": false,
          "internalType": "bytes[]",
          "name": "data",
          "type": "bytes[]"
        },
        {
          "indexed": false,
          "internalType": "uint256",
          "name": "deadline",
          "type": "uint256"
        },
        {
          "indexed": false,
          "internalType": "enum CommonBudgetApproval.Status",
          "name": "status",
          "type": "uint8"
        },
        {
          "indexed": false,
          "internalType": "string",
          "name": "comment",
          "type": "string"
        },
        {
          "indexed": false,
          "internalType": "address",
          "name": "creator",
          "type": "address"
        }
      ],
      "name": "CreateTransaction",
      "type": "event"
    },
    {
      "anonymous": false,
      "inputs": [
        {
          "indexed": true,
          "internalType": "uint256",
          "name": "id",
          "type": "uint256"
        },
        {
          "indexed": false,
          "internalType": "bytes[]",
          "name": "data",
          "type": "bytes[]"
        },
        {
          "indexed": false,
          "internalType": "address",
          "name": "_executor",
          "type": "address"
        }
      ],
      "name": "ExecuteTransaction",
      "type": "event"
    },
    {
      "anonymous": false,
      "inputs": [
        {
          "indexed": true,
          "internalType": "uint256",
          "name": "id",
          "type": "uint256"
        },
        {
          "indexed": true,
          "internalType": "address",
          "name": "executor",
          "type": "address"
        },
        {
          "indexed": true,
          "internalType": "address",
          "name": "toAddress",
          "type": "address"
        },
        {
          "indexed": false,
          "internalType": "address",
          "name": "token",
          "type": "address"
        },
        {
          "indexed": false,
          "internalType": "uint256",
          "name": "amount",
          "type": "uint256"
        }
      ],
      "name": "ExecuteTransferERC20Transaction",
      "type": "event"
    },
    {
      "anonymous": false,
      "inputs": [
        {
          "indexed": false,
          "internalType": "uint8",
          "name": "version",
          "type": "uint8"
        }
      ],
      "name": "Initialized",
      "type": "event"
    },
    {
      "anonymous": false,
      "inputs": [
        {
          "indexed": true,
          "internalType": "uint256",
          "name": "id",
          "type": "uint256"
        }
      ],
      "name": "RevokeTransaction",
      "type": "event"
    },
    {
      "anonymous": false,
      "inputs": [
        {
          "indexed": false,
          "internalType": "address",
          "name": "approver",
          "type": "address"
        }
      ],
      "name": "SetApprover",
      "type": "event"
    },
    {
      "inputs": [
        {
          "internalType": "address",
          "name": "",
          "type": "address"
        }
      ],
      "name": "addressesMapping",
      "outputs": [
        {
          "internalType": "bool",
          "name": "",
          "type": "bool"
        }
      ],
      "stateMutability": "view",
      "type": "function"
    },
    {
      "inputs": [],
      "name": "afterInitialized",
      "outputs": [],
      "stateMutability": "nonpayable",
      "type": "function"
    },
    {
      "inputs": [],
      "name": "allowAllAddresses",
      "outputs": [
        {
          "internalType": "bool",
          "name": "",
          "type": "bool"
        }
      ],
      "stateMutability": "view",
      "type": "function"
    },
    {
      "inputs": [],
      "name": "allowAllTokens",
      "outputs": [
        {
          "internalType": "bool",
          "name": "",
          "type": "bool"
        }
      ],
      "stateMutability": "view",
      "type": "function"
    },
    {
      "inputs": [],
      "name": "allowAnyAmount",
      "outputs": [
        {
          "internalType": "bool",
          "name": "",
          "type": "bool"
        }
      ],
      "stateMutability": "view",
      "type": "function"
    },
    {
      "inputs": [],
      "name": "allowUnlimitedUsageCount",
      "outputs": [
        {
          "internalType": "bool",
          "name": "",
          "type": "bool"
        }
      ],
      "stateMutability": "view",
      "type": "function"
    },
    {
      "inputs": [
        {
          "internalType": "uint256",
          "name": "id",
          "type": "uint256"
        },
        {
          "internalType": "string",
          "name": "comment",
          "type": "string"
        }
      ],
      "name": "approveTransaction",
      "outputs": [],
      "stateMutability": "nonpayable",
      "type": "function"
    },
    {
      "inputs": [],
      "name": "approverTeamId",
      "outputs": [
        {
          "internalType": "uint256",
          "name": "",
          "type": "uint256"
        }
      ],
      "stateMutability": "view",
      "type": "function"
    },
    {
      "inputs": [
        {
          "internalType": "address",
          "name": "eoa",
          "type": "address"
        }
      ],
      "name": "approversMapping",
      "outputs": [
        {
          "internalType": "bool",
          "name": "",
          "type": "bool"
        }
      ],
      "stateMutability": "view",
      "type": "function"
    },
    {
      "inputs": [
        {
          "internalType": "bytes[]",
          "name": "_data",
          "type": "bytes[]"
        },
        {
          "internalType": "uint32",
          "name": "_deadline",
          "type": "uint32"
        },
        {
          "internalType": "bool",
          "name": "_isExecute",
          "type": "bool"
        },
        {
          "internalType": "string",
          "name": "comment",
          "type": "string"
        }
      ],
      "name": "createTransaction",
      "outputs": [
        {
          "internalType": "uint256",
          "name": "",
          "type": "uint256"
        }
      ],
      "stateMutability": "nonpayable",
      "type": "function"
    },
    {
      "inputs": [],
      "name": "endTime",
      "outputs": [
        {
          "internalType": "uint256",
          "name": "",
          "type": "uint256"
        }
      ],
      "stateMutability": "view",
      "type": "function"
    },
    {
      "inputs": [],
      "name": "executeParams",
      "outputs": [
        {
          "internalType": "string[]",
          "name": "",
          "type": "string[]"
        }
      ],
      "stateMutability": "pure",
      "type": "function"
    },
    {
      "inputs": [
        {
          "internalType": "uint256",
          "name": "id",
          "type": "uint256"
        }
      ],
      "name": "executeTransaction",
      "outputs": [],
      "stateMutability": "nonpayable",
      "type": "function"
    },
    {
      "inputs": [],
      "name": "executee",
      "outputs": [
        {
          "internalType": "address",
          "name": "",
          "type": "address"
        }
      ],
      "stateMutability": "view",
      "type": "function"
    },
    {
      "inputs": [],
      "name": "executor",
      "outputs": [
        {
          "internalType": "address",
          "name": "",
          "type": "address"
        }
      ],
      "stateMutability": "view",
      "type": "function"
    },
    {
      "inputs": [],
      "name": "executorTeamId",
      "outputs": [
        {
          "internalType": "uint256",
          "name": "",
          "type": "uint256"
        }
      ],
      "stateMutability": "view",
      "type": "function"
    },
    {
      "inputs": [
        {
          "components": [
            {
              "internalType": "address",
              "name": "executor",
              "type": "address"
            },
            {
              "internalType": "uint256",
              "name": "executorTeamId",
              "type": "uint256"
            },
            {
              "internalType": "address[]",
              "name": "approvers",
              "type": "address[]"
            },
            {
              "internalType": "uint256",
              "name": "approverTeamId",
              "type": "uint256"
            },
            {
              "internalType": "uint256",
              "name": "minApproval",
              "type": "uint256"
            },
            {
              "internalType": "string",
              "name": "text",
              "type": "string"
            },
            {
              "internalType": "string",
              "name": "transactionType",
              "type": "string"
            },
            {
              "internalType": "uint256",
              "name": "startTime",
              "type": "uint256"
            },
            {
              "internalType": "uint256",
              "name": "endTime",
              "type": "uint256"
            },
            {
              "internalType": "bool",
              "name": "allowUnlimitedUsageCount",
              "type": "bool"
            },
            {
              "internalType": "uint256",
              "name": "usageCount",
              "type": "uint256"
            },
            {
              "internalType": "address",
              "name": "team",
              "type": "address"
            }
          ],
          "internalType": "struct CommonBudgetApproval.InitializeParams",
          "name": "params",
          "type": "tuple"
        },
        {
          "internalType": "bool",
          "name": "_allowAllAddresses",
          "type": "bool"
        },
        {
          "internalType": "address[]",
          "name": "_toAddresses",
          "type": "address[]"
        },
        {
          "internalType": "bool",
          "name": "_allowAllTokens",
          "type": "bool"
        },
        {
          "internalType": "address",
          "name": "_token",
          "type": "address"
        },
        {
          "internalType": "bool",
          "name": "_allowAnyAmount",
          "type": "bool"
        },
        {
          "internalType": "uint256",
          "name": "_totalAmount",
          "type": "uint256"
        }
      ],
      "name": "initialize",
      "outputs": [],
      "stateMutability": "nonpayable",
      "type": "function"
    },
    {
      "inputs": [],
      "name": "minApproval",
      "outputs": [
        {
          "internalType": "uint256",
          "name": "",
          "type": "uint256"
        }
      ],
      "stateMutability": "view",
      "type": "function"
    },
    {
      "inputs": [],
      "name": "name",
      "outputs": [
        {
          "internalType": "string",
          "name": "",
          "type": "string"
        }
      ],
      "stateMutability": "view",
      "type": "function"
    },
    {
      "inputs": [
        {
          "internalType": "uint256",
          "name": "id",
          "type": "uint256"
        }
      ],
      "name": "revokeTransaction",
      "outputs": [],
      "stateMutability": "nonpayable",
      "type": "function"
    },
    {
      "inputs": [],
      "name": "startTime",
      "outputs": [
        {
          "internalType": "uint256",
          "name": "",
          "type": "uint256"
        }
      ],
      "stateMutability": "view",
      "type": "function"
    },
    {
      "inputs": [],
      "name": "team",
      "outputs": [
        {
          "internalType": "address",
          "name": "",
          "type": "address"
        }
      ],
      "stateMutability": "view",
      "type": "function"
    },
    {
      "inputs": [],
      "name": "text",
      "outputs": [
        {
          "internalType": "string",
          "name": "",
          "type": "string"
        }
      ],
      "stateMutability": "view",
      "type": "function"
    },
    {
      "inputs": [],
      "name": "token",
      "outputs": [
        {
          "internalType": "address",
          "name": "",
          "type": "address"
        }
      ],
      "stateMutability": "view",
      "type": "function"
    },
    {
      "inputs": [],
      "name": "totalAmount",
      "outputs": [
        {
          "internalType": "uint256",
          "name": "",
          "type": "uint256"
        }
      ],
      "stateMutability": "view",
      "type": "function"
    },
    {
      "inputs": [],
      "name": "transactionType",
      "outputs": [
        {
          "internalType": "string",
          "name": "",
          "type": "string"
        }
      ],
      "stateMutability": "view",
      "type": "function"
    },
    {
      "inputs": [
        {
          "internalType": "uint256",
          "name": "",
          "type": "uint256"
        }
      ],
      "name": "transactions",
      "outputs": [
        {
          "internalType": "uint256",
          "name": "id",
          "type": "uint256"
        },
        {
          "internalType": "enum CommonBudgetApproval.Status",
          "name": "status",
          "type": "uint8"
        },
        {
          "internalType": "uint32",
          "name": "deadline",
          "type": "uint32"
        },
        {
          "internalType": "bool",
          "name": "isExist",
          "type": "bool"
        },
        {
          "internalType": "uint256",
          "name": "approvedCount",
          "type": "uint256"
        }
      ],
      "stateMutability": "view",
      "type": "function"
    },
    {
      "inputs": [],
      "name": "usageCount",
      "outputs": [
        {
          "internalType": "uint256",
          "name": "",
          "type": "uint256"
        }
      ],
      "stateMutability": "view",
      "type": "function"
    }
  ],
  "transactionHash": "0x13bfdf4c5d46d0f70b19795cc695c1416925ca9c73395f7801213323fbb17a51",
  "args": [],
  "numDeployments": 1,
  "solcInputHash": "2b7fb0d6b040852603fec936456a3f64",
  "bytecode": "0x60806040523480156200001157600080fd5b506200001c6200002c565b620000266200002c565b620000ee565b600054610100900460ff1615620000995760405162461bcd60e51b815260206004820152602760248201527f496e697469616c697a61626c653a20636f6e747261637420697320696e697469604482015266616c697a696e6760c81b606482015260840160405180910390fd5b60005460ff9081161015620000ec576000805460ff191660ff9081179091556040519081527f7f26b83ff96e1f2b6a682f133852f6798a09c465da95921460cefb38474024989060200160405180910390a15b565b61255180620000fe6000396000f3fe608060405234801561001057600080fd5b50600436106101c45760003560e01c806385015437116100f9578063cd753b6c11610097578063de755e2f11610071578063de755e2f146103f6578063ee22610b146103fe578063f5c0385214610411578063fc0c546a1461042257600080fd5b8063cd753b6c146103d9578063cf26fec6146103e6578063d96c9196146103ee57600080fd5b806397c85a61116100d357806397c85a61146103495780639ace38c21461035c578063b617b3ee146103bb578063c34c08e5146103c857600080fd5b806385015437146102ed57806385f2aef2146103015780638d1c5c291461032657600080fd5b80633332efea116101665780636bdebe5e116101405780636bdebe5e1461029e578063735631ad146102ca57806378e97925146102dd5780637cd47d93146102e557600080fd5b80633332efea1461026a57806350bd881f1461027f5780635ad325021461028757600080fd5b80631a39d8ef116101a25780631a39d8ef1461023c5780631f1bd692146102455780633197cbb61461024d57806331a7bdd91461025557600080fd5b806303ff90f6146101c957806306fdde03146101e057806314b893f914610229575b600080fd5b6008545b6040519081526020015b60405180910390f35b61021c6040518060400160405280601e81526020017f5472616e736665722045524332302042756467657420417070726f76616c000081525081565b6040516101d79190612249565b6101cd610237366004611cc5565b61043a565b6101cd60455481565b61021c610655565b600e546101cd565b61025d6106e7565b6040516101d791906121e7565b61027d610278366004611e9f565b6107e8565b005b600c546101cd565b600b5460ff165b60405190151581526020016101d7565b61028e6102ac366004611c5e565b6001600160a01b031660009081526006602052604090205460ff1690565b61027d6102d8366004611fbf565b610994565b600d546101cd565b61021c610b8a565b60445461028e90600160a81b900460ff1681565b600f546001600160a01b03165b6040516001600160a01b0390911681526020016101d7565b61028e610334366004611c5e565b60436020526000908152604090205460ff1681565b61027d610357366004611ff1565b610b99565b6103aa61036a366004611fbf565b600260208190526000918252604090912080549181015460039091015460ff8083169263ffffffff61010082041692650100000000009091049091169085565b6040516101d795949392919061229e565b60425461028e9060ff1681565b6003546001600160a01b031661030e565b60445461028e9060ff1681565b61027d610ec9565b6007546101cd565b6004546101cd565b61027d61040c366004611fbf565b610f30565b6005546001600160a01b031661030e565b60445461030e9061010090046001600160a01b031681565b600061044e6003546001600160a01b031690565b6001600160a01b0316336001600160a01b031614806105115750600061047c600f546001600160a01b031690565b6001600160a01b031662fdd58e3361049360045490565b6040516001600160e01b031960e085901b1681526001600160a01b039092166004830152602482015260440160206040518083038186803b1580156104d757600080fd5b505afa1580156104eb573d6000803e3d6000fd5b505050506040513d601f19601f8201168201806040525081019061050f9190611fd8565b115b6105365760405162461bcd60e51b815260040161052d9061225c565b60405180910390fd5b610544600180546001019055565b600061054f60015490565b600081815260026020908152604090912082815589519293509161057b916001840191908b0190611a21565b506002810180546501000000000065ffffffffff001990911661010063ffffffff8b160265ff00000000001916171790556008546105d557600082815260026020819052604090912001805460ff191660011790556105f0565b600082815260026020819052604090912001805460ff191690555b600281015460405183917f8a5186dbaf6f344b2837e11834be94edebb633f05034f422c6b1fe1595b4d0cc91610633918c918c9160ff16908b908b90339061218c565b60405180910390a2851561064a5761064a82610f30565b509695505050505050565b60606009805461066490612458565b80601f016020809104026020016040519081016040528092919081815260200182805461069090612458565b80156106dd5780601f106106b2576101008083540402835291602001916106dd565b820191906000526020600020905b8154815290600101906020018083116106c057829003601f168201915b5050505050905090565b6040805160038082526080820190925260609160009190816020015b60608152602001906001900390816107035790505090506040518060400160405280600d81526020016c30b2323932b9b9903a37b5b2b760991b81525081600081518110610753576107536124da565b60200260200101819052506040518060400160405280600a8152602001696164647265737320746f60b01b81525081600181518110610794576107946124da565b60200260200101819052506040518060400160405280600d81526020016c75696e743235362076616c756560981b815250816002815181106107d8576107d86124da565b6020908102919091010152919050565b600054610100900460ff16158080156108085750600054600160ff909116105b806108225750303b158015610822575060005460ff166001145b6108855760405162461bcd60e51b815260206004820152602e60248201527f496e697469616c697a61626c653a20636f6e747261637420697320616c72656160448201526d191e481a5b9a5d1a585b1a5e995960921b606482015260840161052d565b6000805460ff1916600117905580156108a8576000805461ff0019166101001790555b6108b1886113b8565b6042805460ff191688151517905560005b86518110156108ff576108ed8782815181106108e0576108e06124da565b6020026020010151611686565b806108f781612493565b9150506108c2565b50604480546001600160a81b031916861515610100600160a81b031916176101006001600160a01b038716021760ff60a81b1916600160a81b851515021790556045829055801561098a576000805461ff0019169055604051600181527f7f26b83ff96e1f2b6a682f133852f6798a09c465da95921460cefb38474024989060200160405180910390a15b5050505050505050565b6003546001600160a01b0316331480610a51575060006109bc600f546001600160a01b031690565b6001600160a01b031662fdd58e336109d360045490565b6040516001600160e01b031960e085901b1681526001600160a01b039092166004830152602482015260440160206040518083038186803b158015610a1757600080fd5b505afa158015610a2b573d6000803e3d6000fd5b505050506040513d601f19601f82011682018060405250810190610a4f9190611fd8565b115b610a6d5760405162461bcd60e51b815260040161052d9061225c565b80610a7760015490565b1015610abd5760405162461bcd60e51b8152602060048201526015602482015274125b9d985a5b1908151c985b9cd858dd1a5bdb9259605a1b604482015260640161052d565b60026000828152600260208190526040909120015460ff166003811115610ae657610ae66124c4565b1415610b425760405162461bcd60e51b815260206004820152602560248201527f5472616e73616374696f6e20686173206265656e20636f6d706c65746564206260448201526465666f726560d81b606482015260840161052d565b6000818152600260208190526040808320909101805460ff191660031790555182917f92a917be073b79ab50f9d997e9514a5d101e052ce04228014947e7883a7c034691a250565b6060600a805461066490612458565b3360009081526006602052604090205460ff1680610c5b57506000610bc6600f546001600160a01b031690565b6001600160a01b031662fdd58e33610bdd60075490565b6040516001600160e01b031960e085901b1681526001600160a01b039092166004830152602482015260440160206040518083038186803b158015610c2157600080fd5b505afa158015610c35573d6000803e3d6000fd5b505050506040513d601f19601f82011682018060405250810190610c599190611fd8565b115b610cb25760405162461bcd60e51b815260206004820152602260248201527f417070726f766572206e6f742077686974656c697374656420696e2062756467604482015261195d60f21b606482015260840161052d565b82610cbc60015490565b1015610d025760405162461bcd60e51b8152602060048201526015602482015274125b9d985a5b1908151c985b9cd858dd1a5bdb9259605a1b604482015260640161052d565b600083815260026020819052604082209081015460039091015460ff9091169190610d2e9060016123e2565b90506000826003811115610d4457610d446124c4565b1480610d6157506001826003811115610d5f57610d5f6124c4565b145b610dad5760405162461bcd60e51b815260206004820152601d60248201527f556e6578706563746564207472616e73616374696f6e20737461747573000000604482015260640161052d565b600085815260026020908152604080832033845260040190915290205460ff1615610e265760405162461bcd60e51b8152602060048201526024808201527f5472616e73616374696f6e20686173206265656e20617070726f766564206265604482015263666f726560e01b606482015260840161052d565b6000858152600260208181526040808420338552600481018352908420805460ff191660011790559288905252600301819055610e6260085490565b8110610e8657600085815260026020819052604090912001805460ff191660011790555b847f3399030f87676a97e30e211a48f9c46e2ff806d0b4cedf7100782f08c52902c9338686604051610eba9392919061213d565b60405180910390a25050505050565b6005546001600160a01b03163314610f2e5760405162461bcd60e51b815260206004820152602260248201527f4578656375746565206e6f742077686974656c697374656420696e2062756467604482015261195d60f21b606482015260840161052d565b565b806001806000838152600260208190526040909120015460ff166003811115610f5b57610f5b6124c4565b14610fa85760405162461bcd60e51b815260206004820152601a60248201527f5472616e73616374696f6e2073746174757320696e76616c6964000000000000604482015260640161052d565b600083815260026020819052604090912001548390610100900463ffffffff1642111561100d5760405162461bcd60e51b8152602060048201526013602482015272151c985b9cd858dd1a5bdb88195e1c1a5c9959606a1b604482015260640161052d565b600d5442101561105f5760405162461bcd60e51b815260206004820152601f60248201527f42756467657420757361676520706572696f64206e6f74207374617274656400604482015260640161052d565b600061106a600e5490565b905080156110c1578042106110c15760405162461bcd60e51b815260206004820152601d60248201527f42756467657420757361676520706572696f642068617320656e646564000000604482015260640161052d565b6003546001600160a01b031633148061117e575060006110e9600f546001600160a01b031690565b6001600160a01b031662fdd58e3361110060045490565b6040516001600160e01b031960e085901b1681526001600160a01b039092166004830152602482015260440160206040518083038186803b15801561114457600080fd5b505afa158015611158573d6000803e3d6000fd5b505050506040513d601f19601f8201168201806040525081019061117c9190611fd8565b115b61119a5760405162461bcd60e51b815260040161052d9061225c565b60006111a8600b5460ff1690565b905060006111b5600c5490565b9050600060026000898152602001908152602001600020600101805480602002602001604051908101604052809291908181526020016000905b8282101561129b57838290600052602060002001805461120e90612458565b80601f016020809104026020016040519081016040528092919081815260200182805461123a90612458565b80156112875780601f1061125c57610100808354040283529160200191611287565b820191906000526020600020905b81548152906001019060200180831161126a57829003601f168201915b5050505050815260200190600101906111ef565b50505050905060005b815181101561134d5783806112b95750600083115b6113055760405162461bcd60e51b815260206004820152601b60248201527f457863656564656420627564676574207573616765206c696d69740000000000604482015260640161052d565b83611318578261131481612441565b9350505b61133b8983838151811061132e5761132e6124da565b602002602001015161175b565b8061134581612493565b9150506112a4565b50600c82905560008881526002602081905260409091208101805460ff19166001830217905550877f9060adf413860c5ab6e376e0aa4269e49a13f0853edb1583fce8129d4c756d7982336040516113a6929190612162565b60405180910390a25050505050505050565b600054610100900460ff166114235760405162461bcd60e51b815260206004820152602b60248201527f496e697469616c697a61626c653a20636f6e7472616374206973206e6f74206960448201526a6e697469616c697a696e6760a81b606482015260840161052d565b600081606001351180611448575061143e60408201826122d4565b9050816080013511155b61148c5760405162461bcd60e51b8152602060048201526015602482015274125b9d985b1a5908185c1c1c9bdd995c881b1a5cdd605a1b604482015260640161052d565b600580546001600160a01b031916331790556114ab6020820182611c5e565b600380546001600160a01b0319166001600160a01b03929092169190911790556114d860a082018261231e565b6114e491600991611a7e565b506114f260c082018261231e565b6114fe91600a91611a7e565b50608081013560085560e0810135600d55610100810135600e5561152a61014082016101208301611e0d565b600b805460ff1916911515919091179055610140810135600c5561155661018082016101608301611c5e565b600f80546001600160a01b0319166001600160a01b03929092169190911790556020810135600455606081013560075560005b61159660408301836122d4565b9050811015611682576001600660006115b260408601866122d4565b858181106115c2576115c26124da565b90506020020160208101906115d79190611c5e565b6001600160a01b0316815260208101919091526040908101600020805460ff1916921515929092179091557f4664777dbfbcb27de0f602e1da5d5a259992cd7edf5b29192929c96e8fd50def90611630908401846122d4565b83818110611640576116406124da565b90506020020160208101906116559190611c5e565b6040516001600160a01b03909116815260200160405180910390a18061167a81612493565b915050611589565b5050565b6001600160a01b03811660009081526043602052604090205460ff16156117015760405162461bcd60e51b815260206004820152602960248201527f4475706c696361746564206164647265737320696e20746172676574206164646044820152681c995cdcc81b1a5cdd60ba1b606482015260840161052d565b6001600160a01b038116600081815260436020908152604091829020805460ff1916600117905590519182527ff11283a265d7a5f95fbc149dc65464f1f5be0151aac387fd76a938e1e5584604910160405180910390a150565b6000806000838060200190518101906117749190611c82565b604080516001600160a01b038481166024830152604480830185905283518084038201815260649093019093526020820180516001600160e01b031663a9059cbb60e01b179052915460455460055496995094975092955093600160a81b90920460ff169291166001600160a01b031663d3abc28b878560006040518463ffffffff1660e01b815260040161180b93929190612109565b600060405180830381600087803b15801561182557600080fd5b505af1158015611839573d6000803e3d6000fd5b505050506040513d6000823e601f3d908101601f191682016040526118619190810190611e28565b5060425460ff168061188b57506001600160a01b03851660009081526043602052604090205460ff165b6118e35760405162461bcd60e51b815260206004820152602360248201527f526563697069656e74206e6f742077686974656c697374656420696e2062756460448201526219d95d60ea1b606482015260840161052d565b60445460ff168061190657506044546001600160a01b0387811661010090920416145b6119525760405162461bcd60e51b815260206004820152601f60248201527f546f6b656e206e6f742077686974656c697374656420696e2062756467657400604482015260640161052d565b818061195e5750808411155b6119ba5760405162461bcd60e51b815260206004820152602760248201527f4578636565646564206d617820627564676574207472616e7366657261626c6560448201526608185b5bdd5b9d60ca1b606482015260840161052d565b816119cd576119c984826123fa565b6045555b604080516001600160a01b0388811682526020820187905287169133918b917fba95307af85e729544b4065b2ee24073a62816d057cf50acb33dcf24d3d4c5b6910160405180910390a45050505050505050565b828054828255906000526020600020908101928215611a6e579160200282015b82811115611a6e5782518051611a5e918491602090910190611afe565b5091602001919060010190611a41565b50611a7a929150611b72565b5090565b828054611a8a90612458565b90600052602060002090601f016020900481019282611aac5760008555611af2565b82601f10611ac55782800160ff19823516178555611af2565b82800160010185558215611af2579182015b82811115611af2578235825591602001919060010190611ad7565b50611a7a929150611b8f565b828054611b0a90612458565b90600052602060002090601f016020900481019282611b2c5760008555611af2565b82601f10611b4557805160ff1916838001178555611af2565b82800160010185558215611af2579182015b82811115611af2578251825591602001919060010190611b57565b80821115611a7a576000611b868282611ba4565b50600101611b72565b5b80821115611a7a5760008155600101611b90565b508054611bb090612458565b6000825580601f10611bc0575050565b601f016020900490600052602060002090810190611bde9190611b8f565b50565b8035611bec81612506565b919050565b80358015158114611bec57600080fd5b60008083601f840112611c1357600080fd5b50813567ffffffffffffffff811115611c2b57600080fd5b602083019150836020828501011115611c4357600080fd5b9250929050565b803563ffffffff81168114611bec57600080fd5b600060208284031215611c7057600080fd5b8135611c7b81612506565b9392505050565b600080600060608486031215611c9757600080fd5b8351611ca281612506565b6020850151909350611cb381612506565b80925050604084015190509250925092565b600080600080600060808688031215611cdd57600080fd5b67ffffffffffffffff8087351115611cf457600080fd5b8635870188601f820112611d0757600080fd5b611d19611d148235612396565b612365565b8082358252602082019150602083018b6020853560051b8601011115611d3e57600080fd5b60005b8435811015611db9578582351115611d5857600080fd5b813585018d603f820112611d6b57600080fd5b6020810135611d7c611d14826123ba565b8181528f6040838501011115611d9157600080fd5b8160408401602083013760006020928201830152865294850194929092019150600101611d41565b5050809850505050611dcd60208801611c4a565b9450611ddb60408801611bf1565b9350606087013581811115611def57600080fd5b611dfb89828a01611c01565b979a9699509497509395949350505050565b600060208284031215611e1f57600080fd5b611c7b82611bf1565b600060208284031215611e3a57600080fd5b815167ffffffffffffffff811115611e5157600080fd5b8201601f81018413611e6257600080fd5b8051611e70611d14826123ba565b818152856020838501011115611e8557600080fd5b611e96826020830160208601612411565b95945050505050565b600080600080600080600060e0888a031215611eba57600080fd5b873567ffffffffffffffff80821115611ed257600080fd5b90890190610180828c031215611ee757600080fd5b909750602090611ef88a8301611bf1565b975060408a013581811115611f0c57600080fd5b8a019050601f81018b13611f1f57600080fd5b8035611f2d611d1482612396565b8082825284820191508484018e868560051b8701011115611f4d57600080fd5b600094505b83851015611f79578035611f6581612506565b835260019490940193918501918501611f52565b508099505050505050611f8e60608901611bf1565b9350611f9c60808901611be1565b9250611faa60a08901611bf1565b915060c0880135905092959891949750929550565b600060208284031215611fd157600080fd5b5035919050565b600060208284031215611fea57600080fd5b5051919050565b60008060006040848603121561200657600080fd5b83359250602084013567ffffffffffffffff81111561202457600080fd5b61203086828701611c01565b9497909650939450505050565b600081518084526020808501808196508360051b8101915082860160005b85811015612085578284038952612073848351612092565b9885019893509084019060010161205b565b5091979650505050505050565b600081518084526120aa816020860160208601612411565b601f01601f19169290920160200192915050565b600481106120dc57634e487b7160e01b600052602160045260246000fd5b9052565b81835281816020850137506000828201602090810191909152601f909101601f19169091010190565b6001600160a01b038416815260606020820181905260009061212d90830185612092565b9050826040830152949350505050565b6001600160a01b0384168152604060208201819052600090611e9690830184866120e0565b604081526000612175604083018561203d565b905060018060a01b03831660208301529392505050565b60a08152600061219f60a083018961203d565b63ffffffff881660208401526121b860408401886120be565b82810360608401526121cb8186886120e0565b91505060018060a01b0383166080830152979650505050505050565b6000602080830181845280855180835260408601915060408160051b870101925083870160005b8281101561223c57603f1988860301845261222a858351612092565b9450928501929085019060010161220e565b5092979650505050505050565b602081526000611c7b6020830184612092565b60208082526022908201527f4578656375746f72206e6f742077686974656c697374656420696e2062756467604082015261195d60f21b606082015260800190565b85815260a081016122b260208301876120be565b63ffffffff949094166040820152911515606083015260809091015292915050565b6000808335601e198436030181126122eb57600080fd5b83018035915067ffffffffffffffff82111561230657600080fd5b6020019150600581901b3603821315611c4357600080fd5b6000808335601e1984360301811261233557600080fd5b83018035915067ffffffffffffffff82111561235057600080fd5b602001915036819003821315611c4357600080fd5b604051601f8201601f1916810167ffffffffffffffff8111828210171561238e5761238e6124f0565b604052919050565b600067ffffffffffffffff8211156123b0576123b06124f0565b5060051b60200190565b600067ffffffffffffffff8211156123d4576123d46124f0565b50601f01601f191660200190565b600082198211156123f5576123f56124ae565b500190565b60008282101561240c5761240c6124ae565b500390565b60005b8381101561242c578181015183820152602001612414565b8381111561243b576000848401525b50505050565b600081612450576124506124ae565b506000190190565b600181811c9082168061246c57607f821691505b6020821081141561248d57634e487b7160e01b600052602260045260246000fd5b50919050565b60006000198214156124a7576124a76124ae565b5060010190565b634e487b7160e01b600052601160045260246000fd5b634e487b7160e01b600052602160045260246000fd5b634e487b7160e01b600052603260045260246000fd5b634e487b7160e01b600052604160045260246000fd5b6001600160a01b0381168114611bde57600080fdfea26469706673582212206540b9868fa8d2e4d431a160608ded7bb5c3c4bee96b5e513cecdeb0a854531164736f6c63430008070033",
  "devdoc": {
    "kind": "dev",
    "methods": {
      "constructor": {
        "custom:oz-upgrades-unsafe-allow": "constructor"
      }
    },
    "version": 1
  },
  "userdoc": {
    "kind": "user",
    "methods": {},
    "version": 1
  },
  "storageLayout": {
    "storage": [
      {
        "astId": 3247,
        "contract": "contracts/TransferERC20BudgetApproval.sol:TransferERC20BudgetApproval",
        "label": "_initialized",
        "offset": 0,
        "slot": "0",
        "type": "t_uint8"
      },
      {
        "astId": 3250,
        "contract": "contracts/TransferERC20BudgetApproval.sol:TransferERC20BudgetApproval",
        "label": "_initializing",
        "offset": 1,
        "slot": "0",
        "type": "t_bool"
      },
      {
        "astId": 27645,
        "contract": "contracts/TransferERC20BudgetApproval.sol:TransferERC20BudgetApproval",
        "label": "_transactionIds",
        "offset": 0,
        "slot": "1",
        "type": "t_struct(Counter)17310_storage"
      },
      {
        "astId": 27650,
        "contract": "contracts/TransferERC20BudgetApproval.sol:TransferERC20BudgetApproval",
        "label": "transactions",
        "offset": 0,
        "slot": "2",
        "type": "t_mapping(t_uint256,t_struct(Transaction)27589_storage)"
      },
      {
        "astId": 27652,
        "contract": "contracts/TransferERC20BudgetApproval.sol:TransferERC20BudgetApproval",
        "label": "_executor",
        "offset": 0,
        "slot": "3",
        "type": "t_address"
      },
      {
        "astId": 27654,
        "contract": "contracts/TransferERC20BudgetApproval.sol:TransferERC20BudgetApproval",
        "label": "_executorTeamId",
        "offset": 0,
        "slot": "4",
        "type": "t_uint256"
      },
      {
        "astId": 27656,
        "contract": "contracts/TransferERC20BudgetApproval.sol:TransferERC20BudgetApproval",
        "label": "_executee",
        "offset": 0,
        "slot": "5",
        "type": "t_address"
      },
      {
        "astId": 27660,
        "contract": "contracts/TransferERC20BudgetApproval.sol:TransferERC20BudgetApproval",
        "label": "_approversMapping",
        "offset": 0,
        "slot": "6",
        "type": "t_mapping(t_address,t_bool)"
      },
      {
        "astId": 27662,
        "contract": "contracts/TransferERC20BudgetApproval.sol:TransferERC20BudgetApproval",
        "label": "_approverTeamId",
        "offset": 0,
        "slot": "7",
        "type": "t_uint256"
      },
      {
        "astId": 27664,
        "contract": "contracts/TransferERC20BudgetApproval.sol:TransferERC20BudgetApproval",
        "label": "_minApproval",
        "offset": 0,
        "slot": "8",
        "type": "t_uint256"
      },
      {
        "astId": 27666,
        "contract": "contracts/TransferERC20BudgetApproval.sol:TransferERC20BudgetApproval",
        "label": "_text",
        "offset": 0,
        "slot": "9",
        "type": "t_string_storage"
      },
      {
        "astId": 27668,
        "contract": "contracts/TransferERC20BudgetApproval.sol:TransferERC20BudgetApproval",
        "label": "_transactionType",
        "offset": 0,
        "slot": "10",
        "type": "t_string_storage"
      },
      {
        "astId": 27670,
        "contract": "contracts/TransferERC20BudgetApproval.sol:TransferERC20BudgetApproval",
        "label": "_allowUnlimitedUsageCount",
        "offset": 0,
        "slot": "11",
        "type": "t_bool"
      },
      {
        "astId": 27672,
        "contract": "contracts/TransferERC20BudgetApproval.sol:TransferERC20BudgetApproval",
        "label": "_usageCount",
        "offset": 0,
        "slot": "12",
        "type": "t_uint256"
      },
      {
        "astId": 27674,
        "contract": "contracts/TransferERC20BudgetApproval.sol:TransferERC20BudgetApproval",
        "label": "_startTime",
        "offset": 0,
        "slot": "13",
        "type": "t_uint256"
      },
      {
        "astId": 27676,
        "contract": "contracts/TransferERC20BudgetApproval.sol:TransferERC20BudgetApproval",
        "label": "_endTime",
        "offset": 0,
        "slot": "14",
        "type": "t_uint256"
      },
      {
        "astId": 27678,
        "contract": "contracts/TransferERC20BudgetApproval.sol:TransferERC20BudgetApproval",
        "label": "_team",
        "offset": 0,
        "slot": "15",
        "type": "t_address"
      },
      {
        "astId": 28422,
        "contract": "contracts/TransferERC20BudgetApproval.sol:TransferERC20BudgetApproval",
        "label": "__gap",
        "offset": 0,
        "slot": "16",
        "type": "t_array(t_uint256)50_storage"
      },
      {
        "astId": 25431,
        "contract": "contracts/TransferERC20BudgetApproval.sol:TransferERC20BudgetApproval",
        "label": "allowAllAddresses",
        "offset": 0,
        "slot": "66",
        "type": "t_bool"
      },
      {
        "astId": 25435,
        "contract": "contracts/TransferERC20BudgetApproval.sol:TransferERC20BudgetApproval",
        "label": "addressesMapping",
        "offset": 0,
        "slot": "67",
        "type": "t_mapping(t_address,t_bool)"
      },
      {
        "astId": 25437,
        "contract": "contracts/TransferERC20BudgetApproval.sol:TransferERC20BudgetApproval",
        "label": "allowAllTokens",
        "offset": 0,
        "slot": "68",
        "type": "t_bool"
      },
      {
        "astId": 25439,
        "contract": "contracts/TransferERC20BudgetApproval.sol:TransferERC20BudgetApproval",
        "label": "token",
        "offset": 1,
        "slot": "68",
        "type": "t_address"
      },
      {
        "astId": 25441,
        "contract": "contracts/TransferERC20BudgetApproval.sol:TransferERC20BudgetApproval",
        "label": "allowAnyAmount",
        "offset": 21,
        "slot": "68",
        "type": "t_bool"
      },
      {
        "astId": 25443,
        "contract": "contracts/TransferERC20BudgetApproval.sol:TransferERC20BudgetApproval",
        "label": "totalAmount",
        "offset": 0,
        "slot": "69",
        "type": "t_uint256"
      }
    ],
    "types": {
      "t_address": {
        "encoding": "inplace",
        "label": "address",
        "numberOfBytes": "20"
      },
      "t_array(t_bytes_storage)dyn_storage": {
        "base": "t_bytes_storage",
        "encoding": "dynamic_array",
        "label": "bytes[]",
        "numberOfBytes": "32"
      },
      "t_array(t_uint256)50_storage": {
        "base": "t_uint256",
        "encoding": "inplace",
        "label": "uint256[50]",
        "numberOfBytes": "1600"
      },
      "t_bool": {
        "encoding": "inplace",
        "label": "bool",
        "numberOfBytes": "1"
      },
      "t_bytes_storage": {
        "encoding": "bytes",
        "label": "bytes",
        "numberOfBytes": "32"
      },
      "t_enum(Status)27570": {
        "encoding": "inplace",
        "label": "enum CommonBudgetApproval.Status",
        "numberOfBytes": "1"
      },
      "t_mapping(t_address,t_bool)": {
        "encoding": "mapping",
        "key": "t_address",
        "label": "mapping(address => bool)",
        "numberOfBytes": "32",
        "value": "t_bool"
      },
      "t_mapping(t_uint256,t_struct(Transaction)27589_storage)": {
        "encoding": "mapping",
        "key": "t_uint256",
        "label": "mapping(uint256 => struct CommonBudgetApproval.Transaction)",
        "numberOfBytes": "32",
        "value": "t_struct(Transaction)27589_storage"
      },
      "t_string_storage": {
        "encoding": "bytes",
        "label": "string",
        "numberOfBytes": "32"
      },
      "t_struct(Counter)17310_storage": {
        "encoding": "inplace",
        "label": "struct Counters.Counter",
        "members": [
          {
            "astId": 17309,
            "contract": "contracts/TransferERC20BudgetApproval.sol:TransferERC20BudgetApproval",
            "label": "_value",
            "offset": 0,
            "slot": "0",
            "type": "t_uint256"
          }
        ],
        "numberOfBytes": "32"
      },
      "t_struct(Transaction)27589_storage": {
        "encoding": "inplace",
        "label": "struct CommonBudgetApproval.Transaction",
        "members": [
          {
            "astId": 27572,
            "contract": "contracts/TransferERC20BudgetApproval.sol:TransferERC20BudgetApproval",
            "label": "id",
            "offset": 0,
            "slot": "0",
            "type": "t_uint256"
          },
          {
            "astId": 27575,
            "contract": "contracts/TransferERC20BudgetApproval.sol:TransferERC20BudgetApproval",
            "label": "data",
            "offset": 0,
            "slot": "1",
            "type": "t_array(t_bytes_storage)dyn_storage"
          },
          {
            "astId": 27578,
            "contract": "contracts/TransferERC20BudgetApproval.sol:TransferERC20BudgetApproval",
            "label": "status",
            "offset": 0,
            "slot": "2",
            "type": "t_enum(Status)27570"
          },
          {
            "astId": 27580,
            "contract": "contracts/TransferERC20BudgetApproval.sol:TransferERC20BudgetApproval",
            "label": "deadline",
            "offset": 1,
            "slot": "2",
            "type": "t_uint32"
          },
          {
            "astId": 27582,
            "contract": "contracts/TransferERC20BudgetApproval.sol:TransferERC20BudgetApproval",
            "label": "isExist",
            "offset": 5,
            "slot": "2",
            "type": "t_bool"
          },
          {
            "astId": 27584,
            "contract": "contracts/TransferERC20BudgetApproval.sol:TransferERC20BudgetApproval",
            "label": "approvedCount",
            "offset": 0,
            "slot": "3",
            "type": "t_uint256"
          },
          {
            "astId": 27588,
            "contract": "contracts/TransferERC20BudgetApproval.sol:TransferERC20BudgetApproval",
            "label": "approved",
            "offset": 0,
            "slot": "4",
            "type": "t_mapping(t_address,t_bool)"
          }
        ],
        "numberOfBytes": "160"
      },
      "t_uint256": {
        "encoding": "inplace",
        "label": "uint256",
        "numberOfBytes": "32"
      },
      "t_uint32": {
        "encoding": "inplace",
        "label": "uint32",
        "numberOfBytes": "4"
      },
      "t_uint8": {
        "encoding": "inplace",
        "label": "uint8",
        "numberOfBytes": "1"
      }
    }
  }
}