{
  "address": "0x85E0Ce43AA4912043cD62399FF9a1e749142aFD5",
  "abi": [
    {
      "inputs": [],
      "stateMutability": "nonpayable",
      "type": "constructor"
    },
    {
      "inputs": [],
      "name": "ActionDuplicated",
      "type": "error"
    },
    {
      "inputs": [],
      "name": "BudgetHasEnded",
      "type": "error"
    },
    {
      "inputs": [],
      "name": "BudgetNotStarted",
      "type": "error"
    },
    {
      "inputs": [],
      "name": "BudgetUsageExceeded",
      "type": "error"
    },
    {
      "inputs": [],
      "name": "InvalidApproverList",
      "type": "error"
    },
    {
      "inputs": [],
      "name": "InvalidExecuteeTeam",
      "type": "error"
    },
    {
      "inputs": [
        {
          "internalType": "uint256",
          "name": "id",
          "type": "uint256"
        }
      ],
      "name": "InvalidTransactionId",
      "type": "error"
    },
    {
      "inputs": [
        {
          "internalType": "uint256",
          "name": "id",
          "type": "uint256"
        },
        {
          "internalType": "enum CommonBudgetApproval.Status",
          "name": "status",
          "type": "uint8"
        }
      ],
      "name": "InvalidTransactionStatus",
      "type": "error"
    },
    {
      "inputs": [
        {
          "internalType": "address",
          "name": "asset",
          "type": "address"
        },
        {
          "internalType": "address",
          "name": "base",
          "type": "address"
        }
      ],
      "name": "PairNotSupport",
      "type": "error"
    },
    {
      "inputs": [
        {
          "internalType": "uint256",
          "name": "id",
          "type": "uint256"
        }
      ],
      "name": "TransactionExpired",
      "type": "error"
    },
    {
      "inputs": [],
      "name": "UnauthorizedApprover",
      "type": "error"
    },
    {
      "inputs": [],
      "name": "UnauthorizedExecutee",
      "type": "error"
    },
    {
      "inputs": [],
      "name": "UnauthorizedExecutor",
      "type": "error"
    },
    {
      "anonymous": false,
      "inputs": [
        {
          "indexed": false,
          "internalType": "address",
          "name": "target",
          "type": "address"
        }
      ],
      "name": "AllowAddress",
      "type": "event"
    },
    {
      "anonymous": false,
      "inputs": [
        {
          "indexed": false,
          "internalType": "uint256",
          "name": "amount",
          "type": "uint256"
        }
      ],
      "name": "AllowAmount",
      "type": "event"
    },
    {
      "anonymous": false,
      "inputs": [
        {
          "indexed": false,
          "internalType": "address",
          "name": "token",
          "type": "address"
        }
      ],
      "name": "AllowToToken",
      "type": "event"
    },
    {
      "anonymous": false,
      "inputs": [
        {
          "indexed": false,
          "internalType": "address",
          "name": "token",
          "type": "address"
        }
      ],
      "name": "AllowToken",
      "type": "event"
    },
    {
      "anonymous": false,
      "inputs": [
        {
          "indexed": true,
          "internalType": "uint256",
          "name": "id",
          "type": "uint256"
        },
        {
          "indexed": false,
          "internalType": "address",
          "name": "approver",
          "type": "address"
        },
        {
          "indexed": false,
          "internalType": "string",
          "name": "comment",
          "type": "string"
        }
      ],
      "name": "ApproveTransaction",
      "type": "event"
    },
    {
      "anonymous": false,
      "inputs": [
        {
          "indexed": true,
          "internalType": "uint256",
          "name": "id",
          "type": "uint256"
        },
        {
          "indexed": false,
          "internalType": "bytes[]",
          "name": "data",
          "type": "bytes[]"
        },
        {
          "indexed": false,
          "internalType": "uint256",
          "name": "deadline",
          "type": "uint256"
        },
        {
          "indexed": false,
          "internalType": "enum CommonBudgetApproval.Status",
          "name": "status",
          "type": "uint8"
        },
        {
          "indexed": false,
          "internalType": "string",
          "name": "comment",
          "type": "string"
        },
        {
          "indexed": false,
          "internalType": "address",
          "name": "creator",
          "type": "address"
        }
      ],
      "name": "CreateTransaction",
      "type": "event"
    },
    {
      "anonymous": false,
      "inputs": [
        {
          "indexed": true,
          "internalType": "uint256",
          "name": "id",
          "type": "uint256"
        },
        {
          "indexed": false,
          "internalType": "bytes[]",
          "name": "data",
          "type": "bytes[]"
        },
        {
          "indexed": false,
          "internalType": "address",
          "name": "_executor",
          "type": "address"
        }
      ],
      "name": "ExecuteTransaction",
      "type": "event"
    },
    {
      "anonymous": false,
      "inputs": [
        {
          "indexed": true,
          "internalType": "uint256",
          "name": "id",
          "type": "uint256"
        },
        {
          "indexed": true,
          "internalType": "address",
          "name": "executor",
          "type": "address"
        },
        {
          "indexed": true,
          "internalType": "address",
          "name": "toAddress",
          "type": "address"
        },
        {
          "indexed": false,
          "internalType": "address",
          "name": "token",
          "type": "address"
        },
        {
          "indexed": false,
          "internalType": "uint256",
          "name": "amount",
          "type": "uint256"
        }
      ],
      "name": "ExecuteUniswapInTransaction",
      "type": "event"
    },
    {
      "anonymous": false,
      "inputs": [
        {
          "indexed": true,
          "internalType": "uint256",
          "name": "id",
          "type": "uint256"
        },
        {
          "indexed": true,
          "internalType": "address",
          "name": "executor",
          "type": "address"
        },
        {
          "indexed": true,
          "internalType": "address",
          "name": "toAddress",
          "type": "address"
        },
        {
          "indexed": false,
          "internalType": "address",
          "name": "token",
          "type": "address"
        },
        {
          "indexed": false,
          "internalType": "uint256",
          "name": "amount",
          "type": "uint256"
        }
      ],
      "name": "ExecuteUniswapOutTransaction",
      "type": "event"
    },
    {
      "anonymous": false,
      "inputs": [
        {
          "indexed": true,
          "internalType": "uint256",
          "name": "id",
          "type": "uint256"
        },
        {
          "indexed": true,
          "internalType": "address",
          "name": "executor",
          "type": "address"
        },
        {
          "indexed": true,
          "internalType": "address",
          "name": "toAddress",
          "type": "address"
        },
        {
          "indexed": false,
          "internalType": "address",
          "name": "tokenIn",
          "type": "address"
        },
        {
          "indexed": false,
          "internalType": "address",
          "name": "tokenOut",
          "type": "address"
        },
        {
          "indexed": false,
          "internalType": "uint256",
          "name": "amount",
          "type": "uint256"
        }
      ],
      "name": "ExecuteWETH9Transaction",
      "type": "event"
    },
    {
      "anonymous": false,
      "inputs": [
        {
          "indexed": false,
          "internalType": "uint8",
          "name": "version",
          "type": "uint8"
        }
      ],
      "name": "Initialized",
      "type": "event"
    },
    {
      "anonymous": false,
      "inputs": [
        {
          "indexed": true,
          "internalType": "uint256",
          "name": "id",
          "type": "uint256"
        }
      ],
      "name": "RevokeTransaction",
      "type": "event"
    },
    {
      "anonymous": false,
      "inputs": [
        {
          "indexed": false,
          "internalType": "address",
          "name": "approver",
          "type": "address"
        }
      ],
      "name": "SetApprover",
      "type": "event"
    },
    {
      "inputs": [],
      "name": "RECIPIENT_EXECUTEE",
      "outputs": [
        {
          "internalType": "address",
          "name": "",
          "type": "address"
        }
      ],
      "stateMutability": "view",
      "type": "function"
    },
    {
      "inputs": [],
      "name": "RECIPIENT_UNISWAP_ROUTER",
      "outputs": [
        {
          "internalType": "address",
          "name": "",
          "type": "address"
        }
      ],
      "stateMutability": "view",
      "type": "function"
    },
    {
      "inputs": [],
      "name": "WETH9",
      "outputs": [
        {
          "internalType": "address",
          "name": "",
          "type": "address"
        }
      ],
      "stateMutability": "pure",
      "type": "function"
    },
    {
      "inputs": [],
      "name": "accountingSystem",
      "outputs": [
        {
          "internalType": "address",
          "name": "",
          "type": "address"
        }
      ],
      "stateMutability": "view",
      "type": "function"
    },
    {
      "inputs": [],
      "name": "afterInitialized",
      "outputs": [],
      "stateMutability": "nonpayable",
      "type": "function"
    },
    {
      "inputs": [],
      "name": "allowAllToTokens",
      "outputs": [
        {
          "internalType": "bool",
          "name": "",
          "type": "bool"
        }
      ],
      "stateMutability": "view",
      "type": "function"
    },
    {
      "inputs": [],
      "name": "allowAnyAmount",
      "outputs": [
        {
          "internalType": "bool",
          "name": "",
          "type": "bool"
        }
      ],
      "stateMutability": "view",
      "type": "function"
    },
    {
      "inputs": [],
      "name": "allowUnlimitedUsageCount",
      "outputs": [
        {
          "internalType": "bool",
          "name": "",
          "type": "bool"
        }
      ],
      "stateMutability": "view",
      "type": "function"
    },
    {
      "inputs": [],
      "name": "amountPercentage",
      "outputs": [
        {
          "internalType": "uint8",
          "name": "",
          "type": "uint8"
        }
      ],
      "stateMutability": "view",
      "type": "function"
    },
    {
      "inputs": [
        {
          "internalType": "uint256",
          "name": "id",
          "type": "uint256"
        },
        {
          "internalType": "string",
          "name": "comment",
          "type": "string"
        }
      ],
      "name": "approveTransaction",
      "outputs": [],
      "stateMutability": "nonpayable",
      "type": "function"
    },
    {
      "inputs": [],
      "name": "approverTeamId",
      "outputs": [
        {
          "internalType": "uint256",
          "name": "",
          "type": "uint256"
        }
      ],
      "stateMutability": "view",
      "type": "function"
    },
    {
      "inputs": [
        {
          "internalType": "address",
          "name": "eoa",
          "type": "address"
        }
      ],
      "name": "approversMapping",
      "outputs": [
        {
          "internalType": "bool",
          "name": "",
          "type": "bool"
        }
      ],
      "stateMutability": "view",
      "type": "function"
    },
    {
      "inputs": [
        {
          "internalType": "address",
          "name": "asset",
          "type": "address"
        },
        {
          "internalType": "uint256",
          "name": "amount",
          "type": "uint256"
        }
      ],
      "name": "assetBaseCurrencyPrice",
      "outputs": [
        {
          "internalType": "uint256",
          "name": "",
          "type": "uint256"
        }
      ],
      "stateMutability": "view",
      "type": "function"
    },
    {
      "inputs": [
        {
          "internalType": "address",
          "name": "asset",
          "type": "address"
        },
        {
          "internalType": "address",
          "name": "base",
          "type": "address"
        },
        {
          "internalType": "uint256",
          "name": "amount",
          "type": "uint256"
        }
      ],
      "name": "assetPrice",
      "outputs": [
        {
          "internalType": "uint256",
          "name": "",
          "type": "uint256"
        }
      ],
      "stateMutability": "view",
      "type": "function"
    },
    {
      "inputs": [],
      "name": "baseCurrency",
      "outputs": [
        {
          "internalType": "address",
          "name": "",
          "type": "address"
        }
      ],
      "stateMutability": "view",
      "type": "function"
    },
    {
      "inputs": [],
      "name": "baseCurrencyDecimals",
      "outputs": [
        {
          "internalType": "uint8",
          "name": "",
          "type": "uint8"
        }
      ],
      "stateMutability": "view",
      "type": "function"
    },
    {
      "inputs": [
        {
          "internalType": "address",
          "name": "asset",
          "type": "address"
        }
      ],
      "name": "canResolvePrice",
      "outputs": [
        {
          "internalType": "bool",
          "name": "",
          "type": "bool"
        }
      ],
      "stateMutability": "view",
      "type": "function"
    },
    {
      "inputs": [
        {
          "internalType": "bytes[]",
          "name": "_data",
          "type": "bytes[]"
        },
        {
          "internalType": "uint32",
          "name": "_deadline",
          "type": "uint32"
        },
        {
          "internalType": "bool",
          "name": "_isExecute",
          "type": "bool"
        },
        {
          "internalType": "string",
          "name": "comment",
          "type": "string"
        }
      ],
      "name": "createTransaction",
      "outputs": [
        {
          "internalType": "uint256",
          "name": "",
          "type": "uint256"
        }
      ],
      "stateMutability": "payable",
      "type": "function"
    },
    {
      "inputs": [
        {
          "internalType": "bytes",
          "name": "rawData",
          "type": "bytes"
        },
        {
          "internalType": "uint256",
          "name": "value",
          "type": "uint256"
        },
        {
          "internalType": "bytes",
          "name": "response",
          "type": "bytes"
        }
      ],
      "name": "decodeUniswapMulticall",
      "outputs": [
        {
          "components": [
            {
              "internalType": "address",
              "name": "recipient",
              "type": "address"
            },
            {
              "internalType": "address",
              "name": "tokenIn",
              "type": "address"
            },
            {
              "internalType": "address",
              "name": "tokenOut",
              "type": "address"
            },
            {
              "internalType": "uint256",
              "name": "amountIn",
              "type": "uint256"
            },
            {
              "internalType": "uint256",
              "name": "amountOut",
              "type": "uint256"
            },
            {
              "internalType": "enum UniswapSwapper.MulticallResultAttribute",
              "name": "resultType",
              "type": "uint8"
            }
          ],
          "internalType": "struct UniswapSwapper.MulticallData[]",
          "name": "multicalData",
          "type": "tuple[]"
        }
      ],
      "stateMutability": "view",
      "type": "function"
    },
    {
      "inputs": [
        {
          "internalType": "bytes",
          "name": "data",
          "type": "bytes"
        },
        {
          "internalType": "uint256",
          "name": "value",
          "type": "uint256"
        }
      ],
      "name": "decodeWETH9Call",
      "outputs": [
        {
          "internalType": "address",
          "name": "tokenIn",
          "type": "address"
        },
        {
          "internalType": "address",
          "name": "tokenOut",
          "type": "address"
        },
        {
          "internalType": "uint256",
          "name": "amount",
          "type": "uint256"
        }
      ],
      "stateMutability": "pure",
      "type": "function"
    },
    {
      "inputs": [],
      "name": "endTime",
      "outputs": [
        {
          "internalType": "uint256",
          "name": "",
          "type": "uint256"
        }
      ],
      "stateMutability": "view",
      "type": "function"
    },
    {
      "inputs": [
        {
          "components": [
            {
              "internalType": "bytes",
              "name": "path",
              "type": "bytes"
            },
            {
              "internalType": "address",
              "name": "recipient",
              "type": "address"
            },
            {
              "internalType": "uint256",
              "name": "amountIn",
              "type": "uint256"
            },
            {
              "internalType": "uint256",
              "name": "amountOutMinimum",
              "type": "uint256"
            }
          ],
          "internalType": "struct IV3SwapRouter.ExactInputParams",
          "name": "params",
          "type": "tuple"
        }
      ],
      "name": "exactInput",
      "outputs": [
        {
          "components": [
            {
              "internalType": "address",
              "name": "recipient",
              "type": "address"
            },
            {
              "internalType": "address",
              "name": "tokenIn",
              "type": "address"
            },
            {
              "internalType": "address",
              "name": "tokenOut",
              "type": "address"
            },
            {
              "internalType": "uint256",
              "name": "amountIn",
              "type": "uint256"
            },
            {
              "internalType": "uint256",
              "name": "amountOut",
              "type": "uint256"
            },
            {
              "internalType": "enum UniswapSwapper.MulticallResultAttribute",
              "name": "resultType",
              "type": "uint8"
            }
          ],
          "internalType": "struct UniswapSwapper.MulticallData",
          "name": "",
          "type": "tuple"
        }
      ],
      "stateMutability": "pure",
      "type": "function"
    },
    {
      "inputs": [
        {
          "components": [
            {
              "internalType": "address",
              "name": "tokenIn",
              "type": "address"
            },
            {
              "internalType": "address",
              "name": "tokenOut",
              "type": "address"
            },
            {
              "internalType": "uint24",
              "name": "fee",
              "type": "uint24"
            },
            {
              "internalType": "address",
              "name": "recipient",
              "type": "address"
            },
            {
              "internalType": "uint256",
              "name": "amountIn",
              "type": "uint256"
            },
            {
              "internalType": "uint256",
              "name": "amountOutMinimum",
              "type": "uint256"
            },
            {
              "internalType": "uint160",
              "name": "sqrtPriceLimitX96",
              "type": "uint160"
            }
          ],
          "internalType": "struct IV3SwapRouter.ExactInputSingleParams",
          "name": "params",
          "type": "tuple"
        }
      ],
      "name": "exactInputSingle",
      "outputs": [
        {
          "components": [
            {
              "internalType": "address",
              "name": "recipient",
              "type": "address"
            },
            {
              "internalType": "address",
              "name": "tokenIn",
              "type": "address"
            },
            {
              "internalType": "address",
              "name": "tokenOut",
              "type": "address"
            },
            {
              "internalType": "uint256",
              "name": "amountIn",
              "type": "uint256"
            },
            {
              "internalType": "uint256",
              "name": "amountOut",
              "type": "uint256"
            },
            {
              "internalType": "enum UniswapSwapper.MulticallResultAttribute",
              "name": "resultType",
              "type": "uint8"
            }
          ],
          "internalType": "struct UniswapSwapper.MulticallData",
          "name": "",
          "type": "tuple"
        }
      ],
      "stateMutability": "pure",
      "type": "function"
    },
    {
      "inputs": [
        {
          "components": [
            {
              "internalType": "bytes",
              "name": "path",
              "type": "bytes"
            },
            {
              "internalType": "address",
              "name": "recipient",
              "type": "address"
            },
            {
              "internalType": "uint256",
              "name": "amountOut",
              "type": "uint256"
            },
            {
              "internalType": "uint256",
              "name": "amountInMaximum",
              "type": "uint256"
            }
          ],
          "internalType": "struct IV3SwapRouter.ExactOutputParams",
          "name": "params",
          "type": "tuple"
        }
      ],
      "name": "exactOutput",
      "outputs": [
        {
          "components": [
            {
              "internalType": "address",
              "name": "recipient",
              "type": "address"
            },
            {
              "internalType": "address",
              "name": "tokenIn",
              "type": "address"
            },
            {
              "internalType": "address",
              "name": "tokenOut",
              "type": "address"
            },
            {
              "internalType": "uint256",
              "name": "amountIn",
              "type": "uint256"
            },
            {
              "internalType": "uint256",
              "name": "amountOut",
              "type": "uint256"
            },
            {
              "internalType": "enum UniswapSwapper.MulticallResultAttribute",
              "name": "resultType",
              "type": "uint8"
            }
          ],
          "internalType": "struct UniswapSwapper.MulticallData",
          "name": "",
          "type": "tuple"
        }
      ],
      "stateMutability": "pure",
      "type": "function"
    },
    {
      "inputs": [
        {
          "components": [
            {
              "internalType": "address",
              "name": "tokenIn",
              "type": "address"
            },
            {
              "internalType": "address",
              "name": "tokenOut",
              "type": "address"
            },
            {
              "internalType": "uint24",
              "name": "fee",
              "type": "uint24"
            },
            {
              "internalType": "address",
              "name": "recipient",
              "type": "address"
            },
            {
              "internalType": "uint256",
              "name": "amountOut",
              "type": "uint256"
            },
            {
              "internalType": "uint256",
              "name": "amountInMaximum",
              "type": "uint256"
            },
            {
              "internalType": "uint160",
              "name": "sqrtPriceLimitX96",
              "type": "uint160"
            }
          ],
          "internalType": "struct IV3SwapRouter.ExactOutputSingleParams",
          "name": "params",
          "type": "tuple"
        }
      ],
      "name": "exactOutputSingle",
      "outputs": [
        {
          "components": [
            {
              "internalType": "address",
              "name": "recipient",
              "type": "address"
            },
            {
              "internalType": "address",
              "name": "tokenIn",
              "type": "address"
            },
            {
              "internalType": "address",
              "name": "tokenOut",
              "type": "address"
            },
            {
              "internalType": "uint256",
              "name": "amountIn",
              "type": "uint256"
            },
            {
              "internalType": "uint256",
              "name": "amountOut",
              "type": "uint256"
            },
            {
              "internalType": "enum UniswapSwapper.MulticallResultAttribute",
              "name": "resultType",
              "type": "uint8"
            }
          ],
          "internalType": "struct UniswapSwapper.MulticallData",
          "name": "",
          "type": "tuple"
        }
      ],
      "stateMutability": "pure",
      "type": "function"
    },
    {
      "inputs": [],
      "name": "executeParams",
      "outputs": [
        {
          "internalType": "string[]",
          "name": "",
          "type": "string[]"
        }
      ],
      "stateMutability": "pure",
      "type": "function"
    },
    {
      "inputs": [
        {
          "internalType": "uint256",
          "name": "id",
          "type": "uint256"
        }
      ],
      "name": "executeTransaction",
      "outputs": [],
      "stateMutability": "payable",
      "type": "function"
    },
    {
      "inputs": [],
      "name": "executee",
      "outputs": [
        {
          "internalType": "address",
          "name": "",
          "type": "address"
        }
      ],
      "stateMutability": "view",
      "type": "function"
    },
    {
      "inputs": [],
      "name": "executor",
      "outputs": [
        {
          "internalType": "address",
          "name": "",
          "type": "address"
        }
      ],
      "stateMutability": "view",
      "type": "function"
    },
    {
      "inputs": [],
      "name": "executorTeamId",
      "outputs": [
        {
          "internalType": "uint256",
          "name": "",
          "type": "uint256"
        }
      ],
      "stateMutability": "view",
      "type": "function"
    },
    {
      "inputs": [
        {
          "internalType": "uint256",
          "name": "",
          "type": "uint256"
        }
      ],
      "name": "fromTokens",
      "outputs": [
        {
          "internalType": "address",
          "name": "",
          "type": "address"
        }
      ],
      "stateMutability": "view",
      "type": "function"
    },
    {
      "inputs": [
        {
          "internalType": "address",
          "name": "",
          "type": "address"
        }
      ],
      "name": "fromTokensMapping",
      "outputs": [
        {
          "internalType": "bool",
          "name": "",
          "type": "bool"
        }
      ],
      "stateMutability": "view",
      "type": "function"
    },
    {
      "inputs": [
        {
          "components": [
            {
              "internalType": "address",
              "name": "executor",
              "type": "address"
            },
            {
              "internalType": "uint256",
              "name": "executorTeamId",
              "type": "uint256"
            },
            {
              "internalType": "address[]",
              "name": "approvers",
              "type": "address[]"
            },
            {
              "internalType": "uint256",
              "name": "approverTeamId",
              "type": "uint256"
            },
            {
              "internalType": "uint256",
              "name": "minApproval",
              "type": "uint256"
            },
            {
              "internalType": "string",
              "name": "text",
              "type": "string"
            },
            {
              "internalType": "string",
              "name": "transactionType",
              "type": "string"
            },
            {
              "internalType": "uint256",
              "name": "startTime",
              "type": "uint256"
            },
            {
              "internalType": "uint256",
              "name": "endTime",
              "type": "uint256"
            },
            {
              "internalType": "bool",
              "name": "allowUnlimitedUsageCount",
              "type": "bool"
            },
            {
              "internalType": "uint256",
              "name": "usageCount",
              "type": "uint256"
            }
          ],
          "internalType": "struct CommonBudgetApproval.InitializeParams",
          "name": "params",
          "type": "tuple"
        },
        {
          "internalType": "address[]",
          "name": "_fromTokens",
          "type": "address[]"
        },
        {
          "internalType": "bool",
          "name": "_allowAllToTokens",
          "type": "bool"
        },
        {
          "internalType": "address[]",
          "name": "_toTokens",
          "type": "address[]"
        },
        {
          "internalType": "bool",
          "name": "_allowAnyAmount",
          "type": "bool"
        },
        {
          "internalType": "uint256",
          "name": "_totalAmount",
          "type": "uint256"
        },
        {
          "internalType": "uint8",
          "name": "_amountPercentage",
          "type": "uint8"
        },
        {
          "internalType": "address",
          "name": "__baseCurrency",
          "type": "address"
        }
      ],
      "name": "initialize",
      "outputs": [],
      "stateMutability": "nonpayable",
      "type": "function"
    },
    {
      "inputs": [],
      "name": "minApproval",
      "outputs": [
        {
          "internalType": "uint256",
          "name": "",
          "type": "uint256"
        }
      ],
      "stateMutability": "view",
      "type": "function"
    },
    {
      "inputs": [],
      "name": "name",
      "outputs": [
        {
          "internalType": "string",
          "name": "",
          "type": "string"
        }
      ],
      "stateMutability": "view",
      "type": "function"
    },
    {
      "inputs": [],
      "name": "refundETH",
      "outputs": [
        {
          "components": [
            {
              "internalType": "address",
              "name": "recipient",
              "type": "address"
            },
            {
              "internalType": "address",
              "name": "tokenIn",
              "type": "address"
            },
            {
              "internalType": "address",
              "name": "tokenOut",
              "type": "address"
            },
            {
              "internalType": "uint256",
              "name": "amountIn",
              "type": "uint256"
            },
            {
              "internalType": "uint256",
              "name": "amountOut",
              "type": "uint256"
            },
            {
              "internalType": "enum UniswapSwapper.MulticallResultAttribute",
              "name": "resultType",
              "type": "uint8"
            }
          ],
          "internalType": "struct UniswapSwapper.MulticallData",
          "name": "",
          "type": "tuple"
        }
      ],
      "stateMutability": "pure",
      "type": "function"
    },
    {
      "inputs": [
        {
          "internalType": "uint256",
          "name": "id",
          "type": "uint256"
        }
      ],
      "name": "revokeTransaction",
      "outputs": [],
      "stateMutability": "nonpayable",
      "type": "function"
    },
    {
      "inputs": [
        {
          "internalType": "address",
          "name": "",
          "type": "address"
        },
        {
          "internalType": "uint256",
          "name": "",
          "type": "uint256"
        },
        {
          "internalType": "uint256",
          "name": "",
          "type": "uint256"
        },
        {
          "internalType": "uint8",
          "name": "",
          "type": "uint8"
        },
        {
          "internalType": "bytes32",
          "name": "",
          "type": "bytes32"
        },
        {
          "internalType": "bytes32",
          "name": "",
          "type": "bytes32"
        }
      ],
      "name": "selfPermit",
      "outputs": [
        {
          "components": [
            {
              "internalType": "address",
              "name": "recipient",
              "type": "address"
            },
            {
              "internalType": "address",
              "name": "tokenIn",
              "type": "address"
            },
            {
              "internalType": "address",
              "name": "tokenOut",
              "type": "address"
            },
            {
              "internalType": "uint256",
              "name": "amountIn",
              "type": "uint256"
            },
            {
              "internalType": "uint256",
              "name": "amountOut",
              "type": "uint256"
            },
            {
              "internalType": "enum UniswapSwapper.MulticallResultAttribute",
              "name": "resultType",
              "type": "uint8"
            }
          ],
          "internalType": "struct UniswapSwapper.MulticallData",
          "name": "",
          "type": "tuple"
        }
      ],
      "stateMutability": "pure",
      "type": "function"
    },
    {
      "inputs": [],
      "name": "startTime",
      "outputs": [
        {
          "internalType": "uint256",
          "name": "",
          "type": "uint256"
        }
      ],
      "stateMutability": "view",
      "type": "function"
    },
    {
      "inputs": [
        {
          "internalType": "uint256",
          "name": "amountIn",
          "type": "uint256"
        },
        {
          "internalType": "uint256",
          "name": "amountOutMin",
          "type": "uint256"
        },
        {
          "internalType": "address[]",
          "name": "path",
          "type": "address[]"
        },
        {
          "internalType": "address",
          "name": "recipient",
          "type": "address"
        }
      ],
      "name": "swapExactTokensForTokens",
      "outputs": [
        {
          "components": [
            {
              "internalType": "address",
              "name": "recipient",
              "type": "address"
            },
            {
              "internalType": "address",
              "name": "tokenIn",
              "type": "address"
            },
            {
              "internalType": "address",
              "name": "tokenOut",
              "type": "address"
            },
            {
              "internalType": "uint256",
              "name": "amountIn",
              "type": "uint256"
            },
            {
              "internalType": "uint256",
              "name": "amountOut",
              "type": "uint256"
            },
            {
              "internalType": "enum UniswapSwapper.MulticallResultAttribute",
              "name": "resultType",
              "type": "uint8"
            }
          ],
          "internalType": "struct UniswapSwapper.MulticallData",
          "name": "",
          "type": "tuple"
        }
      ],
      "stateMutability": "pure",
      "type": "function"
    },
    {
      "inputs": [
        {
          "internalType": "uint256",
          "name": "amountOut",
          "type": "uint256"
        },
        {
          "internalType": "uint256",
          "name": "amountInMax",
          "type": "uint256"
        },
        {
          "internalType": "address[]",
          "name": "path",
          "type": "address[]"
        },
        {
          "internalType": "address",
          "name": "recipient",
          "type": "address"
        }
      ],
      "name": "swapTokensForExactTokens",
      "outputs": [
        {
          "components": [
            {
              "internalType": "address",
              "name": "recipient",
              "type": "address"
            },
            {
              "internalType": "address",
              "name": "tokenIn",
              "type": "address"
            },
            {
              "internalType": "address",
              "name": "tokenOut",
              "type": "address"
            },
            {
              "internalType": "uint256",
              "name": "amountIn",
              "type": "uint256"
            },
            {
              "internalType": "uint256",
              "name": "amountOut",
              "type": "uint256"
            },
            {
              "internalType": "enum UniswapSwapper.MulticallResultAttribute",
              "name": "resultType",
              "type": "uint8"
            }
          ],
          "internalType": "struct UniswapSwapper.MulticallData",
          "name": "",
          "type": "tuple"
        }
      ],
      "stateMutability": "pure",
      "type": "function"
    },
    {
      "inputs": [
        {
          "internalType": "address",
          "name": "token",
          "type": "address"
        },
        {
          "internalType": "uint256",
          "name": "amountMinimum",
          "type": "uint256"
        },
        {
          "internalType": "address",
          "name": "recipient",
          "type": "address"
        }
      ],
      "name": "sweepToken",
      "outputs": [
        {
          "components": [
            {
              "internalType": "address",
              "name": "recipient",
              "type": "address"
            },
            {
              "internalType": "address",
              "name": "tokenIn",
              "type": "address"
            },
            {
              "internalType": "address",
              "name": "tokenOut",
              "type": "address"
            },
            {
              "internalType": "uint256",
              "name": "amountIn",
              "type": "uint256"
            },
            {
              "internalType": "uint256",
              "name": "amountOut",
              "type": "uint256"
            },
            {
              "internalType": "enum UniswapSwapper.MulticallResultAttribute",
              "name": "resultType",
              "type": "uint8"
            }
          ],
          "internalType": "struct UniswapSwapper.MulticallData",
          "name": "",
          "type": "tuple"
        }
      ],
      "stateMutability": "pure",
      "type": "function"
    },
    {
      "inputs": [],
      "name": "team",
      "outputs": [
        {
          "internalType": "address",
          "name": "",
          "type": "address"
        }
      ],
      "stateMutability": "view",
      "type": "function"
    },
    {
      "inputs": [],
      "name": "text",
      "outputs": [
        {
          "internalType": "string",
          "name": "",
          "type": "string"
        }
      ],
      "stateMutability": "view",
      "type": "function"
    },
    {
      "inputs": [
        {
          "internalType": "address",
          "name": "",
          "type": "address"
        }
      ],
      "name": "toTokensMapping",
      "outputs": [
        {
          "internalType": "bool",
          "name": "",
          "type": "bool"
        }
      ],
      "stateMutability": "view",
      "type": "function"
    },
    {
      "inputs": [],
      "name": "totalAmount",
      "outputs": [
        {
          "internalType": "uint256",
          "name": "",
          "type": "uint256"
        }
      ],
      "stateMutability": "view",
      "type": "function"
    },
    {
      "inputs": [],
      "name": "transactionType",
      "outputs": [
        {
          "internalType": "string",
          "name": "",
          "type": "string"
        }
      ],
      "stateMutability": "view",
      "type": "function"
    },
    {
      "inputs": [
        {
          "internalType": "uint256",
          "name": "",
          "type": "uint256"
        }
      ],
      "name": "transactions",
      "outputs": [
        {
          "internalType": "uint256",
          "name": "id",
          "type": "uint256"
        },
        {
          "internalType": "enum CommonBudgetApproval.Status",
          "name": "status",
          "type": "uint8"
        },
        {
          "internalType": "uint32",
          "name": "deadline",
          "type": "uint32"
        },
        {
          "internalType": "bool",
          "name": "isExist",
          "type": "bool"
        },
        {
          "internalType": "uint256",
          "name": "approvedCount",
          "type": "uint256"
        }
      ],
      "stateMutability": "view",
      "type": "function"
    },
    {
      "inputs": [
        {
          "internalType": "uint256",
          "name": "amountMinimum",
          "type": "uint256"
        },
        {
          "internalType": "address",
          "name": "recipient",
          "type": "address"
        }
      ],
      "name": "unwrapWETH9",
      "outputs": [
        {
          "components": [
            {
              "internalType": "address",
              "name": "recipient",
              "type": "address"
            },
            {
              "internalType": "address",
              "name": "tokenIn",
              "type": "address"
            },
            {
              "internalType": "address",
              "name": "tokenOut",
              "type": "address"
            },
            {
              "internalType": "uint256",
              "name": "amountIn",
              "type": "uint256"
            },
            {
              "internalType": "uint256",
              "name": "amountOut",
              "type": "uint256"
            },
            {
              "internalType": "enum UniswapSwapper.MulticallResultAttribute",
              "name": "resultType",
              "type": "uint8"
            }
          ],
          "internalType": "struct UniswapSwapper.MulticallData",
          "name": "",
          "type": "tuple"
        }
      ],
      "stateMutability": "pure",
      "type": "function"
    },
    {
      "inputs": [],
      "name": "usageCount",
      "outputs": [
        {
          "internalType": "uint256",
          "name": "",
          "type": "uint256"
        }
      ],
      "stateMutability": "view",
      "type": "function"
    }
  ],
  "transactionHash": "0x5ece7960c4663a3ac8cac6c55c4bdd4ef10b3dcc6a94668db3fe2341df67b280",
  "args": [],
  "numDeployments": 1,
  "solcInputHash": "ecd5a89e78df3a5d92193bbcf40e804c",
  "bytecode": "0x60806040523480156200001157600080fd5b506200001c62000036565b6200002662000036565b6200003062000036565b620000f8565b600054610100900460ff1615620000a35760405162461bcd60e51b815260206004820152602760248201527f496e697469616c697a61626c653a20636f6e747261637420697320696e697469604482015266616c697a696e6760c81b606482015260840160405180910390fd5b60005460ff9081161015620000f6576000805460ff191660ff9081179091556040519081527f7f26b83ff96e1f2b6a682f133852f6798a09c465da95921460cefb38474024989060200160405180910390a15b565b614ce880620001086000396000f3fe6080604052600436106102c95760003560e01c806378e9792511610175578063bc9c5e90116100dc578063e019c23c11610095578063ee22610b1161006f578063ee22610b146108de578063f3995c67146108f1578063f5c0385214610911578063f961f79a1461092f57600080fd5b8063e019c23c14610889578063e99dd444146108a9578063ec3ca875146108be57600080fd5b8063bc9c5e90146107ec578063c34c08e51461080c578063cf26fec61461082a578063d96c91961461083f578063de755e2f14610854578063df2ab5bb1461086957600080fd5b806397c85a611161012e57806397c85a61146106c65780639ace38c2146106e6578063a63cee6d14610752578063a7d69bd214610782578063b18b32fb146107b2578063b858183f146107cc57600080fd5b806378e979251461062f5780637a5a0d13146106445780637cd47d9314610664578063850154371461067957806385f2aef21461069357806392a85fde146106a857600080fd5b8063472b43f3116102345780635ad32502116101ed57806363d727dc116101c757806363d727dc146105985780636bdebe5e146105bf578063735631ad146105f8578063765b60321461061a57600080fd5b80635ad325021461054b578063608e09121461056357806360d8bb221461057857600080fd5b8063472b43f31461046c57806349404b7c1461048c5780634aa4a4fc146104ac5780634c41e0e3146104e75780635023b4df1461051657806350bd881f1461053657600080fd5b80631a39d8ef116102865780631a39d8ef146103bd5780631f1bd692146103d35780633197cbb6146103e857806331a7bdd9146103fd5780633814d2511461041f57806342712a671461044c57600080fd5b806303ff90f6146102ce57806304e45aaf146102f257806306fdde031461031f57806309b813461461037557806312210e8a1461039557806314b893f9146103aa575b600080fd5b3480156102da57600080fd5b506008545b6040519081526020015b60405180910390f35b3480156102fe57600080fd5b5061031261030d36600461442e565b61095e565b6040516102e991906149c4565b34801561032b57600080fd5b506103686040518060400160405280601e81526020017f556e6973776170204c69717569642042756467657420417070726f76616c000081525081565b6040516102e991906149b1565b34801561038157600080fd5b506103126103903660046143fa565b6109ed565b3480156103a157600080fd5b50610312610ac7565b6102df6103b83660046140f4565b610b04565b3480156103c957600080fd5b506102df60455481565b3480156103df57600080fd5b50610368610c4b565b3480156103f457600080fd5b50600e546102df565b34801561040957600080fd5b50610412610cdd565b6040516102e991906148aa565b34801561042b57600080fd5b5061043f61043a36600461438e565b610ddb565b6040516102e9919061490c565b34801561045857600080fd5b506103126104673660046145ed565b611144565b34801561047857600080fd5b506103126104873660046145ed565b6111f8565b34801561049857600080fd5b506103126104a7366004614572565b6112a4565b3480156104b857600080fd5b5073b4fbf271143f4fbf7b91a5ded31805e42b2208d65b6040516001600160a01b0390911681526020016102e9565b3480156104f357600080fd5b5060465461050690610100900460ff1681565b60405190151581526020016102e9565b34801561052257600080fd5b5061031261053136600461442e565b611324565b34801561054257600080fd5b50600c546102df565b34801561055757600080fd5b50600b5460ff16610506565b34801561056f57600080fd5b506104cf6113af565b34801561058457600080fd5b506102df610593366004613ff6565b611438565b3480156105a457600080fd5b506105ad6115ce565b60405160ff90911681526020016102e9565b3480156105cb57600080fd5b506105066105da366004613edf565b6001600160a01b031660009081526006602052604090205460ff1690565b34801561060457600080fd5b50610618610613366004614540565b61168b565b005b34801561062657600080fd5b506104cf600181565b34801561063b57600080fd5b50600d546102df565b34801561065057600080fd5b506104cf61065f366004614540565b611773565b34801561067057600080fd5b5061036861179d565b34801561068557600080fd5b506044546105069060ff1681565b34801561069f57600080fd5b506104cf6117ac565b3480156106b457600080fd5b506041546001600160a01b03166104cf565b3480156106d257600080fd5b506106186106e13660046145a2565b6117f8565b3480156106f257600080fd5b50610741610701366004614540565b600260208190526000918252604090912080549181015460039091015460ff8083169263ffffffff61010082041692650100000000009091049091169085565b6040516102e99594939291906149e6565b34801561075e57600080fd5b5061050661076d366004613edf565b60436020526000908152604090205460ff1681565b34801561078e57600080fd5b5061050661079d366004613edf565b60476020526000908152604090205460ff1681565b3480156107be57600080fd5b506046546105ad9060ff1681565b3480156107d857600080fd5b506103126107e73660046143fa565b6119af565b3480156107f857600080fd5b50610506610807366004613edf565b611a43565b34801561081857600080fd5b506003546001600160a01b03166104cf565b34801561083657600080fd5b50610618611aec565b34801561084b57600080fd5b506007546102df565b34801561086057600080fd5b506004546102df565b34801561087557600080fd5b50610312610884366004614022565b611c7c565b34801561089557600080fd5b506102df6108a4366004613f72565b611ce9565b3480156108b557600080fd5b506104cf600281565b3480156108ca57600080fd5b506106186108d936600461444a565b611de1565b6106186108ec366004614540565b61203d565b3480156108fd57600080fd5b5061031261090c366004614064565b61232a565b34801561091d57600080fd5b506005546001600160a01b03166104cf565b34801561093b57600080fd5b5061094f61094a36600461434a565b61236d565b6040516102e9939291906147a8565b6109666139a8565b6040805160c08101909152806109826080850160608601613edf565b6001600160a01b0316815260209081019061099f90850185613edf565b6001600160a01b031681526020018360200160208101906109c09190613edf565b6001600160a01b031681526080840135602082015260a0840135604082015260600160025b905292915050565b6109f56139a8565b6040518060c00160405280836020016020810190610a139190613edf565b6001600160a01b03168152602001610a6d6000610a308680614a65565b8080601f01602080910402602001604051908101604052809392919081815260200183838082843760009201919091525092939250506124a39050565b6001600160a01b03168152602001610a9f6014610a8a8680614a65565b610a95929150614b7e565b610a308680614a65565b6001600160a01b031681526060808501356020830152604080860135908301520160016109e5565b610acf6139a8565b6040805160c08101825260008082526020820181905291810182905260608101829052608081018290529060a0820152919050565b6000610b0f33612508565b610b2c576040516341c8302160e11b815260040160405180910390fd5b610b3a600180546001019055565b6000610b4560015490565b6000818152600260209081526040909120828155895192935091610b71916001840191908b01906139db565b506002810180546501000000000065ffffffffff001990911661010063ffffffff8b160265ff0000000000191617179055600854610bcb57600082815260026020819052604090912001805460ff19166001179055610be6565b600082815260026020819052604090912001805460ff191690555b600281015460405183917f8a5186dbaf6f344b2837e11834be94edebb633f05034f422c6b1fe1595b4d0cc91610c29918c918c9160ff16908b908b90339061484f565b60405180910390a28515610c4057610c408261203d565b509695505050505050565b606060098054610c5a90614bd8565b80601f0160208091040260200160405190810160405280929190818152602001828054610c8690614bd8565b8015610cd35780601f10610ca857610100808354040283529160200191610cd3565b820191906000526020600020905b815481529060010190602001808311610cb657829003601f168201915b5050505050905090565b6040805160038082526080820190925260609160009190816020015b6060815260200190600190039081610cf95790505090506040518060400160405280600a8152602001696164647265737320746f60b01b81525081600081518110610d4657610d46614c54565b60200260200101819052506040518060400160405280600a8152602001696279746573206461746160b01b81525081600181518110610d8757610d87614c54565b60200260200101819052506040518060400160405280600d81526020016c75696e743235362076616c756560981b81525081600281518110610dcb57610dcb614c54565b6020908102919091010152919050565b60606000610de885612548565b90506060600085905082516001600160401b03811115610e0a57610e0a614c6a565b604051908082528060200260200182016040528015610e4357816020015b610e306139a8565b815260200190600190039081610e285790505b5093508451600014610e665784806020019051810190610e6391906140c0565b91505b60005b83518110156110eb57600080306001600160a01b0316868481518110610e9157610e91614c54565b6020026020010151604051610ea6919061478c565b600060405180830381855afa9150503d8060008114610ee1576040519150601f19603f3d011682016040523d82523d6000602084013e610ee6565b606091505b509150915081610f3d5760405162461bcd60e51b815260206004820181905260248201527f6661696c20746f206465636f646520756e6973776170206d756c746963616c6c60448201526064015b60405180910390fd5b600081806020019051810190610f539190614524565b60208101519091506001600160a01b031673b4fbf271143f4fbf7b91a5ded31805e42b2208d6148015610f8557508415155b1561100a578481606001511115610fde5760405162461bcd60e51b815260206004820152601d60248201527f6661696c20746f206465636f64652057455448207377617020646174610000006044820152606401610f34565b73eeeeeeeeeeeeeeeeeeeeeeeeeeeeeeeeeeeeeeee602082015260608101516110079086614b7e565b94505b8551156110b75760018160a00151600281111561102957611029614c3e565b14156110665785848151811061104157611041614c54565b602002602001015180602001905181019061105c9190614559565b60608201526110b7565b60028160a00151600281111561107e5761107e614c3e565b14156110b75785848151811061109657611096614c54565b60200260200101518060200190518101906110b19190614559565b60808201525b808885815181106110ca576110ca614c54565b602002602001018190525050505080806110e390614c0d565b915050610e69565b50801561113a5760405162461bcd60e51b815260206004820152601f60248201527f70617373696e6720746f6f206d7563682045544820746f20756e6973776170006044820152606401610f34565b5050509392505050565b61114c6139a8565b6040518060c00160405280836001600160a01b031681526020018585600081811061117957611179614c54565b905060200201602081019061118e9190613edf565b6001600160a01b0316815260200185856111a9600182614b7e565b8181106111b8576111b8614c54565b90506020020160208101906111cd9190613edf565b6001600160a01b03168152602081018790526040810188905260600160015b90529695505050505050565b6112006139a8565b6040518060c00160405280836001600160a01b031681526020018585600081811061122d5761122d614c54565b90506020020160208101906112429190613edf565b6001600160a01b03168152602001858561125d600182614b7e565b81811061126c5761126c614c54565b90506020020160208101906112819190613edf565b6001600160a01b03168152602081018890526040810187905260600160026111ec565b6112ac6139a8565b6040518060c00160405280836001600160a01b0316815260200160006001600160a01b0316815260200173eeeeeeeeeeeeeeeeeeeeeeeeeeeeeeeeeeeeeeee6001600160a01b03168152602001600081526020018481526020016000600281111561131957611319614c3e565b905290505b92915050565b61132c6139a8565b6040805160c08101909152806113486080850160608601613edf565b6001600160a01b0316815260209081019061136590850185613edf565b6001600160a01b031681526020018360200160208101906113869190613edf565b6001600160a01b0316815260a084013560208201526080840135604082015260600160016109e5565b60006113c36005546001600160a01b031690565b6001600160a01b031663608e09126040518163ffffffff1660e01b815260040160206040518083038186803b1580156113fb57600080fd5b505afa15801561140f573d6000803e3d6000fd5b505050506040513d601f19601f820116820180604052508101906114339190613efc565b905090565b60008061144d6041546001600160a01b031690565b905060006114596113af565b90506114636113af565b6001600160a01b031663ce58da33866114846041546001600160a01b031690565b6040516001600160e01b031960e085901b1681526001600160a01b0392831660048201529116602482015260440160206040518083038186803b1580156114ca57600080fd5b505afa1580156114de573d6000803e3d6000fd5b505050506040513d601f19601f8201168201806040525081019061150291906142b3565b61154557846115196041546001600160a01b031690565b604051633d487fe560e11b81526001600160a01b03928316600482015291166024820152604401610f34565b604051633806708f60e21b81526001600160a01b0382169063e019c23c90611575908890869089906004016147a8565b60206040518083038186803b15801561158d57600080fd5b505afa1580156115a1573d6000803e3d6000fd5b505050506040513d601f19601f820116820180604052508101906115c59190614559565b95945050505050565b6000806115e36041546001600160a01b031690565b90506001600160a01b03811673eeeeeeeeeeeeeeeeeeeeeeeeeeeeeeeeeeeeeeee141561161257601291505090565b806001600160a01b031663313ce5676040518163ffffffff1660e01b815260040160206040518083038186803b15801561164b57600080fd5b505afa92505050801561167b575060408051601f3d908101601f1916820190925261167891810190614657565b60015b61131e57600091505090565b5090565b61169433612508565b6116b1576040516341c8302160e11b815260040160405180910390fd5b806116bb60015490565b10156116dd57604051630761edaf60e51b815260048101829052602401610f34565b600081815260026020819052604090912081015460ff169081600381111561170757611707614c3e565b141561172a578181604051637006f4f960e11b8152600401610f349291906149d2565b6000828152600260208190526040808320909101805460ff191660031790555183917f92a917be073b79ab50f9d997e9514a5d101e052ce04228014947e7883a7c034691a25050565b6042818154811061178357600080fd5b6000918252602090912001546001600160a01b0316905081565b6060600a8054610c5a90614bd8565b60006117c06005546001600160a01b031690565b6001600160a01b03166385f2aef26040518163ffffffff1660e01b815260040160206040518083038186803b1580156113fb57600080fd5b61180133612634565b61181e576040516321d9821d60e01b815260040160405180910390fd5b8261182860015490565b101561184a57604051630761edaf60e51b815260048101849052602401610f34565b600083815260026020819052604082209081015460039091015460ff9091169190611876906001614b25565b9050600082600381111561188c5761188c614c3e565b141580156118ac575060018260038111156118a9576118a9614c3e565b14155b156118ce578482604051637006f4f960e11b8152600401610f349291906149d2565b600085815260026020908152604080832033845260040190915290205460ff161561190c57604051634b1a897d60e01b815260040160405180910390fd5b6000858152600260208181526040808420338552600481018352908420805460ff19166001179055928890525260030181905561194860085490565b811061196c57600085815260026020819052604090912001805460ff191660011790555b847f3399030f87676a97e30e211a48f9c46e2ff806d0b4cedf7100782f08c52902c93386866040516119a093929190614800565b60405180910390a25050505050565b6119b76139a8565b6040518060c001604052808360200160208101906119d59190613edf565b6001600160a01b031681526020016119f26000610a308680614a65565b6001600160a01b03168152602001611a0f6014610a8a8680614a65565b6001600160a01b0316815260200183604001358152602001836060013581526020016002808111156109e5576109e5614c3e565b6000611a4d6113af565b6001600160a01b031663ce58da3383611a6e6041546001600160a01b031690565b6040516001600160e01b031960e085901b1681526001600160a01b0392831660048201529116602482015260440160206040518083038186803b158015611ab457600080fd5b505afa158015611ac8573d6000803e3d6000fd5b505050506040513d601f19601f8201168201806040525081019061131e91906142b3565b6005546001600160a01b03163314611b175760405163668faa7560e01b815260040160405180910390fd5b6040517368b3465833fb72a70ecdf485e0e4c7bd8665fc456024820152600019604482015260009060640160408051601f198184030181529190526020810180516001600160e01b031663095ea7b360e01b17905290506000611b826005546001600160a01b031690565b60425490915060005b81811015611c7657600060428281548110611ba857611ba8614c54565b6000918252602090912001546001600160a01b0316905073eeeeeeeeeeeeeeeeeeeeeeeeeeeeeeeeeeeeeeee8114611c635760405163d3abc28b60e01b81526001600160a01b0385169063d3abc28b90611c0b90849089906000906004016147cc565b600060405180830381600087803b158015611c2557600080fd5b505af1158015611c39573d6000803e3d6000fd5b505050506040513d6000823e601f3d908101601f19168201604052611c619190810190614316565b505b5080611c6e81614c0d565b915050611b8b565b50505050565b611c846139a8565b6040518060c00160405280836001600160a01b0316815260200160006001600160a01b03168152602001856001600160a01b031681526020016000815260200184815260200160006002811115611cdd57611cdd614c3e565b905290505b9392505050565b600080611cf46113af565b9050611cfe6113af565b60405163ce58da3360e01b81526001600160a01b0387811660048301528681166024830152919091169063ce58da339060440160206040518083038186803b158015611d4957600080fd5b505afa158015611d5d573d6000803e3d6000fd5b505050506040513d601f19601f82011682018060405250810190611d8191906142b3565b611db157604051633d487fe560e11b81526001600160a01b03808716600483015285166024820152604401610f34565b604051633806708f60e21b81526001600160a01b0382169063e019c23c90611575908890889088906004016147a8565b600054610100900460ff1615808015611e015750600054600160ff909116105b80611e1b5750303b158015611e1b575060005460ff166001145b611e7e5760405162461bcd60e51b815260206004820152602e60248201527f496e697469616c697a61626c653a20636f6e747261637420697320616c72656160448201526d191e481a5b9a5d1a585b1a5e995960921b6064820152608401610f34565b6000805460ff191660011790558015611ea1576000805461ff0019166101001790555b611eaa8a612663565b6044805460ff199081168715151790915560458590556046805490911660ff8516179055604180546001600160a01b0319166001600160a01b03841617905560005b8951811015611f2957611f178a8281518110611f0a57611f0a614c54565b6020026020010151612909565b80611f2181614c0d565b915050611eec565b506046805461ff0019166101008a15150217905560005b86811015611f8957611f77888883818110611f5d57611f5d614c54565b9050602002016020810190611f729190613edf565b612a4a565b80611f8181614c0d565b915050611f40565b506000611f946113af565b6001600160a01b03161415611feb5760405162461bcd60e51b815260206004820152601c60248201527f4163636f756e74696e6753797374656d206973207265717569726564000000006044820152606401610f34565b8015612031576000805461ff0019169055604051600181527f7f26b83ff96e1f2b6a682f133852f6798a09c465da95921460cefb38474024989060200160405180910390a15b50505050505050505050565b60008181526002602081905260409091200154819060019060ff168181600381111561206b5761206b614c3e565b1461208d578281604051637006f4f960e11b8152600401610f349291906149d2565b600084815260026020819052604090912001548490610100900463ffffffff164211156120d057604051636634e92360e01b815260048101829052602401610f34565b600d544210156120f3576040516319b9482d60e31b815260040160405180910390fd5b600e544210612114576040516268af4b60e91b815260040160405180910390fd5b61211d33612508565b61213a576040516341c8302160e11b815260040160405180910390fd5b6000612148600b5460ff1690565b90506000612155600c5490565b9050600060026000898152602001908152602001600020600101805480602002602001604051908101604052809291908181526020016000905b8282101561223b5783829060005260206000200180546121ae90614bd8565b80601f01602080910402602001604051908101604052809291908181526020018280546121da90614bd8565b80156122275780601f106121fc57610100808354040283529160200191612227565b820191906000526020600020905b81548152906001019060200180831161220a57829003601f168201915b50505050508152602001906001019061218f565b50505050905060005b81518110156122bf5783158015612259575082155b156122775760405163a5be600560e01b815260040160405180910390fd5b8361228a578261228681614bc1565b9350505b6122ad898383815181106122a0576122a0614c54565b6020026020010151612afa565b806122b781614c0d565b915050612244565b50600c82905560008881526002602081905260409091208101805460ff19166001830217905550877f9060adf413860c5ab6e376e0aa4269e49a13f0853edb1583fce8129d4c756d798233604051612318929190614825565b60405180910390a25050505050505050565b6123326139a8565b6040805160c08101825260008082526020820181905291810182905260608101829052608081018290529060a0820152979650505050505050565b600080808061237c8682612bc9565b90506001600160e01b03198116630d0e30db60e41b14156123ce5773eeeeeeeeeeeeeeeeeeeeeeeeeeeeeeeeeeeeeeee73b4fbf271143f4fbf7b91a5ded31805e42b2208d6869350935093505061249c565b6001600160e01b03198116632e1a7d4d60e01b141561244a5773b4fbf271143f4fbf7b91a5ded31805e42b2208d673eeeeeeeeeeeeeeeeeeeeeeeeeeeeeeeeeeeeeeee61242b6004808a516124239190614b7e565b8a9190612c26565b80602001905181019061243e9190614559565b9350935093505061249c565b60405162461bcd60e51b815260206004820152602160248201527f4661696c656420746f206465636f646520556e69737761702062797465636f646044820152606560f81b6064820152608401610f34565b9250925092565b60006124b0826014614b25565b835110156124f85760405162461bcd60e51b8152602060048201526015602482015274746f416464726573735f6f75744f66426f756e647360581b6044820152606401610f34565b500160200151600160601b900490565b600061251c6003546001600160a01b031690565b6001600160a01b0316826001600160a01b0316148061131e575061131e8261254360045490565b612d33565b606060006125568382612bc9565b90506001600160e01b031981166316b9007760e21b14156125a75761258b60048085516125839190614b7e565b859190612c26565b80602001905181019061259e91906142d0565b925061262e9050565b6001600160e01b03198116631f0464d160e01b14156125d25761258b60048085516125839190614b7e565b60405162461bcd60e51b815260206004820152602b60248201527f4661696c656420746f206465636f646520556e6973776170206d756c7469636160448201526a6c6c2062797465636f646560a81b6064820152608401610f34565b50919050565b6001600160a01b03811660009081526006602052604081205460ff168061131e575061131e8261254360075490565b600054610100900460ff166126ce5760405162461bcd60e51b815260206004820152602b60248201527f496e697469616c697a61626c653a20636f6e7472616374206973206e6f74206960448201526a6e697469616c697a696e6760a81b6064820152608401610f34565b60608101351580156126f157506126e86040820182614a1c565b90508160800135115b1561270f57604051635039c6e160e01b815260040160405180910390fd5b600580546001600160a01b0319163317905561272e6020820182613edf565b600380546001600160a01b0319166001600160a01b039290921691909117905561275b60a0820182614a65565b61276791600991613a34565b5061277560c0820182614a65565b61278191600a91613a34565b50608081013560085560e0810135600d55610100810135600e556127ad61014082016101208301614296565b600b805460ff1916911515919091179055610140810135600c556020810135600455606081013560075560005b6127e76040830183614a1c565b90508110156128d3576001600660006128036040860186614a1c565b8581811061281357612813614c54565b90506020020160208101906128289190613edf565b6001600160a01b0316815260208101919091526040908101600020805460ff1916921515929092179091557f4664777dbfbcb27de0f602e1da5d5a259992cd7edf5b29192929c96e8fd50def9061288190840184614a1c565b8381811061289157612891614c54565b90506020020160208101906128a69190613edf565b6040516001600160a01b03909116815260200160405180910390a1806128cb81614c0d565b9150506127da565b5060006128de6117ac565b6001600160a01b03161415612906576040516309ec7e6960e41b815260040160405180910390fd5b50565b6001600160a01b03811660009081526043602052604090205460ff16156129655760405162461bcd60e51b815260206004820152601060248201526f223ab83634b1b0ba32b2103a37b5b2b760811b6044820152606401610f34565b61296e81611a43565b6129af5760405162461bcd60e51b81526020600482015260126024820152712ab73932b9b7b63b30b13632903a37b5b2b760711b6044820152606401610f34565b6042805460018082019092557f38dfe4635b27babeca8be38d3b448cb5161a639b899a14825ba9c8d7892eb8c30180546001600160a01b0319166001600160a01b038416908117909155600081815260436020908152604091829020805460ff1916909417909355519081527f14009112f2dcb15cad32dab6bf972d6d85286e4ae1178f27323ffe25359459e691015b60405180910390a150565b6001600160a01b03811660009081526047602052604090205460ff1615612aa65760405162461bcd60e51b815260206004820152601060248201526f223ab83634b1b0ba32b2103a37b5b2b760811b6044820152606401610f34565b6001600160a01b038116600081815260476020908152604091829020805460ff1916600117905590519182527f0df56a0b46d63ff03be79aa2e27aa9f7d6af565748bac8f4b41d6df16ba9f6189101612a3f565b600080600083806020019051810190612b139190613f19565b919450925090506001600160a01b0383167368b3465833fb72a70ecdf485e0e4c7bd8665fc451415612b5057612b4b85848484612dc6565b612bc2565b6001600160a01b03831673b4fbf271143f4fbf7b91a5ded31805e42b2208d61415612b8157612b4b85848484613472565b60405162461bcd60e51b8152602060048201526016602482015275496e76616c696420746172676574206164647265737360501b6044820152606401610f34565b5050505050565b6000612bd6826004614b25565b83511015612c1d5760405162461bcd60e51b8152602060048201526014602482015273746f4279746573345f6f75744f66426f756e647360601b6044820152606401610f34565b50016020015190565b606081612c3481601f614b25565b1015612c735760405162461bcd60e51b815260206004820152600e60248201526d736c6963655f6f766572666c6f7760901b6044820152606401610f34565b612c7d8284614b25565b84511015612cc15760405162461bcd60e51b8152602060048201526011602482015270736c6963655f6f75744f66426f756e647360781b6044820152606401610f34565b606082158015612ce05760405191506000825260208201604052612d2a565b6040519150601f8416801560200281840101858101878315602002848b0101015b81831015612d19578051835260209283019201612d01565b5050858452601f01601f1916604052505b50949350505050565b600080612d3e6117ac565b604051627eeac760e11b81526001600160a01b03868116600483015260248201869052919091169062fdd58e9060440160206040518083038186803b158015612d8657600080fd5b505afa158015612d9a573d6000803e3d6000fd5b505050506040513d601f19601f82011682018060405250810190612dbe9190614559565b119392505050565b6000612dd061380d565b90506000612de66005546001600160a01b031690565b90506000816001600160a01b031663d3abc28b8787876040518463ffffffff1660e01b8152600401612e1a939291906147cc565b600060405180830381600087803b158015612e3457600080fd5b505af1158015612e48573d6000803e3d6000fd5b505050506040513d6000823e601f3d908101601f19168201604052612e709190810190614316565b604051633814d25160e01b81529091506000903090633814d25190612e9d9089908990879060040161497c565b60006040518083038186803b158015612eb557600080fd5b505afa158015612ec9573d6000803e3d6000fd5b505050506040513d6000823e601f3d908101601f19168201604052612ef191908101906141f4565b60008981526049602090815260408083206048909252822092935091905b83518110156132c3576000848281518110612f2c57612f2c614c54565b6020026020010151905060006001600160a01b031681600001516001600160a01b03161480612f65575080516001600160a01b03166001145b80612f7a575080516001600160a01b03166002145b80612f9a5750866001600160a01b031681600001516001600160a01b0316145b612fe65760405162461bcd60e51b815260206004820152601960248201527f526563697069656e74206e6f742077686974656c6973746564000000000000006044820152606401610f34565b6020808201516001600160a01b03166000908152908490526040902054606082015115613171576020808301516001600160a01b031660009081526043909152604090205460ff1661307a5760405162461bcd60e51b815260206004820152601c60248201527f536f7572636520746f6b656e206e6f742077686974656c6973746564000000006044820152606401610f34565b806130b757602082810151865460018101885560008881529290922090910180546001600160a01b0319166001600160a01b039092169190911790555b60608201516130c69082614b25565b84600084602001516001600160a01b03166001600160a01b03168152602001908152602001600020819055507368b3465833fb72a70ecdf485e0e4c7bd8665fc456001600160a01b0316336001600160a01b03168e7f6b2315dc82c675e98d173b73a035ea18b30fa040368177ae8dfa90d3cd5a127a856020015186606001516040516131689291906001600160a01b03929092168252602082015260400190565b60405180910390a45b600082608001511180156131ae575081516001600160a01b0316600114806131ae5750876001600160a01b031682600001516001600160a01b0316145b156132ae57604654610100900460ff16806131e357506040808301516001600160a01b031660009081526047602052205460ff165b61322f5760405162461bcd60e51b815260206004820152601c60248201527f54617267657420746f6b656e206e6f742077686974656c6973746564000000006044820152606401610f34565b7368b3465833fb72a70ecdf485e0e4c7bd8665fc456001600160a01b0316336001600160a01b03168e7ff10ffe9795dc198303bf64c2f1bfec7ed5256325dee3026154df4c82f43c54f0856040015186608001516040516132a59291906001600160a01b03929092168252602082015260400190565b60405180910390a45b505080806132bb90614c0d565b915050612f0f565b5060445460455460ff909116908115806132e45750604654606460ff909116105b15613464578354600090815b8181101561335e57600087828154811061330c5761330c614c54565b60009182526020808320909101546001600160a01b03168083529089905260409091205490915061333e908290611438565b6133489085614b25565b935050808061335690614c0d565b9150506132f0565b50600082116133af5760405162461bcd60e51b815260206004820152601e60248201527f5377617020616d6f756e742073686f756c64206e6f74206265207a65726f00006044820152606401610f34565b83806133bb5750828211155b6133fd5760405162461bcd60e51b8152602060048201526013602482015272115e18d959591959081b585e08185b5bdd5b9d606a1b6044820152606401610f34565b6134078a83613959565b6134495760405162461bcd60e51b815260206004820152601360248201527245786365656465642070657263656e7461676560681b6044820152606401610f34565b60445460ff166134615761345d8284614b7e565b6045555b50505b505050505050505050505050565b600061347c61380d565b60445460455491925060ff169061349b6005546001600160a01b031690565b6001600160a01b031663d3abc28b8787876040518463ffffffff1660e01b81526004016134ca939291906147cc565b600060405180830381600087803b1580156134e457600080fd5b505af11580156134f8573d6000803e3d6000fd5b505050506040513d6000823e601f3d908101601f191682016040526135209190810190614316565b50604051637cb0fbcd60e11b815260009081908190309063f961f79a9061354d908b908b9060040161495a565b60606040518083038186803b15801561356557600080fd5b505afa158015613579573d6000803e3d6000fd5b505050506040513d601f19601f8201168201806040525081019061359d9190613fb3565b92509250925060006135af8483611438565b6001600160a01b03851660009081526043602052604090205490915060ff1661361a5760405162461bcd60e51b815260206004820152601c60248201527f536f7572636520746f6b656e206e6f742077686974656c6973746564000000006044820152606401610f34565b604654610100900460ff168061364857506001600160a01b03831660009081526047602052604090205460ff165b6136945760405162461bcd60e51b815260206004820152601c60248201527f54617267657420746f6b656e206e6f742077686974656c6973746564000000006044820152606401610f34565b600081116136ef5760405162461bcd60e51b815260206004820152602260248201527f5472616e7366657220616d6f756e742073686f756c64206e6f74206265207a65604482015261726f60f01b6064820152608401610f34565b85806136fb5750848111155b61373d5760405162461bcd60e51b8152602060048201526013602482015272115e18d959591959081b585e08185b5bdd5b9d606a1b6044820152606401610f34565b6137478782613959565b6137895760405162461bcd60e51b815260206004820152601360248201527245786365656465642070657263656e7461676560681b6044820152606401610f34565b8561379c576137988186614b7e565b6045555b73b4fbf271143f4fbf7b91a5ded31805e42b2208d66001600160a01b0316336001600160a01b03168c7ff2600da0d3c22c74870d03f19fbe7663ec5f72616966e884f806a2d44ee7d6448787876040516137f8939291906147a8565b60405180910390a45050505050505050505050565b604254600090816138266005546001600160a01b031690565b905060005b828110156139535760006042828154811061384857613848614c54565b6000918252602090912001546001600160a01b0316905073eeeeeeeeeeeeeeeeeeeeeeeeeeeeeeeeeeeeeeee8114156138b4576138a373eeeeeeeeeeeeeeeeeeeeeeeeeeeeeeeeeeeeeeee846001600160a01b031631611438565b6138ad9086614b25565b9450613940565b6040516370a0823160e01b81526001600160a01b0384811660048301526139339183918216906370a082319060240160206040518083038186803b1580156138fb57600080fd5b505afa15801561390f573d6000803e3d6000fd5b505050506040513d601f19601f820116820180604052508101906105939190614559565b61393d9086614b25565b94505b508061394b81614c0d565b91505061382b565b50505090565b60465460009060ff16606481141561397557600191505061131e565b8361398457600091505061131e565b606461399360ff831686614b5f565b61399d9190614b3d565b909211159392505050565b6040805160c08101825260008082526020820181905291810182905260608101829052608081018290529060a082015290565b828054828255906000526020600020908101928215613a28579160200282015b82811115613a285782518051613a18918491602090910190613ab4565b50916020019190600101906139fb565b50611687929150613b28565b828054613a4090614bd8565b90600052602060002090601f016020900481019282613a625760008555613aa8565b82601f10613a7b5782800160ff19823516178555613aa8565b82800160010185558215613aa8579182015b82811115613aa8578235825591602001919060010190613a8d565b50611687929150613b45565b828054613ac090614bd8565b90600052602060002090601f016020900481019282613ae25760008555613aa8565b82601f10613afb57805160ff1916838001178555613aa8565b82800160010185558215613aa8579182015b82811115613aa8578251825591602001919060010190613b0d565b80821115611687576000613b3c8282613b5a565b50600101613b28565b5b808211156116875760008155600101613b46565b508054613b6690614bd8565b6000825580601f10613b76575050565b601f0160209004906000526020600020908101906129069190613b45565b8035613b9f81614c80565b919050565b60008083601f840112613bb657600080fd5b5081356001600160401b03811115613bcd57600080fd5b6020830191508360208260051b8501011115613be857600080fd5b9250929050565b600082601f830112613c0057600080fd5b81356020613c15613c1083614adb565b614aab565b80838252828201915082860187848660051b8901011115613c3557600080fd5b60005b85811015613c5d578135613c4b81614c80565b84529284019290840190600101613c38565b5090979650505050505050565b600082601f830112613c7b57600080fd5b81516020613c8b613c1083614adb565b80838252828201915082860187848660051b8901011115613cab57600080fd5b6000805b86811015613ced5782516001600160401b03811115613ccc578283fd5b613cda8b88838d0101613d57565b8652509385019391850191600101613caf565b509198975050505050505050565b8035613b9f81614c95565b600082601f830112613d1757600080fd5b8135613d25613c1082614afe565b818152846020838601011115613d3a57600080fd5b816020850160208301376000918101602001919091529392505050565b600082601f830112613d6857600080fd5b8151613d76613c1082614afe565b818152846020838601011115613d8b57600080fd5b613d9c826020830160208701614b95565b949350505050565b60008083601f840112613db657600080fd5b5081356001600160401b03811115613dcd57600080fd5b602083019150836020828501011115613be857600080fd5b60006080828403121561262e57600080fd5b600060e0828403121561262e57600080fd5b6000610160828403121561262e57600080fd5b600060c08284031215613e2e57600080fd5b60405160c081018181106001600160401b0382111715613e5057613e50614c6a565b80604052508091508251613e6381614c80565b81526020830151613e7381614c80565b60208201526040830151613e8681614c80565b80604083015250606083015160608201526080830151608082015260a083015160038110613eb357600080fd5b60a0919091015292915050565b803563ffffffff81168114613b9f57600080fd5b8035613b9f81614ca3565b600060208284031215613ef157600080fd5b8135611ce281614c80565b600060208284031215613f0e57600080fd5b8151611ce281614c80565b600080600060608486031215613f2e57600080fd5b8351613f3981614c80565b60208501519093506001600160401b03811115613f5557600080fd5b613f6186828701613d57565b925050604084015190509250925092565b600080600060608486031215613f8757600080fd5b8335613f9281614c80565b92506020840135613fa281614c80565b929592945050506040919091013590565b600080600060608486031215613fc857600080fd5b8351613fd381614c80565b6020850151909350613fe481614c80565b80925050604084015190509250925092565b6000806040838503121561400957600080fd5b823561401481614c80565b946020939093013593505050565b60008060006060848603121561403757600080fd5b833561404281614c80565b925060208401359150604084013561405981614c80565b809150509250925092565b60008060008060008060c0878903121561407d57600080fd5b863561408881614c80565b9550602087013594506040870135935060608701356140a681614ca3565b9598949750929560808101359460a0909101359350915050565b6000602082840312156140d257600080fd5b81516001600160401b038111156140e857600080fd5b613d9c84828501613c6a565b60008060008060006080868803121561410c57600080fd5b6001600160401b03808735111561412257600080fd5b8635870188601f82011261413557600080fd5b80356020614145613c1083614adb565b8083825282820191508285018d848660051b880101111561416557600080fd5b60005b8581101561419f57878235111561417e57600080fd5b61418d8f8684358a0101613d06565b84529284019290840190600101614168565b5050809a5050506141b1818b01613ec0565b97505050506141c260408801613cfb565b93506060870135818111156141d657600080fd5b6141e289828a01613da4565b979a9699509497509395949350505050565b6000602080838503121561420757600080fd5b82516001600160401b0381111561421d57600080fd5b8301601f8101851361422e57600080fd5b805161423c613c1082614adb565b8181528381019083850160c0808502860187018a101561425b57600080fd5b600095505b84861015614288576142728a83613e1c565b8452600195909501949286019290810190614260565b509098975050505050505050565b6000602082840312156142a857600080fd5b8135611ce281614c95565b6000602082840312156142c557600080fd5b8151611ce281614c95565b600080604083850312156142e357600080fd5b8251915060208301516001600160401b0381111561430057600080fd5b61430c85828601613c6a565b9150509250929050565b60006020828403121561432857600080fd5b81516001600160401b0381111561433e57600080fd5b613d9c84828501613d57565b6000806040838503121561435d57600080fd5b82356001600160401b0381111561437357600080fd5b61437f85828601613d06565b95602094909401359450505050565b6000806000606084860312156143a357600080fd5b83356001600160401b03808211156143ba57600080fd5b6143c687838801613d06565b94506020860135935060408601359150808211156143e357600080fd5b506143f086828701613d06565b9150509250925092565b60006020828403121561440c57600080fd5b81356001600160401b0381111561442257600080fd5b613d9c84828501613de5565b600060e0828403121561444057600080fd5b611ce28383613df7565b60008060008060008060008060006101008a8c03121561446957600080fd5b89356001600160401b038082111561448057600080fd5b61448c8d838e01613e09565b9a5060208c01359150808211156144a257600080fd5b6144ae8d838e01613bef565b99506144bc60408d01613cfb565b985060608c01359150808211156144d257600080fd5b506144df8c828d01613ba4565b90975095506144f2905060808b01613cfb565b935060a08a0135925061450760c08b01613ed4565b915061451560e08b01613b94565b90509295985092959850929598565b600060c0828403121561453657600080fd5b611ce28383613e1c565b60006020828403121561455257600080fd5b5035919050565b60006020828403121561456b57600080fd5b5051919050565b6000806040838503121561458557600080fd5b82359150602083013561459781614c80565b809150509250929050565b6000806000604084860312156145b757600080fd5b8335925060208401356001600160401b038111156145d457600080fd5b6145e086828701613da4565b9497909650939450505050565b60008060008060006080868803121561460557600080fd5b853594506020860135935060408601356001600160401b0381111561462957600080fd5b61463588828901613ba4565b909450925050606086013561464981614c80565b809150509295509295909350565b60006020828403121561466957600080fd5b8151611ce281614ca3565b600081518084526020808501808196508360051b8101915082860160005b858110156146bc5782840389526146aa8483516146c9565b98850198935090840190600101614692565b5091979650505050505050565b600081518084526146e1816020860160208601614b95565b601f01601f19169290920160200192915050565b6004811061470557614705614c3e565b9052565b81835281816020850137506000828201602090810191909152601f909101601f19169091010190565b60018060a01b0380825116835280602083015116602084015280604083015116604084015250606081015160608301526080810151608083015260a08101516003811061478157614781614c3e565b8060a0840152505050565b6000825161479e818460208701614b95565b9190910192915050565b6001600160a01b039384168152919092166020820152604081019190915260600190565b6001600160a01b03841681526060602082018190526000906147f0908301856146c9565b9050826040830152949350505050565b6001600160a01b03841681526040602082018190526000906115c59083018486614709565b6040815260006148386040830185614674565b905060018060a01b03831660208301529392505050565b60a08152600061486260a0830189614674565b63ffffffff8816602084015261487b60408401886146f5565b828103606084015261488e818688614709565b91505060018060a01b0383166080830152979650505050505050565b6000602080830181845280855180835260408601915060408160051b870101925083870160005b828110156148ff57603f198886030184526148ed8583516146c9565b945092850192908501906001016148d1565b5092979650505050505050565b6020808252825182820181905260009190848201906040850190845b8181101561494e5761493b838551614732565b9284019260c09290920191600101614928565b50909695505050505050565b60408152600061496d60408301856146c9565b90508260208301529392505050565b60608152600061498f60608301866146c9565b84602084015282810360408401526149a781856146c9565b9695505050505050565b602081526000611ce260208301846146c9565b60c0810161131e8284614732565b82815260408101611ce260208301846146f5565b85815260a081016149fa60208301876146f5565b63ffffffff949094166040820152911515606083015260809091015292915050565b6000808335601e19843603018112614a3357600080fd5b8301803591506001600160401b03821115614a4d57600080fd5b6020019150600581901b3603821315613be857600080fd5b6000808335601e19843603018112614a7c57600080fd5b8301803591506001600160401b03821115614a9657600080fd5b602001915036819003821315613be857600080fd5b604051601f8201601f191681016001600160401b0381118282101715614ad357614ad3614c6a565b604052919050565b60006001600160401b03821115614af457614af4614c6a565b5060051b60200190565b60006001600160401b03821115614b1757614b17614c6a565b50601f01601f191660200190565b60008219821115614b3857614b38614c28565b500190565b600082614b5a57634e487b7160e01b600052601260045260246000fd5b500490565b6000816000190483118215151615614b7957614b79614c28565b500290565b600082821015614b9057614b90614c28565b500390565b60005b83811015614bb0578181015183820152602001614b98565b83811115611c765750506000910152565b600081614bd057614bd0614c28565b506000190190565b600181811c90821680614bec57607f821691505b6020821081141561262e57634e487b7160e01b600052602260045260246000fd5b6000600019821415614c2157614c21614c28565b5060010190565b634e487b7160e01b600052601160045260246000fd5b634e487b7160e01b600052602160045260246000fd5b634e487b7160e01b600052603260045260246000fd5b634e487b7160e01b600052604160045260246000fd5b6001600160a01b038116811461290657600080fd5b801515811461290657600080fd5b60ff8116811461290657600080fdfea26469706673582212201cf6977816c61965aa3ebfb948c77c0d79b1bf4881c98341031bf8972757ab2564736f6c63430008070033",
  "devdoc": {
    "kind": "dev",
    "methods": {
      "constructor": {
        "custom:oz-upgrades-unsafe-allow": "constructor"
      }
    },
    "version": 1
  },
  "userdoc": {
    "kind": "user",
    "methods": {
      "assetBaseCurrencyPrice(address,uint256)": {
        "notice": "This function is imported by other contract, thus cannot be external"
      },
      "canResolvePrice(address)": {
        "notice": "This function is imported by other contract, thus cannot be external"
      }
    },
    "version": 1
  },
  "storageLayout": {
    "storage": [
      {
        "astId": 3247,
        "contract": "contracts/UniswapLiquidBudgetApproval.sol:UniswapLiquidBudgetApproval",
        "label": "_initialized",
        "offset": 0,
        "slot": "0",
        "type": "t_uint8"
      },
      {
        "astId": 3250,
        "contract": "contracts/UniswapLiquidBudgetApproval.sol:UniswapLiquidBudgetApproval",
        "label": "_initializing",
        "offset": 1,
        "slot": "0",
        "type": "t_bool"
      },
      {
        "astId": 31795,
        "contract": "contracts/UniswapLiquidBudgetApproval.sol:UniswapLiquidBudgetApproval",
        "label": "_transactionIds",
        "offset": 0,
        "slot": "1",
        "type": "t_struct(Counter)17376_storage"
      },
      {
        "astId": 31800,
        "contract": "contracts/UniswapLiquidBudgetApproval.sol:UniswapLiquidBudgetApproval",
        "label": "transactions",
        "offset": 0,
        "slot": "2",
        "type": "t_mapping(t_uint256,t_struct(Transaction)31739_storage)"
      },
      {
        "astId": 31802,
        "contract": "contracts/UniswapLiquidBudgetApproval.sol:UniswapLiquidBudgetApproval",
        "label": "_executor",
        "offset": 0,
        "slot": "3",
        "type": "t_address"
      },
      {
        "astId": 31804,
        "contract": "contracts/UniswapLiquidBudgetApproval.sol:UniswapLiquidBudgetApproval",
        "label": "_executorTeamId",
        "offset": 0,
        "slot": "4",
        "type": "t_uint256"
      },
      {
        "astId": 31806,
        "contract": "contracts/UniswapLiquidBudgetApproval.sol:UniswapLiquidBudgetApproval",
        "label": "_executee",
        "offset": 0,
        "slot": "5",
        "type": "t_address"
      },
      {
        "astId": 31810,
        "contract": "contracts/UniswapLiquidBudgetApproval.sol:UniswapLiquidBudgetApproval",
        "label": "_approversMapping",
        "offset": 0,
        "slot": "6",
        "type": "t_mapping(t_address,t_bool)"
      },
      {
        "astId": 31812,
        "contract": "contracts/UniswapLiquidBudgetApproval.sol:UniswapLiquidBudgetApproval",
        "label": "_approverTeamId",
        "offset": 0,
        "slot": "7",
        "type": "t_uint256"
      },
      {
        "astId": 31814,
        "contract": "contracts/UniswapLiquidBudgetApproval.sol:UniswapLiquidBudgetApproval",
        "label": "_minApproval",
        "offset": 0,
        "slot": "8",
        "type": "t_uint256"
      },
      {
        "astId": 31816,
        "contract": "contracts/UniswapLiquidBudgetApproval.sol:UniswapLiquidBudgetApproval",
        "label": "_text",
        "offset": 0,
        "slot": "9",
        "type": "t_string_storage"
      },
      {
        "astId": 31818,
        "contract": "contracts/UniswapLiquidBudgetApproval.sol:UniswapLiquidBudgetApproval",
        "label": "_transactionType",
        "offset": 0,
        "slot": "10",
        "type": "t_string_storage"
      },
      {
        "astId": 31820,
        "contract": "contracts/UniswapLiquidBudgetApproval.sol:UniswapLiquidBudgetApproval",
        "label": "_allowUnlimitedUsageCount",
        "offset": 0,
        "slot": "11",
        "type": "t_bool"
      },
      {
        "astId": 31822,
        "contract": "contracts/UniswapLiquidBudgetApproval.sol:UniswapLiquidBudgetApproval",
        "label": "_usageCount",
        "offset": 0,
        "slot": "12",
        "type": "t_uint256"
      },
      {
        "astId": 31824,
        "contract": "contracts/UniswapLiquidBudgetApproval.sol:UniswapLiquidBudgetApproval",
        "label": "_startTime",
        "offset": 0,
        "slot": "13",
        "type": "t_uint256"
      },
      {
        "astId": 31826,
        "contract": "contracts/UniswapLiquidBudgetApproval.sol:UniswapLiquidBudgetApproval",
        "label": "_endTime",
        "offset": 0,
        "slot": "14",
        "type": "t_uint256"
      },
      {
        "astId": 33866,
        "contract": "contracts/UniswapLiquidBudgetApproval.sol:UniswapLiquidBudgetApproval",
        "label": "__gap",
        "offset": 0,
        "slot": "15",
        "type": "t_array(t_uint256)50_storage"
      },
      {
        "astId": 30215,
        "contract": "contracts/UniswapLiquidBudgetApproval.sol:UniswapLiquidBudgetApproval",
        "label": "_baseCurrency",
        "offset": 0,
        "slot": "65",
        "type": "t_address"
      },
      {
        "astId": 30218,
        "contract": "contracts/UniswapLiquidBudgetApproval.sol:UniswapLiquidBudgetApproval",
        "label": "fromTokens",
        "offset": 0,
        "slot": "66",
        "type": "t_array(t_address)dyn_storage"
      },
      {
        "astId": 30222,
        "contract": "contracts/UniswapLiquidBudgetApproval.sol:UniswapLiquidBudgetApproval",
        "label": "fromTokensMapping",
        "offset": 0,
        "slot": "67",
        "type": "t_mapping(t_address,t_bool)"
      },
      {
        "astId": 30224,
        "contract": "contracts/UniswapLiquidBudgetApproval.sol:UniswapLiquidBudgetApproval",
        "label": "allowAnyAmount",
        "offset": 0,
        "slot": "68",
        "type": "t_bool"
      },
      {
        "astId": 30226,
        "contract": "contracts/UniswapLiquidBudgetApproval.sol:UniswapLiquidBudgetApproval",
        "label": "totalAmount",
        "offset": 0,
        "slot": "69",
        "type": "t_uint256"
      },
      {
        "astId": 30228,
        "contract": "contracts/UniswapLiquidBudgetApproval.sol:UniswapLiquidBudgetApproval",
        "label": "amountPercentage",
        "offset": 0,
        "slot": "70",
        "type": "t_uint8"
      },
      {
        "astId": 30230,
        "contract": "contracts/UniswapLiquidBudgetApproval.sol:UniswapLiquidBudgetApproval",
        "label": "allowAllToTokens",
        "offset": 1,
        "slot": "70",
        "type": "t_bool"
      },
      {
        "astId": 30234,
        "contract": "contracts/UniswapLiquidBudgetApproval.sol:UniswapLiquidBudgetApproval",
        "label": "toTokensMapping",
        "offset": 0,
        "slot": "71",
        "type": "t_mapping(t_address,t_bool)"
      },
      {
        "astId": 30240,
        "contract": "contracts/UniswapLiquidBudgetApproval.sol:UniswapLiquidBudgetApproval",
        "label": "_tokenInAmountOfTransaction",
        "offset": 0,
        "slot": "72",
        "type": "t_mapping(t_uint256,t_mapping(t_address,t_uint256))"
      },
      {
        "astId": 30245,
        "contract": "contracts/UniswapLiquidBudgetApproval.sol:UniswapLiquidBudgetApproval",
        "label": "_tokenInOfTransaction",
        "offset": 0,
        "slot": "73",
        "type": "t_mapping(t_uint256,t_array(t_address)dyn_storage)"
      }
    ],
    "types": {
      "t_address": {
        "encoding": "inplace",
        "label": "address",
        "numberOfBytes": "20"
      },
      "t_array(t_address)dyn_storage": {
        "base": "t_address",
        "encoding": "dynamic_array",
        "label": "address[]",
        "numberOfBytes": "32"
      },
      "t_array(t_bytes_storage)dyn_storage": {
        "base": "t_bytes_storage",
        "encoding": "dynamic_array",
        "label": "bytes[]",
        "numberOfBytes": "32"
      },
      "t_array(t_uint256)50_storage": {
        "base": "t_uint256",
        "encoding": "inplace",
        "label": "uint256[50]",
        "numberOfBytes": "1600"
      },
      "t_bool": {
        "encoding": "inplace",
        "label": "bool",
        "numberOfBytes": "1"
      },
      "t_bytes_storage": {
        "encoding": "bytes",
        "label": "bytes",
        "numberOfBytes": "32"
      },
      "t_enum(Status)31720": {
        "encoding": "inplace",
        "label": "enum CommonBudgetApproval.Status",
        "numberOfBytes": "1"
      },
      "t_mapping(t_address,t_bool)": {
        "encoding": "mapping",
        "key": "t_address",
        "label": "mapping(address => bool)",
        "numberOfBytes": "32",
        "value": "t_bool"
      },
      "t_mapping(t_address,t_uint256)": {
        "encoding": "mapping",
        "key": "t_address",
        "label": "mapping(address => uint256)",
        "numberOfBytes": "32",
        "value": "t_uint256"
      },
      "t_mapping(t_uint256,t_array(t_address)dyn_storage)": {
        "encoding": "mapping",
        "key": "t_uint256",
        "label": "mapping(uint256 => address[])",
        "numberOfBytes": "32",
        "value": "t_array(t_address)dyn_storage"
      },
      "t_mapping(t_uint256,t_mapping(t_address,t_uint256))": {
        "encoding": "mapping",
        "key": "t_uint256",
        "label": "mapping(uint256 => mapping(address => uint256))",
        "numberOfBytes": "32",
        "value": "t_mapping(t_address,t_uint256)"
      },
      "t_mapping(t_uint256,t_struct(Transaction)31739_storage)": {
        "encoding": "mapping",
        "key": "t_uint256",
        "label": "mapping(uint256 => struct CommonBudgetApproval.Transaction)",
        "numberOfBytes": "32",
        "value": "t_struct(Transaction)31739_storage"
      },
      "t_string_storage": {
        "encoding": "bytes",
        "label": "string",
        "numberOfBytes": "32"
      },
      "t_struct(Counter)17376_storage": {
        "encoding": "inplace",
        "label": "struct Counters.Counter",
        "members": [
          {
            "astId": 17375,
            "contract": "contracts/UniswapLiquidBudgetApproval.sol:UniswapLiquidBudgetApproval",
            "label": "_value",
            "offset": 0,
            "slot": "0",
            "type": "t_uint256"
          }
        ],
        "numberOfBytes": "32"
      },
      "t_struct(Transaction)31739_storage": {
        "encoding": "inplace",
        "label": "struct CommonBudgetApproval.Transaction",
        "members": [
          {
            "astId": 31722,
            "contract": "contracts/UniswapLiquidBudgetApproval.sol:UniswapLiquidBudgetApproval",
            "label": "id",
            "offset": 0,
            "slot": "0",
            "type": "t_uint256"
          },
          {
            "astId": 31725,
            "contract": "contracts/UniswapLiquidBudgetApproval.sol:UniswapLiquidBudgetApproval",
            "label": "data",
            "offset": 0,
            "slot": "1",
            "type": "t_array(t_bytes_storage)dyn_storage"
          },
          {
            "astId": 31728,
            "contract": "contracts/UniswapLiquidBudgetApproval.sol:UniswapLiquidBudgetApproval",
            "label": "status",
            "offset": 0,
            "slot": "2",
            "type": "t_enum(Status)31720"
          },
          {
            "astId": 31730,
            "contract": "contracts/UniswapLiquidBudgetApproval.sol:UniswapLiquidBudgetApproval",
            "label": "deadline",
            "offset": 1,
            "slot": "2",
            "type": "t_uint32"
          },
          {
            "astId": 31732,
            "contract": "contracts/UniswapLiquidBudgetApproval.sol:UniswapLiquidBudgetApproval",
            "label": "isExist",
            "offset": 5,
            "slot": "2",
            "type": "t_bool"
          },
          {
            "astId": 31734,
            "contract": "contracts/UniswapLiquidBudgetApproval.sol:UniswapLiquidBudgetApproval",
            "label": "approvedCount",
            "offset": 0,
            "slot": "3",
            "type": "t_uint256"
          },
          {
            "astId": 31738,
            "contract": "contracts/UniswapLiquidBudgetApproval.sol:UniswapLiquidBudgetApproval",
            "label": "approved",
            "offset": 0,
            "slot": "4",
            "type": "t_mapping(t_address,t_bool)"
          }
        ],
        "numberOfBytes": "160"
      },
      "t_uint256": {
        "encoding": "inplace",
        "label": "uint256",
        "numberOfBytes": "32"
      },
      "t_uint32": {
        "encoding": "inplace",
        "label": "uint32",
        "numberOfBytes": "4"
      },
      "t_uint8": {
        "encoding": "inplace",
        "label": "uint8",
        "numberOfBytes": "1"
      }
    }
  }
}