{
  "address": "0x3278224600BD939a5CBbe7D61d2f4Ea6bc914D47",
  "abi": [
    {
      "inputs": [],
      "stateMutability": "nonpayable",
      "type": "constructor"
    },
    {
      "inputs": [],
      "name": "ActionDuplicated",
      "type": "error"
    },
    {
      "inputs": [],
      "name": "AddressClaimed",
      "type": "error"
    },
    {
      "inputs": [],
      "name": "BudgetHasEnded",
      "type": "error"
    },
    {
      "inputs": [],
      "name": "BudgetNotStarted",
      "type": "error"
    },
    {
      "inputs": [],
      "name": "BudgetUsageExceeded",
      "type": "error"
    },
    {
      "inputs": [],
      "name": "DuplicatedToAddress",
      "type": "error"
    },
    {
      "inputs": [],
      "name": "InvalidApproverList",
      "type": "error"
    },
    {
      "inputs": [],
      "name": "InvalidExecuteeTeam",
      "type": "error"
    },
    {
      "inputs": [
        {
          "internalType": "uint256",
          "name": "id",
          "type": "uint256"
        }
      ],
      "name": "InvalidTransactionId",
      "type": "error"
    },
    {
      "inputs": [
        {
          "internalType": "uint256",
          "name": "id",
          "type": "uint256"
        },
        {
          "internalType": "enum CommonBudgetApproval.Status",
          "name": "status",
          "type": "uint8"
        }
      ],
      "name": "InvalidTransactionStatus",
      "type": "error"
    },
    {
      "inputs": [],
      "name": "RecipientNotWhitelisted",
      "type": "error"
    },
    {
      "inputs": [],
      "name": "SignatureNotCorrrect",
      "type": "error"
    },
    {
      "inputs": [
        {
          "internalType": "uint256",
          "name": "id",
          "type": "uint256"
        }
      ],
      "name": "TransactionExpired",
      "type": "error"
    },
    {
      "inputs": [],
      "name": "UnauthorizedApprover",
      "type": "error"
    },
    {
      "inputs": [],
      "name": "UnauthorizedExecutee",
      "type": "error"
    },
    {
      "inputs": [],
      "name": "UnauthorizedExecutor",
      "type": "error"
    },
    {
      "anonymous": false,
      "inputs": [
        {
          "indexed": false,
          "internalType": "address",
          "name": "target",
          "type": "address"
        }
      ],
      "name": "AllowAddress",
      "type": "event"
    },
    {
      "anonymous": false,
      "inputs": [
        {
          "indexed": false,
          "internalType": "uint256",
          "name": "amount",
          "type": "uint256"
        }
      ],
      "name": "AllowAmount",
      "type": "event"
    },
    {
      "anonymous": false,
      "inputs": [
        {
          "indexed": false,
          "internalType": "address",
          "name": "token",
          "type": "address"
        }
      ],
      "name": "AllowToken",
      "type": "event"
    },
    {
      "anonymous": false,
      "inputs": [
        {
          "indexed": true,
          "internalType": "uint256",
          "name": "id",
          "type": "uint256"
        },
        {
          "indexed": false,
          "internalType": "address",
          "name": "approver",
          "type": "address"
        },
        {
          "indexed": false,
          "internalType": "string",
          "name": "comment",
          "type": "string"
        }
      ],
      "name": "ApproveTransaction",
      "type": "event"
    },
    {
      "anonymous": false,
      "inputs": [
        {
          "indexed": true,
          "internalType": "uint256",
          "name": "id",
          "type": "uint256"
        },
        {
          "indexed": false,
          "internalType": "bytes[]",
          "name": "data",
          "type": "bytes[]"
        },
        {
          "indexed": false,
          "internalType": "uint256",
          "name": "deadline",
          "type": "uint256"
        },
        {
          "indexed": false,
          "internalType": "enum CommonBudgetApproval.Status",
          "name": "status",
          "type": "uint8"
        },
        {
          "indexed": false,
          "internalType": "string",
          "name": "comment",
          "type": "string"
        },
        {
          "indexed": false,
          "internalType": "address",
          "name": "creator",
          "type": "address"
        }
      ],
      "name": "CreateTransaction",
      "type": "event"
    },
    {
      "anonymous": false,
      "inputs": [
        {
          "indexed": true,
          "internalType": "uint256",
          "name": "id",
          "type": "uint256"
        },
        {
          "indexed": true,
          "internalType": "address",
          "name": "executor",
          "type": "address"
        },
        {
          "indexed": true,
          "internalType": "address",
          "name": "toAddress",
          "type": "address"
        },
        {
          "indexed": false,
          "internalType": "address",
          "name": "token",
          "type": "address"
        },
        {
          "indexed": false,
          "internalType": "uint256",
          "name": "amount",
          "type": "uint256"
        }
      ],
      "name": "ExecuteSelfClaimTransferERC20Transaction",
      "type": "event"
    },
    {
      "anonymous": false,
      "inputs": [
        {
          "indexed": true,
          "internalType": "uint256",
          "name": "id",
          "type": "uint256"
        },
        {
          "indexed": false,
          "internalType": "bytes[]",
          "name": "data",
          "type": "bytes[]"
        },
        {
          "indexed": false,
          "internalType": "address",
          "name": "_executor",
          "type": "address"
        }
      ],
      "name": "ExecuteTransaction",
      "type": "event"
    },
    {
      "anonymous": false,
      "inputs": [
        {
          "indexed": false,
          "internalType": "uint8",
          "name": "version",
          "type": "uint8"
        }
      ],
      "name": "Initialized",
      "type": "event"
    },
    {
      "anonymous": false,
      "inputs": [
        {
          "indexed": true,
          "internalType": "uint256",
          "name": "id",
          "type": "uint256"
        }
      ],
      "name": "RevokeTransaction",
      "type": "event"
    },
    {
      "anonymous": false,
      "inputs": [
        {
          "indexed": false,
          "internalType": "address",
          "name": "approver",
          "type": "address"
        }
      ],
      "name": "SetApprover",
      "type": "event"
    },
    {
      "inputs": [
        {
          "internalType": "address",
          "name": "",
          "type": "address"
        }
      ],
      "name": "addressesMapping",
      "outputs": [
        {
          "internalType": "bool",
          "name": "",
          "type": "bool"
        }
      ],
      "stateMutability": "view",
      "type": "function"
    },
    {
      "inputs": [],
      "name": "afterInitialized",
      "outputs": [],
      "stateMutability": "nonpayable",
      "type": "function"
    },
    {
      "inputs": [],
      "name": "allowAllAddresses",
      "outputs": [
        {
          "internalType": "bool",
          "name": "",
          "type": "bool"
        }
      ],
      "stateMutability": "view",
      "type": "function"
    },
    {
      "inputs": [],
      "name": "allowAllTokens",
      "outputs": [
        {
          "internalType": "bool",
          "name": "",
          "type": "bool"
        }
      ],
      "stateMutability": "view",
      "type": "function"
    },
    {
      "inputs": [],
      "name": "allowUnlimitedUsageCount",
      "outputs": [
        {
          "internalType": "bool",
          "name": "",
          "type": "bool"
        }
      ],
      "stateMutability": "view",
      "type": "function"
    },
    {
      "inputs": [
        {
          "internalType": "uint256",
          "name": "id",
          "type": "uint256"
        },
        {
          "internalType": "string",
          "name": "comment",
          "type": "string"
        }
      ],
      "name": "approveTransaction",
      "outputs": [],
      "stateMutability": "nonpayable",
      "type": "function"
    },
    {
      "inputs": [],
      "name": "approverTeamId",
      "outputs": [
        {
          "internalType": "uint256",
          "name": "",
          "type": "uint256"
        }
      ],
      "stateMutability": "view",
      "type": "function"
    },
    {
      "inputs": [
        {
          "internalType": "address",
          "name": "eoa",
          "type": "address"
        }
      ],
      "name": "approversMapping",
      "outputs": [
        {
          "internalType": "bool",
          "name": "",
          "type": "bool"
        }
      ],
      "stateMutability": "view",
      "type": "function"
    },
    {
      "inputs": [
        {
          "internalType": "address",
          "name": "",
          "type": "address"
        }
      ],
      "name": "claimedAddresses",
      "outputs": [
        {
          "internalType": "bool",
          "name": "",
          "type": "bool"
        }
      ],
      "stateMutability": "view",
      "type": "function"
    },
    {
      "inputs": [
        {
          "internalType": "bytes[]",
          "name": "_data",
          "type": "bytes[]"
        },
        {
          "internalType": "uint32",
          "name": "_deadline",
          "type": "uint32"
        },
        {
          "internalType": "bool",
          "name": "_isExecute",
          "type": "bool"
        },
        {
          "internalType": "string",
          "name": "comment",
          "type": "string"
        }
      ],
      "name": "createTransaction",
      "outputs": [
        {
          "internalType": "uint256",
          "name": "",
          "type": "uint256"
        }
      ],
      "stateMutability": "payable",
      "type": "function"
    },
    {
      "inputs": [],
      "name": "endTime",
      "outputs": [
        {
          "internalType": "uint256",
          "name": "",
          "type": "uint256"
        }
      ],
      "stateMutability": "view",
      "type": "function"
    },
    {
      "inputs": [],
      "name": "executeParams",
      "outputs": [
        {
          "internalType": "string[]",
          "name": "",
          "type": "string[]"
        }
      ],
      "stateMutability": "pure",
      "type": "function"
    },
    {
      "inputs": [
        {
          "internalType": "uint256",
          "name": "id",
          "type": "uint256"
        }
      ],
      "name": "executeTransaction",
      "outputs": [],
      "stateMutability": "payable",
      "type": "function"
    },
    {
      "inputs": [],
      "name": "executee",
      "outputs": [
        {
          "internalType": "address",
          "name": "",
          "type": "address"
        }
      ],
      "stateMutability": "view",
      "type": "function"
    },
    {
      "inputs": [],
      "name": "executor",
      "outputs": [
        {
          "internalType": "address",
          "name": "",
          "type": "address"
        }
      ],
      "stateMutability": "view",
      "type": "function"
    },
    {
      "inputs": [],
      "name": "executorTeamId",
      "outputs": [
        {
          "internalType": "uint256",
          "name": "",
          "type": "uint256"
        }
      ],
      "stateMutability": "view",
      "type": "function"
    },
    {
      "inputs": [],
      "name": "fixAmount",
      "outputs": [
        {
          "internalType": "uint256",
          "name": "",
          "type": "uint256"
        }
      ],
      "stateMutability": "view",
      "type": "function"
    },
    {
      "inputs": [
        {
          "internalType": "bytes32",
          "name": "_messageHash",
          "type": "bytes32"
        }
      ],
      "name": "getEthSignedMessageHash",
      "outputs": [
        {
          "internalType": "bytes32",
          "name": "",
          "type": "bytes32"
        }
      ],
      "stateMutability": "pure",
      "type": "function"
    },
    {
      "inputs": [
        {
          "internalType": "address",
          "name": "_to",
          "type": "address"
        },
        {
          "internalType": "uint256",
          "name": "_nonce",
          "type": "uint256"
        }
      ],
      "name": "getMessageHash",
      "outputs": [
        {
          "internalType": "bytes32",
          "name": "",
          "type": "bytes32"
        }
      ],
      "stateMutability": "pure",
      "type": "function"
    },
    {
      "inputs": [
        {
          "components": [
            {
              "internalType": "address",
              "name": "executor",
              "type": "address"
            },
            {
              "internalType": "uint256",
              "name": "executorTeamId",
              "type": "uint256"
            },
            {
              "internalType": "address[]",
              "name": "approvers",
              "type": "address[]"
            },
            {
              "internalType": "uint256",
              "name": "approverTeamId",
              "type": "uint256"
            },
            {
              "internalType": "uint256",
              "name": "minApproval",
              "type": "uint256"
            },
            {
              "internalType": "string",
              "name": "text",
              "type": "string"
            },
            {
              "internalType": "string",
              "name": "transactionType",
              "type": "string"
            },
            {
              "internalType": "uint256",
              "name": "startTime",
              "type": "uint256"
            },
            {
              "internalType": "uint256",
              "name": "endTime",
              "type": "uint256"
            },
            {
              "internalType": "bool",
              "name": "allowUnlimitedUsageCount",
              "type": "bool"
            },
            {
              "internalType": "uint256",
              "name": "usageCount",
              "type": "uint256"
            }
          ],
          "internalType": "struct CommonBudgetApproval.InitializeParams",
          "name": "params",
          "type": "tuple"
        },
        {
          "internalType": "bool",
          "name": "_allowAllAddresses",
          "type": "bool"
        },
        {
          "internalType": "address[]",
          "name": "_toAddresses",
          "type": "address[]"
        },
        {
          "internalType": "bool",
          "name": "_allowAllTokens",
          "type": "bool"
        },
        {
          "internalType": "address",
          "name": "_token",
          "type": "address"
        },
        {
          "internalType": "uint256",
          "name": "_fixAmount",
          "type": "uint256"
        },
        {
          "internalType": "address",
          "name": "_validator",
          "type": "address"
        }
      ],
      "name": "initialize",
      "outputs": [],
      "stateMutability": "nonpayable",
      "type": "function"
    },
    {
      "inputs": [],
      "name": "minApproval",
      "outputs": [
        {
          "internalType": "uint256",
          "name": "",
          "type": "uint256"
        }
      ],
      "stateMutability": "view",
      "type": "function"
    },
    {
      "inputs": [],
      "name": "name",
      "outputs": [
        {
          "internalType": "string",
          "name": "",
          "type": "string"
        }
      ],
      "stateMutability": "view",
      "type": "function"
    },
    {
      "inputs": [
        {
          "internalType": "uint256",
          "name": "id",
          "type": "uint256"
        }
      ],
      "name": "revokeTransaction",
      "outputs": [],
      "stateMutability": "nonpayable",
      "type": "function"
    },
    {
      "inputs": [],
      "name": "startTime",
      "outputs": [
        {
          "internalType": "uint256",
          "name": "",
          "type": "uint256"
        }
      ],
      "stateMutability": "view",
      "type": "function"
    },
    {
      "inputs": [],
      "name": "team",
      "outputs": [
        {
          "internalType": "address",
          "name": "",
          "type": "address"
        }
      ],
      "stateMutability": "view",
      "type": "function"
    },
    {
      "inputs": [],
      "name": "text",
      "outputs": [
        {
          "internalType": "string",
          "name": "",
          "type": "string"
        }
      ],
      "stateMutability": "view",
      "type": "function"
    },
    {
      "inputs": [],
      "name": "token",
      "outputs": [
        {
          "internalType": "address",
          "name": "",
          "type": "address"
        }
      ],
      "stateMutability": "view",
      "type": "function"
    },
    {
      "inputs": [],
      "name": "transactionType",
      "outputs": [
        {
          "internalType": "string",
          "name": "",
          "type": "string"
        }
      ],
      "stateMutability": "view",
      "type": "function"
    },
    {
      "inputs": [
        {
          "internalType": "uint256",
          "name": "",
          "type": "uint256"
        }
      ],
      "name": "transactions",
      "outputs": [
        {
          "internalType": "uint256",
          "name": "id",
          "type": "uint256"
        },
        {
          "internalType": "enum CommonBudgetApproval.Status",
          "name": "status",
          "type": "uint8"
        },
        {
          "internalType": "uint32",
          "name": "deadline",
          "type": "uint32"
        },
        {
          "internalType": "bool",
          "name": "isExist",
          "type": "bool"
        },
        {
          "internalType": "uint256",
          "name": "approvedCount",
          "type": "uint256"
        }
      ],
      "stateMutability": "view",
      "type": "function"
    },
    {
      "inputs": [],
      "name": "usageCount",
      "outputs": [
        {
          "internalType": "uint256",
          "name": "",
          "type": "uint256"
        }
      ],
      "stateMutability": "view",
      "type": "function"
    },
    {
      "inputs": [],
      "name": "validator",
      "outputs": [
        {
          "internalType": "address",
          "name": "",
          "type": "address"
        }
      ],
      "stateMutability": "view",
      "type": "function"
    },
    {
      "inputs": [
        {
          "internalType": "address",
          "name": "_signer",
          "type": "address"
        },
        {
          "internalType": "address",
          "name": "_to",
          "type": "address"
        },
        {
          "internalType": "uint256",
          "name": "_nonce",
          "type": "uint256"
        },
        {
          "internalType": "bytes",
          "name": "signature",
          "type": "bytes"
        }
      ],
      "name": "verify",
      "outputs": [
        {
          "internalType": "bool",
          "name": "",
          "type": "bool"
        }
      ],
      "stateMutability": "pure",
      "type": "function"
    }
  ],
  "transactionHash": "0xaa0fb2a8bb4df0eae66d5089fcf324ecda448b63cc452b30ff77afac10012475",
  "args": [],
  "numDeployments": 3,
  "solcInputHash": "8e6bc07d7b24fb1ae36cf9991759ebab",
  "bytecode": "0x60806040523480156200001157600080fd5b506200001c6200002c565b620000266200002c565b620000ee565b600054610100900460ff1615620000995760405162461bcd60e51b815260206004820152602760248201527f496e697469616c697a61626c653a20636f6e747261637420697320696e697469604482015266616c697a696e6760c81b606482015260840160405180910390fd5b60005460ff9081161015620000ec576000805460ff191660ff9081179091556040519081527f7f26b83ff96e1f2b6a682f133852f6798a09c465da95921460cefb38474024989060200160405180910390a15b565b61278f80620000fe6000396000f3fe6080604052600436106101e35760003560e01c80638d1c5c2911610102578063cf26fec611610095578063f1429a9611610064578063f1429a96146105a2578063f5c03852146105d2578063fa540801146105f0578063fc0c546a1461061057600080fd5b8063cf26fec614610550578063d96c919614610565578063de755e2f1461057a578063ee22610b1461058f57600080fd5b8063b617b3ee116100d1578063b617b3ee146104de578063c34c08e5146104f8578063cd753b6c14610516578063cec90f2c1461053057600080fd5b80638d1c5c291461040257806393e9f8fc1461043257806397c85a61146104525780639ace38c21461047257600080fd5b806350bd881f1161017a578063735631ad11610149578063735631ad146103a157806378e97925146103c35780637cd47d93146103d857806385f2aef2146103ed57600080fd5b806350bd881f1461030f578063512c91df146103245780635ad32502146103445780636bdebe5e1461036857600080fd5b80633197cbb6116101b65780633197cbb61461028a57806331a7bdd91461029f578063345ac602146102c15780633a5381b5146102d757600080fd5b806303ff90f6146101e857806306fdde031461020c57806314b893f9146102625780631f1bd69214610275575b600080fd5b3480156101f457600080fd5b506008545b6040519081526020015b60405180910390f35b34801561021857600080fd5b506102556040518060400160405280602081526020017f53656c6620436c61696d2045524332302042756467657420417070726f76616c81525081565b60405161020391906124cc565b6101f9610270366004611fc8565b610635565b34801561028157600080fd5b50610255610756565b34801561029657600080fd5b50600e546101f9565b3480156102ab57600080fd5b506102b46107e8565b604051610203919061246a565b3480156102cd57600080fd5b506101f960135481565b3480156102e357600080fd5b506014546102f7906001600160a01b031681565b6040516001600160a01b039091168152602001610203565b34801561031b57600080fd5b50600c546101f9565b34801561033057600080fd5b506101f961033f366004611f9c565b6108eb565b34801561035057600080fd5b50600b5460ff165b6040519015158152602001610203565b34801561037457600080fd5b50610358610383366004611e95565b6001600160a01b031660009081526006602052604090205460ff1690565b3480156103ad57600080fd5b506103c16103bc3660046120e7565b610932565b005b3480156103cf57600080fd5b50600d546101f9565b3480156103e457600080fd5b506102556109f9565b3480156103f957600080fd5b506102f7610a08565b34801561040e57600080fd5b5061035861041d366004611e95565b60106020526000908152604090205460ff1681565b34801561043e57600080fd5b5061035861044d366004611f30565b610a91565b34801561045e57600080fd5b506103c161046d36600461226e565b610ad6565b34801561047e57600080fd5b506104cd61048d3660046120e7565b600260208190526000918252604090912080549181015460039091015460ff8083169263ffffffff61010082041692650100000000009091049091169085565b6040516102039594939291906124f3565b3480156104ea57600080fd5b50600f546103589060ff1681565b34801561050457600080fd5b506003546001600160a01b03166102f7565b34801561052257600080fd5b506012546103589060ff1681565b34801561053c57600080fd5b506103c161054b366004612135565b610c8d565b34801561055c57600080fd5b506103c1610e47565b34801561057157600080fd5b506007546101f9565b34801561058657600080fd5b506004546101f9565b6103c161059d3660046120e7565b610e74565b3480156105ae57600080fd5b506103586105bd366004611e95565b60116020526000908152604090205460ff1681565b3480156105de57600080fd5b506005546001600160a01b03166102f7565b3480156105fc57600080fd5b506101f961060b3660046120e7565b61113b565b34801561061c57600080fd5b506012546102f79061010090046001600160a01b031681565b6000610645600180546001019055565b600061065060015490565b600081815260026020908152604090912082815589519293509161067c916001840191908b0190611bbf565b506002810180546501000000000065ffffffffff001990911661010063ffffffff8b160265ff00000000001916171790556008546106d657600082815260026020819052604090912001805460ff191660011790556106f1565b600082815260026020819052604090912001805460ff191690555b600281015460405183917f8a5186dbaf6f344b2837e11834be94edebb633f05034f422c6b1fe1595b4d0cc91610734918c918c9160ff16908b908b90339061240f565b60405180910390a2851561074b5761074b82610e74565b509695505050505050565b60606009805461076590612696565b80601f016020809104026020016040519081016040528092919081815260200182805461079190612696565b80156107de5780601f106107b3576101008083540402835291602001916107de565b820191906000526020600020905b8154815290600101906020018083116107c157829003601f168201915b5050505050905090565b6040805160038082526080820190925260609160009190816020015b60608152602001906001900390816108045790505090506040518060400160405280600a8152602001696164647265737320746f60b01b8152508160008151811061085157610851612718565b60200260200101819052506040518060400160405280600d81526020016c75696e74323536206e6f6e636560981b8152508160018151811061089557610895612718565b60200260200101819052506040518060400160405280600f81526020016e6279746573207369676e617475726560881b815250816002815181106108db576108db612718565b6020908102919091010152919050565b6040516bffffffffffffffffffffffff19606084901b1660208201526034810182905260009060540160405160208183030381529060405280519060200120905092915050565b8061093c60015490565b101561096357604051630761edaf60e51b8152600481018290526024015b60405180910390fd5b600081815260026020819052604090912081015460ff169081600381111561098d5761098d612702565b14156109b0578181604051637006f4f960e11b815260040161095a9291906124df565b6000828152600260208190526040808320909101805460ff191660031790555183917f92a917be073b79ab50f9d997e9514a5d101e052ce04228014947e7883a7c034691a25050565b6060600a805461076590612696565b6000610a1c6005546001600160a01b031690565b6001600160a01b03166385f2aef26040518163ffffffff1660e01b815260040160206040518083038186803b158015610a5457600080fd5b505afa158015610a68573d6000803e3d6000fd5b505050506040513d601f19601f82011682018060405250810190610a8c9190611eb9565b905090565b600080610a9e85856108eb565b90506000610aab8261113b565b9050866001600160a01b0316610ac1828661118e565b6001600160a01b031614979650505050505050565b610adf336111b2565b610afc576040516321d9821d60e01b815260040160405180910390fd5b82610b0660015490565b1015610b2857604051630761edaf60e51b81526004810184905260240161095a565b600083815260026020819052604082209081015460039091015460ff9091169190610b54906001612637565b90506000826003811115610b6a57610b6a612702565b14158015610b8a57506001826003811115610b8757610b87612702565b14155b15610bac578482604051637006f4f960e11b815260040161095a9291906124df565b600085815260026020908152604080832033845260040190915290205460ff1615610bea57604051634b1a897d60e01b815260040160405180910390fd5b6000858152600260208181526040808420338552600481018352908420805460ff191660011790559288905252600301819055610c2660085490565b8110610c4a57600085815260026020819052604090912001805460ff191660011790555b847f3399030f87676a97e30e211a48f9c46e2ff806d0b4cedf7100782f08c52902c9338686604051610c7e939291906123b7565b60405180910390a25050505050565b600054610100900460ff1615808015610cad5750600054600160ff909116105b80610cc75750303b158015610cc7575060005460ff166001145b610d2a5760405162461bcd60e51b815260206004820152602e60248201527f496e697469616c697a61626c653a20636f6e747261637420697320616c72656160448201526d191e481a5b9a5d1a585b1a5e995960921b606482015260840161095a565b6000805460ff191660011790558015610d4d576000805461ff0019166101001790555b610d56886111ec565b600f805460ff191688151517905560005b8651811015610da457610d92878281518110610d8557610d85612718565b6020026020010151611492565b80610d9c816126d1565b915050610d67565b50601280546001600160a81b031916861515610100600160a81b031916176101006001600160a01b0387811691909102919091179091556013849055601480546001600160a01b0319169184169190911790558015610e3d576000805461ff0019169055604051600181527f7f26b83ff96e1f2b6a682f133852f6798a09c465da95921460cefb38474024989060200160405180910390a15b5050505050505050565b6005546001600160a01b03163314610e725760405163668faa7560e01b815260040160405180910390fd5b565b60008181526002602081905260409091200154819060019060ff1681816003811115610ea257610ea2612702565b14610ec4578281604051637006f4f960e11b815260040161095a9291906124df565b600084815260026020819052604090912001548490610100900463ffffffff16421115610f0757604051636634e92360e01b81526004810182905260240161095a565b600d54421015610f2a576040516319b9482d60e31b815260040160405180910390fd5b600e544210610f4b576040516268af4b60e91b815260040160405180910390fd5b6000610f59600b5460ff1690565b90506000610f66600c5490565b9050600060026000898152602001908152602001600020600101805480602002602001604051908101604052809291908181526020016000905b8282101561104c578382906000526020600020018054610fbf90612696565b80601f0160208091040260200160405190810160405280929190818152602001828054610feb90612696565b80156110385780601f1061100d57610100808354040283529160200191611038565b820191906000526020600020905b81548152906001019060200180831161101b57829003601f168201915b505050505081526020019060010190610fa0565b50505050905060005b81518110156110d0578315801561106a575082155b156110885760405163a5be600560e01b815260040160405180910390fd5b8361109b57826110978161267f565b9350505b6110be898383815181106110b1576110b1612718565b6020026020010151611526565b806110c8816126d1565b915050611055565b50600c82905560008881526002602081905260409091208101805460ff19166001830217905550877f9060adf413860c5ab6e376e0aa4269e49a13f0853edb1583fce8129d4c756d7982336040516111299291906123e5565b60405180910390a25050505050505050565b6040517f19457468657265756d205369676e6564204d6573736167653a0a3332000000006020820152603c8101829052600090605c01604051602081830303815290604052805190602001209050919050565b600080600061119d858561183e565b915091506111aa81611884565b509392505050565b6001600160a01b03811660009081526006602052604081205460ff16806111e657506111e6826111e160075490565b611a3f565b92915050565b600054610100900460ff166112575760405162461bcd60e51b815260206004820152602b60248201527f496e697469616c697a61626c653a20636f6e7472616374206973206e6f74206960448201526a6e697469616c697a696e6760a81b606482015260840161095a565b606081013515801561127a57506112716040820182612529565b90508160800135115b1561129857604051635039c6e160e01b815260040160405180910390fd5b600580546001600160a01b031916331790556112b76020820182611e95565b600380546001600160a01b0319166001600160a01b03929092169190911790556112e460a0820182612573565b6112f091600991611c1c565b506112fe60c0820182612573565b61130a91600a91611c1c565b50608081013560085560e0810135600d55610100810135600e55611336610140820161012083016120cc565b600b805460ff1916911515919091179055610140810135600c556020810135600455606081013560075560005b6113706040830183612529565b905081101561145c5760016006600061138c6040860186612529565b8581811061139c5761139c612718565b90506020020160208101906113b19190611e95565b6001600160a01b0316815260208101919091526040908101600020805460ff1916921515929092179091557f4664777dbfbcb27de0f602e1da5d5a259992cd7edf5b29192929c96e8fd50def9061140a90840184612529565b8381811061141a5761141a612718565b905060200201602081019061142f9190611e95565b6040516001600160a01b03909116815260200160405180910390a180611454816126d1565b915050611363565b506000611467610a08565b6001600160a01b0316141561148f576040516309ec7e6960e41b815260040160405180910390fd5b50565b6001600160a01b03811660009081526010602052604090205460ff16156114cc57604051635a91d40360e01b815260040160405180910390fd5b6001600160a01b038116600081815260106020908152604091829020805460ff1916600117905590519182527ff11283a265d7a5f95fbc149dc65464f1f5be0151aac387fd76a938e1e5584604910160405180910390a150565b60008060008380602001905181019061153f9190611ed6565b60145492955090935091506001600160a01b0316158015906115765750601454611574906001600160a01b0316848484610a91565b155b156115945760405163d7b5c41960e01b815260040160405180910390fd5b60125461010090046001600160a01b03166110101415611658576005546001600160a01b031660135460405163d3abc28b60e01b81526001600160a01b0386811660048301526060602483015260006064830152604482019290925291169063d3abc28b90608401600060405180830381600087803b15801561161657600080fd5b505af115801561162a573d6000803e3d6000fd5b505050506040513d6000823e601f3d908101601f191682016040526116529190810190612100565b50611731565b601354604080516001600160a01b03868116602483015260448083019490945282518083039094018452606490910182526020830180516001600160e01b031663a9059cbb60e01b179052600554601254925163d3abc28b60e01b81529082169263d3abc28b926116d89261010090920416908590600090600401612383565b600060405180830381600087803b1580156116f257600080fd5b505af1158015611706573d6000803e3d6000fd5b505050506040513d6000823e601f3d908101601f1916820160405261172e9190810190612100565b50505b600f5460ff1615801561175d57506001600160a01b03831660009081526010602052604090205460ff16155b1561177b576040516317b4cc9360e21b815260040160405180910390fd5b6001600160a01b03831660009081526011602052604090205460ff16156117b45760405162998b1160e31b815260040160405180910390fd5b6001600160a01b0380841660008181526011602052604090819020805460ff191660011790556012546013549151929333938a937f6430b1b7296ad9980436d3909b2c0e82dad882c51353dad855349d84f28834b29361182f9361010090910416916001600160a01b03929092168252602082015260400190565b60405180910390a45050505050565b6000808251604114156118755760208301516040840151606085015160001a61186987828585611ad2565b9450945050505061187d565b506000905060025b9250929050565b600081600481111561189857611898612702565b14156118a15750565b60018160048111156118b5576118b5612702565b14156119035760405162461bcd60e51b815260206004820152601860248201527f45434453413a20696e76616c6964207369676e61747572650000000000000000604482015260640161095a565b600281600481111561191757611917612702565b14156119655760405162461bcd60e51b815260206004820152601f60248201527f45434453413a20696e76616c6964207369676e6174757265206c656e67746800604482015260640161095a565b600381600481111561197957611979612702565b14156119d25760405162461bcd60e51b815260206004820152602260248201527f45434453413a20696e76616c6964207369676e6174757265202773272076616c604482015261756560f01b606482015260840161095a565b60048160048111156119e6576119e6612702565b141561148f5760405162461bcd60e51b815260206004820152602260248201527f45434453413a20696e76616c6964207369676e6174757265202776272076616c604482015261756560f01b606482015260840161095a565b600080611a4a610a08565b604051627eeac760e11b81526001600160a01b03868116600483015260248201869052919091169062fdd58e9060440160206040518083038186803b158015611a9257600080fd5b505afa158015611aa6573d6000803e3d6000fd5b505050506040513d601f19601f82011682018060405250810190611aca9190612255565b119392505050565b6000807f7fffffffffffffffffffffffffffffff5d576e7357a4501ddfe92f46681b20a0831115611b095750600090506003611bb6565b8460ff16601b14158015611b2157508460ff16601c14155b15611b325750600090506004611bb6565b6040805160008082526020820180845289905260ff881692820192909252606081018690526080810185905260019060a0016020604051602081039080840390855afa158015611b86573d6000803e3d6000fd5b5050604051601f1901519150506001600160a01b038116611baf57600060019250925050611bb6565b9150600090505b94509492505050565b828054828255906000526020600020908101928215611c0c579160200282015b82811115611c0c5782518051611bfc918491602090910190611c9c565b5091602001919060010190611bdf565b50611c18929150611d10565b5090565b828054611c2890612696565b90600052602060002090601f016020900481019282611c4a5760008555611c90565b82601f10611c635782800160ff19823516178555611c90565b82800160010185558215611c90579182015b82811115611c90578235825591602001919060010190611c75565b50611c18929150611d2d565b828054611ca890612696565b90600052602060002090601f016020900481019282611cca5760008555611c90565b82601f10611ce357805160ff1916838001178555611c90565b82800160010185558215611c90579182015b82811115611c90578251825591602001919060010190611cf5565b80821115611c18576000611d248282611d42565b50600101611d10565b5b80821115611c185760008155600101611d2e565b508054611d4e90612696565b6000825580601f10611d5e575050565b601f01602090049060005260206000209081019061148f9190611d2d565b8035611d8781612744565b919050565b80358015158114611d8757600080fd5b600082601f830112611dad57600080fd5b8135611dc0611dbb8261260f565b6125ba565b818152846020838601011115611dd557600080fd5b816020850160208301376000918101602001919091529392505050565b600082601f830112611e0357600080fd5b8151611e11611dbb8261260f565b818152846020838601011115611e2657600080fd5b611e3782602083016020870161264f565b949350505050565b60008083601f840112611e5157600080fd5b50813567ffffffffffffffff811115611e6957600080fd5b60208301915083602082850101111561187d57600080fd5b803563ffffffff81168114611d8757600080fd5b600060208284031215611ea757600080fd5b8135611eb281612744565b9392505050565b600060208284031215611ecb57600080fd5b8151611eb281612744565b600080600060608486031215611eeb57600080fd5b8351611ef681612744565b60208501516040860151919450925067ffffffffffffffff811115611f1a57600080fd5b611f2686828701611df2565b9150509250925092565b60008060008060808587031215611f4657600080fd5b8435611f5181612744565b93506020850135611f6181612744565b925060408501359150606085013567ffffffffffffffff811115611f8457600080fd5b611f9087828801611d9c565b91505092959194509250565b60008060408385031215611faf57600080fd5b8235611fba81612744565b946020939093013593505050565b600080600080600060808688031215611fe057600080fd5b853567ffffffffffffffff80821115611ff857600080fd5b818801915088601f83011261200c57600080fd5b8135602061201c611dbb836125eb565b8083825282820191508286018d848660051b890101111561203c57600080fd5b60005b8581101561207657868235111561205557600080fd5b6120648f8684358b0101611d9c565b8452928401929084019060010161203f565b5050809a505050612088818b01611e81565b9750505061209860408901611d8c565b945060608801359150808211156120ae57600080fd5b506120bb88828901611e3f565b969995985093965092949392505050565b6000602082840312156120de57600080fd5b611eb282611d8c565b6000602082840312156120f957600080fd5b5035919050565b60006020828403121561211257600080fd5b815167ffffffffffffffff81111561212957600080fd5b611e3784828501611df2565b600080600080600080600060e0888a03121561215057600080fd5b873567ffffffffffffffff8082111561216857600080fd5b90890190610160828c03121561217d57600080fd5b90975060209061218e8a8301611d8c565b975060408a0135818111156121a257600080fd5b8a019050601f81018b136121b557600080fd5b80356121c3611dbb826125eb565b8082825284820191508484018e868560051b87010111156121e357600080fd5b600094505b8385101561220f5780356121fb81612744565b8352600194909401939185019185016121e8565b50809950505050505061222460608901611d8c565b935061223260808901611d7c565b925060a0880135915061224760c08901611d7c565b905092959891949750929550565b60006020828403121561226757600080fd5b5051919050565b60008060006040848603121561228357600080fd5b83359250602084013567ffffffffffffffff8111156122a157600080fd5b6122ad86828701611e3f565b9497909650939450505050565b6000815180845260208085019450848260051b860182860160005b858110156122ff5783830389526122ed83835161230c565b988501989250908401906001016122d5565b5090979650505050505050565b6000815180845261232481602086016020860161264f565b601f01601f19169290920160200192915050565b6004811061235657634e487b7160e01b600052602160045260246000fd5b9052565b81835281816020850137506000828201602090810191909152601f909101601f19169091010190565b6001600160a01b03841681526060602082018190526000906123a79083018561230c565b9050826040830152949350505050565b6001600160a01b03841681526040602082018190526000906123dc908301848661235a565b95945050505050565b6040815260006123f860408301856122ba565b905060018060a01b03831660208301529392505050565b60a08152600061242260a08301896122ba565b63ffffffff8816602084015261243b6040840188612338565b828103606084015261244e81868861235a565b91505060018060a01b0383166080830152979650505050505050565b6000602080830181845280855180835260408601915060408160051b870101925083870160005b828110156124bf57603f198886030184526124ad85835161230c565b94509285019290850190600101612491565b5092979650505050505050565b602081526000611eb2602083018461230c565b82815260408101611eb26020830184612338565b85815260a081016125076020830187612338565b63ffffffff949094166040820152911515606083015260809091015292915050565b6000808335601e1984360301811261254057600080fd5b83018035915067ffffffffffffffff82111561255b57600080fd5b6020019150600581901b360382131561187d57600080fd5b6000808335601e1984360301811261258a57600080fd5b83018035915067ffffffffffffffff8211156125a557600080fd5b60200191503681900382131561187d57600080fd5b604051601f8201601f1916810167ffffffffffffffff811182821017156125e3576125e361272e565b604052919050565b600067ffffffffffffffff8211156126055761260561272e565b5060051b60200190565b600067ffffffffffffffff8211156126295761262961272e565b50601f01601f191660200190565b6000821982111561264a5761264a6126ec565b500190565b60005b8381101561266a578181015183820152602001612652565b83811115612679576000848401525b50505050565b60008161268e5761268e6126ec565b506000190190565b600181811c908216806126aa57607f821691505b602082108114156126cb57634e487b7160e01b600052602260045260246000fd5b50919050565b60006000198214156126e5576126e56126ec565b5060010190565b634e487b7160e01b600052601160045260246000fd5b634e487b7160e01b600052602160045260246000fd5b634e487b7160e01b600052603260045260246000fd5b634e487b7160e01b600052604160045260246000fd5b6001600160a01b038116811461148f57600080fdfea2646970667358221220e1846f9107db379c0661c506364ea3601bd4413291d119a954ab565bbe42566864736f6c63430008070033",
  "devdoc": {
    "kind": "dev",
    "methods": {
      "constructor": {
        "custom:oz-upgrades-unsafe-allow": "constructor"
      },
      "initialize((address,uint256,address[],uint256,uint256,string,string,uint256,uint256,bool,uint256),bool,address[],bool,address,uint256,address)": {
        "details": "Initializes the budget approval with the given parameters.",
        "params": {
          "_allowAllAddresses": "If set to true, any address can receive.",
          "_allowAllTokens": "If set to true, any token can be used.",
          "_fixAmount": "Maximum amount that can be claimed for each receiver.",
          "_toAddresses": "Array of whitelisted addresses that are allowed to receive.",
          "_token": "Address of the token to be used.",
          "_validator": "Address of the validator.",
          "params": "Initialization parameters."
        }
      }
    },
    "version": 1
  },
  "userdoc": {
    "kind": "user",
    "methods": {},
    "notice": "SelfClaimERC20BudgetApproval Contract This contract is a budget approval for self claimed transactions for ERC20 tokens. It implements the CommonBudgetApproval contract and the IBudgetApprovalExecutee interface. The transactions must be signed by a validator and are subject to conditions such as recipient address whitelist and claim amount limit.*",
    "version": 1
  },
  "storageLayout": {
    "storage": [
      {
        "astId": 3247,
        "contract": "contracts/SelfClaimERC20BudgetApproval.sol:SelfClaimERC20BudgetApproval",
        "label": "_initialized",
        "offset": 0,
        "slot": "0",
        "type": "t_uint8"
      },
      {
        "astId": 3250,
        "contract": "contracts/SelfClaimERC20BudgetApproval.sol:SelfClaimERC20BudgetApproval",
        "label": "_initializing",
        "offset": 1,
        "slot": "0",
        "type": "t_bool"
      },
      {
        "astId": 33157,
        "contract": "contracts/SelfClaimERC20BudgetApproval.sol:SelfClaimERC20BudgetApproval",
        "label": "_transactionIds",
        "offset": 0,
        "slot": "1",
        "type": "t_struct(Counter)17376_storage"
      },
      {
        "astId": 33162,
        "contract": "contracts/SelfClaimERC20BudgetApproval.sol:SelfClaimERC20BudgetApproval",
        "label": "transactions",
        "offset": 0,
        "slot": "2",
        "type": "t_mapping(t_uint256,t_struct(Transaction)33101_storage)"
      },
      {
        "astId": 33164,
        "contract": "contracts/SelfClaimERC20BudgetApproval.sol:SelfClaimERC20BudgetApproval",
        "label": "_executor",
        "offset": 0,
        "slot": "3",
        "type": "t_address"
      },
      {
        "astId": 33166,
        "contract": "contracts/SelfClaimERC20BudgetApproval.sol:SelfClaimERC20BudgetApproval",
        "label": "_executorTeamId",
        "offset": 0,
        "slot": "4",
        "type": "t_uint256"
      },
      {
        "astId": 33168,
        "contract": "contracts/SelfClaimERC20BudgetApproval.sol:SelfClaimERC20BudgetApproval",
        "label": "_executee",
        "offset": 0,
        "slot": "5",
        "type": "t_address"
      },
      {
        "astId": 33172,
        "contract": "contracts/SelfClaimERC20BudgetApproval.sol:SelfClaimERC20BudgetApproval",
        "label": "_approversMapping",
        "offset": 0,
        "slot": "6",
        "type": "t_mapping(t_address,t_bool)"
      },
      {
        "astId": 33174,
        "contract": "contracts/SelfClaimERC20BudgetApproval.sol:SelfClaimERC20BudgetApproval",
        "label": "_approverTeamId",
        "offset": 0,
        "slot": "7",
        "type": "t_uint256"
      },
      {
        "astId": 33176,
        "contract": "contracts/SelfClaimERC20BudgetApproval.sol:SelfClaimERC20BudgetApproval",
        "label": "_minApproval",
        "offset": 0,
        "slot": "8",
        "type": "t_uint256"
      },
      {
        "astId": 33178,
        "contract": "contracts/SelfClaimERC20BudgetApproval.sol:SelfClaimERC20BudgetApproval",
        "label": "_text",
        "offset": 0,
        "slot": "9",
        "type": "t_string_storage"
      },
      {
        "astId": 33180,
        "contract": "contracts/SelfClaimERC20BudgetApproval.sol:SelfClaimERC20BudgetApproval",
        "label": "_transactionType",
        "offset": 0,
        "slot": "10",
        "type": "t_string_storage"
      },
      {
        "astId": 33182,
        "contract": "contracts/SelfClaimERC20BudgetApproval.sol:SelfClaimERC20BudgetApproval",
        "label": "_allowUnlimitedUsageCount",
        "offset": 0,
        "slot": "11",
        "type": "t_bool"
      },
      {
        "astId": 33184,
        "contract": "contracts/SelfClaimERC20BudgetApproval.sol:SelfClaimERC20BudgetApproval",
        "label": "_usageCount",
        "offset": 0,
        "slot": "12",
        "type": "t_uint256"
      },
      {
        "astId": 33186,
        "contract": "contracts/SelfClaimERC20BudgetApproval.sol:SelfClaimERC20BudgetApproval",
        "label": "_startTime",
        "offset": 0,
        "slot": "13",
        "type": "t_uint256"
      },
      {
        "astId": 33188,
        "contract": "contracts/SelfClaimERC20BudgetApproval.sol:SelfClaimERC20BudgetApproval",
        "label": "_endTime",
        "offset": 0,
        "slot": "14",
        "type": "t_uint256"
      },
      {
        "astId": 28134,
        "contract": "contracts/SelfClaimERC20BudgetApproval.sol:SelfClaimERC20BudgetApproval",
        "label": "allowAllAddresses",
        "offset": 0,
        "slot": "15",
        "type": "t_bool"
      },
      {
        "astId": 28138,
        "contract": "contracts/SelfClaimERC20BudgetApproval.sol:SelfClaimERC20BudgetApproval",
        "label": "addressesMapping",
        "offset": 0,
        "slot": "16",
        "type": "t_mapping(t_address,t_bool)"
      },
      {
        "astId": 28142,
        "contract": "contracts/SelfClaimERC20BudgetApproval.sol:SelfClaimERC20BudgetApproval",
        "label": "claimedAddresses",
        "offset": 0,
        "slot": "17",
        "type": "t_mapping(t_address,t_bool)"
      },
      {
        "astId": 28144,
        "contract": "contracts/SelfClaimERC20BudgetApproval.sol:SelfClaimERC20BudgetApproval",
        "label": "allowAllTokens",
        "offset": 0,
        "slot": "18",
        "type": "t_bool"
      },
      {
        "astId": 28146,
        "contract": "contracts/SelfClaimERC20BudgetApproval.sol:SelfClaimERC20BudgetApproval",
        "label": "token",
        "offset": 1,
        "slot": "18",
        "type": "t_address"
      },
      {
        "astId": 28148,
        "contract": "contracts/SelfClaimERC20BudgetApproval.sol:SelfClaimERC20BudgetApproval",
        "label": "fixAmount",
        "offset": 0,
        "slot": "19",
        "type": "t_uint256"
      },
      {
        "astId": 28150,
        "contract": "contracts/SelfClaimERC20BudgetApproval.sol:SelfClaimERC20BudgetApproval",
        "label": "validator",
        "offset": 0,
        "slot": "20",
        "type": "t_address"
      }
    ],
    "types": {
      "t_address": {
        "encoding": "inplace",
        "label": "address",
        "numberOfBytes": "20"
      },
      "t_array(t_bytes_storage)dyn_storage": {
        "base": "t_bytes_storage",
        "encoding": "dynamic_array",
        "label": "bytes[]",
        "numberOfBytes": "32"
      },
      "t_bool": {
        "encoding": "inplace",
        "label": "bool",
        "numberOfBytes": "1"
      },
      "t_bytes_storage": {
        "encoding": "bytes",
        "label": "bytes",
        "numberOfBytes": "32"
      },
      "t_enum(Status)33082": {
        "encoding": "inplace",
        "label": "enum CommonBudgetApproval.Status",
        "numberOfBytes": "1"
      },
      "t_mapping(t_address,t_bool)": {
        "encoding": "mapping",
        "key": "t_address",
        "label": "mapping(address => bool)",
        "numberOfBytes": "32",
        "value": "t_bool"
      },
      "t_mapping(t_uint256,t_struct(Transaction)33101_storage)": {
        "encoding": "mapping",
        "key": "t_uint256",
        "label": "mapping(uint256 => struct CommonBudgetApproval.Transaction)",
        "numberOfBytes": "32",
        "value": "t_struct(Transaction)33101_storage"
      },
      "t_string_storage": {
        "encoding": "bytes",
        "label": "string",
        "numberOfBytes": "32"
      },
      "t_struct(Counter)17376_storage": {
        "encoding": "inplace",
        "label": "struct Counters.Counter",
        "members": [
          {
            "astId": 17375,
            "contract": "contracts/SelfClaimERC20BudgetApproval.sol:SelfClaimERC20BudgetApproval",
            "label": "_value",
            "offset": 0,
            "slot": "0",
            "type": "t_uint256"
          }
        ],
        "numberOfBytes": "32"
      },
      "t_struct(Transaction)33101_storage": {
        "encoding": "inplace",
        "label": "struct CommonBudgetApproval.Transaction",
        "members": [
          {
            "astId": 33084,
            "contract": "contracts/SelfClaimERC20BudgetApproval.sol:SelfClaimERC20BudgetApproval",
            "label": "id",
            "offset": 0,
            "slot": "0",
            "type": "t_uint256"
          },
          {
            "astId": 33087,
            "contract": "contracts/SelfClaimERC20BudgetApproval.sol:SelfClaimERC20BudgetApproval",
            "label": "data",
            "offset": 0,
            "slot": "1",
            "type": "t_array(t_bytes_storage)dyn_storage"
          },
          {
            "astId": 33090,
            "contract": "contracts/SelfClaimERC20BudgetApproval.sol:SelfClaimERC20BudgetApproval",
            "label": "status",
            "offset": 0,
            "slot": "2",
            "type": "t_enum(Status)33082"
          },
          {
            "astId": 33092,
            "contract": "contracts/SelfClaimERC20BudgetApproval.sol:SelfClaimERC20BudgetApproval",
            "label": "deadline",
            "offset": 1,
            "slot": "2",
            "type": "t_uint32"
          },
          {
            "astId": 33094,
            "contract": "contracts/SelfClaimERC20BudgetApproval.sol:SelfClaimERC20BudgetApproval",
            "label": "isExist",
            "offset": 5,
            "slot": "2",
            "type": "t_bool"
          },
          {
            "astId": 33096,
            "contract": "contracts/SelfClaimERC20BudgetApproval.sol:SelfClaimERC20BudgetApproval",
            "label": "approvedCount",
            "offset": 0,
            "slot": "3",
            "type": "t_uint256"
          },
          {
            "astId": 33100,
            "contract": "contracts/SelfClaimERC20BudgetApproval.sol:SelfClaimERC20BudgetApproval",
            "label": "approved",
            "offset": 0,
            "slot": "4",
            "type": "t_mapping(t_address,t_bool)"
          }
        ],
        "numberOfBytes": "160"
      },
      "t_uint256": {
        "encoding": "inplace",
        "label": "uint256",
        "numberOfBytes": "32"
      },
      "t_uint32": {
        "encoding": "inplace",
        "label": "uint32",
        "numberOfBytes": "4"
      },
      "t_uint8": {
        "encoding": "inplace",
        "label": "uint8",
        "numberOfBytes": "1"
      }
    }
  }
}