{
  "address": "0x8044375a746C5CC68df101a08E8c99712A709c05",
  "abi": [
    {
      "inputs": [],
      "stateMutability": "nonpayable",
      "type": "constructor"
    },
    {
      "inputs": [],
      "name": "AccountingSystemRequired",
      "type": "error"
    },
    {
      "inputs": [],
      "name": "ActionDuplicated",
      "type": "error"
    },
    {
      "inputs": [],
      "name": "AmountLimitExceeded",
      "type": "error"
    },
    {
      "inputs": [],
      "name": "BudgetHasEnded",
      "type": "error"
    },
    {
      "inputs": [],
      "name": "BudgetNotStarted",
      "type": "error"
    },
    {
      "inputs": [],
      "name": "BudgetUsageExceeded",
      "type": "error"
    },
    {
      "inputs": [],
      "name": "InvalidAmountZero",
      "type": "error"
    },
    {
      "inputs": [],
      "name": "InvalidApproverList",
      "type": "error"
    },
    {
      "inputs": [],
      "name": "InvalidExecuteeTeam",
      "type": "error"
    },
    {
      "inputs": [
        {
          "internalType": "address",
          "name": "recipient",
          "type": "address"
        }
      ],
      "name": "InvalidRecipient",
      "type": "error"
    },
    {
      "inputs": [
        {
          "internalType": "address",
          "name": "_token",
          "type": "address"
        }
      ],
      "name": "InvalidToken",
      "type": "error"
    },
    {
      "inputs": [
        {
          "internalType": "uint256",
          "name": "id",
          "type": "uint256"
        }
      ],
      "name": "InvalidTransactionId",
      "type": "error"
    },
    {
      "inputs": [
        {
          "internalType": "uint256",
          "name": "id",
          "type": "uint256"
        },
        {
          "internalType": "enum CommonBudgetApproval.Status",
          "name": "status",
          "type": "uint8"
        }
      ],
      "name": "InvalidTransactionStatus",
      "type": "error"
    },
    {
      "inputs": [
        {
          "internalType": "address",
          "name": "asset",
          "type": "address"
        },
        {
          "internalType": "address",
          "name": "base",
          "type": "address"
        }
      ],
      "name": "PairNotSupport",
      "type": "error"
    },
    {
      "inputs": [
        {
          "internalType": "address",
          "name": "recipient",
          "type": "address"
        }
      ],
      "name": "RecipientAlreadyAdded",
      "type": "error"
    },
    {
      "inputs": [
        {
          "internalType": "uint256",
          "name": "teamId",
          "type": "uint256"
        }
      ],
      "name": "TeamAlreadyAdded",
      "type": "error"
    },
    {
      "inputs": [
        {
          "internalType": "address",
          "name": "_token",
          "type": "address"
        }
      ],
      "name": "TokenAlreadyAdded",
      "type": "error"
    },
    {
      "inputs": [
        {
          "internalType": "uint256",
          "name": "id",
          "type": "uint256"
        }
      ],
      "name": "TransactionExpired",
      "type": "error"
    },
    {
      "inputs": [],
      "name": "UnauthorizedApprover",
      "type": "error"
    },
    {
      "inputs": [],
      "name": "UnauthorizedExecutee",
      "type": "error"
    },
    {
      "inputs": [],
      "name": "UnauthorizedExecutor",
      "type": "error"
    },
    {
      "inputs": [
        {
          "internalType": "address",
          "name": "_token",
          "type": "address"
        }
      ],
      "name": "UnresolvableToken",
      "type": "error"
    },
    {
      "anonymous": false,
      "inputs": [
        {
          "indexed": false,
          "internalType": "address",
          "name": "target",
          "type": "address"
        }
      ],
      "name": "AllowAddress",
      "type": "event"
    },
    {
      "anonymous": false,
      "inputs": [
        {
          "indexed": false,
          "internalType": "uint256",
          "name": "amount",
          "type": "uint256"
        }
      ],
      "name": "AllowAmount",
      "type": "event"
    },
    {
      "anonymous": false,
      "inputs": [
        {
          "indexed": true,
          "internalType": "uint256",
          "name": "teamId",
          "type": "uint256"
        }
      ],
      "name": "AllowTeam",
      "type": "event"
    },
    {
      "anonymous": false,
      "inputs": [
        {
          "indexed": false,
          "internalType": "address",
          "name": "token",
          "type": "address"
        }
      ],
      "name": "AllowToken",
      "type": "event"
    },
    {
      "anonymous": false,
      "inputs": [
        {
          "indexed": true,
          "internalType": "uint256",
          "name": "id",
          "type": "uint256"
        },
        {
          "indexed": false,
          "internalType": "address",
          "name": "approver",
          "type": "address"
        },
        {
          "indexed": false,
          "internalType": "string",
          "name": "comment",
          "type": "string"
        }
      ],
      "name": "ApproveTransaction",
      "type": "event"
    },
    {
      "anonymous": false,
      "inputs": [
        {
          "indexed": true,
          "internalType": "uint256",
          "name": "id",
          "type": "uint256"
        },
        {
          "indexed": false,
          "internalType": "bytes[]",
          "name": "data",
          "type": "bytes[]"
        },
        {
          "indexed": false,
          "internalType": "uint256",
          "name": "deadline",
          "type": "uint256"
        },
        {
          "indexed": false,
          "internalType": "enum CommonBudgetApproval.Status",
          "name": "status",
          "type": "uint8"
        },
        {
          "indexed": false,
          "internalType": "string",
          "name": "comment",
          "type": "string"
        },
        {
          "indexed": false,
          "internalType": "address",
          "name": "creator",
          "type": "address"
        }
      ],
      "name": "CreateTransaction",
      "type": "event"
    },
    {
      "anonymous": false,
      "inputs": [
        {
          "indexed": true,
          "internalType": "uint256",
          "name": "id",
          "type": "uint256"
        },
        {
          "indexed": false,
          "internalType": "bytes[]",
          "name": "data",
          "type": "bytes[]"
        },
        {
          "indexed": false,
          "internalType": "address",
          "name": "_executor",
          "type": "address"
        }
      ],
      "name": "ExecuteTransaction",
      "type": "event"
    },
    {
      "anonymous": false,
      "inputs": [
        {
          "indexed": true,
          "internalType": "uint256",
          "name": "id",
          "type": "uint256"
        },
        {
          "indexed": true,
          "internalType": "address",
          "name": "executor",
          "type": "address"
        },
        {
          "indexed": true,
          "internalType": "address",
          "name": "toAddress",
          "type": "address"
        },
        {
          "indexed": false,
          "internalType": "address",
          "name": "token",
          "type": "address"
        },
        {
          "indexed": false,
          "internalType": "uint256",
          "name": "amount",
          "type": "uint256"
        }
      ],
      "name": "ExecuteTransferLiquidERC20Transaction",
      "type": "event"
    },
    {
      "anonymous": false,
      "inputs": [
        {
          "indexed": false,
          "internalType": "uint8",
          "name": "version",
          "type": "uint8"
        }
      ],
      "name": "Initialized",
      "type": "event"
    },
    {
      "anonymous": false,
      "inputs": [
        {
          "indexed": true,
          "internalType": "uint256",
          "name": "id",
          "type": "uint256"
        }
      ],
      "name": "RevokeTransaction",
      "type": "event"
    },
    {
      "anonymous": false,
      "inputs": [
        {
          "indexed": false,
          "internalType": "address",
          "name": "approver",
          "type": "address"
        }
      ],
      "name": "SetApprover",
      "type": "event"
    },
    {
      "inputs": [],
      "name": "accountingSystem",
      "outputs": [
        {
          "internalType": "address",
          "name": "",
          "type": "address"
        }
      ],
      "stateMutability": "view",
      "type": "function"
    },
    {
      "inputs": [
        {
          "internalType": "address",
          "name": "",
          "type": "address"
        }
      ],
      "name": "addressesMapping",
      "outputs": [
        {
          "internalType": "bool",
          "name": "",
          "type": "bool"
        }
      ],
      "stateMutability": "view",
      "type": "function"
    },
    {
      "inputs": [],
      "name": "afterInitialized",
      "outputs": [],
      "stateMutability": "nonpayable",
      "type": "function"
    },
    {
      "inputs": [],
      "name": "allowAllAddresses",
      "outputs": [
        {
          "internalType": "bool",
          "name": "",
          "type": "bool"
        }
      ],
      "stateMutability": "view",
      "type": "function"
    },
    {
      "inputs": [],
      "name": "allowAnyAmount",
      "outputs": [
        {
          "internalType": "bool",
          "name": "",
          "type": "bool"
        }
      ],
      "stateMutability": "view",
      "type": "function"
    },
    {
      "inputs": [],
      "name": "allowUnlimitedUsageCount",
      "outputs": [
        {
          "internalType": "bool",
          "name": "",
          "type": "bool"
        }
      ],
      "stateMutability": "view",
      "type": "function"
    },
    {
      "inputs": [
        {
          "internalType": "uint256",
          "name": "id",
          "type": "uint256"
        },
        {
          "internalType": "string",
          "name": "comment",
          "type": "string"
        }
      ],
      "name": "approveTransaction",
      "outputs": [],
      "stateMutability": "nonpayable",
      "type": "function"
    },
    {
      "inputs": [],
      "name": "approverTeamId",
      "outputs": [
        {
          "internalType": "uint256",
          "name": "",
          "type": "uint256"
        }
      ],
      "stateMutability": "view",
      "type": "function"
    },
    {
      "inputs": [
        {
          "internalType": "address",
          "name": "eoa",
          "type": "address"
        }
      ],
      "name": "approversMapping",
      "outputs": [
        {
          "internalType": "bool",
          "name": "",
          "type": "bool"
        }
      ],
      "stateMutability": "view",
      "type": "function"
    },
    {
      "inputs": [
        {
          "internalType": "address",
          "name": "asset",
          "type": "address"
        },
        {
          "internalType": "uint256",
          "name": "amount",
          "type": "uint256"
        }
      ],
      "name": "assetBaseCurrencyPrice",
      "outputs": [
        {
          "internalType": "uint256",
          "name": "",
          "type": "uint256"
        }
      ],
      "stateMutability": "view",
      "type": "function"
    },
    {
      "inputs": [
        {
          "internalType": "address",
          "name": "asset",
          "type": "address"
        },
        {
          "internalType": "address",
          "name": "base",
          "type": "address"
        },
        {
          "internalType": "uint256",
          "name": "amount",
          "type": "uint256"
        }
      ],
      "name": "assetPrice",
      "outputs": [
        {
          "internalType": "uint256",
          "name": "",
          "type": "uint256"
        }
      ],
      "stateMutability": "view",
      "type": "function"
    },
    {
      "inputs": [],
      "name": "baseCurrency",
      "outputs": [
        {
          "internalType": "address",
          "name": "",
          "type": "address"
        }
      ],
      "stateMutability": "view",
      "type": "function"
    },
    {
      "inputs": [],
      "name": "baseCurrencyDecimals",
      "outputs": [
        {
          "internalType": "uint8",
          "name": "",
          "type": "uint8"
        }
      ],
      "stateMutability": "view",
      "type": "function"
    },
    {
      "inputs": [
        {
          "internalType": "address",
          "name": "asset",
          "type": "address"
        }
      ],
      "name": "canResolvePrice",
      "outputs": [
        {
          "internalType": "bool",
          "name": "",
          "type": "bool"
        }
      ],
      "stateMutability": "view",
      "type": "function"
    },
    {
      "inputs": [
        {
          "internalType": "bytes[]",
          "name": "_data",
          "type": "bytes[]"
        },
        {
          "internalType": "uint32",
          "name": "_deadline",
          "type": "uint32"
        },
        {
          "internalType": "bool",
          "name": "_isExecute",
          "type": "bool"
        },
        {
          "internalType": "string",
          "name": "comment",
          "type": "string"
        }
      ],
      "name": "createTransaction",
      "outputs": [
        {
          "internalType": "uint256",
          "name": "",
          "type": "uint256"
        }
      ],
      "stateMutability": "payable",
      "type": "function"
    },
    {
      "inputs": [],
      "name": "endTime",
      "outputs": [
        {
          "internalType": "uint256",
          "name": "",
          "type": "uint256"
        }
      ],
      "stateMutability": "view",
      "type": "function"
    },
    {
      "inputs": [],
      "name": "executeParams",
      "outputs": [
        {
          "internalType": "string[]",
          "name": "",
          "type": "string[]"
        }
      ],
      "stateMutability": "pure",
      "type": "function"
    },
    {
      "inputs": [
        {
          "internalType": "uint256",
          "name": "id",
          "type": "uint256"
        }
      ],
      "name": "executeTransaction",
      "outputs": [],
      "stateMutability": "payable",
      "type": "function"
    },
    {
      "inputs": [],
      "name": "executee",
      "outputs": [
        {
          "internalType": "address",
          "name": "",
          "type": "address"
        }
      ],
      "stateMutability": "view",
      "type": "function"
    },
    {
      "inputs": [],
      "name": "executor",
      "outputs": [
        {
          "internalType": "address",
          "name": "",
          "type": "address"
        }
      ],
      "stateMutability": "view",
      "type": "function"
    },
    {
      "inputs": [],
      "name": "executorTeamId",
      "outputs": [
        {
          "internalType": "uint256",
          "name": "",
          "type": "uint256"
        }
      ],
      "stateMutability": "view",
      "type": "function"
    },
    {
      "inputs": [
        {
          "components": [
            {
              "internalType": "address",
              "name": "executor",
              "type": "address"
            },
            {
              "internalType": "uint256",
              "name": "executorTeamId",
              "type": "uint256"
            },
            {
              "internalType": "address[]",
              "name": "approvers",
              "type": "address[]"
            },
            {
              "internalType": "uint256",
              "name": "approverTeamId",
              "type": "uint256"
            },
            {
              "internalType": "uint256",
              "name": "minApproval",
              "type": "uint256"
            },
            {
              "internalType": "string",
              "name": "text",
              "type": "string"
            },
            {
              "internalType": "string",
              "name": "transactionType",
              "type": "string"
            },
            {
              "internalType": "uint256",
              "name": "startTime",
              "type": "uint256"
            },
            {
              "internalType": "uint256",
              "name": "endTime",
              "type": "uint256"
            },
            {
              "internalType": "bool",
              "name": "allowUnlimitedUsageCount",
              "type": "bool"
            },
            {
              "internalType": "uint256",
              "name": "usageCount",
              "type": "uint256"
            }
          ],
          "internalType": "struct CommonBudgetApproval.InitializeParams",
          "name": "params",
          "type": "tuple"
        },
        {
          "internalType": "bool",
          "name": "_allowAllAddresses",
          "type": "bool"
        },
        {
          "internalType": "address[]",
          "name": "_toAddresses",
          "type": "address[]"
        },
        {
          "internalType": "address[]",
          "name": "_tokens",
          "type": "address[]"
        },
        {
          "internalType": "bool",
          "name": "_allowAnyAmount",
          "type": "bool"
        },
        {
          "internalType": "uint256",
          "name": "_totalAmount",
          "type": "uint256"
        },
        {
          "internalType": "address",
          "name": "__baseCurrency",
          "type": "address"
        },
        {
          "internalType": "uint256[]",
          "name": "_toTeamIds",
          "type": "uint256[]"
        }
      ],
      "name": "initialize",
      "outputs": [],
      "stateMutability": "nonpayable",
      "type": "function"
    },
    {
      "inputs": [],
      "name": "minApproval",
      "outputs": [
        {
          "internalType": "uint256",
          "name": "",
          "type": "uint256"
        }
      ],
      "stateMutability": "view",
      "type": "function"
    },
    {
      "inputs": [],
      "name": "name",
      "outputs": [
        {
          "internalType": "string",
          "name": "",
          "type": "string"
        }
      ],
      "stateMutability": "view",
      "type": "function"
    },
    {
      "inputs": [
        {
          "internalType": "uint256",
          "name": "id",
          "type": "uint256"
        }
      ],
      "name": "revokeTransaction",
      "outputs": [],
      "stateMutability": "nonpayable",
      "type": "function"
    },
    {
      "inputs": [],
      "name": "startTime",
      "outputs": [
        {
          "internalType": "uint256",
          "name": "",
          "type": "uint256"
        }
      ],
      "stateMutability": "view",
      "type": "function"
    },
    {
      "inputs": [],
      "name": "team",
      "outputs": [
        {
          "internalType": "address",
          "name": "",
          "type": "address"
        }
      ],
      "stateMutability": "view",
      "type": "function"
    },
    {
      "inputs": [],
      "name": "text",
      "outputs": [
        {
          "internalType": "string",
          "name": "",
          "type": "string"
        }
      ],
      "stateMutability": "view",
      "type": "function"
    },
    {
      "inputs": [
        {
          "internalType": "uint256",
          "name": "",
          "type": "uint256"
        }
      ],
      "name": "toTeamIds",
      "outputs": [
        {
          "internalType": "uint256",
          "name": "",
          "type": "uint256"
        }
      ],
      "stateMutability": "view",
      "type": "function"
    },
    {
      "inputs": [
        {
          "internalType": "uint256",
          "name": "",
          "type": "uint256"
        }
      ],
      "name": "toTeamIdsMapping",
      "outputs": [
        {
          "internalType": "bool",
          "name": "",
          "type": "bool"
        }
      ],
      "stateMutability": "view",
      "type": "function"
    },
    {
      "inputs": [],
      "name": "toTeamsLength",
      "outputs": [
        {
          "internalType": "uint256",
          "name": "",
          "type": "uint256"
        }
      ],
      "stateMutability": "view",
      "type": "function"
    },
    {
      "inputs": [
        {
          "internalType": "uint256",
          "name": "",
          "type": "uint256"
        }
      ],
      "name": "tokens",
      "outputs": [
        {
          "internalType": "address",
          "name": "",
          "type": "address"
        }
      ],
      "stateMutability": "view",
      "type": "function"
    },
    {
      "inputs": [],
      "name": "tokensLength",
      "outputs": [
        {
          "internalType": "uint256",
          "name": "",
          "type": "uint256"
        }
      ],
      "stateMutability": "view",
      "type": "function"
    },
    {
      "inputs": [
        {
          "internalType": "address",
          "name": "",
          "type": "address"
        }
      ],
      "name": "tokensMapping",
      "outputs": [
        {
          "internalType": "bool",
          "name": "",
          "type": "bool"
        }
      ],
      "stateMutability": "view",
      "type": "function"
    },
    {
      "inputs": [],
      "name": "totalAmount",
      "outputs": [
        {
          "internalType": "uint256",
          "name": "",
          "type": "uint256"
        }
      ],
      "stateMutability": "view",
      "type": "function"
    },
    {
      "inputs": [],
      "name": "transactionType",
      "outputs": [
        {
          "internalType": "string",
          "name": "",
          "type": "string"
        }
      ],
      "stateMutability": "view",
      "type": "function"
    },
    {
      "inputs": [
        {
          "internalType": "uint256",
          "name": "",
          "type": "uint256"
        }
      ],
      "name": "transactions",
      "outputs": [
        {
          "internalType": "uint256",
          "name": "id",
          "type": "uint256"
        },
        {
          "internalType": "enum CommonBudgetApproval.Status",
          "name": "status",
          "type": "uint8"
        },
        {
          "internalType": "uint32",
          "name": "deadline",
          "type": "uint32"
        },
        {
          "internalType": "bool",
          "name": "isExist",
          "type": "bool"
        },
        {
          "internalType": "uint256",
          "name": "approvedCount",
          "type": "uint256"
        }
      ],
      "stateMutability": "view",
      "type": "function"
    },
    {
      "inputs": [],
      "name": "usageCount",
      "outputs": [
        {
          "internalType": "uint256",
          "name": "",
          "type": "uint256"
        }
      ],
      "stateMutability": "view",
      "type": "function"
    }
  ],
  "transactionHash": "0xf6338ac427b95a3ab2800e0572c5565abb73fa2a3fb3b819a210ed524ecf1060",
  "args": [],
  "numDeployments": 1,
  "solcInputHash": "bfdaba4376bf39fc4cc8c8d3b687367e",
  "bytecode": "0x60806040523480156200001157600080fd5b506200001c6200002c565b620000266200002c565b620000ee565b600054610100900460ff1615620000995760405162461bcd60e51b815260206004820152602760248201527f496e697469616c697a61626c653a20636f6e747261637420697320696e697469604482015266616c697a696e6760c81b606482015260840160405180910390fd5b60005460ff9081161015620000ec576000805460ff191660ff9081179091556040519081527f7f26b83ff96e1f2b6a682f133852f6798a09c465da95921460cefb38474024989060200160405180910390a15b565b612fbd80620000fe6000396000f3fe6080604052600436106102255760003560e01c80638501543711610123578063cd42c06c116100ab578063de755e2f1161006f578063de755e2f14610667578063e019c23c1461067c578063e52b4ab21461069c578063ee22610b146106cc578063f5c03852146106df57600080fd5b8063cd42c06c146105f3578063cf26fec614610613578063d92fc67b14610628578063d96c91961461063d578063dd7a07041461065257600080fd5b806397c85a61116100f257806397c85a61146105085780639ace38c214610528578063b617b3ee14610594578063bc9c5e90146105b5578063c34c08e5146105d557600080fd5b8063850154371461048b57806385f2aef2146104a55780638d1c5c29146104ba57806392a85fde146104ea57600080fd5b806350bd881f116101b15780636bdebe5e116101755780636bdebe5e146103e6578063735631ad1461041f57806378e97925146104415780637cd47d93146104565780637cddb6c31461046b57600080fd5b806350bd881f1461035d5780635ad3250214610372578063608e09121461038a57806360d8bb221461039f57806363d727dc146103bf57600080fd5b80631f1bd692116101f85780631f1bd692146102995780633197cbb6146102ae57806331a7bdd9146102c35780633d70015a146102e55780634f64b2be1461032557600080fd5b806303ff90f61461022a57806306fdde031461024e57806314b893f9146102705780631a39d8ef14610283575b600080fd5b34801561023657600080fd5b506008545b6040519081526020015b60405180910390f35b34801561025a57600080fd5b506102636106fd565b6040516102459190612cb6565b61023b61027e366004612622565b610719565b34801561028f57600080fd5b5061023b60145481565b3480156102a557600080fd5b50610263610860565b3480156102ba57600080fd5b50600e5461023b565b3480156102cf57600080fd5b506102d86108f2565b6040516102459190612c54565b3480156102f157600080fd5b50610315610300366004612538565b60126020526000908152604090205460ff1681565b6040519015158152602001610245565b34801561033157600080fd5b5061034561034036600461298e565b6109f3565b6040516001600160a01b039091168152602001610245565b34801561036957600080fd5b50600c5461023b565b34801561037e57600080fd5b50600b5460ff16610315565b34801561039657600080fd5b50610345610a1d565b3480156103ab57600080fd5b5061023b6103ba3660046125f6565b610aa6565b3480156103cb57600080fd5b506103d4610c49565b60405160ff9091168152602001610245565b3480156103f257600080fd5b50610315610401366004612538565b6001600160a01b031660009081526006602052604090205460ff1690565b34801561042b57600080fd5b5061043f61043a36600461298e565b610cfa565b005b34801561044d57600080fd5b50600d5461023b565b34801561046257600080fd5b50610263610de2565b34801561047757600080fd5b5061023b61048636600461298e565b610df1565b34801561049757600080fd5b506013546103159060ff1681565b3480156104b157600080fd5b50610345610e12565b3480156104c657600080fd5b506103156104d5366004612538565b60106020526000908152604090205460ff1681565b3480156104f657600080fd5b50600f546001600160a01b0316610345565b34801561051457600080fd5b5061043f6105233660046129c0565b610e5e565b34801561053457600080fd5b5061058361054336600461298e565b600260208190526000918252604090912080549181015460039091015460ff8083169263ffffffff61010082041692650100000000009091049091169085565b604051610245959493929190612cdd565b3480156105a057600080fd5b50600f5461031590600160a01b900460ff1681565b3480156105c157600080fd5b506103156105d0366004612538565b611015565b3480156105e157600080fd5b506003546001600160a01b0316610345565b3480156105ff57600080fd5b5061043f61060e3660046128a5565b6110be565b34801561061f57600080fd5b5061043f61130f565b34801561063457600080fd5b5060115461023b565b34801561064957600080fd5b5060075461023b565b34801561065e57600080fd5b5060155461023b565b34801561067357600080fd5b5060045461023b565b34801561068857600080fd5b5061023b6106973660046125b5565b61133c565b3480156106a857600080fd5b506103156106b736600461298e565b60166020526000908152604090205460ff1681565b61043f6106da36600461298e565b611497565b3480156106eb57600080fd5b506005546001600160a01b0316610345565b604051806060016040528060258152602001612f636025913981565b600061072433611784565b610741576040516341c8302160e11b815260040160405180910390fd5b61074f600180546001019055565b600061075a60015490565b6000818152600260209081526040909120828155895192935091610786916001840191908b0190612213565b506002810180546501000000000065ffffffffff001990911661010063ffffffff8b160265ff00000000001916171790556008546107e057600082815260026020819052604090912001805460ff191660011790556107fb565b600082815260026020819052604090912001805460ff191690555b600281015460405183917f8a5186dbaf6f344b2837e11834be94edebb633f05034f422c6b1fe1595b4d0cc9161083e918c918c9160ff16908b908b903390612bf9565b60405180910390a285156108555761085582611497565b509695505050505050565b60606009805461086f90612e97565b80601f016020809104026020016040519081016040528092919081815260200182805461089b90612e97565b80156108e85780601f106108bd576101008083540402835291602001916108e8565b820191906000526020600020905b8154815290600101906020018083116108cb57829003601f168201915b5050505050905090565b6040805160038082526080820190925260609160009190816020015b606081526020019060019003908161090e5790505090506040518060400160405280600d81526020016c30b2323932b9b9903a37b5b2b760991b8152508160008151811061095e5761095e612f13565b60200260200101819052506040518060400160405280600a8152602001696164647265737320746f60b01b8152508160018151811061099f5761099f612f13565b60200260200101819052506040518060400160405280600d81526020016c75696e743235362076616c756560981b815250816002815181106109e3576109e3612f13565b6020908102919091010152919050565b60118181548110610a0357600080fd5b6000918252602090912001546001600160a01b0316905081565b6000610a316005546001600160a01b031690565b6001600160a01b031663608e09126040518163ffffffff1660e01b815260040160206040518083038186803b158015610a6957600080fd5b505afa158015610a7d573d6000803e3d6000fd5b505050506040513d601f19601f82011682018060405250810190610aa19190612555565b905090565b600080610abb600f546001600160a01b031690565b90506000610ac7610a1d565b9050610ad1610a1d565b6001600160a01b031663ce58da3386610af2600f546001600160a01b031690565b6040516001600160e01b031960e085901b1681526001600160a01b0392831660048201529116602482015260440160206040518083038186803b158015610b3857600080fd5b505afa158015610b4c573d6000803e3d6000fd5b505050506040513d601f19601f82011682018060405250810190610b70919061281a565b610bb85784610b87600f546001600160a01b031690565b604051633d487fe560e11b81526001600160a01b039283166004820152911660248201526044015b60405180910390fd5b604051633806708f60e21b81526001600160a01b03868116600483015283811660248301526044820186905282169063e019c23c9060640160206040518083038186803b158015610c0857600080fd5b505afa158015610c1c573d6000803e3d6000fd5b505050506040513d601f19601f82011682018060405250810190610c4091906129a7565b95945050505050565b600080610c5e600f546001600160a01b031690565b90506001600160a01b0381166110101415610c7b57601291505090565b806001600160a01b031663313ce5676040518163ffffffff1660e01b815260040160206040518083038186803b158015610cb457600080fd5b505afa925050508015610ce4575060408051601f3d908101601f19168201909252610ce191810190612a0c565b60015b610cf057600091505090565b92915050565b5090565b610d0333611784565b610d20576040516341c8302160e11b815260040160405180910390fd5b80610d2a60015490565b1015610d4c57604051630761edaf60e51b815260048101829052602401610baf565b600081815260026020819052604090912081015460ff1690816003811115610d7657610d76612efd565b1415610d99578181604051637006f4f960e11b8152600401610baf929190612cc9565b6000828152600260208190526040808320909101805460ff191660031790555183917f92a917be073b79ab50f9d997e9514a5d101e052ce04228014947e7883a7c034691a25050565b6060600a805461086f90612e97565b60158181548110610e0157600080fd5b600091825260209091200154905081565b6000610e266005546001600160a01b031690565b6001600160a01b03166385f2aef26040518163ffffffff1660e01b815260040160206040518083038186803b158015610a6957600080fd5b610e67336117c4565b610e84576040516321d9821d60e01b815260040160405180910390fd5b82610e8e60015490565b1015610eb057604051630761edaf60e51b815260048101849052602401610baf565b600083815260026020819052604082209081015460039091015460ff9091169190610edc906001612e21565b90506000826003811115610ef257610ef2612efd565b14158015610f1257506001826003811115610f0f57610f0f612efd565b14155b15610f34578482604051637006f4f960e11b8152600401610baf929190612cc9565b600085815260026020908152604080832033845260040190915290205460ff1615610f7257604051634b1a897d60e01b815260040160405180910390fd5b6000858152600260208181526040808420338552600481018352908420805460ff191660011790559288905252600301819055610fae60085490565b8110610fd257600085815260026020819052604090912001805460ff191660011790555b847f3399030f87676a97e30e211a48f9c46e2ff806d0b4cedf7100782f08c52902c933868660405161100693929190612b2f565b60405180910390a25050505050565b600061101f610a1d565b6001600160a01b031663ce58da3383611040600f546001600160a01b031690565b6040516001600160e01b031960e085901b1681526001600160a01b0392831660048201529116602482015260440160206040518083038186803b15801561108657600080fd5b505afa15801561109a573d6000803e3d6000fd5b505050506040513d601f19601f82011682018060405250810190610cf0919061281a565b600054610100900460ff16158080156110de5750600054600160ff909116105b806110f85750303b1580156110f8575060005460ff166001145b61115b5760405162461bcd60e51b815260206004820152602e60248201527f496e697469616c697a61626c653a20636f6e747261637420697320616c72656160448201526d191e481a5b9a5d1a585b1a5e995960921b6064820152608401610baf565b6000805460ff19166001179055801561117e576000805461ff0019166101001790555b611187896117f3565b600f80546013805460ff191688151517905560148690556001600160a81b031916600160a01b8a1515026001600160a01b031916176001600160a01b03851617905560005b8751811015611209576111f78882815181106111ea576111ea612f13565b6020026020010151611a99565b8061120181612ecc565b9150506111cc565b5060005b865181101561124a5761123887828151811061122b5761122b612f13565b6020026020010151611b39565b8061124281612ecc565b91505061120d565b5060005b825181101561128b5761127983828151811061126c5761126c612f13565b6020026020010151611c43565b8061128381612ecc565b91505061124e565b506000611296610a1d565b6001600160a01b031614156112be5760405163da11b66d60e01b815260040160405180910390fd5b8015611304576000805461ff0019169055604051600181527f7f26b83ff96e1f2b6a682f133852f6798a09c465da95921460cefb38474024989060200160405180910390a15b505050505050505050565b6005546001600160a01b0316331461133a5760405163668faa7560e01b815260040160405180910390fd5b565b600080611347610a1d565b9050611351610a1d565b60405163ce58da3360e01b81526001600160a01b0387811660048301528681166024830152919091169063ce58da339060440160206040518083038186803b15801561139c57600080fd5b505afa1580156113b0573d6000803e3d6000fd5b505050506040513d601f19601f820116820180604052508101906113d4919061281a565b61140457604051633d487fe560e11b81526001600160a01b03808716600483015285166024820152604401610baf565b604051633806708f60e21b81526001600160a01b03868116600483015285811660248301526044820185905282169063e019c23c9060640160206040518083038186803b15801561145457600080fd5b505afa158015611468573d6000803e3d6000fd5b505050506040513d601f19601f8201168201806040525081019061148c91906129a7565b9150505b9392505050565b60008181526002602081905260409091200154819060019060ff16818160038111156114c5576114c5612efd565b146114e7578281604051637006f4f960e11b8152600401610baf929190612cc9565b600084815260026020819052604090912001548490610100900463ffffffff1642111561152a57604051636634e92360e01b815260048101829052602401610baf565b600d5442101561154d576040516319b9482d60e31b815260040160405180910390fd5b600e54421061156e576040516268af4b60e91b815260040160405180910390fd5b61157733611784565b611594576040516341c8302160e11b815260040160405180910390fd5b60006115a2600b5460ff1690565b905060006115af600c5490565b9050600060026000898152602001908152602001600020600101805480602002602001604051908101604052809291908181526020016000905b8282101561169557838290600052602060002001805461160890612e97565b80601f016020809104026020016040519081016040528092919081815260200182805461163490612e97565b80156116815780601f1061165657610100808354040283529160200191611681565b820191906000526020600020905b81548152906001019060200180831161166457829003601f168201915b5050505050815260200190600101906115e9565b50505050905060005b815181101561171957831580156116b3575082155b156116d15760405163a5be600560e01b815260040160405180910390fd5b836116e457826116e081612e80565b9350505b611707898383815181106116fa576116fa612f13565b6020026020010151611cec565b8061171181612ecc565b91505061169e565b50600c82905560008881526002602081905260409091208101805460ff19166001830217905550877f9060adf413860c5ab6e376e0aa4269e49a13f0853edb1583fce8129d4c756d798233604051611772929190612bcf565b60405180910390a25050505050505050565b60006117986003546001600160a01b031690565b6001600160a01b0316826001600160a01b03161480610cf05750610cf0826117bf60045490565b612005565b6001600160a01b03811660009081526006602052604081205460ff1680610cf05750610cf0826117bf60075490565b600054610100900460ff1661185e5760405162461bcd60e51b815260206004820152602b60248201527f496e697469616c697a61626c653a20636f6e7472616374206973206e6f74206960448201526a6e697469616c697a696e6760a81b6064820152608401610baf565b606081013515801561188157506118786040820182612d13565b90508160800135115b1561189f57604051635039c6e160e01b815260040160405180910390fd5b600580546001600160a01b031916331790556118be6020820182612538565b600380546001600160a01b0319166001600160a01b03929092169190911790556118eb60a0820182612d5d565b6118f79160099161226c565b5061190560c0820182612d5d565b61191191600a9161226c565b50608081013560085560e0810135600d55610100810135600e5561193d610140820161012083016127fd565b600b805460ff1916911515919091179055610140810135600c556020810135600455606081013560075560005b6119776040830183612d13565b9050811015611a63576001600660006119936040860186612d13565b858181106119a3576119a3612f13565b90506020020160208101906119b89190612538565b6001600160a01b0316815260208101919091526040908101600020805460ff1916921515929092179091557f4664777dbfbcb27de0f602e1da5d5a259992cd7edf5b29192929c96e8fd50def90611a1190840184612d13565b83818110611a2157611a21612f13565b9050602002016020810190611a369190612538565b6040516001600160a01b03909116815260200160405180910390a180611a5b81612ecc565b91505061196a565b506000611a6e610e12565b6001600160a01b03161415611a96576040516309ec7e6960e41b815260040160405180910390fd5b50565b6001600160a01b03811660009081526010602052604090205460ff1615611ade5760405163b9f9427b60e01b81526001600160a01b0382166004820152602401610baf565b6001600160a01b038116600081815260106020908152604091829020805460ff1916600117905590519182527ff11283a265d7a5f95fbc149dc65464f1f5be0151aac387fd76a938e1e558460491015b60405180910390a150565b6001600160a01b03811660009081526012602052604090205460ff1615611b7e576040516313501a5160e01b81526001600160a01b0382166004820152602401610baf565b611b8781611015565b611baf57604051636736228360e11b81526001600160a01b0382166004820152602401610baf565b6011805460018082019092557f31ecc21a745e3968a04e9570e4425bc18fa8019c68028196b546d1669c200c680180546001600160a01b0319166001600160a01b038416908117909155600081815260126020908152604091829020805460ff1916909417909355519081527f14009112f2dcb15cad32dab6bf972d6d85286e4ae1178f27323ffe25359459e69101611b2e565b60008181526016602052604090205460ff1615611c76576040516326dc441760e11b815260048101829052602401610baf565b600081815260166020526040808220805460ff1916600190811790915560158054918201815583527f55f448fdea98c4d29eb340757ef0a66cd03dbb9538908a6a81d96026b71ec475018390555182917f97f63d9e58eec1949a905544927de4308825003ab1dd2aa1b699921c3ca31f9591a250565b600080600083806020019051810190611d059190612572565b601454601354939650919450925060009160ff166001600160a01b0386166110101415611dd4576005546001600160a01b031660405163d3abc28b60e01b81526001600160a01b038781166004830152606060248301526000606483015260448201879052919091169063d3abc28b90608401600060405180830381600087803b158015611d9257600080fd5b505af1158015611da6573d6000803e3d6000fd5b505050506040513d6000823e601f3d908101601f19168201604052611dce9190810190612837565b50611ea0565b604080516001600160a01b038781166024830152604480830188905283518084039091018152606490920183526020820180516001600160e01b031663a9059cbb60e01b179052600554925163d3abc28b60e01b81529192169063d3abc28b90611e47908a908590600090600401612afb565b600060405180830381600087803b158015611e6157600080fd5b505af1158015611e75573d6000803e3d6000fd5b505050506040513d6000823e601f3d908101601f19168201604052611e9d9190810190612837565b50505b611eaa8685610aa6565b600f54909350600160a01b900460ff16158015611ee057506001600160a01b03851660009081526010602052604090205460ff16155b8015611ef25750611ef085612098565b155b15611f1b57604051630bc2c5df60e11b81526001600160a01b0386166004820152602401610baf565b6001600160a01b03861660009081526012602052604090205460ff16611f5f5760405163961c9a4f60e01b81526001600160a01b0387166004820152602401610baf565b82611f7d5760405163674a518760e01b815260040160405180910390fd5b80611fb15781831115611fa3576040516318e4c87760e01b815260040160405180910390fd5b611fad8383612e39565b6014555b604080516001600160a01b0388811682526020820187905287169133918b917f7bd766f3afc51ba3017c95a3a83ebdafe5e32cf39497f7efc628b13715da4289910160405180910390a45050505050505050565b600080612010610e12565b604051627eeac760e11b81526001600160a01b03868116600483015260248201869052919091169062fdd58e9060440160206040518083038186803b15801561205857600080fd5b505afa15801561206c573d6000803e3d6000fd5b505050506040513d601f19601f8201168201806040525081019061209091906129a7565b119392505050565b601554600090818167ffffffffffffffff8111156120b8576120b8612f29565b6040519080825280602002602001820160405280156120e1578160200160208202803683370190505b50905060005b8281101561212c578482828151811061210257612102612f13565b6001600160a01b03909216602092830291909101909101528061212481612ecc565b9150506120e7565b506000612137610e12565b6001600160a01b0316634e1273f48360156040518363ffffffff1660e01b8152600401612165929190612b54565b60006040518083038186803b15801561217d57600080fd5b505afa158015612191573d6000803e3d6000fd5b505050506040513d6000823e601f3d908101601f191682016040526121b99190810190612765565b905060005b81518110156122075760008282815181106121db576121db612f13565b602002602001015111156121f55750600195945050505050565b806121ff81612ecc565b9150506121be565b50600095945050505050565b828054828255906000526020600020908101928215612260579160200282015b8281111561226057825180516122509184916020909101906122ec565b5091602001919060010190612233565b50610cf6929150612360565b82805461227890612e97565b90600052602060002090601f01602090048101928261229a57600085556122e0565b82601f106122b35782800160ff198235161785556122e0565b828001600101855582156122e0579182015b828111156122e05782358255916020019190600101906122c5565b50610cf692915061237d565b8280546122f890612e97565b90600052602060002090601f01602090048101928261231a57600085556122e0565b82601f1061233357805160ff19168380011785556122e0565b828001600101855582156122e0579182015b828111156122e0578251825591602001919060010190612345565b80821115610cf65760006123748282612392565b50600101612360565b5b80821115610cf6576000815560010161237e565b50805461239e90612e97565b6000825580601f106123ae575050565b601f016020900490600052602060002090810190611a96919061237d565b80356123d781612f3f565b919050565b600082601f8301126123ed57600080fd5b813560206124026123fd83612dd5565b612da4565b80838252828201915082860187848660051b890101111561242257600080fd5b60005b8581101561244a57813561243881612f3f565b84529284019290840190600101612425565b5090979650505050505050565b600082601f83011261246857600080fd5b813560206124786123fd83612dd5565b80838252828201915082860187848660051b890101111561249857600080fd5b60005b8581101561244a5781358452928401929084019060010161249b565b80356123d781612f54565b60008083601f8401126124d457600080fd5b50813567ffffffffffffffff8111156124ec57600080fd5b60208301915083602082850101111561250457600080fd5b9250929050565b6000610160828403121561251e57600080fd5b50919050565b803563ffffffff811681146123d757600080fd5b60006020828403121561254a57600080fd5b813561149081612f3f565b60006020828403121561256757600080fd5b815161149081612f3f565b60008060006060848603121561258757600080fd5b835161259281612f3f565b60208501519093506125a381612f3f565b80925050604084015190509250925092565b6000806000606084860312156125ca57600080fd5b83356125d581612f3f565b925060208401356125e581612f3f565b929592945050506040919091013590565b6000806040838503121561260957600080fd5b823561261481612f3f565b946020939093013593505050565b60008060008060006080868803121561263a57600080fd5b67ffffffffffffffff808735111561265157600080fd5b8635870188601f82011261266457600080fd5b6126716123fd8235612dd5565b8082358252602082019150602083018b6020853560051b860101111561269657600080fd5b60005b84358110156127115785823511156126b057600080fd5b813585018d603f8201126126c357600080fd5b60208101356126d46123fd82612df9565b8181528f60408385010111156126e957600080fd5b8160408401602083013760006020928201830152865294850194929092019150600101612699565b505080985050505061272560208801612524565b9450612733604088016124b7565b935060608701358181111561274757600080fd5b61275389828a016124c2565b979a9699509497509395949350505050565b6000602080838503121561277857600080fd5b825167ffffffffffffffff81111561278f57600080fd5b8301601f810185136127a057600080fd5b80516127ae6123fd82612dd5565b80828252848201915084840188868560051b87010111156127ce57600080fd5b600094505b838510156127f15780518352600194909401939185019185016127d3565b50979650505050505050565b60006020828403121561280f57600080fd5b813561149081612f54565b60006020828403121561282c57600080fd5b815161149081612f54565b60006020828403121561284957600080fd5b815167ffffffffffffffff81111561286057600080fd5b8201601f8101841361287157600080fd5b805161287f6123fd82612df9565b81815285602083850101111561289457600080fd5b610c40826020830160208601612e50565b600080600080600080600080610100898b0312156128c257600080fd5b883567ffffffffffffffff808211156128da57600080fd5b6128e68c838d0161250b565b99506128f460208c016124b7565b985060408b013591508082111561290a57600080fd5b6129168c838d016123dc565b975060608b013591508082111561292c57600080fd5b6129388c838d016123dc565b965061294660808c016124b7565b955060a08b0135945061295b60c08c016123cc565b935060e08b013591508082111561297157600080fd5b5061297e8b828c01612457565b9150509295985092959890939650565b6000602082840312156129a057600080fd5b5035919050565b6000602082840312156129b957600080fd5b5051919050565b6000806000604084860312156129d557600080fd5b83359250602084013567ffffffffffffffff8111156129f357600080fd5b6129ff868287016124c2565b9497909650939450505050565b600060208284031215612a1e57600080fd5b815160ff8116811461149057600080fd5b600081518084526020808501808196508360051b8101915082860160005b85811015612a77578284038952612a65848351612a84565b98850198935090840190600101612a4d565b5091979650505050505050565b60008151808452612a9c816020860160208601612e50565b601f01601f19169290920160200192915050565b60048110612ace57634e487b7160e01b600052602160045260246000fd5b9052565b81835281816020850137506000828201602090810191909152601f909101601f19169091010190565b6001600160a01b0384168152606060208201819052600090612b1f90830185612a84565b9050826040830152949350505050565b6001600160a01b0384168152604060208201819052600090610c409083018486612ad2565b604080825283519082018190526000906020906060840190828701845b82811015612b965781516001600160a01b031684529284019290840190600101612b71565b505050838103828501528454808252600086815283812092840191905b8181101561244a57835483526001938401939285019201612bb3565b604081526000612be26040830185612a2f565b905060018060a01b03831660208301529392505050565b60a081526000612c0c60a0830189612a2f565b63ffffffff88166020840152612c256040840188612ab0565b8281036060840152612c38818688612ad2565b91505060018060a01b0383166080830152979650505050505050565b6000602080830181845280855180835260408601915060408160051b870101925083870160005b82811015612ca957603f19888603018452612c97858351612a84565b94509285019290850190600101612c7b565b5092979650505050505050565b6020815260006114906020830184612a84565b828152604081016114906020830184612ab0565b85815260a08101612cf16020830187612ab0565b63ffffffff949094166040820152911515606083015260809091015292915050565b6000808335601e19843603018112612d2a57600080fd5b83018035915067ffffffffffffffff821115612d4557600080fd5b6020019150600581901b360382131561250457600080fd5b6000808335601e19843603018112612d7457600080fd5b83018035915067ffffffffffffffff821115612d8f57600080fd5b60200191503681900382131561250457600080fd5b604051601f8201601f1916810167ffffffffffffffff81118282101715612dcd57612dcd612f29565b604052919050565b600067ffffffffffffffff821115612def57612def612f29565b5060051b60200190565b600067ffffffffffffffff821115612e1357612e13612f29565b50601f01601f191660200190565b60008219821115612e3457612e34612ee7565b500190565b600082821015612e4b57612e4b612ee7565b500390565b60005b83811015612e6b578181015183820152602001612e53565b83811115612e7a576000848401525b50505050565b600081612e8f57612e8f612ee7565b506000190190565b600181811c90821680612eab57607f821691505b6020821081141561251e57634e487b7160e01b600052602260045260246000fd5b6000600019821415612ee057612ee0612ee7565b5060010190565b634e487b7160e01b600052601160045260246000fd5b634e487b7160e01b600052602160045260246000fd5b634e487b7160e01b600052603260045260246000fd5b634e487b7160e01b600052604160045260246000fd5b6001600160a01b0381168114611a9657600080fd5b8015158114611a9657600080fdfe5472616e73666572204c69717569642045524332302042756467657420417070726f76616ca2646970667358221220ac385ecaf152b23bf45f50899deea3b46a01a1ea3e33d861522ba1555ff7056564736f6c63430008070033",
  "devdoc": {
    "kind": "dev",
    "methods": {
      "constructor": {
        "custom:oz-upgrades-unsafe-allow": "constructor"
      }
    },
    "version": 1
  },
  "userdoc": {
    "kind": "user",
    "methods": {
      "assetBaseCurrencyPrice(address,uint256)": {
        "notice": "This function is imported by other contract, thus cannot be external"
      },
      "canResolvePrice(address)": {
        "notice": "This function is imported by other contract, thus cannot be external"
      }
    },
    "version": 1
  },
  "storageLayout": {
    "storage": [
      {
        "astId": 3247,
        "contract": "contracts/TransferLiquidERC20BudgetApproval.sol:TransferLiquidERC20BudgetApproval",
        "label": "_initialized",
        "offset": 0,
        "slot": "0",
        "type": "t_uint8"
      },
      {
        "astId": 3250,
        "contract": "contracts/TransferLiquidERC20BudgetApproval.sol:TransferLiquidERC20BudgetApproval",
        "label": "_initializing",
        "offset": 1,
        "slot": "0",
        "type": "t_bool"
      },
      {
        "astId": 33153,
        "contract": "contracts/TransferLiquidERC20BudgetApproval.sol:TransferLiquidERC20BudgetApproval",
        "label": "_transactionIds",
        "offset": 0,
        "slot": "1",
        "type": "t_struct(Counter)17376_storage"
      },
      {
        "astId": 33158,
        "contract": "contracts/TransferLiquidERC20BudgetApproval.sol:TransferLiquidERC20BudgetApproval",
        "label": "transactions",
        "offset": 0,
        "slot": "2",
        "type": "t_mapping(t_uint256,t_struct(Transaction)33097_storage)"
      },
      {
        "astId": 33160,
        "contract": "contracts/TransferLiquidERC20BudgetApproval.sol:TransferLiquidERC20BudgetApproval",
        "label": "_executor",
        "offset": 0,
        "slot": "3",
        "type": "t_address"
      },
      {
        "astId": 33162,
        "contract": "contracts/TransferLiquidERC20BudgetApproval.sol:TransferLiquidERC20BudgetApproval",
        "label": "_executorTeamId",
        "offset": 0,
        "slot": "4",
        "type": "t_uint256"
      },
      {
        "astId": 33164,
        "contract": "contracts/TransferLiquidERC20BudgetApproval.sol:TransferLiquidERC20BudgetApproval",
        "label": "_executee",
        "offset": 0,
        "slot": "5",
        "type": "t_address"
      },
      {
        "astId": 33168,
        "contract": "contracts/TransferLiquidERC20BudgetApproval.sol:TransferLiquidERC20BudgetApproval",
        "label": "_approversMapping",
        "offset": 0,
        "slot": "6",
        "type": "t_mapping(t_address,t_bool)"
      },
      {
        "astId": 33170,
        "contract": "contracts/TransferLiquidERC20BudgetApproval.sol:TransferLiquidERC20BudgetApproval",
        "label": "_approverTeamId",
        "offset": 0,
        "slot": "7",
        "type": "t_uint256"
      },
      {
        "astId": 33172,
        "contract": "contracts/TransferLiquidERC20BudgetApproval.sol:TransferLiquidERC20BudgetApproval",
        "label": "_minApproval",
        "offset": 0,
        "slot": "8",
        "type": "t_uint256"
      },
      {
        "astId": 33174,
        "contract": "contracts/TransferLiquidERC20BudgetApproval.sol:TransferLiquidERC20BudgetApproval",
        "label": "_text",
        "offset": 0,
        "slot": "9",
        "type": "t_string_storage"
      },
      {
        "astId": 33176,
        "contract": "contracts/TransferLiquidERC20BudgetApproval.sol:TransferLiquidERC20BudgetApproval",
        "label": "_transactionType",
        "offset": 0,
        "slot": "10",
        "type": "t_string_storage"
      },
      {
        "astId": 33178,
        "contract": "contracts/TransferLiquidERC20BudgetApproval.sol:TransferLiquidERC20BudgetApproval",
        "label": "_allowUnlimitedUsageCount",
        "offset": 0,
        "slot": "11",
        "type": "t_bool"
      },
      {
        "astId": 33180,
        "contract": "contracts/TransferLiquidERC20BudgetApproval.sol:TransferLiquidERC20BudgetApproval",
        "label": "_usageCount",
        "offset": 0,
        "slot": "12",
        "type": "t_uint256"
      },
      {
        "astId": 33182,
        "contract": "contracts/TransferLiquidERC20BudgetApproval.sol:TransferLiquidERC20BudgetApproval",
        "label": "_startTime",
        "offset": 0,
        "slot": "13",
        "type": "t_uint256"
      },
      {
        "astId": 33184,
        "contract": "contracts/TransferLiquidERC20BudgetApproval.sol:TransferLiquidERC20BudgetApproval",
        "label": "_endTime",
        "offset": 0,
        "slot": "14",
        "type": "t_uint256"
      },
      {
        "astId": 30072,
        "contract": "contracts/TransferLiquidERC20BudgetApproval.sol:TransferLiquidERC20BudgetApproval",
        "label": "_baseCurrency",
        "offset": 0,
        "slot": "15",
        "type": "t_address"
      },
      {
        "astId": 30074,
        "contract": "contracts/TransferLiquidERC20BudgetApproval.sol:TransferLiquidERC20BudgetApproval",
        "label": "allowAllAddresses",
        "offset": 20,
        "slot": "15",
        "type": "t_bool"
      },
      {
        "astId": 30078,
        "contract": "contracts/TransferLiquidERC20BudgetApproval.sol:TransferLiquidERC20BudgetApproval",
        "label": "addressesMapping",
        "offset": 0,
        "slot": "16",
        "type": "t_mapping(t_address,t_bool)"
      },
      {
        "astId": 30081,
        "contract": "contracts/TransferLiquidERC20BudgetApproval.sol:TransferLiquidERC20BudgetApproval",
        "label": "tokens",
        "offset": 0,
        "slot": "17",
        "type": "t_array(t_address)dyn_storage"
      },
      {
        "astId": 30085,
        "contract": "contracts/TransferLiquidERC20BudgetApproval.sol:TransferLiquidERC20BudgetApproval",
        "label": "tokensMapping",
        "offset": 0,
        "slot": "18",
        "type": "t_mapping(t_address,t_bool)"
      },
      {
        "astId": 30087,
        "contract": "contracts/TransferLiquidERC20BudgetApproval.sol:TransferLiquidERC20BudgetApproval",
        "label": "allowAnyAmount",
        "offset": 0,
        "slot": "19",
        "type": "t_bool"
      },
      {
        "astId": 30089,
        "contract": "contracts/TransferLiquidERC20BudgetApproval.sol:TransferLiquidERC20BudgetApproval",
        "label": "totalAmount",
        "offset": 0,
        "slot": "20",
        "type": "t_uint256"
      },
      {
        "astId": 30092,
        "contract": "contracts/TransferLiquidERC20BudgetApproval.sol:TransferLiquidERC20BudgetApproval",
        "label": "toTeamIds",
        "offset": 0,
        "slot": "21",
        "type": "t_array(t_uint256)dyn_storage"
      },
      {
        "astId": 30096,
        "contract": "contracts/TransferLiquidERC20BudgetApproval.sol:TransferLiquidERC20BudgetApproval",
        "label": "toTeamIdsMapping",
        "offset": 0,
        "slot": "22",
        "type": "t_mapping(t_uint256,t_bool)"
      }
    ],
    "types": {
      "t_address": {
        "encoding": "inplace",
        "label": "address",
        "numberOfBytes": "20"
      },
      "t_array(t_address)dyn_storage": {
        "base": "t_address",
        "encoding": "dynamic_array",
        "label": "address[]",
        "numberOfBytes": "32"
      },
      "t_array(t_bytes_storage)dyn_storage": {
        "base": "t_bytes_storage",
        "encoding": "dynamic_array",
        "label": "bytes[]",
        "numberOfBytes": "32"
      },
      "t_array(t_uint256)dyn_storage": {
        "base": "t_uint256",
        "encoding": "dynamic_array",
        "label": "uint256[]",
        "numberOfBytes": "32"
      },
      "t_bool": {
        "encoding": "inplace",
        "label": "bool",
        "numberOfBytes": "1"
      },
      "t_bytes_storage": {
        "encoding": "bytes",
        "label": "bytes",
        "numberOfBytes": "32"
      },
      "t_enum(Status)33078": {
        "encoding": "inplace",
        "label": "enum CommonBudgetApproval.Status",
        "numberOfBytes": "1"
      },
      "t_mapping(t_address,t_bool)": {
        "encoding": "mapping",
        "key": "t_address",
        "label": "mapping(address => bool)",
        "numberOfBytes": "32",
        "value": "t_bool"
      },
      "t_mapping(t_uint256,t_bool)": {
        "encoding": "mapping",
        "key": "t_uint256",
        "label": "mapping(uint256 => bool)",
        "numberOfBytes": "32",
        "value": "t_bool"
      },
      "t_mapping(t_uint256,t_struct(Transaction)33097_storage)": {
        "encoding": "mapping",
        "key": "t_uint256",
        "label": "mapping(uint256 => struct CommonBudgetApproval.Transaction)",
        "numberOfBytes": "32",
        "value": "t_struct(Transaction)33097_storage"
      },
      "t_string_storage": {
        "encoding": "bytes",
        "label": "string",
        "numberOfBytes": "32"
      },
      "t_struct(Counter)17376_storage": {
        "encoding": "inplace",
        "label": "struct Counters.Counter",
        "members": [
          {
            "astId": 17375,
            "contract": "contracts/TransferLiquidERC20BudgetApproval.sol:TransferLiquidERC20BudgetApproval",
            "label": "_value",
            "offset": 0,
            "slot": "0",
            "type": "t_uint256"
          }
        ],
        "numberOfBytes": "32"
      },
      "t_struct(Transaction)33097_storage": {
        "encoding": "inplace",
        "label": "struct CommonBudgetApproval.Transaction",
        "members": [
          {
            "astId": 33080,
            "contract": "contracts/TransferLiquidERC20BudgetApproval.sol:TransferLiquidERC20BudgetApproval",
            "label": "id",
            "offset": 0,
            "slot": "0",
            "type": "t_uint256"
          },
          {
            "astId": 33083,
            "contract": "contracts/TransferLiquidERC20BudgetApproval.sol:TransferLiquidERC20BudgetApproval",
            "label": "data",
            "offset": 0,
            "slot": "1",
            "type": "t_array(t_bytes_storage)dyn_storage"
          },
          {
            "astId": 33086,
            "contract": "contracts/TransferLiquidERC20BudgetApproval.sol:TransferLiquidERC20BudgetApproval",
            "label": "status",
            "offset": 0,
            "slot": "2",
            "type": "t_enum(Status)33078"
          },
          {
            "astId": 33088,
            "contract": "contracts/TransferLiquidERC20BudgetApproval.sol:TransferLiquidERC20BudgetApproval",
            "label": "deadline",
            "offset": 1,
            "slot": "2",
            "type": "t_uint32"
          },
          {
            "astId": 33090,
            "contract": "contracts/TransferLiquidERC20BudgetApproval.sol:TransferLiquidERC20BudgetApproval",
            "label": "isExist",
            "offset": 5,
            "slot": "2",
            "type": "t_bool"
          },
          {
            "astId": 33092,
            "contract": "contracts/TransferLiquidERC20BudgetApproval.sol:TransferLiquidERC20BudgetApproval",
            "label": "approvedCount",
            "offset": 0,
            "slot": "3",
            "type": "t_uint256"
          },
          {
            "astId": 33096,
            "contract": "contracts/TransferLiquidERC20BudgetApproval.sol:TransferLiquidERC20BudgetApproval",
            "label": "approved",
            "offset": 0,
            "slot": "4",
            "type": "t_mapping(t_address,t_bool)"
          }
        ],
        "numberOfBytes": "160"
      },
      "t_uint256": {
        "encoding": "inplace",
        "label": "uint256",
        "numberOfBytes": "32"
      },
      "t_uint32": {
        "encoding": "inplace",
        "label": "uint32",
        "numberOfBytes": "4"
      },
      "t_uint8": {
        "encoding": "inplace",
        "label": "uint8",
        "numberOfBytes": "1"
      }
    }
  }
}