{
  "address": "0xedAe0De0Ed5eFacAE9Aa6255B8Ce2286310FA792",
  "abi": [
    {
      "inputs": [],
      "stateMutability": "nonpayable",
      "type": "constructor"
    },
    {
      "inputs": [],
      "name": "ActionDuplicated",
      "type": "error"
    },
    {
      "inputs": [],
      "name": "AmountLimitExceeded",
      "type": "error"
    },
    {
      "inputs": [],
      "name": "BudgetHasEnded",
      "type": "error"
    },
    {
      "inputs": [],
      "name": "BudgetNotStarted",
      "type": "error"
    },
    {
      "inputs": [],
      "name": "BudgetUsageExceeded",
      "type": "error"
    },
    {
      "inputs": [],
      "name": "InvalidApproverList",
      "type": "error"
    },
    {
      "inputs": [],
      "name": "InvalidExecuteeTeam",
      "type": "error"
    },
    {
      "inputs": [
        {
          "internalType": "address",
          "name": "recipient",
          "type": "address"
        }
      ],
      "name": "InvalidRecipient",
      "type": "error"
    },
    {
      "inputs": [
        {
          "internalType": "address",
          "name": "_token",
          "type": "address"
        }
      ],
      "name": "InvalidToken",
      "type": "error"
    },
    {
      "inputs": [
        {
          "internalType": "uint256",
          "name": "id",
          "type": "uint256"
        }
      ],
      "name": "InvalidTransactionId",
      "type": "error"
    },
    {
      "inputs": [
        {
          "internalType": "uint256",
          "name": "id",
          "type": "uint256"
        },
        {
          "internalType": "enum CommonBudgetApproval.Status",
          "name": "status",
          "type": "uint8"
        }
      ],
      "name": "InvalidTransactionStatus",
      "type": "error"
    },
    {
      "inputs": [
        {
          "internalType": "address",
          "name": "recipient",
          "type": "address"
        }
      ],
      "name": "RecipientAlreadyAdded",
      "type": "error"
    },
    {
      "inputs": [
        {
          "internalType": "uint256",
          "name": "teamId",
          "type": "uint256"
        }
      ],
      "name": "TeamAlreadyAdded",
      "type": "error"
    },
    {
      "inputs": [
        {
          "internalType": "address",
          "name": "_token",
          "type": "address"
        }
      ],
      "name": "TokenAlreadyAdded",
      "type": "error"
    },
    {
      "inputs": [
        {
          "internalType": "uint256",
          "name": "id",
          "type": "uint256"
        }
      ],
      "name": "TransactionExpired",
      "type": "error"
    },
    {
      "inputs": [],
      "name": "UnauthorizedApprover",
      "type": "error"
    },
    {
      "inputs": [],
      "name": "UnauthorizedExecutee",
      "type": "error"
    },
    {
      "inputs": [],
      "name": "UnauthorizedExecutor",
      "type": "error"
    },
    {
      "anonymous": false,
      "inputs": [
        {
          "indexed": false,
          "internalType": "address",
          "name": "target",
          "type": "address"
        }
      ],
      "name": "AllowAddress",
      "type": "event"
    },
    {
      "anonymous": false,
      "inputs": [
        {
          "indexed": false,
          "internalType": "uint256",
          "name": "amount",
          "type": "uint256"
        }
      ],
      "name": "AllowAmount",
      "type": "event"
    },
    {
      "anonymous": false,
      "inputs": [
        {
          "indexed": true,
          "internalType": "uint256",
          "name": "teamId",
          "type": "uint256"
        }
      ],
      "name": "AllowTeam",
      "type": "event"
    },
    {
      "anonymous": false,
      "inputs": [
        {
          "indexed": false,
          "internalType": "address",
          "name": "token",
          "type": "address"
        }
      ],
      "name": "AllowToken",
      "type": "event"
    },
    {
      "anonymous": false,
      "inputs": [
        {
          "indexed": true,
          "internalType": "uint256",
          "name": "id",
          "type": "uint256"
        },
        {
          "indexed": false,
          "internalType": "address",
          "name": "approver",
          "type": "address"
        },
        {
          "indexed": false,
          "internalType": "string",
          "name": "comment",
          "type": "string"
        }
      ],
      "name": "ApproveTransaction",
      "type": "event"
    },
    {
      "anonymous": false,
      "inputs": [
        {
          "indexed": true,
          "internalType": "uint256",
          "name": "id",
          "type": "uint256"
        },
        {
          "indexed": false,
          "internalType": "bytes[]",
          "name": "data",
          "type": "bytes[]"
        },
        {
          "indexed": false,
          "internalType": "uint256",
          "name": "deadline",
          "type": "uint256"
        },
        {
          "indexed": false,
          "internalType": "enum CommonBudgetApproval.Status",
          "name": "status",
          "type": "uint8"
        },
        {
          "indexed": false,
          "internalType": "string",
          "name": "comment",
          "type": "string"
        },
        {
          "indexed": false,
          "internalType": "address",
          "name": "creator",
          "type": "address"
        }
      ],
      "name": "CreateTransaction",
      "type": "event"
    },
    {
      "anonymous": false,
      "inputs": [
        {
          "indexed": true,
          "internalType": "uint256",
          "name": "id",
          "type": "uint256"
        },
        {
          "indexed": false,
          "internalType": "bytes[]",
          "name": "data",
          "type": "bytes[]"
        },
        {
          "indexed": false,
          "internalType": "address",
          "name": "_executor",
          "type": "address"
        }
      ],
      "name": "ExecuteTransaction",
      "type": "event"
    },
    {
      "anonymous": false,
      "inputs": [
        {
          "indexed": true,
          "internalType": "uint256",
          "name": "id",
          "type": "uint256"
        },
        {
          "indexed": true,
          "internalType": "address",
          "name": "executor",
          "type": "address"
        },
        {
          "indexed": true,
          "internalType": "address",
          "name": "toAddress",
          "type": "address"
        },
        {
          "indexed": false,
          "internalType": "address",
          "name": "token",
          "type": "address"
        },
        {
          "indexed": false,
          "internalType": "uint256",
          "name": "tokenId",
          "type": "uint256"
        }
      ],
      "name": "ExecuteTransferERC721Transaction",
      "type": "event"
    },
    {
      "anonymous": false,
      "inputs": [
        {
          "indexed": false,
          "internalType": "uint8",
          "name": "version",
          "type": "uint8"
        }
      ],
      "name": "Initialized",
      "type": "event"
    },
    {
      "anonymous": false,
      "inputs": [
        {
          "indexed": true,
          "internalType": "uint256",
          "name": "id",
          "type": "uint256"
        }
      ],
      "name": "RevokeTransaction",
      "type": "event"
    },
    {
      "anonymous": false,
      "inputs": [
        {
          "indexed": false,
          "internalType": "address",
          "name": "approver",
          "type": "address"
        }
      ],
      "name": "SetApprover",
      "type": "event"
    },
    {
      "inputs": [
        {
          "internalType": "address",
          "name": "",
          "type": "address"
        }
      ],
      "name": "addressesMapping",
      "outputs": [
        {
          "internalType": "bool",
          "name": "",
          "type": "bool"
        }
      ],
      "stateMutability": "view",
      "type": "function"
    },
    {
      "inputs": [],
      "name": "afterInitialized",
      "outputs": [],
      "stateMutability": "nonpayable",
      "type": "function"
    },
    {
      "inputs": [],
      "name": "allowAllAddresses",
      "outputs": [
        {
          "internalType": "bool",
          "name": "",
          "type": "bool"
        }
      ],
      "stateMutability": "view",
      "type": "function"
    },
    {
      "inputs": [],
      "name": "allowAllTokens",
      "outputs": [
        {
          "internalType": "bool",
          "name": "",
          "type": "bool"
        }
      ],
      "stateMutability": "view",
      "type": "function"
    },
    {
      "inputs": [],
      "name": "allowAnyAmount",
      "outputs": [
        {
          "internalType": "bool",
          "name": "",
          "type": "bool"
        }
      ],
      "stateMutability": "view",
      "type": "function"
    },
    {
      "inputs": [],
      "name": "allowUnlimitedUsageCount",
      "outputs": [
        {
          "internalType": "bool",
          "name": "",
          "type": "bool"
        }
      ],
      "stateMutability": "view",
      "type": "function"
    },
    {
      "inputs": [
        {
          "internalType": "uint256",
          "name": "id",
          "type": "uint256"
        },
        {
          "internalType": "string",
          "name": "comment",
          "type": "string"
        }
      ],
      "name": "approveTransaction",
      "outputs": [],
      "stateMutability": "nonpayable",
      "type": "function"
    },
    {
      "inputs": [],
      "name": "approverTeamId",
      "outputs": [
        {
          "internalType": "uint256",
          "name": "",
          "type": "uint256"
        }
      ],
      "stateMutability": "view",
      "type": "function"
    },
    {
      "inputs": [
        {
          "internalType": "address",
          "name": "eoa",
          "type": "address"
        }
      ],
      "name": "approversMapping",
      "outputs": [
        {
          "internalType": "bool",
          "name": "",
          "type": "bool"
        }
      ],
      "stateMutability": "view",
      "type": "function"
    },
    {
      "inputs": [
        {
          "internalType": "bytes[]",
          "name": "_data",
          "type": "bytes[]"
        },
        {
          "internalType": "uint32",
          "name": "_deadline",
          "type": "uint32"
        },
        {
          "internalType": "bool",
          "name": "_isExecute",
          "type": "bool"
        },
        {
          "internalType": "string",
          "name": "comment",
          "type": "string"
        }
      ],
      "name": "createTransaction",
      "outputs": [
        {
          "internalType": "uint256",
          "name": "",
          "type": "uint256"
        }
      ],
      "stateMutability": "payable",
      "type": "function"
    },
    {
      "inputs": [],
      "name": "endTime",
      "outputs": [
        {
          "internalType": "uint256",
          "name": "",
          "type": "uint256"
        }
      ],
      "stateMutability": "view",
      "type": "function"
    },
    {
      "inputs": [],
      "name": "executeParams",
      "outputs": [
        {
          "internalType": "string[]",
          "name": "",
          "type": "string[]"
        }
      ],
      "stateMutability": "pure",
      "type": "function"
    },
    {
      "inputs": [
        {
          "internalType": "uint256",
          "name": "id",
          "type": "uint256"
        }
      ],
      "name": "executeTransaction",
      "outputs": [],
      "stateMutability": "payable",
      "type": "function"
    },
    {
      "inputs": [],
      "name": "executee",
      "outputs": [
        {
          "internalType": "address",
          "name": "",
          "type": "address"
        }
      ],
      "stateMutability": "view",
      "type": "function"
    },
    {
      "inputs": [],
      "name": "executor",
      "outputs": [
        {
          "internalType": "address",
          "name": "",
          "type": "address"
        }
      ],
      "stateMutability": "view",
      "type": "function"
    },
    {
      "inputs": [],
      "name": "executorTeamId",
      "outputs": [
        {
          "internalType": "uint256",
          "name": "",
          "type": "uint256"
        }
      ],
      "stateMutability": "view",
      "type": "function"
    },
    {
      "inputs": [
        {
          "components": [
            {
              "internalType": "address",
              "name": "executor",
              "type": "address"
            },
            {
              "internalType": "uint256",
              "name": "executorTeamId",
              "type": "uint256"
            },
            {
              "internalType": "address[]",
              "name": "approvers",
              "type": "address[]"
            },
            {
              "internalType": "uint256",
              "name": "approverTeamId",
              "type": "uint256"
            },
            {
              "internalType": "uint256",
              "name": "minApproval",
              "type": "uint256"
            },
            {
              "internalType": "string",
              "name": "text",
              "type": "string"
            },
            {
              "internalType": "string",
              "name": "transactionType",
              "type": "string"
            },
            {
              "internalType": "uint256",
              "name": "startTime",
              "type": "uint256"
            },
            {
              "internalType": "uint256",
              "name": "endTime",
              "type": "uint256"
            },
            {
              "internalType": "bool",
              "name": "allowUnlimitedUsageCount",
              "type": "bool"
            },
            {
              "internalType": "uint256",
              "name": "usageCount",
              "type": "uint256"
            }
          ],
          "internalType": "struct CommonBudgetApproval.InitializeParams",
          "name": "params",
          "type": "tuple"
        },
        {
          "internalType": "bool",
          "name": "_allowAllAddresses",
          "type": "bool"
        },
        {
          "internalType": "address[]",
          "name": "_toAddresses",
          "type": "address[]"
        },
        {
          "internalType": "bool",
          "name": "_allowAllTokens",
          "type": "bool"
        },
        {
          "internalType": "address[]",
          "name": "_tokens",
          "type": "address[]"
        },
        {
          "internalType": "bool",
          "name": "_allowAnyAmount",
          "type": "bool"
        },
        {
          "internalType": "uint256",
          "name": "_totalAmount",
          "type": "uint256"
        },
        {
          "internalType": "uint256[]",
          "name": "_toTeamIds",
          "type": "uint256[]"
        }
      ],
      "name": "initialize",
      "outputs": [],
      "stateMutability": "nonpayable",
      "type": "function"
    },
    {
      "inputs": [],
      "name": "minApproval",
      "outputs": [
        {
          "internalType": "uint256",
          "name": "",
          "type": "uint256"
        }
      ],
      "stateMutability": "view",
      "type": "function"
    },
    {
      "inputs": [],
      "name": "name",
      "outputs": [
        {
          "internalType": "string",
          "name": "",
          "type": "string"
        }
      ],
      "stateMutability": "view",
      "type": "function"
    },
    {
      "inputs": [
        {
          "internalType": "uint256",
          "name": "id",
          "type": "uint256"
        }
      ],
      "name": "revokeTransaction",
      "outputs": [],
      "stateMutability": "nonpayable",
      "type": "function"
    },
    {
      "inputs": [],
      "name": "startTime",
      "outputs": [
        {
          "internalType": "uint256",
          "name": "",
          "type": "uint256"
        }
      ],
      "stateMutability": "view",
      "type": "function"
    },
    {
      "inputs": [],
      "name": "team",
      "outputs": [
        {
          "internalType": "address",
          "name": "",
          "type": "address"
        }
      ],
      "stateMutability": "view",
      "type": "function"
    },
    {
      "inputs": [],
      "name": "text",
      "outputs": [
        {
          "internalType": "string",
          "name": "",
          "type": "string"
        }
      ],
      "stateMutability": "view",
      "type": "function"
    },
    {
      "inputs": [
        {
          "internalType": "uint256",
          "name": "",
          "type": "uint256"
        }
      ],
      "name": "toTeamIds",
      "outputs": [
        {
          "internalType": "uint256",
          "name": "",
          "type": "uint256"
        }
      ],
      "stateMutability": "view",
      "type": "function"
    },
    {
      "inputs": [
        {
          "internalType": "uint256",
          "name": "",
          "type": "uint256"
        }
      ],
      "name": "toTeamIdsMapping",
      "outputs": [
        {
          "internalType": "bool",
          "name": "",
          "type": "bool"
        }
      ],
      "stateMutability": "view",
      "type": "function"
    },
    {
      "inputs": [],
      "name": "toTeamsLength",
      "outputs": [
        {
          "internalType": "uint256",
          "name": "",
          "type": "uint256"
        }
      ],
      "stateMutability": "view",
      "type": "function"
    },
    {
      "inputs": [
        {
          "internalType": "uint256",
          "name": "",
          "type": "uint256"
        }
      ],
      "name": "tokens",
      "outputs": [
        {
          "internalType": "address",
          "name": "",
          "type": "address"
        }
      ],
      "stateMutability": "view",
      "type": "function"
    },
    {
      "inputs": [],
      "name": "tokensLength",
      "outputs": [
        {
          "internalType": "uint256",
          "name": "",
          "type": "uint256"
        }
      ],
      "stateMutability": "view",
      "type": "function"
    },
    {
      "inputs": [
        {
          "internalType": "address",
          "name": "",
          "type": "address"
        }
      ],
      "name": "tokensMapping",
      "outputs": [
        {
          "internalType": "bool",
          "name": "",
          "type": "bool"
        }
      ],
      "stateMutability": "view",
      "type": "function"
    },
    {
      "inputs": [],
      "name": "totalAmount",
      "outputs": [
        {
          "internalType": "uint256",
          "name": "",
          "type": "uint256"
        }
      ],
      "stateMutability": "view",
      "type": "function"
    },
    {
      "inputs": [],
      "name": "transactionType",
      "outputs": [
        {
          "internalType": "string",
          "name": "",
          "type": "string"
        }
      ],
      "stateMutability": "view",
      "type": "function"
    },
    {
      "inputs": [
        {
          "internalType": "uint256",
          "name": "",
          "type": "uint256"
        }
      ],
      "name": "transactions",
      "outputs": [
        {
          "internalType": "uint256",
          "name": "id",
          "type": "uint256"
        },
        {
          "internalType": "enum CommonBudgetApproval.Status",
          "name": "status",
          "type": "uint8"
        },
        {
          "internalType": "uint32",
          "name": "deadline",
          "type": "uint32"
        },
        {
          "internalType": "bool",
          "name": "isExist",
          "type": "bool"
        },
        {
          "internalType": "uint256",
          "name": "approvedCount",
          "type": "uint256"
        }
      ],
      "stateMutability": "view",
      "type": "function"
    },
    {
      "inputs": [],
      "name": "usageCount",
      "outputs": [
        {
          "internalType": "uint256",
          "name": "",
          "type": "uint256"
        }
      ],
      "stateMutability": "view",
      "type": "function"
    }
  ],
  "transactionHash": "0x7e97503197d6a500a4c43a53d1b44a9e5593291e140cf98a8c4e967d7893b664",
  "args": [],
  "numDeployments": 1,
  "solcInputHash": "bfdaba4376bf39fc4cc8c8d3b687367e",
  "bytecode": "0x60806040523480156200001157600080fd5b506200001c6200002c565b620000266200002c565b620000ee565b600054610100900460ff1615620000995760405162461bcd60e51b815260206004820152602760248201527f496e697469616c697a61626c653a20636f6e747261637420697320696e697469604482015266616c697a696e6760c81b606482015260840160405180910390fd5b60005460ff9081161015620000ec576000805460ff191660ff9081179091556040519081527f7f26b83ff96e1f2b6a682f133852f6798a09c465da95921460cefb38474024989060200160405180910390a15b565b61285e80620000fe6000396000f3fe6080604052600436106101ee5760003560e01c8063850154371161010d578063cd753b6c116100a0578063dd7a07041161006f578063dd7a0704146105c8578063de755e2f146105dd578063e52b4ab2146105f2578063ee22610b14610622578063f5c038521461063557600080fd5b8063cd753b6c1461056f578063cf26fec614610589578063d92fc67b1461059e578063d96c9196146105b357600080fd5b80639ace38c2116100dc5780639ace38c2146104ab578063a9588ab014610517578063b617b3ee14610537578063c34c08e51461055157600080fd5b8063850154371461042c57806385f2aef2146104465780638d1c5c291461045b57806397c85a611461048b57600080fd5b80634f64b2be11610185578063735631ad11610154578063735631ad146103c057806378e97925146103e25780637cd47d93146103f75780637cddb6c31461040c57600080fd5b80634f64b2be1461032257806350bd881f1461035a5780635ad325021461036f5780636bdebe5e1461038757600080fd5b80631f1bd692116101c15780631f1bd692146102965780633197cbb6146102ab57806331a7bdd9146102c05780633d70015a146102e257600080fd5b806303ff90f6146101f357806306fdde031461021757806314b893f91461026d5780631a39d8ef14610280575b600080fd5b3480156101ff57600080fd5b506008545b6040519081526020015b60405180910390f35b34801561022357600080fd5b506102606040518060400160405280601f81526020017f5472616e73666572204552433732312042756467657420417070726f76616c0081525081565b60405161020e919061258a565b61020461027b366004611f2d565b610653565b34801561028c57600080fd5b5061020460155481565b3480156102a257600080fd5b5061026061079a565b3480156102b757600080fd5b50600e54610204565b3480156102cc57600080fd5b506102d561082c565b60405161020e9190612528565b3480156102ee57600080fd5b506103126102fd366004611ea9565b60136020526000908152604090205460ff1681565b604051901515815260200161020e565b34801561032e57600080fd5b5061034261033d366004612285565b61092f565b6040516001600160a01b03909116815260200161020e565b34801561036657600080fd5b50600c54610204565b34801561037b57600080fd5b50600b5460ff16610312565b34801561039357600080fd5b506103126103a2366004611ea9565b6001600160a01b031660009081526006602052604090205460ff1690565b3480156103cc57600080fd5b506103e06103db366004612285565b610959565b005b3480156103ee57600080fd5b50600d54610204565b34801561040357600080fd5b50610260610a46565b34801561041857600080fd5b50610204610427366004612285565b610a55565b34801561043857600080fd5b506014546103129060ff1681565b34801561045257600080fd5b50610342610a76565b34801561046757600080fd5b50610312610476366004611ea9565b60106020526000908152604090205460ff1681565b34801561049757600080fd5b506103e06104a63660046122b7565b610aff565b3480156104b757600080fd5b506105066104c6366004612285565b600260208190526000918252604090912080549181015460039091015460ff8083169263ffffffff61010082041692650100000000009091049091169085565b60405161020e9594939291906125b1565b34801561052357600080fd5b506103e061053236600461219c565b610cb6565b34801561054357600080fd5b50600f546103129060ff1681565b34801561055d57600080fd5b506003546001600160a01b0316610342565b34801561057b57600080fd5b506011546103129060ff1681565b34801561059557600080fd5b506103e0610ec2565b3480156105aa57600080fd5b50601254610204565b3480156105bf57600080fd5b50600754610204565b3480156105d457600080fd5b50601654610204565b3480156105e957600080fd5b50600454610204565b3480156105fe57600080fd5b5061031261060d366004612285565b60176020526000908152604090205460ff1681565b6103e0610630366004612285565b610eef565b34801561064157600080fd5b506005546001600160a01b0316610342565b600061065e336111dc565b61067b576040516341c8302160e11b815260040160405180910390fd5b610689600180546001019055565b600061069460015490565b60008181526002602090815260409091208281558951929350916106c0916001840191908b0190611b86565b506002810180546501000000000065ffffffffff001990911661010063ffffffff8b160265ff000000000019161717905560085461071a57600082815260026020819052604090912001805460ff19166001179055610735565b600082815260026020819052604090912001805460ff191690555b600281015460405183917f8a5186dbaf6f344b2837e11834be94edebb633f05034f422c6b1fe1595b4d0cc91610778918c918c9160ff16908b908b9033906124cd565b60405180910390a2851561078f5761078f82610eef565b509695505050505050565b6060600980546107a99061276b565b80601f01602080910402602001604051908101604052809291908181526020018280546107d59061276b565b80156108225780601f106107f757610100808354040283529160200191610822565b820191906000526020600020905b81548152906001019060200180831161080557829003601f168201915b5050505050905090565b6040805160038082526080820190925260609160009190816020015b60608152602001906001900390816108485790505090506040518060400160405280600d81526020016c30b2323932b9b9903a37b5b2b760991b81525081600081518110610898576108986127e7565b60200260200101819052506040518060400160405280600a8152602001696164647265737320746f60b01b815250816001815181106108d9576108d96127e7565b60200260200101819052506040518060400160405280600f81526020016e1d5a5b9d0c8d4d881d1bdad95b9259608a1b8152508160028151811061091f5761091f6127e7565b6020908102919091010152919050565b6012818154811061093f57600080fd5b6000918252602090912001546001600160a01b0316905081565b610962336111dc565b61097f576040516341c8302160e11b815260040160405180910390fd5b8061098960015490565b10156109b057604051630761edaf60e51b8152600481018290526024015b60405180910390fd5b600081815260026020819052604090912081015460ff16908160038111156109da576109da6127d1565b14156109fd578181604051637006f4f960e11b81526004016109a792919061259d565b6000828152600260208190526040808320909101805460ff191660031790555183917f92a917be073b79ab50f9d997e9514a5d101e052ce04228014947e7883a7c034691a25050565b6060600a80546107a99061276b565b60168181548110610a6557600080fd5b600091825260209091200154905081565b6000610a8a6005546001600160a01b031690565b6001600160a01b03166385f2aef26040518163ffffffff1660e01b815260040160206040518083038186803b158015610ac257600080fd5b505afa158015610ad6573d6000803e3d6000fd5b505050506040513d601f19601f82011682018060405250810190610afa9190611ecd565b905090565b610b0833611222565b610b25576040516321d9821d60e01b815260040160405180910390fd5b82610b2f60015490565b1015610b5157604051630761edaf60e51b8152600481018490526024016109a7565b600083815260026020819052604082209081015460039091015460ff9091169190610b7d9060016126f5565b90506000826003811115610b9357610b936127d1565b14158015610bb357506001826003811115610bb057610bb06127d1565b14155b15610bd5578482604051637006f4f960e11b81526004016109a792919061259d565b600085815260026020908152604080832033845260040190915290205460ff1615610c1357604051634b1a897d60e01b815260040160405180910390fd5b6000858152600260208181526040808420338552600481018352908420805460ff191660011790559288905252600301819055610c4f60085490565b8110610c7357600085815260026020819052604090912001805460ff191660011790555b847f3399030f87676a97e30e211a48f9c46e2ff806d0b4cedf7100782f08c52902c9338686604051610ca793929190612403565b60405180910390a25050505050565b600054610100900460ff1615808015610cd65750600054600160ff909116105b80610cf05750303b158015610cf0575060005460ff166001145b610d535760405162461bcd60e51b815260206004820152602e60248201527f496e697469616c697a61626c653a20636f6e747261637420697320616c72656160448201526d191e481a5b9a5d1a585b1a5e995960921b60648201526084016109a7565b6000805460ff191660011790558015610d76576000805461ff0019166101001790555b610d7f89611251565b600f805460ff191689151517905560005b8751811015610dcd57610dbb888281518110610dae57610dae6127e7565b60200260200101516114f7565b80610dc5816127a0565b915050610d90565b506011805460ff191687151517905560005b8551811015610e1c57610e0a868281518110610dfd57610dfd6127e7565b6020026020010151611597565b80610e14816127a0565b915050610ddf565b5060005b8251811015610e5d57610e4b838281518110610e3e57610e3e6127e7565b6020026020010151611670565b80610e55816127a0565b915050610e20565b506014805460ff191685151517905560158390558015610eb7576000805461ff0019169055604051600181527f7f26b83ff96e1f2b6a682f133852f6798a09c465da95921460cefb38474024989060200160405180910390a15b505050505050505050565b6005546001600160a01b03163314610eed5760405163668faa7560e01b815260040160405180910390fd5b565b60008181526002602081905260409091200154819060019060ff1681816003811115610f1d57610f1d6127d1565b14610f3f578281604051637006f4f960e11b81526004016109a792919061259d565b600084815260026020819052604090912001548490610100900463ffffffff16421115610f8257604051636634e92360e01b8152600481018290526024016109a7565b600d54421015610fa5576040516319b9482d60e31b815260040160405180910390fd5b600e544210610fc6576040516268af4b60e91b815260040160405180910390fd5b610fcf336111dc565b610fec576040516341c8302160e11b815260040160405180910390fd5b6000610ffa600b5460ff1690565b90506000611007600c5490565b9050600060026000898152602001908152602001600020600101805480602002602001604051908101604052809291908181526020016000905b828210156110ed5783829060005260206000200180546110609061276b565b80601f016020809104026020016040519081016040528092919081815260200182805461108c9061276b565b80156110d95780601f106110ae576101008083540402835291602001916110d9565b820191906000526020600020905b8154815290600101906020018083116110bc57829003601f168201915b505050505081526020019060010190611041565b50505050905060005b8151811015611171578315801561110b575082155b156111295760405163a5be600560e01b815260040160405180910390fd5b8361113c578261113881612754565b9350505b61115f89838381518110611152576111526127e7565b6020026020010151611719565b80611169816127a0565b9150506110f6565b50600c82905560008881526002602081905260409091208101805460ff19166001830217905550877f9060adf413860c5ab6e376e0aa4269e49a13f0853edb1583fce8129d4c756d7982336040516111ca9291906124a3565b60405180910390a25050505050505050565b60006111f06003546001600160a01b031690565b6001600160a01b0316826001600160a01b0316148061121c575061121c8261121760045490565b611978565b92915050565b6001600160a01b03811660009081526006602052604081205460ff168061121c575061121c8261121760075490565b600054610100900460ff166112bc5760405162461bcd60e51b815260206004820152602b60248201527f496e697469616c697a61626c653a20636f6e7472616374206973206e6f74206960448201526a6e697469616c697a696e6760a81b60648201526084016109a7565b60608101351580156112df57506112d660408201826125e7565b90508160800135115b156112fd57604051635039c6e160e01b815260040160405180910390fd5b600580546001600160a01b0319163317905561131c6020820182611ea9565b600380546001600160a01b0319166001600160a01b039290921691909117905561134960a0820182612631565b61135591600991611be3565b5061136360c0820182612631565b61136f91600a91611be3565b50608081013560085560e0810135600d55610100810135600e5561139b6101408201610120830161210a565b600b805460ff1916911515919091179055610140810135600c556020810135600455606081013560075560005b6113d560408301836125e7565b90508110156114c1576001600660006113f160408601866125e7565b85818110611401576114016127e7565b90506020020160208101906114169190611ea9565b6001600160a01b0316815260208101919091526040908101600020805460ff1916921515929092179091557f4664777dbfbcb27de0f602e1da5d5a259992cd7edf5b29192929c96e8fd50def9061146f908401846125e7565b8381811061147f5761147f6127e7565b90506020020160208101906114949190611ea9565b6040516001600160a01b03909116815260200160405180910390a1806114b9816127a0565b9150506113c8565b5060006114cc610a76565b6001600160a01b031614156114f4576040516309ec7e6960e41b815260040160405180910390fd5b50565b6001600160a01b03811660009081526010602052604090205460ff161561153c5760405163b9f9427b60e01b81526001600160a01b03821660048201526024016109a7565b6001600160a01b038116600081815260106020908152604091829020805460ff1916600117905590519182527ff11283a265d7a5f95fbc149dc65464f1f5be0151aac387fd76a938e1e558460491015b60405180910390a150565b6001600160a01b03811660009081526013602052604090205460ff16156115dc576040516313501a5160e01b81526001600160a01b03821660048201526024016109a7565b6012805460018082019092557fbb8a6a4669ba250d26cd7a459eca9d215f8307e33aebe50379bc5a3617ec34440180546001600160a01b0319166001600160a01b038416908117909155600081815260136020908152604091829020805460ff1916909417909355519081527f14009112f2dcb15cad32dab6bf972d6d85286e4ae1178f27323ffe25359459e6910161158c565b60008181526017602052604090205460ff16156116a3576040516326dc441760e11b8152600481018290526024016109a7565b600081815260176020526040808220805460ff1916600190811790915560168054918201815583527fd833147d7dc355ba459fc788f669e58cfaf9dc25ddcd0702e87d69c7b5124289018390555182917f97f63d9e58eec1949a905544927de4308825003ab1dd2aa1b699921c3ca31f9591a250565b6000806000838060200190518101906117329190611eea565b925092509250600061174c6005546001600160a01b031690565b6014546015546040516001600160a01b038085166024830152871660448201526064810186905292935060ff9091169160009060840160408051601f198184030181529181526020820180516001600160e01b0316632142170760e11b1790525163d3abc28b60e01b81529091506001600160a01b0385169063d3abc28b906117de908a9085906000906004016123cf565b600060405180830381600087803b1580156117f857600080fd5b505af115801561180c573d6000803e3d6000fd5b505050506040513d6000823e601f3d908101601f191682016040526118349190810190612125565b50600f5460ff1615801561186157506001600160a01b03861660009081526010602052604090205460ff16155b8015611873575061187186611a0b565b155b1561189c57604051630bc2c5df60e11b81526001600160a01b03871660048201526024016109a7565b60115460ff161580156118c857506001600160a01b03871660009081526013602052604090205460ff16155b156118f15760405163961c9a4f60e01b81526001600160a01b03881660048201526024016109a7565b826119235781611914576040516318e4c87760e01b815260040160405180910390fd5b61191f60018361270d565b6015555b604080516001600160a01b0389811682526020820188905288169133918c917f38eecad2e39c3d7db3555e30dbbd12e77baba0648126dcda1c1bd58bff86da11910160405180910390a4505050505050505050565b600080611983610a76565b604051627eeac760e11b81526001600160a01b03868116600483015260248201869052919091169062fdd58e9060440160206040518083038186803b1580156119cb57600080fd5b505afa1580156119df573d6000803e3d6000fd5b505050506040513d601f19601f82011682018060405250810190611a03919061229e565b119392505050565b601654600090818167ffffffffffffffff811115611a2b57611a2b6127fd565b604051908082528060200260200182016040528015611a54578160200160208202803683370190505b50905060005b82811015611a9f5784828281518110611a7557611a756127e7565b6001600160a01b039092166020928302919091019091015280611a97816127a0565b915050611a5a565b506000611aaa610a76565b6001600160a01b0316634e1273f48360166040518363ffffffff1660e01b8152600401611ad8929190612428565b60006040518083038186803b158015611af057600080fd5b505afa158015611b04573d6000803e3d6000fd5b505050506040513d6000823e601f3d908101601f19168201604052611b2c9190810190612072565b905060005b8151811015611b7a576000828281518110611b4e57611b4e6127e7565b60200260200101511115611b685750600195945050505050565b80611b72816127a0565b915050611b31565b50600095945050505050565b828054828255906000526020600020908101928215611bd3579160200282015b82811115611bd35782518051611bc3918491602090910190611c63565b5091602001919060010190611ba6565b50611bdf929150611cd7565b5090565b828054611bef9061276b565b90600052602060002090601f016020900481019282611c115760008555611c57565b82601f10611c2a5782800160ff19823516178555611c57565b82800160010185558215611c57579182015b82811115611c57578235825591602001919060010190611c3c565b50611bdf929150611cf4565b828054611c6f9061276b565b90600052602060002090601f016020900481019282611c915760008555611c57565b82601f10611caa57805160ff1916838001178555611c57565b82800160010185558215611c57579182015b82811115611c57578251825591602001919060010190611cbc565b80821115611bdf576000611ceb8282611d09565b50600101611cd7565b5b80821115611bdf5760008155600101611cf5565b508054611d159061276b565b6000825580601f10611d25575050565b601f0160209004906000526020600020908101906114f49190611cf4565b600082601f830112611d5457600080fd5b81356020611d69611d64836126a9565b612678565b80838252828201915082860187848660051b8901011115611d8957600080fd5b60005b85811015611db1578135611d9f81612813565b84529284019290840190600101611d8c565b5090979650505050505050565b600082601f830112611dcf57600080fd5b81356020611ddf611d64836126a9565b80838252828201915082860187848660051b8901011115611dff57600080fd5b60005b85811015611db157813584529284019290840190600101611e02565b80358015158114611e2e57600080fd5b919050565b60008083601f840112611e4557600080fd5b50813567ffffffffffffffff811115611e5d57600080fd5b602083019150836020828501011115611e7557600080fd5b9250929050565b60006101608284031215611e8f57600080fd5b50919050565b803563ffffffff81168114611e2e57600080fd5b600060208284031215611ebb57600080fd5b8135611ec681612813565b9392505050565b600060208284031215611edf57600080fd5b8151611ec681612813565b600080600060608486031215611eff57600080fd5b8351611f0a81612813565b6020850151909350611f1b81612813565b80925050604084015190509250925092565b600080600080600060808688031215611f4557600080fd5b67ffffffffffffffff8087351115611f5c57600080fd5b8635870188601f820112611f6f57600080fd5b611f7c611d6482356126a9565b8082358252602082019150602083018b6020853560051b8601011115611fa157600080fd5b60005b843581101561201c578582351115611fbb57600080fd5b813585018d603f820112611fce57600080fd5b6020810135611fdf611d64826126cd565b8181528f6040838501011115611ff457600080fd5b8160408401602083013760006020928201830152865294850194929092019150600101611fa4565b505080985050505061203060208801611e95565b945061203e60408801611e1e565b9350806060880135111561205157600080fd5b506120628760608801358801611e33565b9598949750929550919392915050565b6000602080838503121561208557600080fd5b825167ffffffffffffffff81111561209c57600080fd5b8301601f810185136120ad57600080fd5b80516120bb611d64826126a9565b80828252848201915084840188868560051b87010111156120db57600080fd5b600094505b838510156120fe5780518352600194909401939185019185016120e0565b50979650505050505050565b60006020828403121561211c57600080fd5b611ec682611e1e565b60006020828403121561213757600080fd5b815167ffffffffffffffff81111561214e57600080fd5b8201601f8101841361215f57600080fd5b805161216d611d64826126cd565b81815285602083850101111561218257600080fd5b612193826020830160208601612724565b95945050505050565b600080600080600080600080610100898b0312156121b957600080fd5b883567ffffffffffffffff808211156121d157600080fd5b6121dd8c838d01611e7c565b99506121eb60208c01611e1e565b985060408b013591508082111561220157600080fd5b61220d8c838d01611d43565b975061221b60608c01611e1e565b965060808b013591508082111561223157600080fd5b61223d8c838d01611d43565b955061224b60a08c01611e1e565b945060c08b0135935060e08b013591508082111561226857600080fd5b506122758b828c01611dbe565b9150509295985092959890939650565b60006020828403121561229757600080fd5b5035919050565b6000602082840312156122b057600080fd5b5051919050565b6000806000604084860312156122cc57600080fd5b83359250602084013567ffffffffffffffff8111156122ea57600080fd5b6122f686828701611e33565b9497909650939450505050565b600081518084526020808501808196508360051b8101915082860160005b8581101561234b578284038952612339848351612358565b98850198935090840190600101612321565b5091979650505050505050565b60008151808452612370816020860160208601612724565b601f01601f19169290920160200192915050565b600481106123a257634e487b7160e01b600052602160045260246000fd5b9052565b81835281816020850137506000828201602090810191909152601f909101601f19169091010190565b6001600160a01b03841681526060602082018190526000906123f390830185612358565b9050826040830152949350505050565b6001600160a01b038416815260406020820181905260009061219390830184866123a6565b604080825283519082018190526000906020906060840190828701845b8281101561246a5781516001600160a01b031684529284019290840190600101612445565b505050838103828501528454808252600086815283812092840191905b81811015611db157835483526001938401939285019201612487565b6040815260006124b66040830185612303565b905060018060a01b03831660208301529392505050565b60a0815260006124e060a0830189612303565b63ffffffff881660208401526124f96040840188612384565b828103606084015261250c8186886123a6565b91505060018060a01b0383166080830152979650505050505050565b6000602080830181845280855180835260408601915060408160051b870101925083870160005b8281101561257d57603f1988860301845261256b858351612358565b9450928501929085019060010161254f565b5092979650505050505050565b602081526000611ec66020830184612358565b82815260408101611ec66020830184612384565b85815260a081016125c56020830187612384565b63ffffffff949094166040820152911515606083015260809091015292915050565b6000808335601e198436030181126125fe57600080fd5b83018035915067ffffffffffffffff82111561261957600080fd5b6020019150600581901b3603821315611e7557600080fd5b6000808335601e1984360301811261264857600080fd5b83018035915067ffffffffffffffff82111561266357600080fd5b602001915036819003821315611e7557600080fd5b604051601f8201601f1916810167ffffffffffffffff811182821017156126a1576126a16127fd565b604052919050565b600067ffffffffffffffff8211156126c3576126c36127fd565b5060051b60200190565b600067ffffffffffffffff8211156126e7576126e76127fd565b50601f01601f191660200190565b60008219821115612708576127086127bb565b500190565b60008282101561271f5761271f6127bb565b500390565b60005b8381101561273f578181015183820152602001612727565b8381111561274e576000848401525b50505050565b600081612763576127636127bb565b506000190190565b600181811c9082168061277f57607f821691505b60208210811415611e8f57634e487b7160e01b600052602260045260246000fd5b60006000198214156127b4576127b46127bb565b5060010190565b634e487b7160e01b600052601160045260246000fd5b634e487b7160e01b600052602160045260246000fd5b634e487b7160e01b600052603260045260246000fd5b634e487b7160e01b600052604160045260246000fd5b6001600160a01b03811681146114f457600080fdfea2646970667358221220695cbc1b47fe8632d6e3aef55e9180c1351e69aa696acc80d51204e16779ed1164736f6c63430008070033",
  "devdoc": {
    "kind": "dev",
    "methods": {
      "constructor": {
        "custom:oz-upgrades-unsafe-allow": "constructor"
      }
    },
    "version": 1
  },
  "userdoc": {
    "kind": "user",
    "methods": {},
    "version": 1
  },
  "storageLayout": {
    "storage": [
      {
        "astId": 3247,
        "contract": "contracts/TransferERC721BudgetApproval.sol:TransferERC721BudgetApproval",
        "label": "_initialized",
        "offset": 0,
        "slot": "0",
        "type": "t_uint8"
      },
      {
        "astId": 3250,
        "contract": "contracts/TransferERC721BudgetApproval.sol:TransferERC721BudgetApproval",
        "label": "_initializing",
        "offset": 1,
        "slot": "0",
        "type": "t_bool"
      },
      {
        "astId": 33153,
        "contract": "contracts/TransferERC721BudgetApproval.sol:TransferERC721BudgetApproval",
        "label": "_transactionIds",
        "offset": 0,
        "slot": "1",
        "type": "t_struct(Counter)17376_storage"
      },
      {
        "astId": 33158,
        "contract": "contracts/TransferERC721BudgetApproval.sol:TransferERC721BudgetApproval",
        "label": "transactions",
        "offset": 0,
        "slot": "2",
        "type": "t_mapping(t_uint256,t_struct(Transaction)33097_storage)"
      },
      {
        "astId": 33160,
        "contract": "contracts/TransferERC721BudgetApproval.sol:TransferERC721BudgetApproval",
        "label": "_executor",
        "offset": 0,
        "slot": "3",
        "type": "t_address"
      },
      {
        "astId": 33162,
        "contract": "contracts/TransferERC721BudgetApproval.sol:TransferERC721BudgetApproval",
        "label": "_executorTeamId",
        "offset": 0,
        "slot": "4",
        "type": "t_uint256"
      },
      {
        "astId": 33164,
        "contract": "contracts/TransferERC721BudgetApproval.sol:TransferERC721BudgetApproval",
        "label": "_executee",
        "offset": 0,
        "slot": "5",
        "type": "t_address"
      },
      {
        "astId": 33168,
        "contract": "contracts/TransferERC721BudgetApproval.sol:TransferERC721BudgetApproval",
        "label": "_approversMapping",
        "offset": 0,
        "slot": "6",
        "type": "t_mapping(t_address,t_bool)"
      },
      {
        "astId": 33170,
        "contract": "contracts/TransferERC721BudgetApproval.sol:TransferERC721BudgetApproval",
        "label": "_approverTeamId",
        "offset": 0,
        "slot": "7",
        "type": "t_uint256"
      },
      {
        "astId": 33172,
        "contract": "contracts/TransferERC721BudgetApproval.sol:TransferERC721BudgetApproval",
        "label": "_minApproval",
        "offset": 0,
        "slot": "8",
        "type": "t_uint256"
      },
      {
        "astId": 33174,
        "contract": "contracts/TransferERC721BudgetApproval.sol:TransferERC721BudgetApproval",
        "label": "_text",
        "offset": 0,
        "slot": "9",
        "type": "t_string_storage"
      },
      {
        "astId": 33176,
        "contract": "contracts/TransferERC721BudgetApproval.sol:TransferERC721BudgetApproval",
        "label": "_transactionType",
        "offset": 0,
        "slot": "10",
        "type": "t_string_storage"
      },
      {
        "astId": 33178,
        "contract": "contracts/TransferERC721BudgetApproval.sol:TransferERC721BudgetApproval",
        "label": "_allowUnlimitedUsageCount",
        "offset": 0,
        "slot": "11",
        "type": "t_bool"
      },
      {
        "astId": 33180,
        "contract": "contracts/TransferERC721BudgetApproval.sol:TransferERC721BudgetApproval",
        "label": "_usageCount",
        "offset": 0,
        "slot": "12",
        "type": "t_uint256"
      },
      {
        "astId": 33182,
        "contract": "contracts/TransferERC721BudgetApproval.sol:TransferERC721BudgetApproval",
        "label": "_startTime",
        "offset": 0,
        "slot": "13",
        "type": "t_uint256"
      },
      {
        "astId": 33184,
        "contract": "contracts/TransferERC721BudgetApproval.sol:TransferERC721BudgetApproval",
        "label": "_endTime",
        "offset": 0,
        "slot": "14",
        "type": "t_uint256"
      },
      {
        "astId": 29536,
        "contract": "contracts/TransferERC721BudgetApproval.sol:TransferERC721BudgetApproval",
        "label": "allowAllAddresses",
        "offset": 0,
        "slot": "15",
        "type": "t_bool"
      },
      {
        "astId": 29540,
        "contract": "contracts/TransferERC721BudgetApproval.sol:TransferERC721BudgetApproval",
        "label": "addressesMapping",
        "offset": 0,
        "slot": "16",
        "type": "t_mapping(t_address,t_bool)"
      },
      {
        "astId": 29542,
        "contract": "contracts/TransferERC721BudgetApproval.sol:TransferERC721BudgetApproval",
        "label": "allowAllTokens",
        "offset": 0,
        "slot": "17",
        "type": "t_bool"
      },
      {
        "astId": 29545,
        "contract": "contracts/TransferERC721BudgetApproval.sol:TransferERC721BudgetApproval",
        "label": "tokens",
        "offset": 0,
        "slot": "18",
        "type": "t_array(t_address)dyn_storage"
      },
      {
        "astId": 29549,
        "contract": "contracts/TransferERC721BudgetApproval.sol:TransferERC721BudgetApproval",
        "label": "tokensMapping",
        "offset": 0,
        "slot": "19",
        "type": "t_mapping(t_address,t_bool)"
      },
      {
        "astId": 29551,
        "contract": "contracts/TransferERC721BudgetApproval.sol:TransferERC721BudgetApproval",
        "label": "allowAnyAmount",
        "offset": 0,
        "slot": "20",
        "type": "t_bool"
      },
      {
        "astId": 29553,
        "contract": "contracts/TransferERC721BudgetApproval.sol:TransferERC721BudgetApproval",
        "label": "totalAmount",
        "offset": 0,
        "slot": "21",
        "type": "t_uint256"
      },
      {
        "astId": 29556,
        "contract": "contracts/TransferERC721BudgetApproval.sol:TransferERC721BudgetApproval",
        "label": "toTeamIds",
        "offset": 0,
        "slot": "22",
        "type": "t_array(t_uint256)dyn_storage"
      },
      {
        "astId": 29560,
        "contract": "contracts/TransferERC721BudgetApproval.sol:TransferERC721BudgetApproval",
        "label": "toTeamIdsMapping",
        "offset": 0,
        "slot": "23",
        "type": "t_mapping(t_uint256,t_bool)"
      }
    ],
    "types": {
      "t_address": {
        "encoding": "inplace",
        "label": "address",
        "numberOfBytes": "20"
      },
      "t_array(t_address)dyn_storage": {
        "base": "t_address",
        "encoding": "dynamic_array",
        "label": "address[]",
        "numberOfBytes": "32"
      },
      "t_array(t_bytes_storage)dyn_storage": {
        "base": "t_bytes_storage",
        "encoding": "dynamic_array",
        "label": "bytes[]",
        "numberOfBytes": "32"
      },
      "t_array(t_uint256)dyn_storage": {
        "base": "t_uint256",
        "encoding": "dynamic_array",
        "label": "uint256[]",
        "numberOfBytes": "32"
      },
      "t_bool": {
        "encoding": "inplace",
        "label": "bool",
        "numberOfBytes": "1"
      },
      "t_bytes_storage": {
        "encoding": "bytes",
        "label": "bytes",
        "numberOfBytes": "32"
      },
      "t_enum(Status)33078": {
        "encoding": "inplace",
        "label": "enum CommonBudgetApproval.Status",
        "numberOfBytes": "1"
      },
      "t_mapping(t_address,t_bool)": {
        "encoding": "mapping",
        "key": "t_address",
        "label": "mapping(address => bool)",
        "numberOfBytes": "32",
        "value": "t_bool"
      },
      "t_mapping(t_uint256,t_bool)": {
        "encoding": "mapping",
        "key": "t_uint256",
        "label": "mapping(uint256 => bool)",
        "numberOfBytes": "32",
        "value": "t_bool"
      },
      "t_mapping(t_uint256,t_struct(Transaction)33097_storage)": {
        "encoding": "mapping",
        "key": "t_uint256",
        "label": "mapping(uint256 => struct CommonBudgetApproval.Transaction)",
        "numberOfBytes": "32",
        "value": "t_struct(Transaction)33097_storage"
      },
      "t_string_storage": {
        "encoding": "bytes",
        "label": "string",
        "numberOfBytes": "32"
      },
      "t_struct(Counter)17376_storage": {
        "encoding": "inplace",
        "label": "struct Counters.Counter",
        "members": [
          {
            "astId": 17375,
            "contract": "contracts/TransferERC721BudgetApproval.sol:TransferERC721BudgetApproval",
            "label": "_value",
            "offset": 0,
            "slot": "0",
            "type": "t_uint256"
          }
        ],
        "numberOfBytes": "32"
      },
      "t_struct(Transaction)33097_storage": {
        "encoding": "inplace",
        "label": "struct CommonBudgetApproval.Transaction",
        "members": [
          {
            "astId": 33080,
            "contract": "contracts/TransferERC721BudgetApproval.sol:TransferERC721BudgetApproval",
            "label": "id",
            "offset": 0,
            "slot": "0",
            "type": "t_uint256"
          },
          {
            "astId": 33083,
            "contract": "contracts/TransferERC721BudgetApproval.sol:TransferERC721BudgetApproval",
            "label": "data",
            "offset": 0,
            "slot": "1",
            "type": "t_array(t_bytes_storage)dyn_storage"
          },
          {
            "astId": 33086,
            "contract": "contracts/TransferERC721BudgetApproval.sol:TransferERC721BudgetApproval",
            "label": "status",
            "offset": 0,
            "slot": "2",
            "type": "t_enum(Status)33078"
          },
          {
            "astId": 33088,
            "contract": "contracts/TransferERC721BudgetApproval.sol:TransferERC721BudgetApproval",
            "label": "deadline",
            "offset": 1,
            "slot": "2",
            "type": "t_uint32"
          },
          {
            "astId": 33090,
            "contract": "contracts/TransferERC721BudgetApproval.sol:TransferERC721BudgetApproval",
            "label": "isExist",
            "offset": 5,
            "slot": "2",
            "type": "t_bool"
          },
          {
            "astId": 33092,
            "contract": "contracts/TransferERC721BudgetApproval.sol:TransferERC721BudgetApproval",
            "label": "approvedCount",
            "offset": 0,
            "slot": "3",
            "type": "t_uint256"
          },
          {
            "astId": 33096,
            "contract": "contracts/TransferERC721BudgetApproval.sol:TransferERC721BudgetApproval",
            "label": "approved",
            "offset": 0,
            "slot": "4",
            "type": "t_mapping(t_address,t_bool)"
          }
        ],
        "numberOfBytes": "160"
      },
      "t_uint256": {
        "encoding": "inplace",
        "label": "uint256",
        "numberOfBytes": "32"
      },
      "t_uint32": {
        "encoding": "inplace",
        "label": "uint32",
        "numberOfBytes": "4"
      },
      "t_uint8": {
        "encoding": "inplace",
        "label": "uint8",
        "numberOfBytes": "1"
      }
    }
  }
}