{
  "address": "0x46eda40AC10A2ebdC5327D796eE3193bE55c7282",
  "abi": [
    {
      "inputs": [],
      "stateMutability": "nonpayable",
      "type": "constructor"
    },
    {
      "anonymous": false,
      "inputs": [
        {
          "indexed": false,
          "internalType": "address",
          "name": "previousAdmin",
          "type": "address"
        },
        {
          "indexed": false,
          "internalType": "address",
          "name": "newAdmin",
          "type": "address"
        }
      ],
      "name": "AdminChanged",
      "type": "event"
    },
    {
      "anonymous": false,
      "inputs": [
        {
          "indexed": true,
          "internalType": "address",
          "name": "owner",
          "type": "address"
        },
        {
          "indexed": true,
          "internalType": "address",
          "name": "spender",
          "type": "address"
        },
        {
          "indexed": false,
          "internalType": "uint256",
          "name": "value",
          "type": "uint256"
        }
      ],
      "name": "Approval",
      "type": "event"
    },
    {
      "anonymous": false,
      "inputs": [
        {
          "indexed": true,
          "internalType": "address",
          "name": "beacon",
          "type": "address"
        }
      ],
      "name": "BeaconUpgraded",
      "type": "event"
    },
    {
      "anonymous": false,
      "inputs": [
        {
          "indexed": true,
          "internalType": "address",
          "name": "delegator",
          "type": "address"
        },
        {
          "indexed": true,
          "internalType": "address",
          "name": "fromDelegate",
          "type": "address"
        },
        {
          "indexed": true,
          "internalType": "address",
          "name": "toDelegate",
          "type": "address"
        }
      ],
      "name": "DelegateChanged",
      "type": "event"
    },
    {
      "anonymous": false,
      "inputs": [
        {
          "indexed": true,
          "internalType": "address",
          "name": "delegate",
          "type": "address"
        },
        {
          "indexed": false,
          "internalType": "uint256",
          "name": "previousBalance",
          "type": "uint256"
        },
        {
          "indexed": false,
          "internalType": "uint256",
          "name": "newBalance",
          "type": "uint256"
        }
      ],
      "name": "DelegateVotesChanged",
      "type": "event"
    },
    {
      "anonymous": false,
      "inputs": [
        {
          "indexed": false,
          "internalType": "uint8",
          "name": "version",
          "type": "uint8"
        }
      ],
      "name": "Initialized",
      "type": "event"
    },
    {
      "anonymous": false,
      "inputs": [
        {
          "indexed": true,
          "internalType": "address",
          "name": "from",
          "type": "address"
        },
        {
          "indexed": true,
          "internalType": "address",
          "name": "to",
          "type": "address"
        },
        {
          "indexed": false,
          "internalType": "uint256",
          "name": "value",
          "type": "uint256"
        }
      ],
      "name": "Transfer",
      "type": "event"
    },
    {
      "anonymous": false,
      "inputs": [
        {
          "indexed": true,
          "internalType": "address",
          "name": "implementation",
          "type": "address"
        }
      ],
      "name": "Upgraded",
      "type": "event"
    },
    {
      "inputs": [],
      "name": "DOMAIN_SEPARATOR",
      "outputs": [
        {
          "internalType": "bytes32",
          "name": "",
          "type": "bytes32"
        }
      ],
      "stateMutability": "view",
      "type": "function"
    },
    {
      "inputs": [
        {
          "internalType": "address",
          "name": "owner",
          "type": "address"
        },
        {
          "internalType": "address",
          "name": "spender",
          "type": "address"
        }
      ],
      "name": "allowance",
      "outputs": [
        {
          "internalType": "uint256",
          "name": "",
          "type": "uint256"
        }
      ],
      "stateMutability": "view",
      "type": "function"
    },
    {
      "inputs": [
        {
          "internalType": "address",
          "name": "spender",
          "type": "address"
        },
        {
          "internalType": "uint256",
          "name": "amount",
          "type": "uint256"
        }
      ],
      "name": "approve",
      "outputs": [
        {
          "internalType": "bool",
          "name": "",
          "type": "bool"
        }
      ],
      "stateMutability": "nonpayable",
      "type": "function"
    },
    {
      "inputs": [
        {
          "internalType": "address",
          "name": "account",
          "type": "address"
        }
      ],
      "name": "balanceOf",
      "outputs": [
        {
          "internalType": "uint256",
          "name": "",
          "type": "uint256"
        }
      ],
      "stateMutability": "view",
      "type": "function"
    },
    {
      "inputs": [
        {
          "internalType": "address",
          "name": "account",
          "type": "address"
        },
        {
          "internalType": "uint32",
          "name": "pos",
          "type": "uint32"
        }
      ],
      "name": "checkpoints",
      "outputs": [
        {
          "components": [
            {
              "internalType": "uint32",
              "name": "fromBlock",
              "type": "uint32"
            },
            {
              "internalType": "uint224",
              "name": "votes",
              "type": "uint224"
            }
          ],
          "internalType": "struct ERC20VotesUpgradeable.Checkpoint",
          "name": "",
          "type": "tuple"
        }
      ],
      "stateMutability": "view",
      "type": "function"
    },
    {
      "inputs": [],
      "name": "dao",
      "outputs": [
        {
          "internalType": "address",
          "name": "",
          "type": "address"
        }
      ],
      "stateMutability": "view",
      "type": "function"
    },
    {
      "inputs": [],
      "name": "decimals",
      "outputs": [
        {
          "internalType": "uint8",
          "name": "",
          "type": "uint8"
        }
      ],
      "stateMutability": "view",
      "type": "function"
    },
    {
      "inputs": [
        {
          "internalType": "address",
          "name": "spender",
          "type": "address"
        },
        {
          "internalType": "uint256",
          "name": "subtractedValue",
          "type": "uint256"
        }
      ],
      "name": "decreaseAllowance",
      "outputs": [
        {
          "internalType": "bool",
          "name": "",
          "type": "bool"
        }
      ],
      "stateMutability": "nonpayable",
      "type": "function"
    },
    {
      "inputs": [
        {
          "internalType": "address",
          "name": "",
          "type": "address"
        }
      ],
      "name": "delegate",
      "outputs": [],
      "stateMutability": "nonpayable",
      "type": "function"
    },
    {
      "inputs": [
        {
          "internalType": "address",
          "name": "",
          "type": "address"
        },
        {
          "internalType": "uint256",
          "name": "",
          "type": "uint256"
        },
        {
          "internalType": "uint256",
          "name": "",
          "type": "uint256"
        },
        {
          "internalType": "uint8",
          "name": "",
          "type": "uint8"
        },
        {
          "internalType": "bytes32",
          "name": "",
          "type": "bytes32"
        },
        {
          "internalType": "bytes32",
          "name": "",
          "type": "bytes32"
        }
      ],
      "name": "delegateBySig",
      "outputs": [],
      "stateMutability": "nonpayable",
      "type": "function"
    },
    {
      "inputs": [
        {
          "internalType": "address",
          "name": "account",
          "type": "address"
        }
      ],
      "name": "delegates",
      "outputs": [
        {
          "internalType": "address",
          "name": "",
          "type": "address"
        }
      ],
      "stateMutability": "view",
      "type": "function"
    },
    {
      "inputs": [
        {
          "internalType": "uint256",
          "name": "blockNumber",
          "type": "uint256"
        }
      ],
      "name": "getPastTotalSupply",
      "outputs": [
        {
          "internalType": "uint256",
          "name": "",
          "type": "uint256"
        }
      ],
      "stateMutability": "view",
      "type": "function"
    },
    {
      "inputs": [
        {
          "internalType": "address",
          "name": "account",
          "type": "address"
        },
        {
          "internalType": "uint256",
          "name": "blockNumber",
          "type": "uint256"
        }
      ],
      "name": "getPastVotes",
      "outputs": [
        {
          "internalType": "uint256",
          "name": "",
          "type": "uint256"
        }
      ],
      "stateMutability": "view",
      "type": "function"
    },
    {
      "inputs": [
        {
          "internalType": "address",
          "name": "account",
          "type": "address"
        }
      ],
      "name": "getVotes",
      "outputs": [
        {
          "internalType": "uint256",
          "name": "",
          "type": "uint256"
        }
      ],
      "stateMutability": "view",
      "type": "function"
    },
    {
      "inputs": [
        {
          "internalType": "address",
          "name": "spender",
          "type": "address"
        },
        {
          "internalType": "uint256",
          "name": "addedValue",
          "type": "uint256"
        }
      ],
      "name": "increaseAllowance",
      "outputs": [
        {
          "internalType": "bool",
          "name": "",
          "type": "bool"
        }
      ],
      "stateMutability": "nonpayable",
      "type": "function"
    },
    {
      "inputs": [
        {
          "internalType": "address",
          "name": "_minter",
          "type": "address"
        },
        {
          "internalType": "string",
          "name": "_name",
          "type": "string"
        },
        {
          "internalType": "string",
          "name": "_symbol",
          "type": "string"
        }
      ],
      "name": "initialize",
      "outputs": [],
      "stateMutability": "nonpayable",
      "type": "function"
    },
    {
      "inputs": [
        {
          "internalType": "address",
          "name": "account",
          "type": "address"
        },
        {
          "internalType": "uint256",
          "name": "amount",
          "type": "uint256"
        }
      ],
      "name": "mint",
      "outputs": [],
      "stateMutability": "nonpayable",
      "type": "function"
    },
    {
      "inputs": [],
      "name": "minter",
      "outputs": [
        {
          "internalType": "address",
          "name": "",
          "type": "address"
        }
      ],
      "stateMutability": "view",
      "type": "function"
    },
    {
      "inputs": [],
      "name": "name",
      "outputs": [
        {
          "internalType": "string",
          "name": "",
          "type": "string"
        }
      ],
      "stateMutability": "view",
      "type": "function"
    },
    {
      "inputs": [
        {
          "internalType": "address",
          "name": "owner",
          "type": "address"
        }
      ],
      "name": "nonces",
      "outputs": [
        {
          "internalType": "uint256",
          "name": "",
          "type": "uint256"
        }
      ],
      "stateMutability": "view",
      "type": "function"
    },
    {
      "inputs": [
        {
          "internalType": "address",
          "name": "account",
          "type": "address"
        }
      ],
      "name": "numCheckpoints",
      "outputs": [
        {
          "internalType": "uint32",
          "name": "",
          "type": "uint32"
        }
      ],
      "stateMutability": "view",
      "type": "function"
    },
    {
      "inputs": [
        {
          "internalType": "address",
          "name": "owner",
          "type": "address"
        },
        {
          "internalType": "address",
          "name": "spender",
          "type": "address"
        },
        {
          "internalType": "uint256",
          "name": "value",
          "type": "uint256"
        },
        {
          "internalType": "uint256",
          "name": "deadline",
          "type": "uint256"
        },
        {
          "internalType": "uint8",
          "name": "v",
          "type": "uint8"
        },
        {
          "internalType": "bytes32",
          "name": "r",
          "type": "bytes32"
        },
        {
          "internalType": "bytes32",
          "name": "s",
          "type": "bytes32"
        }
      ],
      "name": "permit",
      "outputs": [],
      "stateMutability": "nonpayable",
      "type": "function"
    },
    {
      "inputs": [],
      "name": "proxiableUUID",
      "outputs": [
        {
          "internalType": "bytes32",
          "name": "",
          "type": "bytes32"
        }
      ],
      "stateMutability": "view",
      "type": "function"
    },
    {
      "inputs": [],
      "name": "symbol",
      "outputs": [
        {
          "internalType": "string",
          "name": "",
          "type": "string"
        }
      ],
      "stateMutability": "view",
      "type": "function"
    },
    {
      "inputs": [],
      "name": "totalSupply",
      "outputs": [
        {
          "internalType": "uint256",
          "name": "",
          "type": "uint256"
        }
      ],
      "stateMutability": "view",
      "type": "function"
    },
    {
      "inputs": [
        {
          "internalType": "address",
          "name": "to",
          "type": "address"
        },
        {
          "internalType": "uint256",
          "name": "amount",
          "type": "uint256"
        }
      ],
      "name": "transfer",
      "outputs": [
        {
          "internalType": "bool",
          "name": "",
          "type": "bool"
        }
      ],
      "stateMutability": "nonpayable",
      "type": "function"
    },
    {
      "inputs": [
        {
          "internalType": "address",
          "name": "from",
          "type": "address"
        },
        {
          "internalType": "address",
          "name": "to",
          "type": "address"
        },
        {
          "internalType": "uint256",
          "name": "amount",
          "type": "uint256"
        }
      ],
      "name": "transferFrom",
      "outputs": [
        {
          "internalType": "bool",
          "name": "",
          "type": "bool"
        }
      ],
      "stateMutability": "nonpayable",
      "type": "function"
    },
    {
      "inputs": [
        {
          "internalType": "address",
          "name": "newImplementation",
          "type": "address"
        }
      ],
      "name": "upgradeTo",
      "outputs": [],
      "stateMutability": "nonpayable",
      "type": "function"
    },
    {
      "inputs": [
        {
          "internalType": "address",
          "name": "newImplementation",
          "type": "address"
        },
        {
          "internalType": "bytes",
          "name": "data",
          "type": "bytes"
        }
      ],
      "name": "upgradeToAndCall",
      "outputs": [],
      "stateMutability": "payable",
      "type": "function"
    }
  ],
  "transactionHash": "0xa8a85b2b427ec60369886189674d736883d2127d10fd5eec183a29fba1c723c3",
  "args": [],
  "numDeployments": 1,
  "solcInputHash": "1e9641a0e867faade05cafe9c22518cb",
  "bytecode": "0x60a06040523060601b6080523480156200001857600080fd5b506200002362000029565b620000eb565b600054610100900460ff1615620000965760405162461bcd60e51b815260206004820152602760248201527f496e697469616c697a61626c653a20636f6e747261637420697320696e697469604482015266616c697a696e6760c81b606482015260840160405180910390fd5b60005460ff9081161015620000e9576000805460ff191660ff9081179091556040519081527f7f26b83ff96e1f2b6a682f133852f6798a09c465da95921460cefb38474024989060200160405180910390a15b565b60805160601c6129e862000126600039600081816106c10152818161070a0152818161084e0152818161088e015261091d01526129e86000f3fe6080604052600436106101c25760003560e01c8063587cde1e116100f757806395d89b4111610095578063c3cda52011610064578063c3cda52014610530578063d505accf1461054b578063dd62ed3e1461056b578063f1127ed81461058b57600080fd5b806395d89b41146104bb5780639ab24eb0146104d0578063a457c2d7146104f0578063a9059cbb1461051057600080fd5b806370a08231116100d157806370a08231146104255780637ecebe001461045b5780638e539e8c1461047b578063906571471461049b57600080fd5b8063587cde1e146103965780635c19a95c146103d05780636fcfff45146103f057600080fd5b80633659cfe61161016457806340c10f191161013e57806340c10f191461032d5780634162169f1461034d5780634f1ef2861461036e57806352d1902d1461038157600080fd5b80633659cfe6146102cb57806339509351146102ed5780633a46b1a81461030d57600080fd5b806318160ddd116101a057806318160ddd1461025b57806323b872dd1461027a578063313ce5671461029a5780633644e515146102b657600080fd5b806306fdde03146101c757806307546172146101f2578063095ea7b31461022b575b600080fd5b3480156101d357600080fd5b506101dc6105d5565b6040516101e9919061274b565b60405180910390f35b3480156101fe57600080fd5b5061016254610213906001600160a01b031681565b6040516001600160a01b0390911681526020016101e9565b34801561023757600080fd5b5061024b61024636600461263b565b610667565b60405190151581526020016101e9565b34801561026757600080fd5b506099545b6040519081526020016101e9565b34801561028657600080fd5b5061024b6102953660046124bf565b610681565b3480156102a657600080fd5b50604051601281526020016101e9565b3480156102c257600080fd5b5061026c6106a7565b3480156102d757600080fd5b506102eb6102e6366004612471565b6106b6565b005b3480156102f957600080fd5b5061024b61030836600461263b565b61079f565b34801561031957600080fd5b5061026c61032836600461263b565b6107c1565b34801561033957600080fd5b506102eb61034836600461263b565b6107ed565b34801561035957600080fd5b5061016354610213906001600160a01b031681565b6102eb61037c366004612565565b610843565b34801561038d57600080fd5b5061026c610910565b3480156103a257600080fd5b506102136103b1366004612471565b6001600160a01b03908116600090815261013060205260409020541690565b3480156103dc57600080fd5b506102eb6103eb366004612471565b6109c3565b3480156103fc57600080fd5b5061041061040b366004612471565b610a0b565b60405163ffffffff90911681526020016101e9565b34801561043157600080fd5b5061026c610440366004612471565b6001600160a01b031660009081526097602052604090205490565b34801561046757600080fd5b5061026c610476366004612471565b610a2e565b34801561048757600080fd5b5061026c610496366004612716565b610a4c565b3480156104a757600080fd5b506102eb6104b63660046125c7565b610a79565b3480156104c757600080fd5b506101dc610c0a565b3480156104dc57600080fd5b5061026c6104eb366004612471565b610c19565b3480156104fc57600080fd5b5061024b61050b36600461263b565b610c44565b34801561051c57600080fd5b5061024b61052b36600461263b565b610cca565b34801561053c57600080fd5b506102eb6103eb366004612665565b34801561055757600080fd5b506102eb6105663660046124fb565b610cd8565b34801561057757600080fd5b5061026c61058636600461248c565b610e3c565b34801561059757600080fd5b506105ab6105a63660046126bd565b610e67565b60408051825163ffffffff1681526020928301516001600160e01b031692810192909252016101e9565b6060609a80546105e4906128de565b80601f0160208091040260200160405190810160405280929190818152602001828054610610906128de565b801561065d5780601f106106325761010080835404028352916020019161065d565b820191906000526020600020905b81548152906001019060200180831161064057829003601f168201915b5050505050905090565b600033610675818585610eec565b60019150505b92915050565b60003361068f858285611010565b61069a858585611084565b60019150505b9392505050565b60006106b1611258565b905090565b306001600160a01b037f00000000000000000000000000000000000000000000000000000000000000001614156107085760405162461bcd60e51b81526004016106ff9061277e565b60405180910390fd5b7f00000000000000000000000000000000000000000000000000000000000000006001600160a01b031661075160008051602061296c833981519152546001600160a01b031690565b6001600160a01b0316146107775760405162461bcd60e51b81526004016106ff906127ca565b610780816112d3565b6040805160008082526020820190925261079c91839190611318565b50565b6000336106758185856107b28383610e3c565b6107bc9190612861565b610eec565b610162546000906001600160a01b03848116911614156107e35750600061067b565b6106a08383611497565b610162546001600160a01b031633146108355760405162461bcd60e51b815260206004820152600a6024820152692737ba1036b4b73a32b960b11b60448201526064016106ff565b61083f828261150b565b5050565b306001600160a01b037f000000000000000000000000000000000000000000000000000000000000000016141561088c5760405162461bcd60e51b81526004016106ff9061277e565b7f00000000000000000000000000000000000000000000000000000000000000006001600160a01b03166108d560008051602061296c833981519152546001600160a01b031690565b6001600160a01b0316146108fb5760405162461bcd60e51b81526004016106ff906127ca565b610904826112d3565b61083f82826001611318565b6000306001600160a01b037f000000000000000000000000000000000000000000000000000000000000000016146109b05760405162461bcd60e51b815260206004820152603860248201527f555550535570677261646561626c653a206d757374206e6f742062652063616c60448201527f6c6564207468726f7567682064656c656761746563616c6c000000000000000060648201526084016106ff565b5060008051602061296c83398151915290565b60405162461bcd60e51b815260206004820152601960248201527f4e6f7420737570706f72742064656c656761746520566f74650000000000000060448201526064016106ff565b6001600160a01b0381166000908152610131602052604081205461067b90611596565b6001600160a01b038116600090815260fd602052604081205461067b565b61016254600090610a66906001600160a01b031683611497565b610a6f836115ff565b61067b919061289b565b600054610100900460ff1615808015610a995750600054600160ff909116105b80610ab35750303b158015610ab3575060005460ff166001145b610b165760405162461bcd60e51b815260206004820152602e60248201527f496e697469616c697a61626c653a20636f6e747261637420697320616c72656160448201526d191e481a5b9a5d1a585b1a5e995960921b60648201526084016106ff565b6000805460ff191660011790558015610b39576000805461ff0019166101001790555b6001600160a01b038416610b805760405162461bcd60e51b815260206004820152600e60248201526d1b5a5b9d195c881a5cc81b9d5b1b60921b60448201526064016106ff565b61016280546001600160a01b0386166001600160a01b031991821617909155610163805490911633179055610bb48361165c565b610bbe83836116a6565b8015610c04576000805461ff0019169055604051600181527f7f26b83ff96e1f2b6a682f133852f6798a09c465da95921460cefb38474024989060200160405180910390a15b50505050565b6060609b80546105e4906128de565b610162546000906001600160a01b0383811691161415610c3b57506000919050565b61067b826116d7565b60003381610c528286610e3c565b905083811015610cb25760405162461bcd60e51b815260206004820152602560248201527f45524332303a2064656372656173656420616c6c6f77616e63652062656c6f77604482015264207a65726f60d81b60648201526084016106ff565b610cbf8286868403610eec565b506001949350505050565b600033610675818585611084565b83421115610d285760405162461bcd60e51b815260206004820152601d60248201527f45524332305065726d69743a206578706972656420646561646c696e6500000060448201526064016106ff565b60007f6e71edae12b1b97f4d1f60370fef10105fa2faae0126114a169c64845d6126c9888888610d578c611760565b6040805160208101969096526001600160a01b0394851690860152929091166060840152608083015260a082015260c0810186905260e0016040516020818303038152906040528051906020012090506000610db282611788565b90506000610dc2828787876117d6565b9050896001600160a01b0316816001600160a01b031614610e255760405162461bcd60e51b815260206004820152601e60248201527f45524332305065726d69743a20696e76616c6964207369676e6174757265000060448201526064016106ff565b610e308a8a8a610eec565b50505050505050505050565b6001600160a01b03918216600090815260986020908152604080832093909416825291909152205490565b60408051808201909152600080825260208201526001600160a01b038316600090815261013160205260409020805463ffffffff8416908110610eac57610eac61293f565b60009182526020918290206040805180820190915291015463ffffffff8116825264010000000090046001600160e01b0316918101919091529392505050565b6001600160a01b038316610f4e5760405162461bcd60e51b8152602060048201526024808201527f45524332303a20617070726f76652066726f6d20746865207a65726f206164646044820152637265737360e01b60648201526084016106ff565b6001600160a01b038216610faf5760405162461bcd60e51b815260206004820152602260248201527f45524332303a20617070726f766520746f20746865207a65726f206164647265604482015261737360f01b60648201526084016106ff565b6001600160a01b0383811660008181526098602090815260408083209487168084529482529182902085905590518481527f8c5be1e5ebec7d5bd14f71427d1e84f3dd0314c0f7b2291e5b200ac8c7c3b925910160405180910390a3505050565b600061101c8484610e3c565b90506000198114610c0457818110156110775760405162461bcd60e51b815260206004820152601d60248201527f45524332303a20696e73756666696369656e7420616c6c6f77616e636500000060448201526064016106ff565b610c048484848403610eec565b6001600160a01b0383166110e85760405162461bcd60e51b815260206004820152602560248201527f45524332303a207472616e736665722066726f6d20746865207a65726f206164604482015264647265737360d81b60648201526084016106ff565b6001600160a01b03821661114a5760405162461bcd60e51b815260206004820152602360248201527f45524332303a207472616e7366657220746f20746865207a65726f206164647260448201526265737360e81b60648201526084016106ff565b6001600160a01b038316600090815260976020526040902054818110156111c25760405162461bcd60e51b815260206004820152602660248201527f45524332303a207472616e7366657220616d6f756e7420657863656564732062604482015265616c616e636560d01b60648201526084016106ff565b6001600160a01b038085166000908152609760205260408082208585039055918516815290812080548492906111f9908490612861565b92505081905550826001600160a01b0316846001600160a01b03167fddf252ad1be2c89b69c2b068fc378daa952ba7f163c4a11628f55a4df523b3ef8460405161124591815260200190565b60405180910390a3610c048484846117fe565b60006106b17f8b73c3c69bb8fe3d512ecc4cf759cc79239f7b179b0ffacaa9a75d522b39400f61128760c95490565b60ca546040805160208101859052908101839052606081018290524660808201523060a082015260009060c0016040516020818303038152906040528051906020012090509392505050565b610163546001600160a01b0316331461079c5760405162461bcd60e51b81526020600482015260076024820152664e6f742064616f60c81b60448201526064016106ff565b7f4910fdfa16fed3260ed0e7147f7cc6da11a60208b5b9406d12a635614ffd91435460ff16156113505761134b83611813565b505050565b826001600160a01b03166352d1902d6040518163ffffffff1660e01b815260040160206040518083038186803b15801561138957600080fd5b505afa9250505080156113b9575060408051601f3d908101601f191682019092526113b6918101906126fd565b60015b61141c5760405162461bcd60e51b815260206004820152602e60248201527f45524331393637557067726164653a206e657720696d706c656d656e7461746960448201526d6f6e206973206e6f74205555505360901b60648201526084016106ff565b60008051602061296c833981519152811461148b5760405162461bcd60e51b815260206004820152602960248201527f45524331393637557067726164653a20756e737570706f727465642070726f786044820152681a58589b195555525160ba1b60648201526084016106ff565b5061134b8383836118af565b60004382106114e85760405162461bcd60e51b815260206004820152601f60248201527f4552433230566f7465733a20626c6f636b206e6f7420796574206d696e65640060448201526064016106ff565b6001600160a01b0383166000908152610131602052604090206106a090836118d4565b6115158282611991565b6099546001600160e01b0310156115875760405162461bcd60e51b815260206004820152603060248201527f4552433230566f7465733a20746f74616c20737570706c79207269736b73206f60448201526f766572666c6f77696e6720766f74657360801b60648201526084016106ff565b610c04610132611a7883611a84565b600063ffffffff8211156115fb5760405162461bcd60e51b815260206004820152602660248201527f53616665436173743a2076616c756520646f65736e27742066697420696e203360448201526532206269747360d01b60648201526084016106ff565b5090565b60004382106116505760405162461bcd60e51b815260206004820152601f60248201527f4552433230566f7465733a20626c6f636b206e6f7420796574206d696e65640060448201526064016106ff565b61067b610132836118d4565b600054610100900460ff166116835760405162461bcd60e51b81526004016106ff90612816565b61079c81604051806040016040528060018152602001603160f81b815250611bfd565b600054610100900460ff166116cd5760405162461bcd60e51b81526004016106ff90612816565b61083f8282611c3e565b6001600160a01b03811660009081526101316020526040812054801561174d576001600160a01b03831660009081526101316020526040902061171b60018361289b565b8154811061172b5761172b61293f565b60009182526020909120015464010000000090046001600160e01b0316611750565b60005b6001600160e01b03169392505050565b6001600160a01b038116600090815260fd602052604090208054600181018255905b50919050565b600061067b611795611258565b8360405161190160f01b6020820152602281018390526042810182905260009060620160405160208183030381529060405280519060200120905092915050565b60008060006117e787878787611c8c565b915091506117f481611d79565b5095945050505050565b611809838383611f34565b61134b8283611f67565b6001600160a01b0381163b6118805760405162461bcd60e51b815260206004820152602d60248201527f455243313936373a206e657720696d706c656d656e746174696f6e206973206e60448201526c1bdd08184818dbdb9d1c9858dd609a1b60648201526084016106ff565b60008051602061296c83398151915280546001600160a01b0319166001600160a01b0392909216919091179055565b6118b883611fe2565b6000825111806118c55750805b1561134b57610c048383612022565b8154600090815b818110156119385760006118ef8284612116565b9050848682815481106119045761190461293f565b60009182526020909120015463ffffffff16111561192457809250611932565b61192f816001612861565b91505b506118db565b811561197c578461194a60018461289b565b8154811061195a5761195a61293f565b60009182526020909120015464010000000090046001600160e01b031661197f565b60005b6001600160e01b031695945050505050565b6001600160a01b0382166119e75760405162461bcd60e51b815260206004820152601f60248201527f45524332303a206d696e7420746f20746865207a65726f20616464726573730060448201526064016106ff565b80609960008282546119f99190612861565b90915550506001600160a01b03821660009081526097602052604081208054839290611a26908490612861565b90915550506040518181526001600160a01b038316906000907fddf252ad1be2c89b69c2b068fc378daa952ba7f163c4a11628f55a4df523b3ef9060200160405180910390a361083f600083836117fe565b60006106a08284612861565b825460009081908015611acf5785611a9d60018361289b565b81548110611aad57611aad61293f565b60009182526020909120015464010000000090046001600160e01b0316611ad2565b60005b6001600160e01b03169250611aeb83858763ffffffff16565b9150600081118015611b2957504386611b0560018461289b565b81548110611b1557611b1561293f565b60009182526020909120015463ffffffff16145b15611b8957611b3782612131565b86611b4360018461289b565b81548110611b5357611b5361293f565b9060005260206000200160000160046101000a8154816001600160e01b0302191690836001600160e01b03160217905550611bf4565b856040518060400160405280611b9e43611596565b63ffffffff168152602001611bb285612131565b6001600160e01b0390811690915282546001810184556000938452602093849020835194909301519091166401000000000263ffffffff909316929092179101555b50935093915050565b600054610100900460ff16611c245760405162461bcd60e51b81526004016106ff90612816565b81516020928301208151919092012060c99190915560ca55565b600054610100900460ff16611c655760405162461bcd60e51b81526004016106ff90612816565b8151611c7890609a90602085019061231e565b50805161134b90609b90602084019061231e565b6000807f7fffffffffffffffffffffffffffffff5d576e7357a4501ddfe92f46681b20a0831115611cc35750600090506003611d70565b8460ff16601b14158015611cdb57508460ff16601c14155b15611cec5750600090506004611d70565b6040805160008082526020820180845289905260ff881692820192909252606081018690526080810185905260019060a0016020604051602081039080840390855afa158015611d40573d6000803e3d6000fd5b5050604051601f1901519150506001600160a01b038116611d6957600060019250925050611d70565b9150600090505b94509492505050565b6000816004811115611d8d57611d8d612929565b1415611d965750565b6001816004811115611daa57611daa612929565b1415611df85760405162461bcd60e51b815260206004820152601860248201527f45434453413a20696e76616c6964207369676e6174757265000000000000000060448201526064016106ff565b6002816004811115611e0c57611e0c612929565b1415611e5a5760405162461bcd60e51b815260206004820152601f60248201527f45434453413a20696e76616c6964207369676e6174757265206c656e6774680060448201526064016106ff565b6003816004811115611e6e57611e6e612929565b1415611ec75760405162461bcd60e51b815260206004820152602260248201527f45434453413a20696e76616c6964207369676e6174757265202773272076616c604482015261756560f01b60648201526084016106ff565b6004816004811115611edb57611edb612929565b141561079c5760405162461bcd60e51b815260206004820152602260248201527f45434453413a20696e76616c6964207369676e6174757265202776272076616c604482015261756560f01b60648201526084016106ff565b6001600160a01b038381166000908152610130602052604080822054858416835291205461134b9291821691168361219a565b6001600160a01b0382811660008181526101306020818152604080842080546097845282862054949093528787166001600160a01b03198416811790915590519190951694919391928592917f3134e8a2e6d97e929a7e54011ea5485d7d196dd5f0ba4d4ef95803e8e3fc257f9190a4610c0482848361219a565b611feb81611813565b6040516001600160a01b038216907fbc7cd75a20ee27fd9adebab32041f755214dbc6bffa90cc0225b39da2e5c2d3b90600090a250565b60606001600160a01b0383163b61208a5760405162461bcd60e51b815260206004820152602660248201527f416464726573733a2064656c65676174652063616c6c20746f206e6f6e2d636f6044820152651b9d1c9858dd60d21b60648201526084016106ff565b600080846001600160a01b0316846040516120a5919061272f565b600060405180830381855af49150503d80600081146120e0576040519150601f19603f3d011682016040523d82523d6000602084013e6120e5565b606091505b509150915061210d828260405180606001604052806027815260200161298c602791396122d9565b95945050505050565b60006121256002848418612879565b6106a090848416612861565b60006001600160e01b038211156115fb5760405162461bcd60e51b815260206004820152602760248201527f53616665436173743a2076616c756520646f65736e27742066697420696e20326044820152663234206269747360c81b60648201526084016106ff565b816001600160a01b0316836001600160a01b0316141580156121bc5750600081115b1561134b576001600160a01b0383161561224b576001600160a01b03831660009081526101316020526040812081906121f89061231285611a84565b91509150846001600160a01b03167fdec2bacdd2f05b59de34da9b523dff8be42e5e38e818c82fdb0bae774387a7248383604051612240929190918252602082015260400190565b60405180910390a250505b6001600160a01b0382161561134b576001600160a01b038216600090815261013160205260408120819061228290611a7885611a84565b91509150836001600160a01b03167fdec2bacdd2f05b59de34da9b523dff8be42e5e38e818c82fdb0bae774387a72483836040516122ca929190918252602082015260400190565b60405180910390a25050505050565b606083156122e85750816106a0565b8251156122f85782518084602001fd5b8160405162461bcd60e51b81526004016106ff919061274b565b60006106a0828461289b565b82805461232a906128de565b90600052602060002090601f01602090048101928261234c5760008555612392565b82601f1061236557805160ff1916838001178555612392565b82800160010185558215612392579182015b82811115612392578251825591602001919060010190612377565b506115fb9291505b808211156115fb576000815560010161239a565b600067ffffffffffffffff808411156123c9576123c9612955565b604051601f8501601f19908116603f011681019082821181831017156123f1576123f1612955565b8160405280935085815286868601111561240a57600080fd5b858560208301376000602087830101525050509392505050565b80356001600160a01b038116811461243b57600080fd5b919050565b600082601f83011261245157600080fd5b6106a0838335602085016123ae565b803560ff8116811461243b57600080fd5b60006020828403121561248357600080fd5b6106a082612424565b6000806040838503121561249f57600080fd5b6124a883612424565b91506124b660208401612424565b90509250929050565b6000806000606084860312156124d457600080fd5b6124dd84612424565b92506124eb60208501612424565b9150604084013590509250925092565b600080600080600080600060e0888a03121561251657600080fd5b61251f88612424565b965061252d60208901612424565b9550604088013594506060880135935061254960808901612460565b925060a0880135915060c0880135905092959891949750929550565b6000806040838503121561257857600080fd5b61258183612424565b9150602083013567ffffffffffffffff81111561259d57600080fd5b8301601f810185136125ae57600080fd5b6125bd858235602084016123ae565b9150509250929050565b6000806000606084860312156125dc57600080fd5b6125e584612424565b9250602084013567ffffffffffffffff8082111561260257600080fd5b61260e87838801612440565b9350604086013591508082111561262457600080fd5b5061263186828701612440565b9150509250925092565b6000806040838503121561264e57600080fd5b61265783612424565b946020939093013593505050565b60008060008060008060c0878903121561267e57600080fd5b61268787612424565b955060208701359450604087013593506126a360608801612460565b92506080870135915060a087013590509295509295509295565b600080604083850312156126d057600080fd5b6126d983612424565b9150602083013563ffffffff811681146126f257600080fd5b809150509250929050565b60006020828403121561270f57600080fd5b5051919050565b60006020828403121561272857600080fd5b5035919050565b600082516127418184602087016128b2565b9190910192915050565b602081526000825180602084015261276a8160408501602087016128b2565b601f01601f19169190910160400192915050565b6020808252602c908201527f46756e6374696f6e206d7573742062652063616c6c6564207468726f7567682060408201526b19195b1959d85d1958d85b1b60a21b606082015260800190565b6020808252602c908201527f46756e6374696f6e206d7573742062652063616c6c6564207468726f7567682060408201526b6163746976652070726f787960a01b606082015260800190565b6020808252602b908201527f496e697469616c697a61626c653a20636f6e7472616374206973206e6f74206960408201526a6e697469616c697a696e6760a81b606082015260800190565b6000821982111561287457612874612913565b500190565b60008261289657634e487b7160e01b600052601260045260246000fd5b500490565b6000828210156128ad576128ad612913565b500390565b60005b838110156128cd5781810151838201526020016128b5565b83811115610c045750506000910152565b600181811c908216806128f257607f821691505b6020821081141561178257634e487b7160e01b600052602260045260246000fd5b634e487b7160e01b600052601160045260246000fd5b634e487b7160e01b600052602160045260246000fd5b634e487b7160e01b600052603260045260246000fd5b634e487b7160e01b600052604160045260246000fdfe360894a13ba1a3210667c828492db98dca3e2076cc3735a920a3ca505d382bbc416464726573733a206c6f772d6c6576656c2064656c65676174652063616c6c206661696c6564a2646970667358221220f96d7a92f62396c4a28d6321765b8c66b64180ca61f32595c3022baeb1ec293964736f6c63430008070033",
  "devdoc": {
    "kind": "dev",
    "methods": {
      "DOMAIN_SEPARATOR()": {
        "details": "See {IERC20Permit-DOMAIN_SEPARATOR}."
      },
      "allowance(address,address)": {
        "details": "See {IERC20-allowance}."
      },
      "approve(address,uint256)": {
        "details": "See {IERC20-approve}. NOTE: If `amount` is the maximum `uint256`, the allowance is not updated on `transferFrom`. This is semantically equivalent to an infinite approval. Requirements: - `spender` cannot be the zero address."
      },
      "balanceOf(address)": {
        "details": "See {IERC20-balanceOf}."
      },
      "checkpoints(address,uint32)": {
        "details": "Get the `pos`-th checkpoint for `account`."
      },
      "constructor": {
        "custom:oz-upgrades-unsafe-allow": "constructor"
      },
      "decimals()": {
        "details": "Returns the number of decimals used to get its user representation. For example, if `decimals` equals `2`, a balance of `505` tokens should be displayed to a user as `5.05` (`505 / 10 ** 2`). Tokens usually opt for a value of 18, imitating the relationship between Ether and Wei. This is the value {ERC20} uses, unless this function is overridden; NOTE: This information is only used for _display_ purposes: it in no way affects any of the arithmetic of the contract, including {IERC20-balanceOf} and {IERC20-transfer}."
      },
      "decreaseAllowance(address,uint256)": {
        "details": "Atomically decreases the allowance granted to `spender` by the caller. This is an alternative to {approve} that can be used as a mitigation for problems described in {IERC20-approve}. Emits an {Approval} event indicating the updated allowance. Requirements: - `spender` cannot be the zero address. - `spender` must have allowance for the caller of at least `subtractedValue`."
      },
      "delegates(address)": {
        "details": "Get the address `account` is currently delegating to."
      },
      "getPastTotalSupply(uint256)": {
        "details": "Retrieve the `totalSupply` at the end of `blockNumber`. Note, this value is the sum of all balances. It is but NOT the sum of all the delegated votes! Requirements: - `blockNumber` must have been already mined"
      },
      "getPastVotes(address,uint256)": {
        "details": "Retrieve the number of votes for `account` at the end of `blockNumber`. Requirements: - `blockNumber` must have been already mined"
      },
      "getVotes(address)": {
        "details": "Gets the current votes balance for `account`"
      },
      "increaseAllowance(address,uint256)": {
        "details": "Atomically increases the allowance granted to `spender` by the caller. This is an alternative to {approve} that can be used as a mitigation for problems described in {IERC20-approve}. Emits an {Approval} event indicating the updated allowance. Requirements: - `spender` cannot be the zero address."
      },
      "name()": {
        "details": "Returns the name of the token."
      },
      "nonces(address)": {
        "details": "See {IERC20Permit-nonces}."
      },
      "numCheckpoints(address)": {
        "details": "Get number of checkpoints for `account`."
      },
      "permit(address,address,uint256,uint256,uint8,bytes32,bytes32)": {
        "details": "See {IERC20Permit-permit}."
      },
      "proxiableUUID()": {
        "details": "Implementation of the ERC1822 {proxiableUUID} function. This returns the storage slot used by the implementation. It is used to validate that the this implementation remains valid after an upgrade. IMPORTANT: A proxy pointing at a proxiable contract should not be considered proxiable itself, because this risks bricking a proxy that upgrades to it, by delegating to itself until out of gas. Thus it is critical that this function revert if invoked through a proxy. This is guaranteed by the `notDelegated` modifier."
      },
      "symbol()": {
        "details": "Returns the symbol of the token, usually a shorter version of the name."
      },
      "totalSupply()": {
        "details": "See {IERC20-totalSupply}."
      },
      "transfer(address,uint256)": {
        "details": "See {IERC20-transfer}. Requirements: - `to` cannot be the zero address. - the caller must have a balance of at least `amount`."
      },
      "transferFrom(address,address,uint256)": {
        "details": "See {IERC20-transferFrom}. Emits an {Approval} event indicating the updated allowance. This is not required by the EIP. See the note at the beginning of {ERC20}. NOTE: Does not update the allowance if the current allowance is the maximum `uint256`. Requirements: - `from` and `to` cannot be the zero address. - `from` must have a balance of at least `amount`. - the caller must have allowance for ``from``'s tokens of at least `amount`."
      },
      "upgradeTo(address)": {
        "details": "Upgrade the implementation of the proxy to `newImplementation`. Calls {_authorizeUpgrade}. Emits an {Upgraded} event."
      },
      "upgradeToAndCall(address,bytes)": {
        "details": "Upgrade the implementation of the proxy to `newImplementation`, and subsequently execute the function call encoded in `data`. Calls {_authorizeUpgrade}. Emits an {Upgraded} event."
      }
    },
    "version": 1
  },
  "userdoc": {
    "kind": "user",
    "methods": {},
    "version": 1
  },
  "storageLayout": {
    "storage": [
      {
        "astId": 3247,
        "contract": "contracts/MemberToken.sol:MemberToken",
        "label": "_initialized",
        "offset": 0,
        "slot": "0",
        "type": "t_uint8"
      },
      {
        "astId": 3250,
        "contract": "contracts/MemberToken.sol:MemberToken",
        "label": "_initializing",
        "offset": 1,
        "slot": "0",
        "type": "t_bool"
      },
      {
        "astId": 3229,
        "contract": "contracts/MemberToken.sol:MemberToken",
        "label": "__gap",
        "offset": 0,
        "slot": "1",
        "type": "t_array(t_uint256)50_storage"
      },
      {
        "astId": 3526,
        "contract": "contracts/MemberToken.sol:MemberToken",
        "label": "__gap",
        "offset": 0,
        "slot": "51",
        "type": "t_array(t_uint256)50_storage"
      },
      {
        "astId": 8642,
        "contract": "contracts/MemberToken.sol:MemberToken",
        "label": "__gap",
        "offset": 0,
        "slot": "101",
        "type": "t_array(t_uint256)50_storage"
      },
      {
        "astId": 5094,
        "contract": "contracts/MemberToken.sol:MemberToken",
        "label": "_balances",
        "offset": 0,
        "slot": "151",
        "type": "t_mapping(t_address,t_uint256)"
      },
      {
        "astId": 5100,
        "contract": "contracts/MemberToken.sol:MemberToken",
        "label": "_allowances",
        "offset": 0,
        "slot": "152",
        "type": "t_mapping(t_address,t_mapping(t_address,t_uint256))"
      },
      {
        "astId": 5102,
        "contract": "contracts/MemberToken.sol:MemberToken",
        "label": "_totalSupply",
        "offset": 0,
        "slot": "153",
        "type": "t_uint256"
      },
      {
        "astId": 5104,
        "contract": "contracts/MemberToken.sol:MemberToken",
        "label": "_name",
        "offset": 0,
        "slot": "154",
        "type": "t_string_storage"
      },
      {
        "astId": 5106,
        "contract": "contracts/MemberToken.sol:MemberToken",
        "label": "_symbol",
        "offset": 0,
        "slot": "155",
        "type": "t_string_storage"
      },
      {
        "astId": 5685,
        "contract": "contracts/MemberToken.sol:MemberToken",
        "label": "__gap",
        "offset": 0,
        "slot": "156",
        "type": "t_array(t_uint256)45_storage"
      },
      {
        "astId": 9614,
        "contract": "contracts/MemberToken.sol:MemberToken",
        "label": "_HASHED_NAME",
        "offset": 0,
        "slot": "201",
        "type": "t_bytes32"
      },
      {
        "astId": 9616,
        "contract": "contracts/MemberToken.sol:MemberToken",
        "label": "_HASHED_VERSION",
        "offset": 0,
        "slot": "202",
        "type": "t_bytes32"
      },
      {
        "astId": 9754,
        "contract": "contracts/MemberToken.sol:MemberToken",
        "label": "__gap",
        "offset": 0,
        "slot": "203",
        "type": "t_array(t_uint256)50_storage"
      },
      {
        "astId": 6472,
        "contract": "contracts/MemberToken.sol:MemberToken",
        "label": "_nonces",
        "offset": 0,
        "slot": "253",
        "type": "t_mapping(t_address,t_struct(Counter)8649_storage)"
      },
      {
        "astId": 6480,
        "contract": "contracts/MemberToken.sol:MemberToken",
        "label": "_PERMIT_TYPEHASH_DEPRECATED_SLOT",
        "offset": 0,
        "slot": "254",
        "type": "t_bytes32"
      },
      {
        "astId": 6636,
        "contract": "contracts/MemberToken.sol:MemberToken",
        "label": "__gap",
        "offset": 0,
        "slot": "255",
        "type": "t_array(t_uint256)49_storage"
      },
      {
        "astId": 5805,
        "contract": "contracts/MemberToken.sol:MemberToken",
        "label": "_delegates",
        "offset": 0,
        "slot": "304",
        "type": "t_mapping(t_address,t_address)"
      },
      {
        "astId": 5811,
        "contract": "contracts/MemberToken.sol:MemberToken",
        "label": "_checkpoints",
        "offset": 0,
        "slot": "305",
        "type": "t_mapping(t_address,t_array(t_struct(Checkpoint)5796_storage)dyn_storage)"
      },
      {
        "astId": 5815,
        "contract": "contracts/MemberToken.sol:MemberToken",
        "label": "_totalSupplyCheckpoints",
        "offset": 0,
        "slot": "306",
        "type": "t_array(t_struct(Checkpoint)5796_storage)dyn_storage"
      },
      {
        "astId": 6420,
        "contract": "contracts/MemberToken.sol:MemberToken",
        "label": "__gap",
        "offset": 0,
        "slot": "307",
        "type": "t_array(t_uint256)47_storage"
      },
      {
        "astId": 24370,
        "contract": "contracts/MemberToken.sol:MemberToken",
        "label": "minter",
        "offset": 0,
        "slot": "354",
        "type": "t_address"
      },
      {
        "astId": 24372,
        "contract": "contracts/MemberToken.sol:MemberToken",
        "label": "dao",
        "offset": 0,
        "slot": "355",
        "type": "t_address"
      },
      {
        "astId": 24591,
        "contract": "contracts/MemberToken.sol:MemberToken",
        "label": "__gap",
        "offset": 0,
        "slot": "356",
        "type": "t_array(t_uint256)50_storage"
      }
    ],
    "types": {
      "t_address": {
        "encoding": "inplace",
        "label": "address",
        "numberOfBytes": "20"
      },
      "t_array(t_struct(Checkpoint)5796_storage)dyn_storage": {
        "base": "t_struct(Checkpoint)5796_storage",
        "encoding": "dynamic_array",
        "label": "struct ERC20VotesUpgradeable.Checkpoint[]",
        "numberOfBytes": "32"
      },
      "t_array(t_uint256)45_storage": {
        "base": "t_uint256",
        "encoding": "inplace",
        "label": "uint256[45]",
        "numberOfBytes": "1440"
      },
      "t_array(t_uint256)47_storage": {
        "base": "t_uint256",
        "encoding": "inplace",
        "label": "uint256[47]",
        "numberOfBytes": "1504"
      },
      "t_array(t_uint256)49_storage": {
        "base": "t_uint256",
        "encoding": "inplace",
        "label": "uint256[49]",
        "numberOfBytes": "1568"
      },
      "t_array(t_uint256)50_storage": {
        "base": "t_uint256",
        "encoding": "inplace",
        "label": "uint256[50]",
        "numberOfBytes": "1600"
      },
      "t_bool": {
        "encoding": "inplace",
        "label": "bool",
        "numberOfBytes": "1"
      },
      "t_bytes32": {
        "encoding": "inplace",
        "label": "bytes32",
        "numberOfBytes": "32"
      },
      "t_mapping(t_address,t_address)": {
        "encoding": "mapping",
        "key": "t_address",
        "label": "mapping(address => address)",
        "numberOfBytes": "32",
        "value": "t_address"
      },
      "t_mapping(t_address,t_array(t_struct(Checkpoint)5796_storage)dyn_storage)": {
        "encoding": "mapping",
        "key": "t_address",
        "label": "mapping(address => struct ERC20VotesUpgradeable.Checkpoint[])",
        "numberOfBytes": "32",
        "value": "t_array(t_struct(Checkpoint)5796_storage)dyn_storage"
      },
      "t_mapping(t_address,t_mapping(t_address,t_uint256))": {
        "encoding": "mapping",
        "key": "t_address",
        "label": "mapping(address => mapping(address => uint256))",
        "numberOfBytes": "32",
        "value": "t_mapping(t_address,t_uint256)"
      },
      "t_mapping(t_address,t_struct(Counter)8649_storage)": {
        "encoding": "mapping",
        "key": "t_address",
        "label": "mapping(address => struct CountersUpgradeable.Counter)",
        "numberOfBytes": "32",
        "value": "t_struct(Counter)8649_storage"
      },
      "t_mapping(t_address,t_uint256)": {
        "encoding": "mapping",
        "key": "t_address",
        "label": "mapping(address => uint256)",
        "numberOfBytes": "32",
        "value": "t_uint256"
      },
      "t_string_storage": {
        "encoding": "bytes",
        "label": "string",
        "numberOfBytes": "32"
      },
      "t_struct(Checkpoint)5796_storage": {
        "encoding": "inplace",
        "label": "struct ERC20VotesUpgradeable.Checkpoint",
        "members": [
          {
            "astId": 5793,
            "contract": "contracts/MemberToken.sol:MemberToken",
            "label": "fromBlock",
            "offset": 0,
            "slot": "0",
            "type": "t_uint32"
          },
          {
            "astId": 5795,
            "contract": "contracts/MemberToken.sol:MemberToken",
            "label": "votes",
            "offset": 4,
            "slot": "0",
            "type": "t_uint224"
          }
        ],
        "numberOfBytes": "32"
      },
      "t_struct(Counter)8649_storage": {
        "encoding": "inplace",
        "label": "struct CountersUpgradeable.Counter",
        "members": [
          {
            "astId": 8648,
            "contract": "contracts/MemberToken.sol:MemberToken",
            "label": "_value",
            "offset": 0,
            "slot": "0",
            "type": "t_uint256"
          }
        ],
        "numberOfBytes": "32"
      },
      "t_uint224": {
        "encoding": "inplace",
        "label": "uint224",
        "numberOfBytes": "28"
      },
      "t_uint256": {
        "encoding": "inplace",
        "label": "uint256",
        "numberOfBytes": "32"
      },
      "t_uint32": {
        "encoding": "inplace",
        "label": "uint32",
        "numberOfBytes": "4"
      },
      "t_uint8": {
        "encoding": "inplace",
        "label": "uint8",
        "numberOfBytes": "1"
      }
    }
  }
}