{
  "address": "0x04b71485e261a3c1296F4f4C77411972B1c6C14B",
  "abi": [
    {
      "inputs": [],
      "stateMutability": "nonpayable",
      "type": "constructor"
    },
    {
      "anonymous": false,
      "inputs": [
        {
          "indexed": false,
          "internalType": "uint256",
          "name": "tokenId",
          "type": "uint256"
        },
        {
          "indexed": false,
          "internalType": "address[]",
          "name": "members",
          "type": "address[]"
        }
      ],
      "name": "AddMembers",
      "type": "event"
    },
    {
      "anonymous": false,
      "inputs": [
        {
          "indexed": false,
          "internalType": "uint256",
          "name": "tokenId",
          "type": "uint256"
        },
        {
          "indexed": false,
          "internalType": "address",
          "name": "creator",
          "type": "address"
        },
        {
          "indexed": false,
          "internalType": "address",
          "name": "minter",
          "type": "address"
        },
        {
          "indexed": false,
          "internalType": "string",
          "name": "name",
          "type": "string"
        },
        {
          "indexed": false,
          "internalType": "string",
          "name": "description",
          "type": "string"
        }
      ],
      "name": "AddTeam",
      "type": "event"
    },
    {
      "anonymous": false,
      "inputs": [
        {
          "indexed": false,
          "internalType": "address",
          "name": "previousAdmin",
          "type": "address"
        },
        {
          "indexed": false,
          "internalType": "address",
          "name": "newAdmin",
          "type": "address"
        }
      ],
      "name": "AdminChanged",
      "type": "event"
    },
    {
      "anonymous": false,
      "inputs": [
        {
          "indexed": true,
          "internalType": "address",
          "name": "account",
          "type": "address"
        },
        {
          "indexed": true,
          "internalType": "address",
          "name": "operator",
          "type": "address"
        },
        {
          "indexed": false,
          "internalType": "bool",
          "name": "approved",
          "type": "bool"
        }
      ],
      "name": "ApprovalForAll",
      "type": "event"
    },
    {
      "anonymous": false,
      "inputs": [
        {
          "indexed": true,
          "internalType": "address",
          "name": "beacon",
          "type": "address"
        }
      ],
      "name": "BeaconUpgraded",
      "type": "event"
    },
    {
      "anonymous": false,
      "inputs": [
        {
          "indexed": false,
          "internalType": "string",
          "name": "name",
          "type": "string"
        },
        {
          "indexed": false,
          "internalType": "string",
          "name": "description",
          "type": "string"
        },
        {
          "indexed": false,
          "internalType": "uint256",
          "name": "tokenId",
          "type": "uint256"
        }
      ],
      "name": "EditInfo",
      "type": "event"
    },
    {
      "anonymous": false,
      "inputs": [
        {
          "indexed": false,
          "internalType": "uint8",
          "name": "version",
          "type": "uint8"
        }
      ],
      "name": "Initialized",
      "type": "event"
    },
    {
      "anonymous": false,
      "inputs": [
        {
          "indexed": true,
          "internalType": "address",
          "name": "previousOwner",
          "type": "address"
        },
        {
          "indexed": true,
          "internalType": "address",
          "name": "newOwner",
          "type": "address"
        }
      ],
      "name": "OwnershipTransferred",
      "type": "event"
    },
    {
      "anonymous": false,
      "inputs": [
        {
          "indexed": false,
          "internalType": "uint256",
          "name": "tokenId",
          "type": "uint256"
        },
        {
          "indexed": false,
          "internalType": "address[]",
          "name": "members",
          "type": "address[]"
        }
      ],
      "name": "RemoveMembers",
      "type": "event"
    },
    {
      "anonymous": false,
      "inputs": [
        {
          "indexed": true,
          "internalType": "address",
          "name": "operator",
          "type": "address"
        },
        {
          "indexed": true,
          "internalType": "address",
          "name": "from",
          "type": "address"
        },
        {
          "indexed": true,
          "internalType": "address",
          "name": "to",
          "type": "address"
        },
        {
          "indexed": false,
          "internalType": "uint256[]",
          "name": "ids",
          "type": "uint256[]"
        },
        {
          "indexed": false,
          "internalType": "uint256[]",
          "name": "values",
          "type": "uint256[]"
        }
      ],
      "name": "TransferBatch",
      "type": "event"
    },
    {
      "anonymous": false,
      "inputs": [
        {
          "indexed": true,
          "internalType": "address",
          "name": "operator",
          "type": "address"
        },
        {
          "indexed": true,
          "internalType": "address",
          "name": "from",
          "type": "address"
        },
        {
          "indexed": true,
          "internalType": "address",
          "name": "to",
          "type": "address"
        },
        {
          "indexed": false,
          "internalType": "uint256",
          "name": "id",
          "type": "uint256"
        },
        {
          "indexed": false,
          "internalType": "uint256",
          "name": "value",
          "type": "uint256"
        }
      ],
      "name": "TransferSingle",
      "type": "event"
    },
    {
      "anonymous": false,
      "inputs": [
        {
          "indexed": false,
          "internalType": "string",
          "name": "value",
          "type": "string"
        },
        {
          "indexed": true,
          "internalType": "uint256",
          "name": "id",
          "type": "uint256"
        }
      ],
      "name": "URI",
      "type": "event"
    },
    {
      "anonymous": false,
      "inputs": [
        {
          "indexed": true,
          "internalType": "address",
          "name": "implementation",
          "type": "address"
        }
      ],
      "name": "Upgraded",
      "type": "event"
    },
    {
      "inputs": [
        {
          "internalType": "address[]",
          "name": "members",
          "type": "address[]"
        },
        {
          "internalType": "uint256",
          "name": "tokenId",
          "type": "uint256"
        }
      ],
      "name": "addMembers",
      "outputs": [],
      "stateMutability": "nonpayable",
      "type": "function"
    },
    {
      "inputs": [
        {
          "internalType": "string",
          "name": "name",
          "type": "string"
        },
        {
          "internalType": "address",
          "name": "minter",
          "type": "address"
        },
        {
          "internalType": "address[]",
          "name": "members",
          "type": "address[]"
        },
        {
          "internalType": "string",
          "name": "description",
          "type": "string"
        }
      ],
      "name": "addTeam",
      "outputs": [
        {
          "internalType": "uint256",
          "name": "",
          "type": "uint256"
        }
      ],
      "stateMutability": "nonpayable",
      "type": "function"
    },
    {
      "inputs": [
        {
          "internalType": "address",
          "name": "account",
          "type": "address"
        },
        {
          "internalType": "uint256",
          "name": "id",
          "type": "uint256"
        }
      ],
      "name": "balanceOf",
      "outputs": [
        {
          "internalType": "uint256",
          "name": "",
          "type": "uint256"
        }
      ],
      "stateMutability": "view",
      "type": "function"
    },
    {
      "inputs": [
        {
          "internalType": "address[]",
          "name": "accounts",
          "type": "address[]"
        },
        {
          "internalType": "uint256[]",
          "name": "ids",
          "type": "uint256[]"
        }
      ],
      "name": "balanceOfBatch",
      "outputs": [
        {
          "internalType": "uint256[]",
          "name": "",
          "type": "uint256[]"
        }
      ],
      "stateMutability": "view",
      "type": "function"
    },
    {
      "inputs": [
        {
          "internalType": "uint256",
          "name": "",
          "type": "uint256"
        }
      ],
      "name": "creatorOf",
      "outputs": [
        {
          "internalType": "address",
          "name": "",
          "type": "address"
        }
      ],
      "stateMutability": "view",
      "type": "function"
    },
    {
      "inputs": [
        {
          "internalType": "uint256",
          "name": "",
          "type": "uint256"
        }
      ],
      "name": "descriptionOf",
      "outputs": [
        {
          "internalType": "string",
          "name": "",
          "type": "string"
        }
      ],
      "stateMutability": "view",
      "type": "function"
    },
    {
      "inputs": [],
      "name": "initialize",
      "outputs": [],
      "stateMutability": "nonpayable",
      "type": "function"
    },
    {
      "inputs": [
        {
          "internalType": "address",
          "name": "account",
          "type": "address"
        },
        {
          "internalType": "address",
          "name": "operator",
          "type": "address"
        }
      ],
      "name": "isApprovedForAll",
      "outputs": [
        {
          "internalType": "bool",
          "name": "",
          "type": "bool"
        }
      ],
      "stateMutability": "view",
      "type": "function"
    },
    {
      "inputs": [
        {
          "internalType": "uint256",
          "name": "",
          "type": "uint256"
        }
      ],
      "name": "minterOf",
      "outputs": [
        {
          "internalType": "address",
          "name": "",
          "type": "address"
        }
      ],
      "stateMutability": "view",
      "type": "function"
    },
    {
      "inputs": [
        {
          "internalType": "uint256",
          "name": "",
          "type": "uint256"
        }
      ],
      "name": "nameOf",
      "outputs": [
        {
          "internalType": "string",
          "name": "",
          "type": "string"
        }
      ],
      "stateMutability": "view",
      "type": "function"
    },
    {
      "inputs": [],
      "name": "owner",
      "outputs": [
        {
          "internalType": "address",
          "name": "",
          "type": "address"
        }
      ],
      "stateMutability": "view",
      "type": "function"
    },
    {
      "inputs": [],
      "name": "proxiableUUID",
      "outputs": [
        {
          "internalType": "bytes32",
          "name": "",
          "type": "bytes32"
        }
      ],
      "stateMutability": "view",
      "type": "function"
    },
    {
      "inputs": [
        {
          "internalType": "address[]",
          "name": "members",
          "type": "address[]"
        },
        {
          "internalType": "uint256",
          "name": "tokenId",
          "type": "uint256"
        }
      ],
      "name": "removeMembers",
      "outputs": [],
      "stateMutability": "nonpayable",
      "type": "function"
    },
    {
      "inputs": [],
      "name": "renounceOwnership",
      "outputs": [],
      "stateMutability": "nonpayable",
      "type": "function"
    },
    {
      "inputs": [
        {
          "internalType": "address",
          "name": "from",
          "type": "address"
        },
        {
          "internalType": "address",
          "name": "to",
          "type": "address"
        },
        {
          "internalType": "uint256[]",
          "name": "ids",
          "type": "uint256[]"
        },
        {
          "internalType": "uint256[]",
          "name": "amounts",
          "type": "uint256[]"
        },
        {
          "internalType": "bytes",
          "name": "data",
          "type": "bytes"
        }
      ],
      "name": "safeBatchTransferFrom",
      "outputs": [],
      "stateMutability": "nonpayable",
      "type": "function"
    },
    {
      "inputs": [
        {
          "internalType": "address",
          "name": "from",
          "type": "address"
        },
        {
          "internalType": "address",
          "name": "to",
          "type": "address"
        },
        {
          "internalType": "uint256",
          "name": "id",
          "type": "uint256"
        },
        {
          "internalType": "uint256",
          "name": "amount",
          "type": "uint256"
        },
        {
          "internalType": "bytes",
          "name": "data",
          "type": "bytes"
        }
      ],
      "name": "safeTransferFrom",
      "outputs": [],
      "stateMutability": "nonpayable",
      "type": "function"
    },
    {
      "inputs": [
        {
          "internalType": "address",
          "name": "operator",
          "type": "address"
        },
        {
          "internalType": "bool",
          "name": "approved",
          "type": "bool"
        }
      ],
      "name": "setApprovalForAll",
      "outputs": [],
      "stateMutability": "nonpayable",
      "type": "function"
    },
    {
      "inputs": [
        {
          "internalType": "string",
          "name": "name",
          "type": "string"
        },
        {
          "internalType": "string",
          "name": "description",
          "type": "string"
        },
        {
          "internalType": "uint256",
          "name": "tokenId",
          "type": "uint256"
        }
      ],
      "name": "setInfo",
      "outputs": [],
      "stateMutability": "nonpayable",
      "type": "function"
    },
    {
      "inputs": [
        {
          "internalType": "bytes4",
          "name": "interfaceId",
          "type": "bytes4"
        }
      ],
      "name": "supportsInterface",
      "outputs": [
        {
          "internalType": "bool",
          "name": "",
          "type": "bool"
        }
      ],
      "stateMutability": "view",
      "type": "function"
    },
    {
      "inputs": [
        {
          "internalType": "address",
          "name": "newOwner",
          "type": "address"
        }
      ],
      "name": "transferOwnership",
      "outputs": [],
      "stateMutability": "nonpayable",
      "type": "function"
    },
    {
      "inputs": [
        {
          "internalType": "address",
          "name": "newImplementation",
          "type": "address"
        }
      ],
      "name": "upgradeTo",
      "outputs": [],
      "stateMutability": "nonpayable",
      "type": "function"
    },
    {
      "inputs": [
        {
          "internalType": "address",
          "name": "newImplementation",
          "type": "address"
        },
        {
          "internalType": "bytes",
          "name": "data",
          "type": "bytes"
        }
      ],
      "name": "upgradeToAndCall",
      "outputs": [],
      "stateMutability": "payable",
      "type": "function"
    },
    {
      "inputs": [
        {
          "internalType": "uint256",
          "name": "_id",
          "type": "uint256"
        }
      ],
      "name": "uri",
      "outputs": [
        {
          "internalType": "string",
          "name": "",
          "type": "string"
        }
      ],
      "stateMutability": "view",
      "type": "function"
    }
  ],
  "transactionHash": "0x8807189af34032c644156f251c63c3a4c2d6efac069fc2b67ca6e4f885386709",
  "args": [],
  "numDeployments": 1,
  "solcInputHash": "1e9641a0e867faade05cafe9c22518cb",
  "bytecode": "0x60a06040523060601b6080523480156200001857600080fd5b506200002362000029565b620000eb565b600054610100900460ff1615620000965760405162461bcd60e51b815260206004820152602760248201527f496e697469616c697a61626c653a20636f6e747261637420697320696e697469604482015266616c697a696e6760c81b606482015260840160405180910390fd5b60005460ff9081161015620000e9576000805460ff191660ff9081179091556040519081527f7f26b83ff96e1f2b6a682f133852f6798a09c465da95921460cefb38474024989060200160405180910390a15b565b60805160601c6133806200012660003960008181610867015281816108a701528181610a8a01528181610aca0152610b5d01526133806000f3fe60806040526004361061013e5760003560e01c8063589a1743116100b65780639e942ace1161006f5780639e942ace146103a1578063a22cb465146103d8578063b9e2b544146103f8578063e985e9c514610418578063f242432a14610461578063f2fde38b1461048157600080fd5b8063589a1743146102ca5780636c2d185214610319578063715018a6146103395780638129fc1c1461034e5780638304fc25146103635780638da5cb5b1461038357600080fd5b80632eb2c2d6116101085780632eb2c2d6146102135780633659cfe6146102355780633e0fb267146102555780634e1273f4146102755780634f1ef286146102a257806352d1902d146102b557600080fd5b806253153b14610143578062fdd58e1461017657806301ffc9a714610196578063051a2664146101c65780630e89341c146101f3575b600080fd5b34801561014f57600080fd5b5061016361015e366004612969565b6104a1565b6040519081526020015b60405180910390f35b34801561018257600080fd5b5061016361019136600461284f565b6105d8565b3480156101a257600080fd5b506101b66101b136600461292f565b61066b565b604051901515815260200161016d565b3480156101d257600080fd5b506101e66101e1366004612a6d565b6106bd565b60405161016d9190612d86565b3480156101ff57600080fd5b506101e661020e366004612a6d565b610758565b34801561021f57600080fd5b5061023361022e3660046126b9565b610810565b005b34801561024157600080fd5b5061023361025036600461266b565b61085c565b34801561026157600080fd5b506101e6610270366004612a6d565b61093c565b34801561028157600080fd5b50610295610290366004612879565b610956565b60405161016d9190612d4e565b6102336102b0366004612802565b610a7f565b3480156102c157600080fd5b50610163610b50565b3480156102d657600080fd5b506103016102e5366004612a6d565b61012d602052600090815260409020546001600160a01b031681565b6040516001600160a01b03909116815260200161016d565b34801561032557600080fd5b506102336103343660046128d2565b610c04565b34801561034557600080fd5b50610233610c88565b34801561035a57600080fd5b50610233610c9c565b34801561036f57600080fd5b5061023361037e3660046128d2565b610dc4565b34801561038f57600080fd5b5060fb546001600160a01b0316610301565b3480156103ad57600080fd5b506103016103bc366004612a6d565b61012e602052600090815260409020546001600160a01b031681565b3480156103e457600080fd5b506102336103f33660046127c6565b610e3a565b34801561040457600080fd5b50610233610413366004612a01565b610e45565b34801561042457600080fd5b506101b6610433366004612686565b6001600160a01b03918216600090815260ca6020908152604080832093909416825291909152205460ff1690565b34801561046d57600080fd5b5061023361047c366004612762565b610f04565b34801561048d57600080fd5b5061023361049c36600461266b565b610f49565b60006001600160a01b0384166104ef5760405162461bcd60e51b815260206004820152600e60248201526d1b5a5b9d195c881a5cc81b9d5b1b60921b60448201526064015b60405180910390fd5b6104fe61013180546001019055565b600061050a6101315490565b600081815261012d602090815260408083208054336001600160a01b03199182161790915561012e835281842080549091166001600160a01b038b1617905561012f8252909120885192935061056492909189019061245b565b5060008181526101306020908152604090912084516105859286019061245b565b506105908482610fbf565b7ff6fbd739a453e55dbd5eec9d23e82ba40ec4226cf12897af0d2ac161c6ce884081338789876040516105c795949392919061300f565b60405180910390a195945050505050565b60006001600160a01b0383166106435760405162461bcd60e51b815260206004820152602a60248201527f455243313135353a2061646472657373207a65726f206973206e6f742061207660448201526930b634b21037bbb732b960b11b60648201526084016104e6565b50600090815260c9602090815260408083206001600160a01b03949094168352929052205490565b60006001600160e01b03198216636cdb3d1360e11b148061069c57506001600160e01b031982166303a24d0760e21b145b806106b757506301ffc9a760e01b6001600160e01b03198316145b92915050565b61012f60205260009081526040902080546106d790613145565b80601f016020809104026020016040519081016040528092919081815260200182805461070390613145565b80156107505780601f1061072557610100808354040283529160200191610750565b820191906000526020600020905b81548152906001019060200180831161073357829003601f168201915b505050505081565b600081815261012f6020908152604080832061012d909252822054606092919061078a906001600160a01b0316611017565b600085815261012e60205260409020546107ac906001600160a01b0316611017565b6000868152610130602090815260409182902091516107cf959493929101612ba3565b60405160208183030381529060405290506107e98161104f565b6040516020016107f99190612c66565b604051602081830303815290604052915050919050565b6001600160a01b03851633148061082c575061082c8533610433565b6108485760405162461bcd60e51b81526004016104e690612e06565b61085585858585856111b6565b5050505050565b306001600160a01b037f00000000000000000000000000000000000000000000000000000000000000001614156108a55760405162461bcd60e51b81526004016104e690612e9d565b7f00000000000000000000000000000000000000000000000000000000000000006001600160a01b03166108ee6000805160206132c4833981519152546001600160a01b031690565b6001600160a01b0316146109145760405162461bcd60e51b81526004016104e690612ee9565b61091d816113a4565b60408051600080825260208201909252610939918391906113ac565b50565b61013060205260009081526040902080546106d790613145565b606081518351146109bb5760405162461bcd60e51b815260206004820152602960248201527f455243313135353a206163636f756e747320616e6420696473206c656e677468604482015268040dad2e6dac2e8c6d60bb1b60648201526084016104e6565b600083516001600160401b038111156109d6576109d66131f3565b6040519080825280602002602001820160405280156109ff578160200160208202803683370190505b50905060005b8451811015610a7757610a4a858281518110610a2357610a236131dd565b6020026020010151858381518110610a3d57610a3d6131dd565b60200260200101516105d8565b828281518110610a5c57610a5c6131dd565b6020908102919091010152610a70816131ac565b9050610a05565b509392505050565b306001600160a01b037f0000000000000000000000000000000000000000000000000000000000000000161415610ac85760405162461bcd60e51b81526004016104e690612e9d565b7f00000000000000000000000000000000000000000000000000000000000000006001600160a01b0316610b116000805160206132c4833981519152546001600160a01b031690565b6001600160a01b031614610b375760405162461bcd60e51b81526004016104e690612ee9565b610b40826113a4565b610b4c828260016113ac565b5050565b6000306001600160a01b037f00000000000000000000000000000000000000000000000000000000000000001614610bf05760405162461bcd60e51b815260206004820152603860248201527f555550535570677261646561626c653a206d757374206e6f742062652063616c60448201527f6c6564207468726f7567682064656c656761746563616c6c000000000000000060648201526084016104e6565b506000805160206132c48339815191525b90565b600081815261012e6020526040902054819033906001600160a01b03168114610c3f5760405162461bcd60e51b81526004016104e690612dcf565b610c498484611526565b7f54eaa0bdcd636dd6b6c138e7c324ab68ebb60622f8cc13d20d31eeb757e7bfec8385604051610c7a929190613053565b60405180910390a150505050565b610c9061158a565b610c9a60006115e4565b565b600054610100900460ff1615808015610cbc5750600054600160ff909116105b80610cd65750303b158015610cd6575060005460ff166001145b610d395760405162461bcd60e51b815260206004820152602e60248201527f496e697469616c697a61626c653a20636f6e747261637420697320616c72656160448201526d191e481a5b9a5d1a585b1a5e995960921b60648201526084016104e6565b6000805460ff191660011790558015610d5c576000805461ff0019166101001790555b610d64611636565b610d7c60405180602001604052806000815250611665565b8015610939576000805461ff0019169055604051600181527f7f26b83ff96e1f2b6a682f133852f6798a09c465da95921460cefb38474024989060200160405180910390a150565b600081815261012e6020526040902054819033906001600160a01b03168114610dff5760405162461bcd60e51b81526004016104e690612dcf565b610e098484610fbf565b7ff5bb0cafb1d317496246986216c7574b6b7185f34694344f31c88a3dea072ff88385604051610c7a929190613053565b610b4c338383611695565b600081815261012e6020526040902054819033906001600160a01b03168114610e805760405162461bcd60e51b81526004016104e690612dcf565b600083815261012f602090815260409091208651610ea09288019061245b565b506000838152610130602090815260409091208551610ec19287019061245b565b507f9a9f1e87acdbebd6a43613eb3302ce8597ca8fd373aaf822705b2d7771f96cc1858585604051610ef593929190612d99565b60405180910390a15050505050565b6001600160a01b038516331480610f205750610f208533610433565b610f3c5760405162461bcd60e51b81526004016104e690612e06565b6108558585858585611776565b610f5161158a565b6001600160a01b038116610fb65760405162461bcd60e51b815260206004820152602660248201527f4f776e61626c653a206e6577206f776e657220697320746865207a65726f206160448201526564647265737360d01b60648201526084016104e6565b610939816115e4565b60005b825181101561101257611000838281518110610fe057610fe06131dd565b6020026020010151836001604051806020016040528060008152506118b2565b8061100a816131ac565b915050610fc2565b505050565b604051606082811b6bffffffffffffffffffffffff19166020830152906106b7906034016040516020818303038152906040526119d7565b606081516000141561106f57505060408051602081019091526000815290565b60006040518060600160405280604081526020016132e4604091399050600060038451600261109e91906130c0565b6110a891906130d8565b6110b39060046130fa565b905060006110c28260206130c0565b6001600160401b038111156110d9576110d96131f3565b6040519080825280601f01601f191660200182016040528015611103576020820181803683370190505b509050818152600183018586518101602084015b818310156111715760039283018051603f601282901c811687015160f890811b8552600c83901c8216880151811b6001860152600683901c8216880151811b60028601529116860151901b93820193909352600401611117565b60038951066001811461118b576002811461119c576111a8565b613d3d60f01b6001198301526111a8565b603d60f81b6000198301525b509398975050505050505050565b81518351146112185760405162461bcd60e51b815260206004820152602860248201527f455243313135353a2069647320616e6420616d6f756e7473206c656e677468206044820152670dad2e6dac2e8c6d60c31b60648201526084016104e6565b6001600160a01b03841661123e5760405162461bcd60e51b81526004016104e690612f35565b3361124d818787878787611be7565b60005b845181101561133657600085828151811061126d5761126d6131dd565b60200260200101519050600085838151811061128b5761128b6131dd565b602090810291909101810151600084815260c9835260408082206001600160a01b038e1683529093529190912054909150818110156112dc5760405162461bcd60e51b81526004016104e690612f7a565b600083815260c9602090815260408083206001600160a01b038e8116855292528083208585039055908b1682528120805484929061131b9084906130c0565b925050819055505050508061132f906131ac565b9050611250565b50846001600160a01b0316866001600160a01b0316826001600160a01b03167f4a39dc06d4c0dbc64b70af90fd698a233a518aa5d07e595d983b8c0526c8f7fb8787604051611386929190612d61565b60405180910390a461139c818787878787611d99565b505050505050565b61093961158a565b7f4910fdfa16fed3260ed0e7147f7cc6da11a60208b5b9406d12a635614ffd91435460ff16156113df5761101283611f04565b826001600160a01b03166352d1902d6040518163ffffffff1660e01b815260040160206040518083038186803b15801561141857600080fd5b505afa925050508015611448575060408051601f3d908101601f1916820190925261144591810190612916565b60015b6114ab5760405162461bcd60e51b815260206004820152602e60248201527f45524331393637557067726164653a206e657720696d706c656d656e7461746960448201526d6f6e206973206e6f74205555505360901b60648201526084016104e6565b6000805160206132c4833981519152811461151a5760405162461bcd60e51b815260206004820152602960248201527f45524331393637557067726164653a20756e737570706f727465642070726f786044820152681a58589b195555525160ba1b60648201526084016104e6565b50611012838383611fa0565b60005b825181101561101257611578838281518110611547576115476131dd565b602002602001015183611573868581518110611565576115656131dd565b6020026020010151866105d8565b611fcb565b80611582816131ac565b915050611529565b60fb546001600160a01b03163314610c9a5760405162461bcd60e51b815260206004820181905260248201527f4f776e61626c653a2063616c6c6572206973206e6f7420746865206f776e657260448201526064016104e6565b60fb80546001600160a01b038381166001600160a01b0319831681179093556040519116919082907f8be0079c531659141344cd1fd0a4f28419497f9722a3daafe3b4186f6b6457e090600090a35050565b600054610100900460ff1661165d5760405162461bcd60e51b81526004016104e690612fc4565b610c9a61215f565b600054610100900460ff1661168c5760405162461bcd60e51b81526004016104e690612fc4565b6109398161218f565b816001600160a01b0316836001600160a01b031614156117095760405162461bcd60e51b815260206004820152602960248201527f455243313135353a2073657474696e6720617070726f76616c20737461747573604482015268103337b91039b2b63360b91b60648201526084016104e6565b6001600160a01b03838116600081815260ca6020908152604080832094871680845294825291829020805460ff191686151590811790915591519182527f17307eab39ab6107e8899845ad3d59bd9653f200f220920489ca2b5937696c31910160405180910390a3505050565b6001600160a01b03841661179c5760405162461bcd60e51b81526004016104e690612f35565b3360006117a8856121bf565b905060006117b5856121bf565b90506117c5838989858589611be7565b600086815260c9602090815260408083206001600160a01b038c168452909152902054858110156118085760405162461bcd60e51b81526004016104e690612f7a565b600087815260c9602090815260408083206001600160a01b038d8116855292528083208985039055908a168252812080548892906118479084906130c0565b909155505060408051888152602081018890526001600160a01b03808b16928c821692918816917fc3d58168c5ae7397731d063d5bbf3d657854427343f4c083240f7aacaa2d0f62910160405180910390a46118a7848a8a8a8a8a61220a565b505050505050505050565b6001600160a01b0384166119125760405162461bcd60e51b815260206004820152602160248201527f455243313135353a206d696e7420746f20746865207a65726f206164647265736044820152607360f81b60648201526084016104e6565b33600061191e856121bf565b9050600061192b856121bf565b905061193c83600089858589611be7565b600086815260c9602090815260408083206001600160a01b038b1684529091528120805487929061196e9084906130c0565b909155505060408051878152602081018790526001600160a01b03808a1692600092918716917fc3d58168c5ae7397731d063d5bbf3d657854427343f4c083240f7aacaa2d0f62910160405180910390a46119ce8360008989898961220a565b50505050505050565b60408051808201909152601081526f181899199a1a9b1b9c1cb0b131b232b360811b6020820152815160609190600090611a129060026130fa565b611a1d9060026130c0565b6001600160401b03811115611a3457611a346131f3565b6040519080825280601f01601f191660200182016040528015611a5e576020820181803683370190505b509050600360fc1b81600081518110611a7957611a796131dd565b60200101906001600160f81b031916908160001a905350600f60fb1b81600181518110611aa857611aa86131dd565b60200101906001600160f81b031916908160001a90535060005b8451811015610a7757826004868381518110611ae057611ae06131dd565b016020015182516001600160f81b031990911690911c60f81c908110611b0857611b086131dd565b01602001516001600160f81b03191682611b238360026130fa565b611b2e9060026130c0565b81518110611b3e57611b3e6131dd565b60200101906001600160f81b031916908160001a90535082858281518110611b6857611b686131dd565b602091010151815160f89190911c600f16908110611b8857611b886131dd565b01602001516001600160f81b03191682611ba38360026130fa565b611bae9060036130c0565b81518110611bbe57611bbe6131dd565b60200101906001600160f81b031916908160001a90535080611bdf816131ac565b915050611ac2565b6001600160a01b038516611c835760005b8351811015611c8157611c1785858381518110610a3d57610a3d6131dd565b15611c6f5760405162461bcd60e51b815260206004820152602260248201527f5465616d3a204d656d6265722f4d656d6265727320616c726561647920616464604482015261195960f21b60648201526084016104e6565b80611c79816131ac565b915050611bf8565b505b6001600160a01b038416611d165760005b8351811015611d14576000611cb587868481518110610a3d57610a3d6131dd565b11611d025760405162461bcd60e51b815260206004820152601f60248201527f5465616d3a204d656d6265722f4d656d62657273206e6f74206578697374730060448201526064016104e6565b80611d0c816131ac565b915050611c94565b505b6001600160a01b03851615801590611d3657506001600160a01b03841615155b1561139c5760405162461bcd60e51b815260206004820152602d60248201527f5465616d3a205472616e73666572206f66207465616d206f776e65727368697060448201526c081a5cc818589bdd5b99185b99609a1b60648201526084016104e6565b6001600160a01b0384163b1561139c5760405163bc197c8160e01b81526001600160a01b0385169063bc197c8190611ddd9089908990889088908890600401612cab565b602060405180830381600087803b158015611df757600080fd5b505af1925050508015611e27575060408051601f3d908101601f19168201909252611e249181019061294c565b60015b611ed457611e33613209565b806308c379a01415611e6d5750611e48613224565b80611e535750611e6f565b8060405162461bcd60e51b81526004016104e69190612d86565b505b60405162461bcd60e51b815260206004820152603460248201527f455243313135353a207472616e7366657220746f206e6f6e20455243313135356044820152732932b1b2b4bb32b91034b6b83632b6b2b73a32b960611b60648201526084016104e6565b6001600160e01b0319811663bc197c8160e01b146119ce5760405162461bcd60e51b81526004016104e690612e55565b6001600160a01b0381163b611f715760405162461bcd60e51b815260206004820152602d60248201527f455243313936373a206e657720696d706c656d656e746174696f6e206973206e60448201526c1bdd08184818dbdb9d1c9858dd609a1b60648201526084016104e6565b6000805160206132c483398151915280546001600160a01b0319166001600160a01b0392909216919091179055565b611fa9836122d4565b600082511180611fb65750805b1561101257611fc58383612314565b50505050565b6001600160a01b03831661202d5760405162461bcd60e51b815260206004820152602360248201527f455243313135353a206275726e2066726f6d20746865207a65726f206164647260448201526265737360e81b60648201526084016104e6565b336000612039846121bf565b90506000612046846121bf565b905061206683876000858560405180602001604052806000815250611be7565b600085815260c9602090815260408083206001600160a01b038a168452909152902054848110156120e55760405162461bcd60e51b8152602060048201526024808201527f455243313135353a206275726e20616d6f756e7420657863656564732062616c604482015263616e636560e01b60648201526084016104e6565b600086815260c9602090815260408083206001600160a01b038b81168086529184528285208a8703905582518b81529384018a90529092908816917fc3d58168c5ae7397731d063d5bbf3d657854427343f4c083240f7aacaa2d0f62910160405180910390a46040805160208101909152600090526119ce565b600054610100900460ff166121865760405162461bcd60e51b81526004016104e690612fc4565b610c9a336115e4565b600054610100900460ff166121b65760405162461bcd60e51b81526004016104e690612fc4565b61093981612408565b604080516001808252818301909252606091600091906020808301908036833701905050905082816000815181106121f9576121f96131dd565b602090810291909101015292915050565b6001600160a01b0384163b1561139c5760405163f23a6e6160e01b81526001600160a01b0385169063f23a6e619061224e9089908990889088908890600401612d09565b602060405180830381600087803b15801561226857600080fd5b505af1925050508015612298575060408051601f3d908101601f191682019092526122959181019061294c565b60015b6122a457611e33613209565b6001600160e01b0319811663f23a6e6160e01b146119ce5760405162461bcd60e51b81526004016104e690612e55565b6122dd81611f04565b6040516001600160a01b038216907fbc7cd75a20ee27fd9adebab32041f755214dbc6bffa90cc0225b39da2e5c2d3b90600090a250565b60606001600160a01b0383163b61237c5760405162461bcd60e51b815260206004820152602660248201527f416464726573733a2064656c65676174652063616c6c20746f206e6f6e2d636f6044820152651b9d1c9858dd60d21b60648201526084016104e6565b600080846001600160a01b0316846040516123979190612b87565b600060405180830381855af49150503d80600081146123d2576040519150601f19603f3d011682016040523d82523d6000602084013e6123d7565b606091505b50915091506123ff82826040518060600160405280602781526020016133246027913961241b565b95945050505050565b8051610b4c9060cb90602084019061245b565b6060831561242a575081612454565b82511561243a5782518084602001fd5b8160405162461bcd60e51b81526004016104e69190612d86565b9392505050565b82805461246790613145565b90600052602060002090601f01602090048101928261248957600085556124cf565b82601f106124a257805160ff19168380011785556124cf565b828001600101855582156124cf579182015b828111156124cf5782518255916020019190600101906124b4565b506124db9291506124df565b5090565b5b808211156124db57600081556001016124e0565b80356001600160a01b038116811461250b57600080fd5b919050565b600082601f83011261252157600080fd5b8135602061252e8261309d565b60405161253b8282613180565b8381528281019150858301600585901b8701840188101561255b57600080fd5b60005b858110156125815761256f826124f4565b8452928401929084019060010161255e565b5090979650505050505050565b600082601f83011261259f57600080fd5b813560206125ac8261309d565b6040516125b98282613180565b8381528281019150858301600585901b870184018810156125d957600080fd5b60005b85811015612581578135845292840192908401906001016125dc565b600082601f83011261260957600080fd5b81356001600160401b03811115612622576126226131f3565b604051612639601f8301601f191660200182613180565b81815284602083860101111561264e57600080fd5b816020850160208301376000918101602001919091529392505050565b60006020828403121561267d57600080fd5b612454826124f4565b6000806040838503121561269957600080fd5b6126a2836124f4565b91506126b0602084016124f4565b90509250929050565b600080600080600060a086880312156126d157600080fd5b6126da866124f4565b94506126e8602087016124f4565b935060408601356001600160401b038082111561270457600080fd5b61271089838a0161258e565b9450606088013591508082111561272657600080fd5b61273289838a0161258e565b9350608088013591508082111561274857600080fd5b50612755888289016125f8565b9150509295509295909350565b600080600080600060a0868803121561277a57600080fd5b612783866124f4565b9450612791602087016124f4565b9350604086013592506060860135915060808601356001600160401b038111156127ba57600080fd5b612755888289016125f8565b600080604083850312156127d957600080fd5b6127e2836124f4565b9150602083013580151581146127f757600080fd5b809150509250929050565b6000806040838503121561281557600080fd5b61281e836124f4565b915060208301356001600160401b0381111561283957600080fd5b612845858286016125f8565b9150509250929050565b6000806040838503121561286257600080fd5b61286b836124f4565b946020939093013593505050565b6000806040838503121561288c57600080fd5b82356001600160401b03808211156128a357600080fd5b6128af86838701612510565b935060208501359150808211156128c557600080fd5b506128458582860161258e565b600080604083850312156128e557600080fd5b82356001600160401b038111156128fb57600080fd5b61290785828601612510565b95602094909401359450505050565b60006020828403121561292857600080fd5b5051919050565b60006020828403121561294157600080fd5b8135612454816132ad565b60006020828403121561295e57600080fd5b8151612454816132ad565b6000806000806080858703121561297f57600080fd5b84356001600160401b038082111561299657600080fd5b6129a2888389016125f8565b95506129b0602088016124f4565b945060408701359150808211156129c657600080fd5b6129d288838901612510565b935060608701359150808211156129e857600080fd5b506129f5878288016125f8565b91505092959194509250565b600080600060608486031215612a1657600080fd5b83356001600160401b0380821115612a2d57600080fd5b612a39878388016125f8565b94506020860135915080821115612a4f57600080fd5b50612a5c868287016125f8565b925050604084013590509250925092565b600060208284031215612a7f57600080fd5b5035919050565b600081518084526020808501945080840160005b83811015612ab657815187529582019590820190600101612a9a565b509495945050505050565b60008151808452612ad9816020860160208601613119565b601f01601f19169290920160200192915050565b8054600090600181811c9080831680612b0757607f831692505b6020808410821415612b2957634e487b7160e01b600052602260045260246000fd5b818015612b3d5760018114612b4e57612b7b565b60ff19861689528489019650612b7b565b60008881526020902060005b86811015612b735781548b820152908501908301612b5a565b505084890196505b50505050505092915050565b60008251612b99818460208701613119565b9190910192915050565b693d913730b6b2911d101160b11b81526000612bc2600a830187612aed565b6e1116101131b932b0ba37b9111d101160891b81528551612bea81600f840160208a01613119565b6d1116101136b4b73a32b9111d101160911b600f92909101918201528451612c1981601d840160208901613119565b72111610113232b9b1b934b83a34b7b7111d101160691b601d9290910191820152612c476030820185612aed565b601160f91b8152607d60f81b6001820152600201979650505050505050565b7f646174613a6170706c69636174696f6e2f6a736f6e3b6261736536342c000000815260008251612c9e81601d850160208701613119565b91909101601d0192915050565b6001600160a01b0386811682528516602082015260a060408201819052600090612cd790830186612a86565b8281036060840152612ce98186612a86565b90508281036080840152612cfd8185612ac1565b98975050505050505050565b6001600160a01b03868116825285166020820152604081018490526060810183905260a060808201819052600090612d4390830184612ac1565b979650505050505050565b6020815260006124546020830184612a86565b604081526000612d746040830185612a86565b82810360208401526123ff8185612a86565b6020815260006124546020830184612ac1565b606081526000612dac6060830186612ac1565b8281036020840152612dbe8186612ac1565b915050826040830152949350505050565b6020808252601a908201527f5465616d3a206f6e6c792073656c6563746564206d696e746572000000000000604082015260600190565b6020808252602f908201527f455243313135353a2063616c6c6572206973206e6f7420746f6b656e206f776e60408201526e195c881b9bdc88185c1c1c9bdd9959608a1b606082015260800190565b60208082526028908201527f455243313135353a204552433131353552656365697665722072656a656374656040820152676420746f6b656e7360c01b606082015260800190565b6020808252602c908201527f46756e6374696f6e206d7573742062652063616c6c6564207468726f7567682060408201526b19195b1959d85d1958d85b1b60a21b606082015260800190565b6020808252602c908201527f46756e6374696f6e206d7573742062652063616c6c6564207468726f7567682060408201526b6163746976652070726f787960a01b606082015260800190565b60208082526025908201527f455243313135353a207472616e7366657220746f20746865207a65726f206164604082015264647265737360d81b606082015260800190565b6020808252602a908201527f455243313135353a20696e73756666696369656e742062616c616e636520666f60408201526939103a3930b739b332b960b11b606082015260800190565b6020808252602b908201527f496e697469616c697a61626c653a20636f6e7472616374206973206e6f74206960408201526a6e697469616c697a696e6760a81b606082015260800190565b8581526001600160a01b0385811660208301528416604082015260a06060820181905260009061304190830185612ac1565b8281036080840152612cfd8185612ac1565b6000604082018483526020604081850152818551808452606086019150828701935060005b818110156125815784516001600160a01b031683529383019391830191600101613078565b60006001600160401b038211156130b6576130b66131f3565b5060051b60200190565b600082198211156130d3576130d36131c7565b500190565b6000826130f557634e487b7160e01b600052601260045260246000fd5b500490565b6000816000190483118215151615613114576131146131c7565b500290565b60005b8381101561313457818101518382015260200161311c565b83811115611fc55750506000910152565b600181811c9082168061315957607f821691505b6020821081141561317a57634e487b7160e01b600052602260045260246000fd5b50919050565b601f8201601f191681016001600160401b03811182821017156131a5576131a56131f3565b6040525050565b60006000198214156131c0576131c06131c7565b5060010190565b634e487b7160e01b600052601160045260246000fd5b634e487b7160e01b600052603260045260246000fd5b634e487b7160e01b600052604160045260246000fd5b600060033d1115610c015760046000803e5060005160e01c90565b600060443d10156132325790565b6040516003193d81016004833e81513d6001600160401b03816024840111818411171561326157505050505090565b82850191508151818111156132795750505050505090565b843d87010160208285010111156132935750505050505090565b6132a260208286010187613180565b509095945050505050565b6001600160e01b03198116811461093957600080fdfe360894a13ba1a3210667c828492db98dca3e2076cc3735a920a3ca505d382bbc4142434445464748494a4b4c4d4e4f505152535455565758595a6162636465666768696a6b6c6d6e6f707172737475767778797a303132333435363738392b2f416464726573733a206c6f772d6c6576656c2064656c65676174652063616c6c206661696c6564a26469706673582212202e69b46654b5a01ae9eadd14980a6b04126988f80584686d0387cc41cc4a28b064736f6c63430008070033",
  "devdoc": {
    "kind": "dev",
    "methods": {
      "balanceOf(address,uint256)": {
        "details": "See {IERC1155-balanceOf}. Requirements: - `account` cannot be the zero address."
      },
      "balanceOfBatch(address[],uint256[])": {
        "details": "See {IERC1155-balanceOfBatch}. Requirements: - `accounts` and `ids` must have the same length."
      },
      "constructor": {
        "custom:oz-upgrades-unsafe-allow": "constructor"
      },
      "isApprovedForAll(address,address)": {
        "details": "See {IERC1155-isApprovedForAll}."
      },
      "owner()": {
        "details": "Returns the address of the current owner."
      },
      "proxiableUUID()": {
        "details": "Implementation of the ERC1822 {proxiableUUID} function. This returns the storage slot used by the implementation. It is used to validate that the this implementation remains valid after an upgrade. IMPORTANT: A proxy pointing at a proxiable contract should not be considered proxiable itself, because this risks bricking a proxy that upgrades to it, by delegating to itself until out of gas. Thus it is critical that this function revert if invoked through a proxy. This is guaranteed by the `notDelegated` modifier."
      },
      "renounceOwnership()": {
        "details": "Leaves the contract without owner. It will not be possible to call `onlyOwner` functions anymore. Can only be called by the current owner. NOTE: Renouncing ownership will leave the contract without an owner, thereby removing any functionality that is only available to the owner."
      },
      "safeBatchTransferFrom(address,address,uint256[],uint256[],bytes)": {
        "details": "See {IERC1155-safeBatchTransferFrom}."
      },
      "safeTransferFrom(address,address,uint256,uint256,bytes)": {
        "details": "See {IERC1155-safeTransferFrom}."
      },
      "setApprovalForAll(address,bool)": {
        "details": "See {IERC1155-setApprovalForAll}."
      },
      "supportsInterface(bytes4)": {
        "details": "See {IERC165-supportsInterface}."
      },
      "transferOwnership(address)": {
        "details": "Transfers ownership of the contract to a new account (`newOwner`). Can only be called by the current owner."
      },
      "upgradeTo(address)": {
        "details": "Upgrade the implementation of the proxy to `newImplementation`. Calls {_authorizeUpgrade}. Emits an {Upgraded} event."
      },
      "upgradeToAndCall(address,bytes)": {
        "details": "Upgrade the implementation of the proxy to `newImplementation`, and subsequently execute the function call encoded in `data`. Calls {_authorizeUpgrade}. Emits an {Upgraded} event."
      }
    },
    "version": 1
  },
  "userdoc": {
    "kind": "user",
    "methods": {},
    "version": 1
  },
  "storageLayout": {
    "storage": [
      {
        "astId": 3247,
        "contract": "contracts/Team.sol:Team",
        "label": "_initialized",
        "offset": 0,
        "slot": "0",
        "type": "t_uint8"
      },
      {
        "astId": 3250,
        "contract": "contracts/Team.sol:Team",
        "label": "_initializing",
        "offset": 1,
        "slot": "0",
        "type": "t_bool"
      },
      {
        "astId": 3229,
        "contract": "contracts/Team.sol:Team",
        "label": "__gap",
        "offset": 0,
        "slot": "1",
        "type": "t_array(t_uint256)50_storage"
      },
      {
        "astId": 3526,
        "contract": "contracts/Team.sol:Team",
        "label": "__gap",
        "offset": 0,
        "slot": "51",
        "type": "t_array(t_uint256)50_storage"
      },
      {
        "astId": 8642,
        "contract": "contracts/Team.sol:Team",
        "label": "__gap",
        "offset": 0,
        "slot": "101",
        "type": "t_array(t_uint256)50_storage"
      },
      {
        "astId": 9798,
        "contract": "contracts/Team.sol:Team",
        "label": "__gap",
        "offset": 0,
        "slot": "151",
        "type": "t_array(t_uint256)50_storage"
      },
      {
        "astId": 3556,
        "contract": "contracts/Team.sol:Team",
        "label": "_balances",
        "offset": 0,
        "slot": "201",
        "type": "t_mapping(t_uint256,t_mapping(t_address,t_uint256))"
      },
      {
        "astId": 3562,
        "contract": "contracts/Team.sol:Team",
        "label": "_operatorApprovals",
        "offset": 0,
        "slot": "202",
        "type": "t_mapping(t_address,t_mapping(t_address,t_bool))"
      },
      {
        "astId": 3564,
        "contract": "contracts/Team.sol:Team",
        "label": "_uri",
        "offset": 0,
        "slot": "203",
        "type": "t_string_storage"
      },
      {
        "astId": 4771,
        "contract": "contracts/Team.sol:Team",
        "label": "__gap",
        "offset": 0,
        "slot": "204",
        "type": "t_array(t_uint256)47_storage"
      },
      {
        "astId": 541,
        "contract": "contracts/Team.sol:Team",
        "label": "_owner",
        "offset": 0,
        "slot": "251",
        "type": "t_address"
      },
      {
        "astId": 661,
        "contract": "contracts/Team.sol:Team",
        "label": "__gap",
        "offset": 0,
        "slot": "252",
        "type": "t_array(t_uint256)49_storage"
      },
      {
        "astId": 24965,
        "contract": "contracts/Team.sol:Team",
        "label": "creatorOf",
        "offset": 0,
        "slot": "301",
        "type": "t_mapping(t_uint256,t_address)"
      },
      {
        "astId": 24969,
        "contract": "contracts/Team.sol:Team",
        "label": "minterOf",
        "offset": 0,
        "slot": "302",
        "type": "t_mapping(t_uint256,t_address)"
      },
      {
        "astId": 24973,
        "contract": "contracts/Team.sol:Team",
        "label": "nameOf",
        "offset": 0,
        "slot": "303",
        "type": "t_mapping(t_uint256,t_string_storage)"
      },
      {
        "astId": 24977,
        "contract": "contracts/Team.sol:Team",
        "label": "descriptionOf",
        "offset": 0,
        "slot": "304",
        "type": "t_mapping(t_uint256,t_string_storage)"
      },
      {
        "astId": 24980,
        "contract": "contracts/Team.sol:Team",
        "label": "_tokenIds",
        "offset": 0,
        "slot": "305",
        "type": "t_struct(Counter)17310_storage"
      },
      {
        "astId": 25413,
        "contract": "contracts/Team.sol:Team",
        "label": "__gap",
        "offset": 0,
        "slot": "306",
        "type": "t_array(t_uint256)50_storage"
      }
    ],
    "types": {
      "t_address": {
        "encoding": "inplace",
        "label": "address",
        "numberOfBytes": "20"
      },
      "t_array(t_uint256)47_storage": {
        "base": "t_uint256",
        "encoding": "inplace",
        "label": "uint256[47]",
        "numberOfBytes": "1504"
      },
      "t_array(t_uint256)49_storage": {
        "base": "t_uint256",
        "encoding": "inplace",
        "label": "uint256[49]",
        "numberOfBytes": "1568"
      },
      "t_array(t_uint256)50_storage": {
        "base": "t_uint256",
        "encoding": "inplace",
        "label": "uint256[50]",
        "numberOfBytes": "1600"
      },
      "t_bool": {
        "encoding": "inplace",
        "label": "bool",
        "numberOfBytes": "1"
      },
      "t_mapping(t_address,t_bool)": {
        "encoding": "mapping",
        "key": "t_address",
        "label": "mapping(address => bool)",
        "numberOfBytes": "32",
        "value": "t_bool"
      },
      "t_mapping(t_address,t_mapping(t_address,t_bool))": {
        "encoding": "mapping",
        "key": "t_address",
        "label": "mapping(address => mapping(address => bool))",
        "numberOfBytes": "32",
        "value": "t_mapping(t_address,t_bool)"
      },
      "t_mapping(t_address,t_uint256)": {
        "encoding": "mapping",
        "key": "t_address",
        "label": "mapping(address => uint256)",
        "numberOfBytes": "32",
        "value": "t_uint256"
      },
      "t_mapping(t_uint256,t_address)": {
        "encoding": "mapping",
        "key": "t_uint256",
        "label": "mapping(uint256 => address)",
        "numberOfBytes": "32",
        "value": "t_address"
      },
      "t_mapping(t_uint256,t_mapping(t_address,t_uint256))": {
        "encoding": "mapping",
        "key": "t_uint256",
        "label": "mapping(uint256 => mapping(address => uint256))",
        "numberOfBytes": "32",
        "value": "t_mapping(t_address,t_uint256)"
      },
      "t_mapping(t_uint256,t_string_storage)": {
        "encoding": "mapping",
        "key": "t_uint256",
        "label": "mapping(uint256 => string)",
        "numberOfBytes": "32",
        "value": "t_string_storage"
      },
      "t_string_storage": {
        "encoding": "bytes",
        "label": "string",
        "numberOfBytes": "32"
      },
      "t_struct(Counter)17310_storage": {
        "encoding": "inplace",
        "label": "struct Counters.Counter",
        "members": [
          {
            "astId": 17309,
            "contract": "contracts/Team.sol:Team",
            "label": "_value",
            "offset": 0,
            "slot": "0",
            "type": "t_uint256"
          }
        ],
        "numberOfBytes": "32"
      },
      "t_uint256": {
        "encoding": "inplace",
        "label": "uint256",
        "numberOfBytes": "32"
      },
      "t_uint8": {
        "encoding": "inplace",
        "label": "uint8",
        "numberOfBytes": "1"
      }
    }
  }
}