{
  "address": "0xFEc348EaB27474ab7da1Ab43be74E22404F75704",
  "abi": [
    {
      "inputs": [],
      "stateMutability": "nonpayable",
      "type": "constructor"
    },
    {
      "anonymous": false,
      "inputs": [
        {
          "indexed": false,
          "internalType": "address",
          "name": "previousAdmin",
          "type": "address"
        },
        {
          "indexed": false,
          "internalType": "address",
          "name": "newAdmin",
          "type": "address"
        }
      ],
      "name": "AdminChanged",
      "type": "event"
    },
    {
      "anonymous": false,
      "inputs": [
        {
          "indexed": true,
          "internalType": "address",
          "name": "owner",
          "type": "address"
        },
        {
          "indexed": true,
          "internalType": "address",
          "name": "spender",
          "type": "address"
        },
        {
          "indexed": false,
          "internalType": "uint256",
          "name": "value",
          "type": "uint256"
        }
      ],
      "name": "Approval",
      "type": "event"
    },
    {
      "anonymous": false,
      "inputs": [
        {
          "indexed": true,
          "internalType": "address",
          "name": "beacon",
          "type": "address"
        }
      ],
      "name": "BeaconUpgraded",
      "type": "event"
    },
    {
      "anonymous": false,
      "inputs": [
        {
          "indexed": true,
          "internalType": "address",
          "name": "delegator",
          "type": "address"
        },
        {
          "indexed": true,
          "internalType": "address",
          "name": "fromDelegate",
          "type": "address"
        },
        {
          "indexed": true,
          "internalType": "address",
          "name": "toDelegate",
          "type": "address"
        }
      ],
      "name": "DelegateChanged",
      "type": "event"
    },
    {
      "anonymous": false,
      "inputs": [
        {
          "indexed": true,
          "internalType": "address",
          "name": "delegate",
          "type": "address"
        },
        {
          "indexed": false,
          "internalType": "uint256",
          "name": "previousBalance",
          "type": "uint256"
        },
        {
          "indexed": false,
          "internalType": "uint256",
          "name": "newBalance",
          "type": "uint256"
        }
      ],
      "name": "DelegateVotesChanged",
      "type": "event"
    },
    {
      "anonymous": false,
      "inputs": [
        {
          "indexed": false,
          "internalType": "uint8",
          "name": "version",
          "type": "uint8"
        }
      ],
      "name": "Initialized",
      "type": "event"
    },
    {
      "anonymous": false,
      "inputs": [
        {
          "indexed": true,
          "internalType": "address",
          "name": "previousOwner",
          "type": "address"
        },
        {
          "indexed": true,
          "internalType": "address",
          "name": "newOwner",
          "type": "address"
        }
      ],
      "name": "OwnershipTransferred",
      "type": "event"
    },
    {
      "anonymous": false,
      "inputs": [
        {
          "indexed": true,
          "internalType": "address",
          "name": "from",
          "type": "address"
        },
        {
          "indexed": true,
          "internalType": "address",
          "name": "to",
          "type": "address"
        },
        {
          "indexed": false,
          "internalType": "uint256",
          "name": "value",
          "type": "uint256"
        }
      ],
      "name": "Transfer",
      "type": "event"
    },
    {
      "anonymous": false,
      "inputs": [
        {
          "indexed": true,
          "internalType": "address",
          "name": "implementation",
          "type": "address"
        }
      ],
      "name": "Upgraded",
      "type": "event"
    },
    {
      "inputs": [],
      "name": "DOMAIN_SEPARATOR",
      "outputs": [
        {
          "internalType": "bytes32",
          "name": "",
          "type": "bytes32"
        }
      ],
      "stateMutability": "view",
      "type": "function"
    },
    {
      "inputs": [
        {
          "internalType": "address",
          "name": "owner",
          "type": "address"
        },
        {
          "internalType": "address",
          "name": "spender",
          "type": "address"
        }
      ],
      "name": "allowance",
      "outputs": [
        {
          "internalType": "uint256",
          "name": "",
          "type": "uint256"
        }
      ],
      "stateMutability": "view",
      "type": "function"
    },
    {
      "inputs": [
        {
          "internalType": "address",
          "name": "spender",
          "type": "address"
        },
        {
          "internalType": "uint256",
          "name": "amount",
          "type": "uint256"
        }
      ],
      "name": "approve",
      "outputs": [
        {
          "internalType": "bool",
          "name": "",
          "type": "bool"
        }
      ],
      "stateMutability": "nonpayable",
      "type": "function"
    },
    {
      "inputs": [
        {
          "internalType": "address",
          "name": "account",
          "type": "address"
        }
      ],
      "name": "balanceOf",
      "outputs": [
        {
          "internalType": "uint256",
          "name": "",
          "type": "uint256"
        }
      ],
      "stateMutability": "view",
      "type": "function"
    },
    {
      "inputs": [
        {
          "internalType": "address",
          "name": "account",
          "type": "address"
        },
        {
          "internalType": "uint32",
          "name": "pos",
          "type": "uint32"
        }
      ],
      "name": "checkpoints",
      "outputs": [
        {
          "components": [
            {
              "internalType": "uint32",
              "name": "fromBlock",
              "type": "uint32"
            },
            {
              "internalType": "uint224",
              "name": "votes",
              "type": "uint224"
            }
          ],
          "internalType": "struct ERC20VotesUpgradeable.Checkpoint",
          "name": "",
          "type": "tuple"
        }
      ],
      "stateMutability": "view",
      "type": "function"
    },
    {
      "inputs": [],
      "name": "decimals",
      "outputs": [
        {
          "internalType": "uint8",
          "name": "",
          "type": "uint8"
        }
      ],
      "stateMutability": "view",
      "type": "function"
    },
    {
      "inputs": [
        {
          "internalType": "address",
          "name": "spender",
          "type": "address"
        },
        {
          "internalType": "uint256",
          "name": "subtractedValue",
          "type": "uint256"
        }
      ],
      "name": "decreaseAllowance",
      "outputs": [
        {
          "internalType": "bool",
          "name": "",
          "type": "bool"
        }
      ],
      "stateMutability": "nonpayable",
      "type": "function"
    },
    {
      "inputs": [
        {
          "internalType": "address",
          "name": "delegatee",
          "type": "address"
        }
      ],
      "name": "delegate",
      "outputs": [],
      "stateMutability": "nonpayable",
      "type": "function"
    },
    {
      "inputs": [
        {
          "internalType": "address",
          "name": "delegatee",
          "type": "address"
        },
        {
          "internalType": "uint256",
          "name": "nonce",
          "type": "uint256"
        },
        {
          "internalType": "uint256",
          "name": "expiry",
          "type": "uint256"
        },
        {
          "internalType": "uint8",
          "name": "v",
          "type": "uint8"
        },
        {
          "internalType": "bytes32",
          "name": "r",
          "type": "bytes32"
        },
        {
          "internalType": "bytes32",
          "name": "s",
          "type": "bytes32"
        }
      ],
      "name": "delegateBySig",
      "outputs": [],
      "stateMutability": "nonpayable",
      "type": "function"
    },
    {
      "inputs": [
        {
          "internalType": "address",
          "name": "account",
          "type": "address"
        }
      ],
      "name": "delegates",
      "outputs": [
        {
          "internalType": "address",
          "name": "",
          "type": "address"
        }
      ],
      "stateMutability": "view",
      "type": "function"
    },
    {
      "inputs": [
        {
          "internalType": "uint256",
          "name": "blockNumber",
          "type": "uint256"
        }
      ],
      "name": "getPastTotalSupply",
      "outputs": [
        {
          "internalType": "uint256",
          "name": "",
          "type": "uint256"
        }
      ],
      "stateMutability": "view",
      "type": "function"
    },
    {
      "inputs": [
        {
          "internalType": "address",
          "name": "account",
          "type": "address"
        },
        {
          "internalType": "uint256",
          "name": "blockNumber",
          "type": "uint256"
        }
      ],
      "name": "getPastVotes",
      "outputs": [
        {
          "internalType": "uint256",
          "name": "",
          "type": "uint256"
        }
      ],
      "stateMutability": "view",
      "type": "function"
    },
    {
      "inputs": [
        {
          "internalType": "address",
          "name": "account",
          "type": "address"
        }
      ],
      "name": "getVotes",
      "outputs": [
        {
          "internalType": "uint256",
          "name": "",
          "type": "uint256"
        }
      ],
      "stateMutability": "view",
      "type": "function"
    },
    {
      "inputs": [
        {
          "internalType": "address",
          "name": "spender",
          "type": "address"
        },
        {
          "internalType": "uint256",
          "name": "addedValue",
          "type": "uint256"
        }
      ],
      "name": "increaseAllowance",
      "outputs": [
        {
          "internalType": "bool",
          "name": "",
          "type": "bool"
        }
      ],
      "stateMutability": "nonpayable",
      "type": "function"
    },
    {
      "inputs": [
        {
          "internalType": "string",
          "name": "_name",
          "type": "string"
        },
        {
          "internalType": "string",
          "name": "_symbol",
          "type": "string"
        }
      ],
      "name": "initialize",
      "outputs": [],
      "stateMutability": "nonpayable",
      "type": "function"
    },
    {
      "inputs": [
        {
          "internalType": "address",
          "name": "account",
          "type": "address"
        },
        {
          "internalType": "uint256",
          "name": "amount",
          "type": "uint256"
        }
      ],
      "name": "mint",
      "outputs": [],
      "stateMutability": "nonpayable",
      "type": "function"
    },
    {
      "inputs": [],
      "name": "name",
      "outputs": [
        {
          "internalType": "string",
          "name": "",
          "type": "string"
        }
      ],
      "stateMutability": "view",
      "type": "function"
    },
    {
      "inputs": [
        {
          "internalType": "address",
          "name": "owner",
          "type": "address"
        }
      ],
      "name": "nonces",
      "outputs": [
        {
          "internalType": "uint256",
          "name": "",
          "type": "uint256"
        }
      ],
      "stateMutability": "view",
      "type": "function"
    },
    {
      "inputs": [
        {
          "internalType": "address",
          "name": "account",
          "type": "address"
        }
      ],
      "name": "numCheckpoints",
      "outputs": [
        {
          "internalType": "uint32",
          "name": "",
          "type": "uint32"
        }
      ],
      "stateMutability": "view",
      "type": "function"
    },
    {
      "inputs": [],
      "name": "owner",
      "outputs": [
        {
          "internalType": "address",
          "name": "",
          "type": "address"
        }
      ],
      "stateMutability": "view",
      "type": "function"
    },
    {
      "inputs": [
        {
          "internalType": "address",
          "name": "owner",
          "type": "address"
        },
        {
          "internalType": "address",
          "name": "spender",
          "type": "address"
        },
        {
          "internalType": "uint256",
          "name": "value",
          "type": "uint256"
        },
        {
          "internalType": "uint256",
          "name": "deadline",
          "type": "uint256"
        },
        {
          "internalType": "uint8",
          "name": "v",
          "type": "uint8"
        },
        {
          "internalType": "bytes32",
          "name": "r",
          "type": "bytes32"
        },
        {
          "internalType": "bytes32",
          "name": "s",
          "type": "bytes32"
        }
      ],
      "name": "permit",
      "outputs": [],
      "stateMutability": "nonpayable",
      "type": "function"
    },
    {
      "inputs": [],
      "name": "proxiableUUID",
      "outputs": [
        {
          "internalType": "bytes32",
          "name": "",
          "type": "bytes32"
        }
      ],
      "stateMutability": "view",
      "type": "function"
    },
    {
      "inputs": [],
      "name": "renounceOwnership",
      "outputs": [],
      "stateMutability": "nonpayable",
      "type": "function"
    },
    {
      "inputs": [],
      "name": "symbol",
      "outputs": [
        {
          "internalType": "string",
          "name": "",
          "type": "string"
        }
      ],
      "stateMutability": "view",
      "type": "function"
    },
    {
      "inputs": [],
      "name": "totalSupply",
      "outputs": [
        {
          "internalType": "uint256",
          "name": "",
          "type": "uint256"
        }
      ],
      "stateMutability": "view",
      "type": "function"
    },
    {
      "inputs": [
        {
          "internalType": "address",
          "name": "to",
          "type": "address"
        },
        {
          "internalType": "uint256",
          "name": "amount",
          "type": "uint256"
        }
      ],
      "name": "transfer",
      "outputs": [
        {
          "internalType": "bool",
          "name": "",
          "type": "bool"
        }
      ],
      "stateMutability": "nonpayable",
      "type": "function"
    },
    {
      "inputs": [
        {
          "internalType": "address",
          "name": "from",
          "type": "address"
        },
        {
          "internalType": "address",
          "name": "to",
          "type": "address"
        },
        {
          "internalType": "uint256",
          "name": "amount",
          "type": "uint256"
        }
      ],
      "name": "transferFrom",
      "outputs": [
        {
          "internalType": "bool",
          "name": "",
          "type": "bool"
        }
      ],
      "stateMutability": "nonpayable",
      "type": "function"
    },
    {
      "inputs": [
        {
          "internalType": "address",
          "name": "newOwner",
          "type": "address"
        }
      ],
      "name": "transferOwnership",
      "outputs": [],
      "stateMutability": "nonpayable",
      "type": "function"
    },
    {
      "inputs": [
        {
          "internalType": "address",
          "name": "newImplementation",
          "type": "address"
        }
      ],
      "name": "upgradeTo",
      "outputs": [],
      "stateMutability": "nonpayable",
      "type": "function"
    },
    {
      "inputs": [
        {
          "internalType": "address",
          "name": "newImplementation",
          "type": "address"
        },
        {
          "internalType": "bytes",
          "name": "data",
          "type": "bytes"
        }
      ],
      "name": "upgradeToAndCall",
      "outputs": [],
      "stateMutability": "payable",
      "type": "function"
    }
  ],
  "transactionHash": "0x079baf8cf2604e86a9b0e252e64adc3653143bf5de79df7957ac5c4c7cba41d0",
  "args": [],
  "numDeployments": 2,
  "solcInputHash": "96e65f0a359f8dbd861c5c66946e748d",
  "bytecode": "0x60a06040523060601b6080523480156200001857600080fd5b506200002362000029565b620000eb565b600054610100900460ff1615620000965760405162461bcd60e51b815260206004820152602760248201527f496e697469616c697a61626c653a20636f6e747261637420697320696e697469604482015266616c697a696e6760c81b606482015260840160405180910390fd5b60005460ff9081161015620000e9576000805460ff191660ff9081179091556040519081527f7f26b83ff96e1f2b6a682f133852f6798a09c465da95921460cefb38474024989060200160405180910390a15b565b60805160601c612b1862000126600039600081816106e10152818161072a0152818161099c015281816109dc0152610a6b0152612b186000f3fe6080604052600436106101cd5760003560e01c80636fcfff45116100f75780639ab24eb011610095578063d505accf11610064578063d505accf1461054d578063dd62ed3e1461056d578063f1127ed81461058d578063f2fde38b146105d757600080fd5b80639ab24eb0146104cd578063a457c2d7146104ed578063a9059cbb1461050d578063c3cda5201461052d57600080fd5b80637ecebe00116100d15780637ecebe00146104595780638da5cb5b146104795780638e539e8c1461049857806395d89b41146104b857600080fd5b80636fcfff45146103d957806370a082311461040e578063715018a61461044457600080fd5b8063395093511161016f5780634f1ef2861161013e5780634f1ef2861461033f57806352d1902d14610352578063587cde1e146103675780635c19a95c146103b957600080fd5b806339509351146102bf5780633a46b1a8146102df57806340c10f19146102ff5780634cd88b761461031f57600080fd5b806323b872dd116101ab57806323b872dd1461024c578063313ce5671461026c5780633644e515146102885780633659cfe61461029d57600080fd5b806306fdde03146101d2578063095ea7b3146101fd57806318160ddd1461022d575b600080fd5b3480156101de57600080fd5b506101e76105f7565b6040516101f4919061287b565b60405180910390f35b34801561020957600080fd5b5061021d610218366004612711565b610689565b60405190151581526020016101f4565b34801561023957600080fd5b506099545b6040519081526020016101f4565b34801561025857600080fd5b5061021d610267366004612609565b6106a1565b34801561027857600080fd5b50604051601281526020016101f4565b34801561029457600080fd5b5061023e6106c7565b3480156102a957600080fd5b506102bd6102b83660046125bb565b6106d6565b005b3480156102cb57600080fd5b5061021d6102da366004612711565b6107bf565b3480156102eb57600080fd5b5061023e6102fa366004612711565b6107e1565b34801561030b57600080fd5b506102bd61031a366004612711565b610855565b34801561032b57600080fd5b506102bd61033a3660046127ec565b61086b565b6102bd61034d3660046126af565b610991565b34801561035e57600080fd5b5061023e610a5e565b34801561037357600080fd5b506103a16103823660046125bb565b6001600160a01b03908116600090815261013060205260409020541690565b6040516001600160a01b0390911681526020016101f4565b3480156103c557600080fd5b506102bd6103d43660046125bb565b610b11565b3480156103e557600080fd5b506103f96103f43660046125bb565b610b1b565b60405163ffffffff90911681526020016101f4565b34801561041a57600080fd5b5061023e6104293660046125bb565b6001600160a01b031660009081526097602052604090205490565b34801561045057600080fd5b506102bd610b44565b34801561046557600080fd5b5061023e6104743660046125bb565b610b58565b34801561048557600080fd5b50610162546001600160a01b03166103a1565b3480156104a457600080fd5b5061023e6104b3366004612846565b610b76565b3480156104c457600080fd5b506101e7610bd3565b3480156104d957600080fd5b5061023e6104e83660046125bb565b610be2565b3480156104f957600080fd5b5061021d610508366004612711565b610c6b565b34801561051957600080fd5b5061021d610528366004612711565b610cf1565b34801561053957600080fd5b506102bd61054836600461273b565b610cff565b34801561055957600080fd5b506102bd610568366004612645565b610e35565b34801561057957600080fd5b5061023e6105883660046125d6565b610f99565b34801561059957600080fd5b506105ad6105a8366004612793565b610fc4565b60408051825163ffffffff1681526020928301516001600160e01b031692810192909252016101f4565b3480156105e357600080fd5b506102bd6105f23660046125bb565b611049565b6060609a805461060690612a0e565b80601f016020809104026020016040519081016040528092919081815260200182805461063290612a0e565b801561067f5780601f106106545761010080835404028352916020019161067f565b820191906000526020600020905b81548152906001019060200180831161066257829003601f168201915b5050505050905090565b6000336106978185856110bf565b5060019392505050565b6000336106af8582856111e3565b6106ba85858561125d565b60019150505b9392505050565b60006106d1611431565b905090565b306001600160a01b037f00000000000000000000000000000000000000000000000000000000000000001614156107285760405162461bcd60e51b815260040161071f906128ae565b60405180910390fd5b7f00000000000000000000000000000000000000000000000000000000000000006001600160a01b0316610771600080516020612a9c833981519152546001600160a01b031690565b6001600160a01b0316146107975760405162461bcd60e51b815260040161071f906128fa565b6107a0816114ac565b604080516000808252602082019092526107bc918391906114b4565b50565b6000336106978185856107d28383610f99565b6107dc9190612991565b6110bf565b60004382106108325760405162461bcd60e51b815260206004820152601f60248201527f4552433230566f7465733a20626c6f636b206e6f7420796574206d696e656400604482015260640161071f565b6001600160a01b0383166000908152610131602052604090206106c0908361162e565b61085d6116eb565b6108678282611746565b5050565b600054610100900460ff161580801561088b5750600054600160ff909116105b806108a55750303b1580156108a5575060005460ff166001145b6109085760405162461bcd60e51b815260206004820152602e60248201527f496e697469616c697a61626c653a20636f6e747261637420697320616c72656160448201526d191e481a5b9a5d1a585b1a5e995960921b606482015260840161071f565b6000805460ff19166001179055801561092b576000805461ff0019166101001790555b610933611750565b61093c8361177f565b61094683836117c9565b801561098c576000805461ff0019169055604051600181527f7f26b83ff96e1f2b6a682f133852f6798a09c465da95921460cefb38474024989060200160405180910390a15b505050565b306001600160a01b037f00000000000000000000000000000000000000000000000000000000000000001614156109da5760405162461bcd60e51b815260040161071f906128ae565b7f00000000000000000000000000000000000000000000000000000000000000006001600160a01b0316610a23600080516020612a9c833981519152546001600160a01b031690565b6001600160a01b031614610a495760405162461bcd60e51b815260040161071f906128fa565b610a52826114ac565b610867828260016114b4565b6000306001600160a01b037f00000000000000000000000000000000000000000000000000000000000000001614610afe5760405162461bcd60e51b815260206004820152603860248201527f555550535570677261646561626c653a206d757374206e6f742062652063616c60448201527f6c6564207468726f7567682064656c656761746563616c6c0000000000000000606482015260840161071f565b50600080516020612a9c83398151915290565b6107bc33826117fa565b6001600160a01b03811660009081526101316020526040812054610b3e90611875565b92915050565b610b4c6116eb565b610b5660006118de565b565b6001600160a01b038116600090815260fd6020526040812054610b3e565b6000438210610bc75760405162461bcd60e51b815260206004820152601f60248201527f4552433230566f7465733a20626c6f636b206e6f7420796574206d696e656400604482015260640161071f565b610b3e6101328361162e565b6060609b805461060690612a0e565b6001600160a01b038116600090815261013160205260408120548015610c58576001600160a01b038316600090815261013160205260409020610c266001836129cb565b81548110610c3657610c36612a6f565b60009182526020909120015464010000000090046001600160e01b0316610c5b565b60005b6001600160e01b03169392505050565b60003381610c798286610f99565b905083811015610cd95760405162461bcd60e51b815260206004820152602560248201527f45524332303a2064656372656173656420616c6c6f77616e63652062656c6f77604482015264207a65726f60d81b606482015260840161071f565b610ce682868684036110bf565b506001949350505050565b60003361069781858561125d565b83421115610d4f5760405162461bcd60e51b815260206004820152601d60248201527f4552433230566f7465733a207369676e61747572652065787069726564000000604482015260640161071f565b604080517fe48329057bfd03d55e49b547132e39cffd9c1820ad7b9d4c5307691425d15adf60208201526001600160a01b038816918101919091526060810186905260808101859052600090610dc990610dc19060a00160405160208183030381529060405280519060200120611931565b85858561197f565b9050610dd4816119a7565b8614610e225760405162461bcd60e51b815260206004820152601960248201527f4552433230566f7465733a20696e76616c6964206e6f6e636500000000000000604482015260640161071f565b610e2c81886117fa565b50505050505050565b83421115610e855760405162461bcd60e51b815260206004820152601d60248201527f45524332305065726d69743a206578706972656420646561646c696e65000000604482015260640161071f565b60007f6e71edae12b1b97f4d1f60370fef10105fa2faae0126114a169c64845d6126c9888888610eb48c6119a7565b6040805160208101969096526001600160a01b0394851690860152929091166060840152608083015260a082015260c0810186905260e0016040516020818303038152906040528051906020012090506000610f0f82611931565b90506000610f1f8287878761197f565b9050896001600160a01b0316816001600160a01b031614610f825760405162461bcd60e51b815260206004820152601e60248201527f45524332305065726d69743a20696e76616c6964207369676e61747572650000604482015260640161071f565b610f8d8a8a8a6110bf565b50505050505050505050565b6001600160a01b03918216600090815260986020908152604080832093909416825291909152205490565b60408051808201909152600080825260208201526001600160a01b038316600090815261013160205260409020805463ffffffff841690811061100957611009612a6f565b60009182526020918290206040805180820190915291015463ffffffff8116825264010000000090046001600160e01b0316918101919091529392505050565b6110516116eb565b6001600160a01b0381166110b65760405162461bcd60e51b815260206004820152602660248201527f4f776e61626c653a206e6577206f776e657220697320746865207a65726f206160448201526564647265737360d01b606482015260840161071f565b6107bc816118de565b6001600160a01b0383166111215760405162461bcd60e51b8152602060048201526024808201527f45524332303a20617070726f76652066726f6d20746865207a65726f206164646044820152637265737360e01b606482015260840161071f565b6001600160a01b0382166111825760405162461bcd60e51b815260206004820152602260248201527f45524332303a20617070726f766520746f20746865207a65726f206164647265604482015261737360f01b606482015260840161071f565b6001600160a01b0383811660008181526098602090815260408083209487168084529482529182902085905590518481527f8c5be1e5ebec7d5bd14f71427d1e84f3dd0314c0f7b2291e5b200ac8c7c3b925910160405180910390a3505050565b60006111ef8484610f99565b90506000198114611257578181101561124a5760405162461bcd60e51b815260206004820152601d60248201527f45524332303a20696e73756666696369656e7420616c6c6f77616e6365000000604482015260640161071f565b61125784848484036110bf565b50505050565b6001600160a01b0383166112c15760405162461bcd60e51b815260206004820152602560248201527f45524332303a207472616e736665722066726f6d20746865207a65726f206164604482015264647265737360d81b606482015260840161071f565b6001600160a01b0382166113235760405162461bcd60e51b815260206004820152602360248201527f45524332303a207472616e7366657220746f20746865207a65726f206164647260448201526265737360e81b606482015260840161071f565b6001600160a01b0383166000908152609760205260409020548181101561139b5760405162461bcd60e51b815260206004820152602660248201527f45524332303a207472616e7366657220616d6f756e7420657863656564732062604482015265616c616e636560d01b606482015260840161071f565b6001600160a01b038085166000908152609760205260408082208585039055918516815290812080548492906113d2908490612991565b92505081905550826001600160a01b0316846001600160a01b03167fddf252ad1be2c89b69c2b068fc378daa952ba7f163c4a11628f55a4df523b3ef8460405161141e91815260200190565b60405180910390a36112578484846119cf565b60006106d17f8b73c3c69bb8fe3d512ecc4cf759cc79239f7b179b0ffacaa9a75d522b39400f61146060c95490565b60ca546040805160208101859052908101839052606081018290524660808201523060a082015260009060c0016040516020818303038152906040528051906020012090509392505050565b6107bc6116eb565b7f4910fdfa16fed3260ed0e7147f7cc6da11a60208b5b9406d12a635614ffd91435460ff16156114e75761098c836119da565b826001600160a01b03166352d1902d6040518163ffffffff1660e01b815260040160206040518083038186803b15801561152057600080fd5b505afa925050508015611550575060408051601f3d908101601f1916820190925261154d918101906127d3565b60015b6115b35760405162461bcd60e51b815260206004820152602e60248201527f45524331393637557067726164653a206e657720696d706c656d656e7461746960448201526d6f6e206973206e6f74205555505360901b606482015260840161071f565b600080516020612a9c83398151915281146116225760405162461bcd60e51b815260206004820152602960248201527f45524331393637557067726164653a20756e737570706f727465642070726f786044820152681a58589b195555525160ba1b606482015260840161071f565b5061098c838383611a76565b8154600090815b818110156116925760006116498284611a9b565b90508486828154811061165e5761165e612a6f565b60009182526020909120015463ffffffff16111561167e5780925061168c565b611689816001612991565b91505b50611635565b81156116d657846116a46001846129cb565b815481106116b4576116b4612a6f565b60009182526020909120015464010000000090046001600160e01b03166116d9565b60005b6001600160e01b031695945050505050565b610162546001600160a01b03163314610b565760405162461bcd60e51b815260206004820181905260248201527f4f776e61626c653a2063616c6c6572206973206e6f7420746865206f776e6572604482015260640161071f565b6108678282611ab6565b600054610100900460ff166117775760405162461bcd60e51b815260040161071f90612946565b610b56611b41565b600054610100900460ff166117a65760405162461bcd60e51b815260040161071f90612946565b6107bc81604051806040016040528060018152602001603160f81b815250611b71565b600054610100900460ff166117f05760405162461bcd60e51b815260040161071f90612946565b6108678282611bb2565b6001600160a01b0382811660008181526101306020818152604080842080546097845282862054949093528787166001600160a01b03198416811790915590519190951694919391928592917f3134e8a2e6d97e929a7e54011ea5485d7d196dd5f0ba4d4ef95803e8e3fc257f9190a4611257828483611c00565b600063ffffffff8211156118da5760405162461bcd60e51b815260206004820152602660248201527f53616665436173743a2076616c756520646f65736e27742066697420696e203360448201526532206269747360d01b606482015260840161071f565b5090565b61016280546001600160a01b038381166001600160a01b0319831681179093556040519116919082907f8be0079c531659141344cd1fd0a4f28419497f9722a3daafe3b4186f6b6457e090600090a35050565b6000610b3e61193e611431565b8360405161190160f01b6020820152602281018390526042810182905260009060620160405160208183030381529060405280519060200120905092915050565b600080600061199087878787611d3f565b9150915061199d81611e2c565b5095945050505050565b6001600160a01b038116600090815260fd602052604090208054600181018255905b50919050565b61098c838383611fe7565b6001600160a01b0381163b611a475760405162461bcd60e51b815260206004820152602d60248201527f455243313936373a206e657720696d706c656d656e746174696f6e206973206e60448201526c1bdd08184818dbdb9d1c9858dd609a1b606482015260840161071f565b600080516020612a9c83398151915280546001600160a01b0319166001600160a01b0392909216919091179055565b611a7f8361201a565b600082511180611a8c5750805b1561098c57611257838361205a565b6000611aaa60028484186129a9565b6106c090848416612991565b611ac0828261214e565b6099546001600160e01b031015611b325760405162461bcd60e51b815260206004820152603060248201527f4552433230566f7465733a20746f74616c20737570706c79207269736b73206f60448201526f766572666c6f77696e6720766f74657360801b606482015260840161071f565b61125761013261223583612241565b600054610100900460ff16611b685760405162461bcd60e51b815260040161071f90612946565b610b56336118de565b600054610100900460ff16611b985760405162461bcd60e51b815260040161071f90612946565b81516020928301208151919092012060c99190915560ca55565b600054610100900460ff16611bd95760405162461bcd60e51b815260040161071f90612946565b8151611bec90609a906020850190612468565b50805161098c90609b906020840190612468565b816001600160a01b0316836001600160a01b031614158015611c225750600081115b1561098c576001600160a01b03831615611cb1576001600160a01b0383166000908152610131602052604081208190611c5e906123ba85612241565b91509150846001600160a01b03167fdec2bacdd2f05b59de34da9b523dff8be42e5e38e818c82fdb0bae774387a7248383604051611ca6929190918252602082015260400190565b60405180910390a250505b6001600160a01b0382161561098c576001600160a01b0382166000908152610131602052604081208190611ce89061223585612241565b91509150836001600160a01b03167fdec2bacdd2f05b59de34da9b523dff8be42e5e38e818c82fdb0bae774387a7248383604051611d30929190918252602082015260400190565b60405180910390a25050505050565b6000807f7fffffffffffffffffffffffffffffff5d576e7357a4501ddfe92f46681b20a0831115611d765750600090506003611e23565b8460ff16601b14158015611d8e57508460ff16601c14155b15611d9f5750600090506004611e23565b6040805160008082526020820180845289905260ff881692820192909252606081018690526080810185905260019060a0016020604051602081039080840390855afa158015611df3573d6000803e3d6000fd5b5050604051601f1901519150506001600160a01b038116611e1c57600060019250925050611e23565b9150600090505b94509492505050565b6000816004811115611e4057611e40612a59565b1415611e495750565b6001816004811115611e5d57611e5d612a59565b1415611eab5760405162461bcd60e51b815260206004820152601860248201527f45434453413a20696e76616c6964207369676e61747572650000000000000000604482015260640161071f565b6002816004811115611ebf57611ebf612a59565b1415611f0d5760405162461bcd60e51b815260206004820152601f60248201527f45434453413a20696e76616c6964207369676e6174757265206c656e67746800604482015260640161071f565b6003816004811115611f2157611f21612a59565b1415611f7a5760405162461bcd60e51b815260206004820152602260248201527f45434453413a20696e76616c6964207369676e6174757265202773272076616c604482015261756560f01b606482015260840161071f565b6004816004811115611f8e57611f8e612a59565b14156107bc5760405162461bcd60e51b815260206004820152602260248201527f45434453413a20696e76616c6964207369676e6174757265202776272076616c604482015261756560f01b606482015260840161071f565b6001600160a01b038381166000908152610130602052604080822054858416835291205461098c92918216911683611c00565b612023816119da565b6040516001600160a01b038216907fbc7cd75a20ee27fd9adebab32041f755214dbc6bffa90cc0225b39da2e5c2d3b90600090a250565b60606001600160a01b0383163b6120c25760405162461bcd60e51b815260206004820152602660248201527f416464726573733a2064656c65676174652063616c6c20746f206e6f6e2d636f6044820152651b9d1c9858dd60d21b606482015260840161071f565b600080846001600160a01b0316846040516120dd919061285f565b600060405180830381855af49150503d8060008114612118576040519150601f19603f3d011682016040523d82523d6000602084013e61211d565b606091505b50915091506121458282604051806060016040528060278152602001612abc602791396123c6565b95945050505050565b6001600160a01b0382166121a45760405162461bcd60e51b815260206004820152601f60248201527f45524332303a206d696e7420746f20746865207a65726f206164647265737300604482015260640161071f565b80609960008282546121b69190612991565b90915550506001600160a01b038216600090815260976020526040812080548392906121e3908490612991565b90915550506040518181526001600160a01b038316906000907fddf252ad1be2c89b69c2b068fc378daa952ba7f163c4a11628f55a4df523b3ef9060200160405180910390a3610867600083836119cf565b60006106c08284612991565b82546000908190801561228c578561225a6001836129cb565b8154811061226a5761226a612a6f565b60009182526020909120015464010000000090046001600160e01b031661228f565b60005b6001600160e01b031692506122a883858763ffffffff16565b91506000811180156122e6575043866122c26001846129cb565b815481106122d2576122d2612a6f565b60009182526020909120015463ffffffff16145b15612346576122f4826123ff565b866123006001846129cb565b8154811061231057612310612a6f565b9060005260206000200160000160046101000a8154816001600160e01b0302191690836001600160e01b031602179055506123b1565b85604051806040016040528061235b43611875565b63ffffffff16815260200161236f856123ff565b6001600160e01b0390811690915282546001810184556000938452602093849020835194909301519091166401000000000263ffffffff909316929092179101555b50935093915050565b60006106c082846129cb565b606083156123d55750816106c0565b8251156123e55782518084602001fd5b8160405162461bcd60e51b815260040161071f919061287b565b60006001600160e01b038211156118da5760405162461bcd60e51b815260206004820152602760248201527f53616665436173743a2076616c756520646f65736e27742066697420696e20326044820152663234206269747360c81b606482015260840161071f565b82805461247490612a0e565b90600052602060002090601f01602090048101928261249657600085556124dc565b82601f106124af57805160ff19168380011785556124dc565b828001600101855582156124dc579182015b828111156124dc5782518255916020019190600101906124c1565b506118da9291505b808211156118da57600081556001016124e4565b600067ffffffffffffffff8084111561251357612513612a85565b604051601f8501601f19908116603f0116810190828211818310171561253b5761253b612a85565b8160405280935085815286868601111561255457600080fd5b858560208301376000602087830101525050509392505050565b80356001600160a01b038116811461258557600080fd5b919050565b600082601f83011261259b57600080fd5b6106c0838335602085016124f8565b803560ff8116811461258557600080fd5b6000602082840312156125cd57600080fd5b6106c08261256e565b600080604083850312156125e957600080fd5b6125f28361256e565b91506126006020840161256e565b90509250929050565b60008060006060848603121561261e57600080fd5b6126278461256e565b92506126356020850161256e565b9150604084013590509250925092565b600080600080600080600060e0888a03121561266057600080fd5b6126698861256e565b96506126776020890161256e565b95506040880135945060608801359350612693608089016125aa565b925060a0880135915060c0880135905092959891949750929550565b600080604083850312156126c257600080fd5b6126cb8361256e565b9150602083013567ffffffffffffffff8111156126e757600080fd5b8301601f810185136126f857600080fd5b612707858235602084016124f8565b9150509250929050565b6000806040838503121561272457600080fd5b61272d8361256e565b946020939093013593505050565b60008060008060008060c0878903121561275457600080fd5b61275d8761256e565b95506020870135945060408701359350612779606088016125aa565b92506080870135915060a087013590509295509295509295565b600080604083850312156127a657600080fd5b6127af8361256e565b9150602083013563ffffffff811681146127c857600080fd5b809150509250929050565b6000602082840312156127e557600080fd5b5051919050565b600080604083850312156127ff57600080fd5b823567ffffffffffffffff8082111561281757600080fd5b6128238683870161258a565b9350602085013591508082111561283957600080fd5b506127078582860161258a565b60006020828403121561285857600080fd5b5035919050565b600082516128718184602087016129e2565b9190910192915050565b602081526000825180602084015261289a8160408501602087016129e2565b601f01601f19169190910160400192915050565b6020808252602c908201527f46756e6374696f6e206d7573742062652063616c6c6564207468726f7567682060408201526b19195b1959d85d1958d85b1b60a21b606082015260800190565b6020808252602c908201527f46756e6374696f6e206d7573742062652063616c6c6564207468726f7567682060408201526b6163746976652070726f787960a01b606082015260800190565b6020808252602b908201527f496e697469616c697a61626c653a20636f6e7472616374206973206e6f74206960408201526a6e697469616c697a696e6760a81b606082015260800190565b600082198211156129a4576129a4612a43565b500190565b6000826129c657634e487b7160e01b600052601260045260246000fd5b500490565b6000828210156129dd576129dd612a43565b500390565b60005b838110156129fd5781810151838201526020016129e5565b838111156112575750506000910152565b600181811c90821680612a2257607f821691505b602082108114156119c957634e487b7160e01b600052602260045260246000fd5b634e487b7160e01b600052601160045260246000fd5b634e487b7160e01b600052602160045260246000fd5b634e487b7160e01b600052603260045260246000fd5b634e487b7160e01b600052604160045260246000fdfe360894a13ba1a3210667c828492db98dca3e2076cc3735a920a3ca505d382bbc416464726573733a206c6f772d6c6576656c2064656c65676174652063616c6c206661696c6564a26469706673582212200c1b5226081e6eddadf8257495c154d8e133bd3dcb081adf7cc1a1b6f4dc2d9064736f6c63430008070033",
  "devdoc": {
    "kind": "dev",
    "methods": {
      "DOMAIN_SEPARATOR()": {
        "details": "See {IERC20Permit-DOMAIN_SEPARATOR}."
      },
      "allowance(address,address)": {
        "details": "See {IERC20-allowance}."
      },
      "approve(address,uint256)": {
        "details": "See {IERC20-approve}. NOTE: If `amount` is the maximum `uint256`, the allowance is not updated on `transferFrom`. This is semantically equivalent to an infinite approval. Requirements: - `spender` cannot be the zero address."
      },
      "balanceOf(address)": {
        "details": "See {IERC20-balanceOf}."
      },
      "checkpoints(address,uint32)": {
        "details": "Get the `pos`-th checkpoint for `account`."
      },
      "constructor": {
        "custom:oz-upgrades-unsafe-allow": "constructor"
      },
      "decimals()": {
        "details": "Returns the number of decimals used to get its user representation. For example, if `decimals` equals `2`, a balance of `505` tokens should be displayed to a user as `5.05` (`505 / 10 ** 2`). Tokens usually opt for a value of 18, imitating the relationship between Ether and Wei. This is the value {ERC20} uses, unless this function is overridden; NOTE: This information is only used for _display_ purposes: it in no way affects any of the arithmetic of the contract, including {IERC20-balanceOf} and {IERC20-transfer}."
      },
      "decreaseAllowance(address,uint256)": {
        "details": "Atomically decreases the allowance granted to `spender` by the caller. This is an alternative to {approve} that can be used as a mitigation for problems described in {IERC20-approve}. Emits an {Approval} event indicating the updated allowance. Requirements: - `spender` cannot be the zero address. - `spender` must have allowance for the caller of at least `subtractedValue`."
      },
      "delegate(address)": {
        "details": "Delegate votes from the sender to `delegatee`."
      },
      "delegateBySig(address,uint256,uint256,uint8,bytes32,bytes32)": {
        "details": "Delegates votes from signer to `delegatee`"
      },
      "delegates(address)": {
        "details": "Get the address `account` is currently delegating to."
      },
      "getPastTotalSupply(uint256)": {
        "details": "Retrieve the `totalSupply` at the end of `blockNumber`. Note, this value is the sum of all balances. It is but NOT the sum of all the delegated votes! Requirements: - `blockNumber` must have been already mined"
      },
      "getPastVotes(address,uint256)": {
        "details": "Retrieve the number of votes for `account` at the end of `blockNumber`. Requirements: - `blockNumber` must have been already mined"
      },
      "getVotes(address)": {
        "details": "Gets the current votes balance for `account`"
      },
      "increaseAllowance(address,uint256)": {
        "details": "Atomically increases the allowance granted to `spender` by the caller. This is an alternative to {approve} that can be used as a mitigation for problems described in {IERC20-approve}. Emits an {Approval} event indicating the updated allowance. Requirements: - `spender` cannot be the zero address."
      },
      "name()": {
        "details": "Returns the name of the token."
      },
      "nonces(address)": {
        "details": "See {IERC20Permit-nonces}."
      },
      "numCheckpoints(address)": {
        "details": "Get number of checkpoints for `account`."
      },
      "owner()": {
        "details": "Returns the address of the current owner."
      },
      "permit(address,address,uint256,uint256,uint8,bytes32,bytes32)": {
        "details": "See {IERC20Permit-permit}."
      },
      "proxiableUUID()": {
        "details": "Implementation of the ERC1822 {proxiableUUID} function. This returns the storage slot used by the implementation. It is used to validate that the this implementation remains valid after an upgrade. IMPORTANT: A proxy pointing at a proxiable contract should not be considered proxiable itself, because this risks bricking a proxy that upgrades to it, by delegating to itself until out of gas. Thus it is critical that this function revert if invoked through a proxy. This is guaranteed by the `notDelegated` modifier."
      },
      "renounceOwnership()": {
        "details": "Leaves the contract without owner. It will not be possible to call `onlyOwner` functions anymore. Can only be called by the current owner. NOTE: Renouncing ownership will leave the contract without an owner, thereby removing any functionality that is only available to the owner."
      },
      "symbol()": {
        "details": "Returns the symbol of the token, usually a shorter version of the name."
      },
      "totalSupply()": {
        "details": "See {IERC20-totalSupply}."
      },
      "transfer(address,uint256)": {
        "details": "See {IERC20-transfer}. Requirements: - `to` cannot be the zero address. - the caller must have a balance of at least `amount`."
      },
      "transferFrom(address,address,uint256)": {
        "details": "See {IERC20-transferFrom}. Emits an {Approval} event indicating the updated allowance. This is not required by the EIP. See the note at the beginning of {ERC20}. NOTE: Does not update the allowance if the current allowance is the maximum `uint256`. Requirements: - `from` and `to` cannot be the zero address. - `from` must have a balance of at least `amount`. - the caller must have allowance for ``from``'s tokens of at least `amount`."
      },
      "transferOwnership(address)": {
        "details": "Transfers ownership of the contract to a new account (`newOwner`). Can only be called by the current owner."
      },
      "upgradeTo(address)": {
        "details": "Upgrade the implementation of the proxy to `newImplementation`. Calls {_authorizeUpgrade}. Emits an {Upgraded} event."
      },
      "upgradeToAndCall(address,bytes)": {
        "details": "Upgrade the implementation of the proxy to `newImplementation`, and subsequently execute the function call encoded in `data`. Calls {_authorizeUpgrade}. Emits an {Upgraded} event."
      }
    },
    "version": 1
  },
  "userdoc": {
    "kind": "user",
    "methods": {},
    "version": 1
  },
  "storageLayout": {
    "storage": [
      {
        "astId": 605,
        "contract": "contracts/tests/CoffeeToken.sol:CoffeeToken",
        "label": "_initialized",
        "offset": 0,
        "slot": "0",
        "type": "t_uint8"
      },
      {
        "astId": 608,
        "contract": "contracts/tests/CoffeeToken.sol:CoffeeToken",
        "label": "_initializing",
        "offset": 1,
        "slot": "0",
        "type": "t_bool"
      },
      {
        "astId": 587,
        "contract": "contracts/tests/CoffeeToken.sol:CoffeeToken",
        "label": "__gap",
        "offset": 0,
        "slot": "1",
        "type": "t_array(t_uint256)50_storage"
      },
      {
        "astId": 884,
        "contract": "contracts/tests/CoffeeToken.sol:CoffeeToken",
        "label": "__gap",
        "offset": 0,
        "slot": "51",
        "type": "t_array(t_uint256)50_storage"
      },
      {
        "astId": 2767,
        "contract": "contracts/tests/CoffeeToken.sol:CoffeeToken",
        "label": "__gap",
        "offset": 0,
        "slot": "101",
        "type": "t_array(t_uint256)50_storage"
      },
      {
        "astId": 904,
        "contract": "contracts/tests/CoffeeToken.sol:CoffeeToken",
        "label": "_balances",
        "offset": 0,
        "slot": "151",
        "type": "t_mapping(t_address,t_uint256)"
      },
      {
        "astId": 910,
        "contract": "contracts/tests/CoffeeToken.sol:CoffeeToken",
        "label": "_allowances",
        "offset": 0,
        "slot": "152",
        "type": "t_mapping(t_address,t_mapping(t_address,t_uint256))"
      },
      {
        "astId": 912,
        "contract": "contracts/tests/CoffeeToken.sol:CoffeeToken",
        "label": "_totalSupply",
        "offset": 0,
        "slot": "153",
        "type": "t_uint256"
      },
      {
        "astId": 914,
        "contract": "contracts/tests/CoffeeToken.sol:CoffeeToken",
        "label": "_name",
        "offset": 0,
        "slot": "154",
        "type": "t_string_storage"
      },
      {
        "astId": 916,
        "contract": "contracts/tests/CoffeeToken.sol:CoffeeToken",
        "label": "_symbol",
        "offset": 0,
        "slot": "155",
        "type": "t_string_storage"
      },
      {
        "astId": 1495,
        "contract": "contracts/tests/CoffeeToken.sol:CoffeeToken",
        "label": "__gap",
        "offset": 0,
        "slot": "156",
        "type": "t_array(t_uint256)45_storage"
      },
      {
        "astId": 3525,
        "contract": "contracts/tests/CoffeeToken.sol:CoffeeToken",
        "label": "_HASHED_NAME",
        "offset": 0,
        "slot": "201",
        "type": "t_bytes32"
      },
      {
        "astId": 3527,
        "contract": "contracts/tests/CoffeeToken.sol:CoffeeToken",
        "label": "_HASHED_VERSION",
        "offset": 0,
        "slot": "202",
        "type": "t_bytes32"
      },
      {
        "astId": 3665,
        "contract": "contracts/tests/CoffeeToken.sol:CoffeeToken",
        "label": "__gap",
        "offset": 0,
        "slot": "203",
        "type": "t_array(t_uint256)50_storage"
      },
      {
        "astId": 2282,
        "contract": "contracts/tests/CoffeeToken.sol:CoffeeToken",
        "label": "_nonces",
        "offset": 0,
        "slot": "253",
        "type": "t_mapping(t_address,t_struct(Counter)2774_storage)"
      },
      {
        "astId": 2290,
        "contract": "contracts/tests/CoffeeToken.sol:CoffeeToken",
        "label": "_PERMIT_TYPEHASH_DEPRECATED_SLOT",
        "offset": 0,
        "slot": "254",
        "type": "t_bytes32"
      },
      {
        "astId": 2446,
        "contract": "contracts/tests/CoffeeToken.sol:CoffeeToken",
        "label": "__gap",
        "offset": 0,
        "slot": "255",
        "type": "t_array(t_uint256)49_storage"
      },
      {
        "astId": 1615,
        "contract": "contracts/tests/CoffeeToken.sol:CoffeeToken",
        "label": "_delegates",
        "offset": 0,
        "slot": "304",
        "type": "t_mapping(t_address,t_address)"
      },
      {
        "astId": 1621,
        "contract": "contracts/tests/CoffeeToken.sol:CoffeeToken",
        "label": "_checkpoints",
        "offset": 0,
        "slot": "305",
        "type": "t_mapping(t_address,t_array(t_struct(Checkpoint)1606_storage)dyn_storage)"
      },
      {
        "astId": 1625,
        "contract": "contracts/tests/CoffeeToken.sol:CoffeeToken",
        "label": "_totalSupplyCheckpoints",
        "offset": 0,
        "slot": "306",
        "type": "t_array(t_struct(Checkpoint)1606_storage)dyn_storage"
      },
      {
        "astId": 2230,
        "contract": "contracts/tests/CoffeeToken.sol:CoffeeToken",
        "label": "__gap",
        "offset": 0,
        "slot": "307",
        "type": "t_array(t_uint256)47_storage"
      },
      {
        "astId": 10,
        "contract": "contracts/tests/CoffeeToken.sol:CoffeeToken",
        "label": "_owner",
        "offset": 0,
        "slot": "354",
        "type": "t_address"
      },
      {
        "astId": 130,
        "contract": "contracts/tests/CoffeeToken.sol:CoffeeToken",
        "label": "__gap",
        "offset": 0,
        "slot": "355",
        "type": "t_array(t_uint256)49_storage"
      },
      {
        "astId": 6162,
        "contract": "contracts/tests/CoffeeToken.sol:CoffeeToken",
        "label": "__gap",
        "offset": 0,
        "slot": "404",
        "type": "t_array(t_uint256)50_storage"
      }
    ],
    "types": {
      "t_address": {
        "encoding": "inplace",
        "label": "address",
        "numberOfBytes": "20"
      },
      "t_array(t_struct(Checkpoint)1606_storage)dyn_storage": {
        "base": "t_struct(Checkpoint)1606_storage",
        "encoding": "dynamic_array",
        "label": "struct ERC20VotesUpgradeable.Checkpoint[]",
        "numberOfBytes": "32"
      },
      "t_array(t_uint256)45_storage": {
        "base": "t_uint256",
        "encoding": "inplace",
        "label": "uint256[45]",
        "numberOfBytes": "1440"
      },
      "t_array(t_uint256)47_storage": {
        "base": "t_uint256",
        "encoding": "inplace",
        "label": "uint256[47]",
        "numberOfBytes": "1504"
      },
      "t_array(t_uint256)49_storage": {
        "base": "t_uint256",
        "encoding": "inplace",
        "label": "uint256[49]",
        "numberOfBytes": "1568"
      },
      "t_array(t_uint256)50_storage": {
        "base": "t_uint256",
        "encoding": "inplace",
        "label": "uint256[50]",
        "numberOfBytes": "1600"
      },
      "t_bool": {
        "encoding": "inplace",
        "label": "bool",
        "numberOfBytes": "1"
      },
      "t_bytes32": {
        "encoding": "inplace",
        "label": "bytes32",
        "numberOfBytes": "32"
      },
      "t_mapping(t_address,t_address)": {
        "encoding": "mapping",
        "key": "t_address",
        "label": "mapping(address => address)",
        "numberOfBytes": "32",
        "value": "t_address"
      },
      "t_mapping(t_address,t_array(t_struct(Checkpoint)1606_storage)dyn_storage)": {
        "encoding": "mapping",
        "key": "t_address",
        "label": "mapping(address => struct ERC20VotesUpgradeable.Checkpoint[])",
        "numberOfBytes": "32",
        "value": "t_array(t_struct(Checkpoint)1606_storage)dyn_storage"
      },
      "t_mapping(t_address,t_mapping(t_address,t_uint256))": {
        "encoding": "mapping",
        "key": "t_address",
        "label": "mapping(address => mapping(address => uint256))",
        "numberOfBytes": "32",
        "value": "t_mapping(t_address,t_uint256)"
      },
      "t_mapping(t_address,t_struct(Counter)2774_storage)": {
        "encoding": "mapping",
        "key": "t_address",
        "label": "mapping(address => struct CountersUpgradeable.Counter)",
        "numberOfBytes": "32",
        "value": "t_struct(Counter)2774_storage"
      },
      "t_mapping(t_address,t_uint256)": {
        "encoding": "mapping",
        "key": "t_address",
        "label": "mapping(address => uint256)",
        "numberOfBytes": "32",
        "value": "t_uint256"
      },
      "t_string_storage": {
        "encoding": "bytes",
        "label": "string",
        "numberOfBytes": "32"
      },
      "t_struct(Checkpoint)1606_storage": {
        "encoding": "inplace",
        "label": "struct ERC20VotesUpgradeable.Checkpoint",
        "members": [
          {
            "astId": 1603,
            "contract": "contracts/tests/CoffeeToken.sol:CoffeeToken",
            "label": "fromBlock",
            "offset": 0,
            "slot": "0",
            "type": "t_uint32"
          },
          {
            "astId": 1605,
            "contract": "contracts/tests/CoffeeToken.sol:CoffeeToken",
            "label": "votes",
            "offset": 4,
            "slot": "0",
            "type": "t_uint224"
          }
        ],
        "numberOfBytes": "32"
      },
      "t_struct(Counter)2774_storage": {
        "encoding": "inplace",
        "label": "struct CountersUpgradeable.Counter",
        "members": [
          {
            "astId": 2773,
            "contract": "contracts/tests/CoffeeToken.sol:CoffeeToken",
            "label": "_value",
            "offset": 0,
            "slot": "0",
            "type": "t_uint256"
          }
        ],
        "numberOfBytes": "32"
      },
      "t_uint224": {
        "encoding": "inplace",
        "label": "uint224",
        "numberOfBytes": "28"
      },
      "t_uint256": {
        "encoding": "inplace",
        "label": "uint256",
        "numberOfBytes": "32"
      },
      "t_uint32": {
        "encoding": "inplace",
        "label": "uint32",
        "numberOfBytes": "4"
      },
      "t_uint8": {
        "encoding": "inplace",
        "label": "uint8",
        "numberOfBytes": "1"
      }
    }
  }
}