{
  "address": "0xB35C125f147F804dd9BEbDe2332a9446D409Fb4b",
  "abi": [
    {
      "inputs": [
        {
          "internalType": "string",
          "name": "_name",
          "type": "string"
        },
        {
          "components": [
            {
              "internalType": "bytes32",
              "name": "contractName",
              "type": "bytes32"
            },
            {
              "internalType": "address",
              "name": "impl",
              "type": "address"
            }
          ],
          "internalType": "struct DaoBeacon.ContractImpl[]",
          "name": "_contractImpl",
          "type": "tuple[]"
        }
      ],
      "stateMutability": "nonpayable",
      "type": "constructor"
    },
    {
      "inputs": [],
      "name": "DaoImplementationNotExist",
      "type": "error"
    },
    {
      "inputs": [
        {
          "internalType": "address",
          "name": "_contract",
          "type": "address"
        }
      ],
      "name": "InvalidContract",
      "type": "error"
    },
    {
      "anonymous": false,
      "inputs": [
        {
          "indexed": false,
          "internalType": "string",
          "name": "name",
          "type": "string"
        },
        {
          "components": [
            {
              "internalType": "bytes32",
              "name": "contractName",
              "type": "bytes32"
            },
            {
              "internalType": "address",
              "name": "impl",
              "type": "address"
            }
          ],
          "indexed": false,
          "internalType": "struct DaoBeacon.ContractImpl[]",
          "name": "contractImpl",
          "type": "tuple[]"
        }
      ],
      "name": "DaoBeaconInit",
      "type": "event"
    },
    {
      "inputs": [
        {
          "internalType": "bytes32",
          "name": "",
          "type": "bytes32"
        }
      ],
      "name": "implementation",
      "outputs": [
        {
          "internalType": "address",
          "name": "",
          "type": "address"
        }
      ],
      "stateMutability": "view",
      "type": "function"
    },
    {
      "inputs": [],
      "name": "name",
      "outputs": [
        {
          "internalType": "string",
          "name": "",
          "type": "string"
        }
      ],
      "stateMutability": "view",
      "type": "function"
    }
  ],
  "transactionHash": "0x8a277120be5c5fddba0119e514c0b0a19cdf90798b576de81ea32bb6eefdfe3e",
  "args": [
    "v3.0.0",
    [
      [
        "0x0eb5315aabe0b67a4ffbc3e46ecabf1b111df8b819059d7bd494e073ea45e5c4",
        "0x6E7E0D81e77aCEdd26adbA7a391d29995512a247"
      ],
      [
        "0x5c4ee0e3f89f17d0a72534b567bc6571190c655da657329132a489e6ea1f93af",
        "0x8d7df815Fb19055A66a0B44Ca91A5ebdc0bb876e"
      ],
      [
        "0xca3a9c7f8591a529395becbf849567b04ba8a1f97b6270590de1ca40f157eee8",
        "0x80B5aEE59A67275d7371Ab65D8DD9766ED90B6E7"
      ],
      [
        "0xd519f8c75060dd6624d6648c54d628a13d6dfe0f64aa76e627cd2bca2927828c",
        "0xCe7b705834152C21be125cDb7505285df2BbD487"
      ],
      [
        "0x64925d0d84562fd361a302a2b1baa73c4b1fbf4060c4447ff115e0dfb1e93f11",
        "0x43D45ce27481034F6bC9dCe1Ed29eAAdF7aAAAb0"
      ],
      [
        "0x39b2998f6ab406431314b35392869ac97b78118c44110010e2794d01a8a4bd51",
        "0xA6A22A9032E01341D7baC0d48Bd08FC1a6A3d767"
      ],
      [
        "0x091c6f8af1bbed44714810e84f12698ca9a61882d939204b4fd71435d0a8e069",
        "0x07840a24F5CBEB26227D3D77c4AB00dC66E9061b"
      ]
    ]
  ],
  "numDeployments": 4,
  "solcInputHash": "5fc3db6744f3ddd0f1dd7c5e591b869e",
  "bytecode": "0x608060405234801561001057600080fd5b5060405161080538038061080583398101604081905261002f91610317565b81516100429060009060208501906101bf565b5060005b81518110156100fd576000828281518110610063576100636105b4565b60200260200101519050600081602001519050610092816001600160a01b03166101b060201b6101281760201c565b6100be57604051633b00592160e21b81526001600160a01b038216600482015260240160405180910390fd5b9051600090815260016020526040902080546001600160a01b0319166001600160a01b03909216919091179055806100f58161058b565b915050610046565b507f0eb5315aabe0b67a4ffbc3e46ecabf1b111df8b819059d7bd494e073ea45e5c460005260016020527fd89dcb31020833a635dbddcbb75c24957db8abb9f7e89cab13a81f9db06151bb546001600160a01b031661016f576040516316f1166560e01b815260040160405180910390fd5b7f19982cc81119a92a351f7a682ca08587eca685ca92bf46cf91c9aeb0271e2e5c6000826040516101a192919061043c565b60405180910390a150506105e0565b6001600160a01b03163b151590565b8280546101cb90610550565b90600052602060002090601f0160209004810192826101ed5760008555610233565b82601f1061020657805160ff1916838001178555610233565b82800160010185558215610233579182015b82811115610233578251825591602001919060010190610218565b5061023f929150610243565b5090565b5b8082111561023f5760008155600101610244565b600082601f83011261026957600080fd5b815160206001600160401b03821115610284576102846105ca565b610292818360051b01610520565b80838252828201915082860187848660061b89010111156102b257600080fd5b60005b8581101561030a57604080838b0312156102ce57600080fd5b6102d66104f8565b83518152868401516001600160a01b03811681146102f357600080fd5b8188015285529385019391909101906001016102b5565b5090979650505050505050565b6000806040838503121561032a57600080fd5b82516001600160401b038082111561034157600080fd5b818501915085601f83011261035557600080fd5b815181811115610367576103676105ca565b602061037b601f8301601f19168201610520565b828152888284870101111561038f57600080fd5b60005b838110156103ad578581018301518282018401528201610392565b838111156103be5760008385840101525b5090870151909550925050808211156103d657600080fd5b506103e385828601610258565b9150509250929050565b600081518084526020808501945080840160005b83811015610431578151805188528301516001600160a01b03168388015260409096019590820190600101610401565b509495945050505050565b60408152600080845481600182811c91508083168061045c57607f831692505b602080841082141561047c57634e487b7160e01b86526022600452602486fd5b604088018490526060880182801561049b57600181146104ac576104d7565b60ff198716825282820197506104d7565b60008c81526020902060005b878110156104d1578154848201529086019084016104b8565b83019850505b50508786038189015250505050506104ef81856103ed565b95945050505050565b604080519081016001600160401b038111828210171561051a5761051a6105ca565b60405290565b604051601f8201601f191681016001600160401b0381118282101715610548576105486105ca565b604052919050565b600181811c9082168061056457607f821691505b6020821081141561058557634e487b7160e01b600052602260045260246000fd5b50919050565b60006000198214156105ad57634e487b7160e01b600052601160045260246000fd5b5060010190565b634e487b7160e01b600052603260045260246000fd5b634e487b7160e01b600052604160045260246000fd5b610216806105ef6000396000f3fe608060405234801561001057600080fd5b50600436106100365760003560e01c806306fdde031461003b57806353c41dea14610059575b600080fd5b61004361009a565b6040516100509190610150565b60405180910390f35b610082610067366004610137565b6001602052600090815260409020546001600160a01b031681565b6040516001600160a01b039091168152602001610050565b600080546100a7906101a5565b80601f01602080910402602001604051908101604052809291908181526020018280546100d3906101a5565b80156101205780601f106100f557610100808354040283529160200191610120565b820191906000526020600020905b81548152906001019060200180831161010357829003601f168201915b505050505081565b6001600160a01b03163b151590565b60006020828403121561014957600080fd5b5035919050565b600060208083528351808285015260005b8181101561017d57858101830151858201604001528201610161565b8181111561018f576000604083870101525b50601f01601f1916929092016040019392505050565b600181811c908216806101b957607f821691505b602082108114156101da57634e487b7160e01b600052602260045260246000fd5b5091905056fea264697066735822122007d166338ee44e06fc0ea58e021bda7f7c6f2e1e11b35b1af3fad22671ce198064736f6c63430008070033",
  "devdoc": {
    "kind": "dev",
    "methods": {},
    "version": 1
  },
  "userdoc": {
    "kind": "user",
    "methods": {},
    "version": 1
  },
  "storageLayout": {
    "storage": [
      {
        "astId": 13440,
        "contract": "contracts/DaoBeacon.sol:DaoBeacon",
        "label": "name",
        "offset": 0,
        "slot": "0",
        "type": "t_string_storage"
      },
      {
        "astId": 13444,
        "contract": "contracts/DaoBeacon.sol:DaoBeacon",
        "label": "implementation",
        "offset": 0,
        "slot": "1",
        "type": "t_mapping(t_bytes32,t_address)"
      }
    ],
    "types": {
      "t_address": {
        "encoding": "inplace",
        "label": "address",
        "numberOfBytes": "20"
      },
      "t_bytes32": {
        "encoding": "inplace",
        "label": "bytes32",
        "numberOfBytes": "32"
      },
      "t_mapping(t_bytes32,t_address)": {
        "encoding": "mapping",
        "key": "t_bytes32",
        "label": "mapping(bytes32 => address)",
        "numberOfBytes": "32",
        "value": "t_address"
      },
      "t_string_storage": {
        "encoding": "bytes",
        "label": "string",
        "numberOfBytes": "32"
      }
    }
  }
}