{
  "address": "0x8fDCc2013a5430db975EAc505AEe2BC0f9996518",
  "abi": [
    {
      "inputs": [],
      "stateMutability": "nonpayable",
      "type": "constructor"
    },
    {
      "inputs": [],
      "name": "Empty",
      "type": "error"
    },
    {
      "inputs": [],
      "name": "InvalidVoteType",
      "type": "error"
    },
    {
      "inputs": [],
      "name": "NoContent",
      "type": "error"
    },
    {
      "inputs": [
        {
          "internalType": "address",
          "name": "token",
          "type": "address"
        }
      ],
      "name": "NonVotableToken",
      "type": "error"
    },
    {
      "inputs": [],
      "name": "VoteAlreadyCast",
      "type": "error"
    },
    {
      "anonymous": false,
      "inputs": [
        {
          "indexed": false,
          "internalType": "uint8",
          "name": "version",
          "type": "uint8"
        }
      ],
      "name": "Initialized",
      "type": "event"
    },
    {
      "anonymous": false,
      "inputs": [
        {
          "indexed": true,
          "internalType": "address",
          "name": "previousOwner",
          "type": "address"
        },
        {
          "indexed": true,
          "internalType": "address",
          "name": "newOwner",
          "type": "address"
        }
      ],
      "name": "OwnershipTransferred",
      "type": "event"
    },
    {
      "anonymous": false,
      "inputs": [
        {
          "indexed": false,
          "internalType": "uint256",
          "name": "proposalId",
          "type": "uint256"
        }
      ],
      "name": "ProposalCanceled",
      "type": "event"
    },
    {
      "anonymous": false,
      "inputs": [
        {
          "indexed": false,
          "internalType": "uint256",
          "name": "proposalId",
          "type": "uint256"
        },
        {
          "indexed": false,
          "internalType": "address",
          "name": "proposer",
          "type": "address"
        },
        {
          "indexed": false,
          "internalType": "address[]",
          "name": "targets",
          "type": "address[]"
        },
        {
          "indexed": false,
          "internalType": "uint256[]",
          "name": "values",
          "type": "uint256[]"
        },
        {
          "indexed": false,
          "internalType": "string[]",
          "name": "signatures",
          "type": "string[]"
        },
        {
          "indexed": false,
          "internalType": "bytes[]",
          "name": "calldatas",
          "type": "bytes[]"
        },
        {
          "indexed": false,
          "internalType": "uint256",
          "name": "startBlock",
          "type": "uint256"
        },
        {
          "indexed": false,
          "internalType": "uint256",
          "name": "endBlock",
          "type": "uint256"
        },
        {
          "indexed": false,
          "internalType": "string",
          "name": "description",
          "type": "string"
        }
      ],
      "name": "ProposalCreated",
      "type": "event"
    },
    {
      "anonymous": false,
      "inputs": [
        {
          "indexed": false,
          "internalType": "uint256",
          "name": "proposalId",
          "type": "uint256"
        }
      ],
      "name": "ProposalExecuted",
      "type": "event"
    },
    {
      "anonymous": false,
      "inputs": [
        {
          "indexed": true,
          "internalType": "address",
          "name": "voter",
          "type": "address"
        },
        {
          "indexed": false,
          "internalType": "uint256",
          "name": "proposalId",
          "type": "uint256"
        },
        {
          "indexed": false,
          "internalType": "uint8",
          "name": "support",
          "type": "uint8"
        },
        {
          "indexed": false,
          "internalType": "uint256",
          "name": "weight",
          "type": "uint256"
        },
        {
          "indexed": false,
          "internalType": "string",
          "name": "reason",
          "type": "string"
        }
      ],
      "name": "VoteCast",
      "type": "event"
    },
    {
      "anonymous": false,
      "inputs": [
        {
          "indexed": true,
          "internalType": "address",
          "name": "voter",
          "type": "address"
        },
        {
          "indexed": false,
          "internalType": "uint256",
          "name": "proposalId",
          "type": "uint256"
        },
        {
          "indexed": false,
          "internalType": "uint8",
          "name": "support",
          "type": "uint8"
        },
        {
          "indexed": false,
          "internalType": "uint256",
          "name": "weight",
          "type": "uint256"
        },
        {
          "indexed": false,
          "internalType": "string",
          "name": "reason",
          "type": "string"
        },
        {
          "indexed": false,
          "internalType": "bytes",
          "name": "params",
          "type": "bytes"
        }
      ],
      "name": "VoteCastWithParams",
      "type": "event"
    },
    {
      "inputs": [],
      "name": "BALLOT_TYPEHASH",
      "outputs": [
        {
          "internalType": "bytes32",
          "name": "",
          "type": "bytes32"
        }
      ],
      "stateMutability": "view",
      "type": "function"
    },
    {
      "inputs": [],
      "name": "COUNTING_MODE",
      "outputs": [
        {
          "internalType": "string",
          "name": "",
          "type": "string"
        }
      ],
      "stateMutability": "pure",
      "type": "function"
    },
    {
      "inputs": [],
      "name": "EXTENDED_BALLOT_TYPEHASH",
      "outputs": [
        {
          "internalType": "bytes32",
          "name": "",
          "type": "bytes32"
        }
      ],
      "stateMutability": "view",
      "type": "function"
    },
    {
      "inputs": [
        {
          "internalType": "uint256",
          "name": "proposalId",
          "type": "uint256"
        },
        {
          "internalType": "uint8",
          "name": "support",
          "type": "uint8"
        }
      ],
      "name": "castVote",
      "outputs": [
        {
          "internalType": "uint256",
          "name": "",
          "type": "uint256"
        }
      ],
      "stateMutability": "nonpayable",
      "type": "function"
    },
    {
      "inputs": [
        {
          "internalType": "uint256",
          "name": "proposalId",
          "type": "uint256"
        },
        {
          "internalType": "uint8",
          "name": "support",
          "type": "uint8"
        },
        {
          "internalType": "uint8",
          "name": "v",
          "type": "uint8"
        },
        {
          "internalType": "bytes32",
          "name": "r",
          "type": "bytes32"
        },
        {
          "internalType": "bytes32",
          "name": "s",
          "type": "bytes32"
        }
      ],
      "name": "castVoteBySig",
      "outputs": [
        {
          "internalType": "uint256",
          "name": "",
          "type": "uint256"
        }
      ],
      "stateMutability": "nonpayable",
      "type": "function"
    },
    {
      "inputs": [
        {
          "internalType": "uint256",
          "name": "proposalId",
          "type": "uint256"
        },
        {
          "internalType": "uint8",
          "name": "support",
          "type": "uint8"
        },
        {
          "internalType": "string",
          "name": "reason",
          "type": "string"
        }
      ],
      "name": "castVoteWithReason",
      "outputs": [
        {
          "internalType": "uint256",
          "name": "",
          "type": "uint256"
        }
      ],
      "stateMutability": "nonpayable",
      "type": "function"
    },
    {
      "inputs": [
        {
          "internalType": "uint256",
          "name": "proposalId",
          "type": "uint256"
        },
        {
          "internalType": "uint8",
          "name": "support",
          "type": "uint8"
        },
        {
          "internalType": "string",
          "name": "reason",
          "type": "string"
        },
        {
          "internalType": "bytes",
          "name": "params",
          "type": "bytes"
        }
      ],
      "name": "castVoteWithReasonAndParams",
      "outputs": [
        {
          "internalType": "uint256",
          "name": "",
          "type": "uint256"
        }
      ],
      "stateMutability": "nonpayable",
      "type": "function"
    },
    {
      "inputs": [
        {
          "internalType": "uint256",
          "name": "proposalId",
          "type": "uint256"
        },
        {
          "internalType": "uint8",
          "name": "support",
          "type": "uint8"
        },
        {
          "internalType": "string",
          "name": "reason",
          "type": "string"
        },
        {
          "internalType": "bytes",
          "name": "params",
          "type": "bytes"
        },
        {
          "internalType": "uint8",
          "name": "v",
          "type": "uint8"
        },
        {
          "internalType": "bytes32",
          "name": "r",
          "type": "bytes32"
        },
        {
          "internalType": "bytes32",
          "name": "s",
          "type": "bytes32"
        }
      ],
      "name": "castVoteWithReasonAndParamsBySig",
      "outputs": [
        {
          "internalType": "uint256",
          "name": "",
          "type": "uint256"
        }
      ],
      "stateMutability": "nonpayable",
      "type": "function"
    },
    {
      "inputs": [],
      "name": "durationInBlock",
      "outputs": [
        {
          "internalType": "uint256",
          "name": "",
          "type": "uint256"
        }
      ],
      "stateMutability": "view",
      "type": "function"
    },
    {
      "inputs": [
        {
          "internalType": "address[]",
          "name": "targets",
          "type": "address[]"
        },
        {
          "internalType": "uint256[]",
          "name": "values",
          "type": "uint256[]"
        },
        {
          "internalType": "bytes[]",
          "name": "calldatas",
          "type": "bytes[]"
        },
        {
          "internalType": "bytes32",
          "name": "descriptionHash",
          "type": "bytes32"
        }
      ],
      "name": "execute",
      "outputs": [
        {
          "internalType": "uint256",
          "name": "",
          "type": "uint256"
        }
      ],
      "stateMutability": "payable",
      "type": "function"
    },
    {
      "inputs": [
        {
          "internalType": "uint256",
          "name": "proposalId",
          "type": "uint256"
        },
        {
          "internalType": "uint8",
          "name": "support",
          "type": "uint8"
        }
      ],
      "name": "getProposalVote",
      "outputs": [
        {
          "internalType": "uint256",
          "name": "",
          "type": "uint256"
        }
      ],
      "stateMutability": "view",
      "type": "function"
    },
    {
      "inputs": [
        {
          "internalType": "address",
          "name": "account",
          "type": "address"
        },
        {
          "internalType": "uint256",
          "name": "blockNumber",
          "type": "uint256"
        }
      ],
      "name": "getVotes",
      "outputs": [
        {
          "internalType": "uint256",
          "name": "",
          "type": "uint256"
        }
      ],
      "stateMutability": "view",
      "type": "function"
    },
    {
      "inputs": [
        {
          "internalType": "address",
          "name": "account",
          "type": "address"
        },
        {
          "internalType": "uint256",
          "name": "blockNumber",
          "type": "uint256"
        },
        {
          "internalType": "bytes",
          "name": "params",
          "type": "bytes"
        }
      ],
      "name": "getVotesWithParams",
      "outputs": [
        {
          "internalType": "uint256",
          "name": "",
          "type": "uint256"
        }
      ],
      "stateMutability": "view",
      "type": "function"
    },
    {
      "inputs": [
        {
          "internalType": "uint256",
          "name": "proposalId",
          "type": "uint256"
        },
        {
          "internalType": "address",
          "name": "account",
          "type": "address"
        }
      ],
      "name": "hasVoted",
      "outputs": [
        {
          "internalType": "bool",
          "name": "",
          "type": "bool"
        }
      ],
      "stateMutability": "view",
      "type": "function"
    },
    {
      "inputs": [
        {
          "internalType": "address[]",
          "name": "targets",
          "type": "address[]"
        },
        {
          "internalType": "uint256[]",
          "name": "values",
          "type": "uint256[]"
        },
        {
          "internalType": "bytes[]",
          "name": "calldatas",
          "type": "bytes[]"
        },
        {
          "internalType": "bytes32",
          "name": "descriptionHash",
          "type": "bytes32"
        }
      ],
      "name": "hashProposal",
      "outputs": [
        {
          "internalType": "uint256",
          "name": "",
          "type": "uint256"
        }
      ],
      "stateMutability": "pure",
      "type": "function"
    },
    {
      "inputs": [
        {
          "internalType": "string",
          "name": "_name",
          "type": "string"
        },
        {
          "internalType": "uint256",
          "name": "_quorum",
          "type": "uint256"
        },
        {
          "internalType": "uint256",
          "name": "_passThreshold",
          "type": "uint256"
        },
        {
          "internalType": "address",
          "name": "_voteToken",
          "type": "address"
        },
        {
          "internalType": "uint256",
          "name": "_durationInBlock",
          "type": "uint256"
        }
      ],
      "name": "initialize",
      "outputs": [],
      "stateMutability": "nonpayable",
      "type": "function"
    },
    {
      "inputs": [],
      "name": "name",
      "outputs": [
        {
          "internalType": "string",
          "name": "",
          "type": "string"
        }
      ],
      "stateMutability": "view",
      "type": "function"
    },
    {
      "inputs": [
        {
          "internalType": "address",
          "name": "",
          "type": "address"
        },
        {
          "internalType": "address",
          "name": "",
          "type": "address"
        },
        {
          "internalType": "uint256[]",
          "name": "",
          "type": "uint256[]"
        },
        {
          "internalType": "uint256[]",
          "name": "",
          "type": "uint256[]"
        },
        {
          "internalType": "bytes",
          "name": "",
          "type": "bytes"
        }
      ],
      "name": "onERC1155BatchReceived",
      "outputs": [
        {
          "internalType": "bytes4",
          "name": "",
          "type": "bytes4"
        }
      ],
      "stateMutability": "nonpayable",
      "type": "function"
    },
    {
      "inputs": [
        {
          "internalType": "address",
          "name": "",
          "type": "address"
        },
        {
          "internalType": "address",
          "name": "",
          "type": "address"
        },
        {
          "internalType": "uint256",
          "name": "",
          "type": "uint256"
        },
        {
          "internalType": "uint256",
          "name": "",
          "type": "uint256"
        },
        {
          "internalType": "bytes",
          "name": "",
          "type": "bytes"
        }
      ],
      "name": "onERC1155Received",
      "outputs": [
        {
          "internalType": "bytes4",
          "name": "",
          "type": "bytes4"
        }
      ],
      "stateMutability": "nonpayable",
      "type": "function"
    },
    {
      "inputs": [
        {
          "internalType": "address",
          "name": "",
          "type": "address"
        },
        {
          "internalType": "address",
          "name": "",
          "type": "address"
        },
        {
          "internalType": "uint256",
          "name": "",
          "type": "uint256"
        },
        {
          "internalType": "bytes",
          "name": "",
          "type": "bytes"
        }
      ],
      "name": "onERC721Received",
      "outputs": [
        {
          "internalType": "bytes4",
          "name": "",
          "type": "bytes4"
        }
      ],
      "stateMutability": "nonpayable",
      "type": "function"
    },
    {
      "inputs": [],
      "name": "owner",
      "outputs": [
        {
          "internalType": "address",
          "name": "",
          "type": "address"
        }
      ],
      "stateMutability": "view",
      "type": "function"
    },
    {
      "inputs": [],
      "name": "passThreshold",
      "outputs": [
        {
          "internalType": "uint256",
          "name": "",
          "type": "uint256"
        }
      ],
      "stateMutability": "view",
      "type": "function"
    },
    {
      "inputs": [
        {
          "internalType": "uint256",
          "name": "proposalId",
          "type": "uint256"
        }
      ],
      "name": "proposalDeadline",
      "outputs": [
        {
          "internalType": "uint256",
          "name": "",
          "type": "uint256"
        }
      ],
      "stateMutability": "view",
      "type": "function"
    },
    {
      "inputs": [
        {
          "internalType": "uint256",
          "name": "proposalId",
          "type": "uint256"
        }
      ],
      "name": "proposalSnapshot",
      "outputs": [
        {
          "internalType": "uint256",
          "name": "",
          "type": "uint256"
        }
      ],
      "stateMutability": "view",
      "type": "function"
    },
    {
      "inputs": [],
      "name": "proposalThreshold",
      "outputs": [
        {
          "internalType": "uint256",
          "name": "",
          "type": "uint256"
        }
      ],
      "stateMutability": "pure",
      "type": "function"
    },
    {
      "inputs": [
        {
          "internalType": "address[]",
          "name": "targets",
          "type": "address[]"
        },
        {
          "internalType": "uint256[]",
          "name": "values",
          "type": "uint256[]"
        },
        {
          "internalType": "bytes[]",
          "name": "calldatas",
          "type": "bytes[]"
        },
        {
          "internalType": "string",
          "name": "description",
          "type": "string"
        }
      ],
      "name": "propose",
      "outputs": [
        {
          "internalType": "uint256",
          "name": "",
          "type": "uint256"
        }
      ],
      "stateMutability": "nonpayable",
      "type": "function"
    },
    {
      "inputs": [
        {
          "internalType": "uint256",
          "name": "blockNumber",
          "type": "uint256"
        }
      ],
      "name": "quorum",
      "outputs": [
        {
          "internalType": "uint256",
          "name": "",
          "type": "uint256"
        }
      ],
      "stateMutability": "view",
      "type": "function"
    },
    {
      "inputs": [
        {
          "internalType": "uint256",
          "name": "proposalId",
          "type": "uint256"
        }
      ],
      "name": "quorumReached",
      "outputs": [
        {
          "internalType": "bool",
          "name": "",
          "type": "bool"
        }
      ],
      "stateMutability": "view",
      "type": "function"
    },
    {
      "inputs": [],
      "name": "quorumThreshold",
      "outputs": [
        {
          "internalType": "uint256",
          "name": "",
          "type": "uint256"
        }
      ],
      "stateMutability": "view",
      "type": "function"
    },
    {
      "inputs": [
        {
          "internalType": "address",
          "name": "target",
          "type": "address"
        },
        {
          "internalType": "uint256",
          "name": "value",
          "type": "uint256"
        },
        {
          "internalType": "bytes",
          "name": "data",
          "type": "bytes"
        }
      ],
      "name": "relay",
      "outputs": [],
      "stateMutability": "nonpayable",
      "type": "function"
    },
    {
      "inputs": [],
      "name": "renounceOwnership",
      "outputs": [],
      "stateMutability": "nonpayable",
      "type": "function"
    },
    {
      "inputs": [
        {
          "internalType": "uint256",
          "name": "proposalId",
          "type": "uint256"
        }
      ],
      "name": "state",
      "outputs": [
        {
          "internalType": "enum IGovernorUpgradeable.ProposalState",
          "name": "",
          "type": "uint8"
        }
      ],
      "stateMutability": "view",
      "type": "function"
    },
    {
      "inputs": [
        {
          "internalType": "bytes4",
          "name": "interfaceId",
          "type": "bytes4"
        }
      ],
      "name": "supportsInterface",
      "outputs": [
        {
          "internalType": "bool",
          "name": "",
          "type": "bool"
        }
      ],
      "stateMutability": "view",
      "type": "function"
    },
    {
      "inputs": [
        {
          "internalType": "uint256",
          "name": "blockNumber",
          "type": "uint256"
        }
      ],
      "name": "totalPastSupply",
      "outputs": [
        {
          "internalType": "uint256",
          "name": "",
          "type": "uint256"
        }
      ],
      "stateMutability": "view",
      "type": "function"
    },
    {
      "inputs": [
        {
          "internalType": "address",
          "name": "newOwner",
          "type": "address"
        }
      ],
      "name": "transferOwnership",
      "outputs": [],
      "stateMutability": "nonpayable",
      "type": "function"
    },
    {
      "inputs": [],
      "name": "version",
      "outputs": [
        {
          "internalType": "string",
          "name": "",
          "type": "string"
        }
      ],
      "stateMutability": "view",
      "type": "function"
    },
    {
      "inputs": [
        {
          "internalType": "uint256",
          "name": "proposalId",
          "type": "uint256"
        }
      ],
      "name": "voteSucceeded",
      "outputs": [
        {
          "internalType": "bool",
          "name": "",
          "type": "bool"
        }
      ],
      "stateMutability": "view",
      "type": "function"
    },
    {
      "inputs": [],
      "name": "voteToken",
      "outputs": [
        {
          "internalType": "address",
          "name": "",
          "type": "address"
        }
      ],
      "stateMutability": "view",
      "type": "function"
    },
    {
      "inputs": [],
      "name": "votingDelay",
      "outputs": [
        {
          "internalType": "uint256",
          "name": "",
          "type": "uint256"
        }
      ],
      "stateMutability": "pure",
      "type": "function"
    },
    {
      "inputs": [],
      "name": "votingPeriod",
      "outputs": [
        {
          "internalType": "uint256",
          "name": "",
          "type": "uint256"
        }
      ],
      "stateMutability": "view",
      "type": "function"
    },
    {
      "stateMutability": "payable",
      "type": "receive"
    }
  ],
  "transactionHash": "0x0de3e571d7d0a3d0450c166ea34d1529a7fdb42a65e30ca4cfd41d06ee33f326",
  "args": [],
  "numDeployments": 5,
  "solcInputHash": "a04df2071e786f6b912c0a7e4f9756d2",
  "bytecode": "0x60806040523480156200001157600080fd5b506200001c62000022565b620000e4565b600054610100900460ff16156200008f5760405162461bcd60e51b815260206004820152602760248201527f496e697469616c697a61626c653a20636f6e747261637420697320696e697469604482015266616c697a696e6760c81b606482015260840160405180910390fd5b60005460ff9081161015620000e2576000805460ff191660ff9081179091556040519081527f7f26b83ff96e1f2b6a682f133852f6798a09c465da95921460cefb38474024989060200160405180910390a15b565b61326d80620000f46000396000f3fe60806040526004361061023f5760003560e01c80637b3c71d31161012e578063c28bc2fa116100ab578063deaaa7cc1161006f578063deaaa7cc14610728578063eb9019d41461075c578063f23a6e611461077c578063f2fde38b146107a8578063f8ce560a146107c857600080fd5b8063c28bc2fa14610662578063c59057e414610682578063d4a8dd98146106a2578063dc5dadc0146106c2578063dd4e2ba5146106e257600080fd5b80639a802a6d116100f25780639a802a6d146105d6578063ad429b19146105f6578063b58131b0146103df578063bc197c8114610616578063c01f9e371461064257600080fd5b80637b3c71d3146105415780637b7a91dd146105615780637d5e81e2146105785780638d73b031146105985780638da5cb5b146105b857600080fd5b80633932abb1116101bc5780634b3a9a2c116101805780634b3a9a2c146104ab57806354fd4d50146104c257806356781388146104ec5780635f398a141461050c578063715018a61461052c57600080fd5b80633932abb1146103df5780633bccf4fd146103f35780633e4f49e614610413578063438596321461044057806345f3c4d61461048b57600080fd5b8063160d66ae11610203578063160d66ae146103285780631fc93059146103615780632656227d146103785780632d63f6931461038b5780632fe3e261146103ab57600080fd5b806301ffc9a71461024d57806302a251a31461028257806303420181146102a257806306fdde03146102c2578063150b7a02146102e457600080fd5b3661024857005b005b600080fd5b34801561025957600080fd5b5061026d6102683660046129da565b6107e8565b60405190151581526020015b60405180910390f35b34801561028e57600080fd5b50610133545b604051908152602001610279565b3480156102ae57600080fd5b506102946102bd366004612b97565b610855565b3480156102ce57600080fd5b506102d761094d565b6040516102799190612e1f565b3480156102f057600080fd5b5061030f6102ff366004612707565b630a85bd0160e11b949350505050565b6040516001600160e01b03199091168152602001610279565b34801561033457600080fd5b5061013154610349906001600160a01b031681565b6040516001600160a01b039091168152602001610279565b34801561036d57600080fd5b506102946101335481565b6102946103863660046128ab565b6109df565b34801561039757600080fd5b506102946103a6366004612a6c565b610a43565b3480156103b757600080fd5b506102947fb3b3f3b703cd84ce352197dcff232b1b5d3cfb2025ce47cf04742d0651f1af8881565b3480156103eb57600080fd5b506000610294565b3480156103ff57600080fd5b5061029461040e366004612c3d565b610a7a565b34801561041f57600080fd5b5061043361042e366004612a6c565b610af0565b6040516102799190612df7565b34801561044c57600080fd5b5061026d61045b366004612a9e565b6000828152610132602090815260408083206001600160a01b038516845260030190915290205460ff1692915050565b34801561049757600080fd5b506102946104a6366004612aca565b610bf2565b3480156104b757600080fd5b506102946101305481565b3480156104ce57600080fd5b506040805180820190915260018152603160f81b60208201526102d7565b3480156104f857600080fd5b50610294610507366004612aca565b610c58565b34801561051857600080fd5b50610294610527366004612b2e565b610c81565b34801561053857600080fd5b50610246610ccb565b34801561054d57600080fd5b5061029461055c366004612aed565b610cdf565b34801561056d57600080fd5b5061029461012f5481565b34801561058457600080fd5b5061029461059336600461293a565b610d31565b3480156105a457600080fd5b5061026d6105b3366004612a6c565b610fed565b3480156105c457600080fd5b5060fd546001600160a01b0316610349565b3480156105e257600080fd5b506102946105f1366004612855565b610ff8565b34801561060257600080fd5b50610246610611366004612a04565b61100f565b34801561062257600080fd5b5061030f61063136600461265e565b63bc197c8160e01b95945050505050565b34801561064e57600080fd5b5061029461065d366004612a6c565b61118d565b34801561066e57600080fd5b5061024661067d3660046127fc565b6111bc565b34801561068e57600080fd5b5061029461069d3660046128ab565b611270565b3480156106ae57600080fd5b5061026d6106bd366004612a6c565b6112aa565b3480156106ce57600080fd5b506102946106dd366004612a6c565b6112b5565b3480156106ee57600080fd5b506040805180820190915260208082527f737570706f72743d627261766f2671756f72756d3d666f722c616761696e7374908201526102d7565b34801561073457600080fd5b506102947f150214d74d59b7d1e90c73fc22ef3d991dd0a76b046543d4d80ab92d2a50328f81565b34801561076857600080fd5b506102946107773660046127d2565b611333565b34801561078857600080fd5b5061030f61079736600461276e565b63f23a6e6160e01b95945050505050565b3480156107b457600080fd5b506102466107c3366004612643565b611354565b3480156107d457600080fd5b506102946107e3366004612a6c565b6113cd565b60006001600160e01b0319821663bf26d89760e01b148061081957506001600160e01b031982166379dd796f60e01b145b8061083457506001600160e01b03198216630271189760e51b145b8061084f57506301ffc9a760e01b6001600160e01b03198316145b92915050565b6000806108f96108f17fb3b3f3b703cd84ce352197dcff232b1b5d3cfb2025ce47cf04742d0651f1af888c8c8c8c604051610891929190612d80565b60405180910390208b805190602001206040516020016108d6959493929190948552602085019390935260ff9190911660408401526060830152608082015260a00190565b604051602081830303815290604052805190602001206113f3565b868686611441565b905061093f8a828b8b8b8080601f0160208091040260200160405190810160405280939291908181526020018383808284376000920191909152508d9250611469915050565b9a9950505050505050505050565b606060cb805461095c90613139565b80601f016020809104026020016040519081016040528092919081815260200182805461098890613139565b80156109d55780601f106109aa576101008083540402835291602001916109d5565b820191906000526020600020905b8154815290600101906020018083116109b857829003601f168201915b5050505050905090565b6000806001600160a01b0316856000815181106109fe576109fe6131bb565b60200260200101516001600160a01b03161415610a2e576040516393a0236d60e01b815260040160405180910390fd5b610a3a858585856115ca565b95945050505050565b600081815260cc602090815260408083208151928301909152546001600160401b0316908190525b6001600160401b031692915050565b604080517f150214d74d59b7d1e90c73fc22ef3d991dd0a76b046543d4d80ab92d2a50328f602082015290810186905260ff851660608201526000908190610ac8906108f1906080016108d6565b9050610ae5878288604051806020016040528060008152506116ec565b979650505050505050565b600081815260cc60205260408120600281015460ff1615610b145750600792915050565b6002810154610100900460ff1615610b2f5750600292915050565b6000610b3a84610a43565b905080610b8e5760405162461bcd60e51b815260206004820152601d60248201527f476f7665726e6f723a20756e6b6e6f776e2070726f706f73616c20696400000060448201526064015b60405180910390fd5b438110610b9f575060009392505050565b6000610baa8561118d565b9050438110610bbe57506001949350505050565b610bc78561170f565b8015610bd75750610bd785611749565b15610be757506004949350505050565b506003949350505050565b60008281526101326020526040812060ff8316610c115754905061084f565b60ff831660011415610c285760010154905061084f565b60ff831660021415610c3f5760020154905061084f565b604051638eed55d160e01b815260040160405180910390fd5b600080339050610c79848285604051806020016040528060008152506116ec565b949350505050565b600080339050610ae587828888888080601f0160208091040260200160405190810160405280939291908181526020018383808284376000920191909152508a9250611469915050565b610cd36117a9565b610cdd6000611803565b565b600080339050610d2786828787878080601f0160208091040260200160405190810160405280939291908181526020018383808284376000920191909152506116ec92505050565b9695505050505050565b600080610d43336107776001436130f2565b1015610dab5760405162461bcd60e51b815260206004820152603160248201527f476f7665726e6f723a2070726f706f73657220766f7465732062656c6f7720706044820152701c9bdc1bdcd85b081d1a1c995cda1bdb19607a1b6064820152608401610b85565b6000610dc08686868680519060200120611270565b90508451865114610de35760405162461bcd60e51b8152600401610b8590612e32565b8351865114610e045760405162461bcd60e51b8152600401610b8590612e32565b6000865111610e555760405162461bcd60e51b815260206004820152601860248201527f476f7665726e6f723a20656d7074792070726f706f73616c00000000000000006044820152606401610b85565b600081815260cc6020908152604091829020825191820190925281546001600160401b03169081905215610ed55760405162461bcd60e51b815260206004820152602160248201527f476f7665726e6f723a2070726f706f73616c20616c72656164792065786973746044820152607360f81b6064820152608401610b85565b6000610ee581611855565b611855565b610eee43611855565b610ef89190613086565b90506000610f09610ee06101335490565b610f139083613086565b835467ffffffffffffffff19166001600160401b038416178455905060018301805467ffffffffffffffff19166001600160401b0383161790557f7d84a6263ae0d98d3329bd7b46bb4e8d6f98cd35a7adb45c274c8b7fd5ebd5e084338b8b8d516001600160401b03811115610f8b57610f8b6131d1565b604051908082528060200260200182016040528015610fbe57816020015b6060815260200190600190039081610fa95790505b508c88888e604051610fd899989796959493929190612ebe565b60405180910390a15091979650505050505050565b600061084f82611749565b60006110058484846118c1565b90505b9392505050565b600054610100900460ff161580801561102f5750600054600160ff909116105b806110495750303b158015611049575060005460ff166001145b6110ac5760405162461bcd60e51b815260206004820152602e60248201527f496e697469616c697a61626c653a20636f6e747261637420697320616c72656160448201526d191e481a5b9a5d1a585b1a5e995960921b6064820152608401610b85565b6000805460ff1916600117905580156110cf576000805461ff0019166101001790555b6110d883611947565b61110057604051633a4a5c6d60e21b81526001600160a01b0384166004820152602401610b85565b611108611a57565b61111186611a86565b61012f85905561013084905561013180546001600160a01b0319166001600160a01b0385161790556101338290558015611185576000805461ff0019169055604051600181527f7f26b83ff96e1f2b6a682f133852f6798a09c465da95921460cefb38474024989060200160405180910390a15b505050505050565b600081815260cc602090815260408083208151928301909152600101546001600160401b031690819052610a6b565b33301461120b5760405162461bcd60e51b815260206004820152601860248201527f476f7665726e6f723a206f6e6c79476f7665726e616e636500000000000000006044820152606401610b85565b611227565b8061121b60cd611add565b1461122557611210565b505b6112698483838080601f016020809104026020016040519081016040528093929190818152602001838380828437600092019190915250889250611b69915050565b5050505050565b6000848484846040516020016112899493929190612dac565b60408051601f19818403018152919052805160209091012095945050505050565b600061084f8261170f565b61013154604051632394e7a360e21b8152600481018390526000916001600160a01b031690638e539e8c9060240160206040518083038186803b1580156112fb57600080fd5b505afa15801561130f573d6000803e3d6000fd5b505050506040513d601f19601f8201168201806040525081019061084f9190612a85565b6000611008838361134f60408051602081019091526000815290565b6118c1565b61135c6117a9565b6001600160a01b0381166113c15760405162461bcd60e51b815260206004820152602660248201527f4f776e61626c653a206e6577206f776e657220697320746865207a65726f206160448201526564647265737360d01b6064820152608401610b85565b6113ca81611803565b50565b600061271061012f546113e091906130b1565b6113e9836112b5565b61084f91906130d3565b600061084f611400611b8f565b8360405161190160f01b6020820152602281018390526042810182905260009060620160405160208183030381529060405280519060200120905092915050565b600080600061145287878787611c0f565b9150915061145f81611cfc565b5095945050505050565b600085815260cc60205260408120600161148288610af0565b6007811115611493576114936131a5565b146114ec5760405162461bcd60e51b815260206004820152602360248201527f476f7665726e6f723a20766f7465206e6f742063757272656e746c792061637460448201526269766560e81b6064820152608401610b85565b604080516020810190915281546001600160401b031690819052600090611515908890866118c1565b90506115248888888488611eb7565b835161157657866001600160a01b03167fb8e138887d0aa13bab447e82de9d5c1777041ecd21ca36ba824ff1e6c07ddda4898884896040516115699493929190612fad565b60405180910390a2610ae5565b866001600160a01b03167fe2babfbac5889a709b63bb7f598b324e08bc5a4fb9ec647fb3cbc9ec07eb871289888489896040516115b7959493929190612fd5565b60405180910390a2979650505050505050565b6000806115d986868686611270565b905060006115e682610af0565b905060048160078111156115fc576115fc6131a5565b148061161957506005816007811115611617576116176131a5565b145b61166f5760405162461bcd60e51b815260206004820152602160248201527f476f7665726e6f723a2070726f706f73616c206e6f74207375636365737366756044820152601b60fa1b6064820152608401610b85565b600082815260cc602052604090819020600201805460ff19166001179055517f712ae1383f79ac853f8d882153778e0260ef8f03b504e2866e0593e04d2b291f906116bd9084815260200190565b60405180910390a16116d28288888888611f92565b6116df8288888888612017565b61145f8288888888611f92565b6000610a3a8585858561170a60408051602081019091526000815290565b611469565b6000818152610132602052604081208054600182015483916117309161306e565b90508061173f6107e386610a43565b1115949350505050565b60008181526101326020526040812060018101548154839061176b908361306e565b9050801561179e576101305461178190826130d3565b61178c8360646130d3565b6117979060646130d3565b1015610a3a565b600095945050505050565b60fd546001600160a01b03163314610cdd5760405162461bcd60e51b815260206004820181905260248201527f4f776e61626c653a2063616c6c6572206973206e6f7420746865206f776e65726044820152606401610b85565b60fd80546001600160a01b038381166001600160a01b0319831681179093556040519116919082907f8be0079c531659141344cd1fd0a4f28419497f9722a3daafe3b4186f6b6457e090600090a35050565b60006001600160401b038211156118bd5760405162461bcd60e51b815260206004820152602660248201527f53616665436173743a2076616c756520646f65736e27742066697420696e203660448201526534206269747360d01b6064820152608401610b85565b5090565b61013154604051630748d63560e31b81526001600160a01b038581166004830152602482018590526000921690633a46b1a89060440160206040518083038186803b15801561190f57600080fd5b505afa158015611923573d6000803e3d6000fd5b505050506040513d601f19601f820116820180604052508101906110059190612a85565b604051632394e7a360e21b8152600060048201819052906001600160a01b03831690638e539e8c9060240160206040518083038186803b15801561198a57600080fd5b505afa9250505080156119ba575060408051601f3d908101601f191682019092526119b791810190612a85565b60015b6119c657506000919050565b50604051630748d63560e31b8152306004820152600060248201526001600160a01b03831690633a46b1a89060440160206040518083038186803b158015611a0d57600080fd5b505afa925050508015611a3d575060408051601f3d908101601f19168201909252611a3a91810190612a85565b60015b611a4957506000919050565b50600192915050565b919050565b600054610100900460ff16611a7e5760405162461bcd60e51b8152600401610b8590612e73565b610cdd612116565b600054610100900460ff16611aad5760405162461bcd60e51b8152600401610b8590612e73565b611ad481611acf6040805180820190915260018152603160f81b602082015290565b612146565b6113ca81612187565b6000611afc8254600f81810b810b600160801b909204810b900b131590565b15611b1a57604051631ed9509560e11b815260040160405180910390fd5b508054600f90810b80820b820b600090815260018085016020526040822080549290558454920190920b6001600160801b03166fffffffffffffffffffffffffffffffff199091161790915590565b606061100584848460405180606001604052806029815260200161320f602991396121c5565b6000611c0a7f8b73c3c69bb8fe3d512ecc4cf759cc79239f7b179b0ffacaa9a75d522b39400f611bbe60655490565b6066546040805160208101859052908101839052606081018290524660808201523060a082015260009060c0016040516020818303038152906040528051906020012090509392505050565b905090565b6000807f7fffffffffffffffffffffffffffffff5d576e7357a4501ddfe92f46681b20a0831115611c465750600090506003611cf3565b8460ff16601b14158015611c5e57508460ff16601c14155b15611c6f5750600090506004611cf3565b6040805160008082526020820180845289905260ff881692820192909252606081018690526080810185905260019060a0016020604051602081039080840390855afa158015611cc3573d6000803e3d6000fd5b5050604051601f1901519150506001600160a01b038116611cec57600060019250925050611cf3565b9150600090505b94509492505050565b6000816004811115611d1057611d106131a5565b1415611d195750565b6001816004811115611d2d57611d2d6131a5565b1415611d7b5760405162461bcd60e51b815260206004820152601860248201527f45434453413a20696e76616c6964207369676e617475726500000000000000006044820152606401610b85565b6002816004811115611d8f57611d8f6131a5565b1415611ddd5760405162461bcd60e51b815260206004820152601f60248201527f45434453413a20696e76616c6964207369676e6174757265206c656e677468006044820152606401610b85565b6003816004811115611df157611df16131a5565b1415611e4a5760405162461bcd60e51b815260206004820152602260248201527f45434453413a20696e76616c6964207369676e6174757265202773272076616c604482015261756560f01b6064820152608401610b85565b6004816004811115611e5e57611e5e6131a5565b14156113ca5760405162461bcd60e51b815260206004820152602260248201527f45434453413a20696e76616c6964207369676e6174757265202776272076616c604482015261756560f01b6064820152608401610b85565b6000858152610132602090815260408083206001600160a01b0388168452600381019092529091205460ff1615611f015760405163b3808bab60e01b815260040160405180910390fd5b6001600160a01b03851660009081526003820160205260408120805460ff1916600117905560ff168460ff161415611f525782816000016000828254611f47919061306e565b909155506111859050565b60ff841660011415611f725782816001016000828254611f47919061306e565b60ff841660021415610c3f5782816002016000828254611f47919061306e565b611269565b845181101561118557306001600160a01b0316858281518110611fbc57611fbc6131bb565b60200260200101516001600160a01b0316141561200757612007838281518110611fe857611fe86131bb565b60200260200101518051906020012060cd6122eb90919063ffffffff16565b61201081613174565b9050611f97565b60006040518060600160405280602781526020016131e860279139905060005b855181101561210d57600080878381518110612055576120556131bb565b60200260200101516001600160a01b0316878481518110612078576120786131bb565b6020026020010151878581518110612092576120926131bb565b60200260200101516040516120a79190612d90565b60006040518083038185875af1925050503d80600081146120e4576040519150601f19603f3d011682016040523d82523d6000602084013e6120e9565b606091505b50915091506120f9828286612331565b5050508061210690613174565b9050612037565b50505050505050565b600054610100900460ff1661213d5760405162461bcd60e51b8152600401610b8590612e73565b610cdd33611803565b600054610100900460ff1661216d5760405162461bcd60e51b8152600401610b8590612e73565b815160209283012081519190920120606591909155606655565b600054610100900460ff166121ae5760405162461bcd60e51b8152600401610b8590612e73565b80516121c19060cb90602084019061236a565b5050565b6060824710156122265760405162461bcd60e51b815260206004820152602660248201527f416464726573733a20696e73756666696369656e742062616c616e636520666f6044820152651c8818d85b1b60d21b6064820152608401610b85565b6001600160a01b0385163b61227d5760405162461bcd60e51b815260206004820152601d60248201527f416464726573733a2063616c6c20746f206e6f6e2d636f6e74726163740000006044820152606401610b85565b600080866001600160a01b031685876040516122999190612d90565b60006040518083038185875af1925050503d80600081146122d6576040519150601f19603f3d011682016040523d82523d6000602084013e6122db565b606091505b5091509150610ae5828286612331565b8154600160801b90819004600f90810b80820b820b6000908152600180870160205260409091209490945584549301900b6001600160801b039081169091029116179055565b60608315612340575081611008565b8251156123505782518084602001fd5b8160405162461bcd60e51b8152600401610b859190612e1f565b82805461237690613139565b90600052602060002090601f01602090048101928261239857600085556123de565b82601f106123b157805160ff19168380011785556123de565b828001600101855582156123de579182015b828111156123de5782518255916020019190600101906123c3565b506118bd9291505b808211156118bd57600081556001016123e6565b80356001600160a01b0381168114611a5257600080fd5b600082601f83011261242257600080fd5b813560206124376124328361304b565b61301b565b80838252828201915082860187848660051b890101111561245757600080fd5b60005b8581101561247d5761246b826123fa565b8452928401929084019060010161245a565b5090979650505050505050565b600082601f83011261249b57600080fd5b813560206124ab6124328361304b565b80838252828201915082860187848660051b89010111156124cb57600080fd5b6000805b8681101561250d5782356001600160401b038111156124ec578283fd5b6124fa8b88838d01016125c3565b86525093850193918501916001016124cf565b509198975050505050505050565b600082601f83011261252c57600080fd5b8135602061253c6124328361304b565b80838252828201915082860187848660051b890101111561255c57600080fd5b60005b8581101561247d5781358452928401929084019060010161255f565b60008083601f84011261258d57600080fd5b5081356001600160401b038111156125a457600080fd5b6020830191508360208285010111156125bc57600080fd5b9250929050565b600082601f8301126125d457600080fd5b81356001600160401b038111156125ed576125ed6131d1565b612600601f8201601f191660200161301b565b81815284602083860101111561261557600080fd5b816020850160208301376000918101602001919091529392505050565b803560ff81168114611a5257600080fd5b60006020828403121561265557600080fd5b611008826123fa565b600080600080600060a0868803121561267657600080fd5b61267f866123fa565b945061268d602087016123fa565b935060408601356001600160401b03808211156126a957600080fd5b6126b589838a0161251b565b945060608801359150808211156126cb57600080fd5b6126d789838a0161251b565b935060808801359150808211156126ed57600080fd5b506126fa888289016125c3565b9150509295509295909350565b6000806000806080858703121561271d57600080fd5b612726856123fa565b9350612734602086016123fa565b92506040850135915060608501356001600160401b0381111561275657600080fd5b612762878288016125c3565b91505092959194509250565b600080600080600060a0868803121561278657600080fd5b61278f866123fa565b945061279d602087016123fa565b9350604086013592506060860135915060808601356001600160401b038111156127c657600080fd5b6126fa888289016125c3565b600080604083850312156127e557600080fd5b6127ee836123fa565b946020939093013593505050565b6000806000806060858703121561281257600080fd5b61281b856123fa565b93506020850135925060408501356001600160401b0381111561283d57600080fd5b6128498782880161257b565b95989497509550505050565b60008060006060848603121561286a57600080fd5b612873846123fa565b92506020840135915060408401356001600160401b0381111561289557600080fd5b6128a1868287016125c3565b9150509250925092565b600080600080608085870312156128c157600080fd5b84356001600160401b03808211156128d857600080fd5b6128e488838901612411565b955060208701359150808211156128fa57600080fd5b6129068883890161251b565b9450604087013591508082111561291c57600080fd5b506129298782880161248a565b949793965093946060013593505050565b6000806000806080858703121561295057600080fd5b84356001600160401b038082111561296757600080fd5b61297388838901612411565b9550602087013591508082111561298957600080fd5b6129958883890161251b565b945060408701359150808211156129ab57600080fd5b6129b78883890161248a565b935060608701359150808211156129cd57600080fd5b50612762878288016125c3565b6000602082840312156129ec57600080fd5b81356001600160e01b03198116811461100857600080fd5b600080600080600060a08688031215612a1c57600080fd5b85356001600160401b03811115612a3257600080fd5b612a3e888289016125c3565b9550506020860135935060408601359250612a5b606087016123fa565b949793965091946080013592915050565b600060208284031215612a7e57600080fd5b5035919050565b600060208284031215612a9757600080fd5b5051919050565b60008060408385031215612ab157600080fd5b82359150612ac1602084016123fa565b90509250929050565b60008060408385031215612add57600080fd5b82359150612ac160208401612632565b60008060008060608587031215612b0357600080fd5b84359350612b1360208601612632565b925060408501356001600160401b0381111561283d57600080fd5b600080600080600060808688031215612b4657600080fd5b85359450612b5660208701612632565b935060408601356001600160401b0380821115612b7257600080fd5b612b7e89838a0161257b565b909550935060608801359150808211156126ed57600080fd5b60008060008060008060008060e0898b031215612bb357600080fd5b88359750612bc360208a01612632565b965060408901356001600160401b0380821115612bdf57600080fd5b612beb8c838d0161257b565b909850965060608b0135915080821115612c0457600080fd5b50612c118b828c016125c3565b945050612c2060808a01612632565b925060a0890135915060c089013590509295985092959890939650565b600080600080600060a08688031215612c5557600080fd5b85359450612c6560208701612632565b9350612c7360408701612632565b94979396509394606081013594506080013592915050565b600081518084526020808501945080840160005b83811015612cc45781516001600160a01b031687529582019590820190600101612c9f565b509495945050505050565b600081518084526020808501808196508360051b8101915082860160005b85811015612d17578284038952612d05848351612d54565b98850198935090840190600101612ced565b5091979650505050505050565b600081518084526020808501945080840160005b83811015612cc457815187529582019590820190600101612d38565b60008151808452612d6c816020860160208601613109565b601f01601f19169290920160200192915050565b8183823760009101908152919050565b60008251612da2818460208701613109565b9190910192915050565b608081526000612dbf6080830187612c8b565b8281036020840152612dd18187612d24565b90508281036040840152612de58186612ccf565b91505082606083015295945050505050565b6020810160088310612e1957634e487b7160e01b600052602160045260246000fd5b91905290565b6020815260006110086020830184612d54565b60208082526021908201527f476f7665726e6f723a20696e76616c69642070726f706f73616c206c656e67746040820152600d60fb1b606082015260800190565b6020808252602b908201527f496e697469616c697a61626c653a20636f6e7472616374206973206e6f74206960408201526a6e697469616c697a696e6760a81b606082015260800190565b60006101208b8352602060018060a01b038c1681850152816040850152612ee78285018c612c8b565b91508382036060850152612efb828b612d24565b915083820360808501528189518084528284019150828160051b850101838c0160005b83811015612f4c57601f19878403018552612f3a838351612d54565b94860194925090850190600101612f1e565b505086810360a0880152612f60818c612ccf565b945050505050612f7b60c08401876001600160401b03169052565b6001600160401b03851660e0840152828103610100840152612f9d8185612d54565b9c9b505050505050505050505050565b84815260ff84166020820152826040820152608060608201526000610d276080830184612d54565b85815260ff8516602082015283604082015260a060608201526000612ffd60a0830185612d54565b828103608084015261300f8185612d54565b98975050505050505050565b604051601f8201601f191681016001600160401b0381118282101715613043576130436131d1565b604052919050565b60006001600160401b03821115613064576130646131d1565b5060051b60200190565b600082198211156130815761308161318f565b500190565b60006001600160401b038083168185168083038211156130a8576130a861318f565b01949350505050565b6000826130ce57634e487b7160e01b600052601260045260246000fd5b500490565b60008160001904831182151516156130ed576130ed61318f565b500290565b6000828210156131045761310461318f565b500390565b60005b8381101561312457818101518382015260200161310c565b83811115613133576000848401525b50505050565b600181811c9082168061314d57607f821691505b6020821081141561316e57634e487b7160e01b600052602260045260246000fd5b50919050565b60006000198214156131885761318861318f565b5060010190565b634e487b7160e01b600052601160045260246000fd5b634e487b7160e01b600052602160045260246000fd5b634e487b7160e01b600052603260045260246000fd5b634e487b7160e01b600052604160045260246000fdfe476f7665726e6f723a2063616c6c20726576657274656420776974686f7574206d657373616765416464726573733a206c6f772d6c6576656c2063616c6c20776974682076616c7565206661696c6564a2646970667358221220ce7d07dca22a65aef51564b7346c2680e29396db0b3fb620eb735c2a5f8fb95964736f6c63430008070033",
  "devdoc": {
    "errors": {
      "Empty()": [
        {
          "details": "An operation (e.g. {front}) couldn't be completed due to the queue being empty."
        }
      ]
    },
    "kind": "dev",
    "methods": {
      "COUNTING_MODE()": {
        "details": "A description of the possible `support` values for {castVote} and the way these votes are counted, meant to be consumed by UIs to show correct vote options and interpret the results. The string is a URL-encoded sequence of key-value pairs that each describe one aspect, for example `support=bravo&quorum=for,abstain`. There are 2 standard keys: `support` and `quorum`. - `support=bravo` refers to the vote options 0 = Against, 1 = For, 2 = Abstain, as in `GovernorBravo`. - `quorum=bravo` means that only For votes are counted towards quorum. - `quorum=for,abstain` means that both For and Abstain votes are counted towards quorum. If a counting module makes use of encoded `params`, it should  include this under a `params` key with a unique name that describes the behavior. For example: - `params=fractional` might refer to a scheme where votes are divided fractionally between for/against/abstain. - `params=erc721` might refer to a scheme where specific NFTs are delegated to vote. NOTE: The string can be decoded by the standard https://developer.mozilla.org/en-US/docs/Web/API/URLSearchParams[`URLSearchParams`] JavaScript class."
      },
      "castVote(uint256,uint8)": {
        "details": "See {IGovernor-castVote}."
      },
      "castVoteBySig(uint256,uint8,uint8,bytes32,bytes32)": {
        "details": "See {IGovernor-castVoteBySig}."
      },
      "castVoteWithReason(uint256,uint8,string)": {
        "details": "See {IGovernor-castVoteWithReason}."
      },
      "castVoteWithReasonAndParams(uint256,uint8,string,bytes)": {
        "details": "See {IGovernor-castVoteWithReasonAndParams}."
      },
      "castVoteWithReasonAndParamsBySig(uint256,uint8,string,bytes,uint8,bytes32,bytes32)": {
        "details": "See {IGovernor-castVoteWithReasonAndParamsBySig}."
      },
      "constructor": {
        "custom:oz-upgrades-unsafe-allow": "constructor"
      },
      "execute(address[],uint256[],bytes[],bytes32)": {
        "details": "See {IGovernor-execute}."
      },
      "getVotes(address,uint256)": {
        "details": "See {IGovernor-getVotes}."
      },
      "getVotesWithParams(address,uint256,bytes)": {
        "details": "See {IGovernor-getVotesWithParams}."
      },
      "hasVoted(uint256,address)": {
        "details": "Returns weither `account` has cast a vote on `proposalId`."
      },
      "hashProposal(address[],uint256[],bytes[],bytes32)": {
        "details": "See {IGovernor-hashProposal}. The proposal id is produced by hashing the ABI encoded `targets` array, the `values` array, the `calldatas` array and the descriptionHash (bytes32 which itself is the keccak256 hash of the description string). This proposal id can be produced from the proposal data which is part of the {ProposalCreated} event. It can even be computed in advance, before the proposal is submitted. Note that the chainId and the governor address are not part of the proposal id computation. Consequently, the same proposal (with same operation and same description) will have the same id if submitted on multiple governors across multiple networks. This also means that in order to execute the same operation twice (on the same governor) the proposer will have to change the description in order to avoid proposal id conflicts."
      },
      "name()": {
        "details": "See {IGovernor-name}."
      },
      "onERC1155BatchReceived(address,address,uint256[],uint256[],bytes)": {
        "details": "See {IERC1155Receiver-onERC1155BatchReceived}."
      },
      "onERC1155Received(address,address,uint256,uint256,bytes)": {
        "details": "See {IERC1155Receiver-onERC1155Received}."
      },
      "onERC721Received(address,address,uint256,bytes)": {
        "details": "See {IERC721Receiver-onERC721Received}."
      },
      "owner()": {
        "details": "Returns the address of the current owner."
      },
      "proposalDeadline(uint256)": {
        "details": "See {IGovernor-proposalDeadline}."
      },
      "proposalSnapshot(uint256)": {
        "details": "See {IGovernor-proposalSnapshot}."
      },
      "proposalThreshold()": {
        "details": "Part of the Governor Bravo's interface: _\"The number of votes required in order for a voter to become a proposer\"_."
      },
      "propose(address[],uint256[],bytes[],string)": {
        "details": "See {IGovernor-propose}."
      },
      "quorum(uint256)": {
        "details": "Minimum number of cast voted required for a proposal to be successful. Note: The `blockNumber` parameter corresponds to the snapshot used for counting vote. This allows to scale the quorum depending on values such as the totalSupply of a token at this block (see {ERC20Votes})."
      },
      "relay(address,uint256,bytes)": {
        "details": "Relays a transaction or function call to an arbitrary target. In cases where the governance executor is some contract other than the governor itself, like when using a timelock, this function can be invoked in a governance proposal to recover tokens or Ether that was sent to the governor contract by mistake. Note that if the executor is simply the governor itself, use of `relay` is redundant."
      },
      "renounceOwnership()": {
        "details": "Leaves the contract without owner. It will not be possible to call `onlyOwner` functions anymore. Can only be called by the current owner. NOTE: Renouncing ownership will leave the contract without an owner, thereby removing any functionality that is only available to the owner."
      },
      "state(uint256)": {
        "details": "See {IGovernor-state}."
      },
      "supportsInterface(bytes4)": {
        "details": "See {IERC165-supportsInterface}."
      },
      "transferOwnership(address)": {
        "details": "Transfers ownership of the contract to a new account (`newOwner`). Can only be called by the current owner."
      },
      "version()": {
        "details": "See {IGovernor-version}."
      },
      "votingDelay()": {
        "details": "Delay, in number of block, between the proposal is created and the vote starts. This can be increassed to leave time for users to buy voting power, or delegate it, before the voting of a proposal starts."
      },
      "votingPeriod()": {
        "details": "Delay, in number of blocks, between the vote start and vote ends. NOTE: The {votingDelay} can delay the start of the vote. This must be considered when setting the voting duration compared to the voting delay."
      }
    },
    "version": 1
  },
  "userdoc": {
    "kind": "user",
    "methods": {
      "COUNTING_MODE()": {
        "notice": "module:voting"
      },
      "hasVoted(uint256,address)": {
        "notice": "module:voting"
      },
      "quorum(uint256)": {
        "notice": "module:user-config"
      },
      "votingDelay()": {
        "notice": "module:user-config"
      },
      "votingPeriod()": {
        "notice": "module:user-config"
      }
    },
    "version": 1
  },
  "storageLayout": {
    "storage": [
      {
        "astId": 3247,
        "contract": "contracts/Govern.sol:Govern",
        "label": "_initialized",
        "offset": 0,
        "slot": "0",
        "type": "t_uint8"
      },
      {
        "astId": 3250,
        "contract": "contracts/Govern.sol:Govern",
        "label": "_initializing",
        "offset": 1,
        "slot": "0",
        "type": "t_bool"
      },
      {
        "astId": 5307,
        "contract": "contracts/Govern.sol:Govern",
        "label": "__gap",
        "offset": 0,
        "slot": "1",
        "type": "t_array(t_uint256)50_storage"
      },
      {
        "astId": 6463,
        "contract": "contracts/Govern.sol:Govern",
        "label": "__gap",
        "offset": 0,
        "slot": "51",
        "type": "t_array(t_uint256)50_storage"
      },
      {
        "astId": 6279,
        "contract": "contracts/Govern.sol:Govern",
        "label": "_HASHED_NAME",
        "offset": 0,
        "slot": "101",
        "type": "t_bytes32"
      },
      {
        "astId": 6281,
        "contract": "contracts/Govern.sol:Govern",
        "label": "_HASHED_VERSION",
        "offset": 0,
        "slot": "102",
        "type": "t_bytes32"
      },
      {
        "astId": 6419,
        "contract": "contracts/Govern.sol:Govern",
        "label": "__gap",
        "offset": 0,
        "slot": "103",
        "type": "t_array(t_uint256)50_storage"
      },
      {
        "astId": 2298,
        "contract": "contracts/Govern.sol:Govern",
        "label": "__gap",
        "offset": 0,
        "slot": "153",
        "type": "t_array(t_uint256)50_storage"
      },
      {
        "astId": 725,
        "contract": "contracts/Govern.sol:Govern",
        "label": "_name",
        "offset": 0,
        "slot": "203",
        "type": "t_string_storage"
      },
      {
        "astId": 730,
        "contract": "contracts/Govern.sol:Govern",
        "label": "_proposals",
        "offset": 0,
        "slot": "204",
        "type": "t_mapping(t_uint256,t_struct(ProposalCore)723_storage)"
      },
      {
        "astId": 733,
        "contract": "contracts/Govern.sol:Govern",
        "label": "_governanceCall",
        "offset": 0,
        "slot": "205",
        "type": "t_struct(Bytes32Deque)8850_storage"
      },
      {
        "astId": 1981,
        "contract": "contracts/Govern.sol:Govern",
        "label": "__gap",
        "offset": 0,
        "slot": "207",
        "type": "t_array(t_uint256)46_storage"
      },
      {
        "astId": 541,
        "contract": "contracts/Govern.sol:Govern",
        "label": "_owner",
        "offset": 0,
        "slot": "253",
        "type": "t_address"
      },
      {
        "astId": 661,
        "contract": "contracts/Govern.sol:Govern",
        "label": "__gap",
        "offset": 0,
        "slot": "254",
        "type": "t_array(t_uint256)49_storage"
      },
      {
        "astId": 14739,
        "contract": "contracts/Govern.sol:Govern",
        "label": "quorumThreshold",
        "offset": 0,
        "slot": "303",
        "type": "t_uint256"
      },
      {
        "astId": 14741,
        "contract": "contracts/Govern.sol:Govern",
        "label": "passThreshold",
        "offset": 0,
        "slot": "304",
        "type": "t_uint256"
      },
      {
        "astId": 14743,
        "contract": "contracts/Govern.sol:Govern",
        "label": "voteToken",
        "offset": 0,
        "slot": "305",
        "type": "t_address"
      },
      {
        "astId": 14748,
        "contract": "contracts/Govern.sol:Govern",
        "label": "_proposalVotes",
        "offset": 0,
        "slot": "306",
        "type": "t_mapping(t_uint256,t_struct(ProposalVote)14737_storage)"
      },
      {
        "astId": 14750,
        "contract": "contracts/Govern.sol:Govern",
        "label": "durationInBlock",
        "offset": 0,
        "slot": "307",
        "type": "t_uint256"
      },
      {
        "astId": 15253,
        "contract": "contracts/Govern.sol:Govern",
        "label": "__gap",
        "offset": 0,
        "slot": "308",
        "type": "t_array(t_uint256)49_storage"
      }
    ],
    "types": {
      "t_address": {
        "encoding": "inplace",
        "label": "address",
        "numberOfBytes": "20"
      },
      "t_array(t_uint256)46_storage": {
        "base": "t_uint256",
        "encoding": "inplace",
        "label": "uint256[46]",
        "numberOfBytes": "1472"
      },
      "t_array(t_uint256)49_storage": {
        "base": "t_uint256",
        "encoding": "inplace",
        "label": "uint256[49]",
        "numberOfBytes": "1568"
      },
      "t_array(t_uint256)50_storage": {
        "base": "t_uint256",
        "encoding": "inplace",
        "label": "uint256[50]",
        "numberOfBytes": "1600"
      },
      "t_bool": {
        "encoding": "inplace",
        "label": "bool",
        "numberOfBytes": "1"
      },
      "t_bytes32": {
        "encoding": "inplace",
        "label": "bytes32",
        "numberOfBytes": "32"
      },
      "t_int128": {
        "encoding": "inplace",
        "label": "int128",
        "numberOfBytes": "16"
      },
      "t_mapping(t_address,t_bool)": {
        "encoding": "mapping",
        "key": "t_address",
        "label": "mapping(address => bool)",
        "numberOfBytes": "32",
        "value": "t_bool"
      },
      "t_mapping(t_int128,t_bytes32)": {
        "encoding": "mapping",
        "key": "t_int128",
        "label": "mapping(int128 => bytes32)",
        "numberOfBytes": "32",
        "value": "t_bytes32"
      },
      "t_mapping(t_uint256,t_struct(ProposalCore)723_storage)": {
        "encoding": "mapping",
        "key": "t_uint256",
        "label": "mapping(uint256 => struct GovernorUpgradeable.ProposalCore)",
        "numberOfBytes": "32",
        "value": "t_struct(ProposalCore)723_storage"
      },
      "t_mapping(t_uint256,t_struct(ProposalVote)14737_storage)": {
        "encoding": "mapping",
        "key": "t_uint256",
        "label": "mapping(uint256 => struct Govern.ProposalVote)",
        "numberOfBytes": "32",
        "value": "t_struct(ProposalVote)14737_storage"
      },
      "t_string_storage": {
        "encoding": "bytes",
        "label": "string",
        "numberOfBytes": "32"
      },
      "t_struct(BlockNumber)5779_storage": {
        "encoding": "inplace",
        "label": "struct TimersUpgradeable.BlockNumber",
        "members": [
          {
            "astId": 5778,
            "contract": "contracts/Govern.sol:Govern",
            "label": "_deadline",
            "offset": 0,
            "slot": "0",
            "type": "t_uint64"
          }
        ],
        "numberOfBytes": "32"
      },
      "t_struct(Bytes32Deque)8850_storage": {
        "encoding": "inplace",
        "label": "struct DoubleEndedQueueUpgradeable.Bytes32Deque",
        "members": [
          {
            "astId": 8843,
            "contract": "contracts/Govern.sol:Govern",
            "label": "_begin",
            "offset": 0,
            "slot": "0",
            "type": "t_int128"
          },
          {
            "astId": 8845,
            "contract": "contracts/Govern.sol:Govern",
            "label": "_end",
            "offset": 16,
            "slot": "0",
            "type": "t_int128"
          },
          {
            "astId": 8849,
            "contract": "contracts/Govern.sol:Govern",
            "label": "_data",
            "offset": 0,
            "slot": "1",
            "type": "t_mapping(t_int128,t_bytes32)"
          }
        ],
        "numberOfBytes": "64"
      },
      "t_struct(ProposalCore)723_storage": {
        "encoding": "inplace",
        "label": "struct GovernorUpgradeable.ProposalCore",
        "members": [
          {
            "astId": 715,
            "contract": "contracts/Govern.sol:Govern",
            "label": "voteStart",
            "offset": 0,
            "slot": "0",
            "type": "t_struct(BlockNumber)5779_storage"
          },
          {
            "astId": 718,
            "contract": "contracts/Govern.sol:Govern",
            "label": "voteEnd",
            "offset": 0,
            "slot": "1",
            "type": "t_struct(BlockNumber)5779_storage"
          },
          {
            "astId": 720,
            "contract": "contracts/Govern.sol:Govern",
            "label": "executed",
            "offset": 0,
            "slot": "2",
            "type": "t_bool"
          },
          {
            "astId": 722,
            "contract": "contracts/Govern.sol:Govern",
            "label": "canceled",
            "offset": 1,
            "slot": "2",
            "type": "t_bool"
          }
        ],
        "numberOfBytes": "96"
      },
      "t_struct(ProposalVote)14737_storage": {
        "encoding": "inplace",
        "label": "struct Govern.ProposalVote",
        "members": [
          {
            "astId": 14728,
            "contract": "contracts/Govern.sol:Govern",
            "label": "againstVotes",
            "offset": 0,
            "slot": "0",
            "type": "t_uint256"
          },
          {
            "astId": 14730,
            "contract": "contracts/Govern.sol:Govern",
            "label": "forVotes",
            "offset": 0,
            "slot": "1",
            "type": "t_uint256"
          },
          {
            "astId": 14732,
            "contract": "contracts/Govern.sol:Govern",
            "label": "abstainVotes",
            "offset": 0,
            "slot": "2",
            "type": "t_uint256"
          },
          {
            "astId": 14736,
            "contract": "contracts/Govern.sol:Govern",
            "label": "hasVoted",
            "offset": 0,
            "slot": "3",
            "type": "t_mapping(t_address,t_bool)"
          }
        ],
        "numberOfBytes": "128"
      },
      "t_uint256": {
        "encoding": "inplace",
        "label": "uint256",
        "numberOfBytes": "32"
      },
      "t_uint64": {
        "encoding": "inplace",
        "label": "uint64",
        "numberOfBytes": "8"
      },
      "t_uint8": {
        "encoding": "inplace",
        "label": "uint8",
        "numberOfBytes": "1"
      }
    }
  }
}