{
  "address": "0xbf1f70b7Ce0c9A39181D209016e88d1028085532",
  "abi": [
    {
      "inputs": [],
      "stateMutability": "nonpayable",
      "type": "constructor"
    },
    {
      "inputs": [],
      "name": "AccountingSystemRequired",
      "type": "error"
    },
    {
      "inputs": [
        {
          "internalType": "address",
          "name": "token",
          "type": "address"
        }
      ],
      "name": "AssetAlreadyAdded",
      "type": "error"
    },
    {
      "inputs": [
        {
          "internalType": "address",
          "name": "token",
          "type": "address"
        }
      ],
      "name": "AssetNotFound",
      "type": "error"
    },
    {
      "inputs": [],
      "name": "BlockedByLocktime",
      "type": "error"
    },
    {
      "inputs": [
        {
          "internalType": "address",
          "name": "budgetApproval",
          "type": "address"
        }
      ],
      "name": "BudgetApprovalNotExists",
      "type": "error"
    },
    {
      "inputs": [
        {
          "internalType": "uint256",
          "name": "count1",
          "type": "uint256"
        },
        {
          "internalType": "uint256",
          "name": "count2",
          "type": "uint256"
        }
      ],
      "name": "InputLengthNotMatch",
      "type": "error"
    },
    {
      "inputs": [],
      "name": "InvalidAmount",
      "type": "error"
    },
    {
      "inputs": [],
      "name": "OnlyBudgetApproval",
      "type": "error"
    },
    {
      "inputs": [
        {
          "internalType": "address",
          "name": "asset",
          "type": "address"
        },
        {
          "internalType": "address",
          "name": "base",
          "type": "address"
        }
      ],
      "name": "PairNotSupport",
      "type": "error"
    },
    {
      "inputs": [
        {
          "internalType": "address",
          "name": "template",
          "type": "address"
        }
      ],
      "name": "TemplateNotWhitelisted",
      "type": "error"
    },
    {
      "inputs": [
        {
          "internalType": "bytes",
          "name": "result",
          "type": "bytes"
        }
      ],
      "name": "TransferFailed",
      "type": "error"
    },
    {
      "inputs": [
        {
          "internalType": "address",
          "name": "token",
          "type": "address"
        }
      ],
      "name": "UnsupportedAsset",
      "type": "error"
    },
    {
      "anonymous": false,
      "inputs": [
        {
          "indexed": false,
          "internalType": "address",
          "name": "token",
          "type": "address"
        }
      ],
      "name": "AllowDepositToken",
      "type": "event"
    },
    {
      "anonymous": false,
      "inputs": [
        {
          "indexed": true,
          "internalType": "address",
          "name": "owner",
          "type": "address"
        },
        {
          "indexed": true,
          "internalType": "address",
          "name": "spender",
          "type": "address"
        },
        {
          "indexed": false,
          "internalType": "uint256",
          "name": "value",
          "type": "uint256"
        }
      ],
      "name": "Approval",
      "type": "event"
    },
    {
      "anonymous": false,
      "inputs": [
        {
          "indexed": false,
          "internalType": "address",
          "name": "budgetApproval",
          "type": "address"
        },
        {
          "indexed": false,
          "internalType": "bytes",
          "name": "data",
          "type": "bytes"
        }
      ],
      "name": "CreateBudgetApproval",
      "type": "event"
    },
    {
      "anonymous": false,
      "inputs": [
        {
          "indexed": false,
          "internalType": "address",
          "name": "account",
          "type": "address"
        },
        {
          "indexed": false,
          "internalType": "address",
          "name": "token",
          "type": "address"
        },
        {
          "indexed": false,
          "internalType": "uint256",
          "name": "depositAmount",
          "type": "uint256"
        }
      ],
      "name": "Deposit",
      "type": "event"
    },
    {
      "anonymous": false,
      "inputs": [
        {
          "indexed": false,
          "internalType": "address",
          "name": "token",
          "type": "address"
        }
      ],
      "name": "DisallowDepositToken",
      "type": "event"
    },
    {
      "anonymous": false,
      "inputs": [
        {
          "indexed": false,
          "internalType": "address",
          "name": "budgetApproval",
          "type": "address"
        },
        {
          "indexed": false,
          "internalType": "bytes",
          "name": "data",
          "type": "bytes"
        }
      ],
      "name": "ExecuteByBudgetApproval",
      "type": "event"
    },
    {
      "anonymous": false,
      "inputs": [
        {
          "indexed": false,
          "internalType": "uint8",
          "name": "version",
          "type": "uint8"
        }
      ],
      "name": "Initialized",
      "type": "event"
    },
    {
      "anonymous": false,
      "inputs": [
        {
          "indexed": true,
          "internalType": "address",
          "name": "previousOwner",
          "type": "address"
        },
        {
          "indexed": true,
          "internalType": "address",
          "name": "newOwner",
          "type": "address"
        }
      ],
      "name": "OwnershipTransferred",
      "type": "event"
    },
    {
      "anonymous": false,
      "inputs": [
        {
          "indexed": false,
          "internalType": "address",
          "name": "budgetApproval",
          "type": "address"
        }
      ],
      "name": "RevokeBudgetApproval",
      "type": "event"
    },
    {
      "anonymous": false,
      "inputs": [
        {
          "indexed": true,
          "internalType": "address",
          "name": "from",
          "type": "address"
        },
        {
          "indexed": true,
          "internalType": "address",
          "name": "to",
          "type": "address"
        },
        {
          "indexed": false,
          "internalType": "uint256",
          "name": "value",
          "type": "uint256"
        }
      ],
      "name": "Transfer",
      "type": "event"
    },
    {
      "inputs": [],
      "name": "accountingSystem",
      "outputs": [
        {
          "internalType": "address",
          "name": "",
          "type": "address"
        }
      ],
      "stateMutability": "view",
      "type": "function"
    },
    {
      "inputs": [
        {
          "internalType": "address[]",
          "name": "erc20s",
          "type": "address[]"
        }
      ],
      "name": "addAssets",
      "outputs": [],
      "stateMutability": "nonpayable",
      "type": "function"
    },
    {
      "inputs": [
        {
          "internalType": "address",
          "name": "owner",
          "type": "address"
        },
        {
          "internalType": "address",
          "name": "spender",
          "type": "address"
        }
      ],
      "name": "allowance",
      "outputs": [
        {
          "internalType": "uint256",
          "name": "",
          "type": "uint256"
        }
      ],
      "stateMutability": "view",
      "type": "function"
    },
    {
      "inputs": [
        {
          "internalType": "address",
          "name": "spender",
          "type": "address"
        },
        {
          "internalType": "uint256",
          "name": "amount",
          "type": "uint256"
        }
      ],
      "name": "approve",
      "outputs": [
        {
          "internalType": "bool",
          "name": "",
          "type": "bool"
        }
      ],
      "stateMutability": "nonpayable",
      "type": "function"
    },
    {
      "inputs": [
        {
          "internalType": "address",
          "name": "asset",
          "type": "address"
        },
        {
          "internalType": "uint256",
          "name": "amount",
          "type": "uint256"
        }
      ],
      "name": "assetBaseCurrencyPrice",
      "outputs": [
        {
          "internalType": "uint256",
          "name": "",
          "type": "uint256"
        }
      ],
      "stateMutability": "view",
      "type": "function"
    },
    {
      "inputs": [
        {
          "internalType": "address",
          "name": "asset",
          "type": "address"
        },
        {
          "internalType": "address",
          "name": "base",
          "type": "address"
        },
        {
          "internalType": "uint256",
          "name": "amount",
          "type": "uint256"
        }
      ],
      "name": "assetPrice",
      "outputs": [
        {
          "internalType": "uint256",
          "name": "",
          "type": "uint256"
        }
      ],
      "stateMutability": "view",
      "type": "function"
    },
    {
      "inputs": [
        {
          "internalType": "uint256",
          "name": "",
          "type": "uint256"
        }
      ],
      "name": "assets",
      "outputs": [
        {
          "internalType": "address",
          "name": "",
          "type": "address"
        }
      ],
      "stateMutability": "view",
      "type": "function"
    },
    {
      "inputs": [],
      "name": "assetsLength",
      "outputs": [
        {
          "internalType": "uint256",
          "name": "",
          "type": "uint256"
        }
      ],
      "stateMutability": "view",
      "type": "function"
    },
    {
      "inputs": [
        {
          "internalType": "address",
          "name": "asset",
          "type": "address"
        },
        {
          "internalType": "uint256",
          "name": "amount",
          "type": "uint256"
        }
      ],
      "name": "assetsShares",
      "outputs": [
        {
          "internalType": "uint256",
          "name": "",
          "type": "uint256"
        }
      ],
      "stateMutability": "view",
      "type": "function"
    },
    {
      "inputs": [
        {
          "internalType": "address",
          "name": "account",
          "type": "address"
        }
      ],
      "name": "balanceOf",
      "outputs": [
        {
          "internalType": "uint256",
          "name": "",
          "type": "uint256"
        }
      ],
      "stateMutability": "view",
      "type": "function"
    },
    {
      "inputs": [],
      "name": "baseCurrency",
      "outputs": [
        {
          "internalType": "address",
          "name": "",
          "type": "address"
        }
      ],
      "stateMutability": "view",
      "type": "function"
    },
    {
      "inputs": [],
      "name": "baseCurrencyDecimals",
      "outputs": [
        {
          "internalType": "uint8",
          "name": "",
          "type": "uint8"
        }
      ],
      "stateMutability": "view",
      "type": "function"
    },
    {
      "inputs": [
        {
          "internalType": "address",
          "name": "template",
          "type": "address"
        }
      ],
      "name": "budgetApprovals",
      "outputs": [
        {
          "internalType": "bool",
          "name": "",
          "type": "bool"
        }
      ],
      "stateMutability": "view",
      "type": "function"
    },
    {
      "inputs": [
        {
          "internalType": "address",
          "name": "asset",
          "type": "address"
        }
      ],
      "name": "canAddAsset",
      "outputs": [
        {
          "internalType": "bool",
          "name": "",
          "type": "bool"
        }
      ],
      "stateMutability": "view",
      "type": "function"
    },
    {
      "inputs": [
        {
          "internalType": "address",
          "name": "asset",
          "type": "address"
        }
      ],
      "name": "canResolvePrice",
      "outputs": [
        {
          "internalType": "bool",
          "name": "",
          "type": "bool"
        }
      ],
      "stateMutability": "view",
      "type": "function"
    },
    {
      "inputs": [
        {
          "internalType": "address[]",
          "name": "__budgetApprovals",
          "type": "address[]"
        },
        {
          "internalType": "bytes[]",
          "name": "data",
          "type": "bytes[]"
        }
      ],
      "name": "createBudgetApprovals",
      "outputs": [],
      "stateMutability": "nonpayable",
      "type": "function"
    },
    {
      "inputs": [],
      "name": "decimals",
      "outputs": [
        {
          "internalType": "uint8",
          "name": "",
          "type": "uint8"
        }
      ],
      "stateMutability": "view",
      "type": "function"
    },
    {
      "inputs": [
        {
          "internalType": "address",
          "name": "spender",
          "type": "address"
        },
        {
          "internalType": "uint256",
          "name": "subtractedValue",
          "type": "uint256"
        }
      ],
      "name": "decreaseAllowance",
      "outputs": [
        {
          "internalType": "bool",
          "name": "",
          "type": "bool"
        }
      ],
      "stateMutability": "nonpayable",
      "type": "function"
    },
    {
      "inputs": [
        {
          "internalType": "address",
          "name": "receiver",
          "type": "address"
        }
      ],
      "name": "deposit",
      "outputs": [],
      "stateMutability": "payable",
      "type": "function"
    },
    {
      "inputs": [
        {
          "internalType": "address",
          "name": "receiver",
          "type": "address"
        },
        {
          "internalType": "address",
          "name": "asset",
          "type": "address"
        },
        {
          "internalType": "uint256",
          "name": "amount",
          "type": "uint256"
        }
      ],
      "name": "depositToken",
      "outputs": [],
      "stateMutability": "nonpayable",
      "type": "function"
    },
    {
      "inputs": [
        {
          "internalType": "address",
          "name": "_to",
          "type": "address"
        },
        {
          "internalType": "bytes",
          "name": "_data",
          "type": "bytes"
        },
        {
          "internalType": "uint256",
          "name": "_value",
          "type": "uint256"
        }
      ],
      "name": "executeByBudgetApproval",
      "outputs": [
        {
          "internalType": "bytes",
          "name": "",
          "type": "bytes"
        }
      ],
      "stateMutability": "nonpayable",
      "type": "function"
    },
    {
      "inputs": [
        {
          "internalType": "address",
          "name": "spender",
          "type": "address"
        },
        {
          "internalType": "uint256",
          "name": "addedValue",
          "type": "uint256"
        }
      ],
      "name": "increaseAllowance",
      "outputs": [
        {
          "internalType": "bool",
          "name": "",
          "type": "bool"
        }
      ],
      "stateMutability": "nonpayable",
      "type": "function"
    },
    {
      "inputs": [
        {
          "internalType": "address[]",
          "name": "depositTokens",
          "type": "address[]"
        },
        {
          "internalType": "address",
          "name": "__baseCurrency",
          "type": "address"
        }
      ],
      "name": "initialize",
      "outputs": [],
      "stateMutability": "nonpayable",
      "type": "function"
    },
    {
      "inputs": [
        {
          "internalType": "address",
          "name": "asset",
          "type": "address"
        }
      ],
      "name": "isAssetSupported",
      "outputs": [
        {
          "internalType": "bool",
          "name": "",
          "type": "bool"
        }
      ],
      "stateMutability": "view",
      "type": "function"
    },
    {
      "inputs": [],
      "name": "name",
      "outputs": [
        {
          "internalType": "string",
          "name": "",
          "type": "string"
        }
      ],
      "stateMutability": "view",
      "type": "function"
    },
    {
      "inputs": [],
      "name": "owner",
      "outputs": [
        {
          "internalType": "address",
          "name": "",
          "type": "address"
        }
      ],
      "stateMutability": "view",
      "type": "function"
    },
    {
      "inputs": [
        {
          "internalType": "uint256",
          "name": "amount",
          "type": "uint256"
        }
      ],
      "name": "quote",
      "outputs": [
        {
          "internalType": "uint256",
          "name": "",
          "type": "uint256"
        }
      ],
      "stateMutability": "view",
      "type": "function"
    },
    {
      "inputs": [
        {
          "internalType": "uint256",
          "name": "amount",
          "type": "uint256"
        }
      ],
      "name": "redeem",
      "outputs": [],
      "stateMutability": "nonpayable",
      "type": "function"
    },
    {
      "inputs": [
        {
          "internalType": "address[]",
          "name": "erc20s",
          "type": "address[]"
        }
      ],
      "name": "removeAssets",
      "outputs": [],
      "stateMutability": "nonpayable",
      "type": "function"
    },
    {
      "inputs": [],
      "name": "renounceOwnership",
      "outputs": [],
      "stateMutability": "nonpayable",
      "type": "function"
    },
    {
      "inputs": [
        {
          "internalType": "address[]",
          "name": "__budgetApprovals",
          "type": "address[]"
        }
      ],
      "name": "revokeBudgetApprovals",
      "outputs": [],
      "stateMutability": "nonpayable",
      "type": "function"
    },
    {
      "inputs": [],
      "name": "symbol",
      "outputs": [
        {
          "internalType": "string",
          "name": "",
          "type": "string"
        }
      ],
      "stateMutability": "view",
      "type": "function"
    },
    {
      "inputs": [],
      "name": "team",
      "outputs": [
        {
          "internalType": "address",
          "name": "",
          "type": "address"
        }
      ],
      "stateMutability": "view",
      "type": "function"
    },
    {
      "inputs": [],
      "name": "totalPrice",
      "outputs": [
        {
          "internalType": "uint256",
          "name": "",
          "type": "uint256"
        }
      ],
      "stateMutability": "view",
      "type": "function"
    },
    {
      "inputs": [],
      "name": "totalPriceInNativeToken",
      "outputs": [
        {
          "internalType": "uint256",
          "name": "",
          "type": "uint256"
        }
      ],
      "stateMutability": "view",
      "type": "function"
    },
    {
      "inputs": [],
      "name": "totalSupply",
      "outputs": [
        {
          "internalType": "uint256",
          "name": "",
          "type": "uint256"
        }
      ],
      "stateMutability": "view",
      "type": "function"
    },
    {
      "inputs": [
        {
          "internalType": "address",
          "name": "to",
          "type": "address"
        },
        {
          "internalType": "uint256",
          "name": "amount",
          "type": "uint256"
        }
      ],
      "name": "transfer",
      "outputs": [
        {
          "internalType": "bool",
          "name": "",
          "type": "bool"
        }
      ],
      "stateMutability": "nonpayable",
      "type": "function"
    },
    {
      "inputs": [
        {
          "internalType": "address",
          "name": "from",
          "type": "address"
        },
        {
          "internalType": "address",
          "name": "to",
          "type": "address"
        },
        {
          "internalType": "uint256",
          "name": "amount",
          "type": "uint256"
        }
      ],
      "name": "transferFrom",
      "outputs": [
        {
          "internalType": "bool",
          "name": "",
          "type": "bool"
        }
      ],
      "stateMutability": "nonpayable",
      "type": "function"
    },
    {
      "inputs": [
        {
          "internalType": "address",
          "name": "newOwner",
          "type": "address"
        }
      ],
      "name": "transferOwnership",
      "outputs": [],
      "stateMutability": "nonpayable",
      "type": "function"
    },
    {
      "stateMutability": "payable",
      "type": "receive"
    }
  ],
  "transactionHash": "0x9a1138670daa58228499a3075737aa9e2052fbe2959abef7323f0d32d947b024",
  "args": [],
  "numDeployments": 3,
  "solcInputHash": "e97f886f30443c3289ff077b740c5238",
  "bytecode": "0x60806040523480156200001157600080fd5b506200001c62000022565b620000e4565b600054610100900460ff16156200008f5760405162461bcd60e51b815260206004820152602760248201527f496e697469616c697a61626c653a20636f6e747261637420697320696e697469604482015266616c697a696e6760c81b606482015260840160405180910390fd5b60005460ff9081161015620000e2576000805460ff191660ff9081179091556040519081527f7f26b83ff96e1f2b6a682f133852f6798a09c465da95921460cefb38474024989060200160405180910390a15b565b613bb280620000f46000396000f3fe608060405260043610620002635760003560e01c8063a240663e1162000147578063db006a7511620000b9578063ed1bd76c1162000078578063ed1bd76c1462000754578063f2fde38b1462000779578063f340fa01146200079e578063f50477a214620007b5578063fb0f97a814620007cc57600080fd5b8063db006a75146200069b578063dd62ed3e14620006c0578063df30e97c14620006e5578063df79812e146200070a578063e019c23c146200072f57600080fd5b8063bc9c5e901162000106578063bc9c5e9014620005ef578063c6a0a68a1462000614578063cf35bdd0146200062c578063d00e8ed01462000651578063d3abc28b146200067657600080fd5b8063a240663e146200052b578063a457c2d71462000568578063a9059cbb146200058d578063ab0d92dd14620005b2578063aea321c614620005ca57600080fd5b8063608e091211620001e1578063715018a611620001a0578063715018a614620004a357806385f2aef214620004bb5780638da5cb5b14620004d357806392a85fde14620004f357806395d89b41146200051357600080fd5b8063608e091214620003d657806360d8bb22146200040757806363d727dc146200042c5780636f7a4b23146200044457806370a08231146200046957600080fd5b806330c88fd7116200022e57806330c88fd7146200031c578063313ce5671462000341578063395093511462000365578063462d0b2e146200038a578063464b415814620003b157600080fd5b806306fdde031462000270578063095ea7b314620002a057806318160ddd14620002d657806323b872dd14620002f757600080fd5b366200026b57005b600080fd5b3480156200027d57600080fd5b5062000288620007f1565b60405162000297919062003203565b60405180910390f35b348015620002ad57600080fd5b50620002c5620002bf36600462002e2d565b6200088b565b604051901515815260200162000297565b348015620002e357600080fd5b506035545b60405190815260200162000297565b3480156200030457600080fd5b50620002c56200031636600462002d88565b620008a7565b3480156200032957600080fd5b50620002e86200033b36600462002e2d565b620008d1565b3480156200034e57600080fd5b5060125b60405160ff909116815260200162000297565b3480156200037257600080fd5b50620002c56200038436600462002e2d565b62000979565b3480156200039757600080fd5b50620003af620003a936600462002f0f565b620009a1565b005b348015620003be57600080fd5b50620002c5620003d036600462002d0a565b62000b67565b348015620003e357600080fd5b50620003ee62000b84565b6040516001600160a01b03909116815260200162000297565b3480156200041457600080fd5b50620002e86200042636600462002e2d565b62000c09565b3480156200043957600080fd5b506200035262000db2565b3480156200045157600080fd5b50620002c56200046336600462002d0a565b62000e64565b3480156200047657600080fd5b50620002e86200048836600462002d0a565b6001600160a01b031660009081526033602052604090205490565b348015620004b057600080fd5b50620003af62000e71565b348015620004c857600080fd5b50620003ee62000e89565b348015620004e057600080fd5b506098546001600160a01b0316620003ee565b3480156200050057600080fd5b5060ca546001600160a01b0316620003ee565b3480156200052057600080fd5b506200028862000ece565b3480156200053857600080fd5b50620002c56200054a36600462002d0a565b6001600160a01b031660009081526065602052604090205460ff1690565b3480156200057557600080fd5b50620002c56200058736600462002e2d565b62000edf565b3480156200059a57600080fd5b50620002c5620005ac36600462002e2d565b62000f6b565b348015620005bf57600080fd5b50620002e862000f7b565b348015620005d757600080fd5b50620003af620005e936600462002e5c565b62000ffa565b348015620005fc57600080fd5b50620002c56200060e36600462002d0a565b62001046565b3480156200062157600080fd5b50620002e8620010f6565b3480156200063957600080fd5b50620003ee6200064b366004620030e1565b62001170565b3480156200065e57600080fd5b50620003af6200067036600462002ed6565b6200119b565b3480156200068357600080fd5b50620002886200069536600462002dce565b6200128a565b348015620006a857600080fd5b50620003af620006ba366004620030e1565b620013d4565b348015620006cd57600080fd5b50620002e8620006df36600462002d4a565b620015aa565b348015620006f257600080fd5b50620003af6200070436600462002e5c565b620015d5565b3480156200071757600080fd5b50620003af6200072936600462002f5c565b6200161d565b3480156200073c57600080fd5b50620002e86200074e36600462002d88565b620017e4565b3480156200076157600080fd5b50620002e862000773366004620030e1565b620018e8565b3480156200078657600080fd5b50620003af6200079836600462002d0a565b62001926565b620003af620007af36600462002d0a565b620019a5565b348015620007c257600080fd5b5060cb54620002e8565b348015620007d957600080fd5b50620003af620007eb36600462002d88565b62001ada565b606060368054620008029062003392565b80601f0160208091040260200160405190810160405280929190818152602001828054620008309062003392565b8015620008815780601f10620008555761010080835404028352916020019162000881565b820191906000526020600020905b8154815290600101906020018083116200086357829003601f168201915b5050505050905090565b6000336200089b81858562001b87565b60019150505b92915050565b600033620008b785828562001caf565b620008c485858562001d30565b60019150505b9392505050565b600080620008de60355490565b905080831115620009025760405163162908e360e11b815260040160405180910390fd5b6200090d8462000b67565b6200093b5760405163ee84f40b60e01b81526001600160a01b03851660048201526024015b60405180910390fd5b806200094c576000915050620008a1565b8083620009598662001f08565b62000965919062003327565b62000971919062003304565b949350505050565b6000336200089b8185856200098f8383620015aa565b6200099b9190620032e9565b62001b87565b600054610100900460ff1615808015620009c25750600054600160ff909116105b80620009de5750303b158015620009de575060005460ff166001145b62000a435760405162461bcd60e51b815260206004820152602e60248201527f496e697469616c697a61626c653a20636f6e747261637420697320616c72656160448201526d191e481a5b9a5d1a585b1a5e995960921b606482015260840162000932565b6000805460ff19166001179055801562000a67576000805461ff0019166101001790555b62000a7162001fa0565b62000a8e62000a7f62000b84565b6001600160a01b03163b151590565b62000aac5760405163da11b66d60e01b815260040160405180910390fd5b62000af46040518060400160405280600a815260200169131a5c5d5a59141bdbdb60b21b8152506040518060400160405280600281526020016104c560f41b81525062001fd4565b60ca80546001600160a01b0319166001600160a01b03841617905562000b1a836200200a565b801562000b62576000805461ff0019169055604051600181527f7f26b83ff96e1f2b6a682f133852f6798a09c465da95921460cefb3847402498906020015b60405180910390a15b505050565b6001600160a01b0316600090815260cc6020526040902054151590565b600062000b9062002053565b6001600160a01b031663608e09126040518163ffffffff1660e01b815260040160206040518083038186803b15801562000bc957600080fd5b505afa15801562000bde573d6000803e3d6000fd5b505050506040513d601f19601f8201168201806040525081019062000c04919062002d2a565b905090565b60008062000c1f60ca546001600160a01b031690565b9050600062000c2d62000b84565b905062000c3962000b84565b6001600160a01b031663ce58da338662000c5b60ca546001600160a01b031690565b6040516001600160e01b031960e085901b1681526001600160a01b0392831660048201529116602482015260440160206040518083038186803b15801562000ca257600080fd5b505afa15801562000cb7573d6000803e3d6000fd5b505050506040513d601f19601f8201168201806040525081019062000cdd919062003046565b62000d23578462000cf660ca546001600160a01b031690565b604051633d487fe560e11b81526001600160a01b0392831660048201529116602482015260440162000932565b604051633806708f60e21b81526001600160a01b0382169063e019c23c9062000d5590889086908990600401620031b9565b60206040518083038186803b15801562000d6e57600080fd5b505afa15801562000d83573d6000803e3d6000fd5b505050506040513d601f19601f8201168201806040525081019062000da99190620030fb565b95945050505050565b60008062000dc860ca546001600160a01b031690565b90506001600160a01b038116611010141562000de657601291505090565b806001600160a01b031663313ce5676040518163ffffffff1660e01b815260040160206040518083038186803b15801562000e2057600080fd5b505afa92505050801562000e53575060408051601f3d908101601f1916820190925262000e509181019062003115565b60015b620008a157600091505090565b5090565b6000620008a18262001046565b62000e7b62002068565b62000e876000620020c4565b565b600062000e9562002053565b6001600160a01b03166385f2aef26040518163ffffffff1660e01b815260040160206040518083038186803b15801562000bc957600080fd5b606060378054620008029062003392565b6000338162000eef8286620015aa565b90508381101562000f515760405162461bcd60e51b815260206004820152602560248201527f45524332303a2064656372656173656420616c6c6f77616e63652062656c6f77604482015264207a65726f60d81b606482015260840162000932565b62000f60828686840362001b87565b506001949350505050565b6000336200089b81858562001d30565b60cb546000908190815b8181101562000ff257600060cb828154811062000fa65762000fa662003419565b6000918252602090912001546001600160a01b0316905062000fcd81620004268162001f08565b62000fd99085620032e9565b935050808062000fe990620033cf565b91505062000f85565b509092915050565b6200100462002068565b620010428282808060200260200160405190810160405280939291908181526020018383602002808284376000920191909152506200200a92505050565b5050565b60006200105262000b84565b6001600160a01b031663ce58da33836200107460ca546001600160a01b031690565b6040516001600160e01b031960e085901b1681526001600160a01b0392831660048201529116602482015260440160206040518083038186803b158015620010bb57600080fd5b505afa158015620010d0573d6000803e3d6000fd5b505050506040513d601f19601f82011682018060405250810190620008a1919062003046565b60cb546000908190815b8181101562000ff257600060cb828154811062001121576200112162003419565b6000918252602090912001546001600160a01b031690506200114b816110106200074e8262001f08565b620011579085620032e9565b93505080806200116790620033cf565b91505062001100565b60cb81815481106200118157600080fd5b6000918252602090912001546001600160a01b0316905081565b60005b815181101562001042576000828281518110620011bf57620011bf62003419565b6020908102919091018101516001600160a01b0381166000908152606590925260409091205490915060ff16620012155760405163122ab6a960e21b81526001600160a01b038216600482015260240162000932565b620012208162002116565b6001600160a01b038116600081815260656020908152604091829020805460ff1916905590519182527f3562b8c49e34d53119756b2b8b55a910ed22c2cda0d3b07398510d804c2dc621910160405180910390a150806200128181620033cf565b9150506200119e565b3360009081526065602052604090205460609060ff16620012be57604051639d5b229960e01b815260040160405180910390fd5b600080856001600160a01b03168486604051620012dc919062003168565b60006040518083038185875af1925050503d80600081146200131b576040519150601f19603f3d011682016040523d82523d6000602084013e62001320565b606091505b5091509150816200139057620013756200133a8262002120565b6040805180820190915260208082527f52657665727465642062792065787465726e616c20636f6e7472616374202d2090820152906200215d565b60405162461bcd60e51b815260040162000932919062003203565b7fcf452d48646654954090c61dd69f99a99bea4e2264594078fc81bfd43d6f6a9e3386604051620013c3929190620031dd565b60405180910390a195945050505050565b6000620013e062002053565b33600090815260336020526040902054909150821115620014145760405163162908e360e11b815260040160405180910390fd5b42816001600160a01b03166361c533b46040518163ffffffff1660e01b815260040160206040518083038186803b1580156200144f57600080fd5b505afa15801562001464573d6000803e3d6000fd5b505050506040513d601f19601f820116820180604052508101906200148a9190620030fb565b604051636cb7c6f960e01b81523360048201526001600160a01b03841690636cb7c6f99060240160206040518083038186803b158015620014ca57600080fd5b505afa158015620014df573d6000803e3d6000fd5b505050506040513d601f19601f82011682018060405250810190620015059190620030fb565b620015119190620032e9565b11156200153157604051631a874cc960e11b815260040160405180910390fd5b60cb5460005b818110156200159d57600060cb828154811062001558576200155862003419565b6000918252602090912001546001600160a01b03169050620015873382620015818189620008d1565b6200218b565b50806200159481620033cf565b91505062001537565b5062000b62338462002239565b6001600160a01b03918216600090815260346020908152604080832093909416825291909152205490565b620015df62002068565b620010428282808060200260200160405190810160405280939291908181526020018383602002808284376000920191909152506200238d92505050565b80518251146200164e57815181516040516341a0572360e01b81526004810192909252602482015260440162000932565b60005b825181101562000b62576200168283828151811062001674576200167462003419565b6020026020010151620023d6565b600083828151811062001699576200169962003419565b6020026020010151838381518110620016b657620016b662003419565b6020026020010151604051620016cc9062002b85565b620016d9929190620031dd565b604051809103906000f080158015620016f6573d6000803e3d6000fd5b506001600160a01b0381166000908152606560205260409020805460ff1916600117905583519091507f26c79e13dd63e8716f130c25331c09f2fdd55d6880bbfa7bcc38868207e8a67090829085908590811062001758576200175862003419565b602002602001015160405162001770929190620031dd565b60405180910390a1806001600160a01b031663cf26fec66040518163ffffffff1660e01b8152600401600060405180830381600087803b158015620017b457600080fd5b505af1158015620017c9573d6000803e3d6000fd5b50505050508080620017db90620033cf565b91505062001651565b600080620017f162000b84565b9050620017fd62000b84565b60405163ce58da3360e01b81526001600160a01b0387811660048301528681166024830152919091169063ce58da339060440160206040518083038186803b1580156200184957600080fd5b505afa1580156200185e573d6000803e3d6000fd5b505050506040513d601f19601f8201168201806040525081019062001884919062003046565b620018b657604051633d487fe560e11b81526001600160a01b0380871660048301528516602482015260440162000932565b604051633806708f60e21b81526001600160a01b0382169063e019c23c9062000d5590889088908890600401620031b9565b600080620018f560355490565b90508062001904575090919050565b6200190e62000f7b565b6200191a828562003327565b620008ca919062003304565b6200193062002068565b6001600160a01b038116620019975760405162461bcd60e51b815260206004820152602660248201527f4f776e61626c653a206e6577206f776e657220697320746865207a65726f206160448201526564647265737360d01b606482015260840162000932565b620019a281620020c4565b50565b620019b261101062000b67565b620019d55760405163ee84f40b60e01b8152611010600482015260240162000932565b6000620019e160355490565b90506000620019f36110103462000c09565b90508162001a4a5762001a07838262002493565b62001a13838262002578565b7f5548c837ab068cf56a2c2479df0882a4922fd203edb7517321831d95078c5f62836110103460405162000b5993929190620031b9565b60008162001a5762000f7b565b62001a63919062003349565b905062001a89848262001a77868662003327565b62001a83919062003304565b62002493565b62001a95848362002578565b7f5548c837ab068cf56a2c2479df0882a4922fd203edb7517321831d95078c5f62846110103460405162001acc93929190620031b9565b60405180910390a150505050565b62001ae58262000b67565b62001b0f5760405163ee84f40b60e01b81526001600160a01b038316600482015260240162000932565b600062001b1d838362000c09565b905062001b2f8462001a8383620018e8565b62001b466001600160a01b038416333085620025ec565b62001b52848262002578565b7f5548c837ab068cf56a2c2479df0882a4922fd203edb7517321831d95078c5f6284848460405162001acc93929190620031b9565b6001600160a01b03831662001beb5760405162461bcd60e51b8152602060048201526024808201527f45524332303a20617070726f76652066726f6d20746865207a65726f206164646044820152637265737360e01b606482015260840162000932565b6001600160a01b03821662001c4e5760405162461bcd60e51b815260206004820152602260248201527f45524332303a20617070726f766520746f20746865207a65726f206164647265604482015261737360f01b606482015260840162000932565b6001600160a01b0383811660008181526034602090815260408083209487168084529482529182902085905590518481527f8c5be1e5ebec7d5bd14f71427d1e84f3dd0314c0f7b2291e5b200ac8c7c3b925910160405180910390a3505050565b600062001cbd8484620015aa565b9050600019811462001d2a578181101562001d1b5760405162461bcd60e51b815260206004820152601d60248201527f45524332303a20696e73756666696369656e7420616c6c6f77616e6365000000604482015260640162000932565b62001d2a848484840362001b87565b50505050565b6001600160a01b03831662001d965760405162461bcd60e51b815260206004820152602560248201527f45524332303a207472616e736665722066726f6d20746865207a65726f206164604482015264647265737360d81b606482015260840162000932565b6001600160a01b03821662001dfa5760405162461bcd60e51b815260206004820152602360248201527f45524332303a207472616e7366657220746f20746865207a65726f206164647260448201526265737360e81b606482015260840162000932565b6001600160a01b0383166000908152603360205260409020548181101562001e745760405162461bcd60e51b815260206004820152602660248201527f45524332303a207472616e7366657220616d6f756e7420657863656564732062604482015265616c616e636560d01b606482015260840162000932565b6001600160a01b0380851660009081526033602052604080822085850390559185168152908120805484929062001ead908490620032e9565b92505081905550826001600160a01b0316846001600160a01b03167fddf252ad1be2c89b69c2b068fc378daa952ba7f163c4a11628f55a4df523b3ef8460405162001efa91815260200190565b60405180910390a362001d2a565b60006001600160a01b038216611010141562001f25575047919050565b6040516370a0823160e01b81523060048201526001600160a01b038316906370a082319060240160206040518083038186803b15801562001f6557600080fd5b505afa15801562001f7a573d6000803e3d6000fd5b505050506040513d601f19601f82011682018060405250810190620008a19190620030fb565b600054610100900460ff1662001fca5760405162461bcd60e51b8152600401620009329062003218565b62000e8762002648565b600054610100900460ff1662001ffe5760405162461bcd60e51b8152600401620009329062003218565b6200104282826200267d565b60005b815181101562001042576200203e82828151811062002030576200203062003419565b6020026020010151620026d2565b806200204a81620033cf565b9150506200200d565b600062000c046098546001600160a01b031690565b6098546001600160a01b0316331462000e875760405162461bcd60e51b815260206004820181905260248201527f4f776e61626c653a2063616c6c6572206973206e6f7420746865206f776e6572604482015260640162000932565b609880546001600160a01b038381166001600160a01b0319831681179093556040519116919082907f8be0079c531659141344cd1fd0a4f28419497f9722a3daafe3b4186f6b6457e090600090a35050565b620019a262002068565b60606044825110156200214157505060408051602081019091526000815290565b60048201915081806020019051810190620008a191906200306a565b606082826040516020016200217492919062003186565b604051602081830303815290604052905092915050565b6001600160a01b03821661101014156200222357600080846001600160a01b03168360405160006040518083038185875af1925050503d8060008114620021ef576040519150601f19603f3d011682016040523d82523d6000602084013e620021f4565b606091505b5091509150816200221c5780604051639a367e1760e01b815260040162000932919062003203565b5050505050565b62000b626001600160a01b0383168483620027cf565b6001600160a01b0382166200229b5760405162461bcd60e51b815260206004820152602160248201527f45524332303a206275726e2066726f6d20746865207a65726f206164647265736044820152607360f81b606482015260840162000932565b6001600160a01b03821660009081526033602052604090205481811015620023115760405162461bcd60e51b815260206004820152602260248201527f45524332303a206275726e20616d6f756e7420657863656564732062616c616e604482015261636560f01b606482015260840162000932565b6001600160a01b03831660009081526033602052604081208383039055603580548492906200234290849062003349565b90915550506040518281526000906001600160a01b038516907fddf252ad1be2c89b69c2b068fc378daa952ba7f163c4a11628f55a4df523b3ef9060200160405180910390a3505050565b60005b81518110156200104257620023c1828281518110620023b357620023b362003419565b602002602001015162002801565b80620023cd81620033cf565b91505062002390565b620023e062002068565b620023ea62002053565b604051633b42d9af60e21b81526001600160a01b038381166004830152919091169063ed0b66bc9060240160206040518083038186803b1580156200242e57600080fd5b505afa15801562002443573d6000803e3d6000fd5b505050506040513d601f19601f8201168201806040525081019062002469919062003046565b620019a257604051635ef0ef1560e01b81526001600160a01b038216600482015260240162000932565b6001600160a01b038216620024eb5760405162461bcd60e51b815260206004820152601f60248201527f45524332303a206d696e7420746f20746865207a65726f206164647265737300604482015260640162000932565b8060356000828254620024ff9190620032e9565b90915550506001600160a01b038216600090815260336020526040812080548392906200252e908490620032e9565b90915550506040518181526001600160a01b038316906000907fddf252ad1be2c89b69c2b068fc378daa952ba7f163c4a11628f55a4df523b3ef9060200160405180910390a35050565b6200258262002053565b604051631c783fd360e31b81526001600160a01b03848116600483015260248201849052919091169063e3c1fe9890604401600060405180830381600087803b158015620025cf57600080fd5b505af1158015620025e4573d6000803e3d6000fd5b505050505050565b62001d2a846323b872dd60e01b8585856040516024016200261093929190620031b9565b60408051601f198184030181529190526020810180516001600160e01b03166001600160e01b0319909316929092179091526200298a565b600054610100900460ff16620026725760405162461bcd60e51b8152600401620009329062003218565b62000e8733620020c4565b600054610100900460ff16620026a75760405162461bcd60e51b8152600401620009329062003218565b8151620026bc90603690602085019062002b93565b50805162000b6290603790602084019062002b93565b620026dd8162000b67565b15620027085760405163371d045b60e21b81526001600160a01b038216600482015260240162000932565b620027138162000e64565b6200273d5760405163ee84f40b60e01b81526001600160a01b038216600482015260240162000932565b60cb80546001810182557fa7ce836d032b2bf62b7e2097a8e0a6d8aeb35405ad15271e96d3b0188a1d06fb0180546001600160a01b0319166001600160a01b0384169081179091559054600082815260cc602090815260409182902092909255519182527f808665eda000f8d729f31a384bae411282aa3be62cb73ed74e2225e2eef7125d910160405180910390a150565b6040516001600160a01b03831660248201526044810182905262000b6290849063a9059cbb60e01b9060640162002610565b6200280c8162000b67565b620028365760405163067c787f60e41b81526001600160a01b038216600482015260240162000932565b6001600160a01b038116600090815260cc60205260408120546200285d9060019062003349565b60cb8054919250600091620028759060019062003349565b8154811062002888576200288862003419565b60009182526020909120015460cb80546001600160a01b039092169250829184908110620028ba57620028ba62003419565b600091825260209091200180546001600160a01b0319166001600160a01b0392909216919091179055620028f0826001620032e9565b6001600160a01b03808316600090815260cc60205260408082209390935590851681529081205560cb8054806200292b576200292b62003403565b6000828152602090819020600019908301810180546001600160a01b03191690559091019091556040516001600160a01b03851681527f289634222e6533fbe86ba920f2c134b0c959102a872f93ccc13ca9346a93f2f9910162000b59565b6000620029e1826040518060400160405280602081526020017f5361666545524332303a206c6f772d6c6576656c2063616c6c206661696c6564815250856001600160a01b031662002a639092919063ffffffff16565b80519091501562000b62578080602001905181019062002a02919062003046565b62000b625760405162461bcd60e51b815260206004820152602a60248201527f5361666545524332303a204552433230206f7065726174696f6e20646964206e6044820152691bdd081cdd58d8d9595960b21b606482015260840162000932565b6060620009718484600085856001600160a01b0385163b62002ac85760405162461bcd60e51b815260206004820152601d60248201527f416464726573733a2063616c6c20746f206e6f6e2d636f6e7472616374000000604482015260640162000932565b600080866001600160a01b0316858760405162002ae6919062003168565b60006040518083038185875af1925050503d806000811462002b25576040519150601f19603f3d011682016040523d82523d6000602084013e62002b2a565b606091505b509150915062002b3c82828662002b47565b979650505050505050565b6060831562002b58575081620008ca565b82511562002b695782518084602001fd5b8160405162461bcd60e51b815260040162000932919062003203565b610721806200345c83390190565b82805462002ba19062003392565b90600052602060002090601f01602090048101928262002bc5576000855562002c10565b82601f1062002be057805160ff191683800117855562002c10565b8280016001018555821562002c10579182015b8281111562002c1057825182559160200191906001019062002bf3565b5062000e609291505b8082111562000e60576000815560010162002c19565b600082601f83011262002c4157600080fd5b8135602062002c5a62002c548362003297565b62003263565b80838252828201915082860187848660051b890101111562002c7b57600080fd5b60005b8581101562002ca757813562002c948162003445565b8452928401929084019060010162002c7e565b5090979650505050505050565b600082601f83011262002cc657600080fd5b813562002cd762002c5482620032be565b81815284602083860101111562002ced57600080fd5b816020850160208301376000918101602001919091529392505050565b60006020828403121562002d1d57600080fd5b8135620008ca8162003445565b60006020828403121562002d3d57600080fd5b8151620008ca8162003445565b6000806040838503121562002d5e57600080fd5b823562002d6b8162003445565b9150602083013562002d7d8162003445565b809150509250929050565b60008060006060848603121562002d9e57600080fd5b833562002dab8162003445565b9250602084013562002dbd8162003445565b929592945050506040919091013590565b60008060006060848603121562002de457600080fd5b833562002df18162003445565b9250602084013567ffffffffffffffff81111562002e0e57600080fd5b62002e1c8682870162002cb4565b925050604084013590509250925092565b6000806040838503121562002e4157600080fd5b823562002e4e8162003445565b946020939093013593505050565b6000806020838503121562002e7057600080fd5b823567ffffffffffffffff8082111562002e8957600080fd5b818501915085601f83011262002e9e57600080fd5b81358181111562002eae57600080fd5b8660208260051b850101111562002ec457600080fd5b60209290920196919550909350505050565b60006020828403121562002ee957600080fd5b813567ffffffffffffffff81111562002f0157600080fd5b620009718482850162002c2f565b6000806040838503121562002f2357600080fd5b823567ffffffffffffffff81111562002f3b57600080fd5b62002f498582860162002c2f565b925050602083013562002d7d8162003445565b6000806040838503121562002f7057600080fd5b823567ffffffffffffffff8082111562002f8957600080fd5b62002f978683870162002c2f565b935060209150818501358181111562002faf57600080fd5b8501601f8101871362002fc157600080fd5b803562002fd262002c548262003297565b8082825285820191508584018a878560051b870101111562002ff357600080fd5b6000805b8581101562003033578235888111156200300f578283fd5b6200301f8e8b838b010162002cb4565b865250938801939188019160010162002ff7565b5050508096505050505050509250929050565b6000602082840312156200305957600080fd5b81518015158114620008ca57600080fd5b6000602082840312156200307d57600080fd5b815167ffffffffffffffff8111156200309557600080fd5b8201601f81018413620030a757600080fd5b8051620030b862002c5482620032be565b818152856020838501011115620030ce57600080fd5b62000da982602083016020860162003363565b600060208284031215620030f457600080fd5b5035919050565b6000602082840312156200310e57600080fd5b5051919050565b6000602082840312156200312857600080fd5b815160ff81168114620008ca57600080fd5b600081518084526200315481602086016020860162003363565b601f01601f19169290920160200192915050565b600082516200317c81846020870162003363565b9190910192915050565b600083516200319a81846020880162003363565b835190830190620031b081836020880162003363565b01949350505050565b6001600160a01b039384168152919092166020820152604081019190915260600190565b6001600160a01b038316815260406020820181905260009062000971908301846200313a565b602081526000620008ca60208301846200313a565b6020808252602b908201527f496e697469616c697a61626c653a20636f6e7472616374206973206e6f74206960408201526a6e697469616c697a696e6760a81b606082015260800190565b604051601f8201601f1916810167ffffffffffffffff811182821017156200328f576200328f6200342f565b604052919050565b600067ffffffffffffffff821115620032b457620032b46200342f565b5060051b60200190565b600067ffffffffffffffff821115620032db57620032db6200342f565b50601f01601f191660200190565b60008219821115620032ff57620032ff620033ed565b500190565b6000826200332257634e487b7160e01b600052601260045260246000fd5b500490565b6000816000190483118215151615620033445762003344620033ed565b500290565b6000828210156200335e576200335e620033ed565b500390565b60005b838110156200338057818101518382015260200162003366565b8381111562001d2a5750506000910152565b600181811c90821680620033a757607f821691505b60208210811415620033c957634e487b7160e01b600052602260045260246000fd5b50919050565b6000600019821415620033e657620033e6620033ed565b5060010190565b634e487b7160e01b600052601160045260246000fd5b634e487b7160e01b600052603160045260246000fd5b634e487b7160e01b600052603260045260246000fd5b634e487b7160e01b600052604160045260246000fd5b6001600160a01b0381168114620019a257600080fdfe6080604052604051610721380380610721833981016040819052610022916102d2565b61002e82826000610035565b5050610431565b61003e8361006b565b60008251118061004b5750805b156100665761006483836100ab60201b6100291760201c565b505b505050565b610074816100d7565b6040516001600160a01b038216907fbc7cd75a20ee27fd9adebab32041f755214dbc6bffa90cc0225b39da2e5c2d3b90600090a250565b60606100d083836040518060600160405280602781526020016106fa602791396101a9565b9392505050565b6100ea8161028760201b6100551760201c565b6101515760405162461bcd60e51b815260206004820152602d60248201527f455243313936373a206e657720696d706c656d656e746174696f6e206973206e60448201526c1bdd08184818dbdb9d1c9858dd609a1b60648201526084015b60405180910390fd5b806101887f360894a13ba1a3210667c828492db98dca3e2076cc3735a920a3ca505d382bbc60001b61029660201b6100641760201c565b80546001600160a01b0319166001600160a01b039290921691909117905550565b60606001600160a01b0384163b6102115760405162461bcd60e51b815260206004820152602660248201527f416464726573733a2064656c65676174652063616c6c20746f206e6f6e2d636f6044820152651b9d1c9858dd60d21b6064820152608401610148565b600080856001600160a01b03168560405161022c91906103a0565b600060405180830381855af49150503d8060008114610267576040519150601f19603f3d011682016040523d82523d6000602084013e61026c565b606091505b50909250905061027d828286610299565b9695505050505050565b6001600160a01b03163b151590565b90565b606083156102a85750816100d0565b8251156102b85782518084602001fd5b8160405162461bcd60e51b815260040161014891906103bc565b600080604083850312156102e557600080fd5b82516001600160a01b03811681146102fc57600080fd5b60208401519092506001600160401b038082111561031957600080fd5b818501915085601f83011261032d57600080fd5b81518181111561033f5761033f61041b565b604051601f8201601f19908116603f011681019083821181831017156103675761036761041b565b8160405282815288602084870101111561038057600080fd5b6103918360208301602088016103ef565b80955050505050509250929050565b600082516103b28184602087016103ef565b9190910192915050565b60208152600082518060208401526103db8160408501602087016103ef565b601f01601f19169190910160400192915050565b60005b8381101561040a5781810151838201526020016103f2565b838111156100645750506000910152565b634e487b7160e01b600052604160045260246000fd5b6102ba806104406000396000f3fe60806040523661001357610011610017565b005b6100115b610027610022610067565b61009f565b565b606061004e838360405180606001604052806027815260200161025e602791396100c3565b9392505050565b6001600160a01b03163b151590565b90565b600061009a7f360894a13ba1a3210667c828492db98dca3e2076cc3735a920a3ca505d382bbc546001600160a01b031690565b905090565b3660008037600080366000845af43d6000803e8080156100be573d6000f35b3d6000fd5b60606001600160a01b0384163b6101305760405162461bcd60e51b815260206004820152602660248201527f416464726573733a2064656c65676174652063616c6c20746f206e6f6e2d636f6044820152651b9d1c9858dd60d21b60648201526084015b60405180910390fd5b600080856001600160a01b03168560405161014b91906101de565b600060405180830381855af49150503d8060008114610186576040519150601f19603f3d011682016040523d82523d6000602084013e61018b565b606091505b509150915061019b8282866101a5565b9695505050505050565b606083156101b457508161004e565b8251156101c45782518084602001fd5b8160405162461bcd60e51b815260040161012791906101fa565b600082516101f081846020870161022d565b9190910192915050565b602081526000825180602084015261021981604085016020870161022d565b601f01601f19169190910160400192915050565b60005b83811015610248578181015183820152602001610230565b83811115610257576000848401525b5050505056fe416464726573733a206c6f772d6c6576656c2064656c65676174652063616c6c206661696c6564a2646970667358221220fb537d1df0a2f3ea0050d30fb82ca020f06a83116d3853b9eda518a67b0c9be764736f6c63430008070033416464726573733a206c6f772d6c6576656c2064656c65676174652063616c6c206661696c6564a26469706673582212207cb932f633484d0dd5191704bf62f1a15e840ecaf21955fd17494b22bae3fc1c64736f6c63430008070033",
  "devdoc": {
    "kind": "dev",
    "methods": {
      "allowance(address,address)": {
        "details": "See {IERC20-allowance}."
      },
      "approve(address,uint256)": {
        "details": "See {IERC20-approve}. NOTE: If `amount` is the maximum `uint256`, the allowance is not updated on `transferFrom`. This is semantically equivalent to an infinite approval. Requirements: - `spender` cannot be the zero address."
      },
      "balanceOf(address)": {
        "details": "See {IERC20-balanceOf}."
      },
      "constructor": {
        "custom:oz-upgrades-unsafe-allow": "constructor"
      },
      "decimals()": {
        "details": "Returns the number of decimals used to get its user representation. For example, if `decimals` equals `2`, a balance of `505` tokens should be displayed to a user as `5.05` (`505 / 10 ** 2`). Tokens usually opt for a value of 18, imitating the relationship between Ether and Wei. This is the value {ERC20} uses, unless this function is overridden; NOTE: This information is only used for _display_ purposes: it in no way affects any of the arithmetic of the contract, including {IERC20-balanceOf} and {IERC20-transfer}."
      },
      "decreaseAllowance(address,uint256)": {
        "details": "Atomically decreases the allowance granted to `spender` by the caller. This is an alternative to {approve} that can be used as a mitigation for problems described in {IERC20-approve}. Emits an {Approval} event indicating the updated allowance. Requirements: - `spender` cannot be the zero address. - `spender` must have allowance for the caller of at least `subtractedValue`."
      },
      "increaseAllowance(address,uint256)": {
        "details": "Atomically increases the allowance granted to `spender` by the caller. This is an alternative to {approve} that can be used as a mitigation for problems described in {IERC20-approve}. Emits an {Approval} event indicating the updated allowance. Requirements: - `spender` cannot be the zero address."
      },
      "name()": {
        "details": "Returns the name of the token."
      },
      "owner()": {
        "details": "Returns the address of the current owner."
      },
      "renounceOwnership()": {
        "details": "Leaves the contract without owner. It will not be possible to call `onlyOwner` functions anymore. Can only be called by the current owner. NOTE: Renouncing ownership will leave the contract without an owner, thereby removing any functionality that is only available to the owner."
      },
      "symbol()": {
        "details": "Returns the symbol of the token, usually a shorter version of the name."
      },
      "totalSupply()": {
        "details": "See {IERC20-totalSupply}."
      },
      "transfer(address,uint256)": {
        "details": "See {IERC20-transfer}. Requirements: - `to` cannot be the zero address. - the caller must have a balance of at least `amount`."
      },
      "transferFrom(address,address,uint256)": {
        "details": "See {IERC20-transferFrom}. Emits an {Approval} event indicating the updated allowance. This is not required by the EIP. See the note at the beginning of {ERC20}. NOTE: Does not update the allowance if the current allowance is the maximum `uint256`. Requirements: - `from` and `to` cannot be the zero address. - `from` must have a balance of at least `amount`. - the caller must have allowance for ``from``'s tokens of at least `amount`."
      },
      "transferOwnership(address)": {
        "details": "Transfers ownership of the contract to a new account (`newOwner`). Can only be called by the current owner."
      }
    },
    "version": 1
  },
  "userdoc": {
    "kind": "user",
    "methods": {
      "assetBaseCurrencyPrice(address,uint256)": {
        "notice": "This function is imported by other contract, thus cannot be external"
      },
      "canResolvePrice(address)": {
        "notice": "This function is imported by other contract, thus cannot be external"
      }
    },
    "version": 1
  },
  "storageLayout": {
    "storage": [
      {
        "astId": 669,
        "contract": "contracts/LiquidPool.sol:LiquidPool",
        "label": "_initialized",
        "offset": 0,
        "slot": "0",
        "type": "t_uint8"
      },
      {
        "astId": 672,
        "contract": "contracts/LiquidPool.sol:LiquidPool",
        "label": "_initializing",
        "offset": 1,
        "slot": "0",
        "type": "t_bool"
      },
      {
        "astId": 2128,
        "contract": "contracts/LiquidPool.sol:LiquidPool",
        "label": "__gap",
        "offset": 0,
        "slot": "1",
        "type": "t_array(t_uint256)50_storage"
      },
      {
        "astId": 832,
        "contract": "contracts/LiquidPool.sol:LiquidPool",
        "label": "_balances",
        "offset": 0,
        "slot": "51",
        "type": "t_mapping(t_address,t_uint256)"
      },
      {
        "astId": 838,
        "contract": "contracts/LiquidPool.sol:LiquidPool",
        "label": "_allowances",
        "offset": 0,
        "slot": "52",
        "type": "t_mapping(t_address,t_mapping(t_address,t_uint256))"
      },
      {
        "astId": 840,
        "contract": "contracts/LiquidPool.sol:LiquidPool",
        "label": "_totalSupply",
        "offset": 0,
        "slot": "53",
        "type": "t_uint256"
      },
      {
        "astId": 842,
        "contract": "contracts/LiquidPool.sol:LiquidPool",
        "label": "_name",
        "offset": 0,
        "slot": "54",
        "type": "t_string_storage"
      },
      {
        "astId": 844,
        "contract": "contracts/LiquidPool.sol:LiquidPool",
        "label": "_symbol",
        "offset": 0,
        "slot": "55",
        "type": "t_string_storage"
      },
      {
        "astId": 1423,
        "contract": "contracts/LiquidPool.sol:LiquidPool",
        "label": "__gap",
        "offset": 0,
        "slot": "56",
        "type": "t_array(t_uint256)45_storage"
      },
      {
        "astId": 4732,
        "contract": "contracts/LiquidPool.sol:LiquidPool",
        "label": "_budgetApprovals",
        "offset": 0,
        "slot": "101",
        "type": "t_mapping(t_address,t_bool)"
      },
      {
        "astId": 4997,
        "contract": "contracts/LiquidPool.sol:LiquidPool",
        "label": "__gap",
        "offset": 0,
        "slot": "102",
        "type": "t_array(t_uint256)50_storage"
      },
      {
        "astId": 541,
        "contract": "contracts/LiquidPool.sol:LiquidPool",
        "label": "_owner",
        "offset": 0,
        "slot": "152",
        "type": "t_address"
      },
      {
        "astId": 661,
        "contract": "contracts/LiquidPool.sol:LiquidPool",
        "label": "__gap",
        "offset": 0,
        "slot": "153",
        "type": "t_array(t_uint256)49_storage"
      },
      {
        "astId": 3049,
        "contract": "contracts/LiquidPool.sol:LiquidPool",
        "label": "_baseCurrency",
        "offset": 0,
        "slot": "202",
        "type": "t_address"
      },
      {
        "astId": 3052,
        "contract": "contracts/LiquidPool.sol:LiquidPool",
        "label": "assets",
        "offset": 0,
        "slot": "203",
        "type": "t_array(t_address)dyn_storage"
      },
      {
        "astId": 3056,
        "contract": "contracts/LiquidPool.sol:LiquidPool",
        "label": "_assetIndex",
        "offset": 0,
        "slot": "204",
        "type": "t_mapping(t_address,t_uint256)"
      },
      {
        "astId": 3923,
        "contract": "contracts/LiquidPool.sol:LiquidPool",
        "label": "__gap",
        "offset": 0,
        "slot": "205",
        "type": "t_array(t_uint256)50_storage"
      }
    ],
    "types": {
      "t_address": {
        "encoding": "inplace",
        "label": "address",
        "numberOfBytes": "20"
      },
      "t_array(t_address)dyn_storage": {
        "base": "t_address",
        "encoding": "dynamic_array",
        "label": "address[]",
        "numberOfBytes": "32"
      },
      "t_array(t_uint256)45_storage": {
        "base": "t_uint256",
        "encoding": "inplace",
        "label": "uint256[45]",
        "numberOfBytes": "1440"
      },
      "t_array(t_uint256)49_storage": {
        "base": "t_uint256",
        "encoding": "inplace",
        "label": "uint256[49]",
        "numberOfBytes": "1568"
      },
      "t_array(t_uint256)50_storage": {
        "base": "t_uint256",
        "encoding": "inplace",
        "label": "uint256[50]",
        "numberOfBytes": "1600"
      },
      "t_bool": {
        "encoding": "inplace",
        "label": "bool",
        "numberOfBytes": "1"
      },
      "t_mapping(t_address,t_bool)": {
        "encoding": "mapping",
        "key": "t_address",
        "label": "mapping(address => bool)",
        "numberOfBytes": "32",
        "value": "t_bool"
      },
      "t_mapping(t_address,t_mapping(t_address,t_uint256))": {
        "encoding": "mapping",
        "key": "t_address",
        "label": "mapping(address => mapping(address => uint256))",
        "numberOfBytes": "32",
        "value": "t_mapping(t_address,t_uint256)"
      },
      "t_mapping(t_address,t_uint256)": {
        "encoding": "mapping",
        "key": "t_address",
        "label": "mapping(address => uint256)",
        "numberOfBytes": "32",
        "value": "t_uint256"
      },
      "t_string_storage": {
        "encoding": "bytes",
        "label": "string",
        "numberOfBytes": "32"
      },
      "t_uint256": {
        "encoding": "inplace",
        "label": "uint256",
        "numberOfBytes": "32"
      },
      "t_uint8": {
        "encoding": "inplace",
        "label": "uint8",
        "numberOfBytes": "1"
      }
    }
  }
}