{
  "address": "0x7aFD469395480ced2cC6994CCc3c9a4dB2Fa4376",
  "abi": [
    {
      "inputs": [],
      "stateMutability": "nonpayable",
      "type": "constructor"
    },
    {
      "inputs": [
        {
          "internalType": "uint8",
          "name": "decimals",
          "type": "uint8"
        }
      ],
      "name": "InvaildDecimal",
      "type": "error"
    },
    {
      "inputs": [
        {
          "internalType": "uint80",
          "name": "roundID",
          "type": "uint80"
        },
        {
          "internalType": "uint80",
          "name": "answeredInRound",
          "type": "uint80"
        }
      ],
      "name": "StaleRoundId",
      "type": "error"
    },
    {
      "inputs": [
        {
          "internalType": "uint256",
          "name": "currentTimeStamp",
          "type": "uint256"
        },
        {
          "internalType": "uint256",
          "name": "updatedAtTimeStamp",
          "type": "uint256"
        }
      ],
      "name": "StaleTimestamp",
      "type": "error"
    },
    {
      "inputs": [
        {
          "internalType": "address",
          "name": "asset",
          "type": "address"
        }
      ],
      "name": "assetDecimals",
      "outputs": [
        {
          "internalType": "uint8",
          "name": "",
          "type": "uint8"
        }
      ],
      "stateMutability": "view",
      "type": "function"
    },
    {
      "inputs": [
        {
          "internalType": "address",
          "name": "asset",
          "type": "address"
        },
        {
          "internalType": "address",
          "name": "base",
          "type": "address"
        },
        {
          "internalType": "uint256",
          "name": "amount",
          "type": "uint256"
        }
      ],
      "name": "assetPrice",
      "outputs": [
        {
          "internalType": "uint256",
          "name": "",
          "type": "uint256"
        }
      ],
      "stateMutability": "view",
      "type": "function"
    },
    {
      "inputs": [
        {
          "internalType": "address",
          "name": "asset",
          "type": "address"
        },
        {
          "internalType": "uint256",
          "name": "amount",
          "type": "uint256"
        }
      ],
      "name": "assetUSDPrice",
      "outputs": [
        {
          "internalType": "uint256",
          "name": "",
          "type": "uint256"
        }
      ],
      "stateMutability": "view",
      "type": "function"
    },
    {
      "inputs": [
        {
          "internalType": "address",
          "name": "asset",
          "type": "address"
        },
        {
          "internalType": "address",
          "name": "base",
          "type": "address"
        },
        {
          "internalType": "uint256",
          "name": "amount",
          "type": "uint256"
        }
      ],
      "name": "derivedAssetPrice",
      "outputs": [
        {
          "internalType": "uint256",
          "name": "",
          "type": "uint256"
        }
      ],
      "stateMutability": "view",
      "type": "function"
    },
    {
      "inputs": [
        {
          "internalType": "address",
          "name": "asset",
          "type": "address"
        },
        {
          "internalType": "address",
          "name": "base",
          "type": "address"
        }
      ],
      "name": "isSupportedPair",
      "outputs": [
        {
          "internalType": "bool",
          "name": "",
          "type": "bool"
        }
      ],
      "stateMutability": "view",
      "type": "function"
    },
    {
      "inputs": [],
      "name": "name",
      "outputs": [
        {
          "internalType": "string",
          "name": "",
          "type": "string"
        }
      ],
      "stateMutability": "view",
      "type": "function"
    },
    {
      "inputs": [
        {
          "internalType": "address",
          "name": "asset",
          "type": "address"
        },
        {
          "internalType": "uint256",
          "name": "usdAmount",
          "type": "uint256"
        }
      ],
      "name": "usdAssetPrice",
      "outputs": [
        {
          "internalType": "uint256",
          "name": "",
          "type": "uint256"
        }
      ],
      "stateMutability": "view",
      "type": "function"
    }
  ],
  "transactionHash": "0xae27bb9049a848bd18d5406386e97d6cbaace8c61b6f890d09ae5a62c57d7a6f",
  "args": [],
  "numDeployments": 1,
  "solcInputHash": "2974c6da504845ac2588964dfe2269f8",
  "bytecode": "0x608060405234801561001057600080fd5b50611368806100206000396000f3fe608060405234801561001057600080fd5b506004361061007d5760003560e01c80635d8009a61161005b5780635d8009a614610108578063ce58da331461011b578063e019c23c1461013e578063e366da2c1461015157600080fd5b806306fdde03146100825780632851e17d146100d457806352e2a7c5146100f5575b600080fd5b6100be6040518060400160405280601f81526020017f506f6c79676f6e20436861696e6c696e6b20507269636520476174657761790081525081565b6040516100cb9190611058565b60405180910390f35b6100e76100e2366004610f41565b610176565b6040519081526020016100cb565b6100e7610103366004610f82565b6101d4565b6100e7610116366004610f82565b610478565b61012e610129366004610f08565b6106f2565b60405190151581526020016100cb565b6100e761014c366004610f41565b61070d565b61016461015f366004610eeb565b610868565b60405160ff90911681526020016100cb565b6000806101858585601261092c565b905060008113156101c7576101bf61019d8483611227565b6101a687610868565b6101b19060126110c5565b6101ba87610868565b610d1c565b9150506101cd565b60009150505b9392505050565b60006001600160a01b03831661034814156101f0575080610472565b6001600160a01b0383167340155ad14a14c6f7a3116dafb279160d9761c6061461021a5782610230565b73eeeeeeeeeeeeeeeeeeeeeeeeeeeeeeeeeeeeeeee5b92506001600160a01b038316739c3c9283d3e44854697cd22d3faa240cfb0328891461025c5782610260565b6110105b925060008060008073e74b6321545ad397e08adb12d83983eb8e6f40626001600160a01b031663bcfd032d886103486040518363ffffffff1660e01b81526004016102ac92919061103e565b60a06040518083038186803b1580156102c457600080fd5b505afa1580156102d8573d6000803e3d6000fd5b505050506040513d601f19601f820116820180604052508101906102fc9190610fcb565b945094505093509350600073e74b6321545ad397e08adb12d83983eb8e6f40626001600160a01b03166358e2d3a8896103486040518363ffffffff1660e01b815260040161034b92919061103e565b60206040518083038186803b15801561036357600080fd5b505afa158015610377573d6000803e3d6000fd5b505050506040513d601f19601f8201168201806040525081019061039b919061101b565b9050846001600160501b0316826001600160501b031610156103e757604051623a0beb60e31b81526001600160501b038087166004830152831660248201526044015b60405180910390fd5b6103f462015180846110ad565b42111561041d5760405163e80214f160e01b8152426004820152602481018490526044016103de565b61042984826008610d1c565b935060008413156104685761043d88610868565b61044890600a61117b565b61045288866112ac565b61045c9190611118565b95505050505050610472565b6000955050505050505b92915050565b60006001600160a01b0383166103481415610494575080610472565b6001600160a01b0383167340155ad14a14c6f7a3116dafb279160d9761c606146104be57826104d4565b73eeeeeeeeeeeeeeeeeeeeeeeeeeeeeeeeeeeeeeee5b92506001600160a01b038316739c3c9283d3e44854697cd22d3faa240cfb032889146105005782610504565b6110105b925060008060008073e74b6321545ad397e08adb12d83983eb8e6f40626001600160a01b031663bcfd032d886103486040518363ffffffff1660e01b815260040161055092919061103e565b60a06040518083038186803b15801561056857600080fd5b505afa15801561057c573d6000803e3d6000fd5b505050506040513d601f19601f820116820180604052508101906105a09190610fcb565b945094505093509350600073e74b6321545ad397e08adb12d83983eb8e6f40626001600160a01b03166358e2d3a8896103486040518363ffffffff1660e01b81526004016105ef92919061103e565b60206040518083038186803b15801561060757600080fd5b505afa15801561061b573d6000803e3d6000fd5b505050506040513d601f19601f8201168201806040525081019061063f919061101b565b9050846001600160501b0316826001600160501b0316101561068657604051623a0beb60e31b81526001600160501b038087166004830152831660248201526044016103de565b61069362015180846110ad565b4211156106bc5760405163e80214f160e01b8152426004820152602481018490526044016103de565b6106c884826008610d1c565b9350600084131561046857836106dd89610868565b6106e890600a61117b565b61045290896112ac565b60006106fd83610d86565b80156101cd57506101cd82610d86565b60006001600160a01b0384167340155ad14a14c6f7a3116dafb279160d9761c60614610739578361074f565b73eeeeeeeeeeeeeeeeeeeeeeeeeeeeeeeeeeeeeeee5b93506001600160a01b0383167340155ad14a14c6f7a3116dafb279160d9761c6061461077b5782610791565b73eeeeeeeeeeeeeeeeeeeeeeeeeeeeeeeeeeeeeeee5b92506001600160a01b038416739c3c9283d3e44854697cd22d3faa240cfb032889146107bd57836107c1565b6110105b93506001600160a01b038316739c3c9283d3e44854697cd22d3faa240cfb032889146107ed57826107f1565b6110105b9250826001600160a01b0316846001600160a01b031614156108145750806101cd565b6001600160a01b03831661034814156108385761083184836101d4565b90506101cd565b6001600160a01b0384166103481415610855576108318383610478565b610860848484610176565b949350505050565b60006001600160a01b03821673eeeeeeeeeeeeeeeeeeeeeeeeeeeeeeeeeeeeeeee141561089757506012919050565b6001600160a01b03821661034814156108b257506008919050565b816001600160a01b031663313ce5676040518163ffffffff1660e01b815260040160206040518083038186803b1580156108eb57600080fd5b505afa92505050801561091b575060408051601f3d908101601f191682019092526109189181019061101b565b60015b61047257506000919050565b919050565b600060ff821615806109415750601260ff8316115b1561096457604051631e19a7dd60e31b815260ff831660048201526024016103de565b600061097460ff8416600a61116f565b905060008060008073e74b6321545ad397e08adb12d83983eb8e6f40626001600160a01b031663bcfd032d8a6103486040518363ffffffff1660e01b81526004016109c092919061103e565b60a06040518083038186803b1580156109d857600080fd5b505afa1580156109ec573d6000803e3d6000fd5b505050506040513d601f19601f82011682018060405250810190610a109190610fcb565b945094505093509350836001600160501b0316816001600160501b03161015610a5e57604051623a0beb60e31b81526001600160501b038083166004830152851660248201526044016103de565b610a6b62015180836110ad565b421115610a945760405163e80214f160e01b8152426004820152602481018390526044016103de565b604051630b1c5a7560e31b815260009073e74b6321545ad397e08adb12d83983eb8e6f4062906358e2d3a890610ad2908d906103489060040161103e565b60206040518083038186803b158015610aea57600080fd5b505afa158015610afe573d6000803e3d6000fd5b505050506040513d601f19601f82011682018060405250810190610b22919061101b565b9050610b2f84828a610d1c565b935060008060008073e74b6321545ad397e08adb12d83983eb8e6f40626001600160a01b031663bcfd032d8e6103486040518363ffffffff1660e01b8152600401610b7b92919061103e565b60a06040518083038186803b158015610b9357600080fd5b505afa158015610ba7573d6000803e3d6000fd5b505050506040513d601f19601f82011682018060405250810190610bcb9190610fcb565b945094505093509350836001600160501b0316816001600160501b03161015610c1957604051623a0beb60e31b81526001600160501b038083166004830152851660248201526044016103de565b610c2662015180836110ad565b421115610c4f5760405163e80214f160e01b8152426004820152602481018390526044016103de565b600073e74b6321545ad397e08adb12d83983eb8e6f40626001600160a01b03166358e2d3a88f6103486040518363ffffffff1660e01b8152600401610c9592919061103e565b60206040518083038186803b158015610cad57600080fd5b505afa158015610cc1573d6000803e3d6000fd5b505050506040513d601f19601f82011682018060405250810190610ce5919061101b565b9050610cf284828f610d1c565b935083610cff8c8b611227565b610d0991906110ea565b9f9e505050505050505050505050505050565b60008160ff168360ff161015610d4e57610d3683836112cb565b610d449060ff16600a61116f565b6108319085611227565b8160ff168360ff161115610d7e57610d6682846112cb565b610d749060ff16600a61116f565b61083190856110ea565b509192915050565b60006001600160a01b0382166103481415610da357506001919050565b6001600160a01b0382167340155ad14a14c6f7a3116dafb279160d9761c6061415610de05773eeeeeeeeeeeeeeeeeeeeeeeeeeeeeeeeeeeeeeee91505b6001600160a01b038216739c3c9283d3e44854697cd22d3faa240cfb0328891415610e0b5761101091505b60405163d2edb6dd60e01b815273e74b6321545ad397e08adb12d83983eb8e6f40629063d2edb6dd90610e469085906103489060040161103e565b60206040518083038186803b158015610e5e57600080fd5b505afa925050508015610e8e575060408051601f3d908101601f19168201909252610e8b91810190610fae565b60015b610ecb573d808015610ebc576040519150601f19603f3d011682016040523d82523d6000602084013e610ec1565b606091505b5060009392505050565b50600192915050565b80516001600160501b038116811461092757600080fd5b600060208284031215610efd57600080fd5b81356101cd8161131a565b60008060408385031215610f1b57600080fd5b8235610f268161131a565b91506020830135610f368161131a565b809150509250929050565b600080600060608486031215610f5657600080fd5b8335610f618161131a565b92506020840135610f718161131a565b929592945050506040919091013590565b60008060408385031215610f9557600080fd5b8235610fa08161131a565b946020939093013593505050565b600060208284031215610fc057600080fd5b81516101cd8161131a565b600080600080600060a08688031215610fe357600080fd5b610fec86610ed4565b945060208601519350604086015192506060860151915061100f60808701610ed4565b90509295509295909350565b60006020828403121561102d57600080fd5b815160ff811681146101cd57600080fd5b6001600160a01b0392831681529116602082015260400190565b600060208083528351808285015260005b8181101561108557858101830151858201604001528201611069565b81811115611097576000604083870101525b50601f01601f1916929092016040019392505050565b600082198211156110c0576110c06112ee565b500190565b600060ff821660ff84168060ff038211156110e2576110e26112ee565b019392505050565b6000826110f9576110f9611304565b600160ff1b821460001984141615611113576111136112ee565b500590565b60008261112757611127611304565b500490565b600181815b8085111561116757816000190482111561114d5761114d6112ee565b8085161561115a57918102915b93841c9390800290611131565b509250929050565b60006101cd8383611186565b60006101cd60ff8416835b60008261119557506001610472565b816111a257506000610472565b81600181146111b857600281146111c2576111de565b6001915050610472565b60ff8411156111d3576111d36112ee565b50506001821b610472565b5060208310610133831016604e8410600b8410161715611201575081810a610472565b61120b838361112c565b806000190482111561121f5761121f6112ee565b029392505050565b60006001600160ff1b038184138284138082168684048611161561124d5761124d6112ee565b600160ff1b600087128281168783058912161561126c5761126c6112ee565b60008712925087820587128484161615611288576112886112ee565b8785058712818416161561129e5761129e6112ee565b505050929093029392505050565b60008160001904831182151516156112c6576112c66112ee565b500290565b600060ff821660ff8416808210156112e5576112e56112ee565b90039392505050565b634e487b7160e01b600052601160045260246000fd5b634e487b7160e01b600052601260045260246000fd5b6001600160a01b038116811461132f57600080fd5b5056fea2646970667358221220c7b53afbd47b130174ccbc11902a577dde97b853708cb48ad8103935c559fbd064736f6c63430008070033",
  "devdoc": {
    "details": "A price gateway that uses Chainlink price feeds to calculate asset prices in terms of base tokens. It supports ETH, WETH, MATIC, WMATIC and other ERC20 tokens as assets or base tokens. This contract is inherited from the PriceGateway base contract,  which provides basic functions to check the support of the pair and calculate asset prices.",
    "kind": "dev",
    "methods": {
      "assetPrice(address,address,uint256)": {
        "details": "For those outside contract , Please used this as the entry pointthis Function will help to route the calculate to other cal function,Please do not directly call the below cal function",
        "params": {
          "amount": "the amount of asset, in asset decimal",
          "asset": "the asset token address, support ETH , WETH, MATIC, WMATIC and other ERC20",
          "base": "the base token address, support ETH , WETH, MATIC, WMATIC and other ERC20"
        },
        "returns": {
          "_0": "uint256 the Asset Price in term of base token in base token decimal"
        }
      },
      "assetUSDPrice(address,uint256)": {
        "details": "Get the rate in Chainlink and scale the Price to decimal 8",
        "params": {
          "amount": "Asset Amount in term of asset's decimal",
          "asset": "the asset token address, support ETH , WETH, MATIC, WMATIC and other ERC20"
        },
        "returns": {
          "_0": "uint256 the Asset Price in term of USD with hardcoded decimal 8"
        }
      },
      "isSupportedPair(address,address)": {
        "details": "Custom price gateway is allowed, but need to implement priceGateway.sol and set by govern",
        "params": {
          "asset": "the asset token address, support ETH , WETH, MATIC, WMATIC and other ERC20",
          "base": "the base token address, support ETH , WETH, MATIC, WMATIC and other ERC20"
        },
        "returns": {
          "_0": "boolean Is support or not"
        }
      },
      "usdAssetPrice(address,uint256)": {
        "details": "Get the rate in Chainlink and scale the Price to asset decimal",
        "params": {
          "asset": "the asset token address, support ETH , WETH, MATIC, WMATIC and other ERC20, used as base token address",
          "usdAmount": "Usd Amount with 8 decimal (arbitrum)"
        },
        "returns": {
          "_0": "uint256 the price by using asset as base with assets decimal"
        }
      }
    },
    "stateVariables": {
      "name": {
        "custom:oz-upgrades-unsafe-allow": "constructor"
      }
    },
    "title": "PolygonChainlinkPriceGateway",
    "version": 1
  },
  "userdoc": {
    "kind": "user",
    "methods": {
      "assetPrice(address,address,uint256)": {
        "notice": "inherited from PriceGateway, to cal the asset price base on different token"
      },
      "assetUSDPrice(address,uint256)": {
        "notice": "Get Asset Price in Term of USD"
      },
      "isSupportedPair(address,address)": {
        "notice": "inherited from PriceGateway, help to check the imported pair support or not"
      },
      "usdAssetPrice(address,uint256)": {
        "notice": "Get USD Price in term of Asset"
      }
    },
    "version": 1
  },
  "storageLayout": {
    "storage": [
      {
        "astId": 1427,
        "contract": "contracts/PolygonChainlinkPriceGateway.sol:PolygonChainlinkPriceGateway",
        "label": "__gap",
        "offset": 0,
        "slot": "0",
        "type": "t_array(t_uint256)50_storage"
      }
    ],
    "types": {
      "t_array(t_uint256)50_storage": {
        "base": "t_uint256",
        "encoding": "inplace",
        "label": "uint256[50]",
        "numberOfBytes": "1600"
      },
      "t_uint256": {
        "encoding": "inplace",
        "label": "uint256",
        "numberOfBytes": "32"
      }
    }
  }
}