{
  "address": "0xf37e87504Dd2Ec93c1491330060E9342113Da5B1",
  "abi": [
    {
      "inputs": [],
      "stateMutability": "nonpayable",
      "type": "constructor"
    },
    {
      "inputs": [],
      "name": "ActionDuplicated",
      "type": "error"
    },
    {
      "inputs": [],
      "name": "BudgetHasEnded",
      "type": "error"
    },
    {
      "inputs": [],
      "name": "BudgetNotStarted",
      "type": "error"
    },
    {
      "inputs": [],
      "name": "BudgetUsageExceeded",
      "type": "error"
    },
    {
      "inputs": [
        {
          "internalType": "bytes",
          "name": "result",
          "type": "bytes"
        }
      ],
      "name": "DecodeFailed",
      "type": "error"
    },
    {
      "inputs": [],
      "name": "DecodeWETHDataFail",
      "type": "error"
    },
    {
      "inputs": [],
      "name": "InvalidApproverList",
      "type": "error"
    },
    {
      "inputs": [],
      "name": "InvalidExecuteeTeam",
      "type": "error"
    },
    {
      "inputs": [
        {
          "internalType": "uint256",
          "name": "id",
          "type": "uint256"
        }
      ],
      "name": "InvalidTransactionId",
      "type": "error"
    },
    {
      "inputs": [
        {
          "internalType": "uint256",
          "name": "id",
          "type": "uint256"
        },
        {
          "internalType": "enum CommonBudgetApproval.Status",
          "name": "status",
          "type": "uint8"
        }
      ],
      "name": "InvalidTransactionStatus",
      "type": "error"
    },
    {
      "inputs": [
        {
          "internalType": "address",
          "name": "asset",
          "type": "address"
        },
        {
          "internalType": "address",
          "name": "base",
          "type": "address"
        }
      ],
      "name": "PairNotSupport",
      "type": "error"
    },
    {
      "inputs": [],
      "name": "TooMuchETH",
      "type": "error"
    },
    {
      "inputs": [
        {
          "internalType": "uint256",
          "name": "id",
          "type": "uint256"
        }
      ],
      "name": "TransactionExpired",
      "type": "error"
    },
    {
      "inputs": [],
      "name": "UnauthorizedApprover",
      "type": "error"
    },
    {
      "inputs": [],
      "name": "UnauthorizedExecutee",
      "type": "error"
    },
    {
      "inputs": [],
      "name": "UnauthorizedExecutor",
      "type": "error"
    },
    {
      "anonymous": false,
      "inputs": [
        {
          "indexed": false,
          "internalType": "address",
          "name": "target",
          "type": "address"
        }
      ],
      "name": "AllowAddress",
      "type": "event"
    },
    {
      "anonymous": false,
      "inputs": [
        {
          "indexed": false,
          "internalType": "uint256",
          "name": "amount",
          "type": "uint256"
        }
      ],
      "name": "AllowAmount",
      "type": "event"
    },
    {
      "anonymous": false,
      "inputs": [
        {
          "indexed": false,
          "internalType": "address",
          "name": "token",
          "type": "address"
        }
      ],
      "name": "AllowToToken",
      "type": "event"
    },
    {
      "anonymous": false,
      "inputs": [
        {
          "indexed": false,
          "internalType": "address",
          "name": "token",
          "type": "address"
        }
      ],
      "name": "AllowToken",
      "type": "event"
    },
    {
      "anonymous": false,
      "inputs": [
        {
          "indexed": true,
          "internalType": "uint256",
          "name": "id",
          "type": "uint256"
        },
        {
          "indexed": false,
          "internalType": "address",
          "name": "approver",
          "type": "address"
        },
        {
          "indexed": false,
          "internalType": "string",
          "name": "comment",
          "type": "string"
        }
      ],
      "name": "ApproveTransaction",
      "type": "event"
    },
    {
      "anonymous": false,
      "inputs": [
        {
          "indexed": true,
          "internalType": "uint256",
          "name": "id",
          "type": "uint256"
        },
        {
          "indexed": false,
          "internalType": "bytes[]",
          "name": "data",
          "type": "bytes[]"
        },
        {
          "indexed": false,
          "internalType": "uint256",
          "name": "deadline",
          "type": "uint256"
        },
        {
          "indexed": false,
          "internalType": "enum CommonBudgetApproval.Status",
          "name": "status",
          "type": "uint8"
        },
        {
          "indexed": false,
          "internalType": "string",
          "name": "comment",
          "type": "string"
        },
        {
          "indexed": false,
          "internalType": "address",
          "name": "creator",
          "type": "address"
        }
      ],
      "name": "CreateTransaction",
      "type": "event"
    },
    {
      "anonymous": false,
      "inputs": [
        {
          "indexed": true,
          "internalType": "uint256",
          "name": "id",
          "type": "uint256"
        },
        {
          "indexed": false,
          "internalType": "bytes[]",
          "name": "data",
          "type": "bytes[]"
        },
        {
          "indexed": false,
          "internalType": "address",
          "name": "_executor",
          "type": "address"
        }
      ],
      "name": "ExecuteTransaction",
      "type": "event"
    },
    {
      "anonymous": false,
      "inputs": [
        {
          "indexed": true,
          "internalType": "uint256",
          "name": "id",
          "type": "uint256"
        },
        {
          "indexed": true,
          "internalType": "address",
          "name": "executor",
          "type": "address"
        },
        {
          "indexed": true,
          "internalType": "address",
          "name": "toAddress",
          "type": "address"
        },
        {
          "indexed": false,
          "internalType": "address",
          "name": "token",
          "type": "address"
        },
        {
          "indexed": false,
          "internalType": "uint256",
          "name": "amount",
          "type": "uint256"
        }
      ],
      "name": "ExecuteUniswapInTransaction",
      "type": "event"
    },
    {
      "anonymous": false,
      "inputs": [
        {
          "indexed": true,
          "internalType": "uint256",
          "name": "id",
          "type": "uint256"
        },
        {
          "indexed": true,
          "internalType": "address",
          "name": "executor",
          "type": "address"
        },
        {
          "indexed": true,
          "internalType": "address",
          "name": "toAddress",
          "type": "address"
        },
        {
          "indexed": false,
          "internalType": "address",
          "name": "token",
          "type": "address"
        },
        {
          "indexed": false,
          "internalType": "uint256",
          "name": "amount",
          "type": "uint256"
        }
      ],
      "name": "ExecuteUniswapOutTransaction",
      "type": "event"
    },
    {
      "anonymous": false,
      "inputs": [
        {
          "indexed": true,
          "internalType": "uint256",
          "name": "id",
          "type": "uint256"
        },
        {
          "indexed": true,
          "internalType": "address",
          "name": "executor",
          "type": "address"
        },
        {
          "indexed": true,
          "internalType": "address",
          "name": "toAddress",
          "type": "address"
        },
        {
          "indexed": false,
          "internalType": "address",
          "name": "tokenIn",
          "type": "address"
        },
        {
          "indexed": false,
          "internalType": "address",
          "name": "tokenOut",
          "type": "address"
        },
        {
          "indexed": false,
          "internalType": "uint256",
          "name": "amount",
          "type": "uint256"
        }
      ],
      "name": "ExecuteWETH9Transaction",
      "type": "event"
    },
    {
      "anonymous": false,
      "inputs": [
        {
          "indexed": false,
          "internalType": "uint8",
          "name": "version",
          "type": "uint8"
        }
      ],
      "name": "Initialized",
      "type": "event"
    },
    {
      "anonymous": false,
      "inputs": [
        {
          "indexed": true,
          "internalType": "uint256",
          "name": "id",
          "type": "uint256"
        }
      ],
      "name": "RevokeTransaction",
      "type": "event"
    },
    {
      "anonymous": false,
      "inputs": [
        {
          "indexed": false,
          "internalType": "address",
          "name": "approver",
          "type": "address"
        }
      ],
      "name": "SetApprover",
      "type": "event"
    },
    {
      "inputs": [],
      "name": "RECIPIENT_EXECUTEE",
      "outputs": [
        {
          "internalType": "address",
          "name": "",
          "type": "address"
        }
      ],
      "stateMutability": "view",
      "type": "function"
    },
    {
      "inputs": [],
      "name": "RECIPIENT_UNISWAP_ROUTER",
      "outputs": [
        {
          "internalType": "address",
          "name": "",
          "type": "address"
        }
      ],
      "stateMutability": "view",
      "type": "function"
    },
    {
      "inputs": [],
      "name": "WETH9",
      "outputs": [
        {
          "internalType": "address",
          "name": "",
          "type": "address"
        }
      ],
      "stateMutability": "pure",
      "type": "function"
    },
    {
      "inputs": [],
      "name": "accountingSystem",
      "outputs": [
        {
          "internalType": "address",
          "name": "",
          "type": "address"
        }
      ],
      "stateMutability": "view",
      "type": "function"
    },
    {
      "inputs": [],
      "name": "afterInitialized",
      "outputs": [],
      "stateMutability": "nonpayable",
      "type": "function"
    },
    {
      "inputs": [],
      "name": "allowAllToTokens",
      "outputs": [
        {
          "internalType": "bool",
          "name": "",
          "type": "bool"
        }
      ],
      "stateMutability": "view",
      "type": "function"
    },
    {
      "inputs": [],
      "name": "allowAnyAmount",
      "outputs": [
        {
          "internalType": "bool",
          "name": "",
          "type": "bool"
        }
      ],
      "stateMutability": "view",
      "type": "function"
    },
    {
      "inputs": [],
      "name": "allowUnlimitedUsageCount",
      "outputs": [
        {
          "internalType": "bool",
          "name": "",
          "type": "bool"
        }
      ],
      "stateMutability": "view",
      "type": "function"
    },
    {
      "inputs": [],
      "name": "amountPercentage",
      "outputs": [
        {
          "internalType": "uint8",
          "name": "",
          "type": "uint8"
        }
      ],
      "stateMutability": "view",
      "type": "function"
    },
    {
      "inputs": [
        {
          "internalType": "uint256",
          "name": "id",
          "type": "uint256"
        },
        {
          "internalType": "string",
          "name": "comment",
          "type": "string"
        }
      ],
      "name": "approveTransaction",
      "outputs": [],
      "stateMutability": "nonpayable",
      "type": "function"
    },
    {
      "inputs": [],
      "name": "approverTeamId",
      "outputs": [
        {
          "internalType": "uint256",
          "name": "",
          "type": "uint256"
        }
      ],
      "stateMutability": "view",
      "type": "function"
    },
    {
      "inputs": [
        {
          "internalType": "address",
          "name": "eoa",
          "type": "address"
        }
      ],
      "name": "approversMapping",
      "outputs": [
        {
          "internalType": "bool",
          "name": "",
          "type": "bool"
        }
      ],
      "stateMutability": "view",
      "type": "function"
    },
    {
      "inputs": [
        {
          "internalType": "address",
          "name": "asset",
          "type": "address"
        },
        {
          "internalType": "uint256",
          "name": "amount",
          "type": "uint256"
        }
      ],
      "name": "assetBaseCurrencyPrice",
      "outputs": [
        {
          "internalType": "uint256",
          "name": "",
          "type": "uint256"
        }
      ],
      "stateMutability": "view",
      "type": "function"
    },
    {
      "inputs": [
        {
          "internalType": "address",
          "name": "asset",
          "type": "address"
        },
        {
          "internalType": "address",
          "name": "base",
          "type": "address"
        },
        {
          "internalType": "uint256",
          "name": "amount",
          "type": "uint256"
        }
      ],
      "name": "assetPrice",
      "outputs": [
        {
          "internalType": "uint256",
          "name": "",
          "type": "uint256"
        }
      ],
      "stateMutability": "view",
      "type": "function"
    },
    {
      "inputs": [],
      "name": "baseCurrency",
      "outputs": [
        {
          "internalType": "address",
          "name": "",
          "type": "address"
        }
      ],
      "stateMutability": "view",
      "type": "function"
    },
    {
      "inputs": [],
      "name": "baseCurrencyDecimals",
      "outputs": [
        {
          "internalType": "uint8",
          "name": "",
          "type": "uint8"
        }
      ],
      "stateMutability": "view",
      "type": "function"
    },
    {
      "inputs": [
        {
          "internalType": "address",
          "name": "asset",
          "type": "address"
        }
      ],
      "name": "canResolvePrice",
      "outputs": [
        {
          "internalType": "bool",
          "name": "",
          "type": "bool"
        }
      ],
      "stateMutability": "view",
      "type": "function"
    },
    {
      "inputs": [
        {
          "internalType": "bytes[]",
          "name": "_data",
          "type": "bytes[]"
        },
        {
          "internalType": "uint32",
          "name": "_deadline",
          "type": "uint32"
        },
        {
          "internalType": "bool",
          "name": "_isExecute",
          "type": "bool"
        },
        {
          "internalType": "string",
          "name": "comment",
          "type": "string"
        }
      ],
      "name": "createTransaction",
      "outputs": [
        {
          "internalType": "uint256",
          "name": "",
          "type": "uint256"
        }
      ],
      "stateMutability": "payable",
      "type": "function"
    },
    {
      "inputs": [
        {
          "internalType": "bytes",
          "name": "rawData",
          "type": "bytes"
        },
        {
          "internalType": "uint256",
          "name": "value",
          "type": "uint256"
        },
        {
          "internalType": "bytes",
          "name": "response",
          "type": "bytes"
        }
      ],
      "name": "decodeUniswapMulticall",
      "outputs": [
        {
          "components": [
            {
              "internalType": "address",
              "name": "recipient",
              "type": "address"
            },
            {
              "internalType": "address",
              "name": "tokenIn",
              "type": "address"
            },
            {
              "internalType": "address",
              "name": "tokenOut",
              "type": "address"
            },
            {
              "internalType": "uint256",
              "name": "amountIn",
              "type": "uint256"
            },
            {
              "internalType": "uint256",
              "name": "amountOut",
              "type": "uint256"
            },
            {
              "internalType": "enum UniswapSwapper.MulticallResultAttribute",
              "name": "resultType",
              "type": "uint8"
            }
          ],
          "internalType": "struct UniswapSwapper.MulticallData[]",
          "name": "multicalData",
          "type": "tuple[]"
        }
      ],
      "stateMutability": "view",
      "type": "function"
    },
    {
      "inputs": [
        {
          "internalType": "bytes",
          "name": "data",
          "type": "bytes"
        },
        {
          "internalType": "uint256",
          "name": "value",
          "type": "uint256"
        }
      ],
      "name": "decodeWETH9Call",
      "outputs": [
        {
          "internalType": "address",
          "name": "tokenIn",
          "type": "address"
        },
        {
          "internalType": "address",
          "name": "tokenOut",
          "type": "address"
        },
        {
          "internalType": "uint256",
          "name": "amount",
          "type": "uint256"
        }
      ],
      "stateMutability": "pure",
      "type": "function"
    },
    {
      "inputs": [],
      "name": "endTime",
      "outputs": [
        {
          "internalType": "uint256",
          "name": "",
          "type": "uint256"
        }
      ],
      "stateMutability": "view",
      "type": "function"
    },
    {
      "inputs": [
        {
          "components": [
            {
              "internalType": "bytes",
              "name": "path",
              "type": "bytes"
            },
            {
              "internalType": "address",
              "name": "recipient",
              "type": "address"
            },
            {
              "internalType": "uint256",
              "name": "amountIn",
              "type": "uint256"
            },
            {
              "internalType": "uint256",
              "name": "amountOutMinimum",
              "type": "uint256"
            }
          ],
          "internalType": "struct IV3SwapRouter.ExactInputParams",
          "name": "params",
          "type": "tuple"
        }
      ],
      "name": "exactInput",
      "outputs": [
        {
          "components": [
            {
              "internalType": "address",
              "name": "recipient",
              "type": "address"
            },
            {
              "internalType": "address",
              "name": "tokenIn",
              "type": "address"
            },
            {
              "internalType": "address",
              "name": "tokenOut",
              "type": "address"
            },
            {
              "internalType": "uint256",
              "name": "amountIn",
              "type": "uint256"
            },
            {
              "internalType": "uint256",
              "name": "amountOut",
              "type": "uint256"
            },
            {
              "internalType": "enum UniswapSwapper.MulticallResultAttribute",
              "name": "resultType",
              "type": "uint8"
            }
          ],
          "internalType": "struct UniswapSwapper.MulticallData",
          "name": "",
          "type": "tuple"
        }
      ],
      "stateMutability": "pure",
      "type": "function"
    },
    {
      "inputs": [
        {
          "components": [
            {
              "internalType": "address",
              "name": "tokenIn",
              "type": "address"
            },
            {
              "internalType": "address",
              "name": "tokenOut",
              "type": "address"
            },
            {
              "internalType": "uint24",
              "name": "fee",
              "type": "uint24"
            },
            {
              "internalType": "address",
              "name": "recipient",
              "type": "address"
            },
            {
              "internalType": "uint256",
              "name": "amountIn",
              "type": "uint256"
            },
            {
              "internalType": "uint256",
              "name": "amountOutMinimum",
              "type": "uint256"
            },
            {
              "internalType": "uint160",
              "name": "sqrtPriceLimitX96",
              "type": "uint160"
            }
          ],
          "internalType": "struct IV3SwapRouter.ExactInputSingleParams",
          "name": "params",
          "type": "tuple"
        }
      ],
      "name": "exactInputSingle",
      "outputs": [
        {
          "components": [
            {
              "internalType": "address",
              "name": "recipient",
              "type": "address"
            },
            {
              "internalType": "address",
              "name": "tokenIn",
              "type": "address"
            },
            {
              "internalType": "address",
              "name": "tokenOut",
              "type": "address"
            },
            {
              "internalType": "uint256",
              "name": "amountIn",
              "type": "uint256"
            },
            {
              "internalType": "uint256",
              "name": "amountOut",
              "type": "uint256"
            },
            {
              "internalType": "enum UniswapSwapper.MulticallResultAttribute",
              "name": "resultType",
              "type": "uint8"
            }
          ],
          "internalType": "struct UniswapSwapper.MulticallData",
          "name": "",
          "type": "tuple"
        }
      ],
      "stateMutability": "pure",
      "type": "function"
    },
    {
      "inputs": [
        {
          "components": [
            {
              "internalType": "bytes",
              "name": "path",
              "type": "bytes"
            },
            {
              "internalType": "address",
              "name": "recipient",
              "type": "address"
            },
            {
              "internalType": "uint256",
              "name": "amountOut",
              "type": "uint256"
            },
            {
              "internalType": "uint256",
              "name": "amountInMaximum",
              "type": "uint256"
            }
          ],
          "internalType": "struct IV3SwapRouter.ExactOutputParams",
          "name": "params",
          "type": "tuple"
        }
      ],
      "name": "exactOutput",
      "outputs": [
        {
          "components": [
            {
              "internalType": "address",
              "name": "recipient",
              "type": "address"
            },
            {
              "internalType": "address",
              "name": "tokenIn",
              "type": "address"
            },
            {
              "internalType": "address",
              "name": "tokenOut",
              "type": "address"
            },
            {
              "internalType": "uint256",
              "name": "amountIn",
              "type": "uint256"
            },
            {
              "internalType": "uint256",
              "name": "amountOut",
              "type": "uint256"
            },
            {
              "internalType": "enum UniswapSwapper.MulticallResultAttribute",
              "name": "resultType",
              "type": "uint8"
            }
          ],
          "internalType": "struct UniswapSwapper.MulticallData",
          "name": "",
          "type": "tuple"
        }
      ],
      "stateMutability": "pure",
      "type": "function"
    },
    {
      "inputs": [
        {
          "components": [
            {
              "internalType": "address",
              "name": "tokenIn",
              "type": "address"
            },
            {
              "internalType": "address",
              "name": "tokenOut",
              "type": "address"
            },
            {
              "internalType": "uint24",
              "name": "fee",
              "type": "uint24"
            },
            {
              "internalType": "address",
              "name": "recipient",
              "type": "address"
            },
            {
              "internalType": "uint256",
              "name": "amountOut",
              "type": "uint256"
            },
            {
              "internalType": "uint256",
              "name": "amountInMaximum",
              "type": "uint256"
            },
            {
              "internalType": "uint160",
              "name": "sqrtPriceLimitX96",
              "type": "uint160"
            }
          ],
          "internalType": "struct IV3SwapRouter.ExactOutputSingleParams",
          "name": "params",
          "type": "tuple"
        }
      ],
      "name": "exactOutputSingle",
      "outputs": [
        {
          "components": [
            {
              "internalType": "address",
              "name": "recipient",
              "type": "address"
            },
            {
              "internalType": "address",
              "name": "tokenIn",
              "type": "address"
            },
            {
              "internalType": "address",
              "name": "tokenOut",
              "type": "address"
            },
            {
              "internalType": "uint256",
              "name": "amountIn",
              "type": "uint256"
            },
            {
              "internalType": "uint256",
              "name": "amountOut",
              "type": "uint256"
            },
            {
              "internalType": "enum UniswapSwapper.MulticallResultAttribute",
              "name": "resultType",
              "type": "uint8"
            }
          ],
          "internalType": "struct UniswapSwapper.MulticallData",
          "name": "",
          "type": "tuple"
        }
      ],
      "stateMutability": "pure",
      "type": "function"
    },
    {
      "inputs": [],
      "name": "executeParams",
      "outputs": [
        {
          "internalType": "string[]",
          "name": "",
          "type": "string[]"
        }
      ],
      "stateMutability": "pure",
      "type": "function"
    },
    {
      "inputs": [
        {
          "internalType": "uint256",
          "name": "id",
          "type": "uint256"
        }
      ],
      "name": "executeTransaction",
      "outputs": [],
      "stateMutability": "payable",
      "type": "function"
    },
    {
      "inputs": [],
      "name": "executee",
      "outputs": [
        {
          "internalType": "address",
          "name": "",
          "type": "address"
        }
      ],
      "stateMutability": "view",
      "type": "function"
    },
    {
      "inputs": [],
      "name": "executor",
      "outputs": [
        {
          "internalType": "address",
          "name": "",
          "type": "address"
        }
      ],
      "stateMutability": "view",
      "type": "function"
    },
    {
      "inputs": [],
      "name": "executorTeamId",
      "outputs": [
        {
          "internalType": "uint256",
          "name": "",
          "type": "uint256"
        }
      ],
      "stateMutability": "view",
      "type": "function"
    },
    {
      "inputs": [
        {
          "internalType": "uint256",
          "name": "",
          "type": "uint256"
        }
      ],
      "name": "fromTokens",
      "outputs": [
        {
          "internalType": "address",
          "name": "",
          "type": "address"
        }
      ],
      "stateMutability": "view",
      "type": "function"
    },
    {
      "inputs": [
        {
          "internalType": "address",
          "name": "",
          "type": "address"
        }
      ],
      "name": "fromTokensMapping",
      "outputs": [
        {
          "internalType": "bool",
          "name": "",
          "type": "bool"
        }
      ],
      "stateMutability": "view",
      "type": "function"
    },
    {
      "inputs": [
        {
          "components": [
            {
              "internalType": "address",
              "name": "executor",
              "type": "address"
            },
            {
              "internalType": "uint256",
              "name": "executorTeamId",
              "type": "uint256"
            },
            {
              "internalType": "address[]",
              "name": "approvers",
              "type": "address[]"
            },
            {
              "internalType": "uint256",
              "name": "approverTeamId",
              "type": "uint256"
            },
            {
              "internalType": "uint256",
              "name": "minApproval",
              "type": "uint256"
            },
            {
              "internalType": "string",
              "name": "text",
              "type": "string"
            },
            {
              "internalType": "string",
              "name": "transactionType",
              "type": "string"
            },
            {
              "internalType": "uint256",
              "name": "startTime",
              "type": "uint256"
            },
            {
              "internalType": "uint256",
              "name": "endTime",
              "type": "uint256"
            },
            {
              "internalType": "bool",
              "name": "allowUnlimitedUsageCount",
              "type": "bool"
            },
            {
              "internalType": "uint256",
              "name": "usageCount",
              "type": "uint256"
            }
          ],
          "internalType": "struct CommonBudgetApproval.InitializeParams",
          "name": "params",
          "type": "tuple"
        },
        {
          "internalType": "address[]",
          "name": "_fromTokens",
          "type": "address[]"
        },
        {
          "internalType": "bool",
          "name": "_allowAllToTokens",
          "type": "bool"
        },
        {
          "internalType": "address[]",
          "name": "_toTokens",
          "type": "address[]"
        },
        {
          "internalType": "bool",
          "name": "_allowAnyAmount",
          "type": "bool"
        },
        {
          "internalType": "uint256",
          "name": "_totalAmount",
          "type": "uint256"
        },
        {
          "internalType": "uint8",
          "name": "_amountPercentage",
          "type": "uint8"
        },
        {
          "internalType": "address",
          "name": "__baseCurrency",
          "type": "address"
        }
      ],
      "name": "initialize",
      "outputs": [],
      "stateMutability": "nonpayable",
      "type": "function"
    },
    {
      "inputs": [],
      "name": "minApproval",
      "outputs": [
        {
          "internalType": "uint256",
          "name": "",
          "type": "uint256"
        }
      ],
      "stateMutability": "view",
      "type": "function"
    },
    {
      "inputs": [],
      "name": "name",
      "outputs": [
        {
          "internalType": "string",
          "name": "",
          "type": "string"
        }
      ],
      "stateMutability": "view",
      "type": "function"
    },
    {
      "inputs": [],
      "name": "refundETH",
      "outputs": [
        {
          "components": [
            {
              "internalType": "address",
              "name": "recipient",
              "type": "address"
            },
            {
              "internalType": "address",
              "name": "tokenIn",
              "type": "address"
            },
            {
              "internalType": "address",
              "name": "tokenOut",
              "type": "address"
            },
            {
              "internalType": "uint256",
              "name": "amountIn",
              "type": "uint256"
            },
            {
              "internalType": "uint256",
              "name": "amountOut",
              "type": "uint256"
            },
            {
              "internalType": "enum UniswapSwapper.MulticallResultAttribute",
              "name": "resultType",
              "type": "uint8"
            }
          ],
          "internalType": "struct UniswapSwapper.MulticallData",
          "name": "",
          "type": "tuple"
        }
      ],
      "stateMutability": "pure",
      "type": "function"
    },
    {
      "inputs": [
        {
          "internalType": "uint256",
          "name": "id",
          "type": "uint256"
        }
      ],
      "name": "revokeTransaction",
      "outputs": [],
      "stateMutability": "nonpayable",
      "type": "function"
    },
    {
      "inputs": [
        {
          "internalType": "address",
          "name": "",
          "type": "address"
        },
        {
          "internalType": "uint256",
          "name": "",
          "type": "uint256"
        },
        {
          "internalType": "uint256",
          "name": "",
          "type": "uint256"
        },
        {
          "internalType": "uint8",
          "name": "",
          "type": "uint8"
        },
        {
          "internalType": "bytes32",
          "name": "",
          "type": "bytes32"
        },
        {
          "internalType": "bytes32",
          "name": "",
          "type": "bytes32"
        }
      ],
      "name": "selfPermit",
      "outputs": [
        {
          "components": [
            {
              "internalType": "address",
              "name": "recipient",
              "type": "address"
            },
            {
              "internalType": "address",
              "name": "tokenIn",
              "type": "address"
            },
            {
              "internalType": "address",
              "name": "tokenOut",
              "type": "address"
            },
            {
              "internalType": "uint256",
              "name": "amountIn",
              "type": "uint256"
            },
            {
              "internalType": "uint256",
              "name": "amountOut",
              "type": "uint256"
            },
            {
              "internalType": "enum UniswapSwapper.MulticallResultAttribute",
              "name": "resultType",
              "type": "uint8"
            }
          ],
          "internalType": "struct UniswapSwapper.MulticallData",
          "name": "",
          "type": "tuple"
        }
      ],
      "stateMutability": "pure",
      "type": "function"
    },
    {
      "inputs": [],
      "name": "startTime",
      "outputs": [
        {
          "internalType": "uint256",
          "name": "",
          "type": "uint256"
        }
      ],
      "stateMutability": "view",
      "type": "function"
    },
    {
      "inputs": [
        {
          "internalType": "uint256",
          "name": "amountIn",
          "type": "uint256"
        },
        {
          "internalType": "uint256",
          "name": "amountOutMin",
          "type": "uint256"
        },
        {
          "internalType": "address[]",
          "name": "path",
          "type": "address[]"
        },
        {
          "internalType": "address",
          "name": "recipient",
          "type": "address"
        }
      ],
      "name": "swapExactTokensForTokens",
      "outputs": [
        {
          "components": [
            {
              "internalType": "address",
              "name": "recipient",
              "type": "address"
            },
            {
              "internalType": "address",
              "name": "tokenIn",
              "type": "address"
            },
            {
              "internalType": "address",
              "name": "tokenOut",
              "type": "address"
            },
            {
              "internalType": "uint256",
              "name": "amountIn",
              "type": "uint256"
            },
            {
              "internalType": "uint256",
              "name": "amountOut",
              "type": "uint256"
            },
            {
              "internalType": "enum UniswapSwapper.MulticallResultAttribute",
              "name": "resultType",
              "type": "uint8"
            }
          ],
          "internalType": "struct UniswapSwapper.MulticallData",
          "name": "",
          "type": "tuple"
        }
      ],
      "stateMutability": "pure",
      "type": "function"
    },
    {
      "inputs": [
        {
          "internalType": "uint256",
          "name": "amountOut",
          "type": "uint256"
        },
        {
          "internalType": "uint256",
          "name": "amountInMax",
          "type": "uint256"
        },
        {
          "internalType": "address[]",
          "name": "path",
          "type": "address[]"
        },
        {
          "internalType": "address",
          "name": "recipient",
          "type": "address"
        }
      ],
      "name": "swapTokensForExactTokens",
      "outputs": [
        {
          "components": [
            {
              "internalType": "address",
              "name": "recipient",
              "type": "address"
            },
            {
              "internalType": "address",
              "name": "tokenIn",
              "type": "address"
            },
            {
              "internalType": "address",
              "name": "tokenOut",
              "type": "address"
            },
            {
              "internalType": "uint256",
              "name": "amountIn",
              "type": "uint256"
            },
            {
              "internalType": "uint256",
              "name": "amountOut",
              "type": "uint256"
            },
            {
              "internalType": "enum UniswapSwapper.MulticallResultAttribute",
              "name": "resultType",
              "type": "uint8"
            }
          ],
          "internalType": "struct UniswapSwapper.MulticallData",
          "name": "",
          "type": "tuple"
        }
      ],
      "stateMutability": "pure",
      "type": "function"
    },
    {
      "inputs": [
        {
          "internalType": "address",
          "name": "token",
          "type": "address"
        },
        {
          "internalType": "uint256",
          "name": "amountMinimum",
          "type": "uint256"
        },
        {
          "internalType": "address",
          "name": "recipient",
          "type": "address"
        }
      ],
      "name": "sweepToken",
      "outputs": [
        {
          "components": [
            {
              "internalType": "address",
              "name": "recipient",
              "type": "address"
            },
            {
              "internalType": "address",
              "name": "tokenIn",
              "type": "address"
            },
            {
              "internalType": "address",
              "name": "tokenOut",
              "type": "address"
            },
            {
              "internalType": "uint256",
              "name": "amountIn",
              "type": "uint256"
            },
            {
              "internalType": "uint256",
              "name": "amountOut",
              "type": "uint256"
            },
            {
              "internalType": "enum UniswapSwapper.MulticallResultAttribute",
              "name": "resultType",
              "type": "uint8"
            }
          ],
          "internalType": "struct UniswapSwapper.MulticallData",
          "name": "",
          "type": "tuple"
        }
      ],
      "stateMutability": "pure",
      "type": "function"
    },
    {
      "inputs": [],
      "name": "team",
      "outputs": [
        {
          "internalType": "address",
          "name": "",
          "type": "address"
        }
      ],
      "stateMutability": "view",
      "type": "function"
    },
    {
      "inputs": [],
      "name": "text",
      "outputs": [
        {
          "internalType": "string",
          "name": "",
          "type": "string"
        }
      ],
      "stateMutability": "view",
      "type": "function"
    },
    {
      "inputs": [
        {
          "internalType": "address",
          "name": "",
          "type": "address"
        }
      ],
      "name": "toTokensMapping",
      "outputs": [
        {
          "internalType": "bool",
          "name": "",
          "type": "bool"
        }
      ],
      "stateMutability": "view",
      "type": "function"
    },
    {
      "inputs": [],
      "name": "totalAmount",
      "outputs": [
        {
          "internalType": "uint256",
          "name": "",
          "type": "uint256"
        }
      ],
      "stateMutability": "view",
      "type": "function"
    },
    {
      "inputs": [],
      "name": "transactionType",
      "outputs": [
        {
          "internalType": "string",
          "name": "",
          "type": "string"
        }
      ],
      "stateMutability": "view",
      "type": "function"
    },
    {
      "inputs": [
        {
          "internalType": "uint256",
          "name": "",
          "type": "uint256"
        }
      ],
      "name": "transactions",
      "outputs": [
        {
          "internalType": "uint256",
          "name": "id",
          "type": "uint256"
        },
        {
          "internalType": "enum CommonBudgetApproval.Status",
          "name": "status",
          "type": "uint8"
        },
        {
          "internalType": "uint32",
          "name": "deadline",
          "type": "uint32"
        },
        {
          "internalType": "bool",
          "name": "isExist",
          "type": "bool"
        },
        {
          "internalType": "uint256",
          "name": "approvedCount",
          "type": "uint256"
        }
      ],
      "stateMutability": "view",
      "type": "function"
    },
    {
      "inputs": [
        {
          "internalType": "uint256",
          "name": "amountMinimum",
          "type": "uint256"
        },
        {
          "internalType": "address",
          "name": "recipient",
          "type": "address"
        }
      ],
      "name": "unwrapWETH9",
      "outputs": [
        {
          "components": [
            {
              "internalType": "address",
              "name": "recipient",
              "type": "address"
            },
            {
              "internalType": "address",
              "name": "tokenIn",
              "type": "address"
            },
            {
              "internalType": "address",
              "name": "tokenOut",
              "type": "address"
            },
            {
              "internalType": "uint256",
              "name": "amountIn",
              "type": "uint256"
            },
            {
              "internalType": "uint256",
              "name": "amountOut",
              "type": "uint256"
            },
            {
              "internalType": "enum UniswapSwapper.MulticallResultAttribute",
              "name": "resultType",
              "type": "uint8"
            }
          ],
          "internalType": "struct UniswapSwapper.MulticallData",
          "name": "",
          "type": "tuple"
        }
      ],
      "stateMutability": "pure",
      "type": "function"
    },
    {
      "inputs": [],
      "name": "usageCount",
      "outputs": [
        {
          "internalType": "uint256",
          "name": "",
          "type": "uint256"
        }
      ],
      "stateMutability": "view",
      "type": "function"
    }
  ],
  "transactionHash": "0x7db2fd1ce426a9b08f3835cb32fb777b818f5fdb51b3934aff01f0614049a9a8",
  "args": [],
  "numDeployments": 3,
  "solcInputHash": "5fc3db6744f3ddd0f1dd7c5e591b869e",
  "bytecode": "0x60806040523480156200001157600080fd5b506200001c62000036565b6200002662000036565b6200003062000036565b620000f8565b600054610100900460ff1615620000a35760405162461bcd60e51b815260206004820152602760248201527f496e697469616c697a61626c653a20636f6e747261637420697320696e697469604482015266616c697a696e6760c81b606482015260840160405180910390fd5b60005460ff9081161015620000f6576000805460ff191660ff9081179091556040519081527f7f26b83ff96e1f2b6a682f133852f6798a09c465da95921460cefb38474024989060200160405180910390a15b565b614ba180620001086000396000f3fe6080604052600436106102c95760003560e01c806378e9792511610175578063bc9c5e90116100dc578063e019c23c11610095578063ee22610b1161006f578063ee22610b146108cb578063f3995c67146108de578063f5c03852146108fe578063f961f79a1461091c57600080fd5b8063e019c23c14610876578063e99dd44414610896578063ec3ca875146108ab57600080fd5b8063bc9c5e90146107d9578063c34c08e5146107f9578063cf26fec614610817578063d96c91961461082c578063de755e2f14610841578063df2ab5bb1461085657600080fd5b806397c85a611161012e57806397c85a61146106b35780639ace38c2146106d3578063a63cee6d1461073f578063a7d69bd21461076f578063b18b32fb1461079f578063b858183f146107b957600080fd5b806378e979251461061c5780637a5a0d13146106315780637cd47d9314610651578063850154371461066657806385f2aef21461068057806392a85fde1461069557600080fd5b8063472b43f3116102345780635ad32502116101ed57806363d727dc116101c757806363d727dc146105855780636bdebe5e146105ac578063735631ad146105e5578063765b60321461060757600080fd5b80635ad3250214610538578063608e09121461055057806360d8bb221461056557600080fd5b8063472b43f31461046c57806349404b7c1461048c5780634aa4a4fc146104ac5780634c41e0e3146104d45780635023b4df1461050357806350bd881f1461052357600080fd5b80631a39d8ef116102865780631a39d8ef146103bd5780631f1bd692146103d35780633197cbb6146103e857806331a7bdd9146103fd5780633814d2511461041f57806342712a671461044c57600080fd5b806303ff90f6146102ce57806304e45aaf146102f257806306fdde031461031f57806309b813461461037557806312210e8a1461039557806314b893f9146103aa575b600080fd5b3480156102da57600080fd5b506008545b6040519081526020015b60405180910390f35b3480156102fe57600080fd5b5061031261030d3660046142e7565b61094b565b6040516102e9919061487d565b34801561032b57600080fd5b506103686040518060400160405280601e81526020017f556e6973776170204c69717569642042756467657420417070726f76616c000081525081565b6040516102e99190614813565b34801561038157600080fd5b506103126103903660046142b3565b6109da565b3480156103a157600080fd5b50610312610ab4565b6102df6103b8366004613fad565b610af1565b3480156103c957600080fd5b506102df60455481565b3480156103df57600080fd5b50610368610c38565b3480156103f457600080fd5b50600e546102df565b34801561040957600080fd5b50610412610cca565b6040516102e99190614763565b34801561042b57600080fd5b5061043f61043a366004614247565b610dc8565b6040516102e991906147c5565b34801561045857600080fd5b506103126104673660046144a6565b611095565b34801561047857600080fd5b506103126104873660046144a6565b611149565b34801561049857600080fd5b506103126104a736600461442b565b6111f5565b3480156104b857600080fd5b5060005b6040516001600160a01b0390911681526020016102e9565b3480156104e057600080fd5b506046546104f390610100900460ff1681565b60405190151581526020016102e9565b34801561050f57600080fd5b5061031261051e3660046142e7565b611275565b34801561052f57600080fd5b50600c546102df565b34801561054457600080fd5b50600b5460ff166104f3565b34801561055c57600080fd5b506104bc611300565b34801561057157600080fd5b506102df610580366004613eaf565b611389565b34801561059157600080fd5b5061059a61151f565b60405160ff90911681526020016102e9565b3480156105b857600080fd5b506104f36105c7366004613d98565b6001600160a01b031660009081526006602052604090205460ff1690565b3480156105f157600080fd5b506106056106003660046143f9565b6115ca565b005b34801561061357600080fd5b506104bc600181565b34801561062857600080fd5b50600d546102df565b34801561063d57600080fd5b506104bc61064c3660046143f9565b6116b2565b34801561065d57600080fd5b506103686116dc565b34801561067257600080fd5b506044546104f39060ff1681565b34801561068c57600080fd5b506104bc6116eb565b3480156106a157600080fd5b506041546001600160a01b03166104bc565b3480156106bf57600080fd5b506106056106ce36600461445b565b611737565b3480156106df57600080fd5b5061072e6106ee3660046143f9565b600260208190526000918252604090912080549181015460039091015460ff8083169263ffffffff61010082041692650100000000009091049091169085565b6040516102e995949392919061489f565b34801561074b57600080fd5b506104f361075a366004613d98565b60436020526000908152604090205460ff1681565b34801561077b57600080fd5b506104f361078a366004613d98565b60476020526000908152604090205460ff1681565b3480156107ab57600080fd5b5060465461059a9060ff1681565b3480156107c557600080fd5b506103126107d43660046142b3565b6118ee565b3480156107e557600080fd5b506104f36107f4366004613d98565b611982565b34801561080557600080fd5b506003546001600160a01b03166104bc565b34801561082357600080fd5b50610605611a2b565b34801561083857600080fd5b506007546102df565b34801561084d57600080fd5b506004546102df565b34801561086257600080fd5b50610312610871366004613edb565b611ba9565b34801561088257600080fd5b506102df610891366004613e2b565b611c16565b3480156108a257600080fd5b506104bc600281565b3480156108b757600080fd5b506106056108c6366004614303565b611d0e565b6106056108d93660046143f9565b611f6a565b3480156108ea57600080fd5b506103126108f9366004613f1d565b612257565b34801561090a57600080fd5b506005546001600160a01b03166104bc565b34801561092857600080fd5b5061093c610937366004614203565b61229a565b6040516102e993929190614661565b610953613861565b6040805160c081019091528061096f6080850160608601613d98565b6001600160a01b0316815260209081019061098c90850185613d98565b6001600160a01b031681526020018360200160208101906109ad9190613d98565b6001600160a01b031681526080840135602082015260a0840135604082015260600160025b905292915050565b6109e2613861565b6040518060c00160405280836020016020810190610a009190613d98565b6001600160a01b03168152602001610a5a6000610a1d868061491e565b8080601f01602080910402602001604051908101604052809392919081815260200183838082843760009201919091525092939250506123aa9050565b6001600160a01b03168152602001610a8c6014610a77868061491e565b610a82929150614a37565b610a1d868061491e565b6001600160a01b031681526060808501356020830152604080860135908301520160016109d2565b610abc613861565b6040805160c08101825260008082526020820181905291810182905260608101829052608081018290529060a0820152919050565b6000610afc3361240f565b610b19576040516341c8302160e11b815260040160405180910390fd5b610b27600180546001019055565b6000610b3260015490565b6000818152600260209081526040909120828155895192935091610b5e916001840191908b0190613894565b506002810180546501000000000065ffffffffff001990911661010063ffffffff8b160265ff0000000000191617179055600854610bb857600082815260026020819052604090912001805460ff19166001179055610bd3565b600082815260026020819052604090912001805460ff191690555b600281015460405183917f8a5186dbaf6f344b2837e11834be94edebb633f05034f422c6b1fe1595b4d0cc91610c16918c918c9160ff16908b908b903390614708565b60405180910390a28515610c2d57610c2d82611f6a565b509695505050505050565b606060098054610c4790614a91565b80601f0160208091040260200160405190810160405280929190818152602001828054610c7390614a91565b8015610cc05780601f10610c9557610100808354040283529160200191610cc0565b820191906000526020600020905b815481529060010190602001808311610ca357829003601f168201915b5050505050905090565b6040805160038082526080820190925260609160009190816020015b6060815260200190600190039081610ce65790505090506040518060400160405280600a8152602001696164647265737320746f60b01b81525081600081518110610d3357610d33614b0d565b60200260200101819052506040518060400160405280600a8152602001696279746573206461746160b01b81525081600181518110610d7457610d74614b0d565b60200260200101819052506040518060400160405280600d81526020016c75696e743235362076616c756560981b81525081600281518110610db857610db8614b0d565b6020908102919091010152919050565b60606000610dd58561244f565b90506060600085905082516001600160401b03811115610df757610df7614b23565b604051908082528060200260200182016040528015610e3057816020015b610e1d613861565b815260200190600190039081610e155790505b5093508451600014610e535784806020019051810190610e509190613f79565b91505b60005b835181101561106b57600080306001600160a01b0316868481518110610e7e57610e7e614b0d565b6020026020010151604051610e939190614645565b600060405180830381855afa9150503d8060008114610ece576040519150601f19603f3d011682016040523d82523d6000602084013e610ed3565b606091505b509150915081610f0157806040516354be790560e01b8152600401610ef89190614813565b60405180910390fd5b600081806020019051810190610f1791906143dd565b60208101519091506001600160a01b0316158015610f3457508415155b15610f8a578481606001511115610f5e57604051630384a1ed60e31b815260040160405180910390fd5b73eeeeeeeeeeeeeeeeeeeeeeeeeeeeeeeeeeeeeeee60208201526060810151610f879086614a37565b94505b8551156110375760018160a001516002811115610fa957610fa9614af7565b1415610fe657858481518110610fc157610fc1614b0d565b6020026020010151806020019051810190610fdc9190614412565b6060820152611037565b60028160a001516002811115610ffe57610ffe614af7565b14156110375785848151811061101657611016614b0d565b60200260200101518060200190518101906110319190614412565b60808201525b8088858151811061104a5761104a614b0d565b6020026020010181905250505050808061106390614ac6565b915050610e56565b50801561108b57604051632dc2279b60e11b815260040160405180910390fd5b5050509392505050565b61109d613861565b6040518060c00160405280836001600160a01b03168152602001858560008181106110ca576110ca614b0d565b90506020020160208101906110df9190613d98565b6001600160a01b0316815260200185856110fa600182614a37565b81811061110957611109614b0d565b905060200201602081019061111e9190613d98565b6001600160a01b03168152602081018790526040810188905260600160015b90529695505050505050565b611151613861565b6040518060c00160405280836001600160a01b031681526020018585600081811061117e5761117e614b0d565b90506020020160208101906111939190613d98565b6001600160a01b0316815260200185856111ae600182614a37565b8181106111bd576111bd614b0d565b90506020020160208101906111d29190613d98565b6001600160a01b031681526020810188905260408101879052606001600261113d565b6111fd613861565b6040518060c00160405280836001600160a01b0316815260200160006001600160a01b0316815260200173eeeeeeeeeeeeeeeeeeeeeeeeeeeeeeeeeeeeeeee6001600160a01b03168152602001600081526020018481526020016000600281111561126a5761126a614af7565b905290505b92915050565b61127d613861565b6040805160c08101909152806112996080850160608601613d98565b6001600160a01b031681526020908101906112b690850185613d98565b6001600160a01b031681526020018360200160208101906112d79190613d98565b6001600160a01b0316815260a084013560208201526080840135604082015260600160016109d2565b60006113146005546001600160a01b031690565b6001600160a01b031663608e09126040518163ffffffff1660e01b815260040160206040518083038186803b15801561134c57600080fd5b505afa158015611360573d6000803e3d6000fd5b505050506040513d601f19601f820116820180604052508101906113849190613db5565b905090565b60008061139e6041546001600160a01b031690565b905060006113aa611300565b90506113b4611300565b6001600160a01b031663ce58da33866113d56041546001600160a01b031690565b6040516001600160e01b031960e085901b1681526001600160a01b0392831660048201529116602482015260440160206040518083038186803b15801561141b57600080fd5b505afa15801561142f573d6000803e3d6000fd5b505050506040513d601f19601f82011682018060405250810190611453919061416c565b611496578461146a6041546001600160a01b031690565b604051633d487fe560e11b81526001600160a01b03928316600482015291166024820152604401610ef8565b604051633806708f60e21b81526001600160a01b0382169063e019c23c906114c690889086908990600401614661565b60206040518083038186803b1580156114de57600080fd5b505afa1580156114f2573d6000803e3d6000fd5b505050506040513d601f19601f820116820180604052508101906115169190614412565b95945050505050565b6000806115346041546001600160a01b031690565b90506001600160a01b038116611010141561155157601291505090565b806001600160a01b031663313ce5676040518163ffffffff1660e01b815260040160206040518083038186803b15801561158a57600080fd5b505afa9250505080156115ba575060408051601f3d908101601f191682019092526115b791810190614510565b60015b61126f57600091505090565b5090565b6115d33361240f565b6115f0576040516341c8302160e11b815260040160405180910390fd5b806115fa60015490565b101561161c57604051630761edaf60e51b815260048101829052602401610ef8565b600081815260026020819052604090912081015460ff169081600381111561164657611646614af7565b1415611669578181604051637006f4f960e11b8152600401610ef892919061488b565b6000828152600260208190526040808320909101805460ff191660031790555183917f92a917be073b79ab50f9d997e9514a5d101e052ce04228014947e7883a7c034691a25050565b604281815481106116c257600080fd5b6000918252602090912001546001600160a01b0316905081565b6060600a8054610c4790614a91565b60006116ff6005546001600160a01b031690565b6001600160a01b03166385f2aef26040518163ffffffff1660e01b815260040160206040518083038186803b15801561134c57600080fd5b6117403361253b565b61175d576040516321d9821d60e01b815260040160405180910390fd5b8261176760015490565b101561178957604051630761edaf60e51b815260048101849052602401610ef8565b600083815260026020819052604082209081015460039091015460ff90911691906117b59060016149de565b905060008260038111156117cb576117cb614af7565b141580156117eb575060018260038111156117e8576117e8614af7565b14155b1561180d578482604051637006f4f960e11b8152600401610ef892919061488b565b600085815260026020908152604080832033845260040190915290205460ff161561184b57604051634b1a897d60e01b815260040160405180910390fd5b6000858152600260208181526040808420338552600481018352908420805460ff19166001179055928890525260030181905561188760085490565b81106118ab57600085815260026020819052604090912001805460ff191660011790555b847f3399030f87676a97e30e211a48f9c46e2ff806d0b4cedf7100782f08c52902c93386866040516118df939291906146b9565b60405180910390a25050505050565b6118f6613861565b6040518060c001604052808360200160208101906119149190613d98565b6001600160a01b031681526020016119316000610a1d868061491e565b6001600160a01b0316815260200161194e6014610a77868061491e565b6001600160a01b0316815260200183604001358152602001836060013581526020016002808111156109d2576109d2614af7565b600061198c611300565b6001600160a01b031663ce58da33836119ad6041546001600160a01b031690565b6040516001600160e01b031960e085901b1681526001600160a01b0392831660048201529116602482015260440160206040518083038186803b1580156119f357600080fd5b505afa158015611a07573d6000803e3d6000fd5b505050506040513d601f19601f8201168201806040525081019061126f919061416c565b6005546001600160a01b03163314611a565760405163668faa7560e01b815260040160405180910390fd5b6040517368b3465833fb72a70ecdf485e0e4c7bd8665fc456024820152600019604482015260009060640160408051601f198184030181529190526020810180516001600160e01b031663095ea7b360e01b17905290506000611ac16005546001600160a01b031690565b60425490915060005b81811015611ba357600060428281548110611ae757611ae7614b0d565b6000918252602090912001546001600160a01b031690506110108114611b905760405163d3abc28b60e01b81526001600160a01b0385169063d3abc28b90611b389084908990600090600401614685565b600060405180830381600087803b158015611b5257600080fd5b505af1158015611b66573d6000803e3d6000fd5b505050506040513d6000823e601f3d908101601f19168201604052611b8e91908101906141cf565b505b5080611b9b81614ac6565b915050611aca565b50505050565b611bb1613861565b6040518060c00160405280836001600160a01b0316815260200160006001600160a01b03168152602001856001600160a01b031681526020016000815260200184815260200160006002811115611c0a57611c0a614af7565b905290505b9392505050565b600080611c21611300565b9050611c2b611300565b60405163ce58da3360e01b81526001600160a01b0387811660048301528681166024830152919091169063ce58da339060440160206040518083038186803b158015611c7657600080fd5b505afa158015611c8a573d6000803e3d6000fd5b505050506040513d601f19601f82011682018060405250810190611cae919061416c565b611cde57604051633d487fe560e11b81526001600160a01b03808716600483015285166024820152604401610ef8565b604051633806708f60e21b81526001600160a01b0382169063e019c23c906114c690889088908890600401614661565b600054610100900460ff1615808015611d2e5750600054600160ff909116105b80611d485750303b158015611d48575060005460ff166001145b611dab5760405162461bcd60e51b815260206004820152602e60248201527f496e697469616c697a61626c653a20636f6e747261637420697320616c72656160448201526d191e481a5b9a5d1a585b1a5e995960921b6064820152608401610ef8565b6000805460ff191660011790558015611dce576000805461ff0019166101001790555b611dd78a61256a565b6044805460ff199081168715151790915560458590556046805490911660ff8516179055604180546001600160a01b0319166001600160a01b03841617905560005b8951811015611e5657611e448a8281518110611e3757611e37614b0d565b6020026020010151612810565b80611e4e81614ac6565b915050611e19565b506046805461ff0019166101008a15150217905560005b86811015611eb657611ea4888883818110611e8a57611e8a614b0d565b9050602002016020810190611e9f9190613d98565b612951565b80611eae81614ac6565b915050611e6d565b506000611ec1611300565b6001600160a01b03161415611f185760405162461bcd60e51b815260206004820152601c60248201527f4163636f756e74696e6753797374656d206973207265717569726564000000006044820152606401610ef8565b8015611f5e576000805461ff0019169055604051600181527f7f26b83ff96e1f2b6a682f133852f6798a09c465da95921460cefb38474024989060200160405180910390a15b50505050505050505050565b60008181526002602081905260409091200154819060019060ff1681816003811115611f9857611f98614af7565b14611fba578281604051637006f4f960e11b8152600401610ef892919061488b565b600084815260026020819052604090912001548490610100900463ffffffff16421115611ffd57604051636634e92360e01b815260048101829052602401610ef8565b600d54421015612020576040516319b9482d60e31b815260040160405180910390fd5b600e544210612041576040516268af4b60e91b815260040160405180910390fd5b61204a3361240f565b612067576040516341c8302160e11b815260040160405180910390fd5b6000612075600b5460ff1690565b90506000612082600c5490565b9050600060026000898152602001908152602001600020600101805480602002602001604051908101604052809291908181526020016000905b828210156121685783829060005260206000200180546120db90614a91565b80601f016020809104026020016040519081016040528092919081815260200182805461210790614a91565b80156121545780601f1061212957610100808354040283529160200191612154565b820191906000526020600020905b81548152906001019060200180831161213757829003601f168201915b5050505050815260200190600101906120bc565b50505050905060005b81518110156121ec5783158015612186575082155b156121a45760405163a5be600560e01b815260040160405180910390fd5b836121b757826121b381614a7a565b9350505b6121da898383815181106121cd576121cd614b0d565b6020026020010151612a01565b806121e481614ac6565b915050612171565b50600c82905560008881526002602081905260409091208101805460ff19166001830217905550877f9060adf413860c5ab6e376e0aa4269e49a13f0853edb1583fce8129d4c756d7982336040516122459291906146de565b60405180910390a25050505050505050565b61225f613861565b6040805160c08101825260008082526020820181905291810182905260608101829052608081018290529060a0820152979650505050505050565b60008080806122a98682612ab9565b90506001600160e01b03198116630d0e30db60e41b14156122e85773eeeeeeeeeeeeeeeeeeeeeeeeeeeeeeeeeeeeeeee600086935093509350506123a3565b6001600160e01b03198116632e1a7d4d60e01b141561235157600073eeeeeeeeeeeeeeeeeeeeeeeeeeeeeeeeeeeeeeee6123326004808a5161232a9190614a37565b8a9190612b16565b8060200190518101906123459190614412565b935093509350506123a3565b60405162461bcd60e51b815260206004820152602160248201527f4661696c656420746f206465636f646520556e69737761702062797465636f646044820152606560f81b6064820152608401610ef8565b9250925092565b60006123b78260146149de565b835110156123ff5760405162461bcd60e51b8152602060048201526015602482015274746f416464726573735f6f75744f66426f756e647360581b6044820152606401610ef8565b500160200151600160601b900490565b60006124236003546001600160a01b031690565b6001600160a01b0316826001600160a01b0316148061126f575061126f8261244a60045490565b612c23565b6060600061245d8382612ab9565b90506001600160e01b031981166316b9007760e21b14156124ae57612492600480855161248a9190614a37565b859190612b16565b8060200190518101906124a59190614189565b92506125359050565b6001600160e01b03198116631f0464d160e01b14156124d957612492600480855161248a9190614a37565b60405162461bcd60e51b815260206004820152602b60248201527f4661696c656420746f206465636f646520556e6973776170206d756c7469636160448201526a6c6c2062797465636f646560a81b6064820152608401610ef8565b50919050565b6001600160a01b03811660009081526006602052604081205460ff168061126f575061126f8261244a60075490565b600054610100900460ff166125d55760405162461bcd60e51b815260206004820152602b60248201527f496e697469616c697a61626c653a20636f6e7472616374206973206e6f74206960448201526a6e697469616c697a696e6760a81b6064820152608401610ef8565b60608101351580156125f857506125ef60408201826148d5565b90508160800135115b1561261657604051635039c6e160e01b815260040160405180910390fd5b600580546001600160a01b031916331790556126356020820182613d98565b600380546001600160a01b0319166001600160a01b039290921691909117905561266260a082018261491e565b61266e916009916138ed565b5061267c60c082018261491e565b61268891600a916138ed565b50608081013560085560e0810135600d55610100810135600e556126b46101408201610120830161414f565b600b805460ff1916911515919091179055610140810135600c556020810135600455606081013560075560005b6126ee60408301836148d5565b90508110156127da5760016006600061270a60408601866148d5565b8581811061271a5761271a614b0d565b905060200201602081019061272f9190613d98565b6001600160a01b0316815260208101919091526040908101600020805460ff1916921515929092179091557f4664777dbfbcb27de0f602e1da5d5a259992cd7edf5b29192929c96e8fd50def90612788908401846148d5565b8381811061279857612798614b0d565b90506020020160208101906127ad9190613d98565b6040516001600160a01b03909116815260200160405180910390a1806127d281614ac6565b9150506126e1565b5060006127e56116eb565b6001600160a01b0316141561280d576040516309ec7e6960e41b815260040160405180910390fd5b50565b6001600160a01b03811660009081526043602052604090205460ff161561286c5760405162461bcd60e51b815260206004820152601060248201526f223ab83634b1b0ba32b2103a37b5b2b760811b6044820152606401610ef8565b61287581611982565b6128b65760405162461bcd60e51b81526020600482015260126024820152712ab73932b9b7b63b30b13632903a37b5b2b760711b6044820152606401610ef8565b6042805460018082019092557f38dfe4635b27babeca8be38d3b448cb5161a639b899a14825ba9c8d7892eb8c30180546001600160a01b0319166001600160a01b038416908117909155600081815260436020908152604091829020805460ff1916909417909355519081527f14009112f2dcb15cad32dab6bf972d6d85286e4ae1178f27323ffe25359459e691015b60405180910390a150565b6001600160a01b03811660009081526047602052604090205460ff16156129ad5760405162461bcd60e51b815260206004820152601060248201526f223ab83634b1b0ba32b2103a37b5b2b760811b6044820152606401610ef8565b6001600160a01b038116600081815260476020908152604091829020805460ff1916600117905590519182527f0df56a0b46d63ff03be79aa2e27aa9f7d6af565748bac8f4b41d6df16ba9f6189101612946565b600080600083806020019051810190612a1a9190613dd2565b919450925090506001600160a01b0383167368b3465833fb72a70ecdf485e0e4c7bd8665fc451415612a5757612a5285848484612cb6565b612ab2565b6001600160a01b038316612a7157612a5285848484613362565b60405162461bcd60e51b8152602060048201526016602482015275496e76616c696420746172676574206164647265737360501b6044820152606401610ef8565b5050505050565b6000612ac68260046149de565b83511015612b0d5760405162461bcd60e51b8152602060048201526014602482015273746f4279746573345f6f75744f66426f756e647360601b6044820152606401610ef8565b50016020015190565b606081612b2481601f6149de565b1015612b635760405162461bcd60e51b815260206004820152600e60248201526d736c6963655f6f766572666c6f7760901b6044820152606401610ef8565b612b6d82846149de565b84511015612bb15760405162461bcd60e51b8152602060048201526011602482015270736c6963655f6f75744f66426f756e647360781b6044820152606401610ef8565b606082158015612bd05760405191506000825260208201604052612c1a565b6040519150601f8416801560200281840101858101878315602002848b0101015b81831015612c09578051835260209283019201612bf1565b5050858452601f01601f1916604052505b50949350505050565b600080612c2e6116eb565b604051627eeac760e11b81526001600160a01b03868116600483015260248201869052919091169062fdd58e9060440160206040518083038186803b158015612c7657600080fd5b505afa158015612c8a573d6000803e3d6000fd5b505050506040513d601f19601f82011682018060405250810190612cae9190614412565b119392505050565b6000612cc06136ea565b90506000612cd66005546001600160a01b031690565b90506000816001600160a01b031663d3abc28b8787876040518463ffffffff1660e01b8152600401612d0a93929190614685565b600060405180830381600087803b158015612d2457600080fd5b505af1158015612d38573d6000803e3d6000fd5b505050506040513d6000823e601f3d908101601f19168201604052612d6091908101906141cf565b604051633814d25160e01b81529091506000903090633814d25190612d8d90899089908790600401614848565b60006040518083038186803b158015612da557600080fd5b505afa158015612db9573d6000803e3d6000fd5b505050506040513d6000823e601f3d908101601f19168201604052612de191908101906140ad565b60008981526049602090815260408083206048909252822092935091905b83518110156131b3576000848281518110612e1c57612e1c614b0d565b6020026020010151905060006001600160a01b031681600001516001600160a01b03161480612e55575080516001600160a01b03166001145b80612e6a575080516001600160a01b03166002145b80612e8a5750866001600160a01b031681600001516001600160a01b0316145b612ed65760405162461bcd60e51b815260206004820152601960248201527f526563697069656e74206e6f742077686974656c6973746564000000000000006044820152606401610ef8565b6020808201516001600160a01b03166000908152908490526040902054606082015115613061576020808301516001600160a01b031660009081526043909152604090205460ff16612f6a5760405162461bcd60e51b815260206004820152601c60248201527f536f7572636520746f6b656e206e6f742077686974656c6973746564000000006044820152606401610ef8565b80612fa757602082810151865460018101885560008881529290922090910180546001600160a01b0319166001600160a01b039092169190911790555b6060820151612fb690826149de565b84600084602001516001600160a01b03166001600160a01b03168152602001908152602001600020819055507368b3465833fb72a70ecdf485e0e4c7bd8665fc456001600160a01b0316336001600160a01b03168e7f6b2315dc82c675e98d173b73a035ea18b30fa040368177ae8dfa90d3cd5a127a856020015186606001516040516130589291906001600160a01b03929092168252602082015260400190565b60405180910390a45b6000826080015111801561309e575081516001600160a01b03166001148061309e5750876001600160a01b031682600001516001600160a01b0316145b1561319e57604654610100900460ff16806130d357506040808301516001600160a01b031660009081526047602052205460ff165b61311f5760405162461bcd60e51b815260206004820152601c60248201527f54617267657420746f6b656e206e6f742077686974656c6973746564000000006044820152606401610ef8565b7368b3465833fb72a70ecdf485e0e4c7bd8665fc456001600160a01b0316336001600160a01b03168e7ff10ffe9795dc198303bf64c2f1bfec7ed5256325dee3026154df4c82f43c54f0856040015186608001516040516131959291906001600160a01b03929092168252602082015260400190565b60405180910390a45b505080806131ab90614ac6565b915050612dff565b5060445460455460ff909116908115806131d45750604654606460ff909116105b15613354578354600090815b8181101561324e5760008782815481106131fc576131fc614b0d565b60009182526020808320909101546001600160a01b03168083529089905260409091205490915061322e908290611389565b61323890856149de565b935050808061324690614ac6565b9150506131e0565b506000821161329f5760405162461bcd60e51b815260206004820152601e60248201527f5377617020616d6f756e742073686f756c64206e6f74206265207a65726f00006044820152606401610ef8565b83806132ab5750828211155b6132ed5760405162461bcd60e51b8152602060048201526013602482015272115e18d959591959081b585e08185b5bdd5b9d606a1b6044820152606401610ef8565b6132f78a83613812565b6133395760405162461bcd60e51b815260206004820152601360248201527245786365656465642070657263656e7461676560681b6044820152606401610ef8565b60445460ff166133515761334d8284614a37565b6045555b50505b505050505050505050505050565b600061336c6136ea565b60445460455491925060ff169061338b6005546001600160a01b031690565b6001600160a01b031663d3abc28b8787876040518463ffffffff1660e01b81526004016133ba93929190614685565b600060405180830381600087803b1580156133d457600080fd5b505af11580156133e8573d6000803e3d6000fd5b505050506040513d6000823e601f3d908101601f1916820160405261341091908101906141cf565b50604051637cb0fbcd60e11b815260009081908190309063f961f79a9061343d908b908b90600401614826565b60606040518083038186803b15801561345557600080fd5b505afa158015613469573d6000803e3d6000fd5b505050506040513d601f19601f8201168201806040525081019061348d9190613e6c565b925092509250600061349f8483611389565b6001600160a01b03851660009081526043602052604090205490915060ff1661350a5760405162461bcd60e51b815260206004820152601c60248201527f536f7572636520746f6b656e206e6f742077686974656c6973746564000000006044820152606401610ef8565b604654610100900460ff168061353857506001600160a01b03831660009081526047602052604090205460ff165b6135845760405162461bcd60e51b815260206004820152601c60248201527f54617267657420746f6b656e206e6f742077686974656c6973746564000000006044820152606401610ef8565b600081116135df5760405162461bcd60e51b815260206004820152602260248201527f5472616e7366657220616d6f756e742073686f756c64206e6f74206265207a65604482015261726f60f01b6064820152608401610ef8565b85806135eb5750848111155b61362d5760405162461bcd60e51b8152602060048201526013602482015272115e18d959591959081b585e08185b5bdd5b9d606a1b6044820152606401610ef8565b6136378782613812565b6136795760405162461bcd60e51b815260206004820152601360248201527245786365656465642070657263656e7461676560681b6044820152606401610ef8565b8561368c576136888186614a37565b6045555b60006001600160a01b0316336001600160a01b03168c7ff2600da0d3c22c74870d03f19fbe7663ec5f72616966e884f806a2d44ee7d6448787876040516136d593929190614661565b60405180910390a45050505050505050505050565b604254600090816137036005546001600160a01b031690565b905060005b8281101561380c5760006042828154811061372557613725614b0d565b6000918252602090912001546001600160a01b0316905061101081141561376d5761375c611010846001600160a01b031631611389565b61376690866149de565b94506137f9565b6040516370a0823160e01b81526001600160a01b0384811660048301526137ec9183918216906370a082319060240160206040518083038186803b1580156137b457600080fd5b505afa1580156137c8573d6000803e3d6000fd5b505050506040513d601f19601f820116820180604052508101906105809190614412565b6137f690866149de565b94505b508061380481614ac6565b915050613708565b50505090565b60465460009060ff16606481141561382e57600191505061126f565b8361383d57600091505061126f565b606461384c60ff831686614a18565b61385691906149f6565b909211159392505050565b6040805160c08101825260008082526020820181905291810182905260608101829052608081018290529060a082015290565b8280548282559060005260206000209081019282156138e1579160200282015b828111156138e157825180516138d191849160209091019061396d565b50916020019190600101906138b4565b506115c69291506139e1565b8280546138f990614a91565b90600052602060002090601f01602090048101928261391b5760008555613961565b82601f106139345782800160ff19823516178555613961565b82800160010185558215613961579182015b82811115613961578235825591602001919060010190613946565b506115c69291506139fe565b82805461397990614a91565b90600052602060002090601f01602090048101928261399b5760008555613961565b82601f106139b457805160ff1916838001178555613961565b82800160010185558215613961579182015b828111156139615782518255916020019190600101906139c6565b808211156115c65760006139f58282613a13565b506001016139e1565b5b808211156115c657600081556001016139ff565b508054613a1f90614a91565b6000825580601f10613a2f575050565b601f01602090049060005260206000209081019061280d91906139fe565b8035613a5881614b39565b919050565b60008083601f840112613a6f57600080fd5b5081356001600160401b03811115613a8657600080fd5b6020830191508360208260051b8501011115613aa157600080fd5b9250929050565b600082601f830112613ab957600080fd5b81356020613ace613ac983614994565b614964565b80838252828201915082860187848660051b8901011115613aee57600080fd5b60005b85811015613b16578135613b0481614b39565b84529284019290840190600101613af1565b5090979650505050505050565b600082601f830112613b3457600080fd5b81516020613b44613ac983614994565b80838252828201915082860187848660051b8901011115613b6457600080fd5b6000805b86811015613ba65782516001600160401b03811115613b85578283fd5b613b938b88838d0101613c10565b8652509385019391850191600101613b68565b509198975050505050505050565b8035613a5881614b4e565b600082601f830112613bd057600080fd5b8135613bde613ac9826149b7565b818152846020838601011115613bf357600080fd5b816020850160208301376000918101602001919091529392505050565b600082601f830112613c2157600080fd5b8151613c2f613ac9826149b7565b818152846020838601011115613c4457600080fd5b613c55826020830160208701614a4e565b949350505050565b60008083601f840112613c6f57600080fd5b5081356001600160401b03811115613c8657600080fd5b602083019150836020828501011115613aa157600080fd5b60006080828403121561253557600080fd5b600060e0828403121561253557600080fd5b6000610160828403121561253557600080fd5b600060c08284031215613ce757600080fd5b60405160c081018181106001600160401b0382111715613d0957613d09614b23565b80604052508091508251613d1c81614b39565b81526020830151613d2c81614b39565b60208201526040830151613d3f81614b39565b80604083015250606083015160608201526080830151608082015260a083015160038110613d6c57600080fd5b60a0919091015292915050565b803563ffffffff81168114613a5857600080fd5b8035613a5881614b5c565b600060208284031215613daa57600080fd5b8135611c0f81614b39565b600060208284031215613dc757600080fd5b8151611c0f81614b39565b600080600060608486031215613de757600080fd5b8351613df281614b39565b60208501519093506001600160401b03811115613e0e57600080fd5b613e1a86828701613c10565b925050604084015190509250925092565b600080600060608486031215613e4057600080fd5b8335613e4b81614b39565b92506020840135613e5b81614b39565b929592945050506040919091013590565b600080600060608486031215613e8157600080fd5b8351613e8c81614b39565b6020850151909350613e9d81614b39565b80925050604084015190509250925092565b60008060408385031215613ec257600080fd5b8235613ecd81614b39565b946020939093013593505050565b600080600060608486031215613ef057600080fd5b8335613efb81614b39565b9250602084013591506040840135613f1281614b39565b809150509250925092565b60008060008060008060c08789031215613f3657600080fd5b8635613f4181614b39565b955060208701359450604087013593506060870135613f5f81614b5c565b9598949750929560808101359460a0909101359350915050565b600060208284031215613f8b57600080fd5b81516001600160401b03811115613fa157600080fd5b613c5584828501613b23565b600080600080600060808688031215613fc557600080fd5b6001600160401b038087351115613fdb57600080fd5b8635870188601f820112613fee57600080fd5b80356020613ffe613ac983614994565b8083825282820191508285018d848660051b880101111561401e57600080fd5b60005b8581101561405857878235111561403757600080fd5b6140468f8684358a0101613bbf565b84529284019290840190600101614021565b5050809a50505061406a818b01613d79565b975050505061407b60408801613bb4565b935060608701358181111561408f57600080fd5b61409b89828a01613c5d565b979a9699509497509395949350505050565b600060208083850312156140c057600080fd5b82516001600160401b038111156140d657600080fd5b8301601f810185136140e757600080fd5b80516140f5613ac982614994565b8181528381019083850160c0808502860187018a101561411457600080fd5b600095505b848610156141415761412b8a83613cd5565b8452600195909501949286019290810190614119565b509098975050505050505050565b60006020828403121561416157600080fd5b8135611c0f81614b4e565b60006020828403121561417e57600080fd5b8151611c0f81614b4e565b6000806040838503121561419c57600080fd5b8251915060208301516001600160401b038111156141b957600080fd5b6141c585828601613b23565b9150509250929050565b6000602082840312156141e157600080fd5b81516001600160401b038111156141f757600080fd5b613c5584828501613c10565b6000806040838503121561421657600080fd5b82356001600160401b0381111561422c57600080fd5b61423885828601613bbf565b95602094909401359450505050565b60008060006060848603121561425c57600080fd5b83356001600160401b038082111561427357600080fd5b61427f87838801613bbf565b945060208601359350604086013591508082111561429c57600080fd5b506142a986828701613bbf565b9150509250925092565b6000602082840312156142c557600080fd5b81356001600160401b038111156142db57600080fd5b613c5584828501613c9e565b600060e082840312156142f957600080fd5b611c0f8383613cb0565b60008060008060008060008060006101008a8c03121561432257600080fd5b89356001600160401b038082111561433957600080fd5b6143458d838e01613cc2565b9a5060208c013591508082111561435b57600080fd5b6143678d838e01613aa8565b995061437560408d01613bb4565b985060608c013591508082111561438b57600080fd5b506143988c828d01613a5d565b90975095506143ab905060808b01613bb4565b935060a08a013592506143c060c08b01613d8d565b91506143ce60e08b01613a4d565b90509295985092959850929598565b600060c082840312156143ef57600080fd5b611c0f8383613cd5565b60006020828403121561440b57600080fd5b5035919050565b60006020828403121561442457600080fd5b5051919050565b6000806040838503121561443e57600080fd5b82359150602083013561445081614b39565b809150509250929050565b60008060006040848603121561447057600080fd5b8335925060208401356001600160401b0381111561448d57600080fd5b61449986828701613c5d565b9497909650939450505050565b6000806000806000608086880312156144be57600080fd5b853594506020860135935060408601356001600160401b038111156144e257600080fd5b6144ee88828901613a5d565b909450925050606086013561450281614b39565b809150509295509295909350565b60006020828403121561452257600080fd5b8151611c0f81614b5c565b600081518084526020808501808196508360051b8101915082860160005b85811015614575578284038952614563848351614582565b9885019893509084019060010161454b565b5091979650505050505050565b6000815180845261459a816020860160208601614a4e565b601f01601f19169290920160200192915050565b600481106145be576145be614af7565b9052565b81835281816020850137506000828201602090810191909152601f909101601f19169091010190565b60018060a01b0380825116835280602083015116602084015280604083015116604084015250606081015160608301526080810151608083015260a08101516003811061463a5761463a614af7565b8060a0840152505050565b60008251614657818460208701614a4e565b9190910192915050565b6001600160a01b039384168152919092166020820152604081019190915260600190565b6001600160a01b03841681526060602082018190526000906146a990830185614582565b9050826040830152949350505050565b6001600160a01b038416815260406020820181905260009061151690830184866145c2565b6040815260006146f1604083018561452d565b905060018060a01b03831660208301529392505050565b60a08152600061471b60a083018961452d565b63ffffffff8816602084015261473460408401886145ae565b82810360608401526147478186886145c2565b91505060018060a01b0383166080830152979650505050505050565b6000602080830181845280855180835260408601915060408160051b870101925083870160005b828110156147b857603f198886030184526147a6858351614582565b9450928501929085019060010161478a565b5092979650505050505050565b6020808252825182820181905260009190848201906040850190845b81811015614807576147f48385516145eb565b9284019260c092909201916001016147e1565b50909695505050505050565b602081526000611c0f6020830184614582565b6040815260006148396040830185614582565b90508260208301529392505050565b60608152600061485b6060830186614582565b84602084015282810360408401526148738185614582565b9695505050505050565b60c0810161126f82846145eb565b82815260408101611c0f60208301846145ae565b85815260a081016148b360208301876145ae565b63ffffffff949094166040820152911515606083015260809091015292915050565b6000808335601e198436030181126148ec57600080fd5b8301803591506001600160401b0382111561490657600080fd5b6020019150600581901b3603821315613aa157600080fd5b6000808335601e1984360301811261493557600080fd5b8301803591506001600160401b0382111561494f57600080fd5b602001915036819003821315613aa157600080fd5b604051601f8201601f191681016001600160401b038111828210171561498c5761498c614b23565b604052919050565b60006001600160401b038211156149ad576149ad614b23565b5060051b60200190565b60006001600160401b038211156149d0576149d0614b23565b50601f01601f191660200190565b600082198211156149f1576149f1614ae1565b500190565b600082614a1357634e487b7160e01b600052601260045260246000fd5b500490565b6000816000190483118215151615614a3257614a32614ae1565b500290565b600082821015614a4957614a49614ae1565b500390565b60005b83811015614a69578181015183820152602001614a51565b83811115611ba35750506000910152565b600081614a8957614a89614ae1565b506000190190565b600181811c90821680614aa557607f821691505b6020821081141561253557634e487b7160e01b600052602260045260246000fd5b6000600019821415614ada57614ada614ae1565b5060010190565b634e487b7160e01b600052601160045260246000fd5b634e487b7160e01b600052602160045260246000fd5b634e487b7160e01b600052603260045260246000fd5b634e487b7160e01b600052604160045260246000fd5b6001600160a01b038116811461280d57600080fd5b801515811461280d57600080fd5b60ff8116811461280d57600080fdfea2646970667358221220a95c5c129630304dc3ec663e2a3744dcb4c943b3c47ed341ba8bd7681f47b22164736f6c63430008070033",
  "devdoc": {
    "kind": "dev",
    "methods": {
      "constructor": {
        "custom:oz-upgrades-unsafe-allow": "constructor"
      }
    },
    "version": 1
  },
  "userdoc": {
    "kind": "user",
    "methods": {
      "assetBaseCurrencyPrice(address,uint256)": {
        "notice": "This function is imported by other contract, thus cannot be external"
      },
      "canResolvePrice(address)": {
        "notice": "This function is imported by other contract, thus cannot be external"
      }
    },
    "version": 1
  },
  "storageLayout": {
    "storage": [
      {
        "astId": 3247,
        "contract": "contracts/UniswapLiquidBudgetApproval.sol:UniswapLiquidBudgetApproval",
        "label": "_initialized",
        "offset": 0,
        "slot": "0",
        "type": "t_uint8"
      },
      {
        "astId": 3250,
        "contract": "contracts/UniswapLiquidBudgetApproval.sol:UniswapLiquidBudgetApproval",
        "label": "_initializing",
        "offset": 1,
        "slot": "0",
        "type": "t_bool"
      },
      {
        "astId": 20031,
        "contract": "contracts/UniswapLiquidBudgetApproval.sol:UniswapLiquidBudgetApproval",
        "label": "_transactionIds",
        "offset": 0,
        "slot": "1",
        "type": "t_struct(Counter)10069_storage"
      },
      {
        "astId": 20036,
        "contract": "contracts/UniswapLiquidBudgetApproval.sol:UniswapLiquidBudgetApproval",
        "label": "transactions",
        "offset": 0,
        "slot": "2",
        "type": "t_mapping(t_uint256,t_struct(Transaction)19975_storage)"
      },
      {
        "astId": 20038,
        "contract": "contracts/UniswapLiquidBudgetApproval.sol:UniswapLiquidBudgetApproval",
        "label": "_executor",
        "offset": 0,
        "slot": "3",
        "type": "t_address"
      },
      {
        "astId": 20040,
        "contract": "contracts/UniswapLiquidBudgetApproval.sol:UniswapLiquidBudgetApproval",
        "label": "_executorTeamId",
        "offset": 0,
        "slot": "4",
        "type": "t_uint256"
      },
      {
        "astId": 20042,
        "contract": "contracts/UniswapLiquidBudgetApproval.sol:UniswapLiquidBudgetApproval",
        "label": "_executee",
        "offset": 0,
        "slot": "5",
        "type": "t_address"
      },
      {
        "astId": 20046,
        "contract": "contracts/UniswapLiquidBudgetApproval.sol:UniswapLiquidBudgetApproval",
        "label": "_approversMapping",
        "offset": 0,
        "slot": "6",
        "type": "t_mapping(t_address,t_bool)"
      },
      {
        "astId": 20048,
        "contract": "contracts/UniswapLiquidBudgetApproval.sol:UniswapLiquidBudgetApproval",
        "label": "_approverTeamId",
        "offset": 0,
        "slot": "7",
        "type": "t_uint256"
      },
      {
        "astId": 20050,
        "contract": "contracts/UniswapLiquidBudgetApproval.sol:UniswapLiquidBudgetApproval",
        "label": "_minApproval",
        "offset": 0,
        "slot": "8",
        "type": "t_uint256"
      },
      {
        "astId": 20052,
        "contract": "contracts/UniswapLiquidBudgetApproval.sol:UniswapLiquidBudgetApproval",
        "label": "_text",
        "offset": 0,
        "slot": "9",
        "type": "t_string_storage"
      },
      {
        "astId": 20054,
        "contract": "contracts/UniswapLiquidBudgetApproval.sol:UniswapLiquidBudgetApproval",
        "label": "_transactionType",
        "offset": 0,
        "slot": "10",
        "type": "t_string_storage"
      },
      {
        "astId": 20056,
        "contract": "contracts/UniswapLiquidBudgetApproval.sol:UniswapLiquidBudgetApproval",
        "label": "_allowUnlimitedUsageCount",
        "offset": 0,
        "slot": "11",
        "type": "t_bool"
      },
      {
        "astId": 20058,
        "contract": "contracts/UniswapLiquidBudgetApproval.sol:UniswapLiquidBudgetApproval",
        "label": "_usageCount",
        "offset": 0,
        "slot": "12",
        "type": "t_uint256"
      },
      {
        "astId": 20060,
        "contract": "contracts/UniswapLiquidBudgetApproval.sol:UniswapLiquidBudgetApproval",
        "label": "_startTime",
        "offset": 0,
        "slot": "13",
        "type": "t_uint256"
      },
      {
        "astId": 20062,
        "contract": "contracts/UniswapLiquidBudgetApproval.sol:UniswapLiquidBudgetApproval",
        "label": "_endTime",
        "offset": 0,
        "slot": "14",
        "type": "t_uint256"
      },
      {
        "astId": 22115,
        "contract": "contracts/UniswapLiquidBudgetApproval.sol:UniswapLiquidBudgetApproval",
        "label": "__gap",
        "offset": 0,
        "slot": "15",
        "type": "t_array(t_uint256)50_storage"
      },
      {
        "astId": 18776,
        "contract": "contracts/UniswapLiquidBudgetApproval.sol:UniswapLiquidBudgetApproval",
        "label": "_baseCurrency",
        "offset": 0,
        "slot": "65",
        "type": "t_address"
      },
      {
        "astId": 18779,
        "contract": "contracts/UniswapLiquidBudgetApproval.sol:UniswapLiquidBudgetApproval",
        "label": "fromTokens",
        "offset": 0,
        "slot": "66",
        "type": "t_array(t_address)dyn_storage"
      },
      {
        "astId": 18783,
        "contract": "contracts/UniswapLiquidBudgetApproval.sol:UniswapLiquidBudgetApproval",
        "label": "fromTokensMapping",
        "offset": 0,
        "slot": "67",
        "type": "t_mapping(t_address,t_bool)"
      },
      {
        "astId": 18785,
        "contract": "contracts/UniswapLiquidBudgetApproval.sol:UniswapLiquidBudgetApproval",
        "label": "allowAnyAmount",
        "offset": 0,
        "slot": "68",
        "type": "t_bool"
      },
      {
        "astId": 18787,
        "contract": "contracts/UniswapLiquidBudgetApproval.sol:UniswapLiquidBudgetApproval",
        "label": "totalAmount",
        "offset": 0,
        "slot": "69",
        "type": "t_uint256"
      },
      {
        "astId": 18789,
        "contract": "contracts/UniswapLiquidBudgetApproval.sol:UniswapLiquidBudgetApproval",
        "label": "amountPercentage",
        "offset": 0,
        "slot": "70",
        "type": "t_uint8"
      },
      {
        "astId": 18791,
        "contract": "contracts/UniswapLiquidBudgetApproval.sol:UniswapLiquidBudgetApproval",
        "label": "allowAllToTokens",
        "offset": 1,
        "slot": "70",
        "type": "t_bool"
      },
      {
        "astId": 18795,
        "contract": "contracts/UniswapLiquidBudgetApproval.sol:UniswapLiquidBudgetApproval",
        "label": "toTokensMapping",
        "offset": 0,
        "slot": "71",
        "type": "t_mapping(t_address,t_bool)"
      },
      {
        "astId": 18801,
        "contract": "contracts/UniswapLiquidBudgetApproval.sol:UniswapLiquidBudgetApproval",
        "label": "_tokenInAmountOfTransaction",
        "offset": 0,
        "slot": "72",
        "type": "t_mapping(t_uint256,t_mapping(t_address,t_uint256))"
      },
      {
        "astId": 18806,
        "contract": "contracts/UniswapLiquidBudgetApproval.sol:UniswapLiquidBudgetApproval",
        "label": "_tokenInOfTransaction",
        "offset": 0,
        "slot": "73",
        "type": "t_mapping(t_uint256,t_array(t_address)dyn_storage)"
      }
    ],
    "types": {
      "t_address": {
        "encoding": "inplace",
        "label": "address",
        "numberOfBytes": "20"
      },
      "t_array(t_address)dyn_storage": {
        "base": "t_address",
        "encoding": "dynamic_array",
        "label": "address[]",
        "numberOfBytes": "32"
      },
      "t_array(t_bytes_storage)dyn_storage": {
        "base": "t_bytes_storage",
        "encoding": "dynamic_array",
        "label": "bytes[]",
        "numberOfBytes": "32"
      },
      "t_array(t_uint256)50_storage": {
        "base": "t_uint256",
        "encoding": "inplace",
        "label": "uint256[50]",
        "numberOfBytes": "1600"
      },
      "t_bool": {
        "encoding": "inplace",
        "label": "bool",
        "numberOfBytes": "1"
      },
      "t_bytes_storage": {
        "encoding": "bytes",
        "label": "bytes",
        "numberOfBytes": "32"
      },
      "t_enum(Status)19956": {
        "encoding": "inplace",
        "label": "enum CommonBudgetApproval.Status",
        "numberOfBytes": "1"
      },
      "t_mapping(t_address,t_bool)": {
        "encoding": "mapping",
        "key": "t_address",
        "label": "mapping(address => bool)",
        "numberOfBytes": "32",
        "value": "t_bool"
      },
      "t_mapping(t_address,t_uint256)": {
        "encoding": "mapping",
        "key": "t_address",
        "label": "mapping(address => uint256)",
        "numberOfBytes": "32",
        "value": "t_uint256"
      },
      "t_mapping(t_uint256,t_array(t_address)dyn_storage)": {
        "encoding": "mapping",
        "key": "t_uint256",
        "label": "mapping(uint256 => address[])",
        "numberOfBytes": "32",
        "value": "t_array(t_address)dyn_storage"
      },
      "t_mapping(t_uint256,t_mapping(t_address,t_uint256))": {
        "encoding": "mapping",
        "key": "t_uint256",
        "label": "mapping(uint256 => mapping(address => uint256))",
        "numberOfBytes": "32",
        "value": "t_mapping(t_address,t_uint256)"
      },
      "t_mapping(t_uint256,t_struct(Transaction)19975_storage)": {
        "encoding": "mapping",
        "key": "t_uint256",
        "label": "mapping(uint256 => struct CommonBudgetApproval.Transaction)",
        "numberOfBytes": "32",
        "value": "t_struct(Transaction)19975_storage"
      },
      "t_string_storage": {
        "encoding": "bytes",
        "label": "string",
        "numberOfBytes": "32"
      },
      "t_struct(Counter)10069_storage": {
        "encoding": "inplace",
        "label": "struct Counters.Counter",
        "members": [
          {
            "astId": 10068,
            "contract": "contracts/UniswapLiquidBudgetApproval.sol:UniswapLiquidBudgetApproval",
            "label": "_value",
            "offset": 0,
            "slot": "0",
            "type": "t_uint256"
          }
        ],
        "numberOfBytes": "32"
      },
      "t_struct(Transaction)19975_storage": {
        "encoding": "inplace",
        "label": "struct CommonBudgetApproval.Transaction",
        "members": [
          {
            "astId": 19958,
            "contract": "contracts/UniswapLiquidBudgetApproval.sol:UniswapLiquidBudgetApproval",
            "label": "id",
            "offset": 0,
            "slot": "0",
            "type": "t_uint256"
          },
          {
            "astId": 19961,
            "contract": "contracts/UniswapLiquidBudgetApproval.sol:UniswapLiquidBudgetApproval",
            "label": "data",
            "offset": 0,
            "slot": "1",
            "type": "t_array(t_bytes_storage)dyn_storage"
          },
          {
            "astId": 19964,
            "contract": "contracts/UniswapLiquidBudgetApproval.sol:UniswapLiquidBudgetApproval",
            "label": "status",
            "offset": 0,
            "slot": "2",
            "type": "t_enum(Status)19956"
          },
          {
            "astId": 19966,
            "contract": "contracts/UniswapLiquidBudgetApproval.sol:UniswapLiquidBudgetApproval",
            "label": "deadline",
            "offset": 1,
            "slot": "2",
            "type": "t_uint32"
          },
          {
            "astId": 19968,
            "contract": "contracts/UniswapLiquidBudgetApproval.sol:UniswapLiquidBudgetApproval",
            "label": "isExist",
            "offset": 5,
            "slot": "2",
            "type": "t_bool"
          },
          {
            "astId": 19970,
            "contract": "contracts/UniswapLiquidBudgetApproval.sol:UniswapLiquidBudgetApproval",
            "label": "approvedCount",
            "offset": 0,
            "slot": "3",
            "type": "t_uint256"
          },
          {
            "astId": 19974,
            "contract": "contracts/UniswapLiquidBudgetApproval.sol:UniswapLiquidBudgetApproval",
            "label": "approved",
            "offset": 0,
            "slot": "4",
            "type": "t_mapping(t_address,t_bool)"
          }
        ],
        "numberOfBytes": "160"
      },
      "t_uint256": {
        "encoding": "inplace",
        "label": "uint256",
        "numberOfBytes": "32"
      },
      "t_uint32": {
        "encoding": "inplace",
        "label": "uint32",
        "numberOfBytes": "4"
      },
      "t_uint8": {
        "encoding": "inplace",
        "label": "uint8",
        "numberOfBytes": "1"
      }
    }
  }
}