{
  "address": "0x0c14F3A2709c219835824056Ad7369c9fCC1638c",
  "abi": [
    {
      "inputs": [],
      "stateMutability": "nonpayable",
      "type": "constructor"
    },
    {
      "anonymous": false,
      "inputs": [
        {
          "indexed": false,
          "internalType": "address",
          "name": "priceGateway",
          "type": "address"
        }
      ],
      "name": "AddPriceGateway",
      "type": "event"
    },
    {
      "anonymous": false,
      "inputs": [
        {
          "indexed": false,
          "internalType": "address",
          "name": "previousAdmin",
          "type": "address"
        },
        {
          "indexed": false,
          "internalType": "address",
          "name": "newAdmin",
          "type": "address"
        }
      ],
      "name": "AdminChanged",
      "type": "event"
    },
    {
      "anonymous": false,
      "inputs": [
        {
          "indexed": true,
          "internalType": "address",
          "name": "beacon",
          "type": "address"
        }
      ],
      "name": "BeaconUpgraded",
      "type": "event"
    },
    {
      "anonymous": false,
      "inputs": [
        {
          "indexed": false,
          "internalType": "uint8",
          "name": "version",
          "type": "uint8"
        }
      ],
      "name": "Initialized",
      "type": "event"
    },
    {
      "anonymous": false,
      "inputs": [
        {
          "indexed": true,
          "internalType": "address",
          "name": "implementation",
          "type": "address"
        }
      ],
      "name": "Upgraded",
      "type": "event"
    },
    {
      "inputs": [
        {
          "internalType": "address",
          "name": "priceGateway",
          "type": "address"
        }
      ],
      "name": "addPriceGateway",
      "outputs": [],
      "stateMutability": "nonpayable",
      "type": "function"
    },
    {
      "inputs": [
        {
          "internalType": "address",
          "name": "asset",
          "type": "address"
        },
        {
          "internalType": "address",
          "name": "base",
          "type": "address"
        },
        {
          "internalType": "uint256",
          "name": "amount",
          "type": "uint256"
        }
      ],
      "name": "assetPrice",
      "outputs": [
        {
          "internalType": "uint256",
          "name": "",
          "type": "uint256"
        }
      ],
      "stateMutability": "view",
      "type": "function"
    },
    {
      "inputs": [],
      "name": "dao",
      "outputs": [
        {
          "internalType": "contract IDao",
          "name": "",
          "type": "address"
        }
      ],
      "stateMutability": "view",
      "type": "function"
    },
    {
      "inputs": [],
      "name": "defaultPriceGateway",
      "outputs": [
        {
          "internalType": "address",
          "name": "",
          "type": "address"
        }
      ],
      "stateMutability": "view",
      "type": "function"
    },
    {
      "inputs": [
        {
          "internalType": "address",
          "name": "owner",
          "type": "address"
        },
        {
          "internalType": "address[]",
          "name": "_priceGateways",
          "type": "address[]"
        }
      ],
      "name": "initialize",
      "outputs": [],
      "stateMutability": "nonpayable",
      "type": "function"
    },
    {
      "inputs": [
        {
          "internalType": "address",
          "name": "asset",
          "type": "address"
        },
        {
          "internalType": "address",
          "name": "base",
          "type": "address"
        }
      ],
      "name": "isSupportedPair",
      "outputs": [
        {
          "internalType": "bool",
          "name": "",
          "type": "bool"
        }
      ],
      "stateMutability": "view",
      "type": "function"
    },
    {
      "inputs": [
        {
          "internalType": "address",
          "name": "",
          "type": "address"
        }
      ],
      "name": "priceGateways",
      "outputs": [
        {
          "internalType": "bool",
          "name": "",
          "type": "bool"
        }
      ],
      "stateMutability": "view",
      "type": "function"
    },
    {
      "inputs": [],
      "name": "proxiableUUID",
      "outputs": [
        {
          "internalType": "bytes32",
          "name": "",
          "type": "bytes32"
        }
      ],
      "stateMutability": "view",
      "type": "function"
    },
    {
      "inputs": [
        {
          "internalType": "address[]",
          "name": "_assets",
          "type": "address[]"
        },
        {
          "internalType": "address[]",
          "name": "_bases",
          "type": "address[]"
        },
        {
          "internalType": "address",
          "name": "priceGateway",
          "type": "address"
        }
      ],
      "name": "setTokenPairPriceGatewayMap",
      "outputs": [],
      "stateMutability": "nonpayable",
      "type": "function"
    },
    {
      "inputs": [
        {
          "internalType": "address",
          "name": "",
          "type": "address"
        },
        {
          "internalType": "address",
          "name": "",
          "type": "address"
        }
      ],
      "name": "tokenPairPriceGatewayMap",
      "outputs": [
        {
          "internalType": "address",
          "name": "",
          "type": "address"
        }
      ],
      "stateMutability": "view",
      "type": "function"
    },
    {
      "inputs": [
        {
          "internalType": "address",
          "name": "newImplementation",
          "type": "address"
        }
      ],
      "name": "upgradeTo",
      "outputs": [],
      "stateMutability": "nonpayable",
      "type": "function"
    },
    {
      "inputs": [
        {
          "internalType": "address",
          "name": "newImplementation",
          "type": "address"
        },
        {
          "internalType": "bytes",
          "name": "data",
          "type": "bytes"
        }
      ],
      "name": "upgradeToAndCall",
      "outputs": [],
      "stateMutability": "payable",
      "type": "function"
    }
  ],
  "transactionHash": "0x8ae52e07ee9094b2e938004b54683fe44b2b838292396f318b2e9661b40179ca",
  "args": [],
  "numDeployments": 1,
  "solcInputHash": "70e1f5ca25b90829c437d7956253b8d4",
  "bytecode": "0x60a06040523060601b60805234801561001757600080fd5b50610020610025565b6100e5565b600054610100900460ff16156100915760405162461bcd60e51b815260206004820152602760248201527f496e697469616c697a61626c653a20636f6e747261637420697320696e697469604482015266616c697a696e6760c81b606482015260840160405180910390fd5b60005460ff90811610156100e3576000805460ff191660ff9081179091556040519081527f7f26b83ff96e1f2b6a682f133852f6798a09c465da95921460cefb38474024989060200160405180910390a15b565b60805160601c611a8d61011f60003960008181610292015281816102db015281816105270152818161056701526105fa0152611a8d6000f3fe6080604052600436106100a75760003560e01c806391133764116100645780639113376414610186578063946d9204146101c6578063c949d3e6146101e6578063cbec417714610227578063ce58da3314610247578063e019c23c1461026757600080fd5b80633659cfe6146100ac5780634162169f146100ce57806344e9506d146101105780634f1ef2861461013057806352d1902d14610143578063599efac514610166575b600080fd5b3480156100b857600080fd5b506100cc6100c736600461154a565b610287565b005b3480156100da57600080fd5b506065546100f39061010090046001600160a01b031681565b6040516001600160a01b0390911681526020015b60405180910390f35b34801561011c57600080fd5b506100cc61012b366004611774565b610370565b6100cc61013e3660046116cc565b61051c565b34801561014f57600080fd5b506101586105ed565b604051908152602001610107565b34801561017257600080fd5b506100cc61018136600461154a565b6106a0565b34801561019257600080fd5b506101b66101a136600461154a565b60676020526000908152604090205460ff1681565b6040519015158152602001610107565b3480156101d257600080fd5b506100cc6101e13660046115fe565b610844565b3480156101f257600080fd5b506100f3610201366004611584565b60686020908152600092835260408084209091529082529020546001600160a01b031681565b34801561023357600080fd5b506066546100f3906001600160a01b031681565b34801561025357600080fd5b506101b6610262366004611584565b610a03565b34801561027357600080fd5b506101586102823660046115bd565b610ac1565b306001600160a01b037f00000000000000000000000000000000000000000000000000000000000000001614156102d95760405162461bcd60e51b81526004016102d0906118b1565b60405180910390fd5b7f00000000000000000000000000000000000000000000000000000000000000006001600160a01b0316610322600080516020611a11833981519152546001600160a01b031690565b6001600160a01b0316146103485760405162461bcd60e51b81526004016102d0906118fd565b61035181610c16565b6040805160008082526020820190925261036d91839190610db0565b50565b60408051808201909152600781526611d95b995c985b60ca1b60208201526065546001600160a01b036101008204169060ff1661050657604051635b6dde2b60e11b81523360048201526001600160a01b0382169063b6dbbc569060240160206040518083038186803b1580156103e657600080fd5b505afa1580156103fa573d6000803e3d6000fd5b505050506040513d601f19601f8201168201806040525081019061041e91906117f8565b806104b5575060405163031a79b160e61b81526001600160a01b0382169063c69e6c409061045090859060040161187e565b60206040518083038186803b15801561046857600080fd5b505afa15801561047c573d6000803e3d6000fd5b505050506040513d601f19601f820116820180604052508101906104a09190611567565b6001600160a01b0316336001600160a01b0316145b60408051808201909152601081526f2230b79d1037b7363c9023b7bb32b93760811b60208201526104e69084610f2a565b906105045760405162461bcd60e51b81526004016102d0919061187e565b505b6105138787878787610f56565b50505050505050565b306001600160a01b037f00000000000000000000000000000000000000000000000000000000000000001614156105655760405162461bcd60e51b81526004016102d0906118b1565b7f00000000000000000000000000000000000000000000000000000000000000006001600160a01b03166105ae600080516020611a11833981519152546001600160a01b031690565b6001600160a01b0316146105d45760405162461bcd60e51b81526004016102d0906118fd565b6105dd82610c16565b6105e982826001610db0565b5050565b6000306001600160a01b037f0000000000000000000000000000000000000000000000000000000000000000161461068d5760405162461bcd60e51b815260206004820152603860248201527f555550535570677261646561626c653a206d757374206e6f742062652063616c60448201527f6c6564207468726f7567682064656c656761746563616c6c000000000000000060648201526084016102d0565b50600080516020611a1183398151915290565b60408051808201909152600781526611d95b995c985b60ca1b60208201526065546001600160a01b036101008204169060ff1661083657604051635b6dde2b60e11b81523360048201526001600160a01b0382169063b6dbbc569060240160206040518083038186803b15801561071657600080fd5b505afa15801561072a573d6000803e3d6000fd5b505050506040513d601f19601f8201168201806040525081019061074e91906117f8565b806107e5575060405163031a79b160e61b81526001600160a01b0382169063c69e6c409061078090859060040161187e565b60206040518083038186803b15801561079857600080fd5b505afa1580156107ac573d6000803e3d6000fd5b505050506040513d601f19601f820116820180604052508101906107d09190611567565b6001600160a01b0316336001600160a01b0316145b60408051808201909152601081526f2230b79d1037b7363c9023b7bb32b93760811b60208201526108169084610f2a565b906108345760405162461bcd60e51b81526004016102d0919061187e565b505b61083f83611211565b505050565b600054610100900460ff16158080156108645750600054600160ff909116105b8061087e5750303b15801561087e575060005460ff166001145b6108e15760405162461bcd60e51b815260206004820152602e60248201527f496e697469616c697a61626c653a20636f6e747261637420697320616c72656160448201526d191e481a5b9a5d1a585b1a5e995960921b60648201526084016102d0565b6000805460ff191660011790558015610904576000805461ff0019166101001790555b606580546001600160a01b038516610100026001600160a81b031990911617600117905560005b82518110156109ae578061097a5782818151811061094b5761094b6119cf565b6020026020010151606660006101000a8154816001600160a01b0302191690836001600160a01b031602179055505b61099c83828151811061098f5761098f6119cf565b60200260200101516106a0565b806109a6816119a6565b91505061092b565b506065805460ff19169055801561083f576000805461ff0019169055604051600181527f7f26b83ff96e1f2b6a682f133852f6798a09c465da95921460cefb38474024989060200160405180910390a1505050565b6001600160a01b0382811660009081526068602090815260408083208585168452909152812054909116151580610aba575060665460405163ce58da3360e01b81526001600160a01b03858116600483015284811660248301529091169063ce58da339060440160206040518083038186803b158015610a8257600080fd5b505afa158015610a96573d6000803e3d6000fd5b505050506040513d601f19601f82011682018060405250810190610aba91906117f8565b9392505050565b6000610acd8484610a03565b610b195760405162461bcd60e51b815260206004820152601860248201527f4e6f7420537570706f727465642050726963652050616972000000000000000060448201526064016102d0565b6001600160a01b0384811660009081526068602090815260408083208785168452909152812054909116610b58576066546001600160a01b0316610b81565b6001600160a01b0380861660009081526068602090815260408083208885168452909152902054165b604051633806708f60e21b81526001600160a01b0387811660048301528681166024830152604482018690529192509082169063e019c23c9060640160206040518083038186803b158015610bd557600080fd5b505afa158015610be9573d6000803e3d6000fd5b505050506040513d601f19601f82011682018060405250810190610c0d919061181a565b95945050505050565b60408051808201909152600781526611d95b995c985b60ca1b60208201526065546001600160a01b036101008204169060ff1661083f57604051635b6dde2b60e11b81523360048201526001600160a01b0382169063b6dbbc569060240160206040518083038186803b158015610c8c57600080fd5b505afa158015610ca0573d6000803e3d6000fd5b505050506040513d601f19601f82011682018060405250810190610cc491906117f8565b80610d5b575060405163031a79b160e61b81526001600160a01b0382169063c69e6c4090610cf690859060040161187e565b60206040518083038186803b158015610d0e57600080fd5b505afa158015610d22573d6000803e3d6000fd5b505050506040513d601f19601f82011682018060405250810190610d469190611567565b6001600160a01b0316336001600160a01b0316145b60408051808201909152601081526f2230b79d1037b7363c9023b7bb32b93760811b6020820152610d8c9084610f2a565b90610daa5760405162461bcd60e51b81526004016102d0919061187e565b50505050565b7f4910fdfa16fed3260ed0e7147f7cc6da11a60208b5b9406d12a635614ffd91435460ff1615610de35761083f836112de565b826001600160a01b03166352d1902d6040518163ffffffff1660e01b815260040160206040518083038186803b158015610e1c57600080fd5b505afa925050508015610e4c575060408051601f3d908101601f19168201909252610e499181019061181a565b60015b610eaf5760405162461bcd60e51b815260206004820152602e60248201527f45524331393637557067726164653a206e657720696d706c656d656e7461746960448201526d6f6e206973206e6f74205555505360901b60648201526084016102d0565b600080516020611a118339815191528114610f1e5760405162461bcd60e51b815260206004820152602960248201527f45524331393637557067726164653a20756e737570706f727465642070726f786044820152681a58589b195555525160ba1b60648201526084016102d0565b5061083f83838361137a565b60608282604051602001610f3f92919061184f565b604051602081830303815290604052905092915050565b6001600160a01b03811660009081526067602052604090205460ff16610fbe5760405162461bcd60e51b815260206004820152601c60248201527f507269636547617465776179204e6f742077686974656c69737465640000000060448201526064016102d0565b83821461100d5760405162461bcd60e51b815260206004820181905260248201527f417373657420626173652070616972206c656e677468206e6f74206d6174636860448201526064016102d0565b60005b8481101561120957816001600160a01b031663ce58da33878784818110611039576110396119cf565b905060200201602081019061104e919061154a565b868685818110611060576110606119cf565b9050602002016020810190611075919061154a565b6040516001600160e01b031960e085901b1681526001600160a01b0392831660048201529116602482015260440160206040518083038186803b1580156110bb57600080fd5b505afa1580156110cf573d6000803e3d6000fd5b505050506040513d601f19601f820116820180604052508101906110f391906117f8565b6111515760405162461bcd60e51b815260206004820152602960248201527f50726963652050616972206e6f7420737570706f72746564206279207072696360448201526865206761746577617960b81b60648201526084016102d0565b8160686000888885818110611168576111686119cf565b905060200201602081019061117d919061154a565b6001600160a01b03166001600160a01b0316815260200190815260200160002060008686858181106111b1576111b16119cf565b90506020020160208101906111c6919061154a565b6001600160a01b039081168252602082019290925260400160002080546001600160a01b0319169290911691909117905580611201816119a6565b915050611010565b505050505050565b6001600160a01b03811660009081526067602052604090205460ff16156112845760405162461bcd60e51b815260206004820152602160248201527f5072696365204761746577617920416c72656164792077686974656c697374656044820152601960fa1b60648201526084016102d0565b6001600160a01b038116600081815260676020908152604091829020805460ff1916600117905590519182527f81626d1aa3487c965b76754ec1ae5c89b1e06ed8a7de45aa92bd8150af6bb8f0910160405180910390a150565b6001600160a01b0381163b61134b5760405162461bcd60e51b815260206004820152602d60248201527f455243313936373a206e657720696d706c656d656e746174696f6e206973206e60448201526c1bdd08184818dbdb9d1c9858dd609a1b60648201526084016102d0565b600080516020611a1183398151915280546001600160a01b0319166001600160a01b0392909216919091179055565b6113838361139f565b6000825111806113905750805b1561083f57610daa83836113df565b6113a8816112de565b6040516001600160a01b038216907fbc7cd75a20ee27fd9adebab32041f755214dbc6bffa90cc0225b39da2e5c2d3b90600090a250565b60606001600160a01b0383163b6114475760405162461bcd60e51b815260206004820152602660248201527f416464726573733a2064656c65676174652063616c6c20746f206e6f6e2d636f6044820152651b9d1c9858dd60d21b60648201526084016102d0565b600080846001600160a01b0316846040516114629190611833565b600060405180830381855af49150503d806000811461149d576040519150601f19603f3d011682016040523d82523d6000602084013e6114a2565b606091505b5091509150610c0d8282604051806060016040528060278152602001611a3160279139606083156114d4575081610aba565b8251156114e45782518084602001fd5b8160405162461bcd60e51b81526004016102d0919061187e565b60008083601f84011261151057600080fd5b50813567ffffffffffffffff81111561152857600080fd5b6020830191508360208260051b850101111561154357600080fd5b9250929050565b60006020828403121561155c57600080fd5b8135610aba816119fb565b60006020828403121561157957600080fd5b8151610aba816119fb565b6000806040838503121561159757600080fd5b82356115a2816119fb565b915060208301356115b2816119fb565b809150509250929050565b6000806000606084860312156115d257600080fd5b83356115dd816119fb565b925060208401356115ed816119fb565b929592945050506040919091013590565b6000806040838503121561161157600080fd5b823561161c816119fb565b915060208381013567ffffffffffffffff8082111561163a57600080fd5b818601915086601f83011261164e57600080fd5b813581811115611660576116606119e5565b8060051b9150611671848301611949565b8181528481019084860184860187018b101561168c57600080fd5b600095505b838610156116bb57803594506116a6856119fb565b84835260019590950194918601918601611691565b508096505050505050509250929050565b600080604083850312156116df57600080fd5b82356116ea816119fb565b915060208381013567ffffffffffffffff8082111561170857600080fd5b818601915086601f83011261171c57600080fd5b81358181111561172e5761172e6119e5565b611740601f8201601f19168501611949565b9150808252878482850101111561175657600080fd5b80848401858401376000848284010152508093505050509250929050565b60008060008060006060868803121561178c57600080fd5b853567ffffffffffffffff808211156117a457600080fd5b6117b089838a016114fe565b909750955060208801359150808211156117c957600080fd5b506117d6888289016114fe565b90945092505060408601356117ea816119fb565b809150509295509295909350565b60006020828403121561180a57600080fd5b81518015158114610aba57600080fd5b60006020828403121561182c57600080fd5b5051919050565b6000825161184581846020870161197a565b9190910192915050565b6000835161186181846020880161197a565b83519083019061187581836020880161197a565b01949350505050565b602081526000825180602084015261189d81604085016020870161197a565b601f01601f19169190910160400192915050565b6020808252602c908201527f46756e6374696f6e206d7573742062652063616c6c6564207468726f7567682060408201526b19195b1959d85d1958d85b1b60a21b606082015260800190565b6020808252602c908201527f46756e6374696f6e206d7573742062652063616c6c6564207468726f7567682060408201526b6163746976652070726f787960a01b606082015260800190565b604051601f8201601f1916810167ffffffffffffffff81118282101715611972576119726119e5565b604052919050565b60005b8381101561199557818101518382015260200161197d565b83811115610daa5750506000910152565b60006000198214156119c857634e487b7160e01b600052601160045260246000fd5b5060010190565b634e487b7160e01b600052603260045260246000fd5b634e487b7160e01b600052604160045260246000fd5b6001600160a01b038116811461036d57600080fdfe360894a13ba1a3210667c828492db98dca3e2076cc3735a920a3ca505d382bbc416464726573733a206c6f772d6c6576656c2064656c65676174652063616c6c206661696c6564a2646970667358221220dfc63cf2d7fbe544f94d4d77524da5f1d2fb63764f762b4767d589b59d93db8864736f6c63430008070033",
  "devdoc": {
    "details": "The contract is interacted with priceResolver.solCustom price gateway is allowed, but need to implement priceGateway.sol and set by governAccountSystem implemented price gateway since it will handle set price by govern",
    "kind": "dev",
    "methods": {
      "addPriceGateway(address)": {
        "details": "This function must be called by govern, will logic occur in internal function",
        "params": {
          "priceGateway": "price Gateway address that want to whitelist"
        }
      },
      "assetPrice(address,address,uint256)": {
        "details": "accept ETH / USD as Asset / Base Token",
        "params": {
          "amount": "Asset Amount in term of Asset decimal",
          "asset": "Asset token address",
          "base": "Base token address"
        }
      },
      "constructor": {
        "custom:oz-upgrades-unsafe-allow": "constructor"
      },
      "isSupportedPair(address,address)": {
        "details": "This function not really check in gateway,since the checking will be done when setting tokenPairPriceGatewayMap",
        "params": {
          "asset": "Asset token address",
          "base": "Base token address"
        },
        "returns": {
          "_0": "Bool Result of the checking"
        }
      },
      "proxiableUUID()": {
        "details": "Implementation of the ERC1822 {proxiableUUID} function. This returns the storage slot used by the implementation. It is used to validate that the this implementation remains valid after an upgrade. IMPORTANT: A proxy pointing at a proxiable contract should not be considered proxiable itself, because this risks bricking a proxy that upgrades to it, by delegating to itself until out of gas. Thus it is critical that this function revert if invoked through a proxy. This is guaranteed by the `notDelegated` modifier."
      },
      "setTokenPairPriceGatewayMap(address[],address[],address)": {
        "details": "This function must be called by govern, will logic occur in internal function",
        "params": {
          "_assets": "Asset List that supported by price gateway",
          "_bases": "Base token List that supported by price gateway",
          "priceGateway": "Price gateway address"
        }
      },
      "upgradeTo(address)": {
        "details": "Upgrade the implementation of the proxy to `newImplementation`. Calls {_authorizeUpgrade}. Emits an {Upgraded} event."
      },
      "upgradeToAndCall(address,bytes)": {
        "details": "Upgrade the implementation of the proxy to `newImplementation`, and subsequently execute the function call encoded in `data`. Calls {_authorizeUpgrade}. Emits an {Upgraded} event."
      }
    },
    "title": "Dao Account System",
    "version": 1
  },
  "userdoc": {
    "kind": "user",
    "methods": {
      "addPriceGateway(address)": {
        "notice": "Add the price gateway to whitelist"
      },
      "assetPrice(address,address,uint256)": {
        "notice": "Provide Asset Price"
      },
      "isSupportedPair(address,address)": {
        "notice": "Check the token pair is support or not"
      },
      "setTokenPairPriceGatewayMap(address[],address[],address)": {
        "notice": "Set the price gateway which will handle the pairs of price"
      }
    },
    "notice": "This contract helps managing price gateway and allow set price by govern",
    "version": 1
  },
  "storageLayout": {
    "storage": [
      {
        "astId": 3247,
        "contract": "contracts/AccountSystem.sol:AccountSystem",
        "label": "_initialized",
        "offset": 0,
        "slot": "0",
        "type": "t_uint8"
      },
      {
        "astId": 3250,
        "contract": "contracts/AccountSystem.sol:AccountSystem",
        "label": "_initializing",
        "offset": 1,
        "slot": "0",
        "type": "t_bool"
      },
      {
        "astId": 3229,
        "contract": "contracts/AccountSystem.sol:AccountSystem",
        "label": "__gap",
        "offset": 0,
        "slot": "1",
        "type": "t_array(t_uint256)50_storage"
      },
      {
        "astId": 3526,
        "contract": "contracts/AccountSystem.sol:AccountSystem",
        "label": "__gap",
        "offset": 0,
        "slot": "51",
        "type": "t_array(t_uint256)50_storage"
      },
      {
        "astId": 20737,
        "contract": "contracts/AccountSystem.sol:AccountSystem",
        "label": "_initializing",
        "offset": 0,
        "slot": "101",
        "type": "t_bool"
      },
      {
        "astId": 20740,
        "contract": "contracts/AccountSystem.sol:AccountSystem",
        "label": "dao",
        "offset": 1,
        "slot": "101",
        "type": "t_contract(IDao)34731"
      },
      {
        "astId": 20742,
        "contract": "contracts/AccountSystem.sol:AccountSystem",
        "label": "defaultPriceGateway",
        "offset": 0,
        "slot": "102",
        "type": "t_address"
      },
      {
        "astId": 20746,
        "contract": "contracts/AccountSystem.sol:AccountSystem",
        "label": "priceGateways",
        "offset": 0,
        "slot": "103",
        "type": "t_mapping(t_address,t_bool)"
      },
      {
        "astId": 20752,
        "contract": "contracts/AccountSystem.sol:AccountSystem",
        "label": "tokenPairPriceGatewayMap",
        "offset": 0,
        "slot": "104",
        "type": "t_mapping(t_address,t_mapping(t_address,t_address))"
      },
      {
        "astId": 21087,
        "contract": "contracts/AccountSystem.sol:AccountSystem",
        "label": "__gap",
        "offset": 0,
        "slot": "105",
        "type": "t_array(t_uint256)50_storage"
      }
    ],
    "types": {
      "t_address": {
        "encoding": "inplace",
        "label": "address",
        "numberOfBytes": "20"
      },
      "t_array(t_uint256)50_storage": {
        "base": "t_uint256",
        "encoding": "inplace",
        "label": "uint256[50]",
        "numberOfBytes": "1600"
      },
      "t_bool": {
        "encoding": "inplace",
        "label": "bool",
        "numberOfBytes": "1"
      },
      "t_contract(IDao)34731": {
        "encoding": "inplace",
        "label": "contract IDao",
        "numberOfBytes": "20"
      },
      "t_mapping(t_address,t_address)": {
        "encoding": "mapping",
        "key": "t_address",
        "label": "mapping(address => address)",
        "numberOfBytes": "32",
        "value": "t_address"
      },
      "t_mapping(t_address,t_bool)": {
        "encoding": "mapping",
        "key": "t_address",
        "label": "mapping(address => bool)",
        "numberOfBytes": "32",
        "value": "t_bool"
      },
      "t_mapping(t_address,t_mapping(t_address,t_address))": {
        "encoding": "mapping",
        "key": "t_address",
        "label": "mapping(address => mapping(address => address))",
        "numberOfBytes": "32",
        "value": "t_mapping(t_address,t_address)"
      },
      "t_uint256": {
        "encoding": "inplace",
        "label": "uint256",
        "numberOfBytes": "32"
      },
      "t_uint8": {
        "encoding": "inplace",
        "label": "uint8",
        "numberOfBytes": "1"
      }
    }
  }
}