{
  "address": "0x13bE847210A785ED002974314C387c91B287D5e7",
  "abi": [
    {
      "inputs": [],
      "stateMutability": "nonpayable",
      "type": "constructor"
    },
    {
      "anonymous": false,
      "inputs": [
        {
          "indexed": false,
          "internalType": "address",
          "name": "token",
          "type": "address"
        },
        {
          "indexed": false,
          "internalType": "uint256",
          "name": "minTokenToAdmit",
          "type": "uint256"
        },
        {
          "indexed": false,
          "internalType": "uint256",
          "name": "tokenId",
          "type": "uint256"
        },
        {
          "indexed": false,
          "internalType": "bool",
          "name": "isMemberToken",
          "type": "bool"
        }
      ],
      "name": "AddAdmissionToken",
      "type": "event"
    },
    {
      "anonymous": false,
      "inputs": [
        {
          "indexed": false,
          "internalType": "address",
          "name": "previousAdmin",
          "type": "address"
        },
        {
          "indexed": false,
          "internalType": "address",
          "name": "newAdmin",
          "type": "address"
        }
      ],
      "name": "AdminChanged",
      "type": "event"
    },
    {
      "anonymous": false,
      "inputs": [
        {
          "indexed": false,
          "internalType": "address",
          "name": "token",
          "type": "address"
        }
      ],
      "name": "AllowDepositToken",
      "type": "event"
    },
    {
      "anonymous": false,
      "inputs": [
        {
          "indexed": true,
          "internalType": "address",
          "name": "beacon",
          "type": "address"
        }
      ],
      "name": "BeaconUpgraded",
      "type": "event"
    },
    {
      "anonymous": false,
      "inputs": [
        {
          "indexed": false,
          "internalType": "address",
          "name": "budgetApproval",
          "type": "address"
        },
        {
          "indexed": false,
          "internalType": "bytes",
          "name": "data",
          "type": "bytes"
        }
      ],
      "name": "CreateBudgetApproval",
      "type": "event"
    },
    {
      "anonymous": false,
      "inputs": [
        {
          "indexed": false,
          "internalType": "address",
          "name": "account",
          "type": "address"
        },
        {
          "indexed": false,
          "internalType": "uint256",
          "name": "depositAmount",
          "type": "uint256"
        }
      ],
      "name": "CreateMember",
      "type": "event"
    },
    {
      "anonymous": false,
      "inputs": [
        {
          "indexed": false,
          "internalType": "address",
          "name": "creator",
          "type": "address"
        },
        {
          "indexed": false,
          "internalType": "address",
          "name": "token",
          "type": "address"
        }
      ],
      "name": "CreateMemberToken",
      "type": "event"
    },
    {
      "anonymous": false,
      "inputs": [
        {
          "indexed": false,
          "internalType": "address",
          "name": "account",
          "type": "address"
        },
        {
          "indexed": false,
          "internalType": "uint256",
          "name": "amount",
          "type": "uint256"
        }
      ],
      "name": "Deposit",
      "type": "event"
    },
    {
      "anonymous": false,
      "inputs": [
        {
          "indexed": false,
          "internalType": "address",
          "name": "budgetApproval",
          "type": "address"
        },
        {
          "indexed": false,
          "internalType": "bytes",
          "name": "data",
          "type": "bytes"
        }
      ],
      "name": "ExecuteByBudgetApproval",
      "type": "event"
    },
    {
      "anonymous": false,
      "inputs": [
        {
          "indexed": false,
          "internalType": "uint8",
          "name": "version",
          "type": "uint8"
        }
      ],
      "name": "Initialized",
      "type": "event"
    },
    {
      "anonymous": false,
      "inputs": [
        {
          "indexed": false,
          "internalType": "address",
          "name": "member",
          "type": "address"
        }
      ],
      "name": "MemberQuit",
      "type": "event"
    },
    {
      "anonymous": false,
      "inputs": [
        {
          "indexed": false,
          "internalType": "address",
          "name": "token",
          "type": "address"
        }
      ],
      "name": "RemoveAdmissionToken",
      "type": "event"
    },
    {
      "anonymous": false,
      "inputs": [
        {
          "indexed": false,
          "internalType": "address",
          "name": "budgetApproval",
          "type": "address"
        }
      ],
      "name": "RevokeBudgetApproval",
      "type": "event"
    },
    {
      "anonymous": false,
      "inputs": [
        {
          "indexed": false,
          "internalType": "address",
          "name": "owner",
          "type": "address"
        },
        {
          "indexed": false,
          "internalType": "uint256",
          "name": "time",
          "type": "uint256"
        }
      ],
      "name": "SetFirstDepositTime",
      "type": "event"
    },
    {
      "anonymous": false,
      "inputs": [
        {
          "indexed": false,
          "internalType": "uint256",
          "name": "locktime",
          "type": "uint256"
        }
      ],
      "name": "UpdateLocktime",
      "type": "event"
    },
    {
      "anonymous": false,
      "inputs": [
        {
          "indexed": false,
          "internalType": "string",
          "name": "logoCID",
          "type": "string"
        }
      ],
      "name": "UpdateLogoCID",
      "type": "event"
    },
    {
      "anonymous": false,
      "inputs": [
        {
          "indexed": false,
          "internalType": "uint256",
          "name": "amount",
          "type": "uint256"
        }
      ],
      "name": "UpdateMinDepositAmount",
      "type": "event"
    },
    {
      "anonymous": false,
      "inputs": [
        {
          "indexed": false,
          "internalType": "string",
          "name": "remark",
          "type": "string"
        }
      ],
      "name": "UpgradeDao",
      "type": "event"
    },
    {
      "anonymous": false,
      "inputs": [
        {
          "indexed": true,
          "internalType": "address",
          "name": "implementation",
          "type": "address"
        }
      ],
      "name": "Upgraded",
      "type": "event"
    },
    {
      "anonymous": false,
      "inputs": [
        {
          "indexed": false,
          "internalType": "uint256",
          "name": "tokenId",
          "type": "uint256"
        }
      ],
      "name": "WhitelistTeam",
      "type": "event"
    },
    {
      "inputs": [],
      "name": "accountSystem",
      "outputs": [
        {
          "internalType": "address",
          "name": "",
          "type": "address"
        }
      ],
      "stateMutability": "view",
      "type": "function"
    },
    {
      "inputs": [],
      "name": "adam",
      "outputs": [
        {
          "internalType": "address",
          "name": "",
          "type": "address"
        }
      ],
      "stateMutability": "view",
      "type": "function"
    },
    {
      "inputs": [
        {
          "internalType": "address",
          "name": "token",
          "type": "address"
        },
        {
          "internalType": "uint256",
          "name": "minTokenToAdmit",
          "type": "uint256"
        },
        {
          "internalType": "uint256",
          "name": "tokenId",
          "type": "uint256"
        }
      ],
      "name": "addAdmissionToken",
      "outputs": [],
      "stateMutability": "nonpayable",
      "type": "function"
    },
    {
      "inputs": [
        {
          "internalType": "address[]",
          "name": "erc20s",
          "type": "address[]"
        }
      ],
      "name": "addAssets",
      "outputs": [],
      "stateMutability": "nonpayable",
      "type": "function"
    },
    {
      "inputs": [
        {
          "internalType": "address",
          "name": "",
          "type": "address"
        }
      ],
      "name": "admissionTokenSetting",
      "outputs": [
        {
          "internalType": "uint256",
          "name": "minTokenToAdmit",
          "type": "uint256"
        },
        {
          "internalType": "uint256",
          "name": "tokenId",
          "type": "uint256"
        },
        {
          "internalType": "bool",
          "name": "active",
          "type": "bool"
        }
      ],
      "stateMutability": "view",
      "type": "function"
    },
    {
      "inputs": [
        {
          "internalType": "uint256",
          "name": "",
          "type": "uint256"
        }
      ],
      "name": "admissionTokens",
      "outputs": [
        {
          "internalType": "address",
          "name": "",
          "type": "address"
        }
      ],
      "stateMutability": "view",
      "type": "function"
    },
    {
      "inputs": [],
      "name": "admissionTokensLength",
      "outputs": [
        {
          "internalType": "uint256",
          "name": "",
          "type": "uint256"
        }
      ],
      "stateMutability": "view",
      "type": "function"
    },
    {
      "inputs": [
        {
          "internalType": "address",
          "name": "account",
          "type": "address"
        },
        {
          "internalType": "uint256",
          "name": "amount",
          "type": "uint256"
        }
      ],
      "name": "afterDeposit",
      "outputs": [],
      "stateMutability": "nonpayable",
      "type": "function"
    },
    {
      "inputs": [],
      "name": "baseCurrency",
      "outputs": [
        {
          "internalType": "address",
          "name": "",
          "type": "address"
        }
      ],
      "stateMutability": "view",
      "type": "function"
    },
    {
      "inputs": [
        {
          "internalType": "address",
          "name": "template",
          "type": "address"
        }
      ],
      "name": "budgetApprovals",
      "outputs": [
        {
          "internalType": "bool",
          "name": "",
          "type": "bool"
        }
      ],
      "stateMutability": "view",
      "type": "function"
    },
    {
      "inputs": [
        {
          "internalType": "address",
          "name": "account",
          "type": "address"
        }
      ],
      "name": "byPassGovern",
      "outputs": [
        {
          "internalType": "bool",
          "name": "",
          "type": "bool"
        }
      ],
      "stateMutability": "view",
      "type": "function"
    },
    {
      "inputs": [
        {
          "internalType": "address",
          "name": "budgetApproval",
          "type": "address"
        }
      ],
      "name": "canCreateBudgetApproval",
      "outputs": [
        {
          "internalType": "bool",
          "name": "",
          "type": "bool"
        }
      ],
      "stateMutability": "view",
      "type": "function"
    },
    {
      "inputs": [
        {
          "internalType": "address[]",
          "name": "__budgetApprovals",
          "type": "address[]"
        },
        {
          "internalType": "bytes[]",
          "name": "data",
          "type": "bytes[]"
        }
      ],
      "name": "createBudgetApprovals",
      "outputs": [],
      "stateMutability": "nonpayable",
      "type": "function"
    },
    {
      "inputs": [
        {
          "internalType": "string",
          "name": "_name",
          "type": "string"
        },
        {
          "internalType": "uint256",
          "name": "duration",
          "type": "uint256"
        },
        {
          "internalType": "uint256",
          "name": "quorum",
          "type": "uint256"
        },
        {
          "internalType": "uint256",
          "name": "passThreshold",
          "type": "uint256"
        },
        {
          "internalType": "enum Dao.VoteType",
          "name": "voteType",
          "type": "uint8"
        },
        {
          "internalType": "address",
          "name": "externalVoteToken",
          "type": "address"
        },
        {
          "internalType": "uint256",
          "name": "durationInBlock",
          "type": "uint256"
        }
      ],
      "name": "createGovern",
      "outputs": [],
      "stateMutability": "nonpayable",
      "type": "function"
    },
    {
      "inputs": [
        {
          "internalType": "string",
          "name": "title",
          "type": "string"
        },
        {
          "internalType": "address",
          "name": "minter",
          "type": "address"
        },
        {
          "internalType": "address[]",
          "name": "members",
          "type": "address[]"
        },
        {
          "internalType": "string",
          "name": "description",
          "type": "string"
        }
      ],
      "name": "createTeam",
      "outputs": [],
      "stateMutability": "nonpayable",
      "type": "function"
    },
    {
      "inputs": [],
      "name": "creator",
      "outputs": [
        {
          "internalType": "address",
          "name": "",
          "type": "address"
        }
      ],
      "stateMutability": "view",
      "type": "function"
    },
    {
      "inputs": [
        {
          "internalType": "address",
          "name": "_to",
          "type": "address"
        },
        {
          "internalType": "bytes",
          "name": "_data",
          "type": "bytes"
        },
        {
          "internalType": "uint256",
          "name": "_value",
          "type": "uint256"
        }
      ],
      "name": "executeByBudgetApproval",
      "outputs": [
        {
          "internalType": "bytes",
          "name": "",
          "type": "bytes"
        }
      ],
      "stateMutability": "nonpayable",
      "type": "function"
    },
    {
      "inputs": [
        {
          "internalType": "address",
          "name": "",
          "type": "address"
        }
      ],
      "name": "firstDepositTime",
      "outputs": [
        {
          "internalType": "uint256",
          "name": "",
          "type": "uint256"
        }
      ],
      "stateMutability": "view",
      "type": "function"
    },
    {
      "inputs": [
        {
          "internalType": "string",
          "name": "gName",
          "type": "string"
        }
      ],
      "name": "govern",
      "outputs": [
        {
          "internalType": "address",
          "name": "",
          "type": "address"
        }
      ],
      "stateMutability": "view",
      "type": "function"
    },
    {
      "inputs": [],
      "name": "governFactory",
      "outputs": [
        {
          "internalType": "address",
          "name": "",
          "type": "address"
        }
      ],
      "stateMutability": "view",
      "type": "function"
    },
    {
      "inputs": [
        {
          "components": [
            {
              "internalType": "address",
              "name": "_creator",
              "type": "address"
            },
            {
              "internalType": "address",
              "name": "_membership",
              "type": "address"
            },
            {
              "internalType": "address",
              "name": "_liquidPool",
              "type": "address"
            },
            {
              "internalType": "address",
              "name": "_governFactory",
              "type": "address"
            },
            {
              "internalType": "address",
              "name": "_team",
              "type": "address"
            },
            {
              "internalType": "address",
              "name": "_memberTokenImplementation",
              "type": "address"
            },
            {
              "internalType": "string",
              "name": "_name",
              "type": "string"
            },
            {
              "internalType": "string",
              "name": "_description",
              "type": "string"
            },
            {
              "internalType": "address",
              "name": "baseCurrency",
              "type": "address"
            },
            {
              "internalType": "string",
              "name": "_memberTokenName",
              "type": "string"
            },
            {
              "internalType": "string",
              "name": "_memberTokenSymbol",
              "type": "string"
            },
            {
              "internalType": "address[]",
              "name": "depositTokens",
              "type": "address[]"
            },
            {
              "internalType": "address",
              "name": "_accountSystem",
              "type": "address"
            }
          ],
          "internalType": "struct Dao.InitializeParams",
          "name": "params",
          "type": "tuple"
        },
        {
          "internalType": "bytes[]",
          "name": "data",
          "type": "bytes[]"
        }
      ],
      "name": "initialize",
      "outputs": [],
      "stateMutability": "nonpayable",
      "type": "function"
    },
    {
      "inputs": [
        {
          "internalType": "address",
          "name": "",
          "type": "address"
        }
      ],
      "name": "isAssetSupported",
      "outputs": [
        {
          "internalType": "bool",
          "name": "",
          "type": "bool"
        }
      ],
      "stateMutability": "view",
      "type": "function"
    },
    {
      "inputs": [
        {
          "internalType": "address",
          "name": "account",
          "type": "address"
        }
      ],
      "name": "isMember",
      "outputs": [
        {
          "internalType": "bool",
          "name": "",
          "type": "bool"
        }
      ],
      "stateMutability": "view",
      "type": "function"
    },
    {
      "inputs": [
        {
          "internalType": "address",
          "name": "account",
          "type": "address"
        }
      ],
      "name": "isPassAdmissionToken",
      "outputs": [
        {
          "internalType": "bool",
          "name": "",
          "type": "bool"
        }
      ],
      "stateMutability": "view",
      "type": "function"
    },
    {
      "inputs": [],
      "name": "liquidPool",
      "outputs": [
        {
          "internalType": "address",
          "name": "",
          "type": "address"
        }
      ],
      "stateMutability": "view",
      "type": "function"
    },
    {
      "inputs": [],
      "name": "locktime",
      "outputs": [
        {
          "internalType": "uint256",
          "name": "",
          "type": "uint256"
        }
      ],
      "stateMutability": "view",
      "type": "function"
    },
    {
      "inputs": [],
      "name": "logoCID",
      "outputs": [
        {
          "internalType": "string",
          "name": "",
          "type": "string"
        }
      ],
      "stateMutability": "view",
      "type": "function"
    },
    {
      "inputs": [],
      "name": "memberToken",
      "outputs": [
        {
          "internalType": "address",
          "name": "",
          "type": "address"
        }
      ],
      "stateMutability": "view",
      "type": "function"
    },
    {
      "inputs": [],
      "name": "membership",
      "outputs": [
        {
          "internalType": "address",
          "name": "",
          "type": "address"
        }
      ],
      "stateMutability": "view",
      "type": "function"
    },
    {
      "inputs": [],
      "name": "minDepositAmount",
      "outputs": [
        {
          "internalType": "uint256",
          "name": "",
          "type": "uint256"
        }
      ],
      "stateMutability": "view",
      "type": "function"
    },
    {
      "inputs": [
        {
          "internalType": "uint256",
          "name": "amount",
          "type": "uint256"
        }
      ],
      "name": "mintMemberToken",
      "outputs": [],
      "stateMutability": "nonpayable",
      "type": "function"
    },
    {
      "inputs": [
        {
          "internalType": "address[]",
          "name": "targets",
          "type": "address[]"
        },
        {
          "internalType": "uint256[]",
          "name": "values",
          "type": "uint256[]"
        },
        {
          "internalType": "bytes[]",
          "name": "data",
          "type": "bytes[]"
        }
      ],
      "name": "multicall",
      "outputs": [
        {
          "internalType": "bytes[]",
          "name": "",
          "type": "bytes[]"
        }
      ],
      "stateMutability": "nonpayable",
      "type": "function"
    },
    {
      "inputs": [],
      "name": "name",
      "outputs": [
        {
          "internalType": "string",
          "name": "",
          "type": "string"
        }
      ],
      "stateMutability": "view",
      "type": "function"
    },
    {
      "inputs": [
        {
          "internalType": "address",
          "name": "",
          "type": "address"
        },
        {
          "internalType": "address",
          "name": "",
          "type": "address"
        },
        {
          "internalType": "uint256[]",
          "name": "",
          "type": "uint256[]"
        },
        {
          "internalType": "uint256[]",
          "name": "",
          "type": "uint256[]"
        },
        {
          "internalType": "bytes",
          "name": "",
          "type": "bytes"
        }
      ],
      "name": "onERC1155BatchReceived",
      "outputs": [
        {
          "internalType": "bytes4",
          "name": "",
          "type": "bytes4"
        }
      ],
      "stateMutability": "nonpayable",
      "type": "function"
    },
    {
      "inputs": [
        {
          "internalType": "address",
          "name": "",
          "type": "address"
        },
        {
          "internalType": "address",
          "name": "",
          "type": "address"
        },
        {
          "internalType": "uint256",
          "name": "",
          "type": "uint256"
        },
        {
          "internalType": "uint256",
          "name": "",
          "type": "uint256"
        },
        {
          "internalType": "bytes",
          "name": "",
          "type": "bytes"
        }
      ],
      "name": "onERC1155Received",
      "outputs": [
        {
          "internalType": "bytes4",
          "name": "",
          "type": "bytes4"
        }
      ],
      "stateMutability": "nonpayable",
      "type": "function"
    },
    {
      "inputs": [
        {
          "internalType": "address",
          "name": "",
          "type": "address"
        },
        {
          "internalType": "address",
          "name": "",
          "type": "address"
        },
        {
          "internalType": "uint256",
          "name": "",
          "type": "uint256"
        },
        {
          "internalType": "bytes",
          "name": "",
          "type": "bytes"
        }
      ],
      "name": "onERC721Received",
      "outputs": [
        {
          "internalType": "bytes4",
          "name": "",
          "type": "bytes4"
        }
      ],
      "stateMutability": "nonpayable",
      "type": "function"
    },
    {
      "inputs": [],
      "name": "proxiableUUID",
      "outputs": [
        {
          "internalType": "bytes32",
          "name": "",
          "type": "bytes32"
        }
      ],
      "stateMutability": "view",
      "type": "function"
    },
    {
      "inputs": [
        {
          "internalType": "uint256",
          "name": "membershipTokenId",
          "type": "uint256"
        }
      ],
      "name": "quit",
      "outputs": [],
      "stateMutability": "nonpayable",
      "type": "function"
    },
    {
      "inputs": [
        {
          "internalType": "uint256",
          "name": "index",
          "type": "uint256"
        }
      ],
      "name": "removeAdmissionToken",
      "outputs": [],
      "stateMutability": "nonpayable",
      "type": "function"
    },
    {
      "inputs": [
        {
          "internalType": "address[]",
          "name": "__budgetApprovals",
          "type": "address[]"
        }
      ],
      "name": "revokeBudgetApprovals",
      "outputs": [],
      "stateMutability": "nonpayable",
      "type": "function"
    },
    {
      "inputs": [
        {
          "internalType": "address",
          "name": "owner",
          "type": "address"
        }
      ],
      "name": "setFirstDepositTime",
      "outputs": [],
      "stateMutability": "nonpayable",
      "type": "function"
    },
    {
      "inputs": [
        {
          "internalType": "uint256",
          "name": "_locktime",
          "type": "uint256"
        }
      ],
      "name": "setLocktime",
      "outputs": [],
      "stateMutability": "nonpayable",
      "type": "function"
    },
    {
      "inputs": [
        {
          "internalType": "string",
          "name": "_logoCID",
          "type": "string"
        }
      ],
      "name": "setLogoCID",
      "outputs": [],
      "stateMutability": "nonpayable",
      "type": "function"
    },
    {
      "inputs": [
        {
          "internalType": "uint256",
          "name": "minTokenToAdmit",
          "type": "uint256"
        }
      ],
      "name": "setMemberTokenAsAdmissionToken",
      "outputs": [],
      "stateMutability": "nonpayable",
      "type": "function"
    },
    {
      "inputs": [
        {
          "internalType": "uint256",
          "name": "_minDepositAmount",
          "type": "uint256"
        }
      ],
      "name": "setMinDepositAmount",
      "outputs": [],
      "stateMutability": "nonpayable",
      "type": "function"
    },
    {
      "inputs": [
        {
          "internalType": "bytes4",
          "name": "interfaceId",
          "type": "bytes4"
        }
      ],
      "name": "supportsInterface",
      "outputs": [
        {
          "internalType": "bool",
          "name": "",
          "type": "bool"
        }
      ],
      "stateMutability": "view",
      "type": "function"
    },
    {
      "inputs": [],
      "name": "team",
      "outputs": [
        {
          "internalType": "address",
          "name": "",
          "type": "address"
        }
      ],
      "stateMutability": "view",
      "type": "function"
    },
    {
      "inputs": [
        {
          "internalType": "uint256",
          "name": "",
          "type": "uint256"
        }
      ],
      "name": "teamWhitelist",
      "outputs": [
        {
          "internalType": "bool",
          "name": "",
          "type": "bool"
        }
      ],
      "stateMutability": "view",
      "type": "function"
    },
    {
      "inputs": [
        {
          "internalType": "address",
          "name": "to",
          "type": "address"
        },
        {
          "internalType": "uint256",
          "name": "amount",
          "type": "uint256"
        }
      ],
      "name": "transferMemberToken",
      "outputs": [],
      "stateMutability": "nonpayable",
      "type": "function"
    },
    {
      "inputs": [
        {
          "internalType": "address[]",
          "name": "targets",
          "type": "address[]"
        },
        {
          "internalType": "address[]",
          "name": "newImplementations",
          "type": "address[]"
        },
        {
          "internalType": "string",
          "name": "remark",
          "type": "string"
        }
      ],
      "name": "upgradeImplementations",
      "outputs": [],
      "stateMutability": "nonpayable",
      "type": "function"
    },
    {
      "inputs": [
        {
          "internalType": "address",
          "name": "newImplementation",
          "type": "address"
        }
      ],
      "name": "upgradeTo",
      "outputs": [],
      "stateMutability": "nonpayable",
      "type": "function"
    },
    {
      "inputs": [
        {
          "internalType": "address",
          "name": "newImplementation",
          "type": "address"
        },
        {
          "internalType": "bytes",
          "name": "data",
          "type": "bytes"
        }
      ],
      "name": "upgradeToAndCall",
      "outputs": [],
      "stateMutability": "payable",
      "type": "function"
    },
    {
      "stateMutability": "payable",
      "type": "receive"
    }
  ],
  "transactionHash": "0x1ec816fad3102da61bdf6c5bb7266ee9b74d6338db736bc3ca82a53008d23a0e",
  "args": [],
  "numDeployments": 3,
  "solcInputHash": "3f664844ced2cb498657d1fff7b71bf7",
  "bytecode": "0x60a06040523060601b6080523480156200001857600080fd5b506200002362000033565b6200002d62000033565b620000f5565b600054610100900460ff1615620000a05760405162461bcd60e51b815260206004820152602760248201527f496e697469616c697a61626c653a20636f6e747261637420697320696e697469604482015266616c697a696e6760c81b606482015260840160405180910390fd5b60005460ff9081161015620000f3576000805460ff191660ff9081179091556040519081527f7f26b83ff96e1f2b6a682f133852f6798a09c465da95921460cefb38474024989060200160405180910390a15b565b60805160601c615ada62000130600039600081816117100152818161175301528181612098015281816120db01526121770152615ada6000f3fe608060405260043610620003435760003560e01c80638940951611620001b1578063bcfb1a4011620000ee578063e3c1fe9811620000a1578063ee0eb19b1162000078578063ee0eb19b1462000b3c578063f1fc061f1462000b5f578063f23a6e611462000b84578063fbf6cf5d1462000bb457600080fd5b8063e3c1fe981462000a90578063eb6d00a61462000ab5578063ed0b66bc1462000b1757600080fd5b8063bcfb1a4014620009b2578063c311769514620009d7578063c69e6c4014620009fc578063d00e8ed01462000a21578063d3abc28b1462000a46578063df79812e1462000a6b57600080fd5b8063a230c5241162000164578063aea321c6116200013b578063aea321c61462000920578063b34bacdd1462000945578063b6dbbc56146200095d578063bc197c81146200098257600080fd5b8063a230c524146200089a578063a240663e14620008bf578063a2bf68b914620008fd57600080fd5b80638940951614620007c25780638b805e9614620007e55780638e3d5d56146200080a57806392a85fde146200082d5780639b1c505e1462000850578063a177db13146200087557600080fd5b8063406cfb75116200028057806357338b221162000233578063645006ca116200020a578063645006ca14620007315780636cb7c6f9146200074a578063800c1c73146200077c57806385f2aef214620007a157600080fd5b806357338b2214620006d25780635cb5438414620006f557806361c533b4146200071857600080fd5b8063406cfb7514620005e157806345f67ac71462000606578063464b4158146200063a5780634b31c1d8146200066f5780634f1ef286146200069457806352d1902d14620006ab57600080fd5b806319f6ac0911620002f6578063301099a311620002cd578063301099a3146200054d578063344cbc6814620005725780633659cfe614620005975780633e0f7fde14620005bc57600080fd5b806319f6ac0914620004ce5780632a80cda314620004f35780632f10e236146200051857600080fd5b806301ffc9a7146200039e5780630280179e14620003d857806302d05d3f14620003fd57806306fdde03146200043957806313e453c81462000460578063150b7a02146200048557600080fd5b36620003995733158015906200035857503415155b156200039757604080513381523460208201527fe1fffcc4923d04b559f4d29a8bfc6cda04eb5b0d3c460751c2402c5c5cc9109c910160405180910390a15b005b600080fd5b348015620003ab57600080fd5b50620003c3620003bd366004620049b0565b62000bcc565b60405190151581526020015b60405180910390f35b348015620003e557600080fd5b5062000397620003f736600462004731565b62000c04565b3480156200040a57600080fd5b506101635462000420906001600160a01b031681565b6040516001600160a01b039091168152602001620003cf565b3480156200044657600080fd5b506200045162000cf2565b604051620003cf919062004f5b565b3480156200046d57600080fd5b50620003976200047f36600462004bf9565b62000d89565b3480156200049257600080fd5b50620004b4620004a43660046200456c565b630a85bd0160e11b949350505050565b6040516001600160e01b03199091168152602001620003cf565b348015620004db57600080fd5b5062000397620004ed366004620049dc565b620011c4565b3480156200050057600080fd5b50620003976200051236600462004db9565b62001287565b3480156200052557600080fd5b50620003c36200053736600462004db9565b6101716020526000908152604090205460ff1681565b3480156200055a57600080fd5b50620003976200056c36600462004db9565b62001345565b3480156200057f57600080fd5b50620003976200059136600462004db9565b620013fc565b348015620005a457600080fd5b5062000397620005b636600462004471565b62001705565b348015620005c957600080fd5b5062000397620005db36600462004b5d565b620017f1565b348015620005ee57600080fd5b50620003c36200060036600462004471565b6200196f565b3480156200061357600080fd5b506200062b620006253660046200482f565b62001ba1565b604051620003cf919062004ef5565b3480156200064757600080fd5b50620003c36200065936600462004471565b6101706020526000908152604090205460ff1681565b3480156200067c57600080fd5b50620003976200068e366004620047ae565b62001e2e565b62000397620006a53660046200464f565b6200208d565b348015620006b857600080fd5b50620006c36200216a565b604051908152602001620003cf565b348015620006df57600080fd5b506101665462000420906001600160a01b031681565b3480156200070257600080fd5b506101625462000420906001600160a01b031681565b3480156200072557600080fd5b50620006c36101695481565b3480156200073e57600080fd5b50620006c361016a5481565b3480156200075757600080fd5b50620006c36200076936600462004471565b61016f6020526000908152604090205481565b3480156200078957600080fd5b50620003976200079b36600462004a15565b62002220565b348015620007ae57600080fd5b5061012d546001600160a01b031662000420565b348015620007cf57600080fd5b506101675462000420906001600160a01b031681565b348015620007f257600080fd5b50620003976200080436600462004db9565b6200248c565b3480156200081757600080fd5b506101645462000420906001600160a01b031681565b3480156200083a57600080fd5b5061016b5462000420906001600160a01b031681565b3480156200085d57600080fd5b50620003976200086f36600462004db9565b62002517565b3480156200088257600080fd5b50620003976200089436600462004471565b62002723565b348015620008a757600080fd5b50620003c3620008b936600462004471565b620027c4565b348015620008cc57600080fd5b50620003c3620008de36600462004471565b6001600160a01b0316600090815261012e602052604090205460ff1690565b3480156200090a57600080fd5b506101655462000420906001600160a01b031681565b3480156200092d57600080fd5b50620003976200093f36600462004769565b62002848565b3480156200095257600080fd5b506200045162002906565b3480156200096a57600080fd5b50620003c36200097c36600462004471565b62002916565b3480156200098f57600080fd5b50620004b4620009a1366004620044b1565b63bc197c8160e01b95945050505050565b348015620009bf57600080fd5b5062000420620009d136600462004db9565b620029ae565b348015620009e457600080fd5b5062000397620009f636600462004702565b620029da565b34801562000a0957600080fd5b506200042062000a1b36600462004aaf565b62002a66565b34801562000a2e57600080fd5b506200039762000a40366004620048d2565b62002af0565b34801562000a5357600080fd5b506200045162000a65366004620046a4565b62002ca3565b34801562000a7857600080fd5b506200039762000a8a36600462004912565b62002e2e565b34801562000a9d57600080fd5b506200039762000aaf36600462004702565b6200300d565b34801562000ac257600080fd5b5062000af962000ad436600462004471565b6101726020526000908152604090208054600182015460029092015490919060ff1683565b604080519384526020840192909252151590820152606001620003cf565b34801562000b2457600080fd5b50620003c362000b3636600462004471565b6200318c565b34801562000b4957600080fd5b506101735462000420906001600160a01b031681565b34801562000b6c57600080fd5b506200039762000b7e36600462004db9565b620031c1565b34801562000b9157600080fd5b50620004b462000ba3366004620045df565b63f23a6e6160e01b95945050505050565b34801562000bc157600080fd5b5061016d54620006c3565b60006001600160e01b03198216630271189760e51b148062000bfe57506301ffc9a760e01b6001600160e01b03198316145b92915050565b6040518060400160405280600781526020016611d95b995c985b60ca1b81525062000c2f3362002916565b8062000c56575062000c418162002a66565b6001600160a01b0316336001600160a01b0316145b8062000c65575061016e5460ff165b62000c8d5760405162461bcd60e51b815260040162000c849062005056565b60405180910390fd5b62000c9a848484620032ae565b604080516001600160a01b038616815260208101859052908101839052600060608201527fc7ff60e3f07d1e83c30c2fb716313eccef5470e6bdf300d865c747e76f379a83906080015b60405180910390a150505050565b610168805462000d02906200525d565b80601f016020809104026020016040519081016040528092919081815260200182805462000d30906200525d565b801562000d815780601f1062000d555761010080835404028352916020019162000d81565b820191906000526020600020905b81548152906001019060200180831162000d6357829003601f168201915b505050505081565b600054610100900460ff161580801562000daa5750600054600160ff909116105b8062000dc65750303b15801562000dc6575060005460ff166001145b62000e2b5760405162461bcd60e51b815260206004820152602e60248201527f496e697469616c697a61626c653a20636f6e747261637420697320616c72656160448201526d191e481a5b9a5d1a585b1a5e995960921b606482015260840162000c84565b6000805460ff19166001179055801562000e4f576000805461ff0019166101001790555b82516001600160a01b03161580159062000e75575060208301516001600160a01b031615155b801562000e8e575060408301516001600160a01b031615155b801562000ea7575060608301516001600160a01b031615155b801562000ec0575060808301516001600160a01b031615155b801562000ed9575060a08301516001600160a01b031615155b801562000ef357506101008301516001600160a01b031615155b801562000f0d57506101808301516001600160a01b031615155b62000f515760405162461bcd60e51b8152602060048201526013602482015272496e7661696c642044616f2053657474696e6760681b604482015260640162000c84565b61016e805460ff19166001179055608083015161018084015162000f76919062003461565b61016480546001600160a01b0319163317905560c0830151805162000fa59161016891602090910190620040c4565b50825161016380546001600160a01b038084166001600160a01b03199283161790925560208601516101658054918416918316919091179055604086015161016680549184169183169190911790556060860151610167805491841691831691909117905561010086015161016b805491841691831691909117905561018086015161017380549190931691161790556200104090620034fe565b6200105b8360a0015184610120015185610140015162003563565b6200106b836101600151620036df565b60005b82518110156200116b57600080306001600160a01b03168584815181106200109a576200109a620052fa565b6020026020010151604051620010b1919062004e3a565b6000604051808303816000865af19150503d8060008114620010f0576040519150601f19603f3d011682016040523d82523d6000602084013e620010f5565b606091505b509150915081620011316200110a83620037a9565b6040805180820190915260098152681a5b9a5d0819985a5b60ba1b60208201529062003806565b90620011525760405162461bcd60e51b815260040162000c84919062004f5b565b505050808062001162906200529a565b9150506200106e565b5061016e805460ff191690558015620011bf576000805461ff0019169055604051600181527f7f26b83ff96e1f2b6a682f133852f6798a09c465da95921460cefb3847402498906020015b60405180910390a15b505050565b6040518060400160405280600781526020016611d95b995c985b60ca1b815250620011ef3362002916565b80620012165750620012018162002a66565b6001600160a01b0316336001600160a01b0316145b8062001225575061016e5460ff165b620012445760405162461bcd60e51b815260040162000c849062005056565b6200125361016c848462004153565b507f73fe47029acc9de832b3f5412b2a47ba49a85ed9c4aa1c3ab65fcc23ec943cf88383604051620011b692919062004f70565b6040518060400160405280600781526020016611d95b995c985b60ca1b815250620012b23362002916565b80620012d95750620012c48162002a66565b6001600160a01b0316336001600160a01b0316145b80620012e8575061016e5460ff165b620013075760405162461bcd60e51b815260040162000c849062005056565b61016a8290556040518281527fbe19bc97d2bca5ac16c999faf6d2fbde29b13fae7020e3a390febf030f8242d7906020015b60405180910390a15050565b6040518060400160405280600781526020016611d95b995c985b60ca1b815250620013703362002916565b80620013975750620013828162002a66565b6001600160a01b0316336001600160a01b0316145b80620013a6575061016e5460ff165b620013c55760405162461bcd60e51b815260040162000c849062005056565b6101698290556040518281527fd74e243e16d9026669a4805403df1e6c18e3f0c38e89e50e8846c3f329f81e7e9060200162001339565b610165546040516331a9108f60e11b8152600481018390526001600160a01b03909116906000908290636352211e9060240160206040518083038186803b1580156200144757600080fd5b505afa1580156200145c573d6000803e3d6000fd5b505050506040513d601f19601f8201168201806040525081019062001482919062004491565b9050336001600160a01b03821614620014d25760405162461bcd60e51b815260206004820152601160248201527014195c9b5a5cdcda5bdb8819195b9a5959607a1b604482015260640162000c84565b610166546040516370a0823160e01b81526001600160a01b038381166004830152909116906370a082319060240160206040518083038186803b1580156200151957600080fd5b505afa1580156200152e573d6000803e3d6000fd5b505050506040513d601f19601f8201168201806040525081019062001554919062004996565b156200159c5760405162461bcd60e51b81526020600482015260166024820152754c502062616c616e6365206973206e6f74207a65726f60501b604482015260640162000c84565b60405163288c314960e21b81526001600160a01b03828116600483015283169063a230c5249060240160206040518083038186803b158015620015de57600080fd5b505afa158015620015f3573d6000803e3d6000fd5b505050506040513d601f19601f8201168201806040525081019062001619919062004972565b15156001146200165b5760405162461bcd60e51b815260206004820152600c60248201526b2737ba10309036b2b6b132b960a11b604482015260640162000c84565b6040516350d3a55760e11b8152600481018490526001600160a01b0383169063a1a74aae90602401600060405180830381600087803b1580156200169e57600080fd5b505af1158015620016b3573d6000803e3d6000fd5b505050506001600160a01b038116600081815261016f602090815260408083209290925590519182527f950a11f80aa30348b1643119360881f6d3b38be1c74e26f857f2a4fe570f87c59101620011b6565b306001600160a01b037f0000000000000000000000000000000000000000000000000000000000000000161415620017515760405162461bcd60e51b815260040162000c849062005084565b7f00000000000000000000000000000000000000000000000000000000000000006001600160a01b03166200179c60008051602062005a5e833981519152546001600160a01b031690565b6001600160a01b031614620017c55760405162461bcd60e51b815260040162000c8490620050d0565b620017d08162003834565b60408051600080825260208201909252620017ee91839190620038b4565b50565b6040518060400160405280600781526020016611d95b995c985b60ca1b8152506200181c3362002916565b806200184357506200182e8162002a66565b6001600160a01b0316336001600160a01b0316145b8062001852575061016e5460ff165b620018715760405162461bcd60e51b815260040162000c849062005056565b60006200188761012d546001600160a01b031690565b6001600160a01b03166253153b878787876040518563ffffffff1660e01b8152600401620018b9949392919062004fcf565b602060405180830381600087803b158015620018d457600080fd5b505af1158015620018e9573d6000803e3d6000fd5b505050506040513d601f19601f820116820180604052508101906200190f919062004996565b6000818152610171602052604090819020805460ff19166001179055519091507ff94f63f5f9de5de7659ae3ccaa099cce39347833cbd85ffe78570b86f4051ab4906200195f9083815260200190565b60405180910390a1505050505050565b61016d54600090815b8181101562001b9757600061016d82815481106200199a576200199a620052fa565b60009182526020808320909101546001600160a01b0316808352610172909152604090912054909150801562001b7f576000620019e0836001600160a01b031662003a3c565b1562001a6c576040516370a0823160e01b81526001600160a01b0388811660048301528416906370a08231906024015b60206040518083038186803b15801562001a2957600080fd5b505afa15801562001a3e573d6000803e3d6000fd5b505050506040513d601f19601f8201168201806040525081019062001a64919062004996565b905062001b67565b62001a80836001600160a01b031662003acc565b1562001acd576001600160a01b038381166000818152610172602052604090819020600101549051627eeac760e11b8152928a16600484015260248301529062fdd58e9060440162001a10565b62001ae1836001600160a01b031662003b03565b1562001b67576040516370a0823160e01b81526001600160a01b0388811660048301528416906370a082319060240160206040518083038186803b15801562001b2957600080fd5b505afa15801562001b3e573d6000803e3d6000fd5b505050506040513d601f19601f8201168201806040525081019062001b64919062004996565b90505b8181101562001b7d575060009695505050505050565b505b5050808062001b8e906200529a565b91505062001978565b5060019392505050565b60606040518060400160405280600781526020016611d95b995c985b60ca1b81525062001bce3362002916565b8062001bf5575062001be08162002a66565b6001600160a01b0316336001600160a01b0316145b8062001c04575061016e5460ff165b62001c235760405162461bcd60e51b815260040162000c849062005056565b8685148062001c3157508683145b62001c725760405162461bcd60e51b815260206004820152601060248201526f0d8cadccee8d040dcdee840dac2e8c6d60831b604482015260640162000c84565b6000876001600160401b0381111562001c8f5762001c8f62005310565b60405190808252806020026020018201604052801562001cc457816020015b606081526020019060019003908162001cae5790505b50905060005b8881101562001e21576000808b8b8481811062001ceb5762001ceb620052fa565b905060200201602081019062001d02919062004471565b6001600160a01b03168a8a8581811062001d205762001d20620052fa565b9050602002013589898681811062001d3c5762001d3c620052fa565b905060200281019062001d5091906200511c565b60405162001d6092919062004e2a565b60006040518083038185875af1925050503d806000811462001d9f576040519150601f19603f3d011682016040523d82523d6000602084013e62001da4565b606091505b50915091508162001de85760405162461bcd60e51b815260206004820152600d60248201526c195e1958dd5d1a5bdb91985a5b609a1b604482015260640162000c84565b8084848151811062001dfe5762001dfe620052fa565b60200260200101819052505050808062001e18906200529a565b91505062001cca565b5098975050505050505050565b6040518060400160405280600781526020016611d95b995c985b60ca1b81525062001e593362002916565b8062001e80575062001e6b8162002a66565b6001600160a01b0316336001600160a01b0316145b8062001e8f575061016e5460ff165b62001eae5760405162461bcd60e51b815260040162000c849062005056565b84831462001eff5760405162461bcd60e51b815260206004820152601760248201527f706172616d73206c656e677468206e6f74206d61746368000000000000000000604482015260640162000c84565b60005b858110156200205b573087878381811062001f215762001f21620052fa565b905060200201602081019062001f38919062004471565b6001600160a01b0316141562001f845762001f7e85858381811062001f615762001f61620052fa565b905060200201602081019062001f78919062004471565b62003ba8565b62002046565b86868281811062001f995762001f99620052fa565b905060200201602081019062001fb0919062004471565b6001600160a01b0316633659cfe686868481811062001fd35762001fd3620052fa565b905060200201602081019062001fea919062004471565b6040516001600160e01b031960e084901b1681526001600160a01b039091166004820152602401600060405180830381600087803b1580156200202c57600080fd5b505af115801562002041573d6000803e3d6000fd5b505050505b8062002052816200529a565b91505062001f02565b507fae65f73ea44fb5b0663fb704952c68701722f2eff0f95e69900bd903f9770f38826040516200195f919062004f5b565b306001600160a01b037f0000000000000000000000000000000000000000000000000000000000000000161415620020d95760405162461bcd60e51b815260040162000c849062005084565b7f00000000000000000000000000000000000000000000000000000000000000006001600160a01b03166200212460008051602062005a5e833981519152546001600160a01b031690565b6001600160a01b0316146200214d5760405162461bcd60e51b815260040162000c8490620050d0565b620021588262003834565b6200216682826001620038b4565b5050565b6000306001600160a01b037f000000000000000000000000000000000000000000000000000000000000000016146200220c5760405162461bcd60e51b815260206004820152603860248201527f555550535570677261646561626c653a206d757374206e6f742062652063616c60448201527f6c6564207468726f7567682064656c656761746563616c6c0000000000000000606482015260840162000c84565b5060008051602062005a5e83398151915290565b6040518060400160405280600781526020016611d95b995c985b60ca1b8152506200224b3362002916565b806200227257506200225d8162002a66565b6001600160a01b0316336001600160a01b0316145b8062002281575061016e5460ff165b620022a05760405162461bcd60e51b815260040162000c849062005056565b600080856002811115620022b857620022b8620052ce565b14156200232357610165546001600160a01b0316806200231b5760405162461bcd60e51b815260206004820152601e60248201527f4d656d62657273686970206e6f742079657420696e697469616c697a65640000604482015260640162000c84565b90506200240d565b60018560028111156200233a576200233a620052ce565b14156200239d57610162546001600160a01b0316806200231b5760405162461bcd60e51b815260206004820152601f60248201527f4d656d626572546f6b656e206e6f742079657420696e697469616c697a656400604482015260640162000c84565b6002856002811115620023b457620023b4620052ce565b14156200240d576001600160a01b0384166200240a5760405162461bcd60e51b8152602060048201526014602482015273159bdd19481d1bdad95b881b9bdd08195e1a5cdd60621b604482015260640162000c84565b50825b61016754604051634d9df0d760e11b81526001600160a01b0390911690639b3be1ae906200244c908d908d908d908d908d9089908c9060040162004f86565b600060405180830381600087803b1580156200246757600080fd5b505af11580156200247c573d6000803e3d6000fd5b5050505050505050505050505050565b6040518060400160405280600781526020016611d95b995c985b60ca1b815250620024b73362002916565b80620024de5750620024c98162002a66565b6001600160a01b0316336001600160a01b0316145b80620024ed575061016e5460ff165b6200250c5760405162461bcd60e51b815260040162000c849062005056565b620021668262003bea565b6040518060400160405280600781526020016611d95b995c985b60ca1b815250620025423362002916565b80620025695750620025548162002a66565b6001600160a01b0316336001600160a01b0316145b8062002578575061016e5460ff165b620025975760405162461bcd60e51b815260040162000c849062005056565b61016d548210620025dc5760405162461bcd60e51b815260206004820152600e60248201526d696e646578206f766572666c6f7760901b604482015260640162000c84565b600061016d8381548110620025f557620025f5620052fa565b60009182526020808320909101546001600160a01b031680835261017290915260408220600201805460ff1916905561016d8054919350906200263b9060019062005214565b815481106200264e576200264e620052fa565b60009182526020909120015461016d80546001600160a01b039092169250829186908110620026815762002681620052fa565b9060005260206000200160006101000a8154816001600160a01b0302191690836001600160a01b0316021790555061016d805480620026c457620026c4620052e4565b6000828152602090819020600019908301810180546001600160a01b03191690559091019091556040516001600160a01b03841681527f1b2ddeaa10e8a80ec9f117d308c60a01824809ed74e531d768c0b1b7542606b9910162000ce4565b610166546001600160a01b031633146200276a5760405162461bcd60e51b815260206004820152600760248201526606f6e6c79204c560cc1b604482015260640162000c84565b6001600160a01b038116600081815261016f602090815260409182902042908190558251938452908301527f7ac58570d3e556be8ffd5d5bda8bc949958077c3aa21c4b5fa11b63ed12dafa791015b60405180910390a150565b6101655460405163288c314960e21b81526001600160a01b038381166004830152600092169063a230c524906024015b60206040518083038186803b1580156200280d57600080fd5b505afa15801562002822573d6000803e3d6000fd5b505050506040513d601f19601f8201168201806040525081019062000bfe919062004972565b6040518060400160405280600781526020016611d95b995c985b60ca1b815250620028733362002916565b806200289a5750620028858162002a66565b6001600160a01b0316336001600160a01b0316145b80620028a9575061016e5460ff165b620028c85760405162461bcd60e51b815260040162000c849062005056565b620011bf838380806020026020016040519081016040528093929190818152602001838360200280828437600092019190915250620036df92505050565b61016c805462000d02906200525d565b61016554604080516318160ddd60e01b815290516000926001600160a01b0316916318160ddd916004808301926020929190829003018186803b1580156200295d57600080fd5b505afa15801562002972573d6000803e3d6000fd5b505050506040513d601f19601f8201168201806040525081019062002998919062004996565b600114801562000bfe575062000bfe82620027c4565b61016d8181548110620029c057600080fd5b6000918252602090912001546001600160a01b0316905081565b6040518060400160405280600781526020016611d95b995c985b60ca1b81525062002a053362002916565b8062002a2c575062002a178162002a66565b6001600160a01b0316336001600160a01b0316145b8062002a3b575061016e5460ff165b62002a5a5760405162461bcd60e51b815260040162000c849062005056565b620011bf838362003ca6565b6101675460405163385f5d8f60e11b81526000916001600160a01b0316906370bebb1e9062002a9c903090869060040162004e8b565b60206040518083038186803b15801562002ab557600080fd5b505afa15801562002aca573d6000803e3d6000fd5b505050506040513d601f19601f8201168201806040525081019062000bfe919062004491565b60005b8151811015620021665761012e600083838151811062002b175762002b17620052fa565b6020908102919091018101516001600160a01b031682528101919091526040016000205460ff1662002ba95760405162461bcd60e51b815260206004820152603460248201527f427564676574417070726f76616c45786563757465653a2062756467657420616044820152731c1c1c9bdd985b081a5cc81b9bdd081d985b1a5960621b606482015260840162000c84565b62002bd082828151811062002bc25762002bc2620052fa565b602002602001015162003834565b600061012e600084848151811062002bec5762002bec620052fa565b60200260200101516001600160a01b03166001600160a01b0316815260200190815260200160002060006101000a81548160ff0219169083151502179055507f3562b8c49e34d53119756b2b8b55a910ed22c2cda0d3b07398510d804c2dc62182828151811062002c615762002c61620052fa565b602002602001015160405162002c8691906001600160a01b0391909116815260200190565b60405180910390a18062002c9a816200529a565b91505062002af3565b33600090815261012e602052604090205460609060ff1662002d165760405162461bcd60e51b815260206004820152602560248201527f427564676574417070726f76616c45786563757465653a206163636573732064604482015264195b9a595960da1b606482015260840162000c84565b600080856001600160a01b0316848660405162002d34919062004e3a565b60006040518083038185875af1925050503d806000811462002d73576040519150601f19603f3d011682016040523d82523d6000602084013e62002d78565b606091505b50915091508162002de85762002dcd62002d9282620037a9565b60408051808201909152601d81527f52657665727465642062792065787465726e616c20636f6e747261637400000060208201529062003806565b60405162461bcd60e51b815260040162000c84919062004f5b565b7fcf452d48646654954090c61dd69f99a99bea4e2264594078fc81bfd43d6f6a9e338660405162002e1b92919062004e8b565b60405180910390a19150505b9392505050565b805182511462002e765760405162461bcd60e51b8152602060048201526012602482015271496e636f72726563742043616c6c6461746160701b604482015260640162000c84565b60005b8251811015620011bf5762002eaa83828151811062002e9c5762002e9c620052fa565b602002602001015162003d88565b600083828151811062002ec15762002ec1620052fa565b602002602001015183838151811062002ede5762002ede620052fa565b602002602001015160405162002ef490620041d0565b62002f0192919062004e8b565b604051809103906000f08015801562002f1e573d6000803e3d6000fd5b506001600160a01b038116600090815261012e60205260409020805460ff1916600117905583519091507f26c79e13dd63e8716f130c25331c09f2fdd55d6880bbfa7bcc38868207e8a67090829085908590811062002f815762002f81620052fa565b602002602001015160405162002f9992919062004e8b565b60405180910390a1806001600160a01b031663cf26fec66040518163ffffffff1660e01b8152600401600060405180830381600087803b15801562002fdd57600080fd5b505af115801562002ff2573d6000803e3d6000fd5b5050505050808062003004906200529a565b91505062002e79565b610166546001600160a01b03163314620030545760405162461bcd60e51b815260206004820152600760248201526606f6e6c79204c560cc1b604482015260640162000c84565b6001600160a01b038216600090815261016f602052604090205462002166576200307e8262002723565b61016a54811015620030d35760405162461bcd60e51b815260206004820152601960248201527f6465706f73697420616d6f756e74206e6f7420656e6f75676800000000000000604482015260640162000c84565b620030de82620027c4565b15620030e8575050565b620030f3826200196f565b620031415760405162461bcd60e51b815260206004820152601a60248201527f41646d697373696f6e20746f6b656e206e6f7420656e6f756768000000000000604482015260640162000c84565b6200314c82620034fe565b604080516001600160a01b0384168152602081018390527fbd251213ab4f4d6ca44f082b3e6aadf9c5153e7c16bac3ac4f959462d425c23c910162001339565b61016454604051635120331f60e11b81526001600160a01b038381166004830152600092169063a240663e90602401620027f4565b6040518060400160405280600781526020016611d95b995c985b60ca1b815250620031ec3362002916565b80620032135750620031fe8162002a66565b6001600160a01b0316336001600160a01b0316145b8062003222575061016e5460ff165b620032415760405162461bcd60e51b815260040162000c849062005056565b610162546001600160a01b03166200325c81846000620032ae565b604080516001600160a01b038316815260208101859052600091810191909152600160608201527fc7ff60e3f07d1e83c30c2fb716313eccef5470e6bdf300d865c747e76f379a8390608001620011b6565b6001600160a01b0383166000908152610172602052604090206002015460ff16156200331d5760405162461bcd60e51b815260206004820152601760248201527f41646d697373696f6e20546f6b656e2065786973746564000000000000000000604482015260640162000c84565b6001600160a01b0383163b620033765760405162461bcd60e51b815260206004820152601c60248201527f41646d697373696f6e20546f6b656e206e6f7420537570706f72742100000000604482015260640162000c84565b61016d8054600180820183557f535f6990c27693b80d059530c371f53ea19bfc595ef3bd58348694aac909530090910180546001600160a01b0319166001600160a01b03871690811790915560408051606081018252868152602080820187815282840186815260009586526101729092529290932090518155905192810192909255516002909101805460ff19169115159190911790555460031015620011bf5760405162461bcd60e51b815260206004820181905260248201527f41646d697373696f6e20546f6b656e206c656e67746820746f6f206c6f6e672e604482015260640162000c84565b600054610100900460ff16620034ce5760405162461bcd60e51b815260206004820152602b60248201527f496e697469616c697a61626c653a20636f6e7472616374206973206e6f74206960448201526a6e697469616c697a696e6760a81b606482015260840162000c84565b61012d80546001600160a01b039384166001600160a01b03199182161790915561012f8054929093169116179055565b61016554604051632124d52960e01b81526001600160a01b03838116600483015290911690632124d52990602401600060405180830381600087803b1580156200354757600080fd5b505af11580156200355c573d6000803e3d6000fd5b5050505050565b610162546001600160a01b031615620035bf5760405162461bcd60e51b815260206004820181905260248201527f4d656d62657220746f6b656e20616c726561647920696e697469616c697a6564604482015260640162000c84565b600083604051620035d090620041d0565b6001600160a01b039091168152604060208201819052600090820152606001604051809103906000f0801580156200360c573d6000803e3d6000fd5b5061016280546001600160a01b0319166001600160a01b038316908117909155604051639065714760e01b81529192508291639065714790620036589030908890889060040162004eb1565b600060405180830381600087803b1580156200367357600080fd5b505af115801562003688573d6000803e3d6000fd5b50505050620036978162003e6f565b604080513381526001600160a01b03831660208201527f51872b89ca0a4559a29252fabe8e58a51d77923ec1fdb596822e56c918df96eb910160405180910390a15050505050565b60005b8151811015620021665760006001600160a01b03168282815181106200370c576200370c620052fa565b60200260200101516001600160a01b031614156200376d5760405162461bcd60e51b815260206004820152601960248201527f4e6f7420537570706f7274656420455243323020546f6b656e00000000000000604482015260640162000c84565b62003794828281518110620037865762003786620052fa565b602002602001015162003e6f565b80620037a0816200529a565b915050620036e2565b6060604482511015620037ca57505060408051602081019091526000815290565b60048201915062000bfe82806020019051810190620037ea919062004ae7565b60408051808201909152600381526201016960ed1b6020820152905b606082826040516020016200381d92919062004e58565b604051602081830303815290604052905092915050565b6040518060400160405280600781526020016611d95b995c985b60ca1b8152506200385f3362002916565b80620038865750620038718162002a66565b6001600160a01b0316336001600160a01b0316145b8062003895575061016e5460ff165b620021665760405162461bcd60e51b815260040162000c849062005056565b7f4910fdfa16fed3260ed0e7147f7cc6da11a60208b5b9406d12a635614ffd91435460ff1615620038ea57620011bf8362003ec5565b826001600160a01b03166352d1902d6040518163ffffffff1660e01b815260040160206040518083038186803b1580156200392457600080fd5b505afa92505050801562003957575060408051601f3d908101601f19168201909252620039549181019062004996565b60015b620039bc5760405162461bcd60e51b815260206004820152602e60248201527f45524331393637557067726164653a206e657720696d706c656d656e7461746960448201526d6f6e206973206e6f74205555505360901b606482015260840162000c84565b60008051602062005a5e833981519152811462003a2e5760405162461bcd60e51b815260206004820152602960248201527f45524331393637557067726164653a20756e737570706f727465642070726f786044820152681a58589b195555525160ba1b606482015260840162000c84565b50620011bf83838362003f64565b6040516301ffc9a760e01b81526380ac58cd60e01b60048201526000906001600160a01b038316906301ffc9a7906024015b60206040518083038186803b15801562003a8757600080fd5b505afa92505050801562003aba575060408051601f3d908101601f1916820190925262003ab79181019062004972565b60015b62000bfe57506000919050565b919050565b6040516301ffc9a760e01b8152636cdb3d1360e11b60048201526000906001600160a01b038316906301ffc9a79060240162003a6e565b600062003b108262003a3c565b1562003b1e57506000919050565b6040516370a0823160e01b8152600060048201526001600160a01b038316906370a082319060240160206040518083038186803b15801562003b5f57600080fd5b505afa92505050801562003b92575060408051601f3d908101601f1916820190925262003b8f9181019062004996565b60015b62003b9f57506000919050565b50600192915050565b62003bb38162003ec5565b6040516001600160a01b038216907fbc7cd75a20ee27fd9adebab32041f755214dbc6bffa90cc0225b39da2e5c2d3b90600090a250565b610162546001600160a01b03168062003c405760405162461bcd60e51b815260206004820152601760248201527626b2b6b132b9102a37b5b2b7103737ba1022bc34b9ba1760491b604482015260640162000c84565b6040516340c10f1960e01b8152306004820152602481018390526001600160a01b038216906340c10f1990604401600060405180830381600087803b15801562003c8957600080fd5b505af115801562003c9e573d6000803e3d6000fd5b505050505050565b610162546001600160a01b03168062003cfc5760405162461bcd60e51b815260206004820152601760248201527626b2b6b132b9102a37b5b2b7103737ba1022bc34b9ba1760491b604482015260640162000c84565b60405163a9059cbb60e01b81526001600160a01b0384811660048301526024820184905282169063a9059cbb90604401602060405180830381600087803b15801562003d4757600080fd5b505af115801562003d5c573d6000803e3d6000fd5b505050506040513d601f19601f8201168201806040525081019062003d82919062004972565b50505050565b6040518060400160405280600781526020016611d95b995c985b60ca1b81525062003db33362002916565b8062003dda575062003dc58162002a66565b6001600160a01b0316336001600160a01b0316145b8062003de9575061016e5460ff165b62003e085760405162461bcd60e51b815260040162000c849062005056565b62003e13826200318c565b620021665760405162461bcd60e51b815260206004820152602560248201527f42756467657420496d706c656d656e746174696f6e206e6f742077686974656c6044820152641a5cdd195960da1b606482015260840162000c84565b6001600160a01b03811660008181526101706020908152604091829020805460ff1916600117905590519182527f808665eda000f8d729f31a384bae411282aa3be62cb73ed74e2225e2eef7125d9101620027b9565b6001600160a01b0381163b62003f345760405162461bcd60e51b815260206004820152602d60248201527f455243313936373a206e657720696d706c656d656e746174696f6e206973206e60448201526c1bdd08184818dbdb9d1c9858dd609a1b606482015260840162000c84565b60008051602062005a5e83398151915280546001600160a01b0319166001600160a01b0392909216919091179055565b62003f6f8362003ba8565b60008251118062003f7d5750805b15620011bf5762003d82838360606001600160a01b0383163b62003ff35760405162461bcd60e51b815260206004820152602660248201527f416464726573733a2064656c65676174652063616c6c20746f206e6f6e2d636f6044820152651b9d1c9858dd60d21b606482015260840162000c84565b600080846001600160a01b03168460405162004010919062004e3a565b600060405180830381855af49150503d80600081146200404d576040519150601f19603f3d011682016040523d82523d6000602084013e62004052565b606091505b50915091506200407d828260405180606001604052806027815260200162005a7e6027913962004086565b95945050505050565b606083156200409757508162002e27565b825115620040a85782518084602001fd5b8160405162461bcd60e51b815260040162000c84919062004f5b565b828054620040d2906200525d565b90600052602060002090601f016020900481019282620040f6576000855562004141565b82601f106200411157805160ff191683800117855562004141565b8280016001018555821562004141579182015b828111156200414157825182559160200191906001019062004124565b506200414f929150620041de565b5090565b82805462004161906200525d565b90600052602060002090601f01602090048101928262004185576000855562004141565b82601f10620041a05782800160ff1982351617855562004141565b8280016001018555821562004141579182015b8281111562004141578235825591602001919060010190620041b3565b610721806200533d83390190565b5b808211156200414f5760008155600101620041df565b803562003ac78162005326565b60008083601f8401126200421557600080fd5b5081356001600160401b038111156200422d57600080fd5b6020830191508360208260051b85010111156200424957600080fd5b9250929050565b600082601f8301126200426257600080fd5b813560206200427b6200427583620051c4565b62005191565b80838252828201915082860187848660051b89010111156200429c57600080fd5b60005b85811015620042c8578135620042b58162005326565b845292840192908401906001016200429f565b5090979650505050505050565b600082601f830112620042e757600080fd5b81356020620042fa6200427583620051c4565b80838252828201915082860187848660051b89010111156200431b57600080fd5b6000805b86811015620043625782356001600160401b038111156200433e578283fd5b6200434e8b88838d0101620043d7565b86525093850193918501916001016200431f565b509198975050505050505050565b600082601f8301126200438257600080fd5b81356020620043956200427583620051c4565b80838252828201915082860187848660051b8901011115620043b657600080fd5b60005b85811015620042c857813584529284019290840190600101620043b9565b600082601f830112620043e957600080fd5b8135620043fa6200427582620051ea565b8181528460208386010111156200441057600080fd5b816020850160208301376000918101602001919091529392505050565b60008083601f8401126200444057600080fd5b5081356001600160401b038111156200445857600080fd5b6020830191508360208285010111156200424957600080fd5b6000602082840312156200448457600080fd5b813562002e278162005326565b600060208284031215620044a457600080fd5b815162002e278162005326565b600080600080600060a08688031215620044ca57600080fd5b8535620044d78162005326565b94506020860135620044e98162005326565b935060408601356001600160401b03808211156200450657600080fd5b6200451489838a0162004370565b945060608801359150808211156200452b57600080fd5b6200453989838a0162004370565b935060808801359150808211156200455057600080fd5b506200455f88828901620043d7565b9150509295509295909350565b600080600080608085870312156200458357600080fd5b8435620045908162005326565b93506020850135620045a28162005326565b92506040850135915060608501356001600160401b03811115620045c557600080fd5b620045d387828801620043d7565b91505092959194509250565b600080600080600060a08688031215620045f857600080fd5b8535620046058162005326565b94506020860135620046178162005326565b9350604086013592506060860135915060808601356001600160401b038111156200464157600080fd5b6200455f88828901620043d7565b600080604083850312156200466357600080fd5b8235620046708162005326565b915060208301356001600160401b038111156200468c57600080fd5b6200469a85828601620043d7565b9150509250929050565b600080600060608486031215620046ba57600080fd5b8335620046c78162005326565b925060208401356001600160401b03811115620046e357600080fd5b620046f186828701620043d7565b925050604084013590509250925092565b600080604083850312156200471657600080fd5b8235620047238162005326565b946020939093013593505050565b6000806000606084860312156200474757600080fd5b8335620047548162005326565b95602085013595506040909401359392505050565b600080602083850312156200477d57600080fd5b82356001600160401b038111156200479457600080fd5b620047a28582860162004202565b90969095509350505050565b600080600080600060608688031215620047c757600080fd5b85356001600160401b0380821115620047df57600080fd5b620047ed89838a0162004202565b909750955060208801359150808211156200480757600080fd5b6200481589838a0162004202565b909550935060408801359150808211156200455057600080fd5b600080600080600080606087890312156200484957600080fd5b86356001600160401b03808211156200486157600080fd5b6200486f8a838b0162004202565b909850965060208901359150808211156200488957600080fd5b620048978a838b0162004202565b90965094506040890135915080821115620048b157600080fd5b50620048c089828a0162004202565b979a9699509497509295939492505050565b600060208284031215620048e557600080fd5b81356001600160401b03811115620048fc57600080fd5b6200490a8482850162004250565b949350505050565b600080604083850312156200492657600080fd5b82356001600160401b03808211156200493e57600080fd5b6200494c8683870162004250565b935060208501359150808211156200496357600080fd5b506200469a85828601620042d5565b6000602082840312156200498557600080fd5b8151801515811462002e2757600080fd5b600060208284031215620049a957600080fd5b5051919050565b600060208284031215620049c357600080fd5b81356001600160e01b03198116811462002e2757600080fd5b60008060208385031215620049f057600080fd5b82356001600160401b0381111562004a0757600080fd5b620047a2858286016200442d565b60008060008060008060008060e0898b03121562004a3257600080fd5b88356001600160401b0381111562004a4957600080fd5b62004a578b828c016200442d565b90995097505060208901359550604089013594506060890135935060808901356003811062004a8557600080fd5b925060a089013562004a978162005326565b8092505060c089013590509295985092959890939650565b60006020828403121562004ac257600080fd5b81356001600160401b0381111562004ad957600080fd5b6200490a84828501620043d7565b60006020828403121562004afa57600080fd5b81516001600160401b0381111562004b1157600080fd5b8201601f8101841362004b2357600080fd5b805162004b346200427582620051ea565b81815285602083850101111562004b4a57600080fd5b6200407d8260208301602086016200522e565b6000806000806080858703121562004b7457600080fd5b84356001600160401b038082111562004b8c57600080fd5b62004b9a88838901620043d7565b95506020870135915062004bae8262005326565b9093506040860135908082111562004bc557600080fd5b62004bd38883890162004250565b9350606087013591508082111562004bea57600080fd5b50620045d387828801620043d7565b6000806040838503121562004c0d57600080fd5b82356001600160401b038082111562004c2557600080fd5b908401906101a0828703121562004c3b57600080fd5b62004c4562005165565b62004c5083620041f5565b815262004c6060208401620041f5565b602082015262004c7360408401620041f5565b604082015262004c8660608401620041f5565b606082015262004c9960808401620041f5565b608082015262004cac60a08401620041f5565b60a082015260c08301358281111562004cc457600080fd5b62004cd288828601620043d7565b60c08301525060e08301358281111562004ceb57600080fd5b62004cf988828601620043d7565b60e08301525061010062004d0f818501620041f5565b90820152610120838101358381111562004d2857600080fd5b62004d3689828701620043d7565b828401525050610140808401358381111562004d5157600080fd5b62004d5f89828701620043d7565b828401525050610160808401358381111562004d7a57600080fd5b62004d888982870162004250565b82840152505061018062004d9e818501620041f5565b90820152935060208501359150808211156200496357600080fd5b60006020828403121562004dcc57600080fd5b5035919050565b6000815180845262004ded8160208601602086016200522e565b601f01601f19169290920160200192915050565b81835281816020850137506000828201602090810191909152601f909101601f19169091010190565b8183823760009101908152919050565b6000825162004e4e8184602087016200522e565b9190910192915050565b6000835162004e6c8184602088016200522e565b83519083019062004e828183602088016200522e565b01949350505050565b6001600160a01b03831681526040602082018190526000906200490a9083018462004dd3565b6001600160a01b038416815260606020820181905260009062004ed79083018562004dd3565b828103604084015262004eeb818562004dd3565b9695505050505050565b6000602080830181845280855180835260408601915060408160051b870101925083870160005b8281101562004f4e57603f1988860301845262004f3b85835162004dd3565b9450928501929085019060010162004f1c565b5092979650505050505050565b60208152600062002e27602083018462004dd3565b6020815260006200490a60208301848662004e01565b60c08152600062004f9c60c08301898b62004e01565b602083019790975250604081019490945260608401929092526001600160a01b0316608083015260a09091015292915050565b60808152600062004fe4608083018762004dd3565b6001600160a01b03868116602085810191909152848303604086015286518084528782019391929183019060005b818110156200503257855184168352948401949184019160010162005012565b5050858103606087015262005048818862004dd3565b9a9950505050505050505050565b6020808252601490820152731058dd1a5bdb881b9bdd081c195c9b5a5d1d195960621b604082015260600190565b6020808252602c908201527f46756e6374696f6e206d7573742062652063616c6c6564207468726f7567682060408201526b19195b1959d85d1958d85b1b60a21b606082015260800190565b6020808252602c908201527f46756e6374696f6e206d7573742062652063616c6c6564207468726f7567682060408201526b6163746976652070726f787960a01b606082015260800190565b6000808335601e198436030181126200513457600080fd5b8301803591506001600160401b038211156200514f57600080fd5b6020019150368190038213156200424957600080fd5b6040516101a081016001600160401b03811182821017156200518b576200518b62005310565b60405290565b604051601f8201601f191681016001600160401b0381118282101715620051bc57620051bc62005310565b604052919050565b60006001600160401b03821115620051e057620051e062005310565b5060051b60200190565b60006001600160401b0382111562005206576200520662005310565b50601f01601f191660200190565b600082821015620052295762005229620052b8565b500390565b60005b838110156200524b57818101518382015260200162005231565b8381111562003d825750506000910152565b600181811c908216806200527257607f821691505b602082108114156200529457634e487b7160e01b600052602260045260246000fd5b50919050565b6000600019821415620052b157620052b1620052b8565b5060010190565b634e487b7160e01b600052601160045260246000fd5b634e487b7160e01b600052602160045260246000fd5b634e487b7160e01b600052603160045260246000fd5b634e487b7160e01b600052603260045260246000fd5b634e487b7160e01b600052604160045260246000fd5b6001600160a01b0381168114620017ee57600080fdfe6080604052604051610721380380610721833981016040819052610022916102d2565b61002e82826000610035565b5050610431565b61003e8361006b565b60008251118061004b5750805b156100665761006483836100ab60201b6100291760201c565b505b505050565b610074816100d7565b6040516001600160a01b038216907fbc7cd75a20ee27fd9adebab32041f755214dbc6bffa90cc0225b39da2e5c2d3b90600090a250565b60606100d083836040518060600160405280602781526020016106fa602791396101a9565b9392505050565b6100ea8161028760201b6100551760201c565b6101515760405162461bcd60e51b815260206004820152602d60248201527f455243313936373a206e657720696d706c656d656e746174696f6e206973206e60448201526c1bdd08184818dbdb9d1c9858dd609a1b60648201526084015b60405180910390fd5b806101887f360894a13ba1a3210667c828492db98dca3e2076cc3735a920a3ca505d382bbc60001b61029660201b6100641760201c565b80546001600160a01b0319166001600160a01b039290921691909117905550565b60606001600160a01b0384163b6102115760405162461bcd60e51b815260206004820152602660248201527f416464726573733a2064656c65676174652063616c6c20746f206e6f6e2d636f6044820152651b9d1c9858dd60d21b6064820152608401610148565b600080856001600160a01b03168560405161022c91906103a0565b600060405180830381855af49150503d8060008114610267576040519150601f19603f3d011682016040523d82523d6000602084013e61026c565b606091505b50909250905061027d828286610299565b9695505050505050565b6001600160a01b03163b151590565b90565b606083156102a85750816100d0565b8251156102b85782518084602001fd5b8160405162461bcd60e51b815260040161014891906103bc565b600080604083850312156102e557600080fd5b82516001600160a01b03811681146102fc57600080fd5b60208401519092506001600160401b038082111561031957600080fd5b818501915085601f83011261032d57600080fd5b81518181111561033f5761033f61041b565b604051601f8201601f19908116603f011681019083821181831017156103675761036761041b565b8160405282815288602084870101111561038057600080fd5b6103918360208301602088016103ef565b80955050505050509250929050565b600082516103b28184602087016103ef565b9190910192915050565b60208152600082518060208401526103db8160408501602087016103ef565b601f01601f19169190910160400192915050565b60005b8381101561040a5781810151838201526020016103f2565b838111156100645750506000910152565b634e487b7160e01b600052604160045260246000fd5b6102ba806104406000396000f3fe60806040523661001357610011610017565b005b6100115b610027610022610067565b61009f565b565b606061004e838360405180606001604052806027815260200161025e602791396100c3565b9392505050565b6001600160a01b03163b151590565b90565b600061009a7f360894a13ba1a3210667c828492db98dca3e2076cc3735a920a3ca505d382bbc546001600160a01b031690565b905090565b3660008037600080366000845af43d6000803e8080156100be573d6000f35b3d6000fd5b60606001600160a01b0384163b6101305760405162461bcd60e51b815260206004820152602660248201527f416464726573733a2064656c65676174652063616c6c20746f206e6f6e2d636f6044820152651b9d1c9858dd60d21b60648201526084015b60405180910390fd5b600080856001600160a01b03168560405161014b91906101de565b600060405180830381855af49150503d8060008114610186576040519150601f19603f3d011682016040523d82523d6000602084013e61018b565b606091505b509150915061019b8282866101a5565b9695505050505050565b606083156101b457508161004e565b8251156101c45782518084602001fd5b8160405162461bcd60e51b815260040161012791906101fa565b600082516101f081846020870161022d565b9190910192915050565b602081526000825180602084015261021981604085016020870161022d565b601f01601f19169190910160400192915050565b60005b83811015610248578181015183820152602001610230565b83811115610257576000848401525b5050505056fe416464726573733a206c6f772d6c6576656c2064656c65676174652063616c6c206661696c6564a2646970667358221220fb537d1df0a2f3ea0050d30fb82ca020f06a83116d3853b9eda518a67b0c9be764736f6c63430008070033416464726573733a206c6f772d6c6576656c2064656c65676174652063616c6c206661696c6564360894a13ba1a3210667c828492db98dca3e2076cc3735a920a3ca505d382bbc416464726573733a206c6f772d6c6576656c2064656c65676174652063616c6c206661696c6564a26469706673582212203a6597a5439d706aea26b48b81c2508e11301457b14a856338316fe590cfece264736f6c63430008070033",
  "devdoc": {
    "kind": "dev",
    "methods": {
      "constructor": {
        "custom:oz-upgrades-unsafe-allow": "constructor"
      },
      "onERC721Received(address,address,uint256,bytes)": {
        "details": "See {IERC721Receiver-onERC721Received}. Always returns `IERC721Receiver.onERC721Received.selector`."
      },
      "proxiableUUID()": {
        "details": "Implementation of the ERC1822 {proxiableUUID} function. This returns the storage slot used by the implementation. It is used to validate that the this implementation remains valid after an upgrade. IMPORTANT: A proxy pointing at a proxiable contract should not be considered proxiable itself, because this risks bricking a proxy that upgrades to it, by delegating to itself until out of gas. Thus it is critical that this function revert if invoked through a proxy. This is guaranteed by the `notDelegated` modifier."
      },
      "supportsInterface(bytes4)": {
        "details": "See {IERC165-supportsInterface}."
      },
      "upgradeTo(address)": {
        "details": "Upgrade the implementation of the proxy to `newImplementation`. Calls {_authorizeUpgrade}. Emits an {Upgraded} event."
      },
      "upgradeToAndCall(address,bytes)": {
        "details": "Upgrade the implementation of the proxy to `newImplementation`, and subsequently execute the function call encoded in `data`. Calls {_authorizeUpgrade}. Emits an {Upgraded} event."
      }
    },
    "version": 1
  },
  "userdoc": {
    "kind": "user",
    "methods": {},
    "version": 1
  },
  "storageLayout": {
    "storage": [
      {
        "astId": 3115,
        "contract": "contracts/Dao.sol:Dao",
        "label": "_initialized",
        "offset": 0,
        "slot": "0",
        "type": "t_uint8"
      },
      {
        "astId": 3118,
        "contract": "contracts/Dao.sol:Dao",
        "label": "_initializing",
        "offset": 1,
        "slot": "0",
        "type": "t_bool"
      },
      {
        "astId": 3097,
        "contract": "contracts/Dao.sol:Dao",
        "label": "__gap",
        "offset": 0,
        "slot": "1",
        "type": "t_array(t_uint256)50_storage"
      },
      {
        "astId": 3394,
        "contract": "contracts/Dao.sol:Dao",
        "label": "__gap",
        "offset": 0,
        "slot": "51",
        "type": "t_array(t_uint256)50_storage"
      },
      {
        "astId": 4656,
        "contract": "contracts/Dao.sol:Dao",
        "label": "__gap",
        "offset": 0,
        "slot": "101",
        "type": "t_array(t_uint256)50_storage"
      },
      {
        "astId": 6331,
        "contract": "contracts/Dao.sol:Dao",
        "label": "__gap",
        "offset": 0,
        "slot": "151",
        "type": "t_array(t_uint256)50_storage"
      },
      {
        "astId": 3560,
        "contract": "contracts/Dao.sol:Dao",
        "label": "__gap",
        "offset": 0,
        "slot": "201",
        "type": "t_array(t_uint256)50_storage"
      },
      {
        "astId": 3506,
        "contract": "contracts/Dao.sol:Dao",
        "label": "__gap",
        "offset": 0,
        "slot": "251",
        "type": "t_array(t_uint256)50_storage"
      },
      {
        "astId": 17112,
        "contract": "contracts/Dao.sol:Dao",
        "label": "_team",
        "offset": 0,
        "slot": "301",
        "type": "t_address"
      },
      {
        "astId": 17116,
        "contract": "contracts/Dao.sol:Dao",
        "label": "_budgetApprovals",
        "offset": 0,
        "slot": "302",
        "type": "t_mapping(t_address,t_bool)"
      },
      {
        "astId": 17118,
        "contract": "contracts/Dao.sol:Dao",
        "label": "_accountSystem",
        "offset": 0,
        "slot": "303",
        "type": "t_address"
      },
      {
        "astId": 17395,
        "contract": "contracts/Dao.sol:Dao",
        "label": "__gap",
        "offset": 0,
        "slot": "304",
        "type": "t_array(t_uint256)50_storage"
      },
      {
        "astId": 11176,
        "contract": "contracts/Dao.sol:Dao",
        "label": "memberToken",
        "offset": 0,
        "slot": "354",
        "type": "t_address"
      },
      {
        "astId": 11178,
        "contract": "contracts/Dao.sol:Dao",
        "label": "creator",
        "offset": 0,
        "slot": "355",
        "type": "t_address"
      },
      {
        "astId": 11180,
        "contract": "contracts/Dao.sol:Dao",
        "label": "adam",
        "offset": 0,
        "slot": "356",
        "type": "t_address"
      },
      {
        "astId": 11182,
        "contract": "contracts/Dao.sol:Dao",
        "label": "membership",
        "offset": 0,
        "slot": "357",
        "type": "t_address"
      },
      {
        "astId": 11184,
        "contract": "contracts/Dao.sol:Dao",
        "label": "liquidPool",
        "offset": 0,
        "slot": "358",
        "type": "t_address"
      },
      {
        "astId": 11186,
        "contract": "contracts/Dao.sol:Dao",
        "label": "governFactory",
        "offset": 0,
        "slot": "359",
        "type": "t_address"
      },
      {
        "astId": 11188,
        "contract": "contracts/Dao.sol:Dao",
        "label": "name",
        "offset": 0,
        "slot": "360",
        "type": "t_string_storage"
      },
      {
        "astId": 11190,
        "contract": "contracts/Dao.sol:Dao",
        "label": "locktime",
        "offset": 0,
        "slot": "361",
        "type": "t_uint256"
      },
      {
        "astId": 11192,
        "contract": "contracts/Dao.sol:Dao",
        "label": "minDepositAmount",
        "offset": 0,
        "slot": "362",
        "type": "t_uint256"
      },
      {
        "astId": 11194,
        "contract": "contracts/Dao.sol:Dao",
        "label": "baseCurrency",
        "offset": 0,
        "slot": "363",
        "type": "t_address"
      },
      {
        "astId": 11196,
        "contract": "contracts/Dao.sol:Dao",
        "label": "logoCID",
        "offset": 0,
        "slot": "364",
        "type": "t_string_storage"
      },
      {
        "astId": 11199,
        "contract": "contracts/Dao.sol:Dao",
        "label": "admissionTokens",
        "offset": 0,
        "slot": "365",
        "type": "t_array(t_address)dyn_storage"
      },
      {
        "astId": 11201,
        "contract": "contracts/Dao.sol:Dao",
        "label": "_initializing",
        "offset": 0,
        "slot": "366",
        "type": "t_bool"
      },
      {
        "astId": 11205,
        "contract": "contracts/Dao.sol:Dao",
        "label": "firstDepositTime",
        "offset": 0,
        "slot": "367",
        "type": "t_mapping(t_address,t_uint256)"
      },
      {
        "astId": 11209,
        "contract": "contracts/Dao.sol:Dao",
        "label": "isAssetSupported",
        "offset": 0,
        "slot": "368",
        "type": "t_mapping(t_address,t_bool)"
      },
      {
        "astId": 11213,
        "contract": "contracts/Dao.sol:Dao",
        "label": "teamWhitelist",
        "offset": 0,
        "slot": "369",
        "type": "t_mapping(t_uint256,t_bool)"
      },
      {
        "astId": 11218,
        "contract": "contracts/Dao.sol:Dao",
        "label": "admissionTokenSetting",
        "offset": 0,
        "slot": "370",
        "type": "t_mapping(t_address,t_struct(AdmissionTokenSetting)11170_storage)"
      },
      {
        "astId": 11221,
        "contract": "contracts/Dao.sol:Dao",
        "label": "accountSystem",
        "offset": 0,
        "slot": "371",
        "type": "t_address"
      },
      {
        "astId": 12698,
        "contract": "contracts/Dao.sol:Dao",
        "label": "__gap",
        "offset": 0,
        "slot": "372",
        "type": "t_array(t_uint256)49_storage"
      }
    ],
    "types": {
      "t_address": {
        "encoding": "inplace",
        "label": "address",
        "numberOfBytes": "20"
      },
      "t_array(t_address)dyn_storage": {
        "base": "t_address",
        "encoding": "dynamic_array",
        "label": "address[]",
        "numberOfBytes": "32"
      },
      "t_array(t_uint256)49_storage": {
        "base": "t_uint256",
        "encoding": "inplace",
        "label": "uint256[49]",
        "numberOfBytes": "1568"
      },
      "t_array(t_uint256)50_storage": {
        "base": "t_uint256",
        "encoding": "inplace",
        "label": "uint256[50]",
        "numberOfBytes": "1600"
      },
      "t_bool": {
        "encoding": "inplace",
        "label": "bool",
        "numberOfBytes": "1"
      },
      "t_mapping(t_address,t_bool)": {
        "encoding": "mapping",
        "key": "t_address",
        "label": "mapping(address => bool)",
        "numberOfBytes": "32",
        "value": "t_bool"
      },
      "t_mapping(t_address,t_struct(AdmissionTokenSetting)11170_storage)": {
        "encoding": "mapping",
        "key": "t_address",
        "label": "mapping(address => struct Dao.AdmissionTokenSetting)",
        "numberOfBytes": "32",
        "value": "t_struct(AdmissionTokenSetting)11170_storage"
      },
      "t_mapping(t_address,t_uint256)": {
        "encoding": "mapping",
        "key": "t_address",
        "label": "mapping(address => uint256)",
        "numberOfBytes": "32",
        "value": "t_uint256"
      },
      "t_mapping(t_uint256,t_bool)": {
        "encoding": "mapping",
        "key": "t_uint256",
        "label": "mapping(uint256 => bool)",
        "numberOfBytes": "32",
        "value": "t_bool"
      },
      "t_string_storage": {
        "encoding": "bytes",
        "label": "string",
        "numberOfBytes": "32"
      },
      "t_struct(AdmissionTokenSetting)11170_storage": {
        "encoding": "inplace",
        "label": "struct Dao.AdmissionTokenSetting",
        "members": [
          {
            "astId": 11165,
            "contract": "contracts/Dao.sol:Dao",
            "label": "minTokenToAdmit",
            "offset": 0,
            "slot": "0",
            "type": "t_uint256"
          },
          {
            "astId": 11167,
            "contract": "contracts/Dao.sol:Dao",
            "label": "tokenId",
            "offset": 0,
            "slot": "1",
            "type": "t_uint256"
          },
          {
            "astId": 11169,
            "contract": "contracts/Dao.sol:Dao",
            "label": "active",
            "offset": 0,
            "slot": "2",
            "type": "t_bool"
          }
        ],
        "numberOfBytes": "96"
      },
      "t_uint256": {
        "encoding": "inplace",
        "label": "uint256",
        "numberOfBytes": "32"
      },
      "t_uint8": {
        "encoding": "inplace",
        "label": "uint8",
        "numberOfBytes": "1"
      }
    }
  }
}