{
  "address": "0x75117804234e3241CB651c218E32fcF269fe126d",
  "abi": [
    {
      "inputs": [],
      "stateMutability": "nonpayable",
      "type": "constructor"
    },
    {
      "anonymous": false,
      "inputs": [
        {
          "indexed": false,
          "internalType": "uint8",
          "name": "version",
          "type": "uint8"
        }
      ],
      "name": "Initialized",
      "type": "event"
    },
    {
      "inputs": [
        {
          "internalType": "address",
          "name": "asset",
          "type": "address"
        }
      ],
      "name": "assetDecimals",
      "outputs": [
        {
          "internalType": "uint8",
          "name": "",
          "type": "uint8"
        }
      ],
      "stateMutability": "view",
      "type": "function"
    },
    {
      "inputs": [
        {
          "internalType": "address",
          "name": "asset",
          "type": "address"
        },
        {
          "internalType": "uint256",
          "name": "amount",
          "type": "uint256"
        }
      ],
      "name": "assetEthPrice",
      "outputs": [
        {
          "internalType": "uint256",
          "name": "",
          "type": "uint256"
        }
      ],
      "stateMutability": "view",
      "type": "function"
    },
    {
      "inputs": [
        {
          "internalType": "address",
          "name": "asset",
          "type": "address"
        },
        {
          "internalType": "address",
          "name": "base",
          "type": "address"
        },
        {
          "internalType": "uint256",
          "name": "amount",
          "type": "uint256"
        }
      ],
      "name": "assetPrice",
      "outputs": [
        {
          "internalType": "uint256",
          "name": "",
          "type": "uint256"
        }
      ],
      "stateMutability": "view",
      "type": "function"
    },
    {
      "inputs": [
        {
          "internalType": "address",
          "name": "asset",
          "type": "address"
        },
        {
          "internalType": "address",
          "name": "base",
          "type": "address"
        },
        {
          "internalType": "uint256",
          "name": "amount",
          "type": "uint256"
        }
      ],
      "name": "derivedAssetPrice",
      "outputs": [
        {
          "internalType": "uint256",
          "name": "",
          "type": "uint256"
        }
      ],
      "stateMutability": "view",
      "type": "function"
    },
    {
      "inputs": [
        {
          "internalType": "address",
          "name": "asset",
          "type": "address"
        },
        {
          "internalType": "uint256",
          "name": "ethAmount",
          "type": "uint256"
        }
      ],
      "name": "ethAssetPrice",
      "outputs": [
        {
          "internalType": "uint256",
          "name": "",
          "type": "uint256"
        }
      ],
      "stateMutability": "view",
      "type": "function"
    },
    {
      "inputs": [
        {
          "internalType": "address",
          "name": "asset",
          "type": "address"
        },
        {
          "internalType": "address",
          "name": "base",
          "type": "address"
        }
      ],
      "name": "isSupportedPair",
      "outputs": [
        {
          "internalType": "bool",
          "name": "",
          "type": "bool"
        }
      ],
      "stateMutability": "view",
      "type": "function"
    },
    {
      "inputs": [],
      "name": "name",
      "outputs": [
        {
          "internalType": "string",
          "name": "",
          "type": "string"
        }
      ],
      "stateMutability": "view",
      "type": "function"
    }
  ],
  "transactionHash": "0x45a9220a1f048036c736b6a2442f48695b9345dd3d55ed9a110c14af5ac4636e",
  "args": [],
  "numDeployments": 1,
  "solcInputHash": "3f664844ced2cb498657d1fff7b71bf7",
  "bytecode": "0x608060405234801561001057600080fd5b5061001961001e565b6100de565b600054610100900460ff161561008a5760405162461bcd60e51b815260206004820152602760248201527f496e697469616c697a61626c653a20636f6e747261637420697320696e697469604482015266616c697a696e6760c81b606482015260840160405180910390fd5b60005460ff90811610156100dc576000805460ff191660ff9081179091556040519081527f7f26b83ff96e1f2b6a682f133852f6798a09c465da95921460cefb38474024989060200160405180910390a15b565b61143b806100ed6000396000f3fe608060405234801561001057600080fd5b506004361061007d5760003560e01c8063b49612ba1161005b578063b49612ba14610108578063ce58da331461011b578063e019c23c1461013e578063e366da2c1461015157600080fd5b806306fdde03146100825780632851e17d146100d45780635aaaefad146100f5575b600080fd5b6100be6040518060400160405280602081526020017f457468657265756d20436861696e6c696e6b205072696365204761746577617981525081565b6040516100cb91906110d4565b60405180910390f35b6100e76100e2366004610fbd565b610176565b6040519081526020016100cb565b6100e7610103366004610ffe565b6101d4565b6100e7610116366004610ffe565b6104c7565b61012e610129366004610f84565b610790565b60405190151581526020016100cb565b6100e761014c366004610fbd565b6107ab565b61016461015f366004610f67565b610888565b60405160ff90911681526020016100cb565b6000806101858585601261092b565b905060008113156101c7576101bf61019d84836112da565b6101a687610888565b6101b1906012611178565b6101ba87610888565b610dc1565b9150506101cd565b60009150505b9392505050565b60006001600160a01b0383166000805160206113e6833981519152148061021757506001600160a01b03831673cda739d69067333974cd73a722ab92e5e0ad8a4f145b156102235750806104c1565b6000806000807333c3d797c37d1f0955f0aa5c928d2354e0b98f3d6001600160a01b031663bcfd032d886000805160206113e68339815191526040518363ffffffff1660e01b81526004016102799291906110ba565b60a06040518083038186803b15801561029157600080fd5b505afa1580156102a5573d6000803e3d6000fd5b505050506040513d601f19601f820116820180604052508101906102c99190611047565b94509450509350935060007333c3d797c37d1f0955f0aa5c928d2354e0b98f3d6001600160a01b03166358e2d3a8896000805160206113e68339815191526040518363ffffffff1660e01b81526004016103249291906110ba565b60206040518083038186803b15801561033c57600080fd5b505afa158015610350573d6000803e3d6000fd5b505050506040513d601f19601f820116820180604052508101906103749190611097565b9050846001600160501b0316826001600160501b031610156103d85760405162461bcd60e51b81526020600482015260186024820152775374616c6520707269636520696e20436861696e6c696e6b60401b60448201526064015b60405180910390fd5b6103e56201518084611160565b4211156104045760405162461bcd60e51b81526004016103cf90611129565b61041084826012610dc1565b935060008413156104b757876001600160a01b031663313ce5676040518163ffffffff1660e01b815260040160206040518083038186803b15801561045457600080fd5b505afa158015610468573d6000803e3d6000fd5b505050506040513d601f19601f8201168201806040525081019061048c9190611097565b61049790600a61122e565b6104a1888661135f565b6104ab91906111cb565b955050505050506104c1565b6000955050505050505b92915050565b60006001600160a01b0383166000805160206113e6833981519152148061050a57506001600160a01b03831673cda739d69067333974cd73a722ab92e5e0ad8a4f145b156105165750806104c1565b6000806000807333c3d797c37d1f0955f0aa5c928d2354e0b98f3d6001600160a01b031663bcfd032d886000805160206113e68339815191526040518363ffffffff1660e01b815260040161056c9291906110ba565b60a06040518083038186803b15801561058457600080fd5b505afa158015610598573d6000803e3d6000fd5b505050506040513d601f19601f820116820180604052508101906105bc9190611047565b94509450509350935060007333c3d797c37d1f0955f0aa5c928d2354e0b98f3d6001600160a01b03166358e2d3a8896000805160206113e68339815191526040518363ffffffff1660e01b81526004016106179291906110ba565b60206040518083038186803b15801561062f57600080fd5b505afa158015610643573d6000803e3d6000fd5b505050506040513d601f19601f820116820180604052508101906106679190611097565b9050846001600160501b0316826001600160501b031610156106c65760405162461bcd60e51b81526020600482015260186024820152775374616c6520707269636520696e20436861696e6c696e6b60401b60448201526064016103cf565b6106d36201518084611160565b4211156106f25760405162461bcd60e51b81526004016103cf90611129565b6106fe84826012610dc1565b935060008413156104b75783886001600160a01b031663313ce5676040518163ffffffff1660e01b815260040160206040518083038186803b15801561074357600080fd5b505afa158015610757573d6000803e3d6000fd5b505050506040513d601f19601f8201168201806040525081019061077b9190611097565b61078690600a61122e565b6104a1908961135f565b600061079b83610e2b565b80156101cd57506101cd82610e2b565b6000826001600160a01b0316846001600160a01b031614156107ce5750806101cd565b6001600160a01b0383166000805160206113e6833981519152148061080f57506001600160a01b03831673cda739d69067333974cd73a722ab92e5e0ad8a4f145b156108255761081e84836101d4565b90506101cd565b6001600160a01b0384166000805160206113e6833981519152148061086657506001600160a01b03841673cda739d69067333974cd73a722ab92e5e0ad8a4f145b156108755761081e83836104c7565b610880848484610176565b949350505050565b60006001600160a01b0382166000805160206113e683398151915214156108b157506012919050565b816001600160a01b031663313ce5676040518163ffffffff1660e01b815260040160206040518083038186803b1580156108ea57600080fd5b505afa92505050801561091a575060408051601f3d908101601f1916820190925261091791810190611097565b60015b6104c157506000919050565b919050565b600060ff8216158015906109435750601260ff831611155b6109835760405162461bcd60e51b8152602060048201526011602482015270496e76616c6964205f646563696d616c7360781b60448201526064016103cf565b600061099360ff8416600a611222565b90506000806000807333c3d797c37d1f0955f0aa5c928d2354e0b98f3d6001600160a01b031663bcfd032d8a6000805160206113e68339815191526040518363ffffffff1660e01b81526004016109eb9291906110ba565b60a06040518083038186803b158015610a0357600080fd5b505afa158015610a17573d6000803e3d6000fd5b505050506040513d601f19601f82011682018060405250810190610a3b9190611047565b945094505093509350836001600160501b0316816001600160501b03161015610aa65760405162461bcd60e51b815260206004820152601c60248201527f5374616c6520707269636520696e20436861696e6c696e6b203130340000000060448201526064016103cf565b610ab36201518083611160565b421115610b025760405162461bcd60e51b815260206004820152601c60248201527f5374616c6520707269636520696e20436861696e6c696e6b203130350000000060448201526064016103cf565b604051630b1c5a7560e31b81526000907333c3d797c37d1f0955f0aa5c928d2354e0b98f3d906358e2d3a890610b4c908d906000805160206113e6833981519152906004016110ba565b60206040518083038186803b158015610b6457600080fd5b505afa158015610b78573d6000803e3d6000fd5b505050506040513d601f19601f82011682018060405250810190610b9c9190611097565b9050610ba984828a610dc1565b93506000806000807333c3d797c37d1f0955f0aa5c928d2354e0b98f3d6001600160a01b031663bcfd032d8e6000805160206113e68339815191526040518363ffffffff1660e01b8152600401610c019291906110ba565b60a06040518083038186803b158015610c1957600080fd5b505afa158015610c2d573d6000803e3d6000fd5b505050506040513d601f19601f82011682018060405250810190610c519190611047565b945094505093509350836001600160501b0316816001600160501b03161015610cbc5760405162461bcd60e51b815260206004820152601c60248201527f5374616c6520707269636520696e20436861696e6c696e6b203131320000000060448201526064016103cf565b610cc96201518083611160565b421115610ce85760405162461bcd60e51b81526004016103cf90611129565b60007333c3d797c37d1f0955f0aa5c928d2354e0b98f3d6001600160a01b03166358e2d3a88f6000805160206113e68339815191526040518363ffffffff1660e01b8152600401610d3a9291906110ba565b60206040518083038186803b158015610d5257600080fd5b505afa158015610d66573d6000803e3d6000fd5b505050506040513d601f19601f82011682018060405250810190610d8a9190611097565b9050610d9784828f610dc1565b935083610da48c8b6112da565b610dae919061119d565b9f9e505050505050505050505050505050565b60008160ff168360ff161015610df357610ddb838361137e565b610de99060ff16600a611222565b61081e90856112da565b8160ff168360ff161115610e2357610e0b828461137e565b610e199060ff16600a611222565b61081e908561119d565b509192915050565b60006001600160a01b0382166000805160206113e68339815191521480610e6e57506001600160a01b03821673cda739d69067333974cd73a722ab92e5e0ad8a4f145b15610e7b57506001919050565b60405163d2edb6dd60e01b81527333c3d797c37d1f0955f0aa5c928d2354e0b98f3d9063d2edb6dd90610ec29085906000805160206113e6833981519152906004016110ba565b60206040518083038186803b158015610eda57600080fd5b505afa925050508015610f0a575060408051601f3d908101601f19168201909252610f079181019061102a565b60015b610f47573d808015610f38576040519150601f19603f3d011682016040523d82523d6000602084013e610f3d565b606091505b5060009392505050565b50600192915050565b80516001600160501b038116811461092657600080fd5b600060208284031215610f7957600080fd5b81356101cd816113cd565b60008060408385031215610f9757600080fd5b8235610fa2816113cd565b91506020830135610fb2816113cd565b809150509250929050565b600080600060608486031215610fd257600080fd5b8335610fdd816113cd565b92506020840135610fed816113cd565b929592945050506040919091013590565b6000806040838503121561101157600080fd5b823561101c816113cd565b946020939093013593505050565b60006020828403121561103c57600080fd5b81516101cd816113cd565b600080600080600060a0868803121561105f57600080fd5b61106886610f50565b945060208601519350604086015192506060860151915061108b60808701610f50565b90509295509295909350565b6000602082840312156110a957600080fd5b815160ff811681146101cd57600080fd5b6001600160a01b0392831681529116602082015260400190565b600060208083528351808285015260005b81811015611101578581018301518582016040015282016110e5565b81811115611113576000604083870101525b50601f01601f1916929092016040019392505050565b6020808252601c908201527f5374616c6520707269636520696e20436861696e6c696e6b2031313300000000604082015260600190565b60008219821115611173576111736113a1565b500190565b600060ff821660ff84168060ff03821115611195576111956113a1565b019392505050565b6000826111ac576111ac6113b7565b600160ff1b8214600019841416156111c6576111c66113a1565b500590565b6000826111da576111da6113b7565b500490565b600181815b8085111561121a578160001904821115611200576112006113a1565b8085161561120d57918102915b93841c93908002906111e4565b509250929050565b60006101cd8383611239565b60006101cd60ff8416835b600082611248575060016104c1565b81611255575060006104c1565b816001811461126b576002811461127557611291565b60019150506104c1565b60ff841115611286576112866113a1565b50506001821b6104c1565b5060208310610133831016604e8410600b84101617156112b4575081810a6104c1565b6112be83836111df565b80600019048211156112d2576112d26113a1565b029392505050565b60006001600160ff1b0381841382841380821686840486111615611300576113006113a1565b600160ff1b600087128281168783058912161561131f5761131f6113a1565b6000871292508782058712848416161561133b5761133b6113a1565b87850587128184161615611351576113516113a1565b505050929093029392505050565b6000816000190483118215151615611379576113796113a1565b500290565b600060ff821660ff841680821015611398576113986113a1565b90039392505050565b634e487b7160e01b600052601160045260246000fd5b634e487b7160e01b600052601260045260246000fd5b6001600160a01b03811681146113e257600080fd5b5056fe000000000000000000000000eeeeeeeeeeeeeeeeeeeeeeeeeeeeeeeeeeeeeeeea2646970667358221220c019bdee8c3371e1ae6ab0eefe2051e1f80b2837a0dedac9f673a5fdfaf5044564736f6c63430008070033",
  "devdoc": {
    "kind": "dev",
    "methods": {
      "assetPrice(address,address,uint256)": {
        "details": "For those outside contract , Please used this as the entry pointthis Function will help to route the calculate to other cal function,Please do not directly call the below cal function",
        "params": {
          "amount": "the amount of asset, in asset decimal",
          "asset": "the asset token address, support ETH , WETH and other ERC20",
          "base": "the base token address, support ETH , WETH and other ERC20"
        },
        "returns": {
          "_0": "uint256 the Asset Price in term of base token in base token decimal"
        }
      },
      "isSupportedPair(address,address)": {
        "details": "Custom price gateway is allowed, but need to implement priceGateway.sol and set by govern",
        "params": {
          "asset": "the asset token address, support ETH , WETH and other ERC20",
          "base": "the base token address, support ETH , WETH and other ERC20"
        },
        "returns": {
          "_0": "boolean Is support or not"
        }
      }
    },
    "stateVariables": {
      "name": {
        "custom:oz-upgrades-unsafe-allow": "constructor"
      }
    },
    "version": 1
  },
  "userdoc": {
    "kind": "user",
    "methods": {
      "assetPrice(address,address,uint256)": {
        "notice": "inherited from PriceGateway, to cal the asset price base on different token"
      },
      "isSupportedPair(address,address)": {
        "notice": "inherited from PriceGateway, help to check the imported pair support or not"
      }
    },
    "version": 1
  },
  "storageLayout": {
    "storage": [
      {
        "astId": 3115,
        "contract": "contracts/EthereumChainlinkPriceGateway.sol:EthereumChainlinkPriceGateway",
        "label": "_initialized",
        "offset": 0,
        "slot": "0",
        "type": "t_uint8"
      },
      {
        "astId": 3118,
        "contract": "contracts/EthereumChainlinkPriceGateway.sol:EthereumChainlinkPriceGateway",
        "label": "_initializing",
        "offset": 1,
        "slot": "0",
        "type": "t_bool"
      },
      {
        "astId": 18321,
        "contract": "contracts/EthereumChainlinkPriceGateway.sol:EthereumChainlinkPriceGateway",
        "label": "__gap",
        "offset": 0,
        "slot": "1",
        "type": "t_array(t_uint256)50_storage"
      }
    ],
    "types": {
      "t_array(t_uint256)50_storage": {
        "base": "t_uint256",
        "encoding": "inplace",
        "label": "uint256[50]",
        "numberOfBytes": "1600"
      },
      "t_bool": {
        "encoding": "inplace",
        "label": "bool",
        "numberOfBytes": "1"
      },
      "t_uint256": {
        "encoding": "inplace",
        "label": "uint256",
        "numberOfBytes": "32"
      },
      "t_uint8": {
        "encoding": "inplace",
        "label": "uint8",
        "numberOfBytes": "1"
      }
    }
  }
}