{
  "address": "0xe93f985dCe361C0f05D3634A3af0627d69D0236D",
  "abi": [
    {
      "inputs": [],
      "stateMutability": "nonpayable",
      "type": "constructor"
    },
    {
      "anonymous": false,
      "inputs": [
        {
          "indexed": false,
          "internalType": "address",
          "name": "previousAdmin",
          "type": "address"
        },
        {
          "indexed": false,
          "internalType": "address",
          "name": "newAdmin",
          "type": "address"
        }
      ],
      "name": "AdminChanged",
      "type": "event"
    },
    {
      "anonymous": false,
      "inputs": [
        {
          "indexed": false,
          "internalType": "address",
          "name": "token",
          "type": "address"
        }
      ],
      "name": "AllowDepositToken",
      "type": "event"
    },
    {
      "anonymous": false,
      "inputs": [
        {
          "indexed": true,
          "internalType": "address",
          "name": "owner",
          "type": "address"
        },
        {
          "indexed": true,
          "internalType": "address",
          "name": "spender",
          "type": "address"
        },
        {
          "indexed": false,
          "internalType": "uint256",
          "name": "value",
          "type": "uint256"
        }
      ],
      "name": "Approval",
      "type": "event"
    },
    {
      "anonymous": false,
      "inputs": [
        {
          "indexed": true,
          "internalType": "address",
          "name": "beacon",
          "type": "address"
        }
      ],
      "name": "BeaconUpgraded",
      "type": "event"
    },
    {
      "anonymous": false,
      "inputs": [
        {
          "indexed": false,
          "internalType": "address",
          "name": "budgetApproval",
          "type": "address"
        },
        {
          "indexed": false,
          "internalType": "bytes",
          "name": "data",
          "type": "bytes"
        }
      ],
      "name": "CreateBudgetApproval",
      "type": "event"
    },
    {
      "anonymous": false,
      "inputs": [
        {
          "indexed": false,
          "internalType": "address",
          "name": "account",
          "type": "address"
        },
        {
          "indexed": false,
          "internalType": "address",
          "name": "token",
          "type": "address"
        },
        {
          "indexed": false,
          "internalType": "uint256",
          "name": "depositAmount",
          "type": "uint256"
        }
      ],
      "name": "Deposit",
      "type": "event"
    },
    {
      "anonymous": false,
      "inputs": [
        {
          "indexed": false,
          "internalType": "address",
          "name": "token",
          "type": "address"
        }
      ],
      "name": "DisallowDepositToken",
      "type": "event"
    },
    {
      "anonymous": false,
      "inputs": [
        {
          "indexed": false,
          "internalType": "address",
          "name": "budgetApproval",
          "type": "address"
        },
        {
          "indexed": false,
          "internalType": "bytes",
          "name": "data",
          "type": "bytes"
        }
      ],
      "name": "ExecuteByBudgetApproval",
      "type": "event"
    },
    {
      "anonymous": false,
      "inputs": [
        {
          "indexed": false,
          "internalType": "uint8",
          "name": "version",
          "type": "uint8"
        }
      ],
      "name": "Initialized",
      "type": "event"
    },
    {
      "anonymous": false,
      "inputs": [
        {
          "indexed": false,
          "internalType": "address",
          "name": "budgetApproval",
          "type": "address"
        }
      ],
      "name": "RevokeBudgetApproval",
      "type": "event"
    },
    {
      "anonymous": false,
      "inputs": [
        {
          "indexed": true,
          "internalType": "address",
          "name": "from",
          "type": "address"
        },
        {
          "indexed": true,
          "internalType": "address",
          "name": "to",
          "type": "address"
        },
        {
          "indexed": false,
          "internalType": "uint256",
          "name": "value",
          "type": "uint256"
        }
      ],
      "name": "Transfer",
      "type": "event"
    },
    {
      "anonymous": false,
      "inputs": [
        {
          "indexed": true,
          "internalType": "address",
          "name": "implementation",
          "type": "address"
        }
      ],
      "name": "Upgraded",
      "type": "event"
    },
    {
      "inputs": [],
      "name": "accountSystem",
      "outputs": [
        {
          "internalType": "address",
          "name": "",
          "type": "address"
        }
      ],
      "stateMutability": "view",
      "type": "function"
    },
    {
      "inputs": [
        {
          "internalType": "address[]",
          "name": "erc20s",
          "type": "address[]"
        }
      ],
      "name": "addAssets",
      "outputs": [],
      "stateMutability": "nonpayable",
      "type": "function"
    },
    {
      "inputs": [
        {
          "internalType": "address",
          "name": "owner",
          "type": "address"
        },
        {
          "internalType": "address",
          "name": "spender",
          "type": "address"
        }
      ],
      "name": "allowance",
      "outputs": [
        {
          "internalType": "uint256",
          "name": "",
          "type": "uint256"
        }
      ],
      "stateMutability": "view",
      "type": "function"
    },
    {
      "inputs": [
        {
          "internalType": "address",
          "name": "spender",
          "type": "address"
        },
        {
          "internalType": "uint256",
          "name": "amount",
          "type": "uint256"
        }
      ],
      "name": "approve",
      "outputs": [
        {
          "internalType": "bool",
          "name": "",
          "type": "bool"
        }
      ],
      "stateMutability": "nonpayable",
      "type": "function"
    },
    {
      "inputs": [
        {
          "internalType": "address",
          "name": "asset",
          "type": "address"
        },
        {
          "internalType": "uint256",
          "name": "amount",
          "type": "uint256"
        }
      ],
      "name": "assetBaseCurrencyPrice",
      "outputs": [
        {
          "internalType": "uint256",
          "name": "",
          "type": "uint256"
        }
      ],
      "stateMutability": "view",
      "type": "function"
    },
    {
      "inputs": [
        {
          "internalType": "address",
          "name": "asset",
          "type": "address"
        },
        {
          "internalType": "address",
          "name": "base",
          "type": "address"
        },
        {
          "internalType": "uint256",
          "name": "amount",
          "type": "uint256"
        }
      ],
      "name": "assetPrice",
      "outputs": [
        {
          "internalType": "uint256",
          "name": "",
          "type": "uint256"
        }
      ],
      "stateMutability": "view",
      "type": "function"
    },
    {
      "inputs": [
        {
          "internalType": "uint256",
          "name": "",
          "type": "uint256"
        }
      ],
      "name": "assets",
      "outputs": [
        {
          "internalType": "address",
          "name": "",
          "type": "address"
        }
      ],
      "stateMutability": "view",
      "type": "function"
    },
    {
      "inputs": [],
      "name": "assetsLength",
      "outputs": [
        {
          "internalType": "uint256",
          "name": "",
          "type": "uint256"
        }
      ],
      "stateMutability": "view",
      "type": "function"
    },
    {
      "inputs": [
        {
          "internalType": "address",
          "name": "asset",
          "type": "address"
        },
        {
          "internalType": "uint256",
          "name": "amount",
          "type": "uint256"
        }
      ],
      "name": "assetsShares",
      "outputs": [
        {
          "internalType": "uint256",
          "name": "",
          "type": "uint256"
        }
      ],
      "stateMutability": "view",
      "type": "function"
    },
    {
      "inputs": [
        {
          "internalType": "address",
          "name": "account",
          "type": "address"
        }
      ],
      "name": "balanceOf",
      "outputs": [
        {
          "internalType": "uint256",
          "name": "",
          "type": "uint256"
        }
      ],
      "stateMutability": "view",
      "type": "function"
    },
    {
      "inputs": [],
      "name": "baseCurrency",
      "outputs": [
        {
          "internalType": "address",
          "name": "",
          "type": "address"
        }
      ],
      "stateMutability": "view",
      "type": "function"
    },
    {
      "inputs": [],
      "name": "baseCurrencyDecimals",
      "outputs": [
        {
          "internalType": "uint8",
          "name": "",
          "type": "uint8"
        }
      ],
      "stateMutability": "view",
      "type": "function"
    },
    {
      "inputs": [
        {
          "internalType": "address",
          "name": "template",
          "type": "address"
        }
      ],
      "name": "budgetApprovals",
      "outputs": [
        {
          "internalType": "bool",
          "name": "",
          "type": "bool"
        }
      ],
      "stateMutability": "view",
      "type": "function"
    },
    {
      "inputs": [
        {
          "internalType": "address",
          "name": "asset",
          "type": "address"
        }
      ],
      "name": "canAddAsset",
      "outputs": [
        {
          "internalType": "bool",
          "name": "",
          "type": "bool"
        }
      ],
      "stateMutability": "view",
      "type": "function"
    },
    {
      "inputs": [
        {
          "internalType": "address",
          "name": "asset",
          "type": "address"
        }
      ],
      "name": "canResolvePrice",
      "outputs": [
        {
          "internalType": "bool",
          "name": "",
          "type": "bool"
        }
      ],
      "stateMutability": "view",
      "type": "function"
    },
    {
      "inputs": [
        {
          "internalType": "address[]",
          "name": "__budgetApprovals",
          "type": "address[]"
        },
        {
          "internalType": "bytes[]",
          "name": "data",
          "type": "bytes[]"
        }
      ],
      "name": "createBudgetApprovals",
      "outputs": [],
      "stateMutability": "nonpayable",
      "type": "function"
    },
    {
      "inputs": [],
      "name": "dao",
      "outputs": [
        {
          "internalType": "contract IDao",
          "name": "",
          "type": "address"
        }
      ],
      "stateMutability": "view",
      "type": "function"
    },
    {
      "inputs": [],
      "name": "decimals",
      "outputs": [
        {
          "internalType": "uint8",
          "name": "",
          "type": "uint8"
        }
      ],
      "stateMutability": "view",
      "type": "function"
    },
    {
      "inputs": [
        {
          "internalType": "address",
          "name": "spender",
          "type": "address"
        },
        {
          "internalType": "uint256",
          "name": "subtractedValue",
          "type": "uint256"
        }
      ],
      "name": "decreaseAllowance",
      "outputs": [
        {
          "internalType": "bool",
          "name": "",
          "type": "bool"
        }
      ],
      "stateMutability": "nonpayable",
      "type": "function"
    },
    {
      "inputs": [
        {
          "internalType": "address",
          "name": "receiver",
          "type": "address"
        }
      ],
      "name": "deposit",
      "outputs": [],
      "stateMutability": "payable",
      "type": "function"
    },
    {
      "inputs": [
        {
          "internalType": "address",
          "name": "receiver",
          "type": "address"
        },
        {
          "internalType": "address",
          "name": "asset",
          "type": "address"
        },
        {
          "internalType": "uint256",
          "name": "amount",
          "type": "uint256"
        }
      ],
      "name": "depositToken",
      "outputs": [],
      "stateMutability": "nonpayable",
      "type": "function"
    },
    {
      "inputs": [
        {
          "internalType": "address",
          "name": "_to",
          "type": "address"
        },
        {
          "internalType": "bytes",
          "name": "_data",
          "type": "bytes"
        },
        {
          "internalType": "uint256",
          "name": "_value",
          "type": "uint256"
        }
      ],
      "name": "executeByBudgetApproval",
      "outputs": [
        {
          "internalType": "bytes",
          "name": "",
          "type": "bytes"
        }
      ],
      "stateMutability": "nonpayable",
      "type": "function"
    },
    {
      "inputs": [
        {
          "internalType": "address",
          "name": "spender",
          "type": "address"
        },
        {
          "internalType": "uint256",
          "name": "addedValue",
          "type": "uint256"
        }
      ],
      "name": "increaseAllowance",
      "outputs": [
        {
          "internalType": "bool",
          "name": "",
          "type": "bool"
        }
      ],
      "stateMutability": "nonpayable",
      "type": "function"
    },
    {
      "inputs": [
        {
          "internalType": "address",
          "name": "owner",
          "type": "address"
        },
        {
          "internalType": "address[]",
          "name": "depositTokens",
          "type": "address[]"
        },
        {
          "internalType": "address",
          "name": "_baseCurrency",
          "type": "address"
        }
      ],
      "name": "initialize",
      "outputs": [],
      "stateMutability": "nonpayable",
      "type": "function"
    },
    {
      "inputs": [
        {
          "internalType": "address",
          "name": "asset",
          "type": "address"
        }
      ],
      "name": "isAssetSupported",
      "outputs": [
        {
          "internalType": "bool",
          "name": "",
          "type": "bool"
        }
      ],
      "stateMutability": "view",
      "type": "function"
    },
    {
      "inputs": [],
      "name": "name",
      "outputs": [
        {
          "internalType": "string",
          "name": "",
          "type": "string"
        }
      ],
      "stateMutability": "view",
      "type": "function"
    },
    {
      "inputs": [],
      "name": "proxiableUUID",
      "outputs": [
        {
          "internalType": "bytes32",
          "name": "",
          "type": "bytes32"
        }
      ],
      "stateMutability": "view",
      "type": "function"
    },
    {
      "inputs": [
        {
          "internalType": "uint256",
          "name": "amount",
          "type": "uint256"
        }
      ],
      "name": "quote",
      "outputs": [
        {
          "internalType": "uint256",
          "name": "",
          "type": "uint256"
        }
      ],
      "stateMutability": "view",
      "type": "function"
    },
    {
      "inputs": [
        {
          "internalType": "uint256",
          "name": "amount",
          "type": "uint256"
        }
      ],
      "name": "redeem",
      "outputs": [],
      "stateMutability": "nonpayable",
      "type": "function"
    },
    {
      "inputs": [
        {
          "internalType": "address[]",
          "name": "erc20s",
          "type": "address[]"
        }
      ],
      "name": "removeAssets",
      "outputs": [],
      "stateMutability": "nonpayable",
      "type": "function"
    },
    {
      "inputs": [
        {
          "internalType": "address[]",
          "name": "__budgetApprovals",
          "type": "address[]"
        }
      ],
      "name": "revokeBudgetApprovals",
      "outputs": [],
      "stateMutability": "nonpayable",
      "type": "function"
    },
    {
      "inputs": [],
      "name": "symbol",
      "outputs": [
        {
          "internalType": "string",
          "name": "",
          "type": "string"
        }
      ],
      "stateMutability": "view",
      "type": "function"
    },
    {
      "inputs": [],
      "name": "team",
      "outputs": [
        {
          "internalType": "address",
          "name": "",
          "type": "address"
        }
      ],
      "stateMutability": "view",
      "type": "function"
    },
    {
      "inputs": [],
      "name": "totalPrice",
      "outputs": [
        {
          "internalType": "uint256",
          "name": "",
          "type": "uint256"
        }
      ],
      "stateMutability": "view",
      "type": "function"
    },
    {
      "inputs": [],
      "name": "totalPriceInEth",
      "outputs": [
        {
          "internalType": "uint256",
          "name": "",
          "type": "uint256"
        }
      ],
      "stateMutability": "view",
      "type": "function"
    },
    {
      "inputs": [],
      "name": "totalSupply",
      "outputs": [
        {
          "internalType": "uint256",
          "name": "",
          "type": "uint256"
        }
      ],
      "stateMutability": "view",
      "type": "function"
    },
    {
      "inputs": [
        {
          "internalType": "address",
          "name": "to",
          "type": "address"
        },
        {
          "internalType": "uint256",
          "name": "amount",
          "type": "uint256"
        }
      ],
      "name": "transfer",
      "outputs": [
        {
          "internalType": "bool",
          "name": "",
          "type": "bool"
        }
      ],
      "stateMutability": "nonpayable",
      "type": "function"
    },
    {
      "inputs": [
        {
          "internalType": "address",
          "name": "from",
          "type": "address"
        },
        {
          "internalType": "address",
          "name": "to",
          "type": "address"
        },
        {
          "internalType": "uint256",
          "name": "amount",
          "type": "uint256"
        }
      ],
      "name": "transferFrom",
      "outputs": [
        {
          "internalType": "bool",
          "name": "",
          "type": "bool"
        }
      ],
      "stateMutability": "nonpayable",
      "type": "function"
    },
    {
      "inputs": [
        {
          "internalType": "address",
          "name": "newImplementation",
          "type": "address"
        }
      ],
      "name": "upgradeTo",
      "outputs": [],
      "stateMutability": "nonpayable",
      "type": "function"
    },
    {
      "inputs": [
        {
          "internalType": "address",
          "name": "newImplementation",
          "type": "address"
        },
        {
          "internalType": "bytes",
          "name": "data",
          "type": "bytes"
        }
      ],
      "name": "upgradeToAndCall",
      "outputs": [],
      "stateMutability": "payable",
      "type": "function"
    },
    {
      "stateMutability": "payable",
      "type": "receive"
    }
  ],
  "transactionHash": "0x63015c90cf3f54193938b82983d0280cfdfc5ab40ce3719930ca22dbe3bb65b6",
  "args": [],
  "numDeployments": 2,
  "solcInputHash": "3f664844ced2cb498657d1fff7b71bf7",
  "bytecode": "0x60a06040523060601b6080523480156200001857600080fd5b50620000236200003d565b6200002d6200003d565b620000376200003d565b620000ff565b600054610100900460ff1615620000aa5760405162461bcd60e51b815260206004820152602760248201527f496e697469616c697a61626c653a20636f6e747261637420697320696e697469604482015266616c697a696e6760c81b606482015260840160405180910390fd5b60005460ff9081161015620000fd576000805460ff191660ff9081179091556040519081527f7f26b83ff96e1f2b6a682f133852f6798a09c465da95921460cefb38474024989060200160405180910390a15b565b60805160601c614ccc6200013a600039600081816109d101528181610a1401528181610b9901528181610bdc0152610c780152614ccc6000f3fe6080604052600436106200026f5760003560e01c8063a240663e1162000147578063dc5b68a611620000b9578063ed1bd76c1162000078578063ed1bd76c146200078f578063ee0eb19b14620007b4578063f340fa0114620007d4578063f50477a214620007eb578063fb0f97a8146200080357600080fd5b8063dc5b68a614620006d6578063dd62ed3e14620006fb578063df30e97c1462000720578063df79812e1462000745578063e019c23c146200076a57600080fd5b8063bc9c5e901162000106578063bc9c5e90146200061d578063cf35bdd01462000642578063d00e8ed01462000667578063d3abc28b146200068c578063db006a7514620006b157600080fd5b8063a240663e1462000559578063a457c2d71462000596578063a9059cbb14620005bb578063ab0d92dd14620005e0578063aea321c614620005f857600080fd5b8063464b415811620001e15780636f7a4b2311620001a05780636f7a4b2314620004a257806370a0823114620004c757806385f2aef2146200050157806392a85fde146200052157806395d89b41146200054157600080fd5b8063464b415814620004115780634f1ef286146200043657806352d1902d146200044d57806360d8bb22146200046557806363d727dc146200048a57600080fd5b8063313ce567116200022e578063313ce567146200034d5780633659cfe6146200037157806337dde58a14620003985780633950935114620003b05780634162169f14620003d557600080fd5b806306fdde03146200027c578063095ea7b314620002ac57806318160ddd14620002e257806323b872dd146200030357806330c88fd7146200032857600080fd5b366200027757005b600080fd5b3480156200028957600080fd5b506200029462000828565b604051620002a3919062004213565b60405180910390f35b348015620002b957600080fd5b50620002d1620002cb36600462003e8a565b620008c2565b6040519015158152602001620002a3565b348015620002ef57600080fd5b506099545b604051908152602001620002a3565b3480156200031057600080fd5b50620002d16200032236600462003d23565b620008de565b3480156200033557600080fd5b50620002f46200034736600462003e8a565b62000908565b3480156200035a57600080fd5b5060125b60405160ff9091168152602001620002a3565b3480156200037e57600080fd5b50620003966200039036600462003ca5565b620009c6565b005b348015620003a557600080fd5b50620002f462000ab2565b348015620003bd57600080fd5b50620002d1620003cf36600462003e8a565b62000b48565b348015620003e257600080fd5b5061013254620003f8906001600160a01b031681565b6040516001600160a01b039091168152602001620002a3565b3480156200041e57600080fd5b50620002d16200043036600462003ca5565b62000b70565b620003966200044736600462003dd5565b62000b8e565b3480156200045a57600080fd5b50620002f462000c6b565b3480156200047257600080fd5b50620002f46200048436600462003e8a565b62000d21565b3480156200049757600080fd5b506200035e62000e8e565b348015620004af57600080fd5b50620002d1620004c136600462003ca5565b62000f56565b348015620004d457600080fd5b50620002f4620004e636600462003ca5565b6001600160a01b031660009081526097602052604090205490565b3480156200050e57600080fd5b5060fd546001600160a01b0316620003f8565b3480156200052e57600080fd5b5060c9546001600160a01b0316620003f8565b3480156200054e57600080fd5b506200029462000f63565b3480156200056657600080fd5b50620002d16200057836600462003ca5565b6001600160a01b0316600090815260fe602052604090205460ff1690565b348015620005a357600080fd5b50620002d1620005b536600462003e8a565b62000f74565b348015620005c857600080fd5b50620002d1620005da36600462003e8a565b62001000565b348015620005ed57600080fd5b50620002f462001010565b3480156200060557600080fd5b50620003966200061736600462003eb9565b62001089565b3480156200062a57600080fd5b50620002d16200063c36600462003ca5565b6200125e565b3480156200064f57600080fd5b50620003f8620006613660046200410b565b620012ee565b3480156200067457600080fd5b50620003966200068636600462003f33565b6200131a565b3480156200069957600080fd5b5062000294620006ab36600462003e2b565b620014cb565b348015620006be57600080fd5b5062000396620006d03660046200410b565b62001653565b348015620006e357600080fd5b5062000396620006f536600462003d69565b62001881565b3480156200070857600080fd5b50620002f46200071a36600462003ce5565b62001b7b565b3480156200072d57600080fd5b50620003966200073f36600462003eb9565b62001ba6565b3480156200075257600080fd5b50620003966200076436600462003f6c565b62001d75565b3480156200077757600080fd5b50620002f46200078936600462003d23565b62001f53565b3480156200079c57600080fd5b50620002f4620007ae3660046200410b565b620020b5565b348015620007c157600080fd5b5060ff546001600160a01b0316620003f8565b62000396620007e536600462003ca5565b620020f3565b348015620007f857600080fd5b5061013354620002f4565b3480156200081057600080fd5b50620003966200082236600462003d23565b6200228e565b6060609a8054620008399062004465565b80601f0160208091040260200160405190810160405280929190818152602001828054620008679062004465565b8015620008b85780601f106200088c57610100808354040283529160200191620008b8565b820191906000526020600020905b8154815290600101906020018083116200089a57829003601f168201915b5050505050905090565b600033620008d2818585620023f1565b60019150505b92915050565b600033620008ee85828562002519565b620008fb85858562002594565b60019150505b9392505050565b6000806200091560995490565b9050808311156200095e5760405162461bcd60e51b815260206004820152600e60248201526d677420746f74616c537570706c7960901b60448201526064015b60405180910390fd5b620009698462000b70565b620009885760405162461bcd60e51b8152600401620009559062004274565b8062000999576000915050620008d8565b8083620009a6866200276c565b620009b29190620043fa565b620009be9190620043d7565b949350505050565b306001600160a01b037f000000000000000000000000000000000000000000000000000000000000000016141562000a125760405162461bcd60e51b8152600401620009559062004228565b7f00000000000000000000000000000000000000000000000000000000000000006001600160a01b031662000a5d60008051602062004c50833981519152546001600160a01b031690565b6001600160a01b03161462000a865760405162461bcd60e51b815260040162000955906200429f565b62000a918162002816565b6040805160008082526020820190925262000aaf918391906200285d565b50565b610133546000908190815b8181101562000b40576000610133828154811062000adf5762000adf620044ec565b6000918252602090912001546001600160a01b0316905062000b1b8173eeeeeeeeeeeeeeeeeeeeeeeeeeeeeeeeeeeeeeee62000789826200276c565b62000b279085620043bc565b935050808062000b3790620044a2565b91505062000abd565b509092915050565b600033620008d281858562000b5e838362001b7b565b62000b6a9190620043bc565b620023f1565b6001600160a01b031660009081526101346020526040902054151590565b306001600160a01b037f000000000000000000000000000000000000000000000000000000000000000016141562000bda5760405162461bcd60e51b8152600401620009559062004228565b7f00000000000000000000000000000000000000000000000000000000000000006001600160a01b031662000c2560008051602062004c50833981519152546001600160a01b031690565b6001600160a01b03161462000c4e5760405162461bcd60e51b815260040162000955906200429f565b62000c598262002816565b62000c67828260016200285d565b5050565b6000306001600160a01b037f0000000000000000000000000000000000000000000000000000000000000000161462000d0d5760405162461bcd60e51b815260206004820152603860248201527f555550535570677261646561626c653a206d757374206e6f742062652063616c60448201527f6c6564207468726f7567682064656c656761746563616c6c0000000000000000606482015260840162000955565b5060008051602062004c5083398151915290565b60ca5460c95460405163ce58da3360e01b81526001600160a01b0385811660048301529182166024820152600092919091169063ce58da339060440160206040518083038186803b15801562000d7657600080fd5b505afa15801562000d8b573d6000803e3d6000fd5b505050506040513d601f19601f8201168201806040525081019062000db1919062004056565b62000dff5760405162461bcd60e51b815260206004820152601c60248201527f4163636f756e742053797374656d206e6f7420737570706f7274656400000000604482015260640162000955565b60ca5460c954604051633806708f60e21b81526001600160a01b039283169263e019c23c9262000e3a928892909116908790600401620041c9565b60206040518083038186803b15801562000e5357600080fd5b505afa15801562000e68573d6000803e3d6000fd5b505050506040513d601f19601f820116820180604052508101906200090191906200407a565b600073eeeeeeeeeeeeeeeeeeeeeeeeeeeeeeeeeeeeeeee62000eb860c9546001600160a01b031690565b6001600160a01b0316141562000ece5750601290565b60c9546001600160a01b03166001600160a01b031663313ce5676040518163ffffffff1660e01b815260040160206040518083038186803b15801562000f1357600080fd5b505afa92505050801562000f46575060408051601f3d908101601f1916820190925262000f439181019062004125565b60015b62000f515750600090565b919050565b6000620008d8826200125e565b6060609b8054620008399062004465565b6000338162000f84828662001b7b565b90508381101562000fe65760405162461bcd60e51b815260206004820152602560248201527f45524332303a2064656372656173656420616c6c6f77616e63652062656c6f77604482015264207a65726f60d81b606482015260840162000955565b62000ff58286868403620023f1565b506001949350505050565b600033620008d281858562002594565b610133546000908190815b8181101562000b4057600061013382815481106200103d576200103d620044ec565b6000918252602090912001546001600160a01b03169050620010648162000484816200276c565b620010709085620043bc565b93505080806200108090620044a2565b9150506200101b565b604080518082018252600781526611d95b995c985b60ca1b6020820152610132549151635b6dde2b60e11b815233600482015290916001600160a01b031690819063b6dbbc569060240160206040518083038186803b158015620010ec57600080fd5b505afa15801562001101573d6000803e3d6000fd5b505050506040513d601f19601f8201168201806040525081019062001127919062004056565b80620011c5575060405163031a79b160e61b81526001600160a01b0382169063c69e6c40906200115c90859060040162004213565b60206040518083038186803b1580156200117557600080fd5b505afa1580156200118a573d6000803e3d6000fd5b505050506040513d601f19601f82011682018060405250810190620011b0919062003cc5565b6001600160a01b0316336001600160a01b0316145b60408051808201909152601081526f2230b79d1037b7363c9023b7bb32b93760811b6020820152620011f89084620029e5565b90620012195760405162461bcd60e51b815260040162000955919062004213565b506200125884848080602002602001604051908101604052809392919081815260200183836020028082843760009201919091525062002a1392505050565b50505050565b60ca5460c95460405163ce58da3360e01b81526001600160a01b0384811660048301529182166024820152600092919091169063ce58da339060440160206040518083038186803b158015620012b357600080fd5b505afa158015620012c8573d6000803e3d6000fd5b505050506040513d601f19601f82011682018060405250810190620008d8919062004056565b61013381815481106200130057600080fd5b6000918252602090912001546001600160a01b0316905081565b60005b815181101562000c675760fe6000838381518110620013405762001340620044ec565b6020908102919091018101516001600160a01b031682528101919091526040016000205460ff16620013d25760405162461bcd60e51b815260206004820152603460248201527f427564676574417070726f76616c45786563757465653a2062756467657420616044820152731c1c1c9bdd985b081a5cc81b9bdd081d985b1a5960621b606482015260840162000955565b620013f9828281518110620013eb57620013eb620044ec565b602002602001015162002a5c565b600060fe6000848481518110620014145762001414620044ec565b60200260200101516001600160a01b03166001600160a01b0316815260200190815260200160002060006101000a81548160ff0219169083151502179055507f3562b8c49e34d53119756b2b8b55a910ed22c2cda0d3b07398510d804c2dc621828281518110620014895762001489620044ec565b6020026020010151604051620014ae91906001600160a01b0391909116815260200190565b60405180910390a180620014c281620044a2565b9150506200131d565b33600090815260fe602052604090205460609060ff166200153d5760405162461bcd60e51b815260206004820152602560248201527f427564676574417070726f76616c45786563757465653a206163636573732064604482015264195b9a595960da1b606482015260840162000955565b600080856001600160a01b031684866040516200155b919062004178565b60006040518083038185875af1925050503d80600081146200159a576040519150601f19603f3d011682016040523d82523d6000602084013e6200159f565b606091505b5091509150816200160f57620015f4620015b98262002bec565b60408051808201909152601d81527f52657665727465642062792065787465726e616c20636f6e7472616374000000602082015290620029e5565b60405162461bcd60e51b815260040162000955919062004213565b7fcf452d48646654954090c61dd69f99a99bea4e2264594078fc81bfd43d6f6a9e338660405162001642929190620041ed565b60405180910390a195945050505050565b610132546001600160a01b03168162001681336001600160a01b031660009081526097602052604090205490565b1015620016c65760405162461bcd60e51b81526020600482015260126024820152716e6f7420656e6f7567682062616c616e636560701b604482015260640162000955565b42816001600160a01b03166361c533b46040518163ffffffff1660e01b815260040160206040518083038186803b1580156200170157600080fd5b505afa15801562001716573d6000803e3d6000fd5b505050506040513d601f19601f820116820180604052508101906200173c91906200407a565b604051636cb7c6f960e01b81523360048201526001600160a01b03841690636cb7c6f99060240160206040518083038186803b1580156200177c57600080fd5b505afa15801562001791573d6000803e3d6000fd5b505050506040513d601f19601f82011682018060405250810190620017b791906200407a565b620017c39190620043bc565b1115620018015760405162461bcd60e51b815260206004820152600b60248201526a6c6f636b75702074696d6560a81b604482015260640162000955565b6101335460005b818110156200186f57600061013382815481106200182a576200182a620044ec565b6000918252602090912001546001600160a01b0316905062001859338262001853818962000908565b62002c4e565b50806200186681620044a2565b91505062001808565b506200187c338462002d28565b505050565b600054610100900460ff1615808015620018a25750600054600160ff909116105b80620018be5750303b158015620018be575060005460ff166001145b620019235760405162461bcd60e51b815260206004820152602e60248201527f496e697469616c697a61626c653a20636f6e747261637420697320616c72656160448201526d191e481a5b9a5d1a585b1a5e995960921b606482015260840162000955565b6000805460ff19166001179055801562001947576000805461ff0019166101001790555b6200198f6040518060400160405280600a815260200169131a5c5d5a59141bdbdb60b21b8152506040518060400160405280600281526020016104c560f41b81525062002e7c565b61013280546001600160a01b0319166001600160a01b0386169081179091556040805163ee0eb19b60e01b8152905162001a2f928592909163ee0eb19b91600480820192602092909190829003018186803b158015620019ee57600080fd5b505afa15801562001a03573d6000803e3d6000fd5b505050506040513d601f19601f8201168201806040525081019062001a29919062003cc5565b62002eb2565b62001a3a8362002a13565b62001b2e846001600160a01b03166385f2aef26040518163ffffffff1660e01b815260040160206040518083038186803b15801562001a7857600080fd5b505afa15801562001a8d573d6000803e3d6000fd5b505050506040513d601f19601f8201168201806040525081019062001ab3919062003cc5565b856001600160a01b031663ee0eb19b6040518163ffffffff1660e01b815260040160206040518083038186803b15801562001aed57600080fd5b505afa15801562001b02573d6000803e3d6000fd5b505050506040513d601f19601f8201168201806040525081019062001b28919062003cc5565b62002f0a565b801562001258576000805461ff0019169055604051600181527f7f26b83ff96e1f2b6a682f133852f6798a09c465da95921460cefb3847402498906020015b60405180910390a150505050565b6001600160a01b03918216600090815260986020908152604080832093909416825291909152205490565b604080518082018252600781526611d95b995c985b60ca1b6020820152610132549151635b6dde2b60e11b815233600482015290916001600160a01b031690819063b6dbbc569060240160206040518083038186803b15801562001c0957600080fd5b505afa15801562001c1e573d6000803e3d6000fd5b505050506040513d601f19601f8201168201806040525081019062001c44919062004056565b8062001ce2575060405163031a79b160e61b81526001600160a01b0382169063c69e6c409062001c7990859060040162004213565b60206040518083038186803b15801562001c9257600080fd5b505afa15801562001ca7573d6000803e3d6000fd5b505050506040513d601f19601f8201168201806040525081019062001ccd919062003cc5565b6001600160a01b0316336001600160a01b0316145b60408051808201909152601081526f2230b79d1037b7363c9023b7bb32b93760811b602082015262001d159084620029e5565b9062001d365760405162461bcd60e51b815260040162000955919062004213565b506200125884848080602002602001604051908101604052809392919081815260200183836020028082843760009201919091525062002f6292505050565b805182511462001dbd5760405162461bcd60e51b8152602060048201526012602482015271496e636f72726563742043616c6c6461746160701b604482015260640162000955565b60005b82518110156200187c5762001df183828151811062001de35762001de3620044ec565b602002602001015162002fab565b600083828151811062001e085762001e08620044ec565b602002602001015183838151811062001e255762001e25620044ec565b602002602001015160405162001e3b9062003b16565b62001e48929190620041ed565b604051809103906000f08015801562001e65573d6000803e3d6000fd5b506001600160a01b038116600090815260fe60205260409020805460ff1916600117905583519091507f26c79e13dd63e8716f130c25331c09f2fdd55d6880bbfa7bcc38868207e8a67090829085908590811062001ec75762001ec7620044ec565b602002602001015160405162001edf929190620041ed565b60405180910390a1806001600160a01b031663cf26fec66040518163ffffffff1660e01b8152600401600060405180830381600087803b15801562001f2357600080fd5b505af115801562001f38573d6000803e3d6000fd5b5050505050808062001f4a90620044a2565b91505062001dc0565b60ca5460405163ce58da3360e01b81526001600160a01b0385811660048301528481166024830152600092169063ce58da339060440160206040518083038186803b15801562001fa257600080fd5b505afa15801562001fb7573d6000803e3d6000fd5b505050506040513d601f19601f8201168201806040525081019062001fdd919062004056565b6200202b5760405162461bcd60e51b815260206004820152601c60248201527f4163636f756e742053797374656d206e6f7420737570706f7274656400000000604482015260640162000955565b60ca54604051633806708f60e21b81526001600160a01b039091169063e019c23c906200206190879087908790600401620041c9565b60206040518083038186803b1580156200207a57600080fd5b505afa1580156200208f573d6000803e3d6000fd5b505050506040513d601f19601f82011682018060405250810190620009be91906200407a565b600080620020c260995490565b905080620020d1575090919050565b620020db62001010565b620020e78285620043fa565b620009019190620043d7565b6200211273eeeeeeeeeeeeeeeeeeeeeeeeeeeeeeeeeeeeeeee62000b70565b620021545760405162461bcd60e51b8152602060048201526011602482015270185cdcd95d081b9bdd081cdd5c1c1bdc9d607a1b604482015260640162000955565b60006200216060995490565b905060006200218473eeeeeeeeeeeeeeeeeeeeeeeeeeeeeeeeeeeeeeee3462000d21565b905081620021fa57620021988382620031fc565b620021a48382620032e1565b7f5548c837ab068cf56a2c2479df0882a4922fd203edb7517321831d95078c5f628373eeeeeeeeeeeeeeeeeeeeeeeeeeeeeeeeeeeeeeee34604051620021ed93929190620041c9565b60405180910390a1505050565b6000816200220762001010565b6200221391906200441c565b9050620022398482620022278686620043fa565b620022339190620043d7565b620031fc565b620022458483620032e1565b7f5548c837ab068cf56a2c2479df0882a4922fd203edb7517321831d95078c5f628473eeeeeeeeeeeeeeeeeeeeeeeeeeeeeeeeeeeeeeee3460405162001b6d93929190620041c9565b620022998262000b70565b620022b85760405162461bcd60e51b8152600401620009559062004274565b604051636eb1769f60e11b815233600482015230602482015281906001600160a01b0384169063dd62ed3e9060440160206040518083038186803b1580156200230057600080fd5b505afa15801562002315573d6000803e3d6000fd5b505050506040513d601f19601f820116820180604052508101906200233b91906200407a565b1015620023795760405162461bcd60e51b815260206004820152600b60248201526a6e6f7420617070726f766560a81b604482015260640162000955565b600062002387838362000d21565b905062002399846200223383620020b5565b620023b06001600160a01b0384163330856200334e565b620023bc8482620032e1565b7f5548c837ab068cf56a2c2479df0882a4922fd203edb7517321831d95078c5f6284848460405162001b6d93929190620041c9565b6001600160a01b038316620024555760405162461bcd60e51b8152602060048201526024808201527f45524332303a20617070726f76652066726f6d20746865207a65726f206164646044820152637265737360e01b606482015260840162000955565b6001600160a01b038216620024b85760405162461bcd60e51b815260206004820152602260248201527f45524332303a20617070726f766520746f20746865207a65726f206164647265604482015261737360f01b606482015260840162000955565b6001600160a01b0383811660008181526098602090815260408083209487168084529482529182902085905590518481527f8c5be1e5ebec7d5bd14f71427d1e84f3dd0314c0f7b2291e5b200ac8c7c3b925910160405180910390a3505050565b600062002527848462001b7b565b90506000198114620012585781811015620025855760405162461bcd60e51b815260206004820152601d60248201527f45524332303a20696e73756666696369656e7420616c6c6f77616e6365000000604482015260640162000955565b620012588484848403620023f1565b6001600160a01b038316620025fa5760405162461bcd60e51b815260206004820152602560248201527f45524332303a207472616e736665722066726f6d20746865207a65726f206164604482015264647265737360d81b606482015260840162000955565b6001600160a01b0382166200265e5760405162461bcd60e51b815260206004820152602360248201527f45524332303a207472616e7366657220746f20746865207a65726f206164647260448201526265737360e81b606482015260840162000955565b6001600160a01b03831660009081526097602052604090205481811015620026d85760405162461bcd60e51b815260206004820152602660248201527f45524332303a207472616e7366657220616d6f756e7420657863656564732062604482015265616c616e636560d01b606482015260840162000955565b6001600160a01b0380851660009081526097602052604080822085850390559185168152908120805484929062002711908490620043bc565b92505081905550826001600160a01b0316846001600160a01b03167fddf252ad1be2c89b69c2b068fc378daa952ba7f163c4a11628f55a4df523b3ef846040516200275e91815260200190565b60405180910390a362001258565b60006001600160a01b03821673eeeeeeeeeeeeeeeeeeeeeeeeeeeeeeeeeeeeeeee14156200279b575047919050565b6040516370a0823160e01b81523060048201526001600160a01b038316906370a082319060240160206040518083038186803b158015620027db57600080fd5b505afa158015620027f0573d6000803e3d6000fd5b505050506040513d601f19601f82011682018060405250810190620008d891906200407a565b610132546001600160a01b0316331462000aaf5760405162461bcd60e51b81526020600482015260076024820152666e6f742064616f60c81b604482015260640162000955565b7f4910fdfa16fed3260ed0e7147f7cc6da11a60208b5b9406d12a635614ffd91435460ff161562002893576200187c83620033aa565b826001600160a01b03166352d1902d6040518163ffffffff1660e01b815260040160206040518083038186803b158015620028cd57600080fd5b505afa92505050801562002900575060408051601f3d908101601f19168201909252620028fd918101906200407a565b60015b620029655760405162461bcd60e51b815260206004820152602e60248201527f45524331393637557067726164653a206e657720696d706c656d656e7461746960448201526d6f6e206973206e6f74205555505360901b606482015260840162000955565b60008051602062004c508339815191528114620029d75760405162461bcd60e51b815260206004820152602960248201527f45524331393637557067726164653a20756e737570706f727465642070726f786044820152681a58589b195555525160ba1b606482015260840162000955565b506200187c83838362003449565b60608282604051602001620029fc92919062004196565b604051602081830303815290604052905092915050565b60005b815181101562000c675762002a4782828151811062002a395762002a39620044ec565b602002602001015162003474565b8062002a5381620044a2565b91505062002a16565b604080518082018252600781526611d95b995c985b60ca1b6020820152610132549151635b6dde2b60e11b815233600482015290916001600160a01b031690819063b6dbbc569060240160206040518083038186803b15801562002abf57600080fd5b505afa15801562002ad4573d6000803e3d6000fd5b505050506040513d601f19601f8201168201806040525081019062002afa919062004056565b8062002b98575060405163031a79b160e61b81526001600160a01b0382169063c69e6c409062002b2f90859060040162004213565b60206040518083038186803b15801562002b4857600080fd5b505afa15801562002b5d573d6000803e3d6000fd5b505050506040513d601f19601f8201168201806040525081019062002b83919062003cc5565b6001600160a01b0316336001600160a01b0316145b60408051808201909152601081526f2230b79d1037b7363c9023b7bb32b93760811b602082015262002bcb9084620029e5565b90620012585760405162461bcd60e51b815260040162000955919062004213565b606060448251101562002c0d57505060408051602081019091526000815290565b600482019150620008d88280602001905181019062002c2d919062004094565b60408051808201909152600381526201016960ed1b602082015290620029e5565b6001600160a01b03821673eeeeeeeeeeeeeeeeeeeeeeeeeeeeeeeeeeeeeeee141562002d12576000836001600160a01b03168260405160006040518083038185875af1925050503d806000811462002cc3576040519150601f19603f3d011682016040523d82523d6000602084013e62002cc8565b606091505b5050905080620012585760405162461bcd60e51b81526020600482015260146024820152732330b4b632b2103a379039b2b7321022ba3432b960611b604482015260640162000955565b6200187c6001600160a01b038316848362003547565b6001600160a01b03821662002d8a5760405162461bcd60e51b815260206004820152602160248201527f45524332303a206275726e2066726f6d20746865207a65726f206164647265736044820152607360f81b606482015260840162000955565b6001600160a01b0382166000908152609760205260409020548181101562002e005760405162461bcd60e51b815260206004820152602260248201527f45524332303a206275726e20616d6f756e7420657863656564732062616c616e604482015261636560f01b606482015260840162000955565b6001600160a01b038316600090815260976020526040812083830390556099805484929062002e319084906200441c565b90915550506040518281526000906001600160a01b038516907fddf252ad1be2c89b69c2b068fc378daa952ba7f163c4a11628f55a4df523b3ef9060200160405180910390a3505050565b600054610100900460ff1662002ea65760405162461bcd60e51b81526004016200095590620042eb565b62000c67828262003579565b600054610100900460ff1662002edc5760405162461bcd60e51b81526004016200095590620042eb565b60c980546001600160a01b039384166001600160a01b03199182161790915560ca8054929093169116179055565b600054610100900460ff1662002f345760405162461bcd60e51b81526004016200095590620042eb565b60fd80546001600160a01b039384166001600160a01b03199182161790915560ff8054929093169116179055565b60005b815181101562000c675762002f9682828151811062002f885762002f88620044ec565b6020026020010151620035ce565b8062002fa281620044a2565b91505062002f65565b604080518082018252600781526611d95b995c985b60ca1b6020820152610132549151635b6dde2b60e11b815233600482015290916001600160a01b031690819063b6dbbc569060240160206040518083038186803b1580156200300e57600080fd5b505afa15801562003023573d6000803e3d6000fd5b505050506040513d601f19601f8201168201806040525081019062003049919062004056565b80620030e7575060405163031a79b160e61b81526001600160a01b0382169063c69e6c40906200307e90859060040162004213565b60206040518083038186803b1580156200309757600080fd5b505afa158015620030ac573d6000803e3d6000fd5b505050506040513d601f19601f82011682018060405250810190620030d2919062003cc5565b6001600160a01b0316336001600160a01b0316145b60408051808201909152601081526f2230b79d1037b7363c9023b7bb32b93760811b60208201526200311a9084620029e5565b906200313b5760405162461bcd60e51b815260040162000955919062004213565b5061013254604051633b42d9af60e21b81526001600160a01b0385811660048301529091169063ed0b66bc9060240160206040518083038186803b1580156200318357600080fd5b505afa15801562003198573d6000803e3d6000fd5b505050506040513d601f19601f82011682018060405250810190620031be919062004056565b6200187c5760405162461bcd60e51b815260206004820152600d60248201526c1b9bdd081dda1a5d195b1a5cdd609a1b604482015260640162000955565b6001600160a01b038216620032545760405162461bcd60e51b815260206004820152601f60248201527f45524332303a206d696e7420746f20746865207a65726f206164647265737300604482015260640162000955565b8060996000828254620032689190620043bc565b90915550506001600160a01b0382166000908152609760205260408120805483929062003297908490620043bc565b90915550506040518181526001600160a01b038316906000907fddf252ad1be2c89b69c2b068fc378daa952ba7f163c4a11628f55a4df523b3ef9060200160405180910390a35050565b61013254604051631c783fd360e31b81526001600160a01b038481166004830152602482018490529091169063e3c1fe9890604401600060405180830381600087803b1580156200333157600080fd5b505af115801562003346573d6000803e3d6000fd5b505050505050565b62001258846323b872dd60e01b8585856040516024016200337293929190620041c9565b60408051601f198184030181529190526020810180516001600160e01b03166001600160e01b03199093169290921790915262003774565b6001600160a01b0381163b620034195760405162461bcd60e51b815260206004820152602d60248201527f455243313936373a206e657720696d706c656d656e746174696f6e206973206e60448201526c1bdd08184818dbdb9d1c9858dd609a1b606482015260840162000955565b60008051602062004c5083398151915280546001600160a01b0319166001600160a01b0392909216919091179055565b62003454836200384d565b600082511180620034625750805b156200187c576200125883836200388f565b6200347f8162000f56565b8015620034945750620034928162000b70565b155b620034b35760405162461bcd60e51b8152600401620009559062004274565b61013380546001810182557f92e985329fb94cc1b424ebb0f7f2929b6d27383ca94c0ec71c44fb48bdf96d2c0180546001600160a01b0319166001600160a01b03841690811790915590546000828152610134602090815260409182902092909255519182527f808665eda000f8d729f31a384bae411282aa3be62cb73ed74e2225e2eef7125d910160405180910390a150565b6040516001600160a01b0383166024820152604481018290526200187c90849063a9059cbb60e01b9060640162003372565b600054610100900460ff16620035a35760405162461bcd60e51b81526004016200095590620042eb565b8151620035b890609a90602085019062003b24565b5080516200187c90609b90602084019062003b24565b620035d98162000b70565b6200361b5760405162461bcd60e51b8152602060048201526011602482015270105cdcd95d081b9bdd081a5b881b1a5cdd607a1b604482015260640162000955565b6001600160a01b0381166000908152610134602052604081205462003643906001906200441c565b61013380549192506000916200365c906001906200441c565b815481106200366f576200366f620044ec565b60009182526020909120015461013380546001600160a01b039092169250829184908110620036a257620036a2620044ec565b600091825260209091200180546001600160a01b0319166001600160a01b0392909216919091179055620036d8826001620043bc565b6001600160a01b038083166000908152610134602052604080822093909355908516815290812055610133805480620037155762003715620044d6565b6000828152602090819020600019908301810180546001600160a01b03191690559091019091556040516001600160a01b03851681527f289634222e6533fbe86ba920f2c134b0c959102a872f93ccc13ca9346a93f2f99101620021ed565b6000620037cb826040518060400160405280602081526020017f5361666545524332303a206c6f772d6c6576656c2063616c6c206661696c6564815250856001600160a01b03166200398c9092919063ffffffff16565b8051909150156200187c5780806020019051810190620037ec919062004056565b6200187c5760405162461bcd60e51b815260206004820152602a60248201527f5361666545524332303a204552433230206f7065726174696f6e20646964206e6044820152691bdd081cdd58d8d9595960b21b606482015260840162000955565b6200385881620033aa565b6040516001600160a01b038216907fbc7cd75a20ee27fd9adebab32041f755214dbc6bffa90cc0225b39da2e5c2d3b90600090a250565b60606001600160a01b0383163b620038f95760405162461bcd60e51b815260206004820152602660248201527f416464726573733a2064656c65676174652063616c6c20746f206e6f6e2d636f6044820152651b9d1c9858dd60d21b606482015260840162000955565b600080846001600160a01b03168460405162003916919062004178565b600060405180830381855af49150503d806000811462003953576040519150601f19603f3d011682016040523d82523d6000602084013e62003958565b606091505b509150915062003983828260405180606001604052806027815260200162004c70602791396200399d565b95945050505050565b6060620009be8484600085620039db565b60608315620039ae57508162000901565b825115620039bf5782518084602001fd5b8160405162461bcd60e51b815260040162000955919062004213565b60608247101562003a3e5760405162461bcd60e51b815260206004820152602660248201527f416464726573733a20696e73756666696369656e742062616c616e636520666f6044820152651c8818d85b1b60d21b606482015260840162000955565b6001600160a01b0385163b62003a975760405162461bcd60e51b815260206004820152601d60248201527f416464726573733a2063616c6c20746f206e6f6e2d636f6e7472616374000000604482015260640162000955565b600080866001600160a01b0316858760405162003ab5919062004178565b60006040518083038185875af1925050503d806000811462003af4576040519150601f19603f3d011682016040523d82523d6000602084013e62003af9565b606091505b509150915062003b0b8282866200399d565b979650505050505050565b610721806200452f83390190565b82805462003b329062004465565b90600052602060002090601f01602090048101928262003b56576000855562003ba1565b82601f1062003b7157805160ff191683800117855562003ba1565b8280016001018555821562003ba1579182015b8281111562003ba157825182559160200191906001019062003b84565b5062003baf92915062003bb3565b5090565b5b8082111562003baf576000815560010162003bb4565b600082601f83011262003bdc57600080fd5b8135602062003bf562003bef836200436a565b62004336565b80838252828201915082860187848660051b890101111562003c1657600080fd5b60005b8581101562003c4257813562003c2f8162004518565b8452928401929084019060010162003c19565b5090979650505050505050565b600082601f83011262003c6157600080fd5b813562003c7262003bef8262004391565b81815284602083860101111562003c8857600080fd5b816020850160208301376000918101602001919091529392505050565b60006020828403121562003cb857600080fd5b8135620009018162004518565b60006020828403121562003cd857600080fd5b8151620009018162004518565b6000806040838503121562003cf957600080fd5b823562003d068162004518565b9150602083013562003d188162004518565b809150509250929050565b60008060006060848603121562003d3957600080fd5b833562003d468162004518565b9250602084013562003d588162004518565b929592945050506040919091013590565b60008060006060848603121562003d7f57600080fd5b833562003d8c8162004518565b9250602084013567ffffffffffffffff81111562003da957600080fd5b62003db78682870162003bca565b925050604084013562003dca8162004518565b809150509250925092565b6000806040838503121562003de957600080fd5b823562003df68162004518565b9150602083013567ffffffffffffffff81111562003e1357600080fd5b62003e218582860162003c4f565b9150509250929050565b60008060006060848603121562003e4157600080fd5b833562003e4e8162004518565b9250602084013567ffffffffffffffff81111562003e6b57600080fd5b62003e798682870162003c4f565b925050604084013590509250925092565b6000806040838503121562003e9e57600080fd5b823562003eab8162004518565b946020939093013593505050565b6000806020838503121562003ecd57600080fd5b823567ffffffffffffffff8082111562003ee657600080fd5b818501915085601f83011262003efb57600080fd5b81358181111562003f0b57600080fd5b8660208260051b850101111562003f2157600080fd5b60209290920196919550909350505050565b60006020828403121562003f4657600080fd5b813567ffffffffffffffff81111562003f5e57600080fd5b620009be8482850162003bca565b6000806040838503121562003f8057600080fd5b823567ffffffffffffffff8082111562003f9957600080fd5b62003fa78683870162003bca565b935060209150818501358181111562003fbf57600080fd5b8501601f8101871362003fd157600080fd5b803562003fe262003bef826200436a565b8082825285820191508584018a878560051b87010111156200400357600080fd5b6000805b8581101562004043578235888111156200401f578283fd5b6200402f8e8b838b010162003c4f565b865250938801939188019160010162004007565b5050508096505050505050509250929050565b6000602082840312156200406957600080fd5b815180151581146200090157600080fd5b6000602082840312156200408d57600080fd5b5051919050565b600060208284031215620040a757600080fd5b815167ffffffffffffffff811115620040bf57600080fd5b8201601f81018413620040d157600080fd5b8051620040e262003bef8262004391565b818152856020838501011115620040f857600080fd5b6200398382602083016020860162004436565b6000602082840312156200411e57600080fd5b5035919050565b6000602082840312156200413857600080fd5b815160ff811681146200090157600080fd5b600081518084526200416481602086016020860162004436565b601f01601f19169290920160200192915050565b600082516200418c81846020870162004436565b9190910192915050565b60008351620041aa81846020880162004436565b835190830190620041c081836020880162004436565b01949350505050565b6001600160a01b039384168152919092166020820152604081019190915260600190565b6001600160a01b0383168152604060208201819052600090620009be908301846200414a565b6020815260006200090160208301846200414a565b6020808252602c908201527f46756e6374696f6e206d7573742062652063616c6c6564207468726f7567682060408201526b19195b1959d85d1958d85b1b60a21b606082015260800190565b602080825260119082015270105cdcd95d081b9bdd081cdd5c1c1bdc9d607a1b604082015260600190565b6020808252602c908201527f46756e6374696f6e206d7573742062652063616c6c6564207468726f7567682060408201526b6163746976652070726f787960a01b606082015260800190565b6020808252602b908201527f496e697469616c697a61626c653a20636f6e7472616374206973206e6f74206960408201526a6e697469616c697a696e6760a81b606082015260800190565b604051601f8201601f1916810167ffffffffffffffff8111828210171562004362576200436262004502565b604052919050565b600067ffffffffffffffff82111562004387576200438762004502565b5060051b60200190565b600067ffffffffffffffff821115620043ae57620043ae62004502565b50601f01601f191660200190565b60008219821115620043d257620043d2620044c0565b500190565b600082620043f557634e487b7160e01b600052601260045260246000fd5b500490565b6000816000190483118215151615620044175762004417620044c0565b500290565b600082821015620044315762004431620044c0565b500390565b60005b838110156200445357818101518382015260200162004439565b83811115620012585750506000910152565b600181811c908216806200447a57607f821691505b602082108114156200449c57634e487b7160e01b600052602260045260246000fd5b50919050565b6000600019821415620044b957620044b9620044c0565b5060010190565b634e487b7160e01b600052601160045260246000fd5b634e487b7160e01b600052603160045260246000fd5b634e487b7160e01b600052603260045260246000fd5b634e487b7160e01b600052604160045260246000fd5b6001600160a01b038116811462000aaf57600080fdfe6080604052604051610721380380610721833981016040819052610022916102d2565b61002e82826000610035565b5050610431565b61003e8361006b565b60008251118061004b5750805b156100665761006483836100ab60201b6100291760201c565b505b505050565b610074816100d7565b6040516001600160a01b038216907fbc7cd75a20ee27fd9adebab32041f755214dbc6bffa90cc0225b39da2e5c2d3b90600090a250565b60606100d083836040518060600160405280602781526020016106fa602791396101a9565b9392505050565b6100ea8161028760201b6100551760201c565b6101515760405162461bcd60e51b815260206004820152602d60248201527f455243313936373a206e657720696d706c656d656e746174696f6e206973206e60448201526c1bdd08184818dbdb9d1c9858dd609a1b60648201526084015b60405180910390fd5b806101887f360894a13ba1a3210667c828492db98dca3e2076cc3735a920a3ca505d382bbc60001b61029660201b6100641760201c565b80546001600160a01b0319166001600160a01b039290921691909117905550565b60606001600160a01b0384163b6102115760405162461bcd60e51b815260206004820152602660248201527f416464726573733a2064656c65676174652063616c6c20746f206e6f6e2d636f6044820152651b9d1c9858dd60d21b6064820152608401610148565b600080856001600160a01b03168560405161022c91906103a0565b600060405180830381855af49150503d8060008114610267576040519150601f19603f3d011682016040523d82523d6000602084013e61026c565b606091505b50909250905061027d828286610299565b9695505050505050565b6001600160a01b03163b151590565b90565b606083156102a85750816100d0565b8251156102b85782518084602001fd5b8160405162461bcd60e51b815260040161014891906103bc565b600080604083850312156102e557600080fd5b82516001600160a01b03811681146102fc57600080fd5b60208401519092506001600160401b038082111561031957600080fd5b818501915085601f83011261032d57600080fd5b81518181111561033f5761033f61041b565b604051601f8201601f19908116603f011681019083821181831017156103675761036761041b565b8160405282815288602084870101111561038057600080fd5b6103918360208301602088016103ef565b80955050505050509250929050565b600082516103b28184602087016103ef565b9190910192915050565b60208152600082518060208401526103db8160408501602087016103ef565b601f01601f19169190910160400192915050565b60005b8381101561040a5781810151838201526020016103f2565b838111156100645750506000910152565b634e487b7160e01b600052604160045260246000fd5b6102ba806104406000396000f3fe60806040523661001357610011610017565b005b6100115b610027610022610067565b61009f565b565b606061004e838360405180606001604052806027815260200161025e602791396100c3565b9392505050565b6001600160a01b03163b151590565b90565b600061009a7f360894a13ba1a3210667c828492db98dca3e2076cc3735a920a3ca505d382bbc546001600160a01b031690565b905090565b3660008037600080366000845af43d6000803e8080156100be573d6000f35b3d6000fd5b60606001600160a01b0384163b6101305760405162461bcd60e51b815260206004820152602660248201527f416464726573733a2064656c65676174652063616c6c20746f206e6f6e2d636f6044820152651b9d1c9858dd60d21b60648201526084015b60405180910390fd5b600080856001600160a01b03168560405161014b91906101de565b600060405180830381855af49150503d8060008114610186576040519150601f19603f3d011682016040523d82523d6000602084013e61018b565b606091505b509150915061019b8282866101a5565b9695505050505050565b606083156101b457508161004e565b8251156101c45782518084602001fd5b8160405162461bcd60e51b815260040161012791906101fa565b600082516101f081846020870161022d565b9190910192915050565b602081526000825180602084015261021981604085016020870161022d565b601f01601f19169190910160400192915050565b60005b83811015610248578181015183820152602001610230565b83811115610257576000848401525b5050505056fe416464726573733a206c6f772d6c6576656c2064656c65676174652063616c6c206661696c6564a2646970667358221220fb537d1df0a2f3ea0050d30fb82ca020f06a83116d3853b9eda518a67b0c9be764736f6c63430008070033416464726573733a206c6f772d6c6576656c2064656c65676174652063616c6c206661696c6564360894a13ba1a3210667c828492db98dca3e2076cc3735a920a3ca505d382bbc416464726573733a206c6f772d6c6576656c2064656c65676174652063616c6c206661696c6564a264697066735822122088d5482d776795d46a4ee549f4fb64ca456d8641a28363b67affa63fd715c3b064736f6c63430008070033",
  "devdoc": {
    "kind": "dev",
    "methods": {
      "allowance(address,address)": {
        "details": "See {IERC20-allowance}."
      },
      "approve(address,uint256)": {
        "details": "See {IERC20-approve}. NOTE: If `amount` is the maximum `uint256`, the allowance is not updated on `transferFrom`. This is semantically equivalent to an infinite approval. Requirements: - `spender` cannot be the zero address."
      },
      "balanceOf(address)": {
        "details": "See {IERC20-balanceOf}."
      },
      "constructor": {
        "custom:oz-upgrades-unsafe-allow": "constructor"
      },
      "decimals()": {
        "details": "Returns the number of decimals used to get its user representation. For example, if `decimals` equals `2`, a balance of `505` tokens should be displayed to a user as `5.05` (`505 / 10 ** 2`). Tokens usually opt for a value of 18, imitating the relationship between Ether and Wei. This is the value {ERC20} uses, unless this function is overridden; NOTE: This information is only used for _display_ purposes: it in no way affects any of the arithmetic of the contract, including {IERC20-balanceOf} and {IERC20-transfer}."
      },
      "decreaseAllowance(address,uint256)": {
        "details": "Atomically decreases the allowance granted to `spender` by the caller. This is an alternative to {approve} that can be used as a mitigation for problems described in {IERC20-approve}. Emits an {Approval} event indicating the updated allowance. Requirements: - `spender` cannot be the zero address. - `spender` must have allowance for the caller of at least `subtractedValue`."
      },
      "increaseAllowance(address,uint256)": {
        "details": "Atomically increases the allowance granted to `spender` by the caller. This is an alternative to {approve} that can be used as a mitigation for problems described in {IERC20-approve}. Emits an {Approval} event indicating the updated allowance. Requirements: - `spender` cannot be the zero address."
      },
      "name()": {
        "details": "Returns the name of the token."
      },
      "proxiableUUID()": {
        "details": "Implementation of the ERC1822 {proxiableUUID} function. This returns the storage slot used by the implementation. It is used to validate that the this implementation remains valid after an upgrade. IMPORTANT: A proxy pointing at a proxiable contract should not be considered proxiable itself, because this risks bricking a proxy that upgrades to it, by delegating to itself until out of gas. Thus it is critical that this function revert if invoked through a proxy. This is guaranteed by the `notDelegated` modifier."
      },
      "symbol()": {
        "details": "Returns the symbol of the token, usually a shorter version of the name."
      },
      "totalSupply()": {
        "details": "See {IERC20-totalSupply}."
      },
      "transfer(address,uint256)": {
        "details": "See {IERC20-transfer}. Requirements: - `to` cannot be the zero address. - the caller must have a balance of at least `amount`."
      },
      "transferFrom(address,address,uint256)": {
        "details": "See {IERC20-transferFrom}. Emits an {Approval} event indicating the updated allowance. This is not required by the EIP. See the note at the beginning of {ERC20}. NOTE: Does not update the allowance if the current allowance is the maximum `uint256`. Requirements: - `from` and `to` cannot be the zero address. - `from` must have a balance of at least `amount`. - the caller must have allowance for ``from``'s tokens of at least `amount`."
      },
      "upgradeTo(address)": {
        "details": "Upgrade the implementation of the proxy to `newImplementation`. Calls {_authorizeUpgrade}. Emits an {Upgraded} event."
      },
      "upgradeToAndCall(address,bytes)": {
        "details": "Upgrade the implementation of the proxy to `newImplementation`, and subsequently execute the function call encoded in `data`. Calls {_authorizeUpgrade}. Emits an {Upgraded} event."
      }
    },
    "version": 1
  },
  "userdoc": {
    "kind": "user",
    "methods": {
      "assetBaseCurrencyPrice(address,uint256)": {
        "notice": "This function is imported by other contract, thus cannot be external"
      },
      "canResolvePrice(address)": {
        "notice": "This function is imported by other contract, thus cannot be external"
      }
    },
    "version": 1
  },
  "storageLayout": {
    "storage": [
      {
        "astId": 3115,
        "contract": "contracts/LiquidPool.sol:LiquidPool",
        "label": "_initialized",
        "offset": 0,
        "slot": "0",
        "type": "t_uint8"
      },
      {
        "astId": 3118,
        "contract": "contracts/LiquidPool.sol:LiquidPool",
        "label": "_initializing",
        "offset": 1,
        "slot": "0",
        "type": "t_bool"
      },
      {
        "astId": 3097,
        "contract": "contracts/LiquidPool.sol:LiquidPool",
        "label": "__gap",
        "offset": 0,
        "slot": "1",
        "type": "t_array(t_uint256)50_storage"
      },
      {
        "astId": 3394,
        "contract": "contracts/LiquidPool.sol:LiquidPool",
        "label": "__gap",
        "offset": 0,
        "slot": "51",
        "type": "t_array(t_uint256)50_storage"
      },
      {
        "astId": 5175,
        "contract": "contracts/LiquidPool.sol:LiquidPool",
        "label": "__gap",
        "offset": 0,
        "slot": "101",
        "type": "t_array(t_uint256)50_storage"
      },
      {
        "astId": 3580,
        "contract": "contracts/LiquidPool.sol:LiquidPool",
        "label": "_balances",
        "offset": 0,
        "slot": "151",
        "type": "t_mapping(t_address,t_uint256)"
      },
      {
        "astId": 3586,
        "contract": "contracts/LiquidPool.sol:LiquidPool",
        "label": "_allowances",
        "offset": 0,
        "slot": "152",
        "type": "t_mapping(t_address,t_mapping(t_address,t_uint256))"
      },
      {
        "astId": 3588,
        "contract": "contracts/LiquidPool.sol:LiquidPool",
        "label": "_totalSupply",
        "offset": 0,
        "slot": "153",
        "type": "t_uint256"
      },
      {
        "astId": 3590,
        "contract": "contracts/LiquidPool.sol:LiquidPool",
        "label": "_name",
        "offset": 0,
        "slot": "154",
        "type": "t_string_storage"
      },
      {
        "astId": 3592,
        "contract": "contracts/LiquidPool.sol:LiquidPool",
        "label": "_symbol",
        "offset": 0,
        "slot": "155",
        "type": "t_string_storage"
      },
      {
        "astId": 4171,
        "contract": "contracts/LiquidPool.sol:LiquidPool",
        "label": "__gap",
        "offset": 0,
        "slot": "156",
        "type": "t_array(t_uint256)45_storage"
      },
      {
        "astId": 18335,
        "contract": "contracts/LiquidPool.sol:LiquidPool",
        "label": "_baseCurrency",
        "offset": 0,
        "slot": "201",
        "type": "t_address"
      },
      {
        "astId": 18337,
        "contract": "contracts/LiquidPool.sol:LiquidPool",
        "label": "_accountSystem",
        "offset": 0,
        "slot": "202",
        "type": "t_address"
      },
      {
        "astId": 18487,
        "contract": "contracts/LiquidPool.sol:LiquidPool",
        "label": "__gap",
        "offset": 0,
        "slot": "203",
        "type": "t_array(t_uint256)50_storage"
      },
      {
        "astId": 17112,
        "contract": "contracts/LiquidPool.sol:LiquidPool",
        "label": "_team",
        "offset": 0,
        "slot": "253",
        "type": "t_address"
      },
      {
        "astId": 17116,
        "contract": "contracts/LiquidPool.sol:LiquidPool",
        "label": "_budgetApprovals",
        "offset": 0,
        "slot": "254",
        "type": "t_mapping(t_address,t_bool)"
      },
      {
        "astId": 17118,
        "contract": "contracts/LiquidPool.sol:LiquidPool",
        "label": "_accountSystem",
        "offset": 0,
        "slot": "255",
        "type": "t_address"
      },
      {
        "astId": 17395,
        "contract": "contracts/LiquidPool.sol:LiquidPool",
        "label": "__gap",
        "offset": 0,
        "slot": "256",
        "type": "t_array(t_uint256)50_storage"
      },
      {
        "astId": 13976,
        "contract": "contracts/LiquidPool.sol:LiquidPool",
        "label": "dao",
        "offset": 0,
        "slot": "306",
        "type": "t_contract(IDao)20141"
      },
      {
        "astId": 13979,
        "contract": "contracts/LiquidPool.sol:LiquidPool",
        "label": "assets",
        "offset": 0,
        "slot": "307",
        "type": "t_array(t_address)dyn_storage"
      },
      {
        "astId": 13983,
        "contract": "contracts/LiquidPool.sol:LiquidPool",
        "label": "_assetIndex",
        "offset": 0,
        "slot": "308",
        "type": "t_mapping(t_address,t_uint256)"
      },
      {
        "astId": 14841,
        "contract": "contracts/LiquidPool.sol:LiquidPool",
        "label": "__gap",
        "offset": 0,
        "slot": "309",
        "type": "t_array(t_uint256)50_storage"
      }
    ],
    "types": {
      "t_address": {
        "encoding": "inplace",
        "label": "address",
        "numberOfBytes": "20"
      },
      "t_array(t_address)dyn_storage": {
        "base": "t_address",
        "encoding": "dynamic_array",
        "label": "address[]",
        "numberOfBytes": "32"
      },
      "t_array(t_uint256)45_storage": {
        "base": "t_uint256",
        "encoding": "inplace",
        "label": "uint256[45]",
        "numberOfBytes": "1440"
      },
      "t_array(t_uint256)50_storage": {
        "base": "t_uint256",
        "encoding": "inplace",
        "label": "uint256[50]",
        "numberOfBytes": "1600"
      },
      "t_bool": {
        "encoding": "inplace",
        "label": "bool",
        "numberOfBytes": "1"
      },
      "t_contract(IDao)20141": {
        "encoding": "inplace",
        "label": "contract IDao",
        "numberOfBytes": "20"
      },
      "t_mapping(t_address,t_bool)": {
        "encoding": "mapping",
        "key": "t_address",
        "label": "mapping(address => bool)",
        "numberOfBytes": "32",
        "value": "t_bool"
      },
      "t_mapping(t_address,t_mapping(t_address,t_uint256))": {
        "encoding": "mapping",
        "key": "t_address",
        "label": "mapping(address => mapping(address => uint256))",
        "numberOfBytes": "32",
        "value": "t_mapping(t_address,t_uint256)"
      },
      "t_mapping(t_address,t_uint256)": {
        "encoding": "mapping",
        "key": "t_address",
        "label": "mapping(address => uint256)",
        "numberOfBytes": "32",
        "value": "t_uint256"
      },
      "t_string_storage": {
        "encoding": "bytes",
        "label": "string",
        "numberOfBytes": "32"
      },
      "t_uint256": {
        "encoding": "inplace",
        "label": "uint256",
        "numberOfBytes": "32"
      },
      "t_uint8": {
        "encoding": "inplace",
        "label": "uint8",
        "numberOfBytes": "1"
      }
    }
  }
}