{
  "address": "0x0dBDa48488a7b80573Fe4e4dB9b90ac02182B149",
  "abi": [
    {
      "inputs": [],
      "stateMutability": "nonpayable",
      "type": "constructor"
    },
    {
      "anonymous": false,
      "inputs": [
        {
          "indexed": false,
          "internalType": "address",
          "name": "previousAdmin",
          "type": "address"
        },
        {
          "indexed": false,
          "internalType": "address",
          "name": "newAdmin",
          "type": "address"
        }
      ],
      "name": "AdminChanged",
      "type": "event"
    },
    {
      "anonymous": false,
      "inputs": [
        {
          "indexed": true,
          "internalType": "address",
          "name": "owner",
          "type": "address"
        },
        {
          "indexed": true,
          "internalType": "address",
          "name": "approved",
          "type": "address"
        },
        {
          "indexed": true,
          "internalType": "uint256",
          "name": "tokenId",
          "type": "uint256"
        }
      ],
      "name": "Approval",
      "type": "event"
    },
    {
      "anonymous": false,
      "inputs": [
        {
          "indexed": true,
          "internalType": "address",
          "name": "owner",
          "type": "address"
        },
        {
          "indexed": true,
          "internalType": "address",
          "name": "operator",
          "type": "address"
        },
        {
          "indexed": false,
          "internalType": "bool",
          "name": "approved",
          "type": "bool"
        }
      ],
      "name": "ApprovalForAll",
      "type": "event"
    },
    {
      "anonymous": false,
      "inputs": [
        {
          "indexed": true,
          "internalType": "address",
          "name": "beacon",
          "type": "address"
        }
      ],
      "name": "BeaconUpgraded",
      "type": "event"
    },
    {
      "anonymous": false,
      "inputs": [
        {
          "indexed": false,
          "internalType": "address",
          "name": "to",
          "type": "address"
        }
      ],
      "name": "CreateMember",
      "type": "event"
    },
    {
      "anonymous": false,
      "inputs": [
        {
          "indexed": true,
          "internalType": "address",
          "name": "delegator",
          "type": "address"
        },
        {
          "indexed": true,
          "internalType": "address",
          "name": "fromDelegate",
          "type": "address"
        },
        {
          "indexed": true,
          "internalType": "address",
          "name": "toDelegate",
          "type": "address"
        }
      ],
      "name": "DelegateChanged",
      "type": "event"
    },
    {
      "anonymous": false,
      "inputs": [
        {
          "indexed": true,
          "internalType": "address",
          "name": "delegate",
          "type": "address"
        },
        {
          "indexed": false,
          "internalType": "uint256",
          "name": "previousBalance",
          "type": "uint256"
        },
        {
          "indexed": false,
          "internalType": "uint256",
          "name": "newBalance",
          "type": "uint256"
        }
      ],
      "name": "DelegateVotesChanged",
      "type": "event"
    },
    {
      "anonymous": false,
      "inputs": [
        {
          "indexed": false,
          "internalType": "uint8",
          "name": "version",
          "type": "uint8"
        }
      ],
      "name": "Initialized",
      "type": "event"
    },
    {
      "anonymous": false,
      "inputs": [
        {
          "indexed": false,
          "internalType": "address",
          "name": "member",
          "type": "address"
        },
        {
          "indexed": false,
          "internalType": "uint256",
          "name": "tokenId",
          "type": "uint256"
        }
      ],
      "name": "RemoveMember",
      "type": "event"
    },
    {
      "anonymous": false,
      "inputs": [
        {
          "indexed": true,
          "internalType": "address",
          "name": "from",
          "type": "address"
        },
        {
          "indexed": true,
          "internalType": "address",
          "name": "to",
          "type": "address"
        },
        {
          "indexed": true,
          "internalType": "uint256",
          "name": "tokenId",
          "type": "uint256"
        }
      ],
      "name": "Transfer",
      "type": "event"
    },
    {
      "anonymous": false,
      "inputs": [
        {
          "indexed": true,
          "internalType": "address",
          "name": "implementation",
          "type": "address"
        }
      ],
      "name": "Upgraded",
      "type": "event"
    },
    {
      "inputs": [],
      "name": "DOMAIN_SEPARATOR",
      "outputs": [
        {
          "internalType": "bytes32",
          "name": "",
          "type": "bytes32"
        }
      ],
      "stateMutability": "view",
      "type": "function"
    },
    {
      "inputs": [
        {
          "internalType": "address",
          "name": "to",
          "type": "address"
        },
        {
          "internalType": "uint256",
          "name": "tokenId",
          "type": "uint256"
        }
      ],
      "name": "approve",
      "outputs": [],
      "stateMutability": "nonpayable",
      "type": "function"
    },
    {
      "inputs": [
        {
          "internalType": "address",
          "name": "owner",
          "type": "address"
        }
      ],
      "name": "balanceOf",
      "outputs": [
        {
          "internalType": "uint256",
          "name": "",
          "type": "uint256"
        }
      ],
      "stateMutability": "view",
      "type": "function"
    },
    {
      "inputs": [
        {
          "internalType": "address",
          "name": "to",
          "type": "address"
        }
      ],
      "name": "createMember",
      "outputs": [],
      "stateMutability": "nonpayable",
      "type": "function"
    },
    {
      "inputs": [],
      "name": "dao",
      "outputs": [
        {
          "internalType": "address payable",
          "name": "",
          "type": "address"
        }
      ],
      "stateMutability": "view",
      "type": "function"
    },
    {
      "inputs": [
        {
          "internalType": "address",
          "name": "delegatee",
          "type": "address"
        }
      ],
      "name": "delegate",
      "outputs": [],
      "stateMutability": "nonpayable",
      "type": "function"
    },
    {
      "inputs": [
        {
          "internalType": "address",
          "name": "delegatee",
          "type": "address"
        },
        {
          "internalType": "uint256",
          "name": "nonce",
          "type": "uint256"
        },
        {
          "internalType": "uint256",
          "name": "expiry",
          "type": "uint256"
        },
        {
          "internalType": "uint8",
          "name": "v",
          "type": "uint8"
        },
        {
          "internalType": "bytes32",
          "name": "r",
          "type": "bytes32"
        },
        {
          "internalType": "bytes32",
          "name": "s",
          "type": "bytes32"
        }
      ],
      "name": "delegateBySig",
      "outputs": [],
      "stateMutability": "nonpayable",
      "type": "function"
    },
    {
      "inputs": [
        {
          "internalType": "address",
          "name": "account",
          "type": "address"
        }
      ],
      "name": "delegates",
      "outputs": [
        {
          "internalType": "address",
          "name": "",
          "type": "address"
        }
      ],
      "stateMutability": "view",
      "type": "function"
    },
    {
      "inputs": [
        {
          "internalType": "uint256",
          "name": "tokenId",
          "type": "uint256"
        }
      ],
      "name": "getApproved",
      "outputs": [
        {
          "internalType": "address",
          "name": "",
          "type": "address"
        }
      ],
      "stateMutability": "view",
      "type": "function"
    },
    {
      "inputs": [
        {
          "internalType": "uint256",
          "name": "blockNumber",
          "type": "uint256"
        }
      ],
      "name": "getPastTotalSupply",
      "outputs": [
        {
          "internalType": "uint256",
          "name": "",
          "type": "uint256"
        }
      ],
      "stateMutability": "view",
      "type": "function"
    },
    {
      "inputs": [
        {
          "internalType": "address",
          "name": "account",
          "type": "address"
        },
        {
          "internalType": "uint256",
          "name": "blockNumber",
          "type": "uint256"
        }
      ],
      "name": "getPastVotes",
      "outputs": [
        {
          "internalType": "uint256",
          "name": "",
          "type": "uint256"
        }
      ],
      "stateMutability": "view",
      "type": "function"
    },
    {
      "inputs": [
        {
          "internalType": "address",
          "name": "account",
          "type": "address"
        }
      ],
      "name": "getVotes",
      "outputs": [
        {
          "internalType": "uint256",
          "name": "",
          "type": "uint256"
        }
      ],
      "stateMutability": "view",
      "type": "function"
    },
    {
      "inputs": [
        {
          "internalType": "address",
          "name": "_dao",
          "type": "address"
        },
        {
          "internalType": "string",
          "name": "_name",
          "type": "string"
        },
        {
          "internalType": "uint256",
          "name": "_maxMemberLimit",
          "type": "uint256"
        }
      ],
      "name": "initialize",
      "outputs": [],
      "stateMutability": "nonpayable",
      "type": "function"
    },
    {
      "inputs": [
        {
          "internalType": "address",
          "name": "owner",
          "type": "address"
        },
        {
          "internalType": "address",
          "name": "operator",
          "type": "address"
        }
      ],
      "name": "isApprovedForAll",
      "outputs": [
        {
          "internalType": "bool",
          "name": "",
          "type": "bool"
        }
      ],
      "stateMutability": "view",
      "type": "function"
    },
    {
      "inputs": [
        {
          "internalType": "address",
          "name": "",
          "type": "address"
        }
      ],
      "name": "isMember",
      "outputs": [
        {
          "internalType": "bool",
          "name": "",
          "type": "bool"
        }
      ],
      "stateMutability": "view",
      "type": "function"
    },
    {
      "inputs": [],
      "name": "maxMemberLimit",
      "outputs": [
        {
          "internalType": "uint256",
          "name": "",
          "type": "uint256"
        }
      ],
      "stateMutability": "view",
      "type": "function"
    },
    {
      "inputs": [],
      "name": "name",
      "outputs": [
        {
          "internalType": "string",
          "name": "",
          "type": "string"
        }
      ],
      "stateMutability": "view",
      "type": "function"
    },
    {
      "inputs": [
        {
          "internalType": "address",
          "name": "owner",
          "type": "address"
        }
      ],
      "name": "nonces",
      "outputs": [
        {
          "internalType": "uint256",
          "name": "",
          "type": "uint256"
        }
      ],
      "stateMutability": "view",
      "type": "function"
    },
    {
      "inputs": [
        {
          "internalType": "uint256",
          "name": "tokenId",
          "type": "uint256"
        }
      ],
      "name": "ownerOf",
      "outputs": [
        {
          "internalType": "address",
          "name": "",
          "type": "address"
        }
      ],
      "stateMutability": "view",
      "type": "function"
    },
    {
      "inputs": [],
      "name": "proxiableUUID",
      "outputs": [
        {
          "internalType": "bytes32",
          "name": "",
          "type": "bytes32"
        }
      ],
      "stateMutability": "view",
      "type": "function"
    },
    {
      "inputs": [
        {
          "internalType": "uint256",
          "name": "tokenId",
          "type": "uint256"
        }
      ],
      "name": "removeMember",
      "outputs": [],
      "stateMutability": "nonpayable",
      "type": "function"
    },
    {
      "inputs": [
        {
          "internalType": "address",
          "name": "from",
          "type": "address"
        },
        {
          "internalType": "address",
          "name": "to",
          "type": "address"
        },
        {
          "internalType": "uint256",
          "name": "tokenId",
          "type": "uint256"
        }
      ],
      "name": "safeTransferFrom",
      "outputs": [],
      "stateMutability": "nonpayable",
      "type": "function"
    },
    {
      "inputs": [
        {
          "internalType": "address",
          "name": "from",
          "type": "address"
        },
        {
          "internalType": "address",
          "name": "to",
          "type": "address"
        },
        {
          "internalType": "uint256",
          "name": "tokenId",
          "type": "uint256"
        },
        {
          "internalType": "bytes",
          "name": "data",
          "type": "bytes"
        }
      ],
      "name": "safeTransferFrom",
      "outputs": [],
      "stateMutability": "nonpayable",
      "type": "function"
    },
    {
      "inputs": [
        {
          "internalType": "address",
          "name": "operator",
          "type": "address"
        },
        {
          "internalType": "bool",
          "name": "approved",
          "type": "bool"
        }
      ],
      "name": "setApprovalForAll",
      "outputs": [],
      "stateMutability": "nonpayable",
      "type": "function"
    },
    {
      "inputs": [
        {
          "internalType": "bytes4",
          "name": "interfaceId",
          "type": "bytes4"
        }
      ],
      "name": "supportsInterface",
      "outputs": [
        {
          "internalType": "bool",
          "name": "",
          "type": "bool"
        }
      ],
      "stateMutability": "view",
      "type": "function"
    },
    {
      "inputs": [],
      "name": "symbol",
      "outputs": [
        {
          "internalType": "string",
          "name": "",
          "type": "string"
        }
      ],
      "stateMutability": "view",
      "type": "function"
    },
    {
      "inputs": [
        {
          "internalType": "uint256",
          "name": "tokenId",
          "type": "uint256"
        }
      ],
      "name": "tokenURI",
      "outputs": [
        {
          "internalType": "string",
          "name": "",
          "type": "string"
        }
      ],
      "stateMutability": "view",
      "type": "function"
    },
    {
      "inputs": [],
      "name": "totalSupply",
      "outputs": [
        {
          "internalType": "uint256",
          "name": "",
          "type": "uint256"
        }
      ],
      "stateMutability": "view",
      "type": "function"
    },
    {
      "inputs": [
        {
          "internalType": "address",
          "name": "from",
          "type": "address"
        },
        {
          "internalType": "address",
          "name": "to",
          "type": "address"
        },
        {
          "internalType": "uint256",
          "name": "tokenId",
          "type": "uint256"
        }
      ],
      "name": "transferFrom",
      "outputs": [],
      "stateMutability": "nonpayable",
      "type": "function"
    },
    {
      "inputs": [
        {
          "internalType": "address",
          "name": "newImplementation",
          "type": "address"
        }
      ],
      "name": "upgradeTo",
      "outputs": [],
      "stateMutability": "nonpayable",
      "type": "function"
    },
    {
      "inputs": [
        {
          "internalType": "address",
          "name": "newImplementation",
          "type": "address"
        },
        {
          "internalType": "bytes",
          "name": "data",
          "type": "bytes"
        }
      ],
      "name": "upgradeToAndCall",
      "outputs": [],
      "stateMutability": "payable",
      "type": "function"
    },
    {
      "inputs": [
        {
          "internalType": "address",
          "name": "",
          "type": "address"
        }
      ],
      "name": "wasMember",
      "outputs": [
        {
          "internalType": "bool",
          "name": "",
          "type": "bool"
        }
      ],
      "stateMutability": "view",
      "type": "function"
    }
  ],
  "transactionHash": "0xacb1e8042e58214658452e7bd2d2ef837113a0843af869da1f928c3d37217b37",
  "args": [],
  "numDeployments": 2,
  "solcInputHash": "0bf08bfb5aa4223ac185509dad87d2a6",
  "bytecode": "0x60a06040523060601b6080523480156200001857600080fd5b506200002362000029565b620000eb565b600054610100900460ff1615620000965760405162461bcd60e51b815260206004820152602760248201527f496e697469616c697a61626c653a20636f6e747261637420697320696e697469604482015266616c697a696e6760c81b606482015260840160405180910390fd5b60005460ff9081161015620000e9576000805460ff191660ff9081179091556040519081527f7f26b83ff96e1f2b6a682f133852f6798a09c465da95921460cefb38474024989060200160405180910390a15b565b60805160601c6135a56200012660003960008181610a3e01528181610a7e01528181610b6301528181610ba30152610c3601526135a56000f3fe6080604052600436106101e35760003560e01c80636352211e11610102578063a1a74aae11610095578063c3cda52011610064578063c3cda52014610593578063c87b56dd146105b3578063d23a403c146105d3578063e985e9c5146105ea57600080fd5b8063a1a74aae14610502578063a22cb46514610522578063a230c52414610542578063b88d4fde1461057357600080fd5b80638dac9bbc116100d15780638dac9bbc1461048d5780638e539e8c146104ad57806395d89b41146104cd5780639ab24eb0146104e257600080fd5b80636352211e146103fc57806370a082311461041c5780637ecebe001461043c5780638370578c1461045c57600080fd5b80633659cfe61161017a5780634f1ef286116101495780634f1ef2861461039457806352d1902d146103a7578063587cde1e146103bc5780635c19a95c146103dc57600080fd5b80633659cfe6146103135780633a46b1a8146103335780634162169f1461035357806342842e0e1461037457600080fd5b806318160ddd116101b657806318160ddd146102995780632124d529146102be57806323b872dd146102de5780633644e515146102fe57600080fd5b806301ffc9a7146101e857806306fdde031461021d578063081812fc1461023f578063095ea7b314610277575b600080fd5b3480156101f457600080fd5b5061020861020336600461300c565b610633565b60405190151581526020015b60405180910390f35b34801561022957600080fd5b50610232610685565b60405161021491906131bb565b34801561024b57600080fd5b5061025f61025a366004613046565b610717565b6040516001600160a01b039091168152602001610214565b34801561028357600080fd5b50610297610292366004612f69565b61073e565b005b3480156102a557600080fd5b506102b06101945481565b604051908152602001610214565b3480156102ca57600080fd5b506102976102d9366004612d82565b610859565b3480156102ea57600080fd5b506102976102f9366004612dd0565b6109f3565b34801561030a57600080fd5b506102b0610a24565b34801561031f57600080fd5b5061029761032e366004612d82565b610a33565b34801561033f57600080fd5b506102b061034e366004612f69565b610b13565b34801561035f57600080fd5b506101935461025f906001600160a01b031681565b34801561038057600080fd5b5061029761038f366004612dd0565b610b3d565b6102976103a2366004612eb0565b610b58565b3480156103b357600080fd5b506102b0610c29565b3480156103c857600080fd5b5061025f6103d7366004612d82565b610cdc565b3480156103e857600080fd5b506102976103f7366004612d82565b610cfb565b34801561040857600080fd5b5061025f610417366004613046565b610d06565b34801561042857600080fd5b506102b0610437366004612d82565b610d66565b34801561044857600080fd5b506102b0610457366004612d82565b610dec565b34801561046857600080fd5b50610208610477366004612d82565b6101986020526000908152604090205460ff1681565b34801561049957600080fd5b506102976104a8366004612efe565b610e0b565b3480156104b957600080fd5b506102b06104c8366004613046565b610fea565b3480156104d957600080fd5b50610232611047565b3480156104ee57600080fd5b506102b06104fd366004612d82565b611056565b34801561050e57600080fd5b5061029761051d366004613046565b611078565b34801561052e57600080fd5b5061029761053d366004612e74565b61114e565b34801561054e57600080fd5b5061020861055d366004612d82565b6101976020526000908152604090205460ff1681565b34801561057f57600080fd5b5061029761058e366004612e0c565b611159565b34801561059f57600080fd5b506102976105ae366004612f93565b61118b565b3480156105bf57600080fd5b506102326105ce366004613046565b6112b8565b3480156105df57600080fd5b506102b06101955481565b3480156105f657600080fd5b50610208610605366004612d9d565b6001600160a01b03918216600090815260ce6020908152604080832093909416825291909152205460ff1690565b60006001600160e01b031982166380ac58cd60e01b148061066457506001600160e01b03198216635b5e139f60e01b145b8061067f57506301ffc9a760e01b6001600160e01b03198316145b92915050565b606060c9805461069490613400565b80601f01602080910402602001604051908101604052809291908181526020018280546106c090613400565b801561070d5780601f106106e25761010080835404028352916020019161070d565b820191906000526020600020905b8154815290600101906020018083116106f057829003601f168201915b5050505050905090565b60006107228261131f565b50600090815260cd60205260409020546001600160a01b031690565b600061074982610d06565b9050806001600160a01b0316836001600160a01b031614156107bc5760405162461bcd60e51b815260206004820152602160248201527f4552433732313a20617070726f76616c20746f2063757272656e74206f776e656044820152603960f91b60648201526084015b60405180910390fd5b336001600160a01b03821614806107d857506107d88133610605565b61084a5760405162461bcd60e51b815260206004820152603e60248201527f4552433732313a20617070726f76652063616c6c6572206973206e6f7420746f60448201527f6b656e206f776e6572206e6f7220617070726f76656420666f7220616c6c000060648201526084016107b3565b610854838361137e565b505050565b610193546001600160a01b031633146108845760405162461bcd60e51b81526004016107b3906132b8565b610194546001600160a01b0382166000908152610197602052604090205460ff16156108eb5760405162461bcd60e51b815260206004820152601660248201527513595b58995c88185b1c9958591e4818dc99585d195960521b60448201526064016107b3565b61019554811061093d5760405162461bcd60e51b815260206004820152601960248201527f6d656d62657220636f756e7420657863656564206c696d69740000000000000060448201526064016107b3565b61094c61019680546001019055565b60006109586101965490565b90506109748382604051806020016040528060008152506113ec565b61097f826001613372565b610194556001600160a01b0383166000818152610197602090815260408083208054600160ff1991821617909155610198835292819020805490931690925590519182527f2e95375ba4496573ca74b6c456a1b885cfdd78ae502d985f1f0ca779444a1af4910160405180910390a1505050565b6109fd338261141f565b610a195760405162461bcd60e51b81526004016107b390613324565b61085483838361149e565b6000610a2e61164b565b905090565b306001600160a01b037f0000000000000000000000000000000000000000000000000000000000000000161415610a7c5760405162461bcd60e51b81526004016107b390613220565b7f00000000000000000000000000000000000000000000000000000000000000006001600160a01b0316610ac56000805160206134e9833981519152546001600160a01b031690565b6001600160a01b031614610aeb5760405162461bcd60e51b81526004016107b39061326c565b610af4816116c6565b60408051600080825260208201909252610b10918391906116f1565b50565b6001600160a01b038216600090815261013060205260408120610b36908361186b565b9392505050565b61085483838360405180602001604052806000815250611159565b306001600160a01b037f0000000000000000000000000000000000000000000000000000000000000000161415610ba15760405162461bcd60e51b81526004016107b390613220565b7f00000000000000000000000000000000000000000000000000000000000000006001600160a01b0316610bea6000805160206134e9833981519152546001600160a01b031690565b6001600160a01b031614610c105760405162461bcd60e51b81526004016107b39061326c565b610c19826116c6565b610c25828260016116f1565b5050565b6000306001600160a01b037f00000000000000000000000000000000000000000000000000000000000000001614610cc95760405162461bcd60e51b815260206004820152603860248201527f555550535570677261646561626c653a206d757374206e6f742062652063616c60448201527f6c6564207468726f7567682064656c656761746563616c6c000000000000000060648201526084016107b3565b506000805160206134e983398151915290565b6001600160a01b03908116600090815261012f60205260409020541690565b33610c25818361197a565b600081815260cb60205260408120546001600160a01b03168061067f5760405162461bcd60e51b8152602060048201526018602482015277115490cdcc8c4e881a5b9d985b1a59081d1bdad95b88125160421b60448201526064016107b3565b60006001600160a01b038216610dd05760405162461bcd60e51b815260206004820152602960248201527f4552433732313a2061646472657373207a65726f206973206e6f7420612076616044820152683634b21037bbb732b960b91b60648201526084016107b3565b506001600160a01b0316600090815260cc602052604090205490565b6001600160a01b0381166000908152610132602052604081205461067f565b600054610100900460ff1615808015610e2b5750600054600160ff909116105b80610e455750303b158015610e45575060005460ff166001145b610ea85760405162461bcd60e51b815260206004820152602e60248201527f496e697469616c697a61626c653a20636f6e747261637420697320616c72656160448201526d191e481a5b9a5d1a585b1a5e995960921b60648201526084016107b3565b6000805460ff191660011790558015610ecb576000805461ff0019166101001790555b610f23610f046040518060400160405280600b81526020016a0204d656d626572736869760ac1b815250856119f690919063ffffffff16565b604051806040016040528060018152602001603160f81b815250611a22565b610f7c610f5c6040518060400160405280600b81526020016a0204d656d626572736869760ac1b815250856119f690919063ffffffff16565b604051806040016040528060028152602001614d5360f01b815250611a53565b61019380546001600160a01b0319166001600160a01b0386161790556101958290558015610fe4576000805461ff0019169055604051600181527f7f26b83ff96e1f2b6a682f133852f6798a09c465da95921460cefb38474024989060200160405180910390a15b50505050565b600043821061103b5760405162461bcd60e51b815260206004820152601a60248201527f566f7465733a20626c6f636b206e6f7420796574206d696e656400000000000060448201526064016107b3565b61067f6101318361186b565b606060ca805461069490613400565b6001600160a01b03811660009081526101306020526040812061067f90611a84565b610193546001600160a01b031633146110a35760405162461bcd60e51b81526004016107b3906132b8565b60006110ae82610d06565b90506110b982611ae0565b6001600160a01b038116600090815261019760209081526040808320805460ff19908116909155610198909252909120805490911660019081179091556101945461110491906133bd565b61019455604080516001600160a01b0383168152602081018490527fd2d4adb8c32a13493d1fe695d2a5cc51c680de90ffaf0b3b3c4c9d4335ac4f9c910160405180910390a15050565b610c25338383611b8f565b611163338361141f565b61117f5760405162461bcd60e51b81526004016107b390613324565b610fe484848484611c5e565b834211156111db5760405162461bcd60e51b815260206004820152601860248201527f566f7465733a207369676e61747572652065787069726564000000000000000060448201526064016107b3565b604080517fe48329057bfd03d55e49b547132e39cffd9c1820ad7b9d4c5307691425d15adf60208201526001600160a01b0388169181019190915260608101869052608081018590526000906112559061124d9060a00160405160208183030381529060405280519060200120611c91565b858585611cdf565b905061126081611d07565b86146112a55760405162461bcd60e51b8152602060048201526014602482015273566f7465733a20696e76616c6964206e6f6e636560601b60448201526064016107b3565b6112af818861197a565b50505050505050565b606060006112c4610685565b6112cd84611d30565b6040516020016112de9291906130d6565b60405160208183030381529060405290506112f881611e2e565b6040516020016113089190613139565b604051602081830303815290604052915050919050565b600081815260cb60205260409020546001600160a01b0316610b105760405162461bcd60e51b8152602060048201526018602482015277115490cdcc8c4e881a5b9d985b1a59081d1bdad95b88125160421b60448201526064016107b3565b600081815260cd6020526040902080546001600160a01b0319166001600160a01b03841690811790915581906113b382610d06565b6001600160a01b03167f8c5be1e5ebec7d5bd14f71427d1e84f3dd0314c0f7b2291e5b200ac8c7c3b92560405160405180910390a45050565b6113f68383611f96565b61140360008484846120ec565b6108545760405162461bcd60e51b81526004016107b3906131ce565b60008061142b83610d06565b9050806001600160a01b0316846001600160a01b0316148061147257506001600160a01b03808216600090815260ce602090815260408083209388168352929052205460ff165b806114965750836001600160a01b031661148b84610717565b6001600160a01b0316145b949350505050565b826001600160a01b03166114b182610d06565b6001600160a01b0316146115155760405162461bcd60e51b815260206004820152602560248201527f4552433732313a207472616e736665722066726f6d20696e636f72726563742060448201526437bbb732b960d91b60648201526084016107b3565b6001600160a01b0382166115775760405162461bcd60e51b8152602060048201526024808201527f4552433732313a207472616e7366657220746f20746865207a65726f206164646044820152637265737360e01b60648201526084016107b3565b6115828383836121f6565b61158d60008261137e565b6001600160a01b038316600090815260cc602052604081208054600192906115b69084906133bd565b90915550506001600160a01b038216600090815260cc602052604081208054600192906115e4908490613372565b9091555050600081815260cb602052604080822080546001600160a01b0319166001600160a01b0386811691821790925591518493918716917fddf252ad1be2c89b69c2b068fc378daa952ba7f163c4a11628f55a4df523b3ef91a461085483838361227b565b6000610a2e7f8b73c3c69bb8fe3d512ecc4cf759cc79239f7b179b0ffacaa9a75d522b39400f61167a60fb5490565b60fc546040805160208101859052908101839052606081018290524660808201523060a082015260009060c0016040516020818303038152906040528051906020012090509392505050565b610193546001600160a01b03163314610b105760405162461bcd60e51b81526004016107b3906132b8565b7f4910fdfa16fed3260ed0e7147f7cc6da11a60208b5b9406d12a635614ffd91435460ff161561172457610854836122d1565b826001600160a01b03166352d1902d6040518163ffffffff1660e01b815260040160206040518083038186803b15801561175d57600080fd5b505afa92505050801561178d575060408051601f3d908101601f1916820190925261178a91810190612ff3565b60015b6117f05760405162461bcd60e51b815260206004820152602e60248201527f45524331393637557067726164653a206e657720696d706c656d656e7461746960448201526d6f6e206973206e6f74205555505360901b60648201526084016107b3565b6000805160206134e9833981519152811461185f5760405162461bcd60e51b815260206004820152602960248201527f45524331393637557067726164653a20756e737570706f727465642070726f786044820152681a58589b195555525160ba1b60648201526084016107b3565b5061085483838361236d565b60004382106118bc5760405162461bcd60e51b815260206004820181905260248201527f436865636b706f696e74733a20626c6f636b206e6f7420796574206d696e656460448201526064016107b3565b825460005b818110156119215760006118d58284612392565b9050848660000182815481106118ed576118ed6134a6565b60009182526020909120015463ffffffff16111561190d5780925061191b565b611918816001613372565b91505b506118c1565b811561196557846119336001846133bd565b81548110611943576119436134a6565b60009182526020909120015464010000000090046001600160e01b0316611968565b60005b6001600160e01b031695945050505050565b600061198583610cdc565b6001600160a01b03848116600081815261012f602052604080822080546001600160a01b031916888616908117909155905194955093928516927f3134e8a2e6d97e929a7e54011ea5485d7d196dd5f0ba4d4ef95803e8e3fc257f9190a461085481836119f1866123ad565b6123b8565b60608282604051602001611a0b9291906130a7565b604051602081830303815290604052905092915050565b600054610100900460ff16611a495760405162461bcd60e51b81526004016107b3906132d9565b610c2582826124f7565b600054610100900460ff16611a7a5760405162461bcd60e51b81526004016107b3906132d9565b610c258282612538565b80546000908015611acd5782611a9b6001836133bd565b81548110611aab57611aab6134a6565b60009182526020909120015464010000000090046001600160e01b0316611ad0565b60005b6001600160e01b03169392505050565b6000611aeb82610d06565b9050611af9816000846121f6565b611b0460008361137e565b6001600160a01b038116600090815260cc60205260408120805460019290611b2d9084906133bd565b9091555050600082815260cb602052604080822080546001600160a01b0319169055518391906001600160a01b038416907fddf252ad1be2c89b69c2b068fc378daa952ba7f163c4a11628f55a4df523b3ef908390a4610c258160008461227b565b816001600160a01b0316836001600160a01b03161415611bf15760405162461bcd60e51b815260206004820152601960248201527f4552433732313a20617070726f766520746f2063616c6c65720000000000000060448201526064016107b3565b6001600160a01b03838116600081815260ce6020908152604080832094871680845294825291829020805460ff191686151590811790915591519182527f17307eab39ab6107e8899845ad3d59bd9653f200f220920489ca2b5937696c31910160405180910390a3505050565b611c6984848461149e565b611c75848484846120ec565b610fe45760405162461bcd60e51b81526004016107b3906131ce565b600061067f611c9e61164b565b8360405161190160f01b6020820152602281018390526042810182905260009060620160405160208183030381529060405280519060200120905092915050565b6000806000611cf087878787612586565b91509150611cfd81612673565b5095945050505050565b6001600160a01b0381166000908152610132602052604090208054600181018255905b50919050565b606081611d545750506040805180820190915260018152600360fc1b602082015290565b8160005b8115611d7e5780611d6881613435565b9150611d779050600a8361338a565b9150611d58565b60008167ffffffffffffffff811115611d9957611d996134bc565b6040519080825280601f01601f191660200182016040528015611dc3576020820181803683370190505b5090505b841561149657611dd86001836133bd565b9150611de5600a86613450565b611df0906030613372565b60f81b818381518110611e0557611e056134a6565b60200101906001600160f81b031916908160001a905350611e27600a8661338a565b9450611dc7565b6060815160001415611e4e57505060408051602081019091526000815290565b60006040518060600160405280604081526020016135096040913990506000600384516002611e7d9190613372565b611e87919061338a565b611e9290600461339e565b90506000611ea1826020613372565b67ffffffffffffffff811115611eb957611eb96134bc565b6040519080825280601f01601f191660200182016040528015611ee3576020820181803683370190505b509050818152600183018586518101602084015b81831015611f515760039283018051603f601282901c811687015160f890811b8552600c83901c8216880151811b6001860152600683901c8216880151811b60028601529116860151901b93820193909352600401611ef7565b600389510660018114611f6b5760028114611f7c57611f88565b613d3d60f01b600119830152611f88565b603d60f81b6000198301525b509398975050505050505050565b6001600160a01b038216611fec5760405162461bcd60e51b815260206004820181905260248201527f4552433732313a206d696e7420746f20746865207a65726f206164647265737360448201526064016107b3565b600081815260cb60205260409020546001600160a01b0316156120515760405162461bcd60e51b815260206004820152601c60248201527f4552433732313a20746f6b656e20616c7265616479206d696e7465640000000060448201526064016107b3565b61205d600083836121f6565b6001600160a01b038216600090815260cc60205260408120805460019290612086908490613372565b9091555050600081815260cb602052604080822080546001600160a01b0319166001600160a01b03861690811790915590518392907fddf252ad1be2c89b69c2b068fc378daa952ba7f163c4a11628f55a4df523b3ef908290a4610c256000838361227b565b60006001600160a01b0384163b156121ee57604051630a85bd0160e11b81526001600160a01b0385169063150b7a029061213090339089908890889060040161317e565b602060405180830381600087803b15801561214a57600080fd5b505af192505050801561217a575060408051601f3d908101601f1916820190925261217791810190613029565b60015b6121d4573d8080156121a8576040519150601f19603f3d011682016040523d82523d6000602084013e6121ad565b606091505b5080516121cc5760405162461bcd60e51b81526004016107b3906131ce565b805181602001fd5b6001600160e01b031916630a85bd0160e11b149050611496565b506001611496565b6001600160a01b0383161580159061221657506001600160a01b03821615155b156108545760405162461bcd60e51b815260206004820152602f60248201527f4d656d626572736869703a205472616e73666572206f66206d656d626572736860448201526e1a5c081a5cc818589bdd5b99185b99608a1b60648201526084016107b3565b61228683838361282e565b6001600160a01b0383161580156122a557506001600160a01b03821615155b80156122c2575060006122b783610cdc565b6001600160a01b0316145b1561085457610854828361197a565b6001600160a01b0381163b61233e5760405162461bcd60e51b815260206004820152602d60248201527f455243313936373a206e657720696d706c656d656e746174696f6e206973206e60448201526c1bdd08184818dbdb9d1c9858dd609a1b60648201526084016107b3565b6000805160206134e983398151915280546001600160a01b0319166001600160a01b0392909216919091179055565b6123768361283a565b6000825111806123835750805b1561085457610fe4838361287a565b60006123a1600284841861338a565b610b3690848416613372565b600061067f82610d66565b816001600160a01b0316836001600160a01b0316141580156123da5750600081115b15610854576001600160a01b03831615612469576001600160a01b03831660009081526101306020526040812081906124169061296e8561297a565b91509150846001600160a01b03167fdec2bacdd2f05b59de34da9b523dff8be42e5e38e818c82fdb0bae774387a724838360405161245e929190918252602082015260400190565b60405180910390a250505b6001600160a01b03821615610854576001600160a01b03821660009081526101306020526040812081906124a0906129a88561297a565b91509150836001600160a01b03167fdec2bacdd2f05b59de34da9b523dff8be42e5e38e818c82fdb0bae774387a72483836040516124e8929190918252602082015260400190565b60405180910390a25050505050565b600054610100900460ff1661251e5760405162461bcd60e51b81526004016107b3906132d9565b81516020928301208151919092012060fb9190915560fc55565b600054610100900460ff1661255f5760405162461bcd60e51b81526004016107b3906132d9565b81516125729060c9906020850190612c40565b5080516108549060ca906020840190612c40565b6000807f7fffffffffffffffffffffffffffffff5d576e7357a4501ddfe92f46681b20a08311156125bd575060009050600361266a565b8460ff16601b141580156125d557508460ff16601c14155b156125e6575060009050600461266a565b6040805160008082526020820180845289905260ff881692820192909252606081018690526080810185905260019060a0016020604051602081039080840390855afa15801561263a573d6000803e3d6000fd5b5050604051601f1901519150506001600160a01b0381166126635760006001925092505061266a565b9150600090505b94509492505050565b600081600481111561268757612687613490565b14156126905750565b60018160048111156126a4576126a4613490565b14156126f25760405162461bcd60e51b815260206004820152601860248201527f45434453413a20696e76616c6964207369676e6174757265000000000000000060448201526064016107b3565b600281600481111561270657612706613490565b14156127545760405162461bcd60e51b815260206004820152601f60248201527f45434453413a20696e76616c6964207369676e6174757265206c656e6774680060448201526064016107b3565b600381600481111561276857612768613490565b14156127c15760405162461bcd60e51b815260206004820152602260248201527f45434453413a20696e76616c6964207369676e6174757265202773272076616c604482015261756560f01b60648201526084016107b3565b60048160048111156127d5576127d5613490565b1415610b105760405162461bcd60e51b815260206004820152602260248201527f45434453413a20696e76616c6964207369676e6174757265202776272076616c604482015261756560f01b60648201526084016107b3565b610854838360016129b4565b612843816122d1565b6040516001600160a01b038216907fbc7cd75a20ee27fd9adebab32041f755214dbc6bffa90cc0225b39da2e5c2d3b90600090a250565b60606001600160a01b0383163b6128e25760405162461bcd60e51b815260206004820152602660248201527f416464726573733a2064656c65676174652063616c6c20746f206e6f6e2d636f6044820152651b9d1c9858dd60d21b60648201526084016107b3565b600080846001600160a01b0316846040516128fd919061308b565b600060405180830381855af49150503d8060008114612938576040519150601f19603f3d011682016040523d82523d6000602084013e61293d565b606091505b5091509150612965828260405180606001604052806027815260200161354960279139612a0f565b95945050505050565b6000610b3682846133bd565b60008061299c8561299761298d88611a84565b868863ffffffff16565b612a48565b91509150935093915050565b6000610b368284613372565b6001600160a01b0383166129d4576129d16101316129a88361297a565b50505b6001600160a01b0382166129f4576129f161013161296e8361297a565b50505b610854612a0084610cdc565b612a0984610cdc565b836123b8565b60608315612a1e575081610b36565b825115612a2e5782518084602001fd5b8160405162461bcd60e51b81526004016107b391906131bb565b8154600090819081612a5986611a84565b9050600082118015612a9757504386612a736001856133bd565b81548110612a8357612a836134a6565b60009182526020909120015463ffffffff16145b15612af757612aa585612b6e565b86612ab16001856133bd565b81548110612ac157612ac16134a6565b9060005260206000200160000160046101000a8154816001600160e01b0302191690836001600160e01b03160217905550612b65565b856000016040518060400160405280612b0f43612bdb565b63ffffffff168152602001612b2388612b6e565b6001600160e01b0390811690915282546001810184556000938452602093849020835194909301519091166401000000000263ffffffff909316929092179101555b95939450505050565b60006001600160e01b03821115612bd75760405162461bcd60e51b815260206004820152602760248201527f53616665436173743a2076616c756520646f65736e27742066697420696e20326044820152663234206269747360c81b60648201526084016107b3565b5090565b600063ffffffff821115612bd75760405162461bcd60e51b815260206004820152602660248201527f53616665436173743a2076616c756520646f65736e27742066697420696e203360448201526532206269747360d01b60648201526084016107b3565b828054612c4c90613400565b90600052602060002090601f016020900481019282612c6e5760008555612cb4565b82601f10612c8757805160ff1916838001178555612cb4565b82800160010185558215612cb4579182015b82811115612cb4578251825591602001919060010190612c99565b50612bd79291505b80821115612bd75760008155600101612cbc565b600067ffffffffffffffff80841115612ceb57612ceb6134bc565b604051601f8501601f19908116603f01168101908282118183101715612d1357612d136134bc565b81604052809350858152868686011115612d2c57600080fd5b858560208301376000602087830101525050509392505050565b80356001600160a01b0381168114612d5d57600080fd5b919050565b600082601f830112612d7357600080fd5b610b3683833560208501612cd0565b600060208284031215612d9457600080fd5b610b3682612d46565b60008060408385031215612db057600080fd5b612db983612d46565b9150612dc760208401612d46565b90509250929050565b600080600060608486031215612de557600080fd5b612dee84612d46565b9250612dfc60208501612d46565b9150604084013590509250925092565b60008060008060808587031215612e2257600080fd5b612e2b85612d46565b9350612e3960208601612d46565b925060408501359150606085013567ffffffffffffffff811115612e5c57600080fd5b612e6887828801612d62565b91505092959194509250565b60008060408385031215612e8757600080fd5b612e9083612d46565b915060208301358015158114612ea557600080fd5b809150509250929050565b60008060408385031215612ec357600080fd5b612ecc83612d46565b9150602083013567ffffffffffffffff811115612ee857600080fd5b612ef485828601612d62565b9150509250929050565b600080600060608486031215612f1357600080fd5b612f1c84612d46565b9250602084013567ffffffffffffffff811115612f3857600080fd5b8401601f81018613612f4957600080fd5b612f5886823560208401612cd0565b925050604084013590509250925092565b60008060408385031215612f7c57600080fd5b612f8583612d46565b946020939093013593505050565b60008060008060008060c08789031215612fac57600080fd5b612fb587612d46565b95506020870135945060408701359350606087013560ff81168114612fd957600080fd5b9598949750929560808101359460a0909101359350915050565b60006020828403121561300557600080fd5b5051919050565b60006020828403121561301e57600080fd5b8135610b36816134d2565b60006020828403121561303b57600080fd5b8151610b36816134d2565b60006020828403121561305857600080fd5b5035919050565b600081518084526130778160208601602086016133d4565b601f01601f19169290920160200192915050565b6000825161309d8184602087016133d4565b9190910192915050565b600083516130b98184602088016133d4565b8351908301906130cd8183602088016133d4565b01949350505050565b693d913730b6b2911d101160b11b815282516000906130fc81600a8501602088016133d4565b61202360f01b600a91840191820152835161311e81600c8401602088016133d4565b61227d60f01b600c9290910191820152600e01949350505050565b7f646174613a6170706c69636174696f6e2f6a736f6e3b6261736536342c00000081526000825161317181601d8501602087016133d4565b91909101601d0192915050565b6001600160a01b03858116825284166020820152604081018390526080606082018190526000906131b19083018461305f565b9695505050505050565b602081526000610b36602083018461305f565b60208082526032908201527f4552433732313a207472616e7366657220746f206e6f6e20455243373231526560408201527131b2b4bb32b91034b6b83632b6b2b73a32b960711b606082015260800190565b6020808252602c908201527f46756e6374696f6e206d7573742062652063616c6c6564207468726f7567682060408201526b19195b1959d85d1958d85b1b60a21b606082015260800190565b6020808252602c908201527f46756e6374696f6e206d7573742062652063616c6c6564207468726f7567682060408201526b6163746976652070726f787960a01b606082015260800190565b6020808252600790820152666e6f742064616f60c81b604082015260600190565b6020808252602b908201527f496e697469616c697a61626c653a20636f6e7472616374206973206e6f74206960408201526a6e697469616c697a696e6760a81b606082015260800190565b6020808252602e908201527f4552433732313a2063616c6c6572206973206e6f7420746f6b656e206f776e6560408201526d1c881b9bdc88185c1c1c9bdd995960921b606082015260800190565b6000821982111561338557613385613464565b500190565b6000826133995761339961347a565b500490565b60008160001904831182151516156133b8576133b8613464565b500290565b6000828210156133cf576133cf613464565b500390565b60005b838110156133ef5781810151838201526020016133d7565b83811115610fe45750506000910152565b600181811c9082168061341457607f821691505b60208210811415611d2a57634e487b7160e01b600052602260045260246000fd5b600060001982141561344957613449613464565b5060010190565b60008261345f5761345f61347a565b500690565b634e487b7160e01b600052601160045260246000fd5b634e487b7160e01b600052601260045260246000fd5b634e487b7160e01b600052602160045260246000fd5b634e487b7160e01b600052603260045260246000fd5b634e487b7160e01b600052604160045260246000fd5b6001600160e01b031981168114610b1057600080fdfe360894a13ba1a3210667c828492db98dca3e2076cc3735a920a3ca505d382bbc4142434445464748494a4b4c4d4e4f505152535455565758595a6162636465666768696a6b6c6d6e6f707172737475767778797a303132333435363738392b2f416464726573733a206c6f772d6c6576656c2064656c65676174652063616c6c206661696c6564a26469706673582212208661c79ff234a79e52d68e70640f2c92b403266b778faf8fb47b705715b278a564736f6c63430008070033",
  "devdoc": {
    "kind": "dev",
    "methods": {
      "DOMAIN_SEPARATOR()": {
        "details": "Returns the contract's {EIP712} domain separator."
      },
      "approve(address,uint256)": {
        "details": "See {IERC721-approve}."
      },
      "balanceOf(address)": {
        "details": "See {IERC721-balanceOf}."
      },
      "constructor": {
        "custom:oz-upgrades-unsafe-allow": "constructor"
      },
      "delegate(address)": {
        "details": "Delegates votes from the sender to `delegatee`."
      },
      "delegateBySig(address,uint256,uint256,uint8,bytes32,bytes32)": {
        "details": "Delegates votes from signer to `delegatee`."
      },
      "delegates(address)": {
        "details": "Returns the delegate that `account` has chosen."
      },
      "getApproved(uint256)": {
        "details": "See {IERC721-getApproved}."
      },
      "getPastTotalSupply(uint256)": {
        "details": "Returns the total supply of votes available at the end of a past block (`blockNumber`). NOTE: This value is the sum of all available votes, which is not necessarily the sum of all delegated votes. Votes that have not been delegated are still part of total supply, even though they would not participate in a vote. Requirements: - `blockNumber` must have been already mined"
      },
      "getPastVotes(address,uint256)": {
        "details": "Returns the amount of votes that `account` had at the end of a past block (`blockNumber`). Requirements: - `blockNumber` must have been already mined"
      },
      "getVotes(address)": {
        "details": "Returns the current amount of votes that `account` has."
      },
      "isApprovedForAll(address,address)": {
        "details": "See {IERC721-isApprovedForAll}."
      },
      "name()": {
        "details": "See {IERC721Metadata-name}."
      },
      "nonces(address)": {
        "details": "Returns an address nonce."
      },
      "ownerOf(uint256)": {
        "details": "See {IERC721-ownerOf}."
      },
      "proxiableUUID()": {
        "details": "Implementation of the ERC1822 {proxiableUUID} function. This returns the storage slot used by the implementation. It is used to validate that the this implementation remains valid after an upgrade. IMPORTANT: A proxy pointing at a proxiable contract should not be considered proxiable itself, because this risks bricking a proxy that upgrades to it, by delegating to itself until out of gas. Thus it is critical that this function revert if invoked through a proxy. This is guaranteed by the `notDelegated` modifier."
      },
      "safeTransferFrom(address,address,uint256)": {
        "details": "See {IERC721-safeTransferFrom}."
      },
      "safeTransferFrom(address,address,uint256,bytes)": {
        "details": "See {IERC721-safeTransferFrom}."
      },
      "setApprovalForAll(address,bool)": {
        "details": "See {IERC721-setApprovalForAll}."
      },
      "supportsInterface(bytes4)": {
        "details": "See {IERC165-supportsInterface}."
      },
      "symbol()": {
        "details": "See {IERC721Metadata-symbol}."
      },
      "tokenURI(uint256)": {
        "details": "See {IERC721Metadata-tokenURI}."
      },
      "transferFrom(address,address,uint256)": {
        "details": "See {IERC721-transferFrom}."
      },
      "upgradeTo(address)": {
        "details": "Upgrade the implementation of the proxy to `newImplementation`. Calls {_authorizeUpgrade}. Emits an {Upgraded} event."
      },
      "upgradeToAndCall(address,bytes)": {
        "details": "Upgrade the implementation of the proxy to `newImplementation`, and subsequently execute the function call encoded in `data`. Calls {_authorizeUpgrade}. Emits an {Upgraded} event."
      }
    },
    "version": 1
  },
  "userdoc": {
    "kind": "user",
    "methods": {},
    "version": 1
  },
  "storageLayout": {
    "storage": [
      {
        "astId": 3247,
        "contract": "contracts/Membership.sol:Membership",
        "label": "_initialized",
        "offset": 0,
        "slot": "0",
        "type": "t_uint8"
      },
      {
        "astId": 3250,
        "contract": "contracts/Membership.sol:Membership",
        "label": "_initializing",
        "offset": 1,
        "slot": "0",
        "type": "t_bool"
      },
      {
        "astId": 3229,
        "contract": "contracts/Membership.sol:Membership",
        "label": "__gap",
        "offset": 0,
        "slot": "1",
        "type": "t_array(t_uint256)50_storage"
      },
      {
        "astId": 3526,
        "contract": "contracts/Membership.sol:Membership",
        "label": "__gap",
        "offset": 0,
        "slot": "51",
        "type": "t_array(t_uint256)50_storage"
      },
      {
        "astId": 8642,
        "contract": "contracts/Membership.sol:Membership",
        "label": "__gap",
        "offset": 0,
        "slot": "101",
        "type": "t_array(t_uint256)50_storage"
      },
      {
        "astId": 9798,
        "contract": "contracts/Membership.sol:Membership",
        "label": "__gap",
        "offset": 0,
        "slot": "151",
        "type": "t_array(t_uint256)50_storage"
      },
      {
        "astId": 6983,
        "contract": "contracts/Membership.sol:Membership",
        "label": "_name",
        "offset": 0,
        "slot": "201",
        "type": "t_string_storage"
      },
      {
        "astId": 6985,
        "contract": "contracts/Membership.sol:Membership",
        "label": "_symbol",
        "offset": 0,
        "slot": "202",
        "type": "t_string_storage"
      },
      {
        "astId": 6989,
        "contract": "contracts/Membership.sol:Membership",
        "label": "_owners",
        "offset": 0,
        "slot": "203",
        "type": "t_mapping(t_uint256,t_address)"
      },
      {
        "astId": 6993,
        "contract": "contracts/Membership.sol:Membership",
        "label": "_balances",
        "offset": 0,
        "slot": "204",
        "type": "t_mapping(t_address,t_uint256)"
      },
      {
        "astId": 6997,
        "contract": "contracts/Membership.sol:Membership",
        "label": "_tokenApprovals",
        "offset": 0,
        "slot": "205",
        "type": "t_mapping(t_uint256,t_address)"
      },
      {
        "astId": 7003,
        "contract": "contracts/Membership.sol:Membership",
        "label": "_operatorApprovals",
        "offset": 0,
        "slot": "206",
        "type": "t_mapping(t_address,t_mapping(t_address,t_bool))"
      },
      {
        "astId": 7845,
        "contract": "contracts/Membership.sol:Membership",
        "label": "__gap",
        "offset": 0,
        "slot": "207",
        "type": "t_array(t_uint256)44_storage"
      },
      {
        "astId": 9614,
        "contract": "contracts/Membership.sol:Membership",
        "label": "_HASHED_NAME",
        "offset": 0,
        "slot": "251",
        "type": "t_bytes32"
      },
      {
        "astId": 9616,
        "contract": "contracts/Membership.sol:Membership",
        "label": "_HASHED_VERSION",
        "offset": 0,
        "slot": "252",
        "type": "t_bytes32"
      },
      {
        "astId": 9754,
        "contract": "contracts/Membership.sol:Membership",
        "label": "__gap",
        "offset": 0,
        "slot": "253",
        "type": "t_array(t_uint256)50_storage"
      },
      {
        "astId": 2423,
        "contract": "contracts/Membership.sol:Membership",
        "label": "_delegation",
        "offset": 0,
        "slot": "303",
        "type": "t_mapping(t_address,t_address)"
      },
      {
        "astId": 2428,
        "contract": "contracts/Membership.sol:Membership",
        "label": "_delegateCheckpoints",
        "offset": 0,
        "slot": "304",
        "type": "t_mapping(t_address,t_struct(History)8382_storage)"
      },
      {
        "astId": 2431,
        "contract": "contracts/Membership.sol:Membership",
        "label": "_totalCheckpoints",
        "offset": 0,
        "slot": "305",
        "type": "t_struct(History)8382_storage"
      },
      {
        "astId": 2436,
        "contract": "contracts/Membership.sol:Membership",
        "label": "_nonces",
        "offset": 0,
        "slot": "306",
        "type": "t_mapping(t_address,t_struct(Counter)8649_storage)"
      },
      {
        "astId": 2850,
        "contract": "contracts/Membership.sol:Membership",
        "label": "__gap",
        "offset": 0,
        "slot": "307",
        "type": "t_array(t_uint256)46_storage"
      },
      {
        "astId": 8076,
        "contract": "contracts/Membership.sol:Membership",
        "label": "__gap",
        "offset": 0,
        "slot": "353",
        "type": "t_array(t_uint256)50_storage"
      },
      {
        "astId": 25306,
        "contract": "contracts/Membership.sol:Membership",
        "label": "dao",
        "offset": 0,
        "slot": "403",
        "type": "t_address_payable"
      },
      {
        "astId": 25308,
        "contract": "contracts/Membership.sol:Membership",
        "label": "totalSupply",
        "offset": 0,
        "slot": "404",
        "type": "t_uint256"
      },
      {
        "astId": 25310,
        "contract": "contracts/Membership.sol:Membership",
        "label": "maxMemberLimit",
        "offset": 0,
        "slot": "405",
        "type": "t_uint256"
      },
      {
        "astId": 25313,
        "contract": "contracts/Membership.sol:Membership",
        "label": "_tokenIds",
        "offset": 0,
        "slot": "406",
        "type": "t_struct(Counter)17310_storage"
      },
      {
        "astId": 25317,
        "contract": "contracts/Membership.sol:Membership",
        "label": "isMember",
        "offset": 0,
        "slot": "407",
        "type": "t_mapping(t_address,t_bool)"
      },
      {
        "astId": 25321,
        "contract": "contracts/Membership.sol:Membership",
        "label": "wasMember",
        "offset": 0,
        "slot": "408",
        "type": "t_mapping(t_address,t_bool)"
      },
      {
        "astId": 25636,
        "contract": "contracts/Membership.sol:Membership",
        "label": "__gap",
        "offset": 0,
        "slot": "409",
        "type": "t_array(t_uint256)50_storage"
      }
    ],
    "types": {
      "t_address": {
        "encoding": "inplace",
        "label": "address",
        "numberOfBytes": "20"
      },
      "t_address_payable": {
        "encoding": "inplace",
        "label": "address payable",
        "numberOfBytes": "20"
      },
      "t_array(t_struct(Checkpoint)8377_storage)dyn_storage": {
        "base": "t_struct(Checkpoint)8377_storage",
        "encoding": "dynamic_array",
        "label": "struct CheckpointsUpgradeable.Checkpoint[]",
        "numberOfBytes": "32"
      },
      "t_array(t_uint256)44_storage": {
        "base": "t_uint256",
        "encoding": "inplace",
        "label": "uint256[44]",
        "numberOfBytes": "1408"
      },
      "t_array(t_uint256)46_storage": {
        "base": "t_uint256",
        "encoding": "inplace",
        "label": "uint256[46]",
        "numberOfBytes": "1472"
      },
      "t_array(t_uint256)50_storage": {
        "base": "t_uint256",
        "encoding": "inplace",
        "label": "uint256[50]",
        "numberOfBytes": "1600"
      },
      "t_bool": {
        "encoding": "inplace",
        "label": "bool",
        "numberOfBytes": "1"
      },
      "t_bytes32": {
        "encoding": "inplace",
        "label": "bytes32",
        "numberOfBytes": "32"
      },
      "t_mapping(t_address,t_address)": {
        "encoding": "mapping",
        "key": "t_address",
        "label": "mapping(address => address)",
        "numberOfBytes": "32",
        "value": "t_address"
      },
      "t_mapping(t_address,t_bool)": {
        "encoding": "mapping",
        "key": "t_address",
        "label": "mapping(address => bool)",
        "numberOfBytes": "32",
        "value": "t_bool"
      },
      "t_mapping(t_address,t_mapping(t_address,t_bool))": {
        "encoding": "mapping",
        "key": "t_address",
        "label": "mapping(address => mapping(address => bool))",
        "numberOfBytes": "32",
        "value": "t_mapping(t_address,t_bool)"
      },
      "t_mapping(t_address,t_struct(Counter)8649_storage)": {
        "encoding": "mapping",
        "key": "t_address",
        "label": "mapping(address => struct CountersUpgradeable.Counter)",
        "numberOfBytes": "32",
        "value": "t_struct(Counter)8649_storage"
      },
      "t_mapping(t_address,t_struct(History)8382_storage)": {
        "encoding": "mapping",
        "key": "t_address",
        "label": "mapping(address => struct CheckpointsUpgradeable.History)",
        "numberOfBytes": "32",
        "value": "t_struct(History)8382_storage"
      },
      "t_mapping(t_address,t_uint256)": {
        "encoding": "mapping",
        "key": "t_address",
        "label": "mapping(address => uint256)",
        "numberOfBytes": "32",
        "value": "t_uint256"
      },
      "t_mapping(t_uint256,t_address)": {
        "encoding": "mapping",
        "key": "t_uint256",
        "label": "mapping(uint256 => address)",
        "numberOfBytes": "32",
        "value": "t_address"
      },
      "t_string_storage": {
        "encoding": "bytes",
        "label": "string",
        "numberOfBytes": "32"
      },
      "t_struct(Checkpoint)8377_storage": {
        "encoding": "inplace",
        "label": "struct CheckpointsUpgradeable.Checkpoint",
        "members": [
          {
            "astId": 8374,
            "contract": "contracts/Membership.sol:Membership",
            "label": "_blockNumber",
            "offset": 0,
            "slot": "0",
            "type": "t_uint32"
          },
          {
            "astId": 8376,
            "contract": "contracts/Membership.sol:Membership",
            "label": "_value",
            "offset": 4,
            "slot": "0",
            "type": "t_uint224"
          }
        ],
        "numberOfBytes": "32"
      },
      "t_struct(Counter)17310_storage": {
        "encoding": "inplace",
        "label": "struct Counters.Counter",
        "members": [
          {
            "astId": 17309,
            "contract": "contracts/Membership.sol:Membership",
            "label": "_value",
            "offset": 0,
            "slot": "0",
            "type": "t_uint256"
          }
        ],
        "numberOfBytes": "32"
      },
      "t_struct(Counter)8649_storage": {
        "encoding": "inplace",
        "label": "struct CountersUpgradeable.Counter",
        "members": [
          {
            "astId": 8648,
            "contract": "contracts/Membership.sol:Membership",
            "label": "_value",
            "offset": 0,
            "slot": "0",
            "type": "t_uint256"
          }
        ],
        "numberOfBytes": "32"
      },
      "t_struct(History)8382_storage": {
        "encoding": "inplace",
        "label": "struct CheckpointsUpgradeable.History",
        "members": [
          {
            "astId": 8381,
            "contract": "contracts/Membership.sol:Membership",
            "label": "_checkpoints",
            "offset": 0,
            "slot": "0",
            "type": "t_array(t_struct(Checkpoint)8377_storage)dyn_storage"
          }
        ],
        "numberOfBytes": "32"
      },
      "t_uint224": {
        "encoding": "inplace",
        "label": "uint224",
        "numberOfBytes": "28"
      },
      "t_uint256": {
        "encoding": "inplace",
        "label": "uint256",
        "numberOfBytes": "32"
      },
      "t_uint32": {
        "encoding": "inplace",
        "label": "uint32",
        "numberOfBytes": "4"
      },
      "t_uint8": {
        "encoding": "inplace",
        "label": "uint8",
        "numberOfBytes": "1"
      }
    }
  }
}