{
  "address": "0xD9Ac3e24043B97637763c834E7E857A9Ca2C4De5",
  "abi": [
    {
      "inputs": [],
      "stateMutability": "nonpayable",
      "type": "constructor"
    },
    {
      "anonymous": false,
      "inputs": [
        {
          "indexed": false,
          "internalType": "address",
          "name": "target",
          "type": "address"
        }
      ],
      "name": "AllowAddress",
      "type": "event"
    },
    {
      "anonymous": false,
      "inputs": [
        {
          "indexed": false,
          "internalType": "uint256",
          "name": "amount",
          "type": "uint256"
        }
      ],
      "name": "AllowAmount",
      "type": "event"
    },
    {
      "anonymous": false,
      "inputs": [
        {
          "indexed": true,
          "internalType": "uint256",
          "name": "teamId",
          "type": "uint256"
        }
      ],
      "name": "AllowTeam",
      "type": "event"
    },
    {
      "anonymous": false,
      "inputs": [
        {
          "indexed": false,
          "internalType": "address",
          "name": "token",
          "type": "address"
        }
      ],
      "name": "AllowToken",
      "type": "event"
    },
    {
      "anonymous": false,
      "inputs": [
        {
          "indexed": true,
          "internalType": "uint256",
          "name": "id",
          "type": "uint256"
        },
        {
          "indexed": false,
          "internalType": "address",
          "name": "approver",
          "type": "address"
        },
        {
          "indexed": false,
          "internalType": "string",
          "name": "comment",
          "type": "string"
        }
      ],
      "name": "ApproveTransaction",
      "type": "event"
    },
    {
      "anonymous": false,
      "inputs": [
        {
          "indexed": true,
          "internalType": "uint256",
          "name": "id",
          "type": "uint256"
        },
        {
          "indexed": false,
          "internalType": "bytes[]",
          "name": "data",
          "type": "bytes[]"
        },
        {
          "indexed": false,
          "internalType": "uint256",
          "name": "deadline",
          "type": "uint256"
        },
        {
          "indexed": false,
          "internalType": "enum CommonBudgetApproval.Status",
          "name": "status",
          "type": "uint8"
        },
        {
          "indexed": false,
          "internalType": "string",
          "name": "comment",
          "type": "string"
        },
        {
          "indexed": false,
          "internalType": "address",
          "name": "creator",
          "type": "address"
        }
      ],
      "name": "CreateTransaction",
      "type": "event"
    },
    {
      "anonymous": false,
      "inputs": [
        {
          "indexed": true,
          "internalType": "uint256",
          "name": "id",
          "type": "uint256"
        },
        {
          "indexed": false,
          "internalType": "bytes[]",
          "name": "data",
          "type": "bytes[]"
        },
        {
          "indexed": false,
          "internalType": "address",
          "name": "_executor",
          "type": "address"
        }
      ],
      "name": "ExecuteTransaction",
      "type": "event"
    },
    {
      "anonymous": false,
      "inputs": [
        {
          "indexed": true,
          "internalType": "uint256",
          "name": "id",
          "type": "uint256"
        },
        {
          "indexed": true,
          "internalType": "address",
          "name": "executor",
          "type": "address"
        },
        {
          "indexed": true,
          "internalType": "address",
          "name": "toAddress",
          "type": "address"
        },
        {
          "indexed": false,
          "internalType": "address",
          "name": "token",
          "type": "address"
        },
        {
          "indexed": false,
          "internalType": "uint256",
          "name": "amount",
          "type": "uint256"
        }
      ],
      "name": "ExecuteTransferLiquidERC20Transaction",
      "type": "event"
    },
    {
      "anonymous": false,
      "inputs": [
        {
          "indexed": false,
          "internalType": "uint8",
          "name": "version",
          "type": "uint8"
        }
      ],
      "name": "Initialized",
      "type": "event"
    },
    {
      "anonymous": false,
      "inputs": [
        {
          "indexed": true,
          "internalType": "uint256",
          "name": "id",
          "type": "uint256"
        }
      ],
      "name": "RevokeTransaction",
      "type": "event"
    },
    {
      "anonymous": false,
      "inputs": [
        {
          "indexed": false,
          "internalType": "address",
          "name": "approver",
          "type": "address"
        }
      ],
      "name": "SetApprover",
      "type": "event"
    },
    {
      "inputs": [
        {
          "internalType": "address",
          "name": "",
          "type": "address"
        }
      ],
      "name": "addressesMapping",
      "outputs": [
        {
          "internalType": "bool",
          "name": "",
          "type": "bool"
        }
      ],
      "stateMutability": "view",
      "type": "function"
    },
    {
      "inputs": [],
      "name": "afterInitialized",
      "outputs": [],
      "stateMutability": "nonpayable",
      "type": "function"
    },
    {
      "inputs": [],
      "name": "allowAllAddresses",
      "outputs": [
        {
          "internalType": "bool",
          "name": "",
          "type": "bool"
        }
      ],
      "stateMutability": "view",
      "type": "function"
    },
    {
      "inputs": [],
      "name": "allowAnyAmount",
      "outputs": [
        {
          "internalType": "bool",
          "name": "",
          "type": "bool"
        }
      ],
      "stateMutability": "view",
      "type": "function"
    },
    {
      "inputs": [],
      "name": "allowUnlimitedUsageCount",
      "outputs": [
        {
          "internalType": "bool",
          "name": "",
          "type": "bool"
        }
      ],
      "stateMutability": "view",
      "type": "function"
    },
    {
      "inputs": [
        {
          "internalType": "uint256",
          "name": "id",
          "type": "uint256"
        },
        {
          "internalType": "string",
          "name": "comment",
          "type": "string"
        }
      ],
      "name": "approveTransaction",
      "outputs": [],
      "stateMutability": "nonpayable",
      "type": "function"
    },
    {
      "inputs": [],
      "name": "approverTeamId",
      "outputs": [
        {
          "internalType": "uint256",
          "name": "",
          "type": "uint256"
        }
      ],
      "stateMutability": "view",
      "type": "function"
    },
    {
      "inputs": [
        {
          "internalType": "address",
          "name": "eoa",
          "type": "address"
        }
      ],
      "name": "approversMapping",
      "outputs": [
        {
          "internalType": "bool",
          "name": "",
          "type": "bool"
        }
      ],
      "stateMutability": "view",
      "type": "function"
    },
    {
      "inputs": [
        {
          "internalType": "address",
          "name": "asset",
          "type": "address"
        },
        {
          "internalType": "uint256",
          "name": "amount",
          "type": "uint256"
        }
      ],
      "name": "assetBaseCurrencyPrice",
      "outputs": [
        {
          "internalType": "uint256",
          "name": "",
          "type": "uint256"
        }
      ],
      "stateMutability": "view",
      "type": "function"
    },
    {
      "inputs": [
        {
          "internalType": "address",
          "name": "asset",
          "type": "address"
        },
        {
          "internalType": "address",
          "name": "base",
          "type": "address"
        },
        {
          "internalType": "uint256",
          "name": "amount",
          "type": "uint256"
        }
      ],
      "name": "assetPrice",
      "outputs": [
        {
          "internalType": "uint256",
          "name": "",
          "type": "uint256"
        }
      ],
      "stateMutability": "view",
      "type": "function"
    },
    {
      "inputs": [],
      "name": "baseCurrency",
      "outputs": [
        {
          "internalType": "address",
          "name": "",
          "type": "address"
        }
      ],
      "stateMutability": "view",
      "type": "function"
    },
    {
      "inputs": [],
      "name": "baseCurrencyDecimals",
      "outputs": [
        {
          "internalType": "uint8",
          "name": "",
          "type": "uint8"
        }
      ],
      "stateMutability": "view",
      "type": "function"
    },
    {
      "inputs": [
        {
          "internalType": "address",
          "name": "asset",
          "type": "address"
        }
      ],
      "name": "canResolvePrice",
      "outputs": [
        {
          "internalType": "bool",
          "name": "",
          "type": "bool"
        }
      ],
      "stateMutability": "view",
      "type": "function"
    },
    {
      "inputs": [
        {
          "internalType": "bytes[]",
          "name": "_data",
          "type": "bytes[]"
        },
        {
          "internalType": "uint32",
          "name": "_deadline",
          "type": "uint32"
        },
        {
          "internalType": "bool",
          "name": "_isExecute",
          "type": "bool"
        },
        {
          "internalType": "string",
          "name": "comment",
          "type": "string"
        }
      ],
      "name": "createTransaction",
      "outputs": [
        {
          "internalType": "uint256",
          "name": "",
          "type": "uint256"
        }
      ],
      "stateMutability": "payable",
      "type": "function"
    },
    {
      "inputs": [],
      "name": "endTime",
      "outputs": [
        {
          "internalType": "uint256",
          "name": "",
          "type": "uint256"
        }
      ],
      "stateMutability": "view",
      "type": "function"
    },
    {
      "inputs": [],
      "name": "executeParams",
      "outputs": [
        {
          "internalType": "string[]",
          "name": "",
          "type": "string[]"
        }
      ],
      "stateMutability": "pure",
      "type": "function"
    },
    {
      "inputs": [
        {
          "internalType": "uint256",
          "name": "id",
          "type": "uint256"
        }
      ],
      "name": "executeTransaction",
      "outputs": [],
      "stateMutability": "payable",
      "type": "function"
    },
    {
      "inputs": [],
      "name": "executee",
      "outputs": [
        {
          "internalType": "address",
          "name": "",
          "type": "address"
        }
      ],
      "stateMutability": "view",
      "type": "function"
    },
    {
      "inputs": [],
      "name": "executor",
      "outputs": [
        {
          "internalType": "address",
          "name": "",
          "type": "address"
        }
      ],
      "stateMutability": "view",
      "type": "function"
    },
    {
      "inputs": [],
      "name": "executorTeamId",
      "outputs": [
        {
          "internalType": "uint256",
          "name": "",
          "type": "uint256"
        }
      ],
      "stateMutability": "view",
      "type": "function"
    },
    {
      "inputs": [
        {
          "components": [
            {
              "internalType": "address",
              "name": "executor",
              "type": "address"
            },
            {
              "internalType": "uint256",
              "name": "executorTeamId",
              "type": "uint256"
            },
            {
              "internalType": "address[]",
              "name": "approvers",
              "type": "address[]"
            },
            {
              "internalType": "uint256",
              "name": "approverTeamId",
              "type": "uint256"
            },
            {
              "internalType": "uint256",
              "name": "minApproval",
              "type": "uint256"
            },
            {
              "internalType": "string",
              "name": "text",
              "type": "string"
            },
            {
              "internalType": "string",
              "name": "transactionType",
              "type": "string"
            },
            {
              "internalType": "uint256",
              "name": "startTime",
              "type": "uint256"
            },
            {
              "internalType": "uint256",
              "name": "endTime",
              "type": "uint256"
            },
            {
              "internalType": "bool",
              "name": "allowUnlimitedUsageCount",
              "type": "bool"
            },
            {
              "internalType": "uint256",
              "name": "usageCount",
              "type": "uint256"
            },
            {
              "internalType": "address",
              "name": "team",
              "type": "address"
            }
          ],
          "internalType": "struct CommonBudgetApproval.InitializeParams",
          "name": "params",
          "type": "tuple"
        },
        {
          "internalType": "bool",
          "name": "_allowAllAddresses",
          "type": "bool"
        },
        {
          "internalType": "address[]",
          "name": "_toAddresses",
          "type": "address[]"
        },
        {
          "internalType": "address[]",
          "name": "_tokens",
          "type": "address[]"
        },
        {
          "internalType": "bool",
          "name": "_allowAnyAmount",
          "type": "bool"
        },
        {
          "internalType": "uint256",
          "name": "_totalAmount",
          "type": "uint256"
        },
        {
          "internalType": "address",
          "name": "_baseCurrency",
          "type": "address"
        },
        {
          "internalType": "uint256[]",
          "name": "_toTeamIds",
          "type": "uint256[]"
        }
      ],
      "name": "initialize",
      "outputs": [],
      "stateMutability": "nonpayable",
      "type": "function"
    },
    {
      "inputs": [],
      "name": "minApproval",
      "outputs": [
        {
          "internalType": "uint256",
          "name": "",
          "type": "uint256"
        }
      ],
      "stateMutability": "view",
      "type": "function"
    },
    {
      "inputs": [],
      "name": "name",
      "outputs": [
        {
          "internalType": "string",
          "name": "",
          "type": "string"
        }
      ],
      "stateMutability": "view",
      "type": "function"
    },
    {
      "inputs": [
        {
          "internalType": "uint256",
          "name": "id",
          "type": "uint256"
        }
      ],
      "name": "revokeTransaction",
      "outputs": [],
      "stateMutability": "nonpayable",
      "type": "function"
    },
    {
      "inputs": [],
      "name": "startTime",
      "outputs": [
        {
          "internalType": "uint256",
          "name": "",
          "type": "uint256"
        }
      ],
      "stateMutability": "view",
      "type": "function"
    },
    {
      "inputs": [],
      "name": "team",
      "outputs": [
        {
          "internalType": "address",
          "name": "",
          "type": "address"
        }
      ],
      "stateMutability": "view",
      "type": "function"
    },
    {
      "inputs": [],
      "name": "text",
      "outputs": [
        {
          "internalType": "string",
          "name": "",
          "type": "string"
        }
      ],
      "stateMutability": "view",
      "type": "function"
    },
    {
      "inputs": [
        {
          "internalType": "uint256",
          "name": "",
          "type": "uint256"
        }
      ],
      "name": "toTeamIds",
      "outputs": [
        {
          "internalType": "uint256",
          "name": "",
          "type": "uint256"
        }
      ],
      "stateMutability": "view",
      "type": "function"
    },
    {
      "inputs": [
        {
          "internalType": "uint256",
          "name": "",
          "type": "uint256"
        }
      ],
      "name": "toTeamIdsMapping",
      "outputs": [
        {
          "internalType": "bool",
          "name": "",
          "type": "bool"
        }
      ],
      "stateMutability": "view",
      "type": "function"
    },
    {
      "inputs": [],
      "name": "toTeamsLength",
      "outputs": [
        {
          "internalType": "uint256",
          "name": "",
          "type": "uint256"
        }
      ],
      "stateMutability": "view",
      "type": "function"
    },
    {
      "inputs": [
        {
          "internalType": "uint256",
          "name": "",
          "type": "uint256"
        }
      ],
      "name": "tokens",
      "outputs": [
        {
          "internalType": "address",
          "name": "",
          "type": "address"
        }
      ],
      "stateMutability": "view",
      "type": "function"
    },
    {
      "inputs": [],
      "name": "tokensLength",
      "outputs": [
        {
          "internalType": "uint256",
          "name": "",
          "type": "uint256"
        }
      ],
      "stateMutability": "view",
      "type": "function"
    },
    {
      "inputs": [
        {
          "internalType": "address",
          "name": "",
          "type": "address"
        }
      ],
      "name": "tokensMapping",
      "outputs": [
        {
          "internalType": "bool",
          "name": "",
          "type": "bool"
        }
      ],
      "stateMutability": "view",
      "type": "function"
    },
    {
      "inputs": [],
      "name": "totalAmount",
      "outputs": [
        {
          "internalType": "uint256",
          "name": "",
          "type": "uint256"
        }
      ],
      "stateMutability": "view",
      "type": "function"
    },
    {
      "inputs": [],
      "name": "transactionType",
      "outputs": [
        {
          "internalType": "string",
          "name": "",
          "type": "string"
        }
      ],
      "stateMutability": "view",
      "type": "function"
    },
    {
      "inputs": [
        {
          "internalType": "uint256",
          "name": "",
          "type": "uint256"
        }
      ],
      "name": "transactions",
      "outputs": [
        {
          "internalType": "uint256",
          "name": "id",
          "type": "uint256"
        },
        {
          "internalType": "enum CommonBudgetApproval.Status",
          "name": "status",
          "type": "uint8"
        },
        {
          "internalType": "uint32",
          "name": "deadline",
          "type": "uint32"
        },
        {
          "internalType": "bool",
          "name": "isExist",
          "type": "bool"
        },
        {
          "internalType": "uint256",
          "name": "approvedCount",
          "type": "uint256"
        }
      ],
      "stateMutability": "view",
      "type": "function"
    },
    {
      "inputs": [],
      "name": "usageCount",
      "outputs": [
        {
          "internalType": "uint256",
          "name": "",
          "type": "uint256"
        }
      ],
      "stateMutability": "view",
      "type": "function"
    }
  ],
  "transactionHash": "0xcc6b18432440a18d8afc670c6548fc2e647fcace7b7348c83239c842148b136b",
  "args": [],
  "numDeployments": 3,
  "solcInputHash": "3f664844ced2cb498657d1fff7b71bf7",
  "bytecode": "0x60806040523480156200001157600080fd5b506200001c62000036565b6200002662000036565b6200003062000036565b620000f8565b600054610100900460ff1615620000a35760405162461bcd60e51b815260206004820152602760248201527f496e697469616c697a61626c653a20636f6e747261637420697320696e697469604482015266616c697a696e6760c81b606482015260840160405180910390fd5b60005460ff9081161015620000f6576000805460ff191660ff9081179091556040519081527f7f26b83ff96e1f2b6a682f133852f6798a09c465da95921460cefb38474024989060200160405180910390a15b565b6133b480620001086000396000f3fe60806040526004361061021a5760003560e01c80638501543711610123578063c7ee6712116100ab578063de755e2f1161006f578063de755e2f14610649578063e019c23c1461065e578063e52b4ab21461067e578063ee22610b146106ae578063f5c03852146106c157600080fd5b8063c7ee6712146105d5578063cf26fec6146105f5578063d92fc67b1461060a578063d96c91961461061f578063dd7a07041461063457600080fd5b806397c85a61116100f257806397c85a61146104f15780639ace38c214610511578063b617b3ee1461057d578063bc9c5e9014610597578063c34c08e5146105b757600080fd5b8063850154371461046b57806385f2aef2146104855780638d1c5c29146104a357806392a85fde146104d357600080fd5b806350bd881f116101a65780636bdebe5e116101755780636bdebe5e146103c6578063735631ad146103ff57806378e97925146104215780637cd47d93146104365780637cddb6c31461044b57600080fd5b806350bd881f146103525780635ad325021461036757806360d8bb221461037f57806363d727dc1461039f57600080fd5b80631f1bd692116101ed5780631f1bd6921461028e5780633197cbb6146102a357806331a7bdd9146102b85780633d70015a146102da5780634f64b2be1461031a57600080fd5b806303ff90f61461021f57806306fdde031461024357806314b893f9146102655780631a39d8ef14610278575b600080fd5b34801561022b57600080fd5b506008545b6040519081526020015b60405180910390f35b34801561024f57600080fd5b506102586106df565b60405161023a9190613034565b610230610273366004612995565b6106fb565b34801561028457600080fd5b5061023060495481565b34801561029a57600080fd5b5061025861084a565b3480156102af57600080fd5b50600e54610230565b3480156102c457600080fd5b506102cd6108dc565b60405161023a9190612fd2565b3480156102e657600080fd5b5061030a6102f53660046128ab565b60476020526000908152604090205460ff1681565b604051901515815260200161023a565b34801561032657600080fd5b5061033a610335366004612d0c565b6109dd565b6040516001600160a01b03909116815260200161023a565b34801561035e57600080fd5b50600c54610230565b34801561037357600080fd5b50600b5460ff1661030a565b34801561038b57600080fd5b5061023061039a366004612969565b610a07565b3480156103ab57600080fd5b506103b4610b74565b60405160ff909116815260200161023a565b3480156103d257600080fd5b5061030a6103e13660046128ab565b6001600160a01b031660009081526006602052604090205460ff1690565b34801561040b57600080fd5b5061041f61041a366004612d0c565b610c35565b005b34801561042d57600080fd5b50600d54610230565b34801561044257600080fd5b50610258610d77565b34801561045757600080fd5b50610230610466366004612d0c565b610d86565b34801561047757600080fd5b5060485461030a9060ff1681565b34801561049157600080fd5b50600f546001600160a01b031661033a565b3480156104af57600080fd5b5061030a6104be3660046128ab565b60456020526000908152604090205460ff1681565b3480156104df57600080fd5b506010546001600160a01b031661033a565b3480156104fd57600080fd5b5061041f61050c366004612d3e565b610da7565b34801561051d57600080fd5b5061056c61052c366004612d0c565b600260208190526000918252604090912080549181015460039091015460ff8083169263ffffffff61010082041692650100000000009091049091169085565b60405161023a9594939291906130d4565b34801561058957600080fd5b5060445461030a9060ff1681565b3480156105a357600080fd5b5061030a6105b23660046128ab565b61101e565b3480156105c357600080fd5b506003546001600160a01b031661033a565b3480156105e157600080fd5b5061041f6105f0366004612c23565b6110b0565b34801561060157600080fd5b5061041f611339565b34801561061657600080fd5b50604654610230565b34801561062b57600080fd5b50600754610230565b34801561064057600080fd5b50604a54610230565b34801561065557600080fd5b50600454610230565b34801561066a57600080fd5b50610230610679366004612928565b6113a0565b34801561068a57600080fd5b5061030a610699366004612d0c565b604b6020526000908152604090205460ff1681565b61041f6106bc366004612d0c565b611506565b3480156106cd57600080fd5b506005546001600160a01b031661033a565b60405180606001604052806025815260200161335a6025913981565b6000610706336118da565b61072b5760405162461bcd60e51b815260040161072290613092565b60405180910390fd5b610739600180546001019055565b600061074460015490565b6000818152600260209081526040909120828155895192935091610770916001840191908b0190612584565b506002810180546501000000000065ffffffffff001990911661010063ffffffff8b160265ff00000000001916171790556008546107ca57600082815260026020819052604090912001805460ff191660011790556107e5565b600082815260026020819052604090912001805460ff191690555b600281015460405183917f8a5186dbaf6f344b2837e11834be94edebb633f05034f422c6b1fe1595b4d0cc91610828918c918c9160ff16908b908b903390612f77565b60405180910390a2851561083f5761083f82611506565b509695505050505050565b6060600980546108599061328e565b80601f01602080910402602001604051908101604052809291908181526020018280546108859061328e565b80156108d25780601f106108a7576101008083540402835291602001916108d2565b820191906000526020600020905b8154815290600101906020018083116108b557829003601f168201915b5050505050905090565b6040805160038082526080820190925260609160009190816020015b60608152602001906001900390816108f85790505090506040518060400160405280600d81526020016c30b2323932b9b9903a37b5b2b760991b815250816000815181106109485761094861330a565b60200260200101819052506040518060400160405280600a8152602001696164647265737320746f60b01b815250816001815181106109895761098961330a565b60200260200101819052506040518060400160405280600d81526020016c75696e743235362076616c756560981b815250816002815181106109cd576109cd61330a565b6020908102919091010152919050565b604681815481106109ed57600080fd5b6000918252602090912001546001600160a01b0316905081565b60115460105460405163ce58da3360e01b81526001600160a01b0385811660048301529182166024820152600092919091169063ce58da339060440160206040518083038186803b158015610a5b57600080fd5b505afa158015610a6f573d6000803e3d6000fd5b505050506040513d601f19601f82011682018060405250810190610a939190612b8f565b610adf5760405162461bcd60e51b815260206004820152601c60248201527f4163636f756e742053797374656d206e6f7420737570706f72746564000000006044820152606401610722565b601154601054604051633806708f60e21b81526001600160a01b03868116600483015291821660248201526044810185905291169063e019c23c9060640160206040518083038186803b158015610b3557600080fd5b505afa158015610b49573d6000803e3d6000fd5b505050506040513d601f19601f82011682018060405250810190610b6d9190612d25565b9392505050565b600073eeeeeeeeeeeeeeeeeeeeeeeeeeeeeeeeeeeeeeee610b9d6010546001600160a01b031690565b6001600160a01b03161415610bb25750601290565b6010546001600160a01b03166001600160a01b031663313ce5676040518163ffffffff1660e01b815260040160206040518083038186803b158015610bf657600080fd5b505afa925050508015610c26575060408051601f3d908101601f19168201909252610c2391810190612d8a565b60015b610c305750600090565b919050565b610c3e336118da565b610c5a5760405162461bcd60e51b815260040161072290613092565b80610c6460015490565b1015610caa5760405162461bcd60e51b8152602060048201526015602482015274125b9d985a5b1908151c985b9cd858dd1a5bdb9259605a1b6044820152606401610722565b60026000828152600260208190526040909120015460ff166003811115610cd357610cd36132f4565b1415610d2f5760405162461bcd60e51b815260206004820152602560248201527f5472616e73616374696f6e20686173206265656e20636f6d706c65746564206260448201526465666f726560d81b6064820152608401610722565b6000818152600260208190526040808320909101805460ff191660031790555182917f92a917be073b79ab50f9d997e9514a5d101e052ce04228014947e7883a7c034691a250565b6060600a80546108599061328e565b604a8181548110610d9657600080fd5b600091825260209091200154905081565b610db0336119b6565b610e075760405162461bcd60e51b815260206004820152602260248201527f417070726f766572206e6f742077686974656c697374656420696e2062756467604482015261195d60f21b6064820152608401610722565b82610e1160015490565b1015610e575760405162461bcd60e51b8152602060048201526015602482015274125b9d985a5b1908151c985b9cd858dd1a5bdb9259605a1b6044820152606401610722565b600083815260026020819052604082209081015460039091015460ff9091169190610e83906001613218565b90506000826003811115610e9957610e996132f4565b1480610eb657506001826003811115610eb457610eb46132f4565b145b610f025760405162461bcd60e51b815260206004820152601d60248201527f556e6578706563746564207472616e73616374696f6e207374617475730000006044820152606401610722565b600085815260026020908152604080832033845260040190915290205460ff1615610f7b5760405162461bcd60e51b8152602060048201526024808201527f5472616e73616374696f6e20686173206265656e20617070726f766564206265604482015263666f726560e01b6064820152608401610722565b6000858152600260208181526040808420338552600481018352908420805460ff191660011790559288905252600301819055610fb760085490565b8110610fdb57600085815260026020819052604090912001805460ff191660011790555b847f3399030f87676a97e30e211a48f9c46e2ff806d0b4cedf7100782f08c52902c933868660405161100f93929190612ead565b60405180910390a25050505050565b60115460105460405163ce58da3360e01b81526001600160a01b0384811660048301529182166024820152600092919091169063ce58da339060440160206040518083038186803b15801561107257600080fd5b505afa158015611086573d6000803e3d6000fd5b505050506040513d601f19601f820116820180604052508101906110aa9190612b8f565b92915050565b600054610100900460ff16158080156110d05750600054600160ff909116105b806110ea5750303b1580156110ea575060005460ff166001145b61114d5760405162461bcd60e51b815260206004820152602e60248201527f496e697469616c697a61626c653a20636f6e747261637420697320616c72656160448201526d191e481a5b9a5d1a585b1a5e995960921b6064820152608401610722565b6000805460ff191660011790558015611170576000805461ff0019166101001790555b61117989611a03565b6044805460ff191689151517905560005b87518110156111c7576111b58882815181106111a8576111a861330a565b6020026020010151611c8d565b806111bf816132c3565b91505061118a565b50611253836111de6005546001600160a01b031690565b6001600160a01b031663ee0eb19b6040518163ffffffff1660e01b815260040160206040518083038186803b15801561121657600080fd5b505afa15801561122a573d6000803e3d6000fd5b505050506040513d601f19601f8201168201806040525081019061124e91906128c8565b611d63565b60005b8651811015611293576112818782815181106112745761127461330a565b6020026020010151611db8565b8061128b816132c3565b915050611256565b5060005b82518110156112d4576112c28382815181106112b5576112b561330a565b6020026020010151611f29565b806112cc816132c3565b915050611297565b506048805460ff19168615151790556049849055801561132e576000805461ff0019169055604051600181527f7f26b83ff96e1f2b6a682f133852f6798a09c465da95921460cefb38474024989060200160405180910390a15b505050505050505050565b6005546001600160a01b0316331461139e5760405162461bcd60e51b815260206004820152602260248201527f4578656375746565206e6f742077686974656c697374656420696e2062756467604482015261195d60f21b6064820152608401610722565b565b60115460405163ce58da3360e01b81526001600160a01b0385811660048301528481166024830152600092169063ce58da339060440160206040518083038186803b1580156113ee57600080fd5b505afa158015611402573d6000803e3d6000fd5b505050506040513d601f19601f820116820180604052508101906114269190612b8f565b6114725760405162461bcd60e51b815260206004820152601c60248201527f4163636f756e742053797374656d206e6f7420737570706f72746564000000006044820152606401610722565b601154604051633806708f60e21b81526001600160a01b0386811660048301528581166024830152604482018590529091169063e019c23c9060640160206040518083038186803b1580156114c657600080fd5b505afa1580156114da573d6000803e3d6000fd5b505050506040513d601f19601f820116820180604052508101906114fe9190612d25565b949350505050565b806001806000838152600260208190526040909120015460ff166003811115611531576115316132f4565b1461157e5760405162461bcd60e51b815260206004820152601a60248201527f5472616e73616374696f6e2073746174757320696e76616c69640000000000006044820152606401610722565b600083815260026020819052604090912001548390610100900463ffffffff164211156115e35760405162461bcd60e51b8152602060048201526013602482015272151c985b9cd858dd1a5bdb88195e1c1a5c9959606a1b6044820152606401610722565b600d544210156116355760405162461bcd60e51b815260206004820152601f60248201527f42756467657420757361676520706572696f64206e6f742073746172746564006044820152606401610722565b6000611640600e5490565b90508015611697578042106116975760405162461bcd60e51b815260206004820152601d60248201527f42756467657420757361676520706572696f642068617320656e6465640000006044820152606401610722565b6116a0336118da565b6116bc5760405162461bcd60e51b815260040161072290613092565b60006116ca600b5460ff1690565b905060006116d7600c5490565b9050600060026000898152602001908152602001600020600101805480602002602001604051908101604052809291908181526020016000905b828210156117bd5783829060005260206000200180546117309061328e565b80601f016020809104026020016040519081016040528092919081815260200182805461175c9061328e565b80156117a95780601f1061177e576101008083540402835291602001916117a9565b820191906000526020600020905b81548152906001019060200180831161178c57829003601f168201915b505050505081526020019060010190611711565b50505050905060005b815181101561186f5783806117db5750600083115b6118275760405162461bcd60e51b815260206004820152601b60248201527f457863656564656420627564676574207573616765206c696d697400000000006044820152606401610722565b8361183a578261183681613277565b9350505b61185d898383815181106118505761185061330a565b602002602001015161200a565b80611867816132c3565b9150506117c6565b50600c82905560008881526002602081905260409091208101805460ff19166001830217905550877f9060adf413860c5ab6e376e0aa4269e49a13f0853edb1583fce8129d4c756d7982336040516118c8929190612f4d565b60405180910390a25050505050505050565b60006118ee6003546001600160a01b031690565b6001600160a01b0316826001600160a01b031614806110aa5750600061191c600f546001600160a01b031690565b6001600160a01b031662fdd58e8461193360045490565b6040516001600160e01b031960e085901b1681526001600160a01b039092166004830152602482015260440160206040518083038186803b15801561197757600080fd5b505afa15801561198b573d6000803e3d6000fd5b505050506040513d601f19601f820116820180604052508101906119af9190612d25565b1192915050565b6001600160a01b03811660009081526006602052604081205460ff16806110aa575060006119ec600f546001600160a01b031690565b6001600160a01b031662fdd58e8461193360075490565b600054610100900460ff16611a2a5760405162461bcd60e51b815260040161072290613047565b600081606001351180611a4f5750611a45604082018261310a565b9050816080013511155b611a935760405162461bcd60e51b8152602060048201526015602482015274125b9d985b1a5908185c1c1c9bdd995c881b1a5cdd605a1b6044820152606401610722565b600580546001600160a01b03191633179055611ab260208201826128ab565b600380546001600160a01b0319166001600160a01b0392909216919091179055611adf60a0820182613154565b611aeb916009916125e1565b50611af960c0820182613154565b611b0591600a916125e1565b50608081013560085560e0810135600d55610100810135600e55611b3161014082016101208301612b72565b600b805460ff1916911515919091179055610140810135600c55611b5d610180820161016083016128ab565b600f80546001600160a01b0319166001600160a01b03929092169190911790556020810135600455606081013560075560005b611b9d604083018361310a565b9050811015611c8957600160066000611bb9604086018661310a565b85818110611bc957611bc961330a565b9050602002016020810190611bde91906128ab565b6001600160a01b0316815260208101919091526040908101600020805460ff1916921515929092179091557f4664777dbfbcb27de0f602e1da5d5a259992cd7edf5b29192929c96e8fd50def90611c379084018461310a565b83818110611c4757611c4761330a565b9050602002016020810190611c5c91906128ab565b6040516001600160a01b03909116815260200160405180910390a180611c81816132c3565b915050611b90565b5050565b6001600160a01b03811660009081526045602052604090205460ff1615611d085760405162461bcd60e51b815260206004820152602960248201527f4475706c696361746564206164647265737320696e20746172676574206164646044820152681c995cdcc81b1a5cdd60ba1b6064820152608401610722565b6001600160a01b038116600081815260456020908152604091829020805460ff1916600117905590519182527ff11283a265d7a5f95fbc149dc65464f1f5be0151aac387fd76a938e1e558460491015b60405180910390a150565b600054610100900460ff16611d8a5760405162461bcd60e51b815260040161072290613047565b601080546001600160a01b039384166001600160a01b03199182161790915560118054929093169116179055565b6001600160a01b03811660009081526047602052604090205460ff1615611e2f5760405162461bcd60e51b815260206004820152602560248201527f4475706c696361746564204974656d20696e20736f7572636520746f6b656e206044820152643634b9ba1760d91b6064820152608401610722565b611e388161101e565b611e955760405162461bcd60e51b815260206004820152602860248201527f556e7265736f6c7661626c6520746f6b656e20696e2074617267657420746f6b60448201526732b7103634b9ba1760c11b6064820152608401610722565b6046805460018082019092557f128667f541fed74a8429f9d592c26c2c6a4beb9ae5ead9912c98b2595c8423100180546001600160a01b0319166001600160a01b038416908117909155600081815260476020908152604091829020805460ff1916909417909355519081527f14009112f2dcb15cad32dab6bf972d6d85286e4ae1178f27323ffe25359459e69101611d58565b6000818152604b602052604090205460ff1615611f945760405162461bcd60e51b815260206004820152602360248201527f4475706c696361746564207465616d20696e20746172676574207465616d206c6044820152621a5cdd60ea1b6064820152608401610722565b6000818152604b6020526040808220805460ff19166001908117909155604a8054918201815583527ffcc5ba1a98fc477b8948a04d08c6f4a76181fe75021370ab5e6abd22b1792a2a018390555182917f97f63d9e58eec1949a905544927de4308825003ab1dd2aa1b699921c3ca31f9591a250565b60008060008380602001905181019061202391906128e5565b604954604854939650919450925060009160ff166001600160a01b03861673eeeeeeeeeeeeeeeeeeeeeeeeeeeeeeeeeeeeeeee1415612104576005546001600160a01b031660405163d3abc28b60e01b81526001600160a01b038781166004830152606060248301526000606483015260448201879052919091169063d3abc28b90608401600060405180830381600087803b1580156120c257600080fd5b505af11580156120d6573d6000803e3d6000fd5b505050506040513d6000823e601f3d908101601f191682016040526120fe9190810190612bac565b506121d0565b604080516001600160a01b038781166024830152604480830188905283518084039091018152606490920183526020820180516001600160e01b031663a9059cbb60e01b179052600554925163d3abc28b60e01b81529192169063d3abc28b90612177908a908590600090600401612e79565b600060405180830381600087803b15801561219157600080fd5b505af11580156121a5573d6000803e3d6000fd5b505050506040513d6000823e601f3d908101601f191682016040526121cd9190810190612bac565b50505b6121da8685610a07565b60445490935060ff168061220657506001600160a01b03851660009081526045602052604090205460ff165b806122155750612215856123ff565b61226d5760405162461bcd60e51b815260206004820152602360248201527f526563697069656e74206e6f742077686974656c697374656420696e2062756460448201526219d95d60ea1b6064820152608401610722565b6001600160a01b03861660009081526047602052604090205460ff166122d55760405162461bcd60e51b815260206004820152601f60248201527f546f6b656e206e6f742077686974656c697374656420696e20627564676574006044820152606401610722565b600083116123305760405162461bcd60e51b815260206004820152602260248201527f5472616e7366657220616d6f756e742073686f756c64206e6f74206265207a65604482015261726f60f01b6064820152608401610722565b808061233c5750818311155b6123985760405162461bcd60e51b815260206004820152602760248201527f4578636565646564206d617820627564676574207472616e7366657261626c6560448201526608185b5bdd5b9d60ca1b6064820152608401610722565b806123ab576123a78383613230565b6049555b604080516001600160a01b0388811682526020820187905287169133918b917f7bd766f3afc51ba3017c95a3a83ebdafe5e32cf39497f7efc628b13715da4289910160405180910390a45050505050505050565b604a54600090818167ffffffffffffffff81111561241f5761241f613320565b604051908082528060200260200182016040528015612448578160200160208202803683370190505b50905060005b8281101561249357848282815181106124695761246961330a565b6001600160a01b03909216602092830291909101909101528061248b816132c3565b91505061244e565b5060006124a8600f546001600160a01b031690565b6001600160a01b0316634e1273f483604a6040518363ffffffff1660e01b81526004016124d6929190612ed2565b60006040518083038186803b1580156124ee57600080fd5b505afa158015612502573d6000803e3d6000fd5b505050506040513d6000823e601f3d908101601f1916820160405261252a9190810190612ada565b905060005b815181101561257857600082828151811061254c5761254c61330a565b602002602001015111156125665750600195945050505050565b80612570816132c3565b91505061252f565b50600095945050505050565b8280548282559060005260206000209081019282156125d1579160200282015b828111156125d157825180516125c1918491602090910190612661565b50916020019190600101906125a4565b506125dd9291506126d5565b5090565b8280546125ed9061328e565b90600052602060002090601f01602090048101928261260f5760008555612655565b82601f106126285782800160ff19823516178555612655565b82800160010185558215612655579182015b8281111561265557823582559160200191906001019061263a565b506125dd9291506126f2565b82805461266d9061328e565b90600052602060002090601f01602090048101928261268f5760008555612655565b82601f106126a857805160ff1916838001178555612655565b82800160010185558215612655579182015b828111156126555782518255916020019190600101906126ba565b808211156125dd5760006126e98282612707565b506001016126d5565b5b808211156125dd57600081556001016126f3565b5080546127139061328e565b6000825580601f10612723575050565b601f01602090049060005260206000209081019061274191906126f2565b50565b8035610c3081613336565b600082601f83011261276057600080fd5b81356020612775612770836131cc565b61319b565b80838252828201915082860187848660051b890101111561279557600080fd5b60005b858110156127bd5781356127ab81613336565b84529284019290840190600101612798565b5090979650505050505050565b600082601f8301126127db57600080fd5b813560206127eb612770836131cc565b80838252828201915082860187848660051b890101111561280b57600080fd5b60005b858110156127bd5781358452928401929084019060010161280e565b8035610c308161334b565b60008083601f84011261284757600080fd5b50813567ffffffffffffffff81111561285f57600080fd5b60208301915083602082850101111561287757600080fd5b9250929050565b6000610180828403121561289157600080fd5b50919050565b803563ffffffff81168114610c3057600080fd5b6000602082840312156128bd57600080fd5b8135610b6d81613336565b6000602082840312156128da57600080fd5b8151610b6d81613336565b6000806000606084860312156128fa57600080fd5b835161290581613336565b602085015190935061291681613336565b80925050604084015190509250925092565b60008060006060848603121561293d57600080fd5b833561294881613336565b9250602084013561295881613336565b929592945050506040919091013590565b6000806040838503121561297c57600080fd5b823561298781613336565b946020939093013593505050565b6000806000806000608086880312156129ad57600080fd5b67ffffffffffffffff80873511156129c457600080fd5b8635870188601f8201126129d757600080fd5b6129e461277082356131cc565b8082358252602082019150602083018b6020853560051b8601011115612a0957600080fd5b60005b8435811015612a84578582351115612a2357600080fd5b813585018d603f820112612a3657600080fd5b6020810135612a47612770826131f0565b8181528f6040838501011115612a5c57600080fd5b8160408401602083013760006020928201830152865294850194929092019150600101612a0c565b5050809850505050612a9860208801612897565b9450612aa66040880161282a565b93508060608801351115612ab957600080fd5b50612aca8760608801358801612835565b9598949750929550919392915050565b60006020808385031215612aed57600080fd5b825167ffffffffffffffff811115612b0457600080fd5b8301601f81018513612b1557600080fd5b8051612b23612770826131cc565b80828252848201915084840188868560051b8701011115612b4357600080fd5b600094505b83851015612b66578051835260019490940193918501918501612b48565b50979650505050505050565b600060208284031215612b8457600080fd5b8135610b6d8161334b565b600060208284031215612ba157600080fd5b8151610b6d8161334b565b600060208284031215612bbe57600080fd5b815167ffffffffffffffff811115612bd557600080fd5b8201601f81018413612be657600080fd5b8051612bf4612770826131f0565b818152856020838501011115612c0957600080fd5b612c1a826020830160208601613247565b95945050505050565b600080600080600080600080610100898b031215612c4057600080fd5b883567ffffffffffffffff80821115612c5857600080fd5b612c648c838d0161287e565b9950612c7260208c0161282a565b985060408b0135915080821115612c8857600080fd5b612c948c838d0161274f565b975060608b0135915080821115612caa57600080fd5b612cb68c838d0161274f565b9650612cc460808c0161282a565b955060a08b01359450612cd960c08c01612744565b935060e08b0135915080821115612cef57600080fd5b50612cfc8b828c016127ca565b9150509295985092959890939650565b600060208284031215612d1e57600080fd5b5035919050565b600060208284031215612d3757600080fd5b5051919050565b600080600060408486031215612d5357600080fd5b83359250602084013567ffffffffffffffff811115612d7157600080fd5b612d7d86828701612835565b9497909650939450505050565b600060208284031215612d9c57600080fd5b815160ff81168114610b6d57600080fd5b600081518084526020808501808196508360051b8101915082860160005b85811015612df5578284038952612de3848351612e02565b98850198935090840190600101612dcb565b5091979650505050505050565b60008151808452612e1a816020860160208601613247565b601f01601f19169290920160200192915050565b60048110612e4c57634e487b7160e01b600052602160045260246000fd5b9052565b81835281816020850137506000828201602090810191909152601f909101601f19169091010190565b6001600160a01b0384168152606060208201819052600090612e9d90830185612e02565b9050826040830152949350505050565b6001600160a01b0384168152604060208201819052600090612c1a9083018486612e50565b604080825283519082018190526000906020906060840190828701845b82811015612f145781516001600160a01b031684529284019290840190600101612eef565b505050838103828501528454808252600086815283812092840191905b818110156127bd57835483526001938401939285019201612f31565b604081526000612f606040830185612dad565b905060018060a01b03831660208301529392505050565b60a081526000612f8a60a0830189612dad565b63ffffffff88166020840152612fa36040840188612e2e565b8281036060840152612fb6818688612e50565b91505060018060a01b0383166080830152979650505050505050565b6000602080830181845280855180835260408601915060408160051b870101925083870160005b8281101561302757603f19888603018452613015858351612e02565b94509285019290850190600101612ff9565b5092979650505050505050565b602081526000610b6d6020830184612e02565b6020808252602b908201527f496e697469616c697a61626c653a20636f6e7472616374206973206e6f74206960408201526a6e697469616c697a696e6760a81b606082015260800190565b60208082526022908201527f4578656375746f72206e6f742077686974656c697374656420696e2062756467604082015261195d60f21b606082015260800190565b85815260a081016130e86020830187612e2e565b63ffffffff949094166040820152911515606083015260809091015292915050565b6000808335601e1984360301811261312157600080fd5b83018035915067ffffffffffffffff82111561313c57600080fd5b6020019150600581901b360382131561287757600080fd5b6000808335601e1984360301811261316b57600080fd5b83018035915067ffffffffffffffff82111561318657600080fd5b60200191503681900382131561287757600080fd5b604051601f8201601f1916810167ffffffffffffffff811182821017156131c4576131c4613320565b604052919050565b600067ffffffffffffffff8211156131e6576131e6613320565b5060051b60200190565b600067ffffffffffffffff82111561320a5761320a613320565b50601f01601f191660200190565b6000821982111561322b5761322b6132de565b500190565b600082821015613242576132426132de565b500390565b60005b8381101561326257818101518382015260200161324a565b83811115613271576000848401525b50505050565b600081613286576132866132de565b506000190190565b600181811c908216806132a257607f821691505b6020821081141561289157634e487b7160e01b600052602260045260246000fd5b60006000198214156132d7576132d76132de565b5060010190565b634e487b7160e01b600052601160045260246000fd5b634e487b7160e01b600052602160045260246000fd5b634e487b7160e01b600052603260045260246000fd5b634e487b7160e01b600052604160045260246000fd5b6001600160a01b038116811461274157600080fd5b801515811461274157600080fdfe5472616e73666572204c69717569642045524332302042756467657420417070726f76616ca264697066735822122040d534add3721f01a4ddf6135431b74775bc74bb229f2fa4d3fe910d692ed63564736f6c63430008070033",
  "devdoc": {
    "kind": "dev",
    "methods": {
      "constructor": {
        "custom:oz-upgrades-unsafe-allow": "constructor"
      },
      "initialize((address,uint256,address[],uint256,uint256,string,string,uint256,uint256,bool,uint256,address),bool,address[],address[],bool,uint256,address,uint256[])": {
        "details": "Need to init __PriceResolver before _addToken,since addToken need Price resolver to check the token is support or not",
        "params": {
          "_allowAllAddresses": "Boolean flag to indicate if the BA can sent to any addresses ",
          "_allowAnyAmount": "Boolean flag to indicate if any amount of tokens can be transferred",
          "_baseCurrency": "Address of the token that serves as the base currency",
          "_toAddresses": "Array of addresses that are allowed to receive ",
          "_toTeamIds": "array of teamId that are allowed to receive ",
          "_tokens": "Array of token addresses that can be transferred",
          "_totalAmount": "Total number of tokens that can be transferred",
          "params": "InitializeParams struct containing data required for initialization"
        }
      }
    },
    "version": 1
  },
  "userdoc": {
    "kind": "user",
    "methods": {
      "assetBaseCurrencyPrice(address,uint256)": {
        "notice": "This function is imported by other contract, thus cannot be external"
      },
      "canResolvePrice(address)": {
        "notice": "This function is imported by other contract, thus cannot be external"
      }
    },
    "version": 1
  },
  "storageLayout": {
    "storage": [
      {
        "astId": 3115,
        "contract": "contracts/TransferLiquidERC20BudgetApproval.sol:TransferLiquidERC20BudgetApproval",
        "label": "_initialized",
        "offset": 0,
        "slot": "0",
        "type": "t_uint8"
      },
      {
        "astId": 3118,
        "contract": "contracts/TransferLiquidERC20BudgetApproval.sol:TransferLiquidERC20BudgetApproval",
        "label": "_initializing",
        "offset": 1,
        "slot": "0",
        "type": "t_bool"
      },
      {
        "astId": 17492,
        "contract": "contracts/TransferLiquidERC20BudgetApproval.sol:TransferLiquidERC20BudgetApproval",
        "label": "_transactionIds",
        "offset": 0,
        "slot": "1",
        "type": "t_struct(Counter)10121_storage"
      },
      {
        "astId": 17497,
        "contract": "contracts/TransferLiquidERC20BudgetApproval.sol:TransferLiquidERC20BudgetApproval",
        "label": "transactions",
        "offset": 0,
        "slot": "2",
        "type": "t_mapping(t_uint256,t_struct(Transaction)17436_storage)"
      },
      {
        "astId": 17499,
        "contract": "contracts/TransferLiquidERC20BudgetApproval.sol:TransferLiquidERC20BudgetApproval",
        "label": "_executor",
        "offset": 0,
        "slot": "3",
        "type": "t_address"
      },
      {
        "astId": 17501,
        "contract": "contracts/TransferLiquidERC20BudgetApproval.sol:TransferLiquidERC20BudgetApproval",
        "label": "_executorTeamId",
        "offset": 0,
        "slot": "4",
        "type": "t_uint256"
      },
      {
        "astId": 17503,
        "contract": "contracts/TransferLiquidERC20BudgetApproval.sol:TransferLiquidERC20BudgetApproval",
        "label": "_executee",
        "offset": 0,
        "slot": "5",
        "type": "t_address"
      },
      {
        "astId": 17507,
        "contract": "contracts/TransferLiquidERC20BudgetApproval.sol:TransferLiquidERC20BudgetApproval",
        "label": "_approversMapping",
        "offset": 0,
        "slot": "6",
        "type": "t_mapping(t_address,t_bool)"
      },
      {
        "astId": 17509,
        "contract": "contracts/TransferLiquidERC20BudgetApproval.sol:TransferLiquidERC20BudgetApproval",
        "label": "_approverTeamId",
        "offset": 0,
        "slot": "7",
        "type": "t_uint256"
      },
      {
        "astId": 17511,
        "contract": "contracts/TransferLiquidERC20BudgetApproval.sol:TransferLiquidERC20BudgetApproval",
        "label": "_minApproval",
        "offset": 0,
        "slot": "8",
        "type": "t_uint256"
      },
      {
        "astId": 17513,
        "contract": "contracts/TransferLiquidERC20BudgetApproval.sol:TransferLiquidERC20BudgetApproval",
        "label": "_text",
        "offset": 0,
        "slot": "9",
        "type": "t_string_storage"
      },
      {
        "astId": 17515,
        "contract": "contracts/TransferLiquidERC20BudgetApproval.sol:TransferLiquidERC20BudgetApproval",
        "label": "_transactionType",
        "offset": 0,
        "slot": "10",
        "type": "t_string_storage"
      },
      {
        "astId": 17517,
        "contract": "contracts/TransferLiquidERC20BudgetApproval.sol:TransferLiquidERC20BudgetApproval",
        "label": "_allowUnlimitedUsageCount",
        "offset": 0,
        "slot": "11",
        "type": "t_bool"
      },
      {
        "astId": 17519,
        "contract": "contracts/TransferLiquidERC20BudgetApproval.sol:TransferLiquidERC20BudgetApproval",
        "label": "_usageCount",
        "offset": 0,
        "slot": "12",
        "type": "t_uint256"
      },
      {
        "astId": 17521,
        "contract": "contracts/TransferLiquidERC20BudgetApproval.sol:TransferLiquidERC20BudgetApproval",
        "label": "_startTime",
        "offset": 0,
        "slot": "13",
        "type": "t_uint256"
      },
      {
        "astId": 17523,
        "contract": "contracts/TransferLiquidERC20BudgetApproval.sol:TransferLiquidERC20BudgetApproval",
        "label": "_endTime",
        "offset": 0,
        "slot": "14",
        "type": "t_uint256"
      },
      {
        "astId": 17525,
        "contract": "contracts/TransferLiquidERC20BudgetApproval.sol:TransferLiquidERC20BudgetApproval",
        "label": "_team",
        "offset": 0,
        "slot": "15",
        "type": "t_address"
      },
      {
        "astId": 18335,
        "contract": "contracts/TransferLiquidERC20BudgetApproval.sol:TransferLiquidERC20BudgetApproval",
        "label": "_baseCurrency",
        "offset": 0,
        "slot": "16",
        "type": "t_address"
      },
      {
        "astId": 18337,
        "contract": "contracts/TransferLiquidERC20BudgetApproval.sol:TransferLiquidERC20BudgetApproval",
        "label": "_accountSystem",
        "offset": 0,
        "slot": "17",
        "type": "t_address"
      },
      {
        "astId": 18487,
        "contract": "contracts/TransferLiquidERC20BudgetApproval.sol:TransferLiquidERC20BudgetApproval",
        "label": "__gap",
        "offset": 0,
        "slot": "18",
        "type": "t_array(t_uint256)50_storage"
      },
      {
        "astId": 14863,
        "contract": "contracts/TransferLiquidERC20BudgetApproval.sol:TransferLiquidERC20BudgetApproval",
        "label": "allowAllAddresses",
        "offset": 0,
        "slot": "68",
        "type": "t_bool"
      },
      {
        "astId": 14867,
        "contract": "contracts/TransferLiquidERC20BudgetApproval.sol:TransferLiquidERC20BudgetApproval",
        "label": "addressesMapping",
        "offset": 0,
        "slot": "69",
        "type": "t_mapping(t_address,t_bool)"
      },
      {
        "astId": 14870,
        "contract": "contracts/TransferLiquidERC20BudgetApproval.sol:TransferLiquidERC20BudgetApproval",
        "label": "tokens",
        "offset": 0,
        "slot": "70",
        "type": "t_array(t_address)dyn_storage"
      },
      {
        "astId": 14874,
        "contract": "contracts/TransferLiquidERC20BudgetApproval.sol:TransferLiquidERC20BudgetApproval",
        "label": "tokensMapping",
        "offset": 0,
        "slot": "71",
        "type": "t_mapping(t_address,t_bool)"
      },
      {
        "astId": 14876,
        "contract": "contracts/TransferLiquidERC20BudgetApproval.sol:TransferLiquidERC20BudgetApproval",
        "label": "allowAnyAmount",
        "offset": 0,
        "slot": "72",
        "type": "t_bool"
      },
      {
        "astId": 14878,
        "contract": "contracts/TransferLiquidERC20BudgetApproval.sol:TransferLiquidERC20BudgetApproval",
        "label": "totalAmount",
        "offset": 0,
        "slot": "73",
        "type": "t_uint256"
      },
      {
        "astId": 14881,
        "contract": "contracts/TransferLiquidERC20BudgetApproval.sol:TransferLiquidERC20BudgetApproval",
        "label": "toTeamIds",
        "offset": 0,
        "slot": "74",
        "type": "t_array(t_uint256)dyn_storage"
      },
      {
        "astId": 14885,
        "contract": "contracts/TransferLiquidERC20BudgetApproval.sol:TransferLiquidERC20BudgetApproval",
        "label": "toTeamIdsMapping",
        "offset": 0,
        "slot": "75",
        "type": "t_mapping(t_uint256,t_bool)"
      }
    ],
    "types": {
      "t_address": {
        "encoding": "inplace",
        "label": "address",
        "numberOfBytes": "20"
      },
      "t_array(t_address)dyn_storage": {
        "base": "t_address",
        "encoding": "dynamic_array",
        "label": "address[]",
        "numberOfBytes": "32"
      },
      "t_array(t_bytes_storage)dyn_storage": {
        "base": "t_bytes_storage",
        "encoding": "dynamic_array",
        "label": "bytes[]",
        "numberOfBytes": "32"
      },
      "t_array(t_uint256)50_storage": {
        "base": "t_uint256",
        "encoding": "inplace",
        "label": "uint256[50]",
        "numberOfBytes": "1600"
      },
      "t_array(t_uint256)dyn_storage": {
        "base": "t_uint256",
        "encoding": "dynamic_array",
        "label": "uint256[]",
        "numberOfBytes": "32"
      },
      "t_bool": {
        "encoding": "inplace",
        "label": "bool",
        "numberOfBytes": "1"
      },
      "t_bytes_storage": {
        "encoding": "bytes",
        "label": "bytes",
        "numberOfBytes": "32"
      },
      "t_enum(Status)17417": {
        "encoding": "inplace",
        "label": "enum CommonBudgetApproval.Status",
        "numberOfBytes": "1"
      },
      "t_mapping(t_address,t_bool)": {
        "encoding": "mapping",
        "key": "t_address",
        "label": "mapping(address => bool)",
        "numberOfBytes": "32",
        "value": "t_bool"
      },
      "t_mapping(t_uint256,t_bool)": {
        "encoding": "mapping",
        "key": "t_uint256",
        "label": "mapping(uint256 => bool)",
        "numberOfBytes": "32",
        "value": "t_bool"
      },
      "t_mapping(t_uint256,t_struct(Transaction)17436_storage)": {
        "encoding": "mapping",
        "key": "t_uint256",
        "label": "mapping(uint256 => struct CommonBudgetApproval.Transaction)",
        "numberOfBytes": "32",
        "value": "t_struct(Transaction)17436_storage"
      },
      "t_string_storage": {
        "encoding": "bytes",
        "label": "string",
        "numberOfBytes": "32"
      },
      "t_struct(Counter)10121_storage": {
        "encoding": "inplace",
        "label": "struct Counters.Counter",
        "members": [
          {
            "astId": 10120,
            "contract": "contracts/TransferLiquidERC20BudgetApproval.sol:TransferLiquidERC20BudgetApproval",
            "label": "_value",
            "offset": 0,
            "slot": "0",
            "type": "t_uint256"
          }
        ],
        "numberOfBytes": "32"
      },
      "t_struct(Transaction)17436_storage": {
        "encoding": "inplace",
        "label": "struct CommonBudgetApproval.Transaction",
        "members": [
          {
            "astId": 17419,
            "contract": "contracts/TransferLiquidERC20BudgetApproval.sol:TransferLiquidERC20BudgetApproval",
            "label": "id",
            "offset": 0,
            "slot": "0",
            "type": "t_uint256"
          },
          {
            "astId": 17422,
            "contract": "contracts/TransferLiquidERC20BudgetApproval.sol:TransferLiquidERC20BudgetApproval",
            "label": "data",
            "offset": 0,
            "slot": "1",
            "type": "t_array(t_bytes_storage)dyn_storage"
          },
          {
            "astId": 17425,
            "contract": "contracts/TransferLiquidERC20BudgetApproval.sol:TransferLiquidERC20BudgetApproval",
            "label": "status",
            "offset": 0,
            "slot": "2",
            "type": "t_enum(Status)17417"
          },
          {
            "astId": 17427,
            "contract": "contracts/TransferLiquidERC20BudgetApproval.sol:TransferLiquidERC20BudgetApproval",
            "label": "deadline",
            "offset": 1,
            "slot": "2",
            "type": "t_uint32"
          },
          {
            "astId": 17429,
            "contract": "contracts/TransferLiquidERC20BudgetApproval.sol:TransferLiquidERC20BudgetApproval",
            "label": "isExist",
            "offset": 5,
            "slot": "2",
            "type": "t_bool"
          },
          {
            "astId": 17431,
            "contract": "contracts/TransferLiquidERC20BudgetApproval.sol:TransferLiquidERC20BudgetApproval",
            "label": "approvedCount",
            "offset": 0,
            "slot": "3",
            "type": "t_uint256"
          },
          {
            "astId": 17435,
            "contract": "contracts/TransferLiquidERC20BudgetApproval.sol:TransferLiquidERC20BudgetApproval",
            "label": "approved",
            "offset": 0,
            "slot": "4",
            "type": "t_mapping(t_address,t_bool)"
          }
        ],
        "numberOfBytes": "160"
      },
      "t_uint256": {
        "encoding": "inplace",
        "label": "uint256",
        "numberOfBytes": "32"
      },
      "t_uint32": {
        "encoding": "inplace",
        "label": "uint32",
        "numberOfBytes": "4"
      },
      "t_uint8": {
        "encoding": "inplace",
        "label": "uint8",
        "numberOfBytes": "1"
      }
    }
  }
}