{
  "address": "0x4032f89A7B715d20847D48917A622619B1023bE0",
  "abi": [
    {
      "inputs": [],
      "stateMutability": "nonpayable",
      "type": "constructor"
    },
    {
      "anonymous": false,
      "inputs": [
        {
          "indexed": false,
          "internalType": "address",
          "name": "budgetApproval",
          "type": "address"
        }
      ],
      "name": "AbandonBudgetApproval",
      "type": "event"
    },
    {
      "anonymous": false,
      "inputs": [
        {
          "indexed": false,
          "internalType": "address",
          "name": "previousAdmin",
          "type": "address"
        },
        {
          "indexed": false,
          "internalType": "address",
          "name": "newAdmin",
          "type": "address"
        }
      ],
      "name": "AdminChanged",
      "type": "event"
    },
    {
      "anonymous": false,
      "inputs": [
        {
          "indexed": true,
          "internalType": "address",
          "name": "beacon",
          "type": "address"
        }
      ],
      "name": "BeaconUpgraded",
      "type": "event"
    },
    {
      "anonymous": false,
      "inputs": [
        {
          "indexed": true,
          "internalType": "address",
          "name": "dao",
          "type": "address"
        },
        {
          "indexed": false,
          "internalType": "string",
          "name": "name",
          "type": "string"
        },
        {
          "indexed": false,
          "internalType": "string",
          "name": "description",
          "type": "string"
        },
        {
          "indexed": false,
          "internalType": "address",
          "name": "creator",
          "type": "address"
        }
      ],
      "name": "CreateDao",
      "type": "event"
    },
    {
      "anonymous": false,
      "inputs": [
        {
          "indexed": true,
          "internalType": "uint256",
          "name": "versionId",
          "type": "uint256"
        },
        {
          "indexed": false,
          "internalType": "address",
          "name": "daoImplementation",
          "type": "address"
        },
        {
          "indexed": false,
          "internalType": "address",
          "name": "membershipImplementation",
          "type": "address"
        },
        {
          "indexed": false,
          "internalType": "address",
          "name": "liquidPoolImplementation",
          "type": "address"
        },
        {
          "indexed": false,
          "internalType": "address",
          "name": "memberTokenImplementation",
          "type": "address"
        },
        {
          "indexed": false,
          "internalType": "address",
          "name": "governImplementation",
          "type": "address"
        },
        {
          "indexed": false,
          "internalType": "address",
          "name": "adamImplementation",
          "type": "address"
        },
        {
          "indexed": false,
          "internalType": "string",
          "name": "description",
          "type": "string"
        }
      ],
      "name": "ImplementationUpgrade",
      "type": "event"
    },
    {
      "anonymous": false,
      "inputs": [
        {
          "indexed": false,
          "internalType": "uint8",
          "name": "version",
          "type": "uint8"
        }
      ],
      "name": "Initialized",
      "type": "event"
    },
    {
      "anonymous": false,
      "inputs": [
        {
          "indexed": true,
          "internalType": "address",
          "name": "previousOwner",
          "type": "address"
        },
        {
          "indexed": true,
          "internalType": "address",
          "name": "newOwner",
          "type": "address"
        }
      ],
      "name": "OwnershipTransferred",
      "type": "event"
    },
    {
      "anonymous": false,
      "inputs": [
        {
          "indexed": true,
          "internalType": "address",
          "name": "implementation",
          "type": "address"
        }
      ],
      "name": "Upgraded",
      "type": "event"
    },
    {
      "anonymous": false,
      "inputs": [
        {
          "indexed": false,
          "internalType": "address",
          "name": "budgetApproval",
          "type": "address"
        }
      ],
      "name": "WhitelistBudgetApproval",
      "type": "event"
    },
    {
      "inputs": [
        {
          "internalType": "address[]",
          "name": "_budgetApprovals",
          "type": "address[]"
        }
      ],
      "name": "abandonBudgetApprovals",
      "outputs": [],
      "stateMutability": "nonpayable",
      "type": "function"
    },
    {
      "inputs": [
        {
          "internalType": "address",
          "name": "",
          "type": "address"
        }
      ],
      "name": "budgetApprovals",
      "outputs": [
        {
          "internalType": "bool",
          "name": "",
          "type": "bool"
        }
      ],
      "stateMutability": "view",
      "type": "function"
    },
    {
      "inputs": [
        {
          "components": [
            {
              "internalType": "string",
              "name": "_name",
              "type": "string"
            },
            {
              "internalType": "string",
              "name": "_description",
              "type": "string"
            },
            {
              "internalType": "address",
              "name": "baseCurrency",
              "type": "address"
            },
            {
              "internalType": "uint256",
              "name": "maxMemberLimit",
              "type": "uint256"
            },
            {
              "internalType": "string",
              "name": "_memberTokenName",
              "type": "string"
            },
            {
              "internalType": "string",
              "name": "_memberTokenSymbol",
              "type": "string"
            },
            {
              "internalType": "address[]",
              "name": "depositTokens",
              "type": "address[]"
            }
          ],
          "internalType": "struct Adam.CreateDaoParams",
          "name": "params",
          "type": "tuple"
        },
        {
          "internalType": "bytes[]",
          "name": "data",
          "type": "bytes[]"
        }
      ],
      "name": "createDao",
      "outputs": [
        {
          "internalType": "address",
          "name": "",
          "type": "address"
        }
      ],
      "stateMutability": "nonpayable",
      "type": "function"
    },
    {
      "inputs": [],
      "name": "daoImplementation",
      "outputs": [
        {
          "internalType": "address",
          "name": "",
          "type": "address"
        }
      ],
      "stateMutability": "view",
      "type": "function"
    },
    {
      "inputs": [
        {
          "internalType": "address",
          "name": "",
          "type": "address"
        }
      ],
      "name": "daos",
      "outputs": [
        {
          "internalType": "bool",
          "name": "",
          "type": "bool"
        }
      ],
      "stateMutability": "view",
      "type": "function"
    },
    {
      "inputs": [],
      "name": "governFactory",
      "outputs": [
        {
          "internalType": "address",
          "name": "",
          "type": "address"
        }
      ],
      "stateMutability": "view",
      "type": "function"
    },
    {
      "inputs": [
        {
          "internalType": "address",
          "name": "_daoImplementation",
          "type": "address"
        },
        {
          "internalType": "address",
          "name": "_membershipImplementation",
          "type": "address"
        },
        {
          "internalType": "address",
          "name": "_liquidPoolImplementation",
          "type": "address"
        },
        {
          "internalType": "address",
          "name": "_memberTokenImplementation",
          "type": "address"
        },
        {
          "internalType": "address",
          "name": "_governImplementation",
          "type": "address"
        }
      ],
      "name": "hashVersion",
      "outputs": [
        {
          "internalType": "uint256",
          "name": "",
          "type": "uint256"
        }
      ],
      "stateMutability": "pure",
      "type": "function"
    },
    {
      "inputs": [
        {
          "internalType": "address",
          "name": "_daoImplementation",
          "type": "address"
        },
        {
          "internalType": "address",
          "name": "_membershipImplementation",
          "type": "address"
        },
        {
          "internalType": "address",
          "name": "_liquidPoolImplementation",
          "type": "address"
        },
        {
          "internalType": "address",
          "name": "_memberTokenImplementation",
          "type": "address"
        },
        {
          "internalType": "address[]",
          "name": "_budgetApprovalImplementations",
          "type": "address[]"
        },
        {
          "internalType": "address",
          "name": "_governFactory",
          "type": "address"
        },
        {
          "internalType": "address",
          "name": "_team",
          "type": "address"
        }
      ],
      "name": "initialize",
      "outputs": [],
      "stateMutability": "nonpayable",
      "type": "function"
    },
    {
      "inputs": [],
      "name": "liquidPoolImplementation",
      "outputs": [
        {
          "internalType": "address",
          "name": "",
          "type": "address"
        }
      ],
      "stateMutability": "view",
      "type": "function"
    },
    {
      "inputs": [],
      "name": "memberTokenImplementation",
      "outputs": [
        {
          "internalType": "address",
          "name": "",
          "type": "address"
        }
      ],
      "stateMutability": "view",
      "type": "function"
    },
    {
      "inputs": [],
      "name": "membershipImplementation",
      "outputs": [
        {
          "internalType": "address",
          "name": "",
          "type": "address"
        }
      ],
      "stateMutability": "view",
      "type": "function"
    },
    {
      "inputs": [],
      "name": "owner",
      "outputs": [
        {
          "internalType": "address",
          "name": "",
          "type": "address"
        }
      ],
      "stateMutability": "view",
      "type": "function"
    },
    {
      "inputs": [],
      "name": "proxiableUUID",
      "outputs": [
        {
          "internalType": "bytes32",
          "name": "",
          "type": "bytes32"
        }
      ],
      "stateMutability": "view",
      "type": "function"
    },
    {
      "inputs": [],
      "name": "renounceOwnership",
      "outputs": [],
      "stateMutability": "nonpayable",
      "type": "function"
    },
    {
      "inputs": [],
      "name": "team",
      "outputs": [
        {
          "internalType": "address",
          "name": "",
          "type": "address"
        }
      ],
      "stateMutability": "view",
      "type": "function"
    },
    {
      "inputs": [
        {
          "internalType": "address",
          "name": "newOwner",
          "type": "address"
        }
      ],
      "name": "transferOwnership",
      "outputs": [],
      "stateMutability": "nonpayable",
      "type": "function"
    },
    {
      "inputs": [
        {
          "internalType": "address",
          "name": "_daoImplementation",
          "type": "address"
        },
        {
          "internalType": "address",
          "name": "_membershipImplementation",
          "type": "address"
        },
        {
          "internalType": "address",
          "name": "_liquidPoolImplementation",
          "type": "address"
        },
        {
          "internalType": "address",
          "name": "_memberTokenImplementation",
          "type": "address"
        },
        {
          "internalType": "address",
          "name": "_governImplementation",
          "type": "address"
        },
        {
          "internalType": "string",
          "name": "description",
          "type": "string"
        }
      ],
      "name": "upgradeImplementations",
      "outputs": [],
      "stateMutability": "nonpayable",
      "type": "function"
    },
    {
      "inputs": [
        {
          "internalType": "address",
          "name": "newImplementation",
          "type": "address"
        }
      ],
      "name": "upgradeTo",
      "outputs": [],
      "stateMutability": "nonpayable",
      "type": "function"
    },
    {
      "inputs": [
        {
          "internalType": "address",
          "name": "newImplementation",
          "type": "address"
        },
        {
          "internalType": "bytes",
          "name": "data",
          "type": "bytes"
        }
      ],
      "name": "upgradeToAndCall",
      "outputs": [],
      "stateMutability": "payable",
      "type": "function"
    },
    {
      "inputs": [
        {
          "internalType": "address[]",
          "name": "_budgetApprovals",
          "type": "address[]"
        }
      ],
      "name": "whitelistBudgetApprovals",
      "outputs": [],
      "stateMutability": "nonpayable",
      "type": "function"
    }
  ],
  "transactionHash": "0x89c326c6ba34b5988ee4ca9f085582509b00083d34e35bcf19959c405345a2e4",
  "args": [],
  "numDeployments": 2,
  "solcInputHash": "9b8d9175cff16c608ccf8de8d16b3fd5",
  "bytecode": "0x60a06040523060601b6080523480156200001857600080fd5b506200002362000029565b620000eb565b600054610100900460ff1615620000965760405162461bcd60e51b815260206004820152602760248201527f496e697469616c697a61626c653a20636f6e747261637420697320696e697469604482015266616c697a696e6760c81b606482015260840160405180910390fd5b60005460ff9081161015620000e9576000805460ff191660ff9081179091556040519081527f7f26b83ff96e1f2b6a682f133852f6798a09c465da95921460cefb38474024989060200160405180910390a15b565b60805160601c612c3d620001266000396000818161044901528181610495015281816105270152818161056a01526105ef0152612c3d6000f3fe608060405260043610620001375760003560e01c80638da5cb5b11620000ad578063c25f3cf6116200006c578063c25f3cf61462000376578063c976176614620003aa578063ceba8c5f14620003cf578063f2fde38b14620003f4578063f615fd1b146200041957600080fd5b80638da5cb5b14620002a55780639d69932614620002c5578063a240663e14620002e7578063b3fb594e146200032c578063b78b13e5146200035157600080fd5b80635faa788c11620000fa5780635faa788c1462000202578063715018a6146200022457806374bb8da6146200023c57806385f2aef2146200026157806389409516146200028357600080fd5b8063084af6ed146200013c578063293e7438146200017b5780633659cfe6146200019d5780634f1ef28614620001c457806352d1902d14620001db575b600080fd5b3480156200014957600080fd5b5060cb546200015e906001600160a01b031681565b6040516001600160a01b0390911681526020015b60405180910390f35b3480156200018857600080fd5b5060cc546200015e906001600160a01b031681565b348015620001aa57600080fd5b50620001c2620001bc36600462001b01565b6200043e565b005b620001c2620001d536600462001d28565b6200051c565b348015620001e857600080fd5b50620001f3620005e2565b60405190815260200162000172565b3480156200020f57600080fd5b5060ca546200015e906001600160a01b031681565b3480156200023157600080fd5b50620001c262000698565b3480156200024957600080fd5b50620001c26200025b36600462001d7e565b620006b0565b3480156200026e57600080fd5b5060ce546200015e906001600160a01b031681565b3480156200029057600080fd5b5060cd546200015e906001600160a01b031681565b348015620002b257600080fd5b506097546001600160a01b03166200015e565b348015620002d257600080fd5b5060c9546200015e906001600160a01b031681565b348015620002f457600080fd5b506200031b6200030636600462001b01565b60cf6020526000908152604090205460ff1681565b604051901515815260200162000172565b3480156200033957600080fd5b50620001c26200034b36600462001bbd565b62000842565b3480156200035e57600080fd5b50620001c26200037036600462001d7e565b62000b16565b3480156200038357600080fd5b506200031b6200039536600462001b01565b60d06020526000908152604090205460ff1681565b348015620003b757600080fd5b50620001f3620003c936600462001b41565b62000d32565b348015620003dc57600080fd5b506200015e620003ee36600462001dde565b62000d87565b3480156200040157600080fd5b50620001c26200041336600462001b01565b620010da565b3480156200042657600080fd5b50620001c26200043836600462001c64565b62001156565b306001600160a01b037f0000000000000000000000000000000000000000000000000000000000000000161415620004935760405162461bcd60e51b81526004016200048a9062002134565b60405180910390fd5b7f00000000000000000000000000000000000000000000000000000000000000006001600160a01b0316620004c7620013e0565b6001600160a01b031614620004f05760405162461bcd60e51b81526004016200048a9062002180565b620004fb81620013fd565b60408051600080825260208201909252620005199183919062001407565b50565b306001600160a01b037f0000000000000000000000000000000000000000000000000000000000000000161415620005685760405162461bcd60e51b81526004016200048a9062002134565b7f00000000000000000000000000000000000000000000000000000000000000006001600160a01b03166200059c620013e0565b6001600160a01b031614620005c55760405162461bcd60e51b81526004016200048a9062002180565b620005d082620013fd565b620005de8282600162001407565b5050565b6000306001600160a01b037f00000000000000000000000000000000000000000000000000000000000000001614620006845760405162461bcd60e51b815260206004820152603860248201527f555550535570677261646561626c653a206d757374206e6f742062652063616c60448201527f6c6564207468726f7567682064656c656761746563616c6c000000000000000060648201526084016200048a565b5060008051602062002bc183398151915290565b620006a26200158f565b620006ae6000620015eb565b565b620006ba6200158f565b60005b818110156200083d5760cf6000848484818110620006df57620006df6200245d565b9050602002016020810190620006f6919062001b01565b6001600160a01b0316815260208101919091526040016000205460ff161515600114620007665760405162461bcd60e51b815260206004820152601960248201527f62756467657420617070726f76616c206e6f742065786973740000000000000060448201526064016200048a565b600060cf60008585858181106200078157620007816200245d565b905060200201602081019062000798919062001b01565b6001600160a01b031681526020810191909152604001600020805460ff19169115159190911790557f9bcb80306e21ea57390223f10dd1c5cefa785eb5985a7adc38e7ca5ff51a2fb3838383818110620007f657620007f66200245d565b90506020020160208101906200080d919062001b01565b6040516001600160a01b03909116815260200160405180910390a180620008348162002433565b915050620006bd565b505050565b6200084c6200158f565b6001600160a01b038616620008965760405162461bcd60e51b815260206004820152600f60248201526e19185bd25b5c1b081a5cc81b9d5b1b608a1b60448201526064016200048a565b6001600160a01b038516620008e75760405162461bcd60e51b81526020600482015260166024820152751b595b58995c9cda1a5c125b5c1b081a5cc81b9d5b1b60521b60448201526064016200048a565b6001600160a01b038416620009385760405162461bcd60e51b81526020600482015260166024820152751b1a5c5d5a59141bdbdb125b5c1b081a5cc81b9d5b1b60521b60448201526064016200048a565b6001600160a01b038316620009905760405162461bcd60e51b815260206004820152601760248201527f6d656d626572546f6b656e496d706c206973206e756c6c00000000000000000060448201526064016200048a565b60cd5460408051635ba15b4d60e01b815290516001600160a01b03808616931691635ba15b4d916004808301926020929190829003018186803b158015620009d757600080fd5b505afa158015620009ec573d6000803e3d6000fd5b505050506040513d601f19601f8201168201806040525081019062000a12919062001b21565b6001600160a01b03161462000a615760405162461bcd60e51b81526020600482015260146024820152730cedeeccae4dc92dae0d840dcdee840dac2e8c6d60631b60448201526064016200048a565b60c980546001600160a01b038089166001600160a01b03199283161790925560ca805488841690831617905560cb805487841690831617905560cc805492861692909116919091179055600062000abc878787878762000d32565b9050807f82de3e174c12e1c3af1d6057e7b766de3db08d400a3ac2d811086b5e3d713129888888888862000aef620013e0565b8960405162000b05979695949392919062002015565b60405180910390a250505050505050565b62000b206200158f565b60005b818110156200083d57600083838381811062000b435762000b436200245d565b905060200201602081019062000b5a919062001b01565b6001600160a01b0316141562000bb35760405162461bcd60e51b815260206004820152601760248201527f62756467657420617070726f76616c206973206e756c6c00000000000000000060448201526064016200048a565b60cf600084848481811062000bcc5762000bcc6200245d565b905060200201602081019062000be3919062001b01565b6001600160a01b0316815260208101919091526040016000205460ff161562000c5b5760405162461bcd60e51b815260206004820152602360248201527f62756467657420617070726f76616c20616c72656164792077686974656c69736044820152621d195960ea1b60648201526084016200048a565b600160cf600085858581811062000c765762000c766200245d565b905060200201602081019062000c8d919062001b01565b6001600160a01b031681526020810191909152604001600020805460ff19169115159190911790557f398b08b0a1d9aec4b7246b4b9d1aa8bb17eb661955c1e5eab31bbab77c714b2283838381811062000ceb5762000ceb6200245d565b905060200201602081019062000d02919062001b01565b6040516001600160a01b03909116815260200160405180910390a18062000d298162002433565b91505062000b23565b604080516001600160a01b03968716602080830191909152958716818301529386166060850152918516608084015290931660a0808301919091528351808303909101815260c0909101909252815191012090565b60c95460405160009182916001600160a01b039091169062000da990620018fa565b6001600160a01b039091168152604060208201819052600090820152606001604051809103906000f08015801562000de5573d6000803e3d6000fd5b5060ca546040519192506000916001600160a01b039091169062000e0990620018fa565b6001600160a01b039091168152604060208201819052600090820152606001604051809103906000f08015801562000e45573d6000803e3d6000fd5b5060cb546040519192506000916001600160a01b039091169062000e6990620018fa565b6001600160a01b039091168152604060208201819052600090820152606001604051809103906000f08015801562000ea5573d6000803e3d6000fd5b506001600160a01b03808516600090815260d0602052604090819020805460ff19166001179055885160608a0151915163236b26ef60e21b815293945091851692638dac9bbc9262000efc928892600401620020a7565b600060405180830381600087803b15801562000f1757600080fd5b505af115801562000f2c573d6000803e3d6000fd5b50505060c08701516040808901519051636e2db45360e11b81526001600160a01b038516935063dc5b68a69262000f6892889260040162002070565b600060405180830381600087803b15801562000f8357600080fd5b505af115801562000f98573d6000803e3d6000fd5b505060408051610180810182523381526001600160a01b038681166020808401919091528682168385015260cd548216606084015260ce54821660808085019190915260cc54831660a0808601919091528d5160c080870191909152928e015160e08601528d8601518416610100860152908d01516101208501528c01516101408401528b0151610160830152915163024335cf60e51b81529187169350634866b9e092506200104d91899060040162002217565b600060405180830381600087803b1580156200106857600080fd5b505af11580156200107d573d6000803e3d6000fd5b50505050826001600160a01b03167f594ec7b44a013d8f9acb28d0b57d742a9367c7c8601838741bfee9d115e863ec8760000151886020015133604051620010c893929190620020f2565b60405180910390a25090949350505050565b620010e46200158f565b6001600160a01b0381166200114b5760405162461bcd60e51b815260206004820152602660248201527f4f776e61626c653a206e6577206f776e657220697320746865207a65726f206160448201526564647265737360d01b60648201526084016200048a565b6200051981620015eb565b600054610100900460ff1615808015620011775750600054600160ff909116105b80620011935750303b15801562001193575060005460ff166001145b620011f85760405162461bcd60e51b815260206004820152602e60248201527f496e697469616c697a61626c653a20636f6e747261637420697320616c72656160448201526d191e481a5b9a5d1a585b1a5e995960921b60648201526084016200048a565b6000805460ff1916600117905580156200121c576000805461ff0019166101001790555b620012266200163d565b62001232858562000b16565b6001600160a01b038316620012825760405162461bcd60e51b815260206004820152601560248201527419dbdd995c9b919858dd1bdc9e481a5cc81b9d5b1b605a1b60448201526064016200048a565b6001600160a01b038216620012c95760405162461bcd60e51b815260206004820152600c60248201526b1d19585b481a5cc81b9d5b1b60a21b60448201526064016200048a565b60cd80546001600160a01b038086166001600160a01b0319928316811790935560ce80549186169190921617905560408051635ba15b4d60e01b815290516200138e928c928c928c928c929091635ba15b4d91600480820192602092909190829003018186803b1580156200133d57600080fd5b505afa15801562001352573d6000803e3d6000fd5b505050506040513d601f19601f8201168201806040525081019062001378919062001b21565b6040518060200160405280600081525062000842565b8015620013d5576000805461ff0019169055604051600181527f7f26b83ff96e1f2b6a682f133852f6798a09c465da95921460cefb38474024989060200160405180910390a15b505050505050505050565b60008051602062002bc1833981519152546001600160a01b031690565b620005196200158f565b7f4910fdfa16fed3260ed0e7147f7cc6da11a60208b5b9406d12a635614ffd91435460ff16156200143d576200083d8362001671565b826001600160a01b03166352d1902d6040518163ffffffff1660e01b815260040160206040518083038186803b1580156200147757600080fd5b505afa925050508015620014aa575060408051601f3d908101601f19168201909252620014a79181019062001dc4565b60015b6200150f5760405162461bcd60e51b815260206004820152602e60248201527f45524331393637557067726164653a206e657720696d706c656d656e7461746960448201526d6f6e206973206e6f74205555505360901b60648201526084016200048a565b60008051602062002bc18339815191528114620015815760405162461bcd60e51b815260206004820152602960248201527f45524331393637557067726164653a20756e737570706f727465642070726f786044820152681a58589b195555525160ba1b60648201526084016200048a565b506200083d83838362001710565b6097546001600160a01b03163314620006ae5760405162461bcd60e51b815260206004820181905260248201527f4f776e61626c653a2063616c6c6572206973206e6f7420746865206f776e657260448201526064016200048a565b609780546001600160a01b038381166001600160a01b0319831681179093556040519116919082907f8be0079c531659141344cd1fd0a4f28419497f9722a3daafe3b4186f6b6457e090600090a35050565b600054610100900460ff16620016675760405162461bcd60e51b81526004016200048a90620021cc565b620006ae62001741565b6001600160a01b0381163b620016e05760405162461bcd60e51b815260206004820152602d60248201527f455243313936373a206e657720696d706c656d656e746174696f6e206973206e60448201526c1bdd08184818dbdb9d1c9858dd609a1b60648201526084016200048a565b60008051602062002bc183398151915280546001600160a01b0319166001600160a01b0392909216919091179055565b6200171b8362001776565b600082511180620017295750805b156200083d576200173b8383620017b8565b50505050565b600054610100900460ff166200176b5760405162461bcd60e51b81526004016200048a90620021cc565b620006ae33620015eb565b620017818162001671565b6040516001600160a01b038216907fbc7cd75a20ee27fd9adebab32041f755214dbc6bffa90cc0225b39da2e5c2d3b90600090a250565b60606001600160a01b0383163b620018225760405162461bcd60e51b815260206004820152602660248201527f416464726573733a2064656c65676174652063616c6c20746f206e6f6e2d636f6044820152651b9d1c9858dd60d21b60648201526084016200048a565b600080846001600160a01b0316846040516200183f919062001ff7565b600060405180830381855af49150503d80600081146200187c576040519150601f19603f3d011682016040523d82523d6000602084013e62001881565b606091505b5091509150620018ac828260405180606001604052806027815260200162002be160279139620018b5565b95945050505050565b60608315620018c6575081620018f3565b825115620018d75782518084602001fd5b8160405162461bcd60e51b81526004016200048a9190620020dd565b9392505050565b61072180620024a083390190565b8035620019158162002489565b919050565b60008083601f8401126200192d57600080fd5b50813567ffffffffffffffff8111156200194657600080fd5b6020830191508360208260051b85010111156200196257600080fd5b9250929050565b600082601f8301126200197b57600080fd5b81356020620019946200198e83620023dd565b620023a9565b80838252828201915082860187848660051b8901011115620019b557600080fd5b60005b85811015620019e1578135620019ce8162002489565b84529284019290840190600101620019b8565b5090979650505050505050565b600082601f83011262001a0057600080fd5b8135602062001a136200198e83620023dd565b80838252828201915082860187848660051b890101111562001a3457600080fd5b6000805b8681101562001a7c57823567ffffffffffffffff81111562001a58578283fd5b62001a688b88838d010162001a8a565b865250938501939185019160010162001a38565b509198975050505050505050565b600082601f83011262001a9c57600080fd5b813567ffffffffffffffff81111562001ab95762001ab962002473565b62001ace601f8201601f1916602001620023a9565b81815284602083860101111562001ae457600080fd5b816020850160208301376000918101602001919091529392505050565b60006020828403121562001b1457600080fd5b8135620018f38162002489565b60006020828403121562001b3457600080fd5b8151620018f38162002489565b600080600080600060a0868803121562001b5a57600080fd5b853562001b678162002489565b9450602086013562001b798162002489565b9350604086013562001b8b8162002489565b9250606086013562001b9d8162002489565b9150608086013562001baf8162002489565b809150509295509295909350565b60008060008060008060c0878903121562001bd757600080fd5b863562001be48162002489565b9550602087013562001bf68162002489565b9450604087013562001c088162002489565b9350606087013562001c1a8162002489565b9250608087013562001c2c8162002489565b915060a087013567ffffffffffffffff81111562001c4957600080fd5b62001c5789828a0162001a8a565b9150509295509295509295565b60008060008060008060008060e0898b03121562001c8157600080fd5b883562001c8e8162002489565b9750602089013562001ca08162002489565b9650604089013562001cb28162002489565b9550606089013562001cc48162002489565b9450608089013567ffffffffffffffff81111562001ce157600080fd5b62001cef8b828c016200191a565b90955093505060a089013562001d058162002489565b915060c089013562001d178162002489565b809150509295985092959890939650565b6000806040838503121562001d3c57600080fd5b823562001d498162002489565b9150602083013567ffffffffffffffff81111562001d6657600080fd5b62001d748582860162001a8a565b9150509250929050565b6000806020838503121562001d9257600080fd5b823567ffffffffffffffff81111562001daa57600080fd5b62001db8858286016200191a565b90969095509350505050565b60006020828403121562001dd757600080fd5b5051919050565b6000806040838503121562001df257600080fd5b823567ffffffffffffffff8082111562001e0b57600080fd5b9084019060e0828703121562001e2057600080fd5b62001e2a6200237d565b82358281111562001e3a57600080fd5b62001e488882860162001a8a565b82525060208301358281111562001e5e57600080fd5b62001e6c8882860162001a8a565b60208301525062001e806040840162001908565b60408201526060830135606082015260808301358281111562001ea257600080fd5b62001eb08882860162001a8a565b60808301525060a08301358281111562001ec957600080fd5b62001ed78882860162001a8a565b60a08301525060c08301358281111562001ef057600080fd5b62001efe8882860162001969565b60c0830152509350602085013591508082111562001f1b57600080fd5b5062001d7485828601620019ee565b600081518084526020808501945080840160005b8381101562001f655781516001600160a01b03168752958201959082019060010162001f3e565b509495945050505050565b600081518084526020808501808196508360051b8101915082860160005b8581101562001fbc57828403895262001fa984835162001fc9565b9885019893509084019060010162001f8e565b5091979650505050505050565b6000815180845262001fe381602086016020860162002404565b601f01601f19169290920160200192915050565b600082516200200b81846020870162002404565b9190910192915050565b6001600160a01b0388811682528781166020830152868116604083015285811660608301528481166080830152831660a082015260e060c08201819052600090620020639083018462001fc9565b9998505050505050505050565b600060018060a01b0380861683526060602084015262002094606084018662001f2a565b9150808416604084015250949350505050565b6001600160a01b0384168152606060208201819052600090620020cd9083018562001fc9565b9050826040830152949350505050565b602081526000620018f3602083018462001fc9565b60608152600062002107606083018662001fc9565b82810360208401526200211b818662001fc9565b91505060018060a01b0383166040830152949350505050565b6020808252602c908201527f46756e6374696f6e206d7573742062652063616c6c6564207468726f7567682060408201526b19195b1959d85d1958d85b1b60a21b606082015260800190565b6020808252602c908201527f46756e6374696f6e206d7573742062652063616c6c6564207468726f7567682060408201526b6163746976652070726f787960a01b606082015260800190565b6020808252602b908201527f496e697469616c697a61626c653a20636f6e7472616374206973206e6f74206960408201526a6e697469616c697a696e6760a81b606082015260800190565b60408152620022326040820184516001600160a01b03169052565b600060208401516200224f60608401826001600160a01b03169052565b5060408401516001600160a01b03811660808401525060608401516001600160a01b03811660a08401525060808401516001600160a01b03811660c08401525060a08401516001600160a01b03811660e08401525060c08401516101806101008181860152620022c46101c086018462001fc9565b925060e0870151603f19610120818887030181890152620022e6868462001fc9565b938a0151939550610140925062002307888401856001600160a01b03169052565b808a015193505061016081888703018189015262002326868562001fc9565b9550828a0151935081888703018589015262002343868562001fc9565b9550808a015194505080878603016101a088015250505062002366828262001f2a565b9150508281036020840152620018ac818562001f70565b60405160e0810167ffffffffffffffff81118282101715620023a357620023a362002473565b60405290565b604051601f8201601f1916810167ffffffffffffffff81118282101715620023d557620023d562002473565b604052919050565b600067ffffffffffffffff821115620023fa57620023fa62002473565b5060051b60200190565b60005b838110156200242157818101518382015260200162002407565b838111156200173b5750506000910152565b60006000198214156200245657634e487b7160e01b600052601160045260246000fd5b5060010190565b634e487b7160e01b600052603260045260246000fd5b634e487b7160e01b600052604160045260246000fd5b6001600160a01b03811681146200051957600080fdfe6080604052604051610721380380610721833981016040819052610022916102d2565b61002e82826000610035565b5050610431565b61003e8361006b565b60008251118061004b5750805b156100665761006483836100ab60201b6100291760201c565b505b505050565b610074816100d7565b6040516001600160a01b038216907fbc7cd75a20ee27fd9adebab32041f755214dbc6bffa90cc0225b39da2e5c2d3b90600090a250565b60606100d083836040518060600160405280602781526020016106fa602791396101a9565b9392505050565b6100ea8161028760201b6100551760201c565b6101515760405162461bcd60e51b815260206004820152602d60248201527f455243313936373a206e657720696d706c656d656e746174696f6e206973206e60448201526c1bdd08184818dbdb9d1c9858dd609a1b60648201526084015b60405180910390fd5b806101887f360894a13ba1a3210667c828492db98dca3e2076cc3735a920a3ca505d382bbc60001b61029660201b6100641760201c565b80546001600160a01b0319166001600160a01b039290921691909117905550565b60606001600160a01b0384163b6102115760405162461bcd60e51b815260206004820152602660248201527f416464726573733a2064656c65676174652063616c6c20746f206e6f6e2d636f6044820152651b9d1c9858dd60d21b6064820152608401610148565b600080856001600160a01b03168560405161022c91906103a0565b600060405180830381855af49150503d8060008114610267576040519150601f19603f3d011682016040523d82523d6000602084013e61026c565b606091505b50909250905061027d828286610299565b9695505050505050565b6001600160a01b03163b151590565b90565b606083156102a85750816100d0565b8251156102b85782518084602001fd5b8160405162461bcd60e51b815260040161014891906103bc565b600080604083850312156102e557600080fd5b82516001600160a01b03811681146102fc57600080fd5b60208401519092506001600160401b038082111561031957600080fd5b818501915085601f83011261032d57600080fd5b81518181111561033f5761033f61041b565b604051601f8201601f19908116603f011681019083821181831017156103675761036761041b565b8160405282815288602084870101111561038057600080fd5b6103918360208301602088016103ef565b80955050505050509250929050565b600082516103b28184602087016103ef565b9190910192915050565b60208152600082518060208401526103db8160408501602087016103ef565b601f01601f19169190910160400192915050565b60005b8381101561040a5781810151838201526020016103f2565b838111156100645750506000910152565b634e487b7160e01b600052604160045260246000fd5b6102ba806104406000396000f3fe60806040523661001357610011610017565b005b6100115b610027610022610067565b61009f565b565b606061004e838360405180606001604052806027815260200161025e602791396100c3565b9392505050565b6001600160a01b03163b151590565b90565b600061009a7f360894a13ba1a3210667c828492db98dca3e2076cc3735a920a3ca505d382bbc546001600160a01b031690565b905090565b3660008037600080366000845af43d6000803e8080156100be573d6000f35b3d6000fd5b60606001600160a01b0384163b6101305760405162461bcd60e51b815260206004820152602660248201527f416464726573733a2064656c65676174652063616c6c20746f206e6f6e2d636f6044820152651b9d1c9858dd60d21b60648201526084015b60405180910390fd5b600080856001600160a01b03168560405161014b91906101de565b600060405180830381855af49150503d8060008114610186576040519150601f19603f3d011682016040523d82523d6000602084013e61018b565b606091505b509150915061019b8282866101a5565b9695505050505050565b606083156101b457508161004e565b8251156101c45782518084602001fd5b8160405162461bcd60e51b815260040161012791906101fa565b600082516101f081846020870161022d565b9190910192915050565b602081526000825180602084015261021981604085016020870161022d565b601f01601f19169190910160400192915050565b60005b83811015610248578181015183820152602001610230565b83811115610257576000848401525b5050505056fe416464726573733a206c6f772d6c6576656c2064656c65676174652063616c6c206661696c6564a2646970667358221220fb537d1df0a2f3ea0050d30fb82ca020f06a83116d3853b9eda518a67b0c9be764736f6c63430008070033416464726573733a206c6f772d6c6576656c2064656c65676174652063616c6c206661696c6564360894a13ba1a3210667c828492db98dca3e2076cc3735a920a3ca505d382bbc416464726573733a206c6f772d6c6576656c2064656c65676174652063616c6c206661696c6564a264697066735822122010816d18e65eb050af85318e1cd6404492b80adf5f880f3ff57c57a34685fe1f64736f6c63430008070033",
  "devdoc": {
    "kind": "dev",
    "methods": {
      "constructor": {
        "custom:oz-upgrades-unsafe-allow": "constructor"
      },
      "owner()": {
        "details": "Returns the address of the current owner."
      },
      "proxiableUUID()": {
        "details": "Implementation of the ERC1822 {proxiableUUID} function. This returns the storage slot used by the implementation. It is used to validate that the this implementation remains valid after an upgrade. IMPORTANT: A proxy pointing at a proxiable contract should not be considered proxiable itself, because this risks bricking a proxy that upgrades to it, by delegating to itself until out of gas. Thus it is critical that this function revert if invoked through a proxy. This is guaranteed by the `notDelegated` modifier."
      },
      "renounceOwnership()": {
        "details": "Leaves the contract without owner. It will not be possible to call `onlyOwner` functions anymore. Can only be called by the current owner. NOTE: Renouncing ownership will leave the contract without an owner, thereby removing any functionality that is only available to the owner."
      },
      "transferOwnership(address)": {
        "details": "Transfers ownership of the contract to a new account (`newOwner`). Can only be called by the current owner."
      },
      "upgradeTo(address)": {
        "details": "Upgrade the implementation of the proxy to `newImplementation`. Calls {_authorizeUpgrade}. Emits an {Upgraded} event."
      },
      "upgradeToAndCall(address,bytes)": {
        "details": "Upgrade the implementation of the proxy to `newImplementation`, and subsequently execute the function call encoded in `data`. Calls {_authorizeUpgrade}. Emits an {Upgraded} event."
      }
    },
    "version": 1
  },
  "userdoc": {
    "kind": "user",
    "methods": {},
    "version": 1
  },
  "storageLayout": {
    "storage": [
      {
        "astId": 3247,
        "contract": "contracts/Adam.sol:Adam",
        "label": "_initialized",
        "offset": 0,
        "slot": "0",
        "type": "t_uint8"
      },
      {
        "astId": 3250,
        "contract": "contracts/Adam.sol:Adam",
        "label": "_initializing",
        "offset": 1,
        "slot": "0",
        "type": "t_bool"
      },
      {
        "astId": 3229,
        "contract": "contracts/Adam.sol:Adam",
        "label": "__gap",
        "offset": 0,
        "slot": "1",
        "type": "t_array(t_uint256)50_storage"
      },
      {
        "astId": 3526,
        "contract": "contracts/Adam.sol:Adam",
        "label": "__gap",
        "offset": 0,
        "slot": "51",
        "type": "t_array(t_uint256)50_storage"
      },
      {
        "astId": 8642,
        "contract": "contracts/Adam.sol:Adam",
        "label": "__gap",
        "offset": 0,
        "slot": "101",
        "type": "t_array(t_uint256)50_storage"
      },
      {
        "astId": 541,
        "contract": "contracts/Adam.sol:Adam",
        "label": "_owner",
        "offset": 0,
        "slot": "151",
        "type": "t_address"
      },
      {
        "astId": 661,
        "contract": "contracts/Adam.sol:Adam",
        "label": "__gap",
        "offset": 0,
        "slot": "152",
        "type": "t_array(t_uint256)49_storage"
      },
      {
        "astId": 20753,
        "contract": "contracts/Adam.sol:Adam",
        "label": "daoImplementation",
        "offset": 0,
        "slot": "201",
        "type": "t_address"
      },
      {
        "astId": 20755,
        "contract": "contracts/Adam.sol:Adam",
        "label": "membershipImplementation",
        "offset": 0,
        "slot": "202",
        "type": "t_address"
      },
      {
        "astId": 20757,
        "contract": "contracts/Adam.sol:Adam",
        "label": "liquidPoolImplementation",
        "offset": 0,
        "slot": "203",
        "type": "t_address"
      },
      {
        "astId": 20759,
        "contract": "contracts/Adam.sol:Adam",
        "label": "memberTokenImplementation",
        "offset": 0,
        "slot": "204",
        "type": "t_address"
      },
      {
        "astId": 20761,
        "contract": "contracts/Adam.sol:Adam",
        "label": "governFactory",
        "offset": 0,
        "slot": "205",
        "type": "t_address"
      },
      {
        "astId": 20763,
        "contract": "contracts/Adam.sol:Adam",
        "label": "team",
        "offset": 0,
        "slot": "206",
        "type": "t_address"
      },
      {
        "astId": 20767,
        "contract": "contracts/Adam.sol:Adam",
        "label": "budgetApprovals",
        "offset": 0,
        "slot": "207",
        "type": "t_mapping(t_address,t_bool)"
      },
      {
        "astId": 20771,
        "contract": "contracts/Adam.sol:Adam",
        "label": "daos",
        "offset": 0,
        "slot": "208",
        "type": "t_mapping(t_address,t_bool)"
      },
      {
        "astId": 21296,
        "contract": "contracts/Adam.sol:Adam",
        "label": "__gap",
        "offset": 0,
        "slot": "209",
        "type": "t_array(t_uint256)50_storage"
      }
    ],
    "types": {
      "t_address": {
        "encoding": "inplace",
        "label": "address",
        "numberOfBytes": "20"
      },
      "t_array(t_uint256)49_storage": {
        "base": "t_uint256",
        "encoding": "inplace",
        "label": "uint256[49]",
        "numberOfBytes": "1568"
      },
      "t_array(t_uint256)50_storage": {
        "base": "t_uint256",
        "encoding": "inplace",
        "label": "uint256[50]",
        "numberOfBytes": "1600"
      },
      "t_bool": {
        "encoding": "inplace",
        "label": "bool",
        "numberOfBytes": "1"
      },
      "t_mapping(t_address,t_bool)": {
        "encoding": "mapping",
        "key": "t_address",
        "label": "mapping(address => bool)",
        "numberOfBytes": "32",
        "value": "t_bool"
      },
      "t_uint256": {
        "encoding": "inplace",
        "label": "uint256",
        "numberOfBytes": "32"
      },
      "t_uint8": {
        "encoding": "inplace",
        "label": "uint8",
        "numberOfBytes": "1"
      }
    }
  }
}