{
  "address": "0x19aC5735A96cbd88Ea78833114AEd94Ac535020e",
  "abi": [
    {
      "inputs": [],
      "stateMutability": "nonpayable",
      "type": "constructor"
    },
    {
      "inputs": [
        {
          "internalType": "address",
          "name": "budgetApproval",
          "type": "address"
        }
      ],
      "name": "BudgetApprovalAlreadyInitialized",
      "type": "error"
    },
    {
      "inputs": [
        {
          "internalType": "address",
          "name": "budgetApproval",
          "type": "address"
        }
      ],
      "name": "BudgetApprovalNotFound",
      "type": "error"
    },
    {
      "inputs": [
        {
          "internalType": "address",
          "name": "_daoBeacon",
          "type": "address"
        }
      ],
      "name": "DaoBeaconAlreadyInitialized",
      "type": "error"
    },
    {
      "inputs": [
        {
          "internalType": "address",
          "name": "_contract",
          "type": "address"
        }
      ],
      "name": "InvalidContract",
      "type": "error"
    },
    {
      "inputs": [
        {
          "internalType": "address",
          "name": "priceGateway",
          "type": "address"
        }
      ],
      "name": "PriceGatewayAlreadyInitialized",
      "type": "error"
    },
    {
      "inputs": [
        {
          "internalType": "address",
          "name": "priceGateway",
          "type": "address"
        }
      ],
      "name": "PriceGatewayNotFound",
      "type": "error"
    },
    {
      "anonymous": false,
      "inputs": [
        {
          "indexed": false,
          "internalType": "address",
          "name": "budgetApproval",
          "type": "address"
        }
      ],
      "name": "AbandonBudgetApproval",
      "type": "event"
    },
    {
      "anonymous": false,
      "inputs": [
        {
          "indexed": false,
          "internalType": "address",
          "name": "priceGateway",
          "type": "address"
        }
      ],
      "name": "AbandonPriceGateway",
      "type": "event"
    },
    {
      "anonymous": false,
      "inputs": [
        {
          "indexed": false,
          "internalType": "address",
          "name": "previousAdmin",
          "type": "address"
        },
        {
          "indexed": false,
          "internalType": "address",
          "name": "newAdmin",
          "type": "address"
        }
      ],
      "name": "AdminChanged",
      "type": "event"
    },
    {
      "anonymous": false,
      "inputs": [
        {
          "indexed": true,
          "internalType": "address",
          "name": "beacon",
          "type": "address"
        }
      ],
      "name": "BeaconUpgraded",
      "type": "event"
    },
    {
      "anonymous": false,
      "inputs": [
        {
          "indexed": true,
          "internalType": "address",
          "name": "dao",
          "type": "address"
        },
        {
          "indexed": false,
          "internalType": "address",
          "name": "creator",
          "type": "address"
        },
        {
          "indexed": false,
          "internalType": "address",
          "name": "referer",
          "type": "address"
        }
      ],
      "name": "CreateDao",
      "type": "event"
    },
    {
      "anonymous": false,
      "inputs": [
        {
          "indexed": false,
          "internalType": "uint8",
          "name": "version",
          "type": "uint8"
        }
      ],
      "name": "Initialized",
      "type": "event"
    },
    {
      "anonymous": false,
      "inputs": [
        {
          "indexed": true,
          "internalType": "address",
          "name": "previousOwner",
          "type": "address"
        },
        {
          "indexed": true,
          "internalType": "address",
          "name": "newOwner",
          "type": "address"
        }
      ],
      "name": "OwnershipTransferred",
      "type": "event"
    },
    {
      "anonymous": false,
      "inputs": [
        {
          "indexed": true,
          "internalType": "address",
          "name": "_daoBeacon",
          "type": "address"
        },
        {
          "indexed": true,
          "internalType": "uint256",
          "name": "_index",
          "type": "uint256"
        },
        {
          "indexed": false,
          "internalType": "string",
          "name": "_name",
          "type": "string"
        }
      ],
      "name": "SetDaoBeacon",
      "type": "event"
    },
    {
      "anonymous": false,
      "inputs": [
        {
          "indexed": true,
          "internalType": "address",
          "name": "implementation",
          "type": "address"
        }
      ],
      "name": "Upgraded",
      "type": "event"
    },
    {
      "anonymous": false,
      "inputs": [
        {
          "indexed": false,
          "internalType": "address",
          "name": "budgetApproval",
          "type": "address"
        }
      ],
      "name": "WhitelistBudgetApproval",
      "type": "event"
    },
    {
      "anonymous": false,
      "inputs": [
        {
          "indexed": false,
          "internalType": "address",
          "name": "priceGateway",
          "type": "address"
        }
      ],
      "name": "WhitelistPriceGateway",
      "type": "event"
    },
    {
      "inputs": [
        {
          "internalType": "address[]",
          "name": "_budgetApprovals",
          "type": "address[]"
        }
      ],
      "name": "abandonBudgetApprovals",
      "outputs": [],
      "stateMutability": "nonpayable",
      "type": "function"
    },
    {
      "inputs": [
        {
          "internalType": "address[]",
          "name": "_priceGateways",
          "type": "address[]"
        }
      ],
      "name": "abandonPriceGateways",
      "outputs": [],
      "stateMutability": "nonpayable",
      "type": "function"
    },
    {
      "inputs": [
        {
          "internalType": "address",
          "name": "",
          "type": "address"
        }
      ],
      "name": "budgetApprovals",
      "outputs": [
        {
          "internalType": "bool",
          "name": "",
          "type": "bool"
        }
      ],
      "stateMutability": "view",
      "type": "function"
    },
    {
      "inputs": [
        {
          "internalType": "string",
          "name": "_name",
          "type": "string"
        },
        {
          "internalType": "string",
          "name": "_description",
          "type": "string"
        },
        {
          "internalType": "address",
          "name": "_baseCurrency",
          "type": "address"
        },
        {
          "internalType": "bytes[]",
          "name": "_data",
          "type": "bytes[]"
        },
        {
          "internalType": "address",
          "name": "_referer",
          "type": "address"
        }
      ],
      "name": "createDao",
      "outputs": [
        {
          "internalType": "address",
          "name": "",
          "type": "address"
        }
      ],
      "stateMutability": "nonpayable",
      "type": "function"
    },
    {
      "inputs": [],
      "name": "daoBeacon",
      "outputs": [
        {
          "internalType": "address",
          "name": "",
          "type": "address"
        }
      ],
      "stateMutability": "view",
      "type": "function"
    },
    {
      "inputs": [
        {
          "internalType": "address",
          "name": "",
          "type": "address"
        }
      ],
      "name": "daoBeaconIndex",
      "outputs": [
        {
          "internalType": "uint256",
          "name": "",
          "type": "uint256"
        }
      ],
      "stateMutability": "view",
      "type": "function"
    },
    {
      "inputs": [
        {
          "internalType": "address",
          "name": "",
          "type": "address"
        }
      ],
      "name": "daos",
      "outputs": [
        {
          "internalType": "bool",
          "name": "",
          "type": "bool"
        }
      ],
      "stateMutability": "view",
      "type": "function"
    },
    {
      "inputs": [
        {
          "internalType": "address",
          "name": "_daoBeacon",
          "type": "address"
        },
        {
          "internalType": "address[]",
          "name": "_budgetApprovalImplementations",
          "type": "address[]"
        },
        {
          "internalType": "address[]",
          "name": "_priceGatewayImplementations",
          "type": "address[]"
        }
      ],
      "name": "initialize",
      "outputs": [],
      "stateMutability": "nonpayable",
      "type": "function"
    },
    {
      "inputs": [],
      "name": "owner",
      "outputs": [
        {
          "internalType": "address",
          "name": "",
          "type": "address"
        }
      ],
      "stateMutability": "view",
      "type": "function"
    },
    {
      "inputs": [
        {
          "internalType": "address",
          "name": "",
          "type": "address"
        }
      ],
      "name": "priceGateways",
      "outputs": [
        {
          "internalType": "bool",
          "name": "",
          "type": "bool"
        }
      ],
      "stateMutability": "view",
      "type": "function"
    },
    {
      "inputs": [],
      "name": "proxiableUUID",
      "outputs": [
        {
          "internalType": "bytes32",
          "name": "",
          "type": "bytes32"
        }
      ],
      "stateMutability": "view",
      "type": "function"
    },
    {
      "inputs": [],
      "name": "renounceOwnership",
      "outputs": [],
      "stateMutability": "nonpayable",
      "type": "function"
    },
    {
      "inputs": [
        {
          "internalType": "address",
          "name": "_daoBeacon",
          "type": "address"
        }
      ],
      "name": "setDaoBeacon",
      "outputs": [],
      "stateMutability": "nonpayable",
      "type": "function"
    },
    {
      "inputs": [
        {
          "internalType": "address",
          "name": "newOwner",
          "type": "address"
        }
      ],
      "name": "transferOwnership",
      "outputs": [],
      "stateMutability": "nonpayable",
      "type": "function"
    },
    {
      "inputs": [
        {
          "internalType": "address",
          "name": "newImplementation",
          "type": "address"
        }
      ],
      "name": "upgradeTo",
      "outputs": [],
      "stateMutability": "nonpayable",
      "type": "function"
    },
    {
      "inputs": [
        {
          "internalType": "address",
          "name": "newImplementation",
          "type": "address"
        },
        {
          "internalType": "bytes",
          "name": "data",
          "type": "bytes"
        }
      ],
      "name": "upgradeToAndCall",
      "outputs": [],
      "stateMutability": "payable",
      "type": "function"
    },
    {
      "inputs": [
        {
          "internalType": "address[]",
          "name": "_budgetApprovals",
          "type": "address[]"
        }
      ],
      "name": "whitelistBudgetApprovals",
      "outputs": [],
      "stateMutability": "nonpayable",
      "type": "function"
    },
    {
      "inputs": [
        {
          "internalType": "address[]",
          "name": "_priceGateways",
          "type": "address[]"
        }
      ],
      "name": "whitelistPriceGateways",
      "outputs": [],
      "stateMutability": "nonpayable",
      "type": "function"
    }
  ],
  "transactionHash": "0x482133db678a231c9676f78c476731b6358e3acdccb8f9827f26e0f32f5995d6",
  "args": [],
  "numDeployments": 1,
  "solcInputHash": "ef20656ecbc715cad62fad9481a6f9c4",
  "bytecode": "0x60a06040523060601b60805234801561001757600080fd5b50610020610025565b6100e5565b600054610100900460ff16156100915760405162461bcd60e51b815260206004820152602760248201527f496e697469616c697a61626c653a20636f6e747261637420697320696e697469604482015266616c697a696e6760c81b606482015260840160405180910390fd5b60005460ff90811610156100e3576000805460ff191660ff9081179091556040519081527f7f26b83ff96e1f2b6a682f133852f6798a09c465da95921460cefb38474024989060200160405180910390a15b565b60805160601c61254961011f600039600081816104110152818161045d015281816106480152818161068b015261072701526125496000f3fe6080604052600436106200011f5760003560e01c80639113376411620000a1578063b78b13e5116200006c578063b78b13e5146200033e578063c0fe621b1462000363578063c25f3cf61462000388578063e543f1ed14620003bc578063f2fde38b14620003e157600080fd5b806391133764146200026f5780639d74686e14620002b4578063a240663e14620002d9578063a86470c6146200030d57600080fd5b806352d1902d11620000ee57806352d1902d14620001c65780636c87c73014620001ed578063715018a6146200021257806374bb8da6146200022a5780638da5cb5b146200024f57600080fd5b80632718194e14620001245780633659cfe614620001635780634a200fa5146200018a5780634f1ef28614620001af575b600080fd5b3480156200013157600080fd5b5060c95462000146906001600160a01b031681565b6040516001600160a01b0390911681526020015b60405180910390f35b3480156200017057600080fd5b506200018862000182366004620015bf565b62000406565b005b3480156200019757600080fd5b5062000188620001a9366004620015dd565b620004fb565b62000188620001c036600462001667565b6200063d565b348015620001d357600080fd5b50620001de6200071a565b6040519081526020016200015a565b348015620001fa57600080fd5b50620001466200020c36600462001762565b620007d0565b3480156200021f57600080fd5b506200018862000910565b3480156200023757600080fd5b50620001886200024936600462001702565b62000928565b3480156200025c57600080fd5b506097546001600160a01b031662000146565b3480156200027c57600080fd5b50620002a36200028e366004620015bf565b60cd6020526000908152604090205460ff1681565b60405190151581526020016200015a565b348015620002c157600080fd5b5062000188620002d336600462001702565b62000a24565b348015620002e657600080fd5b50620002a3620002f8366004620015bf565b60cc6020526000908152604090205460ff1681565b3480156200031a57600080fd5b50620001de6200032c366004620015bf565b60ca6020526000908152604090205481565b3480156200034b57600080fd5b50620001886200035d36600462001702565b62000b1b565b3480156200037057600080fd5b506200018862000382366004620015bf565b62000cba565b3480156200039557600080fd5b50620002a3620003a7366004620015bf565b60cb6020526000908152604090205460ff1681565b348015620003c957600080fd5b5062000188620003db36600462001702565b62000ccf565b348015620003ee57600080fd5b506200018862000400366004620015bf565b62000e03565b306001600160a01b037f00000000000000000000000000000000000000000000000000000000000000001614156200045b5760405162461bcd60e51b8152600401620004529062001a0b565b60405180910390fd5b7f00000000000000000000000000000000000000000000000000000000000000006001600160a01b0316620004a6600080516020620024cd833981519152546001600160a01b031690565b6001600160a01b031614620004cf5760405162461bcd60e51b8152600401620004529062001a57565b620004da8162000e7f565b60408051600080825260208201909252620004f89183919062000e89565b50565b600054610100900460ff16158080156200051c5750600054600160ff909116105b80620005385750303b15801562000538575060005460ff166001145b6200059d5760405162461bcd60e51b815260206004820152602e60248201527f496e697469616c697a61626c653a20636f6e747261637420697320616c72656160448201526d191e481a5b9a5d1a585b1a5e995960921b606482015260840162000452565b6000805460ff191660011790558015620005c1576000805461ff0019166101001790555b620005cb62001011565b620005d7858562000b1b565b620005e3838362000ccf565b620005ee8662001045565b801562000635576000805461ff0019169055604051600181527f7f26b83ff96e1f2b6a682f133852f6798a09c465da95921460cefb38474024989060200160405180910390a15b505050505050565b306001600160a01b037f0000000000000000000000000000000000000000000000000000000000000000161415620006895760405162461bcd60e51b8152600401620004529062001a0b565b7f00000000000000000000000000000000000000000000000000000000000000006001600160a01b0316620006d4600080516020620024cd833981519152546001600160a01b031690565b6001600160a01b031614620006fd5760405162461bcd60e51b8152600401620004529062001a57565b620007088262000e7f565b620007168282600162000e89565b5050565b6000306001600160a01b037f00000000000000000000000000000000000000000000000000000000000000001614620007bc5760405162461bcd60e51b815260206004820152603860248201527f555550535570677261646561626c653a206d757374206e6f742062652063616c60448201527f6c6564207468726f7567682064656c656761746563616c6c0000000000000000606482015260840162000452565b50600080516020620024cd83398151915290565b60c95460405160009182916001600160a01b0390911690620007f29062001500565b6001600160a01b039091168152604060208201819052600090820152606001604051809103906000f0801580156200082e573d6000803e3d6000fd5b5060405163feb98f2f60e01b81529091506001600160a01b0382169063feb98f2f906200086e9033908e908e908e908e908e908e908e90600401620018ec565b600060405180830381600087803b1580156200088957600080fd5b505af11580156200089e573d6000803e3d6000fd5b505050506001600160a01b03818116600081815260cb6020908152604091829020805460ff1916600117905581513381529387169084015290917f69f66a8438c362ff7ba75031a291215e38ebb06ca016ef2cf586b9060c9023f0910160405180910390a29998505050505050505050565b6200091a620011c9565b62000926600062001225565b565b62000932620011c9565b60005b8181101562000a1f57600083838381811062000955576200095562001bcb565b90506020020160208101906200096c9190620015bf565b6001600160a01b038116600090815260cc602052604090205490915060ff16620009b557604051638f08db6b60e01b81526001600160a01b038216600482015260240162000452565b6001600160a01b038116600081815260cc6020908152604091829020805460ff1916905590519182527f9bcb80306e21ea57390223f10dd1c5cefa785eb5985a7adc38e7ca5ff51a2fb3910160405180910390a1508062000a168162001b97565b91505062000935565b505050565b62000a2e620011c9565b60005b8181101562000a1f57600083838381811062000a515762000a5162001bcb565b905060200201602081019062000a689190620015bf565b6001600160a01b038116600090815260cd602052604090205490915060ff1662000ab157604051632cf48da360e21b81526001600160a01b038216600482015260240162000452565b6001600160a01b038116600081815260cd6020908152604091829020805460ff1916905590519182527fa92b054a812bfecbd4f30c94095e2f3e9fac88dbd1f1ff1602807efdd89c2f8c910160405180910390a1508062000b128162001b97565b91505062000a31565b62000b25620011c9565b60005b8181101562000a1f57600083838381811062000b485762000b4862001bcb565b905060200201602081019062000b5f9190620015bf565b90506001600160a01b0381163b62000b9657604051633b00592160e21b81526001600160a01b038216600482015260240162000452565b6001600160a01b038116600090815260cc602052604090205460ff1615156001141562000be257604051635d71c4cb60e01b81526001600160a01b038216600482015260240162000452565b600160cc600086868681811062000bfd5762000bfd62001bcb565b905060200201602081019062000c149190620015bf565b6001600160a01b031681526020810191909152604001600020805460ff19169115159190911790557f398b08b0a1d9aec4b7246b4b9d1aa8bb17eb661955c1e5eab31bbab77c714b2284848481811062000c725762000c7262001bcb565b905060200201602081019062000c899190620015bf565b6040516001600160a01b03909116815260200160405180910390a1508062000cb18162001b97565b91505062000b28565b62000cc4620011c9565b620004f88162001045565b62000cd9620011c9565b60005b8181101562000a1f57600083838381811062000cfc5762000cfc62001bcb565b905060200201602081019062000d139190620015bf565b90506001600160a01b0381163b62000d4a57604051633b00592160e21b81526001600160a01b038216600482015260240162000452565b6001600160a01b038116600090815260cd602052604090205460ff1615156001141562000d96576040516316e2596160e01b81526001600160a01b038216600482015260240162000452565b6001600160a01b038116600081815260cd6020908152604091829020805460ff1916600117905590519182527fd5bab054ac36d8323733c51267caefb6a2765341a6da6f2ec59cd1af2b98fd7f910160405180910390a1508062000dfa8162001b97565b91505062000cdc565b62000e0d620011c9565b6001600160a01b03811662000e745760405162461bcd60e51b815260206004820152602660248201527f4f776e61626c653a206e6577206f776e657220697320746865207a65726f206160448201526564647265737360d01b606482015260840162000452565b620004f88162001225565b620004f8620011c9565b7f4910fdfa16fed3260ed0e7147f7cc6da11a60208b5b9406d12a635614ffd91435460ff161562000ebf5762000a1f8362001277565b826001600160a01b03166352d1902d6040518163ffffffff1660e01b815260040160206040518083038186803b15801562000ef957600080fd5b505afa92505050801562000f2c575060408051601f3d908101601f1916820190925262000f299181019062001748565b60015b62000f915760405162461bcd60e51b815260206004820152602e60248201527f45524331393637557067726164653a206e657720696d706c656d656e7461746960448201526d6f6e206973206e6f74205555505360901b606482015260840162000452565b600080516020620024cd8339815191528114620010035760405162461bcd60e51b815260206004820152602960248201527f45524331393637557067726164653a20756e737570706f727465642070726f786044820152681a58589b195555525160ba1b606482015260840162000452565b5062000a1f83838362001316565b600054610100900460ff166200103b5760405162461bcd60e51b8152600401620004529062001aa3565b6200092662001347565b6001600160a01b0381163b6200107a57604051633b00592160e21b81526001600160a01b038216600482015260240162000452565b6001600160a01b038116600090815260ca602052604090205415620010be57604051633f3f72f960e01b81526001600160a01b038216600482015260240162000452565b60c9546001600160a01b0316600090815260ca6020526040812054620010e690600162001b4d565b60c980546001600160a01b0319166001600160a01b038516908117909155600081815260ca602052604080822084905580516306fdde0360e01b8152905193945084937f395be864fc121ba2d867d97741f65efe52b793413dd8e210a6e65c58ef44c20d9284926306fdde039260048083019392829003018186803b1580156200116f57600080fd5b505afa15801562001184573d6000803e3d6000fd5b505050506040513d6000823e601f3d908101601f19168201604052620011ae91908101906200182e565b604051620011bd9190620019d6565b60405180910390a35050565b6097546001600160a01b03163314620009265760405162461bcd60e51b815260206004820181905260248201527f4f776e61626c653a2063616c6c6572206973206e6f7420746865206f776e6572604482015260640162000452565b609780546001600160a01b038381166001600160a01b0319831681179093556040519116919082907f8be0079c531659141344cd1fd0a4f28419497f9722a3daafe3b4186f6b6457e090600090a35050565b6001600160a01b0381163b620012e65760405162461bcd60e51b815260206004820152602d60248201527f455243313936373a206e657720696d706c656d656e746174696f6e206973206e60448201526c1bdd08184818dbdb9d1c9858dd609a1b606482015260840162000452565b600080516020620024cd83398151915280546001600160a01b0319166001600160a01b0392909216919091179055565b62001321836200137c565b6000825111806200132f5750805b1562000a1f57620013418383620013be565b50505050565b600054610100900460ff16620013715760405162461bcd60e51b8152600401620004529062001aa3565b620009263362001225565b620013878162001277565b6040516001600160a01b038216907fbc7cd75a20ee27fd9adebab32041f755214dbc6bffa90cc0225b39da2e5c2d3b90600090a250565b60606001600160a01b0383163b620014285760405162461bcd60e51b815260206004820152602660248201527f416464726573733a2064656c65676174652063616c6c20746f206e6f6e2d636f6044820152651b9d1c9858dd60d21b606482015260840162000452565b600080846001600160a01b031684604051620014459190620018ce565b600060405180830381855af49150503d806000811462001482576040519150601f19603f3d011682016040523d82523d6000602084013e62001487565b606091505b5091509150620014b28282604051806060016040528060278152602001620024ed60279139620014bb565b95945050505050565b60608315620014cc575081620014f9565b825115620014dd5782518084602001fd5b8160405162461bcd60e51b8152600401620004529190620019d6565b9392505050565b6108d58062001bf883390190565b80356001600160a01b03811681146200152657600080fd5b919050565b60008083601f8401126200153e57600080fd5b50813567ffffffffffffffff8111156200155757600080fd5b6020830191508360208260051b85010111156200157357600080fd5b9250929050565b60008083601f8401126200158d57600080fd5b50813567ffffffffffffffff811115620015a657600080fd5b6020830191508360208285010111156200157357600080fd5b600060208284031215620015d257600080fd5b620014f9826200150e565b600080600080600060608688031215620015f657600080fd5b62001601866200150e565b9450602086013567ffffffffffffffff808211156200161f57600080fd5b6200162d89838a016200152b565b909650945060408801359150808211156200164757600080fd5b5062001656888289016200152b565b969995985093965092949392505050565b600080604083850312156200167b57600080fd5b62001686836200150e565b9150602083013567ffffffffffffffff811115620016a357600080fd5b8301601f81018513620016b557600080fd5b8035620016cc620016c68262001b22565b62001aee565b818152866020838501011115620016e257600080fd5b816020840160208301376000602083830101528093505050509250929050565b600080602083850312156200171657600080fd5b823567ffffffffffffffff8111156200172e57600080fd5b6200173c858286016200152b565b90969095509350505050565b6000602082840312156200175b57600080fd5b5051919050565b60008060008060008060008060a0898b0312156200177f57600080fd5b883567ffffffffffffffff808211156200179857600080fd5b620017a68c838d016200157a565b909a50985060208b0135915080821115620017c057600080fd5b620017ce8c838d016200157a565b9098509650869150620017e460408c016200150e565b955060608b0135915080821115620017fb57600080fd5b506200180a8b828c016200152b565b90945092506200181f905060808a016200150e565b90509295985092959890939650565b6000602082840312156200184157600080fd5b815167ffffffffffffffff8111156200185957600080fd5b8201601f810184136200186b57600080fd5b80516200187c620016c68262001b22565b8181528560208385010111156200189257600080fd5b620014b282602083016020860162001b68565b81835281816020850137506000828201602090810191909152601f909101601f19169091010190565b60008251620018e281846020870162001b68565b9190910192915050565b600060018060a01b03808b168352602060a0818501526200191260a085018b8d620018a5565b848103604086015262001927818a8c620018a5565b928816606086015250838203608085015284825280820191600586901b810182018760005b88811015620019c257838303601f190186528135368b9003601e190181126200197457600080fd5b8a01803567ffffffffffffffff8111156200198e57600080fd5b8036038c13156200199e57600080fd5b620019ad8582898501620018a5565b9787019794505050908401906001016200194c565b50909e9d5050505050505050505050505050565b6020815260008251806020840152620019f781604085016020870162001b68565b601f01601f19169190910160400192915050565b6020808252602c908201527f46756e6374696f6e206d7573742062652063616c6c6564207468726f7567682060408201526b19195b1959d85d1958d85b1b60a21b606082015260800190565b6020808252602c908201527f46756e6374696f6e206d7573742062652063616c6c6564207468726f7567682060408201526b6163746976652070726f787960a01b606082015260800190565b6020808252602b908201527f496e697469616c697a61626c653a20636f6e7472616374206973206e6f74206960408201526a6e697469616c697a696e6760a81b606082015260800190565b604051601f8201601f1916810167ffffffffffffffff8111828210171562001b1a5762001b1a62001be1565b604052919050565b600067ffffffffffffffff82111562001b3f5762001b3f62001be1565b50601f01601f191660200190565b6000821982111562001b635762001b6362001bb5565b500190565b60005b8381101562001b8557818101518382015260200162001b6b565b83811115620013415750506000910152565b600060001982141562001bae5762001bae62001bb5565b5060010190565b634e487b7160e01b600052601160045260246000fd5b634e487b7160e01b600052603260045260246000fd5b634e487b7160e01b600052604160045260246000fdfe60806040526040516108d53803806108d583398101604081905261002291610348565b61002b8261012c565b6040516329e20ef560e11b81527f0eb5315aabe0b67a4ffbc3e46ecabf1b111df8b819059d7bd494e073ea45e5c460048201526000906001600160a01b038416906353c41dea9060240160206040518083038186803b15801561008d57600080fd5b505afa1580156100a1573d6000803e3d6000fd5b505050506040513d601f19601f820116820180604052508101906100c5919061032d565b90506100da816101bc60201b6100b41760201c565b61010757604051633b00592160e21b81526001600160a01b03821660048201526024015b60405180910390fd5b8151156101245761012281836101cb60201b6100c31760201c565b505b50505061049d565b61013f816101bc60201b6100b41760201c565b61016757604051633b00592160e21b81526001600160a01b03821660048201526024016100fe565b8061019b7f5c594ae595a67acd63f90ec696e24b8e16d4f3fd9738a913e57df541bd1365726101f760201b6100ef1760201c565b80546001600160a01b0319166001600160a01b039290921691909117905550565b6001600160a01b03163b151590565b60606101f083836040518060600160405280602781526020016108ae602791396101fa565b9392505050565b90565b60606001600160a01b0384163b6102625760405162461bcd60e51b815260206004820152602660248201527f416464726573733a2064656c65676174652063616c6c20746f206e6f6e2d636f6044820152651b9d1c9858dd60d21b60648201526084016100fe565b600080856001600160a01b03168560405161027d9190610408565b600060405180830381855af49150503d80600081146102b8576040519150601f19603f3d011682016040523d82523d6000602084013e6102bd565b606091505b5090925090506102ce8282866102d8565b9695505050505050565b606083156102e75750816101f0565b8251156102f75782518084602001fd5b8160405162461bcd60e51b81526004016100fe9190610424565b80516001600160a01b038116811461032857600080fd5b919050565b60006020828403121561033f57600080fd5b6101f082610311565b6000806040838503121561035b57600080fd5b61036483610311565b60208401519092506001600160401b038082111561038157600080fd5b818501915085601f83011261039557600080fd5b8151818111156103a7576103a7610487565b604051601f8201601f19908116603f011681019083821181831017156103cf576103cf610487565b816040528281528860208487010111156103e857600080fd5b6103f9836020830160208801610457565b80955050505050509250929050565b6000825161041a818460208701610457565b9190910192915050565b6020815260008251806020840152610443816040850160208701610457565b601f01601f19169190910160400192915050565b60005b8381101561047257818101518382015260200161045a565b83811115610481576000848401525b50505050565b634e487b7160e01b600052604160045260246000fd5b610402806104ac6000396000f3fe6080604052600436106100225760003560e01c80632718194e1461003957610031565b366100315761002f61006a565b005b61002f61006a565b34801561004557600080fd5b5061004e61007c565b6040516001600160a01b03909116815260200160405180910390f35b61007a6100756100f2565b6101be565b565b60006100af7f5c594ae595a67acd63f90ec696e24b8e16d4f3fd9738a913e57df541bd136572546001600160a01b031690565b905090565b6001600160a01b03163b151590565b60606100e883836040518060600160405280602781526020016103a6602791396101e2565b9392505050565b90565b60006101257f5c594ae595a67acd63f90ec696e24b8e16d4f3fd9738a913e57df541bd136572546001600160a01b031690565b6040516329e20ef560e11b81527f0eb5315aabe0b67a4ffbc3e46ecabf1b111df8b819059d7bd494e073ea45e5c460048201526001600160a01b0391909116906353c41dea9060240160206040518083038186803b15801561018657600080fd5b505afa15801561019a573d6000803e3d6000fd5b505050506040513d601f19601f820116820180604052508101906100af91906102fd565b3660008037600080366000845af43d6000803e8080156101dd573d6000f35b3d6000fd5b60606001600160a01b0384163b61024f5760405162461bcd60e51b815260206004820152602660248201527f416464726573733a2064656c65676174652063616c6c20746f206e6f6e2d636f6044820152651b9d1c9858dd60d21b60648201526084015b60405180910390fd5b600080856001600160a01b03168560405161026a9190610326565b600060405180830381855af49150503d80600081146102a5576040519150601f19603f3d011682016040523d82523d6000602084013e6102aa565b606091505b50915091506102ba8282866102c4565b9695505050505050565b606083156102d35750816100e8565b8251156102e35782518084602001fd5b8160405162461bcd60e51b81526004016102469190610342565b60006020828403121561030f57600080fd5b81516001600160a01b03811681146100e857600080fd5b60008251610338818460208701610375565b9190910192915050565b6020815260008251806020840152610361816040850160208701610375565b601f01601f19169190910160400192915050565b60005b83811015610390578181015183820152602001610378565b8381111561039f576000848401525b5050505056fe416464726573733a206c6f772d6c6576656c2064656c65676174652063616c6c206661696c6564a2646970667358221220098cb0aeb8f413afdab841caefe63cc5a5c49c8e89e2c2789f6fa20632ec061364736f6c63430008070033416464726573733a206c6f772d6c6576656c2064656c65676174652063616c6c206661696c6564360894a13ba1a3210667c828492db98dca3e2076cc3735a920a3ca505d382bbc416464726573733a206c6f772d6c6576656c2064656c65676174652063616c6c206661696c6564a26469706673582212200138a9cc7857c6c8e9fefd5aba94c502969914237896b37154b8d2e8600f41ee64736f6c63430008070033",
  "devdoc": {
    "kind": "dev",
    "methods": {
      "constructor": {
        "custom:oz-upgrades-unsafe-allow": "constructor"
      },
      "owner()": {
        "details": "Returns the address of the current owner."
      },
      "proxiableUUID()": {
        "details": "Implementation of the ERC1822 {proxiableUUID} function. This returns the storage slot used by the implementation. It is used to validate that the this implementation remains valid after an upgrade. IMPORTANT: A proxy pointing at a proxiable contract should not be considered proxiable itself, because this risks bricking a proxy that upgrades to it, by delegating to itself until out of gas. Thus it is critical that this function revert if invoked through a proxy. This is guaranteed by the `notDelegated` modifier."
      },
      "renounceOwnership()": {
        "details": "Leaves the contract without owner. It will not be possible to call `onlyOwner` functions anymore. Can only be called by the current owner. NOTE: Renouncing ownership will leave the contract without an owner, thereby removing any functionality that is only available to the owner."
      },
      "transferOwnership(address)": {
        "details": "Transfers ownership of the contract to a new account (`newOwner`). Can only be called by the current owner."
      },
      "upgradeTo(address)": {
        "details": "Upgrade the implementation of the proxy to `newImplementation`. Calls {_authorizeUpgrade}. Emits an {Upgraded} event."
      },
      "upgradeToAndCall(address,bytes)": {
        "details": "Upgrade the implementation of the proxy to `newImplementation`, and subsequently execute the function call encoded in `data`. Calls {_authorizeUpgrade}. Emits an {Upgraded} event."
      }
    },
    "version": 1
  },
  "userdoc": {
    "kind": "user",
    "methods": {},
    "version": 1
  },
  "storageLayout": {
    "storage": [
      {
        "astId": 3247,
        "contract": "contracts/Adam.sol:Adam",
        "label": "_initialized",
        "offset": 0,
        "slot": "0",
        "type": "t_uint8"
      },
      {
        "astId": 3250,
        "contract": "contracts/Adam.sol:Adam",
        "label": "_initializing",
        "offset": 1,
        "slot": "0",
        "type": "t_bool"
      },
      {
        "astId": 3229,
        "contract": "contracts/Adam.sol:Adam",
        "label": "__gap",
        "offset": 0,
        "slot": "1",
        "type": "t_array(t_uint256)50_storage"
      },
      {
        "astId": 3526,
        "contract": "contracts/Adam.sol:Adam",
        "label": "__gap",
        "offset": 0,
        "slot": "51",
        "type": "t_array(t_uint256)50_storage"
      },
      {
        "astId": 8642,
        "contract": "contracts/Adam.sol:Adam",
        "label": "__gap",
        "offset": 0,
        "slot": "101",
        "type": "t_array(t_uint256)50_storage"
      },
      {
        "astId": 541,
        "contract": "contracts/Adam.sol:Adam",
        "label": "_owner",
        "offset": 0,
        "slot": "151",
        "type": "t_address"
      },
      {
        "astId": 661,
        "contract": "contracts/Adam.sol:Adam",
        "label": "__gap",
        "offset": 0,
        "slot": "152",
        "type": "t_array(t_uint256)49_storage"
      },
      {
        "astId": 21194,
        "contract": "contracts/Adam.sol:Adam",
        "label": "daoBeacon",
        "offset": 0,
        "slot": "201",
        "type": "t_address"
      },
      {
        "astId": 21198,
        "contract": "contracts/Adam.sol:Adam",
        "label": "daoBeaconIndex",
        "offset": 0,
        "slot": "202",
        "type": "t_mapping(t_address,t_uint256)"
      },
      {
        "astId": 21202,
        "contract": "contracts/Adam.sol:Adam",
        "label": "daos",
        "offset": 0,
        "slot": "203",
        "type": "t_mapping(t_address,t_bool)"
      },
      {
        "astId": 21206,
        "contract": "contracts/Adam.sol:Adam",
        "label": "budgetApprovals",
        "offset": 0,
        "slot": "204",
        "type": "t_mapping(t_address,t_bool)"
      },
      {
        "astId": 21210,
        "contract": "contracts/Adam.sol:Adam",
        "label": "priceGateways",
        "offset": 0,
        "slot": "205",
        "type": "t_mapping(t_address,t_bool)"
      },
      {
        "astId": 21672,
        "contract": "contracts/Adam.sol:Adam",
        "label": "__gap",
        "offset": 0,
        "slot": "206",
        "type": "t_array(t_uint256)50_storage"
      }
    ],
    "types": {
      "t_address": {
        "encoding": "inplace",
        "label": "address",
        "numberOfBytes": "20"
      },
      "t_array(t_uint256)49_storage": {
        "base": "t_uint256",
        "encoding": "inplace",
        "label": "uint256[49]",
        "numberOfBytes": "1568"
      },
      "t_array(t_uint256)50_storage": {
        "base": "t_uint256",
        "encoding": "inplace",
        "label": "uint256[50]",
        "numberOfBytes": "1600"
      },
      "t_bool": {
        "encoding": "inplace",
        "label": "bool",
        "numberOfBytes": "1"
      },
      "t_mapping(t_address,t_bool)": {
        "encoding": "mapping",
        "key": "t_address",
        "label": "mapping(address => bool)",
        "numberOfBytes": "32",
        "value": "t_bool"
      },
      "t_mapping(t_address,t_uint256)": {
        "encoding": "mapping",
        "key": "t_address",
        "label": "mapping(address => uint256)",
        "numberOfBytes": "32",
        "value": "t_uint256"
      },
      "t_uint256": {
        "encoding": "inplace",
        "label": "uint256",
        "numberOfBytes": "32"
      },
      "t_uint8": {
        "encoding": "inplace",
        "label": "uint8",
        "numberOfBytes": "1"
      }
    }
  }
}