{
  "address": "0xe7361E5726406181C0aeFd8779c85486f3A30EB9",
  "abi": [
    {
      "inputs": [],
      "stateMutability": "nonpayable",
      "type": "constructor"
    },
    {
      "inputs": [
        {
          "internalType": "address",
          "name": "budgetApproval",
          "type": "address"
        }
      ],
      "name": "BudgetApprovalNotExists",
      "type": "error"
    },
    {
      "inputs": [
        {
          "internalType": "address",
          "name": "template",
          "type": "address"
        }
      ],
      "name": "BudgetApprovalTemplateNotWhitelisted",
      "type": "error"
    },
    {
      "inputs": [
        {
          "internalType": "bytes",
          "name": "result",
          "type": "bytes"
        }
      ],
      "name": "ContractCallFail",
      "type": "error"
    },
    {
      "inputs": [
        {
          "internalType": "string",
          "name": "gName",
          "type": "string"
        }
      ],
      "name": "GovernAlreadyExists",
      "type": "error"
    },
    {
      "inputs": [
        {
          "internalType": "uint256",
          "name": "count1",
          "type": "uint256"
        },
        {
          "internalType": "uint256",
          "name": "count2",
          "type": "uint256"
        }
      ],
      "name": "InputLengthNotMatch",
      "type": "error"
    },
    {
      "inputs": [],
      "name": "InsufficientDeposit",
      "type": "error"
    },
    {
      "inputs": [
        {
          "internalType": "address",
          "name": "addr",
          "type": "address"
        }
      ],
      "name": "InvalidAddress",
      "type": "error"
    },
    {
      "inputs": [
        {
          "internalType": "address",
          "name": "_contract",
          "type": "address"
        }
      ],
      "name": "InvalidContract",
      "type": "error"
    },
    {
      "inputs": [],
      "name": "OnlyBudgetApproval",
      "type": "error"
    },
    {
      "inputs": [
        {
          "internalType": "bytes32",
          "name": "contractName",
          "type": "bytes32"
        }
      ],
      "name": "PluginAlreadyExists",
      "type": "error"
    },
    {
      "inputs": [
        {
          "internalType": "bytes32",
          "name": "contractName",
          "type": "bytes32"
        }
      ],
      "name": "PluginNotAllowed",
      "type": "error"
    },
    {
      "inputs": [
        {
          "internalType": "bytes32",
          "name": "contractName",
          "type": "bytes32"
        }
      ],
      "name": "PluginRequired",
      "type": "error"
    },
    {
      "inputs": [],
      "name": "Unauthorized",
      "type": "error"
    },
    {
      "inputs": [],
      "name": "UnsupportedDowngrade",
      "type": "error"
    },
    {
      "anonymous": false,
      "inputs": [
        {
          "indexed": false,
          "internalType": "address",
          "name": "token",
          "type": "address"
        },
        {
          "indexed": false,
          "internalType": "uint256",
          "name": "minTokenToAdmit",
          "type": "uint256"
        },
        {
          "indexed": false,
          "internalType": "uint256",
          "name": "tokenId",
          "type": "uint256"
        },
        {
          "indexed": false,
          "internalType": "bool",
          "name": "isMemberToken",
          "type": "bool"
        }
      ],
      "name": "AddAdmissionToken",
      "type": "event"
    },
    {
      "anonymous": false,
      "inputs": [
        {
          "indexed": false,
          "internalType": "address",
          "name": "token",
          "type": "address"
        }
      ],
      "name": "AllowDepositToken",
      "type": "event"
    },
    {
      "anonymous": false,
      "inputs": [
        {
          "indexed": false,
          "internalType": "address",
          "name": "budgetApproval",
          "type": "address"
        },
        {
          "indexed": false,
          "internalType": "bytes",
          "name": "data",
          "type": "bytes"
        }
      ],
      "name": "CreateBudgetApproval",
      "type": "event"
    },
    {
      "anonymous": false,
      "inputs": [
        {
          "indexed": false,
          "internalType": "string",
          "name": "name",
          "type": "string"
        },
        {
          "indexed": false,
          "internalType": "address",
          "name": "govern",
          "type": "address"
        },
        {
          "indexed": false,
          "internalType": "address",
          "name": "voteToken",
          "type": "address"
        }
      ],
      "name": "CreateGovern",
      "type": "event"
    },
    {
      "anonymous": false,
      "inputs": [
        {
          "indexed": false,
          "internalType": "address",
          "name": "account",
          "type": "address"
        },
        {
          "indexed": false,
          "internalType": "uint256",
          "name": "depositAmount",
          "type": "uint256"
        }
      ],
      "name": "CreateMember",
      "type": "event"
    },
    {
      "anonymous": false,
      "inputs": [
        {
          "indexed": false,
          "internalType": "address",
          "name": "token",
          "type": "address"
        }
      ],
      "name": "CreateMemberToken",
      "type": "event"
    },
    {
      "anonymous": false,
      "inputs": [
        {
          "indexed": false,
          "internalType": "bytes32",
          "name": "contractName",
          "type": "bytes32"
        },
        {
          "indexed": false,
          "internalType": "address",
          "name": "plugin",
          "type": "address"
        }
      ],
      "name": "CreatePlugin",
      "type": "event"
    },
    {
      "anonymous": false,
      "inputs": [
        {
          "indexed": false,
          "internalType": "address",
          "name": "account",
          "type": "address"
        },
        {
          "indexed": false,
          "internalType": "uint256",
          "name": "amount",
          "type": "uint256"
        }
      ],
      "name": "Deposit",
      "type": "event"
    },
    {
      "anonymous": false,
      "inputs": [
        {
          "indexed": false,
          "internalType": "address",
          "name": "budgetApproval",
          "type": "address"
        },
        {
          "indexed": false,
          "internalType": "bytes",
          "name": "data",
          "type": "bytes"
        }
      ],
      "name": "ExecuteByBudgetApproval",
      "type": "event"
    },
    {
      "anonymous": false,
      "inputs": [
        {
          "indexed": false,
          "internalType": "uint8",
          "name": "version",
          "type": "uint8"
        }
      ],
      "name": "Initialized",
      "type": "event"
    },
    {
      "anonymous": false,
      "inputs": [
        {
          "indexed": false,
          "internalType": "address",
          "name": "token",
          "type": "address"
        }
      ],
      "name": "RemoveAdmissionToken",
      "type": "event"
    },
    {
      "anonymous": false,
      "inputs": [
        {
          "indexed": false,
          "internalType": "address",
          "name": "budgetApproval",
          "type": "address"
        }
      ],
      "name": "RevokeBudgetApproval",
      "type": "event"
    },
    {
      "anonymous": false,
      "inputs": [
        {
          "indexed": false,
          "internalType": "address",
          "name": "owner",
          "type": "address"
        },
        {
          "indexed": false,
          "internalType": "uint256",
          "name": "time",
          "type": "uint256"
        }
      ],
      "name": "SetFirstDepositTime",
      "type": "event"
    },
    {
      "anonymous": false,
      "inputs": [
        {
          "indexed": false,
          "internalType": "string",
          "name": "description",
          "type": "string"
        }
      ],
      "name": "UpdateDescription",
      "type": "event"
    },
    {
      "anonymous": false,
      "inputs": [
        {
          "indexed": false,
          "internalType": "uint256",
          "name": "locktime",
          "type": "uint256"
        }
      ],
      "name": "UpdateLocktime",
      "type": "event"
    },
    {
      "anonymous": false,
      "inputs": [
        {
          "indexed": false,
          "internalType": "string",
          "name": "logoCID",
          "type": "string"
        }
      ],
      "name": "UpdateLogoCID",
      "type": "event"
    },
    {
      "anonymous": false,
      "inputs": [
        {
          "indexed": false,
          "internalType": "uint256",
          "name": "amount",
          "type": "uint256"
        }
      ],
      "name": "UpdateMinDepositAmount",
      "type": "event"
    },
    {
      "anonymous": false,
      "inputs": [
        {
          "indexed": false,
          "internalType": "string",
          "name": "newName",
          "type": "string"
        }
      ],
      "name": "UpdateName",
      "type": "event"
    },
    {
      "anonymous": false,
      "inputs": [
        {
          "indexed": false,
          "internalType": "address",
          "name": "daoBeacon",
          "type": "address"
        }
      ],
      "name": "UpgradeDaoBeacon",
      "type": "event"
    },
    {
      "anonymous": false,
      "inputs": [
        {
          "indexed": false,
          "internalType": "uint256",
          "name": "tokenId",
          "type": "uint256"
        }
      ],
      "name": "WhitelistTeam",
      "type": "event"
    },
    {
      "inputs": [],
      "name": "accountingSystem",
      "outputs": [
        {
          "internalType": "address",
          "name": "",
          "type": "address"
        }
      ],
      "stateMutability": "view",
      "type": "function"
    },
    {
      "inputs": [],
      "name": "adam",
      "outputs": [
        {
          "internalType": "address",
          "name": "",
          "type": "address"
        }
      ],
      "stateMutability": "view",
      "type": "function"
    },
    {
      "inputs": [
        {
          "internalType": "address[]",
          "name": "erc20s",
          "type": "address[]"
        }
      ],
      "name": "addAssets",
      "outputs": [],
      "stateMutability": "nonpayable",
      "type": "function"
    },
    {
      "inputs": [
        {
          "internalType": "address",
          "name": "account",
          "type": "address"
        },
        {
          "internalType": "uint256",
          "name": "amount",
          "type": "uint256"
        }
      ],
      "name": "afterDeposit",
      "outputs": [],
      "stateMutability": "nonpayable",
      "type": "function"
    },
    {
      "inputs": [],
      "name": "baseCurrency",
      "outputs": [
        {
          "internalType": "address",
          "name": "",
          "type": "address"
        }
      ],
      "stateMutability": "view",
      "type": "function"
    },
    {
      "inputs": [
        {
          "internalType": "address",
          "name": "template",
          "type": "address"
        }
      ],
      "name": "budgetApprovals",
      "outputs": [
        {
          "internalType": "bool",
          "name": "",
          "type": "bool"
        }
      ],
      "stateMutability": "view",
      "type": "function"
    },
    {
      "inputs": [
        {
          "internalType": "address",
          "name": "account",
          "type": "address"
        }
      ],
      "name": "byPassGovern",
      "outputs": [
        {
          "internalType": "bool",
          "name": "",
          "type": "bool"
        }
      ],
      "stateMutability": "view",
      "type": "function"
    },
    {
      "inputs": [
        {
          "internalType": "address",
          "name": "priceGateway",
          "type": "address"
        }
      ],
      "name": "canAddPriceGateway",
      "outputs": [
        {
          "internalType": "bool",
          "name": "",
          "type": "bool"
        }
      ],
      "stateMutability": "view",
      "type": "function"
    },
    {
      "inputs": [
        {
          "internalType": "address",
          "name": "budgetApproval",
          "type": "address"
        }
      ],
      "name": "canCreateBudgetApproval",
      "outputs": [
        {
          "internalType": "bool",
          "name": "",
          "type": "bool"
        }
      ],
      "stateMutability": "view",
      "type": "function"
    },
    {
      "inputs": [
        {
          "internalType": "address[]",
          "name": "__budgetApprovals",
          "type": "address[]"
        },
        {
          "internalType": "bytes[]",
          "name": "data",
          "type": "bytes[]"
        }
      ],
      "name": "createBudgetApprovals",
      "outputs": [],
      "stateMutability": "nonpayable",
      "type": "function"
    },
    {
      "inputs": [
        {
          "internalType": "string",
          "name": "_name",
          "type": "string"
        },
        {
          "internalType": "uint256",
          "name": "quorum",
          "type": "uint256"
        },
        {
          "internalType": "uint256",
          "name": "passThreshold",
          "type": "uint256"
        },
        {
          "internalType": "enum Dao.VoteType",
          "name": "voteType",
          "type": "uint8"
        },
        {
          "internalType": "address",
          "name": "externalVoteToken",
          "type": "address"
        },
        {
          "internalType": "uint256",
          "name": "durationInBlock",
          "type": "uint256"
        }
      ],
      "name": "createGovern",
      "outputs": [],
      "stateMutability": "nonpayable",
      "type": "function"
    },
    {
      "inputs": [
        {
          "internalType": "bytes32",
          "name": "contractName",
          "type": "bytes32"
        },
        {
          "internalType": "bytes",
          "name": "data",
          "type": "bytes"
        }
      ],
      "name": "createPlugin",
      "outputs": [
        {
          "internalType": "address",
          "name": "",
          "type": "address"
        }
      ],
      "stateMutability": "nonpayable",
      "type": "function"
    },
    {
      "inputs": [],
      "name": "creator",
      "outputs": [
        {
          "internalType": "address",
          "name": "",
          "type": "address"
        }
      ],
      "stateMutability": "view",
      "type": "function"
    },
    {
      "inputs": [],
      "name": "description",
      "outputs": [
        {
          "internalType": "string",
          "name": "",
          "type": "string"
        }
      ],
      "stateMutability": "view",
      "type": "function"
    },
    {
      "inputs": [
        {
          "internalType": "address",
          "name": "_to",
          "type": "address"
        },
        {
          "internalType": "bytes",
          "name": "_data",
          "type": "bytes"
        },
        {
          "internalType": "uint256",
          "name": "_value",
          "type": "uint256"
        }
      ],
      "name": "executeByBudgetApproval",
      "outputs": [
        {
          "internalType": "bytes",
          "name": "",
          "type": "bytes"
        }
      ],
      "stateMutability": "nonpayable",
      "type": "function"
    },
    {
      "inputs": [
        {
          "internalType": "bytes32",
          "name": "contractName",
          "type": "bytes32"
        },
        {
          "internalType": "bytes",
          "name": "data",
          "type": "bytes"
        },
        {
          "internalType": "uint256",
          "name": "value",
          "type": "uint256"
        }
      ],
      "name": "executePlugin",
      "outputs": [
        {
          "internalType": "bytes",
          "name": "",
          "type": "bytes"
        }
      ],
      "stateMutability": "nonpayable",
      "type": "function"
    },
    {
      "inputs": [
        {
          "internalType": "address",
          "name": "",
          "type": "address"
        }
      ],
      "name": "firstDepositTime",
      "outputs": [
        {
          "internalType": "uint256",
          "name": "",
          "type": "uint256"
        }
      ],
      "stateMutability": "view",
      "type": "function"
    },
    {
      "inputs": [
        {
          "internalType": "string",
          "name": "",
          "type": "string"
        }
      ],
      "name": "govern",
      "outputs": [
        {
          "internalType": "address",
          "name": "",
          "type": "address"
        }
      ],
      "stateMutability": "view",
      "type": "function"
    },
    {
      "inputs": [
        {
          "internalType": "address",
          "name": "_creator",
          "type": "address"
        },
        {
          "internalType": "string",
          "name": "_name",
          "type": "string"
        },
        {
          "internalType": "string",
          "name": "_description",
          "type": "string"
        },
        {
          "internalType": "address",
          "name": "_baseCurrency",
          "type": "address"
        },
        {
          "internalType": "bytes[]",
          "name": "_data",
          "type": "bytes[]"
        }
      ],
      "name": "initialize",
      "outputs": [],
      "stateMutability": "nonpayable",
      "type": "function"
    },
    {
      "inputs": [
        {
          "internalType": "address",
          "name": "",
          "type": "address"
        }
      ],
      "name": "isAssetSupported",
      "outputs": [
        {
          "internalType": "bool",
          "name": "",
          "type": "bool"
        }
      ],
      "stateMutability": "view",
      "type": "function"
    },
    {
      "inputs": [
        {
          "internalType": "address",
          "name": "",
          "type": "address"
        }
      ],
      "name": "isPlugin",
      "outputs": [
        {
          "internalType": "bool",
          "name": "",
          "type": "bool"
        }
      ],
      "stateMutability": "view",
      "type": "function"
    },
    {
      "inputs": [],
      "name": "liquidPool",
      "outputs": [
        {
          "internalType": "address",
          "name": "",
          "type": "address"
        }
      ],
      "stateMutability": "view",
      "type": "function"
    },
    {
      "inputs": [],
      "name": "locktime",
      "outputs": [
        {
          "internalType": "uint256",
          "name": "",
          "type": "uint256"
        }
      ],
      "stateMutability": "view",
      "type": "function"
    },
    {
      "inputs": [],
      "name": "logoCID",
      "outputs": [
        {
          "internalType": "string",
          "name": "",
          "type": "string"
        }
      ],
      "stateMutability": "view",
      "type": "function"
    },
    {
      "inputs": [],
      "name": "memberToken",
      "outputs": [
        {
          "internalType": "address",
          "name": "",
          "type": "address"
        }
      ],
      "stateMutability": "view",
      "type": "function"
    },
    {
      "inputs": [],
      "name": "membership",
      "outputs": [
        {
          "internalType": "address",
          "name": "",
          "type": "address"
        }
      ],
      "stateMutability": "view",
      "type": "function"
    },
    {
      "inputs": [],
      "name": "minDepositAmount",
      "outputs": [
        {
          "internalType": "uint256",
          "name": "",
          "type": "uint256"
        }
      ],
      "stateMutability": "view",
      "type": "function"
    },
    {
      "inputs": [
        {
          "internalType": "address[]",
          "name": "targets",
          "type": "address[]"
        },
        {
          "internalType": "uint256[]",
          "name": "values",
          "type": "uint256[]"
        },
        {
          "internalType": "bytes[]",
          "name": "data",
          "type": "bytes[]"
        }
      ],
      "name": "multicall",
      "outputs": [
        {
          "internalType": "bytes[]",
          "name": "",
          "type": "bytes[]"
        }
      ],
      "stateMutability": "nonpayable",
      "type": "function"
    },
    {
      "inputs": [],
      "name": "name",
      "outputs": [
        {
          "internalType": "string",
          "name": "",
          "type": "string"
        }
      ],
      "stateMutability": "view",
      "type": "function"
    },
    {
      "inputs": [
        {
          "internalType": "address",
          "name": "",
          "type": "address"
        },
        {
          "internalType": "address",
          "name": "",
          "type": "address"
        },
        {
          "internalType": "uint256[]",
          "name": "",
          "type": "uint256[]"
        },
        {
          "internalType": "uint256[]",
          "name": "",
          "type": "uint256[]"
        },
        {
          "internalType": "bytes",
          "name": "",
          "type": "bytes"
        }
      ],
      "name": "onERC1155BatchReceived",
      "outputs": [
        {
          "internalType": "bytes4",
          "name": "",
          "type": "bytes4"
        }
      ],
      "stateMutability": "nonpayable",
      "type": "function"
    },
    {
      "inputs": [
        {
          "internalType": "address",
          "name": "",
          "type": "address"
        },
        {
          "internalType": "address",
          "name": "",
          "type": "address"
        },
        {
          "internalType": "uint256",
          "name": "",
          "type": "uint256"
        },
        {
          "internalType": "uint256",
          "name": "",
          "type": "uint256"
        },
        {
          "internalType": "bytes",
          "name": "",
          "type": "bytes"
        }
      ],
      "name": "onERC1155Received",
      "outputs": [
        {
          "internalType": "bytes4",
          "name": "",
          "type": "bytes4"
        }
      ],
      "stateMutability": "nonpayable",
      "type": "function"
    },
    {
      "inputs": [
        {
          "internalType": "address",
          "name": "",
          "type": "address"
        },
        {
          "internalType": "address",
          "name": "",
          "type": "address"
        },
        {
          "internalType": "uint256",
          "name": "",
          "type": "uint256"
        },
        {
          "internalType": "bytes",
          "name": "",
          "type": "bytes"
        }
      ],
      "name": "onERC721Received",
      "outputs": [
        {
          "internalType": "bytes4",
          "name": "",
          "type": "bytes4"
        }
      ],
      "stateMutability": "nonpayable",
      "type": "function"
    },
    {
      "inputs": [
        {
          "internalType": "bytes32",
          "name": "",
          "type": "bytes32"
        }
      ],
      "name": "plugins",
      "outputs": [
        {
          "internalType": "address",
          "name": "",
          "type": "address"
        }
      ],
      "stateMutability": "view",
      "type": "function"
    },
    {
      "inputs": [
        {
          "internalType": "address[]",
          "name": "__budgetApprovals",
          "type": "address[]"
        }
      ],
      "name": "revokeBudgetApprovals",
      "outputs": [],
      "stateMutability": "nonpayable",
      "type": "function"
    },
    {
      "inputs": [
        {
          "internalType": "string",
          "name": "_description",
          "type": "string"
        }
      ],
      "name": "setDescription",
      "outputs": [],
      "stateMutability": "nonpayable",
      "type": "function"
    },
    {
      "inputs": [
        {
          "internalType": "address",
          "name": "owner",
          "type": "address"
        },
        {
          "internalType": "uint256",
          "name": "timestamp",
          "type": "uint256"
        }
      ],
      "name": "setFirstDepositTime",
      "outputs": [],
      "stateMutability": "nonpayable",
      "type": "function"
    },
    {
      "inputs": [
        {
          "internalType": "uint256",
          "name": "_locktime",
          "type": "uint256"
        }
      ],
      "name": "setLocktime",
      "outputs": [],
      "stateMutability": "nonpayable",
      "type": "function"
    },
    {
      "inputs": [
        {
          "internalType": "string",
          "name": "_logoCID",
          "type": "string"
        }
      ],
      "name": "setLogoCID",
      "outputs": [],
      "stateMutability": "nonpayable",
      "type": "function"
    },
    {
      "inputs": [
        {
          "internalType": "uint256",
          "name": "_minDepositAmount",
          "type": "uint256"
        }
      ],
      "name": "setMinDepositAmount",
      "outputs": [],
      "stateMutability": "nonpayable",
      "type": "function"
    },
    {
      "inputs": [
        {
          "internalType": "string",
          "name": "_name",
          "type": "string"
        }
      ],
      "name": "setName",
      "outputs": [],
      "stateMutability": "nonpayable",
      "type": "function"
    },
    {
      "inputs": [
        {
          "internalType": "bytes4",
          "name": "interfaceId",
          "type": "bytes4"
        }
      ],
      "name": "supportsInterface",
      "outputs": [
        {
          "internalType": "bool",
          "name": "",
          "type": "bool"
        }
      ],
      "stateMutability": "view",
      "type": "function"
    },
    {
      "inputs": [],
      "name": "team",
      "outputs": [
        {
          "internalType": "address",
          "name": "",
          "type": "address"
        }
      ],
      "stateMutability": "view",
      "type": "function"
    },
    {
      "inputs": [
        {
          "internalType": "address",
          "name": "_daoBeacon",
          "type": "address"
        }
      ],
      "name": "upgradeTo",
      "outputs": [],
      "stateMutability": "nonpayable",
      "type": "function"
    },
    {
      "stateMutability": "payable",
      "type": "receive"
    }
  ],
  "transactionHash": "0xbe05a5899a393887e0f56e772c1266c2396f5aa4c047d3ced41a8db92684a84a",
  "args": [],
  "numDeployments": 2,
  "solcInputHash": "8205df86b19069271f80a045bc50728b",
  "bytecode": "0x60806040523480156200001157600080fd5b506200001c62000022565b620000e4565b600054610100900460ff16156200008f5760405162461bcd60e51b815260206004820152602760248201527f496e697469616c697a61626c653a20636f6e747261637420697320696e697469604482015266616c697a696e6760c81b606482015260840160405180910390fd5b60005460ff9081161015620000e2576000805460ff191660ff9081179091556040519081527f7f26b83ff96e1f2b6a682f133852f6798a09c465da95921460cefb38474024989060200160405180910390a15b565b61496280620000f46000396000f3fe608060405260043610620002935760003560e01c806385f2aef2116200015f578063c47f002711620000c5578063e3c1fe981162000084578063e3c1fe9814620009b8578063e9a601dc14620009dd578063ed0b66bc1462000a02578063f23a6e611462000a27578063fc2c7b8a1462000a57578063feb98f2f1462000a7c57600080fd5b8063c47f002714620008de578063c69e6c401462000903578063d00e8ed01462000949578063d3abc28b146200096e578063df79812e146200099357600080fd5b8063a240663e116200011e578063a240663e14620007f7578063a2bf68b91462000834578063aea321c6146200084c578063b34bacdd1462000871578063b6dbbc561462000889578063bc197c8114620008ae57600080fd5b806385f2aef214620006ff5780638e3d5d56146200076857806390c3f38f146200078a57806392a85fde14620007af5780639391946814620007d257600080fd5b806345f67ac7116200020557806361c533b411620001c457806361c533b4146200061a57806363f0e3c91462000642578063645006ca14620006775780636cb7c6f914620006905780637284e41614620006c2578063845ef00114620006da57600080fd5b806345f67ac714620004c7578063464b415814620004fb57806357338b2214620005305780635cb543841462000599578063608e091214620005b157600080fd5b80632a80cda311620002525780632a80cda314620003f85780632ab71b69146200041d578063301099a314620004585780633659cfe6146200047d5780633b5f9b3e14620004a257600080fd5b806301ffc9a714620002ee57806302d05d3f146200032857806306fdde031462000363578063150b7a02146200038a57806319f6ac0914620003d357600080fd5b36620002e9573315801590620002a857503415155b15620002e757604080513381523460208201527fe1fffcc4923d04b559f4d29a8bfc6cda04eb5b0d3c460751c2402c5c5cc9109c910160405180910390a15b005b600080fd5b348015620002fb57600080fd5b50620003136200030d36600462003347565b62000aa1565b60405190151581526020015b60405180910390f35b3480156200033557600080fd5b5060fc546200034a906001600160a01b031681565b6040516001600160a01b0390911681526020016200031f565b3480156200037057600080fd5b506200037b62000ad9565b6040516200031f9190620036ae565b3480156200039757600080fd5b50620003b9620003a936600462002e1d565b630a85bd0160e11b949350505050565b6040516001600160e01b031990911681526020016200031f565b348015620003e057600080fd5b50620002e7620003f236600462003373565b62000b6f565b3480156200040557600080fd5b50620002e76200041736600462003288565b62000c31565b3480156200042a57600080fd5b506200034a6200043c36600462003288565b610108602052600090815260409020546001600160a01b031681565b3480156200046557600080fd5b50620002e76200047736600462003288565b62000ce1565b3480156200048a57600080fd5b50620002e76200049c36600462002d22565b62000d8b565b348015620004af57600080fd5b5062000313620004c136600462002d22565b62001040565b348015620004d457600080fd5b50620004ec620004e6366004620030a0565b620010c3565b6040516200031f919062003648565b3480156200050857600080fd5b50620003136200051a36600462002d22565b6101066020526000908152604090205460ff1681565b3480156200053d57600080fd5b507fd519f8c75060dd6624d6648c54d628a13d6dfe0f64aa76e627cd2bca2927828c6000526101086020527fa17e1c7e2cae2bcd1e815b353a8add6bbc2d27a08556da81ab4a358b13cee199546001600160a01b03166200034a565b348015620005a657600080fd5b506200034a6200132f565b348015620005be57600080fd5b507f091c6f8af1bbed44714810e84f12698ca9a61882d939204b4fd71435d0a8e0696000526101086020527f0f2308575c729861d68268828e22c4843d1a3face9cf941a8731c508d6511c18546001600160a01b03166200034a565b3480156200062757600080fd5b50620006336101005481565b6040519081526020016200031f565b3480156200064f57600080fd5b50620003136200066136600462002d22565b6101096020526000908152604090205460ff1681565b3480156200068457600080fd5b50620006336101015481565b3480156200069d57600080fd5b5062000633620006af36600462002d22565b6101056020526000908152604090205481565b348015620006cf57600080fd5b506200037b62001387565b348015620006e757600080fd5b50620002e7620006f9366004620033ac565b62001396565b3480156200070c57600080fd5b507f39b2998f6ab406431314b35392869ac97b78118c44110010e2794d01a8a4bd516000526101086020527f586fd17946266c87bbc697532b5f1a745c3dc78690e7bf428d4aa682d03b9476546001600160a01b03166200034a565b3480156200077557600080fd5b5060fd546200034a906001600160a01b031681565b3480156200079757600080fd5b50620002e7620007a936600462003373565b62001717565b348015620007bc57600080fd5b50610102546200034a906001600160a01b031681565b348015620007df57600080fd5b506200037b620007f1366004620032f1565b620017cc565b3480156200080457600080fd5b50620003136200081636600462002d22565b6001600160a01b0316600090815260c9602052604090205460ff1690565b3480156200084157600080fd5b506200034a62001925565b3480156200085957600080fd5b50620002e76200086b3660046200305b565b6200197d565b3480156200087e57600080fd5b506200037b62001a32565b3480156200089657600080fd5b5062000313620008a836600462002d22565b62001a42565b348015620008bb57600080fd5b50620003b9620008cd36600462002d62565b63bc197c8160e01b95945050505050565b348015620008eb57600080fd5b50620002e7620008fd36600462003373565b62001b2b565b3480156200091057600080fd5b506200034a620009223660046200343d565b8051602081830181018051610107825292820191909301209152546001600160a01b031681565b3480156200095657600080fd5b50620002e76200096836600462003143565b62001be0565b3480156200097b57600080fd5b506200037b6200098d36600462002f00565b62001ccf565b348015620009a057600080fd5b50620002e7620009b23660046200317b565b62001e19565b348015620009c557600080fd5b50620002e7620009d73660046200302c565b62001fe5565b348015620009ea57600080fd5b50620002e7620009fc3660046200302c565b62002144565b34801562000a0f57600080fd5b506200031362000a2136600462002d22565b620021c8565b34801562000a3457600080fd5b50620003b962000a4636600462002e90565b63f23a6e6160e01b95945050505050565b34801562000a6457600080fd5b506200034a62000a76366004620032a2565b620021fc565b34801562000a8957600080fd5b50620002e762000a9b36600462002f5e565b620022c8565b60006001600160e01b03198216630271189760e51b148062000ad357506301ffc9a760e01b6001600160e01b03198316145b92915050565b60fe805462000ae89062003853565b80601f016020809104026020016040519081016040528092919081815260200182805462000b169062003853565b801562000b675780601f1062000b3b5761010080835404028352916020019162000b67565b820191906000526020600020905b81548152906001019060200180831162000b4957829003601f168201915b505050505081565b62000b7a3362001a42565b15801562000bb3575061010760405162000b9490620035db565b90815260405190819003602001902054336001600160a01b0390911614155b801562000bc457506101045460ff16155b1562000be2576040516282b42960e81b815260040160405180910390fd5b62000bf1610103838362002a7b565b507f73fe47029acc9de832b3f5412b2a47ba49a85ed9c4aa1c3ab65fcc23ec943cf8828260405162000c25929190620036c3565b60405180910390a15050565b62000c3c3362001a42565b15801562000c75575061010760405162000c5690620035db565b90815260405190819003602001902054336001600160a01b0390911614155b801562000c8657506101045460ff16155b1562000ca4576040516282b42960e81b815260040160405180910390fd5b6101018190556040518181527fbe19bc97d2bca5ac16c999faf6d2fbde29b13fae7020e3a390febf030f8242d7906020015b60405180910390a150565b62000cec3362001a42565b15801562000d25575061010760405162000d0690620035db565b90815260405190819003602001902054336001600160a01b0390911614155b801562000d3657506101045460ff16155b1562000d54576040516282b42960e81b815260040160405180910390fd5b6101008190556040518181527fd74e243e16d9026669a4805403df1e6c18e3f0c38e89e50e8846c3f329f81e7e9060200162000cd6565b62000d963362001a42565b15801562000dcf575061010760405162000db090620035db565b90815260405190819003602001902054336001600160a01b0390911614155b801562000de057506101045460ff16155b1562000dfe576040516282b42960e81b815260040160405180910390fd5b6000306001600160a01b0316632718194e6040518163ffffffff1660e01b815260040160206040518083038186803b15801562000e3a57600080fd5b505afa15801562000e4f573d6000803e3d6000fd5b505050506040513d601f19601f8201168201806040525081019062000e75919062002d42565b90506001600160a01b0382163b62000eb057604051633b00592160e21b81526001600160a01b03831660048201526024015b60405180910390fd5b60fd54604051635432386360e11b81526001600160a01b0383811660048301529091169063a86470c69060240160206040518083038186803b15801562000ef657600080fd5b505afa15801562000f0b573d6000803e3d6000fd5b505050506040513d601f19601f8201168201806040525081019062000f31919062003509565b60fd54604051635432386360e11b81526001600160a01b0385811660048301529091169063a86470c69060240160206040518083038186803b15801562000f7757600080fd5b505afa15801562000f8c573d6000803e3d6000fd5b505050506040513d601f19601f8201168201806040525081019062000fb2919062003509565b1162000fd157604051631fa4dc7560e31b815260040160405180910390fd5b817f5c594ae595a67acd63f90ec696e24b8e16d4f3fd9738a913e57df541bd13657280546001600160a01b0319166001600160a01b0392831617905560405190831681527f49841c07f69de1fa68a0b2c2c3cecec31a71d8e9776d002a4f56c4c584e81de19060200162000c25565b60fd54604051632444cdd960e21b81526001600160a01b03838116600483015260009216906391133764906024015b60206040518083038186803b1580156200108857600080fd5b505afa1580156200109d573d6000803e3d6000fd5b505050506040513d601f19601f8201168201806040525081019062000ad3919062003264565b6060620010d03362001a42565b158015620011095750610107604051620010ea90620035db565b90815260405190819003602001902054336001600160a01b0390911614155b80156200111a57506101045460ff16155b1562001138576040516282b42960e81b815260040160405180910390fd5b85841462001164576040516341a0572360e01b8152600481018790526024810185905260440162000ea7565b85821462001190576040516341a0572360e01b8152600481018790526024810183905260440162000ea7565b6000866001600160401b03811115620011ad57620011ad620038e6565b604051908082528060200260200182016040528015620011e257816020015b6060815260200190600190039081620011cc5790505b50905060005b8781101562001323576000808a8a84818110620012095762001209620038d0565b905060200201602081019062001220919062002d22565b6001600160a01b03168989858181106200123e576200123e620038d0565b905060200201358888868181106200125a576200125a620038d0565b90506020028101906200126e919062003754565b6040516200127e9291906200357a565b60006040518083038185875af1925050503d8060008114620012bd576040519150601f19603f3d011682016040523d82523d6000602084013e620012c2565b606091505b509150915081620012ea5780604051631c2c90ef60e11b815260040162000ea79190620036ae565b80848481518110620013005762001300620038d0565b6020026020010181905250505080806200131a9062003890565b915050620011e8565b50979650505050505050565b7fca3a9c7f8591a529395becbf849567b04ba8a1f97b6270590de1ca40f157eee86000526101086020527f867833f9f186ef2d4084046749fdaf4a8cb37acb101ce9cbe68c61505ce70833546001600160a01b031690565b60ff805462000ae89062003853565b620013a13362001a42565b158015620013da5750610107604051620013bb90620035db565b90815260405190819003602001902054336001600160a01b0390911614155b8015620013eb57506101045460ff16155b1562001409576040516282b42960e81b815260040160405180910390fd5b6000806001600160a01b031661010789896040516200142a9291906200357a565b908152604051908190036020019020546001600160a01b03161462001468578787604051635d43099d60e11b815260040162000ea7929190620036c3565b60008460028111156200147f576200147f620038ba565b1415620014e75760006200149262001925565b90506001600160a01b038116620014df57604051632877f53760e01b81527f5c4ee0e3f89f17d0a72534b567bc6571190c655da657329132a489e6ea1f93af600482015260240162000ea7565b9050620015b4565b6001846002811115620014fe57620014fe620038ba565b14156200155e576000620015116200132f565b90506001600160a01b038116620014df57604051632877f53760e01b81527fca3a9c7f8591a529395becbf849567b04ba8a1f97b6270590de1ca40f157eee8600482015260240162000ea7565b6002846002811115620015755762001575620038ba565b1415620015b4576001600160a01b0383163b620015b157604051633b00592160e21b81526001600160a01b038416600482015260240162000ea7565b50815b6000307f64925d0d84562fd361a302a2b1baa73c4b1fbf4060c4447ff115e0dfb1e93f11604051620015e69062002b0a565b6001600160a01b0390921682526020820152606060408201819052600090820152608001604051809103906000f08015801562001627573d6000803e3d6000fd5b509050806101078a8a604051620016409291906200357a565b90815260405190819003602001812080546001600160a01b039384166001600160a01b031990911617905563ad429b1960e01b81529082169063ad429b199062001699908c908c908c908c9089908b9060040162003710565b600060405180830381600087803b158015620016b457600080fd5b505af1158015620016c9573d6000803e3d6000fd5b505050507fc685553edb53be6940b1daea7daa652cb0c5345ccfb49d6987116c332de6842e89898385604051620017049493929190620036d9565b60405180910390a1505050505050505050565b620017223362001a42565b1580156200175b57506101076040516200173c90620035db565b90815260405190819003602001902054336001600160a01b0390911614155b80156200176c57506101045460ff16155b156200178a576040516282b42960e81b815260040160405180910390fd5b6200179860ff838362002a7b565b507fc0847cd6b8948f9e76fa2d751c8ce46356a19e45a1014805415ed01c06bb9849828260405162000c25929190620036c3565b6060620017d93362001a42565b158015620018125750610107604051620017f390620035db565b90815260405190819003602001902054336001600160a01b0390911614155b80156200182357506101045460ff16155b1562001841576040516282b42960e81b815260040160405180910390fd5b6000858152610108602052604090205485906001600160a01b03166200187e57604051632877f53760e01b81526004810182905260240162000ea7565b6000868152610108602052604080822054905182916001600160a01b0316908690620018ae908a908a906200357a565b60006040518083038185875af1925050503d8060008114620018ed576040519150601f19603f3d011682016040523d82523d6000602084013e620018f2565b606091505b5091509150816200191a5780604051631c2c90ef60e11b815260040162000ea79190620036ae565b979650505050505050565b7f5c4ee0e3f89f17d0a72534b567bc6571190c655da657329132a489e6ea1f93af6000526101086020527fca6329da883316e9f69c22538cf10fa5759cb1324cdff4ad09d3760996821f8d546001600160a01b031690565b620019883362001a42565b158015620019c15750610107604051620019a290620035db565b90815260405190819003602001902054336001600160a01b0390911614155b8015620019d257506101045460ff16155b15620019f0576040516282b42960e81b815260040160405180910390fd5b62001a2e8282808060200260200160405190810160405280939291908181526020018383602002808284376000920191909152506200258b92505050565b5050565b610103805462000ae89062003853565b60008062001a4f62001925565b6001600160a01b0316141562001a6757506001919050565b62001a7162001925565b6001600160a01b03166318160ddd6040518163ffffffff1660e01b815260040160206040518083038186803b15801562001aaa57600080fd5b505afa15801562001abf573d6000803e3d6000fd5b505050506040513d601f19601f8201168201806040525081019062001ae5919062003509565b600114801562000ad3575062001afa62001925565b60405163288c314960e21b81526001600160a01b038481166004830152919091169063a230c524906024016200106f565b62001b363362001a42565b15801562001b6f575061010760405162001b5090620035db565b90815260405190819003602001902054336001600160a01b0390911614155b801562001b8057506101045460ff16155b1562001b9e576040516282b42960e81b815260040160405180910390fd5b62001bac60fe838362002a7b565b507fed41a19b397d8e610d8f9e6e52ab2bef7e51c9977a12cb779c7cd86747f8d509828260405162000c25929190620036c3565b60005b815181101562001a2e57600082828151811062001c045762001c04620038d0565b6020908102919091018101516001600160a01b038116600090815260c990925260409091205490915060ff1662001c5a5760405163122ab6a960e21b81526001600160a01b038216600482015260240162000ea7565b62001c658162002644565b6001600160a01b038116600081815260c96020908152604091829020805460ff1916905590519182527f3562b8c49e34d53119756b2b8b55a910ed22c2cda0d3b07398510d804c2dc621910160405180910390a1508062001cc68162003890565b91505062001be3565b33600090815260c9602052604090205460609060ff1662001d0357604051639d5b229960e01b815260040160405180910390fd5b600080856001600160a01b0316848660405162001d2191906200358a565b60006040518083038185875af1925050503d806000811462001d60576040519150601f19603f3d011682016040523d82523d6000602084013e62001d65565b606091505b50915091508162001dd55762001dba62001d7f82620026ba565b6040805180820190915260208082527f52657665727465642062792065787465726e616c20636f6e7472616374202d209082015290620026f7565b60405162461bcd60e51b815260040162000ea79190620036ae565b7fcf452d48646654954090c61dd69f99a99bea4e2264594078fc81bfd43d6f6a9e338660405162001e0892919062003622565b60405180910390a195945050505050565b805182511462001e4a57815181516040516341a0572360e01b81526004810192909252602482015260440162000ea7565b60005b825181101562001fe05762001e7e83828151811062001e705762001e70620038d0565b602002602001015162002725565b600083828151811062001e955762001e95620038d0565b602002602001015183838151811062001eb25762001eb2620038d0565b602002602001015160405162001ec89062002b18565b62001ed592919062003622565b604051809103906000f08015801562001ef2573d6000803e3d6000fd5b506001600160a01b038116600090815260c960205260409020805460ff1916600117905583519091507f26c79e13dd63e8716f130c25331c09f2fdd55d6880bbfa7bcc38868207e8a67090829085908590811062001f545762001f54620038d0565b602002602001015160405162001f6c92919062003622565b60405180910390a1806001600160a01b031663cf26fec66040518163ffffffff1660e01b8152600401600060405180830381600087803b15801562001fb057600080fd5b505af115801562001fc5573d6000803e3d6000fd5b5050505050808062001fd79062003890565b91505062001e4d565b505050565b336000908152610109602052604090205460ff1662002016576040516282b42960e81b815260040160405180910390fd5b6001600160a01b0382166000908152610105602052604090205462001a2e5762002041824262002144565b61010154811015620020665760405163070f6eed60e11b815260040160405180910390fd5b6200207062001925565b60405163288c314960e21b81526001600160a01b038481166004830152919091169063a230c5249060240160206040518083038186803b158015620020b457600080fd5b505afa158015620020c9573d6000803e3d6000fd5b505050506040513d601f19601f82011682018060405250810190620020ef919062003264565b15620020f9575050565b620021048262002843565b604080516001600160a01b0384168152602081018390527fbd251213ab4f4d6ca44f082b3e6aadf9c5153e7c16bac3ac4f959462d425c23c910162000c25565b336000908152610109602052604090205460ff1662002175576040516282b42960e81b815260040160405180910390fd5b6001600160a01b03821660008181526101056020908152604091829020849055815192835282018390527f7ac58570d3e556be8ffd5d5bda8bc949958077c3aa21c4b5fa11b63ed12dafa7910162000c25565b60fd54604051635120331f60e11b81526001600160a01b038381166004830152600092169063a240663e906024016200106f565b6000620022093362001a42565b1580156200224257506101076040516200222390620035db565b90815260405190819003602001902054336001600160a01b0390911614155b80156200225357506101045460ff16155b1562002271576040516282b42960e81b815260040160405180910390fd5b600030858585604051620022859062002b0a565b620022949493929190620035ee565b604051809103906000f080158015620022b1573d6000803e3d6000fd5b509050620022c0858262002929565b949350505050565b600054610100900460ff1615808015620022e95750600054600160ff909116105b80620023055750303b15801562002305575060005460ff166001145b6200236a5760405162461bcd60e51b815260206004820152602e60248201527f496e697469616c697a61626c653a20636f6e747261637420697320616c72656160448201526d191e481a5b9a5d1a585b1a5e995960921b606482015260840162000ea7565b6000805460ff1916600117905580156200238e576000805461ff0019166101001790555b6001600160a01b038916620023c257604051634726455360e11b81526001600160a01b038a16600482015260240162000ea7565b6001600160a01b038416620023f657604051634726455360e11b81526001600160a01b038516600482015260240162000ea7565b610104805460ff1916600117905560fd80546001600160a01b0319908116331790915560fc80546001600160a01b038c1692169190911790556200243b888862001b2b565b62002447868662001717565b61010280546001600160a01b0319166001600160a01b03861617905560005b82811015620025305760008030868685818110620024885762002488620038d0565b90506020028101906200249c919062003754565b604051620024ac9291906200357a565b6000604051808303816000865af19150503d8060008114620024eb576040519150601f19603f3d011682016040523d82523d6000602084013e620024f0565b606091505b509150915081620025185780604051631c2c90ef60e11b815260040162000ea79190620036ae565b50508080620025279062003890565b91505062002466565b50610104805460ff19169055801562002580576000805461ff0019169055604051600181527f7f26b83ff96e1f2b6a682f133852f6798a09c465da95921460cefb38474024989060200162001704565b505050505050505050565b60005b815181101562001a2e576000828281518110620025af57620025af620038d0565b6020026020010151905073eeeeeeeeeeeeeeeeeeeeeeeeeeeeeeeeeeeeeeee6001600160a01b0316816001600160a01b031614158015620025f857506001600160a01b0381163b155b156200262357604051633b00592160e21b81526001600160a01b038216600482015260240162000ea7565b6200262e8162002a25565b50806200263b8162003890565b9150506200258e565b6200264f3362001a42565b1580156200268857506101076040516200266990620035db565b90815260405190819003602001902054336001600160a01b0390911614155b80156200269957506101045460ff16155b15620026b7576040516282b42960e81b815260040160405180910390fd5b50565b6060604482511015620026db57505060408051602081019091526000815290565b6004820191508180602001905181019062000ad391906200348a565b606082826040516020016200270e929190620035a8565b604051602081830303815290604052905092915050565b620027303362001a42565b1580156200276957506101076040516200274a90620035db565b90815260405190819003602001902054336001600160a01b0390911614155b80156200277a57506101045460ff16155b1562002798576040516282b42960e81b815260040160405180910390fd5b60fd54604051635120331f60e11b81526001600160a01b0383811660048301529091169063a240663e9060240160206040518083038186803b158015620027de57600080fd5b505afa158015620027f3573d6000803e3d6000fd5b505050506040513d601f19601f8201168201806040525081019062002819919062003264565b620026b7576040516301262c7760e01b81526001600160a01b038216600482015260240162000ea7565b7f5c4ee0e3f89f17d0a72534b567bc6571190c655da657329132a489e6ea1f93af60008190526101086020527fca6329da883316e9f69c22538cf10fa5759cb1324cdff4ad09d3760996821f8d546001600160a01b0316620028bc57604051632877f53760e01b81526004810182905260240162000ea7565b620028c662001925565b604051632124d52960e01b81526001600160a01b0384811660048301529190911690632124d52990602401600060405180830381600087803b1580156200290c57600080fd5b505af115801562002921573d6000803e3d6000fd5b505050505050565b7f0eb5315aabe0b67a4ffbc3e46ecabf1b111df8b819059d7bd494e073ea45e5c48214156200296f57604051635c277aa360e11b81526004810183905260240162000ea7565b600082815261010860205260409020546001600160a01b031615620029ab57604051631ff3220560e01b81526004810183905260240162000ea7565b60008281526101086020908152604080832080546001600160a01b0319166001600160a01b038616908117909155808452610109835292819020805460ff191660011790558051858152918201929092527f1d32ffa185f85b581c93e8ecf063ab0597567fd4a89c23199f735acfeb77a7a9910162000c25565b6001600160a01b03811660008181526101066020908152604091829020805460ff1916600117905590519182527f808665eda000f8d729f31a384bae411282aa3be62cb73ed74e2225e2eef7125d910162000cd6565b82805462002a899062003853565b90600052602060002090601f01602090048101928262002aad576000855562002af8565b82601f1062002ac85782800160ff1982351617855562002af8565b8280016001018555821562002af8579182015b8281111562002af857823582559160200191906001019062002adb565b5062002b0692915062002b26565b5090565b6108f9806200391383390190565b610721806200420c83390190565b5b8082111562002b06576000815560010162002b27565b600062002b5462002b4e84620037f6565b6200379d565b905082815283838301111562002b6957600080fd5b828260208301376000602084830101529392505050565b60008083601f84011262002b9357600080fd5b5081356001600160401b0381111562002bab57600080fd5b6020830191508360208260051b850101111562002bc757600080fd5b9250929050565b600082601f83011262002be057600080fd5b8135602062002bf362002b4e83620037d0565b80838252828201915082860187848660051b890101111562002c1457600080fd5b60005b8581101562002c4057813562002c2d81620038fc565b8452928401929084019060010162002c17565b5090979650505050505050565b600082601f83011262002c5f57600080fd5b8135602062002c7262002b4e83620037d0565b80838252828201915082860187848660051b890101111562002c9357600080fd5b60005b8581101562002c405781358452928401929084019060010162002c96565b60008083601f84011262002cc757600080fd5b5081356001600160401b0381111562002cdf57600080fd5b60208301915083602082850101111562002bc757600080fd5b600082601f83011262002d0a57600080fd5b62002d1b8383356020850162002b3d565b9392505050565b60006020828403121562002d3557600080fd5b813562002d1b81620038fc565b60006020828403121562002d5557600080fd5b815162002d1b81620038fc565b600080600080600060a0868803121562002d7b57600080fd5b853562002d8881620038fc565b9450602086013562002d9a81620038fc565b935060408601356001600160401b038082111562002db757600080fd5b62002dc589838a0162002c4d565b9450606088013591508082111562002ddc57600080fd5b62002dea89838a0162002c4d565b9350608088013591508082111562002e0157600080fd5b5062002e108882890162002cf8565b9150509295509295909350565b6000806000806080858703121562002e3457600080fd5b843562002e4181620038fc565b9350602085013562002e5381620038fc565b92506040850135915060608501356001600160401b0381111562002e7657600080fd5b62002e848782880162002cf8565b91505092959194509250565b600080600080600060a0868803121562002ea957600080fd5b853562002eb681620038fc565b9450602086013562002ec881620038fc565b9350604086013592506060860135915060808601356001600160401b0381111562002ef257600080fd5b62002e108882890162002cf8565b60008060006060848603121562002f1657600080fd5b833562002f2381620038fc565b925060208401356001600160401b0381111562002f3f57600080fd5b62002f4d8682870162002cf8565b925050604084013590509250925092565b60008060008060008060008060a0898b03121562002f7b57600080fd5b883562002f8881620038fc565b975060208901356001600160401b038082111562002fa557600080fd5b62002fb38c838d0162002cb4565b909950975060408b013591508082111562002fcd57600080fd5b62002fdb8c838d0162002cb4565b909750955060608b0135915062002ff282620038fc565b90935060808a013590808211156200300957600080fd5b50620030188b828c0162002b80565b999c989b5096995094979396929594505050565b600080604083850312156200304057600080fd5b82356200304d81620038fc565b946020939093013593505050565b600080602083850312156200306f57600080fd5b82356001600160401b038111156200308657600080fd5b620030948582860162002b80565b90969095509350505050565b60008060008060008060608789031215620030ba57600080fd5b86356001600160401b0380821115620030d257600080fd5b620030e08a838b0162002b80565b90985096506020890135915080821115620030fa57600080fd5b620031088a838b0162002b80565b909650945060408901359150808211156200312257600080fd5b506200313189828a0162002b80565b979a9699509497509295939492505050565b6000602082840312156200315657600080fd5b81356001600160401b038111156200316d57600080fd5b620022c08482850162002bce565b600080604083850312156200318f57600080fd5b82356001600160401b0380821115620031a757600080fd5b620031b58683870162002bce565b9350602091508185013581811115620031cd57600080fd5b8501601f81018713620031df57600080fd5b8035620031f062002b4e82620037d0565b8082825285820191508584018a878560051b87010111156200321157600080fd5b6000805b8581101562003251578235888111156200322d578283fd5b6200323d8e8b838b010162002cf8565b865250938801939188019160010162003215565b5050508096505050505050509250929050565b6000602082840312156200327757600080fd5b8151801515811462002d1b57600080fd5b6000602082840312156200329b57600080fd5b5035919050565b600080600060408486031215620032b857600080fd5b8335925060208401356001600160401b03811115620032d657600080fd5b620032e48682870162002cb4565b9497909650939450505050565b600080600080606085870312156200330857600080fd5b8435935060208501356001600160401b038111156200332657600080fd5b620033348782880162002cb4565b9598909750949560400135949350505050565b6000602082840312156200335a57600080fd5b81356001600160e01b03198116811462002d1b57600080fd5b600080602083850312156200338757600080fd5b82356001600160401b038111156200339e57600080fd5b620030948582860162002cb4565b600080600080600080600060c0888a031215620033c857600080fd5b87356001600160401b03811115620033df57600080fd5b620033ed8a828b0162002cb4565b90985096505060208801359450604088013593506060880135600381106200341457600080fd5b925060808801356200342681620038fc565b8092505060a0880135905092959891949750929550565b6000602082840312156200345057600080fd5b81356001600160401b038111156200346757600080fd5b8201601f810184136200347957600080fd5b620022c08482356020840162002b3d565b6000602082840312156200349d57600080fd5b81516001600160401b03811115620034b457600080fd5b8201601f81018413620034c657600080fd5b8051620034d762002b4e82620037f6565b818152856020838501011115620034ed57600080fd5b6200350082602083016020860162003820565b95945050505050565b6000602082840312156200351c57600080fd5b5051919050565b81835281816020850137506000828201602090810191909152601f909101601f19169091010190565b600081518084526200356681602086016020860162003820565b601f01601f19169290920160200192915050565b8183823760009101908152919050565b600082516200359e81846020870162003820565b9190910192915050565b60008351620035bc81846020880162003820565b835190830190620035d281836020880162003820565b01949350505050565b6611d95b995c985b60ca1b815260070190565b60018060a01b03851681528360208201526060604082015260006200361860608301848662003523565b9695505050505050565b6001600160a01b0383168152604060208201819052600090620022c0908301846200354c565b6000602080830181845280855180835260408601915060408160051b870101925083870160005b82811015620036a157603f198886030184526200368e8583516200354c565b945092850192908501906001016200366f565b5092979650505050505050565b60208152600062002d1b60208301846200354c565b602081526000620022c060208301848662003523565b606081526000620036ef60608301868862003523565b6001600160a01b039485166020840152929093166040909101529392505050565b60a0815260006200372660a08301888a62003523565b60208301969096525060408101939093526001600160a01b0391909116606083015260809091015292915050565b6000808335601e198436030181126200376c57600080fd5b8301803591506001600160401b038211156200378757600080fd5b60200191503681900382131562002bc757600080fd5b604051601f8201601f191681016001600160401b0381118282101715620037c857620037c8620038e6565b604052919050565b60006001600160401b03821115620037ec57620037ec620038e6565b5060051b60200190565b60006001600160401b03821115620038125762003812620038e6565b50601f01601f191660200190565b60005b838110156200383d57818101518382015260200162003823565b838111156200384d576000848401525b50505050565b600181811c908216806200386857607f821691505b602082108114156200388a57634e487b7160e01b600052602260045260246000fd5b50919050565b6000600019821415620038b357634e487b7160e01b600052601160045260246000fd5b5060010190565b634e487b7160e01b600052602160045260246000fd5b634e487b7160e01b600052603260045260246000fd5b634e487b7160e01b600052604160045260246000fd5b6001600160a01b0381168114620026b757600080fdfe60806040526040516108f93803806108f98339810160408190526100229161039c565b826100567f68e44ddd773d68864d559da5e11fc739e96943d757e91e0364e79c94965998d761021060201b6100291760201c565b60000160006101000a8154816001600160a01b0302191690836001600160a01b03160217905550816100b17f55ac29cd26ebb0713ee569256592f63cf3d6541fc2983fcb789d2e0d395411d161021060201b6100291760201c565b600001819055506000836001600160a01b0316632718194e6040518163ffffffff1660e01b815260040160206040518083038186803b1580156100f357600080fd5b505afa158015610107573d6000803e3d6000fd5b505050506040513d601f19601f8201168201806040525081019061012b9190610381565b6001600160a01b03166353c41dea846040518263ffffffff1660e01b815260040161015891815260200190565b60206040518083038186803b15801561017057600080fd5b505afa158015610184573d6000803e3d6000fd5b505050506040513d601f19601f820116820180604052508101906101a89190610381565b90506101bd8161021360201b61002c1760201c565b6101ea57604051633b00592160e21b81526001600160a01b03821660048201526024015b60405180910390fd5b81511561020757610205818361022260201b61003b1760201c565b505b505050506104fa565b90565b6001600160a01b03163b151590565b606061024783836040518060600160405280602781526020016108d26027913961024e565b9392505050565b60606001600160a01b0384163b6102b65760405162461bcd60e51b815260206004820152602660248201527f416464726573733a2064656c65676174652063616c6c20746f206e6f6e2d636f6044820152651b9d1c9858dd60d21b60648201526084016101e1565b600080856001600160a01b0316856040516102d19190610465565b600060405180830381855af49150503d806000811461030c576040519150601f19603f3d011682016040523d82523d6000602084013e610311565b606091505b50909250905061032282828661032c565b9695505050505050565b6060831561033b575081610247565b82511561034b5782518084602001fd5b8160405162461bcd60e51b81526004016101e19190610481565b80516001600160a01b038116811461037c57600080fd5b919050565b60006020828403121561039357600080fd5b61024782610365565b6000806000606084860312156103b157600080fd5b6103ba84610365565b6020850151604086015191945092506001600160401b03808211156103de57600080fd5b818601915086601f8301126103f257600080fd5b815181811115610404576104046104e4565b604051601f8201601f19908116603f0116810190838211818310171561042c5761042c6104e4565b8160405282815289602084870101111561044557600080fd5b6104568360208301602088016104b4565b80955050505050509250925092565b600082516104778184602087016104b4565b9190910192915050565b60208152600082518060208401526104a08160408501602087016104b4565b601f01601f19169190910160400192915050565b60005b838110156104cf5781810151838201526020016104b7565b838111156104de576000848401525b50505050565b634e487b7160e01b600052604160045260246000fd5b6103c9806105096000396000f3fe60806040523661001357610011610017565b005b6100115b610027610022610067565b61011a565b565b90565b6001600160a01b03163b151590565b6060610060838360405180606001604052806027815260200161036d6027913961013e565b9392505050565b6000610071610220565b6001600160a01b03166353c41dea6100a77f55ac29cd26ebb0713ee569256592f63cf3d6541fc2983fcb789d2e0d395411d15490565b6040518263ffffffff1660e01b81526004016100c591815260200190565b60206040518083038186803b1580156100dd57600080fd5b505afa1580156100f1573d6000803e3d6000fd5b505050506040513d601f19601f8201168201806040525081019061011591906102c4565b905090565b3660008037600080366000845af43d6000803e808015610139573d6000f35b3d6000fd5b60606001600160a01b0384163b6101ab5760405162461bcd60e51b815260206004820152602660248201527f416464726573733a2064656c65676174652063616c6c20746f206e6f6e2d636f6044820152651b9d1c9858dd60d21b60648201526084015b60405180910390fd5b600080856001600160a01b0316856040516101c691906102ed565b600060405180830381855af49150503d8060008114610201576040519150601f19603f3d011682016040523d82523d6000602084013e610206565b606091505b509150915061021682828661028b565b9695505050505050565b60006102537f68e44ddd773d68864d559da5e11fc739e96943d757e91e0364e79c94965998d7546001600160a01b031690565b6001600160a01b0316632718194e6040518163ffffffff1660e01b815260040160206040518083038186803b1580156100dd57600080fd5b6060831561029a575081610060565b8251156102aa5782518084602001fd5b8160405162461bcd60e51b81526004016101a29190610309565b6000602082840312156102d657600080fd5b81516001600160a01b038116811461006057600080fd5b600082516102ff81846020870161033c565b9190910192915050565b602081526000825180602084015261032881604085016020870161033c565b601f01601f19169190910160400192915050565b60005b8381101561035757818101518382015260200161033f565b83811115610366576000848401525b5050505056fe416464726573733a206c6f772d6c6576656c2064656c65676174652063616c6c206661696c6564a26469706673582212201e1fe39b79ebef7ed7a832c0fdecf1118fec547e3f12697474295d7e1649dc8e64736f6c63430008070033416464726573733a206c6f772d6c6576656c2064656c65676174652063616c6c206661696c65646080604052604051610721380380610721833981016040819052610022916102d2565b61002e82826000610035565b5050610431565b61003e8361006b565b60008251118061004b5750805b156100665761006483836100ab60201b6100291760201c565b505b505050565b610074816100d7565b6040516001600160a01b038216907fbc7cd75a20ee27fd9adebab32041f755214dbc6bffa90cc0225b39da2e5c2d3b90600090a250565b60606100d083836040518060600160405280602781526020016106fa602791396101a9565b9392505050565b6100ea8161028760201b6100551760201c565b6101515760405162461bcd60e51b815260206004820152602d60248201527f455243313936373a206e657720696d706c656d656e746174696f6e206973206e60448201526c1bdd08184818dbdb9d1c9858dd609a1b60648201526084015b60405180910390fd5b806101887f360894a13ba1a3210667c828492db98dca3e2076cc3735a920a3ca505d382bbc60001b61029660201b6100641760201c565b80546001600160a01b0319166001600160a01b039290921691909117905550565b60606001600160a01b0384163b6102115760405162461bcd60e51b815260206004820152602660248201527f416464726573733a2064656c65676174652063616c6c20746f206e6f6e2d636f6044820152651b9d1c9858dd60d21b6064820152608401610148565b600080856001600160a01b03168560405161022c91906103a0565b600060405180830381855af49150503d8060008114610267576040519150601f19603f3d011682016040523d82523d6000602084013e61026c565b606091505b50909250905061027d828286610299565b9695505050505050565b6001600160a01b03163b151590565b90565b606083156102a85750816100d0565b8251156102b85782518084602001fd5b8160405162461bcd60e51b815260040161014891906103bc565b600080604083850312156102e557600080fd5b82516001600160a01b03811681146102fc57600080fd5b60208401519092506001600160401b038082111561031957600080fd5b818501915085601f83011261032d57600080fd5b81518181111561033f5761033f61041b565b604051601f8201601f19908116603f011681019083821181831017156103675761036761041b565b8160405282815288602084870101111561038057600080fd5b6103918360208301602088016103ef565b80955050505050509250929050565b600082516103b28184602087016103ef565b9190910192915050565b60208152600082518060208401526103db8160408501602087016103ef565b601f01601f19169190910160400192915050565b60005b8381101561040a5781810151838201526020016103f2565b838111156100645750506000910152565b634e487b7160e01b600052604160045260246000fd5b6102ba806104406000396000f3fe60806040523661001357610011610017565b005b6100115b610027610022610067565b61009f565b565b606061004e838360405180606001604052806027815260200161025e602791396100c3565b9392505050565b6001600160a01b03163b151590565b90565b600061009a7f360894a13ba1a3210667c828492db98dca3e2076cc3735a920a3ca505d382bbc546001600160a01b031690565b905090565b3660008037600080366000845af43d6000803e8080156100be573d6000f35b3d6000fd5b60606001600160a01b0384163b6101305760405162461bcd60e51b815260206004820152602660248201527f416464726573733a2064656c65676174652063616c6c20746f206e6f6e2d636f6044820152651b9d1c9858dd60d21b60648201526084015b60405180910390fd5b600080856001600160a01b03168560405161014b91906101de565b600060405180830381855af49150503d8060008114610186576040519150601f19603f3d011682016040523d82523d6000602084013e61018b565b606091505b509150915061019b8282866101a5565b9695505050505050565b606083156101b457508161004e565b8251156101c45782518084602001fd5b8160405162461bcd60e51b815260040161012791906101fa565b600082516101f081846020870161022d565b9190910192915050565b602081526000825180602084015261021981604085016020870161022d565b601f01601f19169190910160400192915050565b60005b83811015610248578181015183820152602001610230565b83811115610257576000848401525b5050505056fe416464726573733a206c6f772d6c6576656c2064656c65676174652063616c6c206661696c6564a2646970667358221220fb537d1df0a2f3ea0050d30fb82ca020f06a83116d3853b9eda518a67b0c9be764736f6c63430008070033416464726573733a206c6f772d6c6576656c2064656c65676174652063616c6c206661696c6564a264697066735822122062f30f6f31577fbfed403fb2bba169df561cef4419238f508a5680c92aea891464736f6c63430008070033",
  "devdoc": {
    "kind": "dev",
    "methods": {
      "constructor": {
        "custom:oz-upgrades-unsafe-allow": "constructor"
      },
      "onERC721Received(address,address,uint256,bytes)": {
        "details": "See {IERC721Receiver-onERC721Received}. Always returns `IERC721Receiver.onERC721Received.selector`."
      },
      "supportsInterface(bytes4)": {
        "details": "See {IERC165-supportsInterface}."
      }
    },
    "version": 1
  },
  "userdoc": {
    "kind": "user",
    "methods": {},
    "version": 1
  },
  "storageLayout": {
    "storage": [
      {
        "astId": 3247,
        "contract": "contracts/Dao.sol:Dao",
        "label": "_initialized",
        "offset": 0,
        "slot": "0",
        "type": "t_uint8"
      },
      {
        "astId": 3250,
        "contract": "contracts/Dao.sol:Dao",
        "label": "_initializing",
        "offset": 1,
        "slot": "0",
        "type": "t_bool"
      },
      {
        "astId": 8123,
        "contract": "contracts/Dao.sol:Dao",
        "label": "__gap",
        "offset": 0,
        "slot": "1",
        "type": "t_array(t_uint256)50_storage"
      },
      {
        "astId": 9798,
        "contract": "contracts/Dao.sol:Dao",
        "label": "__gap",
        "offset": 0,
        "slot": "51",
        "type": "t_array(t_uint256)50_storage"
      },
      {
        "astId": 5074,
        "contract": "contracts/Dao.sol:Dao",
        "label": "__gap",
        "offset": 0,
        "slot": "101",
        "type": "t_array(t_uint256)50_storage"
      },
      {
        "astId": 5020,
        "contract": "contracts/Dao.sol:Dao",
        "label": "__gap",
        "offset": 0,
        "slot": "151",
        "type": "t_array(t_uint256)50_storage"
      },
      {
        "astId": 31640,
        "contract": "contracts/Dao.sol:Dao",
        "label": "_budgetApprovals",
        "offset": 0,
        "slot": "201",
        "type": "t_mapping(t_address,t_bool)"
      },
      {
        "astId": 31905,
        "contract": "contracts/Dao.sol:Dao",
        "label": "__gap",
        "offset": 0,
        "slot": "202",
        "type": "t_array(t_uint256)50_storage"
      },
      {
        "astId": 22439,
        "contract": "contracts/Dao.sol:Dao",
        "label": "creator",
        "offset": 0,
        "slot": "252",
        "type": "t_address"
      },
      {
        "astId": 22441,
        "contract": "contracts/Dao.sol:Dao",
        "label": "adam",
        "offset": 0,
        "slot": "253",
        "type": "t_address"
      },
      {
        "astId": 22443,
        "contract": "contracts/Dao.sol:Dao",
        "label": "name",
        "offset": 0,
        "slot": "254",
        "type": "t_string_storage"
      },
      {
        "astId": 22445,
        "contract": "contracts/Dao.sol:Dao",
        "label": "description",
        "offset": 0,
        "slot": "255",
        "type": "t_string_storage"
      },
      {
        "astId": 22447,
        "contract": "contracts/Dao.sol:Dao",
        "label": "locktime",
        "offset": 0,
        "slot": "256",
        "type": "t_uint256"
      },
      {
        "astId": 22449,
        "contract": "contracts/Dao.sol:Dao",
        "label": "minDepositAmount",
        "offset": 0,
        "slot": "257",
        "type": "t_uint256"
      },
      {
        "astId": 22451,
        "contract": "contracts/Dao.sol:Dao",
        "label": "baseCurrency",
        "offset": 0,
        "slot": "258",
        "type": "t_address"
      },
      {
        "astId": 22453,
        "contract": "contracts/Dao.sol:Dao",
        "label": "logoCID",
        "offset": 0,
        "slot": "259",
        "type": "t_string_storage"
      },
      {
        "astId": 22455,
        "contract": "contracts/Dao.sol:Dao",
        "label": "_initializing",
        "offset": 0,
        "slot": "260",
        "type": "t_bool"
      },
      {
        "astId": 22459,
        "contract": "contracts/Dao.sol:Dao",
        "label": "firstDepositTime",
        "offset": 0,
        "slot": "261",
        "type": "t_mapping(t_address,t_uint256)"
      },
      {
        "astId": 22463,
        "contract": "contracts/Dao.sol:Dao",
        "label": "isAssetSupported",
        "offset": 0,
        "slot": "262",
        "type": "t_mapping(t_address,t_bool)"
      },
      {
        "astId": 22467,
        "contract": "contracts/Dao.sol:Dao",
        "label": "govern",
        "offset": 0,
        "slot": "263",
        "type": "t_mapping(t_string_memory_ptr,t_address)"
      },
      {
        "astId": 22471,
        "contract": "contracts/Dao.sol:Dao",
        "label": "plugins",
        "offset": 0,
        "slot": "264",
        "type": "t_mapping(t_bytes32,t_address)"
      },
      {
        "astId": 22475,
        "contract": "contracts/Dao.sol:Dao",
        "label": "isPlugin",
        "offset": 0,
        "slot": "265",
        "type": "t_mapping(t_address,t_bool)"
      },
      {
        "astId": 23657,
        "contract": "contracts/Dao.sol:Dao",
        "label": "__gap",
        "offset": 0,
        "slot": "266",
        "type": "t_array(t_uint256)49_storage"
      }
    ],
    "types": {
      "t_address": {
        "encoding": "inplace",
        "label": "address",
        "numberOfBytes": "20"
      },
      "t_array(t_uint256)49_storage": {
        "base": "t_uint256",
        "encoding": "inplace",
        "label": "uint256[49]",
        "numberOfBytes": "1568"
      },
      "t_array(t_uint256)50_storage": {
        "base": "t_uint256",
        "encoding": "inplace",
        "label": "uint256[50]",
        "numberOfBytes": "1600"
      },
      "t_bool": {
        "encoding": "inplace",
        "label": "bool",
        "numberOfBytes": "1"
      },
      "t_bytes32": {
        "encoding": "inplace",
        "label": "bytes32",
        "numberOfBytes": "32"
      },
      "t_mapping(t_address,t_bool)": {
        "encoding": "mapping",
        "key": "t_address",
        "label": "mapping(address => bool)",
        "numberOfBytes": "32",
        "value": "t_bool"
      },
      "t_mapping(t_address,t_uint256)": {
        "encoding": "mapping",
        "key": "t_address",
        "label": "mapping(address => uint256)",
        "numberOfBytes": "32",
        "value": "t_uint256"
      },
      "t_mapping(t_bytes32,t_address)": {
        "encoding": "mapping",
        "key": "t_bytes32",
        "label": "mapping(bytes32 => address)",
        "numberOfBytes": "32",
        "value": "t_address"
      },
      "t_mapping(t_string_memory_ptr,t_address)": {
        "encoding": "mapping",
        "key": "t_string_memory_ptr",
        "label": "mapping(string => address)",
        "numberOfBytes": "32",
        "value": "t_address"
      },
      "t_string_memory_ptr": {
        "encoding": "bytes",
        "label": "string",
        "numberOfBytes": "32"
      },
      "t_string_storage": {
        "encoding": "bytes",
        "label": "string",
        "numberOfBytes": "32"
      },
      "t_uint256": {
        "encoding": "inplace",
        "label": "uint256",
        "numberOfBytes": "32"
      },
      "t_uint8": {
        "encoding": "inplace",
        "label": "uint8",
        "numberOfBytes": "1"
      }
    }
  }
}