{
  "address": "0xd901395Dfc63d9470345BF76580F6EcAe83173B8",
  "abi": [
    {
      "inputs": [],
      "stateMutability": "nonpayable",
      "type": "constructor"
    },
    {
      "anonymous": false,
      "inputs": [
        {
          "indexed": false,
          "internalType": "address",
          "name": "token",
          "type": "address"
        },
        {
          "indexed": false,
          "internalType": "uint256",
          "name": "minTokenToAdmit",
          "type": "uint256"
        },
        {
          "indexed": false,
          "internalType": "uint256",
          "name": "tokenId",
          "type": "uint256"
        },
        {
          "indexed": false,
          "internalType": "bool",
          "name": "isMemberToken",
          "type": "bool"
        }
      ],
      "name": "AddAdmissionToken",
      "type": "event"
    },
    {
      "anonymous": false,
      "inputs": [
        {
          "indexed": false,
          "internalType": "address",
          "name": "previousAdmin",
          "type": "address"
        },
        {
          "indexed": false,
          "internalType": "address",
          "name": "newAdmin",
          "type": "address"
        }
      ],
      "name": "AdminChanged",
      "type": "event"
    },
    {
      "anonymous": false,
      "inputs": [
        {
          "indexed": false,
          "internalType": "address",
          "name": "token",
          "type": "address"
        }
      ],
      "name": "AllowDepositToken",
      "type": "event"
    },
    {
      "anonymous": false,
      "inputs": [
        {
          "indexed": true,
          "internalType": "address",
          "name": "beacon",
          "type": "address"
        }
      ],
      "name": "BeaconUpgraded",
      "type": "event"
    },
    {
      "anonymous": false,
      "inputs": [
        {
          "indexed": false,
          "internalType": "address",
          "name": "budgetApproval",
          "type": "address"
        },
        {
          "indexed": false,
          "internalType": "bytes",
          "name": "data",
          "type": "bytes"
        }
      ],
      "name": "CreateBudgetApproval",
      "type": "event"
    },
    {
      "anonymous": false,
      "inputs": [
        {
          "indexed": false,
          "internalType": "address",
          "name": "account",
          "type": "address"
        },
        {
          "indexed": false,
          "internalType": "uint256",
          "name": "depositAmount",
          "type": "uint256"
        }
      ],
      "name": "CreateMember",
      "type": "event"
    },
    {
      "anonymous": false,
      "inputs": [
        {
          "indexed": false,
          "internalType": "address",
          "name": "creator",
          "type": "address"
        },
        {
          "indexed": false,
          "internalType": "address",
          "name": "token",
          "type": "address"
        }
      ],
      "name": "CreateMemberToken",
      "type": "event"
    },
    {
      "anonymous": false,
      "inputs": [
        {
          "indexed": false,
          "internalType": "address",
          "name": "account",
          "type": "address"
        },
        {
          "indexed": false,
          "internalType": "uint256",
          "name": "amount",
          "type": "uint256"
        }
      ],
      "name": "Deposit",
      "type": "event"
    },
    {
      "anonymous": false,
      "inputs": [
        {
          "indexed": false,
          "internalType": "address",
          "name": "budgetApproval",
          "type": "address"
        },
        {
          "indexed": false,
          "internalType": "bytes",
          "name": "data",
          "type": "bytes"
        }
      ],
      "name": "ExecuteByBudgetApproval",
      "type": "event"
    },
    {
      "anonymous": false,
      "inputs": [
        {
          "indexed": false,
          "internalType": "uint8",
          "name": "version",
          "type": "uint8"
        }
      ],
      "name": "Initialized",
      "type": "event"
    },
    {
      "anonymous": false,
      "inputs": [
        {
          "indexed": false,
          "internalType": "address",
          "name": "member",
          "type": "address"
        }
      ],
      "name": "MemberQuit",
      "type": "event"
    },
    {
      "anonymous": false,
      "inputs": [
        {
          "indexed": false,
          "internalType": "address",
          "name": "token",
          "type": "address"
        }
      ],
      "name": "RemoveAdmissionToken",
      "type": "event"
    },
    {
      "anonymous": false,
      "inputs": [
        {
          "indexed": false,
          "internalType": "address",
          "name": "budgetApproval",
          "type": "address"
        }
      ],
      "name": "RevokeBudgetApproval",
      "type": "event"
    },
    {
      "anonymous": false,
      "inputs": [
        {
          "indexed": false,
          "internalType": "address",
          "name": "owner",
          "type": "address"
        },
        {
          "indexed": false,
          "internalType": "uint256",
          "name": "time",
          "type": "uint256"
        }
      ],
      "name": "SetFirstDepositTime",
      "type": "event"
    },
    {
      "anonymous": false,
      "inputs": [
        {
          "indexed": false,
          "internalType": "uint256",
          "name": "locktime",
          "type": "uint256"
        }
      ],
      "name": "UpdateLocktime",
      "type": "event"
    },
    {
      "anonymous": false,
      "inputs": [
        {
          "indexed": false,
          "internalType": "string",
          "name": "logoCID",
          "type": "string"
        }
      ],
      "name": "UpdateLogoCID",
      "type": "event"
    },
    {
      "anonymous": false,
      "inputs": [
        {
          "indexed": false,
          "internalType": "uint256",
          "name": "amount",
          "type": "uint256"
        }
      ],
      "name": "UpdateMinDepositAmount",
      "type": "event"
    },
    {
      "anonymous": false,
      "inputs": [
        {
          "indexed": false,
          "internalType": "string",
          "name": "remark",
          "type": "string"
        }
      ],
      "name": "UpgradeDao",
      "type": "event"
    },
    {
      "anonymous": false,
      "inputs": [
        {
          "indexed": true,
          "internalType": "address",
          "name": "implementation",
          "type": "address"
        }
      ],
      "name": "Upgraded",
      "type": "event"
    },
    {
      "anonymous": false,
      "inputs": [
        {
          "indexed": false,
          "internalType": "uint256",
          "name": "tokenId",
          "type": "uint256"
        }
      ],
      "name": "WhitelistTeam",
      "type": "event"
    },
    {
      "inputs": [],
      "name": "adam",
      "outputs": [
        {
          "internalType": "address",
          "name": "",
          "type": "address"
        }
      ],
      "stateMutability": "view",
      "type": "function"
    },
    {
      "inputs": [
        {
          "internalType": "address",
          "name": "token",
          "type": "address"
        },
        {
          "internalType": "uint256",
          "name": "minTokenToAdmit",
          "type": "uint256"
        },
        {
          "internalType": "uint256",
          "name": "tokenId",
          "type": "uint256"
        }
      ],
      "name": "addAdmissionToken",
      "outputs": [],
      "stateMutability": "nonpayable",
      "type": "function"
    },
    {
      "inputs": [
        {
          "internalType": "address[]",
          "name": "erc20s",
          "type": "address[]"
        }
      ],
      "name": "addAssets",
      "outputs": [],
      "stateMutability": "nonpayable",
      "type": "function"
    },
    {
      "inputs": [
        {
          "internalType": "address",
          "name": "",
          "type": "address"
        }
      ],
      "name": "admissionTokenSetting",
      "outputs": [
        {
          "internalType": "uint256",
          "name": "minTokenToAdmit",
          "type": "uint256"
        },
        {
          "internalType": "uint256",
          "name": "tokenId",
          "type": "uint256"
        },
        {
          "internalType": "bool",
          "name": "active",
          "type": "bool"
        }
      ],
      "stateMutability": "view",
      "type": "function"
    },
    {
      "inputs": [
        {
          "internalType": "uint256",
          "name": "",
          "type": "uint256"
        }
      ],
      "name": "admissionTokens",
      "outputs": [
        {
          "internalType": "address",
          "name": "",
          "type": "address"
        }
      ],
      "stateMutability": "view",
      "type": "function"
    },
    {
      "inputs": [],
      "name": "admissionTokensLength",
      "outputs": [
        {
          "internalType": "uint256",
          "name": "",
          "type": "uint256"
        }
      ],
      "stateMutability": "view",
      "type": "function"
    },
    {
      "inputs": [
        {
          "internalType": "address",
          "name": "account",
          "type": "address"
        },
        {
          "internalType": "uint256",
          "name": "amount",
          "type": "uint256"
        }
      ],
      "name": "afterDeposit",
      "outputs": [],
      "stateMutability": "nonpayable",
      "type": "function"
    },
    {
      "inputs": [],
      "name": "baseCurrency",
      "outputs": [
        {
          "internalType": "address",
          "name": "",
          "type": "address"
        }
      ],
      "stateMutability": "view",
      "type": "function"
    },
    {
      "inputs": [
        {
          "internalType": "address",
          "name": "template",
          "type": "address"
        }
      ],
      "name": "budgetApprovals",
      "outputs": [
        {
          "internalType": "bool",
          "name": "",
          "type": "bool"
        }
      ],
      "stateMutability": "view",
      "type": "function"
    },
    {
      "inputs": [
        {
          "internalType": "address",
          "name": "account",
          "type": "address"
        }
      ],
      "name": "byPassGovern",
      "outputs": [
        {
          "internalType": "bool",
          "name": "",
          "type": "bool"
        }
      ],
      "stateMutability": "view",
      "type": "function"
    },
    {
      "inputs": [
        {
          "internalType": "address",
          "name": "budgetApproval",
          "type": "address"
        }
      ],
      "name": "canCreateBudgetApproval",
      "outputs": [
        {
          "internalType": "bool",
          "name": "",
          "type": "bool"
        }
      ],
      "stateMutability": "view",
      "type": "function"
    },
    {
      "inputs": [
        {
          "internalType": "address[]",
          "name": "__budgetApprovals",
          "type": "address[]"
        },
        {
          "internalType": "bytes[]",
          "name": "data",
          "type": "bytes[]"
        }
      ],
      "name": "createBudgetApprovals",
      "outputs": [],
      "stateMutability": "nonpayable",
      "type": "function"
    },
    {
      "inputs": [
        {
          "internalType": "string",
          "name": "_name",
          "type": "string"
        },
        {
          "internalType": "uint256",
          "name": "duration",
          "type": "uint256"
        },
        {
          "internalType": "uint256",
          "name": "quorum",
          "type": "uint256"
        },
        {
          "internalType": "uint256",
          "name": "passThreshold",
          "type": "uint256"
        },
        {
          "internalType": "enum Dao.VoteType",
          "name": "voteType",
          "type": "uint8"
        },
        {
          "internalType": "address",
          "name": "externalVoteToken",
          "type": "address"
        }
      ],
      "name": "createGovern",
      "outputs": [],
      "stateMutability": "nonpayable",
      "type": "function"
    },
    {
      "inputs": [
        {
          "internalType": "string",
          "name": "title",
          "type": "string"
        },
        {
          "internalType": "address",
          "name": "minter",
          "type": "address"
        },
        {
          "internalType": "address[]",
          "name": "members",
          "type": "address[]"
        },
        {
          "internalType": "string",
          "name": "description",
          "type": "string"
        }
      ],
      "name": "createTeam",
      "outputs": [],
      "stateMutability": "nonpayable",
      "type": "function"
    },
    {
      "inputs": [],
      "name": "creator",
      "outputs": [
        {
          "internalType": "address",
          "name": "",
          "type": "address"
        }
      ],
      "stateMutability": "view",
      "type": "function"
    },
    {
      "inputs": [
        {
          "internalType": "address",
          "name": "_to",
          "type": "address"
        },
        {
          "internalType": "bytes",
          "name": "_data",
          "type": "bytes"
        },
        {
          "internalType": "uint256",
          "name": "_value",
          "type": "uint256"
        }
      ],
      "name": "executeByBudgetApproval",
      "outputs": [
        {
          "internalType": "bytes",
          "name": "",
          "type": "bytes"
        }
      ],
      "stateMutability": "nonpayable",
      "type": "function"
    },
    {
      "inputs": [
        {
          "internalType": "address",
          "name": "",
          "type": "address"
        }
      ],
      "name": "firstDepositTime",
      "outputs": [
        {
          "internalType": "uint256",
          "name": "",
          "type": "uint256"
        }
      ],
      "stateMutability": "view",
      "type": "function"
    },
    {
      "inputs": [
        {
          "internalType": "string",
          "name": "gName",
          "type": "string"
        }
      ],
      "name": "govern",
      "outputs": [
        {
          "internalType": "address",
          "name": "",
          "type": "address"
        }
      ],
      "stateMutability": "view",
      "type": "function"
    },
    {
      "inputs": [],
      "name": "governFactory",
      "outputs": [
        {
          "internalType": "address",
          "name": "",
          "type": "address"
        }
      ],
      "stateMutability": "view",
      "type": "function"
    },
    {
      "inputs": [
        {
          "components": [
            {
              "internalType": "address",
              "name": "_creator",
              "type": "address"
            },
            {
              "internalType": "address",
              "name": "_membership",
              "type": "address"
            },
            {
              "internalType": "address",
              "name": "_liquidPool",
              "type": "address"
            },
            {
              "internalType": "address",
              "name": "_governFactory",
              "type": "address"
            },
            {
              "internalType": "address",
              "name": "_team",
              "type": "address"
            },
            {
              "internalType": "address",
              "name": "_memberTokenImplementation",
              "type": "address"
            },
            {
              "internalType": "string",
              "name": "_name",
              "type": "string"
            },
            {
              "internalType": "string",
              "name": "_description",
              "type": "string"
            },
            {
              "internalType": "address",
              "name": "baseCurrency",
              "type": "address"
            },
            {
              "internalType": "string",
              "name": "_memberTokenName",
              "type": "string"
            },
            {
              "internalType": "string",
              "name": "_memberTokenSymbol",
              "type": "string"
            },
            {
              "internalType": "address[]",
              "name": "depositTokens",
              "type": "address[]"
            }
          ],
          "internalType": "struct Dao.InitializeParams",
          "name": "params",
          "type": "tuple"
        },
        {
          "internalType": "bytes[]",
          "name": "data",
          "type": "bytes[]"
        }
      ],
      "name": "initialize",
      "outputs": [],
      "stateMutability": "nonpayable",
      "type": "function"
    },
    {
      "inputs": [
        {
          "internalType": "address",
          "name": "",
          "type": "address"
        }
      ],
      "name": "isAssetSupported",
      "outputs": [
        {
          "internalType": "bool",
          "name": "",
          "type": "bool"
        }
      ],
      "stateMutability": "view",
      "type": "function"
    },
    {
      "inputs": [
        {
          "internalType": "address",
          "name": "account",
          "type": "address"
        }
      ],
      "name": "isMember",
      "outputs": [
        {
          "internalType": "bool",
          "name": "",
          "type": "bool"
        }
      ],
      "stateMutability": "view",
      "type": "function"
    },
    {
      "inputs": [
        {
          "internalType": "address",
          "name": "account",
          "type": "address"
        }
      ],
      "name": "isPassAdmissionToken",
      "outputs": [
        {
          "internalType": "bool",
          "name": "",
          "type": "bool"
        }
      ],
      "stateMutability": "view",
      "type": "function"
    },
    {
      "inputs": [],
      "name": "liquidPool",
      "outputs": [
        {
          "internalType": "address",
          "name": "",
          "type": "address"
        }
      ],
      "stateMutability": "view",
      "type": "function"
    },
    {
      "inputs": [],
      "name": "locktime",
      "outputs": [
        {
          "internalType": "uint256",
          "name": "",
          "type": "uint256"
        }
      ],
      "stateMutability": "view",
      "type": "function"
    },
    {
      "inputs": [],
      "name": "logoCID",
      "outputs": [
        {
          "internalType": "string",
          "name": "",
          "type": "string"
        }
      ],
      "stateMutability": "view",
      "type": "function"
    },
    {
      "inputs": [],
      "name": "memberToken",
      "outputs": [
        {
          "internalType": "address",
          "name": "",
          "type": "address"
        }
      ],
      "stateMutability": "view",
      "type": "function"
    },
    {
      "inputs": [],
      "name": "membership",
      "outputs": [
        {
          "internalType": "address",
          "name": "",
          "type": "address"
        }
      ],
      "stateMutability": "view",
      "type": "function"
    },
    {
      "inputs": [],
      "name": "minDepositAmount",
      "outputs": [
        {
          "internalType": "uint256",
          "name": "",
          "type": "uint256"
        }
      ],
      "stateMutability": "view",
      "type": "function"
    },
    {
      "inputs": [
        {
          "internalType": "uint256",
          "name": "amount",
          "type": "uint256"
        }
      ],
      "name": "mintMemberToken",
      "outputs": [],
      "stateMutability": "nonpayable",
      "type": "function"
    },
    {
      "inputs": [],
      "name": "name",
      "outputs": [
        {
          "internalType": "string",
          "name": "",
          "type": "string"
        }
      ],
      "stateMutability": "view",
      "type": "function"
    },
    {
      "inputs": [
        {
          "internalType": "address",
          "name": "",
          "type": "address"
        },
        {
          "internalType": "address",
          "name": "",
          "type": "address"
        },
        {
          "internalType": "uint256[]",
          "name": "",
          "type": "uint256[]"
        },
        {
          "internalType": "uint256[]",
          "name": "",
          "type": "uint256[]"
        },
        {
          "internalType": "bytes",
          "name": "",
          "type": "bytes"
        }
      ],
      "name": "onERC1155BatchReceived",
      "outputs": [
        {
          "internalType": "bytes4",
          "name": "",
          "type": "bytes4"
        }
      ],
      "stateMutability": "nonpayable",
      "type": "function"
    },
    {
      "inputs": [
        {
          "internalType": "address",
          "name": "",
          "type": "address"
        },
        {
          "internalType": "address",
          "name": "",
          "type": "address"
        },
        {
          "internalType": "uint256",
          "name": "",
          "type": "uint256"
        },
        {
          "internalType": "uint256",
          "name": "",
          "type": "uint256"
        },
        {
          "internalType": "bytes",
          "name": "",
          "type": "bytes"
        }
      ],
      "name": "onERC1155Received",
      "outputs": [
        {
          "internalType": "bytes4",
          "name": "",
          "type": "bytes4"
        }
      ],
      "stateMutability": "nonpayable",
      "type": "function"
    },
    {
      "inputs": [
        {
          "internalType": "address",
          "name": "",
          "type": "address"
        },
        {
          "internalType": "address",
          "name": "",
          "type": "address"
        },
        {
          "internalType": "uint256",
          "name": "",
          "type": "uint256"
        },
        {
          "internalType": "bytes",
          "name": "",
          "type": "bytes"
        }
      ],
      "name": "onERC721Received",
      "outputs": [
        {
          "internalType": "bytes4",
          "name": "",
          "type": "bytes4"
        }
      ],
      "stateMutability": "nonpayable",
      "type": "function"
    },
    {
      "inputs": [],
      "name": "proxiableUUID",
      "outputs": [
        {
          "internalType": "bytes32",
          "name": "",
          "type": "bytes32"
        }
      ],
      "stateMutability": "view",
      "type": "function"
    },
    {
      "inputs": [
        {
          "internalType": "uint256",
          "name": "membershipTokenId",
          "type": "uint256"
        }
      ],
      "name": "quit",
      "outputs": [],
      "stateMutability": "nonpayable",
      "type": "function"
    },
    {
      "inputs": [
        {
          "internalType": "uint256",
          "name": "index",
          "type": "uint256"
        }
      ],
      "name": "removeAdmissionToken",
      "outputs": [],
      "stateMutability": "nonpayable",
      "type": "function"
    },
    {
      "inputs": [
        {
          "internalType": "address[]",
          "name": "__budgetApprovals",
          "type": "address[]"
        }
      ],
      "name": "revokeBudgetApprovals",
      "outputs": [],
      "stateMutability": "nonpayable",
      "type": "function"
    },
    {
      "inputs": [
        {
          "internalType": "address",
          "name": "owner",
          "type": "address"
        }
      ],
      "name": "setFirstDepositTime",
      "outputs": [],
      "stateMutability": "nonpayable",
      "type": "function"
    },
    {
      "inputs": [
        {
          "internalType": "uint256",
          "name": "_locktime",
          "type": "uint256"
        }
      ],
      "name": "setLocktime",
      "outputs": [],
      "stateMutability": "nonpayable",
      "type": "function"
    },
    {
      "inputs": [
        {
          "internalType": "string",
          "name": "_logoCID",
          "type": "string"
        }
      ],
      "name": "setLogoCID",
      "outputs": [],
      "stateMutability": "nonpayable",
      "type": "function"
    },
    {
      "inputs": [
        {
          "internalType": "uint256",
          "name": "minTokenToAdmit",
          "type": "uint256"
        }
      ],
      "name": "setMemberTokenAsAdmissionToken",
      "outputs": [],
      "stateMutability": "nonpayable",
      "type": "function"
    },
    {
      "inputs": [
        {
          "internalType": "uint256",
          "name": "_minDepositAmount",
          "type": "uint256"
        }
      ],
      "name": "setMinDepositAmount",
      "outputs": [],
      "stateMutability": "nonpayable",
      "type": "function"
    },
    {
      "inputs": [
        {
          "internalType": "bytes4",
          "name": "interfaceId",
          "type": "bytes4"
        }
      ],
      "name": "supportsInterface",
      "outputs": [
        {
          "internalType": "bool",
          "name": "",
          "type": "bool"
        }
      ],
      "stateMutability": "view",
      "type": "function"
    },
    {
      "inputs": [],
      "name": "team",
      "outputs": [
        {
          "internalType": "address",
          "name": "",
          "type": "address"
        }
      ],
      "stateMutability": "view",
      "type": "function"
    },
    {
      "inputs": [
        {
          "internalType": "uint256",
          "name": "",
          "type": "uint256"
        }
      ],
      "name": "teamWhitelist",
      "outputs": [
        {
          "internalType": "bool",
          "name": "",
          "type": "bool"
        }
      ],
      "stateMutability": "view",
      "type": "function"
    },
    {
      "inputs": [
        {
          "internalType": "address",
          "name": "to",
          "type": "address"
        },
        {
          "internalType": "uint256",
          "name": "amount",
          "type": "uint256"
        }
      ],
      "name": "transferMemberToken",
      "outputs": [],
      "stateMutability": "nonpayable",
      "type": "function"
    },
    {
      "inputs": [
        {
          "internalType": "address[]",
          "name": "targets",
          "type": "address[]"
        },
        {
          "internalType": "address[]",
          "name": "newImplementations",
          "type": "address[]"
        },
        {
          "internalType": "string",
          "name": "remark",
          "type": "string"
        }
      ],
      "name": "upgradeImplementations",
      "outputs": [],
      "stateMutability": "nonpayable",
      "type": "function"
    },
    {
      "inputs": [
        {
          "internalType": "address",
          "name": "newImplementation",
          "type": "address"
        }
      ],
      "name": "upgradeTo",
      "outputs": [],
      "stateMutability": "nonpayable",
      "type": "function"
    },
    {
      "inputs": [
        {
          "internalType": "address",
          "name": "newImplementation",
          "type": "address"
        },
        {
          "internalType": "bytes",
          "name": "data",
          "type": "bytes"
        }
      ],
      "name": "upgradeToAndCall",
      "outputs": [],
      "stateMutability": "payable",
      "type": "function"
    },
    {
      "stateMutability": "payable",
      "type": "receive"
    }
  ],
  "transactionHash": "0xd9265ee8c82dd73df842565e6c1b627f30b7695443cf51d63393ba5f892b370a",
  "args": [],
  "numDeployments": 4,
  "solcInputHash": "04e63192a24ae6ce3e7c2cd97ecad424",
  "bytecode": "0x60a06040523060601b6080523480156200001857600080fd5b506200002362000033565b6200002d62000033565b620000f5565b600054610100900460ff1615620000a05760405162461bcd60e51b815260206004820152602760248201527f496e697469616c697a61626c653a20636f6e747261637420697320696e697469604482015266616c697a696e6760c81b606482015260840160405180910390fd5b60005460ff9081161015620000f3576000805460ff191660ff9081179091556040519081527f7f26b83ff96e1f2b6a682f133852f6798a09c465da95921460cefb38474024989060200160405180910390a15b565b60805160601c61560162000130600039600081816112510152818161129401528181611d4b01528181611d8e0152611e2a01526156016000f3fe608060405260043610620003095760003560e01c80638b805e961162000194578063bcfb1a4011620000ee578063df79812e11620000a1578063ed0b66bc1162000078578063ed0b66bc1462000aa9578063f1fc061f1462000ace578063f23a6e611462000af3578063fbf6cf5d1462000b2357600080fd5b8063df79812e14620009fd578063e3c1fe981462000a22578063eb6d00a61462000a4757600080fd5b8063bcfb1a40146200091f578063c31176951462000944578063c69e6c401462000969578063d00e8ed0146200098e578063d3abc28b14620009b3578063d80ec81314620009d857600080fd5b8063a240663e1162000147578063a240663e146200082c578063a2bf68b9146200086a578063aea321c6146200088d578063b34bacdd14620008b2578063b6dbbc5614620008ca578063bc197c8114620008ef57600080fd5b80638b805e9614620007525780638e3d5d56146200077757806392a85fde146200079a5780639b1c505e14620007bd578063a177db1314620007e2578063a230c524146200080757600080fd5b8063406cfb75116200026357806357338b221162000216578063645006ca11620001ed578063645006ca14620006c35780636cb7c6f914620006dc57806385f2aef2146200070e57806389409516146200072f57600080fd5b806357338b2214620006645780635cb54384146200068757806361c533b414620006aa57600080fd5b8063406cfb751462000582578063464b415814620005a75780634866b9e014620005dc5780634b31c1d814620006015780634f1ef286146200062657806352d1902d146200063d57600080fd5b80632a80cda311620002bc5780632a80cda314620004945780632f10e23614620004b9578063301099a314620004ee578063344cbc6814620005135780633659cfe614620005385780633e0f7fde146200055d57600080fd5b806301ffc9a714620003645780630280179e146200039e57806302d05d3f14620003c357806306fdde0314620003ff578063150b7a02146200042657806319f6ac09146200046f57600080fd5b366200035f5733158015906200031e57503415155b156200035d57604080513381523460208201527fe1fffcc4923d04b559f4d29a8bfc6cda04eb5b0d3c460751c2402c5c5cc9109c910160405180910390a15b005b600080fd5b3480156200037157600080fd5b506200038962000383366004620045b6565b62000b3b565b60405190151581526020015b60405180910390f35b348015620003ab57600080fd5b506200035d620003bd366004620043da565b62000b73565b348015620003d057600080fd5b5061016254620003e6906001600160a01b031681565b6040516001600160a01b03909116815260200162000395565b3480156200040c57600080fd5b506200041762000c61565b60405162000395919062004ad0565b3480156200043357600080fd5b50620004556200044536600462004215565b630a85bd0160e11b949350505050565b6040516001600160e01b0319909116815260200162000395565b3480156200047c57600080fd5b506200035d6200048e366004620045e2565b62000cf8565b348015620004a157600080fd5b506200035d620004b3366004620049a4565b62000dc8565b348015620004c657600080fd5b5062000389620004d8366004620049a4565b6101706020526000908152604090205460ff1681565b348015620004fb57600080fd5b506200035d6200050d366004620049a4565b62000e86565b3480156200052057600080fd5b506200035d62000532366004620049a4565b62000f3d565b3480156200054557600080fd5b506200035d620005573660046200411a565b62001246565b3480156200056a57600080fd5b506200035d6200057c3660046200475a565b62001332565b3480156200058f57600080fd5b5062000389620005a13660046200411a565b620014b0565b348015620005b457600080fd5b5062000389620005c63660046200411a565b61016f6020526000908152604090205460ff1681565b348015620005e957600080fd5b506200035d620005fb366004620047f6565b620016e2565b3480156200060e57600080fd5b506200035d6200062036600462004457565b62001ae1565b6200035d62000637366004620042f8565b62001d40565b3480156200064a57600080fd5b506200065562001e1d565b60405190815260200162000395565b3480156200067157600080fd5b5061016554620003e6906001600160a01b031681565b3480156200069457600080fd5b5061016154620003e6906001600160a01b031681565b348015620006b757600080fd5b50620006556101685481565b348015620006d057600080fd5b50620006556101695481565b348015620006e957600080fd5b5062000655620006fb3660046200411a565b61016e6020526000908152604090205481565b3480156200071b57600080fd5b5061012d546001600160a01b0316620003e6565b3480156200073c57600080fd5b5061016654620003e6906001600160a01b031681565b3480156200075f57600080fd5b506200035d62000771366004620049a4565b62001ed3565b3480156200078457600080fd5b5061016354620003e6906001600160a01b031681565b348015620007a757600080fd5b5061016a54620003e6906001600160a01b031681565b348015620007ca57600080fd5b506200035d620007dc366004620049a4565b62001f5e565b348015620007ef57600080fd5b506200035d620008013660046200411a565b6200216a565b3480156200081457600080fd5b5062000389620008263660046200411a565b6200220b565b3480156200083957600080fd5b50620003896200084b3660046200411a565b6001600160a01b0316600090815261012e602052604090205460ff1690565b3480156200087757600080fd5b5061016454620003e6906001600160a01b031681565b3480156200089a57600080fd5b506200035d620008ac36600462004412565b6200228f565b348015620008bf57600080fd5b50620004176200234d565b348015620008d757600080fd5b5062000389620008e93660046200411a565b6200235d565b348015620008fc57600080fd5b50620004556200090e3660046200415a565b63bc197c8160e01b95945050505050565b3480156200092c57600080fd5b50620003e66200093e366004620049a4565b620023f5565b3480156200095157600080fd5b506200035d62000963366004620043ab565b62002421565b3480156200097657600080fd5b50620003e662000988366004620046ac565b620024ad565b3480156200099b57600080fd5b506200035d620009ad366004620044d8565b62002537565b348015620009c057600080fd5b5062000417620009d23660046200434d565b620026ea565b348015620009e557600080fd5b506200035d620009f73660046200461b565b62002875565b34801562000a0a57600080fd5b506200035d62000a1c36600462004518565b62002ade565b34801562000a2f57600080fd5b506200035d62000a41366004620043ab565b62002cbd565b34801562000a5457600080fd5b5062000a8b62000a663660046200411a565b6101716020526000908152604090208054600182015460029092015490919060ff1683565b60408051938452602084019290925215159082015260600162000395565b34801562000ab657600080fd5b506200038962000ac83660046200411a565b62002e3c565b34801562000adb57600080fd5b506200035d62000aed366004620049a4565b62002e71565b34801562000b0057600080fd5b506200045562000b1236600462004288565b63f23a6e6160e01b95945050505050565b34801562000b3057600080fd5b5061016c5462000655565b60006001600160e01b03198216630271189760e51b148062000b6d57506301ffc9a760e01b6001600160e01b03198316145b92915050565b6040518060400160405280600781526020016611d95b995c985b60ca1b81525062000b9e336200235d565b8062000bc5575062000bb081620024ad565b6001600160a01b0316336001600160a01b0316145b8062000bd4575061016d5460ff165b62000bfc5760405162461bcd60e51b815260040162000bf39062004bc6565b60405180910390fd5b62000c0984848462002f5e565b604080516001600160a01b038616815260208101859052908101839052600060608201527fc7ff60e3f07d1e83c30c2fb716313eccef5470e6bdf300d865c747e76f379a83906080015b60405180910390a150505050565b610167805462000c719062004d84565b80601f016020809104026020016040519081016040528092919081815260200182805462000c9f9062004d84565b801562000cf05780601f1062000cc45761010080835404028352916020019162000cf0565b820191906000526020600020905b81548152906001019060200180831162000cd257829003601f168201915b505050505081565b6040518060400160405280600781526020016611d95b995c985b60ca1b81525062000d23336200235d565b8062000d4a575062000d3581620024ad565b6001600160a01b0316336001600160a01b0316145b8062000d59575061016d5460ff165b62000d785760405162461bcd60e51b815260040162000bf39062004bc6565b62000d8761016b848462003d6d565b507f73fe47029acc9de832b3f5412b2a47ba49a85ed9c4aa1c3ab65fcc23ec943cf8838360405162000dbb92919062004ae5565b60405180910390a1505050565b6040518060400160405280600781526020016611d95b995c985b60ca1b81525062000df3336200235d565b8062000e1a575062000e0581620024ad565b6001600160a01b0316336001600160a01b0316145b8062000e29575061016d5460ff165b62000e485760405162461bcd60e51b815260040162000bf39062004bc6565b6101698290556040518281527fbe19bc97d2bca5ac16c999faf6d2fbde29b13fae7020e3a390febf030f8242d7906020015b60405180910390a15050565b6040518060400160405280600781526020016611d95b995c985b60ca1b81525062000eb1336200235d565b8062000ed8575062000ec381620024ad565b6001600160a01b0316336001600160a01b0316145b8062000ee7575061016d5460ff165b62000f065760405162461bcd60e51b815260040162000bf39062004bc6565b6101688290556040518281527fd74e243e16d9026669a4805403df1e6c18e3f0c38e89e50e8846c3f329f81e7e9060200162000e7a565b610164546040516331a9108f60e11b8152600481018390526001600160a01b03909116906000908290636352211e9060240160206040518083038186803b15801562000f8857600080fd5b505afa15801562000f9d573d6000803e3d6000fd5b505050506040513d601f19601f8201168201806040525081019062000fc391906200413a565b9050336001600160a01b03821614620010135760405162461bcd60e51b815260206004820152601160248201527014195c9b5a5cdcda5bdb8819195b9a5959607a1b604482015260640162000bf3565b610165546040516370a0823160e01b81526001600160a01b038381166004830152909116906370a082319060240160206040518083038186803b1580156200105a57600080fd5b505afa1580156200106f573d6000803e3d6000fd5b505050506040513d601f19601f820116820180604052508101906200109591906200459c565b15620010dd5760405162461bcd60e51b81526020600482015260166024820152754c502062616c616e6365206973206e6f74207a65726f60501b604482015260640162000bf3565b60405163288c314960e21b81526001600160a01b03828116600483015283169063a230c5249060240160206040518083038186803b1580156200111f57600080fd5b505afa15801562001134573d6000803e3d6000fd5b505050506040513d601f19601f820116820180604052508101906200115a919062004578565b15156001146200119c5760405162461bcd60e51b815260206004820152600c60248201526b2737ba10309036b2b6b132b960a11b604482015260640162000bf3565b6040516350d3a55760e11b8152600481018490526001600160a01b0383169063a1a74aae90602401600060405180830381600087803b158015620011df57600080fd5b505af1158015620011f4573d6000803e3d6000fd5b505050506001600160a01b038116600081815261016e602090815260408083209290925590519182527f950a11f80aa30348b1643119360881f6d3b38be1c74e26f857f2a4fe570f87c5910162000dbb565b306001600160a01b037f0000000000000000000000000000000000000000000000000000000000000000161415620012925760405162461bcd60e51b815260040162000bf39062004bf4565b7f00000000000000000000000000000000000000000000000000000000000000006001600160a01b0316620012dd60008051602062005585833981519152546001600160a01b031690565b6001600160a01b031614620013065760405162461bcd60e51b815260040162000bf39062004c40565b620013118162003111565b604080516000808252602082019092526200132f9183919062003191565b50565b6040518060400160405280600781526020016611d95b995c985b60ca1b8152506200135d336200235d565b806200138457506200136f81620024ad565b6001600160a01b0316336001600160a01b0316145b8062001393575061016d5460ff165b620013b25760405162461bcd60e51b815260040162000bf39062004bc6565b6000620013c861012d546001600160a01b031690565b6001600160a01b03166253153b878787876040518563ffffffff1660e01b8152600401620013fa949392919062004b3f565b602060405180830381600087803b1580156200141557600080fd5b505af11580156200142a573d6000803e3d6000fd5b505050506040513d601f19601f820116820180604052508101906200145091906200459c565b6000818152610170602052604090819020805460ff19166001179055519091507ff94f63f5f9de5de7659ae3ccaa099cce39347833cbd85ffe78570b86f4051ab490620014a09083815260200190565b60405180910390a1505050505050565b61016c54600090815b81811015620016d857600061016c8281548110620014db57620014db62004e21565b60009182526020808320909101546001600160a01b03168083526101719091526040909120549091508015620016c057600062001521836001600160a01b031662003319565b15620015ad576040516370a0823160e01b81526001600160a01b0388811660048301528416906370a08231906024015b60206040518083038186803b1580156200156a57600080fd5b505afa1580156200157f573d6000803e3d6000fd5b505050506040513d601f19601f82011682018060405250810190620015a591906200459c565b9050620016a8565b620015c1836001600160a01b0316620033a9565b156200160e576001600160a01b038381166000818152610171602052604090819020600101549051627eeac760e11b8152928a16600484015260248301529062fdd58e9060440162001551565b62001622836001600160a01b0316620033e0565b15620016a8576040516370a0823160e01b81526001600160a01b0388811660048301528416906370a082319060240160206040518083038186803b1580156200166a57600080fd5b505afa1580156200167f573d6000803e3d6000fd5b505050506040513d601f19601f82011682018060405250810190620016a591906200459c565b90505b81811015620016be575060009695505050505050565b505b50508080620016cf9062004dc1565b915050620014b9565b5060019392505050565b600054610100900460ff1615808015620017035750600054600160ff909116105b806200171f5750303b1580156200171f575060005460ff166001145b620017845760405162461bcd60e51b815260206004820152602e60248201527f496e697469616c697a61626c653a20636f6e747261637420697320616c72656160448201526d191e481a5b9a5d1a585b1a5e995960921b606482015260840162000bf3565b6000805460ff191660011790558015620017a8576000805461ff0019166101001790555b82516001600160a01b031615801590620017ce575060208301516001600160a01b031615155b8015620017e7575060408301516001600160a01b031615155b801562001800575060608301516001600160a01b031615155b801562001819575060808301516001600160a01b031615155b801562001832575060a08301516001600160a01b031615155b80156200184c57506101008301516001600160a01b031615155b620018905760405162461bcd60e51b8152602060048201526013602482015272496e7661696c642044616f2053657474696e6760681b604482015260640162000bf3565b61016d805460ff191660011790556080830151620018ae9062003485565b61016380546001600160a01b0319163317905560c08301518051620018dd916101679160209091019062003dfc565b50825161016280546001600160a01b038084166001600160a01b03199283161790925560208601516101648054918416918316919091179055604086015161016580549184169183169190911790556060860151610166805491841691831691909117905561010086015161016a8054919093169116179055620019619062003515565b6200197c8360a001518461012001518561014001516200357a565b6200198c836101600151620036f6565b60005b825181101562001a8c57600080306001600160a01b0316858481518110620019bb57620019bb62004e21565b6020026020010151604051620019d2919062004a15565b6000604051808303816000865af19150503d806000811462001a11576040519150601f19603f3d011682016040523d82523d6000602084013e62001a16565b606091505b50915091508162001a5262001a2b83620037c0565b6040805180820190915260098152681a5b9a5d0819985a5b60ba1b6020820152906200381d565b9062001a735760405162461bcd60e51b815260040162000bf3919062004ad0565b505050808062001a839062004dc1565b9150506200198f565b5061016d805460ff19169055801562001adc576000805461ff0019169055604051600181527f7f26b83ff96e1f2b6a682f133852f6798a09c465da95921460cefb38474024989060200162000dbb565b505050565b6040518060400160405280600781526020016611d95b995c985b60ca1b81525062001b0c336200235d565b8062001b33575062001b1e81620024ad565b6001600160a01b0316336001600160a01b0316145b8062001b42575061016d5460ff165b62001b615760405162461bcd60e51b815260040162000bf39062004bc6565b84831462001bb25760405162461bcd60e51b815260206004820152601760248201527f706172616d73206c656e677468206e6f74206d61746368000000000000000000604482015260640162000bf3565b60005b8581101562001d0e573087878381811062001bd45762001bd462004e21565b905060200201602081019062001beb91906200411a565b6001600160a01b0316141562001c375762001c3185858381811062001c145762001c1462004e21565b905060200201602081019062001c2b91906200411a565b6200384b565b62001cf9565b86868281811062001c4c5762001c4c62004e21565b905060200201602081019062001c6391906200411a565b6001600160a01b0316633659cfe686868481811062001c865762001c8662004e21565b905060200201602081019062001c9d91906200411a565b6040516001600160e01b031960e084901b1681526001600160a01b039091166004820152602401600060405180830381600087803b15801562001cdf57600080fd5b505af115801562001cf4573d6000803e3d6000fd5b505050505b8062001d058162004dc1565b91505062001bb5565b507fae65f73ea44fb5b0663fb704952c68701722f2eff0f95e69900bd903f9770f3882604051620014a0919062004ad0565b306001600160a01b037f000000000000000000000000000000000000000000000000000000000000000016141562001d8c5760405162461bcd60e51b815260040162000bf39062004bf4565b7f00000000000000000000000000000000000000000000000000000000000000006001600160a01b031662001dd760008051602062005585833981519152546001600160a01b031690565b6001600160a01b03161462001e005760405162461bcd60e51b815260040162000bf39062004c40565b62001e0b8262003111565b62001e198282600162003191565b5050565b6000306001600160a01b037f0000000000000000000000000000000000000000000000000000000000000000161462001ebf5760405162461bcd60e51b815260206004820152603860248201527f555550535570677261646561626c653a206d757374206e6f742062652063616c60448201527f6c6564207468726f7567682064656c656761746563616c6c0000000000000000606482015260840162000bf3565b506000805160206200558583398151915290565b6040518060400160405280600781526020016611d95b995c985b60ca1b81525062001efe336200235d565b8062001f25575062001f1081620024ad565b6001600160a01b0316336001600160a01b0316145b8062001f34575061016d5460ff165b62001f535760405162461bcd60e51b815260040162000bf39062004bc6565b62001e19826200388d565b6040518060400160405280600781526020016611d95b995c985b60ca1b81525062001f89336200235d565b8062001fb0575062001f9b81620024ad565b6001600160a01b0316336001600160a01b0316145b8062001fbf575061016d5460ff165b62001fde5760405162461bcd60e51b815260040162000bf39062004bc6565b61016c548210620020235760405162461bcd60e51b815260206004820152600e60248201526d696e646578206f766572666c6f7760901b604482015260640162000bf3565b600061016c83815481106200203c576200203c62004e21565b60009182526020808320909101546001600160a01b031680835261017190915260408220600201805460ff1916905561016c805491935090620020829060019062004d3b565b8154811062002095576200209562004e21565b60009182526020909120015461016c80546001600160a01b039092169250829186908110620020c857620020c862004e21565b9060005260206000200160006101000a8154816001600160a01b0302191690836001600160a01b0316021790555061016c8054806200210b576200210b62004e0b565b6000828152602090819020600019908301810180546001600160a01b03191690559091019091556040516001600160a01b03841681527f1b2ddeaa10e8a80ec9f117d308c60a01824809ed74e531d768c0b1b7542606b9910162000c53565b610165546001600160a01b03163314620021b15760405162461bcd60e51b815260206004820152600760248201526606f6e6c79204c560cc1b604482015260640162000bf3565b6001600160a01b038116600081815261016e602090815260409182902042908190558251938452908301527f7ac58570d3e556be8ffd5d5bda8bc949958077c3aa21c4b5fa11b63ed12dafa791015b60405180910390a150565b6101645460405163288c314960e21b81526001600160a01b038381166004830152600092169063a230c524906024015b60206040518083038186803b1580156200225457600080fd5b505afa15801562002269573d6000803e3d6000fd5b505050506040513d601f19601f8201168201806040525081019062000b6d919062004578565b6040518060400160405280600781526020016611d95b995c985b60ca1b815250620022ba336200235d565b80620022e15750620022cc81620024ad565b6001600160a01b0316336001600160a01b0316145b80620022f0575061016d5460ff165b6200230f5760405162461bcd60e51b815260040162000bf39062004bc6565b62001adc838380806020026020016040519081016040528093929190818152602001838360200280828437600092019190915250620036f692505050565b61016b805462000c719062004d84565b61016454604080516318160ddd60e01b815290516000926001600160a01b0316916318160ddd916004808301926020929190829003018186803b158015620023a457600080fd5b505afa158015620023b9573d6000803e3d6000fd5b505050506040513d601f19601f82011682018060405250810190620023df91906200459c565b600114801562000b6d575062000b6d826200220b565b61016c81815481106200240757600080fd5b6000918252602090912001546001600160a01b0316905081565b6040518060400160405280600781526020016611d95b995c985b60ca1b8152506200244c336200235d565b806200247357506200245e81620024ad565b6001600160a01b0316336001600160a01b0316145b8062002482575061016d5460ff165b620024a15760405162461bcd60e51b815260040162000bf39062004bc6565b62001adc838362003949565b6101665460405163385f5d8f60e11b81526000916001600160a01b0316906370bebb1e90620024e3903090869060040162004a66565b60206040518083038186803b158015620024fc57600080fd5b505afa15801562002511573d6000803e3d6000fd5b505050506040513d601f19601f8201168201806040525081019062000b6d91906200413a565b60005b815181101562001e195761012e60008383815181106200255e576200255e62004e21565b6020908102919091018101516001600160a01b031682528101919091526040016000205460ff16620025f05760405162461bcd60e51b815260206004820152603460248201527f427564676574417070726f76616c45786563757465653a2062756467657420616044820152731c1c1c9bdd985b081a5cc81b9bdd081d985b1a5960621b606482015260840162000bf3565b6200261782828151811062002609576200260962004e21565b602002602001015162003111565b600061012e600084848151811062002633576200263362004e21565b60200260200101516001600160a01b03166001600160a01b0316815260200190815260200160002060006101000a81548160ff0219169083151502179055507f3562b8c49e34d53119756b2b8b55a910ed22c2cda0d3b07398510d804c2dc621828281518110620026a857620026a862004e21565b6020026020010151604051620026cd91906001600160a01b0391909116815260200190565b60405180910390a180620026e18162004dc1565b9150506200253a565b33600090815261012e602052604090205460609060ff166200275d5760405162461bcd60e51b815260206004820152602560248201527f427564676574417070726f76616c45786563757465653a206163636573732064604482015264195b9a595960da1b606482015260840162000bf3565b600080856001600160a01b031684866040516200277b919062004a15565b60006040518083038185875af1925050503d8060008114620027ba576040519150601f19603f3d011682016040523d82523d6000602084013e620027bf565b606091505b5091509150816200282f5762002814620027d982620037c0565b60408051808201909152601d81527f52657665727465642062792065787465726e616c20636f6e74726163740000006020820152906200381d565b60405162461bcd60e51b815260040162000bf3919062004ad0565b7fcf452d48646654954090c61dd69f99a99bea4e2264594078fc81bfd43d6f6a9e33866040516200286292919062004a66565b60405180910390a19150505b9392505050565b6040518060400160405280600781526020016611d95b995c985b60ca1b815250620028a0336200235d565b80620028c75750620028b281620024ad565b6001600160a01b0316336001600160a01b0316145b80620028d6575061016d5460ff165b620028f55760405162461bcd60e51b815260040162000bf39062004bc6565b6000808460028111156200290d576200290d62004df5565b14156200297857610164546001600160a01b031680620029705760405162461bcd60e51b815260206004820152601e60248201527f4d656d62657273686970206e6f742079657420696e697469616c697a65640000604482015260640162000bf3565b905062002a62565b60018460028111156200298f576200298f62004df5565b1415620029f257610161546001600160a01b031680620029705760405162461bcd60e51b815260206004820152601f60248201527f4d656d626572546f6b656e206e6f742079657420696e697469616c697a656400604482015260640162000bf3565b600284600281111562002a095762002a0962004df5565b141562002a62576001600160a01b03831662002a5f5760405162461bcd60e51b8152602060048201526014602482015273159bdd19481d1bdad95b881b9bdd08195e1a5cdd60621b604482015260640162000bf3565b50815b610166546040516337b75fcd60e01b81526001600160a01b03909116906337b75fcd9062002a9f908c908c908c908c908c90899060040162004afb565b600060405180830381600087803b15801562002aba57600080fd5b505af115801562002acf573d6000803e3d6000fd5b50505050505050505050505050565b805182511462002b265760405162461bcd60e51b8152602060048201526012602482015271496e636f72726563742043616c6c6461746160701b604482015260640162000bf3565b60005b825181101562001adc5762002b5a83828151811062002b4c5762002b4c62004e21565b602002602001015162003a2b565b600083828151811062002b715762002b7162004e21565b602002602001015183838151811062002b8e5762002b8e62004e21565b602002602001015160405162002ba49062003e79565b62002bb192919062004a66565b604051809103906000f08015801562002bce573d6000803e3d6000fd5b506001600160a01b038116600090815261012e60205260409020805460ff1916600117905583519091507f26c79e13dd63e8716f130c25331c09f2fdd55d6880bbfa7bcc38868207e8a67090829085908590811062002c315762002c3162004e21565b602002602001015160405162002c4992919062004a66565b60405180910390a1806001600160a01b031663cf26fec66040518163ffffffff1660e01b8152600401600060405180830381600087803b15801562002c8d57600080fd5b505af115801562002ca2573d6000803e3d6000fd5b5050505050808062002cb49062004dc1565b91505062002b29565b610165546001600160a01b0316331462002d045760405162461bcd60e51b815260206004820152600760248201526606f6e6c79204c560cc1b604482015260640162000bf3565b6001600160a01b038216600090815261016e602052604090205462001e195762002d2e826200216a565b6101695481101562002d835760405162461bcd60e51b815260206004820152601960248201527f6465706f73697420616d6f756e74206e6f7420656e6f75676800000000000000604482015260640162000bf3565b62002d8e826200220b565b1562002d98575050565b62002da382620014b0565b62002df15760405162461bcd60e51b815260206004820152601a60248201527f41646d697373696f6e20746f6b656e206e6f7420656e6f756768000000000000604482015260640162000bf3565b62002dfc8262003515565b604080516001600160a01b0384168152602081018390527fbd251213ab4f4d6ca44f082b3e6aadf9c5153e7c16bac3ac4f959462d425c23c910162000e7a565b61016354604051635120331f60e11b81526001600160a01b038381166004830152600092169063a240663e906024016200223b565b6040518060400160405280600781526020016611d95b995c985b60ca1b81525062002e9c336200235d565b8062002ec3575062002eae81620024ad565b6001600160a01b0316336001600160a01b0316145b8062002ed2575061016d5460ff165b62002ef15760405162461bcd60e51b815260040162000bf39062004bc6565b610161546001600160a01b031662002f0c8184600062002f5e565b604080516001600160a01b038316815260208101859052600091810191909152600160608201527fc7ff60e3f07d1e83c30c2fb716313eccef5470e6bdf300d865c747e76f379a839060800162000dbb565b6001600160a01b0383166000908152610171602052604090206002015460ff161562002fcd5760405162461bcd60e51b815260206004820152601760248201527f41646d697373696f6e20546f6b656e2065786973746564000000000000000000604482015260640162000bf3565b6001600160a01b0383163b620030265760405162461bcd60e51b815260206004820152601c60248201527f41646d697373696f6e20546f6b656e206e6f7420537570706f72742100000000604482015260640162000bf3565b61016c8054600180820183557fe5af487827b121aa2456a019311df153887da6c98285803eea72252e4f09489b90910180546001600160a01b0319166001600160a01b03871690811790915560408051606081018252868152602080820187815282840186815260009586526101719092529290932090518155905192810192909255516002909101805460ff1916911515919091179055546003101562001adc5760405162461bcd60e51b815260206004820181905260248201527f41646d697373696f6e20546f6b656e206c656e67746820746f6f206c6f6e672e604482015260640162000bf3565b6040518060400160405280600781526020016611d95b995c985b60ca1b8152506200313c336200235d565b806200316357506200314e81620024ad565b6001600160a01b0316336001600160a01b0316145b8062003172575061016d5460ff165b62001e195760405162461bcd60e51b815260040162000bf39062004bc6565b7f4910fdfa16fed3260ed0e7147f7cc6da11a60208b5b9406d12a635614ffd91435460ff1615620031c75762001adc8362003b12565b826001600160a01b03166352d1902d6040518163ffffffff1660e01b815260040160206040518083038186803b1580156200320157600080fd5b505afa92505050801562003234575060408051601f3d908101601f1916820190925262003231918101906200459c565b60015b620032995760405162461bcd60e51b815260206004820152602e60248201527f45524331393637557067726164653a206e657720696d706c656d656e7461746960448201526d6f6e206973206e6f74205555505360901b606482015260840162000bf3565b6000805160206200558583398151915281146200330b5760405162461bcd60e51b815260206004820152602960248201527f45524331393637557067726164653a20756e737570706f727465642070726f786044820152681a58589b195555525160ba1b606482015260840162000bf3565b5062001adc83838362003bb1565b6040516301ffc9a760e01b81526380ac58cd60e01b60048201526000906001600160a01b038316906301ffc9a7906024015b60206040518083038186803b1580156200336457600080fd5b505afa92505050801562003397575060408051601f3d908101601f19168201909252620033949181019062004578565b60015b62000b6d57506000919050565b919050565b6040516301ffc9a760e01b8152636cdb3d1360e11b60048201526000906001600160a01b038316906301ffc9a7906024016200334b565b6000620033ed8262003319565b15620033fb57506000919050565b6040516370a0823160e01b8152600060048201526001600160a01b038316906370a082319060240160206040518083038186803b1580156200343c57600080fd5b505afa9250505080156200346f575060408051601f3d908101601f191682019092526200346c918101906200459c565b60015b6200347c57506000919050565b50600192915050565b600054610100900460ff16620034f25760405162461bcd60e51b815260206004820152602b60248201527f496e697469616c697a61626c653a20636f6e7472616374206973206e6f74206960448201526a6e697469616c697a696e6760a81b606482015260840162000bf3565b61012d80546001600160a01b0319166001600160a01b0392909216919091179055565b61016454604051632124d52960e01b81526001600160a01b03838116600483015290911690632124d52990602401600060405180830381600087803b1580156200355e57600080fd5b505af115801562003573573d6000803e3d6000fd5b5050505050565b610161546001600160a01b031615620035d65760405162461bcd60e51b815260206004820181905260248201527f4d656d62657220746f6b656e20616c726561647920696e697469616c697a6564604482015260640162000bf3565b600083604051620035e79062003e79565b6001600160a01b039091168152604060208201819052600090820152606001604051809103906000f08015801562003623573d6000803e3d6000fd5b5061016180546001600160a01b0319166001600160a01b038316908117909155604051639065714760e01b815291925082916390657147906200366f9030908890889060040162004a8c565b600060405180830381600087803b1580156200368a57600080fd5b505af11580156200369f573d6000803e3d6000fd5b50505050620036ae8162003bdc565b604080513381526001600160a01b03831660208201527f51872b89ca0a4559a29252fabe8e58a51d77923ec1fdb596822e56c918df96eb910160405180910390a15050505050565b60005b815181101562001e195760006001600160a01b031682828151811062003723576200372362004e21565b60200260200101516001600160a01b03161415620037845760405162461bcd60e51b815260206004820152601960248201527f4e6f7420537570706f7274656420455243323020546f6b656e00000000000000604482015260640162000bf3565b620037ab8282815181106200379d576200379d62004e21565b602002602001015162003bdc565b80620037b78162004dc1565b915050620036f9565b6060604482511015620037e157505060408051602081019091526000815290565b60048201915062000b6d82806020019051810190620038019190620046e4565b60408051808201909152600381526201016960ed1b6020820152905b606082826040516020016200383492919062004a33565b604051602081830303815290604052905092915050565b620038568162003b12565b6040516001600160a01b038216907fbc7cd75a20ee27fd9adebab32041f755214dbc6bffa90cc0225b39da2e5c2d3b90600090a250565b610161546001600160a01b031680620038e35760405162461bcd60e51b815260206004820152601760248201527626b2b6b132b9102a37b5b2b7103737ba1022bc34b9ba1760491b604482015260640162000bf3565b6040516340c10f1960e01b8152306004820152602481018390526001600160a01b038216906340c10f1990604401600060405180830381600087803b1580156200392c57600080fd5b505af115801562003941573d6000803e3d6000fd5b505050505050565b610161546001600160a01b0316806200399f5760405162461bcd60e51b815260206004820152601760248201527626b2b6b132b9102a37b5b2b7103737ba1022bc34b9ba1760491b604482015260640162000bf3565b60405163a9059cbb60e01b81526001600160a01b0384811660048301526024820184905282169063a9059cbb90604401602060405180830381600087803b158015620039ea57600080fd5b505af1158015620039ff573d6000803e3d6000fd5b505050506040513d601f19601f8201168201806040525081019062003a25919062004578565b50505050565b6040518060400160405280600781526020016611d95b995c985b60ca1b81525062003a56336200235d565b8062003a7d575062003a6881620024ad565b6001600160a01b0316336001600160a01b0316145b8062003a8c575061016d5460ff165b62003aab5760405162461bcd60e51b815260040162000bf39062004bc6565b62003ab68262002e3c565b62001e195760405162461bcd60e51b815260206004820152602560248201527f42756467657420496d706c656d656e746174696f6e206e6f742077686974656c6044820152641a5cdd195960da1b606482015260840162000bf3565b6001600160a01b0381163b62003b815760405162461bcd60e51b815260206004820152602d60248201527f455243313936373a206e657720696d706c656d656e746174696f6e206973206e60448201526c1bdd08184818dbdb9d1c9858dd609a1b606482015260840162000bf3565b6000805160206200558583398151915280546001600160a01b0319166001600160a01b0392909216919091179055565b62003bbc836200384b565b60008251118062003bca5750805b1562001adc5762003a25838362003c32565b6001600160a01b038116600081815261016f6020908152604091829020805460ff1916600117905590519182527f808665eda000f8d729f31a384bae411282aa3be62cb73ed74e2225e2eef7125d910162002200565b60606001600160a01b0383163b62003c9c5760405162461bcd60e51b815260206004820152602660248201527f416464726573733a2064656c65676174652063616c6c20746f206e6f6e2d636f6044820152651b9d1c9858dd60d21b606482015260840162000bf3565b600080846001600160a01b03168460405162003cb9919062004a15565b600060405180830381855af49150503d806000811462003cf6576040519150601f19603f3d011682016040523d82523d6000602084013e62003cfb565b606091505b509150915062003d268282604051806060016040528060278152602001620055a56027913962003d2f565b95945050505050565b6060831562003d405750816200286e565b82511562003d515782518084602001fd5b8160405162461bcd60e51b815260040162000bf3919062004ad0565b82805462003d7b9062004d84565b90600052602060002090601f01602090048101928262003d9f576000855562003dea565b82601f1062003dba5782800160ff1982351617855562003dea565b8280016001018555821562003dea579182015b8281111562003dea57823582559160200191906001019062003dcd565b5062003df892915062003e87565b5090565b82805462003e0a9062004d84565b90600052602060002090601f01602090048101928262003e2e576000855562003dea565b82601f1062003e4957805160ff191683800117855562003dea565b8280016001018555821562003dea579182015b8281111562003dea57825182559160200191906001019062003e5c565b6107218062004e6483390190565b5b8082111562003df8576000815560010162003e88565b8035620033a48162004e4d565b60008083601f84011262003ebe57600080fd5b5081356001600160401b0381111562003ed657600080fd5b6020830191508360208260051b850101111562003ef257600080fd5b9250929050565b600082601f83011262003f0b57600080fd5b8135602062003f2462003f1e8362004ceb565b62004cb8565b80838252828201915082860187848660051b890101111562003f4557600080fd5b60005b8581101562003f7157813562003f5e8162004e4d565b8452928401929084019060010162003f48565b5090979650505050505050565b600082601f83011262003f9057600080fd5b8135602062003fa362003f1e8362004ceb565b80838252828201915082860187848660051b890101111562003fc457600080fd5b6000805b868110156200400b5782356001600160401b0381111562003fe7578283fd5b62003ff78b88838d010162004080565b865250938501939185019160010162003fc8565b509198975050505050505050565b600082601f8301126200402b57600080fd5b813560206200403e62003f1e8362004ceb565b80838252828201915082860187848660051b89010111156200405f57600080fd5b60005b8581101562003f715781358452928401929084019060010162004062565b600082601f8301126200409257600080fd5b8135620040a362003f1e8262004d11565b818152846020838601011115620040b957600080fd5b816020850160208301376000918101602001919091529392505050565b60008083601f840112620040e957600080fd5b5081356001600160401b038111156200410157600080fd5b60208301915083602082850101111562003ef257600080fd5b6000602082840312156200412d57600080fd5b81356200286e8162004e4d565b6000602082840312156200414d57600080fd5b81516200286e8162004e4d565b600080600080600060a086880312156200417357600080fd5b8535620041808162004e4d565b94506020860135620041928162004e4d565b935060408601356001600160401b0380821115620041af57600080fd5b620041bd89838a0162004019565b94506060880135915080821115620041d457600080fd5b620041e289838a0162004019565b93506080880135915080821115620041f957600080fd5b50620042088882890162004080565b9150509295509295909350565b600080600080608085870312156200422c57600080fd5b8435620042398162004e4d565b935060208501356200424b8162004e4d565b92506040850135915060608501356001600160401b038111156200426e57600080fd5b6200427c8782880162004080565b91505092959194509250565b600080600080600060a08688031215620042a157600080fd5b8535620042ae8162004e4d565b94506020860135620042c08162004e4d565b9350604086013592506060860135915060808601356001600160401b03811115620042ea57600080fd5b620042088882890162004080565b600080604083850312156200430c57600080fd5b8235620043198162004e4d565b915060208301356001600160401b038111156200433557600080fd5b620043438582860162004080565b9150509250929050565b6000806000606084860312156200436357600080fd5b8335620043708162004e4d565b925060208401356001600160401b038111156200438c57600080fd5b6200439a8682870162004080565b925050604084013590509250925092565b60008060408385031215620043bf57600080fd5b8235620043cc8162004e4d565b946020939093013593505050565b600080600060608486031215620043f057600080fd5b8335620043fd8162004e4d565b95602085013595506040909401359392505050565b600080602083850312156200442657600080fd5b82356001600160401b038111156200443d57600080fd5b6200444b8582860162003eab565b90969095509350505050565b6000806000806000606086880312156200447057600080fd5b85356001600160401b03808211156200448857600080fd5b6200449689838a0162003eab565b90975095506020880135915080821115620044b057600080fd5b620044be89838a0162003eab565b90955093506040880135915080821115620041f957600080fd5b600060208284031215620044eb57600080fd5b81356001600160401b038111156200450257600080fd5b620045108482850162003ef9565b949350505050565b600080604083850312156200452c57600080fd5b82356001600160401b03808211156200454457600080fd5b620045528683870162003ef9565b935060208501359150808211156200456957600080fd5b50620043438582860162003f7e565b6000602082840312156200458b57600080fd5b815180151581146200286e57600080fd5b600060208284031215620045af57600080fd5b5051919050565b600060208284031215620045c957600080fd5b81356001600160e01b0319811681146200286e57600080fd5b60008060208385031215620045f657600080fd5b82356001600160401b038111156200460d57600080fd5b6200444b85828601620040d6565b600080600080600080600060c0888a0312156200463757600080fd5b87356001600160401b038111156200464e57600080fd5b6200465c8a828b01620040d6565b9098509650506020880135945060408801359350606088013592506080880135600381106200468a57600080fd5b915060a08801356200469c8162004e4d565b8091505092959891949750929550565b600060208284031215620046bf57600080fd5b81356001600160401b03811115620046d657600080fd5b620045108482850162004080565b600060208284031215620046f757600080fd5b81516001600160401b038111156200470e57600080fd5b8201601f810184136200472057600080fd5b80516200473162003f1e8262004d11565b8181528560208385010111156200474757600080fd5b62003d2682602083016020860162004d55565b600080600080608085870312156200477157600080fd5b84356001600160401b03808211156200478957600080fd5b620047978883890162004080565b955060208701359150620047ab8262004e4d565b90935060408601359080821115620047c257600080fd5b620047d08883890162003ef9565b93506060870135915080821115620047e757600080fd5b506200427c8782880162004080565b600080604083850312156200480a57600080fd5b82356001600160401b03808211156200482257600080fd5b9084019061018082870312156200483857600080fd5b6200484262004c8c565b6200484d8362003e9e565b81526200485d6020840162003e9e565b6020820152620048706040840162003e9e565b6040820152620048836060840162003e9e565b6060820152620048966080840162003e9e565b6080820152620048a960a0840162003e9e565b60a082015260c083013582811115620048c157600080fd5b620048cf8882860162004080565b60c08301525060e083013582811115620048e857600080fd5b620048f68882860162004080565b60e0830152506101006200490c81850162003e9e565b9082015261012083810135838111156200492557600080fd5b620049338982870162004080565b82840152505061014080840135838111156200494e57600080fd5b6200495c8982870162004080565b82840152505061016080840135838111156200497757600080fd5b620049858982870162003ef9565b8284015250508094505060208501359150808211156200456957600080fd5b600060208284031215620049b757600080fd5b5035919050565b60008151808452620049d881602086016020860162004d55565b601f01601f19169290920160200192915050565b81835281816020850137506000828201602090810191909152601f909101601f19169091010190565b6000825162004a2981846020870162004d55565b9190910192915050565b6000835162004a4781846020880162004d55565b83519083019062004a5d81836020880162004d55565b01949350505050565b6001600160a01b03831681526040602082018190526000906200451090830184620049be565b6001600160a01b038416815260606020820181905260009062004ab290830185620049be565b828103604084015262004ac68185620049be565b9695505050505050565b6020815260006200286e6020830184620049be565b60208152600062004510602083018486620049ec565b60a08152600062004b1160a08301888a620049ec565b602083019690965250604081019390935260608301919091526001600160a01b031660809091015292915050565b60808152600062004b546080830187620049be565b6001600160a01b03868116602085810191909152848303604086015286518084528782019391929183019060005b8181101562004ba257855184168352948401949184019160010162004b82565b5050858103606087015262004bb88188620049be565b9a9950505050505050505050565b6020808252601490820152731058dd1a5bdb881b9bdd081c195c9b5a5d1d195960621b604082015260600190565b6020808252602c908201527f46756e6374696f6e206d7573742062652063616c6c6564207468726f7567682060408201526b19195b1959d85d1958d85b1b60a21b606082015260800190565b6020808252602c908201527f46756e6374696f6e206d7573742062652063616c6c6564207468726f7567682060408201526b6163746976652070726f787960a01b606082015260800190565b60405161018081016001600160401b038111828210171562004cb25762004cb262004e37565b60405290565b604051601f8201601f191681016001600160401b038111828210171562004ce35762004ce362004e37565b604052919050565b60006001600160401b0382111562004d075762004d0762004e37565b5060051b60200190565b60006001600160401b0382111562004d2d5762004d2d62004e37565b50601f01601f191660200190565b60008282101562004d505762004d5062004ddf565b500390565b60005b8381101562004d7257818101518382015260200162004d58565b8381111562003a255750506000910152565b600181811c9082168062004d9957607f821691505b6020821081141562004dbb57634e487b7160e01b600052602260045260246000fd5b50919050565b600060001982141562004dd85762004dd862004ddf565b5060010190565b634e487b7160e01b600052601160045260246000fd5b634e487b7160e01b600052602160045260246000fd5b634e487b7160e01b600052603160045260246000fd5b634e487b7160e01b600052603260045260246000fd5b634e487b7160e01b600052604160045260246000fd5b6001600160a01b03811681146200132f57600080fdfe6080604052604051610721380380610721833981016040819052610022916102d2565b61002e82826000610035565b5050610431565b61003e8361006b565b60008251118061004b5750805b156100665761006483836100ab60201b6100291760201c565b505b505050565b610074816100d7565b6040516001600160a01b038216907fbc7cd75a20ee27fd9adebab32041f755214dbc6bffa90cc0225b39da2e5c2d3b90600090a250565b60606100d083836040518060600160405280602781526020016106fa602791396101a9565b9392505050565b6100ea8161028760201b6100551760201c565b6101515760405162461bcd60e51b815260206004820152602d60248201527f455243313936373a206e657720696d706c656d656e746174696f6e206973206e60448201526c1bdd08184818dbdb9d1c9858dd609a1b60648201526084015b60405180910390fd5b806101887f360894a13ba1a3210667c828492db98dca3e2076cc3735a920a3ca505d382bbc60001b61029660201b6100641760201c565b80546001600160a01b0319166001600160a01b039290921691909117905550565b60606001600160a01b0384163b6102115760405162461bcd60e51b815260206004820152602660248201527f416464726573733a2064656c65676174652063616c6c20746f206e6f6e2d636f6044820152651b9d1c9858dd60d21b6064820152608401610148565b600080856001600160a01b03168560405161022c91906103a0565b600060405180830381855af49150503d8060008114610267576040519150601f19603f3d011682016040523d82523d6000602084013e61026c565b606091505b50909250905061027d828286610299565b9695505050505050565b6001600160a01b03163b151590565b90565b606083156102a85750816100d0565b8251156102b85782518084602001fd5b8160405162461bcd60e51b815260040161014891906103bc565b600080604083850312156102e557600080fd5b82516001600160a01b03811681146102fc57600080fd5b60208401519092506001600160401b038082111561031957600080fd5b818501915085601f83011261032d57600080fd5b81518181111561033f5761033f61041b565b604051601f8201601f19908116603f011681019083821181831017156103675761036761041b565b8160405282815288602084870101111561038057600080fd5b6103918360208301602088016103ef565b80955050505050509250929050565b600082516103b28184602087016103ef565b9190910192915050565b60208152600082518060208401526103db8160408501602087016103ef565b601f01601f19169190910160400192915050565b60005b8381101561040a5781810151838201526020016103f2565b838111156100645750506000910152565b634e487b7160e01b600052604160045260246000fd5b6102ba806104406000396000f3fe60806040523661001357610011610017565b005b6100115b610027610022610067565b61009f565b565b606061004e838360405180606001604052806027815260200161025e602791396100c3565b9392505050565b6001600160a01b03163b151590565b90565b600061009a7f360894a13ba1a3210667c828492db98dca3e2076cc3735a920a3ca505d382bbc546001600160a01b031690565b905090565b3660008037600080366000845af43d6000803e8080156100be573d6000f35b3d6000fd5b60606001600160a01b0384163b6101305760405162461bcd60e51b815260206004820152602660248201527f416464726573733a2064656c65676174652063616c6c20746f206e6f6e2d636f6044820152651b9d1c9858dd60d21b60648201526084015b60405180910390fd5b600080856001600160a01b03168560405161014b91906101de565b600060405180830381855af49150503d8060008114610186576040519150601f19603f3d011682016040523d82523d6000602084013e61018b565b606091505b509150915061019b8282866101a5565b9695505050505050565b606083156101b457508161004e565b8251156101c45782518084602001fd5b8160405162461bcd60e51b815260040161012791906101fa565b600082516101f081846020870161022d565b9190910192915050565b602081526000825180602084015261021981604085016020870161022d565b601f01601f19169190910160400192915050565b60005b83811015610248578181015183820152602001610230565b83811115610257576000848401525b5050505056fe416464726573733a206c6f772d6c6576656c2064656c65676174652063616c6c206661696c6564a2646970667358221220fb537d1df0a2f3ea0050d30fb82ca020f06a83116d3853b9eda518a67b0c9be764736f6c63430008070033416464726573733a206c6f772d6c6576656c2064656c65676174652063616c6c206661696c6564360894a13ba1a3210667c828492db98dca3e2076cc3735a920a3ca505d382bbc416464726573733a206c6f772d6c6576656c2064656c65676174652063616c6c206661696c6564a264697066735822122007aaaf30b2ab212b1f4233d101bd2850895193e92153f14f57782df06c880a7564736f6c63430008070033",
  "devdoc": {
    "kind": "dev",
    "methods": {
      "constructor": {
        "custom:oz-upgrades-unsafe-allow": "constructor"
      },
      "onERC721Received(address,address,uint256,bytes)": {
        "details": "See {IERC721Receiver-onERC721Received}. Always returns `IERC721Receiver.onERC721Received.selector`."
      },
      "proxiableUUID()": {
        "details": "Implementation of the ERC1822 {proxiableUUID} function. This returns the storage slot used by the implementation. It is used to validate that the this implementation remains valid after an upgrade. IMPORTANT: A proxy pointing at a proxiable contract should not be considered proxiable itself, because this risks bricking a proxy that upgrades to it, by delegating to itself until out of gas. Thus it is critical that this function revert if invoked through a proxy. This is guaranteed by the `notDelegated` modifier."
      },
      "supportsInterface(bytes4)": {
        "details": "See {IERC165-supportsInterface}."
      },
      "upgradeTo(address)": {
        "details": "Upgrade the implementation of the proxy to `newImplementation`. Calls {_authorizeUpgrade}. Emits an {Upgraded} event."
      },
      "upgradeToAndCall(address,bytes)": {
        "details": "Upgrade the implementation of the proxy to `newImplementation`, and subsequently execute the function call encoded in `data`. Calls {_authorizeUpgrade}. Emits an {Upgraded} event."
      }
    },
    "version": 1
  },
  "userdoc": {
    "kind": "user",
    "methods": {},
    "version": 1
  },
  "storageLayout": {
    "storage": [
      {
        "astId": 3247,
        "contract": "contracts/Dao.sol:Dao",
        "label": "_initialized",
        "offset": 0,
        "slot": "0",
        "type": "t_uint8"
      },
      {
        "astId": 3250,
        "contract": "contracts/Dao.sol:Dao",
        "label": "_initializing",
        "offset": 1,
        "slot": "0",
        "type": "t_bool"
      },
      {
        "astId": 3229,
        "contract": "contracts/Dao.sol:Dao",
        "label": "__gap",
        "offset": 0,
        "slot": "1",
        "type": "t_array(t_uint256)50_storage"
      },
      {
        "astId": 3526,
        "contract": "contracts/Dao.sol:Dao",
        "label": "__gap",
        "offset": 0,
        "slot": "51",
        "type": "t_array(t_uint256)50_storage"
      },
      {
        "astId": 8123,
        "contract": "contracts/Dao.sol:Dao",
        "label": "__gap",
        "offset": 0,
        "slot": "101",
        "type": "t_array(t_uint256)50_storage"
      },
      {
        "astId": 9798,
        "contract": "contracts/Dao.sol:Dao",
        "label": "__gap",
        "offset": 0,
        "slot": "151",
        "type": "t_array(t_uint256)50_storage"
      },
      {
        "astId": 5074,
        "contract": "contracts/Dao.sol:Dao",
        "label": "__gap",
        "offset": 0,
        "slot": "201",
        "type": "t_array(t_uint256)50_storage"
      },
      {
        "astId": 5020,
        "contract": "contracts/Dao.sol:Dao",
        "label": "__gap",
        "offset": 0,
        "slot": "251",
        "type": "t_array(t_uint256)50_storage"
      },
      {
        "astId": 28722,
        "contract": "contracts/Dao.sol:Dao",
        "label": "_team",
        "offset": 0,
        "slot": "301",
        "type": "t_address"
      },
      {
        "astId": 28726,
        "contract": "contracts/Dao.sol:Dao",
        "label": "_budgetApprovals",
        "offset": 0,
        "slot": "302",
        "type": "t_mapping(t_address,t_bool)"
      },
      {
        "astId": 28989,
        "contract": "contracts/Dao.sol:Dao",
        "label": "__gap",
        "offset": 0,
        "slot": "303",
        "type": "t_array(t_uint256)50_storage"
      },
      {
        "astId": 21376,
        "contract": "contracts/Dao.sol:Dao",
        "label": "memberToken",
        "offset": 0,
        "slot": "353",
        "type": "t_address"
      },
      {
        "astId": 21378,
        "contract": "contracts/Dao.sol:Dao",
        "label": "creator",
        "offset": 0,
        "slot": "354",
        "type": "t_address"
      },
      {
        "astId": 21380,
        "contract": "contracts/Dao.sol:Dao",
        "label": "adam",
        "offset": 0,
        "slot": "355",
        "type": "t_address"
      },
      {
        "astId": 21382,
        "contract": "contracts/Dao.sol:Dao",
        "label": "membership",
        "offset": 0,
        "slot": "356",
        "type": "t_address"
      },
      {
        "astId": 21384,
        "contract": "contracts/Dao.sol:Dao",
        "label": "liquidPool",
        "offset": 0,
        "slot": "357",
        "type": "t_address"
      },
      {
        "astId": 21386,
        "contract": "contracts/Dao.sol:Dao",
        "label": "governFactory",
        "offset": 0,
        "slot": "358",
        "type": "t_address"
      },
      {
        "astId": 21388,
        "contract": "contracts/Dao.sol:Dao",
        "label": "name",
        "offset": 0,
        "slot": "359",
        "type": "t_string_storage"
      },
      {
        "astId": 21390,
        "contract": "contracts/Dao.sol:Dao",
        "label": "locktime",
        "offset": 0,
        "slot": "360",
        "type": "t_uint256"
      },
      {
        "astId": 21392,
        "contract": "contracts/Dao.sol:Dao",
        "label": "minDepositAmount",
        "offset": 0,
        "slot": "361",
        "type": "t_uint256"
      },
      {
        "astId": 21394,
        "contract": "contracts/Dao.sol:Dao",
        "label": "baseCurrency",
        "offset": 0,
        "slot": "362",
        "type": "t_address"
      },
      {
        "astId": 21396,
        "contract": "contracts/Dao.sol:Dao",
        "label": "logoCID",
        "offset": 0,
        "slot": "363",
        "type": "t_string_storage"
      },
      {
        "astId": 21399,
        "contract": "contracts/Dao.sol:Dao",
        "label": "admissionTokens",
        "offset": 0,
        "slot": "364",
        "type": "t_array(t_address)dyn_storage"
      },
      {
        "astId": 21401,
        "contract": "contracts/Dao.sol:Dao",
        "label": "_initializing",
        "offset": 0,
        "slot": "365",
        "type": "t_bool"
      },
      {
        "astId": 21405,
        "contract": "contracts/Dao.sol:Dao",
        "label": "firstDepositTime",
        "offset": 0,
        "slot": "366",
        "type": "t_mapping(t_address,t_uint256)"
      },
      {
        "astId": 21409,
        "contract": "contracts/Dao.sol:Dao",
        "label": "isAssetSupported",
        "offset": 0,
        "slot": "367",
        "type": "t_mapping(t_address,t_bool)"
      },
      {
        "astId": 21413,
        "contract": "contracts/Dao.sol:Dao",
        "label": "teamWhitelist",
        "offset": 0,
        "slot": "368",
        "type": "t_mapping(t_uint256,t_bool)"
      },
      {
        "astId": 21418,
        "contract": "contracts/Dao.sol:Dao",
        "label": "admissionTokenSetting",
        "offset": 0,
        "slot": "369",
        "type": "t_mapping(t_address,t_struct(AdmissionTokenSetting)21370_storage)"
      },
      {
        "astId": 22782,
        "contract": "contracts/Dao.sol:Dao",
        "label": "__gap",
        "offset": 0,
        "slot": "370",
        "type": "t_array(t_uint256)49_storage"
      }
    ],
    "types": {
      "t_address": {
        "encoding": "inplace",
        "label": "address",
        "numberOfBytes": "20"
      },
      "t_array(t_address)dyn_storage": {
        "base": "t_address",
        "encoding": "dynamic_array",
        "label": "address[]",
        "numberOfBytes": "32"
      },
      "t_array(t_uint256)49_storage": {
        "base": "t_uint256",
        "encoding": "inplace",
        "label": "uint256[49]",
        "numberOfBytes": "1568"
      },
      "t_array(t_uint256)50_storage": {
        "base": "t_uint256",
        "encoding": "inplace",
        "label": "uint256[50]",
        "numberOfBytes": "1600"
      },
      "t_bool": {
        "encoding": "inplace",
        "label": "bool",
        "numberOfBytes": "1"
      },
      "t_mapping(t_address,t_bool)": {
        "encoding": "mapping",
        "key": "t_address",
        "label": "mapping(address => bool)",
        "numberOfBytes": "32",
        "value": "t_bool"
      },
      "t_mapping(t_address,t_struct(AdmissionTokenSetting)21370_storage)": {
        "encoding": "mapping",
        "key": "t_address",
        "label": "mapping(address => struct Dao.AdmissionTokenSetting)",
        "numberOfBytes": "32",
        "value": "t_struct(AdmissionTokenSetting)21370_storage"
      },
      "t_mapping(t_address,t_uint256)": {
        "encoding": "mapping",
        "key": "t_address",
        "label": "mapping(address => uint256)",
        "numberOfBytes": "32",
        "value": "t_uint256"
      },
      "t_mapping(t_uint256,t_bool)": {
        "encoding": "mapping",
        "key": "t_uint256",
        "label": "mapping(uint256 => bool)",
        "numberOfBytes": "32",
        "value": "t_bool"
      },
      "t_string_storage": {
        "encoding": "bytes",
        "label": "string",
        "numberOfBytes": "32"
      },
      "t_struct(AdmissionTokenSetting)21370_storage": {
        "encoding": "inplace",
        "label": "struct Dao.AdmissionTokenSetting",
        "members": [
          {
            "astId": 21365,
            "contract": "contracts/Dao.sol:Dao",
            "label": "minTokenToAdmit",
            "offset": 0,
            "slot": "0",
            "type": "t_uint256"
          },
          {
            "astId": 21367,
            "contract": "contracts/Dao.sol:Dao",
            "label": "tokenId",
            "offset": 0,
            "slot": "1",
            "type": "t_uint256"
          },
          {
            "astId": 21369,
            "contract": "contracts/Dao.sol:Dao",
            "label": "active",
            "offset": 0,
            "slot": "2",
            "type": "t_bool"
          }
        ],
        "numberOfBytes": "96"
      },
      "t_uint256": {
        "encoding": "inplace",
        "label": "uint256",
        "numberOfBytes": "32"
      },
      "t_uint8": {
        "encoding": "inplace",
        "label": "uint8",
        "numberOfBytes": "1"
      }
    }
  }
}