{
  "address": "0x376275a5e007B88bA5Db89ea35C07886656ddce5",
  "abi": [
    {
      "inputs": [],
      "stateMutability": "nonpayable",
      "type": "constructor"
    },
    {
      "anonymous": false,
      "inputs": [
        {
          "indexed": false,
          "internalType": "address",
          "name": "previousAdmin",
          "type": "address"
        },
        {
          "indexed": false,
          "internalType": "address",
          "name": "newAdmin",
          "type": "address"
        }
      ],
      "name": "AdminChanged",
      "type": "event"
    },
    {
      "anonymous": false,
      "inputs": [
        {
          "indexed": false,
          "internalType": "address",
          "name": "token",
          "type": "address"
        }
      ],
      "name": "AllowDepositToken",
      "type": "event"
    },
    {
      "anonymous": false,
      "inputs": [
        {
          "indexed": true,
          "internalType": "address",
          "name": "owner",
          "type": "address"
        },
        {
          "indexed": true,
          "internalType": "address",
          "name": "spender",
          "type": "address"
        },
        {
          "indexed": false,
          "internalType": "uint256",
          "name": "value",
          "type": "uint256"
        }
      ],
      "name": "Approval",
      "type": "event"
    },
    {
      "anonymous": false,
      "inputs": [
        {
          "indexed": true,
          "internalType": "address",
          "name": "beacon",
          "type": "address"
        }
      ],
      "name": "BeaconUpgraded",
      "type": "event"
    },
    {
      "anonymous": false,
      "inputs": [
        {
          "indexed": false,
          "internalType": "address",
          "name": "budgetApproval",
          "type": "address"
        },
        {
          "indexed": false,
          "internalType": "bytes",
          "name": "data",
          "type": "bytes"
        }
      ],
      "name": "CreateBudgetApproval",
      "type": "event"
    },
    {
      "anonymous": false,
      "inputs": [
        {
          "indexed": false,
          "internalType": "address",
          "name": "account",
          "type": "address"
        },
        {
          "indexed": false,
          "internalType": "address",
          "name": "token",
          "type": "address"
        },
        {
          "indexed": false,
          "internalType": "uint256",
          "name": "depositAmount",
          "type": "uint256"
        }
      ],
      "name": "Deposit",
      "type": "event"
    },
    {
      "anonymous": false,
      "inputs": [
        {
          "indexed": false,
          "internalType": "address",
          "name": "token",
          "type": "address"
        }
      ],
      "name": "DisallowDepositToken",
      "type": "event"
    },
    {
      "anonymous": false,
      "inputs": [
        {
          "indexed": false,
          "internalType": "address",
          "name": "budgetApproval",
          "type": "address"
        },
        {
          "indexed": false,
          "internalType": "bytes",
          "name": "data",
          "type": "bytes"
        }
      ],
      "name": "ExecuteByBudgetApproval",
      "type": "event"
    },
    {
      "anonymous": false,
      "inputs": [
        {
          "indexed": false,
          "internalType": "uint8",
          "name": "version",
          "type": "uint8"
        }
      ],
      "name": "Initialized",
      "type": "event"
    },
    {
      "anonymous": false,
      "inputs": [
        {
          "indexed": true,
          "internalType": "address",
          "name": "from",
          "type": "address"
        },
        {
          "indexed": true,
          "internalType": "address",
          "name": "to",
          "type": "address"
        },
        {
          "indexed": false,
          "internalType": "uint256",
          "name": "value",
          "type": "uint256"
        }
      ],
      "name": "Transfer",
      "type": "event"
    },
    {
      "anonymous": false,
      "inputs": [
        {
          "indexed": true,
          "internalType": "address",
          "name": "implementation",
          "type": "address"
        }
      ],
      "name": "Upgraded",
      "type": "event"
    },
    {
      "inputs": [
        {
          "internalType": "address[]",
          "name": "erc20s",
          "type": "address[]"
        }
      ],
      "name": "addAssets",
      "outputs": [],
      "stateMutability": "nonpayable",
      "type": "function"
    },
    {
      "inputs": [
        {
          "internalType": "address",
          "name": "owner",
          "type": "address"
        },
        {
          "internalType": "address",
          "name": "spender",
          "type": "address"
        }
      ],
      "name": "allowance",
      "outputs": [
        {
          "internalType": "uint256",
          "name": "",
          "type": "uint256"
        }
      ],
      "stateMutability": "view",
      "type": "function"
    },
    {
      "inputs": [
        {
          "internalType": "address",
          "name": "spender",
          "type": "address"
        },
        {
          "internalType": "uint256",
          "name": "amount",
          "type": "uint256"
        }
      ],
      "name": "approve",
      "outputs": [
        {
          "internalType": "bool",
          "name": "",
          "type": "bool"
        }
      ],
      "stateMutability": "nonpayable",
      "type": "function"
    },
    {
      "inputs": [
        {
          "internalType": "address",
          "name": "asset",
          "type": "address"
        },
        {
          "internalType": "uint256",
          "name": "amount",
          "type": "uint256"
        }
      ],
      "name": "assetBaseCurrencyPrice",
      "outputs": [
        {
          "internalType": "uint256",
          "name": "",
          "type": "uint256"
        }
      ],
      "stateMutability": "view",
      "type": "function"
    },
    {
      "inputs": [
        {
          "internalType": "address",
          "name": "asset",
          "type": "address"
        },
        {
          "internalType": "uint256",
          "name": "amount",
          "type": "uint256"
        }
      ],
      "name": "assetEthPrice",
      "outputs": [
        {
          "internalType": "uint256",
          "name": "",
          "type": "uint256"
        }
      ],
      "stateMutability": "view",
      "type": "function"
    },
    {
      "inputs": [
        {
          "internalType": "uint256",
          "name": "",
          "type": "uint256"
        }
      ],
      "name": "assets",
      "outputs": [
        {
          "internalType": "address",
          "name": "",
          "type": "address"
        }
      ],
      "stateMutability": "view",
      "type": "function"
    },
    {
      "inputs": [],
      "name": "assetsLength",
      "outputs": [
        {
          "internalType": "uint256",
          "name": "",
          "type": "uint256"
        }
      ],
      "stateMutability": "view",
      "type": "function"
    },
    {
      "inputs": [
        {
          "internalType": "address",
          "name": "asset",
          "type": "address"
        },
        {
          "internalType": "uint256",
          "name": "amount",
          "type": "uint256"
        }
      ],
      "name": "assetsShares",
      "outputs": [
        {
          "internalType": "uint256",
          "name": "",
          "type": "uint256"
        }
      ],
      "stateMutability": "view",
      "type": "function"
    },
    {
      "inputs": [
        {
          "internalType": "address",
          "name": "account",
          "type": "address"
        }
      ],
      "name": "balanceOf",
      "outputs": [
        {
          "internalType": "uint256",
          "name": "",
          "type": "uint256"
        }
      ],
      "stateMutability": "view",
      "type": "function"
    },
    {
      "inputs": [],
      "name": "baseCurrency",
      "outputs": [
        {
          "internalType": "address",
          "name": "",
          "type": "address"
        }
      ],
      "stateMutability": "view",
      "type": "function"
    },
    {
      "inputs": [],
      "name": "baseCurrencyDecimals",
      "outputs": [
        {
          "internalType": "uint8",
          "name": "",
          "type": "uint8"
        }
      ],
      "stateMutability": "view",
      "type": "function"
    },
    {
      "inputs": [
        {
          "internalType": "address",
          "name": "template",
          "type": "address"
        }
      ],
      "name": "budgetApprovals",
      "outputs": [
        {
          "internalType": "bool",
          "name": "",
          "type": "bool"
        }
      ],
      "stateMutability": "view",
      "type": "function"
    },
    {
      "inputs": [
        {
          "internalType": "address",
          "name": "asset",
          "type": "address"
        }
      ],
      "name": "canAddAsset",
      "outputs": [
        {
          "internalType": "bool",
          "name": "",
          "type": "bool"
        }
      ],
      "stateMutability": "view",
      "type": "function"
    },
    {
      "inputs": [
        {
          "internalType": "address",
          "name": "asset",
          "type": "address"
        }
      ],
      "name": "canResolvePrice",
      "outputs": [
        {
          "internalType": "bool",
          "name": "",
          "type": "bool"
        }
      ],
      "stateMutability": "view",
      "type": "function"
    },
    {
      "inputs": [
        {
          "internalType": "address[]",
          "name": "__budgetApprovals",
          "type": "address[]"
        },
        {
          "internalType": "bytes[]",
          "name": "data",
          "type": "bytes[]"
        }
      ],
      "name": "createBudgetApprovals",
      "outputs": [],
      "stateMutability": "nonpayable",
      "type": "function"
    },
    {
      "inputs": [],
      "name": "dao",
      "outputs": [
        {
          "internalType": "contract IDao",
          "name": "",
          "type": "address"
        }
      ],
      "stateMutability": "view",
      "type": "function"
    },
    {
      "inputs": [],
      "name": "decimals",
      "outputs": [
        {
          "internalType": "uint8",
          "name": "",
          "type": "uint8"
        }
      ],
      "stateMutability": "view",
      "type": "function"
    },
    {
      "inputs": [
        {
          "internalType": "address",
          "name": "spender",
          "type": "address"
        },
        {
          "internalType": "uint256",
          "name": "subtractedValue",
          "type": "uint256"
        }
      ],
      "name": "decreaseAllowance",
      "outputs": [
        {
          "internalType": "bool",
          "name": "",
          "type": "bool"
        }
      ],
      "stateMutability": "nonpayable",
      "type": "function"
    },
    {
      "inputs": [
        {
          "internalType": "address",
          "name": "receiver",
          "type": "address"
        }
      ],
      "name": "deposit",
      "outputs": [],
      "stateMutability": "payable",
      "type": "function"
    },
    {
      "inputs": [
        {
          "internalType": "address",
          "name": "receiver",
          "type": "address"
        },
        {
          "internalType": "address",
          "name": "asset",
          "type": "address"
        },
        {
          "internalType": "uint256",
          "name": "amount",
          "type": "uint256"
        }
      ],
      "name": "depositToken",
      "outputs": [],
      "stateMutability": "nonpayable",
      "type": "function"
    },
    {
      "inputs": [
        {
          "internalType": "address",
          "name": "asset",
          "type": "address"
        },
        {
          "internalType": "uint256",
          "name": "ethAmount",
          "type": "uint256"
        }
      ],
      "name": "ethAssetPrice",
      "outputs": [
        {
          "internalType": "uint256",
          "name": "",
          "type": "uint256"
        }
      ],
      "stateMutability": "view",
      "type": "function"
    },
    {
      "inputs": [
        {
          "internalType": "address",
          "name": "_to",
          "type": "address"
        },
        {
          "internalType": "bytes",
          "name": "_data",
          "type": "bytes"
        },
        {
          "internalType": "uint256",
          "name": "_value",
          "type": "uint256"
        }
      ],
      "name": "executeByBudgetApproval",
      "outputs": [
        {
          "internalType": "bytes",
          "name": "",
          "type": "bytes"
        }
      ],
      "stateMutability": "nonpayable",
      "type": "function"
    },
    {
      "inputs": [
        {
          "internalType": "address",
          "name": "spender",
          "type": "address"
        },
        {
          "internalType": "uint256",
          "name": "addedValue",
          "type": "uint256"
        }
      ],
      "name": "increaseAllowance",
      "outputs": [
        {
          "internalType": "bool",
          "name": "",
          "type": "bool"
        }
      ],
      "stateMutability": "nonpayable",
      "type": "function"
    },
    {
      "inputs": [
        {
          "internalType": "address",
          "name": "owner",
          "type": "address"
        },
        {
          "internalType": "address[]",
          "name": "depositTokens",
          "type": "address[]"
        },
        {
          "internalType": "address",
          "name": "_baseCurrency",
          "type": "address"
        }
      ],
      "name": "initialize",
      "outputs": [],
      "stateMutability": "nonpayable",
      "type": "function"
    },
    {
      "inputs": [
        {
          "internalType": "address",
          "name": "asset",
          "type": "address"
        }
      ],
      "name": "isAssetSupported",
      "outputs": [
        {
          "internalType": "bool",
          "name": "",
          "type": "bool"
        }
      ],
      "stateMutability": "view",
      "type": "function"
    },
    {
      "inputs": [],
      "name": "name",
      "outputs": [
        {
          "internalType": "string",
          "name": "",
          "type": "string"
        }
      ],
      "stateMutability": "view",
      "type": "function"
    },
    {
      "inputs": [],
      "name": "proxiableUUID",
      "outputs": [
        {
          "internalType": "bytes32",
          "name": "",
          "type": "bytes32"
        }
      ],
      "stateMutability": "view",
      "type": "function"
    },
    {
      "inputs": [
        {
          "internalType": "uint256",
          "name": "amount",
          "type": "uint256"
        }
      ],
      "name": "quote",
      "outputs": [
        {
          "internalType": "uint256",
          "name": "",
          "type": "uint256"
        }
      ],
      "stateMutability": "view",
      "type": "function"
    },
    {
      "inputs": [
        {
          "internalType": "uint256",
          "name": "amount",
          "type": "uint256"
        }
      ],
      "name": "redeem",
      "outputs": [],
      "stateMutability": "nonpayable",
      "type": "function"
    },
    {
      "inputs": [
        {
          "internalType": "address[]",
          "name": "erc20s",
          "type": "address[]"
        }
      ],
      "name": "removeAssets",
      "outputs": [],
      "stateMutability": "nonpayable",
      "type": "function"
    },
    {
      "inputs": [],
      "name": "symbol",
      "outputs": [
        {
          "internalType": "string",
          "name": "",
          "type": "string"
        }
      ],
      "stateMutability": "view",
      "type": "function"
    },
    {
      "inputs": [],
      "name": "team",
      "outputs": [
        {
          "internalType": "address",
          "name": "",
          "type": "address"
        }
      ],
      "stateMutability": "view",
      "type": "function"
    },
    {
      "inputs": [],
      "name": "totalPrice",
      "outputs": [
        {
          "internalType": "uint256",
          "name": "",
          "type": "uint256"
        }
      ],
      "stateMutability": "view",
      "type": "function"
    },
    {
      "inputs": [],
      "name": "totalPriceInEth",
      "outputs": [
        {
          "internalType": "uint256",
          "name": "",
          "type": "uint256"
        }
      ],
      "stateMutability": "view",
      "type": "function"
    },
    {
      "inputs": [],
      "name": "totalSupply",
      "outputs": [
        {
          "internalType": "uint256",
          "name": "",
          "type": "uint256"
        }
      ],
      "stateMutability": "view",
      "type": "function"
    },
    {
      "inputs": [
        {
          "internalType": "address",
          "name": "to",
          "type": "address"
        },
        {
          "internalType": "uint256",
          "name": "amount",
          "type": "uint256"
        }
      ],
      "name": "transfer",
      "outputs": [
        {
          "internalType": "bool",
          "name": "",
          "type": "bool"
        }
      ],
      "stateMutability": "nonpayable",
      "type": "function"
    },
    {
      "inputs": [
        {
          "internalType": "address",
          "name": "from",
          "type": "address"
        },
        {
          "internalType": "address",
          "name": "to",
          "type": "address"
        },
        {
          "internalType": "uint256",
          "name": "amount",
          "type": "uint256"
        }
      ],
      "name": "transferFrom",
      "outputs": [
        {
          "internalType": "bool",
          "name": "",
          "type": "bool"
        }
      ],
      "stateMutability": "nonpayable",
      "type": "function"
    },
    {
      "inputs": [
        {
          "internalType": "address",
          "name": "newImplementation",
          "type": "address"
        }
      ],
      "name": "upgradeTo",
      "outputs": [],
      "stateMutability": "nonpayable",
      "type": "function"
    },
    {
      "inputs": [
        {
          "internalType": "address",
          "name": "newImplementation",
          "type": "address"
        },
        {
          "internalType": "bytes",
          "name": "data",
          "type": "bytes"
        }
      ],
      "name": "upgradeToAndCall",
      "outputs": [],
      "stateMutability": "payable",
      "type": "function"
    },
    {
      "stateMutability": "payable",
      "type": "receive"
    }
  ],
  "transactionHash": "0xc5375b1dd1f02affcdffdba54cea104fcf651ef095e7c8b8345290dab75d4c1b",
  "args": [],
  "numDeployments": 2,
  "solcInputHash": "fc16d5115b9eb2442784854dbcfca88e",
  "bytecode": "0x60a06040523060601b6080523480156200001857600080fd5b50620000236200003d565b6200002d6200003d565b620000376200003d565b620000ff565b600054610100900460ff1615620000aa5760405162461bcd60e51b815260206004820152602760248201527f496e697469616c697a61626c653a20636f6e747261637420697320696e697469604482015266616c697a696e6760c81b606482015260840160405180910390fd5b60005460ff9081161015620000fd576000805460ff191660ff9081179091556040519081527f7f26b83ff96e1f2b6a682f133852f6798a09c465da95921460cefb38474024989060200160405180910390a15b565b60805160601c6155c16200013a600039600081816109a5015281816109e801528181610b5801528181610b9b0152610c3701526155c16000f3fe608060405260043610620002635760003560e01c806392a85fde1162000147578063d3abc28b11620000b9578063df79812e1162000078578063df79812e146200075e578063ed1bd76c1462000783578063f340fa0114620007a8578063f50477a214620007bf578063fb0f97a814620007d757600080fd5b8063d3abc28b14620006a5578063db006a7514620006ca578063dc5b68a614620006ef578063dd62ed3e1462000714578063df30e97c146200073957600080fd5b8063ab0d92dd1162000106578063ab0d92dd14620005f9578063aea321c61462000611578063b49612ba1462000636578063bc9c5e90146200065b578063cf35bdd0146200068057600080fd5b806392a85fde146200053a57806395d89b41146200055a578063a240663e1462000572578063a457c2d714620005af578063a9059cbb14620005d457600080fd5b80634162169f11620001e157806360d8bb2211620001a057806360d8bb22146200047e57806363d727dc14620004a35780636f7a4b2314620004bb57806370a0823114620004e057806385f2aef2146200051a57600080fd5b80634162169f14620003c9578063464b415814620004055780634f1ef286146200042a57806352d1902d14620004415780635aaaefad146200045957600080fd5b806330c88fd7116200022e57806330c88fd7146200031c578063313ce56714620003415780633659cfe6146200036557806337dde58a146200038c5780633950935114620003a457600080fd5b806306fdde031462000270578063095ea7b314620002a057806318160ddd14620002d657806323b872dd14620002f757600080fd5b366200026b57005b600080fd5b3480156200027d57600080fd5b5062000288620007fc565b6040516200029791906200487d565b60405180910390f35b348015620002ad57600080fd5b50620002c5620002bf366004620044be565b62000896565b604051901515815260200162000297565b348015620002e357600080fd5b506099545b60405190815260200162000297565b3480156200030457600080fd5b50620002c56200031636600462004357565b620008b2565b3480156200032957600080fd5b50620002e86200033b366004620044be565b620008dc565b3480156200034e57600080fd5b5060125b60405160ff909116815260200162000297565b3480156200037257600080fd5b506200038a62000384366004620042d9565b6200099a565b005b3480156200039957600080fd5b50620002e862000a86565b348015620003b157600080fd5b50620002c5620003c3366004620044be565b62000b07565b348015620003d657600080fd5b5061013054620003ec906001600160a01b031681565b6040516001600160a01b03909116815260200162000297565b3480156200041257600080fd5b50620002c562000424366004620042d9565b62000b2f565b6200038a6200043b36600462004409565b62000b4d565b3480156200044e57600080fd5b50620002e862000c2a565b3480156200046657600080fd5b50620002e862000478366004620044be565b62000ce0565b3480156200048b57600080fd5b50620002e86200049d366004620044be565b62000fc9565b348015620004b057600080fd5b506200035262001193565b348015620004c857600080fd5b50620002c5620004da366004620042d9565b62001256565b348015620004ed57600080fd5b50620002e8620004ff366004620042d9565b6001600160a01b031660009081526097602052604090205490565b3480156200052757600080fd5b5060fc546001600160a01b0316620003ec565b3480156200054757600080fd5b5060c9546001600160a01b0316620003ec565b3480156200056757600080fd5b506200028862001263565b3480156200057f57600080fd5b50620002c562000591366004620042d9565b6001600160a01b0316600090815260fd602052604090205460ff1690565b348015620005bc57600080fd5b50620002c5620005ce366004620044be565b62001274565b348015620005e157600080fd5b50620002c5620005f3366004620044be565b62001300565b3480156200060657600080fd5b50620002e862001310565b3480156200061e57600080fd5b506200038a62000630366004620044ed565b62001389565b3480156200064357600080fd5b50620002e862000655366004620044be565b6200155e565b3480156200066857600080fd5b50620002c56200067a366004620042d9565b62001821565b3480156200068d57600080fd5b50620003ec6200069f36600462004706565b62001953565b348015620006b257600080fd5b5062000288620006c43660046200445f565b6200197f565b348015620006d757600080fd5b506200038a620006e936600462004706565b62001b07565b348015620006fc57600080fd5b506200038a6200070e3660046200439d565b62001d35565b3480156200072157600080fd5b50620002e86200073336600462004319565b62001f41565b3480156200074657600080fd5b506200038a62000758366004620044ed565b62001f6c565b3480156200076b57600080fd5b506200038a6200077d36600462004567565b6200213b565b3480156200079057600080fd5b50620002e8620007a236600462004706565b62002319565b6200038a620007b9366004620042d9565b62002357565b348015620007cc57600080fd5b5061013154620002e8565b348015620007e457600080fd5b506200038a620007f636600462004357565b620024de565b6060609a80546200080d9062004d24565b80601f01602080910402602001604051908101604052809291908181526020018280546200083b9062004d24565b80156200088c5780601f1062000860576101008083540402835291602001916200088c565b820191906000526020600020905b8154815290600101906020018083116200086e57829003601f168201915b5050505050905090565b600033620008a681858562002644565b60019150505b92915050565b600033620008c28582856200276c565b620008cf858585620027e7565b60019150505b9392505050565b600080620008e960995490565b905080831115620009325760405162461bcd60e51b815260206004820152600e60248201526d677420746f74616c537570706c7960901b60448201526064015b60405180910390fd5b6200093d8462000b2f565b6200095c5760405162461bcd60e51b81526004016200092990620048de565b806200096d576000915050620008ac565b80836200097a86620029bf565b62000986919062004c93565b62000992919062004ad4565b949350505050565b306001600160a01b037f0000000000000000000000000000000000000000000000000000000000000000161415620009e65760405162461bcd60e51b8152600401620009299062004892565b7f00000000000000000000000000000000000000000000000000000000000000006001600160a01b031662000a3160008051602062005525833981519152546001600160a01b031690565b6001600160a01b03161462000a5a5760405162461bcd60e51b8152600401620009299062004940565b62000a658162002a64565b6040805160008082526020820190925262000a839183919062002aab565b50565b610131546000908190815b8181101562000aff576000610131828154811062000ab35762000ab362004dc1565b6000918252602090912001546001600160a01b0316905062000ada816200047881620029bf565b62000ae6908562004a5d565b935050808062000af69062004d61565b91505062000a91565b509092915050565b600033620008a681858562000b1d838362001f41565b62000b29919062004a5d565b62002644565b6001600160a01b031660009081526101326020526040902054151590565b306001600160a01b037f000000000000000000000000000000000000000000000000000000000000000016141562000b995760405162461bcd60e51b8152600401620009299062004892565b7f00000000000000000000000000000000000000000000000000000000000000006001600160a01b031662000be460008051602062005525833981519152546001600160a01b031690565b6001600160a01b03161462000c0d5760405162461bcd60e51b8152600401620009299062004940565b62000c188262002a64565b62000c268282600162002aab565b5050565b6000306001600160a01b037f0000000000000000000000000000000000000000000000000000000000000000161462000ccc5760405162461bcd60e51b815260206004820152603860248201527f555550535570677261646561626c653a206d757374206e6f742062652063616c60448201527f6c6564207468726f7567682064656c656761746563616c6c0000000000000000606482015260840162000929565b506000805160206200552583398151915290565b60006001600160a01b03831660008051602062005545833981519152148062000d2557506001600160a01b03831673c02aaa39b223fe8d0a0e5c4f27ead9083c756cc2145b1562000d33575080620008ac565b6000806000807347fb2585d2c56fe188d0e6ec628a38b74fceeedf6001600160a01b031663bcfd032d88600080516020620055458339815191526040518363ffffffff1660e01b815260040162000d8c92919062004819565b60a06040518083038186803b15801562000da557600080fd5b505afa15801562000dba573d6000803e3d6000fd5b505050506040513d601f19601f8201168201806040525081019062000de0919062004720565b94509450509350935060007347fb2585d2c56fe188d0e6ec628a38b74fceeedf6001600160a01b03166358e2d3a889600080516020620055458339815191526040518363ffffffff1660e01b815260040162000e3e92919062004819565b60206040518083038186803b15801562000e5757600080fd5b505afa15801562000e6c573d6000803e3d6000fd5b505050506040513d601f19601f8201168201806040525081019062000e92919062004775565b9050846001600160501b0316826001600160501b0316101562000ec95760405162461bcd60e51b8152600401620009299062004909565b62000ed8620151808462004a5d565b42111562000efa5760405162461bcd60e51b8152600401620009299062004909565b62000f088482601262002c33565b9350600084131562000fbb57876001600160a01b031663313ce5676040518163ffffffff1660e01b815260040160206040518083038186803b15801562000f4e57600080fd5b505afa15801562000f63573d6000803e3d6000fd5b505050506040513d601f19601f8201168201806040525081019062000f89919062004775565b62000f9690600a62004b42565b62000fa2888662004c93565b62000fae919062004ad4565b95505050505050620008ac565b506000979650505050505050565b60008062000fdf60c9546001600160a01b031690565b9050806001600160a01b0316846001600160a01b03161415620010065782915050620008ac565b6001600160a01b0381166000805160206200554583398151915214806200104957506001600160a01b03811673c02aaa39b223fe8d0a0e5c4f27ead9083c756cc2145b1562001064576200105b848462000ce0565b915050620008ac565b6001600160a01b038416600080516020620055458339815191521480620010a757506001600160a01b03841673c02aaa39b223fe8d0a0e5c4f27ead9083c756cc2145b15620010b9576200105b81846200155e565b6000620010c562001193565b90506000620010d78684601262002cb3565b9050600081131562001187576200117c620010f3868362004c02565b876001600160a01b031663313ce5676040518163ffffffff1660e01b815260040160206040518083038186803b1580156200112d57600080fd5b505afa15801562001142573d6000803e3d6000fd5b505050506040513d601f19601f8201168201806040525081019062001168919062004775565b6200117590601262004a78565b8462002c33565b9350505050620008ac565b50600095945050505050565b600060008051602062005545833981519152620011b860c9546001600160a01b031690565b6001600160a01b03161415620011ce5750601290565b60c9546001600160a01b03166001600160a01b031663313ce5676040518163ffffffff1660e01b815260040160206040518083038186803b1580156200121357600080fd5b505afa92505050801562001246575060408051601f3d908101601f19168201909252620012439181019062004775565b60015b620012515750600090565b919050565b6000620008ac8262001821565b6060609b80546200080d9062004d24565b6000338162001284828662001f41565b905083811015620012e65760405162461bcd60e51b815260206004820152602560248201527f45524332303a2064656372656173656420616c6c6f77616e63652062656c6f77604482015264207a65726f60d81b606482015260840162000929565b620012f5828686840362002644565b506001949350505050565b600033620008a6818585620027e7565b610131546000908190815b8181101562000aff57600061013182815481106200133d576200133d62004dc1565b6000918252602090912001546001600160a01b0316905062001364816200049d81620029bf565b62001370908562004a5d565b9350508080620013809062004d61565b9150506200131b565b604080518082018252600781526611d95b995c985b60ca1b6020820152610130549151635b6dde2b60e11b815233600482015290916001600160a01b031690819063b6dbbc569060240160206040518083038186803b158015620013ec57600080fd5b505afa15801562001401573d6000803e3d6000fd5b505050506040513d601f19601f8201168201806040525081019062001427919062004651565b80620014c5575060405163031a79b160e61b81526001600160a01b0382169063c69e6c40906200145c9085906004016200487d565b60206040518083038186803b1580156200147557600080fd5b505afa1580156200148a573d6000803e3d6000fd5b505050506040513d601f19601f82011682018060405250810190620014b09190620042f9565b6001600160a01b0316336001600160a01b0316145b60408051808201909152601081526f2230b79d1037b7363c9023b7bb32b93760811b6020820152620014f89084620031ae565b90620015195760405162461bcd60e51b81526004016200092991906200487d565b5062001558848480806020026020016040519081016040528093929190818152602001838360200280828437600092019190915250620031dc92505050565b50505050565b60006001600160a01b038316600080516020620055458339815191521480620015a357506001600160a01b03831673c02aaa39b223fe8d0a0e5c4f27ead9083c756cc2145b15620015b1575080620008ac565b6000806000807347fb2585d2c56fe188d0e6ec628a38b74fceeedf6001600160a01b031663bcfd032d88600080516020620055458339815191526040518363ffffffff1660e01b81526004016200160a92919062004819565b60a06040518083038186803b1580156200162357600080fd5b505afa15801562001638573d6000803e3d6000fd5b505050506040513d601f19601f820116820180604052508101906200165e919062004720565b94509450509350935060007347fb2585d2c56fe188d0e6ec628a38b74fceeedf6001600160a01b03166358e2d3a889600080516020620055458339815191526040518363ffffffff1660e01b8152600401620016bc92919062004819565b60206040518083038186803b158015620016d557600080fd5b505afa158015620016ea573d6000803e3d6000fd5b505050506040513d601f19601f8201168201806040525081019062001710919062004775565b9050846001600160501b0316826001600160501b03161015620017475760405162461bcd60e51b8152600401620009299062004909565b62001756620151808462004a5d565b421115620017785760405162461bcd60e51b8152600401620009299062004909565b620017868482601262002c33565b9350600084131562000fbb5783886001600160a01b031663313ce5676040518163ffffffff1660e01b815260040160206040518083038186803b158015620017cd57600080fd5b505afa158015620017e2573d6000803e3d6000fd5b505050506040513d601f19601f8201168201806040525081019062001808919062004775565b6200181590600a62004b42565b62000fa2908962004c93565b60006001600160a01b0382166000805160206200554583398151915214806200186657506001600160a01b03821673c02aaa39b223fe8d0a0e5c4f27ead9083c756cc2145b156200187457506001919050565b60405163d2edb6dd60e01b81527347fb2585d2c56fe188d0e6ec628a38b74fceeedf9063d2edb6dd90620018be908590600080516020620055458339815191529060040162004819565b60206040518083038186803b158015620018d757600080fd5b505afa9250505080156200190a575060408051601f3d908101601f191682019092526200190791810190620042f9565b60015b6200194a573d8080156200193b576040519150601f19603f3d011682016040523d82523d6000602084013e62001940565b606091505b5060009392505050565b50600192915050565b61013181815481106200196557600080fd5b6000918252602090912001546001600160a01b0316905081565b33600090815260fd602052604090205460609060ff16620019f15760405162461bcd60e51b815260206004820152602560248201527f427564676574417070726f76616c45786563757465653a206163636573732064604482015264195b9a595960da1b606482015260840162000929565b600080856001600160a01b0316848660405162001a0f9190620047c8565b60006040518083038185875af1925050503d806000811462001a4e576040519150601f19603f3d011682016040523d82523d6000602084013e62001a53565b606091505b50915091508162001ac35762001aa862001a6d8262003225565b60408051808201909152601d81527f52657665727465642062792065787465726e616c20636f6e7472616374000000602082015290620031ae565b60405162461bcd60e51b81526004016200092991906200487d565b7fcf452d48646654954090c61dd69f99a99bea4e2264594078fc81bfd43d6f6a9e338660405162001af692919062004857565b60405180910390a195945050505050565b610130546001600160a01b03168162001b35336001600160a01b031660009081526097602052604090205490565b101562001b7a5760405162461bcd60e51b81526020600482015260126024820152716e6f7420656e6f7567682062616c616e636560701b604482015260640162000929565b42816001600160a01b03166361c533b46040518163ffffffff1660e01b815260040160206040518083038186803b15801562001bb557600080fd5b505afa15801562001bca573d6000803e3d6000fd5b505050506040513d601f19601f8201168201806040525081019062001bf0919062004675565b604051636cb7c6f960e01b81523360048201526001600160a01b03841690636cb7c6f99060240160206040518083038186803b15801562001c3057600080fd5b505afa15801562001c45573d6000803e3d6000fd5b505050506040513d601f19601f8201168201806040525081019062001c6b919062004675565b62001c77919062004a5d565b111562001cb55760405162461bcd60e51b815260206004820152600b60248201526a6c6f636b75702074696d6560a81b604482015260640162000929565b6101315460005b8181101562001d23576000610131828154811062001cde5762001cde62004dc1565b6000918252602090912001546001600160a01b0316905062001d0d338262001d078189620008dc565b62003287565b508062001d1a8162004d61565b91505062001cbc565b5062001d3033846200335c565b505050565b600054610100900460ff161580801562001d565750600054600160ff909116105b8062001d725750303b15801562001d72575060005460ff166001145b62001dd75760405162461bcd60e51b815260206004820152602e60248201527f496e697469616c697a61626c653a20636f6e747261637420697320616c72656160448201526d191e481a5b9a5d1a585b1a5e995960921b606482015260840162000929565b6000805460ff19166001179055801562001dfb576000805461ff0019166101001790555b62001e436040518060400160405280600a815260200169131a5c5d5a59141bdbdb60b21b8152506040518060400160405280600281526020016104c560f41b815250620034b0565b62001e4e82620034e6565b61013080546001600160a01b0319166001600160a01b03861617905562001e7583620031dc565b62001ef4846001600160a01b03166385f2aef26040518163ffffffff1660e01b815260040160206040518083038186803b15801562001eb357600080fd5b505afa15801562001ec8573d6000803e3d6000fd5b505050506040513d601f19601f8201168201806040525081019062001eee9190620042f9565b62003532565b801562001558576000805461ff0019169055604051600181527f7f26b83ff96e1f2b6a682f133852f6798a09c465da95921460cefb3847402498906020015b60405180910390a150505050565b6001600160a01b03918216600090815260986020908152604080832093909416825291909152205490565b604080518082018252600781526611d95b995c985b60ca1b6020820152610130549151635b6dde2b60e11b815233600482015290916001600160a01b031690819063b6dbbc569060240160206040518083038186803b15801562001fcf57600080fd5b505afa15801562001fe4573d6000803e3d6000fd5b505050506040513d601f19601f820116820180604052508101906200200a919062004651565b80620020a8575060405163031a79b160e61b81526001600160a01b0382169063c69e6c40906200203f9085906004016200487d565b60206040518083038186803b1580156200205857600080fd5b505afa1580156200206d573d6000803e3d6000fd5b505050506040513d601f19601f82011682018060405250810190620020939190620042f9565b6001600160a01b0316336001600160a01b0316145b60408051808201909152601081526f2230b79d1037b7363c9023b7bb32b93760811b6020820152620020db9084620031ae565b90620020fc5760405162461bcd60e51b81526004016200092991906200487d565b50620015588484808060200260200160405190810160405280939291908181526020018383602002808284376000920191909152506200357e92505050565b8051825114620021835760405162461bcd60e51b8152602060048201526012602482015271496e636f72726563742043616c6c6461746160701b604482015260640162000929565b60005b825181101562001d3057620021b7838281518110620021a957620021a962004dc1565b6020026020010151620035c7565b6000838281518110620021ce57620021ce62004dc1565b6020026020010151838381518110620021eb57620021eb62004dc1565b6020026020010151604051620022019062004132565b6200220e92919062004857565b604051809103906000f0801580156200222b573d6000803e3d6000fd5b506001600160a01b038116600090815260fd60205260409020805460ff1916600117905583519091507f26c79e13dd63e8716f130c25331c09f2fdd55d6880bbfa7bcc38868207e8a6709082908590859081106200228d576200228d62004dc1565b6020026020010151604051620022a592919062004857565b60405180910390a1806001600160a01b031663cf26fec66040518163ffffffff1660e01b8152600401600060405180830381600087803b158015620022e957600080fd5b505af1158015620022fe573d6000803e3d6000fd5b50505050508080620023109062004d61565b91505062002186565b6000806200232660995490565b90508062002335575090919050565b6200233f62001310565b6200234b828562004c93565b620008d5919062004ad4565b620023716000805160206200554583398151915262000b2f565b620023b35760405162461bcd60e51b8152602060048201526011602482015270185cdcd95d081b9bdd081cdd5c1c1bdc9d607a1b604482015260640162000929565b6000620023bf60995490565b90506000620023de600080516020620055458339815191523462000fc9565b9050816200244f57620023f2838262003818565b620023fe8382620038fd565b7f5548c837ab068cf56a2c2479df0882a4922fd203edb7517321831d95078c5f62836000805160206200554583398151915234604051620024429392919062004833565b60405180910390a1505050565b6000816200245c62001310565b62002468919062004cb5565b90506200248e84826200247c868662004c93565b62002488919062004ad4565b62003818565b6200249a8483620038fd565b7f5548c837ab068cf56a2c2479df0882a4922fd203edb7517321831d95078c5f6284600080516020620055458339815191523460405162001f339392919062004833565b620024e98262000b2f565b620025085760405162461bcd60e51b81526004016200092990620048de565b604051636eb1769f60e11b815281906001600160a01b0384169063dd62ed3e906200253a903390309060040162004819565b60206040518083038186803b1580156200255357600080fd5b505afa15801562002568573d6000803e3d6000fd5b505050506040513d601f19601f820116820180604052508101906200258e919062004675565b1015620025cc5760405162461bcd60e51b815260206004820152600b60248201526a6e6f7420617070726f766560a81b604482015260640162000929565b6000620025da838362000fc9565b9050620025ec84620024888362002319565b620026036001600160a01b0384163330856200396a565b6200260f8482620038fd565b7f5548c837ab068cf56a2c2479df0882a4922fd203edb7517321831d95078c5f6284848460405162001f339392919062004833565b6001600160a01b038316620026a85760405162461bcd60e51b8152602060048201526024808201527f45524332303a20617070726f76652066726f6d20746865207a65726f206164646044820152637265737360e01b606482015260840162000929565b6001600160a01b0382166200270b5760405162461bcd60e51b815260206004820152602260248201527f45524332303a20617070726f766520746f20746865207a65726f206164647265604482015261737360f01b606482015260840162000929565b6001600160a01b0383811660008181526098602090815260408083209487168084529482529182902085905590518481527f8c5be1e5ebec7d5bd14f71427d1e84f3dd0314c0f7b2291e5b200ac8c7c3b925910160405180910390a3505050565b60006200277a848462001f41565b90506000198114620015585781811015620027d85760405162461bcd60e51b815260206004820152601d60248201527f45524332303a20696e73756666696369656e7420616c6c6f77616e6365000000604482015260640162000929565b62001558848484840362002644565b6001600160a01b0383166200284d5760405162461bcd60e51b815260206004820152602560248201527f45524332303a207472616e736665722066726f6d20746865207a65726f206164604482015264647265737360d81b606482015260840162000929565b6001600160a01b038216620028b15760405162461bcd60e51b815260206004820152602360248201527f45524332303a207472616e7366657220746f20746865207a65726f206164647260448201526265737360e81b606482015260840162000929565b6001600160a01b038316600090815260976020526040902054818110156200292b5760405162461bcd60e51b815260206004820152602660248201527f45524332303a207472616e7366657220616d6f756e7420657863656564732062604482015265616c616e636560d01b606482015260840162000929565b6001600160a01b038085166000908152609760205260408082208585039055918516815290812080548492906200296490849062004a5d565b92505081905550826001600160a01b0316846001600160a01b03167fddf252ad1be2c89b69c2b068fc378daa952ba7f163c4a11628f55a4df523b3ef84604051620029b191815260200190565b60405180910390a362001558565b60006001600160a01b038216600080516020620055458339815191521415620029e9575047919050565b6040516370a0823160e01b81523060048201526001600160a01b038316906370a082319060240160206040518083038186803b15801562002a2957600080fd5b505afa15801562002a3e573d6000803e3d6000fd5b505050506040513d601f19601f82011682018060405250810190620008ac919062004675565b610130546001600160a01b0316331462000a835760405162461bcd60e51b81526020600482015260076024820152666e6f742064616f60c81b604482015260640162000929565b7f4910fdfa16fed3260ed0e7147f7cc6da11a60208b5b9406d12a635614ffd91435460ff161562002ae15762001d3083620039c6565b826001600160a01b03166352d1902d6040518163ffffffff1660e01b815260040160206040518083038186803b15801562002b1b57600080fd5b505afa92505050801562002b4e575060408051601f3d908101601f1916820190925262002b4b9181019062004675565b60015b62002bb35760405162461bcd60e51b815260206004820152602e60248201527f45524331393637557067726164653a206e657720696d706c656d656e7461746960448201526d6f6e206973206e6f74205555505360901b606482015260840162000929565b60008051602062005525833981519152811462002c255760405162461bcd60e51b815260206004820152602960248201527f45524331393637557067726164653a20756e737570706f727465642070726f786044820152681a58589b195555525160ba1b606482015260840162000929565b5062001d3083838362003a65565b60008160ff168360ff16101562002c745762002c50838362004ccf565b62002c609060ff16600a62004b34565b62002c6c908562004c02565b9050620008d5565b8160ff168360ff16111562002cab5762002c8f828462004ccf565b62002c9f9060ff16600a62004b34565b62002c6c908562004aa0565b509192915050565b600060ff82161580159062002ccc5750601260ff831611155b62002d0e5760405162461bcd60e51b8152602060048201526011602482015270496e76616c6964205f646563696d616c7360781b604482015260640162000929565b600062002d2060ff8416600a62004b34565b90506000806000807347fb2585d2c56fe188d0e6ec628a38b74fceeedf6001600160a01b031663bcfd032d8a600080516020620055458339815191526040518363ffffffff1660e01b815260040162002d7b92919062004819565b60a06040518083038186803b15801562002d9457600080fd5b505afa15801562002da9573d6000803e3d6000fd5b505050506040513d601f19601f8201168201806040525081019062002dcf919062004720565b945094505093509350836001600160501b0316816001600160501b0316101562002e3c5760405162461bcd60e51b815260206004820152601c60248201527f5374616c6520707269636520696e20436861696e6c696e6b2031303400000000604482015260640162000929565b62002e4b620151808362004a5d565b42111562002e9c5760405162461bcd60e51b815260206004820152601c60248201527f5374616c6520707269636520696e20436861696e6c696e6b2031303500000000604482015260640162000929565b604051630b1c5a7560e31b81526000907347fb2585d2c56fe188d0e6ec628a38b74fceeedf906358e2d3a89062002ee9908d90600080516020620055458339815191529060040162004819565b60206040518083038186803b15801562002f0257600080fd5b505afa15801562002f17573d6000803e3d6000fd5b505050506040513d601f19601f8201168201806040525081019062002f3d919062004775565b905062002f4c84828a62002c33565b93506000806000807347fb2585d2c56fe188d0e6ec628a38b74fceeedf6001600160a01b031663bcfd032d8e600080516020620055458339815191526040518363ffffffff1660e01b815260040162002fa792919062004819565b60a06040518083038186803b15801562002fc057600080fd5b505afa15801562002fd5573d6000803e3d6000fd5b505050506040513d601f19601f8201168201806040525081019062002ffb919062004720565b945094505093509350836001600160501b0316816001600160501b03161015620030685760405162461bcd60e51b815260206004820152601c60248201527f5374616c6520707269636520696e20436861696e6c696e6b2031313200000000604482015260640162000929565b62003077620151808362004a5d565b421115620030c85760405162461bcd60e51b815260206004820152601c60248201527f5374616c6520707269636520696e20436861696e6c696e6b2031313300000000604482015260640162000929565b60007347fb2585d2c56fe188d0e6ec628a38b74fceeedf6001600160a01b03166358e2d3a88f600080516020620055458339815191526040518363ffffffff1660e01b81526004016200311d92919062004819565b60206040518083038186803b1580156200313657600080fd5b505afa1580156200314b573d6000803e3d6000fd5b505050506040513d601f19601f8201168201806040525081019062003171919062004775565b90506200318084828f62002c33565b9350836200318f8c8b62004c02565b6200319b919062004aa0565b9f9e505050505050505050505050505050565b60608282604051602001620031c5929190620047e6565b604051602081830303815290604052905092915050565b60005b815181101562000c26576200321082828151811062003202576200320262004dc1565b602002602001015162003a90565b806200321c8162004d61565b915050620031df565b60606044825110156200324657505060408051602081019091526000815290565b600482019150620008ac828060200190518101906200326691906200468f565b60408051808201909152600381526201016960ed1b602082015290620031ae565b6001600160a01b03821660008051602062005545833981519152141562003346576000836001600160a01b03168260405160006040518083038185875af1925050503d8060008114620032f7576040519150601f19603f3d011682016040523d82523d6000602084013e620032fc565b606091505b5050905080620015585760405162461bcd60e51b81526020600482015260146024820152732330b4b632b2103a379039b2b7321022ba3432b960611b604482015260640162000929565b62001d306001600160a01b038316848362003b63565b6001600160a01b038216620033be5760405162461bcd60e51b815260206004820152602160248201527f45524332303a206275726e2066726f6d20746865207a65726f206164647265736044820152607360f81b606482015260840162000929565b6001600160a01b03821660009081526097602052604090205481811015620034345760405162461bcd60e51b815260206004820152602260248201527f45524332303a206275726e20616d6f756e7420657863656564732062616c616e604482015261636560f01b606482015260840162000929565b6001600160a01b03831660009081526097602052604081208383039055609980548492906200346590849062004cb5565b90915550506040518281526000906001600160a01b038516907fddf252ad1be2c89b69c2b068fc378daa952ba7f163c4a11628f55a4df523b3ef9060200160405180910390a3505050565b600054610100900460ff16620034da5760405162461bcd60e51b815260040162000929906200498c565b62000c26828262003b95565b600054610100900460ff16620035105760405162461bcd60e51b815260040162000929906200498c565b60c980546001600160a01b0319166001600160a01b0392909216919091179055565b600054610100900460ff166200355c5760405162461bcd60e51b815260040162000929906200498c565b60fc80546001600160a01b0319166001600160a01b0392909216919091179055565b60005b815181101562000c2657620035b2828281518110620035a457620035a462004dc1565b602002602001015162003bea565b80620035be8162004d61565b91505062003581565b604080518082018252600781526611d95b995c985b60ca1b6020820152610130549151635b6dde2b60e11b815233600482015290916001600160a01b031690819063b6dbbc569060240160206040518083038186803b1580156200362a57600080fd5b505afa1580156200363f573d6000803e3d6000fd5b505050506040513d601f19601f8201168201806040525081019062003665919062004651565b8062003703575060405163031a79b160e61b81526001600160a01b0382169063c69e6c40906200369a9085906004016200487d565b60206040518083038186803b158015620036b357600080fd5b505afa158015620036c8573d6000803e3d6000fd5b505050506040513d601f19601f82011682018060405250810190620036ee9190620042f9565b6001600160a01b0316336001600160a01b0316145b60408051808201909152601081526f2230b79d1037b7363c9023b7bb32b93760811b6020820152620037369084620031ae565b90620037575760405162461bcd60e51b81526004016200092991906200487d565b5061013054604051633b42d9af60e21b81526001600160a01b0385811660048301529091169063ed0b66bc9060240160206040518083038186803b1580156200379f57600080fd5b505afa158015620037b4573d6000803e3d6000fd5b505050506040513d601f19601f82011682018060405250810190620037da919062004651565b62001d305760405162461bcd60e51b815260206004820152600d60248201526c1b9bdd081dda1a5d195b1a5cdd609a1b604482015260640162000929565b6001600160a01b038216620038705760405162461bcd60e51b815260206004820152601f60248201527f45524332303a206d696e7420746f20746865207a65726f206164647265737300604482015260640162000929565b806099600082825462003884919062004a5d565b90915550506001600160a01b03821660009081526097602052604081208054839290620038b390849062004a5d565b90915550506040518181526001600160a01b038316906000907fddf252ad1be2c89b69c2b068fc378daa952ba7f163c4a11628f55a4df523b3ef9060200160405180910390a35050565b61013054604051631c783fd360e31b81526001600160a01b038481166004830152602482018490529091169063e3c1fe9890604401600060405180830381600087803b1580156200394d57600080fd5b505af115801562003962573d6000803e3d6000fd5b505050505050565b62001558846323b872dd60e01b8585856040516024016200398e9392919062004833565b60408051601f198184030181529190526020810180516001600160e01b03166001600160e01b03199093169290921790915262003d90565b6001600160a01b0381163b62003a355760405162461bcd60e51b815260206004820152602d60248201527f455243313936373a206e657720696d706c656d656e746174696f6e206973206e60448201526c1bdd08184818dbdb9d1c9858dd609a1b606482015260840162000929565b6000805160206200552583398151915280546001600160a01b0319166001600160a01b0392909216919091179055565b62003a708362003e69565b60008251118062003a7e5750805b1562001d305762001558838362003eab565b62003a9b8162001256565b801562003ab0575062003aae8162000b2f565b155b62003acf5760405162461bcd60e51b81526004016200092990620048de565b61013180546001810182557fbd987ad6ccdb7c7567f7335ea839f95dc944431abcf935b6924f70215963db730180546001600160a01b0319166001600160a01b03841690811790915590546000828152610132602090815260409182902092909255519182527f808665eda000f8d729f31a384bae411282aa3be62cb73ed74e2225e2eef7125d910160405180910390a150565b6040516001600160a01b03831660248201526044810182905262001d3090849063a9059cbb60e01b906064016200398e565b600054610100900460ff1662003bbf5760405162461bcd60e51b815260040162000929906200498c565b815162003bd490609a90602085019062004140565b50805162001d3090609b90602084019062004140565b62003bf58162000b2f565b62003c375760405162461bcd60e51b8152602060048201526011602482015270105cdcd95d081b9bdd081a5b881b1a5cdd607a1b604482015260640162000929565b6001600160a01b0381166000908152610132602052604081205462003c5f9060019062004cb5565b610131805491925060009162003c789060019062004cb5565b8154811062003c8b5762003c8b62004dc1565b60009182526020909120015461013180546001600160a01b03909216925082918490811062003cbe5762003cbe62004dc1565b600091825260209091200180546001600160a01b0319166001600160a01b039290921691909117905562003cf482600162004a5d565b6001600160a01b03808316600090815261013260205260408082209390935590851681529081205561013180548062003d315762003d3162004dab565b6000828152602090819020600019908301810180546001600160a01b03191690559091019091556040516001600160a01b03851681527f289634222e6533fbe86ba920f2c134b0c959102a872f93ccc13ca9346a93f2f9910162002442565b600062003de7826040518060400160405280602081526020017f5361666545524332303a206c6f772d6c6576656c2063616c6c206661696c6564815250856001600160a01b031662003fa89092919063ffffffff16565b80519091501562001d30578080602001905181019062003e08919062004651565b62001d305760405162461bcd60e51b815260206004820152602a60248201527f5361666545524332303a204552433230206f7065726174696f6e20646964206e6044820152691bdd081cdd58d8d9595960b21b606482015260840162000929565b62003e7481620039c6565b6040516001600160a01b038216907fbc7cd75a20ee27fd9adebab32041f755214dbc6bffa90cc0225b39da2e5c2d3b90600090a250565b60606001600160a01b0383163b62003f155760405162461bcd60e51b815260206004820152602660248201527f416464726573733a2064656c65676174652063616c6c20746f206e6f6e2d636f6044820152651b9d1c9858dd60d21b606482015260840162000929565b600080846001600160a01b03168460405162003f329190620047c8565b600060405180830381855af49150503d806000811462003f6f576040519150601f19603f3d011682016040523d82523d6000602084013e62003f74565b606091505b509150915062003f9f8282604051806060016040528060278152602001620055656027913962003fb9565b95945050505050565b606062000992848460008562003ff7565b6060831562003fca575081620008d5565b82511562003fdb5782518084602001fd5b8160405162461bcd60e51b81526004016200092991906200487d565b6060824710156200405a5760405162461bcd60e51b815260206004820152602660248201527f416464726573733a20696e73756666696369656e742062616c616e636520666f6044820152651c8818d85b1b60d21b606482015260840162000929565b6001600160a01b0385163b620040b35760405162461bcd60e51b815260206004820152601d60248201527f416464726573733a2063616c6c20746f206e6f6e2d636f6e7472616374000000604482015260640162000929565b600080866001600160a01b03168587604051620040d19190620047c8565b60006040518083038185875af1925050503d806000811462004110576040519150601f19603f3d011682016040523d82523d6000602084013e62004115565b606091505b50915091506200412782828662003fb9565b979650505050505050565b6107218062004e0483390190565b8280546200414e9062004d24565b90600052602060002090601f016020900481019282620041725760008555620041bd565b82601f106200418d57805160ff1916838001178555620041bd565b82800160010185558215620041bd579182015b82811115620041bd578251825591602001919060010190620041a0565b50620041cb929150620041cf565b5090565b5b80821115620041cb5760008155600101620041d0565b600082601f830112620041f857600080fd5b81356020620042116200420b8362004a0b565b620049d7565b80838252828201915082860187848660051b89010111156200423257600080fd5b60005b858110156200425e5781356200424b8162004ded565b8452928401929084019060010162004235565b5090979650505050505050565b600082601f8301126200427d57600080fd5b81356200428e6200420b8262004a32565b818152846020838601011115620042a457600080fd5b816020850160208301376000918101602001919091529392505050565b80516001600160501b03811681146200125157600080fd5b600060208284031215620042ec57600080fd5b8135620008d58162004ded565b6000602082840312156200430c57600080fd5b8151620008d58162004ded565b600080604083850312156200432d57600080fd5b82356200433a8162004ded565b915060208301356200434c8162004ded565b809150509250929050565b6000806000606084860312156200436d57600080fd5b83356200437a8162004ded565b925060208401356200438c8162004ded565b929592945050506040919091013590565b600080600060608486031215620043b357600080fd5b8335620043c08162004ded565b9250602084013567ffffffffffffffff811115620043dd57600080fd5b620043eb86828701620041e6565b9250506040840135620043fe8162004ded565b809150509250925092565b600080604083850312156200441d57600080fd5b82356200442a8162004ded565b9150602083013567ffffffffffffffff8111156200444757600080fd5b62004455858286016200426b565b9150509250929050565b6000806000606084860312156200447557600080fd5b8335620044828162004ded565b9250602084013567ffffffffffffffff8111156200449f57600080fd5b620044ad868287016200426b565b925050604084013590509250925092565b60008060408385031215620044d257600080fd5b8235620044df8162004ded565b946020939093013593505050565b600080602083850312156200450157600080fd5b823567ffffffffffffffff808211156200451a57600080fd5b818501915085601f8301126200452f57600080fd5b8135818111156200453f57600080fd5b8660208260051b85010111156200455557600080fd5b60209290920196919550909350505050565b600080604083850312156200457b57600080fd5b823567ffffffffffffffff808211156200459457600080fd5b620045a286838701620041e6565b9350602091508185013581811115620045ba57600080fd5b8501601f81018713620045cc57600080fd5b8035620045dd6200420b8262004a0b565b8082825285820191508584018a878560051b8701011115620045fe57600080fd5b6000805b858110156200463e578235888111156200461a578283fd5b6200462a8e8b838b01016200426b565b865250938801939188019160010162004602565b5050508096505050505050509250929050565b6000602082840312156200466457600080fd5b81518015158114620008d557600080fd5b6000602082840312156200468857600080fd5b5051919050565b600060208284031215620046a257600080fd5b815167ffffffffffffffff811115620046ba57600080fd5b8201601f81018413620046cc57600080fd5b8051620046dd6200420b8262004a32565b818152856020838501011115620046f357600080fd5b62003f9f82602083016020860162004cf5565b6000602082840312156200471957600080fd5b5035919050565b600080600080600060a086880312156200473957600080fd5b6200474486620042c1565b94506020860151935060408601519250606086015191506200476960808701620042c1565b90509295509295909350565b6000602082840312156200478857600080fd5b815160ff81168114620008d557600080fd5b60008151808452620047b481602086016020860162004cf5565b601f01601f19169290920160200192915050565b60008251620047dc81846020870162004cf5565b9190910192915050565b60008351620047fa81846020880162004cf5565b8351908301906200481081836020880162004cf5565b01949350505050565b6001600160a01b0392831681529116602082015260400190565b6001600160a01b039384168152919092166020820152604081019190915260600190565b6001600160a01b038316815260406020820181905260009062000992908301846200479a565b602081526000620008d560208301846200479a565b6020808252602c908201527f46756e6374696f6e206d7573742062652063616c6c6564207468726f7567682060408201526b19195b1959d85d1958d85b1b60a21b606082015260800190565b602080825260119082015270105cdcd95d081b9bdd081cdd5c1c1bdc9d607a1b604082015260600190565b60208082526018908201527f5374616c6520707269636520696e20436861696e6c696e6b0000000000000000604082015260600190565b6020808252602c908201527f46756e6374696f6e206d7573742062652063616c6c6564207468726f7567682060408201526b6163746976652070726f787960a01b606082015260800190565b6020808252602b908201527f496e697469616c697a61626c653a20636f6e7472616374206973206e6f74206960408201526a6e697469616c697a696e6760a81b606082015260800190565b604051601f8201601f1916810167ffffffffffffffff8111828210171562004a035762004a0362004dd7565b604052919050565b600067ffffffffffffffff82111562004a285762004a2862004dd7565b5060051b60200190565b600067ffffffffffffffff82111562004a4f5762004a4f62004dd7565b50601f01601f191660200190565b6000821982111562004a735762004a7362004d7f565b500190565b600060ff821660ff84168060ff0382111562004a985762004a9862004d7f565b019392505050565b60008262004ab25762004ab262004d95565b600160ff1b82146000198414161562004acf5762004acf62004d7f565b500590565b60008262004ae65762004ae662004d95565b500490565b600181815b8085111562004b2c57816000190482111562004b105762004b1062004d7f565b8085161562004b1e57918102915b93841c939080029062004af0565b509250929050565b6000620008d5838362004b4e565b6000620008d560ff8416835b60008262004b5f57506001620008ac565b8162004b6e57506000620008ac565b816001811462004b87576002811462004b925762004bb2565b6001915050620008ac565b60ff84111562004ba65762004ba662004d7f565b50506001821b620008ac565b5060208310610133831016604e8410600b841016171562004bd7575081810a620008ac565b62004be3838362004aeb565b806000190482111562004bfa5762004bfa62004d7f565b029392505050565b60006001600160ff1b038184138284138082168684048611161562004c2b5762004c2b62004d7f565b600160ff1b600087128281168783058912161562004c4d5762004c4d62004d7f565b6000871292508782058712848416161562004c6c5762004c6c62004d7f565b8785058712818416161562004c855762004c8562004d7f565b505050929093029392505050565b600081600019048311821515161562004cb05762004cb062004d7f565b500290565b60008282101562004cca5762004cca62004d7f565b500390565b600060ff821660ff84168082101562004cec5762004cec62004d7f565b90039392505050565b60005b8381101562004d1257818101518382015260200162004cf8565b83811115620015585750506000910152565b600181811c9082168062004d3957607f821691505b6020821081141562004d5b57634e487b7160e01b600052602260045260246000fd5b50919050565b600060001982141562004d785762004d7862004d7f565b5060010190565b634e487b7160e01b600052601160045260246000fd5b634e487b7160e01b600052601260045260246000fd5b634e487b7160e01b600052603160045260246000fd5b634e487b7160e01b600052603260045260246000fd5b634e487b7160e01b600052604160045260246000fd5b6001600160a01b038116811462000a8357600080fdfe6080604052604051610721380380610721833981016040819052610022916102d2565b61002e82826000610035565b5050610431565b61003e8361006b565b60008251118061004b5750805b156100665761006483836100ab60201b6100291760201c565b505b505050565b610074816100d7565b6040516001600160a01b038216907fbc7cd75a20ee27fd9adebab32041f755214dbc6bffa90cc0225b39da2e5c2d3b90600090a250565b60606100d083836040518060600160405280602781526020016106fa602791396101a9565b9392505050565b6100ea8161028760201b6100551760201c565b6101515760405162461bcd60e51b815260206004820152602d60248201527f455243313936373a206e657720696d706c656d656e746174696f6e206973206e60448201526c1bdd08184818dbdb9d1c9858dd609a1b60648201526084015b60405180910390fd5b806101887f360894a13ba1a3210667c828492db98dca3e2076cc3735a920a3ca505d382bbc60001b61029660201b6100641760201c565b80546001600160a01b0319166001600160a01b039290921691909117905550565b60606001600160a01b0384163b6102115760405162461bcd60e51b815260206004820152602660248201527f416464726573733a2064656c65676174652063616c6c20746f206e6f6e2d636f6044820152651b9d1c9858dd60d21b6064820152608401610148565b600080856001600160a01b03168560405161022c91906103a0565b600060405180830381855af49150503d8060008114610267576040519150601f19603f3d011682016040523d82523d6000602084013e61026c565b606091505b50909250905061027d828286610299565b9695505050505050565b6001600160a01b03163b151590565b90565b606083156102a85750816100d0565b8251156102b85782518084602001fd5b8160405162461bcd60e51b815260040161014891906103bc565b600080604083850312156102e557600080fd5b82516001600160a01b03811681146102fc57600080fd5b60208401519092506001600160401b038082111561031957600080fd5b818501915085601f83011261032d57600080fd5b81518181111561033f5761033f61041b565b604051601f8201601f19908116603f011681019083821181831017156103675761036761041b565b8160405282815288602084870101111561038057600080fd5b6103918360208301602088016103ef565b80955050505050509250929050565b600082516103b28184602087016103ef565b9190910192915050565b60208152600082518060208401526103db8160408501602087016103ef565b601f01601f19169190910160400192915050565b60005b8381101561040a5781810151838201526020016103f2565b838111156100645750506000910152565b634e487b7160e01b600052604160045260246000fd5b6102ba806104406000396000f3fe60806040523661001357610011610017565b005b6100115b610027610022610067565b61009f565b565b606061004e838360405180606001604052806027815260200161025e602791396100c3565b9392505050565b6001600160a01b03163b151590565b90565b600061009a7f360894a13ba1a3210667c828492db98dca3e2076cc3735a920a3ca505d382bbc546001600160a01b031690565b905090565b3660008037600080366000845af43d6000803e8080156100be573d6000f35b3d6000fd5b60606001600160a01b0384163b6101305760405162461bcd60e51b815260206004820152602660248201527f416464726573733a2064656c65676174652063616c6c20746f206e6f6e2d636f6044820152651b9d1c9858dd60d21b60648201526084015b60405180910390fd5b600080856001600160a01b03168560405161014b91906101de565b600060405180830381855af49150503d8060008114610186576040519150601f19603f3d011682016040523d82523d6000602084013e61018b565b606091505b509150915061019b8282866101a5565b9695505050505050565b606083156101b457508161004e565b8251156101c45782518084602001fd5b8160405162461bcd60e51b815260040161012791906101fa565b600082516101f081846020870161022d565b9190910192915050565b602081526000825180602084015261021981604085016020870161022d565b601f01601f19169190910160400192915050565b60005b83811015610248578181015183820152602001610230565b83811115610257576000848401525b5050505056fe416464726573733a206c6f772d6c6576656c2064656c65676174652063616c6c206661696c6564a2646970667358221220fb537d1df0a2f3ea0050d30fb82ca020f06a83116d3853b9eda518a67b0c9be764736f6c63430008070033416464726573733a206c6f772d6c6576656c2064656c65676174652063616c6c206661696c6564360894a13ba1a3210667c828492db98dca3e2076cc3735a920a3ca505d382bbc000000000000000000000000eeeeeeeeeeeeeeeeeeeeeeeeeeeeeeeeeeeeeeee416464726573733a206c6f772d6c6576656c2064656c65676174652063616c6c206661696c6564a2646970667358221220dbebf5a6d6b2ddcfdf42714ba66fd1266c4f3e612254f23ab65c52fa56e5a48164736f6c63430008070033",
  "devdoc": {
    "kind": "dev",
    "methods": {
      "allowance(address,address)": {
        "details": "See {IERC20-allowance}."
      },
      "approve(address,uint256)": {
        "details": "See {IERC20-approve}. NOTE: If `amount` is the maximum `uint256`, the allowance is not updated on `transferFrom`. This is semantically equivalent to an infinite approval. Requirements: - `spender` cannot be the zero address."
      },
      "balanceOf(address)": {
        "details": "See {IERC20-balanceOf}."
      },
      "constructor": {
        "custom:oz-upgrades-unsafe-allow": "constructor"
      },
      "decimals()": {
        "details": "Returns the number of decimals used to get its user representation. For example, if `decimals` equals `2`, a balance of `505` tokens should be displayed to a user as `5.05` (`505 / 10 ** 2`). Tokens usually opt for a value of 18, imitating the relationship between Ether and Wei. This is the value {ERC20} uses, unless this function is overridden; NOTE: This information is only used for _display_ purposes: it in no way affects any of the arithmetic of the contract, including {IERC20-balanceOf} and {IERC20-transfer}."
      },
      "decreaseAllowance(address,uint256)": {
        "details": "Atomically decreases the allowance granted to `spender` by the caller. This is an alternative to {approve} that can be used as a mitigation for problems described in {IERC20-approve}. Emits an {Approval} event indicating the updated allowance. Requirements: - `spender` cannot be the zero address. - `spender` must have allowance for the caller of at least `subtractedValue`."
      },
      "increaseAllowance(address,uint256)": {
        "details": "Atomically increases the allowance granted to `spender` by the caller. This is an alternative to {approve} that can be used as a mitigation for problems described in {IERC20-approve}. Emits an {Approval} event indicating the updated allowance. Requirements: - `spender` cannot be the zero address."
      },
      "name()": {
        "details": "Returns the name of the token."
      },
      "proxiableUUID()": {
        "details": "Implementation of the ERC1822 {proxiableUUID} function. This returns the storage slot used by the implementation. It is used to validate that the this implementation remains valid after an upgrade. IMPORTANT: A proxy pointing at a proxiable contract should not be considered proxiable itself, because this risks bricking a proxy that upgrades to it, by delegating to itself until out of gas. Thus it is critical that this function revert if invoked through a proxy. This is guaranteed by the `notDelegated` modifier."
      },
      "symbol()": {
        "details": "Returns the symbol of the token, usually a shorter version of the name."
      },
      "totalSupply()": {
        "details": "See {IERC20-totalSupply}."
      },
      "transfer(address,uint256)": {
        "details": "See {IERC20-transfer}. Requirements: - `to` cannot be the zero address. - the caller must have a balance of at least `amount`."
      },
      "transferFrom(address,address,uint256)": {
        "details": "See {IERC20-transferFrom}. Emits an {Approval} event indicating the updated allowance. This is not required by the EIP. See the note at the beginning of {ERC20}. NOTE: Does not update the allowance if the current allowance is the maximum `uint256`. Requirements: - `from` and `to` cannot be the zero address. - `from` must have a balance of at least `amount`. - the caller must have allowance for ``from``'s tokens of at least `amount`."
      },
      "upgradeTo(address)": {
        "details": "Upgrade the implementation of the proxy to `newImplementation`. Calls {_authorizeUpgrade}. Emits an {Upgraded} event."
      },
      "upgradeToAndCall(address,bytes)": {
        "details": "Upgrade the implementation of the proxy to `newImplementation`, and subsequently execute the function call encoded in `data`. Calls {_authorizeUpgrade}. Emits an {Upgraded} event."
      }
    },
    "version": 1
  },
  "userdoc": {
    "kind": "user",
    "methods": {
      "assetBaseCurrencyPrice(address,uint256)": {
        "notice": "This function is imported by other contract, thus cannot be external"
      },
      "canResolvePrice(address)": {
        "notice": "This function is imported by other contract, thus cannot be external"
      }
    },
    "version": 1
  },
  "storageLayout": {
    "storage": [
      {
        "astId": 3247,
        "contract": "contracts/LiquidPool.sol:LiquidPool",
        "label": "_initialized",
        "offset": 0,
        "slot": "0",
        "type": "t_uint8"
      },
      {
        "astId": 3250,
        "contract": "contracts/LiquidPool.sol:LiquidPool",
        "label": "_initializing",
        "offset": 1,
        "slot": "0",
        "type": "t_bool"
      },
      {
        "astId": 3229,
        "contract": "contracts/LiquidPool.sol:LiquidPool",
        "label": "__gap",
        "offset": 0,
        "slot": "1",
        "type": "t_array(t_uint256)50_storage"
      },
      {
        "astId": 3526,
        "contract": "contracts/LiquidPool.sol:LiquidPool",
        "label": "__gap",
        "offset": 0,
        "slot": "51",
        "type": "t_array(t_uint256)50_storage"
      },
      {
        "astId": 8642,
        "contract": "contracts/LiquidPool.sol:LiquidPool",
        "label": "__gap",
        "offset": 0,
        "slot": "101",
        "type": "t_array(t_uint256)50_storage"
      },
      {
        "astId": 5094,
        "contract": "contracts/LiquidPool.sol:LiquidPool",
        "label": "_balances",
        "offset": 0,
        "slot": "151",
        "type": "t_mapping(t_address,t_uint256)"
      },
      {
        "astId": 5100,
        "contract": "contracts/LiquidPool.sol:LiquidPool",
        "label": "_allowances",
        "offset": 0,
        "slot": "152",
        "type": "t_mapping(t_address,t_mapping(t_address,t_uint256))"
      },
      {
        "astId": 5102,
        "contract": "contracts/LiquidPool.sol:LiquidPool",
        "label": "_totalSupply",
        "offset": 0,
        "slot": "153",
        "type": "t_uint256"
      },
      {
        "astId": 5104,
        "contract": "contracts/LiquidPool.sol:LiquidPool",
        "label": "_name",
        "offset": 0,
        "slot": "154",
        "type": "t_string_storage"
      },
      {
        "astId": 5106,
        "contract": "contracts/LiquidPool.sol:LiquidPool",
        "label": "_symbol",
        "offset": 0,
        "slot": "155",
        "type": "t_string_storage"
      },
      {
        "astId": 5685,
        "contract": "contracts/LiquidPool.sol:LiquidPool",
        "label": "__gap",
        "offset": 0,
        "slot": "156",
        "type": "t_array(t_uint256)45_storage"
      },
      {
        "astId": 28435,
        "contract": "contracts/LiquidPool.sol:LiquidPool",
        "label": "_baseCurrency",
        "offset": 0,
        "slot": "201",
        "type": "t_address"
      },
      {
        "astId": 29059,
        "contract": "contracts/LiquidPool.sol:LiquidPool",
        "label": "__gap",
        "offset": 0,
        "slot": "202",
        "type": "t_array(t_uint256)50_storage"
      },
      {
        "astId": 27340,
        "contract": "contracts/LiquidPool.sol:LiquidPool",
        "label": "_team",
        "offset": 0,
        "slot": "252",
        "type": "t_address"
      },
      {
        "astId": 27344,
        "contract": "contracts/LiquidPool.sol:LiquidPool",
        "label": "_budgetApprovals",
        "offset": 0,
        "slot": "253",
        "type": "t_mapping(t_address,t_bool)"
      },
      {
        "astId": 27548,
        "contract": "contracts/LiquidPool.sol:LiquidPool",
        "label": "__gap",
        "offset": 0,
        "slot": "254",
        "type": "t_array(t_uint256)50_storage"
      },
      {
        "astId": 23514,
        "contract": "contracts/LiquidPool.sol:LiquidPool",
        "label": "dao",
        "offset": 0,
        "slot": "304",
        "type": "t_contract(IDao)30517"
      },
      {
        "astId": 23517,
        "contract": "contracts/LiquidPool.sol:LiquidPool",
        "label": "assets",
        "offset": 0,
        "slot": "305",
        "type": "t_array(t_address)dyn_storage"
      },
      {
        "astId": 23521,
        "contract": "contracts/LiquidPool.sol:LiquidPool",
        "label": "_assetIndex",
        "offset": 0,
        "slot": "306",
        "type": "t_mapping(t_address,t_uint256)"
      },
      {
        "astId": 24356,
        "contract": "contracts/LiquidPool.sol:LiquidPool",
        "label": "__gap",
        "offset": 0,
        "slot": "307",
        "type": "t_array(t_uint256)50_storage"
      }
    ],
    "types": {
      "t_address": {
        "encoding": "inplace",
        "label": "address",
        "numberOfBytes": "20"
      },
      "t_array(t_address)dyn_storage": {
        "base": "t_address",
        "encoding": "dynamic_array",
        "label": "address[]",
        "numberOfBytes": "32"
      },
      "t_array(t_uint256)45_storage": {
        "base": "t_uint256",
        "encoding": "inplace",
        "label": "uint256[45]",
        "numberOfBytes": "1440"
      },
      "t_array(t_uint256)50_storage": {
        "base": "t_uint256",
        "encoding": "inplace",
        "label": "uint256[50]",
        "numberOfBytes": "1600"
      },
      "t_bool": {
        "encoding": "inplace",
        "label": "bool",
        "numberOfBytes": "1"
      },
      "t_contract(IDao)30517": {
        "encoding": "inplace",
        "label": "contract IDao",
        "numberOfBytes": "20"
      },
      "t_mapping(t_address,t_bool)": {
        "encoding": "mapping",
        "key": "t_address",
        "label": "mapping(address => bool)",
        "numberOfBytes": "32",
        "value": "t_bool"
      },
      "t_mapping(t_address,t_mapping(t_address,t_uint256))": {
        "encoding": "mapping",
        "key": "t_address",
        "label": "mapping(address => mapping(address => uint256))",
        "numberOfBytes": "32",
        "value": "t_mapping(t_address,t_uint256)"
      },
      "t_mapping(t_address,t_uint256)": {
        "encoding": "mapping",
        "key": "t_address",
        "label": "mapping(address => uint256)",
        "numberOfBytes": "32",
        "value": "t_uint256"
      },
      "t_string_storage": {
        "encoding": "bytes",
        "label": "string",
        "numberOfBytes": "32"
      },
      "t_uint256": {
        "encoding": "inplace",
        "label": "uint256",
        "numberOfBytes": "32"
      },
      "t_uint8": {
        "encoding": "inplace",
        "label": "uint8",
        "numberOfBytes": "1"
      }
    }
  }
}