{
  "address": "0x8fAf485d23E400755Da2E8b1c00701B098964982",
  "abi": [
    {
      "inputs": [],
      "stateMutability": "nonpayable",
      "type": "constructor"
    },
    {
      "anonymous": false,
      "inputs": [
        {
          "indexed": false,
          "internalType": "address",
          "name": "target",
          "type": "address"
        }
      ],
      "name": "AllowAddress",
      "type": "event"
    },
    {
      "anonymous": false,
      "inputs": [
        {
          "indexed": false,
          "internalType": "uint256",
          "name": "amount",
          "type": "uint256"
        }
      ],
      "name": "AllowAmount",
      "type": "event"
    },
    {
      "anonymous": false,
      "inputs": [
        {
          "indexed": true,
          "internalType": "uint256",
          "name": "teamId",
          "type": "uint256"
        }
      ],
      "name": "AllowTeam",
      "type": "event"
    },
    {
      "anonymous": false,
      "inputs": [
        {
          "indexed": false,
          "internalType": "address",
          "name": "token",
          "type": "address"
        }
      ],
      "name": "AllowToken",
      "type": "event"
    },
    {
      "anonymous": false,
      "inputs": [
        {
          "indexed": true,
          "internalType": "uint256",
          "name": "id",
          "type": "uint256"
        },
        {
          "indexed": false,
          "internalType": "address",
          "name": "approver",
          "type": "address"
        },
        {
          "indexed": false,
          "internalType": "string",
          "name": "comment",
          "type": "string"
        }
      ],
      "name": "ApproveTransaction",
      "type": "event"
    },
    {
      "anonymous": false,
      "inputs": [
        {
          "indexed": true,
          "internalType": "uint256",
          "name": "id",
          "type": "uint256"
        },
        {
          "indexed": false,
          "internalType": "bytes[]",
          "name": "data",
          "type": "bytes[]"
        },
        {
          "indexed": false,
          "internalType": "uint256",
          "name": "deadline",
          "type": "uint256"
        },
        {
          "indexed": false,
          "internalType": "enum CommonBudgetApproval.Status",
          "name": "status",
          "type": "uint8"
        },
        {
          "indexed": false,
          "internalType": "string",
          "name": "comment",
          "type": "string"
        },
        {
          "indexed": false,
          "internalType": "address",
          "name": "creator",
          "type": "address"
        }
      ],
      "name": "CreateTransaction",
      "type": "event"
    },
    {
      "anonymous": false,
      "inputs": [
        {
          "indexed": true,
          "internalType": "uint256",
          "name": "id",
          "type": "uint256"
        },
        {
          "indexed": false,
          "internalType": "bytes[]",
          "name": "data",
          "type": "bytes[]"
        },
        {
          "indexed": false,
          "internalType": "address",
          "name": "_executor",
          "type": "address"
        }
      ],
      "name": "ExecuteTransaction",
      "type": "event"
    },
    {
      "anonymous": false,
      "inputs": [
        {
          "indexed": true,
          "internalType": "uint256",
          "name": "id",
          "type": "uint256"
        },
        {
          "indexed": true,
          "internalType": "address",
          "name": "executor",
          "type": "address"
        },
        {
          "indexed": true,
          "internalType": "address",
          "name": "toAddress",
          "type": "address"
        },
        {
          "indexed": false,
          "internalType": "address",
          "name": "token",
          "type": "address"
        },
        {
          "indexed": false,
          "internalType": "uint256",
          "name": "amount",
          "type": "uint256"
        }
      ],
      "name": "ExecuteTransferLiquidERC20Transaction",
      "type": "event"
    },
    {
      "anonymous": false,
      "inputs": [
        {
          "indexed": false,
          "internalType": "uint8",
          "name": "version",
          "type": "uint8"
        }
      ],
      "name": "Initialized",
      "type": "event"
    },
    {
      "anonymous": false,
      "inputs": [
        {
          "indexed": true,
          "internalType": "uint256",
          "name": "id",
          "type": "uint256"
        }
      ],
      "name": "RevokeTransaction",
      "type": "event"
    },
    {
      "anonymous": false,
      "inputs": [
        {
          "indexed": false,
          "internalType": "address",
          "name": "approver",
          "type": "address"
        }
      ],
      "name": "SetApprover",
      "type": "event"
    },
    {
      "inputs": [
        {
          "internalType": "address",
          "name": "",
          "type": "address"
        }
      ],
      "name": "addressesMapping",
      "outputs": [
        {
          "internalType": "bool",
          "name": "",
          "type": "bool"
        }
      ],
      "stateMutability": "view",
      "type": "function"
    },
    {
      "inputs": [],
      "name": "afterInitialized",
      "outputs": [],
      "stateMutability": "nonpayable",
      "type": "function"
    },
    {
      "inputs": [],
      "name": "allowAllAddresses",
      "outputs": [
        {
          "internalType": "bool",
          "name": "",
          "type": "bool"
        }
      ],
      "stateMutability": "view",
      "type": "function"
    },
    {
      "inputs": [],
      "name": "allowAnyAmount",
      "outputs": [
        {
          "internalType": "bool",
          "name": "",
          "type": "bool"
        }
      ],
      "stateMutability": "view",
      "type": "function"
    },
    {
      "inputs": [],
      "name": "allowUnlimitedUsageCount",
      "outputs": [
        {
          "internalType": "bool",
          "name": "",
          "type": "bool"
        }
      ],
      "stateMutability": "view",
      "type": "function"
    },
    {
      "inputs": [
        {
          "internalType": "uint256",
          "name": "id",
          "type": "uint256"
        },
        {
          "internalType": "string",
          "name": "comment",
          "type": "string"
        }
      ],
      "name": "approveTransaction",
      "outputs": [],
      "stateMutability": "nonpayable",
      "type": "function"
    },
    {
      "inputs": [],
      "name": "approverTeamId",
      "outputs": [
        {
          "internalType": "uint256",
          "name": "",
          "type": "uint256"
        }
      ],
      "stateMutability": "view",
      "type": "function"
    },
    {
      "inputs": [
        {
          "internalType": "address",
          "name": "eoa",
          "type": "address"
        }
      ],
      "name": "approversMapping",
      "outputs": [
        {
          "internalType": "bool",
          "name": "",
          "type": "bool"
        }
      ],
      "stateMutability": "view",
      "type": "function"
    },
    {
      "inputs": [
        {
          "internalType": "address",
          "name": "asset",
          "type": "address"
        },
        {
          "internalType": "uint256",
          "name": "amount",
          "type": "uint256"
        }
      ],
      "name": "assetBaseCurrencyPrice",
      "outputs": [
        {
          "internalType": "uint256",
          "name": "",
          "type": "uint256"
        }
      ],
      "stateMutability": "view",
      "type": "function"
    },
    {
      "inputs": [
        {
          "internalType": "address",
          "name": "asset",
          "type": "address"
        },
        {
          "internalType": "uint256",
          "name": "amount",
          "type": "uint256"
        }
      ],
      "name": "assetEthPrice",
      "outputs": [
        {
          "internalType": "uint256",
          "name": "",
          "type": "uint256"
        }
      ],
      "stateMutability": "view",
      "type": "function"
    },
    {
      "inputs": [],
      "name": "baseCurrency",
      "outputs": [
        {
          "internalType": "address",
          "name": "",
          "type": "address"
        }
      ],
      "stateMutability": "view",
      "type": "function"
    },
    {
      "inputs": [],
      "name": "baseCurrencyDecimals",
      "outputs": [
        {
          "internalType": "uint8",
          "name": "",
          "type": "uint8"
        }
      ],
      "stateMutability": "view",
      "type": "function"
    },
    {
      "inputs": [
        {
          "internalType": "address",
          "name": "asset",
          "type": "address"
        }
      ],
      "name": "canResolvePrice",
      "outputs": [
        {
          "internalType": "bool",
          "name": "",
          "type": "bool"
        }
      ],
      "stateMutability": "view",
      "type": "function"
    },
    {
      "inputs": [
        {
          "internalType": "bytes[]",
          "name": "_data",
          "type": "bytes[]"
        },
        {
          "internalType": "uint32",
          "name": "_deadline",
          "type": "uint32"
        },
        {
          "internalType": "bool",
          "name": "_isExecute",
          "type": "bool"
        },
        {
          "internalType": "string",
          "name": "comment",
          "type": "string"
        }
      ],
      "name": "createTransaction",
      "outputs": [
        {
          "internalType": "uint256",
          "name": "",
          "type": "uint256"
        }
      ],
      "stateMutability": "nonpayable",
      "type": "function"
    },
    {
      "inputs": [],
      "name": "endTime",
      "outputs": [
        {
          "internalType": "uint256",
          "name": "",
          "type": "uint256"
        }
      ],
      "stateMutability": "view",
      "type": "function"
    },
    {
      "inputs": [
        {
          "internalType": "address",
          "name": "asset",
          "type": "address"
        },
        {
          "internalType": "uint256",
          "name": "ethAmount",
          "type": "uint256"
        }
      ],
      "name": "ethAssetPrice",
      "outputs": [
        {
          "internalType": "uint256",
          "name": "",
          "type": "uint256"
        }
      ],
      "stateMutability": "view",
      "type": "function"
    },
    {
      "inputs": [],
      "name": "executeParams",
      "outputs": [
        {
          "internalType": "string[]",
          "name": "",
          "type": "string[]"
        }
      ],
      "stateMutability": "pure",
      "type": "function"
    },
    {
      "inputs": [
        {
          "internalType": "uint256",
          "name": "id",
          "type": "uint256"
        }
      ],
      "name": "executeTransaction",
      "outputs": [],
      "stateMutability": "nonpayable",
      "type": "function"
    },
    {
      "inputs": [],
      "name": "executee",
      "outputs": [
        {
          "internalType": "address",
          "name": "",
          "type": "address"
        }
      ],
      "stateMutability": "view",
      "type": "function"
    },
    {
      "inputs": [],
      "name": "executor",
      "outputs": [
        {
          "internalType": "address",
          "name": "",
          "type": "address"
        }
      ],
      "stateMutability": "view",
      "type": "function"
    },
    {
      "inputs": [],
      "name": "executorTeamId",
      "outputs": [
        {
          "internalType": "uint256",
          "name": "",
          "type": "uint256"
        }
      ],
      "stateMutability": "view",
      "type": "function"
    },
    {
      "inputs": [
        {
          "components": [
            {
              "internalType": "address",
              "name": "executor",
              "type": "address"
            },
            {
              "internalType": "uint256",
              "name": "executorTeamId",
              "type": "uint256"
            },
            {
              "internalType": "address[]",
              "name": "approvers",
              "type": "address[]"
            },
            {
              "internalType": "uint256",
              "name": "approverTeamId",
              "type": "uint256"
            },
            {
              "internalType": "uint256",
              "name": "minApproval",
              "type": "uint256"
            },
            {
              "internalType": "string",
              "name": "text",
              "type": "string"
            },
            {
              "internalType": "string",
              "name": "transactionType",
              "type": "string"
            },
            {
              "internalType": "uint256",
              "name": "startTime",
              "type": "uint256"
            },
            {
              "internalType": "uint256",
              "name": "endTime",
              "type": "uint256"
            },
            {
              "internalType": "bool",
              "name": "allowUnlimitedUsageCount",
              "type": "bool"
            },
            {
              "internalType": "uint256",
              "name": "usageCount",
              "type": "uint256"
            },
            {
              "internalType": "address",
              "name": "team",
              "type": "address"
            }
          ],
          "internalType": "struct CommonBudgetApproval.InitializeParams",
          "name": "params",
          "type": "tuple"
        },
        {
          "internalType": "bool",
          "name": "_allowAllAddresses",
          "type": "bool"
        },
        {
          "internalType": "address[]",
          "name": "_toAddresses",
          "type": "address[]"
        },
        {
          "internalType": "address[]",
          "name": "_tokens",
          "type": "address[]"
        },
        {
          "internalType": "bool",
          "name": "_allowAnyAmount",
          "type": "bool"
        },
        {
          "internalType": "uint256",
          "name": "_totalAmount",
          "type": "uint256"
        },
        {
          "internalType": "address",
          "name": "_baseCurrency",
          "type": "address"
        },
        {
          "internalType": "uint256[]",
          "name": "_toTeamIds",
          "type": "uint256[]"
        }
      ],
      "name": "initialize",
      "outputs": [],
      "stateMutability": "nonpayable",
      "type": "function"
    },
    {
      "inputs": [],
      "name": "minApproval",
      "outputs": [
        {
          "internalType": "uint256",
          "name": "",
          "type": "uint256"
        }
      ],
      "stateMutability": "view",
      "type": "function"
    },
    {
      "inputs": [],
      "name": "name",
      "outputs": [
        {
          "internalType": "string",
          "name": "",
          "type": "string"
        }
      ],
      "stateMutability": "view",
      "type": "function"
    },
    {
      "inputs": [
        {
          "internalType": "uint256",
          "name": "id",
          "type": "uint256"
        }
      ],
      "name": "revokeTransaction",
      "outputs": [],
      "stateMutability": "nonpayable",
      "type": "function"
    },
    {
      "inputs": [],
      "name": "startTime",
      "outputs": [
        {
          "internalType": "uint256",
          "name": "",
          "type": "uint256"
        }
      ],
      "stateMutability": "view",
      "type": "function"
    },
    {
      "inputs": [],
      "name": "team",
      "outputs": [
        {
          "internalType": "address",
          "name": "",
          "type": "address"
        }
      ],
      "stateMutability": "view",
      "type": "function"
    },
    {
      "inputs": [],
      "name": "text",
      "outputs": [
        {
          "internalType": "string",
          "name": "",
          "type": "string"
        }
      ],
      "stateMutability": "view",
      "type": "function"
    },
    {
      "inputs": [
        {
          "internalType": "uint256",
          "name": "",
          "type": "uint256"
        }
      ],
      "name": "toTeamIds",
      "outputs": [
        {
          "internalType": "uint256",
          "name": "",
          "type": "uint256"
        }
      ],
      "stateMutability": "view",
      "type": "function"
    },
    {
      "inputs": [
        {
          "internalType": "uint256",
          "name": "",
          "type": "uint256"
        }
      ],
      "name": "toTeamIdsMapping",
      "outputs": [
        {
          "internalType": "bool",
          "name": "",
          "type": "bool"
        }
      ],
      "stateMutability": "view",
      "type": "function"
    },
    {
      "inputs": [],
      "name": "toTeamsLength",
      "outputs": [
        {
          "internalType": "uint256",
          "name": "",
          "type": "uint256"
        }
      ],
      "stateMutability": "view",
      "type": "function"
    },
    {
      "inputs": [
        {
          "internalType": "uint256",
          "name": "",
          "type": "uint256"
        }
      ],
      "name": "tokens",
      "outputs": [
        {
          "internalType": "address",
          "name": "",
          "type": "address"
        }
      ],
      "stateMutability": "view",
      "type": "function"
    },
    {
      "inputs": [],
      "name": "tokensLength",
      "outputs": [
        {
          "internalType": "uint256",
          "name": "",
          "type": "uint256"
        }
      ],
      "stateMutability": "view",
      "type": "function"
    },
    {
      "inputs": [
        {
          "internalType": "address",
          "name": "",
          "type": "address"
        }
      ],
      "name": "tokensMapping",
      "outputs": [
        {
          "internalType": "bool",
          "name": "",
          "type": "bool"
        }
      ],
      "stateMutability": "view",
      "type": "function"
    },
    {
      "inputs": [],
      "name": "totalAmount",
      "outputs": [
        {
          "internalType": "uint256",
          "name": "",
          "type": "uint256"
        }
      ],
      "stateMutability": "view",
      "type": "function"
    },
    {
      "inputs": [],
      "name": "transactionType",
      "outputs": [
        {
          "internalType": "string",
          "name": "",
          "type": "string"
        }
      ],
      "stateMutability": "view",
      "type": "function"
    },
    {
      "inputs": [
        {
          "internalType": "uint256",
          "name": "",
          "type": "uint256"
        }
      ],
      "name": "transactions",
      "outputs": [
        {
          "internalType": "uint256",
          "name": "id",
          "type": "uint256"
        },
        {
          "internalType": "enum CommonBudgetApproval.Status",
          "name": "status",
          "type": "uint8"
        },
        {
          "internalType": "uint32",
          "name": "deadline",
          "type": "uint32"
        },
        {
          "internalType": "bool",
          "name": "isExist",
          "type": "bool"
        },
        {
          "internalType": "uint256",
          "name": "approvedCount",
          "type": "uint256"
        }
      ],
      "stateMutability": "view",
      "type": "function"
    },
    {
      "inputs": [],
      "name": "usageCount",
      "outputs": [
        {
          "internalType": "uint256",
          "name": "",
          "type": "uint256"
        }
      ],
      "stateMutability": "view",
      "type": "function"
    }
  ],
  "transactionHash": "0xd84b69fb23ab0864ecd54cc3f312f349351df490d03ab42c65a862d15d84c024",
  "args": [],
  "numDeployments": 2,
  "solcInputHash": "9b8d9175cff16c608ccf8de8d16b3fd5",
  "bytecode": "0x60806040523480156200001157600080fd5b506200001c62000036565b6200002662000036565b6200003062000036565b620000f8565b600054610100900460ff1615620000a35760405162461bcd60e51b815260206004820152602760248201527f496e697469616c697a61626c653a20636f6e747261637420697320696e697469604482015266616c697a696e6760c81b606482015260840160405180910390fd5b60005460ff9081161015620000f6576000805460ff191660ff9081179091556040519081527f7f26b83ff96e1f2b6a682f133852f6798a09c465da95921460cefb38474024989060200160405180910390a15b565b613fea80620001086000396000f3fe608060405234801561001057600080fd5b50600436106102325760003560e01c80638501543711610130578063c34c08e5116100b8578063dd7a07041161007c578063dd7a0704146104ec578063de755e2f146104f4578063e52b4ab2146104fc578063ee22610b1461051f578063f5c038521461053257600080fd5b8063c34c08e5146104b0578063c7ee6712146104c1578063cf26fec6146104d4578063d92fc67b146104dc578063d96c9196146104e457600080fd5b806397c85a61116100ff57806397c85a611461040b5780639ace38c21461041e578063b49612ba1461047d578063b617b3ee14610490578063bc9c5e901461049d57600080fd5b806385015437146103b957806385f2aef2146103c65780638d1c5c29146103d757806392a85fde146103fa57600080fd5b806350bd881f116101be5780636bdebe5e116101825780636bdebe5e14610355578063735631ad1461038157806378e97925146103965780637cd47d931461039e5780637cddb6c3146103a657600080fd5b806350bd881f146103025780635aaaefad1461030a5780635ad325021461031d57806360d8bb221461032857806363d727dc1461033b57600080fd5b80631f1bd692116102055780631f1bd6921461027f5780633197cbb61461028757806331a7bdd91461028f5780633d70015a146102a45780634f64b2be146102d757600080fd5b806303ff90f61461023757806306fdde031461024e57806314b893f9146102635780631a39d8ef14610276575b600080fd5b6008545b6040519081526020015b60405180910390f35b610256610543565b60405161024591906139e2565b61023b6102713660046132db565b61055f565b61023b60485481565b61025661077a565b600e5461023b565b61029761080c565b6040516102459190613980565b6102c76102b236600461324f565b60466020526000908152604090205460ff1681565b6040519015158152602001610245565b6102ea6102e5366004613650565b61090d565b6040516001600160a01b039091168152602001610245565b600c5461023b565b61023b6103183660046132af565b610937565b600b5460ff166102c7565b61023b6103363660046132af565b610bfa565b610343610da6565b60405160ff9091168152602001610245565b6102c761036336600461324f565b6001600160a01b031660009081526006602052604090205460ff1690565b61039461038f366004613650565b610e61565b005b600d5461023b565b610256611057565b61023b6103b4366004613650565b611066565b6047546102c79060ff1681565b600f546001600160a01b03166102ea565b6102c76103e536600461324f565b60446020526000908152604090205460ff1681565b6010546001600160a01b03166102ea565b610394610419366004613682565b611087565b61046c61042c366004613650565b600260208190526000918252604090912080549181015460039091015460ff8083169263ffffffff61010082041692650100000000009091049091169085565b604051610245959493929190613ab9565b61023b61048b3660046132af565b6113b7565b6043546102c79060ff1681565b6102c76104ab36600461324f565b611655565b6003546001600160a01b03166102ea565b6103946104cf366004613567565b61177a565b610394611981565b60455461023b565b60075461023b565b60495461023b565b60045461023b565b6102c761050a366004613650565b604a6020526000908152604090205460ff1681565b61039461052d366004613650565b6119e8565b6005546001600160a01b03166102ea565b604051806060016040528060258152602001613f706025913981565b60006105736003546001600160a01b031690565b6001600160a01b0316336001600160a01b03161480610636575060006105a1600f546001600160a01b031690565b6001600160a01b031662fdd58e336105b860045490565b6040516001600160e01b031960e085901b1681526001600160a01b039092166004830152602482015260440160206040518083038186803b1580156105fc57600080fd5b505afa158015610610573d6000803e3d6000fd5b505050506040513d601f19601f820116820180604052508101906106349190613669565b115b61065b5760405162461bcd60e51b815260040161065290613a77565b60405180910390fd5b610669600180546001019055565b600061067460015490565b60008181526002602090815260409091208281558951929350916106a0916001840191908b0190612f0c565b506002810180546501000000000065ffffffffff001990911661010063ffffffff8b160265ff00000000001916171790556008546106fa57600082815260026020819052604090912001805460ff19166001179055610715565b600082815260026020819052604090912001805460ff191690555b600281015460405183917f8a5186dbaf6f344b2837e11834be94edebb633f05034f422c6b1fe1595b4d0cc91610758918c918c9160ff16908b908b903390613925565b60405180910390a2851561076f5761076f826119e8565b509695505050505050565b60606009805461078990613e9c565b80601f01602080910402602001604051908101604052809291908181526020018280546107b590613e9c565b80156108025780601f106107d757610100808354040283529160200191610802565b820191906000526020600020905b8154815290600101906020018083116107e557829003601f168201915b5050505050905090565b6040805160038082526080820190925260609160009190816020015b60608152602001906001900390816108285790505090506040518060400160405280600d81526020016c30b2323932b9b9903a37b5b2b760991b8152508160008151811061087857610878613f2e565b60200260200101819052506040518060400160405280600a8152602001696164647265737320746f60b01b815250816001815181106108b9576108b9613f2e565b60200260200101819052506040518060400160405280600d81526020016c75696e743235362076616c756560981b815250816002815181106108fd576108fd613f2e565b6020908102919091010152919050565b6045818154811061091d57600080fd5b6000918252602090912001546001600160a01b0316905081565b60006001600160a01b038316600080516020613f95833981519152148061097a57506001600160a01b03831673b4fbf271143f4fbf7b91a5ded31805e42b2208d6145b15610986575080610bf4565b60008060008073abc30d61d30f19de38897eba18252868b34596646001600160a01b031663bcfd032d88600080516020613f958339815191526040518363ffffffff1660e01b81526004016109dc92919061380d565b60a06040518083038186803b1580156109f457600080fd5b505afa158015610a08573d6000803e3d6000fd5b505050506040513d601f19601f82011682018060405250810190610a2c91906136ce565b945094505093509350600073abc30d61d30f19de38897eba18252868b34596646001600160a01b03166358e2d3a889600080516020613f958339815191526040518363ffffffff1660e01b8152600401610a8792919061380d565b60206040518083038186803b158015610a9f57600080fd5b505afa158015610ab3573d6000803e3d6000fd5b505050506040513d601f19601f82011682018060405250810190610ad7919061371e565b9050846001600160501b0316826001600160501b03161015610b0b5760405162461bcd60e51b8152600401610652906139f5565b610b186201518084613bfd565b421115610b375760405162461bcd60e51b8152600401610652906139f5565b610b4384826012611e70565b93506000841315610bea57876001600160a01b031663313ce5676040518163ffffffff1660e01b815260040160206040518083038186803b158015610b8757600080fd5b505afa158015610b9b573d6000803e3d6000fd5b505050506040513d601f19601f82011682018060405250810190610bbf919061371e565b610bca90600a613ccb565b610bd48886613dfc565b610bde9190613c68565b95505050505050610bf4565b6000955050505050505b92915050565b600080610c0f6010546001600160a01b031690565b9050806001600160a01b0316846001600160a01b03161415610c345782915050610bf4565b6001600160a01b038116600080516020613f958339815191521480610c7557506001600160a01b03811673b4fbf271143f4fbf7b91a5ded31805e42b2208d6145b15610c8c57610c848484610937565b915050610bf4565b6001600160a01b038416600080516020613f958339815191521480610ccd57506001600160a01b03841673b4fbf271143f4fbf7b91a5ded31805e42b2208d6145b15610cdc57610c8481846113b7565b6000610ce6610da6565b90506000610cf686846012611ee3565b90506000811315610d9a57610d90610d0e8683613d77565b876001600160a01b031663313ce5676040518163ffffffff1660e01b815260040160206040518083038186803b158015610d4757600080fd5b505afa158015610d5b573d6000803e3d6000fd5b505050506040513d601f19601f82011682018060405250810190610d7f919061371e565b610d8a906012613c15565b84611e70565b9350505050610bf4565b50600095945050505050565b6000600080516020613f95833981519152610dc96010546001600160a01b031690565b6001600160a01b03161415610dde5750601290565b6010546001600160a01b03166001600160a01b031663313ce5676040518163ffffffff1660e01b815260040160206040518083038186803b158015610e2257600080fd5b505afa925050508015610e52575060408051601f3d908101601f19168201909252610e4f9181019061371e565b60015b610e5c5750600090565b919050565b6003546001600160a01b0316331480610f1e57506000610e89600f546001600160a01b031690565b6001600160a01b031662fdd58e33610ea060045490565b6040516001600160e01b031960e085901b1681526001600160a01b039092166004830152602482015260440160206040518083038186803b158015610ee457600080fd5b505afa158015610ef8573d6000803e3d6000fd5b505050506040513d601f19601f82011682018060405250810190610f1c9190613669565b115b610f3a5760405162461bcd60e51b815260040161065290613a77565b80610f4460015490565b1015610f8a5760405162461bcd60e51b8152602060048201526015602482015274125b9d985a5b1908151c985b9cd858dd1a5bdb9259605a1b6044820152606401610652565b60026000828152600260208190526040909120015460ff166003811115610fb357610fb3613f18565b141561100f5760405162461bcd60e51b815260206004820152602560248201527f5472616e73616374696f6e20686173206265656e20636f6d706c65746564206260448201526465666f726560d81b6064820152608401610652565b6000818152600260208190526040808320909101805460ff191660031790555182917f92a917be073b79ab50f9d997e9514a5d101e052ce04228014947e7883a7c034691a250565b6060600a805461078990613e9c565b6049818154811061107657600080fd5b600091825260209091200154905081565b3360009081526006602052604090205460ff1680611149575060006110b4600f546001600160a01b031690565b6001600160a01b031662fdd58e336110cb60075490565b6040516001600160e01b031960e085901b1681526001600160a01b039092166004830152602482015260440160206040518083038186803b15801561110f57600080fd5b505afa158015611123573d6000803e3d6000fd5b505050506040513d601f19601f820116820180604052508101906111479190613669565b115b6111a05760405162461bcd60e51b815260206004820152602260248201527f417070726f766572206e6f742077686974656c697374656420696e2062756467604482015261195d60f21b6064820152608401610652565b826111aa60015490565b10156111f05760405162461bcd60e51b8152602060048201526015602482015274125b9d985a5b1908151c985b9cd858dd1a5bdb9259605a1b6044820152606401610652565b600083815260026020819052604082209081015460039091015460ff909116919061121c906001613bfd565b9050600082600381111561123257611232613f18565b148061124f5750600182600381111561124d5761124d613f18565b145b61129b5760405162461bcd60e51b815260206004820152601d60248201527f556e6578706563746564207472616e73616374696f6e207374617475730000006044820152606401610652565b600085815260026020908152604080832033845260040190915290205460ff16156113145760405162461bcd60e51b8152602060048201526024808201527f5472616e73616374696f6e20686173206265656e20617070726f766564206265604482015263666f726560e01b6064820152608401610652565b6000858152600260208181526040808420338552600481018352908420805460ff19166001179055928890525260030181905561135060085490565b811061137457600085815260026020819052604090912001805460ff191660011790555b847f3399030f87676a97e30e211a48f9c46e2ff806d0b4cedf7100782f08c52902c93386866040516113a89392919061385b565b60405180910390a25050505050565b60006001600160a01b038316600080516020613f9583398151915214806113fa57506001600160a01b03831673b4fbf271143f4fbf7b91a5ded31805e42b2208d6145b15611406575080610bf4565b60008060008073abc30d61d30f19de38897eba18252868b34596646001600160a01b031663bcfd032d88600080516020613f958339815191526040518363ffffffff1660e01b815260040161145c92919061380d565b60a06040518083038186803b15801561147457600080fd5b505afa158015611488573d6000803e3d6000fd5b505050506040513d601f19601f820116820180604052508101906114ac91906136ce565b945094505093509350600073abc30d61d30f19de38897eba18252868b34596646001600160a01b03166358e2d3a889600080516020613f958339815191526040518363ffffffff1660e01b815260040161150792919061380d565b60206040518083038186803b15801561151f57600080fd5b505afa158015611533573d6000803e3d6000fd5b505050506040513d601f19601f82011682018060405250810190611557919061371e565b9050846001600160501b0316826001600160501b0316101561158b5760405162461bcd60e51b8152600401610652906139f5565b6115986201518084613bfd565b4211156115b75760405162461bcd60e51b8152600401610652906139f5565b6115c384826012611e70565b93506000841315610bea5783886001600160a01b031663313ce5676040518163ffffffff1660e01b815260040160206040518083038186803b15801561160857600080fd5b505afa15801561161c573d6000803e3d6000fd5b505050506040513d601f19601f82011682018060405250810190611640919061371e565b61164b90600a613ccb565b610bd49089613dfc565b60006001600160a01b038216600080516020613f95833981519152148061169857506001600160a01b03821673b4fbf271143f4fbf7b91a5ded31805e42b2208d6145b156116a557506001919050565b60405163d2edb6dd60e01b815273abc30d61d30f19de38897eba18252868b34596649063d2edb6dd906116ec908590600080516020613f958339815191529060040161380d565b60206040518083038186803b15801561170457600080fd5b505afa925050508015611734575060408051601f3d908101601f191682019092526117319181019061354a565b60015b611771573d808015611762576040519150601f19603f3d011682016040523d82523d6000602084013e611767565b606091505b5060009392505050565b50600192915050565b600054610100900460ff161580801561179a5750600054600160ff909116105b806117b45750303b1580156117b4575060005460ff166001145b6118175760405162461bcd60e51b815260206004820152602e60248201527f496e697469616c697a61626c653a20636f6e747261637420697320616c72656160448201526d191e481a5b9a5d1a585b1a5e995960921b6064820152608401610652565b6000805460ff19166001179055801561183a576000805461ff0019166101001790555b611843896123a9565b6043805460ff191689151517905560005b87518110156118915761187f88828151811061187257611872613f2e565b6020026020010151612633565b8061188981613ed1565b915050611854565b5060005b86518110156118d2576118c08782815181106118b3576118b3613f2e565b6020026020010151612709565b806118ca81613ed1565b915050611895565b5060005b8251811015611913576119018382815181106118f4576118f4613f2e565b602002602001015161287a565b8061190b81613ed1565b9150506118d6565b506047805460ff191686151517905560488490556119308361295b565b8015611976576000805461ff0019169055604051600181527f7f26b83ff96e1f2b6a682f133852f6798a09c465da95921460cefb38474024989060200160405180910390a15b505050505050505050565b6005546001600160a01b031633146119e65760405162461bcd60e51b815260206004820152602260248201527f4578656375746565206e6f742077686974656c697374656420696e2062756467604482015261195d60f21b6064820152608401610652565b565b806001806000838152600260208190526040909120015460ff166003811115611a1357611a13613f18565b14611a605760405162461bcd60e51b815260206004820152601a60248201527f5472616e73616374696f6e2073746174757320696e76616c69640000000000006044820152606401610652565b600083815260026020819052604090912001548390610100900463ffffffff16421115611ac55760405162461bcd60e51b8152602060048201526013602482015272151c985b9cd858dd1a5bdb88195e1c1a5c9959606a1b6044820152606401610652565b600d54421015611b175760405162461bcd60e51b815260206004820152601f60248201527f42756467657420757361676520706572696f64206e6f742073746172746564006044820152606401610652565b6000611b22600e5490565b90508015611b7957804210611b795760405162461bcd60e51b815260206004820152601d60248201527f42756467657420757361676520706572696f642068617320656e6465640000006044820152606401610652565b6003546001600160a01b0316331480611c3657506000611ba1600f546001600160a01b031690565b6001600160a01b031662fdd58e33611bb860045490565b6040516001600160e01b031960e085901b1681526001600160a01b039092166004830152602482015260440160206040518083038186803b158015611bfc57600080fd5b505afa158015611c10573d6000803e3d6000fd5b505050506040513d601f19601f82011682018060405250810190611c349190613669565b115b611c525760405162461bcd60e51b815260040161065290613a77565b6000611c60600b5460ff1690565b90506000611c6d600c5490565b9050600060026000898152602001908152602001600020600101805480602002602001604051908101604052809291908181526020016000905b82821015611d53578382906000526020600020018054611cc690613e9c565b80601f0160208091040260200160405190810160405280929190818152602001828054611cf290613e9c565b8015611d3f5780601f10611d1457610100808354040283529160200191611d3f565b820191906000526020600020905b815481529060010190602001808311611d2257829003601f168201915b505050505081526020019060010190611ca7565b50505050905060005b8151811015611e05578380611d715750600083115b611dbd5760405162461bcd60e51b815260206004820152601b60248201527f457863656564656420627564676574207573616765206c696d697400000000006044820152606401610652565b83611dd05782611dcc81613e85565b9350505b611df389838381518110611de657611de6613f2e565b60200260200101516129a4565b80611dfd81613ed1565b915050611d5c565b50600c82905560008881526002602081905260409091208101805460ff19166001830217905550877f9060adf413860c5ab6e376e0aa4269e49a13f0853edb1583fce8129d4c756d798233604051611e5e9291906138fb565b60405180910390a25050505050505050565b60008160ff168360ff161015611ea957611e8a8383613e32565b611e989060ff16600a613cbf565b611ea29085613d77565b9050611edc565b8160ff168360ff161115611ed957611ec18284613e32565b611ecf9060ff16600a613cbf565b611ea29085613c3a565b50825b9392505050565b600060ff821615801590611efb5750601260ff831611155b611f3b5760405162461bcd60e51b8152602060048201526011602482015270496e76616c6964205f646563696d616c7360781b6044820152606401610652565b6000611f4b60ff8416600a613cbf565b905060008060008073abc30d61d30f19de38897eba18252868b34596646001600160a01b031663bcfd032d8a600080516020613f958339815191526040518363ffffffff1660e01b8152600401611fa392919061380d565b60a06040518083038186803b158015611fbb57600080fd5b505afa158015611fcf573d6000803e3d6000fd5b505050506040513d601f19601f82011682018060405250810190611ff391906136ce565b945094505093509350836001600160501b0316816001600160501b0316101561205e5760405162461bcd60e51b815260206004820152601c60248201527f5374616c6520707269636520696e20436861696e6c696e6b20313034000000006044820152606401610652565b61206b6201518083613bfd565b4211156120ba5760405162461bcd60e51b815260206004820152601c60248201527f5374616c6520707269636520696e20436861696e6c696e6b20313035000000006044820152606401610652565b604051630b1c5a7560e31b815260009073abc30d61d30f19de38897eba18252868b3459664906358e2d3a890612104908d90600080516020613f958339815191529060040161380d565b60206040518083038186803b15801561211c57600080fd5b505afa158015612130573d6000803e3d6000fd5b505050506040513d601f19601f82011682018060405250810190612154919061371e565b905061216184828a611e70565b935060008060008073abc30d61d30f19de38897eba18252868b34596646001600160a01b031663bcfd032d8e600080516020613f958339815191526040518363ffffffff1660e01b81526004016121b992919061380d565b60a06040518083038186803b1580156121d157600080fd5b505afa1580156121e5573d6000803e3d6000fd5b505050506040513d601f19601f8201168201806040525081019061220991906136ce565b945094505093509350836001600160501b0316816001600160501b031610156122745760405162461bcd60e51b815260206004820152601c60248201527f5374616c6520707269636520696e20436861696e6c696e6b20313132000000006044820152606401610652565b6122816201518083613bfd565b4211156122d05760405162461bcd60e51b815260206004820152601c60248201527f5374616c6520707269636520696e20436861696e6c696e6b20313133000000006044820152606401610652565b600073abc30d61d30f19de38897eba18252868b34596646001600160a01b03166358e2d3a88f600080516020613f958339815191526040518363ffffffff1660e01b815260040161232292919061380d565b60206040518083038186803b15801561233a57600080fd5b505afa15801561234e573d6000803e3d6000fd5b505050506040513d601f19601f82011682018060405250810190612372919061371e565b905061237f84828f611e70565b93508361238c8c8b613d77565b6123969190613c3a565b9f9e505050505050505050505050505050565b600054610100900460ff166123d05760405162461bcd60e51b815260040161065290613a2c565b6000816060013511806123f557506123eb6040820182613aef565b9050816080013511155b6124395760405162461bcd60e51b8152602060048201526015602482015274125b9d985b1a5908185c1c1c9bdd995c881b1a5cdd605a1b6044820152606401610652565b600580546001600160a01b03191633179055612458602082018261324f565b600380546001600160a01b0319166001600160a01b039290921691909117905561248560a0820182613b39565b61249191600991612f69565b5061249f60c0820182613b39565b6124ab91600a91612f69565b50608081013560085560e0810135600d55610100810135600e556124d7610140820161012083016134b8565b600b805460ff1916911515919091179055610140810135600c556125036101808201610160830161324f565b600f80546001600160a01b0319166001600160a01b03929092169190911790556020810135600455606081013560075560005b6125436040830183613aef565b905081101561262f5760016006600061255f6040860186613aef565b8581811061256f5761256f613f2e565b9050602002016020810190612584919061324f565b6001600160a01b0316815260208101919091526040908101600020805460ff1916921515929092179091557f4664777dbfbcb27de0f602e1da5d5a259992cd7edf5b29192929c96e8fd50def906125dd90840184613aef565b838181106125ed576125ed613f2e565b9050602002016020810190612602919061324f565b6040516001600160a01b03909116815260200160405180910390a18061262781613ed1565b915050612536565b5050565b6001600160a01b03811660009081526044602052604090205460ff16156126ae5760405162461bcd60e51b815260206004820152602960248201527f4475706c696361746564206164647265737320696e20746172676574206164646044820152681c995cdcc81b1a5cdd60ba1b6064820152608401610652565b6001600160a01b038116600081815260446020908152604091829020805460ff1916600117905590519182527ff11283a265d7a5f95fbc149dc65464f1f5be0151aac387fd76a938e1e558460491015b60405180910390a150565b6001600160a01b03811660009081526046602052604090205460ff16156127805760405162461bcd60e51b815260206004820152602560248201527f4475706c696361746564204974656d20696e20736f7572636520746f6b656e206044820152643634b9ba1760d91b6064820152608401610652565b61278981611655565b6127e65760405162461bcd60e51b815260206004820152602860248201527f556e7265736f6c7661626c6520746f6b656e20696e2074617267657420746f6b60448201526732b7103634b9ba1760c11b6064820152608401610652565b6045805460018082019092557fa80a8fcc11760162f08bb091d2c9389d07f2b73d0e996161dfac6f1043b5fc0b0180546001600160a01b0319166001600160a01b038416908117909155600081815260466020908152604091829020805460ff1916909417909355519081527f14009112f2dcb15cad32dab6bf972d6d85286e4ae1178f27323ffe25359459e691016126fe565b6000818152604a602052604090205460ff16156128e55760405162461bcd60e51b815260206004820152602360248201527f4475706c696361746564207465616d20696e20746172676574207465616d206c6044820152621a5cdd60ea1b6064820152608401610652565b6000818152604a6020526040808220805460ff1916600190811790915560498054918201815583527f37e472f504e93744df80d87316862f9a8fd41a7bc266c723bf77df7866d75f55018390555182917f97f63d9e58eec1949a905544927de4308825003ab1dd2aa1b699921c3ca31f9591a250565b600054610100900460ff166129825760405162461bcd60e51b815260040161065290613a2c565b601080546001600160a01b0319166001600160a01b0392909216919091179055565b6000806000838060200190518101906129bd919061326c565b604854604754939650919450925060009160ff166001600160a01b038616600080516020613f958339815191521415612a98576005546001600160a01b031660405163d3abc28b60e01b81526001600160a01b038781166004830152606060248301526000606483015260448201879052919091169063d3abc28b90608401600060405180830381600087803b158015612a5657600080fd5b505af1158015612a6a573d6000803e3d6000fd5b505050506040513d6000823e601f3d908101601f19168201604052612a9291908101906134d3565b50612b64565b604080516001600160a01b038781166024830152604480830188905283518084039091018152606490920183526020820180516001600160e01b031663a9059cbb60e01b179052600554925163d3abc28b60e01b81529192169063d3abc28b90612b0b908a908590600090600401613827565b600060405180830381600087803b158015612b2557600080fd5b505af1158015612b39573d6000803e3d6000fd5b505050506040513d6000823e601f3d908101601f19168201604052612b6191908101906134d3565b50505b612b6e8685610bfa565b60435490935060ff1680612b9a57506001600160a01b03851660009081526044602052604090205460ff165b80612ba95750612ba985612d93565b612c015760405162461bcd60e51b815260206004820152602360248201527f526563697069656e74206e6f742077686974656c697374656420696e2062756460448201526219d95d60ea1b6064820152608401610652565b6001600160a01b03861660009081526046602052604090205460ff16612c695760405162461bcd60e51b815260206004820152601f60248201527f546f6b656e206e6f742077686974656c697374656420696e20627564676574006044820152606401610652565b60008311612cc45760405162461bcd60e51b815260206004820152602260248201527f5472616e7366657220616d6f756e742073686f756c64206e6f74206265207a65604482015261726f60f01b6064820152608401610652565b8080612cd05750818311155b612d2c5760405162461bcd60e51b815260206004820152602760248201527f4578636565646564206d617820627564676574207472616e7366657261626c6560448201526608185b5bdd5b9d60ca1b6064820152608401610652565b80612d3f57612d3b8383613e1b565b6048555b604080516001600160a01b0388811682526020820187905287169133918b917f7bd766f3afc51ba3017c95a3a83ebdafe5e32cf39497f7efc628b13715da4289910160405180910390a45050505050505050565b604954600090818167ffffffffffffffff811115612db357612db3613f44565b604051908082528060200260200182016040528015612ddc578160200160208202803683370190505b50905060005b82811015612e275784828281518110612dfd57612dfd613f2e565b6001600160a01b039092166020928302919091019091015280612e1f81613ed1565b915050612de2565b506000612e3c600f546001600160a01b031690565b6001600160a01b0316634e1273f48360496040518363ffffffff1660e01b8152600401612e6a929190613880565b60006040518083038186803b158015612e8257600080fd5b505afa158015612e96573d6000803e3d6000fd5b505050506040513d6000823e601f3d908101601f19168201604052612ebe9190810190613420565b905060005b8151811015610d9a576000828281518110612ee057612ee0613f2e565b60200260200101511115612efa5750600195945050505050565b80612f0481613ed1565b915050612ec3565b828054828255906000526020600020908101928215612f59579160200282015b82811115612f595782518051612f49918491602090910190612fe9565b5091602001919060010190612f2c565b50612f6592915061305d565b5090565b828054612f7590613e9c565b90600052602060002090601f016020900481019282612f975760008555612fdd565b82601f10612fb05782800160ff19823516178555612fdd565b82800160010185558215612fdd579182015b82811115612fdd578235825591602001919060010190612fc2565b50612f6592915061307a565b828054612ff590613e9c565b90600052602060002090601f0160209004810192826130175760008555612fdd565b82601f1061303057805160ff1916838001178555612fdd565b82800160010185558215612fdd579182015b82811115612fdd578251825591602001919060010190613042565b80821115612f65576000613071828261308f565b5060010161305d565b5b80821115612f65576000815560010161307b565b50805461309b90613e9c565b6000825580601f106130ab575050565b601f0160209004906000526020600020908101906130c9919061307a565b50565b8035610e5c81613f5a565b600082601f8301126130e857600080fd5b813560206130fd6130f883613bb1565b613b80565b80838252828201915082860187848660051b890101111561311d57600080fd5b60005b8581101561314557813561313381613f5a565b84529284019290840190600101613120565b5090979650505050505050565b600082601f83011261316357600080fd5b813560206131736130f883613bb1565b80838252828201915082860187848660051b890101111561319357600080fd5b60005b8581101561314557813584529284019290840190600101613196565b80358015158114610e5c57600080fd5b60008083601f8401126131d457600080fd5b50813567ffffffffffffffff8111156131ec57600080fd5b60208301915083602082850101111561320457600080fd5b9250929050565b6000610180828403121561321e57600080fd5b50919050565b803563ffffffff81168114610e5c57600080fd5b80516001600160501b0381168114610e5c57600080fd5b60006020828403121561326157600080fd5b8135611edc81613f5a565b60008060006060848603121561328157600080fd5b835161328c81613f5a565b602085015190935061329d81613f5a565b80925050604084015190509250925092565b600080604083850312156132c257600080fd5b82356132cd81613f5a565b946020939093013593505050565b6000806000806000608086880312156132f357600080fd5b67ffffffffffffffff808735111561330a57600080fd5b8635870188601f82011261331d57600080fd5b61332a6130f88235613bb1565b8082358252602082019150602083018b6020853560051b860101111561334f57600080fd5b60005b84358110156133ca57858235111561336957600080fd5b813585018d603f82011261337c57600080fd5b602081013561338d6130f882613bd5565b8181528f60408385010111156133a257600080fd5b8160408401602083013760006020928201830152865294850194929092019150600101613352565b50508098505050506133de60208801613224565b94506133ec604088016131b2565b935080606088013511156133ff57600080fd5b5061341087606088013588016131c2565b9598949750929550919392915050565b6000602080838503121561343357600080fd5b825167ffffffffffffffff81111561344a57600080fd5b8301601f8101851361345b57600080fd5b80516134696130f882613bb1565b80828252848201915084840188868560051b870101111561348957600080fd5b600094505b838510156134ac57805183526001949094019391850191850161348e565b50979650505050505050565b6000602082840312156134ca57600080fd5b611edc826131b2565b6000602082840312156134e557600080fd5b815167ffffffffffffffff8111156134fc57600080fd5b8201601f8101841361350d57600080fd5b805161351b6130f882613bd5565b81815285602083850101111561353057600080fd5b613541826020830160208601613e55565b95945050505050565b60006020828403121561355c57600080fd5b8151611edc81613f5a565b600080600080600080600080610100898b03121561358457600080fd5b883567ffffffffffffffff8082111561359c57600080fd5b6135a88c838d0161320b565b99506135b660208c016131b2565b985060408b01359150808211156135cc57600080fd5b6135d88c838d016130d7565b975060608b01359150808211156135ee57600080fd5b6135fa8c838d016130d7565b965061360860808c016131b2565b955060a08b0135945061361d60c08c016130cc565b935060e08b013591508082111561363357600080fd5b506136408b828c01613152565b9150509295985092959890939650565b60006020828403121561366257600080fd5b5035919050565b60006020828403121561367b57600080fd5b5051919050565b60008060006040848603121561369757600080fd5b83359250602084013567ffffffffffffffff8111156136b557600080fd5b6136c1868287016131c2565b9497909650939450505050565b600080600080600060a086880312156136e657600080fd5b6136ef86613238565b945060208601519350604086015192506060860151915061371260808701613238565b90509295509295909350565b60006020828403121561373057600080fd5b815160ff81168114611edc57600080fd5b600081518084526020808501808196508360051b8101915082860160005b85811015613789578284038952613777848351613796565b9885019893509084019060010161375f565b5091979650505050505050565b600081518084526137ae816020860160208601613e55565b601f01601f19169290920160200192915050565b600481106137e057634e487b7160e01b600052602160045260246000fd5b9052565b81835281816020850137506000828201602090810191909152601f909101601f19169091010190565b6001600160a01b0392831681529116602082015260400190565b6001600160a01b038416815260606020820181905260009061384b90830185613796565b9050826040830152949350505050565b6001600160a01b038416815260406020820181905260009061354190830184866137e4565b604080825283519082018190526000906020906060840190828701845b828110156138c25781516001600160a01b03168452928401929084019060010161389d565b505050838103828501528454808252600086815283812092840191905b81811015613145578354835260019384019392850192016138df565b60408152600061390e6040830185613741565b905060018060a01b03831660208301529392505050565b60a08152600061393860a0830189613741565b63ffffffff8816602084015261395160408401886137c2565b82810360608401526139648186886137e4565b91505060018060a01b0383166080830152979650505050505050565b6000602080830181845280855180835260408601915060408160051b870101925083870160005b828110156139d557603f198886030184526139c3858351613796565b945092850192908501906001016139a7565b5092979650505050505050565b602081526000611edc6020830184613796565b60208082526018908201527f5374616c6520707269636520696e20436861696e6c696e6b0000000000000000604082015260600190565b6020808252602b908201527f496e697469616c697a61626c653a20636f6e7472616374206973206e6f74206960408201526a6e697469616c697a696e6760a81b606082015260800190565b60208082526022908201527f4578656375746f72206e6f742077686974656c697374656420696e2062756467604082015261195d60f21b606082015260800190565b85815260a08101613acd60208301876137c2565b63ffffffff949094166040820152911515606083015260809091015292915050565b6000808335601e19843603018112613b0657600080fd5b83018035915067ffffffffffffffff821115613b2157600080fd5b6020019150600581901b360382131561320457600080fd5b6000808335601e19843603018112613b5057600080fd5b83018035915067ffffffffffffffff821115613b6b57600080fd5b60200191503681900382131561320457600080fd5b604051601f8201601f1916810167ffffffffffffffff81118282101715613ba957613ba9613f44565b604052919050565b600067ffffffffffffffff821115613bcb57613bcb613f44565b5060051b60200190565b600067ffffffffffffffff821115613bef57613bef613f44565b50601f01601f191660200190565b60008219821115613c1057613c10613eec565b500190565b600060ff821660ff84168060ff03821115613c3257613c32613eec565b019392505050565b600082613c4957613c49613f02565b600160ff1b821460001984141615613c6357613c63613eec565b500590565b600082613c7757613c77613f02565b500490565b600181815b80851115613cb7578160001904821115613c9d57613c9d613eec565b80851615613caa57918102915b93841c9390800290613c81565b509250929050565b6000611edc8383613cd6565b6000611edc60ff8416835b600082613ce557506001610bf4565b81613cf257506000610bf4565b8160018114613d085760028114613d1257613d2e565b6001915050610bf4565b60ff841115613d2357613d23613eec565b50506001821b610bf4565b5060208310610133831016604e8410600b8410161715613d51575081810a610bf4565b613d5b8383613c7c565b8060001904821115613d6f57613d6f613eec565b029392505050565b60006001600160ff1b0381841382841380821686840486111615613d9d57613d9d613eec565b600160ff1b6000871282811687830589121615613dbc57613dbc613eec565b60008712925087820587128484161615613dd857613dd8613eec565b87850587128184161615613dee57613dee613eec565b505050929093029392505050565b6000816000190483118215151615613e1657613e16613eec565b500290565b600082821015613e2d57613e2d613eec565b500390565b600060ff821660ff841680821015613e4c57613e4c613eec565b90039392505050565b60005b83811015613e70578181015183820152602001613e58565b83811115613e7f576000848401525b50505050565b600081613e9457613e94613eec565b506000190190565b600181811c90821680613eb057607f821691505b6020821081141561321e57634e487b7160e01b600052602260045260246000fd5b6000600019821415613ee557613ee5613eec565b5060010190565b634e487b7160e01b600052601160045260246000fd5b634e487b7160e01b600052601260045260246000fd5b634e487b7160e01b600052602160045260246000fd5b634e487b7160e01b600052603260045260246000fd5b634e487b7160e01b600052604160045260246000fd5b6001600160a01b03811681146130c957600080fdfe5472616e73666572204c69717569642045524332302042756467657420417070726f76616c000000000000000000000000eeeeeeeeeeeeeeeeeeeeeeeeeeeeeeeeeeeeeeeea2646970667358221220407bb9ce4698001b8927ebcc35b4c8a76026d6b94dc35ae24212c0ba69b1869464736f6c63430008070033",
  "devdoc": {
    "kind": "dev",
    "methods": {
      "constructor": {
        "custom:oz-upgrades-unsafe-allow": "constructor"
      }
    },
    "version": 1
  },
  "userdoc": {
    "kind": "user",
    "methods": {
      "assetBaseCurrencyPrice(address,uint256)": {
        "notice": "This function is imported by other contract, thus cannot be external"
      },
      "canResolvePrice(address)": {
        "notice": "This function is imported by other contract, thus cannot be external"
      }
    },
    "version": 1
  },
  "storageLayout": {
    "storage": [
      {
        "astId": 3247,
        "contract": "contracts/TransferLiquidERC20BudgetApproval.sol:TransferLiquidERC20BudgetApproval",
        "label": "_initialized",
        "offset": 0,
        "slot": "0",
        "type": "t_uint8"
      },
      {
        "astId": 3250,
        "contract": "contracts/TransferLiquidERC20BudgetApproval.sol:TransferLiquidERC20BudgetApproval",
        "label": "_initializing",
        "offset": 1,
        "slot": "0",
        "type": "t_bool"
      },
      {
        "astId": 28969,
        "contract": "contracts/TransferLiquidERC20BudgetApproval.sol:TransferLiquidERC20BudgetApproval",
        "label": "_transactionIds",
        "offset": 0,
        "slot": "1",
        "type": "t_struct(Counter)17310_storage"
      },
      {
        "astId": 28974,
        "contract": "contracts/TransferLiquidERC20BudgetApproval.sol:TransferLiquidERC20BudgetApproval",
        "label": "transactions",
        "offset": 0,
        "slot": "2",
        "type": "t_mapping(t_uint256,t_struct(Transaction)28913_storage)"
      },
      {
        "astId": 28976,
        "contract": "contracts/TransferLiquidERC20BudgetApproval.sol:TransferLiquidERC20BudgetApproval",
        "label": "_executor",
        "offset": 0,
        "slot": "3",
        "type": "t_address"
      },
      {
        "astId": 28978,
        "contract": "contracts/TransferLiquidERC20BudgetApproval.sol:TransferLiquidERC20BudgetApproval",
        "label": "_executorTeamId",
        "offset": 0,
        "slot": "4",
        "type": "t_uint256"
      },
      {
        "astId": 28980,
        "contract": "contracts/TransferLiquidERC20BudgetApproval.sol:TransferLiquidERC20BudgetApproval",
        "label": "_executee",
        "offset": 0,
        "slot": "5",
        "type": "t_address"
      },
      {
        "astId": 28984,
        "contract": "contracts/TransferLiquidERC20BudgetApproval.sol:TransferLiquidERC20BudgetApproval",
        "label": "_approversMapping",
        "offset": 0,
        "slot": "6",
        "type": "t_mapping(t_address,t_bool)"
      },
      {
        "astId": 28986,
        "contract": "contracts/TransferLiquidERC20BudgetApproval.sol:TransferLiquidERC20BudgetApproval",
        "label": "_approverTeamId",
        "offset": 0,
        "slot": "7",
        "type": "t_uint256"
      },
      {
        "astId": 28988,
        "contract": "contracts/TransferLiquidERC20BudgetApproval.sol:TransferLiquidERC20BudgetApproval",
        "label": "_minApproval",
        "offset": 0,
        "slot": "8",
        "type": "t_uint256"
      },
      {
        "astId": 28990,
        "contract": "contracts/TransferLiquidERC20BudgetApproval.sol:TransferLiquidERC20BudgetApproval",
        "label": "_text",
        "offset": 0,
        "slot": "9",
        "type": "t_string_storage"
      },
      {
        "astId": 28992,
        "contract": "contracts/TransferLiquidERC20BudgetApproval.sol:TransferLiquidERC20BudgetApproval",
        "label": "_transactionType",
        "offset": 0,
        "slot": "10",
        "type": "t_string_storage"
      },
      {
        "astId": 28994,
        "contract": "contracts/TransferLiquidERC20BudgetApproval.sol:TransferLiquidERC20BudgetApproval",
        "label": "_allowUnlimitedUsageCount",
        "offset": 0,
        "slot": "11",
        "type": "t_bool"
      },
      {
        "astId": 28996,
        "contract": "contracts/TransferLiquidERC20BudgetApproval.sol:TransferLiquidERC20BudgetApproval",
        "label": "_usageCount",
        "offset": 0,
        "slot": "12",
        "type": "t_uint256"
      },
      {
        "astId": 28998,
        "contract": "contracts/TransferLiquidERC20BudgetApproval.sol:TransferLiquidERC20BudgetApproval",
        "label": "_startTime",
        "offset": 0,
        "slot": "13",
        "type": "t_uint256"
      },
      {
        "astId": 29000,
        "contract": "contracts/TransferLiquidERC20BudgetApproval.sol:TransferLiquidERC20BudgetApproval",
        "label": "_endTime",
        "offset": 0,
        "slot": "14",
        "type": "t_uint256"
      },
      {
        "astId": 29002,
        "contract": "contracts/TransferLiquidERC20BudgetApproval.sol:TransferLiquidERC20BudgetApproval",
        "label": "_team",
        "offset": 0,
        "slot": "15",
        "type": "t_address"
      },
      {
        "astId": 29755,
        "contract": "contracts/TransferLiquidERC20BudgetApproval.sol:TransferLiquidERC20BudgetApproval",
        "label": "_baseCurrency",
        "offset": 0,
        "slot": "16",
        "type": "t_address"
      },
      {
        "astId": 30379,
        "contract": "contracts/TransferLiquidERC20BudgetApproval.sol:TransferLiquidERC20BudgetApproval",
        "label": "__gap",
        "offset": 0,
        "slot": "17",
        "type": "t_array(t_uint256)50_storage"
      },
      {
        "astId": 26369,
        "contract": "contracts/TransferLiquidERC20BudgetApproval.sol:TransferLiquidERC20BudgetApproval",
        "label": "allowAllAddresses",
        "offset": 0,
        "slot": "67",
        "type": "t_bool"
      },
      {
        "astId": 26373,
        "contract": "contracts/TransferLiquidERC20BudgetApproval.sol:TransferLiquidERC20BudgetApproval",
        "label": "addressesMapping",
        "offset": 0,
        "slot": "68",
        "type": "t_mapping(t_address,t_bool)"
      },
      {
        "astId": 26376,
        "contract": "contracts/TransferLiquidERC20BudgetApproval.sol:TransferLiquidERC20BudgetApproval",
        "label": "tokens",
        "offset": 0,
        "slot": "69",
        "type": "t_array(t_address)dyn_storage"
      },
      {
        "astId": 26380,
        "contract": "contracts/TransferLiquidERC20BudgetApproval.sol:TransferLiquidERC20BudgetApproval",
        "label": "tokensMapping",
        "offset": 0,
        "slot": "70",
        "type": "t_mapping(t_address,t_bool)"
      },
      {
        "astId": 26382,
        "contract": "contracts/TransferLiquidERC20BudgetApproval.sol:TransferLiquidERC20BudgetApproval",
        "label": "allowAnyAmount",
        "offset": 0,
        "slot": "71",
        "type": "t_bool"
      },
      {
        "astId": 26384,
        "contract": "contracts/TransferLiquidERC20BudgetApproval.sol:TransferLiquidERC20BudgetApproval",
        "label": "totalAmount",
        "offset": 0,
        "slot": "72",
        "type": "t_uint256"
      },
      {
        "astId": 26387,
        "contract": "contracts/TransferLiquidERC20BudgetApproval.sol:TransferLiquidERC20BudgetApproval",
        "label": "toTeamIds",
        "offset": 0,
        "slot": "73",
        "type": "t_array(t_uint256)dyn_storage"
      },
      {
        "astId": 26391,
        "contract": "contracts/TransferLiquidERC20BudgetApproval.sol:TransferLiquidERC20BudgetApproval",
        "label": "toTeamIdsMapping",
        "offset": 0,
        "slot": "74",
        "type": "t_mapping(t_uint256,t_bool)"
      }
    ],
    "types": {
      "t_address": {
        "encoding": "inplace",
        "label": "address",
        "numberOfBytes": "20"
      },
      "t_array(t_address)dyn_storage": {
        "base": "t_address",
        "encoding": "dynamic_array",
        "label": "address[]",
        "numberOfBytes": "32"
      },
      "t_array(t_bytes_storage)dyn_storage": {
        "base": "t_bytes_storage",
        "encoding": "dynamic_array",
        "label": "bytes[]",
        "numberOfBytes": "32"
      },
      "t_array(t_uint256)50_storage": {
        "base": "t_uint256",
        "encoding": "inplace",
        "label": "uint256[50]",
        "numberOfBytes": "1600"
      },
      "t_array(t_uint256)dyn_storage": {
        "base": "t_uint256",
        "encoding": "dynamic_array",
        "label": "uint256[]",
        "numberOfBytes": "32"
      },
      "t_bool": {
        "encoding": "inplace",
        "label": "bool",
        "numberOfBytes": "1"
      },
      "t_bytes_storage": {
        "encoding": "bytes",
        "label": "bytes",
        "numberOfBytes": "32"
      },
      "t_enum(Status)28894": {
        "encoding": "inplace",
        "label": "enum CommonBudgetApproval.Status",
        "numberOfBytes": "1"
      },
      "t_mapping(t_address,t_bool)": {
        "encoding": "mapping",
        "key": "t_address",
        "label": "mapping(address => bool)",
        "numberOfBytes": "32",
        "value": "t_bool"
      },
      "t_mapping(t_uint256,t_bool)": {
        "encoding": "mapping",
        "key": "t_uint256",
        "label": "mapping(uint256 => bool)",
        "numberOfBytes": "32",
        "value": "t_bool"
      },
      "t_mapping(t_uint256,t_struct(Transaction)28913_storage)": {
        "encoding": "mapping",
        "key": "t_uint256",
        "label": "mapping(uint256 => struct CommonBudgetApproval.Transaction)",
        "numberOfBytes": "32",
        "value": "t_struct(Transaction)28913_storage"
      },
      "t_string_storage": {
        "encoding": "bytes",
        "label": "string",
        "numberOfBytes": "32"
      },
      "t_struct(Counter)17310_storage": {
        "encoding": "inplace",
        "label": "struct Counters.Counter",
        "members": [
          {
            "astId": 17309,
            "contract": "contracts/TransferLiquidERC20BudgetApproval.sol:TransferLiquidERC20BudgetApproval",
            "label": "_value",
            "offset": 0,
            "slot": "0",
            "type": "t_uint256"
          }
        ],
        "numberOfBytes": "32"
      },
      "t_struct(Transaction)28913_storage": {
        "encoding": "inplace",
        "label": "struct CommonBudgetApproval.Transaction",
        "members": [
          {
            "astId": 28896,
            "contract": "contracts/TransferLiquidERC20BudgetApproval.sol:TransferLiquidERC20BudgetApproval",
            "label": "id",
            "offset": 0,
            "slot": "0",
            "type": "t_uint256"
          },
          {
            "astId": 28899,
            "contract": "contracts/TransferLiquidERC20BudgetApproval.sol:TransferLiquidERC20BudgetApproval",
            "label": "data",
            "offset": 0,
            "slot": "1",
            "type": "t_array(t_bytes_storage)dyn_storage"
          },
          {
            "astId": 28902,
            "contract": "contracts/TransferLiquidERC20BudgetApproval.sol:TransferLiquidERC20BudgetApproval",
            "label": "status",
            "offset": 0,
            "slot": "2",
            "type": "t_enum(Status)28894"
          },
          {
            "astId": 28904,
            "contract": "contracts/TransferLiquidERC20BudgetApproval.sol:TransferLiquidERC20BudgetApproval",
            "label": "deadline",
            "offset": 1,
            "slot": "2",
            "type": "t_uint32"
          },
          {
            "astId": 28906,
            "contract": "contracts/TransferLiquidERC20BudgetApproval.sol:TransferLiquidERC20BudgetApproval",
            "label": "isExist",
            "offset": 5,
            "slot": "2",
            "type": "t_bool"
          },
          {
            "astId": 28908,
            "contract": "contracts/TransferLiquidERC20BudgetApproval.sol:TransferLiquidERC20BudgetApproval",
            "label": "approvedCount",
            "offset": 0,
            "slot": "3",
            "type": "t_uint256"
          },
          {
            "astId": 28912,
            "contract": "contracts/TransferLiquidERC20BudgetApproval.sol:TransferLiquidERC20BudgetApproval",
            "label": "approved",
            "offset": 0,
            "slot": "4",
            "type": "t_mapping(t_address,t_bool)"
          }
        ],
        "numberOfBytes": "160"
      },
      "t_uint256": {
        "encoding": "inplace",
        "label": "uint256",
        "numberOfBytes": "32"
      },
      "t_uint32": {
        "encoding": "inplace",
        "label": "uint32",
        "numberOfBytes": "4"
      },
      "t_uint8": {
        "encoding": "inplace",
        "label": "uint8",
        "numberOfBytes": "1"
      }
    }
  }
}