{
  "address": "0xFF93f778cCC2b6FFFF26C69f27C727e3726Ea9F2",
  "abi": [
    {
      "inputs": [],
      "stateMutability": "nonpayable",
      "type": "constructor"
    },
    {
      "anonymous": false,
      "inputs": [
        {
          "indexed": false,
          "internalType": "address",
          "name": "budgetApproval",
          "type": "address"
        }
      ],
      "name": "AbandonBudgetApproval",
      "type": "event"
    },
    {
      "anonymous": false,
      "inputs": [
        {
          "indexed": false,
          "internalType": "address",
          "name": "previousAdmin",
          "type": "address"
        },
        {
          "indexed": false,
          "internalType": "address",
          "name": "newAdmin",
          "type": "address"
        }
      ],
      "name": "AdminChanged",
      "type": "event"
    },
    {
      "anonymous": false,
      "inputs": [
        {
          "indexed": true,
          "internalType": "address",
          "name": "beacon",
          "type": "address"
        }
      ],
      "name": "BeaconUpgraded",
      "type": "event"
    },
    {
      "anonymous": false,
      "inputs": [
        {
          "indexed": true,
          "internalType": "address",
          "name": "dao",
          "type": "address"
        },
        {
          "indexed": false,
          "internalType": "string",
          "name": "name",
          "type": "string"
        },
        {
          "indexed": false,
          "internalType": "string",
          "name": "description",
          "type": "string"
        },
        {
          "indexed": false,
          "internalType": "address",
          "name": "creator",
          "type": "address"
        },
        {
          "indexed": false,
          "internalType": "address",
          "name": "referer",
          "type": "address"
        }
      ],
      "name": "CreateDao",
      "type": "event"
    },
    {
      "anonymous": false,
      "inputs": [
        {
          "indexed": true,
          "internalType": "uint256",
          "name": "versionId",
          "type": "uint256"
        },
        {
          "indexed": false,
          "internalType": "address",
          "name": "daoImplementation",
          "type": "address"
        },
        {
          "indexed": false,
          "internalType": "address",
          "name": "membershipImplementation",
          "type": "address"
        },
        {
          "indexed": false,
          "internalType": "address",
          "name": "liquidPoolImplementation",
          "type": "address"
        },
        {
          "indexed": false,
          "internalType": "address",
          "name": "memberTokenImplementation",
          "type": "address"
        },
        {
          "indexed": false,
          "internalType": "address",
          "name": "governImplementation",
          "type": "address"
        },
        {
          "indexed": false,
          "internalType": "address",
          "name": "adamImplementation",
          "type": "address"
        },
        {
          "indexed": false,
          "internalType": "string",
          "name": "description",
          "type": "string"
        }
      ],
      "name": "ImplementationUpgrade",
      "type": "event"
    },
    {
      "anonymous": false,
      "inputs": [
        {
          "indexed": false,
          "internalType": "uint8",
          "name": "version",
          "type": "uint8"
        }
      ],
      "name": "Initialized",
      "type": "event"
    },
    {
      "anonymous": false,
      "inputs": [
        {
          "indexed": true,
          "internalType": "address",
          "name": "previousOwner",
          "type": "address"
        },
        {
          "indexed": true,
          "internalType": "address",
          "name": "newOwner",
          "type": "address"
        }
      ],
      "name": "OwnershipTransferred",
      "type": "event"
    },
    {
      "anonymous": false,
      "inputs": [
        {
          "indexed": true,
          "internalType": "address",
          "name": "implementation",
          "type": "address"
        }
      ],
      "name": "Upgraded",
      "type": "event"
    },
    {
      "anonymous": false,
      "inputs": [
        {
          "indexed": false,
          "internalType": "address",
          "name": "budgetApproval",
          "type": "address"
        }
      ],
      "name": "WhitelistBudgetApproval",
      "type": "event"
    },
    {
      "inputs": [
        {
          "internalType": "address[]",
          "name": "_budgetApprovals",
          "type": "address[]"
        }
      ],
      "name": "abandonBudgetApprovals",
      "outputs": [],
      "stateMutability": "nonpayable",
      "type": "function"
    },
    {
      "inputs": [
        {
          "internalType": "address",
          "name": "",
          "type": "address"
        }
      ],
      "name": "budgetApprovals",
      "outputs": [
        {
          "internalType": "bool",
          "name": "",
          "type": "bool"
        }
      ],
      "stateMutability": "view",
      "type": "function"
    },
    {
      "inputs": [
        {
          "components": [
            {
              "internalType": "string",
              "name": "_name",
              "type": "string"
            },
            {
              "internalType": "string",
              "name": "_description",
              "type": "string"
            },
            {
              "internalType": "address",
              "name": "baseCurrency",
              "type": "address"
            },
            {
              "internalType": "uint256",
              "name": "maxMemberLimit",
              "type": "uint256"
            },
            {
              "internalType": "string",
              "name": "_memberTokenName",
              "type": "string"
            },
            {
              "internalType": "string",
              "name": "_memberTokenSymbol",
              "type": "string"
            },
            {
              "internalType": "address[]",
              "name": "depositTokens",
              "type": "address[]"
            },
            {
              "internalType": "address",
              "name": "_referer",
              "type": "address"
            }
          ],
          "internalType": "struct Adam.CreateDaoParams",
          "name": "params",
          "type": "tuple"
        },
        {
          "internalType": "bytes[]",
          "name": "data",
          "type": "bytes[]"
        }
      ],
      "name": "createDao",
      "outputs": [
        {
          "internalType": "address",
          "name": "",
          "type": "address"
        }
      ],
      "stateMutability": "nonpayable",
      "type": "function"
    },
    {
      "inputs": [],
      "name": "daoImplementation",
      "outputs": [
        {
          "internalType": "address",
          "name": "",
          "type": "address"
        }
      ],
      "stateMutability": "view",
      "type": "function"
    },
    {
      "inputs": [
        {
          "internalType": "address",
          "name": "",
          "type": "address"
        }
      ],
      "name": "daos",
      "outputs": [
        {
          "internalType": "bool",
          "name": "",
          "type": "bool"
        }
      ],
      "stateMutability": "view",
      "type": "function"
    },
    {
      "inputs": [],
      "name": "governFactory",
      "outputs": [
        {
          "internalType": "address",
          "name": "",
          "type": "address"
        }
      ],
      "stateMutability": "view",
      "type": "function"
    },
    {
      "inputs": [
        {
          "internalType": "address",
          "name": "_daoImplementation",
          "type": "address"
        },
        {
          "internalType": "address",
          "name": "_membershipImplementation",
          "type": "address"
        },
        {
          "internalType": "address",
          "name": "_liquidPoolImplementation",
          "type": "address"
        },
        {
          "internalType": "address",
          "name": "_memberTokenImplementation",
          "type": "address"
        },
        {
          "internalType": "address",
          "name": "_governImplementation",
          "type": "address"
        }
      ],
      "name": "hashVersion",
      "outputs": [
        {
          "internalType": "uint256",
          "name": "",
          "type": "uint256"
        }
      ],
      "stateMutability": "pure",
      "type": "function"
    },
    {
      "inputs": [
        {
          "internalType": "address",
          "name": "_daoImplementation",
          "type": "address"
        },
        {
          "internalType": "address",
          "name": "_membershipImplementation",
          "type": "address"
        },
        {
          "internalType": "address",
          "name": "_liquidPoolImplementation",
          "type": "address"
        },
        {
          "internalType": "address",
          "name": "_memberTokenImplementation",
          "type": "address"
        },
        {
          "internalType": "address[]",
          "name": "_budgetApprovalImplementations",
          "type": "address[]"
        },
        {
          "internalType": "address",
          "name": "_governFactory",
          "type": "address"
        },
        {
          "internalType": "address",
          "name": "_team",
          "type": "address"
        }
      ],
      "name": "initialize",
      "outputs": [],
      "stateMutability": "nonpayable",
      "type": "function"
    },
    {
      "inputs": [],
      "name": "liquidPoolImplementation",
      "outputs": [
        {
          "internalType": "address",
          "name": "",
          "type": "address"
        }
      ],
      "stateMutability": "view",
      "type": "function"
    },
    {
      "inputs": [],
      "name": "memberTokenImplementation",
      "outputs": [
        {
          "internalType": "address",
          "name": "",
          "type": "address"
        }
      ],
      "stateMutability": "view",
      "type": "function"
    },
    {
      "inputs": [],
      "name": "membershipImplementation",
      "outputs": [
        {
          "internalType": "address",
          "name": "",
          "type": "address"
        }
      ],
      "stateMutability": "view",
      "type": "function"
    },
    {
      "inputs": [],
      "name": "owner",
      "outputs": [
        {
          "internalType": "address",
          "name": "",
          "type": "address"
        }
      ],
      "stateMutability": "view",
      "type": "function"
    },
    {
      "inputs": [],
      "name": "proxiableUUID",
      "outputs": [
        {
          "internalType": "bytes32",
          "name": "",
          "type": "bytes32"
        }
      ],
      "stateMutability": "view",
      "type": "function"
    },
    {
      "inputs": [],
      "name": "renounceOwnership",
      "outputs": [],
      "stateMutability": "nonpayable",
      "type": "function"
    },
    {
      "inputs": [],
      "name": "team",
      "outputs": [
        {
          "internalType": "address",
          "name": "",
          "type": "address"
        }
      ],
      "stateMutability": "view",
      "type": "function"
    },
    {
      "inputs": [
        {
          "internalType": "address",
          "name": "newOwner",
          "type": "address"
        }
      ],
      "name": "transferOwnership",
      "outputs": [],
      "stateMutability": "nonpayable",
      "type": "function"
    },
    {
      "inputs": [
        {
          "internalType": "address",
          "name": "_daoImplementation",
          "type": "address"
        },
        {
          "internalType": "address",
          "name": "_membershipImplementation",
          "type": "address"
        },
        {
          "internalType": "address",
          "name": "_liquidPoolImplementation",
          "type": "address"
        },
        {
          "internalType": "address",
          "name": "_memberTokenImplementation",
          "type": "address"
        },
        {
          "internalType": "address",
          "name": "_governImplementation",
          "type": "address"
        },
        {
          "internalType": "string",
          "name": "description",
          "type": "string"
        }
      ],
      "name": "upgradeImplementations",
      "outputs": [],
      "stateMutability": "nonpayable",
      "type": "function"
    },
    {
      "inputs": [
        {
          "internalType": "address",
          "name": "newImplementation",
          "type": "address"
        }
      ],
      "name": "upgradeTo",
      "outputs": [],
      "stateMutability": "nonpayable",
      "type": "function"
    },
    {
      "inputs": [
        {
          "internalType": "address",
          "name": "newImplementation",
          "type": "address"
        },
        {
          "internalType": "bytes",
          "name": "data",
          "type": "bytes"
        }
      ],
      "name": "upgradeToAndCall",
      "outputs": [],
      "stateMutability": "payable",
      "type": "function"
    },
    {
      "inputs": [
        {
          "internalType": "address[]",
          "name": "_budgetApprovals",
          "type": "address[]"
        }
      ],
      "name": "whitelistBudgetApprovals",
      "outputs": [],
      "stateMutability": "nonpayable",
      "type": "function"
    }
  ],
  "transactionHash": "0x097744e968a3a4d4c2698893069bf9b50e9b468b5a020c703ebd41276abb9e72",
  "args": [],
  "numDeployments": 1,
  "solcInputHash": "14c3a3e8eab65ac09969bc72c54f1729",
  "bytecode": "0x60a06040523060601b6080523480156200001857600080fd5b506200002362000029565b620000eb565b600054610100900460ff1615620000965760405162461bcd60e51b815260206004820152602760248201527f496e697469616c697a61626c653a20636f6e747261637420697320696e697469604482015266616c697a696e6760c81b606482015260840160405180910390fd5b60005460ff9081161015620000e9576000805460ff191660ff9081179091556040519081527f7f26b83ff96e1f2b6a682f133852f6798a09c465da95921460cefb38474024989060200160405180910390a15b565b60805160601c612c5862000126600039600081816107a0015281816107ec0152818161087e015281816108c101526109460152612c586000f3fe608060405260043610620001375760003560e01c80638940951611620000ad578063b78b13e5116200006c578063b78b13e51462000376578063c25f3cf6146200039b578063c976176614620003cf578063f2fde38b14620003f4578063f615fd1b146200041957600080fd5b80638940951614620002a85780638da5cb5b14620002ca5780639d69932614620002ea578063a240663e146200030c578063b3fb594e146200035157600080fd5b806352d1902d11620000fa57806352d1902d14620002005780635faa788c1462000227578063715018a6146200024957806374bb8da6146200026157806385f2aef2146200028657600080fd5b8063046b6f60146200013c578063084af6ed146200017e578063293e743814620001a05780633659cfe614620001c25780634f1ef28614620001e9575b600080fd5b3480156200014957600080fd5b50620001616200015b36600462001de2565b6200043e565b6040516001600160a01b0390911681526020015b60405180910390f35b3480156200018b57600080fd5b5060cb5462000161906001600160a01b031681565b348015620001ad57600080fd5b5060cc5462000161906001600160a01b031681565b348015620001cf57600080fd5b50620001e7620001e136600462001b05565b62000795565b005b620001e7620001fa36600462001d2c565b62000873565b3480156200020d57600080fd5b506200021862000939565b60405190815260200162000175565b3480156200023457600080fd5b5060ca5462000161906001600160a01b031681565b3480156200025657600080fd5b50620001e7620009ef565b3480156200026e57600080fd5b50620001e76200028036600462001d82565b62000a07565b3480156200029357600080fd5b5060ce5462000161906001600160a01b031681565b348015620002b557600080fd5b5060cd5462000161906001600160a01b031681565b348015620002d757600080fd5b506097546001600160a01b031662000161565b348015620002f757600080fd5b5060c95462000161906001600160a01b031681565b3480156200031957600080fd5b50620003406200032b36600462001b05565b60cf6020526000908152604090205460ff1681565b604051901515815260200162000175565b3480156200035e57600080fd5b50620001e76200037036600462001bc1565b62000b99565b3480156200038357600080fd5b50620001e76200039536600462001d82565b62000e6d565b348015620003a857600080fd5b5062000340620003ba36600462001b05565b60d06020526000908152604090205460ff1681565b348015620003dc57600080fd5b5062000218620003ee36600462001b45565b62001089565b3480156200040157600080fd5b50620001e76200041336600462001b05565b620010de565b3480156200042657600080fd5b50620001e76200043836600462001c68565b6200115a565b60c95460405160009182916001600160a01b03909116906200046090620018fe565b6001600160a01b039091168152604060208201819052600090820152606001604051809103906000f0801580156200049c573d6000803e3d6000fd5b5060ca546040519192506000916001600160a01b0390911690620004c090620018fe565b6001600160a01b039091168152604060208201819052600090820152606001604051809103906000f080158015620004fc573d6000803e3d6000fd5b5060cb546040519192506000916001600160a01b03909116906200052090620018fe565b6001600160a01b039091168152604060208201819052600090820152606001604051809103906000f0801580156200055c573d6000803e3d6000fd5b506001600160a01b03808516600090815260d0602052604090819020805460ff19166001179055885160608a0151915163236b26ef60e21b815293945091851692638dac9bbc92620005b3928892600401620020b5565b600060405180830381600087803b158015620005ce57600080fd5b505af1158015620005e3573d6000803e3d6000fd5b50505060c08701516040808901519051636e2db45360e11b81526001600160a01b038516935063dc5b68a6926200061f9288926004016200207e565b600060405180830381600087803b1580156200063a57600080fd5b505af11580156200064f573d6000803e3d6000fd5b505060408051610180810182523381526001600160a01b038681166020808401919091528682168385015260cd548216606084015260ce54821660808085019190915260cc54831660a0808601919091528d5160c080870191909152928e015160e08601528d8601518416610100860152908d01516101208501528c01516101408401528b0151610160830152915163024335cf60e51b81529187169350634866b9e092506200070491899060040162002231565b600060405180830381600087803b1580156200071f57600080fd5b505af115801562000734573d6000803e3d6000fd5b50508751602089015160e08a01516040516001600160a01b03891695507f74d8a3456b0b1538fd5159770619e6176404788f3329ad72f28a58490560f8b0945062000783939291339162002100565b60405180910390a25090949350505050565b306001600160a01b037f0000000000000000000000000000000000000000000000000000000000000000161415620007ea5760405162461bcd60e51b8152600401620007e1906200214e565b60405180910390fd5b7f00000000000000000000000000000000000000000000000000000000000000006001600160a01b03166200081e620013e4565b6001600160a01b031614620008475760405162461bcd60e51b8152600401620007e1906200219a565b620008528162001401565b6040805160008082526020820190925262000870918391906200140b565b50565b306001600160a01b037f0000000000000000000000000000000000000000000000000000000000000000161415620008bf5760405162461bcd60e51b8152600401620007e1906200214e565b7f00000000000000000000000000000000000000000000000000000000000000006001600160a01b0316620008f3620013e4565b6001600160a01b0316146200091c5760405162461bcd60e51b8152600401620007e1906200219a565b620009278262001401565b62000935828260016200140b565b5050565b6000306001600160a01b037f00000000000000000000000000000000000000000000000000000000000000001614620009db5760405162461bcd60e51b815260206004820152603860248201527f555550535570677261646561626c653a206d757374206e6f742062652063616c60448201527f6c6564207468726f7567682064656c656761746563616c6c00000000000000006064820152608401620007e1565b5060008051602062002bdc83398151915290565b620009f962001593565b62000a056000620015ef565b565b62000a1162001593565b60005b8181101562000b945760cf600084848481811062000a365762000a3662002478565b905060200201602081019062000a4d919062001b05565b6001600160a01b0316815260208101919091526040016000205460ff16151560011462000abd5760405162461bcd60e51b815260206004820152601960248201527f62756467657420617070726f76616c206e6f74206578697374000000000000006044820152606401620007e1565b600060cf600085858581811062000ad85762000ad862002478565b905060200201602081019062000aef919062001b05565b6001600160a01b031681526020810191909152604001600020805460ff19169115159190911790557f9bcb80306e21ea57390223f10dd1c5cefa785eb5985a7adc38e7ca5ff51a2fb383838381811062000b4d5762000b4d62002478565b905060200201602081019062000b64919062001b05565b6040516001600160a01b03909116815260200160405180910390a18062000b8b816200244e565b91505062000a14565b505050565b62000ba362001593565b6001600160a01b03861662000bed5760405162461bcd60e51b815260206004820152600f60248201526e19185bd25b5c1b081a5cc81b9d5b1b608a1b6044820152606401620007e1565b6001600160a01b03851662000c3e5760405162461bcd60e51b81526020600482015260166024820152751b595b58995c9cda1a5c125b5c1b081a5cc81b9d5b1b60521b6044820152606401620007e1565b6001600160a01b03841662000c8f5760405162461bcd60e51b81526020600482015260166024820152751b1a5c5d5a59141bdbdb125b5c1b081a5cc81b9d5b1b60521b6044820152606401620007e1565b6001600160a01b03831662000ce75760405162461bcd60e51b815260206004820152601760248201527f6d656d626572546f6b656e496d706c206973206e756c6c0000000000000000006044820152606401620007e1565b60cd5460408051635ba15b4d60e01b815290516001600160a01b03808616931691635ba15b4d916004808301926020929190829003018186803b15801562000d2e57600080fd5b505afa15801562000d43573d6000803e3d6000fd5b505050506040513d601f19601f8201168201806040525081019062000d69919062001b25565b6001600160a01b03161462000db85760405162461bcd60e51b81526020600482015260146024820152730cedeeccae4dc92dae0d840dcdee840dac2e8c6d60631b6044820152606401620007e1565b60c980546001600160a01b038089166001600160a01b03199283161790925560ca805488841690831617905560cb805487841690831617905560cc805492861692909116919091179055600062000e13878787878762001089565b9050807f82de3e174c12e1c3af1d6057e7b766de3db08d400a3ac2d811086b5e3d713129888888888862000e46620013e4565b8960405162000e5c979695949392919062002023565b60405180910390a250505050505050565b62000e7762001593565b60005b8181101562000b9457600083838381811062000e9a5762000e9a62002478565b905060200201602081019062000eb1919062001b05565b6001600160a01b0316141562000f0a5760405162461bcd60e51b815260206004820152601760248201527f62756467657420617070726f76616c206973206e756c6c0000000000000000006044820152606401620007e1565b60cf600084848481811062000f235762000f2362002478565b905060200201602081019062000f3a919062001b05565b6001600160a01b0316815260208101919091526040016000205460ff161562000fb25760405162461bcd60e51b815260206004820152602360248201527f62756467657420617070726f76616c20616c72656164792077686974656c69736044820152621d195960ea1b6064820152608401620007e1565b600160cf600085858581811062000fcd5762000fcd62002478565b905060200201602081019062000fe4919062001b05565b6001600160a01b031681526020810191909152604001600020805460ff19169115159190911790557f398b08b0a1d9aec4b7246b4b9d1aa8bb17eb661955c1e5eab31bbab77c714b2283838381811062001042576200104262002478565b905060200201602081019062001059919062001b05565b6040516001600160a01b03909116815260200160405180910390a18062001080816200244e565b91505062000e7a565b604080516001600160a01b03968716602080830191909152958716818301529386166060850152918516608084015290931660a0808301919091528351808303909101815260c0909101909252815191012090565b620010e862001593565b6001600160a01b0381166200114f5760405162461bcd60e51b815260206004820152602660248201527f4f776e61626c653a206e6577206f776e657220697320746865207a65726f206160448201526564647265737360d01b6064820152608401620007e1565b6200087081620015ef565b600054610100900460ff16158080156200117b5750600054600160ff909116105b80620011975750303b15801562001197575060005460ff166001145b620011fc5760405162461bcd60e51b815260206004820152602e60248201527f496e697469616c697a61626c653a20636f6e747261637420697320616c72656160448201526d191e481a5b9a5d1a585b1a5e995960921b6064820152608401620007e1565b6000805460ff19166001179055801562001220576000805461ff0019166101001790555b6200122a62001641565b62001236858562000e6d565b6001600160a01b038316620012865760405162461bcd60e51b815260206004820152601560248201527419dbdd995c9b919858dd1bdc9e481a5cc81b9d5b1b605a1b6044820152606401620007e1565b6001600160a01b038216620012cd5760405162461bcd60e51b815260206004820152600c60248201526b1d19585b481a5cc81b9d5b1b60a21b6044820152606401620007e1565b60cd80546001600160a01b038086166001600160a01b0319928316811790935560ce80549186169190921617905560408051635ba15b4d60e01b8152905162001392928c928c928c928c929091635ba15b4d91600480820192602092909190829003018186803b1580156200134157600080fd5b505afa15801562001356573d6000803e3d6000fd5b505050506040513d601f19601f820116820180604052508101906200137c919062001b25565b6040518060200160405280600081525062000b99565b8015620013d9576000805461ff0019169055604051600181527f7f26b83ff96e1f2b6a682f133852f6798a09c465da95921460cefb38474024989060200160405180910390a15b505050505050505050565b60008051602062002bdc833981519152546001600160a01b031690565b6200087062001593565b7f4910fdfa16fed3260ed0e7147f7cc6da11a60208b5b9406d12a635614ffd91435460ff1615620014415762000b948362001675565b826001600160a01b03166352d1902d6040518163ffffffff1660e01b815260040160206040518083038186803b1580156200147b57600080fd5b505afa925050508015620014ae575060408051601f3d908101601f19168201909252620014ab9181019062001dc8565b60015b620015135760405162461bcd60e51b815260206004820152602e60248201527f45524331393637557067726164653a206e657720696d706c656d656e7461746960448201526d6f6e206973206e6f74205555505360901b6064820152608401620007e1565b60008051602062002bdc8339815191528114620015855760405162461bcd60e51b815260206004820152602960248201527f45524331393637557067726164653a20756e737570706f727465642070726f786044820152681a58589b195555525160ba1b6064820152608401620007e1565b5062000b9483838362001714565b6097546001600160a01b0316331462000a055760405162461bcd60e51b815260206004820181905260248201527f4f776e61626c653a2063616c6c6572206973206e6f7420746865206f776e65726044820152606401620007e1565b609780546001600160a01b038381166001600160a01b0319831681179093556040519116919082907f8be0079c531659141344cd1fd0a4f28419497f9722a3daafe3b4186f6b6457e090600090a35050565b600054610100900460ff166200166b5760405162461bcd60e51b8152600401620007e190620021e6565b62000a0562001745565b6001600160a01b0381163b620016e45760405162461bcd60e51b815260206004820152602d60248201527f455243313936373a206e657720696d706c656d656e746174696f6e206973206e60448201526c1bdd08184818dbdb9d1c9858dd609a1b6064820152608401620007e1565b60008051602062002bdc83398151915280546001600160a01b0319166001600160a01b0392909216919091179055565b6200171f836200177a565b6000825111806200172d5750805b1562000b94576200173f8383620017bc565b50505050565b600054610100900460ff166200176f5760405162461bcd60e51b8152600401620007e190620021e6565b62000a0533620015ef565b620017858162001675565b6040516001600160a01b038216907fbc7cd75a20ee27fd9adebab32041f755214dbc6bffa90cc0225b39da2e5c2d3b90600090a250565b60606001600160a01b0383163b620018265760405162461bcd60e51b815260206004820152602660248201527f416464726573733a2064656c65676174652063616c6c20746f206e6f6e2d636f6044820152651b9d1c9858dd60d21b6064820152608401620007e1565b600080846001600160a01b03168460405162001843919062002005565b600060405180830381855af49150503d806000811462001880576040519150601f19603f3d011682016040523d82523d6000602084013e62001885565b606091505b5091509150620018b0828260405180606001604052806027815260200162002bfc60279139620018b9565b95945050505050565b60608315620018ca575081620018f7565b825115620018db5782518084602001fd5b8160405162461bcd60e51b8152600401620007e19190620020eb565b9392505050565b61072180620024bb83390190565b80356200191981620024a4565b919050565b60008083601f8401126200193157600080fd5b50813567ffffffffffffffff8111156200194a57600080fd5b6020830191508360208260051b85010111156200196657600080fd5b9250929050565b600082601f8301126200197f57600080fd5b81356020620019986200199283620023f8565b620023c4565b80838252828201915082860187848660051b8901011115620019b957600080fd5b60005b85811015620019e5578135620019d281620024a4565b84529284019290840190600101620019bc565b5090979650505050505050565b600082601f83011262001a0457600080fd5b8135602062001a176200199283620023f8565b80838252828201915082860187848660051b890101111562001a3857600080fd5b6000805b8681101562001a8057823567ffffffffffffffff81111562001a5c578283fd5b62001a6c8b88838d010162001a8e565b865250938501939185019160010162001a3c565b509198975050505050505050565b600082601f83011262001aa057600080fd5b813567ffffffffffffffff81111562001abd5762001abd6200248e565b62001ad2601f8201601f1916602001620023c4565b81815284602083860101111562001ae857600080fd5b816020850160208301376000918101602001919091529392505050565b60006020828403121562001b1857600080fd5b8135620018f781620024a4565b60006020828403121562001b3857600080fd5b8151620018f781620024a4565b600080600080600060a0868803121562001b5e57600080fd5b853562001b6b81620024a4565b9450602086013562001b7d81620024a4565b9350604086013562001b8f81620024a4565b9250606086013562001ba181620024a4565b9150608086013562001bb381620024a4565b809150509295509295909350565b60008060008060008060c0878903121562001bdb57600080fd5b863562001be881620024a4565b9550602087013562001bfa81620024a4565b9450604087013562001c0c81620024a4565b9350606087013562001c1e81620024a4565b9250608087013562001c3081620024a4565b915060a087013567ffffffffffffffff81111562001c4d57600080fd5b62001c5b89828a0162001a8e565b9150509295509295509295565b60008060008060008060008060e0898b03121562001c8557600080fd5b883562001c9281620024a4565b9750602089013562001ca481620024a4565b9650604089013562001cb681620024a4565b9550606089013562001cc881620024a4565b9450608089013567ffffffffffffffff81111562001ce557600080fd5b62001cf38b828c016200191e565b90955093505060a089013562001d0981620024a4565b915060c089013562001d1b81620024a4565b809150509295985092959890939650565b6000806040838503121562001d4057600080fd5b823562001d4d81620024a4565b9150602083013567ffffffffffffffff81111562001d6a57600080fd5b62001d788582860162001a8e565b9150509250929050565b6000806020838503121562001d9657600080fd5b823567ffffffffffffffff81111562001dae57600080fd5b62001dbc858286016200191e565b90969095509350505050565b60006020828403121562001ddb57600080fd5b5051919050565b6000806040838503121562001df657600080fd5b823567ffffffffffffffff8082111562001e0f57600080fd5b90840190610100828703121562001e2557600080fd5b62001e2f62002397565b82358281111562001e3f57600080fd5b62001e4d8882860162001a8e565b82525060208301358281111562001e6357600080fd5b62001e718882860162001a8e565b60208301525062001e85604084016200190c565b60408201526060830135606082015260808301358281111562001ea757600080fd5b62001eb58882860162001a8e565b60808301525060a08301358281111562001ece57600080fd5b62001edc8882860162001a8e565b60a08301525060c08301358281111562001ef557600080fd5b62001f03888286016200196d565b60c08301525062001f1760e084016200190c565b60e08201529350602085013591508082111562001f3357600080fd5b5062001d7885828601620019f2565b600081518084526020808501945080840160005b8381101562001f7d5781516001600160a01b03168752958201959082019060010162001f56565b509495945050505050565b600082825180855260208086019550808260051b84010181860160005b84811015620019e557601f1986840301895262001fc483835162001fd7565b9884019892509083019060010162001fa5565b6000815180845262001ff18160208601602086016200241f565b601f01601f19169290920160200192915050565b60008251620020198184602087016200241f565b9190910192915050565b6001600160a01b0388811682528781166020830152868116604083015285811660608301528481166080830152831660a082015260e060c08201819052600090620020719083018462001fd7565b9998505050505050505050565b600060018060a01b03808616835260606020840152620020a2606084018662001f42565b9150808416604084015250949350505050565b6001600160a01b0384168152606060208201819052600090620020db9083018562001fd7565b9050826040830152949350505050565b602081526000620018f7602083018462001fd7565b60808152600062002115608083018762001fd7565b828103602084015262002129818762001fd7565b6001600160a01b03958616604085015293909416606090920191909152509392505050565b6020808252602c908201527f46756e6374696f6e206d7573742062652063616c6c6564207468726f7567682060408201526b19195b1959d85d1958d85b1b60a21b606082015260800190565b6020808252602c908201527f46756e6374696f6e206d7573742062652063616c6c6564207468726f7567682060408201526b6163746976652070726f787960a01b606082015260800190565b6020808252602b908201527f496e697469616c697a61626c653a20636f6e7472616374206973206e6f74206960408201526a6e697469616c697a696e6760a81b606082015260800190565b604081526200224c6040820184516001600160a01b03169052565b600060208401516200226960608401826001600160a01b03169052565b5060408401516001600160a01b03811660808401525060608401516001600160a01b03811660a08401525060808401516001600160a01b03811660c08401525060a08401516001600160a01b03811660e08401525060c08401516101806101008181860152620022de6101c086018462001fd7565b925060e0870151603f1961012081888703018189015262002300868462001fd7565b938a0151939550610140925062002321888401856001600160a01b03169052565b808a015193505061016081888703018189015262002340868562001fd7565b9550828a015193508188870301858901526200235d868562001fd7565b9550808a015194505080878603016101a088015250505062002380828262001f42565b9150508281036020840152620018b0818562001f88565b604051610100810167ffffffffffffffff81118282101715620023be57620023be6200248e565b60405290565b604051601f8201601f1916810167ffffffffffffffff81118282101715620023f057620023f06200248e565b604052919050565b600067ffffffffffffffff8211156200241557620024156200248e565b5060051b60200190565b60005b838110156200243c57818101518382015260200162002422565b838111156200173f5750506000910152565b60006000198214156200247157634e487b7160e01b600052601160045260246000fd5b5060010190565b634e487b7160e01b600052603260045260246000fd5b634e487b7160e01b600052604160045260246000fd5b6001600160a01b03811681146200087057600080fdfe6080604052604051610721380380610721833981016040819052610022916102d2565b61002e82826000610035565b5050610431565b61003e8361006b565b60008251118061004b5750805b156100665761006483836100ab60201b6100291760201c565b505b505050565b610074816100d7565b6040516001600160a01b038216907fbc7cd75a20ee27fd9adebab32041f755214dbc6bffa90cc0225b39da2e5c2d3b90600090a250565b60606100d083836040518060600160405280602781526020016106fa602791396101a9565b9392505050565b6100ea8161028760201b6100551760201c565b6101515760405162461bcd60e51b815260206004820152602d60248201527f455243313936373a206e657720696d706c656d656e746174696f6e206973206e60448201526c1bdd08184818dbdb9d1c9858dd609a1b60648201526084015b60405180910390fd5b806101887f360894a13ba1a3210667c828492db98dca3e2076cc3735a920a3ca505d382bbc60001b61029660201b6100641760201c565b80546001600160a01b0319166001600160a01b039290921691909117905550565b60606001600160a01b0384163b6102115760405162461bcd60e51b815260206004820152602660248201527f416464726573733a2064656c65676174652063616c6c20746f206e6f6e2d636f6044820152651b9d1c9858dd60d21b6064820152608401610148565b600080856001600160a01b03168560405161022c91906103a0565b600060405180830381855af49150503d8060008114610267576040519150601f19603f3d011682016040523d82523d6000602084013e61026c565b606091505b50909250905061027d828286610299565b9695505050505050565b6001600160a01b03163b151590565b90565b606083156102a85750816100d0565b8251156102b85782518084602001fd5b8160405162461bcd60e51b815260040161014891906103bc565b600080604083850312156102e557600080fd5b82516001600160a01b03811681146102fc57600080fd5b60208401519092506001600160401b038082111561031957600080fd5b818501915085601f83011261032d57600080fd5b81518181111561033f5761033f61041b565b604051601f8201601f19908116603f011681019083821181831017156103675761036761041b565b8160405282815288602084870101111561038057600080fd5b6103918360208301602088016103ef565b80955050505050509250929050565b600082516103b28184602087016103ef565b9190910192915050565b60208152600082518060208401526103db8160408501602087016103ef565b601f01601f19169190910160400192915050565b60005b8381101561040a5781810151838201526020016103f2565b838111156100645750506000910152565b634e487b7160e01b600052604160045260246000fd5b6102ba806104406000396000f3fe60806040523661001357610011610017565b005b6100115b610027610022610067565b61009f565b565b606061004e838360405180606001604052806027815260200161025e602791396100c3565b9392505050565b6001600160a01b03163b151590565b90565b600061009a7f360894a13ba1a3210667c828492db98dca3e2076cc3735a920a3ca505d382bbc546001600160a01b031690565b905090565b3660008037600080366000845af43d6000803e8080156100be573d6000f35b3d6000fd5b60606001600160a01b0384163b6101305760405162461bcd60e51b815260206004820152602660248201527f416464726573733a2064656c65676174652063616c6c20746f206e6f6e2d636f6044820152651b9d1c9858dd60d21b60648201526084015b60405180910390fd5b600080856001600160a01b03168560405161014b91906101de565b600060405180830381855af49150503d8060008114610186576040519150601f19603f3d011682016040523d82523d6000602084013e61018b565b606091505b509150915061019b8282866101a5565b9695505050505050565b606083156101b457508161004e565b8251156101c45782518084602001fd5b8160405162461bcd60e51b815260040161012791906101fa565b600082516101f081846020870161022d565b9190910192915050565b602081526000825180602084015261021981604085016020870161022d565b601f01601f19169190910160400192915050565b60005b83811015610248578181015183820152602001610230565b83811115610257576000848401525b5050505056fe416464726573733a206c6f772d6c6576656c2064656c65676174652063616c6c206661696c6564a2646970667358221220fb537d1df0a2f3ea0050d30fb82ca020f06a83116d3853b9eda518a67b0c9be764736f6c63430008070033416464726573733a206c6f772d6c6576656c2064656c65676174652063616c6c206661696c6564360894a13ba1a3210667c828492db98dca3e2076cc3735a920a3ca505d382bbc416464726573733a206c6f772d6c6576656c2064656c65676174652063616c6c206661696c6564a2646970667358221220e4751f82ca24b4d08e637877deb38234aef115c8bd1e7506f48c60391e61ba7e64736f6c63430008070033",
  "devdoc": {
    "kind": "dev",
    "methods": {
      "constructor": {
        "custom:oz-upgrades-unsafe-allow": "constructor"
      },
      "owner()": {
        "details": "Returns the address of the current owner."
      },
      "proxiableUUID()": {
        "details": "Implementation of the ERC1822 {proxiableUUID} function. This returns the storage slot used by the implementation. It is used to validate that the this implementation remains valid after an upgrade. IMPORTANT: A proxy pointing at a proxiable contract should not be considered proxiable itself, because this risks bricking a proxy that upgrades to it, by delegating to itself until out of gas. Thus it is critical that this function revert if invoked through a proxy. This is guaranteed by the `notDelegated` modifier."
      },
      "renounceOwnership()": {
        "details": "Leaves the contract without owner. It will not be possible to call `onlyOwner` functions anymore. Can only be called by the current owner. NOTE: Renouncing ownership will leave the contract without an owner, thereby removing any functionality that is only available to the owner."
      },
      "transferOwnership(address)": {
        "details": "Transfers ownership of the contract to a new account (`newOwner`). Can only be called by the current owner."
      },
      "upgradeTo(address)": {
        "details": "Upgrade the implementation of the proxy to `newImplementation`. Calls {_authorizeUpgrade}. Emits an {Upgraded} event."
      },
      "upgradeToAndCall(address,bytes)": {
        "details": "Upgrade the implementation of the proxy to `newImplementation`, and subsequently execute the function call encoded in `data`. Calls {_authorizeUpgrade}. Emits an {Upgraded} event."
      }
    },
    "version": 1
  },
  "userdoc": {
    "kind": "user",
    "methods": {},
    "version": 1
  },
  "storageLayout": {
    "storage": [
      {
        "astId": 3247,
        "contract": "contracts/Adam.sol:Adam",
        "label": "_initialized",
        "offset": 0,
        "slot": "0",
        "type": "t_uint8"
      },
      {
        "astId": 3250,
        "contract": "contracts/Adam.sol:Adam",
        "label": "_initializing",
        "offset": 1,
        "slot": "0",
        "type": "t_bool"
      },
      {
        "astId": 3229,
        "contract": "contracts/Adam.sol:Adam",
        "label": "__gap",
        "offset": 0,
        "slot": "1",
        "type": "t_array(t_uint256)50_storage"
      },
      {
        "astId": 3526,
        "contract": "contracts/Adam.sol:Adam",
        "label": "__gap",
        "offset": 0,
        "slot": "51",
        "type": "t_array(t_uint256)50_storage"
      },
      {
        "astId": 8642,
        "contract": "contracts/Adam.sol:Adam",
        "label": "__gap",
        "offset": 0,
        "slot": "101",
        "type": "t_array(t_uint256)50_storage"
      },
      {
        "astId": 541,
        "contract": "contracts/Adam.sol:Adam",
        "label": "_owner",
        "offset": 0,
        "slot": "151",
        "type": "t_address"
      },
      {
        "astId": 661,
        "contract": "contracts/Adam.sol:Adam",
        "label": "__gap",
        "offset": 0,
        "slot": "152",
        "type": "t_array(t_uint256)49_storage"
      },
      {
        "astId": 20755,
        "contract": "contracts/Adam.sol:Adam",
        "label": "daoImplementation",
        "offset": 0,
        "slot": "201",
        "type": "t_address"
      },
      {
        "astId": 20757,
        "contract": "contracts/Adam.sol:Adam",
        "label": "membershipImplementation",
        "offset": 0,
        "slot": "202",
        "type": "t_address"
      },
      {
        "astId": 20759,
        "contract": "contracts/Adam.sol:Adam",
        "label": "liquidPoolImplementation",
        "offset": 0,
        "slot": "203",
        "type": "t_address"
      },
      {
        "astId": 20761,
        "contract": "contracts/Adam.sol:Adam",
        "label": "memberTokenImplementation",
        "offset": 0,
        "slot": "204",
        "type": "t_address"
      },
      {
        "astId": 20763,
        "contract": "contracts/Adam.sol:Adam",
        "label": "governFactory",
        "offset": 0,
        "slot": "205",
        "type": "t_address"
      },
      {
        "astId": 20765,
        "contract": "contracts/Adam.sol:Adam",
        "label": "team",
        "offset": 0,
        "slot": "206",
        "type": "t_address"
      },
      {
        "astId": 20769,
        "contract": "contracts/Adam.sol:Adam",
        "label": "budgetApprovals",
        "offset": 0,
        "slot": "207",
        "type": "t_mapping(t_address,t_bool)"
      },
      {
        "astId": 20773,
        "contract": "contracts/Adam.sol:Adam",
        "label": "daos",
        "offset": 0,
        "slot": "208",
        "type": "t_mapping(t_address,t_bool)"
      },
      {
        "astId": 21302,
        "contract": "contracts/Adam.sol:Adam",
        "label": "__gap",
        "offset": 0,
        "slot": "209",
        "type": "t_array(t_uint256)50_storage"
      }
    ],
    "types": {
      "t_address": {
        "encoding": "inplace",
        "label": "address",
        "numberOfBytes": "20"
      },
      "t_array(t_uint256)49_storage": {
        "base": "t_uint256",
        "encoding": "inplace",
        "label": "uint256[49]",
        "numberOfBytes": "1568"
      },
      "t_array(t_uint256)50_storage": {
        "base": "t_uint256",
        "encoding": "inplace",
        "label": "uint256[50]",
        "numberOfBytes": "1600"
      },
      "t_bool": {
        "encoding": "inplace",
        "label": "bool",
        "numberOfBytes": "1"
      },
      "t_mapping(t_address,t_bool)": {
        "encoding": "mapping",
        "key": "t_address",
        "label": "mapping(address => bool)",
        "numberOfBytes": "32",
        "value": "t_bool"
      },
      "t_uint256": {
        "encoding": "inplace",
        "label": "uint256",
        "numberOfBytes": "32"
      },
      "t_uint8": {
        "encoding": "inplace",
        "label": "uint8",
        "numberOfBytes": "1"
      }
    }
  }
}