{
  "address": "0x74E0E45b9E238AF0ea74276C8F0c07B842aEc8C9",
  "abi": [
    {
      "inputs": [],
      "stateMutability": "nonpayable",
      "type": "constructor"
    },
    {
      "anonymous": false,
      "inputs": [
        {
          "indexed": false,
          "internalType": "address",
          "name": "token",
          "type": "address"
        },
        {
          "indexed": false,
          "internalType": "uint256",
          "name": "minTokenToAdmit",
          "type": "uint256"
        },
        {
          "indexed": false,
          "internalType": "uint256",
          "name": "tokenId",
          "type": "uint256"
        },
        {
          "indexed": false,
          "internalType": "bool",
          "name": "isMemberToken",
          "type": "bool"
        }
      ],
      "name": "AddAdmissionToken",
      "type": "event"
    },
    {
      "anonymous": false,
      "inputs": [
        {
          "indexed": false,
          "internalType": "address",
          "name": "previousAdmin",
          "type": "address"
        },
        {
          "indexed": false,
          "internalType": "address",
          "name": "newAdmin",
          "type": "address"
        }
      ],
      "name": "AdminChanged",
      "type": "event"
    },
    {
      "anonymous": false,
      "inputs": [
        {
          "indexed": false,
          "internalType": "address",
          "name": "token",
          "type": "address"
        }
      ],
      "name": "AllowDepositToken",
      "type": "event"
    },
    {
      "anonymous": false,
      "inputs": [
        {
          "indexed": true,
          "internalType": "address",
          "name": "beacon",
          "type": "address"
        }
      ],
      "name": "BeaconUpgraded",
      "type": "event"
    },
    {
      "anonymous": false,
      "inputs": [
        {
          "indexed": false,
          "internalType": "address",
          "name": "budgetApproval",
          "type": "address"
        },
        {
          "indexed": false,
          "internalType": "bytes",
          "name": "data",
          "type": "bytes"
        }
      ],
      "name": "CreateBudgetApproval",
      "type": "event"
    },
    {
      "anonymous": false,
      "inputs": [
        {
          "indexed": false,
          "internalType": "address",
          "name": "account",
          "type": "address"
        },
        {
          "indexed": false,
          "internalType": "uint256",
          "name": "depositAmount",
          "type": "uint256"
        }
      ],
      "name": "CreateMember",
      "type": "event"
    },
    {
      "anonymous": false,
      "inputs": [
        {
          "indexed": false,
          "internalType": "address",
          "name": "creator",
          "type": "address"
        },
        {
          "indexed": false,
          "internalType": "address",
          "name": "token",
          "type": "address"
        }
      ],
      "name": "CreateMemberToken",
      "type": "event"
    },
    {
      "anonymous": false,
      "inputs": [
        {
          "indexed": false,
          "internalType": "address",
          "name": "account",
          "type": "address"
        },
        {
          "indexed": false,
          "internalType": "uint256",
          "name": "amount",
          "type": "uint256"
        }
      ],
      "name": "Deposit",
      "type": "event"
    },
    {
      "anonymous": false,
      "inputs": [
        {
          "indexed": false,
          "internalType": "address",
          "name": "budgetApproval",
          "type": "address"
        },
        {
          "indexed": false,
          "internalType": "bytes",
          "name": "data",
          "type": "bytes"
        }
      ],
      "name": "ExecuteByBudgetApproval",
      "type": "event"
    },
    {
      "anonymous": false,
      "inputs": [
        {
          "indexed": false,
          "internalType": "uint8",
          "name": "version",
          "type": "uint8"
        }
      ],
      "name": "Initialized",
      "type": "event"
    },
    {
      "anonymous": false,
      "inputs": [
        {
          "indexed": false,
          "internalType": "address",
          "name": "member",
          "type": "address"
        }
      ],
      "name": "MemberQuit",
      "type": "event"
    },
    {
      "anonymous": false,
      "inputs": [
        {
          "indexed": false,
          "internalType": "address",
          "name": "token",
          "type": "address"
        }
      ],
      "name": "RemoveAdmissionToken",
      "type": "event"
    },
    {
      "anonymous": false,
      "inputs": [
        {
          "indexed": false,
          "internalType": "address",
          "name": "budgetApproval",
          "type": "address"
        }
      ],
      "name": "RevokeBudgetApproval",
      "type": "event"
    },
    {
      "anonymous": false,
      "inputs": [
        {
          "indexed": false,
          "internalType": "address",
          "name": "owner",
          "type": "address"
        },
        {
          "indexed": false,
          "internalType": "uint256",
          "name": "time",
          "type": "uint256"
        }
      ],
      "name": "SetFirstDepositTime",
      "type": "event"
    },
    {
      "anonymous": false,
      "inputs": [
        {
          "indexed": false,
          "internalType": "uint256",
          "name": "locktime",
          "type": "uint256"
        }
      ],
      "name": "UpdateLocktime",
      "type": "event"
    },
    {
      "anonymous": false,
      "inputs": [
        {
          "indexed": false,
          "internalType": "string",
          "name": "logoCID",
          "type": "string"
        }
      ],
      "name": "UpdateLogoCID",
      "type": "event"
    },
    {
      "anonymous": false,
      "inputs": [
        {
          "indexed": false,
          "internalType": "uint256",
          "name": "amount",
          "type": "uint256"
        }
      ],
      "name": "UpdateMinDepositAmount",
      "type": "event"
    },
    {
      "anonymous": false,
      "inputs": [
        {
          "indexed": false,
          "internalType": "string",
          "name": "remark",
          "type": "string"
        }
      ],
      "name": "UpgradeDao",
      "type": "event"
    },
    {
      "anonymous": false,
      "inputs": [
        {
          "indexed": true,
          "internalType": "address",
          "name": "implementation",
          "type": "address"
        }
      ],
      "name": "Upgraded",
      "type": "event"
    },
    {
      "anonymous": false,
      "inputs": [
        {
          "indexed": false,
          "internalType": "uint256",
          "name": "tokenId",
          "type": "uint256"
        }
      ],
      "name": "WhitelistTeam",
      "type": "event"
    },
    {
      "inputs": [],
      "name": "adam",
      "outputs": [
        {
          "internalType": "address",
          "name": "",
          "type": "address"
        }
      ],
      "stateMutability": "view",
      "type": "function"
    },
    {
      "inputs": [
        {
          "internalType": "address",
          "name": "token",
          "type": "address"
        },
        {
          "internalType": "uint256",
          "name": "minTokenToAdmit",
          "type": "uint256"
        },
        {
          "internalType": "uint256",
          "name": "tokenId",
          "type": "uint256"
        }
      ],
      "name": "addAdmissionToken",
      "outputs": [],
      "stateMutability": "nonpayable",
      "type": "function"
    },
    {
      "inputs": [
        {
          "internalType": "address[]",
          "name": "erc20s",
          "type": "address[]"
        }
      ],
      "name": "addAssets",
      "outputs": [],
      "stateMutability": "nonpayable",
      "type": "function"
    },
    {
      "inputs": [
        {
          "internalType": "address",
          "name": "",
          "type": "address"
        }
      ],
      "name": "admissionTokenSetting",
      "outputs": [
        {
          "internalType": "uint256",
          "name": "minTokenToAdmit",
          "type": "uint256"
        },
        {
          "internalType": "uint256",
          "name": "tokenId",
          "type": "uint256"
        },
        {
          "internalType": "bool",
          "name": "active",
          "type": "bool"
        }
      ],
      "stateMutability": "view",
      "type": "function"
    },
    {
      "inputs": [
        {
          "internalType": "uint256",
          "name": "",
          "type": "uint256"
        }
      ],
      "name": "admissionTokens",
      "outputs": [
        {
          "internalType": "address",
          "name": "",
          "type": "address"
        }
      ],
      "stateMutability": "view",
      "type": "function"
    },
    {
      "inputs": [],
      "name": "admissionTokensLength",
      "outputs": [
        {
          "internalType": "uint256",
          "name": "",
          "type": "uint256"
        }
      ],
      "stateMutability": "view",
      "type": "function"
    },
    {
      "inputs": [
        {
          "internalType": "address",
          "name": "account",
          "type": "address"
        },
        {
          "internalType": "uint256",
          "name": "amount",
          "type": "uint256"
        }
      ],
      "name": "afterDeposit",
      "outputs": [],
      "stateMutability": "nonpayable",
      "type": "function"
    },
    {
      "inputs": [],
      "name": "baseCurrency",
      "outputs": [
        {
          "internalType": "address",
          "name": "",
          "type": "address"
        }
      ],
      "stateMutability": "view",
      "type": "function"
    },
    {
      "inputs": [
        {
          "internalType": "address",
          "name": "template",
          "type": "address"
        }
      ],
      "name": "budgetApprovals",
      "outputs": [
        {
          "internalType": "bool",
          "name": "",
          "type": "bool"
        }
      ],
      "stateMutability": "view",
      "type": "function"
    },
    {
      "inputs": [
        {
          "internalType": "address",
          "name": "account",
          "type": "address"
        }
      ],
      "name": "byPassGovern",
      "outputs": [
        {
          "internalType": "bool",
          "name": "",
          "type": "bool"
        }
      ],
      "stateMutability": "view",
      "type": "function"
    },
    {
      "inputs": [
        {
          "internalType": "address",
          "name": "budgetApproval",
          "type": "address"
        }
      ],
      "name": "canCreateBudgetApproval",
      "outputs": [
        {
          "internalType": "bool",
          "name": "",
          "type": "bool"
        }
      ],
      "stateMutability": "view",
      "type": "function"
    },
    {
      "inputs": [
        {
          "internalType": "address[]",
          "name": "__budgetApprovals",
          "type": "address[]"
        },
        {
          "internalType": "bytes[]",
          "name": "data",
          "type": "bytes[]"
        }
      ],
      "name": "createBudgetApprovals",
      "outputs": [],
      "stateMutability": "nonpayable",
      "type": "function"
    },
    {
      "inputs": [
        {
          "internalType": "string",
          "name": "_name",
          "type": "string"
        },
        {
          "internalType": "uint256",
          "name": "duration",
          "type": "uint256"
        },
        {
          "internalType": "uint256",
          "name": "quorum",
          "type": "uint256"
        },
        {
          "internalType": "uint256",
          "name": "passThreshold",
          "type": "uint256"
        },
        {
          "internalType": "enum Dao.VoteType",
          "name": "voteType",
          "type": "uint8"
        },
        {
          "internalType": "address",
          "name": "externalVoteToken",
          "type": "address"
        },
        {
          "internalType": "uint256",
          "name": "durationInBlock",
          "type": "uint256"
        }
      ],
      "name": "createGovern",
      "outputs": [],
      "stateMutability": "nonpayable",
      "type": "function"
    },
    {
      "inputs": [
        {
          "internalType": "string",
          "name": "title",
          "type": "string"
        },
        {
          "internalType": "address",
          "name": "minter",
          "type": "address"
        },
        {
          "internalType": "address[]",
          "name": "members",
          "type": "address[]"
        },
        {
          "internalType": "string",
          "name": "description",
          "type": "string"
        }
      ],
      "name": "createTeam",
      "outputs": [],
      "stateMutability": "nonpayable",
      "type": "function"
    },
    {
      "inputs": [],
      "name": "creator",
      "outputs": [
        {
          "internalType": "address",
          "name": "",
          "type": "address"
        }
      ],
      "stateMutability": "view",
      "type": "function"
    },
    {
      "inputs": [
        {
          "internalType": "address",
          "name": "_to",
          "type": "address"
        },
        {
          "internalType": "bytes",
          "name": "_data",
          "type": "bytes"
        },
        {
          "internalType": "uint256",
          "name": "_value",
          "type": "uint256"
        }
      ],
      "name": "executeByBudgetApproval",
      "outputs": [
        {
          "internalType": "bytes",
          "name": "",
          "type": "bytes"
        }
      ],
      "stateMutability": "nonpayable",
      "type": "function"
    },
    {
      "inputs": [
        {
          "internalType": "address",
          "name": "",
          "type": "address"
        }
      ],
      "name": "firstDepositTime",
      "outputs": [
        {
          "internalType": "uint256",
          "name": "",
          "type": "uint256"
        }
      ],
      "stateMutability": "view",
      "type": "function"
    },
    {
      "inputs": [
        {
          "internalType": "string",
          "name": "gName",
          "type": "string"
        }
      ],
      "name": "govern",
      "outputs": [
        {
          "internalType": "address",
          "name": "",
          "type": "address"
        }
      ],
      "stateMutability": "view",
      "type": "function"
    },
    {
      "inputs": [],
      "name": "governFactory",
      "outputs": [
        {
          "internalType": "address",
          "name": "",
          "type": "address"
        }
      ],
      "stateMutability": "view",
      "type": "function"
    },
    {
      "inputs": [
        {
          "components": [
            {
              "internalType": "address",
              "name": "_creator",
              "type": "address"
            },
            {
              "internalType": "address",
              "name": "_membership",
              "type": "address"
            },
            {
              "internalType": "address",
              "name": "_liquidPool",
              "type": "address"
            },
            {
              "internalType": "address",
              "name": "_governFactory",
              "type": "address"
            },
            {
              "internalType": "address",
              "name": "_team",
              "type": "address"
            },
            {
              "internalType": "address",
              "name": "_memberTokenImplementation",
              "type": "address"
            },
            {
              "internalType": "string",
              "name": "_name",
              "type": "string"
            },
            {
              "internalType": "string",
              "name": "_description",
              "type": "string"
            },
            {
              "internalType": "address",
              "name": "baseCurrency",
              "type": "address"
            },
            {
              "internalType": "string",
              "name": "_memberTokenName",
              "type": "string"
            },
            {
              "internalType": "string",
              "name": "_memberTokenSymbol",
              "type": "string"
            },
            {
              "internalType": "address[]",
              "name": "depositTokens",
              "type": "address[]"
            }
          ],
          "internalType": "struct Dao.InitializeParams",
          "name": "params",
          "type": "tuple"
        },
        {
          "internalType": "bytes[]",
          "name": "data",
          "type": "bytes[]"
        }
      ],
      "name": "initialize",
      "outputs": [],
      "stateMutability": "nonpayable",
      "type": "function"
    },
    {
      "inputs": [
        {
          "internalType": "address",
          "name": "",
          "type": "address"
        }
      ],
      "name": "isAssetSupported",
      "outputs": [
        {
          "internalType": "bool",
          "name": "",
          "type": "bool"
        }
      ],
      "stateMutability": "view",
      "type": "function"
    },
    {
      "inputs": [
        {
          "internalType": "address",
          "name": "account",
          "type": "address"
        }
      ],
      "name": "isMember",
      "outputs": [
        {
          "internalType": "bool",
          "name": "",
          "type": "bool"
        }
      ],
      "stateMutability": "view",
      "type": "function"
    },
    {
      "inputs": [
        {
          "internalType": "address",
          "name": "account",
          "type": "address"
        }
      ],
      "name": "isPassAdmissionToken",
      "outputs": [
        {
          "internalType": "bool",
          "name": "",
          "type": "bool"
        }
      ],
      "stateMutability": "view",
      "type": "function"
    },
    {
      "inputs": [],
      "name": "liquidPool",
      "outputs": [
        {
          "internalType": "address",
          "name": "",
          "type": "address"
        }
      ],
      "stateMutability": "view",
      "type": "function"
    },
    {
      "inputs": [],
      "name": "locktime",
      "outputs": [
        {
          "internalType": "uint256",
          "name": "",
          "type": "uint256"
        }
      ],
      "stateMutability": "view",
      "type": "function"
    },
    {
      "inputs": [],
      "name": "logoCID",
      "outputs": [
        {
          "internalType": "string",
          "name": "",
          "type": "string"
        }
      ],
      "stateMutability": "view",
      "type": "function"
    },
    {
      "inputs": [],
      "name": "memberToken",
      "outputs": [
        {
          "internalType": "address",
          "name": "",
          "type": "address"
        }
      ],
      "stateMutability": "view",
      "type": "function"
    },
    {
      "inputs": [],
      "name": "membership",
      "outputs": [
        {
          "internalType": "address",
          "name": "",
          "type": "address"
        }
      ],
      "stateMutability": "view",
      "type": "function"
    },
    {
      "inputs": [],
      "name": "minDepositAmount",
      "outputs": [
        {
          "internalType": "uint256",
          "name": "",
          "type": "uint256"
        }
      ],
      "stateMutability": "view",
      "type": "function"
    },
    {
      "inputs": [
        {
          "internalType": "uint256",
          "name": "amount",
          "type": "uint256"
        }
      ],
      "name": "mintMemberToken",
      "outputs": [],
      "stateMutability": "nonpayable",
      "type": "function"
    },
    {
      "inputs": [
        {
          "internalType": "address[]",
          "name": "targets",
          "type": "address[]"
        },
        {
          "internalType": "uint256[]",
          "name": "values",
          "type": "uint256[]"
        },
        {
          "internalType": "bytes[]",
          "name": "data",
          "type": "bytes[]"
        }
      ],
      "name": "multicall",
      "outputs": [
        {
          "internalType": "bytes[]",
          "name": "",
          "type": "bytes[]"
        }
      ],
      "stateMutability": "nonpayable",
      "type": "function"
    },
    {
      "inputs": [],
      "name": "name",
      "outputs": [
        {
          "internalType": "string",
          "name": "",
          "type": "string"
        }
      ],
      "stateMutability": "view",
      "type": "function"
    },
    {
      "inputs": [
        {
          "internalType": "address",
          "name": "",
          "type": "address"
        },
        {
          "internalType": "address",
          "name": "",
          "type": "address"
        },
        {
          "internalType": "uint256[]",
          "name": "",
          "type": "uint256[]"
        },
        {
          "internalType": "uint256[]",
          "name": "",
          "type": "uint256[]"
        },
        {
          "internalType": "bytes",
          "name": "",
          "type": "bytes"
        }
      ],
      "name": "onERC1155BatchReceived",
      "outputs": [
        {
          "internalType": "bytes4",
          "name": "",
          "type": "bytes4"
        }
      ],
      "stateMutability": "nonpayable",
      "type": "function"
    },
    {
      "inputs": [
        {
          "internalType": "address",
          "name": "",
          "type": "address"
        },
        {
          "internalType": "address",
          "name": "",
          "type": "address"
        },
        {
          "internalType": "uint256",
          "name": "",
          "type": "uint256"
        },
        {
          "internalType": "uint256",
          "name": "",
          "type": "uint256"
        },
        {
          "internalType": "bytes",
          "name": "",
          "type": "bytes"
        }
      ],
      "name": "onERC1155Received",
      "outputs": [
        {
          "internalType": "bytes4",
          "name": "",
          "type": "bytes4"
        }
      ],
      "stateMutability": "nonpayable",
      "type": "function"
    },
    {
      "inputs": [
        {
          "internalType": "address",
          "name": "",
          "type": "address"
        },
        {
          "internalType": "address",
          "name": "",
          "type": "address"
        },
        {
          "internalType": "uint256",
          "name": "",
          "type": "uint256"
        },
        {
          "internalType": "bytes",
          "name": "",
          "type": "bytes"
        }
      ],
      "name": "onERC721Received",
      "outputs": [
        {
          "internalType": "bytes4",
          "name": "",
          "type": "bytes4"
        }
      ],
      "stateMutability": "nonpayable",
      "type": "function"
    },
    {
      "inputs": [],
      "name": "proxiableUUID",
      "outputs": [
        {
          "internalType": "bytes32",
          "name": "",
          "type": "bytes32"
        }
      ],
      "stateMutability": "view",
      "type": "function"
    },
    {
      "inputs": [
        {
          "internalType": "uint256",
          "name": "membershipTokenId",
          "type": "uint256"
        }
      ],
      "name": "quit",
      "outputs": [],
      "stateMutability": "nonpayable",
      "type": "function"
    },
    {
      "inputs": [
        {
          "internalType": "uint256",
          "name": "index",
          "type": "uint256"
        }
      ],
      "name": "removeAdmissionToken",
      "outputs": [],
      "stateMutability": "nonpayable",
      "type": "function"
    },
    {
      "inputs": [
        {
          "internalType": "address[]",
          "name": "__budgetApprovals",
          "type": "address[]"
        }
      ],
      "name": "revokeBudgetApprovals",
      "outputs": [],
      "stateMutability": "nonpayable",
      "type": "function"
    },
    {
      "inputs": [
        {
          "internalType": "address",
          "name": "owner",
          "type": "address"
        }
      ],
      "name": "setFirstDepositTime",
      "outputs": [],
      "stateMutability": "nonpayable",
      "type": "function"
    },
    {
      "inputs": [
        {
          "internalType": "uint256",
          "name": "_locktime",
          "type": "uint256"
        }
      ],
      "name": "setLocktime",
      "outputs": [],
      "stateMutability": "nonpayable",
      "type": "function"
    },
    {
      "inputs": [
        {
          "internalType": "string",
          "name": "_logoCID",
          "type": "string"
        }
      ],
      "name": "setLogoCID",
      "outputs": [],
      "stateMutability": "nonpayable",
      "type": "function"
    },
    {
      "inputs": [
        {
          "internalType": "uint256",
          "name": "minTokenToAdmit",
          "type": "uint256"
        }
      ],
      "name": "setMemberTokenAsAdmissionToken",
      "outputs": [],
      "stateMutability": "nonpayable",
      "type": "function"
    },
    {
      "inputs": [
        {
          "internalType": "uint256",
          "name": "_minDepositAmount",
          "type": "uint256"
        }
      ],
      "name": "setMinDepositAmount",
      "outputs": [],
      "stateMutability": "nonpayable",
      "type": "function"
    },
    {
      "inputs": [
        {
          "internalType": "bytes4",
          "name": "interfaceId",
          "type": "bytes4"
        }
      ],
      "name": "supportsInterface",
      "outputs": [
        {
          "internalType": "bool",
          "name": "",
          "type": "bool"
        }
      ],
      "stateMutability": "view",
      "type": "function"
    },
    {
      "inputs": [],
      "name": "team",
      "outputs": [
        {
          "internalType": "address",
          "name": "",
          "type": "address"
        }
      ],
      "stateMutability": "view",
      "type": "function"
    },
    {
      "inputs": [
        {
          "internalType": "uint256",
          "name": "",
          "type": "uint256"
        }
      ],
      "name": "teamWhitelist",
      "outputs": [
        {
          "internalType": "bool",
          "name": "",
          "type": "bool"
        }
      ],
      "stateMutability": "view",
      "type": "function"
    },
    {
      "inputs": [
        {
          "internalType": "address",
          "name": "to",
          "type": "address"
        },
        {
          "internalType": "uint256",
          "name": "amount",
          "type": "uint256"
        }
      ],
      "name": "transferMemberToken",
      "outputs": [],
      "stateMutability": "nonpayable",
      "type": "function"
    },
    {
      "inputs": [
        {
          "internalType": "address[]",
          "name": "targets",
          "type": "address[]"
        },
        {
          "internalType": "address[]",
          "name": "newImplementations",
          "type": "address[]"
        },
        {
          "internalType": "string",
          "name": "remark",
          "type": "string"
        }
      ],
      "name": "upgradeImplementations",
      "outputs": [],
      "stateMutability": "nonpayable",
      "type": "function"
    },
    {
      "inputs": [
        {
          "internalType": "address",
          "name": "newImplementation",
          "type": "address"
        }
      ],
      "name": "upgradeTo",
      "outputs": [],
      "stateMutability": "nonpayable",
      "type": "function"
    },
    {
      "inputs": [
        {
          "internalType": "address",
          "name": "newImplementation",
          "type": "address"
        },
        {
          "internalType": "bytes",
          "name": "data",
          "type": "bytes"
        }
      ],
      "name": "upgradeToAndCall",
      "outputs": [],
      "stateMutability": "payable",
      "type": "function"
    },
    {
      "stateMutability": "payable",
      "type": "receive"
    }
  ],
  "transactionHash": "0x3eabde76f43e782a3fb3635078d25217cc9169c0c972b6861b94e818279a49bc",
  "args": [],
  "numDeployments": 1,
  "solcInputHash": "2de7815f263a0e1ea51b3379d9d7da2c",
  "bytecode": "0x60a06040523060601b6080523480156200001857600080fd5b506200002362000033565b6200002d62000033565b620000f5565b600054610100900460ff1615620000a05760405162461bcd60e51b815260206004820152602760248201527f496e697469616c697a61626c653a20636f6e747261637420697320696e697469604482015266616c697a696e6760c81b606482015260840160405180910390fd5b60005460ff9081161015620000f3576000805460ff191660ff9081179091556040519081527f7f26b83ff96e1f2b6a682f133852f6798a09c465da95921460cefb38474024989060200160405180910390a15b565b60805160601c615a5262000130600039600081816112a2015281816112e5015281816120290152818161206c01526121080152615a526000f3fe608060405260043610620003265760003560e01c806385f2aef211620001b1578063bc197c8111620000ee578063df79812e11620000a1578063ed0b66bc1162000078578063ed0b66bc1462000afa578063f1fc061f1462000b1f578063f23a6e611462000b44578063fbf6cf5d1462000b7457600080fd5b8063df79812e1462000a4e578063e3c1fe981462000a73578063eb6d00a61462000a9857600080fd5b8063bc197c811462000965578063bcfb1a401462000995578063c311769514620009ba578063c69e6c4014620009df578063d00e8ed01462000a04578063d3abc28b1462000a2957600080fd5b8063a177db131162000164578063a2bf68b9116200013b578063a2bf68b914620008e0578063aea321c61462000903578063b34bacdd1462000928578063b6dbbc56146200094057600080fd5b8063a177db131462000858578063a230c524146200087d578063a240663e14620008a257600080fd5b806385f2aef214620007845780638940951614620007a55780638b805e9614620007c85780638e3d5d5614620007ed57806392a85fde14620008105780639b1c505e146200083357600080fd5b8063406cfb75116200028057806352d1902d116200023357806361c533b4116200020a57806361c533b414620006fb578063645006ca14620007145780636cb7c6f9146200072d578063800c1c73146200075f57600080fd5b806352d1902d146200068e57806357338b2214620006b55780635cb5438414620006d857600080fd5b8063406cfb75146200059f57806345f67ac714620005c4578063464b415814620005f85780634866b9e0146200062d5780634b31c1d814620006525780634f1ef286146200067757600080fd5b80632a80cda311620002d95780632a80cda314620004b15780632f10e23614620004d6578063301099a3146200050b578063344cbc6814620005305780633659cfe614620005555780633e0f7fde146200057a57600080fd5b806301ffc9a714620003815780630280179e14620003bb57806302d05d3f14620003e057806306fdde03146200041c578063150b7a02146200044357806319f6ac09146200048c57600080fd5b366200037c5733158015906200033b57503415155b156200037a57604080513381523460208201527fe1fffcc4923d04b559f4d29a8bfc6cda04eb5b0d3c460751c2402c5c5cc9109c910160405180910390a15b005b600080fd5b3480156200038e57600080fd5b50620003a6620003a03660046200493a565b62000b8c565b60405190151581526020015b60405180910390f35b348015620003c857600080fd5b506200037a620003da366004620046bb565b62000bc4565b348015620003ed57600080fd5b506101625462000403906001600160a01b031681565b6040516001600160a01b039091168152602001620003b2565b3480156200042957600080fd5b506200043462000cb2565b604051620003b2919062004ed3565b3480156200045057600080fd5b506200047262000462366004620044f6565b630a85bd0160e11b949350505050565b6040516001600160e01b03199091168152602001620003b2565b3480156200049957600080fd5b506200037a620004ab36600462004966565b62000d49565b348015620004be57600080fd5b506200037a620004d036600462004d31565b62000e19565b348015620004e357600080fd5b50620003a6620004f536600462004d31565b6101706020526000908152604090205460ff1681565b3480156200051857600080fd5b506200037a6200052a36600462004d31565b62000ed7565b3480156200053d57600080fd5b506200037a6200054f36600462004d31565b62000f8e565b3480156200056257600080fd5b506200037a62000574366004620043fb565b62001297565b3480156200058757600080fd5b506200037a6200059936600462004ae7565b62001383565b348015620005ac57600080fd5b50620003a6620005be366004620043fb565b62001501565b348015620005d157600080fd5b50620005e9620005e3366004620047b9565b62001733565b604051620003b2919062004e6d565b3480156200060557600080fd5b50620003a662000617366004620043fb565b61016f6020526000908152604090205460ff1681565b3480156200063a57600080fd5b506200037a6200064c36600462004b83565b620019c0565b3480156200065f57600080fd5b506200037a6200067136600462004738565b62001dbf565b6200037a62000688366004620045d9565b6200201e565b3480156200069b57600080fd5b50620006a6620020fb565b604051908152602001620003b2565b348015620006c257600080fd5b506101655462000403906001600160a01b031681565b348015620006e557600080fd5b506101615462000403906001600160a01b031681565b3480156200070857600080fd5b50620006a66101685481565b3480156200072157600080fd5b50620006a66101695481565b3480156200073a57600080fd5b50620006a66200074c366004620043fb565b61016e6020526000908152604090205481565b3480156200076c57600080fd5b506200037a6200077e3660046200499f565b620021b1565b3480156200079157600080fd5b5061012d546001600160a01b031662000403565b348015620007b257600080fd5b506101665462000403906001600160a01b031681565b348015620007d557600080fd5b506200037a620007e736600462004d31565b6200241d565b348015620007fa57600080fd5b506101635462000403906001600160a01b031681565b3480156200081d57600080fd5b5061016a5462000403906001600160a01b031681565b3480156200084057600080fd5b506200037a6200085236600462004d31565b620024a8565b3480156200086557600080fd5b506200037a62000877366004620043fb565b620026b4565b3480156200088a57600080fd5b50620003a66200089c366004620043fb565b62002755565b348015620008af57600080fd5b50620003a6620008c1366004620043fb565b6001600160a01b0316600090815261012e602052604090205460ff1690565b348015620008ed57600080fd5b506101645462000403906001600160a01b031681565b3480156200091057600080fd5b506200037a62000922366004620046f3565b620027d9565b3480156200093557600080fd5b506200043462002897565b3480156200094d57600080fd5b50620003a66200095f366004620043fb565b620028a7565b3480156200097257600080fd5b5062000472620009843660046200443b565b63bc197c8160e01b95945050505050565b348015620009a257600080fd5b5062000403620009b436600462004d31565b6200293f565b348015620009c757600080fd5b506200037a620009d93660046200468c565b6200296b565b348015620009ec57600080fd5b5062000403620009fe36600462004a39565b620029f7565b34801562000a1157600080fd5b506200037a62000a233660046200485c565b62002a81565b34801562000a3657600080fd5b506200043462000a483660046200462e565b62002c34565b34801562000a5b57600080fd5b506200037a62000a6d3660046200489c565b62002dbf565b34801562000a8057600080fd5b506200037a62000a923660046200468c565b62002f9e565b34801562000aa557600080fd5b5062000adc62000ab7366004620043fb565b6101716020526000908152604090208054600182015460029092015490919060ff1683565b604080519384526020840192909252151590820152606001620003b2565b34801562000b0757600080fd5b50620003a662000b19366004620043fb565b6200311d565b34801562000b2c57600080fd5b506200037a62000b3e36600462004d31565b62003152565b34801562000b5157600080fd5b506200047262000b6336600462004569565b63f23a6e6160e01b95945050505050565b34801562000b8157600080fd5b5061016c54620006a6565b60006001600160e01b03198216630271189760e51b148062000bbe57506301ffc9a760e01b6001600160e01b03198316145b92915050565b6040518060400160405280600781526020016611d95b995c985b60ca1b81525062000bef33620028a7565b8062000c16575062000c0181620029f7565b6001600160a01b0316336001600160a01b0316145b8062000c25575061016d5460ff165b62000c4d5760405162461bcd60e51b815260040162000c449062004fce565b60405180910390fd5b62000c5a8484846200323f565b604080516001600160a01b038616815260208101859052908101839052600060608201527fc7ff60e3f07d1e83c30c2fb716313eccef5470e6bdf300d865c747e76f379a83906080015b60405180910390a150505050565b610167805462000cc290620051d5565b80601f016020809104026020016040519081016040528092919081815260200182805462000cf090620051d5565b801562000d415780601f1062000d155761010080835404028352916020019162000d41565b820191906000526020600020905b81548152906001019060200180831162000d2357829003601f168201915b505050505081565b6040518060400160405280600781526020016611d95b995c985b60ca1b81525062000d7433620028a7565b8062000d9b575062000d8681620029f7565b6001600160a01b0316336001600160a01b0316145b8062000daa575061016d5460ff165b62000dc95760405162461bcd60e51b815260040162000c449062004fce565b62000dd861016b84846200404e565b507f73fe47029acc9de832b3f5412b2a47ba49a85ed9c4aa1c3ab65fcc23ec943cf8838360405162000e0c92919062004ee8565b60405180910390a1505050565b6040518060400160405280600781526020016611d95b995c985b60ca1b81525062000e4433620028a7565b8062000e6b575062000e5681620029f7565b6001600160a01b0316336001600160a01b0316145b8062000e7a575061016d5460ff165b62000e995760405162461bcd60e51b815260040162000c449062004fce565b6101698290556040518281527fbe19bc97d2bca5ac16c999faf6d2fbde29b13fae7020e3a390febf030f8242d7906020015b60405180910390a15050565b6040518060400160405280600781526020016611d95b995c985b60ca1b81525062000f0233620028a7565b8062000f29575062000f1481620029f7565b6001600160a01b0316336001600160a01b0316145b8062000f38575061016d5460ff165b62000f575760405162461bcd60e51b815260040162000c449062004fce565b6101688290556040518281527fd74e243e16d9026669a4805403df1e6c18e3f0c38e89e50e8846c3f329f81e7e9060200162000ecb565b610164546040516331a9108f60e11b8152600481018390526001600160a01b03909116906000908290636352211e9060240160206040518083038186803b15801562000fd957600080fd5b505afa15801562000fee573d6000803e3d6000fd5b505050506040513d601f19601f820116820180604052508101906200101491906200441b565b9050336001600160a01b03821614620010645760405162461bcd60e51b815260206004820152601160248201527014195c9b5a5cdcda5bdb8819195b9a5959607a1b604482015260640162000c44565b610165546040516370a0823160e01b81526001600160a01b038381166004830152909116906370a082319060240160206040518083038186803b158015620010ab57600080fd5b505afa158015620010c0573d6000803e3d6000fd5b505050506040513d601f19601f82011682018060405250810190620010e6919062004920565b156200112e5760405162461bcd60e51b81526020600482015260166024820152754c502062616c616e6365206973206e6f74207a65726f60501b604482015260640162000c44565b60405163288c314960e21b81526001600160a01b03828116600483015283169063a230c5249060240160206040518083038186803b1580156200117057600080fd5b505afa15801562001185573d6000803e3d6000fd5b505050506040513d601f19601f82011682018060405250810190620011ab9190620048fc565b1515600114620011ed5760405162461bcd60e51b815260206004820152600c60248201526b2737ba10309036b2b6b132b960a11b604482015260640162000c44565b6040516350d3a55760e11b8152600481018490526001600160a01b0383169063a1a74aae90602401600060405180830381600087803b1580156200123057600080fd5b505af115801562001245573d6000803e3d6000fd5b505050506001600160a01b038116600081815261016e602090815260408083209290925590519182527f950a11f80aa30348b1643119360881f6d3b38be1c74e26f857f2a4fe570f87c5910162000e0c565b306001600160a01b037f0000000000000000000000000000000000000000000000000000000000000000161415620012e35760405162461bcd60e51b815260040162000c449062004ffc565b7f00000000000000000000000000000000000000000000000000000000000000006001600160a01b03166200132e600080516020620059d6833981519152546001600160a01b031690565b6001600160a01b031614620013575760405162461bcd60e51b815260040162000c449062005048565b6200136281620033f2565b60408051600080825260208201909252620013809183919062003472565b50565b6040518060400160405280600781526020016611d95b995c985b60ca1b815250620013ae33620028a7565b80620013d55750620013c081620029f7565b6001600160a01b0316336001600160a01b0316145b80620013e4575061016d5460ff165b620014035760405162461bcd60e51b815260040162000c449062004fce565b60006200141961012d546001600160a01b031690565b6001600160a01b03166253153b878787876040518563ffffffff1660e01b81526004016200144b949392919062004f47565b602060405180830381600087803b1580156200146657600080fd5b505af11580156200147b573d6000803e3d6000fd5b505050506040513d601f19601f82011682018060405250810190620014a1919062004920565b6000818152610170602052604090819020805460ff19166001179055519091507ff94f63f5f9de5de7659ae3ccaa099cce39347833cbd85ffe78570b86f4051ab490620014f19083815260200190565b60405180910390a1505050505050565b61016c54600090815b818110156200172957600061016c82815481106200152c576200152c62005272565b60009182526020808320909101546001600160a01b031680835261017190915260409091205490915080156200171157600062001572836001600160a01b0316620035fa565b15620015fe576040516370a0823160e01b81526001600160a01b0388811660048301528416906370a08231906024015b60206040518083038186803b158015620015bb57600080fd5b505afa158015620015d0573d6000803e3d6000fd5b505050506040513d601f19601f82011682018060405250810190620015f6919062004920565b9050620016f9565b62001612836001600160a01b03166200368a565b156200165f576001600160a01b038381166000818152610171602052604090819020600101549051627eeac760e11b8152928a16600484015260248301529062fdd58e90604401620015a2565b62001673836001600160a01b0316620036c1565b15620016f9576040516370a0823160e01b81526001600160a01b0388811660048301528416906370a082319060240160206040518083038186803b158015620016bb57600080fd5b505afa158015620016d0573d6000803e3d6000fd5b505050506040513d601f19601f82011682018060405250810190620016f6919062004920565b90505b818110156200170f575060009695505050505050565b505b50508080620017209062005212565b9150506200150a565b5060019392505050565b60606040518060400160405280600781526020016611d95b995c985b60ca1b8152506200176033620028a7565b806200178757506200177281620029f7565b6001600160a01b0316336001600160a01b0316145b8062001796575061016d5460ff165b620017b55760405162461bcd60e51b815260040162000c449062004fce565b86851480620017c357508683145b620018045760405162461bcd60e51b815260206004820152601060248201526f0d8cadccee8d040dcdee840dac2e8c6d60831b604482015260640162000c44565b6000876001600160401b0381111562001821576200182162005288565b6040519080825280602002602001820160405280156200185657816020015b6060815260200190600190039081620018405790505b50905060005b88811015620019b3576000808b8b848181106200187d576200187d62005272565b9050602002016020810190620018949190620043fb565b6001600160a01b03168a8a85818110620018b257620018b262005272565b90506020020135898986818110620018ce57620018ce62005272565b9050602002810190620018e2919062005094565b604051620018f292919062004da2565b60006040518083038185875af1925050503d806000811462001931576040519150601f19603f3d011682016040523d82523d6000602084013e62001936565b606091505b5091509150816200197a5760405162461bcd60e51b815260206004820152600d60248201526c195e1958dd5d1a5bdb91985a5b609a1b604482015260640162000c44565b8084848151811062001990576200199062005272565b602002602001018190525050508080620019aa9062005212565b9150506200185c565b5098975050505050505050565b600054610100900460ff1615808015620019e15750600054600160ff909116105b80620019fd5750303b158015620019fd575060005460ff166001145b62001a625760405162461bcd60e51b815260206004820152602e60248201527f496e697469616c697a61626c653a20636f6e747261637420697320616c72656160448201526d191e481a5b9a5d1a585b1a5e995960921b606482015260840162000c44565b6000805460ff19166001179055801562001a86576000805461ff0019166101001790555b82516001600160a01b03161580159062001aac575060208301516001600160a01b031615155b801562001ac5575060408301516001600160a01b031615155b801562001ade575060608301516001600160a01b031615155b801562001af7575060808301516001600160a01b031615155b801562001b10575060a08301516001600160a01b031615155b801562001b2a57506101008301516001600160a01b031615155b62001b6e5760405162461bcd60e51b8152602060048201526013602482015272496e7661696c642044616f2053657474696e6760681b604482015260640162000c44565b61016d805460ff19166001179055608083015162001b8c9062003766565b61016380546001600160a01b0319163317905560c0830151805162001bbb9161016791602090910190620040dd565b50825161016280546001600160a01b038084166001600160a01b03199283161790925560208601516101648054918416918316919091179055604086015161016580549184169183169190911790556060860151610166805491841691831691909117905561010086015161016a805491909316911617905562001c3f90620037f6565b62001c5a8360a001518461012001518561014001516200385b565b62001c6a836101600151620039d7565b60005b825181101562001d6a57600080306001600160a01b031685848151811062001c995762001c9962005272565b602002602001015160405162001cb0919062004db2565b6000604051808303816000865af19150503d806000811462001cef576040519150601f19603f3d011682016040523d82523d6000602084013e62001cf4565b606091505b50915091508162001d3062001d098362003aa1565b6040805180820190915260098152681a5b9a5d0819985a5b60ba1b60208201529062003afe565b9062001d515760405162461bcd60e51b815260040162000c44919062004ed3565b505050808062001d619062005212565b91505062001c6d565b5061016d805460ff19169055801562001dba576000805461ff0019169055604051600181527f7f26b83ff96e1f2b6a682f133852f6798a09c465da95921460cefb38474024989060200162000e0c565b505050565b6040518060400160405280600781526020016611d95b995c985b60ca1b81525062001dea33620028a7565b8062001e11575062001dfc81620029f7565b6001600160a01b0316336001600160a01b0316145b8062001e20575061016d5460ff165b62001e3f5760405162461bcd60e51b815260040162000c449062004fce565b84831462001e905760405162461bcd60e51b815260206004820152601760248201527f706172616d73206c656e677468206e6f74206d61746368000000000000000000604482015260640162000c44565b60005b8581101562001fec573087878381811062001eb25762001eb262005272565b905060200201602081019062001ec99190620043fb565b6001600160a01b0316141562001f155762001f0f85858381811062001ef25762001ef262005272565b905060200201602081019062001f099190620043fb565b62003b2c565b62001fd7565b86868281811062001f2a5762001f2a62005272565b905060200201602081019062001f419190620043fb565b6001600160a01b0316633659cfe686868481811062001f645762001f6462005272565b905060200201602081019062001f7b9190620043fb565b6040516001600160e01b031960e084901b1681526001600160a01b039091166004820152602401600060405180830381600087803b15801562001fbd57600080fd5b505af115801562001fd2573d6000803e3d6000fd5b505050505b8062001fe38162005212565b91505062001e93565b507fae65f73ea44fb5b0663fb704952c68701722f2eff0f95e69900bd903f9770f3882604051620014f1919062004ed3565b306001600160a01b037f00000000000000000000000000000000000000000000000000000000000000001614156200206a5760405162461bcd60e51b815260040162000c449062004ffc565b7f00000000000000000000000000000000000000000000000000000000000000006001600160a01b0316620020b5600080516020620059d6833981519152546001600160a01b031690565b6001600160a01b031614620020de5760405162461bcd60e51b815260040162000c449062005048565b620020e982620033f2565b620020f78282600162003472565b5050565b6000306001600160a01b037f000000000000000000000000000000000000000000000000000000000000000016146200219d5760405162461bcd60e51b815260206004820152603860248201527f555550535570677261646561626c653a206d757374206e6f742062652063616c60448201527f6c6564207468726f7567682064656c656761746563616c6c0000000000000000606482015260840162000c44565b50600080516020620059d683398151915290565b6040518060400160405280600781526020016611d95b995c985b60ca1b815250620021dc33620028a7565b80620022035750620021ee81620029f7565b6001600160a01b0316336001600160a01b0316145b8062002212575061016d5460ff165b620022315760405162461bcd60e51b815260040162000c449062004fce565b60008085600281111562002249576200224962005246565b1415620022b457610164546001600160a01b031680620022ac5760405162461bcd60e51b815260206004820152601e60248201527f4d656d62657273686970206e6f742079657420696e697469616c697a65640000604482015260640162000c44565b90506200239e565b6001856002811115620022cb57620022cb62005246565b14156200232e57610161546001600160a01b031680620022ac5760405162461bcd60e51b815260206004820152601f60248201527f4d656d626572546f6b656e206e6f742079657420696e697469616c697a656400604482015260640162000c44565b600285600281111562002345576200234562005246565b14156200239e576001600160a01b0384166200239b5760405162461bcd60e51b8152602060048201526014602482015273159bdd19481d1bdad95b881b9bdd08195e1a5cdd60621b604482015260640162000c44565b50825b61016654604051634d9df0d760e11b81526001600160a01b0390911690639b3be1ae90620023dd908d908d908d908d908d9089908c9060040162004efe565b600060405180830381600087803b158015620023f857600080fd5b505af11580156200240d573d6000803e3d6000fd5b5050505050505050505050505050565b6040518060400160405280600781526020016611d95b995c985b60ca1b8152506200244833620028a7565b806200246f57506200245a81620029f7565b6001600160a01b0316336001600160a01b0316145b806200247e575061016d5460ff165b6200249d5760405162461bcd60e51b815260040162000c449062004fce565b620020f78262003b6e565b6040518060400160405280600781526020016611d95b995c985b60ca1b815250620024d333620028a7565b80620024fa5750620024e581620029f7565b6001600160a01b0316336001600160a01b0316145b8062002509575061016d5460ff165b620025285760405162461bcd60e51b815260040162000c449062004fce565b61016c5482106200256d5760405162461bcd60e51b815260206004820152600e60248201526d696e646578206f766572666c6f7760901b604482015260640162000c44565b600061016c838154811062002586576200258662005272565b60009182526020808320909101546001600160a01b031680835261017190915260408220600201805460ff1916905561016c805491935090620025cc906001906200518c565b81548110620025df57620025df62005272565b60009182526020909120015461016c80546001600160a01b03909216925082918690811062002612576200261262005272565b9060005260206000200160006101000a8154816001600160a01b0302191690836001600160a01b0316021790555061016c8054806200265557620026556200525c565b6000828152602090819020600019908301810180546001600160a01b03191690559091019091556040516001600160a01b03841681527f1b2ddeaa10e8a80ec9f117d308c60a01824809ed74e531d768c0b1b7542606b9910162000ca4565b610165546001600160a01b03163314620026fb5760405162461bcd60e51b815260206004820152600760248201526606f6e6c79204c560cc1b604482015260640162000c44565b6001600160a01b038116600081815261016e602090815260409182902042908190558251938452908301527f7ac58570d3e556be8ffd5d5bda8bc949958077c3aa21c4b5fa11b63ed12dafa791015b60405180910390a150565b6101645460405163288c314960e21b81526001600160a01b038381166004830152600092169063a230c524906024015b60206040518083038186803b1580156200279e57600080fd5b505afa158015620027b3573d6000803e3d6000fd5b505050506040513d601f19601f8201168201806040525081019062000bbe9190620048fc565b6040518060400160405280600781526020016611d95b995c985b60ca1b8152506200280433620028a7565b806200282b57506200281681620029f7565b6001600160a01b0316336001600160a01b0316145b806200283a575061016d5460ff165b620028595760405162461bcd60e51b815260040162000c449062004fce565b62001dba838380806020026020016040519081016040528093929190818152602001838360200280828437600092019190915250620039d792505050565b61016b805462000cc290620051d5565b61016454604080516318160ddd60e01b815290516000926001600160a01b0316916318160ddd916004808301926020929190829003018186803b158015620028ee57600080fd5b505afa15801562002903573d6000803e3d6000fd5b505050506040513d601f19601f8201168201806040525081019062002929919062004920565b600114801562000bbe575062000bbe8262002755565b61016c81815481106200295157600080fd5b6000918252602090912001546001600160a01b0316905081565b6040518060400160405280600781526020016611d95b995c985b60ca1b8152506200299633620028a7565b80620029bd5750620029a881620029f7565b6001600160a01b0316336001600160a01b0316145b80620029cc575061016d5460ff165b620029eb5760405162461bcd60e51b815260040162000c449062004fce565b62001dba838362003c2a565b6101665460405163385f5d8f60e11b81526000916001600160a01b0316906370bebb1e9062002a2d903090869060040162004e03565b60206040518083038186803b15801562002a4657600080fd5b505afa15801562002a5b573d6000803e3d6000fd5b505050506040513d601f19601f8201168201806040525081019062000bbe91906200441b565b60005b8151811015620020f75761012e600083838151811062002aa85762002aa862005272565b6020908102919091018101516001600160a01b031682528101919091526040016000205460ff1662002b3a5760405162461bcd60e51b815260206004820152603460248201527f427564676574417070726f76616c45786563757465653a2062756467657420616044820152731c1c1c9bdd985b081a5cc81b9bdd081d985b1a5960621b606482015260840162000c44565b62002b6182828151811062002b535762002b5362005272565b6020026020010151620033f2565b600061012e600084848151811062002b7d5762002b7d62005272565b60200260200101516001600160a01b03166001600160a01b0316815260200190815260200160002060006101000a81548160ff0219169083151502179055507f3562b8c49e34d53119756b2b8b55a910ed22c2cda0d3b07398510d804c2dc62182828151811062002bf25762002bf262005272565b602002602001015160405162002c1791906001600160a01b0391909116815260200190565b60405180910390a18062002c2b8162005212565b91505062002a84565b33600090815261012e602052604090205460609060ff1662002ca75760405162461bcd60e51b815260206004820152602560248201527f427564676574417070726f76616c45786563757465653a206163636573732064604482015264195b9a595960da1b606482015260840162000c44565b600080856001600160a01b0316848660405162002cc5919062004db2565b60006040518083038185875af1925050503d806000811462002d04576040519150601f19603f3d011682016040523d82523d6000602084013e62002d09565b606091505b50915091508162002d795762002d5e62002d238262003aa1565b60408051808201909152601d81527f52657665727465642062792065787465726e616c20636f6e747261637400000060208201529062003afe565b60405162461bcd60e51b815260040162000c44919062004ed3565b7fcf452d48646654954090c61dd69f99a99bea4e2264594078fc81bfd43d6f6a9e338660405162002dac92919062004e03565b60405180910390a19150505b9392505050565b805182511462002e075760405162461bcd60e51b8152602060048201526012602482015271496e636f72726563742043616c6c6461746160701b604482015260640162000c44565b60005b825181101562001dba5762002e3b83828151811062002e2d5762002e2d62005272565b602002602001015162003d0c565b600083828151811062002e525762002e5262005272565b602002602001015183838151811062002e6f5762002e6f62005272565b602002602001015160405162002e85906200415a565b62002e9292919062004e03565b604051809103906000f08015801562002eaf573d6000803e3d6000fd5b506001600160a01b038116600090815261012e60205260409020805460ff1916600117905583519091507f26c79e13dd63e8716f130c25331c09f2fdd55d6880bbfa7bcc38868207e8a67090829085908590811062002f125762002f1262005272565b602002602001015160405162002f2a92919062004e03565b60405180910390a1806001600160a01b031663cf26fec66040518163ffffffff1660e01b8152600401600060405180830381600087803b15801562002f6e57600080fd5b505af115801562002f83573d6000803e3d6000fd5b5050505050808062002f959062005212565b91505062002e0a565b610165546001600160a01b0316331462002fe55760405162461bcd60e51b815260206004820152600760248201526606f6e6c79204c560cc1b604482015260640162000c44565b6001600160a01b038216600090815261016e6020526040902054620020f7576200300f82620026b4565b61016954811015620030645760405162461bcd60e51b815260206004820152601960248201527f6465706f73697420616d6f756e74206e6f7420656e6f75676800000000000000604482015260640162000c44565b6200306f8262002755565b1562003079575050565b620030848262001501565b620030d25760405162461bcd60e51b815260206004820152601a60248201527f41646d697373696f6e20746f6b656e206e6f7420656e6f756768000000000000604482015260640162000c44565b620030dd82620037f6565b604080516001600160a01b0384168152602081018390527fbd251213ab4f4d6ca44f082b3e6aadf9c5153e7c16bac3ac4f959462d425c23c910162000ecb565b61016354604051635120331f60e11b81526001600160a01b038381166004830152600092169063a240663e9060240162002785565b6040518060400160405280600781526020016611d95b995c985b60ca1b8152506200317d33620028a7565b80620031a457506200318f81620029f7565b6001600160a01b0316336001600160a01b0316145b80620031b3575061016d5460ff165b620031d25760405162461bcd60e51b815260040162000c449062004fce565b610161546001600160a01b0316620031ed818460006200323f565b604080516001600160a01b038316815260208101859052600091810191909152600160608201527fc7ff60e3f07d1e83c30c2fb716313eccef5470e6bdf300d865c747e76f379a839060800162000e0c565b6001600160a01b0383166000908152610171602052604090206002015460ff1615620032ae5760405162461bcd60e51b815260206004820152601760248201527f41646d697373696f6e20546f6b656e2065786973746564000000000000000000604482015260640162000c44565b6001600160a01b0383163b620033075760405162461bcd60e51b815260206004820152601c60248201527f41646d697373696f6e20546f6b656e206e6f7420537570706f72742100000000604482015260640162000c44565b61016c8054600180820183557fe5af487827b121aa2456a019311df153887da6c98285803eea72252e4f09489b90910180546001600160a01b0319166001600160a01b03871690811790915560408051606081018252868152602080820187815282840186815260009586526101719092529290932090518155905192810192909255516002909101805460ff1916911515919091179055546003101562001dba5760405162461bcd60e51b815260206004820181905260248201527f41646d697373696f6e20546f6b656e206c656e67746820746f6f206c6f6e672e604482015260640162000c44565b6040518060400160405280600781526020016611d95b995c985b60ca1b8152506200341d33620028a7565b806200344457506200342f81620029f7565b6001600160a01b0316336001600160a01b0316145b8062003453575061016d5460ff165b620020f75760405162461bcd60e51b815260040162000c449062004fce565b7f4910fdfa16fed3260ed0e7147f7cc6da11a60208b5b9406d12a635614ffd91435460ff1615620034a85762001dba8362003df3565b826001600160a01b03166352d1902d6040518163ffffffff1660e01b815260040160206040518083038186803b158015620034e257600080fd5b505afa92505050801562003515575060408051601f3d908101601f19168201909252620035129181019062004920565b60015b6200357a5760405162461bcd60e51b815260206004820152602e60248201527f45524331393637557067726164653a206e657720696d706c656d656e7461746960448201526d6f6e206973206e6f74205555505360901b606482015260840162000c44565b600080516020620059d68339815191528114620035ec5760405162461bcd60e51b815260206004820152602960248201527f45524331393637557067726164653a20756e737570706f727465642070726f786044820152681a58589b195555525160ba1b606482015260840162000c44565b5062001dba83838362003e92565b6040516301ffc9a760e01b81526380ac58cd60e01b60048201526000906001600160a01b038316906301ffc9a7906024015b60206040518083038186803b1580156200364557600080fd5b505afa92505050801562003678575060408051601f3d908101601f191682019092526200367591810190620048fc565b60015b62000bbe57506000919050565b919050565b6040516301ffc9a760e01b8152636cdb3d1360e11b60048201526000906001600160a01b038316906301ffc9a7906024016200362c565b6000620036ce82620035fa565b15620036dc57506000919050565b6040516370a0823160e01b8152600060048201526001600160a01b038316906370a082319060240160206040518083038186803b1580156200371d57600080fd5b505afa92505050801562003750575060408051601f3d908101601f191682019092526200374d9181019062004920565b60015b6200375d57506000919050565b50600192915050565b600054610100900460ff16620037d35760405162461bcd60e51b815260206004820152602b60248201527f496e697469616c697a61626c653a20636f6e7472616374206973206e6f74206960448201526a6e697469616c697a696e6760a81b606482015260840162000c44565b61012d80546001600160a01b0319166001600160a01b0392909216919091179055565b61016454604051632124d52960e01b81526001600160a01b03838116600483015290911690632124d52990602401600060405180830381600087803b1580156200383f57600080fd5b505af115801562003854573d6000803e3d6000fd5b5050505050565b610161546001600160a01b031615620038b75760405162461bcd60e51b815260206004820181905260248201527f4d656d62657220746f6b656e20616c726561647920696e697469616c697a6564604482015260640162000c44565b600083604051620038c8906200415a565b6001600160a01b039091168152604060208201819052600090820152606001604051809103906000f08015801562003904573d6000803e3d6000fd5b5061016180546001600160a01b0319166001600160a01b038316908117909155604051639065714760e01b81529192508291639065714790620039509030908890889060040162004e29565b600060405180830381600087803b1580156200396b57600080fd5b505af115801562003980573d6000803e3d6000fd5b505050506200398f8162003ebd565b604080513381526001600160a01b03831660208201527f51872b89ca0a4559a29252fabe8e58a51d77923ec1fdb596822e56c918df96eb910160405180910390a15050505050565b60005b8151811015620020f75760006001600160a01b031682828151811062003a045762003a0462005272565b60200260200101516001600160a01b0316141562003a655760405162461bcd60e51b815260206004820152601960248201527f4e6f7420537570706f7274656420455243323020546f6b656e00000000000000604482015260640162000c44565b62003a8c82828151811062003a7e5762003a7e62005272565b602002602001015162003ebd565b8062003a988162005212565b915050620039da565b606060448251101562003ac257505060408051602081019091526000815290565b60048201915062000bbe8280602001905181019062003ae2919062004a71565b60408051808201909152600381526201016960ed1b6020820152905b6060828260405160200162003b1592919062004dd0565b604051602081830303815290604052905092915050565b62003b378162003df3565b6040516001600160a01b038216907fbc7cd75a20ee27fd9adebab32041f755214dbc6bffa90cc0225b39da2e5c2d3b90600090a250565b610161546001600160a01b03168062003bc45760405162461bcd60e51b815260206004820152601760248201527626b2b6b132b9102a37b5b2b7103737ba1022bc34b9ba1760491b604482015260640162000c44565b6040516340c10f1960e01b8152306004820152602481018390526001600160a01b038216906340c10f1990604401600060405180830381600087803b15801562003c0d57600080fd5b505af115801562003c22573d6000803e3d6000fd5b505050505050565b610161546001600160a01b03168062003c805760405162461bcd60e51b815260206004820152601760248201527626b2b6b132b9102a37b5b2b7103737ba1022bc34b9ba1760491b604482015260640162000c44565b60405163a9059cbb60e01b81526001600160a01b0384811660048301526024820184905282169063a9059cbb90604401602060405180830381600087803b15801562003ccb57600080fd5b505af115801562003ce0573d6000803e3d6000fd5b505050506040513d601f19601f8201168201806040525081019062003d069190620048fc565b50505050565b6040518060400160405280600781526020016611d95b995c985b60ca1b81525062003d3733620028a7565b8062003d5e575062003d4981620029f7565b6001600160a01b0316336001600160a01b0316145b8062003d6d575061016d5460ff165b62003d8c5760405162461bcd60e51b815260040162000c449062004fce565b62003d97826200311d565b620020f75760405162461bcd60e51b815260206004820152602560248201527f42756467657420496d706c656d656e746174696f6e206e6f742077686974656c6044820152641a5cdd195960da1b606482015260840162000c44565b6001600160a01b0381163b62003e625760405162461bcd60e51b815260206004820152602d60248201527f455243313936373a206e657720696d706c656d656e746174696f6e206973206e60448201526c1bdd08184818dbdb9d1c9858dd609a1b606482015260840162000c44565b600080516020620059d683398151915280546001600160a01b0319166001600160a01b0392909216919091179055565b62003e9d8362003b2c565b60008251118062003eab5750805b1562001dba5762003d06838362003f13565b6001600160a01b038116600081815261016f6020908152604091829020805460ff1916600117905590519182527f808665eda000f8d729f31a384bae411282aa3be62cb73ed74e2225e2eef7125d91016200274a565b60606001600160a01b0383163b62003f7d5760405162461bcd60e51b815260206004820152602660248201527f416464726573733a2064656c65676174652063616c6c20746f206e6f6e2d636f6044820152651b9d1c9858dd60d21b606482015260840162000c44565b600080846001600160a01b03168460405162003f9a919062004db2565b600060405180830381855af49150503d806000811462003fd7576040519150601f19603f3d011682016040523d82523d6000602084013e62003fdc565b606091505b5091509150620040078282604051806060016040528060278152602001620059f66027913962004010565b95945050505050565b606083156200402157508162002db8565b825115620040325782518084602001fd5b8160405162461bcd60e51b815260040162000c44919062004ed3565b8280546200405c90620051d5565b90600052602060002090601f016020900481019282620040805760008555620040cb565b82601f106200409b5782800160ff19823516178555620040cb565b82800160010185558215620040cb579182015b82811115620040cb578235825591602001919060010190620040ae565b50620040d992915062004168565b5090565b828054620040eb90620051d5565b90600052602060002090601f0160209004810192826200410f5760008555620040cb565b82601f106200412a57805160ff1916838001178555620040cb565b82800160010185558215620040cb579182015b82811115620040cb5782518255916020019190600101906200413d565b61072180620052b583390190565b5b80821115620040d9576000815560010162004169565b803562003685816200529e565b60008083601f8401126200419f57600080fd5b5081356001600160401b03811115620041b757600080fd5b6020830191508360208260051b8501011115620041d357600080fd5b9250929050565b600082601f830112620041ec57600080fd5b8135602062004205620041ff836200513c565b62005109565b80838252828201915082860187848660051b89010111156200422657600080fd5b60005b85811015620042525781356200423f816200529e565b8452928401929084019060010162004229565b5090979650505050505050565b600082601f8301126200427157600080fd5b8135602062004284620041ff836200513c565b80838252828201915082860187848660051b8901011115620042a557600080fd5b6000805b86811015620042ec5782356001600160401b03811115620042c8578283fd5b620042d88b88838d010162004361565b8652509385019391850191600101620042a9565b509198975050505050505050565b600082601f8301126200430c57600080fd5b813560206200431f620041ff836200513c565b80838252828201915082860187848660051b89010111156200434057600080fd5b60005b85811015620042525781358452928401929084019060010162004343565b600082601f8301126200437357600080fd5b813562004384620041ff8262005162565b8181528460208386010111156200439a57600080fd5b816020850160208301376000918101602001919091529392505050565b60008083601f840112620043ca57600080fd5b5081356001600160401b03811115620043e257600080fd5b602083019150836020828501011115620041d357600080fd5b6000602082840312156200440e57600080fd5b813562002db8816200529e565b6000602082840312156200442e57600080fd5b815162002db8816200529e565b600080600080600060a086880312156200445457600080fd5b853562004461816200529e565b9450602086013562004473816200529e565b935060408601356001600160401b03808211156200449057600080fd5b6200449e89838a01620042fa565b94506060880135915080821115620044b557600080fd5b620044c389838a01620042fa565b93506080880135915080821115620044da57600080fd5b50620044e98882890162004361565b9150509295509295909350565b600080600080608085870312156200450d57600080fd5b84356200451a816200529e565b935060208501356200452c816200529e565b92506040850135915060608501356001600160401b038111156200454f57600080fd5b6200455d8782880162004361565b91505092959194509250565b600080600080600060a086880312156200458257600080fd5b85356200458f816200529e565b94506020860135620045a1816200529e565b9350604086013592506060860135915060808601356001600160401b03811115620045cb57600080fd5b620044e98882890162004361565b60008060408385031215620045ed57600080fd5b8235620045fa816200529e565b915060208301356001600160401b038111156200461657600080fd5b620046248582860162004361565b9150509250929050565b6000806000606084860312156200464457600080fd5b833562004651816200529e565b925060208401356001600160401b038111156200466d57600080fd5b6200467b8682870162004361565b925050604084013590509250925092565b60008060408385031215620046a057600080fd5b8235620046ad816200529e565b946020939093013593505050565b600080600060608486031215620046d157600080fd5b8335620046de816200529e565b95602085013595506040909401359392505050565b600080602083850312156200470757600080fd5b82356001600160401b038111156200471e57600080fd5b6200472c858286016200418c565b90969095509350505050565b6000806000806000606086880312156200475157600080fd5b85356001600160401b03808211156200476957600080fd5b6200477789838a016200418c565b909750955060208801359150808211156200479157600080fd5b6200479f89838a016200418c565b90955093506040880135915080821115620044da57600080fd5b60008060008060008060608789031215620047d357600080fd5b86356001600160401b0380821115620047eb57600080fd5b620047f98a838b016200418c565b909850965060208901359150808211156200481357600080fd5b620048218a838b016200418c565b909650945060408901359150808211156200483b57600080fd5b506200484a89828a016200418c565b979a9699509497509295939492505050565b6000602082840312156200486f57600080fd5b81356001600160401b038111156200488657600080fd5b6200489484828501620041da565b949350505050565b60008060408385031215620048b057600080fd5b82356001600160401b0380821115620048c857600080fd5b620048d686838701620041da565b93506020850135915080821115620048ed57600080fd5b5062004624858286016200425f565b6000602082840312156200490f57600080fd5b8151801515811462002db857600080fd5b6000602082840312156200493357600080fd5b5051919050565b6000602082840312156200494d57600080fd5b81356001600160e01b03198116811462002db857600080fd5b600080602083850312156200497a57600080fd5b82356001600160401b038111156200499157600080fd5b6200472c85828601620043b7565b60008060008060008060008060e0898b031215620049bc57600080fd5b88356001600160401b03811115620049d357600080fd5b620049e18b828c01620043b7565b90995097505060208901359550604089013594506060890135935060808901356003811062004a0f57600080fd5b925060a089013562004a21816200529e565b8092505060c089013590509295985092959890939650565b60006020828403121562004a4c57600080fd5b81356001600160401b0381111562004a6357600080fd5b620048948482850162004361565b60006020828403121562004a8457600080fd5b81516001600160401b0381111562004a9b57600080fd5b8201601f8101841362004aad57600080fd5b805162004abe620041ff8262005162565b81815285602083850101111562004ad457600080fd5b62004007826020830160208601620051a6565b6000806000806080858703121562004afe57600080fd5b84356001600160401b038082111562004b1657600080fd5b62004b248883890162004361565b95506020870135915062004b38826200529e565b9093506040860135908082111562004b4f57600080fd5b62004b5d88838901620041da565b9350606087013591508082111562004b7457600080fd5b506200455d8782880162004361565b6000806040838503121562004b9757600080fd5b82356001600160401b038082111562004baf57600080fd5b90840190610180828703121562004bc557600080fd5b62004bcf620050dd565b62004bda836200417f565b815262004bea602084016200417f565b602082015262004bfd604084016200417f565b604082015262004c10606084016200417f565b606082015262004c23608084016200417f565b608082015262004c3660a084016200417f565b60a082015260c08301358281111562004c4e57600080fd5b62004c5c8882860162004361565b60c08301525060e08301358281111562004c7557600080fd5b62004c838882860162004361565b60e08301525061010062004c998185016200417f565b90820152610120838101358381111562004cb257600080fd5b62004cc08982870162004361565b828401525050610140808401358381111562004cdb57600080fd5b62004ce98982870162004361565b828401525050610160808401358381111562004d0457600080fd5b62004d1289828701620041da565b828401525050809450506020850135915080821115620048ed57600080fd5b60006020828403121562004d4457600080fd5b5035919050565b6000815180845262004d65816020860160208601620051a6565b601f01601f19169290920160200192915050565b81835281816020850137506000828201602090810191909152601f909101601f19169091010190565b8183823760009101908152919050565b6000825162004dc6818460208701620051a6565b9190910192915050565b6000835162004de4818460208801620051a6565b83519083019062004dfa818360208801620051a6565b01949350505050565b6001600160a01b0383168152604060208201819052600090620048949083018462004d4b565b6001600160a01b038416815260606020820181905260009062004e4f9083018562004d4b565b828103604084015262004e63818562004d4b565b9695505050505050565b6000602080830181845280855180835260408601915060408160051b870101925083870160005b8281101562004ec657603f1988860301845262004eb385835162004d4b565b9450928501929085019060010162004e94565b5092979650505050505050565b60208152600062002db8602083018462004d4b565b6020815260006200489460208301848662004d79565b60c08152600062004f1460c08301898b62004d79565b602083019790975250604081019490945260608401929092526001600160a01b0316608083015260a09091015292915050565b60808152600062004f5c608083018762004d4b565b6001600160a01b03868116602085810191909152848303604086015286518084528782019391929183019060005b8181101562004faa57855184168352948401949184019160010162004f8a565b5050858103606087015262004fc0818862004d4b565b9a9950505050505050505050565b6020808252601490820152731058dd1a5bdb881b9bdd081c195c9b5a5d1d195960621b604082015260600190565b6020808252602c908201527f46756e6374696f6e206d7573742062652063616c6c6564207468726f7567682060408201526b19195b1959d85d1958d85b1b60a21b606082015260800190565b6020808252602c908201527f46756e6374696f6e206d7573742062652063616c6c6564207468726f7567682060408201526b6163746976652070726f787960a01b606082015260800190565b6000808335601e19843603018112620050ac57600080fd5b8301803591506001600160401b03821115620050c757600080fd5b602001915036819003821315620041d357600080fd5b60405161018081016001600160401b038111828210171562005103576200510362005288565b60405290565b604051601f8201601f191681016001600160401b038111828210171562005134576200513462005288565b604052919050565b60006001600160401b0382111562005158576200515862005288565b5060051b60200190565b60006001600160401b038211156200517e576200517e62005288565b50601f01601f191660200190565b600082821015620051a157620051a162005230565b500390565b60005b83811015620051c3578181015183820152602001620051a9565b8381111562003d065750506000910152565b600181811c90821680620051ea57607f821691505b602082108114156200520c57634e487b7160e01b600052602260045260246000fd5b50919050565b600060001982141562005229576200522962005230565b5060010190565b634e487b7160e01b600052601160045260246000fd5b634e487b7160e01b600052602160045260246000fd5b634e487b7160e01b600052603160045260246000fd5b634e487b7160e01b600052603260045260246000fd5b634e487b7160e01b600052604160045260246000fd5b6001600160a01b03811681146200138057600080fdfe6080604052604051610721380380610721833981016040819052610022916102d2565b61002e82826000610035565b5050610431565b61003e8361006b565b60008251118061004b5750805b156100665761006483836100ab60201b6100291760201c565b505b505050565b610074816100d7565b6040516001600160a01b038216907fbc7cd75a20ee27fd9adebab32041f755214dbc6bffa90cc0225b39da2e5c2d3b90600090a250565b60606100d083836040518060600160405280602781526020016106fa602791396101a9565b9392505050565b6100ea8161028760201b6100551760201c565b6101515760405162461bcd60e51b815260206004820152602d60248201527f455243313936373a206e657720696d706c656d656e746174696f6e206973206e60448201526c1bdd08184818dbdb9d1c9858dd609a1b60648201526084015b60405180910390fd5b806101887f360894a13ba1a3210667c828492db98dca3e2076cc3735a920a3ca505d382bbc60001b61029660201b6100641760201c565b80546001600160a01b0319166001600160a01b039290921691909117905550565b60606001600160a01b0384163b6102115760405162461bcd60e51b815260206004820152602660248201527f416464726573733a2064656c65676174652063616c6c20746f206e6f6e2d636f6044820152651b9d1c9858dd60d21b6064820152608401610148565b600080856001600160a01b03168560405161022c91906103a0565b600060405180830381855af49150503d8060008114610267576040519150601f19603f3d011682016040523d82523d6000602084013e61026c565b606091505b50909250905061027d828286610299565b9695505050505050565b6001600160a01b03163b151590565b90565b606083156102a85750816100d0565b8251156102b85782518084602001fd5b8160405162461bcd60e51b815260040161014891906103bc565b600080604083850312156102e557600080fd5b82516001600160a01b03811681146102fc57600080fd5b60208401519092506001600160401b038082111561031957600080fd5b818501915085601f83011261032d57600080fd5b81518181111561033f5761033f61041b565b604051601f8201601f19908116603f011681019083821181831017156103675761036761041b565b8160405282815288602084870101111561038057600080fd5b6103918360208301602088016103ef565b80955050505050509250929050565b600082516103b28184602087016103ef565b9190910192915050565b60208152600082518060208401526103db8160408501602087016103ef565b601f01601f19169190910160400192915050565b60005b8381101561040a5781810151838201526020016103f2565b838111156100645750506000910152565b634e487b7160e01b600052604160045260246000fd5b6102ba806104406000396000f3fe60806040523661001357610011610017565b005b6100115b610027610022610067565b61009f565b565b606061004e838360405180606001604052806027815260200161025e602791396100c3565b9392505050565b6001600160a01b03163b151590565b90565b600061009a7f360894a13ba1a3210667c828492db98dca3e2076cc3735a920a3ca505d382bbc546001600160a01b031690565b905090565b3660008037600080366000845af43d6000803e8080156100be573d6000f35b3d6000fd5b60606001600160a01b0384163b6101305760405162461bcd60e51b815260206004820152602660248201527f416464726573733a2064656c65676174652063616c6c20746f206e6f6e2d636f6044820152651b9d1c9858dd60d21b60648201526084015b60405180910390fd5b600080856001600160a01b03168560405161014b91906101de565b600060405180830381855af49150503d8060008114610186576040519150601f19603f3d011682016040523d82523d6000602084013e61018b565b606091505b509150915061019b8282866101a5565b9695505050505050565b606083156101b457508161004e565b8251156101c45782518084602001fd5b8160405162461bcd60e51b815260040161012791906101fa565b600082516101f081846020870161022d565b9190910192915050565b602081526000825180602084015261021981604085016020870161022d565b601f01601f19169190910160400192915050565b60005b83811015610248578181015183820152602001610230565b83811115610257576000848401525b5050505056fe416464726573733a206c6f772d6c6576656c2064656c65676174652063616c6c206661696c6564a2646970667358221220fb537d1df0a2f3ea0050d30fb82ca020f06a83116d3853b9eda518a67b0c9be764736f6c63430008070033416464726573733a206c6f772d6c6576656c2064656c65676174652063616c6c206661696c6564360894a13ba1a3210667c828492db98dca3e2076cc3735a920a3ca505d382bbc416464726573733a206c6f772d6c6576656c2064656c65676174652063616c6c206661696c6564a26469706673582212201e7cf25400d085a47352c024936a64d6401e7ee226eb59df84771312e67182e864736f6c63430008070033",
  "devdoc": {
    "kind": "dev",
    "methods": {
      "constructor": {
        "custom:oz-upgrades-unsafe-allow": "constructor"
      },
      "onERC721Received(address,address,uint256,bytes)": {
        "details": "See {IERC721Receiver-onERC721Received}. Always returns `IERC721Receiver.onERC721Received.selector`."
      },
      "proxiableUUID()": {
        "details": "Implementation of the ERC1822 {proxiableUUID} function. This returns the storage slot used by the implementation. It is used to validate that the this implementation remains valid after an upgrade. IMPORTANT: A proxy pointing at a proxiable contract should not be considered proxiable itself, because this risks bricking a proxy that upgrades to it, by delegating to itself until out of gas. Thus it is critical that this function revert if invoked through a proxy. This is guaranteed by the `notDelegated` modifier."
      },
      "supportsInterface(bytes4)": {
        "details": "See {IERC165-supportsInterface}."
      },
      "upgradeTo(address)": {
        "details": "Upgrade the implementation of the proxy to `newImplementation`. Calls {_authorizeUpgrade}. Emits an {Upgraded} event."
      },
      "upgradeToAndCall(address,bytes)": {
        "details": "Upgrade the implementation of the proxy to `newImplementation`, and subsequently execute the function call encoded in `data`. Calls {_authorizeUpgrade}. Emits an {Upgraded} event."
      }
    },
    "version": 1
  },
  "userdoc": {
    "kind": "user",
    "methods": {},
    "version": 1
  },
  "storageLayout": {
    "storage": [
      {
        "astId": 3247,
        "contract": "contracts/Dao.sol:Dao",
        "label": "_initialized",
        "offset": 0,
        "slot": "0",
        "type": "t_uint8"
      },
      {
        "astId": 3250,
        "contract": "contracts/Dao.sol:Dao",
        "label": "_initializing",
        "offset": 1,
        "slot": "0",
        "type": "t_bool"
      },
      {
        "astId": 3229,
        "contract": "contracts/Dao.sol:Dao",
        "label": "__gap",
        "offset": 0,
        "slot": "1",
        "type": "t_array(t_uint256)50_storage"
      },
      {
        "astId": 3526,
        "contract": "contracts/Dao.sol:Dao",
        "label": "__gap",
        "offset": 0,
        "slot": "51",
        "type": "t_array(t_uint256)50_storage"
      },
      {
        "astId": 8123,
        "contract": "contracts/Dao.sol:Dao",
        "label": "__gap",
        "offset": 0,
        "slot": "101",
        "type": "t_array(t_uint256)50_storage"
      },
      {
        "astId": 9798,
        "contract": "contracts/Dao.sol:Dao",
        "label": "__gap",
        "offset": 0,
        "slot": "151",
        "type": "t_array(t_uint256)50_storage"
      },
      {
        "astId": 5074,
        "contract": "contracts/Dao.sol:Dao",
        "label": "__gap",
        "offset": 0,
        "slot": "201",
        "type": "t_array(t_uint256)50_storage"
      },
      {
        "astId": 5020,
        "contract": "contracts/Dao.sol:Dao",
        "label": "__gap",
        "offset": 0,
        "slot": "251",
        "type": "t_array(t_uint256)50_storage"
      },
      {
        "astId": 28860,
        "contract": "contracts/Dao.sol:Dao",
        "label": "_team",
        "offset": 0,
        "slot": "301",
        "type": "t_address"
      },
      {
        "astId": 28864,
        "contract": "contracts/Dao.sol:Dao",
        "label": "_budgetApprovals",
        "offset": 0,
        "slot": "302",
        "type": "t_mapping(t_address,t_bool)"
      },
      {
        "astId": 29127,
        "contract": "contracts/Dao.sol:Dao",
        "label": "__gap",
        "offset": 0,
        "slot": "303",
        "type": "t_array(t_uint256)50_storage"
      },
      {
        "astId": 21405,
        "contract": "contracts/Dao.sol:Dao",
        "label": "memberToken",
        "offset": 0,
        "slot": "353",
        "type": "t_address"
      },
      {
        "astId": 21407,
        "contract": "contracts/Dao.sol:Dao",
        "label": "creator",
        "offset": 0,
        "slot": "354",
        "type": "t_address"
      },
      {
        "astId": 21409,
        "contract": "contracts/Dao.sol:Dao",
        "label": "adam",
        "offset": 0,
        "slot": "355",
        "type": "t_address"
      },
      {
        "astId": 21411,
        "contract": "contracts/Dao.sol:Dao",
        "label": "membership",
        "offset": 0,
        "slot": "356",
        "type": "t_address"
      },
      {
        "astId": 21413,
        "contract": "contracts/Dao.sol:Dao",
        "label": "liquidPool",
        "offset": 0,
        "slot": "357",
        "type": "t_address"
      },
      {
        "astId": 21415,
        "contract": "contracts/Dao.sol:Dao",
        "label": "governFactory",
        "offset": 0,
        "slot": "358",
        "type": "t_address"
      },
      {
        "astId": 21417,
        "contract": "contracts/Dao.sol:Dao",
        "label": "name",
        "offset": 0,
        "slot": "359",
        "type": "t_string_storage"
      },
      {
        "astId": 21419,
        "contract": "contracts/Dao.sol:Dao",
        "label": "locktime",
        "offset": 0,
        "slot": "360",
        "type": "t_uint256"
      },
      {
        "astId": 21421,
        "contract": "contracts/Dao.sol:Dao",
        "label": "minDepositAmount",
        "offset": 0,
        "slot": "361",
        "type": "t_uint256"
      },
      {
        "astId": 21423,
        "contract": "contracts/Dao.sol:Dao",
        "label": "baseCurrency",
        "offset": 0,
        "slot": "362",
        "type": "t_address"
      },
      {
        "astId": 21425,
        "contract": "contracts/Dao.sol:Dao",
        "label": "logoCID",
        "offset": 0,
        "slot": "363",
        "type": "t_string_storage"
      },
      {
        "astId": 21428,
        "contract": "contracts/Dao.sol:Dao",
        "label": "admissionTokens",
        "offset": 0,
        "slot": "364",
        "type": "t_array(t_address)dyn_storage"
      },
      {
        "astId": 21430,
        "contract": "contracts/Dao.sol:Dao",
        "label": "_initializing",
        "offset": 0,
        "slot": "365",
        "type": "t_bool"
      },
      {
        "astId": 21434,
        "contract": "contracts/Dao.sol:Dao",
        "label": "firstDepositTime",
        "offset": 0,
        "slot": "366",
        "type": "t_mapping(t_address,t_uint256)"
      },
      {
        "astId": 21438,
        "contract": "contracts/Dao.sol:Dao",
        "label": "isAssetSupported",
        "offset": 0,
        "slot": "367",
        "type": "t_mapping(t_address,t_bool)"
      },
      {
        "astId": 21442,
        "contract": "contracts/Dao.sol:Dao",
        "label": "teamWhitelist",
        "offset": 0,
        "slot": "368",
        "type": "t_mapping(t_uint256,t_bool)"
      },
      {
        "astId": 21447,
        "contract": "contracts/Dao.sol:Dao",
        "label": "admissionTokenSetting",
        "offset": 0,
        "slot": "369",
        "type": "t_mapping(t_address,t_struct(AdmissionTokenSetting)21399_storage)"
      },
      {
        "astId": 22906,
        "contract": "contracts/Dao.sol:Dao",
        "label": "__gap",
        "offset": 0,
        "slot": "370",
        "type": "t_array(t_uint256)49_storage"
      }
    ],
    "types": {
      "t_address": {
        "encoding": "inplace",
        "label": "address",
        "numberOfBytes": "20"
      },
      "t_array(t_address)dyn_storage": {
        "base": "t_address",
        "encoding": "dynamic_array",
        "label": "address[]",
        "numberOfBytes": "32"
      },
      "t_array(t_uint256)49_storage": {
        "base": "t_uint256",
        "encoding": "inplace",
        "label": "uint256[49]",
        "numberOfBytes": "1568"
      },
      "t_array(t_uint256)50_storage": {
        "base": "t_uint256",
        "encoding": "inplace",
        "label": "uint256[50]",
        "numberOfBytes": "1600"
      },
      "t_bool": {
        "encoding": "inplace",
        "label": "bool",
        "numberOfBytes": "1"
      },
      "t_mapping(t_address,t_bool)": {
        "encoding": "mapping",
        "key": "t_address",
        "label": "mapping(address => bool)",
        "numberOfBytes": "32",
        "value": "t_bool"
      },
      "t_mapping(t_address,t_struct(AdmissionTokenSetting)21399_storage)": {
        "encoding": "mapping",
        "key": "t_address",
        "label": "mapping(address => struct Dao.AdmissionTokenSetting)",
        "numberOfBytes": "32",
        "value": "t_struct(AdmissionTokenSetting)21399_storage"
      },
      "t_mapping(t_address,t_uint256)": {
        "encoding": "mapping",
        "key": "t_address",
        "label": "mapping(address => uint256)",
        "numberOfBytes": "32",
        "value": "t_uint256"
      },
      "t_mapping(t_uint256,t_bool)": {
        "encoding": "mapping",
        "key": "t_uint256",
        "label": "mapping(uint256 => bool)",
        "numberOfBytes": "32",
        "value": "t_bool"
      },
      "t_string_storage": {
        "encoding": "bytes",
        "label": "string",
        "numberOfBytes": "32"
      },
      "t_struct(AdmissionTokenSetting)21399_storage": {
        "encoding": "inplace",
        "label": "struct Dao.AdmissionTokenSetting",
        "members": [
          {
            "astId": 21394,
            "contract": "contracts/Dao.sol:Dao",
            "label": "minTokenToAdmit",
            "offset": 0,
            "slot": "0",
            "type": "t_uint256"
          },
          {
            "astId": 21396,
            "contract": "contracts/Dao.sol:Dao",
            "label": "tokenId",
            "offset": 0,
            "slot": "1",
            "type": "t_uint256"
          },
          {
            "astId": 21398,
            "contract": "contracts/Dao.sol:Dao",
            "label": "active",
            "offset": 0,
            "slot": "2",
            "type": "t_bool"
          }
        ],
        "numberOfBytes": "96"
      },
      "t_uint256": {
        "encoding": "inplace",
        "label": "uint256",
        "numberOfBytes": "32"
      },
      "t_uint8": {
        "encoding": "inplace",
        "label": "uint8",
        "numberOfBytes": "1"
      }
    }
  }
}