{
  "address": "0xA19aE58d8B0CB46418f6360744Fece3474212f66",
  "abi": [
    {
      "inputs": [],
      "stateMutability": "nonpayable",
      "type": "constructor"
    },
    {
      "inputs": [],
      "name": "Empty",
      "type": "error"
    },
    {
      "anonymous": false,
      "inputs": [
        {
          "indexed": false,
          "internalType": "address",
          "name": "previousAdmin",
          "type": "address"
        },
        {
          "indexed": false,
          "internalType": "address",
          "name": "newAdmin",
          "type": "address"
        }
      ],
      "name": "AdminChanged",
      "type": "event"
    },
    {
      "anonymous": false,
      "inputs": [
        {
          "indexed": true,
          "internalType": "address",
          "name": "beacon",
          "type": "address"
        }
      ],
      "name": "BeaconUpgraded",
      "type": "event"
    },
    {
      "anonymous": false,
      "inputs": [
        {
          "indexed": false,
          "internalType": "uint8",
          "name": "version",
          "type": "uint8"
        }
      ],
      "name": "Initialized",
      "type": "event"
    },
    {
      "anonymous": false,
      "inputs": [
        {
          "indexed": false,
          "internalType": "uint256",
          "name": "proposalId",
          "type": "uint256"
        }
      ],
      "name": "ProposalCanceled",
      "type": "event"
    },
    {
      "anonymous": false,
      "inputs": [
        {
          "indexed": false,
          "internalType": "uint256",
          "name": "proposalId",
          "type": "uint256"
        },
        {
          "indexed": false,
          "internalType": "address",
          "name": "proposer",
          "type": "address"
        },
        {
          "indexed": false,
          "internalType": "address[]",
          "name": "targets",
          "type": "address[]"
        },
        {
          "indexed": false,
          "internalType": "uint256[]",
          "name": "values",
          "type": "uint256[]"
        },
        {
          "indexed": false,
          "internalType": "string[]",
          "name": "signatures",
          "type": "string[]"
        },
        {
          "indexed": false,
          "internalType": "bytes[]",
          "name": "calldatas",
          "type": "bytes[]"
        },
        {
          "indexed": false,
          "internalType": "uint256",
          "name": "startBlock",
          "type": "uint256"
        },
        {
          "indexed": false,
          "internalType": "uint256",
          "name": "endBlock",
          "type": "uint256"
        },
        {
          "indexed": false,
          "internalType": "string",
          "name": "description",
          "type": "string"
        }
      ],
      "name": "ProposalCreated",
      "type": "event"
    },
    {
      "anonymous": false,
      "inputs": [
        {
          "indexed": false,
          "internalType": "uint256",
          "name": "proposalId",
          "type": "uint256"
        }
      ],
      "name": "ProposalExecuted",
      "type": "event"
    },
    {
      "anonymous": false,
      "inputs": [
        {
          "indexed": true,
          "internalType": "address",
          "name": "implementation",
          "type": "address"
        }
      ],
      "name": "Upgraded",
      "type": "event"
    },
    {
      "anonymous": false,
      "inputs": [
        {
          "indexed": true,
          "internalType": "address",
          "name": "voter",
          "type": "address"
        },
        {
          "indexed": false,
          "internalType": "uint256",
          "name": "proposalId",
          "type": "uint256"
        },
        {
          "indexed": false,
          "internalType": "uint8",
          "name": "support",
          "type": "uint8"
        },
        {
          "indexed": false,
          "internalType": "uint256",
          "name": "weight",
          "type": "uint256"
        },
        {
          "indexed": false,
          "internalType": "string",
          "name": "reason",
          "type": "string"
        }
      ],
      "name": "VoteCast",
      "type": "event"
    },
    {
      "anonymous": false,
      "inputs": [
        {
          "indexed": true,
          "internalType": "address",
          "name": "voter",
          "type": "address"
        },
        {
          "indexed": false,
          "internalType": "uint256",
          "name": "proposalId",
          "type": "uint256"
        },
        {
          "indexed": false,
          "internalType": "uint8",
          "name": "support",
          "type": "uint8"
        },
        {
          "indexed": false,
          "internalType": "uint256",
          "name": "weight",
          "type": "uint256"
        },
        {
          "indexed": false,
          "internalType": "string",
          "name": "reason",
          "type": "string"
        },
        {
          "indexed": false,
          "internalType": "bytes",
          "name": "params",
          "type": "bytes"
        }
      ],
      "name": "VoteCastWithParams",
      "type": "event"
    },
    {
      "inputs": [],
      "name": "BALLOT_TYPEHASH",
      "outputs": [
        {
          "internalType": "bytes32",
          "name": "",
          "type": "bytes32"
        }
      ],
      "stateMutability": "view",
      "type": "function"
    },
    {
      "inputs": [],
      "name": "COUNTING_MODE",
      "outputs": [
        {
          "internalType": "string",
          "name": "",
          "type": "string"
        }
      ],
      "stateMutability": "pure",
      "type": "function"
    },
    {
      "inputs": [],
      "name": "EXTENDED_BALLOT_TYPEHASH",
      "outputs": [
        {
          "internalType": "bytes32",
          "name": "",
          "type": "bytes32"
        }
      ],
      "stateMutability": "view",
      "type": "function"
    },
    {
      "inputs": [
        {
          "internalType": "uint256",
          "name": "proposalId",
          "type": "uint256"
        },
        {
          "internalType": "uint8",
          "name": "support",
          "type": "uint8"
        }
      ],
      "name": "castVote",
      "outputs": [
        {
          "internalType": "uint256",
          "name": "",
          "type": "uint256"
        }
      ],
      "stateMutability": "nonpayable",
      "type": "function"
    },
    {
      "inputs": [
        {
          "internalType": "uint256",
          "name": "proposalId",
          "type": "uint256"
        },
        {
          "internalType": "uint8",
          "name": "support",
          "type": "uint8"
        },
        {
          "internalType": "uint8",
          "name": "v",
          "type": "uint8"
        },
        {
          "internalType": "bytes32",
          "name": "r",
          "type": "bytes32"
        },
        {
          "internalType": "bytes32",
          "name": "s",
          "type": "bytes32"
        }
      ],
      "name": "castVoteBySig",
      "outputs": [
        {
          "internalType": "uint256",
          "name": "",
          "type": "uint256"
        }
      ],
      "stateMutability": "nonpayable",
      "type": "function"
    },
    {
      "inputs": [
        {
          "internalType": "uint256",
          "name": "proposalId",
          "type": "uint256"
        },
        {
          "internalType": "uint8",
          "name": "support",
          "type": "uint8"
        },
        {
          "internalType": "string",
          "name": "reason",
          "type": "string"
        }
      ],
      "name": "castVoteWithReason",
      "outputs": [
        {
          "internalType": "uint256",
          "name": "",
          "type": "uint256"
        }
      ],
      "stateMutability": "nonpayable",
      "type": "function"
    },
    {
      "inputs": [
        {
          "internalType": "uint256",
          "name": "proposalId",
          "type": "uint256"
        },
        {
          "internalType": "uint8",
          "name": "support",
          "type": "uint8"
        },
        {
          "internalType": "string",
          "name": "reason",
          "type": "string"
        },
        {
          "internalType": "bytes",
          "name": "params",
          "type": "bytes"
        }
      ],
      "name": "castVoteWithReasonAndParams",
      "outputs": [
        {
          "internalType": "uint256",
          "name": "",
          "type": "uint256"
        }
      ],
      "stateMutability": "nonpayable",
      "type": "function"
    },
    {
      "inputs": [
        {
          "internalType": "uint256",
          "name": "proposalId",
          "type": "uint256"
        },
        {
          "internalType": "uint8",
          "name": "support",
          "type": "uint8"
        },
        {
          "internalType": "string",
          "name": "reason",
          "type": "string"
        },
        {
          "internalType": "bytes",
          "name": "params",
          "type": "bytes"
        },
        {
          "internalType": "uint8",
          "name": "v",
          "type": "uint8"
        },
        {
          "internalType": "bytes32",
          "name": "r",
          "type": "bytes32"
        },
        {
          "internalType": "bytes32",
          "name": "s",
          "type": "bytes32"
        }
      ],
      "name": "castVoteWithReasonAndParamsBySig",
      "outputs": [
        {
          "internalType": "uint256",
          "name": "",
          "type": "uint256"
        }
      ],
      "stateMutability": "nonpayable",
      "type": "function"
    },
    {
      "inputs": [],
      "name": "duration",
      "outputs": [
        {
          "internalType": "uint256",
          "name": "",
          "type": "uint256"
        }
      ],
      "stateMutability": "view",
      "type": "function"
    },
    {
      "inputs": [],
      "name": "durationInBlock",
      "outputs": [
        {
          "internalType": "uint256",
          "name": "",
          "type": "uint256"
        }
      ],
      "stateMutability": "view",
      "type": "function"
    },
    {
      "inputs": [
        {
          "internalType": "address[]",
          "name": "targets",
          "type": "address[]"
        },
        {
          "internalType": "uint256[]",
          "name": "values",
          "type": "uint256[]"
        },
        {
          "internalType": "bytes[]",
          "name": "calldatas",
          "type": "bytes[]"
        },
        {
          "internalType": "bytes32",
          "name": "descriptionHash",
          "type": "bytes32"
        }
      ],
      "name": "execute",
      "outputs": [
        {
          "internalType": "uint256",
          "name": "",
          "type": "uint256"
        }
      ],
      "stateMutability": "payable",
      "type": "function"
    },
    {
      "inputs": [
        {
          "internalType": "uint256",
          "name": "proposalId",
          "type": "uint256"
        },
        {
          "internalType": "uint8",
          "name": "support",
          "type": "uint8"
        }
      ],
      "name": "getProposalVote",
      "outputs": [
        {
          "internalType": "uint256",
          "name": "",
          "type": "uint256"
        }
      ],
      "stateMutability": "view",
      "type": "function"
    },
    {
      "inputs": [
        {
          "internalType": "address",
          "name": "account",
          "type": "address"
        },
        {
          "internalType": "uint256",
          "name": "blockNumber",
          "type": "uint256"
        }
      ],
      "name": "getVotes",
      "outputs": [
        {
          "internalType": "uint256",
          "name": "",
          "type": "uint256"
        }
      ],
      "stateMutability": "view",
      "type": "function"
    },
    {
      "inputs": [
        {
          "internalType": "address",
          "name": "account",
          "type": "address"
        },
        {
          "internalType": "uint256",
          "name": "blockNumber",
          "type": "uint256"
        },
        {
          "internalType": "bytes",
          "name": "params",
          "type": "bytes"
        }
      ],
      "name": "getVotesWithParams",
      "outputs": [
        {
          "internalType": "uint256",
          "name": "",
          "type": "uint256"
        }
      ],
      "stateMutability": "view",
      "type": "function"
    },
    {
      "inputs": [
        {
          "internalType": "uint256",
          "name": "proposalId",
          "type": "uint256"
        },
        {
          "internalType": "address",
          "name": "account",
          "type": "address"
        }
      ],
      "name": "hasVoted",
      "outputs": [
        {
          "internalType": "bool",
          "name": "",
          "type": "bool"
        }
      ],
      "stateMutability": "view",
      "type": "function"
    },
    {
      "inputs": [
        {
          "internalType": "address[]",
          "name": "targets",
          "type": "address[]"
        },
        {
          "internalType": "uint256[]",
          "name": "values",
          "type": "uint256[]"
        },
        {
          "internalType": "bytes[]",
          "name": "calldatas",
          "type": "bytes[]"
        },
        {
          "internalType": "bytes32",
          "name": "descriptionHash",
          "type": "bytes32"
        }
      ],
      "name": "hashProposal",
      "outputs": [
        {
          "internalType": "uint256",
          "name": "",
          "type": "uint256"
        }
      ],
      "stateMutability": "pure",
      "type": "function"
    },
    {
      "inputs": [
        {
          "internalType": "address",
          "name": "_owner",
          "type": "address"
        },
        {
          "internalType": "string",
          "name": "_name",
          "type": "string"
        },
        {
          "internalType": "uint256",
          "name": "_duration",
          "type": "uint256"
        },
        {
          "internalType": "uint256",
          "name": "_quorum",
          "type": "uint256"
        },
        {
          "internalType": "uint256",
          "name": "_passThreshold",
          "type": "uint256"
        },
        {
          "internalType": "address",
          "name": "_voteToken",
          "type": "address"
        },
        {
          "internalType": "uint256",
          "name": "_durationInBlock",
          "type": "uint256"
        }
      ],
      "name": "initialize",
      "outputs": [],
      "stateMutability": "nonpayable",
      "type": "function"
    },
    {
      "inputs": [],
      "name": "name",
      "outputs": [
        {
          "internalType": "string",
          "name": "",
          "type": "string"
        }
      ],
      "stateMutability": "view",
      "type": "function"
    },
    {
      "inputs": [
        {
          "internalType": "address",
          "name": "",
          "type": "address"
        },
        {
          "internalType": "address",
          "name": "",
          "type": "address"
        },
        {
          "internalType": "uint256[]",
          "name": "",
          "type": "uint256[]"
        },
        {
          "internalType": "uint256[]",
          "name": "",
          "type": "uint256[]"
        },
        {
          "internalType": "bytes",
          "name": "",
          "type": "bytes"
        }
      ],
      "name": "onERC1155BatchReceived",
      "outputs": [
        {
          "internalType": "bytes4",
          "name": "",
          "type": "bytes4"
        }
      ],
      "stateMutability": "nonpayable",
      "type": "function"
    },
    {
      "inputs": [
        {
          "internalType": "address",
          "name": "",
          "type": "address"
        },
        {
          "internalType": "address",
          "name": "",
          "type": "address"
        },
        {
          "internalType": "uint256",
          "name": "",
          "type": "uint256"
        },
        {
          "internalType": "uint256",
          "name": "",
          "type": "uint256"
        },
        {
          "internalType": "bytes",
          "name": "",
          "type": "bytes"
        }
      ],
      "name": "onERC1155Received",
      "outputs": [
        {
          "internalType": "bytes4",
          "name": "",
          "type": "bytes4"
        }
      ],
      "stateMutability": "nonpayable",
      "type": "function"
    },
    {
      "inputs": [
        {
          "internalType": "address",
          "name": "",
          "type": "address"
        },
        {
          "internalType": "address",
          "name": "",
          "type": "address"
        },
        {
          "internalType": "uint256",
          "name": "",
          "type": "uint256"
        },
        {
          "internalType": "bytes",
          "name": "",
          "type": "bytes"
        }
      ],
      "name": "onERC721Received",
      "outputs": [
        {
          "internalType": "bytes4",
          "name": "",
          "type": "bytes4"
        }
      ],
      "stateMutability": "nonpayable",
      "type": "function"
    },
    {
      "inputs": [],
      "name": "owner",
      "outputs": [
        {
          "internalType": "address",
          "name": "",
          "type": "address"
        }
      ],
      "stateMutability": "view",
      "type": "function"
    },
    {
      "inputs": [],
      "name": "passThreshold",
      "outputs": [
        {
          "internalType": "uint256",
          "name": "",
          "type": "uint256"
        }
      ],
      "stateMutability": "view",
      "type": "function"
    },
    {
      "inputs": [
        {
          "internalType": "uint256",
          "name": "proposalId",
          "type": "uint256"
        }
      ],
      "name": "proposalDeadline",
      "outputs": [
        {
          "internalType": "uint256",
          "name": "",
          "type": "uint256"
        }
      ],
      "stateMutability": "view",
      "type": "function"
    },
    {
      "inputs": [
        {
          "internalType": "uint256",
          "name": "proposalId",
          "type": "uint256"
        }
      ],
      "name": "proposalSnapshot",
      "outputs": [
        {
          "internalType": "uint256",
          "name": "",
          "type": "uint256"
        }
      ],
      "stateMutability": "view",
      "type": "function"
    },
    {
      "inputs": [],
      "name": "proposalThreshold",
      "outputs": [
        {
          "internalType": "uint256",
          "name": "",
          "type": "uint256"
        }
      ],
      "stateMutability": "pure",
      "type": "function"
    },
    {
      "inputs": [
        {
          "internalType": "address[]",
          "name": "targets",
          "type": "address[]"
        },
        {
          "internalType": "uint256[]",
          "name": "values",
          "type": "uint256[]"
        },
        {
          "internalType": "bytes[]",
          "name": "calldatas",
          "type": "bytes[]"
        },
        {
          "internalType": "string",
          "name": "description",
          "type": "string"
        }
      ],
      "name": "propose",
      "outputs": [
        {
          "internalType": "uint256",
          "name": "",
          "type": "uint256"
        }
      ],
      "stateMutability": "nonpayable",
      "type": "function"
    },
    {
      "inputs": [],
      "name": "proxiableUUID",
      "outputs": [
        {
          "internalType": "bytes32",
          "name": "",
          "type": "bytes32"
        }
      ],
      "stateMutability": "view",
      "type": "function"
    },
    {
      "inputs": [
        {
          "internalType": "uint256",
          "name": "blockNumber",
          "type": "uint256"
        }
      ],
      "name": "quorum",
      "outputs": [
        {
          "internalType": "uint256",
          "name": "",
          "type": "uint256"
        }
      ],
      "stateMutability": "view",
      "type": "function"
    },
    {
      "inputs": [
        {
          "internalType": "uint256",
          "name": "proposalId",
          "type": "uint256"
        }
      ],
      "name": "quorumReached",
      "outputs": [
        {
          "internalType": "bool",
          "name": "",
          "type": "bool"
        }
      ],
      "stateMutability": "view",
      "type": "function"
    },
    {
      "inputs": [],
      "name": "quorumThreshold",
      "outputs": [
        {
          "internalType": "uint256",
          "name": "",
          "type": "uint256"
        }
      ],
      "stateMutability": "view",
      "type": "function"
    },
    {
      "inputs": [
        {
          "internalType": "address",
          "name": "target",
          "type": "address"
        },
        {
          "internalType": "uint256",
          "name": "value",
          "type": "uint256"
        },
        {
          "internalType": "bytes",
          "name": "data",
          "type": "bytes"
        }
      ],
      "name": "relay",
      "outputs": [],
      "stateMutability": "nonpayable",
      "type": "function"
    },
    {
      "inputs": [
        {
          "internalType": "uint256",
          "name": "proposalId",
          "type": "uint256"
        }
      ],
      "name": "state",
      "outputs": [
        {
          "internalType": "enum IGovernorUpgradeable.ProposalState",
          "name": "",
          "type": "uint8"
        }
      ],
      "stateMutability": "view",
      "type": "function"
    },
    {
      "inputs": [
        {
          "internalType": "bytes4",
          "name": "interfaceId",
          "type": "bytes4"
        }
      ],
      "name": "supportsInterface",
      "outputs": [
        {
          "internalType": "bool",
          "name": "",
          "type": "bool"
        }
      ],
      "stateMutability": "view",
      "type": "function"
    },
    {
      "inputs": [
        {
          "internalType": "uint256",
          "name": "blockNumber",
          "type": "uint256"
        }
      ],
      "name": "totalPastSupply",
      "outputs": [
        {
          "internalType": "uint256",
          "name": "",
          "type": "uint256"
        }
      ],
      "stateMutability": "view",
      "type": "function"
    },
    {
      "inputs": [
        {
          "internalType": "address",
          "name": "newImplementation",
          "type": "address"
        }
      ],
      "name": "upgradeTo",
      "outputs": [],
      "stateMutability": "nonpayable",
      "type": "function"
    },
    {
      "inputs": [
        {
          "internalType": "address",
          "name": "newImplementation",
          "type": "address"
        },
        {
          "internalType": "bytes",
          "name": "data",
          "type": "bytes"
        }
      ],
      "name": "upgradeToAndCall",
      "outputs": [],
      "stateMutability": "payable",
      "type": "function"
    },
    {
      "inputs": [],
      "name": "version",
      "outputs": [
        {
          "internalType": "string",
          "name": "",
          "type": "string"
        }
      ],
      "stateMutability": "view",
      "type": "function"
    },
    {
      "inputs": [
        {
          "internalType": "uint256",
          "name": "proposalId",
          "type": "uint256"
        }
      ],
      "name": "voteSucceeded",
      "outputs": [
        {
          "internalType": "bool",
          "name": "",
          "type": "bool"
        }
      ],
      "stateMutability": "view",
      "type": "function"
    },
    {
      "inputs": [],
      "name": "voteToken",
      "outputs": [
        {
          "internalType": "address",
          "name": "",
          "type": "address"
        }
      ],
      "stateMutability": "view",
      "type": "function"
    },
    {
      "inputs": [],
      "name": "votingDelay",
      "outputs": [
        {
          "internalType": "uint256",
          "name": "",
          "type": "uint256"
        }
      ],
      "stateMutability": "pure",
      "type": "function"
    },
    {
      "inputs": [],
      "name": "votingPeriod",
      "outputs": [
        {
          "internalType": "uint256",
          "name": "",
          "type": "uint256"
        }
      ],
      "stateMutability": "view",
      "type": "function"
    },
    {
      "stateMutability": "payable",
      "type": "receive"
    }
  ],
  "transactionHash": "0xd906cb489ac98c032c5f2b21a284d25ec50b6d41501696ff436bd92919bb6972",
  "args": [],
  "numDeployments": 1,
  "solcInputHash": "617768e4cbd0903b45ec3ed7d5da7789",
  "bytecode": "0x60a06040523060601b6080523480156200001857600080fd5b506200002362000029565b620000eb565b600054610100900460ff1615620000965760405162461bcd60e51b815260206004820152602760248201527f496e697469616c697a61626c653a20636f6e747261637420697320696e697469604482015266616c697a696e6760c81b606482015260840160405180910390fd5b60005460ff9081161015620000e9576000805460ff191660ff9081179091556040519081527f7f26b83ff96e1f2b6a682f133852f6798a09c465da95921460cefb38474024989060200160405180910390a15b565b60805160601c613a316200012660003960008181610d7b01528181610dbb01528181611076015281816110b601526111490152613a316000f3fe6080604052600436106102555760003560e01c806354fd4d5011610139578063bc197c81116100b6578063dc5dadc01161007a578063dc5dadc014610728578063dd4e2ba514610748578063deaaa7cc1461078e578063eb9019d4146107c2578063f23a6e61146107e2578063f8ce560a1461080e57600080fd5b8063bc197c811461067c578063c01f9e37146106a8578063c28bc2fa146106c8578063c59057e4146106e8578063d4a8dd981461070857600080fd5b80637d5e81e2116100fd5780637d5e81e2146105fb5780638d73b0311461061b5780638da5cb5b1461063b5780639a802a6d1461065c578063b58131b01461044f57600080fd5b806354fd4d501461055a57806356781388146105845780635f398a14146105a45780637b3c71d3146105c45780637b7a91dd146105e457600080fd5b80632d63f693116101d25780633e4f49e6116101965780633e4f49e61461048357806343859632146104b057806345f3c4d6146104fb5780634b3a9a2c1461051b5780634f1ef2861461053257806352d1902d1461054557600080fd5b80632d63f693146103db5780632fe3e261146103fb5780633659cfe61461042f5780633932abb11461044f5780633bccf4fd1461046357600080fd5b8063150b7a0211610219578063150b7a0214610314578063160d66ae146103585780631fc93059146103915780632656227d146103a85780632b78b0a4146103bb57600080fd5b806301ffc9a71461026357806302a251a31461029857806303420181146102bb57806306fdde03146102db5780630fb5a6b4146102fd57600080fd5b3661025e57005b005b600080fd5b34801561026f57600080fd5b5061028361027e366004613144565b61082e565b60405190151581526020015b60405180910390f35b3480156102a457600080fd5b506102ad61089b565b60405190815260200161028f565b3480156102c757600080fd5b506102ad6102d6366004613280565b6108c0565b3480156102e757600080fd5b506102f06109b8565b60405161028f9190613508565b34801561030957600080fd5b506102ad6101625481565b34801561032057600080fd5b5061033f61032f366004612d87565b630a85bd0160e11b949350505050565b6040516001600160e01b0319909116815260200161028f565b34801561036457600080fd5b5061016554610379906001600160a01b031681565b6040516001600160a01b03909116815260200161028f565b34801561039d57600080fd5b506102ad6101675481565b6102ad6103b6366004612ffc565b610a4b565b3480156103c757600080fd5b5061025c6103d6366004612e9f565b610ad0565b3480156103e757600080fd5b506102ad6103f636600461316e565b610d38565b34801561040757600080fd5b506102ad7fb3b3f3b703cd84ce352197dcff232b1b5d3cfb2025ce47cf04742d0651f1af8881565b34801561043b57600080fd5b5061025c61044a366004612cc3565b610d70565b34801561045b57600080fd5b5060006102ad565b34801561046f57600080fd5b506102ad61047e366004613326565b610e50565b34801561048f57600080fd5b506104a361049e36600461316e565b610ec6565b60405161028f91906134e0565b3480156104bc57600080fd5b506102836104cb366004613187565b6000828152610166602090815260408083206001600160a01b038516845260030190915290205460ff1692915050565b34801561050757600080fd5b506102ad6105163660046131b3565b610fc4565b34801561052757600080fd5b506102ad6101645481565b61025c610540366004612e52565b61106b565b34801561055157600080fd5b506102ad61113c565b34801561056657600080fd5b506040805180820190915260018152603160f81b60208201526102f0565b34801561059057600080fd5b506102ad61059f3660046131b3565b6111ef565b3480156105b057600080fd5b506102ad6105bf366004613217565b611218565b3480156105d057600080fd5b506102ad6105df3660046131d6565b611262565b3480156105f057600080fd5b506102ad6101635481565b34801561060757600080fd5b506102ad61061636600461308b565b6112b4565b34801561062757600080fd5b5061028361063636600461316e565b61156f565b34801561064757600080fd5b5061016154610379906001600160a01b031681565b34801561066857600080fd5b506102ad610677366004612fa6565b61157a565b34801561068857600080fd5b5061033f610697366004612cde565b63bc197c8160e01b95945050505050565b3480156106b457600080fd5b506102ad6106c336600461316e565b611591565b3480156106d457600080fd5b5061025c6106e3366004612f4d565b6115c1565b3480156106f457600080fd5b506102ad610703366004612ffc565b611676565b34801561071457600080fd5b5061028361072336600461316e565b6116b0565b34801561073457600080fd5b506102ad61074336600461316e565b6116bb565b34801561075457600080fd5b506040805180820190915260208082527f737570706f72743d627261766f2671756f72756d3d666f722c616761696e7374908201526102f0565b34801561079a57600080fd5b506102ad7f150214d74d59b7d1e90c73fc22ef3d991dd0a76b046543d4d80ab92d2a50328f81565b3480156107ce57600080fd5b506102ad6107dd366004612f23565b611739565b3480156107ee57600080fd5b5061033f6107fd366004612dee565b63f23a6e6160e01b95945050505050565b34801561081a57600080fd5b506102ad61082936600461316e565b61175a565b60006001600160e01b0319821663bf26d89760e01b148061085f57506001600160e01b031982166379dd796f60e01b145b8061087a57506001600160e01b03198216630271189760e51b145b8061089557506301ffc9a760e01b6001600160e01b03198316145b92915050565b6000610167546006610162546108b19190613832565b6108bb91906137ef565b905090565b60008061096461095c7fb3b3f3b703cd84ce352197dcff232b1b5d3cfb2025ce47cf04742d0651f1af888c8c8c8c6040516108fc929190613469565b60405180910390208b80519060200120604051602001610941959493929190948552602085019390935260ff9190911660408401526060830152608082015260a00190565b60405160208183030381529060405280519060200120611780565b8686866117ce565b90506109aa8a828b8b8b8080601f0160208091040260200160405190810160405280939291908181526020018383808284376000920191909152508d92506117f6915050565b9a9950505050505050505050565b606061012f80546109c8906138b6565b80601f01602080910402602001604051908101604052809291908181526020018280546109f4906138b6565b8015610a415780601f10610a1657610100808354040283529160200191610a41565b820191906000526020600020905b815481529060010190602001808311610a2457829003601f168201915b5050505050905090565b6000806001600160a01b031685600081518110610a6a57610a6a613938565b60200260200101516001600160a01b03161415610abb5760405162461bcd60e51b815260206004820152600a6024820152691b9bc818dbdb9d195b9d60b21b60448201526064015b60405180910390fd5b610ac785858585611958565b95945050505050565b600054610100900460ff1615808015610af05750600054600160ff909116105b80610b0a5750303b158015610b0a575060005460ff166001145b610b6d5760405162461bcd60e51b815260206004820152602e60248201527f496e697469616c697a61626c653a20636f6e747261637420697320616c72656160448201526d191e481a5b9a5d1a585b1a5e995960921b6064820152608401610ab2565b6000805460ff191660011790558015610b90576000805461ff0019166101001790555b610b9983611a7b565b610bf15760405162461bcd60e51b8152602060048201526024808201527f476f7665726e20546f6b656e20776974686f757420766f74696e672066756e636044820152633a34b7b760e11b6064820152608401610ab2565b6001600160a01b038816610c3f5760405162461bcd60e51b81526020600482015260156024820152744f776e65722063616e6e6f7420626520656d70747960581b6044820152606401610ab2565b6001600160a01b038316610c955760405162461bcd60e51b815260206004820152601960248201527f566f7465546f6b656e2063616e6e6f7420626520656d707479000000000000006044820152606401610ab2565b610c9e87611b8b565b61016180546001600160a01b03808b166001600160a01b0319928316179092556101628890556101638790556101648690556101658054928616929091169190911790556101678290558015610d2e576000805461ff0019169055604051600181527f7f26b83ff96e1f2b6a682f133852f6798a09c465da95921460cefb38474024989060200160405180910390a15b5050505050505050565b6000818152610130602090815260408083208151928301909152546001600160401b0316908190525b6001600160401b031692915050565b306001600160a01b037f0000000000000000000000000000000000000000000000000000000000000000161415610db95760405162461bcd60e51b8152600401610ab29061355c565b7f00000000000000000000000000000000000000000000000000000000000000006001600160a01b0316610e0260008051602061398c833981519152546001600160a01b031690565b6001600160a01b031614610e285760405162461bcd60e51b8152600401610ab2906135a8565b610e3181611be2565b60408051600080825260208201909252610e4d91839190611c2d565b50565b604080517f150214d74d59b7d1e90c73fc22ef3d991dd0a76b046543d4d80ab92d2a50328f602082015290810186905260ff851660608201526000908190610e9e9061095c90608001610941565b9050610ebb87828860405180602001604052806000815250611dac565b979650505050505050565b600081815261013060205260408120600281015460ff1615610eeb5750600792915050565b6002810154610100900460ff1615610f065750600292915050565b6000610f1184610d38565b905080610f605760405162461bcd60e51b815260206004820152601d60248201527f476f7665726e6f723a20756e6b6e6f776e2070726f706f73616c2069640000006044820152606401610ab2565b438110610f71575060009392505050565b6000610f7c85611591565b9050438110610f9057506001949350505050565b610f9985611dcf565b8015610fa95750610fa985611e09565b15610fb957506004949350505050565b506003949350505050565b60008281526101666020526040812060ff8316610fe357549050610895565b60ff831660011415610ffa57600101549050610895565b60ff83166002141561101157600201549050610895565b60405162461bcd60e51b815260206004820152602960248201527f476f7665726e6f723a20696e76616c69642076616c756520666f7220656e756d60448201526820566f74655479706560b81b6064820152608401610ab2565b306001600160a01b037f00000000000000000000000000000000000000000000000000000000000000001614156110b45760405162461bcd60e51b8152600401610ab29061355c565b7f00000000000000000000000000000000000000000000000000000000000000006001600160a01b03166110fd60008051602061398c833981519152546001600160a01b031690565b6001600160a01b0316146111235760405162461bcd60e51b8152600401610ab2906135a8565b61112c82611be2565b61113882826001611c2d565b5050565b6000306001600160a01b037f000000000000000000000000000000000000000000000000000000000000000016146111dc5760405162461bcd60e51b815260206004820152603860248201527f555550535570677261646561626c653a206d757374206e6f742062652063616c60448201527f6c6564207468726f7567682064656c656761746563616c6c00000000000000006064820152608401610ab2565b5060008051602061398c83398151915290565b60008033905061121084828560405180602001604052806000815250611dac565b949350505050565b600080339050610ebb87828888888080601f0160208091040260200160405190810160405280939291908181526020018383808284376000920191909152508a92506117f6915050565b6000803390506112aa86828787878080601f016020809104026020016040519081016040528093929190818152602001838380828437600092019190915250611dac92505050565b9695505050505050565b6000806112c6336107dd600143613873565b101561132e5760405162461bcd60e51b815260206004820152603160248201527f476f7665726e6f723a2070726f706f73657220766f7465732062656c6f7720706044820152701c9bdc1bdcd85b081d1a1c995cda1bdb19607a1b6064820152608401610ab2565b60006113438686868680519060200120611676565b905084518651146113665760405162461bcd60e51b8152600401610ab29061351b565b83518651146113875760405162461bcd60e51b8152600401610ab29061351b565b60008651116113d85760405162461bcd60e51b815260206004820152601860248201527f476f7665726e6f723a20656d7074792070726f706f73616c00000000000000006044820152606401610ab2565b60008181526101306020908152604091829020825191820190925281546001600160401b031690819052156114595760405162461bcd60e51b815260206004820152602160248201527f476f7665726e6f723a2070726f706f73616c20616c72656164792065786973746044820152607360f81b6064820152608401610ab2565b600061146981611e69565b611e69565b61147243611e69565b61147c9190613807565b9050600061148b61146461089b565b6114959083613807565b835467ffffffffffffffff19166001600160401b038416178455905060018301805467ffffffffffffffff19166001600160401b0383161790557f7d84a6263ae0d98d3329bd7b46bb4e8d6f98cd35a7adb45c274c8b7fd5ebd5e084338b8b8d516001600160401b0381111561150d5761150d61394e565b60405190808252806020026020018201604052801561154057816020015b606081526020019060019003908161152b5790505b508c88888e60405161155a9998979695949392919061363f565b60405180910390a15091979650505050505050565b600061089582611e09565b6000611587848484611ed5565b90505b9392505050565b6000818152610130602090815260408083208151928301909152600101546001600160401b031690819052610d61565b3330146116105760405162461bcd60e51b815260206004820152601860248201527f476f7665726e6f723a206f6e6c79476f7665726e616e636500000000000000006044820152606401610ab2565b61162d565b80611621610131611f5b565b1461162b57611615565b505b61166f8483838080601f016020809104026020016040519081016040528093929190818152602001838380828437600092019190915250889250611fe7915050565b5050505050565b60008484848460405160200161168f9493929190613495565b60408051601f19818403018152919052805160209091012095945050505050565b600061089582611dcf565b61016554604051632394e7a360e21b8152600481018390526000916001600160a01b031690638e539e8c9060240160206040518083038186803b15801561170157600080fd5b505afa158015611715573d6000803e3d6000fd5b505050506040513d601f19601f82011682018060405250810190610895919061312b565b600061158a838361175560408051602081019091526000815290565b611ed5565b60006127106101635461176d9190613832565b611776836116bb565b6108959190613854565b600061089561178d61200d565b8360405161190160f01b6020820152602281018390526042810182905260009060620160405160208183030381529060405280519060200120905092915050565b60008060006117df87878787612088565b915091506117ec81612175565b5095945050505050565b600085815261013060205260408120600161181088610ec6565b600781111561182157611821613922565b1461187a5760405162461bcd60e51b815260206004820152602360248201527f476f7665726e6f723a20766f7465206e6f742063757272656e746c792061637460448201526269766560e81b6064820152608401610ab2565b604080516020810190915281546001600160401b0316908190526000906118a390889086611ed5565b90506118b28888888488612330565b835161190457866001600160a01b03167fb8e138887d0aa13bab447e82de9d5c1777041ecd21ca36ba824ff1e6c07ddda4898884896040516118f7949392919061372e565b60405180910390a2610ebb565b866001600160a01b03167fe2babfbac5889a709b63bb7f598b324e08bc5a4fb9ec647fb3cbc9ec07eb87128988848989604051611945959493929190613756565b60405180910390a2979650505050505050565b60008061196786868686611676565b9050600061197482610ec6565b9050600481600781111561198a5761198a613922565b14806119a7575060058160078111156119a5576119a5613922565b145b6119fd5760405162461bcd60e51b815260206004820152602160248201527f476f7665726e6f723a2070726f706f73616c206e6f74207375636365737366756044820152601b60fa1b6064820152608401610ab2565b6000828152610130602052604090819020600201805460ff19166001179055517f712ae1383f79ac853f8d882153778e0260ef8f03b504e2866e0593e04d2b291f90611a4c9084815260200190565b60405180910390a1611a618288888888612452565b611a6e82888888886124d8565b6117ec8288888888612452565b604051632394e7a360e21b8152600060048201819052906001600160a01b03831690638e539e8c9060240160206040518083038186803b158015611abe57600080fd5b505afa925050508015611aee575060408051601f3d908101601f19168201909252611aeb9181019061312b565b60015b611afa57506000919050565b50604051630748d63560e31b8152306004820152600060248201526001600160a01b03831690633a46b1a89060440160206040518083038186803b158015611b4157600080fd5b505afa925050508015611b71575060408051601f3d908101601f19168201909252611b6e9181019061312b565b60015b611b7d57506000919050565b50600192915050565b919050565b600054610100900460ff16611bb25760405162461bcd60e51b8152600401610ab2906135f4565b611bd981611bd46040805180820190915260018152603160f81b602082015290565b6125d7565b610e4d81612618565b610161546001600160a01b03163314610e4d5760405162461bcd60e51b815260206004820152600d60248201526c1058d8d95cdcc819195b9a5959609a1b6044820152606401610ab2565b7f4910fdfa16fed3260ed0e7147f7cc6da11a60208b5b9406d12a635614ffd91435460ff1615611c6557611c6083612653565b505050565b826001600160a01b03166352d1902d6040518163ffffffff1660e01b815260040160206040518083038186803b158015611c9e57600080fd5b505afa925050508015611cce575060408051601f3d908101601f19168201909252611ccb9181019061312b565b60015b611d315760405162461bcd60e51b815260206004820152602e60248201527f45524331393637557067726164653a206e657720696d706c656d656e7461746960448201526d6f6e206973206e6f74205555505360901b6064820152608401610ab2565b60008051602061398c8339815191528114611da05760405162461bcd60e51b815260206004820152602960248201527f45524331393637557067726164653a20756e737570706f727465642070726f786044820152681a58589b195555525160ba1b6064820152608401610ab2565b50611c608383836126ef565b6000610ac785858585611dca60408051602081019091526000815290565b6117f6565b600081815261016660205260408120805460018201548391611df0916137ef565b905080611dff61082986610d38565b1115949350505050565b600081815261016660205260408120600181015481548390611e2b90836137ef565b90508015611e5e5761016454611e419082613854565b611e4c836064613854565b611e57906064613854565b1015610ac7565b600095945050505050565b60006001600160401b03821115611ed15760405162461bcd60e51b815260206004820152602660248201527f53616665436173743a2076616c756520646f65736e27742066697420696e203660448201526534206269747360d01b6064820152608401610ab2565b5090565b61016554604051630748d63560e31b81526001600160a01b038581166004830152602482018590526000921690633a46b1a89060440160206040518083038186803b158015611f2357600080fd5b505afa158015611f37573d6000803e3d6000fd5b505050506040513d601f19601f82011682018060405250810190611587919061312b565b6000611f7a8254600f81810b810b600160801b909204810b900b131590565b15611f9857604051631ed9509560e11b815260040160405180910390fd5b508054600f90810b80820b820b600090815260018085016020526040822080549290558454920190920b6001600160801b03166fffffffffffffffffffffffffffffffff199091161790915590565b60606115878484846040518060600160405280602981526020016139ac6029913961271a565b60006108bb7f8b73c3c69bb8fe3d512ecc4cf759cc79239f7b179b0ffacaa9a75d522b39400f61203c60c95490565b60ca546040805160208101859052908101839052606081018290524660808201523060a082015260009060c0016040516020818303038152906040528051906020012090509392505050565b6000807f7fffffffffffffffffffffffffffffff5d576e7357a4501ddfe92f46681b20a08311156120bf575060009050600361216c565b8460ff16601b141580156120d757508460ff16601c14155b156120e8575060009050600461216c565b6040805160008082526020820180845289905260ff881692820192909252606081018690526080810185905260019060a0016020604051602081039080840390855afa15801561213c573d6000803e3d6000fd5b5050604051601f1901519150506001600160a01b0381166121655760006001925092505061216c565b9150600090505b94509492505050565b600081600481111561218957612189613922565b14156121925750565b60018160048111156121a6576121a6613922565b14156121f45760405162461bcd60e51b815260206004820152601860248201527f45434453413a20696e76616c6964207369676e617475726500000000000000006044820152606401610ab2565b600281600481111561220857612208613922565b14156122565760405162461bcd60e51b815260206004820152601f60248201527f45434453413a20696e76616c6964207369676e6174757265206c656e677468006044820152606401610ab2565b600381600481111561226a5761226a613922565b14156122c35760405162461bcd60e51b815260206004820152602260248201527f45434453413a20696e76616c6964207369676e6174757265202773272076616c604482015261756560f01b6064820152608401610ab2565b60048160048111156122d7576122d7613922565b1415610e4d5760405162461bcd60e51b815260206004820152602260248201527f45434453413a20696e76616c6964207369676e6174757265202776272076616c604482015261756560f01b6064820152608401610ab2565b6000858152610166602090815260408083206001600160a01b0388168452600381019092529091205460ff16156123b95760405162461bcd60e51b815260206004820152602760248201527f476f7665726e6f72566f74696e6753696d706c653a20766f746520616c726561604482015266191e4818d85cdd60ca1b6064820152608401610ab2565b6001600160a01b03851660009081526003820160205260408120805460ff1916600117905560ff168460ff16141561240a57828160000160008282546123ff91906137ef565b9091555061244a9050565b60ff84166001141561242a57828160010160008282546123ff91906137ef565b60ff84166002141561101157828160020160008282546123ff91906137ef565b505050505050565b61166f565b845181101561244a57306001600160a01b031685828151811061247c5761247c613938565b60200260200101516001600160a01b031614156124c8576124c88382815181106124a8576124a8613938565b60200260200101518051906020012061013161284090919063ffffffff16565b6124d1816138f1565b9050612457565b600060405180606001604052806027815260200161396560279139905060005b85518110156125ce5760008087838151811061251657612516613938565b60200260200101516001600160a01b031687848151811061253957612539613938565b602002602001015187858151811061255357612553613938565b60200260200101516040516125689190613479565b60006040518083038185875af1925050503d80600081146125a5576040519150601f19603f3d011682016040523d82523d6000602084013e6125aa565b606091505b50915091506125ba828286612886565b505050806125c7906138f1565b90506124f8565b50505050505050565b600054610100900460ff166125fe5760405162461bcd60e51b8152600401610ab2906135f4565b81516020928301208151919092012060c99190915560ca55565b600054610100900460ff1661263f5760405162461bcd60e51b8152600401610ab2906135f4565b80516111389061012f9060208401906129ea565b6001600160a01b0381163b6126c05760405162461bcd60e51b815260206004820152602d60248201527f455243313936373a206e657720696d706c656d656e746174696f6e206973206e60448201526c1bdd08184818dbdb9d1c9858dd609a1b6064820152608401610ab2565b60008051602061398c83398151915280546001600160a01b0319166001600160a01b0392909216919091179055565b6126f8836128bf565b6000825111806127055750805b15611c605761271483836128ff565b50505050565b60608247101561277b5760405162461bcd60e51b815260206004820152602660248201527f416464726573733a20696e73756666696369656e742062616c616e636520666f6044820152651c8818d85b1b60d21b6064820152608401610ab2565b6001600160a01b0385163b6127d25760405162461bcd60e51b815260206004820152601d60248201527f416464726573733a2063616c6c20746f206e6f6e2d636f6e74726163740000006044820152606401610ab2565b600080866001600160a01b031685876040516127ee9190613479565b60006040518083038185875af1925050503d806000811461282b576040519150601f19603f3d011682016040523d82523d6000602084013e612830565b606091505b5091509150610ebb828286612886565b8154600160801b90819004600f90810b80820b820b6000908152600180870160205260409091209490945584549301900b6001600160801b039081169091029116179055565b6060831561289557508161158a565b8251156128a55782518084602001fd5b8160405162461bcd60e51b8152600401610ab29190613508565b6128c881612653565b6040516001600160a01b038216907fbc7cd75a20ee27fd9adebab32041f755214dbc6bffa90cc0225b39da2e5c2d3b90600090a250565b60606001600160a01b0383163b6129675760405162461bcd60e51b815260206004820152602660248201527f416464726573733a2064656c65676174652063616c6c20746f206e6f6e2d636f6044820152651b9d1c9858dd60d21b6064820152608401610ab2565b600080846001600160a01b0316846040516129829190613479565b600060405180830381855af49150503d80600081146129bd576040519150601f19603f3d011682016040523d82523d6000602084013e6129c2565b606091505b5091509150610ac782826040518060600160405280602781526020016139d560279139612886565b8280546129f6906138b6565b90600052602060002090601f016020900481019282612a185760008555612a5e565b82601f10612a3157805160ff1916838001178555612a5e565b82800160010185558215612a5e579182015b82811115612a5e578251825591602001919060010190612a43565b50611ed19291505b80821115611ed15760008155600101612a66565b80356001600160a01b0381168114611b8657600080fd5b600082601f830112612aa257600080fd5b81356020612ab7612ab2836137cc565b61379c565b80838252828201915082860187848660051b8901011115612ad757600080fd5b60005b85811015612afd57612aeb82612a7a565b84529284019290840190600101612ada565b5090979650505050505050565b600082601f830112612b1b57600080fd5b81356020612b2b612ab2836137cc565b80838252828201915082860187848660051b8901011115612b4b57600080fd5b6000805b86811015612b8d5782356001600160401b03811115612b6c578283fd5b612b7a8b88838d0101612c43565b8652509385019391850191600101612b4f565b509198975050505050505050565b600082601f830112612bac57600080fd5b81356020612bbc612ab2836137cc565b80838252828201915082860187848660051b8901011115612bdc57600080fd5b60005b85811015612afd57813584529284019290840190600101612bdf565b60008083601f840112612c0d57600080fd5b5081356001600160401b03811115612c2457600080fd5b602083019150836020828501011115612c3c57600080fd5b9250929050565b600082601f830112612c5457600080fd5b81356001600160401b03811115612c6d57612c6d61394e565b612c80601f8201601f191660200161379c565b818152846020838601011115612c9557600080fd5b816020850160208301376000918101602001919091529392505050565b803560ff81168114611b8657600080fd5b600060208284031215612cd557600080fd5b61158a82612a7a565b600080600080600060a08688031215612cf657600080fd5b612cff86612a7a565b9450612d0d60208701612a7a565b935060408601356001600160401b0380821115612d2957600080fd5b612d3589838a01612b9b565b94506060880135915080821115612d4b57600080fd5b612d5789838a01612b9b565b93506080880135915080821115612d6d57600080fd5b50612d7a88828901612c43565b9150509295509295909350565b60008060008060808587031215612d9d57600080fd5b612da685612a7a565b9350612db460208601612a7a565b92506040850135915060608501356001600160401b03811115612dd657600080fd5b612de287828801612c43565b91505092959194509250565b600080600080600060a08688031215612e0657600080fd5b612e0f86612a7a565b9450612e1d60208701612a7a565b9350604086013592506060860135915060808601356001600160401b03811115612e4657600080fd5b612d7a88828901612c43565b60008060408385031215612e6557600080fd5b612e6e83612a7a565b915060208301356001600160401b03811115612e8957600080fd5b612e9585828601612c43565b9150509250929050565b600080600080600080600060e0888a031215612eba57600080fd5b612ec388612a7a565b965060208801356001600160401b03811115612ede57600080fd5b612eea8a828b01612c43565b965050604088013594506060880135935060808801359250612f0e60a08901612a7a565b915060c0880135905092959891949750929550565b60008060408385031215612f3657600080fd5b612f3f83612a7a565b946020939093013593505050565b60008060008060608587031215612f6357600080fd5b612f6c85612a7a565b93506020850135925060408501356001600160401b03811115612f8e57600080fd5b612f9a87828801612bfb565b95989497509550505050565b600080600060608486031215612fbb57600080fd5b612fc484612a7a565b92506020840135915060408401356001600160401b03811115612fe657600080fd5b612ff286828701612c43565b9150509250925092565b6000806000806080858703121561301257600080fd5b84356001600160401b038082111561302957600080fd5b61303588838901612a91565b9550602087013591508082111561304b57600080fd5b61305788838901612b9b565b9450604087013591508082111561306d57600080fd5b5061307a87828801612b0a565b949793965093946060013593505050565b600080600080608085870312156130a157600080fd5b84356001600160401b03808211156130b857600080fd5b6130c488838901612a91565b955060208701359150808211156130da57600080fd5b6130e688838901612b9b565b945060408701359150808211156130fc57600080fd5b61310888838901612b0a565b9350606087013591508082111561311e57600080fd5b50612de287828801612c43565b60006020828403121561313d57600080fd5b5051919050565b60006020828403121561315657600080fd5b81356001600160e01b03198116811461158a57600080fd5b60006020828403121561318057600080fd5b5035919050565b6000806040838503121561319a57600080fd5b823591506131aa60208401612a7a565b90509250929050565b600080604083850312156131c657600080fd5b823591506131aa60208401612cb2565b600080600080606085870312156131ec57600080fd5b843593506131fc60208601612cb2565b925060408501356001600160401b03811115612f8e57600080fd5b60008060008060006080868803121561322f57600080fd5b8535945061323f60208701612cb2565b935060408601356001600160401b038082111561325b57600080fd5b61326789838a01612bfb565b90955093506060880135915080821115612d6d57600080fd5b60008060008060008060008060e0898b03121561329c57600080fd5b883597506132ac60208a01612cb2565b965060408901356001600160401b03808211156132c857600080fd5b6132d48c838d01612bfb565b909850965060608b01359150808211156132ed57600080fd5b506132fa8b828c01612c43565b94505061330960808a01612cb2565b925060a0890135915060c089013590509295985092959890939650565b600080600080600060a0868803121561333e57600080fd5b8535945061334e60208701612cb2565b935061335c60408701612cb2565b94979396509394606081013594506080013592915050565b600081518084526020808501945080840160005b838110156133ad5781516001600160a01b031687529582019590820190600101613388565b509495945050505050565b600081518084526020808501808196508360051b8101915082860160005b858110156134005782840389526133ee84835161343d565b988501989350908401906001016133d6565b5091979650505050505050565b600081518084526020808501945080840160005b838110156133ad57815187529582019590820190600101613421565b6000815180845261345581602086016020860161388a565b601f01601f19169290920160200192915050565b8183823760009101908152919050565b6000825161348b81846020870161388a565b9190910192915050565b6080815260006134a86080830187613374565b82810360208401526134ba818761340d565b905082810360408401526134ce81866133b8565b91505082606083015295945050505050565b602081016008831061350257634e487b7160e01b600052602160045260246000fd5b91905290565b60208152600061158a602083018461343d565b60208082526021908201527f476f7665726e6f723a20696e76616c69642070726f706f73616c206c656e67746040820152600d60fb1b606082015260800190565b6020808252602c908201527f46756e6374696f6e206d7573742062652063616c6c6564207468726f7567682060408201526b19195b1959d85d1958d85b1b60a21b606082015260800190565b6020808252602c908201527f46756e6374696f6e206d7573742062652063616c6c6564207468726f7567682060408201526b6163746976652070726f787960a01b606082015260800190565b6020808252602b908201527f496e697469616c697a61626c653a20636f6e7472616374206973206e6f74206960408201526a6e697469616c697a696e6760a81b606082015260800190565b60006101208b8352602060018060a01b038c16818501528160408501526136688285018c613374565b9150838203606085015261367c828b61340d565b915083820360808501528189518084528284019150828160051b850101838c0160005b838110156136cd57601f198784030185526136bb83835161343d565b9486019492509085019060010161369f565b505086810360a08801526136e1818c6133b8565b9450505050506136fc60c08401876001600160401b03169052565b6001600160401b03851660e084015282810361010084015261371e818561343d565b9c9b505050505050505050505050565b84815260ff841660208201528260408201526080606082015260006112aa608083018461343d565b85815260ff8516602082015283604082015260a06060820152600061377e60a083018561343d565b8281036080840152613790818561343d565b98975050505050505050565b604051601f8201601f191681016001600160401b03811182821017156137c4576137c461394e565b604052919050565b60006001600160401b038211156137e5576137e561394e565b5060051b60200190565b600082198211156138025761380261390c565b500190565b60006001600160401b038083168185168083038211156138295761382961390c565b01949350505050565b60008261384f57634e487b7160e01b600052601260045260246000fd5b500490565b600081600019048311821515161561386e5761386e61390c565b500290565b6000828210156138855761388561390c565b500390565b60005b838110156138a557818101518382015260200161388d565b838111156127145750506000910152565b600181811c908216806138ca57607f821691505b602082108114156138eb57634e487b7160e01b600052602260045260246000fd5b50919050565b60006000198214156139055761390561390c565b5060010190565b634e487b7160e01b600052601160045260246000fd5b634e487b7160e01b600052602160045260246000fd5b634e487b7160e01b600052603260045260246000fd5b634e487b7160e01b600052604160045260246000fdfe476f7665726e6f723a2063616c6c20726576657274656420776974686f7574206d657373616765360894a13ba1a3210667c828492db98dca3e2076cc3735a920a3ca505d382bbc416464726573733a206c6f772d6c6576656c2063616c6c20776974682076616c7565206661696c6564416464726573733a206c6f772d6c6576656c2064656c65676174652063616c6c206661696c6564a2646970667358221220602a68a823561716e25ff85823f25a6b264f28c20b48607014ca88bf20c2ba8c64736f6c63430008070033",
  "devdoc": {
    "errors": {
      "Empty()": [
        {
          "details": "An operation (e.g. {front}) couldn't be completed due to the queue being empty."
        }
      ]
    },
    "kind": "dev",
    "methods": {
      "COUNTING_MODE()": {
        "details": "A description of the possible `support` values for {castVote} and the way these votes are counted, meant to be consumed by UIs to show correct vote options and interpret the results. The string is a URL-encoded sequence of key-value pairs that each describe one aspect, for example `support=bravo&quorum=for,abstain`. There are 2 standard keys: `support` and `quorum`. - `support=bravo` refers to the vote options 0 = Against, 1 = For, 2 = Abstain, as in `GovernorBravo`. - `quorum=bravo` means that only For votes are counted towards quorum. - `quorum=for,abstain` means that both For and Abstain votes are counted towards quorum. If a counting module makes use of encoded `params`, it should  include this under a `params` key with a unique name that describes the behavior. For example: - `params=fractional` might refer to a scheme where votes are divided fractionally between for/against/abstain. - `params=erc721` might refer to a scheme where specific NFTs are delegated to vote. NOTE: The string can be decoded by the standard https://developer.mozilla.org/en-US/docs/Web/API/URLSearchParams[`URLSearchParams`] JavaScript class."
      },
      "castVote(uint256,uint8)": {
        "details": "See {IGovernor-castVote}."
      },
      "castVoteBySig(uint256,uint8,uint8,bytes32,bytes32)": {
        "details": "See {IGovernor-castVoteBySig}."
      },
      "castVoteWithReason(uint256,uint8,string)": {
        "details": "See {IGovernor-castVoteWithReason}."
      },
      "castVoteWithReasonAndParams(uint256,uint8,string,bytes)": {
        "details": "See {IGovernor-castVoteWithReasonAndParams}."
      },
      "castVoteWithReasonAndParamsBySig(uint256,uint8,string,bytes,uint8,bytes32,bytes32)": {
        "details": "See {IGovernor-castVoteWithReasonAndParamsBySig}."
      },
      "constructor": {
        "custom:oz-upgrades-unsafe-allow": "constructor"
      },
      "execute(address[],uint256[],bytes[],bytes32)": {
        "details": "See {IGovernor-execute}."
      },
      "getVotes(address,uint256)": {
        "details": "See {IGovernor-getVotes}."
      },
      "getVotesWithParams(address,uint256,bytes)": {
        "details": "See {IGovernor-getVotesWithParams}."
      },
      "hasVoted(uint256,address)": {
        "details": "Returns weither `account` has cast a vote on `proposalId`."
      },
      "hashProposal(address[],uint256[],bytes[],bytes32)": {
        "details": "See {IGovernor-hashProposal}. The proposal id is produced by hashing the ABI encoded `targets` array, the `values` array, the `calldatas` array and the descriptionHash (bytes32 which itself is the keccak256 hash of the description string). This proposal id can be produced from the proposal data which is part of the {ProposalCreated} event. It can even be computed in advance, before the proposal is submitted. Note that the chainId and the governor address are not part of the proposal id computation. Consequently, the same proposal (with same operation and same description) will have the same id if submitted on multiple governors across multiple networks. This also means that in order to execute the same operation twice (on the same governor) the proposer will have to change the description in order to avoid proposal id conflicts."
      },
      "name()": {
        "details": "See {IGovernor-name}."
      },
      "onERC1155BatchReceived(address,address,uint256[],uint256[],bytes)": {
        "details": "See {IERC1155Receiver-onERC1155BatchReceived}."
      },
      "onERC1155Received(address,address,uint256,uint256,bytes)": {
        "details": "See {IERC1155Receiver-onERC1155Received}."
      },
      "onERC721Received(address,address,uint256,bytes)": {
        "details": "See {IERC721Receiver-onERC721Received}."
      },
      "proposalDeadline(uint256)": {
        "details": "See {IGovernor-proposalDeadline}."
      },
      "proposalSnapshot(uint256)": {
        "details": "See {IGovernor-proposalSnapshot}."
      },
      "proposalThreshold()": {
        "details": "Part of the Governor Bravo's interface: _\"The number of votes required in order for a voter to become a proposer\"_."
      },
      "propose(address[],uint256[],bytes[],string)": {
        "details": "See {IGovernor-propose}."
      },
      "proxiableUUID()": {
        "details": "Implementation of the ERC1822 {proxiableUUID} function. This returns the storage slot used by the implementation. It is used to validate that the this implementation remains valid after an upgrade. IMPORTANT: A proxy pointing at a proxiable contract should not be considered proxiable itself, because this risks bricking a proxy that upgrades to it, by delegating to itself until out of gas. Thus it is critical that this function revert if invoked through a proxy. This is guaranteed by the `notDelegated` modifier."
      },
      "quorum(uint256)": {
        "details": "Minimum number of cast voted required for a proposal to be successful. Note: The `blockNumber` parameter corresponds to the snapshot used for counting vote. This allows to scale the quorum depending on values such as the totalSupply of a token at this block (see {ERC20Votes})."
      },
      "relay(address,uint256,bytes)": {
        "details": "Relays a transaction or function call to an arbitrary target. In cases where the governance executor is some contract other than the governor itself, like when using a timelock, this function can be invoked in a governance proposal to recover tokens or Ether that was sent to the governor contract by mistake. Note that if the executor is simply the governor itself, use of `relay` is redundant."
      },
      "state(uint256)": {
        "details": "See {IGovernor-state}."
      },
      "supportsInterface(bytes4)": {
        "details": "See {IERC165-supportsInterface}."
      },
      "upgradeTo(address)": {
        "details": "Upgrade the implementation of the proxy to `newImplementation`. Calls {_authorizeUpgrade}. Emits an {Upgraded} event."
      },
      "upgradeToAndCall(address,bytes)": {
        "details": "Upgrade the implementation of the proxy to `newImplementation`, and subsequently execute the function call encoded in `data`. Calls {_authorizeUpgrade}. Emits an {Upgraded} event."
      },
      "version()": {
        "details": "See {IGovernor-version}."
      },
      "votingDelay()": {
        "details": "Delay, in number of block, between the proposal is created and the vote starts. This can be increassed to leave time for users to buy voting power, or delegate it, before the voting of a proposal starts."
      },
      "votingPeriod()": {
        "details": "Delay, in number of blocks, between the vote start and vote ends. NOTE: The {votingDelay} can delay the start of the vote. This must be considered when setting the voting duration compared to the voting delay."
      }
    },
    "version": 1
  },
  "userdoc": {
    "kind": "user",
    "methods": {
      "COUNTING_MODE()": {
        "notice": "module:voting"
      },
      "hasVoted(uint256,address)": {
        "notice": "module:voting"
      },
      "quorum(uint256)": {
        "notice": "module:user-config"
      },
      "votingDelay()": {
        "notice": "module:user-config"
      },
      "votingPeriod()": {
        "notice": "module:user-config"
      }
    },
    "version": 1
  },
  "storageLayout": {
    "storage": [
      {
        "astId": 3247,
        "contract": "contracts/Govern.sol:Govern",
        "label": "_initialized",
        "offset": 0,
        "slot": "0",
        "type": "t_uint8"
      },
      {
        "astId": 3250,
        "contract": "contracts/Govern.sol:Govern",
        "label": "_initializing",
        "offset": 1,
        "slot": "0",
        "type": "t_bool"
      },
      {
        "astId": 3229,
        "contract": "contracts/Govern.sol:Govern",
        "label": "__gap",
        "offset": 0,
        "slot": "1",
        "type": "t_array(t_uint256)50_storage"
      },
      {
        "astId": 3526,
        "contract": "contracts/Govern.sol:Govern",
        "label": "__gap",
        "offset": 0,
        "slot": "51",
        "type": "t_array(t_uint256)50_storage"
      },
      {
        "astId": 8642,
        "contract": "contracts/Govern.sol:Govern",
        "label": "__gap",
        "offset": 0,
        "slot": "101",
        "type": "t_array(t_uint256)50_storage"
      },
      {
        "astId": 9798,
        "contract": "contracts/Govern.sol:Govern",
        "label": "__gap",
        "offset": 0,
        "slot": "151",
        "type": "t_array(t_uint256)50_storage"
      },
      {
        "astId": 9614,
        "contract": "contracts/Govern.sol:Govern",
        "label": "_HASHED_NAME",
        "offset": 0,
        "slot": "201",
        "type": "t_bytes32"
      },
      {
        "astId": 9616,
        "contract": "contracts/Govern.sol:Govern",
        "label": "_HASHED_VERSION",
        "offset": 0,
        "slot": "202",
        "type": "t_bytes32"
      },
      {
        "astId": 9754,
        "contract": "contracts/Govern.sol:Govern",
        "label": "__gap",
        "offset": 0,
        "slot": "203",
        "type": "t_array(t_uint256)50_storage"
      },
      {
        "astId": 2298,
        "contract": "contracts/Govern.sol:Govern",
        "label": "__gap",
        "offset": 0,
        "slot": "253",
        "type": "t_array(t_uint256)50_storage"
      },
      {
        "astId": 725,
        "contract": "contracts/Govern.sol:Govern",
        "label": "_name",
        "offset": 0,
        "slot": "303",
        "type": "t_string_storage"
      },
      {
        "astId": 730,
        "contract": "contracts/Govern.sol:Govern",
        "label": "_proposals",
        "offset": 0,
        "slot": "304",
        "type": "t_mapping(t_uint256,t_struct(ProposalCore)723_storage)"
      },
      {
        "astId": 733,
        "contract": "contracts/Govern.sol:Govern",
        "label": "_governanceCall",
        "offset": 0,
        "slot": "305",
        "type": "t_struct(Bytes32Deque)12185_storage"
      },
      {
        "astId": 1981,
        "contract": "contracts/Govern.sol:Govern",
        "label": "__gap",
        "offset": 0,
        "slot": "307",
        "type": "t_array(t_uint256)46_storage"
      },
      {
        "astId": 22937,
        "contract": "contracts/Govern.sol:Govern",
        "label": "owner",
        "offset": 0,
        "slot": "353",
        "type": "t_address"
      },
      {
        "astId": 22939,
        "contract": "contracts/Govern.sol:Govern",
        "label": "duration",
        "offset": 0,
        "slot": "354",
        "type": "t_uint256"
      },
      {
        "astId": 22941,
        "contract": "contracts/Govern.sol:Govern",
        "label": "quorumThreshold",
        "offset": 0,
        "slot": "355",
        "type": "t_uint256"
      },
      {
        "astId": 22943,
        "contract": "contracts/Govern.sol:Govern",
        "label": "passThreshold",
        "offset": 0,
        "slot": "356",
        "type": "t_uint256"
      },
      {
        "astId": 22945,
        "contract": "contracts/Govern.sol:Govern",
        "label": "voteToken",
        "offset": 0,
        "slot": "357",
        "type": "t_address"
      },
      {
        "astId": 22950,
        "contract": "contracts/Govern.sol:Govern",
        "label": "_proposalVotes",
        "offset": 0,
        "slot": "358",
        "type": "t_mapping(t_uint256,t_struct(ProposalVote)22935_storage)"
      },
      {
        "astId": 22952,
        "contract": "contracts/Govern.sol:Govern",
        "label": "durationInBlock",
        "offset": 0,
        "slot": "359",
        "type": "t_uint256"
      },
      {
        "astId": 23501,
        "contract": "contracts/Govern.sol:Govern",
        "label": "__gap",
        "offset": 0,
        "slot": "360",
        "type": "t_array(t_uint256)49_storage"
      }
    ],
    "types": {
      "t_address": {
        "encoding": "inplace",
        "label": "address",
        "numberOfBytes": "20"
      },
      "t_array(t_uint256)46_storage": {
        "base": "t_uint256",
        "encoding": "inplace",
        "label": "uint256[46]",
        "numberOfBytes": "1472"
      },
      "t_array(t_uint256)49_storage": {
        "base": "t_uint256",
        "encoding": "inplace",
        "label": "uint256[49]",
        "numberOfBytes": "1568"
      },
      "t_array(t_uint256)50_storage": {
        "base": "t_uint256",
        "encoding": "inplace",
        "label": "uint256[50]",
        "numberOfBytes": "1600"
      },
      "t_bool": {
        "encoding": "inplace",
        "label": "bool",
        "numberOfBytes": "1"
      },
      "t_bytes32": {
        "encoding": "inplace",
        "label": "bytes32",
        "numberOfBytes": "32"
      },
      "t_int128": {
        "encoding": "inplace",
        "label": "int128",
        "numberOfBytes": "16"
      },
      "t_mapping(t_address,t_bool)": {
        "encoding": "mapping",
        "key": "t_address",
        "label": "mapping(address => bool)",
        "numberOfBytes": "32",
        "value": "t_bool"
      },
      "t_mapping(t_int128,t_bytes32)": {
        "encoding": "mapping",
        "key": "t_int128",
        "label": "mapping(int128 => bytes32)",
        "numberOfBytes": "32",
        "value": "t_bytes32"
      },
      "t_mapping(t_uint256,t_struct(ProposalCore)723_storage)": {
        "encoding": "mapping",
        "key": "t_uint256",
        "label": "mapping(uint256 => struct GovernorUpgradeable.ProposalCore)",
        "numberOfBytes": "32",
        "value": "t_struct(ProposalCore)723_storage"
      },
      "t_mapping(t_uint256,t_struct(ProposalVote)22935_storage)": {
        "encoding": "mapping",
        "key": "t_uint256",
        "label": "mapping(uint256 => struct Govern.ProposalVote)",
        "numberOfBytes": "32",
        "value": "t_struct(ProposalVote)22935_storage"
      },
      "t_string_storage": {
        "encoding": "bytes",
        "label": "string",
        "numberOfBytes": "32"
      },
      "t_struct(BlockNumber)9114_storage": {
        "encoding": "inplace",
        "label": "struct TimersUpgradeable.BlockNumber",
        "members": [
          {
            "astId": 9113,
            "contract": "contracts/Govern.sol:Govern",
            "label": "_deadline",
            "offset": 0,
            "slot": "0",
            "type": "t_uint64"
          }
        ],
        "numberOfBytes": "32"
      },
      "t_struct(Bytes32Deque)12185_storage": {
        "encoding": "inplace",
        "label": "struct DoubleEndedQueueUpgradeable.Bytes32Deque",
        "members": [
          {
            "astId": 12178,
            "contract": "contracts/Govern.sol:Govern",
            "label": "_begin",
            "offset": 0,
            "slot": "0",
            "type": "t_int128"
          },
          {
            "astId": 12180,
            "contract": "contracts/Govern.sol:Govern",
            "label": "_end",
            "offset": 16,
            "slot": "0",
            "type": "t_int128"
          },
          {
            "astId": 12184,
            "contract": "contracts/Govern.sol:Govern",
            "label": "_data",
            "offset": 0,
            "slot": "1",
            "type": "t_mapping(t_int128,t_bytes32)"
          }
        ],
        "numberOfBytes": "64"
      },
      "t_struct(ProposalCore)723_storage": {
        "encoding": "inplace",
        "label": "struct GovernorUpgradeable.ProposalCore",
        "members": [
          {
            "astId": 715,
            "contract": "contracts/Govern.sol:Govern",
            "label": "voteStart",
            "offset": 0,
            "slot": "0",
            "type": "t_struct(BlockNumber)9114_storage"
          },
          {
            "astId": 718,
            "contract": "contracts/Govern.sol:Govern",
            "label": "voteEnd",
            "offset": 0,
            "slot": "1",
            "type": "t_struct(BlockNumber)9114_storage"
          },
          {
            "astId": 720,
            "contract": "contracts/Govern.sol:Govern",
            "label": "executed",
            "offset": 0,
            "slot": "2",
            "type": "t_bool"
          },
          {
            "astId": 722,
            "contract": "contracts/Govern.sol:Govern",
            "label": "canceled",
            "offset": 1,
            "slot": "2",
            "type": "t_bool"
          }
        ],
        "numberOfBytes": "96"
      },
      "t_struct(ProposalVote)22935_storage": {
        "encoding": "inplace",
        "label": "struct Govern.ProposalVote",
        "members": [
          {
            "astId": 22926,
            "contract": "contracts/Govern.sol:Govern",
            "label": "againstVotes",
            "offset": 0,
            "slot": "0",
            "type": "t_uint256"
          },
          {
            "astId": 22928,
            "contract": "contracts/Govern.sol:Govern",
            "label": "forVotes",
            "offset": 0,
            "slot": "1",
            "type": "t_uint256"
          },
          {
            "astId": 22930,
            "contract": "contracts/Govern.sol:Govern",
            "label": "abstainVotes",
            "offset": 0,
            "slot": "2",
            "type": "t_uint256"
          },
          {
            "astId": 22934,
            "contract": "contracts/Govern.sol:Govern",
            "label": "hasVoted",
            "offset": 0,
            "slot": "3",
            "type": "t_mapping(t_address,t_bool)"
          }
        ],
        "numberOfBytes": "128"
      },
      "t_uint256": {
        "encoding": "inplace",
        "label": "uint256",
        "numberOfBytes": "32"
      },
      "t_uint64": {
        "encoding": "inplace",
        "label": "uint64",
        "numberOfBytes": "8"
      },
      "t_uint8": {
        "encoding": "inplace",
        "label": "uint8",
        "numberOfBytes": "1"
      }
    }
  }
}