{
  "address": "0x7aFD469395480ced2cC6994CCc3c9a4dB2Fa4376",
  "abi": [
    {
      "inputs": [],
      "stateMutability": "nonpayable",
      "type": "constructor"
    },
    {
      "anonymous": false,
      "inputs": [
        {
          "indexed": false,
          "internalType": "address",
          "name": "previousAdmin",
          "type": "address"
        },
        {
          "indexed": false,
          "internalType": "address",
          "name": "newAdmin",
          "type": "address"
        }
      ],
      "name": "AdminChanged",
      "type": "event"
    },
    {
      "anonymous": false,
      "inputs": [
        {
          "indexed": true,
          "internalType": "address",
          "name": "beacon",
          "type": "address"
        }
      ],
      "name": "BeaconUpgraded",
      "type": "event"
    },
    {
      "anonymous": false,
      "inputs": [
        {
          "indexed": false,
          "internalType": "string",
          "name": "name",
          "type": "string"
        },
        {
          "indexed": false,
          "internalType": "address",
          "name": "govern",
          "type": "address"
        },
        {
          "indexed": false,
          "internalType": "address",
          "name": "caller",
          "type": "address"
        },
        {
          "indexed": false,
          "internalType": "address",
          "name": "voteToken",
          "type": "address"
        }
      ],
      "name": "CreateGovern",
      "type": "event"
    },
    {
      "anonymous": false,
      "inputs": [
        {
          "indexed": false,
          "internalType": "uint8",
          "name": "version",
          "type": "uint8"
        }
      ],
      "name": "Initialized",
      "type": "event"
    },
    {
      "anonymous": false,
      "inputs": [
        {
          "indexed": true,
          "internalType": "address",
          "name": "previousOwner",
          "type": "address"
        },
        {
          "indexed": true,
          "internalType": "address",
          "name": "newOwner",
          "type": "address"
        }
      ],
      "name": "OwnershipTransferred",
      "type": "event"
    },
    {
      "anonymous": false,
      "inputs": [
        {
          "indexed": true,
          "internalType": "address",
          "name": "implementation",
          "type": "address"
        }
      ],
      "name": "Upgraded",
      "type": "event"
    },
    {
      "inputs": [
        {
          "internalType": "string",
          "name": "name",
          "type": "string"
        },
        {
          "internalType": "uint256",
          "name": "duration",
          "type": "uint256"
        },
        {
          "internalType": "uint256",
          "name": "quorum",
          "type": "uint256"
        },
        {
          "internalType": "uint256",
          "name": "passThreshold",
          "type": "uint256"
        },
        {
          "internalType": "address",
          "name": "voteToken",
          "type": "address"
        },
        {
          "internalType": "uint256",
          "name": "durationInBlock",
          "type": "uint256"
        }
      ],
      "name": "createGovern",
      "outputs": [],
      "stateMutability": "nonpayable",
      "type": "function"
    },
    {
      "inputs": [],
      "name": "governImplementation",
      "outputs": [
        {
          "internalType": "address",
          "name": "",
          "type": "address"
        }
      ],
      "stateMutability": "view",
      "type": "function"
    },
    {
      "inputs": [
        {
          "internalType": "address",
          "name": "",
          "type": "address"
        },
        {
          "internalType": "string",
          "name": "",
          "type": "string"
        }
      ],
      "name": "governMap",
      "outputs": [
        {
          "internalType": "address",
          "name": "",
          "type": "address"
        }
      ],
      "stateMutability": "view",
      "type": "function"
    },
    {
      "inputs": [
        {
          "internalType": "address",
          "name": "_governImplementation",
          "type": "address"
        }
      ],
      "name": "initialize",
      "outputs": [],
      "stateMutability": "nonpayable",
      "type": "function"
    },
    {
      "inputs": [],
      "name": "owner",
      "outputs": [
        {
          "internalType": "address",
          "name": "",
          "type": "address"
        }
      ],
      "stateMutability": "view",
      "type": "function"
    },
    {
      "inputs": [],
      "name": "proxiableUUID",
      "outputs": [
        {
          "internalType": "bytes32",
          "name": "",
          "type": "bytes32"
        }
      ],
      "stateMutability": "view",
      "type": "function"
    },
    {
      "inputs": [],
      "name": "renounceOwnership",
      "outputs": [],
      "stateMutability": "nonpayable",
      "type": "function"
    },
    {
      "inputs": [
        {
          "internalType": "address",
          "name": "_governImplementation",
          "type": "address"
        }
      ],
      "name": "setGovernImplementation",
      "outputs": [],
      "stateMutability": "nonpayable",
      "type": "function"
    },
    {
      "inputs": [
        {
          "internalType": "address",
          "name": "newOwner",
          "type": "address"
        }
      ],
      "name": "transferOwnership",
      "outputs": [],
      "stateMutability": "nonpayable",
      "type": "function"
    },
    {
      "inputs": [
        {
          "internalType": "address",
          "name": "newImplementation",
          "type": "address"
        }
      ],
      "name": "upgradeTo",
      "outputs": [],
      "stateMutability": "nonpayable",
      "type": "function"
    },
    {
      "inputs": [
        {
          "internalType": "address",
          "name": "newImplementation",
          "type": "address"
        },
        {
          "internalType": "bytes",
          "name": "data",
          "type": "bytes"
        }
      ],
      "name": "upgradeToAndCall",
      "outputs": [],
      "stateMutability": "payable",
      "type": "function"
    }
  ],
  "transactionHash": "0x048361d25dd61d172462b946c8a492970dba057ac4fad0b5e1c06bb403183e51",
  "args": [],
  "numDeployments": 1,
  "solcInputHash": "38e7eb5676ede9c2fa33ab048adf4ed8",
  "bytecode": "0x60a06040523060601b60805234801561001757600080fd5b50610020610025565b6100e5565b600054610100900460ff16156100915760405162461bcd60e51b815260206004820152602760248201527f496e697469616c697a61626c653a20636f6e747261637420697320696e697469604482015266616c697a696e6760c81b606482015260840160405180910390fd5b60005460ff90811610156100e3576000805460ff191660ff9081179091556040519081527f7f26b83ff96e1f2b6a682f133852f6798a09c465da95921460cefb38474024989060200160405180910390a15b565b60805160601c611a5d61011f6000396000818161027f015281816102cb01528181610374015281816103b701526104530152611a5d6000f3fe608060405260043610620000a95760003560e01c806370bebb1e116200006c57806370bebb1e1462000177578063715018a614620001cd5780638da5cb5b14620001e55780639b3be1ae1462000205578063c4d66de8146200022a578063f2fde38b146200024f57600080fd5b80633659cfe614620000ae5780634f1ef28614620000d557806352d1902d14620000ec5780635ba15b4d1462000117578063672392a11462000152575b600080fd5b348015620000bb57600080fd5b50620000d3620000cd36600462000f2d565b62000274565b005b620000d3620000e636600462000f4b565b62000369565b348015620000f957600080fd5b506200010462000446565b6040519081526020015b60405180910390f35b3480156200012457600080fd5b5060c95462000139906001600160a01b031681565b6040516001600160a01b0390911681526020016200010e565b3480156200015f57600080fd5b50620000d36200017136600462000f2d565b620004fc565b3480156200018457600080fd5b50620001396200019636600462000f4b565b60ca60209081526000928352604090922081518083018401805192815290840192909301919091209152546001600160a01b031681565b348015620001da57600080fd5b50620000d362000575565b348015620001f257600080fd5b506097546001600160a01b031662000139565b3480156200021257600080fd5b50620000d36200022436600462000fce565b6200058d565b3480156200023757600080fd5b50620000d36200024936600462000f2d565b6200076b565b3480156200025c57600080fd5b50620000d36200026e36600462000f2d565b62000907565b306001600160a01b037f0000000000000000000000000000000000000000000000000000000000000000161415620002c95760405162461bcd60e51b8152600401620002c09062001197565b60405180910390fd5b7f00000000000000000000000000000000000000000000000000000000000000006001600160a01b031662000314600080516020620019e1833981519152546001600160a01b031690565b6001600160a01b0316146200033d5760405162461bcd60e51b8152600401620002c090620011e3565b620003488162000983565b6040805160008082526020820190925262000366918391906200098d565b50565b306001600160a01b037f0000000000000000000000000000000000000000000000000000000000000000161415620003b55760405162461bcd60e51b8152600401620002c09062001197565b7f00000000000000000000000000000000000000000000000000000000000000006001600160a01b031662000400600080516020620019e1833981519152546001600160a01b031690565b6001600160a01b031614620004295760405162461bcd60e51b8152600401620002c090620011e3565b620004348262000983565b62000442828260016200098d565b5050565b6000306001600160a01b037f00000000000000000000000000000000000000000000000000000000000000001614620004e85760405162461bcd60e51b815260206004820152603860248201527f555550535570677261646561626c653a206d757374206e6f742062652063616c60448201527f6c6564207468726f7567682064656c656761746563616c6c00000000000000006064820152608401620002c0565b50600080516020620019e183398151915290565b6200050662000b1a565b6001600160a01b038116620005535760405162461bcd60e51b815260206004820152601260248201527119dbdd995c9b925b5c1b081a5cc81b9d5b1b60721b6044820152606401620002c0565b60c980546001600160a01b0319166001600160a01b0392909216919091179055565b6200057f62000b1a565b6200058b600062000b76565b565b33600090815260ca60205260408082209051620005ae908a908a90620010c2565b908152604051908190036020019020546001600160a01b031614620005fe5760405162461bcd60e51b815260206004820152600560248201526432b93937b960d91b6044820152606401620002c0565b60c9546040516000916001600160a01b0316906200061c9062000e85565b6001600160a01b039091168152604060208201819052600090820152606001604051809103906000f08015801562000658573d6000803e3d6000fd5b50604051630ade2c2960e21b81529091506001600160a01b03821690632b78b0a490620006989033908c908c908c908c908c908c908c90600401620010d2565b600060405180830381600087803b158015620006b357600080fd5b505af1158015620006c8573d6000803e3d6000fd5b505033600090815260ca6020526040908190209051849350909150620006f2908b908b90620010c2565b90815260405190819003602001812080546001600160a01b03939093166001600160a01b0319909316929092179091557f05de4d66352da22166e48d2b6908a187ea6b5543a40ba97d107bed5a4c2021b29062000759908a908a9085903390899062001122565b60405180910390a15050505050505050565b600054610100900460ff16158080156200078c5750600054600160ff909116105b80620007a85750303b158015620007a8575060005460ff166001145b6200080d5760405162461bcd60e51b815260206004820152602e60248201527f496e697469616c697a61626c653a20636f6e747261637420697320616c72656160448201526d191e481a5b9a5d1a585b1a5e995960921b6064820152608401620002c0565b6000805460ff19166001179055801562000831576000805461ff0019166101001790555b6200083b62000bc8565b6001600160a01b038216620008a25760405162461bcd60e51b815260206004820152602660248201527f476f7665726e20696d706c656d656e746174696f6e206d757374206e6f74206260448201526519481b9d5b1b60d21b6064820152608401620002c0565b60c980546001600160a01b0319166001600160a01b038416179055801562000442576000805461ff0019169055604051600181527f7f26b83ff96e1f2b6a682f133852f6798a09c465da95921460cefb38474024989060200160405180910390a15050565b6200091162000b1a565b6001600160a01b038116620009785760405162461bcd60e51b815260206004820152602660248201527f4f776e61626c653a206e6577206f776e657220697320746865207a65726f206160448201526564647265737360d01b6064820152608401620002c0565b620003668162000b76565b6200036662000b1a565b7f4910fdfa16fed3260ed0e7147f7cc6da11a60208b5b9406d12a635614ffd91435460ff1615620009c857620009c38362000bfc565b505050565b826001600160a01b03166352d1902d6040518163ffffffff1660e01b815260040160206040518083038186803b15801562000a0257600080fd5b505afa92505050801562000a35575060408051601f3d908101601f1916820190925262000a329181019062000fb4565b60015b62000a9a5760405162461bcd60e51b815260206004820152602e60248201527f45524331393637557067726164653a206e657720696d706c656d656e7461746960448201526d6f6e206973206e6f74205555505360901b6064820152608401620002c0565b600080516020620019e1833981519152811462000b0c5760405162461bcd60e51b815260206004820152602960248201527f45524331393637557067726164653a20756e737570706f727465642070726f786044820152681a58589b195555525160ba1b6064820152608401620002c0565b50620009c383838362000c9b565b6097546001600160a01b031633146200058b5760405162461bcd60e51b815260206004820181905260248201527f4f776e61626c653a2063616c6c6572206973206e6f7420746865206f776e65726044820152606401620002c0565b609780546001600160a01b038381166001600160a01b0319831681179093556040519116919082907f8be0079c531659141344cd1fd0a4f28419497f9722a3daafe3b4186f6b6457e090600090a35050565b600054610100900460ff1662000bf25760405162461bcd60e51b8152600401620002c0906200122f565b6200058b62000ccc565b6001600160a01b0381163b62000c6b5760405162461bcd60e51b815260206004820152602d60248201527f455243313936373a206e657720696d706c656d656e746174696f6e206973206e60448201526c1bdd08184818dbdb9d1c9858dd609a1b6064820152608401620002c0565b600080516020620019e183398151915280546001600160a01b0319166001600160a01b0392909216919091179055565b62000ca68362000d01565b60008251118062000cb45750805b15620009c35762000cc6838362000d43565b50505050565b600054610100900460ff1662000cf65760405162461bcd60e51b8152600401620002c0906200122f565b6200058b3362000b76565b62000d0c8162000bfc565b6040516001600160a01b038216907fbc7cd75a20ee27fd9adebab32041f755214dbc6bffa90cc0225b39da2e5c2d3b90600090a250565b60606001600160a01b0383163b62000dad5760405162461bcd60e51b815260206004820152602660248201527f416464726573733a2064656c65676174652063616c6c20746f206e6f6e2d636f6044820152651b9d1c9858dd60d21b6064820152608401620002c0565b600080846001600160a01b03168460405162000dca9190620010a4565b600060405180830381855af49150503d806000811462000e07576040519150601f19603f3d011682016040523d82523d6000602084013e62000e0c565b606091505b509150915062000e37828260405180606001604052806027815260200162001a016027913962000e40565b95945050505050565b6060831562000e5157508162000e7e565b82511562000e625782518084602001fd5b8160405162461bcd60e51b8152600401620002c0919062001162565b9392505050565b61072180620012c083390190565b600067ffffffffffffffff8084111562000eb15762000eb1620012a9565b604051601f8501601f19908116603f0116810190828211818310171562000edc5762000edc620012a9565b8160405280935085815286868601111562000ef657600080fd5b858560208301376000602087830101525050509392505050565b80356001600160a01b038116811462000f2857600080fd5b919050565b60006020828403121562000f4057600080fd5b62000e7e8262000f10565b6000806040838503121562000f5f57600080fd5b62000f6a8362000f10565b9150602083013567ffffffffffffffff81111562000f8757600080fd5b8301601f8101851362000f9957600080fd5b62000faa8582356020840162000e93565b9150509250929050565b60006020828403121562000fc757600080fd5b5051919050565b600080600080600080600060c0888a03121562000fea57600080fd5b873567ffffffffffffffff808211156200100357600080fd5b818a0191508a601f8301126200101857600080fd5b8135818111156200102857600080fd5b8b60208285010111156200103b57600080fd5b6020928301995097505088013594506040880135935060608801359250620010666080890162000f10565b915060a0880135905092959891949750929550565b81835281816020850137506000828201602090810191909152601f909101601f19169091010190565b60008251620010b88184602087016200127a565b9190910192915050565b8183823760009101908152919050565b600060018060a01b03808b16835260e06020840152620010f760e084018a8c6200107b565b60408401989098526060830196909652506080810193909352921660a082015260c001529392505050565b608081526000620011386080830187896200107b565b6001600160a01b039586166020840152938516604083015250921660609092019190915292915050565b6020815260008251806020840152620011838160408501602087016200127a565b601f01601f19169190910160400192915050565b6020808252602c908201527f46756e6374696f6e206d7573742062652063616c6c6564207468726f7567682060408201526b19195b1959d85d1958d85b1b60a21b606082015260800190565b6020808252602c908201527f46756e6374696f6e206d7573742062652063616c6c6564207468726f7567682060408201526b6163746976652070726f787960a01b606082015260800190565b6020808252602b908201527f496e697469616c697a61626c653a20636f6e7472616374206973206e6f74206960408201526a6e697469616c697a696e6760a81b606082015260800190565b60005b83811015620012975781810151838201526020016200127d565b8381111562000cc65750506000910152565b634e487b7160e01b600052604160045260246000fdfe6080604052604051610721380380610721833981016040819052610022916102d2565b61002e82826000610035565b5050610431565b61003e8361006b565b60008251118061004b5750805b156100665761006483836100ab60201b6100291760201c565b505b505050565b610074816100d7565b6040516001600160a01b038216907fbc7cd75a20ee27fd9adebab32041f755214dbc6bffa90cc0225b39da2e5c2d3b90600090a250565b60606100d083836040518060600160405280602781526020016106fa602791396101a9565b9392505050565b6100ea8161028760201b6100551760201c565b6101515760405162461bcd60e51b815260206004820152602d60248201527f455243313936373a206e657720696d706c656d656e746174696f6e206973206e60448201526c1bdd08184818dbdb9d1c9858dd609a1b60648201526084015b60405180910390fd5b806101887f360894a13ba1a3210667c828492db98dca3e2076cc3735a920a3ca505d382bbc60001b61029660201b6100641760201c565b80546001600160a01b0319166001600160a01b039290921691909117905550565b60606001600160a01b0384163b6102115760405162461bcd60e51b815260206004820152602660248201527f416464726573733a2064656c65676174652063616c6c20746f206e6f6e2d636f6044820152651b9d1c9858dd60d21b6064820152608401610148565b600080856001600160a01b03168560405161022c91906103a0565b600060405180830381855af49150503d8060008114610267576040519150601f19603f3d011682016040523d82523d6000602084013e61026c565b606091505b50909250905061027d828286610299565b9695505050505050565b6001600160a01b03163b151590565b90565b606083156102a85750816100d0565b8251156102b85782518084602001fd5b8160405162461bcd60e51b815260040161014891906103bc565b600080604083850312156102e557600080fd5b82516001600160a01b03811681146102fc57600080fd5b60208401519092506001600160401b038082111561031957600080fd5b818501915085601f83011261032d57600080fd5b81518181111561033f5761033f61041b565b604051601f8201601f19908116603f011681019083821181831017156103675761036761041b565b8160405282815288602084870101111561038057600080fd5b6103918360208301602088016103ef565b80955050505050509250929050565b600082516103b28184602087016103ef565b9190910192915050565b60208152600082518060208401526103db8160408501602087016103ef565b601f01601f19169190910160400192915050565b60005b8381101561040a5781810151838201526020016103f2565b838111156100645750506000910152565b634e487b7160e01b600052604160045260246000fd5b6102ba806104406000396000f3fe60806040523661001357610011610017565b005b6100115b610027610022610067565b61009f565b565b606061004e838360405180606001604052806027815260200161025e602791396100c3565b9392505050565b6001600160a01b03163b151590565b90565b600061009a7f360894a13ba1a3210667c828492db98dca3e2076cc3735a920a3ca505d382bbc546001600160a01b031690565b905090565b3660008037600080366000845af43d6000803e8080156100be573d6000f35b3d6000fd5b60606001600160a01b0384163b6101305760405162461bcd60e51b815260206004820152602660248201527f416464726573733a2064656c65676174652063616c6c20746f206e6f6e2d636f6044820152651b9d1c9858dd60d21b60648201526084015b60405180910390fd5b600080856001600160a01b03168560405161014b91906101de565b600060405180830381855af49150503d8060008114610186576040519150601f19603f3d011682016040523d82523d6000602084013e61018b565b606091505b509150915061019b8282866101a5565b9695505050505050565b606083156101b457508161004e565b8251156101c45782518084602001fd5b8160405162461bcd60e51b815260040161012791906101fa565b600082516101f081846020870161022d565b9190910192915050565b602081526000825180602084015261021981604085016020870161022d565b601f01601f19169190910160400192915050565b60005b83811015610248578181015183820152602001610230565b83811115610257576000848401525b5050505056fe416464726573733a206c6f772d6c6576656c2064656c65676174652063616c6c206661696c6564a2646970667358221220fb537d1df0a2f3ea0050d30fb82ca020f06a83116d3853b9eda518a67b0c9be764736f6c63430008070033416464726573733a206c6f772d6c6576656c2064656c65676174652063616c6c206661696c6564360894a13ba1a3210667c828492db98dca3e2076cc3735a920a3ca505d382bbc416464726573733a206c6f772d6c6576656c2064656c65676174652063616c6c206661696c6564a264697066735822122004dfaaead06bd70e92b2862446fc2734b4e55f5475335e7e7751badcb4d5ef7664736f6c63430008070033",
  "devdoc": {
    "kind": "dev",
    "methods": {
      "constructor": {
        "custom:oz-upgrades-unsafe-allow": "constructor"
      },
      "owner()": {
        "details": "Returns the address of the current owner."
      },
      "proxiableUUID()": {
        "details": "Implementation of the ERC1822 {proxiableUUID} function. This returns the storage slot used by the implementation. It is used to validate that the this implementation remains valid after an upgrade. IMPORTANT: A proxy pointing at a proxiable contract should not be considered proxiable itself, because this risks bricking a proxy that upgrades to it, by delegating to itself until out of gas. Thus it is critical that this function revert if invoked through a proxy. This is guaranteed by the `notDelegated` modifier."
      },
      "renounceOwnership()": {
        "details": "Leaves the contract without owner. It will not be possible to call `onlyOwner` functions anymore. Can only be called by the current owner. NOTE: Renouncing ownership will leave the contract without an owner, thereby removing any functionality that is only available to the owner."
      },
      "transferOwnership(address)": {
        "details": "Transfers ownership of the contract to a new account (`newOwner`). Can only be called by the current owner."
      },
      "upgradeTo(address)": {
        "details": "Upgrade the implementation of the proxy to `newImplementation`. Calls {_authorizeUpgrade}. Emits an {Upgraded} event."
      },
      "upgradeToAndCall(address,bytes)": {
        "details": "Upgrade the implementation of the proxy to `newImplementation`, and subsequently execute the function call encoded in `data`. Calls {_authorizeUpgrade}. Emits an {Upgraded} event."
      }
    },
    "version": 1
  },
  "userdoc": {
    "kind": "user",
    "methods": {},
    "version": 1
  },
  "storageLayout": {
    "storage": [
      {
        "astId": 3247,
        "contract": "contracts/GovernFactory.sol:GovernFactory",
        "label": "_initialized",
        "offset": 0,
        "slot": "0",
        "type": "t_uint8"
      },
      {
        "astId": 3250,
        "contract": "contracts/GovernFactory.sol:GovernFactory",
        "label": "_initializing",
        "offset": 1,
        "slot": "0",
        "type": "t_bool"
      },
      {
        "astId": 3229,
        "contract": "contracts/GovernFactory.sol:GovernFactory",
        "label": "__gap",
        "offset": 0,
        "slot": "1",
        "type": "t_array(t_uint256)50_storage"
      },
      {
        "astId": 3526,
        "contract": "contracts/GovernFactory.sol:GovernFactory",
        "label": "__gap",
        "offset": 0,
        "slot": "51",
        "type": "t_array(t_uint256)50_storage"
      },
      {
        "astId": 8642,
        "contract": "contracts/GovernFactory.sol:GovernFactory",
        "label": "__gap",
        "offset": 0,
        "slot": "101",
        "type": "t_array(t_uint256)50_storage"
      },
      {
        "astId": 541,
        "contract": "contracts/GovernFactory.sol:GovernFactory",
        "label": "_owner",
        "offset": 0,
        "slot": "151",
        "type": "t_address"
      },
      {
        "astId": 661,
        "contract": "contracts/GovernFactory.sol:GovernFactory",
        "label": "__gap",
        "offset": 0,
        "slot": "152",
        "type": "t_array(t_uint256)49_storage"
      },
      {
        "astId": 23517,
        "contract": "contracts/GovernFactory.sol:GovernFactory",
        "label": "governImplementation",
        "offset": 0,
        "slot": "201",
        "type": "t_address"
      },
      {
        "astId": 23523,
        "contract": "contracts/GovernFactory.sol:GovernFactory",
        "label": "governMap",
        "offset": 0,
        "slot": "202",
        "type": "t_mapping(t_address,t_mapping(t_string_memory_ptr,t_address))"
      },
      {
        "astId": 23685,
        "contract": "contracts/GovernFactory.sol:GovernFactory",
        "label": "__gap",
        "offset": 0,
        "slot": "203",
        "type": "t_array(t_uint256)50_storage"
      }
    ],
    "types": {
      "t_address": {
        "encoding": "inplace",
        "label": "address",
        "numberOfBytes": "20"
      },
      "t_array(t_uint256)49_storage": {
        "base": "t_uint256",
        "encoding": "inplace",
        "label": "uint256[49]",
        "numberOfBytes": "1568"
      },
      "t_array(t_uint256)50_storage": {
        "base": "t_uint256",
        "encoding": "inplace",
        "label": "uint256[50]",
        "numberOfBytes": "1600"
      },
      "t_bool": {
        "encoding": "inplace",
        "label": "bool",
        "numberOfBytes": "1"
      },
      "t_mapping(t_address,t_mapping(t_string_memory_ptr,t_address))": {
        "encoding": "mapping",
        "key": "t_address",
        "label": "mapping(address => mapping(string => address))",
        "numberOfBytes": "32",
        "value": "t_mapping(t_string_memory_ptr,t_address)"
      },
      "t_mapping(t_string_memory_ptr,t_address)": {
        "encoding": "mapping",
        "key": "t_string_memory_ptr",
        "label": "mapping(string => address)",
        "numberOfBytes": "32",
        "value": "t_address"
      },
      "t_string_memory_ptr": {
        "encoding": "bytes",
        "label": "string",
        "numberOfBytes": "32"
      },
      "t_uint256": {
        "encoding": "inplace",
        "label": "uint256",
        "numberOfBytes": "32"
      },
      "t_uint8": {
        "encoding": "inplace",
        "label": "uint8",
        "numberOfBytes": "1"
      }
    }
  }
}