{
  "address": "0x6eA760bfC3132CC0f2B073c9a204cFC3b5b45081",
  "abi": [
    {
      "anonymous": false,
      "inputs": [
        {
          "indexed": false,
          "internalType": "address",
          "name": "target",
          "type": "address"
        }
      ],
      "name": "AllowAddress",
      "type": "event"
    },
    {
      "anonymous": false,
      "inputs": [
        {
          "indexed": false,
          "internalType": "uint256",
          "name": "amount",
          "type": "uint256"
        }
      ],
      "name": "AllowAmount",
      "type": "event"
    },
    {
      "anonymous": false,
      "inputs": [
        {
          "indexed": false,
          "internalType": "address",
          "name": "token",
          "type": "address"
        }
      ],
      "name": "AllowToToken",
      "type": "event"
    },
    {
      "anonymous": false,
      "inputs": [
        {
          "indexed": false,
          "internalType": "address",
          "name": "token",
          "type": "address"
        }
      ],
      "name": "AllowToken",
      "type": "event"
    },
    {
      "anonymous": false,
      "inputs": [
        {
          "indexed": true,
          "internalType": "uint256",
          "name": "id",
          "type": "uint256"
        },
        {
          "indexed": false,
          "internalType": "address",
          "name": "approver",
          "type": "address"
        },
        {
          "indexed": false,
          "internalType": "string",
          "name": "comment",
          "type": "string"
        }
      ],
      "name": "ApproveTransaction",
      "type": "event"
    },
    {
      "anonymous": false,
      "inputs": [
        {
          "indexed": true,
          "internalType": "uint256",
          "name": "id",
          "type": "uint256"
        },
        {
          "indexed": false,
          "internalType": "bytes[]",
          "name": "data",
          "type": "bytes[]"
        },
        {
          "indexed": false,
          "internalType": "uint256",
          "name": "deadline",
          "type": "uint256"
        },
        {
          "indexed": false,
          "internalType": "enum CommonBudgetApproval.Status",
          "name": "status",
          "type": "uint8"
        },
        {
          "indexed": false,
          "internalType": "string",
          "name": "comment",
          "type": "string"
        },
        {
          "indexed": false,
          "internalType": "address",
          "name": "creator",
          "type": "address"
        }
      ],
      "name": "CreateTransaction",
      "type": "event"
    },
    {
      "anonymous": false,
      "inputs": [
        {
          "indexed": true,
          "internalType": "uint256",
          "name": "id",
          "type": "uint256"
        },
        {
          "indexed": false,
          "internalType": "bytes[]",
          "name": "data",
          "type": "bytes[]"
        },
        {
          "indexed": false,
          "internalType": "address",
          "name": "_executor",
          "type": "address"
        }
      ],
      "name": "ExecuteTransaction",
      "type": "event"
    },
    {
      "anonymous": false,
      "inputs": [
        {
          "indexed": true,
          "internalType": "uint256",
          "name": "id",
          "type": "uint256"
        },
        {
          "indexed": true,
          "internalType": "address",
          "name": "executor",
          "type": "address"
        },
        {
          "indexed": true,
          "internalType": "address",
          "name": "toAddress",
          "type": "address"
        },
        {
          "indexed": false,
          "internalType": "address",
          "name": "token",
          "type": "address"
        },
        {
          "indexed": false,
          "internalType": "uint256",
          "name": "amount",
          "type": "uint256"
        }
      ],
      "name": "ExecuteUniswapInTransaction",
      "type": "event"
    },
    {
      "anonymous": false,
      "inputs": [
        {
          "indexed": true,
          "internalType": "uint256",
          "name": "id",
          "type": "uint256"
        },
        {
          "indexed": true,
          "internalType": "address",
          "name": "executor",
          "type": "address"
        },
        {
          "indexed": true,
          "internalType": "address",
          "name": "toAddress",
          "type": "address"
        },
        {
          "indexed": false,
          "internalType": "address",
          "name": "token",
          "type": "address"
        },
        {
          "indexed": false,
          "internalType": "uint256",
          "name": "amount",
          "type": "uint256"
        }
      ],
      "name": "ExecuteUniswapOutTransaction",
      "type": "event"
    },
    {
      "anonymous": false,
      "inputs": [
        {
          "indexed": true,
          "internalType": "uint256",
          "name": "id",
          "type": "uint256"
        },
        {
          "indexed": true,
          "internalType": "address",
          "name": "executor",
          "type": "address"
        },
        {
          "indexed": true,
          "internalType": "address",
          "name": "toAddress",
          "type": "address"
        },
        {
          "indexed": false,
          "internalType": "address",
          "name": "tokenIn",
          "type": "address"
        },
        {
          "indexed": false,
          "internalType": "address",
          "name": "tokenOut",
          "type": "address"
        },
        {
          "indexed": false,
          "internalType": "uint256",
          "name": "amount",
          "type": "uint256"
        }
      ],
      "name": "ExecuteWETH9Transaction",
      "type": "event"
    },
    {
      "anonymous": false,
      "inputs": [
        {
          "indexed": false,
          "internalType": "uint8",
          "name": "version",
          "type": "uint8"
        }
      ],
      "name": "Initialized",
      "type": "event"
    },
    {
      "anonymous": false,
      "inputs": [
        {
          "indexed": true,
          "internalType": "uint256",
          "name": "id",
          "type": "uint256"
        }
      ],
      "name": "RevokeTransaction",
      "type": "event"
    },
    {
      "anonymous": false,
      "inputs": [
        {
          "indexed": false,
          "internalType": "address",
          "name": "approver",
          "type": "address"
        }
      ],
      "name": "SetApprover",
      "type": "event"
    },
    {
      "inputs": [],
      "name": "RECIPIENT_EXECUTEE",
      "outputs": [
        {
          "internalType": "address",
          "name": "",
          "type": "address"
        }
      ],
      "stateMutability": "view",
      "type": "function"
    },
    {
      "inputs": [],
      "name": "RECIPIENT_UNISWAP_ROUTER",
      "outputs": [
        {
          "internalType": "address",
          "name": "",
          "type": "address"
        }
      ],
      "stateMutability": "view",
      "type": "function"
    },
    {
      "inputs": [],
      "name": "WETH9",
      "outputs": [
        {
          "internalType": "address",
          "name": "",
          "type": "address"
        }
      ],
      "stateMutability": "pure",
      "type": "function"
    },
    {
      "inputs": [],
      "name": "afterInitialized",
      "outputs": [],
      "stateMutability": "nonpayable",
      "type": "function"
    },
    {
      "inputs": [],
      "name": "allowAllFromTokens",
      "outputs": [
        {
          "internalType": "bool",
          "name": "",
          "type": "bool"
        }
      ],
      "stateMutability": "view",
      "type": "function"
    },
    {
      "inputs": [],
      "name": "allowAllToTokens",
      "outputs": [
        {
          "internalType": "bool",
          "name": "",
          "type": "bool"
        }
      ],
      "stateMutability": "view",
      "type": "function"
    },
    {
      "inputs": [],
      "name": "allowAnyAmount",
      "outputs": [
        {
          "internalType": "bool",
          "name": "",
          "type": "bool"
        }
      ],
      "stateMutability": "view",
      "type": "function"
    },
    {
      "inputs": [],
      "name": "allowUnlimitedUsageCount",
      "outputs": [
        {
          "internalType": "bool",
          "name": "",
          "type": "bool"
        }
      ],
      "stateMutability": "view",
      "type": "function"
    },
    {
      "inputs": [],
      "name": "amountPercentage",
      "outputs": [
        {
          "internalType": "uint8",
          "name": "",
          "type": "uint8"
        }
      ],
      "stateMutability": "view",
      "type": "function"
    },
    {
      "inputs": [
        {
          "internalType": "address",
          "name": "_fromToken",
          "type": "address"
        }
      ],
      "name": "approveTokenForUniswap",
      "outputs": [],
      "stateMutability": "nonpayable",
      "type": "function"
    },
    {
      "inputs": [
        {
          "internalType": "uint256",
          "name": "id",
          "type": "uint256"
        },
        {
          "internalType": "string",
          "name": "comment",
          "type": "string"
        }
      ],
      "name": "approveTransaction",
      "outputs": [],
      "stateMutability": "nonpayable",
      "type": "function"
    },
    {
      "inputs": [],
      "name": "approverTeamId",
      "outputs": [
        {
          "internalType": "uint256",
          "name": "",
          "type": "uint256"
        }
      ],
      "stateMutability": "view",
      "type": "function"
    },
    {
      "inputs": [
        {
          "internalType": "address",
          "name": "eoa",
          "type": "address"
        }
      ],
      "name": "approversMapping",
      "outputs": [
        {
          "internalType": "bool",
          "name": "",
          "type": "bool"
        }
      ],
      "stateMutability": "view",
      "type": "function"
    },
    {
      "inputs": [
        {
          "internalType": "bytes[]",
          "name": "_data",
          "type": "bytes[]"
        },
        {
          "internalType": "uint32",
          "name": "_deadline",
          "type": "uint32"
        },
        {
          "internalType": "bool",
          "name": "_isExecute",
          "type": "bool"
        },
        {
          "internalType": "string",
          "name": "comment",
          "type": "string"
        }
      ],
      "name": "createTransaction",
      "outputs": [
        {
          "internalType": "uint256",
          "name": "",
          "type": "uint256"
        }
      ],
      "stateMutability": "nonpayable",
      "type": "function"
    },
    {
      "inputs": [
        {
          "internalType": "bytes",
          "name": "rawData",
          "type": "bytes"
        },
        {
          "internalType": "uint256",
          "name": "value",
          "type": "uint256"
        },
        {
          "internalType": "bytes",
          "name": "response",
          "type": "bytes"
        }
      ],
      "name": "decodeUniswapMulticall",
      "outputs": [
        {
          "components": [
            {
              "internalType": "address",
              "name": "recipient",
              "type": "address"
            },
            {
              "internalType": "address",
              "name": "tokenIn",
              "type": "address"
            },
            {
              "internalType": "address",
              "name": "tokenOut",
              "type": "address"
            },
            {
              "internalType": "uint256",
              "name": "amountIn",
              "type": "uint256"
            },
            {
              "internalType": "uint256",
              "name": "amountOut",
              "type": "uint256"
            },
            {
              "internalType": "enum UniswapSwapper.MulticallResultAttribute",
              "name": "resultType",
              "type": "uint8"
            }
          ],
          "internalType": "struct UniswapSwapper.MulticallData[]",
          "name": "multicalData",
          "type": "tuple[]"
        }
      ],
      "stateMutability": "view",
      "type": "function"
    },
    {
      "inputs": [
        {
          "internalType": "bytes",
          "name": "data",
          "type": "bytes"
        },
        {
          "internalType": "uint256",
          "name": "value",
          "type": "uint256"
        }
      ],
      "name": "decodeWETH9Call",
      "outputs": [
        {
          "internalType": "address",
          "name": "tokenIn",
          "type": "address"
        },
        {
          "internalType": "address",
          "name": "tokenOut",
          "type": "address"
        },
        {
          "internalType": "uint256",
          "name": "amount",
          "type": "uint256"
        }
      ],
      "stateMutability": "pure",
      "type": "function"
    },
    {
      "inputs": [],
      "name": "endTime",
      "outputs": [
        {
          "internalType": "uint256",
          "name": "",
          "type": "uint256"
        }
      ],
      "stateMutability": "view",
      "type": "function"
    },
    {
      "inputs": [
        {
          "components": [
            {
              "internalType": "bytes",
              "name": "path",
              "type": "bytes"
            },
            {
              "internalType": "address",
              "name": "recipient",
              "type": "address"
            },
            {
              "internalType": "uint256",
              "name": "amountIn",
              "type": "uint256"
            },
            {
              "internalType": "uint256",
              "name": "amountOutMinimum",
              "type": "uint256"
            }
          ],
          "internalType": "struct IV3SwapRouter.ExactInputParams",
          "name": "params",
          "type": "tuple"
        }
      ],
      "name": "exactInput",
      "outputs": [
        {
          "components": [
            {
              "internalType": "address",
              "name": "recipient",
              "type": "address"
            },
            {
              "internalType": "address",
              "name": "tokenIn",
              "type": "address"
            },
            {
              "internalType": "address",
              "name": "tokenOut",
              "type": "address"
            },
            {
              "internalType": "uint256",
              "name": "amountIn",
              "type": "uint256"
            },
            {
              "internalType": "uint256",
              "name": "amountOut",
              "type": "uint256"
            },
            {
              "internalType": "enum UniswapSwapper.MulticallResultAttribute",
              "name": "resultType",
              "type": "uint8"
            }
          ],
          "internalType": "struct UniswapSwapper.MulticallData",
          "name": "",
          "type": "tuple"
        }
      ],
      "stateMutability": "pure",
      "type": "function"
    },
    {
      "inputs": [
        {
          "components": [
            {
              "internalType": "address",
              "name": "tokenIn",
              "type": "address"
            },
            {
              "internalType": "address",
              "name": "tokenOut",
              "type": "address"
            },
            {
              "internalType": "uint24",
              "name": "fee",
              "type": "uint24"
            },
            {
              "internalType": "address",
              "name": "recipient",
              "type": "address"
            },
            {
              "internalType": "uint256",
              "name": "amountIn",
              "type": "uint256"
            },
            {
              "internalType": "uint256",
              "name": "amountOutMinimum",
              "type": "uint256"
            },
            {
              "internalType": "uint160",
              "name": "sqrtPriceLimitX96",
              "type": "uint160"
            }
          ],
          "internalType": "struct IV3SwapRouter.ExactInputSingleParams",
          "name": "params",
          "type": "tuple"
        }
      ],
      "name": "exactInputSingle",
      "outputs": [
        {
          "components": [
            {
              "internalType": "address",
              "name": "recipient",
              "type": "address"
            },
            {
              "internalType": "address",
              "name": "tokenIn",
              "type": "address"
            },
            {
              "internalType": "address",
              "name": "tokenOut",
              "type": "address"
            },
            {
              "internalType": "uint256",
              "name": "amountIn",
              "type": "uint256"
            },
            {
              "internalType": "uint256",
              "name": "amountOut",
              "type": "uint256"
            },
            {
              "internalType": "enum UniswapSwapper.MulticallResultAttribute",
              "name": "resultType",
              "type": "uint8"
            }
          ],
          "internalType": "struct UniswapSwapper.MulticallData",
          "name": "",
          "type": "tuple"
        }
      ],
      "stateMutability": "pure",
      "type": "function"
    },
    {
      "inputs": [
        {
          "components": [
            {
              "internalType": "bytes",
              "name": "path",
              "type": "bytes"
            },
            {
              "internalType": "address",
              "name": "recipient",
              "type": "address"
            },
            {
              "internalType": "uint256",
              "name": "amountOut",
              "type": "uint256"
            },
            {
              "internalType": "uint256",
              "name": "amountInMaximum",
              "type": "uint256"
            }
          ],
          "internalType": "struct IV3SwapRouter.ExactOutputParams",
          "name": "params",
          "type": "tuple"
        }
      ],
      "name": "exactOutput",
      "outputs": [
        {
          "components": [
            {
              "internalType": "address",
              "name": "recipient",
              "type": "address"
            },
            {
              "internalType": "address",
              "name": "tokenIn",
              "type": "address"
            },
            {
              "internalType": "address",
              "name": "tokenOut",
              "type": "address"
            },
            {
              "internalType": "uint256",
              "name": "amountIn",
              "type": "uint256"
            },
            {
              "internalType": "uint256",
              "name": "amountOut",
              "type": "uint256"
            },
            {
              "internalType": "enum UniswapSwapper.MulticallResultAttribute",
              "name": "resultType",
              "type": "uint8"
            }
          ],
          "internalType": "struct UniswapSwapper.MulticallData",
          "name": "",
          "type": "tuple"
        }
      ],
      "stateMutability": "pure",
      "type": "function"
    },
    {
      "inputs": [
        {
          "components": [
            {
              "internalType": "address",
              "name": "tokenIn",
              "type": "address"
            },
            {
              "internalType": "address",
              "name": "tokenOut",
              "type": "address"
            },
            {
              "internalType": "uint24",
              "name": "fee",
              "type": "uint24"
            },
            {
              "internalType": "address",
              "name": "recipient",
              "type": "address"
            },
            {
              "internalType": "uint256",
              "name": "amountOut",
              "type": "uint256"
            },
            {
              "internalType": "uint256",
              "name": "amountInMaximum",
              "type": "uint256"
            },
            {
              "internalType": "uint160",
              "name": "sqrtPriceLimitX96",
              "type": "uint160"
            }
          ],
          "internalType": "struct IV3SwapRouter.ExactOutputSingleParams",
          "name": "params",
          "type": "tuple"
        }
      ],
      "name": "exactOutputSingle",
      "outputs": [
        {
          "components": [
            {
              "internalType": "address",
              "name": "recipient",
              "type": "address"
            },
            {
              "internalType": "address",
              "name": "tokenIn",
              "type": "address"
            },
            {
              "internalType": "address",
              "name": "tokenOut",
              "type": "address"
            },
            {
              "internalType": "uint256",
              "name": "amountIn",
              "type": "uint256"
            },
            {
              "internalType": "uint256",
              "name": "amountOut",
              "type": "uint256"
            },
            {
              "internalType": "enum UniswapSwapper.MulticallResultAttribute",
              "name": "resultType",
              "type": "uint8"
            }
          ],
          "internalType": "struct UniswapSwapper.MulticallData",
          "name": "",
          "type": "tuple"
        }
      ],
      "stateMutability": "pure",
      "type": "function"
    },
    {
      "inputs": [],
      "name": "executeParams",
      "outputs": [
        {
          "internalType": "string[]",
          "name": "",
          "type": "string[]"
        }
      ],
      "stateMutability": "pure",
      "type": "function"
    },
    {
      "inputs": [
        {
          "internalType": "uint256",
          "name": "id",
          "type": "uint256"
        }
      ],
      "name": "executeTransaction",
      "outputs": [],
      "stateMutability": "nonpayable",
      "type": "function"
    },
    {
      "inputs": [],
      "name": "executee",
      "outputs": [
        {
          "internalType": "address",
          "name": "",
          "type": "address"
        }
      ],
      "stateMutability": "view",
      "type": "function"
    },
    {
      "inputs": [],
      "name": "executor",
      "outputs": [
        {
          "internalType": "address",
          "name": "",
          "type": "address"
        }
      ],
      "stateMutability": "view",
      "type": "function"
    },
    {
      "inputs": [],
      "name": "executorTeamId",
      "outputs": [
        {
          "internalType": "uint256",
          "name": "",
          "type": "uint256"
        }
      ],
      "stateMutability": "view",
      "type": "function"
    },
    {
      "inputs": [],
      "name": "fromToken",
      "outputs": [
        {
          "internalType": "address",
          "name": "",
          "type": "address"
        }
      ],
      "stateMutability": "view",
      "type": "function"
    },
    {
      "inputs": [
        {
          "components": [
            {
              "internalType": "address",
              "name": "executor",
              "type": "address"
            },
            {
              "internalType": "uint256",
              "name": "executorTeamId",
              "type": "uint256"
            },
            {
              "internalType": "address[]",
              "name": "approvers",
              "type": "address[]"
            },
            {
              "internalType": "uint256",
              "name": "approverTeamId",
              "type": "uint256"
            },
            {
              "internalType": "uint256",
              "name": "minApproval",
              "type": "uint256"
            },
            {
              "internalType": "string",
              "name": "text",
              "type": "string"
            },
            {
              "internalType": "string",
              "name": "transactionType",
              "type": "string"
            },
            {
              "internalType": "uint256",
              "name": "startTime",
              "type": "uint256"
            },
            {
              "internalType": "uint256",
              "name": "endTime",
              "type": "uint256"
            },
            {
              "internalType": "bool",
              "name": "allowUnlimitedUsageCount",
              "type": "bool"
            },
            {
              "internalType": "uint256",
              "name": "usageCount",
              "type": "uint256"
            },
            {
              "internalType": "address",
              "name": "team",
              "type": "address"
            }
          ],
          "internalType": "struct CommonBudgetApproval.InitializeParams",
          "name": "params",
          "type": "tuple"
        },
        {
          "internalType": "bool",
          "name": "_allowAllFromTokens",
          "type": "bool"
        },
        {
          "internalType": "address",
          "name": "_fromToken",
          "type": "address"
        },
        {
          "internalType": "bool",
          "name": "_allowAllToTokens",
          "type": "bool"
        },
        {
          "internalType": "address[]",
          "name": "_toTokens",
          "type": "address[]"
        },
        {
          "internalType": "bool",
          "name": "_allowAnyAmount",
          "type": "bool"
        },
        {
          "internalType": "uint256",
          "name": "_totalAmount",
          "type": "uint256"
        },
        {
          "internalType": "uint8",
          "name": "_amountPercentage",
          "type": "uint8"
        }
      ],
      "name": "initialize",
      "outputs": [],
      "stateMutability": "nonpayable",
      "type": "function"
    },
    {
      "inputs": [],
      "name": "minApproval",
      "outputs": [
        {
          "internalType": "uint256",
          "name": "",
          "type": "uint256"
        }
      ],
      "stateMutability": "view",
      "type": "function"
    },
    {
      "inputs": [],
      "name": "name",
      "outputs": [
        {
          "internalType": "string",
          "name": "",
          "type": "string"
        }
      ],
      "stateMutability": "view",
      "type": "function"
    },
    {
      "inputs": [],
      "name": "refundETH",
      "outputs": [
        {
          "components": [
            {
              "internalType": "address",
              "name": "recipient",
              "type": "address"
            },
            {
              "internalType": "address",
              "name": "tokenIn",
              "type": "address"
            },
            {
              "internalType": "address",
              "name": "tokenOut",
              "type": "address"
            },
            {
              "internalType": "uint256",
              "name": "amountIn",
              "type": "uint256"
            },
            {
              "internalType": "uint256",
              "name": "amountOut",
              "type": "uint256"
            },
            {
              "internalType": "enum UniswapSwapper.MulticallResultAttribute",
              "name": "resultType",
              "type": "uint8"
            }
          ],
          "internalType": "struct UniswapSwapper.MulticallData",
          "name": "",
          "type": "tuple"
        }
      ],
      "stateMutability": "pure",
      "type": "function"
    },
    {
      "inputs": [
        {
          "internalType": "uint256",
          "name": "id",
          "type": "uint256"
        }
      ],
      "name": "revokeTransaction",
      "outputs": [],
      "stateMutability": "nonpayable",
      "type": "function"
    },
    {
      "inputs": [
        {
          "internalType": "address",
          "name": "",
          "type": "address"
        },
        {
          "internalType": "uint256",
          "name": "",
          "type": "uint256"
        },
        {
          "internalType": "uint256",
          "name": "",
          "type": "uint256"
        },
        {
          "internalType": "uint8",
          "name": "",
          "type": "uint8"
        },
        {
          "internalType": "bytes32",
          "name": "",
          "type": "bytes32"
        },
        {
          "internalType": "bytes32",
          "name": "",
          "type": "bytes32"
        }
      ],
      "name": "selfPermit",
      "outputs": [
        {
          "components": [
            {
              "internalType": "address",
              "name": "recipient",
              "type": "address"
            },
            {
              "internalType": "address",
              "name": "tokenIn",
              "type": "address"
            },
            {
              "internalType": "address",
              "name": "tokenOut",
              "type": "address"
            },
            {
              "internalType": "uint256",
              "name": "amountIn",
              "type": "uint256"
            },
            {
              "internalType": "uint256",
              "name": "amountOut",
              "type": "uint256"
            },
            {
              "internalType": "enum UniswapSwapper.MulticallResultAttribute",
              "name": "resultType",
              "type": "uint8"
            }
          ],
          "internalType": "struct UniswapSwapper.MulticallData",
          "name": "",
          "type": "tuple"
        }
      ],
      "stateMutability": "pure",
      "type": "function"
    },
    {
      "inputs": [],
      "name": "startTime",
      "outputs": [
        {
          "internalType": "uint256",
          "name": "",
          "type": "uint256"
        }
      ],
      "stateMutability": "view",
      "type": "function"
    },
    {
      "inputs": [
        {
          "internalType": "uint256",
          "name": "amountIn",
          "type": "uint256"
        },
        {
          "internalType": "uint256",
          "name": "amountOutMin",
          "type": "uint256"
        },
        {
          "internalType": "address[]",
          "name": "path",
          "type": "address[]"
        },
        {
          "internalType": "address",
          "name": "recipient",
          "type": "address"
        }
      ],
      "name": "swapExactTokensForTokens",
      "outputs": [
        {
          "components": [
            {
              "internalType": "address",
              "name": "recipient",
              "type": "address"
            },
            {
              "internalType": "address",
              "name": "tokenIn",
              "type": "address"
            },
            {
              "internalType": "address",
              "name": "tokenOut",
              "type": "address"
            },
            {
              "internalType": "uint256",
              "name": "amountIn",
              "type": "uint256"
            },
            {
              "internalType": "uint256",
              "name": "amountOut",
              "type": "uint256"
            },
            {
              "internalType": "enum UniswapSwapper.MulticallResultAttribute",
              "name": "resultType",
              "type": "uint8"
            }
          ],
          "internalType": "struct UniswapSwapper.MulticallData",
          "name": "",
          "type": "tuple"
        }
      ],
      "stateMutability": "pure",
      "type": "function"
    },
    {
      "inputs": [
        {
          "internalType": "uint256",
          "name": "amountOut",
          "type": "uint256"
        },
        {
          "internalType": "uint256",
          "name": "amountInMax",
          "type": "uint256"
        },
        {
          "internalType": "address[]",
          "name": "path",
          "type": "address[]"
        },
        {
          "internalType": "address",
          "name": "recipient",
          "type": "address"
        }
      ],
      "name": "swapTokensForExactTokens",
      "outputs": [
        {
          "components": [
            {
              "internalType": "address",
              "name": "recipient",
              "type": "address"
            },
            {
              "internalType": "address",
              "name": "tokenIn",
              "type": "address"
            },
            {
              "internalType": "address",
              "name": "tokenOut",
              "type": "address"
            },
            {
              "internalType": "uint256",
              "name": "amountIn",
              "type": "uint256"
            },
            {
              "internalType": "uint256",
              "name": "amountOut",
              "type": "uint256"
            },
            {
              "internalType": "enum UniswapSwapper.MulticallResultAttribute",
              "name": "resultType",
              "type": "uint8"
            }
          ],
          "internalType": "struct UniswapSwapper.MulticallData",
          "name": "",
          "type": "tuple"
        }
      ],
      "stateMutability": "pure",
      "type": "function"
    },
    {
      "inputs": [
        {
          "internalType": "address",
          "name": "token",
          "type": "address"
        },
        {
          "internalType": "uint256",
          "name": "amountMinimum",
          "type": "uint256"
        },
        {
          "internalType": "address",
          "name": "recipient",
          "type": "address"
        }
      ],
      "name": "sweepToken",
      "outputs": [
        {
          "components": [
            {
              "internalType": "address",
              "name": "recipient",
              "type": "address"
            },
            {
              "internalType": "address",
              "name": "tokenIn",
              "type": "address"
            },
            {
              "internalType": "address",
              "name": "tokenOut",
              "type": "address"
            },
            {
              "internalType": "uint256",
              "name": "amountIn",
              "type": "uint256"
            },
            {
              "internalType": "uint256",
              "name": "amountOut",
              "type": "uint256"
            },
            {
              "internalType": "enum UniswapSwapper.MulticallResultAttribute",
              "name": "resultType",
              "type": "uint8"
            }
          ],
          "internalType": "struct UniswapSwapper.MulticallData",
          "name": "",
          "type": "tuple"
        }
      ],
      "stateMutability": "pure",
      "type": "function"
    },
    {
      "inputs": [],
      "name": "team",
      "outputs": [
        {
          "internalType": "address",
          "name": "",
          "type": "address"
        }
      ],
      "stateMutability": "view",
      "type": "function"
    },
    {
      "inputs": [],
      "name": "text",
      "outputs": [
        {
          "internalType": "string",
          "name": "",
          "type": "string"
        }
      ],
      "stateMutability": "view",
      "type": "function"
    },
    {
      "inputs": [
        {
          "internalType": "address",
          "name": "",
          "type": "address"
        }
      ],
      "name": "toTokensMapping",
      "outputs": [
        {
          "internalType": "bool",
          "name": "",
          "type": "bool"
        }
      ],
      "stateMutability": "view",
      "type": "function"
    },
    {
      "inputs": [],
      "name": "totalAmount",
      "outputs": [
        {
          "internalType": "uint256",
          "name": "",
          "type": "uint256"
        }
      ],
      "stateMutability": "view",
      "type": "function"
    },
    {
      "inputs": [],
      "name": "transactionType",
      "outputs": [
        {
          "internalType": "string",
          "name": "",
          "type": "string"
        }
      ],
      "stateMutability": "view",
      "type": "function"
    },
    {
      "inputs": [
        {
          "internalType": "uint256",
          "name": "",
          "type": "uint256"
        }
      ],
      "name": "transactions",
      "outputs": [
        {
          "internalType": "uint256",
          "name": "id",
          "type": "uint256"
        },
        {
          "internalType": "enum CommonBudgetApproval.Status",
          "name": "status",
          "type": "uint8"
        },
        {
          "internalType": "uint32",
          "name": "deadline",
          "type": "uint32"
        },
        {
          "internalType": "bool",
          "name": "isExist",
          "type": "bool"
        },
        {
          "internalType": "uint256",
          "name": "approvedCount",
          "type": "uint256"
        }
      ],
      "stateMutability": "view",
      "type": "function"
    },
    {
      "inputs": [
        {
          "internalType": "uint256",
          "name": "amountMinimum",
          "type": "uint256"
        },
        {
          "internalType": "address",
          "name": "recipient",
          "type": "address"
        }
      ],
      "name": "unwrapWETH9",
      "outputs": [
        {
          "components": [
            {
              "internalType": "address",
              "name": "recipient",
              "type": "address"
            },
            {
              "internalType": "address",
              "name": "tokenIn",
              "type": "address"
            },
            {
              "internalType": "address",
              "name": "tokenOut",
              "type": "address"
            },
            {
              "internalType": "uint256",
              "name": "amountIn",
              "type": "uint256"
            },
            {
              "internalType": "uint256",
              "name": "amountOut",
              "type": "uint256"
            },
            {
              "internalType": "enum UniswapSwapper.MulticallResultAttribute",
              "name": "resultType",
              "type": "uint8"
            }
          ],
          "internalType": "struct UniswapSwapper.MulticallData",
          "name": "",
          "type": "tuple"
        }
      ],
      "stateMutability": "pure",
      "type": "function"
    },
    {
      "inputs": [],
      "name": "usageCount",
      "outputs": [
        {
          "internalType": "uint256",
          "name": "",
          "type": "uint256"
        }
      ],
      "stateMutability": "view",
      "type": "function"
    }
  ],
  "transactionHash": "0x7ffa50f91529cea5427ff746149c4ec4d3ee44077f36f5ef9e07d2a12940d651",
  "args": [],
  "numDeployments": 1,
  "solcInputHash": "38e7eb5676ede9c2fa33ab048adf4ed8",
  "bytecode": "0x60806040523480156200001157600080fd5b506200001c6200002c565b620000266200002c565b620000ee565b600054610100900460ff1615620000995760405162461bcd60e51b815260206004820152602760248201527f496e697469616c697a61626c653a20636f6e747261637420697320696e697469604482015266616c697a696e6760c81b606482015260840160405180910390fd5b60005460ff9081161015620000ec576000805460ff191660ff9081179091556040519081527f7f26b83ff96e1f2b6a682f133852f6798a09c465da95921460cefb38474024989060200160405180910390a15b565b61468980620000fe6000396000f3fe608060405234801561001057600080fd5b506004361061027f5760003560e01c80635ad325021161015c578063b18b32fb116100ce578063df2ab5bb11610087578063df2ab5bb146105b3578063e99dd444146105c6578063ee22610b146105ce578063f3995c67146105e1578063f5c03852146105f4578063f961f79a1461060557600080fd5b8063b18b32fb14610558578063b858183f14610577578063c34c08e51461058a578063cf26fec61461059b578063d96c9196146105a3578063de755e2f146105ab57600080fd5b80637cd47d93116101205780637cd47d931461049d57806385015437146104a557806385f2aef2146104b257806397c85a61146104c35780639ace38c2146104d6578063a7d69bd21461053557600080fd5b80635ad32502146104435780636bdebe5e1461044e578063735631ad1461047a578063765b60321461048d57806378e979251461049557600080fd5b806332a46857116101f557806349404b7c116101b957806349404b7c146103d45780634aa4a4fc146103e75780634c41e0e3146104015780635023b4df1461041557806350bd881f146104285780635251ee371461043057600080fd5b806332a4685714610341578063355e8b4b146103715780633814d2511461038e57806342712a67146103ae578063472b43f3146103c157600080fd5b806312210e8a1161024757806312210e8a146102f857806314b893f9146103005780631a39d8ef146103135780631f1bd6921461031c5780633197cbb61461032457806331a7bdd91461032c57600080fd5b806303f751eb1461028457806303ff90f61461029957806304e45aaf146102b057806306fdde03146102d057806309b81346146102e5575b600080fd5b610297610292366004613dfb565b61063e565b005b6008545b6040519081526020015b60405180910390f35b6102c36102be366004613ddf565b610853565b6040516102a79190614375565b6102d86108e2565b6040516102a79190614320565b6102c36102f3366004613dab565b6108fe565b6102c36109d8565b61029d61030e366004613ac4565b610a15565b61029d60455481565b6102d8610c27565b600e5461029d565b610334610cb9565b6040516102a79190614219565b6042546103599061010090046001600160a01b031681565b6040516001600160a01b0390911681526020016102a7565b60425461037e9060ff1681565b60405190151581526020016102a7565b6103a161039c366004613d3f565b610db7565b6040516102a7919061427b565b6102c36103bc366004613f94565b61111b565b6102c36103cf366004613f94565b6111cf565b6102c36103e2366004613f19565b61127b565b73cda739d69067333974cd73a722ab92e5e0ad8a4f610359565b60425461037e90600160a81b900460ff1681565b6102c3610423366004613ddf565b6112fb565b600c5461029d565b61029761043e366004613934565b611386565b600b5460ff1661037e565b61037e61045c366004613934565b6001600160a01b031660009081526006602052604090205460ff1690565b610297610488366004613ee7565b61156b565b610359600181565b600d5461029d565b6102d8611761565b60445461037e9060ff1681565b600f546001600160a01b0316610359565b6102976104d1366004613f49565b611770565b6105246104e4366004613ee7565b600260208190526000918252604090912080549181015460039091015460ff8083169263ffffffff61010082041692650100000000009091049091169085565b6040516102a7959493929190614383565b61037e610543366004613934565b60436020526000908152604090205460ff1681565b6046546105659060ff1681565b60405160ff90911681526020016102a7565b6102c3610585366004613dab565b611aa0565b6003546001600160a01b0316610359565b610297611b34565b60075461029d565b60045461029d565b6102c36105c13660046139f4565b611bbf565b610359600281565b6102976105dc366004613ee7565b611c2a565b6102c36105ef366004613a36565b6120b2565b6005546001600160a01b0316610359565b610618610613366004613cfb565b6120f5565b604080516001600160a01b039485168152939092166020840152908201526060016102a7565b600054610100900460ff161580801561065e5750600054600160ff909116105b806106785750303b158015610678575060005460ff166001145b6106e05760405162461bcd60e51b815260206004820152602e60248201527f496e697469616c697a61626c653a20636f6e747261637420697320616c72656160448201526d191e481a5b9a5d1a585b1a5e995960921b60648201526084015b60405180910390fd5b6000805460ff191660011790558015610703576000805461ff0019166101001790555b61070c8a61222b565b6042805460ff19168a1515179055886107795760428054610100600160a81b0319166101006001600160a01b038b16908102919091179091556040519081527f14009112f2dcb15cad32dab6bf972d6d85286e4ae1178f27323ffe25359459e69060200160405180910390a15b6042805460ff60a81b1916600160a81b8915150217905560005b858110156107dc576107ca8787838181106107b0576107b06145f1565b90506020020160208101906107c59190613934565b6124f9565b806107d4816145aa565b915050610793565b506044805460ff199081168615151790915560458490556046805490911660ff84161790558015610847576000805461ff0019169055604051600181527f7f26b83ff96e1f2b6a682f133852f6798a09c465da95921460cefb38474024989060200160405180910390a15b50505050505050505050565b61085b613474565b6040805160c08101909152806108776080850160608601613934565b6001600160a01b0316815260209081019061089490850185613934565b6001600160a01b031681526020018360200160208101906108b59190613934565b6001600160a01b031681526080840135602082015260a0840135604082015260600160025b905292915050565b6040518060600160405280602181526020016146336021913981565b610906613474565b6040518060c001604052808360200160208101906109249190613934565b6001600160a01b0316815260200161097e60006109418680614402565b8080601f01602080910402602001604051908101604052809392919081815260200183838082843760009201919091525092939250506125ca9050565b6001600160a01b031681526020016109b0601461099b8680614402565b6109a692915061451b565b6109418680614402565b6001600160a01b031681526060808501356020830152604080860135908301520160016108da565b6109e0613474565b6040805160c08101825260008082526020820181905291810182905260608101829052608081018290529060a0820152919050565b6000610a296003546001600160a01b031690565b6001600160a01b0316336001600160a01b03161480610aec57506000610a57600f546001600160a01b031690565b6001600160a01b031662fdd58e33610a6e60045490565b6040516001600160e01b031960e085901b1681526001600160a01b039092166004830152602482015260440160206040518083038186803b158015610ab257600080fd5b505afa158015610ac6573d6000803e3d6000fd5b505050506040513d601f19601f82011682018060405250810190610aea9190613f00565b115b610b085760405162461bcd60e51b81526004016106d790614333565b610b16600180546001019055565b6000610b2160015490565b6000818152600260209081526040909120828155895192935091610b4d916001840191908b01906134a7565b506002810180546501000000000065ffffffffff001990911661010063ffffffff8b160265ff0000000000191617179055600854610ba757600082815260026020819052604090912001805460ff19166001179055610bc2565b600082815260026020819052604090912001805460ff191690555b600281015460405183917f8a5186dbaf6f344b2837e11834be94edebb633f05034f422c6b1fe1595b4d0cc91610c05918c918c9160ff16908b908b9033906141be565b60405180910390a28515610c1c57610c1c82611c2a565b509695505050505050565b606060098054610c3690614575565b80601f0160208091040260200160405190810160405280929190818152602001828054610c6290614575565b8015610caf5780601f10610c8457610100808354040283529160200191610caf565b820191906000526020600020905b815481529060010190602001808311610c9257829003601f168201915b5050505050905090565b6040805160038082526080820190925260609160009190816020015b6060815260200190600190039081610cd55790505090506040518060400160405280600a8152602001696164647265737320746f60b01b81525081600081518110610d2257610d226145f1565b60200260200101819052506040518060400160405280600a8152602001696279746573206461746160b01b81525081600181518110610d6357610d636145f1565b60200260200101819052506040518060400160405280600d81526020016c75696e743235362076616c756560981b81525081600281518110610da757610da76145f1565b6020908102919091010152919050565b60606000610dc48561262f565b90506060600085905082516001600160401b03811115610de657610de6614607565b604051908082528060200260200182016040528015610e1f57816020015b610e0c613474565b815260200190600190039081610e045790505b5093508451600014610e425784806020019051810190610e3f9190613a90565b91505b60005b83518110156110c257600080306001600160a01b0316868481518110610e6d57610e6d6145f1565b6020026020010151604051610e829190614116565b600060405180830381855afa9150503d8060008114610ebd576040519150601f19603f3d011682016040523d82523d6000602084013e610ec2565b606091505b509150915081610f145760405162461bcd60e51b815260206004820181905260248201527f6661696c20746f206465636f646520756e6973776170206d756c746963616c6c60448201526064016106d7565b600081806020019051810190610f2a9190613ecb565b60208101519091506001600160a01b031673cda739d69067333974cd73a722ab92e5e0ad8a4f148015610f5c57508415155b15610fe1578481606001511115610fb55760405162461bcd60e51b815260206004820152601d60248201527f6661696c20746f206465636f646520574554482073776170206461746100000060448201526064016106d7565b73eeeeeeeeeeeeeeeeeeeeeeeeeeeeeeeeeeeeeeee60208201526060810151610fde908661451b565b94505b85511561108e5760018160a001516002811115611000576110006145db565b141561103d57858481518110611018576110186145f1565b60200260200101518060200190518101906110339190613f00565b606082015261108e565b60028160a001516002811115611055576110556145db565b141561108e5785848151811061106d5761106d6145f1565b60200260200101518060200190518101906110889190613f00565b60808201525b808885815181106110a1576110a16145f1565b602002602001018190525050505080806110ba906145aa565b915050610e45565b5080156111115760405162461bcd60e51b815260206004820152601f60248201527f70617373696e6720746f6f206d7563682045544820746f20756e69737761700060448201526064016106d7565b5050509392505050565b611123613474565b6040518060c00160405280836001600160a01b0316815260200185856000818110611150576111506145f1565b90506020020160208101906111659190613934565b6001600160a01b03168152602001858561118060018261451b565b81811061118f5761118f6145f1565b90506020020160208101906111a49190613934565b6001600160a01b03168152602081018790526040810188905260600160015b90529695505050505050565b6111d7613474565b6040518060c00160405280836001600160a01b0316815260200185856000818110611204576112046145f1565b90506020020160208101906112199190613934565b6001600160a01b03168152602001858561123460018261451b565b818110611243576112436145f1565b90506020020160208101906112589190613934565b6001600160a01b03168152602081018890526040810187905260600160026111c3565b611283613474565b6040518060c00160405280836001600160a01b0316815260200160006001600160a01b0316815260200173eeeeeeeeeeeeeeeeeeeeeeeeeeeeeeeeeeeeeeee6001600160a01b0316815260200160008152602001848152602001600060028111156112f0576112f06145db565b905290505b92915050565b611303613474565b6040805160c081019091528061131f6080850160608601613934565b6001600160a01b0316815260209081019061133c90850185613934565b6001600160a01b0316815260200183602001602081019061135d9190613934565b6001600160a01b0316815260a084013560208201526080840135604082015260600160016108da565b600061139a6005546001600160a01b031690565b9050336001600160a01b03821614806113bd57506003546001600160a01b031633145b8061146c575060006113d7600f546001600160a01b031690565b6001600160a01b031662fdd58e336113ee60045490565b6040516001600160e01b031960e085901b1681526001600160a01b039092166004830152602482015260440160206040518083038186803b15801561143257600080fd5b505afa158015611446573d6000803e3d6000fd5b505050506040513d601f19601f8201168201806040525081019061146a9190613f00565b115b6114885760405162461bcd60e51b81526004016106d790614333565b6040517368b3465833fb72a70ecdf485e0e4c7bd8665fc456024820152600019604482015260009060640160408051601f198184030181529181526020820180516001600160e01b031663095ea7b360e01b1790525163d3abc28b60e01b81529091506001600160a01b0383169063d3abc28b9061150f9086908590600090600401614132565b600060405180830381600087803b15801561152957600080fd5b505af115801561153d573d6000803e3d6000fd5b505050506040513d6000823e601f3d908101601f191682016040526115659190810190613cc7565b50505050565b6003546001600160a01b031633148061162857506000611593600f546001600160a01b031690565b6001600160a01b031662fdd58e336115aa60045490565b6040516001600160e01b031960e085901b1681526001600160a01b039092166004830152602482015260440160206040518083038186803b1580156115ee57600080fd5b505afa158015611602573d6000803e3d6000fd5b505050506040513d601f19601f820116820180604052508101906116269190613f00565b115b6116445760405162461bcd60e51b81526004016106d790614333565b8061164e60015490565b10156116945760405162461bcd60e51b8152602060048201526015602482015274125b9d985a5b1908151c985b9cd858dd1a5bdb9259605a1b60448201526064016106d7565b60026000828152600260208190526040909120015460ff1660038111156116bd576116bd6145db565b14156117195760405162461bcd60e51b815260206004820152602560248201527f5472616e73616374696f6e20686173206265656e20636f6d706c65746564206260448201526465666f726560d81b60648201526084016106d7565b6000818152600260208190526040808320909101805460ff191660031790555182917f92a917be073b79ab50f9d997e9514a5d101e052ce04228014947e7883a7c034691a250565b6060600a8054610c3690614575565b3360009081526006602052604090205460ff16806118325750600061179d600f546001600160a01b031690565b6001600160a01b031662fdd58e336117b460075490565b6040516001600160e01b031960e085901b1681526001600160a01b039092166004830152602482015260440160206040518083038186803b1580156117f857600080fd5b505afa15801561180c573d6000803e3d6000fd5b505050506040513d601f19601f820116820180604052508101906118309190613f00565b115b6118895760405162461bcd60e51b815260206004820152602260248201527f417070726f766572206e6f742077686974656c697374656420696e2062756467604482015261195d60f21b60648201526084016106d7565b8261189360015490565b10156118d95760405162461bcd60e51b8152602060048201526015602482015274125b9d985a5b1908151c985b9cd858dd1a5bdb9259605a1b60448201526064016106d7565b600083815260026020819052604082209081015460039091015460ff90911691906119059060016144c2565b9050600082600381111561191b5761191b6145db565b148061193857506001826003811115611936576119366145db565b145b6119845760405162461bcd60e51b815260206004820152601d60248201527f556e6578706563746564207472616e73616374696f6e2073746174757300000060448201526064016106d7565b600085815260026020908152604080832033845260040190915290205460ff16156119fd5760405162461bcd60e51b8152602060048201526024808201527f5472616e73616374696f6e20686173206265656e20617070726f766564206265604482015263666f726560e01b60648201526084016106d7565b6000858152600260208181526040808420338552600481018352908420805460ff191660011790559288905252600301819055611a3960085490565b8110611a5d57600085815260026020819052604090912001805460ff191660011790555b847f3399030f87676a97e30e211a48f9c46e2ff806d0b4cedf7100782f08c52902c9338686604051611a9193929190614166565b60405180910390a25050505050565b611aa8613474565b6040518060c00160405280836020016020810190611ac69190613934565b6001600160a01b03168152602001611ae360006109418680614402565b6001600160a01b03168152602001611b00601461099b8680614402565b6001600160a01b0316815260200183604001358152602001836060013581526020016002808111156108da576108da6145db565b6005546001600160a01b03163314611b995760405162461bcd60e51b815260206004820152602260248201527f4578656375746565206e6f742077686974656c697374656420696e2062756467604482015261195d60f21b60648201526084016106d7565b60425460ff16611bbd57604254611bbd9061010090046001600160a01b0316611386565b565b611bc7613474565b6040518060c00160405280836001600160a01b0316815260200160006001600160a01b03168152602001856001600160a01b031681526020016000815260200184815260200160006002811115611c2057611c206145db565b9052949350505050565b806001806000838152600260208190526040909120015460ff166003811115611c5557611c556145db565b14611ca25760405162461bcd60e51b815260206004820152601a60248201527f5472616e73616374696f6e2073746174757320696e76616c696400000000000060448201526064016106d7565b600083815260026020819052604090912001548390610100900463ffffffff16421115611d075760405162461bcd60e51b8152602060048201526013602482015272151c985b9cd858dd1a5bdb88195e1c1a5c9959606a1b60448201526064016106d7565b600d54421015611d595760405162461bcd60e51b815260206004820152601f60248201527f42756467657420757361676520706572696f64206e6f7420737461727465640060448201526064016106d7565b6000611d64600e5490565b90508015611dbb57804210611dbb5760405162461bcd60e51b815260206004820152601d60248201527f42756467657420757361676520706572696f642068617320656e64656400000060448201526064016106d7565b6003546001600160a01b0316331480611e7857506000611de3600f546001600160a01b031690565b6001600160a01b031662fdd58e33611dfa60045490565b6040516001600160e01b031960e085901b1681526001600160a01b039092166004830152602482015260440160206040518083038186803b158015611e3e57600080fd5b505afa158015611e52573d6000803e3d6000fd5b505050506040513d601f19601f82011682018060405250810190611e769190613f00565b115b611e945760405162461bcd60e51b81526004016106d790614333565b6000611ea2600b5460ff1690565b90506000611eaf600c5490565b9050600060026000898152602001908152602001600020600101805480602002602001604051908101604052809291908181526020016000905b82821015611f95578382906000526020600020018054611f0890614575565b80601f0160208091040260200160405190810160405280929190818152602001828054611f3490614575565b8015611f815780601f10611f5657610100808354040283529160200191611f81565b820191906000526020600020905b815481529060010190602001808311611f6457829003601f168201915b505050505081526020019060010190611ee9565b50505050905060005b8151811015612047578380611fb35750600083115b611fff5760405162461bcd60e51b815260206004820152601b60248201527f457863656564656420627564676574207573616765206c696d6974000000000060448201526064016106d7565b83612012578261200e8161455e565b9350505b61203589838381518110612028576120286145f1565b602002602001015161271b565b8061203f816145aa565b915050611f9e565b50600c82905560008881526002602081905260409091208101805460ff19166001830217905550877f9060adf413860c5ab6e376e0aa4269e49a13f0853edb1583fce8129d4c756d7982336040516120a0929190614194565b60405180910390a25050505050505050565b6120ba613474565b6040805160c08101825260008082526020820181905291810182905260608101829052608081018290529060a0820152979650505050505050565b600080808061210486826127ea565b90506001600160e01b03198116630d0e30db60e41b14156121565773eeeeeeeeeeeeeeeeeeeeeeeeeeeeeeeeeeeeeeee73cda739d69067333974cd73a722ab92e5e0ad8a4f8693509350935050612224565b6001600160e01b03198116632e1a7d4d60e01b14156121d25773cda739d69067333974cd73a722ab92e5e0ad8a4f73eeeeeeeeeeeeeeeeeeeeeeeeeeeeeeeeeeeeeeee6121b36004808a516121ab919061451b565b8a9190612847565b8060200190518101906121c69190613f00565b93509350935050612224565b60405162461bcd60e51b815260206004820152602160248201527f4661696c656420746f206465636f646520556e69737761702062797465636f646044820152606560f81b60648201526084016106d7565b9250925092565b600054610100900460ff166122965760405162461bcd60e51b815260206004820152602b60248201527f496e697469616c697a61626c653a20636f6e7472616374206973206e6f74206960448201526a6e697469616c697a696e6760a81b60648201526084016106d7565b6000816060013511806122bb57506122b160408201826143b9565b9050816080013511155b6122ff5760405162461bcd60e51b8152602060048201526015602482015274125b9d985b1a5908185c1c1c9bdd995c881b1a5cdd605a1b60448201526064016106d7565b600580546001600160a01b0319163317905561231e6020820182613934565b600380546001600160a01b0319166001600160a01b039290921691909117905561234b60a0820182614402565b61235791600991613504565b5061236560c0820182614402565b61237191600a91613504565b50608081013560085560e0810135600d55610100810135600e5561239d61014082016101208301613c66565b600b805460ff1916911515919091179055610140810135600c556123c961018082016101608301613934565b600f80546001600160a01b0319166001600160a01b03929092169190911790556020810135600455606081013560075560005b61240960408301836143b9565b90508110156124f55760016006600061242560408601866143b9565b85818110612435576124356145f1565b905060200201602081019061244a9190613934565b6001600160a01b0316815260208101919091526040908101600020805460ff1916921515929092179091557f4664777dbfbcb27de0f602e1da5d5a259992cd7edf5b29192929c96e8fd50def906124a3908401846143b9565b838181106124b3576124b36145f1565b90506020020160208101906124c89190613934565b6040516001600160a01b03909116815260200160405180910390a1806124ed816145aa565b9150506123fc565b5050565b6001600160a01b03811660009081526043602052604090205460ff16156125705760405162461bcd60e51b815260206004820152602560248201527f4475706c69636174656420746f6b656e20696e2074617267657420746f6b656e604482015264081b1a5cdd60da1b60648201526084016106d7565b6001600160a01b038116600081815260436020908152604091829020805460ff1916600117905590519182527f0df56a0b46d63ff03be79aa2e27aa9f7d6af565748bac8f4b41d6df16ba9f618910160405180910390a150565b60006125d78260146144c2565b8351101561261f5760405162461bcd60e51b8152602060048201526015602482015274746f416464726573735f6f75744f66426f756e647360581b60448201526064016106d7565b500160200151600160601b900490565b6060600061263d83826127ea565b90506001600160e01b031981166316b9007760e21b141561268e57612672600480855161266a919061451b565b859190612847565b8060200190518101906126859190613c81565b92506127159050565b6001600160e01b03198116631f0464d160e01b14156126b957612672600480855161266a919061451b565b60405162461bcd60e51b815260206004820152602b60248201527f4661696c656420746f206465636f646520556e6973776170206d756c7469636160448201526a6c6c2062797465636f646560a81b60648201526084016106d7565b50919050565b6000806000838060200190518101906127349190613958565b919450925090506001600160a01b0383167368b3465833fb72a70ecdf485e0e4c7bd8665fc4514156127715761276c85848484612954565b6127e3565b6001600160a01b03831673cda739d69067333974cd73a722ab92e5e0ad8a4f14156127a25761276c8584848461301d565b60405162461bcd60e51b8152602060048201526016602482015275496e76616c696420746172676574206164647265737360501b60448201526064016106d7565b5050505050565b60006127f78260046144c2565b8351101561283e5760405162461bcd60e51b8152602060048201526014602482015273746f4279746573345f6f75744f66426f756e647360601b60448201526064016106d7565b50016020015190565b60608161285581601f6144c2565b10156128945760405162461bcd60e51b815260206004820152600e60248201526d736c6963655f6f766572666c6f7760901b60448201526064016106d7565b61289e82846144c2565b845110156128e25760405162461bcd60e51b8152602060048201526011602482015270736c6963655f6f75744f66426f756e647360781b60448201526064016106d7565b606082158015612901576040519150600082526020820160405261294b565b6040519150601f8416801560200281840101858101878315602002848b0101015b8183101561293a578051835260209283019201612922565b5050858452601f01601f1916604052505b50949350505050565b60006129686005546001600160a01b031690565b90506000816001600160a01b031663d3abc28b8686866040518463ffffffff1660e01b815260040161299c93929190614132565b600060405180830381600087803b1580156129b657600080fd5b505af11580156129ca573d6000803e3d6000fd5b505050506040513d6000823e601f3d908101601f191682016040526129f29190810190613cc7565b604051633814d25160e01b81529091506000903090633814d25190612a1f908890889087906004016142eb565b60006040518083038186803b158015612a3757600080fd5b505afa158015612a4b573d6000803e3d6000fd5b505050506040513d6000823e601f3d908101601f19168201604052612a739190810190613bc4565b60008881526048602090815260408083206047909252822092935091905b8351811015612e13576000848281518110612aae57612aae6145f1565b6020026020010151905060006001600160a01b031681600001516001600160a01b03161480612ae7575080516001600160a01b03166001145b80612afc575080516001600160a01b03166002145b80612b1c5750866001600160a01b031681600001516001600160a01b0316145b612b685760405162461bcd60e51b815260206004820152601960248201527f526563697069656e74206e6f742077686974656c69737465640000000000000060448201526064016106d7565b606081015115612cdb5760425460ff1680612b9a5750602081015160425461010090046001600160a01b039081169116145b612be65760405162461bcd60e51b815260206004820152601c60248201527f536f7572636520746f6b656e206e6f742077686974656c69737465640000000060448201526064016106d7565b6020808201516001600160a01b03166000908152908490526040902054612c3f57602081810151855460018101875560008781529290922090910180546001600160a01b0319166001600160a01b039092169190911790555b60608101516020808301516001600160a01b0316600090815290859052604081208054909190612c709084906144c2565b90915550506020818101516060830151604080516001600160a01b039093168352928201527368b3465833fb72a70ecdf485e0e4c7bd8665fc459133918e917f6b2315dc82c675e98d173b73a035ea18b30fa040368177ae8dfa90d3cd5a127a910160405180910390a45b60008160800151118015612d18575080516001600160a01b031660011480612d185750866001600160a01b031681600001516001600160a01b0316145b15612e0057604254600160a81b900460ff1680612d4f57506040808201516001600160a01b031660009081526043602052205460ff165b612d9b5760405162461bcd60e51b815260206004820152601c60248201527f54617267657420746f6b656e206e6f742077686974656c69737465640000000060448201526064016106d7565b604081810151608083015182516001600160a01b03909216825260208201527368b3465833fb72a70ecdf485e0e4c7bd8665fc459133918e917ff10ffe9795dc198303bf64c2f1bfec7ed5256325dee3026154df4c82f43c54f0910160405180910390a45b5080612e0b816145aa565b915050612a91565b5060445460ff161580612e2d5750604654606460ff909116105b156130125760005b8254811015610847576000838281548110612e5257612e526145f1565b60009182526020808320909101546001600160a01b03168083529085905260408220549092509073eeeeeeeeeeeeeeeeeeeeeeeeeeeeeeeeeeeeeeee831415612eb057612ea9826001600160a01b038b16316144c2565b9050612f39565b6040516370a0823160e01b81526001600160a01b038a811660048301528391908516906370a082319060240160206040518083038186803b158015612ef457600080fd5b505afa158015612f08573d6000803e3d6000fd5b505050506040513d601f19601f82011682018060405250810190612f2c9190613f00565b612f3691906144c2565b90505b60445460ff1680612f4c57506045548211155b612f8e5760405162461bcd60e51b8152602060048201526013602482015272115e18d959591959081b585e08185b5bdd5b9d606a1b60448201526064016106d7565b612f988183613427565b612fda5760405162461bcd60e51b815260206004820152601360248201527245786365656465642070657263656e7461676560681b60448201526064016106d7565b60445460ff16612ffc578160456000828254612ff6919061451b565b90915550505b505050808061300a906145aa565b915050612e35565b505050505050505050565b60006130316005546001600160a01b031690565b60405163d3abc28b60e01b81529091506001600160a01b0382169063d3abc28b9061306490879087908790600401614132565b600060405180830381600087803b15801561307e57600080fd5b505af1158015613092573d6000803e3d6000fd5b505050506040513d6000823e601f3d908101601f191682016040526130ba9190810190613cc7565b50604051637cb0fbcd60e11b815260009081908190309063f961f79a906130e790899089906004016142c9565b60606040518083038186803b1580156130ff57600080fd5b505afa158015613113573d6000803e3d6000fd5b505050506040513d601f19601f8201168201806040525081019061313791906139b1565b9194509250905060006001600160a01b03841673eeeeeeeeeeeeeeeeeeeeeeeeeeeeeeeeeeeeeeee141561318057613179826001600160a01b038716316144c2565b9050613209565b6040516370a0823160e01b81526001600160a01b0386811660048301528391908616906370a082319060240160206040518083038186803b1580156131c457600080fd5b505afa1580156131d8573d6000803e3d6000fd5b505050506040513d601f19601f820116820180604052508101906131fc9190613f00565b61320691906144c2565b90505b60425460ff168061322c57506042546001600160a01b0385811661010090920416145b6132785760405162461bcd60e51b815260206004820152601c60248201527f536f7572636520746f6b656e206e6f742077686974656c69737465640000000060448201526064016106d7565b604254600160a81b900460ff16806132a857506001600160a01b03831660009081526043602052604090205460ff165b6132f45760405162461bcd60e51b815260206004820152601c60248201527f54617267657420746f6b656e206e6f742077686974656c69737465640000000060448201526064016106d7565b60445460ff168061330757506045548211155b6133495760405162461bcd60e51b8152602060048201526013602482015272115e18d959591959081b585e08185b5bdd5b9d606a1b60448201526064016106d7565b6133538183613427565b6133955760405162461bcd60e51b815260206004820152601360248201527245786365656465642070657263656e7461676560681b60448201526064016106d7565b60445460ff166133b75781604560008282546133b1919061451b565b90915550505b604080516001600160a01b03868116825285166020820152808201849052905173cda739d69067333974cd73a722ab92e5e0ad8a4f9133918c917ff2600da0d3c22c74870d03f19fbe7663ec5f72616966e884f806a2d44ee7d644919081900360600190a4505050505050505050565b60465460009060ff1660641415613440575060016112f5565b8261344d575060006112f5565b6046546064906134609060ff16856144fc565b61346a91906144da565b9091111592915050565b6040805160c08101825260008082526020820181905291810182905260608101829052608081018290529060a082015290565b8280548282559060005260206000209081019282156134f4579160200282015b828111156134f457825180516134e4918491602090910190613584565b50916020019190600101906134c7565b506135009291506135f8565b5090565b82805461351090614575565b90600052602060002090601f0160209004810192826135325760008555613578565b82601f1061354b5782800160ff19823516178555613578565b82800160010185558215613578579182015b8281111561357857823582559160200191906001019061355d565b50613500929150613615565b82805461359090614575565b90600052602060002090601f0160209004810192826135b25760008555613578565b82601f106135cb57805160ff1916838001178555613578565b82800160010185558215613578579182015b828111156135785782518255916020019190600101906135dd565b8082111561350057600061360c828261362a565b506001016135f8565b5b808211156135005760008155600101613616565b50805461363690614575565b6000825580601f10613646575050565b601f0160209004906000526020600020908101906136649190613615565b50565b80356136728161461d565b919050565b60008083601f84011261368957600080fd5b5081356001600160401b038111156136a057600080fd5b6020830191508360208260051b85010111156136bb57600080fd5b9250929050565b600082601f8301126136d357600080fd5b815160206136e86136e383614478565b614448565b80838252828201915082860187848660051b890101111561370857600080fd5b6000805b8681101561374a5782516001600160401b03811115613729578283fd5b6137378b88838d01016137b9565b865250938501939185019160010161370c565b509198975050505050505050565b8035801515811461367257600080fd5b600082601f83011261377957600080fd5b81356137876136e38261449b565b81815284602083860101111561379c57600080fd5b816020850160208301376000918101602001919091529392505050565b600082601f8301126137ca57600080fd5b81516137d86136e38261449b565b8181528460208386010111156137ed57600080fd5b6137fe826020830160208701614532565b949350505050565b60008083601f84011261381857600080fd5b5081356001600160401b0381111561382f57600080fd5b6020830191508360208285010111156136bb57600080fd5b60006080828403121561271557600080fd5b600060e0828403121561271557600080fd5b600060c0828403121561387d57600080fd5b60405160c081018181106001600160401b038211171561389f5761389f614607565b806040525080915082516138b28161461d565b815260208301516138c28161461d565b602082015260408301516138d58161461d565b80604083015250606083015160608201526080830151608082015260a08301516003811061390257600080fd5b60a0919091015292915050565b803563ffffffff8116811461367257600080fd5b803560ff8116811461367257600080fd5b60006020828403121561394657600080fd5b81356139518161461d565b9392505050565b60008060006060848603121561396d57600080fd5b83516139788161461d565b60208501519093506001600160401b0381111561399457600080fd5b6139a0868287016137b9565b925050604084015190509250925092565b6000806000606084860312156139c657600080fd5b83516139d18161461d565b60208501519093506139e28161461d565b80925050604084015190509250925092565b600080600060608486031215613a0957600080fd5b8335613a148161461d565b9250602084013591506040840135613a2b8161461d565b809150509250925092565b60008060008060008060c08789031215613a4f57600080fd5b8635613a5a8161461d565b95506020870135945060408701359350613a7660608801613923565b92506080870135915060a087013590509295509295509295565b600060208284031215613aa257600080fd5b81516001600160401b03811115613ab857600080fd5b6137fe848285016136c2565b600080600080600060808688031215613adc57600080fd5b6001600160401b038087351115613af257600080fd5b8635870188601f820112613b0557600080fd5b80356020613b156136e383614478565b8083825282820191508285018d848660051b8801011115613b3557600080fd5b60005b85811015613b6f578782351115613b4e57600080fd5b613b5d8f8684358a0101613768565b84529284019290840190600101613b38565b5050809a505050613b81818b0161390f565b9750505050613b9260408801613758565b9350606087013581811115613ba657600080fd5b613bb289828a01613806565b979a9699509497509395949350505050565b60006020808385031215613bd757600080fd5b82516001600160401b03811115613bed57600080fd5b8301601f81018513613bfe57600080fd5b8051613c0c6136e382614478565b8181528381019083850160c0808502860187018a1015613c2b57600080fd5b600095505b84861015613c5857613c428a8361386b565b8452600195909501949286019290810190613c30565b509098975050505050505050565b600060208284031215613c7857600080fd5b61395182613758565b60008060408385031215613c9457600080fd5b8251915060208301516001600160401b03811115613cb157600080fd5b613cbd858286016136c2565b9150509250929050565b600060208284031215613cd957600080fd5b81516001600160401b03811115613cef57600080fd5b6137fe848285016137b9565b60008060408385031215613d0e57600080fd5b82356001600160401b03811115613d2457600080fd5b613d3085828601613768565b95602094909401359450505050565b600080600060608486031215613d5457600080fd5b83356001600160401b0380821115613d6b57600080fd5b613d7787838801613768565b9450602086013593506040860135915080821115613d9457600080fd5b50613da186828701613768565b9150509250925092565b600060208284031215613dbd57600080fd5b81356001600160401b03811115613dd357600080fd5b6137fe84828501613847565b600060e08284031215613df157600080fd5b6139518383613859565b60008060008060008060008060006101008a8c031215613e1a57600080fd5b89356001600160401b0380821115613e3157600080fd5b908b0190610180828e031215613e4657600080fd5b819a50613e5560208d01613758565b9950613e6360408d01613667565b9850613e7160608d01613758565b975060808c0135915080821115613e8757600080fd5b50613e948c828d01613677565b9096509450613ea7905060a08b01613758565b925060c08a01359150613ebc60e08b01613923565b90509295985092959850929598565b600060c08284031215613edd57600080fd5b613951838361386b565b600060208284031215613ef957600080fd5b5035919050565b600060208284031215613f1257600080fd5b5051919050565b60008060408385031215613f2c57600080fd5b823591506020830135613f3e8161461d565b809150509250929050565b600080600060408486031215613f5e57600080fd5b8335925060208401356001600160401b03811115613f7b57600080fd5b613f8786828701613806565b9497909650939450505050565b600080600080600060808688031215613fac57600080fd5b853594506020860135935060408601356001600160401b03811115613fd057600080fd5b613fdc88828901613677565b9094509250506060860135613ff08161461d565b809150509295509295909350565b600081518084526020808501808196508360051b8101915082860160005b85811015614046578284038952614034848351614053565b9885019893509084019060010161401c565b5091979650505050505050565b6000815180845261406b816020860160208601614532565b601f01601f19169290920160200192915050565b6004811061408f5761408f6145db565b9052565b81835281816020850137506000828201602090810191909152601f909101601f19169091010190565b60018060a01b0380825116835280602083015116602084015280604083015116604084015250606081015160608301526080810151608083015260a08101516003811061410b5761410b6145db565b8060a0840152505050565b60008251614128818460208701614532565b9190910192915050565b6001600160a01b038416815260606020820181905260009061415690830185614053565b9050826040830152949350505050565b6001600160a01b038416815260406020820181905260009061418b9083018486614093565b95945050505050565b6040815260006141a76040830185613ffe565b905060018060a01b03831660208301529392505050565b60a0815260006141d160a0830189613ffe565b63ffffffff881660208401526141ea604084018861407f565b82810360608401526141fd818688614093565b91505060018060a01b0383166080830152979650505050505050565b6000602080830181845280855180835260408601915060408160051b870101925083870160005b8281101561426e57603f1988860301845261425c858351614053565b94509285019290850190600101614240565b5092979650505050505050565b6020808252825182820181905260009190848201906040850190845b818110156142bd576142aa8385516140bc565b9284019260c09290920191600101614297565b50909695505050505050565b6040815260006142dc6040830185614053565b90508260208301529392505050565b6060815260006142fe6060830186614053565b84602084015282810360408401526143168185614053565b9695505050505050565b6020815260006139516020830184614053565b60208082526022908201527f4578656375746f72206e6f742077686974656c697374656420696e2062756467604082015261195d60f21b606082015260800190565b60c081016112f582846140bc565b85815260a08101614397602083018761407f565b63ffffffff949094166040820152911515606083015260809091015292915050565b6000808335601e198436030181126143d057600080fd5b8301803591506001600160401b038211156143ea57600080fd5b6020019150600581901b36038213156136bb57600080fd5b6000808335601e1984360301811261441957600080fd5b8301803591506001600160401b0382111561443357600080fd5b6020019150368190038213156136bb57600080fd5b604051601f8201601f191681016001600160401b038111828210171561447057614470614607565b604052919050565b60006001600160401b0382111561449157614491614607565b5060051b60200190565b60006001600160401b038211156144b4576144b4614607565b50601f01601f191660200190565b600082198211156144d5576144d56145c5565b500190565b6000826144f757634e487b7160e01b600052601260045260246000fd5b500490565b6000816000190483118215151615614516576145166145c5565b500290565b60008282101561452d5761452d6145c5565b500390565b60005b8381101561454d578181015183820152602001614535565b838111156115655750506000910152565b60008161456d5761456d6145c5565b506000190190565b600181811c9082168061458957607f821691505b6020821081141561271557634e487b7160e01b600052602260045260246000fd5b60006000198214156145be576145be6145c5565b5060010190565b634e487b7160e01b600052601160045260246000fd5b634e487b7160e01b600052602160045260246000fd5b634e487b7160e01b600052603260045260246000fd5b634e487b7160e01b600052604160045260246000fd5b6001600160a01b038116811461366457600080fdfe556e697377617020416e7920546f6b656e2042756467657420417070726f76616ca2646970667358221220c00a8b26822a41a66ea73f5d5de9b77a70df89e42ee7fba773bb6e3673e3d94264736f6c63430008070033",
  "devdoc": {
    "kind": "dev",
    "methods": {},
    "version": 1
  },
  "userdoc": {
    "kind": "user",
    "methods": {},
    "version": 1
  },
  "storageLayout": {
    "storage": [
      {
        "astId": 3247,
        "contract": "contracts/UniswapAnyTokenBudgetApproval.sol:UniswapAnyTokenBudgetApproval",
        "label": "_initialized",
        "offset": 0,
        "slot": "0",
        "type": "t_uint8"
      },
      {
        "astId": 3250,
        "contract": "contracts/UniswapAnyTokenBudgetApproval.sol:UniswapAnyTokenBudgetApproval",
        "label": "_initializing",
        "offset": 1,
        "slot": "0",
        "type": "t_bool"
      },
      {
        "astId": 29224,
        "contract": "contracts/UniswapAnyTokenBudgetApproval.sol:UniswapAnyTokenBudgetApproval",
        "label": "_transactionIds",
        "offset": 0,
        "slot": "1",
        "type": "t_struct(Counter)17310_storage"
      },
      {
        "astId": 29229,
        "contract": "contracts/UniswapAnyTokenBudgetApproval.sol:UniswapAnyTokenBudgetApproval",
        "label": "transactions",
        "offset": 0,
        "slot": "2",
        "type": "t_mapping(t_uint256,t_struct(Transaction)29168_storage)"
      },
      {
        "astId": 29231,
        "contract": "contracts/UniswapAnyTokenBudgetApproval.sol:UniswapAnyTokenBudgetApproval",
        "label": "_executor",
        "offset": 0,
        "slot": "3",
        "type": "t_address"
      },
      {
        "astId": 29233,
        "contract": "contracts/UniswapAnyTokenBudgetApproval.sol:UniswapAnyTokenBudgetApproval",
        "label": "_executorTeamId",
        "offset": 0,
        "slot": "4",
        "type": "t_uint256"
      },
      {
        "astId": 29235,
        "contract": "contracts/UniswapAnyTokenBudgetApproval.sol:UniswapAnyTokenBudgetApproval",
        "label": "_executee",
        "offset": 0,
        "slot": "5",
        "type": "t_address"
      },
      {
        "astId": 29239,
        "contract": "contracts/UniswapAnyTokenBudgetApproval.sol:UniswapAnyTokenBudgetApproval",
        "label": "_approversMapping",
        "offset": 0,
        "slot": "6",
        "type": "t_mapping(t_address,t_bool)"
      },
      {
        "astId": 29241,
        "contract": "contracts/UniswapAnyTokenBudgetApproval.sol:UniswapAnyTokenBudgetApproval",
        "label": "_approverTeamId",
        "offset": 0,
        "slot": "7",
        "type": "t_uint256"
      },
      {
        "astId": 29243,
        "contract": "contracts/UniswapAnyTokenBudgetApproval.sol:UniswapAnyTokenBudgetApproval",
        "label": "_minApproval",
        "offset": 0,
        "slot": "8",
        "type": "t_uint256"
      },
      {
        "astId": 29245,
        "contract": "contracts/UniswapAnyTokenBudgetApproval.sol:UniswapAnyTokenBudgetApproval",
        "label": "_text",
        "offset": 0,
        "slot": "9",
        "type": "t_string_storage"
      },
      {
        "astId": 29247,
        "contract": "contracts/UniswapAnyTokenBudgetApproval.sol:UniswapAnyTokenBudgetApproval",
        "label": "_transactionType",
        "offset": 0,
        "slot": "10",
        "type": "t_string_storage"
      },
      {
        "astId": 29249,
        "contract": "contracts/UniswapAnyTokenBudgetApproval.sol:UniswapAnyTokenBudgetApproval",
        "label": "_allowUnlimitedUsageCount",
        "offset": 0,
        "slot": "11",
        "type": "t_bool"
      },
      {
        "astId": 29251,
        "contract": "contracts/UniswapAnyTokenBudgetApproval.sol:UniswapAnyTokenBudgetApproval",
        "label": "_usageCount",
        "offset": 0,
        "slot": "12",
        "type": "t_uint256"
      },
      {
        "astId": 29253,
        "contract": "contracts/UniswapAnyTokenBudgetApproval.sol:UniswapAnyTokenBudgetApproval",
        "label": "_startTime",
        "offset": 0,
        "slot": "13",
        "type": "t_uint256"
      },
      {
        "astId": 29255,
        "contract": "contracts/UniswapAnyTokenBudgetApproval.sol:UniswapAnyTokenBudgetApproval",
        "label": "_endTime",
        "offset": 0,
        "slot": "14",
        "type": "t_uint256"
      },
      {
        "astId": 29257,
        "contract": "contracts/UniswapAnyTokenBudgetApproval.sol:UniswapAnyTokenBudgetApproval",
        "label": "_team",
        "offset": 0,
        "slot": "15",
        "type": "t_address"
      },
      {
        "astId": 31349,
        "contract": "contracts/UniswapAnyTokenBudgetApproval.sol:UniswapAnyTokenBudgetApproval",
        "label": "__gap",
        "offset": 0,
        "slot": "16",
        "type": "t_array(t_uint256)50_storage"
      },
      {
        "astId": 27206,
        "contract": "contracts/UniswapAnyTokenBudgetApproval.sol:UniswapAnyTokenBudgetApproval",
        "label": "allowAllFromTokens",
        "offset": 0,
        "slot": "66",
        "type": "t_bool"
      },
      {
        "astId": 27208,
        "contract": "contracts/UniswapAnyTokenBudgetApproval.sol:UniswapAnyTokenBudgetApproval",
        "label": "fromToken",
        "offset": 1,
        "slot": "66",
        "type": "t_address"
      },
      {
        "astId": 27210,
        "contract": "contracts/UniswapAnyTokenBudgetApproval.sol:UniswapAnyTokenBudgetApproval",
        "label": "allowAllToTokens",
        "offset": 21,
        "slot": "66",
        "type": "t_bool"
      },
      {
        "astId": 27214,
        "contract": "contracts/UniswapAnyTokenBudgetApproval.sol:UniswapAnyTokenBudgetApproval",
        "label": "toTokensMapping",
        "offset": 0,
        "slot": "67",
        "type": "t_mapping(t_address,t_bool)"
      },
      {
        "astId": 27216,
        "contract": "contracts/UniswapAnyTokenBudgetApproval.sol:UniswapAnyTokenBudgetApproval",
        "label": "allowAnyAmount",
        "offset": 0,
        "slot": "68",
        "type": "t_bool"
      },
      {
        "astId": 27218,
        "contract": "contracts/UniswapAnyTokenBudgetApproval.sol:UniswapAnyTokenBudgetApproval",
        "label": "totalAmount",
        "offset": 0,
        "slot": "69",
        "type": "t_uint256"
      },
      {
        "astId": 27220,
        "contract": "contracts/UniswapAnyTokenBudgetApproval.sol:UniswapAnyTokenBudgetApproval",
        "label": "amountPercentage",
        "offset": 0,
        "slot": "70",
        "type": "t_uint8"
      },
      {
        "astId": 27226,
        "contract": "contracts/UniswapAnyTokenBudgetApproval.sol:UniswapAnyTokenBudgetApproval",
        "label": "_tokenInAmountOfTransaction",
        "offset": 0,
        "slot": "71",
        "type": "t_mapping(t_uint256,t_mapping(t_address,t_uint256))"
      },
      {
        "astId": 27231,
        "contract": "contracts/UniswapAnyTokenBudgetApproval.sol:UniswapAnyTokenBudgetApproval",
        "label": "_tokenInOfTransaction",
        "offset": 0,
        "slot": "72",
        "type": "t_mapping(t_uint256,t_array(t_address)dyn_storage)"
      }
    ],
    "types": {
      "t_address": {
        "encoding": "inplace",
        "label": "address",
        "numberOfBytes": "20"
      },
      "t_array(t_address)dyn_storage": {
        "base": "t_address",
        "encoding": "dynamic_array",
        "label": "address[]",
        "numberOfBytes": "32"
      },
      "t_array(t_bytes_storage)dyn_storage": {
        "base": "t_bytes_storage",
        "encoding": "dynamic_array",
        "label": "bytes[]",
        "numberOfBytes": "32"
      },
      "t_array(t_uint256)50_storage": {
        "base": "t_uint256",
        "encoding": "inplace",
        "label": "uint256[50]",
        "numberOfBytes": "1600"
      },
      "t_bool": {
        "encoding": "inplace",
        "label": "bool",
        "numberOfBytes": "1"
      },
      "t_bytes_storage": {
        "encoding": "bytes",
        "label": "bytes",
        "numberOfBytes": "32"
      },
      "t_enum(Status)29149": {
        "encoding": "inplace",
        "label": "enum CommonBudgetApproval.Status",
        "numberOfBytes": "1"
      },
      "t_mapping(t_address,t_bool)": {
        "encoding": "mapping",
        "key": "t_address",
        "label": "mapping(address => bool)",
        "numberOfBytes": "32",
        "value": "t_bool"
      },
      "t_mapping(t_address,t_uint256)": {
        "encoding": "mapping",
        "key": "t_address",
        "label": "mapping(address => uint256)",
        "numberOfBytes": "32",
        "value": "t_uint256"
      },
      "t_mapping(t_uint256,t_array(t_address)dyn_storage)": {
        "encoding": "mapping",
        "key": "t_uint256",
        "label": "mapping(uint256 => address[])",
        "numberOfBytes": "32",
        "value": "t_array(t_address)dyn_storage"
      },
      "t_mapping(t_uint256,t_mapping(t_address,t_uint256))": {
        "encoding": "mapping",
        "key": "t_uint256",
        "label": "mapping(uint256 => mapping(address => uint256))",
        "numberOfBytes": "32",
        "value": "t_mapping(t_address,t_uint256)"
      },
      "t_mapping(t_uint256,t_struct(Transaction)29168_storage)": {
        "encoding": "mapping",
        "key": "t_uint256",
        "label": "mapping(uint256 => struct CommonBudgetApproval.Transaction)",
        "numberOfBytes": "32",
        "value": "t_struct(Transaction)29168_storage"
      },
      "t_string_storage": {
        "encoding": "bytes",
        "label": "string",
        "numberOfBytes": "32"
      },
      "t_struct(Counter)17310_storage": {
        "encoding": "inplace",
        "label": "struct Counters.Counter",
        "members": [
          {
            "astId": 17309,
            "contract": "contracts/UniswapAnyTokenBudgetApproval.sol:UniswapAnyTokenBudgetApproval",
            "label": "_value",
            "offset": 0,
            "slot": "0",
            "type": "t_uint256"
          }
        ],
        "numberOfBytes": "32"
      },
      "t_struct(Transaction)29168_storage": {
        "encoding": "inplace",
        "label": "struct CommonBudgetApproval.Transaction",
        "members": [
          {
            "astId": 29151,
            "contract": "contracts/UniswapAnyTokenBudgetApproval.sol:UniswapAnyTokenBudgetApproval",
            "label": "id",
            "offset": 0,
            "slot": "0",
            "type": "t_uint256"
          },
          {
            "astId": 29154,
            "contract": "contracts/UniswapAnyTokenBudgetApproval.sol:UniswapAnyTokenBudgetApproval",
            "label": "data",
            "offset": 0,
            "slot": "1",
            "type": "t_array(t_bytes_storage)dyn_storage"
          },
          {
            "astId": 29157,
            "contract": "contracts/UniswapAnyTokenBudgetApproval.sol:UniswapAnyTokenBudgetApproval",
            "label": "status",
            "offset": 0,
            "slot": "2",
            "type": "t_enum(Status)29149"
          },
          {
            "astId": 29159,
            "contract": "contracts/UniswapAnyTokenBudgetApproval.sol:UniswapAnyTokenBudgetApproval",
            "label": "deadline",
            "offset": 1,
            "slot": "2",
            "type": "t_uint32"
          },
          {
            "astId": 29161,
            "contract": "contracts/UniswapAnyTokenBudgetApproval.sol:UniswapAnyTokenBudgetApproval",
            "label": "isExist",
            "offset": 5,
            "slot": "2",
            "type": "t_bool"
          },
          {
            "astId": 29163,
            "contract": "contracts/UniswapAnyTokenBudgetApproval.sol:UniswapAnyTokenBudgetApproval",
            "label": "approvedCount",
            "offset": 0,
            "slot": "3",
            "type": "t_uint256"
          },
          {
            "astId": 29167,
            "contract": "contracts/UniswapAnyTokenBudgetApproval.sol:UniswapAnyTokenBudgetApproval",
            "label": "approved",
            "offset": 0,
            "slot": "4",
            "type": "t_mapping(t_address,t_bool)"
          }
        ],
        "numberOfBytes": "160"
      },
      "t_uint256": {
        "encoding": "inplace",
        "label": "uint256",
        "numberOfBytes": "32"
      },
      "t_uint32": {
        "encoding": "inplace",
        "label": "uint32",
        "numberOfBytes": "4"
      },
      "t_uint8": {
        "encoding": "inplace",
        "label": "uint8",
        "numberOfBytes": "1"
      }
    }
  }
}