{
  "address": "0x611D4aFD510F275f25C908505eb55D4683cEce72",
  "abi": [
    {
      "inputs": [],
      "stateMutability": "nonpayable",
      "type": "constructor"
    },
    {
      "anonymous": false,
      "inputs": [
        {
          "indexed": false,
          "internalType": "address",
          "name": "target",
          "type": "address"
        }
      ],
      "name": "AllowAddress",
      "type": "event"
    },
    {
      "anonymous": false,
      "inputs": [
        {
          "indexed": false,
          "internalType": "uint256",
          "name": "amount",
          "type": "uint256"
        }
      ],
      "name": "AllowAmount",
      "type": "event"
    },
    {
      "anonymous": false,
      "inputs": [
        {
          "indexed": true,
          "internalType": "uint256",
          "name": "teamId",
          "type": "uint256"
        }
      ],
      "name": "AllowTeam",
      "type": "event"
    },
    {
      "anonymous": false,
      "inputs": [
        {
          "indexed": false,
          "internalType": "address",
          "name": "token",
          "type": "address"
        }
      ],
      "name": "AllowToken",
      "type": "event"
    },
    {
      "anonymous": false,
      "inputs": [
        {
          "indexed": true,
          "internalType": "uint256",
          "name": "id",
          "type": "uint256"
        },
        {
          "indexed": false,
          "internalType": "address",
          "name": "approver",
          "type": "address"
        },
        {
          "indexed": false,
          "internalType": "string",
          "name": "comment",
          "type": "string"
        }
      ],
      "name": "ApproveTransaction",
      "type": "event"
    },
    {
      "anonymous": false,
      "inputs": [
        {
          "indexed": true,
          "internalType": "uint256",
          "name": "id",
          "type": "uint256"
        },
        {
          "indexed": false,
          "internalType": "bytes[]",
          "name": "data",
          "type": "bytes[]"
        },
        {
          "indexed": false,
          "internalType": "uint256",
          "name": "deadline",
          "type": "uint256"
        },
        {
          "indexed": false,
          "internalType": "enum CommonBudgetApproval.Status",
          "name": "status",
          "type": "uint8"
        },
        {
          "indexed": false,
          "internalType": "string",
          "name": "comment",
          "type": "string"
        },
        {
          "indexed": false,
          "internalType": "address",
          "name": "creator",
          "type": "address"
        }
      ],
      "name": "CreateTransaction",
      "type": "event"
    },
    {
      "anonymous": false,
      "inputs": [
        {
          "indexed": true,
          "internalType": "uint256",
          "name": "id",
          "type": "uint256"
        },
        {
          "indexed": false,
          "internalType": "bytes[]",
          "name": "data",
          "type": "bytes[]"
        },
        {
          "indexed": false,
          "internalType": "address",
          "name": "_executor",
          "type": "address"
        }
      ],
      "name": "ExecuteTransaction",
      "type": "event"
    },
    {
      "anonymous": false,
      "inputs": [
        {
          "indexed": true,
          "internalType": "uint256",
          "name": "id",
          "type": "uint256"
        },
        {
          "indexed": true,
          "internalType": "address",
          "name": "executor",
          "type": "address"
        },
        {
          "indexed": true,
          "internalType": "address",
          "name": "toAddress",
          "type": "address"
        },
        {
          "indexed": false,
          "internalType": "address",
          "name": "token",
          "type": "address"
        },
        {
          "indexed": false,
          "internalType": "uint256",
          "name": "amount",
          "type": "uint256"
        }
      ],
      "name": "ExecuteTransferERC20Transaction",
      "type": "event"
    },
    {
      "anonymous": false,
      "inputs": [
        {
          "indexed": false,
          "internalType": "uint8",
          "name": "version",
          "type": "uint8"
        }
      ],
      "name": "Initialized",
      "type": "event"
    },
    {
      "anonymous": false,
      "inputs": [
        {
          "indexed": true,
          "internalType": "uint256",
          "name": "id",
          "type": "uint256"
        }
      ],
      "name": "RevokeTransaction",
      "type": "event"
    },
    {
      "anonymous": false,
      "inputs": [
        {
          "indexed": false,
          "internalType": "address",
          "name": "approver",
          "type": "address"
        }
      ],
      "name": "SetApprover",
      "type": "event"
    },
    {
      "inputs": [
        {
          "internalType": "address",
          "name": "",
          "type": "address"
        }
      ],
      "name": "addressesMapping",
      "outputs": [
        {
          "internalType": "bool",
          "name": "",
          "type": "bool"
        }
      ],
      "stateMutability": "view",
      "type": "function"
    },
    {
      "inputs": [],
      "name": "afterInitialized",
      "outputs": [],
      "stateMutability": "nonpayable",
      "type": "function"
    },
    {
      "inputs": [],
      "name": "allowAllAddresses",
      "outputs": [
        {
          "internalType": "bool",
          "name": "",
          "type": "bool"
        }
      ],
      "stateMutability": "view",
      "type": "function"
    },
    {
      "inputs": [],
      "name": "allowAllTokens",
      "outputs": [
        {
          "internalType": "bool",
          "name": "",
          "type": "bool"
        }
      ],
      "stateMutability": "view",
      "type": "function"
    },
    {
      "inputs": [],
      "name": "allowAnyAmount",
      "outputs": [
        {
          "internalType": "bool",
          "name": "",
          "type": "bool"
        }
      ],
      "stateMutability": "view",
      "type": "function"
    },
    {
      "inputs": [],
      "name": "allowUnlimitedUsageCount",
      "outputs": [
        {
          "internalType": "bool",
          "name": "",
          "type": "bool"
        }
      ],
      "stateMutability": "view",
      "type": "function"
    },
    {
      "inputs": [
        {
          "internalType": "uint256",
          "name": "id",
          "type": "uint256"
        },
        {
          "internalType": "string",
          "name": "comment",
          "type": "string"
        }
      ],
      "name": "approveTransaction",
      "outputs": [],
      "stateMutability": "nonpayable",
      "type": "function"
    },
    {
      "inputs": [],
      "name": "approverTeamId",
      "outputs": [
        {
          "internalType": "uint256",
          "name": "",
          "type": "uint256"
        }
      ],
      "stateMutability": "view",
      "type": "function"
    },
    {
      "inputs": [
        {
          "internalType": "address",
          "name": "eoa",
          "type": "address"
        }
      ],
      "name": "approversMapping",
      "outputs": [
        {
          "internalType": "bool",
          "name": "",
          "type": "bool"
        }
      ],
      "stateMutability": "view",
      "type": "function"
    },
    {
      "inputs": [
        {
          "internalType": "bytes[]",
          "name": "_data",
          "type": "bytes[]"
        },
        {
          "internalType": "uint32",
          "name": "_deadline",
          "type": "uint32"
        },
        {
          "internalType": "bool",
          "name": "_isExecute",
          "type": "bool"
        },
        {
          "internalType": "string",
          "name": "comment",
          "type": "string"
        }
      ],
      "name": "createTransaction",
      "outputs": [
        {
          "internalType": "uint256",
          "name": "",
          "type": "uint256"
        }
      ],
      "stateMutability": "payable",
      "type": "function"
    },
    {
      "inputs": [],
      "name": "endTime",
      "outputs": [
        {
          "internalType": "uint256",
          "name": "",
          "type": "uint256"
        }
      ],
      "stateMutability": "view",
      "type": "function"
    },
    {
      "inputs": [],
      "name": "executeParams",
      "outputs": [
        {
          "internalType": "string[]",
          "name": "",
          "type": "string[]"
        }
      ],
      "stateMutability": "pure",
      "type": "function"
    },
    {
      "inputs": [
        {
          "internalType": "uint256",
          "name": "id",
          "type": "uint256"
        }
      ],
      "name": "executeTransaction",
      "outputs": [],
      "stateMutability": "payable",
      "type": "function"
    },
    {
      "inputs": [],
      "name": "executee",
      "outputs": [
        {
          "internalType": "address",
          "name": "",
          "type": "address"
        }
      ],
      "stateMutability": "view",
      "type": "function"
    },
    {
      "inputs": [],
      "name": "executor",
      "outputs": [
        {
          "internalType": "address",
          "name": "",
          "type": "address"
        }
      ],
      "stateMutability": "view",
      "type": "function"
    },
    {
      "inputs": [],
      "name": "executorTeamId",
      "outputs": [
        {
          "internalType": "uint256",
          "name": "",
          "type": "uint256"
        }
      ],
      "stateMutability": "view",
      "type": "function"
    },
    {
      "inputs": [
        {
          "components": [
            {
              "internalType": "address",
              "name": "executor",
              "type": "address"
            },
            {
              "internalType": "uint256",
              "name": "executorTeamId",
              "type": "uint256"
            },
            {
              "internalType": "address[]",
              "name": "approvers",
              "type": "address[]"
            },
            {
              "internalType": "uint256",
              "name": "approverTeamId",
              "type": "uint256"
            },
            {
              "internalType": "uint256",
              "name": "minApproval",
              "type": "uint256"
            },
            {
              "internalType": "string",
              "name": "text",
              "type": "string"
            },
            {
              "internalType": "string",
              "name": "transactionType",
              "type": "string"
            },
            {
              "internalType": "uint256",
              "name": "startTime",
              "type": "uint256"
            },
            {
              "internalType": "uint256",
              "name": "endTime",
              "type": "uint256"
            },
            {
              "internalType": "bool",
              "name": "allowUnlimitedUsageCount",
              "type": "bool"
            },
            {
              "internalType": "uint256",
              "name": "usageCount",
              "type": "uint256"
            },
            {
              "internalType": "address",
              "name": "team",
              "type": "address"
            }
          ],
          "internalType": "struct CommonBudgetApproval.InitializeParams",
          "name": "params",
          "type": "tuple"
        },
        {
          "internalType": "bool",
          "name": "_allowAllAddresses",
          "type": "bool"
        },
        {
          "internalType": "address[]",
          "name": "_toAddresses",
          "type": "address[]"
        },
        {
          "internalType": "bool",
          "name": "_allowAllTokens",
          "type": "bool"
        },
        {
          "internalType": "address",
          "name": "_token",
          "type": "address"
        },
        {
          "internalType": "bool",
          "name": "_allowAnyAmount",
          "type": "bool"
        },
        {
          "internalType": "uint256",
          "name": "_totalAmount",
          "type": "uint256"
        },
        {
          "internalType": "uint256[]",
          "name": "_toTeamIds",
          "type": "uint256[]"
        }
      ],
      "name": "initialize",
      "outputs": [],
      "stateMutability": "nonpayable",
      "type": "function"
    },
    {
      "inputs": [],
      "name": "minApproval",
      "outputs": [
        {
          "internalType": "uint256",
          "name": "",
          "type": "uint256"
        }
      ],
      "stateMutability": "view",
      "type": "function"
    },
    {
      "inputs": [],
      "name": "name",
      "outputs": [
        {
          "internalType": "string",
          "name": "",
          "type": "string"
        }
      ],
      "stateMutability": "view",
      "type": "function"
    },
    {
      "inputs": [
        {
          "internalType": "uint256",
          "name": "id",
          "type": "uint256"
        }
      ],
      "name": "revokeTransaction",
      "outputs": [],
      "stateMutability": "nonpayable",
      "type": "function"
    },
    {
      "inputs": [],
      "name": "startTime",
      "outputs": [
        {
          "internalType": "uint256",
          "name": "",
          "type": "uint256"
        }
      ],
      "stateMutability": "view",
      "type": "function"
    },
    {
      "inputs": [],
      "name": "team",
      "outputs": [
        {
          "internalType": "address",
          "name": "",
          "type": "address"
        }
      ],
      "stateMutability": "view",
      "type": "function"
    },
    {
      "inputs": [],
      "name": "text",
      "outputs": [
        {
          "internalType": "string",
          "name": "",
          "type": "string"
        }
      ],
      "stateMutability": "view",
      "type": "function"
    },
    {
      "inputs": [
        {
          "internalType": "uint256",
          "name": "",
          "type": "uint256"
        }
      ],
      "name": "toTeamIds",
      "outputs": [
        {
          "internalType": "uint256",
          "name": "",
          "type": "uint256"
        }
      ],
      "stateMutability": "view",
      "type": "function"
    },
    {
      "inputs": [
        {
          "internalType": "uint256",
          "name": "",
          "type": "uint256"
        }
      ],
      "name": "toTeamIdsMapping",
      "outputs": [
        {
          "internalType": "bool",
          "name": "",
          "type": "bool"
        }
      ],
      "stateMutability": "view",
      "type": "function"
    },
    {
      "inputs": [],
      "name": "toTeamsLength",
      "outputs": [
        {
          "internalType": "uint256",
          "name": "",
          "type": "uint256"
        }
      ],
      "stateMutability": "view",
      "type": "function"
    },
    {
      "inputs": [],
      "name": "token",
      "outputs": [
        {
          "internalType": "address",
          "name": "",
          "type": "address"
        }
      ],
      "stateMutability": "view",
      "type": "function"
    },
    {
      "inputs": [],
      "name": "totalAmount",
      "outputs": [
        {
          "internalType": "uint256",
          "name": "",
          "type": "uint256"
        }
      ],
      "stateMutability": "view",
      "type": "function"
    },
    {
      "inputs": [],
      "name": "transactionType",
      "outputs": [
        {
          "internalType": "string",
          "name": "",
          "type": "string"
        }
      ],
      "stateMutability": "view",
      "type": "function"
    },
    {
      "inputs": [
        {
          "internalType": "uint256",
          "name": "",
          "type": "uint256"
        }
      ],
      "name": "transactions",
      "outputs": [
        {
          "internalType": "uint256",
          "name": "id",
          "type": "uint256"
        },
        {
          "internalType": "enum CommonBudgetApproval.Status",
          "name": "status",
          "type": "uint8"
        },
        {
          "internalType": "uint32",
          "name": "deadline",
          "type": "uint32"
        },
        {
          "internalType": "bool",
          "name": "isExist",
          "type": "bool"
        },
        {
          "internalType": "uint256",
          "name": "approvedCount",
          "type": "uint256"
        }
      ],
      "stateMutability": "view",
      "type": "function"
    },
    {
      "inputs": [],
      "name": "usageCount",
      "outputs": [
        {
          "internalType": "uint256",
          "name": "",
          "type": "uint256"
        }
      ],
      "stateMutability": "view",
      "type": "function"
    }
  ],
  "transactionHash": "0x97802c098e2a2210498613e18c302a62fe86d4af83e2a829015da30962390290",
  "args": [],
  "numDeployments": 1,
  "solcInputHash": "5d7c4928f26ab7c52c060c88be27beae",
  "bytecode": "0x60806040523480156200001157600080fd5b506200001c6200002c565b620000266200002c565b620000ee565b600054610100900460ff1615620000995760405162461bcd60e51b815260206004820152602760248201527f496e697469616c697a61626c653a20636f6e747261637420697320696e697469604482015266616c697a696e6760c81b606482015260840160405180910390fd5b60005460ff9081161015620000ec576000805460ff191660ff9081179091556040519081527f7f26b83ff96e1f2b6a682f133852f6798a09c465da95921460cefb38474024989060200160405180910390a15b565b6129fb80620000fe6000396000f3fe6080604052600436106101d85760003560e01c806385f2aef211610102578063cf26fec611610095578063e52b4ab211610064578063e52b4ab214610586578063ee22610b146105b6578063f5c03852146105c9578063fc0c546a146105e757600080fd5b8063cf26fec614610532578063d96c919614610547578063dd7a07041461055c578063de755e2f1461057157600080fd5b8063b617b3ee116100d1578063b617b3ee146104b9578063b628a0d0146104da578063c34c08e5146104fa578063cd753b6c1461051857600080fd5b806385f2aef2146103cb5780638d1c5c29146103fd57806397c85a611461042d5780639ace38c21461044d57600080fd5b806350bd881f1161017a57806378e979251161014957806378e97925146103605780637cd47d93146103755780637cddb6c31461038a57806385015437146103aa57600080fd5b806350bd881f146102cc5780635ad32502146102e15780636bdebe5e14610305578063735631ad1461033e57600080fd5b80631a39d8ef116101b65780631a39d8ef1461026a5780631f1bd692146102805780633197cbb61461029557806331a7bdd9146102aa57600080fd5b806303ff90f6146101dd57806306fdde031461020157806314b893f914610257575b600080fd5b3480156101e957600080fd5b506008545b6040519081526020015b60405180910390f35b34801561020d57600080fd5b5061024a6040518060400160405280601e81526020017f5472616e736665722045524332302042756467657420417070726f76616c000081525081565b6040516101f891906126f9565b6101ee6102653660046120b2565b61060c565b34801561027657600080fd5b506101ee60125481565b34801561028c57600080fd5b5061024a61075b565b3480156102a157600080fd5b50600e546101ee565b3480156102b657600080fd5b506102bf6107ed565b6040516101f89190612697565b3480156102d857600080fd5b50600c546101ee565b3480156102ed57600080fd5b50600b5460ff165b60405190151581526020016101f8565b34801561031157600080fd5b506102f561032036600461204b565b6001600160a01b031660009081526006602052604090205460ff1690565b34801561034a57600080fd5b5061035e6103593660046123f4565b6108ee565b005b34801561036c57600080fd5b50600d546101ee565b34801561038157600080fd5b5061024a610a30565b34801561039657600080fd5b506101ee6103a53660046123f4565b610a3f565b3480156103b657600080fd5b506011546102f590600160a81b900460ff1681565b3480156103d757600080fd5b50600f546001600160a01b03165b6040516001600160a01b0390911681526020016101f8565b34801561040957600080fd5b506102f561041836600461204b565b60106020526000908152604090205460ff1681565b34801561043957600080fd5b5061035e610448366004612426565b610a60565b34801561045957600080fd5b506104a86104683660046123f4565b600260208190526000918252604090912080549181015460039091015460ff8083169263ffffffff61010082041692650100000000009091049091169085565b6040516101f895949392919061274e565b3480156104c557600080fd5b50600f546102f590600160a01b900460ff1681565b3480156104e657600080fd5b5061035e6104f536600461231f565b610cd7565b34801561050657600080fd5b506003546001600160a01b03166103e5565b34801561052457600080fd5b506011546102f59060ff1681565b34801561053e57600080fd5b5061035e610ece565b34801561055357600080fd5b506007546101ee565b34801561056857600080fd5b506013546101ee565b34801561057d57600080fd5b506004546101ee565b34801561059257600080fd5b506102f56105a13660046123f4565b60146020526000908152604090205460ff1681565b61035e6105c43660046123f4565b610f35565b3480156105d557600080fd5b506005546001600160a01b03166103e5565b3480156105f357600080fd5b506011546103e59061010090046001600160a01b031681565b600061061733611309565b61063c5760405162461bcd60e51b81526004016106339061270c565b60405180910390fd5b61064a600180546001019055565b600061065560015490565b6000818152600260209081526040909120828155895192935091610681916001840191908b0190611d1a565b506002810180546501000000000065ffffffffff001990911661010063ffffffff8b160265ff00000000001916171790556008546106db57600082815260026020819052604090912001805460ff191660011790556106f6565b600082815260026020819052604090912001805460ff191690555b600281015460405183917f8a5186dbaf6f344b2837e11834be94edebb633f05034f422c6b1fe1595b4d0cc91610739918c918c9160ff16908b908b90339061263c565b60405180910390a285156107505761075082610f35565b509695505050505050565b60606009805461076a90612908565b80601f016020809104026020016040519081016040528092919081815260200182805461079690612908565b80156107e35780601f106107b8576101008083540402835291602001916107e3565b820191906000526020600020905b8154815290600101906020018083116107c657829003601f168201915b5050505050905090565b6040805160038082526080820190925260609160009190816020015b60608152602001906001900390816108095790505090506040518060400160405280600d81526020016c30b2323932b9b9903a37b5b2b760991b8152508160008151811061085957610859612984565b60200260200101819052506040518060400160405280600a8152602001696164647265737320746f60b01b8152508160018151811061089a5761089a612984565b60200260200101819052506040518060400160405280600d81526020016c75696e743235362076616c756560981b815250816002815181106108de576108de612984565b6020908102919091010152919050565b6108f733611309565b6109135760405162461bcd60e51b81526004016106339061270c565b8061091d60015490565b10156109635760405162461bcd60e51b8152602060048201526015602482015274125b9d985a5b1908151c985b9cd858dd1a5bdb9259605a1b6044820152606401610633565b60026000828152600260208190526040909120015460ff16600381111561098c5761098c61296e565b14156109e85760405162461bcd60e51b815260206004820152602560248201527f5472616e73616374696f6e20686173206265656e20636f6d706c65746564206260448201526465666f726560d81b6064820152608401610633565b6000818152600260208190526040808320909101805460ff191660031790555182917f92a917be073b79ab50f9d997e9514a5d101e052ce04228014947e7883a7c034691a250565b6060600a805461076a90612908565b60138181548110610a4f57600080fd5b600091825260209091200154905081565b610a69336113e6565b610ac05760405162461bcd60e51b815260206004820152602260248201527f417070726f766572206e6f742077686974656c697374656420696e2062756467604482015261195d60f21b6064820152608401610633565b82610aca60015490565b1015610b105760405162461bcd60e51b8152602060048201526015602482015274125b9d985a5b1908151c985b9cd858dd1a5bdb9259605a1b6044820152606401610633565b600083815260026020819052604082209081015460039091015460ff9091169190610b3c906001612892565b90506000826003811115610b5257610b5261296e565b1480610b6f57506001826003811115610b6d57610b6d61296e565b145b610bbb5760405162461bcd60e51b815260206004820152601d60248201527f556e6578706563746564207472616e73616374696f6e207374617475730000006044820152606401610633565b600085815260026020908152604080832033845260040190915290205460ff1615610c345760405162461bcd60e51b8152602060048201526024808201527f5472616e73616374696f6e20686173206265656e20617070726f766564206265604482015263666f726560e01b6064820152608401610633565b6000858152600260208181526040808420338552600481018352908420805460ff191660011790559288905252600301819055610c7060085490565b8110610c9457600085815260026020819052604090912001805460ff191660011790555b847f3399030f87676a97e30e211a48f9c46e2ff806d0b4cedf7100782f08c52902c9338686604051610cc893929190612572565b60405180910390a25050505050565b600054610100900460ff1615808015610cf75750600054600160ff909116105b80610d115750303b158015610d11575060005460ff166001145b610d745760405162461bcd60e51b815260206004820152602e60248201527f496e697469616c697a61626c653a20636f6e747261637420697320616c72656160448201526d191e481a5b9a5d1a585b1a5e995960921b6064820152608401610633565b6000805460ff191660011790558015610d97576000805461ff0019166101001790555b610da089611433565b600f805460ff60a01b1916600160a01b8a15150217905560005b8751811015610df757610de5888281518110610dd857610dd8612984565b6020026020010151611701565b80610def8161293d565b915050610dba565b5060005b8251811015610e3857610e26838281518110610e1957610e19612984565b60200260200101516117d6565b80610e308161293d565b915050610dfb565b50601180546001600160a81b031916871515610100600160a81b031916176101006001600160a01b038816021760ff60a81b1916600160a81b8615150217905560128390558015610ec3576000805461ff0019169055604051600181527f7f26b83ff96e1f2b6a682f133852f6798a09c465da95921460cefb38474024989060200160405180910390a15b505050505050505050565b6005546001600160a01b03163314610f335760405162461bcd60e51b815260206004820152602260248201527f4578656375746565206e6f742077686974656c697374656420696e2062756467604482015261195d60f21b6064820152608401610633565b565b806001806000838152600260208190526040909120015460ff166003811115610f6057610f6061296e565b14610fad5760405162461bcd60e51b815260206004820152601a60248201527f5472616e73616374696f6e2073746174757320696e76616c69640000000000006044820152606401610633565b600083815260026020819052604090912001548390610100900463ffffffff164211156110125760405162461bcd60e51b8152602060048201526013602482015272151c985b9cd858dd1a5bdb88195e1c1a5c9959606a1b6044820152606401610633565b600d544210156110645760405162461bcd60e51b815260206004820152601f60248201527f42756467657420757361676520706572696f64206e6f742073746172746564006044820152606401610633565b600061106f600e5490565b905080156110c6578042106110c65760405162461bcd60e51b815260206004820152601d60248201527f42756467657420757361676520706572696f642068617320656e6465640000006044820152606401610633565b6110cf33611309565b6110eb5760405162461bcd60e51b81526004016106339061270c565b60006110f9600b5460ff1690565b90506000611106600c5490565b9050600060026000898152602001908152602001600020600101805480602002602001604051908101604052809291908181526020016000905b828210156111ec57838290600052602060002001805461115f90612908565b80601f016020809104026020016040519081016040528092919081815260200182805461118b90612908565b80156111d85780601f106111ad576101008083540402835291602001916111d8565b820191906000526020600020905b8154815290600101906020018083116111bb57829003601f168201915b505050505081526020019060010190611140565b50505050905060005b815181101561129e57838061120a5750600083115b6112565760405162461bcd60e51b815260206004820152601b60248201527f457863656564656420627564676574207573616765206c696d697400000000006044820152606401610633565b836112695782611265816128f1565b9350505b61128c8983838151811061127f5761127f612984565b60200260200101516118b7565b806112968161293d565b9150506111f5565b50600c82905560008881526002602081905260409091208101805460ff19166001830217905550877f9060adf413860c5ab6e376e0aa4269e49a13f0853edb1583fce8129d4c756d7982336040516112f7929190612612565b60405180910390a25050505050505050565b600061131d6003546001600160a01b031690565b6001600160a01b0316826001600160a01b031614806113e05750600061134b600f546001600160a01b031690565b6001600160a01b031662fdd58e8461136260045490565b6040516001600160e01b031960e085901b1681526001600160a01b039092166004830152602482015260440160206040518083038186803b1580156113a657600080fd5b505afa1580156113ba573d6000803e3d6000fd5b505050506040513d601f19601f820116820180604052508101906113de919061240d565b115b92915050565b6001600160a01b03811660009081526006602052604081205460ff16806113e05750600061141c600f546001600160a01b031690565b6001600160a01b031662fdd58e8461136260075490565b600054610100900460ff1661149e5760405162461bcd60e51b815260206004820152602b60248201527f496e697469616c697a61626c653a20636f6e7472616374206973206e6f74206960448201526a6e697469616c697a696e6760a81b6064820152608401610633565b6000816060013511806114c357506114b96040820182612784565b9050816080013511155b6115075760405162461bcd60e51b8152602060048201526015602482015274125b9d985b1a5908185c1c1c9bdd995c881b1a5cdd605a1b6044820152606401610633565b600580546001600160a01b03191633179055611526602082018261204b565b600380546001600160a01b0319166001600160a01b039290921691909117905561155360a08201826127ce565b61155f91600991611d77565b5061156d60c08201826127ce565b61157991600a91611d77565b50608081013560085560e0810135600d55610100810135600e556115a56101408201610120830161228d565b600b805460ff1916911515919091179055610140810135600c556115d16101808201610160830161204b565b600f80546001600160a01b0319166001600160a01b03929092169190911790556020810135600455606081013560075560005b6116116040830183612784565b90508110156116fd5760016006600061162d6040860186612784565b8581811061163d5761163d612984565b9050602002016020810190611652919061204b565b6001600160a01b0316815260208101919091526040908101600020805460ff1916921515929092179091557f4664777dbfbcb27de0f602e1da5d5a259992cd7edf5b29192929c96e8fd50def906116ab90840184612784565b838181106116bb576116bb612984565b90506020020160208101906116d0919061204b565b6040516001600160a01b03909116815260200160405180910390a1806116f58161293d565b915050611604565b5050565b6001600160a01b03811660009081526010602052604090205460ff161561177c5760405162461bcd60e51b815260206004820152602960248201527f4475706c696361746564206164647265737320696e20746172676574206164646044820152681c995cdcc81b1a5cdd60ba1b6064820152608401610633565b6001600160a01b038116600081815260106020908152604091829020805460ff1916600117905590519182527ff11283a265d7a5f95fbc149dc65464f1f5be0151aac387fd76a938e1e5584604910160405180910390a150565b60008181526014602052604090205460ff16156118415760405162461bcd60e51b815260206004820152602360248201527f4475706c696361746564207465616d20696e20746172676574207465616d206c6044820152621a5cdd60ea1b6064820152608401610633565b600081815260146020526040808220805460ff1916600190811790915560138054918201815583527f66de8ffda797e3de9c05e8fc57b3bf0ec28a930d40b0d285d93c06501cf6a090018390555182917f97f63d9e58eec1949a905544927de4308825003ab1dd2aa1b699921c3ca31f9591a250565b6000806000838060200190518101906118d0919061206f565b604080516001600160a01b03848116602483015260448083018590528351808403909101815260649092019092526020810180516001600160e01b031663a9059cbb60e01b17905260115460125460055496995094975092955093600160a81b90920460ff169291166001600160a01b031663d3abc28b878560006040518463ffffffff1660e01b81526004016119699392919061253e565b600060405180830381600087803b15801561198357600080fd5b505af1158015611997573d6000803e3d6000fd5b505050506040513d6000823e601f3d908101601f191682016040526119bf91908101906122a8565b50600f54600160a01b900460ff16806119f057506001600160a01b03851660009081526010602052604090205460ff165b806119ff57506119ff85611b95565b611a575760405162461bcd60e51b815260206004820152602360248201527f526563697069656e74206e6f742077686974656c697374656420696e2062756460448201526219d95d60ea1b6064820152608401610633565b60115460ff1680611a7a57506011546001600160a01b0387811661010090920416145b611ac65760405162461bcd60e51b815260206004820152601f60248201527f546f6b656e206e6f742077686974656c697374656420696e20627564676574006044820152606401610633565b8180611ad25750808411155b611b2e5760405162461bcd60e51b815260206004820152602760248201527f4578636565646564206d617820627564676574207472616e7366657261626c6560448201526608185b5bdd5b9d60ca1b6064820152608401610633565b81611b4157611b3d84826128aa565b6012555b604080516001600160a01b0388811682526020820187905287169133918b917fba95307af85e729544b4065b2ee24073a62816d057cf50acb33dcf24d3d4c5b6910160405180910390a45050505050505050565b601354600090818167ffffffffffffffff811115611bb557611bb561299a565b604051908082528060200260200182016040528015611bde578160200160208202803683370190505b50905060005b82811015611c295784828281518110611bff57611bff612984565b6001600160a01b039092166020928302919091019091015280611c218161293d565b915050611be4565b506000611c3e600f546001600160a01b031690565b6001600160a01b0316634e1273f48360136040518363ffffffff1660e01b8152600401611c6c929190612597565b60006040518083038186803b158015611c8457600080fd5b505afa158015611c98573d6000803e3d6000fd5b505050506040513d6000823e601f3d908101601f19168201604052611cc091908101906121f5565b905060005b8151811015611d0e576000828281518110611ce257611ce2612984565b60200260200101511115611cfc5750600195945050505050565b80611d068161293d565b915050611cc5565b50600095945050505050565b828054828255906000526020600020908101928215611d67579160200282015b82811115611d675782518051611d57918491602090910190611df7565b5091602001919060010190611d3a565b50611d73929150611e6b565b5090565b828054611d8390612908565b90600052602060002090601f016020900481019282611da55760008555611deb565b82601f10611dbe5782800160ff19823516178555611deb565b82800160010185558215611deb579182015b82811115611deb578235825591602001919060010190611dd0565b50611d73929150611e88565b828054611e0390612908565b90600052602060002090601f016020900481019282611e255760008555611deb565b82601f10611e3e57805160ff1916838001178555611deb565b82800160010185558215611deb579182015b82811115611deb578251825591602001919060010190611e50565b80821115611d73576000611e7f8282611e9d565b50600101611e6b565b5b80821115611d735760008155600101611e89565b508054611ea990612908565b6000825580601f10611eb9575050565b601f016020900490600052602060002090810190611ed79190611e88565b50565b8035611ee5816129b0565b919050565b600082601f830112611efb57600080fd5b81356020611f10611f0b83612846565b612815565b80838252828201915082860187848660051b8901011115611f3057600080fd5b60005b85811015611f58578135611f46816129b0565b84529284019290840190600101611f33565b5090979650505050505050565b600082601f830112611f7657600080fd5b81356020611f86611f0b83612846565b80838252828201915082860187848660051b8901011115611fa657600080fd5b60005b85811015611f5857813584529284019290840190600101611fa9565b80358015158114611ee557600080fd5b60008083601f840112611fe757600080fd5b50813567ffffffffffffffff811115611fff57600080fd5b60208301915083602082850101111561201757600080fd5b9250929050565b6000610180828403121561203157600080fd5b50919050565b803563ffffffff81168114611ee557600080fd5b60006020828403121561205d57600080fd5b8135612068816129b0565b9392505050565b60008060006060848603121561208457600080fd5b835161208f816129b0565b60208501519093506120a0816129b0565b80925050604084015190509250925092565b6000806000806000608086880312156120ca57600080fd5b67ffffffffffffffff80873511156120e157600080fd5b8635870188601f8201126120f457600080fd5b612101611f0b8235612846565b8082358252602082019150602083018b6020853560051b860101111561212657600080fd5b60005b84358110156121a157858235111561214057600080fd5b813585018d603f82011261215357600080fd5b6020810135612164611f0b8261286a565b8181528f604083850101111561217957600080fd5b8160408401602083013760006020928201830152865294850194929092019150600101612129565b50508098505050506121b560208801612037565b94506121c360408801611fc5565b93506060870135818111156121d757600080fd5b6121e389828a01611fd5565b979a9699509497509395949350505050565b6000602080838503121561220857600080fd5b825167ffffffffffffffff81111561221f57600080fd5b8301601f8101851361223057600080fd5b805161223e611f0b82612846565b80828252848201915084840188868560051b870101111561225e57600080fd5b600094505b83851015612281578051835260019490940193918501918501612263565b50979650505050505050565b60006020828403121561229f57600080fd5b61206882611fc5565b6000602082840312156122ba57600080fd5b815167ffffffffffffffff8111156122d157600080fd5b8201601f810184136122e257600080fd5b80516122f0611f0b8261286a565b81815285602083850101111561230557600080fd5b6123168260208301602086016128c1565b95945050505050565b600080600080600080600080610100898b03121561233c57600080fd5b883567ffffffffffffffff8082111561235457600080fd5b6123608c838d0161201e565b995061236e60208c01611fc5565b985060408b013591508082111561238457600080fd5b6123908c838d01611eea565b975061239e60608c01611fc5565b96506123ac60808c01611eda565b95506123ba60a08c01611fc5565b945060c08b0135935060e08b01359150808211156123d757600080fd5b506123e48b828c01611f65565b9150509295985092959890939650565b60006020828403121561240657600080fd5b5035919050565b60006020828403121561241f57600080fd5b5051919050565b60008060006040848603121561243b57600080fd5b83359250602084013567ffffffffffffffff81111561245957600080fd5b61246586828701611fd5565b9497909650939450505050565b600081518084526020808501808196508360051b8101915082860160005b858110156124ba5782840389526124a88483516124c7565b98850198935090840190600101612490565b5091979650505050505050565b600081518084526124df8160208601602086016128c1565b601f01601f19169290920160200192915050565b6004811061251157634e487b7160e01b600052602160045260246000fd5b9052565b81835281816020850137506000828201602090810191909152601f909101601f19169091010190565b6001600160a01b0384168152606060208201819052600090612562908301856124c7565b9050826040830152949350505050565b6001600160a01b03841681526040602082018190526000906123169083018486612515565b604080825283519082018190526000906020906060840190828701845b828110156125d95781516001600160a01b0316845292840192908401906001016125b4565b505050838103828501528454808252600086815283812092840191905b81811015611f58578354835260019384019392850192016125f6565b6040815260006126256040830185612472565b905060018060a01b03831660208301529392505050565b60a08152600061264f60a0830189612472565b63ffffffff8816602084015261266860408401886124f3565b828103606084015261267b818688612515565b91505060018060a01b0383166080830152979650505050505050565b6000602080830181845280855180835260408601915060408160051b870101925083870160005b828110156126ec57603f198886030184526126da8583516124c7565b945092850192908501906001016126be565b5092979650505050505050565b60208152600061206860208301846124c7565b60208082526022908201527f4578656375746f72206e6f742077686974656c697374656420696e2062756467604082015261195d60f21b606082015260800190565b85815260a0810161276260208301876124f3565b63ffffffff949094166040820152911515606083015260809091015292915050565b6000808335601e1984360301811261279b57600080fd5b83018035915067ffffffffffffffff8211156127b657600080fd5b6020019150600581901b360382131561201757600080fd5b6000808335601e198436030181126127e557600080fd5b83018035915067ffffffffffffffff82111561280057600080fd5b60200191503681900382131561201757600080fd5b604051601f8201601f1916810167ffffffffffffffff8111828210171561283e5761283e61299a565b604052919050565b600067ffffffffffffffff8211156128605761286061299a565b5060051b60200190565b600067ffffffffffffffff8211156128845761288461299a565b50601f01601f191660200190565b600082198211156128a5576128a5612958565b500190565b6000828210156128bc576128bc612958565b500390565b60005b838110156128dc5781810151838201526020016128c4565b838111156128eb576000848401525b50505050565b60008161290057612900612958565b506000190190565b600181811c9082168061291c57607f821691505b6020821081141561203157634e487b7160e01b600052602260045260246000fd5b600060001982141561295157612951612958565b5060010190565b634e487b7160e01b600052601160045260246000fd5b634e487b7160e01b600052602160045260246000fd5b634e487b7160e01b600052603260045260246000fd5b634e487b7160e01b600052604160045260246000fd5b6001600160a01b0381168114611ed757600080fdfea2646970667358221220814a6ab74bf3574dc7896c3dd7a30e020b5f3bec9e7aeb1eb8f661d2fa0220e764736f6c63430008070033",
  "devdoc": {
    "kind": "dev",
    "methods": {
      "constructor": {
        "custom:oz-upgrades-unsafe-allow": "constructor"
      }
    },
    "version": 1
  },
  "userdoc": {
    "kind": "user",
    "methods": {},
    "version": 1
  },
  "storageLayout": {
    "storage": [
      {
        "astId": 3247,
        "contract": "contracts/TransferERC20BudgetApproval.sol:TransferERC20BudgetApproval",
        "label": "_initialized",
        "offset": 0,
        "slot": "0",
        "type": "t_uint8"
      },
      {
        "astId": 3250,
        "contract": "contracts/TransferERC20BudgetApproval.sol:TransferERC20BudgetApproval",
        "label": "_initializing",
        "offset": 1,
        "slot": "0",
        "type": "t_bool"
      },
      {
        "astId": 30051,
        "contract": "contracts/TransferERC20BudgetApproval.sol:TransferERC20BudgetApproval",
        "label": "_transactionIds",
        "offset": 0,
        "slot": "1",
        "type": "t_struct(Counter)17310_storage"
      },
      {
        "astId": 30056,
        "contract": "contracts/TransferERC20BudgetApproval.sol:TransferERC20BudgetApproval",
        "label": "transactions",
        "offset": 0,
        "slot": "2",
        "type": "t_mapping(t_uint256,t_struct(Transaction)29995_storage)"
      },
      {
        "astId": 30058,
        "contract": "contracts/TransferERC20BudgetApproval.sol:TransferERC20BudgetApproval",
        "label": "_executor",
        "offset": 0,
        "slot": "3",
        "type": "t_address"
      },
      {
        "astId": 30060,
        "contract": "contracts/TransferERC20BudgetApproval.sol:TransferERC20BudgetApproval",
        "label": "_executorTeamId",
        "offset": 0,
        "slot": "4",
        "type": "t_uint256"
      },
      {
        "astId": 30062,
        "contract": "contracts/TransferERC20BudgetApproval.sol:TransferERC20BudgetApproval",
        "label": "_executee",
        "offset": 0,
        "slot": "5",
        "type": "t_address"
      },
      {
        "astId": 30066,
        "contract": "contracts/TransferERC20BudgetApproval.sol:TransferERC20BudgetApproval",
        "label": "_approversMapping",
        "offset": 0,
        "slot": "6",
        "type": "t_mapping(t_address,t_bool)"
      },
      {
        "astId": 30068,
        "contract": "contracts/TransferERC20BudgetApproval.sol:TransferERC20BudgetApproval",
        "label": "_approverTeamId",
        "offset": 0,
        "slot": "7",
        "type": "t_uint256"
      },
      {
        "astId": 30070,
        "contract": "contracts/TransferERC20BudgetApproval.sol:TransferERC20BudgetApproval",
        "label": "_minApproval",
        "offset": 0,
        "slot": "8",
        "type": "t_uint256"
      },
      {
        "astId": 30072,
        "contract": "contracts/TransferERC20BudgetApproval.sol:TransferERC20BudgetApproval",
        "label": "_text",
        "offset": 0,
        "slot": "9",
        "type": "t_string_storage"
      },
      {
        "astId": 30074,
        "contract": "contracts/TransferERC20BudgetApproval.sol:TransferERC20BudgetApproval",
        "label": "_transactionType",
        "offset": 0,
        "slot": "10",
        "type": "t_string_storage"
      },
      {
        "astId": 30076,
        "contract": "contracts/TransferERC20BudgetApproval.sol:TransferERC20BudgetApproval",
        "label": "_allowUnlimitedUsageCount",
        "offset": 0,
        "slot": "11",
        "type": "t_bool"
      },
      {
        "astId": 30078,
        "contract": "contracts/TransferERC20BudgetApproval.sol:TransferERC20BudgetApproval",
        "label": "_usageCount",
        "offset": 0,
        "slot": "12",
        "type": "t_uint256"
      },
      {
        "astId": 30080,
        "contract": "contracts/TransferERC20BudgetApproval.sol:TransferERC20BudgetApproval",
        "label": "_startTime",
        "offset": 0,
        "slot": "13",
        "type": "t_uint256"
      },
      {
        "astId": 30082,
        "contract": "contracts/TransferERC20BudgetApproval.sol:TransferERC20BudgetApproval",
        "label": "_endTime",
        "offset": 0,
        "slot": "14",
        "type": "t_uint256"
      },
      {
        "astId": 30084,
        "contract": "contracts/TransferERC20BudgetApproval.sol:TransferERC20BudgetApproval",
        "label": "_team",
        "offset": 0,
        "slot": "15",
        "type": "t_address"
      },
      {
        "astId": 26168,
        "contract": "contracts/TransferERC20BudgetApproval.sol:TransferERC20BudgetApproval",
        "label": "allowAllAddresses",
        "offset": 20,
        "slot": "15",
        "type": "t_bool"
      },
      {
        "astId": 26172,
        "contract": "contracts/TransferERC20BudgetApproval.sol:TransferERC20BudgetApproval",
        "label": "addressesMapping",
        "offset": 0,
        "slot": "16",
        "type": "t_mapping(t_address,t_bool)"
      },
      {
        "astId": 26174,
        "contract": "contracts/TransferERC20BudgetApproval.sol:TransferERC20BudgetApproval",
        "label": "allowAllTokens",
        "offset": 0,
        "slot": "17",
        "type": "t_bool"
      },
      {
        "astId": 26176,
        "contract": "contracts/TransferERC20BudgetApproval.sol:TransferERC20BudgetApproval",
        "label": "token",
        "offset": 1,
        "slot": "17",
        "type": "t_address"
      },
      {
        "astId": 26178,
        "contract": "contracts/TransferERC20BudgetApproval.sol:TransferERC20BudgetApproval",
        "label": "allowAnyAmount",
        "offset": 21,
        "slot": "17",
        "type": "t_bool"
      },
      {
        "astId": 26180,
        "contract": "contracts/TransferERC20BudgetApproval.sol:TransferERC20BudgetApproval",
        "label": "totalAmount",
        "offset": 0,
        "slot": "18",
        "type": "t_uint256"
      },
      {
        "astId": 26183,
        "contract": "contracts/TransferERC20BudgetApproval.sol:TransferERC20BudgetApproval",
        "label": "toTeamIds",
        "offset": 0,
        "slot": "19",
        "type": "t_array(t_uint256)dyn_storage"
      },
      {
        "astId": 26187,
        "contract": "contracts/TransferERC20BudgetApproval.sol:TransferERC20BudgetApproval",
        "label": "toTeamIdsMapping",
        "offset": 0,
        "slot": "20",
        "type": "t_mapping(t_uint256,t_bool)"
      }
    ],
    "types": {
      "t_address": {
        "encoding": "inplace",
        "label": "address",
        "numberOfBytes": "20"
      },
      "t_array(t_bytes_storage)dyn_storage": {
        "base": "t_bytes_storage",
        "encoding": "dynamic_array",
        "label": "bytes[]",
        "numberOfBytes": "32"
      },
      "t_array(t_uint256)dyn_storage": {
        "base": "t_uint256",
        "encoding": "dynamic_array",
        "label": "uint256[]",
        "numberOfBytes": "32"
      },
      "t_bool": {
        "encoding": "inplace",
        "label": "bool",
        "numberOfBytes": "1"
      },
      "t_bytes_storage": {
        "encoding": "bytes",
        "label": "bytes",
        "numberOfBytes": "32"
      },
      "t_enum(Status)29976": {
        "encoding": "inplace",
        "label": "enum CommonBudgetApproval.Status",
        "numberOfBytes": "1"
      },
      "t_mapping(t_address,t_bool)": {
        "encoding": "mapping",
        "key": "t_address",
        "label": "mapping(address => bool)",
        "numberOfBytes": "32",
        "value": "t_bool"
      },
      "t_mapping(t_uint256,t_bool)": {
        "encoding": "mapping",
        "key": "t_uint256",
        "label": "mapping(uint256 => bool)",
        "numberOfBytes": "32",
        "value": "t_bool"
      },
      "t_mapping(t_uint256,t_struct(Transaction)29995_storage)": {
        "encoding": "mapping",
        "key": "t_uint256",
        "label": "mapping(uint256 => struct CommonBudgetApproval.Transaction)",
        "numberOfBytes": "32",
        "value": "t_struct(Transaction)29995_storage"
      },
      "t_string_storage": {
        "encoding": "bytes",
        "label": "string",
        "numberOfBytes": "32"
      },
      "t_struct(Counter)17310_storage": {
        "encoding": "inplace",
        "label": "struct Counters.Counter",
        "members": [
          {
            "astId": 17309,
            "contract": "contracts/TransferERC20BudgetApproval.sol:TransferERC20BudgetApproval",
            "label": "_value",
            "offset": 0,
            "slot": "0",
            "type": "t_uint256"
          }
        ],
        "numberOfBytes": "32"
      },
      "t_struct(Transaction)29995_storage": {
        "encoding": "inplace",
        "label": "struct CommonBudgetApproval.Transaction",
        "members": [
          {
            "astId": 29978,
            "contract": "contracts/TransferERC20BudgetApproval.sol:TransferERC20BudgetApproval",
            "label": "id",
            "offset": 0,
            "slot": "0",
            "type": "t_uint256"
          },
          {
            "astId": 29981,
            "contract": "contracts/TransferERC20BudgetApproval.sol:TransferERC20BudgetApproval",
            "label": "data",
            "offset": 0,
            "slot": "1",
            "type": "t_array(t_bytes_storage)dyn_storage"
          },
          {
            "astId": 29984,
            "contract": "contracts/TransferERC20BudgetApproval.sol:TransferERC20BudgetApproval",
            "label": "status",
            "offset": 0,
            "slot": "2",
            "type": "t_enum(Status)29976"
          },
          {
            "astId": 29986,
            "contract": "contracts/TransferERC20BudgetApproval.sol:TransferERC20BudgetApproval",
            "label": "deadline",
            "offset": 1,
            "slot": "2",
            "type": "t_uint32"
          },
          {
            "astId": 29988,
            "contract": "contracts/TransferERC20BudgetApproval.sol:TransferERC20BudgetApproval",
            "label": "isExist",
            "offset": 5,
            "slot": "2",
            "type": "t_bool"
          },
          {
            "astId": 29990,
            "contract": "contracts/TransferERC20BudgetApproval.sol:TransferERC20BudgetApproval",
            "label": "approvedCount",
            "offset": 0,
            "slot": "3",
            "type": "t_uint256"
          },
          {
            "astId": 29994,
            "contract": "contracts/TransferERC20BudgetApproval.sol:TransferERC20BudgetApproval",
            "label": "approved",
            "offset": 0,
            "slot": "4",
            "type": "t_mapping(t_address,t_bool)"
          }
        ],
        "numberOfBytes": "160"
      },
      "t_uint256": {
        "encoding": "inplace",
        "label": "uint256",
        "numberOfBytes": "32"
      },
      "t_uint32": {
        "encoding": "inplace",
        "label": "uint32",
        "numberOfBytes": "4"
      },
      "t_uint8": {
        "encoding": "inplace",
        "label": "uint8",
        "numberOfBytes": "1"
      }
    }
  }
}