{
  "address": "0x987747FC7D299500EeaC00B59554515a6E3bBA3f",
  "abi": [
    {
      "anonymous": false,
      "inputs": [
        {
          "indexed": false,
          "internalType": "address",
          "name": "previousAdmin",
          "type": "address"
        },
        {
          "indexed": false,
          "internalType": "address",
          "name": "newAdmin",
          "type": "address"
        }
      ],
      "name": "AdminChanged",
      "type": "event"
    },
    {
      "anonymous": false,
      "inputs": [
        {
          "indexed": true,
          "internalType": "address",
          "name": "beacon",
          "type": "address"
        }
      ],
      "name": "BeaconUpgraded",
      "type": "event"
    },
    {
      "anonymous": false,
      "inputs": [
        {
          "indexed": true,
          "internalType": "address",
          "name": "dao",
          "type": "address"
        },
        {
          "indexed": false,
          "internalType": "string",
          "name": "name",
          "type": "string"
        },
        {
          "indexed": false,
          "internalType": "string",
          "name": "description",
          "type": "string"
        },
        {
          "indexed": false,
          "internalType": "address",
          "name": "creator",
          "type": "address"
        }
      ],
      "name": "CreateDao",
      "type": "event"
    },
    {
      "anonymous": false,
      "inputs": [
        {
          "indexed": true,
          "internalType": "address",
          "name": "previousOwner",
          "type": "address"
        },
        {
          "indexed": true,
          "internalType": "address",
          "name": "newOwner",
          "type": "address"
        }
      ],
      "name": "OwnershipTransferred",
      "type": "event"
    },
    {
      "anonymous": false,
      "inputs": [
        {
          "indexed": true,
          "internalType": "address",
          "name": "implementation",
          "type": "address"
        }
      ],
      "name": "Upgraded",
      "type": "event"
    },
    {
      "anonymous": false,
      "inputs": [
        {
          "indexed": false,
          "internalType": "address",
          "name": "budgetApproval",
          "type": "address"
        }
      ],
      "name": "WhitelistBudgetApproval",
      "type": "event"
    },
    {
      "inputs": [
        {
          "internalType": "address",
          "name": "",
          "type": "address"
        }
      ],
      "name": "budgetApprovals",
      "outputs": [
        {
          "internalType": "bool",
          "name": "",
          "type": "bool"
        }
      ],
      "stateMutability": "view",
      "type": "function"
    },
    {
      "inputs": [
        {
          "components": [
            {
              "internalType": "string",
              "name": "_name",
              "type": "string"
            },
            {
              "internalType": "string",
              "name": "_description",
              "type": "string"
            },
            {
              "internalType": "uint256",
              "name": "_locktime",
              "type": "uint256"
            },
            {
              "internalType": "uint256[4]",
              "name": "generalGovernSetting",
              "type": "uint256[4]"
            },
            {
              "internalType": "string[]",
              "name": "tokenInfo",
              "type": "string[]"
            },
            {
              "internalType": "uint256",
              "name": "tokenAmount",
              "type": "uint256"
            },
            {
              "internalType": "uint256",
              "name": "minDepositAmount",
              "type": "uint256"
            },
            {
              "internalType": "uint256",
              "name": "minTokenToAdmit",
              "type": "uint256"
            },
            {
              "internalType": "address",
              "name": "admissionToken",
              "type": "address"
            },
            {
              "internalType": "address[]",
              "name": "depositTokens",
              "type": "address[]"
            },
            {
              "internalType": "bool",
              "name": "mintMemberToken",
              "type": "bool"
            },
            {
              "internalType": "address",
              "name": "baseCurrency",
              "type": "address"
            },
            {
              "internalType": "string",
              "name": "logoCID",
              "type": "string"
            },
            {
              "internalType": "uint256",
              "name": "maxMemberLimit",
              "type": "uint256"
            }
          ],
          "internalType": "struct Adam.CreateDaoParams",
          "name": "params",
          "type": "tuple"
        }
      ],
      "name": "createDao",
      "outputs": [
        {
          "internalType": "address",
          "name": "",
          "type": "address"
        }
      ],
      "stateMutability": "nonpayable",
      "type": "function"
    },
    {
      "inputs": [],
      "name": "daoImplementation",
      "outputs": [
        {
          "internalType": "address",
          "name": "",
          "type": "address"
        }
      ],
      "stateMutability": "view",
      "type": "function"
    },
    {
      "inputs": [
        {
          "internalType": "address",
          "name": "",
          "type": "address"
        }
      ],
      "name": "daos",
      "outputs": [
        {
          "internalType": "bool",
          "name": "",
          "type": "bool"
        }
      ],
      "stateMutability": "view",
      "type": "function"
    },
    {
      "inputs": [],
      "name": "depositPoolImplementation",
      "outputs": [
        {
          "internalType": "address",
          "name": "",
          "type": "address"
        }
      ],
      "stateMutability": "view",
      "type": "function"
    },
    {
      "inputs": [],
      "name": "feedRegistry",
      "outputs": [
        {
          "internalType": "address",
          "name": "",
          "type": "address"
        }
      ],
      "stateMutability": "view",
      "type": "function"
    },
    {
      "inputs": [],
      "name": "governFactory",
      "outputs": [
        {
          "internalType": "address",
          "name": "",
          "type": "address"
        }
      ],
      "stateMutability": "view",
      "type": "function"
    },
    {
      "inputs": [],
      "name": "governImplementation",
      "outputs": [
        {
          "internalType": "address",
          "name": "",
          "type": "address"
        }
      ],
      "stateMutability": "view",
      "type": "function"
    },
    {
      "inputs": [
        {
          "internalType": "address",
          "name": "_daoImplementation",
          "type": "address"
        },
        {
          "internalType": "address",
          "name": "_membershipImplementation",
          "type": "address"
        },
        {
          "internalType": "address",
          "name": "_liquidPoolImplementation",
          "type": "address"
        },
        {
          "internalType": "address",
          "name": "_memberTokenImplementation",
          "type": "address"
        },
        {
          "internalType": "address",
          "name": "_depositPoolImplementation",
          "type": "address"
        },
        {
          "internalType": "address",
          "name": "_optInPoolImplementation",
          "type": "address"
        },
        {
          "internalType": "address[]",
          "name": "_budgetApprovalImplementations",
          "type": "address[]"
        },
        {
          "internalType": "address",
          "name": "_governFactory",
          "type": "address"
        },
        {
          "internalType": "address",
          "name": "_feedRegistry",
          "type": "address"
        },
        {
          "internalType": "address",
          "name": "_team",
          "type": "address"
        }
      ],
      "name": "initialize",
      "outputs": [],
      "stateMutability": "nonpayable",
      "type": "function"
    },
    {
      "inputs": [],
      "name": "liquidPoolImplementation",
      "outputs": [
        {
          "internalType": "address",
          "name": "",
          "type": "address"
        }
      ],
      "stateMutability": "view",
      "type": "function"
    },
    {
      "inputs": [],
      "name": "memberTokenImplementation",
      "outputs": [
        {
          "internalType": "address",
          "name": "",
          "type": "address"
        }
      ],
      "stateMutability": "view",
      "type": "function"
    },
    {
      "inputs": [],
      "name": "membershipImplementation",
      "outputs": [
        {
          "internalType": "address",
          "name": "",
          "type": "address"
        }
      ],
      "stateMutability": "view",
      "type": "function"
    },
    {
      "inputs": [],
      "name": "optInPoolImplementation",
      "outputs": [
        {
          "internalType": "address",
          "name": "",
          "type": "address"
        }
      ],
      "stateMutability": "view",
      "type": "function"
    },
    {
      "inputs": [],
      "name": "owner",
      "outputs": [
        {
          "internalType": "address",
          "name": "",
          "type": "address"
        }
      ],
      "stateMutability": "view",
      "type": "function"
    },
    {
      "inputs": [],
      "name": "proxiableUUID",
      "outputs": [
        {
          "internalType": "bytes32",
          "name": "",
          "type": "bytes32"
        }
      ],
      "stateMutability": "view",
      "type": "function"
    },
    {
      "inputs": [],
      "name": "renounceOwnership",
      "outputs": [],
      "stateMutability": "nonpayable",
      "type": "function"
    },
    {
      "inputs": [
        {
          "internalType": "address",
          "name": "_daoImplementation",
          "type": "address"
        }
      ],
      "name": "setDaoImplementation",
      "outputs": [],
      "stateMutability": "nonpayable",
      "type": "function"
    },
    {
      "inputs": [
        {
          "internalType": "address",
          "name": "_depositPoolImplementation",
          "type": "address"
        }
      ],
      "name": "setDepositPoolImplementation",
      "outputs": [],
      "stateMutability": "nonpayable",
      "type": "function"
    },
    {
      "inputs": [
        {
          "internalType": "address",
          "name": "_membershipImplementation",
          "type": "address"
        }
      ],
      "name": "setMembershipImplementation",
      "outputs": [],
      "stateMutability": "nonpayable",
      "type": "function"
    },
    {
      "inputs": [
        {
          "internalType": "address",
          "name": "_optInPoolImplementation",
          "type": "address"
        }
      ],
      "name": "setOptInPoolImplementation",
      "outputs": [],
      "stateMutability": "nonpayable",
      "type": "function"
    },
    {
      "inputs": [],
      "name": "team",
      "outputs": [
        {
          "internalType": "address",
          "name": "",
          "type": "address"
        }
      ],
      "stateMutability": "view",
      "type": "function"
    },
    {
      "inputs": [
        {
          "internalType": "address",
          "name": "newOwner",
          "type": "address"
        }
      ],
      "name": "transferOwnership",
      "outputs": [],
      "stateMutability": "nonpayable",
      "type": "function"
    },
    {
      "inputs": [
        {
          "internalType": "address",
          "name": "newImplementation",
          "type": "address"
        }
      ],
      "name": "upgradeTo",
      "outputs": [],
      "stateMutability": "nonpayable",
      "type": "function"
    },
    {
      "inputs": [
        {
          "internalType": "address",
          "name": "newImplementation",
          "type": "address"
        },
        {
          "internalType": "bytes",
          "name": "data",
          "type": "bytes"
        }
      ],
      "name": "upgradeToAndCall",
      "outputs": [],
      "stateMutability": "payable",
      "type": "function"
    },
    {
      "inputs": [
        {
          "internalType": "address[]",
          "name": "_budgetApprovals",
          "type": "address[]"
        }
      ],
      "name": "whitelistBudgetApprovals",
      "outputs": [],
      "stateMutability": "nonpayable",
      "type": "function"
    }
  ],
  "transactionHash": "0xfff59aa0fa43c6b9f412197738bb30b14fdb25d9f463315cf058c2533b647c23",
  "args": [],
  "numDeployments": 1,
  "solcInputHash": "da7809b3b714fba03a8268402ac25a3e",
  "bytecode": "0x60a06040523060601b60805234801561001757600080fd5b5060805160601c6129bb610052600039600081816105b3015281816105ff015281816106a8015281816106eb015261078701526129bb6000f3fe608060405260043610620001845760003560e01c806385f2aef211620000e2578063a20d4ab71162000095578063bad5f133116200006c578063bad5f13314620004ec578063c25f3cf6146200052d578063dab745a51462000561578063f2fde38b146200058357600080fd5b8063a20d4ab7146200045d578063a240663e1462000482578063b78b13e514620004c757600080fd5b806385f2aef214620003905780638940951614620003b257806389b3257714620003d45780638da5cb5b14620003f957806390238c3914620004195780639d699326146200043b57600080fd5b80634f1ef286116200013b5780634f1ef28614620002b557806352d1902d14620002cc5780635ba15b4d14620002f35780635faa788c146200031557806365a8aa771462000337578063715018a6146200037857600080fd5b8063084af6ed146200018957806325233e0914620001c857806328acbdc2146200020b578063293e7438146200024c5780633659cfe6146200026e5780634ae69c3d1462000293575b600080fd5b3480156200019657600080fd5b5060cc54620001ab906001600160a01b031681565b6040516001600160a01b0390911681526020015b60405180910390f35b348015620001d557600080fd5b5062000209620001e7366004620017ff565b60ce80546001600160a01b0319166001600160a01b0392909216919091179055565b005b3480156200021857600080fd5b50620002096200022a366004620017ff565b60ca80546001600160a01b0319166001600160a01b0392909216919091179055565b3480156200025957600080fd5b5060d254620001ab906001600160a01b031681565b3480156200027b57600080fd5b50620002096200028d366004620017ff565b620005a8565b348015620002a057600080fd5b5060cd54620001ab906001600160a01b031681565b62000209620002c63660046200190c565b6200069d565b348015620002d957600080fd5b50620002e46200077a565b604051908152602001620001bf565b3480156200030057600080fd5b5060d154620001ab906001600160a01b031681565b3480156200032257600080fd5b5060cb54620001ab906001600160a01b031681565b3480156200034457600080fd5b506200020962000356366004620017ff565b60cb80546001600160a01b0319166001600160a01b0392909216919091179055565b3480156200038557600080fd5b506200020962000830565b3480156200039d57600080fd5b5060d054620001ab906001600160a01b031681565b348015620003bf57600080fd5b5060cf54620001ab906001600160a01b031681565b348015620003e157600080fd5b5062000209620003f33660046200181c565b6200086b565b3480156200040657600080fd5b506097546001600160a01b0316620001ab565b3480156200042657600080fd5b5060c954620001ab906001600160a01b031681565b3480156200044857600080fd5b5060ca54620001ab906001600160a01b031681565b3480156200046a57600080fd5b50620001ab6200047c366004620019f1565b620009ea565b3480156200048f57600080fd5b50620004b6620004a1366004620017ff565b60d36020526000908152604090205460ff1681565b6040519015158152602001620001bf565b348015620004d457600080fd5b5062000209620004e636600462001972565b62001012565b348015620004f957600080fd5b50620002096200050b366004620017ff565b60cd80546001600160a01b0319166001600160a01b0392909216919091179055565b3480156200053a57600080fd5b50620004b66200054c366004620017ff565b60d46020526000908152604090205460ff1681565b3480156200056e57600080fd5b5060ce54620001ab906001600160a01b031681565b3480156200059057600080fd5b5062000209620005a2366004620017ff565b620011c6565b306001600160a01b037f0000000000000000000000000000000000000000000000000000000000000000161415620005fd5760405162461bcd60e51b8152600401620005f49062001c87565b60405180910390fd5b7f00000000000000000000000000000000000000000000000000000000000000006001600160a01b0316620006486000805160206200293f833981519152546001600160a01b031690565b6001600160a01b031614620006715760405162461bcd60e51b8152600401620005f49062001cd3565b6200067c8162001265565b604080516000808252602082019092526200069a9183919062001292565b50565b306001600160a01b037f0000000000000000000000000000000000000000000000000000000000000000161415620006e95760405162461bcd60e51b8152600401620005f49062001c87565b7f00000000000000000000000000000000000000000000000000000000000000006001600160a01b0316620007346000805160206200293f833981519152546001600160a01b031690565b6001600160a01b0316146200075d5760405162461bcd60e51b8152600401620005f49062001cd3565b620007688262001265565b620007768282600162001292565b5050565b6000306001600160a01b037f000000000000000000000000000000000000000000000000000000000000000016146200081c5760405162461bcd60e51b815260206004820152603860248201527f555550535570677261646561626c653a206d757374206e6f742062652063616c60448201527f6c6564207468726f7567682064656c656761746563616c6c00000000000000006064820152608401620005f4565b506000805160206200293f83398151915290565b6097546001600160a01b031633146200085d5760405162461bcd60e51b8152600401620005f49062001d1f565b6200086960006200141a565b565b600054610100900460ff16620008885760005460ff16156200088c565b303b155b620008f15760405162461bcd60e51b815260206004820152602e60248201527f496e697469616c697a61626c653a20636f6e747261637420697320616c72656160448201526d191e481a5b9a5d1a585b1a5e995960921b6064820152608401620005f4565b600054610100900460ff1615801562000914576000805461ffff19166101011790555b6200091e6200146c565b60ca80546001600160a01b03199081166001600160a01b038f81169190911790925560cb805482168e841617905560cc805482168d841617905560d2805482168c841617905560cd805482168b841617905560ce80549091169189169190911790556200098c868662001012565b60cf80546001600160a01b038087166001600160a01b03199283161790925560c9805486841690831617905560d08054928516929091169190911790558015620009dc576000805461ff00191690555b505050505050505050505050565b60ca5460405160009182916001600160a01b039091169062000a0c9062001729565b62000a18919062001c09565b604051809103906000f08015801562000a35573d6000803e3d6000fd5b5060cb546040519192506000916001600160a01b039091169062000a599062001729565b62000a65919062001c09565b604051809103906000f08015801562000a82573d6000803e3d6000fd5b5060cc546040519192506000916001600160a01b039091169062000aa69062001729565b62000ab2919062001c09565b604051809103906000f08015801562000acf573d6000803e3d6000fd5b5060cd546040519192506000916001600160a01b039091169062000af39062001729565b62000aff919062001c09565b604051809103906000f08015801562000b1c573d6000803e3d6000fd5b506001600160a01b03808616600090815260d460205260409020805460ff191660011790559091508316638dac9bbc8562000b5889806200200c565b8a61020001356040518563ffffffff1660e01b815260040162000b7f949392919062001bd1565b600060405180830381600087803b15801562000b9a57600080fd5b505af115801562000baf573d6000803e3d6000fd5b5050506001600160a01b038316905063dc5b68a68562000bd46101808a018a62001faa565b62000be86101e08c016101c08d01620017ff565b6040518563ffffffff1660e01b815260040162000c09949392919062001b67565b600060405180830381600087803b15801562000c2457600080fd5b505af115801562000c39573d6000803e3d6000fd5b5050506001600160a01b038216905063dc5b68a68562000c5e6101808a018a62001faa565b62000c726101e08c016101c08d01620017ff565b6040518563ffffffff1660e01b815260040162000c93949392919062001b67565b600060405180830381600087803b15801562000cae57600080fd5b505af115801562000cc3573d6000803e3d6000fd5b50505050836001600160a01b031663c4cee9ef604051806102800160405280336001600160a01b03168152602001866001600160a01b03168152602001856001600160a01b03168152602001846001600160a01b031681526020018961016001602081019062000d349190620017ff565b6001600160a01b03908116825260cf548116602083015260d0548116604083015260d2548116606083015260ce5416608082015260a00162000d778a806200200c565b8080601f01602080910402602001604051908101604052809392919081815260200183838082843760009201919091525050509082525060209081019062000dc2908b018b6200200c565b8080601f0160208091040260200160405190810160405280939291908181526020018383808284376000920191909152505050908252506040808b0135602083015280516080818101835291909201919060608c019060049083908390808284376000920191909152505050815260200162000e4260e08b018b62001ff5565b62000e4d9162002088565b8152602001896101000135815260200160405180604001604052808b610120013581526020018b610140013581525081526020018980610180019062000e94919062001faa565b8080602002602001604051908101604052809392919081815260200183836020028082843760009201919091525050509082525060200162000edf6101c08b016101a08c01620019b6565b1515815260200162000efa6101e08b016101c08c01620017ff565b6001600160a01b0316815260200162000f186101e08b018b6200200c565b8080601f01602080910402602001604051908101604052809392919081815260200183838082843760009201919091525050509152506040516001600160e01b031960e084901b16815262000f71919060040162001d9f565b600060405180830381600087803b15801562000f8c57600080fd5b505af115801562000fa1573d6000803e3d6000fd5b5050506001600160a01b03851690507f594ec7b44a013d8f9acb28d0b57d742a9367c7c8601838741bfee9d115e863ec62000fdd88806200200c565b62000fec60208b018b6200200c565b336040516200100095949392919062001c2c565b60405180910390a25091949350505050565b60005b81811015620011c15760d360008484848181106200104357634e487b7160e01b600052603260045260246000fd5b90506020020160208101906200105a9190620017ff565b6001600160a01b0316815260208101919091526040016000205460ff1615620010d25760405162461bcd60e51b815260206004820152602360248201527f62756467657420617070726f76616c20616c72656164792077686974656c69736044820152621d195960ea1b6064820152608401620005f4565b600160d36000858585818110620010f957634e487b7160e01b600052603260045260246000fd5b9050602002016020810190620011109190620017ff565b6001600160a01b031681526020810191909152604001600020805460ff19169115159190911790557f398b08b0a1d9aec4b7246b4b9d1aa8bb17eb661955c1e5eab31bbab77c714b228383838181106200117a57634e487b7160e01b600052603260045260246000fd5b9050602002016020810190620011919190620017ff565b6040516001600160a01b03909116815260200160405180910390a180620011b8816200215e565b91505062001015565b505050565b6097546001600160a01b03163314620011f35760405162461bcd60e51b8152600401620005f49062001d1f565b6001600160a01b0381166200125a5760405162461bcd60e51b815260206004820152602660248201527f4f776e61626c653a206e6577206f776e657220697320746865207a65726f206160448201526564647265737360d01b6064820152608401620005f4565b6200069a816200141a565b6097546001600160a01b031633146200069a5760405162461bcd60e51b8152600401620005f49062001d1f565b7f4910fdfa16fed3260ed0e7147f7cc6da11a60208b5b9406d12a635614ffd91435460ff1615620012c857620011c183620014a0565b826001600160a01b03166352d1902d6040518163ffffffff1660e01b815260040160206040518083038186803b1580156200130257600080fd5b505afa92505050801562001335575060408051601f3d908101601f191682019092526200133291810190620019d8565b60015b6200139a5760405162461bcd60e51b815260206004820152602e60248201527f45524331393637557067726164653a206e657720696d706c656d656e7461746960448201526d6f6e206973206e6f74205555505360901b6064820152608401620005f4565b6000805160206200293f83398151915281146200140c5760405162461bcd60e51b815260206004820152602960248201527f45524331393637557067726164653a20756e737570706f727465642070726f786044820152681a58589b195555525160ba1b6064820152608401620005f4565b50620011c18383836200153f565b609780546001600160a01b038381166001600160a01b0319831681179093556040519116919082907f8be0079c531659141344cd1fd0a4f28419497f9722a3daafe3b4186f6b6457e090600090a35050565b600054610100900460ff16620014965760405162461bcd60e51b8152600401620005f49062001d54565b6200086962001570565b6001600160a01b0381163b6200150f5760405162461bcd60e51b815260206004820152602d60248201527f455243313936373a206e657720696d706c656d656e746174696f6e206973206e60448201526c1bdd08184818dbdb9d1c9858dd609a1b6064820152608401620005f4565b6000805160206200293f83398151915280546001600160a01b0319166001600160a01b0392909216919091179055565b6200154a83620015a5565b600082511180620015585750805b15620011c1576200156a8383620015e7565b50505050565b600054610100900460ff166200159a5760405162461bcd60e51b8152600401620005f49062001d54565b62000869336200141a565b620015b081620014a0565b6040516001600160a01b038216907fbc7cd75a20ee27fd9adebab32041f755214dbc6bffa90cc0225b39da2e5c2d3b90600090a250565b60606001600160a01b0383163b620016515760405162461bcd60e51b815260206004820152602660248201527f416464726573733a2064656c65676174652063616c6c20746f206e6f6e2d636f6044820152651b9d1c9858dd60d21b6064820152608401620005f4565b600080846001600160a01b0316846040516200166e919062001b49565b600060405180830381855af49150503d8060008114620016ab576040519150601f19603f3d011682016040523d82523d6000602084013e620016b0565b606091505b5091509150620016db82826040518060600160405280602781526020016200295f60279139620016e4565b95945050505050565b60608315620016f557508162001722565b825115620017065782518084602001fd5b8160405162461bcd60e51b8152600401620005f4919062001c72565b9392505050565b6107a2806200219d83390190565b600067ffffffffffffffff83111562001754576200175462002186565b62001769601f8401601f191660200162002054565b90508281528383830111156200177e57600080fd5b828260208301376000602084830101529392505050565b80356001600160a01b0381168114620017ad57600080fd5b919050565b60008083601f840112620017c4578182fd5b50813567ffffffffffffffff811115620017dc578182fd5b6020830191508360208260051b8501011115620017f857600080fd5b9250929050565b60006020828403121562001811578081fd5b620017228262001795565b60008060008060008060008060008060006101408c8e0312156200183e578687fd5b620018498c62001795565b9a506200185960208d0162001795565b99506200186960408d0162001795565b98506200187960608d0162001795565b97506200188960808d0162001795565b96506200189960a08d0162001795565b955060c08c013567ffffffffffffffff811115620018b5578586fd5b620018c38e828f01620017b2565b9096509450620018d8905060e08d0162001795565b9250620018e96101008d0162001795565b9150620018fa6101208d0162001795565b90509295989b509295989b9093969950565b600080604083850312156200191f578182fd5b6200192a8362001795565b9150602083013567ffffffffffffffff81111562001946578182fd5b8301601f8101851362001957578182fd5b620019688582356020840162001737565b9150509250929050565b6000806020838503121562001985578182fd5b823567ffffffffffffffff8111156200199c578283fd5b620019aa85828601620017b2565b90969095509350505050565b600060208284031215620019c8578081fd5b8135801515811462001722578182fd5b600060208284031215620019ea578081fd5b5051919050565b60006020828403121562001a03578081fd5b813567ffffffffffffffff81111562001a1a578182fd5b8201610220818503121562001722578182fd5b6000815180845260208085019450808401835b8381101562001a675781516001600160a01b03168752958201959082019060010162001a40565b509495945050505050565b600082825180855260208086019550808260051b840101818601855b8481101562001ac057601f1986840301895262001aad83835162001b1b565b9884019892509083019060010162001a8e565b5090979650505050505050565b8060005b60048110156200156a57815184526020938401939091019060010162001ad1565b81835281816020850137506000828201602090810191909152601f909101601f19169091010190565b6000815180845262001b358160208601602086016200212f565b601f01601f19169290920160200192915050565b6000825162001b5d8184602087016200212f565b9190910192915050565b6001600160a01b03858116825260606020808401829052908301859052600091869160808501845b8881101562001bb8578362001ba48662001795565b168252938201939082019060010162001b8f565b5080945050508085166040850152505095945050505050565b6001600160a01b038516815260606020820181905260009062001bf8908301858762001af2565b905082604083015295945050505050565b6001600160a01b0391909116815260406020820181905260009082015260600190565b60608152600062001c4260608301878962001af2565b828103602084015262001c5781868862001af2565b91505060018060a01b03831660408301529695505050505050565b60208152600062001722602083018462001b1b565b6020808252602c908201527f46756e6374696f6e206d7573742062652063616c6c6564207468726f7567682060408201526b19195b1959d85d1958d85b1b60a21b606082015260800190565b6020808252602c908201527f46756e6374696f6e206d7573742062652063616c6c6564207468726f7567682060408201526b6163746976652070726f787960a01b606082015260800190565b6020808252818101527f4f776e61626c653a2063616c6c6572206973206e6f7420746865206f776e6572604082015260600190565b6020808252602b908201527f496e697469616c697a61626c653a20636f6e7472616374206973206e6f74206960408201526a6e697469616c697a696e6760a81b606082015260800190565b6020815262001dba6020820183516001600160a01b03169052565b6000602083015162001dd760408401826001600160a01b03169052565b5060408301516001600160a01b03811660608401525060608301516001600160a01b03811660808401525060808301516001600160a01b03811660a08401525060a08301516001600160a01b03811660c08401525060c08301516001600160a01b03811660e08401525060e083015161010062001e5e818501836001600160a01b03169052565b840151905061012062001e7b848201836001600160a01b03169052565b80850151915050610300610140818186015262001e9d61032086018462001b1b565b9250808601519050601f1961016081878603018188015262001ec0858462001b1b565b908801516101808881019190915288015190945091506101a062001ee78188018462001acd565b8088015192505061022081878603018188015262001f06858462001a72565b94506101c0880151925061024083818901526101e0890151935061026062001f3a818a018680518252602090810151910152565b6102008a0151945083898803016102a08a015262001f59878662001a2d565b9650828a0151945062001f716102c08a018615159052565b908901516001600160a01b03166102e08901528801518786039092018488015250905062001fa0838262001b1b565b9695505050505050565b6000808335601e1984360301811262001fc1578283fd5b83018035915067ffffffffffffffff82111562001fdc578283fd5b6020019150600581901b3603821315620017f857600080fd5b6000808335601e1984360301811262001fc1578182fd5b6000808335601e1984360301811262002023578182fd5b83018035915067ffffffffffffffff8211156200203e578283fd5b602001915036819003821315620017f857600080fd5b604051601f8201601f1916810167ffffffffffffffff8111828210171562002080576200208062002186565b604052919050565b600067ffffffffffffffff80841115620020a657620020a662002186565b8360051b6020620020b981830162002054565b8681528181019086368582011115620020d0578687fd5b8694505b888510156200212357803586811115620020ec578788fd5b880136601f820112620020fd578788fd5b6200210d36823587840162001737565b84525060019490940193918301918301620020d4565b50979650505050505050565b60005b838110156200214c57818101518382015260200162002132565b838111156200156a5750506000910152565b60006000198214156200217f57634e487b7160e01b81526011600452602481fd5b5060010190565b634e487b7160e01b600052604160045260246000fdfe60806040526040516107a23803806107a283398101604081905261002291610315565b61004d60017f360894a13ba1a3210667c828492db98dca3e2076cc3735a920a3ca505d382bbd61042d565b60008051602061075b8339815191521461007757634e487b7160e01b600052600160045260246000fd5b6100838282600061008a565b5050610492565b610093836100c0565b6000825111806100a05750805b156100bb576100b9838361010060201b6100291760201c565b505b505050565b6100c98161012c565b6040516001600160a01b038216907fbc7cd75a20ee27fd9adebab32041f755214dbc6bffa90cc0225b39da2e5c2d3b90600090a250565b6060610125838360405180606001604052806027815260200161077b602791396101ec565b9392505050565b61013f816102ca60201b6100551760201c565b6101a65760405162461bcd60e51b815260206004820152602d60248201527f455243313936373a206e657720696d706c656d656e746174696f6e206973206e60448201526c1bdd08184818dbdb9d1c9858dd609a1b60648201526084015b60405180910390fd5b806101cb60008051602061075b83398151915260001b6102d960201b6100641760201c565b80546001600160a01b0319166001600160a01b039290921691909117905550565b60606001600160a01b0384163b6102545760405162461bcd60e51b815260206004820152602660248201527f416464726573733a2064656c65676174652063616c6c20746f206e6f6e2d636f6044820152651b9d1c9858dd60d21b606482015260840161019d565b600080856001600160a01b03168560405161026f91906103de565b600060405180830381855af49150503d80600081146102aa576040519150601f19603f3d011682016040523d82523d6000602084013e6102af565b606091505b5090925090506102c08282866102dc565b9695505050505050565b6001600160a01b03163b151590565b90565b606083156102eb575081610125565b8251156102fb5782518084602001fd5b8160405162461bcd60e51b815260040161019d91906103fa565b60008060408385031215610327578182fd5b82516001600160a01b038116811461033d578283fd5b60208401519092506001600160401b0380821115610359578283fd5b818501915085601f83011261036c578283fd5b81518181111561037e5761037e61047c565b604051601f8201601f19908116603f011681019083821181831017156103a6576103a661047c565b816040528281528860208487010111156103be578586fd5b6103cf836020830160208801610450565b80955050505050509250929050565b600082516103f0818460208701610450565b9190910192915050565b6020815260008251806020840152610419816040850160208701610450565b601f01601f19169190910160400192915050565b60008282101561044b57634e487b7160e01b81526011600452602481fd5b500390565b60005b8381101561046b578181015183820152602001610453565b838111156100b95750506000910152565b634e487b7160e01b600052604160045260246000fd5b6102ba806104a16000396000f3fe60806040523661001357610011610017565b005b6100115b610027610022610067565b61009f565b565b606061004e838360405180606001604052806027815260200161025e602791396100c3565b9392505050565b6001600160a01b03163b151590565b90565b600061009a7f360894a13ba1a3210667c828492db98dca3e2076cc3735a920a3ca505d382bbc546001600160a01b031690565b905090565b3660008037600080366000845af43d6000803e8080156100be573d6000f35b3d6000fd5b60606001600160a01b0384163b6101305760405162461bcd60e51b815260206004820152602660248201527f416464726573733a2064656c65676174652063616c6c20746f206e6f6e2d636f6044820152651b9d1c9858dd60d21b60648201526084015b60405180910390fd5b600080856001600160a01b03168560405161014b91906101de565b600060405180830381855af49150503d8060008114610186576040519150601f19603f3d011682016040523d82523d6000602084013e61018b565b606091505b509150915061019b8282866101a5565b9695505050505050565b606083156101b457508161004e565b8251156101c45782518084602001fd5b8160405162461bcd60e51b815260040161012791906101fa565b600082516101f081846020870161022d565b9190910192915050565b602081526000825180602084015261021981604085016020870161022d565b601f01601f19169190910160400192915050565b60005b83811015610248578181015183820152602001610230565b83811115610257576000848401525b5050505056fe416464726573733a206c6f772d6c6576656c2064656c65676174652063616c6c206661696c6564a2646970667358221220f8739cd7f4c1a028f8618c6d23878548f4c2e3037f64390b7cb441fc411d4ec364736f6c63430008040033360894a13ba1a3210667c828492db98dca3e2076cc3735a920a3ca505d382bbc416464726573733a206c6f772d6c6576656c2064656c65676174652063616c6c206661696c6564360894a13ba1a3210667c828492db98dca3e2076cc3735a920a3ca505d382bbc416464726573733a206c6f772d6c6576656c2064656c65676174652063616c6c206661696c6564a2646970667358221220a87f4b7501620190aedcdd63dc7568e7d0b888542857c3c14fa2d085c882faf764736f6c63430008040033",
  "devdoc": {
    "kind": "dev",
    "methods": {
      "owner()": {
        "details": "Returns the address of the current owner."
      },
      "proxiableUUID()": {
        "details": "Implementation of the ERC1822 {proxiableUUID} function. This returns the storage slot used by the implementation. It is used to validate that the this implementation remains valid after an upgrade. IMPORTANT: A proxy pointing at a proxiable contract should not be considered proxiable itself, because this risks bricking a proxy that upgrades to it, by delegating to itself until out of gas. Thus it is critical that this function revert if invoked through a proxy. This is guaranteed by the `notDelegated` modifier."
      },
      "renounceOwnership()": {
        "details": "Leaves the contract without owner. It will not be possible to call `onlyOwner` functions anymore. Can only be called by the current owner. NOTE: Renouncing ownership will leave the contract without an owner, thereby removing any functionality that is only available to the owner."
      },
      "transferOwnership(address)": {
        "details": "Transfers ownership of the contract to a new account (`newOwner`). Can only be called by the current owner."
      },
      "upgradeTo(address)": {
        "details": "Upgrade the implementation of the proxy to `newImplementation`. Calls {_authorizeUpgrade}. Emits an {Upgraded} event."
      },
      "upgradeToAndCall(address,bytes)": {
        "details": "Upgrade the implementation of the proxy to `newImplementation`, and subsequently execute the function call encoded in `data`. Calls {_authorizeUpgrade}. Emits an {Upgraded} event."
      }
    },
    "version": 1
  },
  "userdoc": {
    "kind": "user",
    "methods": {},
    "version": 1
  },
  "storageLayout": {
    "storage": [
      {
        "astId": 2736,
        "contract": "contracts/Adam.sol:Adam",
        "label": "_initialized",
        "offset": 0,
        "slot": "0",
        "type": "t_bool"
      },
      {
        "astId": 2739,
        "contract": "contracts/Adam.sol:Adam",
        "label": "_initializing",
        "offset": 1,
        "slot": "0",
        "type": "t_bool"
      },
      {
        "astId": 2718,
        "contract": "contracts/Adam.sol:Adam",
        "label": "__gap",
        "offset": 0,
        "slot": "1",
        "type": "t_array(t_uint256)50_storage"
      },
      {
        "astId": 2938,
        "contract": "contracts/Adam.sol:Adam",
        "label": "__gap",
        "offset": 0,
        "slot": "51",
        "type": "t_array(t_uint256)50_storage"
      },
      {
        "astId": 7651,
        "contract": "contracts/Adam.sol:Adam",
        "label": "__gap",
        "offset": 0,
        "slot": "101",
        "type": "t_array(t_uint256)50_storage"
      },
      {
        "astId": 541,
        "contract": "contracts/Adam.sol:Adam",
        "label": "_owner",
        "offset": 0,
        "slot": "151",
        "type": "t_address"
      },
      {
        "astId": 653,
        "contract": "contracts/Adam.sol:Adam",
        "label": "__gap",
        "offset": 0,
        "slot": "152",
        "type": "t_array(t_uint256)49_storage"
      },
      {
        "astId": 15436,
        "contract": "contracts/Adam.sol:Adam",
        "label": "feedRegistry",
        "offset": 0,
        "slot": "201",
        "type": "t_address"
      },
      {
        "astId": 15438,
        "contract": "contracts/Adam.sol:Adam",
        "label": "daoImplementation",
        "offset": 0,
        "slot": "202",
        "type": "t_address"
      },
      {
        "astId": 15440,
        "contract": "contracts/Adam.sol:Adam",
        "label": "membershipImplementation",
        "offset": 0,
        "slot": "203",
        "type": "t_address"
      },
      {
        "astId": 15442,
        "contract": "contracts/Adam.sol:Adam",
        "label": "liquidPoolImplementation",
        "offset": 0,
        "slot": "204",
        "type": "t_address"
      },
      {
        "astId": 15444,
        "contract": "contracts/Adam.sol:Adam",
        "label": "depositPoolImplementation",
        "offset": 0,
        "slot": "205",
        "type": "t_address"
      },
      {
        "astId": 15446,
        "contract": "contracts/Adam.sol:Adam",
        "label": "optInPoolImplementation",
        "offset": 0,
        "slot": "206",
        "type": "t_address"
      },
      {
        "astId": 15448,
        "contract": "contracts/Adam.sol:Adam",
        "label": "governFactory",
        "offset": 0,
        "slot": "207",
        "type": "t_address"
      },
      {
        "astId": 15450,
        "contract": "contracts/Adam.sol:Adam",
        "label": "team",
        "offset": 0,
        "slot": "208",
        "type": "t_address"
      },
      {
        "astId": 15452,
        "contract": "contracts/Adam.sol:Adam",
        "label": "governImplementation",
        "offset": 0,
        "slot": "209",
        "type": "t_address"
      },
      {
        "astId": 15454,
        "contract": "contracts/Adam.sol:Adam",
        "label": "memberTokenImplementation",
        "offset": 0,
        "slot": "210",
        "type": "t_address"
      },
      {
        "astId": 15458,
        "contract": "contracts/Adam.sol:Adam",
        "label": "budgetApprovals",
        "offset": 0,
        "slot": "211",
        "type": "t_mapping(t_address,t_bool)"
      },
      {
        "astId": 15462,
        "contract": "contracts/Adam.sol:Adam",
        "label": "daos",
        "offset": 0,
        "slot": "212",
        "type": "t_mapping(t_address,t_bool)"
      }
    ],
    "types": {
      "t_address": {
        "encoding": "inplace",
        "label": "address",
        "numberOfBytes": "20"
      },
      "t_array(t_uint256)49_storage": {
        "base": "t_uint256",
        "encoding": "inplace",
        "label": "uint256[49]",
        "numberOfBytes": "1568"
      },
      "t_array(t_uint256)50_storage": {
        "base": "t_uint256",
        "encoding": "inplace",
        "label": "uint256[50]",
        "numberOfBytes": "1600"
      },
      "t_bool": {
        "encoding": "inplace",
        "label": "bool",
        "numberOfBytes": "1"
      },
      "t_mapping(t_address,t_bool)": {
        "encoding": "mapping",
        "key": "t_address",
        "label": "mapping(address => bool)",
        "numberOfBytes": "32",
        "value": "t_bool"
      },
      "t_uint256": {
        "encoding": "inplace",
        "label": "uint256",
        "numberOfBytes": "32"
      }
    }
  }
}