{
  "address": "0x179ca3C4385917e2944c35Db9077b2Cb8e78F7d3",
  "abi": [
    {
      "anonymous": false,
      "inputs": [
        {
          "indexed": false,
          "internalType": "address",
          "name": "previousAdmin",
          "type": "address"
        },
        {
          "indexed": false,
          "internalType": "address",
          "name": "newAdmin",
          "type": "address"
        }
      ],
      "name": "AdminChanged",
      "type": "event"
    },
    {
      "anonymous": false,
      "inputs": [
        {
          "indexed": false,
          "internalType": "address",
          "name": "token",
          "type": "address"
        }
      ],
      "name": "AllowDepositToken",
      "type": "event"
    },
    {
      "anonymous": false,
      "inputs": [
        {
          "indexed": true,
          "internalType": "address",
          "name": "beacon",
          "type": "address"
        }
      ],
      "name": "BeaconUpgraded",
      "type": "event"
    },
    {
      "anonymous": false,
      "inputs": [
        {
          "indexed": false,
          "internalType": "address",
          "name": "budgetApproval",
          "type": "address"
        },
        {
          "indexed": false,
          "internalType": "bytes",
          "name": "data",
          "type": "bytes"
        }
      ],
      "name": "CreateBudgetApproval",
      "type": "event"
    },
    {
      "anonymous": false,
      "inputs": [
        {
          "indexed": false,
          "internalType": "address",
          "name": "creator",
          "type": "address"
        },
        {
          "indexed": false,
          "internalType": "address",
          "name": "token",
          "type": "address"
        }
      ],
      "name": "CreateMemberToken",
      "type": "event"
    },
    {
      "anonymous": false,
      "inputs": [
        {
          "indexed": false,
          "internalType": "address",
          "name": "optInPool",
          "type": "address"
        }
      ],
      "name": "CreateOptInPool",
      "type": "event"
    },
    {
      "anonymous": false,
      "inputs": [
        {
          "indexed": false,
          "internalType": "address",
          "name": "owner",
          "type": "address"
        },
        {
          "indexed": false,
          "internalType": "uint256",
          "name": "time",
          "type": "uint256"
        }
      ],
      "name": "SetFirstDepositTime",
      "type": "event"
    },
    {
      "anonymous": false,
      "inputs": [
        {
          "indexed": true,
          "internalType": "address",
          "name": "implementation",
          "type": "address"
        }
      ],
      "name": "Upgraded",
      "type": "event"
    },
    {
      "anonymous": false,
      "inputs": [
        {
          "indexed": false,
          "internalType": "uint256",
          "name": "tokenId",
          "type": "uint256"
        }
      ],
      "name": "WhitelistTeam",
      "type": "event"
    },
    {
      "inputs": [],
      "name": "adam",
      "outputs": [
        {
          "internalType": "address",
          "name": "",
          "type": "address"
        }
      ],
      "stateMutability": "view",
      "type": "function"
    },
    {
      "inputs": [
        {
          "internalType": "address[]",
          "name": "erc20s",
          "type": "address[]"
        }
      ],
      "name": "addAssets",
      "outputs": [],
      "stateMutability": "nonpayable",
      "type": "function"
    },
    {
      "inputs": [],
      "name": "admissionToken",
      "outputs": [
        {
          "internalType": "address",
          "name": "",
          "type": "address"
        }
      ],
      "stateMutability": "view",
      "type": "function"
    },
    {
      "inputs": [],
      "name": "baseCurrency",
      "outputs": [
        {
          "internalType": "address",
          "name": "",
          "type": "address"
        }
      ],
      "stateMutability": "view",
      "type": "function"
    },
    {
      "inputs": [
        {
          "internalType": "address",
          "name": "",
          "type": "address"
        }
      ],
      "name": "budgetApprovals",
      "outputs": [
        {
          "internalType": "bool",
          "name": "",
          "type": "bool"
        }
      ],
      "stateMutability": "view",
      "type": "function"
    },
    {
      "inputs": [
        {
          "internalType": "address",
          "name": "account",
          "type": "address"
        }
      ],
      "name": "byPassGovern",
      "outputs": [
        {
          "internalType": "bool",
          "name": "",
          "type": "bool"
        }
      ],
      "stateMutability": "view",
      "type": "function"
    },
    {
      "inputs": [
        {
          "internalType": "address",
          "name": "budgetApproval",
          "type": "address"
        }
      ],
      "name": "canCreateBudgetApproval",
      "outputs": [
        {
          "internalType": "bool",
          "name": "",
          "type": "bool"
        }
      ],
      "stateMutability": "view",
      "type": "function"
    },
    {
      "inputs": [
        {
          "internalType": "address[]",
          "name": "_budgetApprovals",
          "type": "address[]"
        },
        {
          "internalType": "bytes[]",
          "name": "data",
          "type": "bytes[]"
        }
      ],
      "name": "createBudgetApprovals",
      "outputs": [],
      "stateMutability": "nonpayable",
      "type": "function"
    },
    {
      "inputs": [
        {
          "internalType": "string",
          "name": "_name",
          "type": "string"
        },
        {
          "internalType": "uint256",
          "name": "duration",
          "type": "uint256"
        },
        {
          "internalType": "uint256",
          "name": "quorum",
          "type": "uint256"
        },
        {
          "internalType": "uint256",
          "name": "passThreshold",
          "type": "uint256"
        },
        {
          "internalType": "uint256[]",
          "name": "voteWeights",
          "type": "uint256[]"
        },
        {
          "internalType": "uint256",
          "name": "voteToken",
          "type": "uint256"
        }
      ],
      "name": "createGovern",
      "outputs": [],
      "stateMutability": "nonpayable",
      "type": "function"
    },
    {
      "inputs": [
        {
          "internalType": "address",
          "name": "_depositToken",
          "type": "address"
        },
        {
          "internalType": "uint256",
          "name": "_depositThreshold",
          "type": "uint256"
        },
        {
          "internalType": "uint256",
          "name": "_depositDeadline",
          "type": "uint256"
        },
        {
          "internalType": "address[]",
          "name": "_redeemTokens",
          "type": "address[]"
        },
        {
          "internalType": "uint256",
          "name": "_redeemTime",
          "type": "uint256"
        },
        {
          "internalType": "address[]",
          "name": "_budgetApprovals",
          "type": "address[]"
        },
        {
          "internalType": "bytes[]",
          "name": "_budgetApprovalsData",
          "type": "bytes[]"
        },
        {
          "internalType": "address",
          "name": "team",
          "type": "address"
        }
      ],
      "name": "createOptInPool",
      "outputs": [],
      "stateMutability": "nonpayable",
      "type": "function"
    },
    {
      "inputs": [
        {
          "internalType": "string",
          "name": "title",
          "type": "string"
        },
        {
          "internalType": "address",
          "name": "minter",
          "type": "address"
        },
        {
          "internalType": "address[]",
          "name": "members",
          "type": "address[]"
        },
        {
          "internalType": "string",
          "name": "description",
          "type": "string"
        }
      ],
      "name": "createTeam",
      "outputs": [],
      "stateMutability": "nonpayable",
      "type": "function"
    },
    {
      "inputs": [],
      "name": "creator",
      "outputs": [
        {
          "internalType": "address",
          "name": "",
          "type": "address"
        }
      ],
      "stateMutability": "view",
      "type": "function"
    },
    {
      "inputs": [],
      "name": "depositPool",
      "outputs": [
        {
          "internalType": "address",
          "name": "",
          "type": "address"
        }
      ],
      "stateMutability": "view",
      "type": "function"
    },
    {
      "inputs": [
        {
          "internalType": "address",
          "name": "_to",
          "type": "address"
        },
        {
          "internalType": "bytes",
          "name": "_data",
          "type": "bytes"
        },
        {
          "internalType": "uint256",
          "name": "_value",
          "type": "uint256"
        }
      ],
      "name": "executeByBudgetApproval",
      "outputs": [
        {
          "internalType": "bytes",
          "name": "",
          "type": "bytes"
        }
      ],
      "stateMutability": "nonpayable",
      "type": "function"
    },
    {
      "inputs": [
        {
          "internalType": "address",
          "name": "",
          "type": "address"
        }
      ],
      "name": "firstDepositTime",
      "outputs": [
        {
          "internalType": "uint256",
          "name": "",
          "type": "uint256"
        }
      ],
      "stateMutability": "view",
      "type": "function"
    },
    {
      "inputs": [
        {
          "internalType": "string",
          "name": "gName",
          "type": "string"
        }
      ],
      "name": "govern",
      "outputs": [
        {
          "internalType": "address",
          "name": "",
          "type": "address"
        }
      ],
      "stateMutability": "view",
      "type": "function"
    },
    {
      "inputs": [],
      "name": "governFactory",
      "outputs": [
        {
          "internalType": "address",
          "name": "",
          "type": "address"
        }
      ],
      "stateMutability": "view",
      "type": "function"
    },
    {
      "inputs": [
        {
          "components": [
            {
              "internalType": "address",
              "name": "_creator",
              "type": "address"
            },
            {
              "internalType": "address",
              "name": "_membership",
              "type": "address"
            },
            {
              "internalType": "address",
              "name": "_liquidPool",
              "type": "address"
            },
            {
              "internalType": "address",
              "name": "_depositPool",
              "type": "address"
            },
            {
              "internalType": "address",
              "name": "_admissionToken",
              "type": "address"
            },
            {
              "internalType": "address",
              "name": "_governFactory",
              "type": "address"
            },
            {
              "internalType": "address",
              "name": "_team",
              "type": "address"
            },
            {
              "internalType": "address",
              "name": "_memberTokenImplementation",
              "type": "address"
            },
            {
              "internalType": "address",
              "name": "_optInPoolImplementation",
              "type": "address"
            },
            {
              "internalType": "string",
              "name": "_name",
              "type": "string"
            },
            {
              "internalType": "string",
              "name": "_description",
              "type": "string"
            },
            {
              "internalType": "uint256",
              "name": "_locktime",
              "type": "uint256"
            },
            {
              "internalType": "uint256[4]",
              "name": "generalGovernSetting",
              "type": "uint256[4]"
            },
            {
              "internalType": "string[]",
              "name": "tokenInfo",
              "type": "string[]"
            },
            {
              "internalType": "uint256",
              "name": "tokenAmount",
              "type": "uint256"
            },
            {
              "components": [
                {
                  "internalType": "uint256",
                  "name": "minDepositAmount",
                  "type": "uint256"
                },
                {
                  "internalType": "uint256",
                  "name": "minTokenToAdmit",
                  "type": "uint256"
                }
              ],
              "internalType": "struct Dao.DaoSetting",
              "name": "daoSetting",
              "type": "tuple"
            },
            {
              "internalType": "address[]",
              "name": "depositTokens",
              "type": "address[]"
            },
            {
              "internalType": "bool",
              "name": "mintMemberToken",
              "type": "bool"
            },
            {
              "internalType": "address",
              "name": "baseCurrency",
              "type": "address"
            },
            {
              "internalType": "string",
              "name": "logoCID",
              "type": "string"
            }
          ],
          "internalType": "struct Dao.InitializeParams",
          "name": "params",
          "type": "tuple"
        }
      ],
      "name": "initialize",
      "outputs": [],
      "stateMutability": "nonpayable",
      "type": "function"
    },
    {
      "inputs": [
        {
          "internalType": "address",
          "name": "",
          "type": "address"
        }
      ],
      "name": "isAssetSupported",
      "outputs": [
        {
          "internalType": "bool",
          "name": "",
          "type": "bool"
        }
      ],
      "stateMutability": "view",
      "type": "function"
    },
    {
      "inputs": [
        {
          "internalType": "address",
          "name": "account",
          "type": "address"
        }
      ],
      "name": "isMember",
      "outputs": [
        {
          "internalType": "bool",
          "name": "",
          "type": "bool"
        }
      ],
      "stateMutability": "view",
      "type": "function"
    },
    {
      "inputs": [
        {
          "internalType": "address",
          "name": "",
          "type": "address"
        }
      ],
      "name": "isOptInPool",
      "outputs": [
        {
          "internalType": "bool",
          "name": "",
          "type": "bool"
        }
      ],
      "stateMutability": "view",
      "type": "function"
    },
    {
      "inputs": [],
      "name": "liquidPool",
      "outputs": [
        {
          "internalType": "address",
          "name": "",
          "type": "address"
        }
      ],
      "stateMutability": "view",
      "type": "function"
    },
    {
      "inputs": [],
      "name": "locktime",
      "outputs": [
        {
          "internalType": "uint256",
          "name": "",
          "type": "uint256"
        }
      ],
      "stateMutability": "view",
      "type": "function"
    },
    {
      "inputs": [],
      "name": "logoCID",
      "outputs": [
        {
          "internalType": "string",
          "name": "",
          "type": "string"
        }
      ],
      "stateMutability": "view",
      "type": "function"
    },
    {
      "inputs": [],
      "name": "memberToken",
      "outputs": [
        {
          "internalType": "address",
          "name": "",
          "type": "address"
        }
      ],
      "stateMutability": "view",
      "type": "function"
    },
    {
      "inputs": [],
      "name": "memberTokenImplementation",
      "outputs": [
        {
          "internalType": "address",
          "name": "",
          "type": "address"
        }
      ],
      "stateMutability": "view",
      "type": "function"
    },
    {
      "inputs": [],
      "name": "membership",
      "outputs": [
        {
          "internalType": "address",
          "name": "",
          "type": "address"
        }
      ],
      "stateMutability": "view",
      "type": "function"
    },
    {
      "inputs": [],
      "name": "minDepositAmount",
      "outputs": [
        {
          "internalType": "uint256",
          "name": "",
          "type": "uint256"
        }
      ],
      "stateMutability": "view",
      "type": "function"
    },
    {
      "inputs": [],
      "name": "minTokenToAdmit",
      "outputs": [
        {
          "internalType": "uint256",
          "name": "",
          "type": "uint256"
        }
      ],
      "stateMutability": "view",
      "type": "function"
    },
    {
      "inputs": [
        {
          "internalType": "address",
          "name": "owner",
          "type": "address"
        }
      ],
      "name": "mintMember",
      "outputs": [],
      "stateMutability": "nonpayable",
      "type": "function"
    },
    {
      "inputs": [
        {
          "internalType": "uint256",
          "name": "amount",
          "type": "uint256"
        }
      ],
      "name": "mintMemberToken",
      "outputs": [],
      "stateMutability": "nonpayable",
      "type": "function"
    },
    {
      "inputs": [],
      "name": "name",
      "outputs": [
        {
          "internalType": "string",
          "name": "",
          "type": "string"
        }
      ],
      "stateMutability": "view",
      "type": "function"
    },
    {
      "inputs": [
        {
          "internalType": "address",
          "name": "",
          "type": "address"
        },
        {
          "internalType": "address",
          "name": "",
          "type": "address"
        },
        {
          "internalType": "uint256[]",
          "name": "",
          "type": "uint256[]"
        },
        {
          "internalType": "uint256[]",
          "name": "",
          "type": "uint256[]"
        },
        {
          "internalType": "bytes",
          "name": "",
          "type": "bytes"
        }
      ],
      "name": "onERC1155BatchReceived",
      "outputs": [
        {
          "internalType": "bytes4",
          "name": "",
          "type": "bytes4"
        }
      ],
      "stateMutability": "nonpayable",
      "type": "function"
    },
    {
      "inputs": [
        {
          "internalType": "address",
          "name": "",
          "type": "address"
        },
        {
          "internalType": "address",
          "name": "",
          "type": "address"
        },
        {
          "internalType": "uint256",
          "name": "",
          "type": "uint256"
        },
        {
          "internalType": "uint256",
          "name": "",
          "type": "uint256"
        },
        {
          "internalType": "bytes",
          "name": "",
          "type": "bytes"
        }
      ],
      "name": "onERC1155Received",
      "outputs": [
        {
          "internalType": "bytes4",
          "name": "",
          "type": "bytes4"
        }
      ],
      "stateMutability": "nonpayable",
      "type": "function"
    },
    {
      "inputs": [
        {
          "internalType": "address",
          "name": "",
          "type": "address"
        },
        {
          "internalType": "address",
          "name": "",
          "type": "address"
        },
        {
          "internalType": "uint256",
          "name": "",
          "type": "uint256"
        },
        {
          "internalType": "bytes",
          "name": "",
          "type": "bytes"
        }
      ],
      "name": "onERC721Received",
      "outputs": [
        {
          "internalType": "bytes4",
          "name": "",
          "type": "bytes4"
        }
      ],
      "stateMutability": "nonpayable",
      "type": "function"
    },
    {
      "inputs": [],
      "name": "optInPoolImplementation",
      "outputs": [
        {
          "internalType": "address",
          "name": "",
          "type": "address"
        }
      ],
      "stateMutability": "view",
      "type": "function"
    },
    {
      "inputs": [],
      "name": "proxiableUUID",
      "outputs": [
        {
          "internalType": "bytes32",
          "name": "",
          "type": "bytes32"
        }
      ],
      "stateMutability": "view",
      "type": "function"
    },
    {
      "inputs": [
        {
          "internalType": "address",
          "name": "owner",
          "type": "address"
        }
      ],
      "name": "setFirstDepositTime",
      "outputs": [],
      "stateMutability": "nonpayable",
      "type": "function"
    },
    {
      "inputs": [
        {
          "internalType": "bytes4",
          "name": "interfaceId",
          "type": "bytes4"
        }
      ],
      "name": "supportsInterface",
      "outputs": [
        {
          "internalType": "bool",
          "name": "",
          "type": "bool"
        }
      ],
      "stateMutability": "view",
      "type": "function"
    },
    {
      "inputs": [],
      "name": "team",
      "outputs": [
        {
          "internalType": "address",
          "name": "",
          "type": "address"
        }
      ],
      "stateMutability": "view",
      "type": "function"
    },
    {
      "inputs": [
        {
          "internalType": "uint256",
          "name": "",
          "type": "uint256"
        }
      ],
      "name": "teamWhitelist",
      "outputs": [
        {
          "internalType": "bool",
          "name": "",
          "type": "bool"
        }
      ],
      "stateMutability": "view",
      "type": "function"
    },
    {
      "inputs": [
        {
          "internalType": "address",
          "name": "to",
          "type": "address"
        },
        {
          "internalType": "uint256",
          "name": "amount",
          "type": "uint256"
        }
      ],
      "name": "transferMemberToken",
      "outputs": [],
      "stateMutability": "nonpayable",
      "type": "function"
    },
    {
      "inputs": [
        {
          "components": [
            {
              "internalType": "uint256",
              "name": "minDepositAmount",
              "type": "uint256"
            },
            {
              "internalType": "uint256",
              "name": "minTokenToAdmit",
              "type": "uint256"
            }
          ],
          "internalType": "struct Dao.DaoSetting",
          "name": "_setting",
          "type": "tuple"
        }
      ],
      "name": "updateDaoSetting",
      "outputs": [],
      "stateMutability": "nonpayable",
      "type": "function"
    },
    {
      "inputs": [
        {
          "internalType": "address",
          "name": "newImplementation",
          "type": "address"
        }
      ],
      "name": "upgradeTo",
      "outputs": [],
      "stateMutability": "nonpayable",
      "type": "function"
    },
    {
      "inputs": [
        {
          "internalType": "address",
          "name": "newImplementation",
          "type": "address"
        },
        {
          "internalType": "bytes",
          "name": "data",
          "type": "bytes"
        }
      ],
      "name": "upgradeToAndCall",
      "outputs": [],
      "stateMutability": "payable",
      "type": "function"
    },
    {
      "stateMutability": "payable",
      "type": "receive"
    }
  ],
  "transactionHash": "0x528829002f73a558f463013142abace63a828d68287a02a1b8cc981cba35009d",
  "args": [],
  "numDeployments": 1,
  "solcInputHash": "da7809b3b714fba03a8268402ac25a3e",
  "bytecode": "0x60a06040523060601b60805234801561001757600080fd5b5060805160601c6143a261005260003960008181610a7701528181610ac301528181610cc001528181610d030152610d9401526143a26000f3fe608060405260043610620002ab5760003560e01c806389409516116200016b578063b6dbbc5611620000d1578063d3abc28b1162000084578063d3abc28b14620008c2578063dab745a514620008e7578063df79812e146200090a578063ec756a2f146200092f578063ed0b66bc1462000948578063f23a6e61146200096d57600080fd5b8063b6dbbc5614620007d9578063bc197c8114620007fe578063c3117695146200082e578063c4cee9ef1462000853578063c69e6c401462000878578063c7151157146200089d57600080fd5b8063a177db13116200012a578063a177db1314620006fa578063a230c524146200071f578063a240663e1462000744578063a2bf68b91462000779578063aea321c6146200079c578063b34bacdd14620007c157600080fd5b80638940951614620006475780638b805e96146200066a5780638e3d5d56146200068f57806392a85fde14620006b25780639935331614620006d557600080fd5b8063464b4158116200021157806361c533b411620001d057806361c533b41462000576578063645006ca146200058f5780636cb7c6f914620005a857806370a6898214620005da578063728a709514620005ff57806385f2aef2146200062457600080fd5b8063464b415814620004bd5780634f1ef28614620004f257806352d1902d146200050957806357338b2214620005305780635cb54384146200055357600080fd5b8063150b7a02116200026a578063150b7a0214620003ad578063293e743814620003f65780632a34370914620004195780632f10e236146200043c5780633659cfe614620004715780633e0f7fde146200049857600080fd5b806301ffc9a714620002b857806302d05d3f14620002f25780630481a63a146200032e57806306fdde03146200036357806311b3ee54146200038a57600080fd5b36620002b357005b600080fd5b348015620002c557600080fd5b50620002dd620002d73660046200331d565b6200099d565b60405190151581526020015b60405180910390f35b348015620002ff57600080fd5b506101305462000315906001600160a01b031681565b6040516001600160a01b039091168152602001620002e9565b3480156200033b57600080fd5b50620002dd6200034d36600462002ea5565b6101416020526000908152604090205460ff1681565b3480156200037057600080fd5b506200037b620009d5565b604051620002e99190620037ee565b3480156200039757600080fd5b506101365462000315906001600160a01b031681565b348015620003ba57600080fd5b50620003dc620003cc36600462002f9a565b630a85bd0160e11b949350505050565b6040516001600160e01b03199091168152602001620002e9565b3480156200040357600080fd5b506101375462000315906001600160a01b031681565b3480156200042657600080fd5b506101345462000315906001600160a01b031681565b3480156200044957600080fd5b50620002dd6200045b366004620035a2565b6101426020526000908152604090205460ff1681565b3480156200047e57600080fd5b50620004966200049036600462002ea5565b62000a6c565b005b348015620004a557600080fd5b5062000496620004b7366004620034b7565b62000b56565b348015620004ca57600080fd5b50620002dd620004dc36600462002ea5565b6101406020526000908152604090205460ff1681565b620004966200050336600462003079565b62000cb5565b3480156200051657600080fd5b506200052162000d87565b604051908152602001620002e9565b3480156200053d57600080fd5b506101335462000315906001600160a01b031681565b3480156200056057600080fd5b5061012f5462000315906001600160a01b031681565b3480156200058357600080fd5b506200052161013a5481565b3480156200059c57600080fd5b506200052161013b5481565b348015620005b557600080fd5b5062000521620005c736600462002ea5565b61013f6020526000908152604090205481565b348015620005e757600080fd5b5062000496620005f936600462003156565b62000e3d565b3480156200060c57600080fd5b50620004966200061e3660046200354f565b62000f76565b3480156200063157600080fd5b5061012d5462000315906001600160a01b031681565b3480156200065457600080fd5b506101355462000315906001600160a01b031681565b3480156200067757600080fd5b506200049662000689366004620035a2565b62000ff8565b3480156200069c57600080fd5b506101315462000315906001600160a01b031681565b348015620006bf57600080fd5b5061013d5462000315906001600160a01b031681565b348015620006e257600080fd5b5062000496620006f436600462003347565b62001074565b3480156200070757600080fd5b50620004966200071936600462002ea5565b62001167565b3480156200072c57600080fd5b50620002dd6200073e36600462002ea5565b62001225565b3480156200075157600080fd5b50620002dd6200076336600462002ea5565b61012e6020526000908152604090205460ff1681565b3480156200078657600080fd5b506101325462000315906001600160a01b031681565b348015620007a957600080fd5b5062000496620007bb36600462003226565b620012a9565b348015620007ce57600080fd5b506200037b6200135d565b348015620007e657600080fd5b50620002dd620007f836600462002ea5565b6200136d565b3480156200080b57600080fd5b50620003dc6200081d36600462002ee3565b63bc197c8160e01b95945050505050565b3480156200083b57600080fd5b50620004966200084d36600462003128565b62001405565b3480156200086057600080fd5b50620004966200087236600462003567565b62001482565b3480156200088557600080fd5b50620003156200089736600462003407565b62001af0565b348015620008aa57600080fd5b5062000496620008bc36600462002ea5565b62001b7a565b348015620008cf57600080fd5b506200037b620008e1366004620030cc565b62001be9565b348015620008f457600080fd5b506101385462000315906001600160a01b031681565b3480156200091757600080fd5b50620004966200092936600462003269565b62001d39565b3480156200093c57600080fd5b506200052161013c5481565b3480156200095557600080fd5b50620002dd6200096736600462002ea5565b62001f48565b3480156200097a57600080fd5b50620003dc6200098c3660046200300b565b63f23a6e6160e01b95945050505050565b60006001600160e01b03198216630271189760e51b1480620009cf57506301ffc9a760e01b6001600160e01b03198316145b92915050565b6101398054620009e59062003ae9565b80601f016020809104026020016040519081016040528092919081815260200182805462000a139062003ae9565b801562000a645780601f1062000a385761010080835404028352916020019162000a64565b820191906000526020600020905b81548152906001019060200180831162000a4657829003601f168201915b505050505081565b306001600160a01b037f000000000000000000000000000000000000000000000000000000000000000016141562000ac15760405162461bcd60e51b815260040162000ab8906200390e565b60405180910390fd5b7f00000000000000000000000000000000000000000000000000000000000000006001600160a01b031662000b0c60008051602062004326833981519152546001600160a01b031690565b6001600160a01b03161462000b355760405162461bcd60e51b815260040162000ab8906200395a565b6040805160008082526020820190925262000b539183919062001f7d565b50565b6040518060400160405280600781526020016611d95b995c985b60ca1b81525062000b81336200136d565b8062000ba8575062000b938162001af0565b6001600160a01b0316336001600160a01b0316145b62000bc75760405162461bcd60e51b815260040162000ab890620038e0565b61012d546040516253153b60e01b81526000916001600160a01b0316906253153b9062000bff90899089908990899060040162003803565b602060405180830381600087803b15801562000c1a57600080fd5b505af115801562000c2f573d6000803e3d6000fd5b505050506040513d601f19601f8201168201806040525081019062000c55919062003304565b6000818152610142602052604090819020805460ff19166001179055519091507ff94f63f5f9de5de7659ae3ccaa099cce39347833cbd85ffe78570b86f4051ab49062000ca59083815260200190565b60405180910390a1505050505050565b306001600160a01b037f000000000000000000000000000000000000000000000000000000000000000016141562000d015760405162461bcd60e51b815260040162000ab8906200390e565b7f00000000000000000000000000000000000000000000000000000000000000006001600160a01b031662000d4c60008051602062004326833981519152546001600160a01b031690565b6001600160a01b03161462000d755760405162461bcd60e51b815260040162000ab8906200395a565b62000d838282600162001f7d565b5050565b6000306001600160a01b037f0000000000000000000000000000000000000000000000000000000000000000161462000e295760405162461bcd60e51b815260206004820152603860248201527f555550535570677261646561626c653a206d757374206e6f742062652063616c60448201527f6c6564207468726f7567682064656c656761746563616c6c0000000000000000606482015260840162000ab8565b506000805160206200432683398151915290565b610138546040516000916001600160a01b03169062000e5c9062002bd3565b6001600160a01b039091168152604060208201819052600090820152606001604051809103906000f08015801562000e98573d6000803e3d6000fd5b5061013454604051638d0950df60e01b81529192506001600160a01b0380841692638d0950df9262000edf9216908d908d908d908d908d908d908d908d90600401620036a8565b600060405180830381600087803b15801562000efa57600080fd5b505af115801562000f0f573d6000803e3d6000fd5b505050506001600160a01b03811660008181526101416020908152604091829020805460ff1916600117905590519182527f287da855a61d2dad1cb7b72481e2c1ad5b8f35aa002af7d1ee9b51b43f52e6ff910160405180910390a1505050505050505050565b6040518060400160405280600781526020016611d95b995c985b60ca1b81525062000fa1336200136d565b8062000fc8575062000fb38162001af0565b6001600160a01b0316336001600160a01b0316145b62000fe75760405162461bcd60e51b815260040162000ab890620038e0565b50803561013b556020013561013c55565b6040518060400160405280600781526020016611d95b995c985b60ca1b81525062001023336200136d565b806200104a5750620010358162001af0565b6001600160a01b0316336001600160a01b0316145b620010695760405162461bcd60e51b815260040162000ab890620038e0565b62000d838262002105565b6040518060400160405280600681526020016523b7bb32b93760d11b8152506200109e336200136d565b80620010c55750620010b08162001af0565b6001600160a01b0316336001600160a01b0316145b620010e45760405162461bcd60e51b815260040162000ab890620038e0565b6200115c89898080601f01602080910402602001604051908101604052809392919081815260200183838082843760009201919091525050604080516020808a0282810182019093528982528d94508c93508b928b918b9182918501908490808284376000920191909152508a925062002170915050565b505050505050505050565b610133546001600160a01b03163314806200118d5750610134546001600160a01b031633145b620011cb5760405162461bcd60e51b815260206004820152600d60248201526c06f6e6c79204c50206f7220445609c1b604482015260640162000ab8565b6001600160a01b038116600081815261013f602090815260409182902042908190558251938452908301527f7ac58570d3e556be8ffd5d5bda8bc949958077c3aa21c4b5fa11b63ed12dafa791015b60405180910390a150565b6101325460405163288c314960e21b81526001600160a01b038381166004830152600092169063a230c524906024015b60206040518083038186803b1580156200126e57600080fd5b505afa15801562001283573d6000803e3d6000fd5b505050506040513d601f19601f82011682018060405250810190620009cf9190620032e5565b6040518060400160405280600781526020016611d95b995c985b60ca1b815250620012d4336200136d565b80620012fb5750620012e68162001af0565b6001600160a01b0316336001600160a01b0316145b6200131a5760405162461bcd60e51b815260040162000ab890620038e0565b620013588383808060200260200160405190810160405280939291908181526020018383602002808284376000920191909152506200221892505050565b505050565b61013e8054620009e59062003ae9565b61013254604080516318160ddd60e01b815290516000926001600160a01b0316916318160ddd916004808301926020929190829003018186803b158015620013b457600080fd5b505afa158015620013c9573d6000803e3d6000fd5b505050506040513d601f19601f82011682018060405250810190620013ef919062003304565b6001148015620009cf5750620009cf8262001225565b6040518060400160405280600781526020016611d95b995c985b60ca1b81525062001430336200136d565b80620014575750620014428162001af0565b6001600160a01b0316336001600160a01b0316145b620014765760405162461bcd60e51b815260040162000ab890620038e0565b6200135883836200226d565b600054610100900460ff166200149f5760005460ff1615620014a3565b303b155b620015085760405162461bcd60e51b815260206004820152602e60248201527f496e697469616c697a61626c653a20636f6e747261637420697320616c72656160448201526d191e481a5b9a5d1a585b1a5e995960921b606482015260840162000ab8565b600054610100900460ff161580156200152b576000805461ffff19166101011790555b61013180546001600160a01b031916331790556200154d602083018362002ea5565b61013080546001600160a01b0319166001600160a01b039290921691909117905562001580604083016020840162002ea5565b61013280546001600160a01b0319166001600160a01b0392909216919091179055620015b3606083016040840162002ea5565b61013380546001600160a01b0319166001600160a01b0392909216919091179055620015e6608083016060840162002ea5565b61013480546001600160a01b0319166001600160a01b039290921691909117905562001617610120830183620039f0565b62001626916101399162002be1565b5061016082013561013a556200164360c0830160a0840162002ea5565b61013580546001600160a01b0319166001600160a01b03929092169190911790556200167660e0830160c0840162002ea5565b61012d80546001600160a01b0319166001600160a01b0392909216919091179055620016aa610100830160e0840162002ea5565b61013780546001600160a01b0319166001600160a01b0392909216919091179055620016df6101208301610100840162002ea5565b61013880546001600160a01b0319166001600160a01b039290921691909117905561024082013561013b5561026082013561013c55620017286102e083016102c0840162002ea5565b61013d80546001600160a01b0319166001600160a01b0392909216919091179055620017596102e0830183620039f0565b620017689161013e9162002be1565b506200177d6102c083016102a08401620032c6565b15620017a357620017a362001797610200840184620039a6565b846102200135620022f8565b6000620017b760a084016080850162002ea5565b6001600160a01b03161415620017f15761012f5461013680546001600160a01b0319166001600160a01b03909216919091179055620019bb565b620018166200180760a084016080850162002ea5565b6001600160a01b03163b151590565b620018645760405162461bcd60e51b815260206004820152601c60248201527f41646d697373696f6e20546f6b656e206e6f7420537570706f72742100000000604482015260640162000ab8565b60408051336024808301919091528251808303909101815260449091019091526020810180516001600160e01b03166370a0823160e01b1790527f70a08231b98ef4ca268c9cc3f6b4590e4bfec28280db06bb5d45e689f2a360be906000620018d460a086016080870162002ea5565b6001600160a01b031682604051620018ed919062003657565b6000604051808303816000865af19150503d80600081146200192c576040519150601f19603f3d011682016040523d82523d6000602084013e62001931565b606091505b5050905080620019845760405162461bcd60e51b815260206004820152601c60248201527f41646d697373696f6e20546f6b656e206e6f7420537570706f72742100000000604482015260640162000ab8565b6200199660a086016080870162002ea5565b61013680546001600160a01b0319166001600160a01b03929092169190911790555050505b6040805160018082528183019092526000916020808301908036833701905050905060018160008151811062001a0157634e487b7160e01b600052603260045260246000fd5b60200260200101818152505062001a756040518060400160405280600781526020016611d95b995c985b60ca1b815250846101800160006004811062001a5757634e487b7160e01b600052603260045260246000fd5b60200201356101a08601356101c0870135856101e089013562002170565b6101305462001a8d906001600160a01b03166200256b565b62001ad962001aa1610280850185620039a6565b808060200260200160405190810160405280939291908181526020018383602002808284376000920191909152506200221892505050565b50801562000d83576000805461ff00191690555050565b6101355460405163385f5d8f60e11b81526000916001600160a01b0316906370bebb1e9062001b26903090869060040162003780565b60206040518083038186803b15801562001b3f57600080fd5b505afa15801562001b54573d6000803e3d6000fd5b505050506040513d601f19601f82011682018060405250810190620009cf919062002ec4565b610133546001600160a01b031633148062001ba05750610134546001600160a01b031633145b62001bde5760405162461bcd60e51b815260206004820152600d60248201526c06f6e6c79204c50206f7220445609c1b604482015260640162000ab8565b62000b53816200256b565b33600090815261012e602052604090205460609060ff1662001c5c5760405162461bcd60e51b815260206004820152602560248201527f427564676574417070726f76616c45786563757465653a206163636573732064604482015264195b9a595960da1b606482015260840162000ab8565b600080856001600160a01b0316848660405162001c7a919062003657565b60006040518083038185875af1925050503d806000811462001cb9576040519150601f19603f3d011682016040523d82523d6000602084013e62001cbe565b606091505b50915091508162001d2e5762001d1362001cd8826200259f565b60408051808201909152601d81527f52657665727465642062792065787465726e616c20636f6e7472616374000000602082015290620025fc565b60405162461bcd60e51b815260040162000ab89190620037ee565b9150505b9392505050565b805182511462001d815760405162461bcd60e51b8152602060048201526012602482015271496e636f72726563742043616c6c6461746160701b604482015260640162000ab8565b60005b8251811015620013585762001dc183828151811062001db357634e487b7160e01b600052603260045260246000fd5b60200260200101516200262a565b600083828151811062001de457634e487b7160e01b600052603260045260246000fd5b602002602001015183838151811062001e0d57634e487b7160e01b600052603260045260246000fd5b602002602001015160405162001e239062002bd3565b62001e3092919062003780565b604051809103906000f08015801562001e4d573d6000803e3d6000fd5b506001600160a01b038116600090815261012e60205260409020805460ff1916600117905583519091507f26c79e13dd63e8716f130c25331c09f2fdd55d6880bbfa7bcc38868207e8a67090829085908590811062001ebc57634e487b7160e01b600052603260045260246000fd5b602002602001015160405162001ed492919062003780565b60405180910390a1806001600160a01b031663cf26fec66040518163ffffffff1660e01b8152600401600060405180830381600087803b15801562001f1857600080fd5b505af115801562001f2d573d6000803e3d6000fd5b5050505050808062001f3f9062003b20565b91505062001d84565b61013154604051635120331f60e11b81526001600160a01b038381166004830152600092169063a240663e9060240162001255565b7f4910fdfa16fed3260ed0e7147f7cc6da11a60208b5b9406d12a635614ffd91435460ff161562001fb357620013588362002702565b826001600160a01b03166352d1902d6040518163ffffffff1660e01b815260040160206040518083038186803b15801562001fed57600080fd5b505afa92505050801562002020575060408051601f3d908101601f191682019092526200201d9181019062003304565b60015b620020855760405162461bcd60e51b815260206004820152602e60248201527f45524331393637557067726164653a206e657720696d706c656d656e7461746960448201526d6f6e206973206e6f74205555505360901b606482015260840162000ab8565b600080516020620043268339815191528114620020f75760405162461bcd60e51b815260206004820152602960248201527f45524331393637557067726164653a20756e737570706f727465642070726f786044820152681a58589b195555525160ba1b606482015260840162000ab8565b5062001358838383620027a1565b61012f546040516340c10f1960e01b8152306004820152602481018390526001600160a01b03909116906340c10f19906044015b600060405180830381600087803b1580156200215457600080fd5b505af115801562002169573d6000803e3d6000fd5b5050505050565b60006200219d8260028111156200219757634e487b7160e01b600052602160045260246000fd5b620027d2565b6101355460405163c7934a2360e01b81529192506001600160a01b03169063c7934a2390620021db908a908a908a908a908a9089906004016200385c565b600060405180830381600087803b158015620021f657600080fd5b505af11580156200220b573d6000803e3d6000fd5b5050505050505050505050565b60005b815181101562000d8357620022588282815181106200224a57634e487b7160e01b600052603260045260246000fd5b602002602001015162002a00565b80620022648162003b20565b9150506200221b565b61012f5460405163a9059cbb60e01b81526001600160a01b038481166004830152602482018490529091169063a9059cbb90604401602060405180830381600087803b158015620022bd57600080fd5b505af1158015620022d2573d6000803e3d6000fd5b505050506040513d601f19601f82011682018060405250810190620013589190620032e5565b61012f546001600160a01b031615620023545760405162461bcd60e51b815260206004820181905260248201527f4d656d62657220746f6b656e20616c726561647920696e697469616c697a6564604482015260640162000ab8565b60028214620023b75760405162461bcd60e51b815260206004820152602860248201527f496e73756666696369656e7420696e666f20746f20637265617465206d656d6260448201526732b9103a37b5b2b760c11b606482015260840162000ab8565b610137546040516000916001600160a01b031690620023d69062002bd3565b6001600160a01b039091168152604060208201819052600090820152606001604051809103906000f08015801562002412573d6000803e3d6000fd5b5061012f80546001600160a01b0319166001600160a01b03831690811790915590915063906571473086866000816200245b57634e487b7160e01b600052603260045260246000fd5b90506020028101906200246f9190620039f0565b888860018181106200249157634e487b7160e01b600052603260045260246000fd5b9050602002810190620024a59190620039f0565b6040518663ffffffff1660e01b8152600401620024c7959493929190620037a6565b600060405180830381600087803b158015620024e257600080fd5b505af1158015620024f7573d6000803e3d6000fd5b505061012f546200251492506001600160a01b0316905062002a00565b6200251f8262002105565b61012f54604080513381526001600160a01b0390921660208301527f51872b89ca0a4559a29252fabe8e58a51d77923ec1fdb596822e56c918df96eb910160405180910390a150505050565b61013254604051632124d52960e01b81526001600160a01b03838116600483015290911690632124d5299060240162002139565b6060604482511015620025c057505060408051602081019091526000815290565b600482019150620009cf82806020019051810190620025e0919062003445565b60408051808201909152600381526201016960ed1b6020820152905b606082826040516020016200261392919062003675565b604051602081830303815290604052905092915050565b6040518060400160405280600781526020016611d95b995c985b60ca1b81525062002655336200136d565b806200267c5750620026678162001af0565b6001600160a01b0316336001600160a01b0316145b6200269b5760405162461bcd60e51b815260040162000ab890620038e0565b620026a68262001f48565b62000d835760405162461bcd60e51b815260206004820152602560248201527f42756467657420496d706c656d656e746174696f6e206e6f742077686974656c6044820152641a5cdd195960da1b606482015260840162000ab8565b6001600160a01b0381163b620027715760405162461bcd60e51b815260206004820152602d60248201527f455243313936373a206e657720696d706c656d656e746174696f6e206973206e60448201526c1bdd08184818dbdb9d1c9858dd609a1b606482015260840162000ab8565b6000805160206200432683398151915280546001600160a01b0319166001600160a01b0392909216919091179055565b620027ac8362002a56565b600082511180620027ba5750805b156200135857620027cc838362002a98565b50505050565b6060816002811115620027f557634e487b7160e01b600052602160045260246000fd5b620028c557610132546001600160a01b0316620028555760405162461bcd60e51b815260206004820152601e60248201527f4d656d62657273686970206e6f742079657420696e697469616c697a65640000604482015260640162000ab8565b6040805160018082528183019092526000916020808301908036833750506101325482519293506001600160a01b031691839150600090620028a757634e487b7160e01b600052603260045260246000fd5b6001600160a01b039092166020928302919091019091015292915050565b816002811115620028e657634e487b7160e01b600052602160045260246000fd5b600114156200299c5761012f546001600160a01b03166200294a5760405162461bcd60e51b815260206004820152601f60248201527f4d656d626572546f6b656e206e6f742079657420696e697469616c697a656400604482015260640162000ab8565b60408051600180825281830190925260009160208083019080368337505061012f5482519293506001600160a01b031691839150600090620028a757634e487b7160e01b600052603260045260246000fd5b816002811115620029bd57634e487b7160e01b600052602160045260246000fd5b5060405162461bcd60e51b8152602060048201526016602482015275556e737570706f7274656420546f6b656e207479706560501b604482015260640162000ab8565b6001600160a01b03811660008181526101406020908152604091829020805460ff1916600117905590519182527f808665eda000f8d729f31a384bae411282aa3be62cb73ed74e2225e2eef7125d91016200121a565b62002a618162002702565b6040516001600160a01b038216907fbc7cd75a20ee27fd9adebab32041f755214dbc6bffa90cc0225b39da2e5c2d3b90600090a250565b60606001600160a01b0383163b62002b025760405162461bcd60e51b815260206004820152602660248201527f416464726573733a2064656c65676174652063616c6c20746f206e6f6e2d636f6044820152651b9d1c9858dd60d21b606482015260840162000ab8565b600080846001600160a01b03168460405162002b1f919062003657565b600060405180830381855af49150503d806000811462002b5c576040519150601f19603f3d011682016040523d82523d6000602084013e62002b61565b606091505b509150915062002b8c8282604051806060016040528060278152602001620043466027913962002b95565b95945050505050565b6060831562002ba657508162001d32565b82511562002bb75782518084602001fd5b8160405162461bcd60e51b815260040162000ab89190620037ee565b6107a28062003b8483390190565b82805462002bef9062003ae9565b90600052602060002090601f01602090048101928262002c13576000855562002c5e565b82601f1062002c2e5782800160ff1982351617855562002c5e565b8280016001018555821562002c5e579182015b8281111562002c5e57823582559160200191906001019062002c41565b5062002c6c92915062002c70565b5090565b5b8082111562002c6c576000815560010162002c71565b803562002c948162003b5e565b919050565b60008083601f84011262002cab578182fd5b5081356001600160401b0381111562002cc2578182fd5b6020830191508360208260051b850101111562002cde57600080fd5b9250929050565b600082601f83011262002cf6578081fd5b8135602062002d0f62002d098362003a6a565b62003a37565b80838252828201915082860187848660051b890101111562002d2f578586fd5b855b8581101562002d5a57813562002d478162003b5e565b8452928401929084019060010162002d31565b5090979650505050505050565b600082601f83011262002d78578081fd5b8135602062002d8b62002d098362003a6a565b80838252828201915082860187848660051b890101111562002dab578586fd5b855b8581101562002d5a5781356001600160401b0381111562002dcc578788fd5b62002ddc8a87838c010162002e54565b855250928401929084019060010162002dad565b600082601f83011262002e01578081fd5b8135602062002e1462002d098362003a6a565b80838252828201915082860187848660051b890101111562002e34578586fd5b855b8581101562002d5a5781358452928401929084019060010162002e36565b600082601f83011262002e65578081fd5b813562002e7662002d098262003a90565b81815284602083860101111562002e8b578283fd5b816020850160208301379081016020019190915292915050565b60006020828403121562002eb7578081fd5b813562001d328162003b5e565b60006020828403121562002ed6578081fd5b815162001d328162003b5e565b600080600080600060a0868803121562002efb578081fd5b853562002f088162003b5e565b9450602086013562002f1a8162003b5e565b935060408601356001600160401b038082111562002f36578283fd5b62002f4489838a0162002df0565b9450606088013591508082111562002f5a578283fd5b62002f6889838a0162002df0565b9350608088013591508082111562002f7e578283fd5b5062002f8d8882890162002e54565b9150509295509295909350565b6000806000806080858703121562002fb0578182fd5b843562002fbd8162003b5e565b9350602085013562002fcf8162003b5e565b92506040850135915060608501356001600160401b0381111562002ff1578182fd5b62002fff8782880162002e54565b91505092959194509250565b600080600080600060a0868803121562003023578283fd5b8535620030308162003b5e565b94506020860135620030428162003b5e565b9350604086013592506060860135915060808601356001600160401b038111156200306b578182fd5b62002f8d8882890162002e54565b600080604083850312156200308c578182fd5b8235620030998162003b5e565b915060208301356001600160401b03811115620030b4578182fd5b620030c28582860162002e54565b9150509250929050565b600080600060608486031215620030e1578081fd5b8335620030ee8162003b5e565b925060208401356001600160401b0381111562003109578182fd5b620031178682870162002e54565b925050604084013590509250925092565b600080604083850312156200313b578182fd5b8235620031488162003b5e565b946020939093013593505050565b600080600080600080600080610100898b03121562003173578586fd5b6200317e8962002c87565b9750602089013596506040890135955060608901356001600160401b0380821115620031a8578485fd5b620031b68c838d0162002ce5565b965060808b0135955060a08b0135915080821115620031d3578485fd5b620031e18c838d0162002ce5565b945060c08b0135915080821115620031f7578384fd5b50620032068b828c0162002d67565b9250506200321760e08a0162002c87565b90509295985092959890939650565b6000806020838503121562003239578182fd5b82356001600160401b038111156200324f578283fd5b6200325d8582860162002c99565b90969095509350505050565b600080604083850312156200327c578182fd5b82356001600160401b038082111562003293578384fd5b620032a18683870162002ce5565b93506020850135915080821115620032b7578283fd5b50620030c28582860162002d67565b600060208284031215620032d8578081fd5b813562001d328162003b74565b600060208284031215620032f7578081fd5b815162001d328162003b74565b60006020828403121562003316578081fd5b5051919050565b6000602082840312156200332f578081fd5b81356001600160e01b03198116811462001d32578182fd5b60008060008060008060008060c0898b03121562003363578182fd5b88356001600160401b03808211156200337a578384fd5b818b0191508b601f8301126200338e578384fd5b8135818111156200339d578485fd5b8c6020828501011115620033af578485fd5b60209283019a509850908a0135965060408a0135955060608a0135945060808a01359080821115620033df578384fd5b50620033ee8b828c0162002c99565b999c989b50969995989497949560a00135949350505050565b60006020828403121562003419578081fd5b81356001600160401b038111156200342f578182fd5b6200343d8482850162002e54565b949350505050565b60006020828403121562003457578081fd5b81516001600160401b038111156200346d578182fd5b8201601f810184136200347e578182fd5b80516200348f62002d098262003a90565b818152856020838501011115620034a4578384fd5b62002b8c82602083016020860162003aba565b60008060008060808587031215620034cd578182fd5b84356001600160401b0380821115620034e4578384fd5b620034f28883890162002e54565b955060208701359150620035068262003b5e565b909350604086013590808211156200351c578384fd5b6200352a8883890162002ce5565b9350606087013591508082111562003540578283fd5b5062002fff8782880162002e54565b60006040828403121562003561578081fd5b50919050565b60006020828403121562003579578081fd5b81356001600160401b038111156200358f578182fd5b8201610300818503121562001d32578182fd5b600060208284031215620035b4578081fd5b5035919050565b6000815180845260208085019450808401835b83811015620035f55781516001600160a01b031687529582019590820190600101620035ce565b509495945050505050565b600081518084526200361a81602086016020860162003aba565b601f01601f19169290920160200192915050565b81835281816020850137506000828201602090810191909152601f909101601f19169091010190565b600082516200366b81846020870162003aba565b9190910192915050565b600083516200368981846020880162003aba565b8351908301906200369f81836020880162003aba565b01949350505050565b600061012060018060a01b03808d1684526020818d16818601528b60408601528a6060860152826080860152620036e28386018b620035bb565b92508860a086015284830360c0860152620036fe8389620035bb565b85810360e087015287518082529093508184019250600581901b84018201828901865b838110156200375357601f198784030186526200374083835162003600565b9585019592509084019060010162003721565b50506001600160a01b0388166101008801529450620037729350505050565b9a9950505050505050505050565b6001600160a01b03831681526040602082018190526000906200343d9083018462003600565b6001600160a01b0386168152606060208201819052600090620037cd90830186886200362e565b8281036040840152620037e28185876200362e565b98975050505050505050565b60208152600062001d32602083018462003600565b60808152600062003818608083018762003600565b6001600160a01b038616602084015282810360408401526200383b8186620035bb565b9050828103606084015262003851818562003600565b979650505050505050565b60c0815260006200387160c083018962003600565b602083810189905260408401889052606084018790528382036080850152855180835286820192820190845b81811015620038bb578451835293830193918301916001016200389d565b505084810360a0860152620038d18187620035bb565b9b9a5050505050505050505050565b6020808252601490820152731058dd1a5bdb881b9bdd081c195c9b5a5d1d195960621b604082015260600190565b6020808252602c908201527f46756e6374696f6e206d7573742062652063616c6c6564207468726f7567682060408201526b19195b1959d85d1958d85b1b60a21b606082015260800190565b6020808252602c908201527f46756e6374696f6e206d7573742062652063616c6c6564207468726f7567682060408201526b6163746976652070726f787960a01b606082015260800190565b6000808335601e19843603018112620039bd578283fd5b8301803591506001600160401b03821115620039d7578283fd5b6020019150600581901b360382131562002cde57600080fd5b6000808335601e1984360301811262003a07578283fd5b8301803591506001600160401b0382111562003a21578283fd5b60200191503681900382131562002cde57600080fd5b604051601f8201601f191681016001600160401b038111828210171562003a625762003a6262003b48565b604052919050565b60006001600160401b0382111562003a865762003a8662003b48565b5060051b60200190565b60006001600160401b0382111562003aac5762003aac62003b48565b50601f01601f191660200190565b60005b8381101562003ad757818101518382015260200162003abd565b83811115620027cc5750506000910152565b600181811c9082168062003afe57607f821691505b602082108114156200356157634e487b7160e01b600052602260045260246000fd5b600060001982141562003b4157634e487b7160e01b81526011600452602481fd5b5060010190565b634e487b7160e01b600052604160045260246000fd5b6001600160a01b038116811462000b5357600080fd5b801515811462000b5357600080fdfe60806040526040516107a23803806107a283398101604081905261002291610315565b61004d60017f360894a13ba1a3210667c828492db98dca3e2076cc3735a920a3ca505d382bbd61042d565b60008051602061075b8339815191521461007757634e487b7160e01b600052600160045260246000fd5b6100838282600061008a565b5050610492565b610093836100c0565b6000825111806100a05750805b156100bb576100b9838361010060201b6100291760201c565b505b505050565b6100c98161012c565b6040516001600160a01b038216907fbc7cd75a20ee27fd9adebab32041f755214dbc6bffa90cc0225b39da2e5c2d3b90600090a250565b6060610125838360405180606001604052806027815260200161077b602791396101ec565b9392505050565b61013f816102ca60201b6100551760201c565b6101a65760405162461bcd60e51b815260206004820152602d60248201527f455243313936373a206e657720696d706c656d656e746174696f6e206973206e60448201526c1bdd08184818dbdb9d1c9858dd609a1b60648201526084015b60405180910390fd5b806101cb60008051602061075b83398151915260001b6102d960201b6100641760201c565b80546001600160a01b0319166001600160a01b039290921691909117905550565b60606001600160a01b0384163b6102545760405162461bcd60e51b815260206004820152602660248201527f416464726573733a2064656c65676174652063616c6c20746f206e6f6e2d636f6044820152651b9d1c9858dd60d21b606482015260840161019d565b600080856001600160a01b03168560405161026f91906103de565b600060405180830381855af49150503d80600081146102aa576040519150601f19603f3d011682016040523d82523d6000602084013e6102af565b606091505b5090925090506102c08282866102dc565b9695505050505050565b6001600160a01b03163b151590565b90565b606083156102eb575081610125565b8251156102fb5782518084602001fd5b8160405162461bcd60e51b815260040161019d91906103fa565b60008060408385031215610327578182fd5b82516001600160a01b038116811461033d578283fd5b60208401519092506001600160401b0380821115610359578283fd5b818501915085601f83011261036c578283fd5b81518181111561037e5761037e61047c565b604051601f8201601f19908116603f011681019083821181831017156103a6576103a661047c565b816040528281528860208487010111156103be578586fd5b6103cf836020830160208801610450565b80955050505050509250929050565b600082516103f0818460208701610450565b9190910192915050565b6020815260008251806020840152610419816040850160208701610450565b601f01601f19169190910160400192915050565b60008282101561044b57634e487b7160e01b81526011600452602481fd5b500390565b60005b8381101561046b578181015183820152602001610453565b838111156100b95750506000910152565b634e487b7160e01b600052604160045260246000fd5b6102ba806104a16000396000f3fe60806040523661001357610011610017565b005b6100115b610027610022610067565b61009f565b565b606061004e838360405180606001604052806027815260200161025e602791396100c3565b9392505050565b6001600160a01b03163b151590565b90565b600061009a7f360894a13ba1a3210667c828492db98dca3e2076cc3735a920a3ca505d382bbc546001600160a01b031690565b905090565b3660008037600080366000845af43d6000803e8080156100be573d6000f35b3d6000fd5b60606001600160a01b0384163b6101305760405162461bcd60e51b815260206004820152602660248201527f416464726573733a2064656c65676174652063616c6c20746f206e6f6e2d636f6044820152651b9d1c9858dd60d21b60648201526084015b60405180910390fd5b600080856001600160a01b03168560405161014b91906101de565b600060405180830381855af49150503d8060008114610186576040519150601f19603f3d011682016040523d82523d6000602084013e61018b565b606091505b509150915061019b8282866101a5565b9695505050505050565b606083156101b457508161004e565b8251156101c45782518084602001fd5b8160405162461bcd60e51b815260040161012791906101fa565b600082516101f081846020870161022d565b9190910192915050565b602081526000825180602084015261021981604085016020870161022d565b601f01601f19169190910160400192915050565b60005b83811015610248578181015183820152602001610230565b83811115610257576000848401525b5050505056fe416464726573733a206c6f772d6c6576656c2064656c65676174652063616c6c206661696c6564a2646970667358221220f8739cd7f4c1a028f8618c6d23878548f4c2e3037f64390b7cb441fc411d4ec364736f6c63430008040033360894a13ba1a3210667c828492db98dca3e2076cc3735a920a3ca505d382bbc416464726573733a206c6f772d6c6576656c2064656c65676174652063616c6c206661696c6564360894a13ba1a3210667c828492db98dca3e2076cc3735a920a3ca505d382bbc416464726573733a206c6f772d6c6576656c2064656c65676174652063616c6c206661696c6564a26469706673582212205c218cdf310cb1003c934fb33bc5bb716ddf4b78e6d6c446cadc75a1e6fe3aa564736f6c63430008040033",
  "devdoc": {
    "kind": "dev",
    "methods": {
      "onERC721Received(address,address,uint256,bytes)": {
        "details": "See {IERC721Receiver-onERC721Received}. Always returns `IERC721Receiver.onERC721Received.selector`."
      },
      "proxiableUUID()": {
        "details": "Implementation of the ERC1822 {proxiableUUID} function. This returns the storage slot used by the implementation. It is used to validate that the this implementation remains valid after an upgrade. IMPORTANT: A proxy pointing at a proxiable contract should not be considered proxiable itself, because this risks bricking a proxy that upgrades to it, by delegating to itself until out of gas. Thus it is critical that this function revert if invoked through a proxy. This is guaranteed by the `notDelegated` modifier."
      },
      "supportsInterface(bytes4)": {
        "details": "See {IERC165-supportsInterface}."
      },
      "upgradeTo(address)": {
        "details": "Upgrade the implementation of the proxy to `newImplementation`. Calls {_authorizeUpgrade}. Emits an {Upgraded} event."
      },
      "upgradeToAndCall(address,bytes)": {
        "details": "Upgrade the implementation of the proxy to `newImplementation`, and subsequently execute the function call encoded in `data`. Calls {_authorizeUpgrade}. Emits an {Upgraded} event."
      }
    },
    "version": 1
  },
  "userdoc": {
    "kind": "user",
    "methods": {},
    "version": 1
  },
  "storageLayout": {
    "storage": [
      {
        "astId": 2736,
        "contract": "contracts/Dao.sol:Dao",
        "label": "_initialized",
        "offset": 0,
        "slot": "0",
        "type": "t_bool"
      },
      {
        "astId": 2739,
        "contract": "contracts/Dao.sol:Dao",
        "label": "_initializing",
        "offset": 1,
        "slot": "0",
        "type": "t_bool"
      },
      {
        "astId": 2718,
        "contract": "contracts/Dao.sol:Dao",
        "label": "__gap",
        "offset": 0,
        "slot": "1",
        "type": "t_array(t_uint256)50_storage"
      },
      {
        "astId": 2938,
        "contract": "contracts/Dao.sol:Dao",
        "label": "__gap",
        "offset": 0,
        "slot": "51",
        "type": "t_array(t_uint256)50_storage"
      },
      {
        "astId": 7132,
        "contract": "contracts/Dao.sol:Dao",
        "label": "__gap",
        "offset": 0,
        "slot": "101",
        "type": "t_array(t_uint256)50_storage"
      },
      {
        "astId": 8803,
        "contract": "contracts/Dao.sol:Dao",
        "label": "__gap",
        "offset": 0,
        "slot": "151",
        "type": "t_array(t_uint256)50_storage"
      },
      {
        "astId": 4359,
        "contract": "contracts/Dao.sol:Dao",
        "label": "__gap",
        "offset": 0,
        "slot": "201",
        "type": "t_array(t_uint256)50_storage"
      },
      {
        "astId": 4305,
        "contract": "contracts/Dao.sol:Dao",
        "label": "__gap",
        "offset": 0,
        "slot": "251",
        "type": "t_array(t_uint256)50_storage"
      },
      {
        "astId": 22099,
        "contract": "contracts/Dao.sol:Dao",
        "label": "team",
        "offset": 0,
        "slot": "301",
        "type": "t_address"
      },
      {
        "astId": 22103,
        "contract": "contracts/Dao.sol:Dao",
        "label": "budgetApprovals",
        "offset": 0,
        "slot": "302",
        "type": "t_mapping(t_address,t_bool)"
      },
      {
        "astId": 15941,
        "contract": "contracts/Dao.sol:Dao",
        "label": "memberToken",
        "offset": 0,
        "slot": "303",
        "type": "t_address"
      },
      {
        "astId": 15943,
        "contract": "contracts/Dao.sol:Dao",
        "label": "creator",
        "offset": 0,
        "slot": "304",
        "type": "t_address"
      },
      {
        "astId": 15945,
        "contract": "contracts/Dao.sol:Dao",
        "label": "adam",
        "offset": 0,
        "slot": "305",
        "type": "t_address"
      },
      {
        "astId": 15947,
        "contract": "contracts/Dao.sol:Dao",
        "label": "membership",
        "offset": 0,
        "slot": "306",
        "type": "t_address"
      },
      {
        "astId": 15949,
        "contract": "contracts/Dao.sol:Dao",
        "label": "liquidPool",
        "offset": 0,
        "slot": "307",
        "type": "t_address"
      },
      {
        "astId": 15951,
        "contract": "contracts/Dao.sol:Dao",
        "label": "depositPool",
        "offset": 0,
        "slot": "308",
        "type": "t_address"
      },
      {
        "astId": 15953,
        "contract": "contracts/Dao.sol:Dao",
        "label": "governFactory",
        "offset": 0,
        "slot": "309",
        "type": "t_address"
      },
      {
        "astId": 15955,
        "contract": "contracts/Dao.sol:Dao",
        "label": "admissionToken",
        "offset": 0,
        "slot": "310",
        "type": "t_address"
      },
      {
        "astId": 15957,
        "contract": "contracts/Dao.sol:Dao",
        "label": "memberTokenImplementation",
        "offset": 0,
        "slot": "311",
        "type": "t_address"
      },
      {
        "astId": 15959,
        "contract": "contracts/Dao.sol:Dao",
        "label": "optInPoolImplementation",
        "offset": 0,
        "slot": "312",
        "type": "t_address"
      },
      {
        "astId": 15961,
        "contract": "contracts/Dao.sol:Dao",
        "label": "name",
        "offset": 0,
        "slot": "313",
        "type": "t_string_storage"
      },
      {
        "astId": 15963,
        "contract": "contracts/Dao.sol:Dao",
        "label": "locktime",
        "offset": 0,
        "slot": "314",
        "type": "t_uint256"
      },
      {
        "astId": 15965,
        "contract": "contracts/Dao.sol:Dao",
        "label": "minDepositAmount",
        "offset": 0,
        "slot": "315",
        "type": "t_uint256"
      },
      {
        "astId": 15967,
        "contract": "contracts/Dao.sol:Dao",
        "label": "minTokenToAdmit",
        "offset": 0,
        "slot": "316",
        "type": "t_uint256"
      },
      {
        "astId": 15969,
        "contract": "contracts/Dao.sol:Dao",
        "label": "baseCurrency",
        "offset": 0,
        "slot": "317",
        "type": "t_address"
      },
      {
        "astId": 15971,
        "contract": "contracts/Dao.sol:Dao",
        "label": "logoCID",
        "offset": 0,
        "slot": "318",
        "type": "t_string_storage"
      },
      {
        "astId": 15975,
        "contract": "contracts/Dao.sol:Dao",
        "label": "firstDepositTime",
        "offset": 0,
        "slot": "319",
        "type": "t_mapping(t_address,t_uint256)"
      },
      {
        "astId": 15979,
        "contract": "contracts/Dao.sol:Dao",
        "label": "isAssetSupported",
        "offset": 0,
        "slot": "320",
        "type": "t_mapping(t_address,t_bool)"
      },
      {
        "astId": 15983,
        "contract": "contracts/Dao.sol:Dao",
        "label": "isOptInPool",
        "offset": 0,
        "slot": "321",
        "type": "t_mapping(t_address,t_bool)"
      },
      {
        "astId": 15987,
        "contract": "contracts/Dao.sol:Dao",
        "label": "teamWhitelist",
        "offset": 0,
        "slot": "322",
        "type": "t_mapping(t_uint256,t_bool)"
      }
    ],
    "types": {
      "t_address": {
        "encoding": "inplace",
        "label": "address",
        "numberOfBytes": "20"
      },
      "t_array(t_uint256)50_storage": {
        "base": "t_uint256",
        "encoding": "inplace",
        "label": "uint256[50]",
        "numberOfBytes": "1600"
      },
      "t_bool": {
        "encoding": "inplace",
        "label": "bool",
        "numberOfBytes": "1"
      },
      "t_mapping(t_address,t_bool)": {
        "encoding": "mapping",
        "key": "t_address",
        "label": "mapping(address => bool)",
        "numberOfBytes": "32",
        "value": "t_bool"
      },
      "t_mapping(t_address,t_uint256)": {
        "encoding": "mapping",
        "key": "t_address",
        "label": "mapping(address => uint256)",
        "numberOfBytes": "32",
        "value": "t_uint256"
      },
      "t_mapping(t_uint256,t_bool)": {
        "encoding": "mapping",
        "key": "t_uint256",
        "label": "mapping(uint256 => bool)",
        "numberOfBytes": "32",
        "value": "t_bool"
      },
      "t_string_storage": {
        "encoding": "bytes",
        "label": "string",
        "numberOfBytes": "32"
      },
      "t_uint256": {
        "encoding": "inplace",
        "label": "uint256",
        "numberOfBytes": "32"
      }
    }
  }
}