{
  "address": "0xcBa5605E78f8527863360c07A3a8671f40f2a8F4",
  "abi": [
    {
      "anonymous": false,
      "inputs": [
        {
          "indexed": false,
          "internalType": "address",
          "name": "token",
          "type": "address"
        },
        {
          "indexed": false,
          "internalType": "uint256",
          "name": "minTokenToAdmit",
          "type": "uint256"
        },
        {
          "indexed": false,
          "internalType": "uint256",
          "name": "tokenId",
          "type": "uint256"
        },
        {
          "indexed": false,
          "internalType": "bool",
          "name": "isMemberToken",
          "type": "bool"
        }
      ],
      "name": "AddAdmissionToken",
      "type": "event"
    },
    {
      "anonymous": false,
      "inputs": [
        {
          "indexed": false,
          "internalType": "address",
          "name": "previousAdmin",
          "type": "address"
        },
        {
          "indexed": false,
          "internalType": "address",
          "name": "newAdmin",
          "type": "address"
        }
      ],
      "name": "AdminChanged",
      "type": "event"
    },
    {
      "anonymous": false,
      "inputs": [
        {
          "indexed": false,
          "internalType": "address",
          "name": "token",
          "type": "address"
        }
      ],
      "name": "AllowDepositToken",
      "type": "event"
    },
    {
      "anonymous": false,
      "inputs": [
        {
          "indexed": true,
          "internalType": "address",
          "name": "beacon",
          "type": "address"
        }
      ],
      "name": "BeaconUpgraded",
      "type": "event"
    },
    {
      "anonymous": false,
      "inputs": [
        {
          "indexed": false,
          "internalType": "address",
          "name": "budgetApproval",
          "type": "address"
        },
        {
          "indexed": false,
          "internalType": "bytes",
          "name": "data",
          "type": "bytes"
        }
      ],
      "name": "CreateBudgetApproval",
      "type": "event"
    },
    {
      "anonymous": false,
      "inputs": [
        {
          "indexed": false,
          "internalType": "address",
          "name": "account",
          "type": "address"
        },
        {
          "indexed": false,
          "internalType": "uint256",
          "name": "depositAmount",
          "type": "uint256"
        }
      ],
      "name": "CreateMember",
      "type": "event"
    },
    {
      "anonymous": false,
      "inputs": [
        {
          "indexed": false,
          "internalType": "address",
          "name": "creator",
          "type": "address"
        },
        {
          "indexed": false,
          "internalType": "address",
          "name": "token",
          "type": "address"
        }
      ],
      "name": "CreateMemberToken",
      "type": "event"
    },
    {
      "anonymous": false,
      "inputs": [
        {
          "indexed": false,
          "internalType": "address",
          "name": "owner",
          "type": "address"
        },
        {
          "indexed": false,
          "internalType": "uint256",
          "name": "time",
          "type": "uint256"
        }
      ],
      "name": "SetFirstDepositTime",
      "type": "event"
    },
    {
      "anonymous": false,
      "inputs": [
        {
          "indexed": true,
          "internalType": "address",
          "name": "implementation",
          "type": "address"
        }
      ],
      "name": "Upgraded",
      "type": "event"
    },
    {
      "anonymous": false,
      "inputs": [
        {
          "indexed": false,
          "internalType": "uint256",
          "name": "tokenId",
          "type": "uint256"
        }
      ],
      "name": "WhitelistTeam",
      "type": "event"
    },
    {
      "inputs": [],
      "name": "adam",
      "outputs": [
        {
          "internalType": "address",
          "name": "",
          "type": "address"
        }
      ],
      "stateMutability": "view",
      "type": "function"
    },
    {
      "inputs": [
        {
          "internalType": "address[]",
          "name": "erc20s",
          "type": "address[]"
        }
      ],
      "name": "addAssets",
      "outputs": [],
      "stateMutability": "nonpayable",
      "type": "function"
    },
    {
      "inputs": [
        {
          "internalType": "address",
          "name": "",
          "type": "address"
        }
      ],
      "name": "admissionTokenSetting",
      "outputs": [
        {
          "internalType": "uint256",
          "name": "minTokenToAdmit",
          "type": "uint256"
        },
        {
          "internalType": "uint256",
          "name": "tokenId",
          "type": "uint256"
        }
      ],
      "stateMutability": "view",
      "type": "function"
    },
    {
      "inputs": [
        {
          "internalType": "uint256",
          "name": "",
          "type": "uint256"
        }
      ],
      "name": "admissionTokens",
      "outputs": [
        {
          "internalType": "address",
          "name": "",
          "type": "address"
        }
      ],
      "stateMutability": "view",
      "type": "function"
    },
    {
      "inputs": [
        {
          "internalType": "address",
          "name": "account",
          "type": "address"
        },
        {
          "internalType": "uint256",
          "name": "amount",
          "type": "uint256"
        }
      ],
      "name": "afterDeposit",
      "outputs": [],
      "stateMutability": "nonpayable",
      "type": "function"
    },
    {
      "inputs": [],
      "name": "baseCurrency",
      "outputs": [
        {
          "internalType": "address",
          "name": "",
          "type": "address"
        }
      ],
      "stateMutability": "view",
      "type": "function"
    },
    {
      "inputs": [
        {
          "internalType": "address",
          "name": "",
          "type": "address"
        }
      ],
      "name": "budgetApprovals",
      "outputs": [
        {
          "internalType": "bool",
          "name": "",
          "type": "bool"
        }
      ],
      "stateMutability": "view",
      "type": "function"
    },
    {
      "inputs": [
        {
          "internalType": "address",
          "name": "account",
          "type": "address"
        }
      ],
      "name": "byPassGovern",
      "outputs": [
        {
          "internalType": "bool",
          "name": "",
          "type": "bool"
        }
      ],
      "stateMutability": "view",
      "type": "function"
    },
    {
      "inputs": [
        {
          "internalType": "address",
          "name": "budgetApproval",
          "type": "address"
        }
      ],
      "name": "canCreateBudgetApproval",
      "outputs": [
        {
          "internalType": "bool",
          "name": "",
          "type": "bool"
        }
      ],
      "stateMutability": "view",
      "type": "function"
    },
    {
      "inputs": [
        {
          "internalType": "address[]",
          "name": "_budgetApprovals",
          "type": "address[]"
        },
        {
          "internalType": "bytes[]",
          "name": "data",
          "type": "bytes[]"
        }
      ],
      "name": "createBudgetApprovals",
      "outputs": [],
      "stateMutability": "nonpayable",
      "type": "function"
    },
    {
      "inputs": [
        {
          "internalType": "string",
          "name": "_name",
          "type": "string"
        },
        {
          "internalType": "uint256",
          "name": "duration",
          "type": "uint256"
        },
        {
          "internalType": "uint256",
          "name": "quorum",
          "type": "uint256"
        },
        {
          "internalType": "uint256",
          "name": "passThreshold",
          "type": "uint256"
        },
        {
          "internalType": "uint256[]",
          "name": "voteWeights",
          "type": "uint256[]"
        },
        {
          "internalType": "uint256",
          "name": "voteToken",
          "type": "uint256"
        }
      ],
      "name": "createGovern",
      "outputs": [],
      "stateMutability": "nonpayable",
      "type": "function"
    },
    {
      "inputs": [
        {
          "internalType": "string",
          "name": "title",
          "type": "string"
        },
        {
          "internalType": "address",
          "name": "minter",
          "type": "address"
        },
        {
          "internalType": "address[]",
          "name": "members",
          "type": "address[]"
        },
        {
          "internalType": "string",
          "name": "description",
          "type": "string"
        }
      ],
      "name": "createTeam",
      "outputs": [],
      "stateMutability": "nonpayable",
      "type": "function"
    },
    {
      "inputs": [],
      "name": "creator",
      "outputs": [
        {
          "internalType": "address",
          "name": "",
          "type": "address"
        }
      ],
      "stateMutability": "view",
      "type": "function"
    },
    {
      "inputs": [
        {
          "internalType": "address",
          "name": "_to",
          "type": "address"
        },
        {
          "internalType": "bytes",
          "name": "_data",
          "type": "bytes"
        },
        {
          "internalType": "uint256",
          "name": "_value",
          "type": "uint256"
        }
      ],
      "name": "executeByBudgetApproval",
      "outputs": [
        {
          "internalType": "bytes",
          "name": "",
          "type": "bytes"
        }
      ],
      "stateMutability": "nonpayable",
      "type": "function"
    },
    {
      "inputs": [
        {
          "internalType": "address",
          "name": "",
          "type": "address"
        }
      ],
      "name": "firstDepositTime",
      "outputs": [
        {
          "internalType": "uint256",
          "name": "",
          "type": "uint256"
        }
      ],
      "stateMutability": "view",
      "type": "function"
    },
    {
      "inputs": [
        {
          "internalType": "string",
          "name": "gName",
          "type": "string"
        }
      ],
      "name": "govern",
      "outputs": [
        {
          "internalType": "address",
          "name": "",
          "type": "address"
        }
      ],
      "stateMutability": "view",
      "type": "function"
    },
    {
      "inputs": [],
      "name": "governFactory",
      "outputs": [
        {
          "internalType": "address",
          "name": "",
          "type": "address"
        }
      ],
      "stateMutability": "view",
      "type": "function"
    },
    {
      "inputs": [
        {
          "components": [
            {
              "internalType": "address",
              "name": "_creator",
              "type": "address"
            },
            {
              "internalType": "address",
              "name": "_membership",
              "type": "address"
            },
            {
              "internalType": "address",
              "name": "_liquidPool",
              "type": "address"
            },
            {
              "internalType": "address",
              "name": "_governFactory",
              "type": "address"
            },
            {
              "internalType": "address",
              "name": "_team",
              "type": "address"
            },
            {
              "internalType": "address",
              "name": "_memberTokenImplementation",
              "type": "address"
            },
            {
              "internalType": "string",
              "name": "_name",
              "type": "string"
            },
            {
              "internalType": "string",
              "name": "_description",
              "type": "string"
            },
            {
              "internalType": "uint256",
              "name": "_locktime",
              "type": "uint256"
            },
            {
              "internalType": "uint256[4]",
              "name": "generalGovernSetting",
              "type": "uint256[4]"
            },
            {
              "internalType": "string[]",
              "name": "tokenInfo",
              "type": "string[]"
            },
            {
              "internalType": "uint256",
              "name": "tokenAmount",
              "type": "uint256"
            },
            {
              "components": [
                {
                  "internalType": "uint256",
                  "name": "minDepositAmount",
                  "type": "uint256"
                }
              ],
              "internalType": "struct Dao.DaoSetting",
              "name": "daoSetting",
              "type": "tuple"
            },
            {
              "internalType": "address[]",
              "name": "depositTokens",
              "type": "address[]"
            },
            {
              "internalType": "bool",
              "name": "mintMemberToken",
              "type": "bool"
            },
            {
              "components": [
                {
                  "internalType": "address",
                  "name": "token",
                  "type": "address"
                },
                {
                  "internalType": "uint256",
                  "name": "minTokenToAdmit",
                  "type": "uint256"
                },
                {
                  "internalType": "uint256",
                  "name": "tokenId",
                  "type": "uint256"
                },
                {
                  "internalType": "bool",
                  "name": "isMemberToken",
                  "type": "bool"
                }
              ],
              "internalType": "struct Dao.AdmissionToken[]",
              "name": "admissionTokens",
              "type": "tuple[]"
            },
            {
              "internalType": "address",
              "name": "baseCurrency",
              "type": "address"
            },
            {
              "internalType": "string",
              "name": "logoCID",
              "type": "string"
            }
          ],
          "internalType": "struct Dao.InitializeParams",
          "name": "params",
          "type": "tuple"
        }
      ],
      "name": "initialize",
      "outputs": [],
      "stateMutability": "nonpayable",
      "type": "function"
    },
    {
      "inputs": [
        {
          "internalType": "address",
          "name": "",
          "type": "address"
        }
      ],
      "name": "isAssetSupported",
      "outputs": [
        {
          "internalType": "bool",
          "name": "",
          "type": "bool"
        }
      ],
      "stateMutability": "view",
      "type": "function"
    },
    {
      "inputs": [
        {
          "internalType": "address",
          "name": "account",
          "type": "address"
        }
      ],
      "name": "isMember",
      "outputs": [
        {
          "internalType": "bool",
          "name": "",
          "type": "bool"
        }
      ],
      "stateMutability": "view",
      "type": "function"
    },
    {
      "inputs": [
        {
          "internalType": "address",
          "name": "account",
          "type": "address"
        }
      ],
      "name": "isPassAdmissionToken",
      "outputs": [
        {
          "internalType": "bool",
          "name": "",
          "type": "bool"
        }
      ],
      "stateMutability": "view",
      "type": "function"
    },
    {
      "inputs": [],
      "name": "liquidPool",
      "outputs": [
        {
          "internalType": "address",
          "name": "",
          "type": "address"
        }
      ],
      "stateMutability": "view",
      "type": "function"
    },
    {
      "inputs": [],
      "name": "locktime",
      "outputs": [
        {
          "internalType": "uint256",
          "name": "",
          "type": "uint256"
        }
      ],
      "stateMutability": "view",
      "type": "function"
    },
    {
      "inputs": [],
      "name": "logoCID",
      "outputs": [
        {
          "internalType": "string",
          "name": "",
          "type": "string"
        }
      ],
      "stateMutability": "view",
      "type": "function"
    },
    {
      "inputs": [],
      "name": "memberToken",
      "outputs": [
        {
          "internalType": "address",
          "name": "",
          "type": "address"
        }
      ],
      "stateMutability": "view",
      "type": "function"
    },
    {
      "inputs": [],
      "name": "membership",
      "outputs": [
        {
          "internalType": "address",
          "name": "",
          "type": "address"
        }
      ],
      "stateMutability": "view",
      "type": "function"
    },
    {
      "inputs": [],
      "name": "minDepositAmount",
      "outputs": [
        {
          "internalType": "uint256",
          "name": "",
          "type": "uint256"
        }
      ],
      "stateMutability": "view",
      "type": "function"
    },
    {
      "inputs": [
        {
          "internalType": "address",
          "name": "owner",
          "type": "address"
        }
      ],
      "name": "mintMember",
      "outputs": [],
      "stateMutability": "nonpayable",
      "type": "function"
    },
    {
      "inputs": [
        {
          "internalType": "uint256",
          "name": "amount",
          "type": "uint256"
        }
      ],
      "name": "mintMemberToken",
      "outputs": [],
      "stateMutability": "nonpayable",
      "type": "function"
    },
    {
      "inputs": [],
      "name": "name",
      "outputs": [
        {
          "internalType": "string",
          "name": "",
          "type": "string"
        }
      ],
      "stateMutability": "view",
      "type": "function"
    },
    {
      "inputs": [
        {
          "internalType": "address",
          "name": "",
          "type": "address"
        },
        {
          "internalType": "address",
          "name": "",
          "type": "address"
        },
        {
          "internalType": "uint256[]",
          "name": "",
          "type": "uint256[]"
        },
        {
          "internalType": "uint256[]",
          "name": "",
          "type": "uint256[]"
        },
        {
          "internalType": "bytes",
          "name": "",
          "type": "bytes"
        }
      ],
      "name": "onERC1155BatchReceived",
      "outputs": [
        {
          "internalType": "bytes4",
          "name": "",
          "type": "bytes4"
        }
      ],
      "stateMutability": "nonpayable",
      "type": "function"
    },
    {
      "inputs": [
        {
          "internalType": "address",
          "name": "",
          "type": "address"
        },
        {
          "internalType": "address",
          "name": "",
          "type": "address"
        },
        {
          "internalType": "uint256",
          "name": "",
          "type": "uint256"
        },
        {
          "internalType": "uint256",
          "name": "",
          "type": "uint256"
        },
        {
          "internalType": "bytes",
          "name": "",
          "type": "bytes"
        }
      ],
      "name": "onERC1155Received",
      "outputs": [
        {
          "internalType": "bytes4",
          "name": "",
          "type": "bytes4"
        }
      ],
      "stateMutability": "nonpayable",
      "type": "function"
    },
    {
      "inputs": [
        {
          "internalType": "address",
          "name": "",
          "type": "address"
        },
        {
          "internalType": "address",
          "name": "",
          "type": "address"
        },
        {
          "internalType": "uint256",
          "name": "",
          "type": "uint256"
        },
        {
          "internalType": "bytes",
          "name": "",
          "type": "bytes"
        }
      ],
      "name": "onERC721Received",
      "outputs": [
        {
          "internalType": "bytes4",
          "name": "",
          "type": "bytes4"
        }
      ],
      "stateMutability": "nonpayable",
      "type": "function"
    },
    {
      "inputs": [],
      "name": "proxiableUUID",
      "outputs": [
        {
          "internalType": "bytes32",
          "name": "",
          "type": "bytes32"
        }
      ],
      "stateMutability": "view",
      "type": "function"
    },
    {
      "inputs": [
        {
          "internalType": "address",
          "name": "owner",
          "type": "address"
        }
      ],
      "name": "setFirstDepositTime",
      "outputs": [],
      "stateMutability": "nonpayable",
      "type": "function"
    },
    {
      "inputs": [
        {
          "internalType": "bytes4",
          "name": "interfaceId",
          "type": "bytes4"
        }
      ],
      "name": "supportsInterface",
      "outputs": [
        {
          "internalType": "bool",
          "name": "",
          "type": "bool"
        }
      ],
      "stateMutability": "view",
      "type": "function"
    },
    {
      "inputs": [],
      "name": "team",
      "outputs": [
        {
          "internalType": "address",
          "name": "",
          "type": "address"
        }
      ],
      "stateMutability": "view",
      "type": "function"
    },
    {
      "inputs": [
        {
          "internalType": "uint256",
          "name": "",
          "type": "uint256"
        }
      ],
      "name": "teamWhitelist",
      "outputs": [
        {
          "internalType": "bool",
          "name": "",
          "type": "bool"
        }
      ],
      "stateMutability": "view",
      "type": "function"
    },
    {
      "inputs": [
        {
          "internalType": "address",
          "name": "to",
          "type": "address"
        },
        {
          "internalType": "uint256",
          "name": "amount",
          "type": "uint256"
        }
      ],
      "name": "transferMemberToken",
      "outputs": [],
      "stateMutability": "nonpayable",
      "type": "function"
    },
    {
      "inputs": [
        {
          "components": [
            {
              "internalType": "uint256",
              "name": "minDepositAmount",
              "type": "uint256"
            }
          ],
          "internalType": "struct Dao.DaoSetting",
          "name": "_setting",
          "type": "tuple"
        }
      ],
      "name": "updateDaoSetting",
      "outputs": [],
      "stateMutability": "nonpayable",
      "type": "function"
    },
    {
      "inputs": [
        {
          "internalType": "address",
          "name": "target",
          "type": "address"
        },
        {
          "internalType": "address",
          "name": "newImplementation",
          "type": "address"
        }
      ],
      "name": "upgradeContractTo",
      "outputs": [],
      "stateMutability": "nonpayable",
      "type": "function"
    },
    {
      "inputs": [
        {
          "internalType": "address",
          "name": "target",
          "type": "address"
        },
        {
          "internalType": "address",
          "name": "newImplementation",
          "type": "address"
        },
        {
          "internalType": "bytes",
          "name": "data",
          "type": "bytes"
        }
      ],
      "name": "upgradeContractToAndCall",
      "outputs": [],
      "stateMutability": "payable",
      "type": "function"
    },
    {
      "inputs": [
        {
          "internalType": "address",
          "name": "newImplementation",
          "type": "address"
        }
      ],
      "name": "upgradeTo",
      "outputs": [],
      "stateMutability": "nonpayable",
      "type": "function"
    },
    {
      "inputs": [
        {
          "internalType": "address",
          "name": "newImplementation",
          "type": "address"
        },
        {
          "internalType": "bytes",
          "name": "data",
          "type": "bytes"
        }
      ],
      "name": "upgradeToAndCall",
      "outputs": [],
      "stateMutability": "payable",
      "type": "function"
    },
    {
      "inputs": [],
      "name": "version",
      "outputs": [
        {
          "internalType": "uint256",
          "name": "",
          "type": "uint256"
        }
      ],
      "stateMutability": "pure",
      "type": "function"
    },
    {
      "stateMutability": "payable",
      "type": "receive"
    }
  ],
  "transactionHash": "0x73194d2f8c26eb4c757648baad71db364531ddd26206c4b03ed678b418c37c05",
  "args": [],
  "numDeployments": 5,
  "solcInputHash": "42e6b2cb95b5aa4c83dcafac20b9e790",
  "bytecode": "0x60a06040523060601b60805234801561001757600080fd5b5060805160601c61497561005260003960008181610b6c01528181610baf01528181610ffa0152818161103d01526110d901526149756000f3fe608060405260043610620002ab5760003560e01c806392a85fde116200016b578063bcfb1a4011620000d1578063d3abc28b1162000084578063d3abc28b146200089b578063df79812e14620008c0578063e3c1fe9814620008e5578063eb6d00a6146200090a578063ed0b66bc1462000959578063f23a6e61146200097e57600080fd5b8063bcfb1a4014620007bd578063bea2153414620007e2578063c31176951462000807578063c69e6c40146200082c578063c71511571462000851578063d0244e82146200087657600080fd5b8063a240663e116200012a578063a240663e14620006d3578063a2bf68b91462000708578063aea321c6146200072b578063b34bacdd1462000750578063b6dbbc561462000768578063bc197c81146200078d57600080fd5b806392a85fde146200061c57806399353316146200063f5780639c7880d71462000664578063a177db131462000689578063a230c52414620006ae57600080fd5b806352d1902d1162000211578063645006ca11620001d0578063645006ca14620005435780636cb7c6f9146200055c57806385f2aef2146200058e5780638940951614620005b15780638b805e9614620005d45780638e3d5d5614620005f957600080fd5b806352d1902d14620004a757806354fd4d5014620004ce57806357338b2214620004e45780635cb54384146200050757806361c533b4146200052a57600080fd5b80632f10e236116200026a5780632f10e23614620003b75780633659cfe614620003ec5780633e0f7fde1462000411578063406cfb751462000436578063464b4158146200045b5780634f1ef286146200049057600080fd5b806301ffc9a714620002b857806302d05d3f14620002f257806306fdde03146200032e578063150b7a02146200035557806323663ab6146200039e57600080fd5b36620002b357005b600080fd5b348015620002c557600080fd5b50620002dd620002d7366004620038a6565b620009ae565b60405190151581526020015b60405180910390f35b348015620002ff57600080fd5b506101305462000315906001600160a01b031681565b6040516001600160a01b039091168152602001620002e9565b3480156200033b57600080fd5b5062000346620009e6565b604051620002e9919062003d33565b3480156200036257600080fd5b50620003846200037436600462003559565b630a85bd0160e11b949350505050565b6040516001600160e01b03199091168152602001620002e9565b620003b5620003af366004620034f0565b62000a7d565b005b348015620003c457600080fd5b50620002dd620003d636600462003bbd565b61013d6020526000908152604090205460ff1681565b348015620003f957600080fd5b50620003b56200040b366004620033b7565b62000b61565b3480156200041e57600080fd5b50620003b56200043036600462003a4e565b62000c4d565b3480156200044357600080fd5b50620002dd62000455366004620033b7565b62000dac565b3480156200046857600080fd5b50620002dd6200047a366004620033b7565b61013c6020526000908152604090205460ff1681565b620003b5620004a13660046200363c565b62000fef565b348015620004b457600080fd5b50620004bf620010cc565b604051908152602001620002e9565b348015620004db57600080fd5b506005620004bf565b348015620004f157600080fd5b506101335462000315906001600160a01b031681565b3480156200051457600080fd5b5061012f5462000315906001600160a01b031681565b3480156200053757600080fd5b50620004bf6101365481565b3480156200055057600080fd5b50620004bf6101375481565b3480156200056957600080fd5b50620004bf6200057b366004620033b7565b61013b6020526000908152604090205481565b3480156200059b57600080fd5b5061012d5462000315906001600160a01b031681565b348015620005be57600080fd5b506101345462000315906001600160a01b031681565b348015620005e157600080fd5b50620003b5620005f336600462003bbd565b62001182565b3480156200060657600080fd5b506101315462000315906001600160a01b031681565b3480156200062957600080fd5b506101385462000315906001600160a01b031681565b3480156200064c57600080fd5b50620003b56200065e366004620038d2565b620011fe565b3480156200067157600080fd5b50620003b56200068336600462003b66565b620012f1565b3480156200069657600080fd5b50620003b5620006a8366004620033b7565b6200136a565b348015620006bb57600080fd5b50620002dd620006cd366004620033b7565b6200140b565b348015620006e057600080fd5b50620002dd620006f2366004620033b7565b61012e6020526000908152604090205460ff1681565b3480156200071557600080fd5b506101325462000315906001600160a01b031681565b3480156200073857600080fd5b50620003b56200074a3660046200371e565b6200148f565b3480156200075d57600080fd5b506200034662001543565b3480156200077557600080fd5b50620002dd62000787366004620033b7565b62001553565b3480156200079a57600080fd5b5062000384620007ac36600462003435565b63bc197c8160e01b95945050505050565b348015620007ca57600080fd5b5062000315620007dc36600462003bbd565b620015eb565b348015620007ef57600080fd5b50620003b562000801366004620033f7565b62001617565b3480156200081457600080fd5b50620003b562000826366004620036ef565b620016ea565b3480156200083957600080fd5b50620003156200084b36600462003998565b62001767565b3480156200085e57600080fd5b50620003b562000870366004620033b7565b620017f1565b3480156200088357600080fd5b50620003b56200089536600462003b7f565b62001843565b348015620008a857600080fd5b5062000346620008ba36600462003691565b62001c5b565b348015620008cd57600080fd5b50620003b5620008df36600462003763565b62001dab565b348015620008f257600080fd5b50620003b562000904366004620036ef565b62001f8a565b3480156200091757600080fd5b506200094362000929366004620033b7565b61013e602052600090815260409020805460019091015482565b60408051928352602083019190915201620002e9565b3480156200096657600080fd5b50620002dd62000978366004620033b7565b620020c8565b3480156200098b57600080fd5b50620003846200099d366004620035cc565b63f23a6e6160e01b95945050505050565b60006001600160e01b03198216630271189760e51b1480620009e057506301ffc9a760e01b6001600160e01b03198316145b92915050565b6101358054620009f6906200407f565b80601f016020809104026020016040519081016040528092919081815260200182805462000a24906200407f565b801562000a755780601f1062000a495761010080835404028352916020019162000a75565b820191906000526020600020905b81548152906001019060200180831162000a5757829003601f168201915b505050505081565b6040518060400160405280600781526020016611d95b995c985b60ca1b81525062000aa83362001553565b8062000acf575062000aba8162001767565b6001600160a01b0316336001600160a01b0316145b62000af75760405162461bcd60e51b815260040162000aee9062003e26565b60405180910390fd5b60405163278f794360e11b81526001600160a01b03851690634f1ef2869062000b27908690869060040162003cc5565b600060405180830381600087803b15801562000b4257600080fd5b505af115801562000b57573d6000803e3d6000fd5b5050505050505050565b306001600160a01b037f000000000000000000000000000000000000000000000000000000000000000016141562000bad5760405162461bcd60e51b815260040162000aee9062003e54565b7f00000000000000000000000000000000000000000000000000000000000000006001600160a01b031662000bf8600080516020620048f9833981519152546001600160a01b031690565b6001600160a01b03161462000c215760405162461bcd60e51b815260040162000aee9062003ea0565b62000c2c81620020fd565b6040805160008082526020820190925262000c4a918391906200216e565b50565b6040518060400160405280600781526020016611d95b995c985b60ca1b81525062000c783362001553565b8062000c9f575062000c8a8162001767565b6001600160a01b0316336001600160a01b0316145b62000cbe5760405162461bcd60e51b815260040162000aee9062003e26565b61012d546040516253153b60e01b81526000916001600160a01b0316906253153b9062000cf690899089908990899060040162003d48565b602060405180830381600087803b15801562000d1157600080fd5b505af115801562000d26573d6000803e3d6000fd5b505050506040513d601f19601f8201168201806040525081019062000d4c91906200388c565b600081815261013d602052604090819020805460ff19166001179055519091507ff94f63f5f9de5de7659ae3ccaa099cce39347833cbd85ffe78570b86f4051ab49062000d9c9083815260200190565b60405180910390a1505050505050565b6000805b61013a5481101562000fe657600061013a828154811062000dd55762000dd5620040f6565b60009182526020808320909101546001600160a01b031680835261013e9091526040909120549091501562000fd057600062000e1a826001600160a01b0316620022f6565b1562000ea6576040516370a0823160e01b81526001600160a01b0386811660048301528316906370a08231906024015b60206040518083038186803b15801562000e6357600080fd5b505afa15801562000e78573d6000803e3d6000fd5b505050506040513d601f19601f8201168201806040525081019062000e9e91906200388c565b905062000fa1565b62000eba826001600160a01b031662002381565b1562000f07576001600160a01b03828116600081815261013e602052604090819020600101549051627eeac760e11b8152928816600484015260248301529062fdd58e9060440162000e4a565b62000f1b826001600160a01b0316620023b8565b1562000fa1576040516370a0823160e01b81526001600160a01b0386811660048301528316906370a082319060240160206040518083038186803b15801562000f6357600080fd5b505afa15801562000f78573d6000803e3d6000fd5b505050506040513d601f19601f8201168201806040525081019062000f9e91906200388c565b90505b6001600160a01b038216600090815261013e602052604090205481101562000fce57506000949350505050565b505b508062000fdd81620040b6565b91505062000db0565b50600192915050565b306001600160a01b037f00000000000000000000000000000000000000000000000000000000000000001614156200103b5760405162461bcd60e51b815260040162000aee9062003e54565b7f00000000000000000000000000000000000000000000000000000000000000006001600160a01b031662001086600080516020620048f9833981519152546001600160a01b031690565b6001600160a01b031614620010af5760405162461bcd60e51b815260040162000aee9062003ea0565b620010ba82620020fd565b620010c8828260016200216e565b5050565b6000306001600160a01b037f000000000000000000000000000000000000000000000000000000000000000016146200116e5760405162461bcd60e51b815260206004820152603860248201527f555550535570677261646561626c653a206d757374206e6f742062652063616c60448201527f6c6564207468726f7567682064656c656761746563616c6c0000000000000000606482015260840162000aee565b50600080516020620048f983398151915290565b6040518060400160405280600781526020016611d95b995c985b60ca1b815250620011ad3362001553565b80620011d45750620011bf8162001767565b6001600160a01b0316336001600160a01b0316145b620011f35760405162461bcd60e51b815260040162000aee9062003e26565b620010c8826200243c565b6040518060400160405280600681526020016523b7bb32b93760d11b815250620012283362001553565b806200124f57506200123a8162001767565b6001600160a01b0316336001600160a01b0316145b6200126e5760405162461bcd60e51b815260040162000aee9062003e26565b620012e689898080601f01602080910402602001604051908101604052809392919081815260200183838082843760009201919091525050604080516020808a0282810182019093528982528d94508c93508b928b918b9182918501908490808284376000920191909152508a9250620024a7915050565b505050505050505050565b6040518060400160405280600781526020016611d95b995c985b60ca1b8152506200131c3362001553565b806200134357506200132e8162001767565b6001600160a01b0316336001600160a01b0316145b620013625760405162461bcd60e51b815260040162000aee9062003e26565b503561013755565b610133546001600160a01b03163314620013b15760405162461bcd60e51b815260206004820152600760248201526606f6e6c79204c560cc1b604482015260640162000aee565b6001600160a01b038116600081815261013b602090815260409182902042908190558251938452908301527f7ac58570d3e556be8ffd5d5bda8bc949958077c3aa21c4b5fa11b63ed12dafa791015b60405180910390a150565b6101325460405163288c314960e21b81526001600160a01b038381166004830152600092169063a230c524906024015b60206040518083038186803b1580156200145457600080fd5b505afa15801562001469573d6000803e3d6000fd5b505050506040513d601f19601f82011682018060405250810190620009e091906200386c565b6040518060400160405280600781526020016611d95b995c985b60ca1b815250620014ba3362001553565b80620014e15750620014cc8162001767565b6001600160a01b0316336001600160a01b0316145b620015005760405162461bcd60e51b815260040162000aee9062003e26565b6200153e8383808060200260200160405190810160405280939291908181526020018383602002808284376000920191909152506200254392505050565b505050565b6101398054620009f6906200407f565b61013254604080516318160ddd60e01b815290516000926001600160a01b0316916318160ddd916004808301926020929190829003018186803b1580156200159a57600080fd5b505afa158015620015af573d6000803e3d6000fd5b505050506040513d601f19601f82011682018060405250810190620015d591906200388c565b6001148015620009e05750620009e0826200140b565b61013a8181548110620015fd57600080fd5b6000918252602090912001546001600160a01b0316905081565b6040518060400160405280600781526020016611d95b995c985b60ca1b815250620016423362001553565b80620016695750620016548162001767565b6001600160a01b0316336001600160a01b0316145b620016885760405162461bcd60e51b815260040162000aee9062003e26565b604051631b2ce7f360e11b81526001600160a01b038381166004830152841690633659cfe690602401600060405180830381600087803b158015620016cc57600080fd5b505af1158015620016e1573d6000803e3d6000fd5b50505050505050565b6040518060400160405280600781526020016611d95b995c985b60ca1b815250620017153362001553565b806200173c5750620017278162001767565b6001600160a01b0316336001600160a01b0316145b6200175b5760405162461bcd60e51b815260040162000aee9062003e26565b6200153e83836200258c565b6101345460405163385f5d8f60e11b81526000916001600160a01b0316906370bebb1e906200179d903090869060040162003cc5565b60206040518083038186803b158015620017b657600080fd5b505afa158015620017cb573d6000803e3d6000fd5b505050506040513d601f19601f82011682018060405250810190620009e09190620033d7565b610133546001600160a01b03163314620018385760405162461bcd60e51b815260206004820152600760248201526606f6e6c79204c560cc1b604482015260640162000aee565b62000c4a8162002617565b600054610100900460ff16620018605760005460ff161562001864565b303b155b620018c95760405162461bcd60e51b815260206004820152602e60248201527f496e697469616c697a61626c653a20636f6e747261637420697320616c72656160448201526d191e481a5b9a5d1a585b1a5e995960921b606482015260840162000aee565b600054610100900460ff16158015620018ec576000805461ffff19166101011790555b61013180546001600160a01b031916331790556200190e6020830183620033b7565b61013080546001600160a01b0319166001600160a01b0392909216919091179055620019416040830160208401620033b7565b61013280546001600160a01b0319166001600160a01b0392909216919091179055620019746060830160408401620033b7565b61013380546001600160a01b0319166001600160a01b0392909216919091179055620019a460c083018362003f84565b620019b3916101359162003173565b5061010082013561013655620019d06080830160608401620033b7565b61013480546001600160a01b0319166001600160a01b039290921691909117905562001a0360a0830160808401620033b7565b61012d80546001600160a01b0319166001600160a01b03929092169190911790556101e08201356101375562001a4261028083016102608401620033b7565b61013880546001600160a01b0319166001600160a01b039290921691909117905562001a7361028083018362003f84565b62001a82916101399162003173565b5062001a97610240830161022084016200384c565b1562001acf5762001acf62001ab360c0840160a08501620033b7565b62001ac36101a085018562003eec565b856101c001356200264b565b6040805160018082528183019092526000916020808301908036833701905050905060018160008151811062001b095762001b09620040f6565b60200260200101818152505062001b716040518060400160405280600781526020016611d95b995c985b60ca1b815250846101200160006004811062001b535762001b53620040f6565b602002013561014086013561016087013585610180890135620024a7565b62001be062001b8561024085018562003f38565b808060200260200160405190810160405280939291908181526020016000905b8282101562001bd55762001bc56080830286013681900381019062003aea565b8152602001906001019062001ba5565b505050505062002899565b6101305462001bf8906001600160a01b031662002617565b62001c4462001c0c61020085018562003eec565b808060200260200160405190810160405280939291908181526020018383602002808284376000920191909152506200254392505050565b508015620010c8576000805461ff00191690555050565b33600090815261012e602052604090205460609060ff1662001cce5760405162461bcd60e51b815260206004820152602560248201527f427564676574417070726f76616c45786563757465653a206163636573732064604482015264195b9a595960da1b606482015260840162000aee565b600080856001600160a01b0316848660405162001cec919062003c74565b60006040518083038185875af1925050503d806000811462001d2b576040519150601f19603f3d011682016040523d82523d6000602084013e62001d30565b606091505b50915091508162001da05762001d8562001d4a8262002b7b565b60408051808201909152601d81527f52657665727465642062792065787465726e616c20636f6e747261637400000060208201529062002bd8565b60405162461bcd60e51b815260040162000aee919062003d33565b9150505b9392505050565b805182511462001df35760405162461bcd60e51b8152602060048201526012602482015271496e636f72726563742043616c6c6461746160701b604482015260640162000aee565b60005b82518110156200153e5762001e2783828151811062001e195762001e19620040f6565b602002602001015162002c06565b600083828151811062001e3e5762001e3e620040f6565b602002602001015183838151811062001e5b5762001e5b620040f6565b602002602001015160405162001e719062003202565b62001e7e92919062003cc5565b604051809103906000f08015801562001e9b573d6000803e3d6000fd5b506001600160a01b038116600090815261012e60205260409020805460ff1916600117905583519091507f26c79e13dd63e8716f130c25331c09f2fdd55d6880bbfa7bcc38868207e8a67090829085908590811062001efe5762001efe620040f6565b602002602001015160405162001f1692919062003cc5565b60405180910390a1806001600160a01b031663cf26fec66040518163ffffffff1660e01b8152600401600060405180830381600087803b15801562001f5a57600080fd5b505af115801562001f6f573d6000803e3d6000fd5b5050505050808062001f8190620040b6565b91505062001df6565b6001600160a01b038216600090815261013b6020526040902054620010c85762001fb4826200136a565b61013754811015620020095760405162461bcd60e51b815260206004820152601960248201527f6465706f73697420616d6f756e74206e6f7420656e6f75676800000000000000604482015260640162000aee565b62002014826200140b565b156200201e575050565b620020298262000dac565b620020775760405162461bcd60e51b815260206004820152601a60248201527f41646d697373696f6e20746f6b656e206e6f7420656e6f756768000000000000604482015260640162000aee565b6200208282620017f1565b604080516001600160a01b0384168152602081018390527fbd251213ab4f4d6ca44f082b3e6aadf9c5153e7c16bac3ac4f959462d425c23c910160405180910390a15050565b61013154604051635120331f60e11b81526001600160a01b038381166004830152600092169063a240663e906024016200143b565b6040518060400160405280600781526020016611d95b995c985b60ca1b815250620021283362001553565b806200214f57506200213a8162001767565b6001600160a01b0316336001600160a01b0316145b620010c85760405162461bcd60e51b815260040162000aee9062003e26565b7f4910fdfa16fed3260ed0e7147f7cc6da11a60208b5b9406d12a635614ffd91435460ff1615620021a4576200153e8362002cde565b826001600160a01b03166352d1902d6040518163ffffffff1660e01b815260040160206040518083038186803b158015620021de57600080fd5b505afa92505050801562002211575060408051601f3d908101601f191682019092526200220e918101906200388c565b60015b620022765760405162461bcd60e51b815260206004820152602e60248201527f45524331393637557067726164653a206e657720696d706c656d656e7461746960448201526d6f6e206973206e6f74205555505360901b606482015260840162000aee565b600080516020620048f98339815191528114620022e85760405162461bcd60e51b815260206004820152602960248201527f45524331393637557067726164653a20756e737570706f727465642070726f786044820152681a58589b195555525160ba1b606482015260840162000aee565b506200153e83838362002d7d565b6040516301ffc9a760e01b81526380ac58cd60e01b60048201526000906001600160a01b038316906301ffc9a7906024015b60206040518083038186803b1580156200234157600080fd5b505afa92505050801562002374575060408051601f3d908101601f1916820190925262002371918101906200386c565b60015b620009e057506000919050565b6040516301ffc9a760e01b8152636cdb3d1360e11b60048201526000906001600160a01b038316906301ffc9a79060240162002328565b6040516370a0823160e01b8152600060048201819052906001600160a01b038316906370a082319060240160206040518083038186803b158015620023fc57600080fd5b505afa9250505080156200242f575060408051601f3d908101601f191682019092526200242c918101906200388c565b60015b62000fe657506000919050565b61012f546040516340c10f1960e01b8152306004820152602481018390526001600160a01b03909116906340c10f19906044015b600060405180830381600087803b1580156200248b57600080fd5b505af1158015620024a0573d6000803e3d6000fd5b5050505050565b6000620024c8826002811115620024c257620024c2620040e0565b62002dae565b6101345460405163c7934a2360e01b81529192506001600160a01b03169063c7934a239062002506908a908a908a908a908a90899060040162003da1565b600060405180830381600087803b1580156200252157600080fd5b505af115801562002536573d6000803e3d6000fd5b5050505050505050505050565b60005b8151811015620010c85762002577828281518110620025695762002569620040f6565b602002602001015162002fa0565b806200258381620040b6565b91505062002546565b61012f5460405163a9059cbb60e01b81526001600160a01b038481166004830152602482018490529091169063a9059cbb90604401602060405180830381600087803b158015620025dc57600080fd5b505af1158015620025f1573d6000803e3d6000fd5b505050506040513d601f19601f820116820180604052508101906200153e91906200386c565b61013254604051632124d52960e01b81526001600160a01b03838116600483015290911690632124d5299060240162002470565b61012f546001600160a01b031615620026a75760405162461bcd60e51b815260206004820181905260248201527f4d656d62657220746f6b656e20616c726561647920696e697469616c697a6564604482015260640162000aee565b600282146200270a5760405162461bcd60e51b815260206004820152602860248201527f496e73756666696369656e7420696e666f20746f20637265617465206d656d6260448201526732b9103a37b5b2b760c11b606482015260840162000aee565b6000846040516200271b9062003202565b6001600160a01b039091168152604060208201819052600090820152606001604051809103906000f08015801562002757573d6000803e3d6000fd5b5061012f80546001600160a01b0319166001600160a01b0383169081179091559091506390657147308686600081620027945762002794620040f6565b9050602002810190620027a8919062003f84565b88886001818110620027be57620027be620040f6565b9050602002810190620027d2919062003f84565b6040518663ffffffff1660e01b8152600401620027f495949392919062003ceb565b600060405180830381600087803b1580156200280f57600080fd5b505af115801562002824573d6000803e3d6000fd5b505061012f546200284192506001600160a01b0316905062002fa0565b6200284c826200243c565b61012f54604080513381526001600160a01b0390921660208301527f51872b89ca0a4559a29252fabe8e58a51d77923ec1fdb596822e56c918df96eb910160405180910390a15050505050565b600381511115620028ed5760405162461bcd60e51b815260206004820181905260248201527f41646d697373696f6e20546f6b656e206c656e67746820746f6f206c6f6e672e604482015260640162000aee565b60005b8151811015620010c8576000828281518110620029115762002911620040f6565b6020026020010151606001516200294957828281518110620029375762002937620040f6565b60200260200101516000015162002957565b61012f546001600160a01b03165b90506001600160a01b0381163b620029b25760405162461bcd60e51b815260206004820152601c60248201527f41646d697373696f6e20546f6b656e206e6f7420537570706f72742100000000604482015260640162000aee565b61013a80546001810182556000919091527f1cc3277f886bc7650038e458160d07e0113c6dbe808de6ada3226131dc5802510180546001600160a01b0319166001600160a01b038316179055604080518082019091528351819085908590811062002a215762002a21620040f6565b602002602001015160200151815260200184848151811062002a475762002a47620040f6565b6020908102919091018101516040908101519092526001600160a01b038416600090815261013e8252919091208251815591015160019091015582517fc7ff60e3f07d1e83c30c2fb716313eccef5470e6bdf300d865c747e76f379a839084908490811062002aba5762002aba620040f6565b60200260200101516000015184848151811062002adb5762002adb620040f6565b60200260200101516020015185858151811062002afc5762002afc620040f6565b60200260200101516040015186868151811062002b1d5762002b1d620040f6565b60200260200101516060015160405162002b5d94939291906001600160a01b03949094168452602084019290925260408301521515606082015260800190565b60405180910390a1508062002b7281620040b6565b915050620028f0565b606060448251101562002b9c57505060408051602081019091526000815290565b600482019150620009e08280602001905181019062002bbc9190620039d8565b60408051808201909152600381526201016960ed1b6020820152905b6060828260405160200162002bef92919062003c92565b604051602081830303815290604052905092915050565b6040518060400160405280600781526020016611d95b995c985b60ca1b81525062002c313362001553565b8062002c58575062002c438162001767565b6001600160a01b0316336001600160a01b0316145b62002c775760405162461bcd60e51b815260040162000aee9062003e26565b62002c8282620020c8565b620010c85760405162461bcd60e51b815260206004820152602560248201527f42756467657420496d706c656d656e746174696f6e206e6f742077686974656c6044820152641a5cdd195960da1b606482015260840162000aee565b6001600160a01b0381163b62002d4d5760405162461bcd60e51b815260206004820152602d60248201527f455243313936373a206e657720696d706c656d656e746174696f6e206973206e60448201526c1bdd08184818dbdb9d1c9858dd609a1b606482015260840162000aee565b600080516020620048f983398151915280546001600160a01b0319166001600160a01b0392909216919091179055565b62002d888362002ff6565b60008251118062002d965750805b156200153e5762002da8838362003038565b50505050565b606081600281111562002dc55762002dc5620040e0565b62002e8957610132546001600160a01b031662002e255760405162461bcd60e51b815260206004820152601e60248201527f4d656d62657273686970206e6f742079657420696e697469616c697a65640000604482015260640162000aee565b6040805160018082528183019092526000916020808301908036833750506101325482519293506001600160a01b03169183915060009062002e6b5762002e6b620040f6565b6001600160a01b039092166020928302919091019091015292915050565b81600281111562002e9e5762002e9e620040e0565b6001141562002f485761012f546001600160a01b031662002f025760405162461bcd60e51b815260206004820152601f60248201527f4d656d626572546f6b656e206e6f742079657420696e697469616c697a656400604482015260640162000aee565b60408051600180825281830190925260009160208083019080368337505061012f5482519293506001600160a01b03169183915060009062002e6b5762002e6b620040f6565b81600281111562002f5d5762002f5d620040e0565b5060405162461bcd60e51b8152602060048201526016602482015275556e737570706f7274656420546f6b656e207479706560501b604482015260640162000aee565b6001600160a01b038116600081815261013c6020908152604091829020805460ff1916600117905590519182527f808665eda000f8d729f31a384bae411282aa3be62cb73ed74e2225e2eef7125d910162001400565b620030018162002cde565b6040516001600160a01b038216907fbc7cd75a20ee27fd9adebab32041f755214dbc6bffa90cc0225b39da2e5c2d3b90600090a250565b60606001600160a01b0383163b620030a25760405162461bcd60e51b815260206004820152602660248201527f416464726573733a2064656c65676174652063616c6c20746f206e6f6e2d636f6044820152651b9d1c9858dd60d21b606482015260840162000aee565b600080846001600160a01b031684604051620030bf919062003c74565b600060405180830381855af49150503d8060008114620030fc576040519150601f19603f3d011682016040523d82523d6000602084013e62003101565b606091505b50915091506200312c8282604051806060016040528060278152602001620049196027913962003135565b95945050505050565b606083156200314657508162001da4565b825115620031575782518084602001fd5b8160405162461bcd60e51b815260040162000aee919062003d33565b82805462003181906200407f565b90600052602060002090601f016020900481019282620031a55760008555620031f0565b82601f10620031c05782800160ff19823516178555620031f0565b82800160010185558215620031f0579182015b82811115620031f0578235825591602001919060010190620031d3565b50620031fe92915062003210565b5090565b6107b1806200414883390190565b5b80821115620031fe576000815560010162003211565b60008083601f8401126200323a57600080fd5b5081356001600160401b038111156200325257600080fd5b6020830191508360208260051b85010111156200326e57600080fd5b9250929050565b600082601f8301126200328757600080fd5b81356020620032a06200329a8362004000565b62003fcd565b80838252828201915082860187848660051b8901011115620032c157600080fd5b60005b85811015620032ed578135620032da8162004122565b84529284019290840190600101620032c4565b5090979650505050505050565b600082601f8301126200330c57600080fd5b813560206200331f6200329a8362004000565b80838252828201915082860187848660051b89010111156200334057600080fd5b60005b85811015620032ed5781358452928401929084019060010162003343565b600082601f8301126200337357600080fd5b8135620033846200329a8262004026565b8181528460208386010111156200339a57600080fd5b816020850160208301376000918101602001919091529392505050565b600060208284031215620033ca57600080fd5b813562001da48162004122565b600060208284031215620033ea57600080fd5b815162001da48162004122565b600080604083850312156200340b57600080fd5b8235620034188162004122565b915060208301356200342a8162004122565b809150509250929050565b600080600080600060a086880312156200344e57600080fd5b85356200345b8162004122565b945060208601356200346d8162004122565b935060408601356001600160401b03808211156200348a57600080fd5b6200349889838a01620032fa565b94506060880135915080821115620034af57600080fd5b620034bd89838a01620032fa565b93506080880135915080821115620034d457600080fd5b50620034e38882890162003361565b9150509295509295909350565b6000806000606084860312156200350657600080fd5b8335620035138162004122565b92506020840135620035258162004122565b915060408401356001600160401b038111156200354157600080fd5b6200354f8682870162003361565b9150509250925092565b600080600080608085870312156200357057600080fd5b84356200357d8162004122565b935060208501356200358f8162004122565b92506040850135915060608501356001600160401b03811115620035b257600080fd5b620035c08782880162003361565b91505092959194509250565b600080600080600060a08688031215620035e557600080fd5b8535620035f28162004122565b94506020860135620036048162004122565b9350604086013592506060860135915060808601356001600160401b038111156200362e57600080fd5b620034e38882890162003361565b600080604083850312156200365057600080fd5b82356200365d8162004122565b915060208301356001600160401b038111156200367957600080fd5b620036878582860162003361565b9150509250929050565b600080600060608486031215620036a757600080fd5b8335620036b48162004122565b925060208401356001600160401b03811115620036d057600080fd5b620036de8682870162003361565b925050604084013590509250925092565b600080604083850312156200370357600080fd5b8235620037108162004122565b946020939093013593505050565b600080602083850312156200373257600080fd5b82356001600160401b038111156200374957600080fd5b620037578582860162003227565b90969095509350505050565b600080604083850312156200377757600080fd5b82356001600160401b03808211156200378f57600080fd5b6200379d8683870162003275565b9350602091508185013581811115620037b557600080fd5b8501601f81018713620037c757600080fd5b8035620037d86200329a8262004000565b8082825285820191508584018a878560051b8701011115620037f957600080fd5b6000805b85811015620038395782358881111562003815578283fd5b620038258e8b838b010162003361565b8652509388019391880191600101620037fd565b5050508096505050505050509250929050565b6000602082840312156200385f57600080fd5b813562001da48162004138565b6000602082840312156200387f57600080fd5b815162001da48162004138565b6000602082840312156200389f57600080fd5b5051919050565b600060208284031215620038b957600080fd5b81356001600160e01b03198116811462001da457600080fd5b60008060008060008060008060c0898b031215620038ef57600080fd5b88356001600160401b03808211156200390757600080fd5b818b0191508b601f8301126200391c57600080fd5b8135818111156200392c57600080fd5b8c60208285010111156200393f57600080fd5b60209283019a509850908a0135965060408a0135955060608a0135945060808a013590808211156200397057600080fd5b506200397f8b828c0162003227565b999c989b50969995989497949560a00135949350505050565b600060208284031215620039ab57600080fd5b81356001600160401b03811115620039c257600080fd5b620039d08482850162003361565b949350505050565b600060208284031215620039eb57600080fd5b81516001600160401b0381111562003a0257600080fd5b8201601f8101841362003a1457600080fd5b805162003a256200329a8262004026565b81815285602083850101111562003a3b57600080fd5b6200312c82602083016020860162004050565b6000806000806080858703121562003a6557600080fd5b84356001600160401b038082111562003a7d57600080fd5b62003a8b8883890162003361565b95506020870135915062003a9f8262004122565b9093506040860135908082111562003ab657600080fd5b62003ac48883890162003275565b9350606087013591508082111562003adb57600080fd5b50620035c08782880162003361565b60006080828403121562003afd57600080fd5b604051608081018181106001600160401b038211171562003b225762003b226200410c565b604052823562003b328162004122565b808252506020830135602082015260408301356040820152606083013562003b5a8162004138565b60608201529392505050565b60006020828403121562003b7957600080fd5b50919050565b60006020828403121562003b9257600080fd5b81356001600160401b0381111562003ba957600080fd5b82016102a0818503121562001da457600080fd5b60006020828403121562003bd057600080fd5b5035919050565b600081518084526020808501945080840160005b8381101562003c125781516001600160a01b03168752958201959082019060010162003beb565b509495945050505050565b6000815180845262003c3781602086016020860162004050565b601f01601f19169290920160200192915050565b81835281816020850137506000828201602090810191909152601f909101601f19169091010190565b6000825162003c8881846020870162004050565b9190910192915050565b6000835162003ca681846020880162004050565b83519083019062003cbc81836020880162004050565b01949350505050565b6001600160a01b0383168152604060208201819052600090620039d09083018462003c1d565b6001600160a01b038616815260606020820181905260009062003d12908301868862003c4b565b828103604084015262003d2781858762003c4b565b98975050505050505050565b60208152600062001da4602083018462003c1d565b60808152600062003d5d608083018762003c1d565b6001600160a01b0386166020840152828103604084015262003d80818662003bd7565b9050828103606084015262003d96818562003c1d565b979650505050505050565b60c08152600062003db660c083018962003c1d565b60208381018990526040840188905260608401879052838203608085015285518083528682019282019060005b8181101562003e015784518352938301939183019160010162003de3565b505084810360a086015262003e17818762003bd7565b9b9a5050505050505050505050565b6020808252601490820152731058dd1a5bdb881b9bdd081c195c9b5a5d1d195960621b604082015260600190565b6020808252602c908201527f46756e6374696f6e206d7573742062652063616c6c6564207468726f7567682060408201526b19195b1959d85d1958d85b1b60a21b606082015260800190565b6020808252602c908201527f46756e6374696f6e206d7573742062652063616c6c6564207468726f7567682060408201526b6163746976652070726f787960a01b606082015260800190565b6000808335601e1984360301811262003f0457600080fd5b8301803591506001600160401b0382111562003f1f57600080fd5b6020019150600581901b36038213156200326e57600080fd5b6000808335601e1984360301811262003f5057600080fd5b8301803591506001600160401b0382111562003f6b57600080fd5b6020019150600781901b36038213156200326e57600080fd5b6000808335601e1984360301811262003f9c57600080fd5b8301803591506001600160401b0382111562003fb757600080fd5b6020019150368190038213156200326e57600080fd5b604051601f8201601f191681016001600160401b038111828210171562003ff85762003ff86200410c565b604052919050565b60006001600160401b038211156200401c576200401c6200410c565b5060051b60200190565b60006001600160401b038211156200404257620040426200410c565b50601f01601f191660200190565b60005b838110156200406d57818101518382015260200162004053565b8381111562002da85750506000910152565b600181811c908216806200409457607f821691505b6020821081141562003b7957634e487b7160e01b600052602260045260246000fd5b6000600019821415620040d957634e487b7160e01b600052601160045260246000fd5b5060010190565b634e487b7160e01b600052602160045260246000fd5b634e487b7160e01b600052603260045260246000fd5b634e487b7160e01b600052604160045260246000fd5b6001600160a01b038116811462000c4a57600080fd5b801515811462000c4a57600080fdfe60806040526040516107b13803806107b183398101604081905261002291610307565b61004d60017f360894a13ba1a3210667c828492db98dca3e2076cc3735a920a3ca505d382bbd610424565b60008051602061076a8339815191521461006957610069610475565b6100758282600061007c565b50506104a1565b610085836100b2565b6000825111806100925750805b156100ad576100ab83836100f260201b6100291760201c565b505b505050565b6100bb8161011e565b6040516001600160a01b038216907fbc7cd75a20ee27fd9adebab32041f755214dbc6bffa90cc0225b39da2e5c2d3b90600090a250565b6060610117838360405180606001604052806027815260200161078a602791396101de565b9392505050565b610131816102bc60201b6100551760201c565b6101985760405162461bcd60e51b815260206004820152602d60248201527f455243313936373a206e657720696d706c656d656e746174696f6e206973206e60448201526c1bdd08184818dbdb9d1c9858dd609a1b60648201526084015b60405180910390fd5b806101bd60008051602061076a83398151915260001b6102cb60201b6100641760201c565b80546001600160a01b0319166001600160a01b039290921691909117905550565b60606001600160a01b0384163b6102465760405162461bcd60e51b815260206004820152602660248201527f416464726573733a2064656c65676174652063616c6c20746f206e6f6e2d636f6044820152651b9d1c9858dd60d21b606482015260840161018f565b600080856001600160a01b03168560405161026191906103d5565b600060405180830381855af49150503d806000811461029c576040519150601f19603f3d011682016040523d82523d6000602084013e6102a1565b606091505b5090925090506102b28282866102ce565b9695505050505050565b6001600160a01b03163b151590565b90565b606083156102dd575081610117565b8251156102ed5782518084602001fd5b8160405162461bcd60e51b815260040161018f91906103f1565b6000806040838503121561031a57600080fd5b82516001600160a01b038116811461033157600080fd5b60208401519092506001600160401b038082111561034e57600080fd5b818501915085601f83011261036257600080fd5b8151818111156103745761037461048b565b604051601f8201601f19908116603f0116810190838211818310171561039c5761039c61048b565b816040528281528860208487010111156103b557600080fd5b6103c6836020830160208801610449565b80955050505050509250929050565b600082516103e7818460208701610449565b9190910192915050565b6020815260008251806020840152610410816040850160208701610449565b601f01601f19169190910160400192915050565b60008282101561044457634e487b7160e01b600052601160045260246000fd5b500390565b60005b8381101561046457818101518382015260200161044c565b838111156100ab5750506000910152565b634e487b7160e01b600052600160045260246000fd5b634e487b7160e01b600052604160045260246000fd5b6102ba806104b06000396000f3fe60806040523661001357610011610017565b005b6100115b610027610022610067565b61009f565b565b606061004e838360405180606001604052806027815260200161025e602791396100c3565b9392505050565b6001600160a01b03163b151590565b90565b600061009a7f360894a13ba1a3210667c828492db98dca3e2076cc3735a920a3ca505d382bbc546001600160a01b031690565b905090565b3660008037600080366000845af43d6000803e8080156100be573d6000f35b3d6000fd5b60606001600160a01b0384163b6101305760405162461bcd60e51b815260206004820152602660248201527f416464726573733a2064656c65676174652063616c6c20746f206e6f6e2d636f6044820152651b9d1c9858dd60d21b60648201526084015b60405180910390fd5b600080856001600160a01b03168560405161014b91906101de565b600060405180830381855af49150503d8060008114610186576040519150601f19603f3d011682016040523d82523d6000602084013e61018b565b606091505b509150915061019b8282866101a5565b9695505050505050565b606083156101b457508161004e565b8251156101c45782518084602001fd5b8160405162461bcd60e51b815260040161012791906101fa565b600082516101f081846020870161022d565b9190910192915050565b602081526000825180602084015261021981604085016020870161022d565b601f01601f19169190910160400192915050565b60005b83811015610248578181015183820152602001610230565b83811115610257576000848401525b5050505056fe416464726573733a206c6f772d6c6576656c2064656c65676174652063616c6c206661696c6564a26469706673582212203f90f01760a3fb86c9c8320cdb707a76979bbded46a4033a6a8dc276b5de4a1864736f6c63430008070033360894a13ba1a3210667c828492db98dca3e2076cc3735a920a3ca505d382bbc416464726573733a206c6f772d6c6576656c2064656c65676174652063616c6c206661696c6564360894a13ba1a3210667c828492db98dca3e2076cc3735a920a3ca505d382bbc416464726573733a206c6f772d6c6576656c2064656c65676174652063616c6c206661696c6564a264697066735822122087319fb9e4781645520da45f7a8608bdcbdcf29c6b1510e43378e104302677b464736f6c63430008070033",
  "devdoc": {
    "kind": "dev",
    "methods": {
      "onERC721Received(address,address,uint256,bytes)": {
        "details": "See {IERC721Receiver-onERC721Received}. Always returns `IERC721Receiver.onERC721Received.selector`."
      },
      "proxiableUUID()": {
        "details": "Implementation of the ERC1822 {proxiableUUID} function. This returns the storage slot used by the implementation. It is used to validate that the this implementation remains valid after an upgrade. IMPORTANT: A proxy pointing at a proxiable contract should not be considered proxiable itself, because this risks bricking a proxy that upgrades to it, by delegating to itself until out of gas. Thus it is critical that this function revert if invoked through a proxy. This is guaranteed by the `notDelegated` modifier."
      },
      "supportsInterface(bytes4)": {
        "details": "See {IERC165-supportsInterface}."
      },
      "upgradeTo(address)": {
        "details": "Upgrade the implementation of the proxy to `newImplementation`. Calls {_authorizeUpgrade}. Emits an {Upgraded} event."
      },
      "upgradeToAndCall(address,bytes)": {
        "details": "Upgrade the implementation of the proxy to `newImplementation`, and subsequently execute the function call encoded in `data`. Calls {_authorizeUpgrade}. Emits an {Upgraded} event."
      }
    },
    "version": 1
  },
  "userdoc": {
    "kind": "user",
    "methods": {},
    "version": 1
  },
  "storageLayout": {
    "storage": [
      {
        "astId": 2736,
        "contract": "contracts/Dao.sol:Dao",
        "label": "_initialized",
        "offset": 0,
        "slot": "0",
        "type": "t_bool"
      },
      {
        "astId": 2739,
        "contract": "contracts/Dao.sol:Dao",
        "label": "_initializing",
        "offset": 1,
        "slot": "0",
        "type": "t_bool"
      },
      {
        "astId": 2718,
        "contract": "contracts/Dao.sol:Dao",
        "label": "__gap",
        "offset": 0,
        "slot": "1",
        "type": "t_array(t_uint256)50_storage"
      },
      {
        "astId": 2938,
        "contract": "contracts/Dao.sol:Dao",
        "label": "__gap",
        "offset": 0,
        "slot": "51",
        "type": "t_array(t_uint256)50_storage"
      },
      {
        "astId": 7132,
        "contract": "contracts/Dao.sol:Dao",
        "label": "__gap",
        "offset": 0,
        "slot": "101",
        "type": "t_array(t_uint256)50_storage"
      },
      {
        "astId": 8803,
        "contract": "contracts/Dao.sol:Dao",
        "label": "__gap",
        "offset": 0,
        "slot": "151",
        "type": "t_array(t_uint256)50_storage"
      },
      {
        "astId": 4359,
        "contract": "contracts/Dao.sol:Dao",
        "label": "__gap",
        "offset": 0,
        "slot": "201",
        "type": "t_array(t_uint256)50_storage"
      },
      {
        "astId": 4305,
        "contract": "contracts/Dao.sol:Dao",
        "label": "__gap",
        "offset": 0,
        "slot": "251",
        "type": "t_array(t_uint256)50_storage"
      },
      {
        "astId": 20989,
        "contract": "contracts/Dao.sol:Dao",
        "label": "team",
        "offset": 0,
        "slot": "301",
        "type": "t_address"
      },
      {
        "astId": 20993,
        "contract": "contracts/Dao.sol:Dao",
        "label": "budgetApprovals",
        "offset": 0,
        "slot": "302",
        "type": "t_mapping(t_address,t_bool)"
      },
      {
        "astId": 15921,
        "contract": "contracts/Dao.sol:Dao",
        "label": "memberToken",
        "offset": 0,
        "slot": "303",
        "type": "t_address"
      },
      {
        "astId": 15923,
        "contract": "contracts/Dao.sol:Dao",
        "label": "creator",
        "offset": 0,
        "slot": "304",
        "type": "t_address"
      },
      {
        "astId": 15925,
        "contract": "contracts/Dao.sol:Dao",
        "label": "adam",
        "offset": 0,
        "slot": "305",
        "type": "t_address"
      },
      {
        "astId": 15927,
        "contract": "contracts/Dao.sol:Dao",
        "label": "membership",
        "offset": 0,
        "slot": "306",
        "type": "t_address"
      },
      {
        "astId": 15929,
        "contract": "contracts/Dao.sol:Dao",
        "label": "liquidPool",
        "offset": 0,
        "slot": "307",
        "type": "t_address"
      },
      {
        "astId": 15931,
        "contract": "contracts/Dao.sol:Dao",
        "label": "governFactory",
        "offset": 0,
        "slot": "308",
        "type": "t_address"
      },
      {
        "astId": 15933,
        "contract": "contracts/Dao.sol:Dao",
        "label": "name",
        "offset": 0,
        "slot": "309",
        "type": "t_string_storage"
      },
      {
        "astId": 15935,
        "contract": "contracts/Dao.sol:Dao",
        "label": "locktime",
        "offset": 0,
        "slot": "310",
        "type": "t_uint256"
      },
      {
        "astId": 15937,
        "contract": "contracts/Dao.sol:Dao",
        "label": "minDepositAmount",
        "offset": 0,
        "slot": "311",
        "type": "t_uint256"
      },
      {
        "astId": 15939,
        "contract": "contracts/Dao.sol:Dao",
        "label": "baseCurrency",
        "offset": 0,
        "slot": "312",
        "type": "t_address"
      },
      {
        "astId": 15941,
        "contract": "contracts/Dao.sol:Dao",
        "label": "logoCID",
        "offset": 0,
        "slot": "313",
        "type": "t_string_storage"
      },
      {
        "astId": 15944,
        "contract": "contracts/Dao.sol:Dao",
        "label": "admissionTokens",
        "offset": 0,
        "slot": "314",
        "type": "t_array(t_address)dyn_storage"
      },
      {
        "astId": 15948,
        "contract": "contracts/Dao.sol:Dao",
        "label": "firstDepositTime",
        "offset": 0,
        "slot": "315",
        "type": "t_mapping(t_address,t_uint256)"
      },
      {
        "astId": 15952,
        "contract": "contracts/Dao.sol:Dao",
        "label": "isAssetSupported",
        "offset": 0,
        "slot": "316",
        "type": "t_mapping(t_address,t_bool)"
      },
      {
        "astId": 15956,
        "contract": "contracts/Dao.sol:Dao",
        "label": "teamWhitelist",
        "offset": 0,
        "slot": "317",
        "type": "t_mapping(t_uint256,t_bool)"
      },
      {
        "astId": 15961,
        "contract": "contracts/Dao.sol:Dao",
        "label": "admissionTokenSetting",
        "offset": 0,
        "slot": "318",
        "type": "t_mapping(t_address,t_struct(AdmissionTokenSetting)15912_storage)"
      }
    ],
    "types": {
      "t_address": {
        "encoding": "inplace",
        "label": "address",
        "numberOfBytes": "20"
      },
      "t_array(t_address)dyn_storage": {
        "base": "t_address",
        "encoding": "dynamic_array",
        "label": "address[]",
        "numberOfBytes": "32"
      },
      "t_array(t_uint256)50_storage": {
        "base": "t_uint256",
        "encoding": "inplace",
        "label": "uint256[50]",
        "numberOfBytes": "1600"
      },
      "t_bool": {
        "encoding": "inplace",
        "label": "bool",
        "numberOfBytes": "1"
      },
      "t_mapping(t_address,t_bool)": {
        "encoding": "mapping",
        "key": "t_address",
        "label": "mapping(address => bool)",
        "numberOfBytes": "32",
        "value": "t_bool"
      },
      "t_mapping(t_address,t_struct(AdmissionTokenSetting)15912_storage)": {
        "encoding": "mapping",
        "key": "t_address",
        "label": "mapping(address => struct Dao.AdmissionTokenSetting)",
        "numberOfBytes": "32",
        "value": "t_struct(AdmissionTokenSetting)15912_storage"
      },
      "t_mapping(t_address,t_uint256)": {
        "encoding": "mapping",
        "key": "t_address",
        "label": "mapping(address => uint256)",
        "numberOfBytes": "32",
        "value": "t_uint256"
      },
      "t_mapping(t_uint256,t_bool)": {
        "encoding": "mapping",
        "key": "t_uint256",
        "label": "mapping(uint256 => bool)",
        "numberOfBytes": "32",
        "value": "t_bool"
      },
      "t_string_storage": {
        "encoding": "bytes",
        "label": "string",
        "numberOfBytes": "32"
      },
      "t_struct(AdmissionTokenSetting)15912_storage": {
        "encoding": "inplace",
        "label": "struct Dao.AdmissionTokenSetting",
        "members": [
          {
            "astId": 15909,
            "contract": "contracts/Dao.sol:Dao",
            "label": "minTokenToAdmit",
            "offset": 0,
            "slot": "0",
            "type": "t_uint256"
          },
          {
            "astId": 15911,
            "contract": "contracts/Dao.sol:Dao",
            "label": "tokenId",
            "offset": 0,
            "slot": "1",
            "type": "t_uint256"
          }
        ],
        "numberOfBytes": "64"
      },
      "t_uint256": {
        "encoding": "inplace",
        "label": "uint256",
        "numberOfBytes": "32"
      }
    }
  }
}