{
  "address": "0x407fa31CfB9b114C6BfE086fEC2A1f9f6374203F",
  "abi": [
    {
      "anonymous": false,
      "inputs": [
        {
          "indexed": false,
          "internalType": "address",
          "name": "token",
          "type": "address"
        },
        {
          "indexed": false,
          "internalType": "uint256",
          "name": "minTokenToAdmit",
          "type": "uint256"
        },
        {
          "indexed": false,
          "internalType": "uint256",
          "name": "tokenId",
          "type": "uint256"
        },
        {
          "indexed": false,
          "internalType": "bool",
          "name": "isMemberToken",
          "type": "bool"
        }
      ],
      "name": "AddAdmissionToken",
      "type": "event"
    },
    {
      "anonymous": false,
      "inputs": [
        {
          "indexed": false,
          "internalType": "address",
          "name": "previousAdmin",
          "type": "address"
        },
        {
          "indexed": false,
          "internalType": "address",
          "name": "newAdmin",
          "type": "address"
        }
      ],
      "name": "AdminChanged",
      "type": "event"
    },
    {
      "anonymous": false,
      "inputs": [
        {
          "indexed": false,
          "internalType": "address",
          "name": "token",
          "type": "address"
        }
      ],
      "name": "AllowDepositToken",
      "type": "event"
    },
    {
      "anonymous": false,
      "inputs": [
        {
          "indexed": true,
          "internalType": "address",
          "name": "beacon",
          "type": "address"
        }
      ],
      "name": "BeaconUpgraded",
      "type": "event"
    },
    {
      "anonymous": false,
      "inputs": [
        {
          "indexed": false,
          "internalType": "address",
          "name": "budgetApproval",
          "type": "address"
        },
        {
          "indexed": false,
          "internalType": "bytes",
          "name": "data",
          "type": "bytes"
        }
      ],
      "name": "CreateBudgetApproval",
      "type": "event"
    },
    {
      "anonymous": false,
      "inputs": [
        {
          "indexed": false,
          "internalType": "address",
          "name": "account",
          "type": "address"
        },
        {
          "indexed": false,
          "internalType": "uint256",
          "name": "depositAmount",
          "type": "uint256"
        }
      ],
      "name": "CreateMember",
      "type": "event"
    },
    {
      "anonymous": false,
      "inputs": [
        {
          "indexed": false,
          "internalType": "address",
          "name": "creator",
          "type": "address"
        },
        {
          "indexed": false,
          "internalType": "address",
          "name": "token",
          "type": "address"
        }
      ],
      "name": "CreateMemberToken",
      "type": "event"
    },
    {
      "anonymous": false,
      "inputs": [
        {
          "indexed": false,
          "internalType": "address",
          "name": "owner",
          "type": "address"
        },
        {
          "indexed": false,
          "internalType": "uint256",
          "name": "time",
          "type": "uint256"
        }
      ],
      "name": "SetFirstDepositTime",
      "type": "event"
    },
    {
      "anonymous": false,
      "inputs": [
        {
          "indexed": true,
          "internalType": "address",
          "name": "implementation",
          "type": "address"
        }
      ],
      "name": "Upgraded",
      "type": "event"
    },
    {
      "anonymous": false,
      "inputs": [
        {
          "indexed": false,
          "internalType": "uint256",
          "name": "tokenId",
          "type": "uint256"
        }
      ],
      "name": "WhitelistTeam",
      "type": "event"
    },
    {
      "inputs": [],
      "name": "adam",
      "outputs": [
        {
          "internalType": "address",
          "name": "",
          "type": "address"
        }
      ],
      "stateMutability": "view",
      "type": "function"
    },
    {
      "inputs": [
        {
          "internalType": "address[]",
          "name": "erc20s",
          "type": "address[]"
        }
      ],
      "name": "addAssets",
      "outputs": [],
      "stateMutability": "nonpayable",
      "type": "function"
    },
    {
      "inputs": [
        {
          "internalType": "address",
          "name": "",
          "type": "address"
        }
      ],
      "name": "admissionTokenSetting",
      "outputs": [
        {
          "internalType": "uint256",
          "name": "minTokenToAdmit",
          "type": "uint256"
        },
        {
          "internalType": "uint256",
          "name": "tokenId",
          "type": "uint256"
        }
      ],
      "stateMutability": "view",
      "type": "function"
    },
    {
      "inputs": [
        {
          "internalType": "uint256",
          "name": "",
          "type": "uint256"
        }
      ],
      "name": "admissionTokens",
      "outputs": [
        {
          "internalType": "address",
          "name": "",
          "type": "address"
        }
      ],
      "stateMutability": "view",
      "type": "function"
    },
    {
      "inputs": [
        {
          "internalType": "address",
          "name": "account",
          "type": "address"
        },
        {
          "internalType": "uint256",
          "name": "amount",
          "type": "uint256"
        }
      ],
      "name": "afterDeposit",
      "outputs": [],
      "stateMutability": "nonpayable",
      "type": "function"
    },
    {
      "inputs": [],
      "name": "baseCurrency",
      "outputs": [
        {
          "internalType": "address",
          "name": "",
          "type": "address"
        }
      ],
      "stateMutability": "view",
      "type": "function"
    },
    {
      "inputs": [
        {
          "internalType": "address",
          "name": "",
          "type": "address"
        }
      ],
      "name": "budgetApprovals",
      "outputs": [
        {
          "internalType": "bool",
          "name": "",
          "type": "bool"
        }
      ],
      "stateMutability": "view",
      "type": "function"
    },
    {
      "inputs": [
        {
          "internalType": "address",
          "name": "account",
          "type": "address"
        }
      ],
      "name": "byPassGovern",
      "outputs": [
        {
          "internalType": "bool",
          "name": "",
          "type": "bool"
        }
      ],
      "stateMutability": "view",
      "type": "function"
    },
    {
      "inputs": [
        {
          "internalType": "address",
          "name": "budgetApproval",
          "type": "address"
        }
      ],
      "name": "canCreateBudgetApproval",
      "outputs": [
        {
          "internalType": "bool",
          "name": "",
          "type": "bool"
        }
      ],
      "stateMutability": "view",
      "type": "function"
    },
    {
      "inputs": [
        {
          "internalType": "address[]",
          "name": "_budgetApprovals",
          "type": "address[]"
        },
        {
          "internalType": "bytes[]",
          "name": "data",
          "type": "bytes[]"
        }
      ],
      "name": "createBudgetApprovals",
      "outputs": [],
      "stateMutability": "nonpayable",
      "type": "function"
    },
    {
      "inputs": [
        {
          "internalType": "string",
          "name": "_name",
          "type": "string"
        },
        {
          "internalType": "uint256",
          "name": "duration",
          "type": "uint256"
        },
        {
          "internalType": "uint256",
          "name": "quorum",
          "type": "uint256"
        },
        {
          "internalType": "uint256",
          "name": "passThreshold",
          "type": "uint256"
        },
        {
          "internalType": "uint256[]",
          "name": "voteWeights",
          "type": "uint256[]"
        },
        {
          "internalType": "uint256",
          "name": "voteToken",
          "type": "uint256"
        }
      ],
      "name": "createGovern",
      "outputs": [],
      "stateMutability": "nonpayable",
      "type": "function"
    },
    {
      "inputs": [
        {
          "internalType": "string",
          "name": "title",
          "type": "string"
        },
        {
          "internalType": "address",
          "name": "minter",
          "type": "address"
        },
        {
          "internalType": "address[]",
          "name": "members",
          "type": "address[]"
        },
        {
          "internalType": "string",
          "name": "description",
          "type": "string"
        }
      ],
      "name": "createTeam",
      "outputs": [],
      "stateMutability": "nonpayable",
      "type": "function"
    },
    {
      "inputs": [],
      "name": "creator",
      "outputs": [
        {
          "internalType": "address",
          "name": "",
          "type": "address"
        }
      ],
      "stateMutability": "view",
      "type": "function"
    },
    {
      "inputs": [
        {
          "internalType": "address",
          "name": "_to",
          "type": "address"
        },
        {
          "internalType": "bytes",
          "name": "_data",
          "type": "bytes"
        },
        {
          "internalType": "uint256",
          "name": "_value",
          "type": "uint256"
        }
      ],
      "name": "executeByBudgetApproval",
      "outputs": [
        {
          "internalType": "bytes",
          "name": "",
          "type": "bytes"
        }
      ],
      "stateMutability": "nonpayable",
      "type": "function"
    },
    {
      "inputs": [
        {
          "internalType": "address",
          "name": "",
          "type": "address"
        }
      ],
      "name": "firstDepositTime",
      "outputs": [
        {
          "internalType": "uint256",
          "name": "",
          "type": "uint256"
        }
      ],
      "stateMutability": "view",
      "type": "function"
    },
    {
      "inputs": [
        {
          "internalType": "string",
          "name": "gName",
          "type": "string"
        }
      ],
      "name": "govern",
      "outputs": [
        {
          "internalType": "address",
          "name": "",
          "type": "address"
        }
      ],
      "stateMutability": "view",
      "type": "function"
    },
    {
      "inputs": [],
      "name": "governFactory",
      "outputs": [
        {
          "internalType": "address",
          "name": "",
          "type": "address"
        }
      ],
      "stateMutability": "view",
      "type": "function"
    },
    {
      "inputs": [
        {
          "components": [
            {
              "internalType": "address",
              "name": "_creator",
              "type": "address"
            },
            {
              "internalType": "address",
              "name": "_membership",
              "type": "address"
            },
            {
              "internalType": "address",
              "name": "_liquidPool",
              "type": "address"
            },
            {
              "internalType": "address",
              "name": "_governFactory",
              "type": "address"
            },
            {
              "internalType": "address",
              "name": "_team",
              "type": "address"
            },
            {
              "internalType": "address",
              "name": "_memberTokenImplementation",
              "type": "address"
            },
            {
              "internalType": "string",
              "name": "_name",
              "type": "string"
            },
            {
              "internalType": "string",
              "name": "_description",
              "type": "string"
            },
            {
              "internalType": "uint256",
              "name": "_locktime",
              "type": "uint256"
            },
            {
              "internalType": "uint256[4]",
              "name": "generalGovernSetting",
              "type": "uint256[4]"
            },
            {
              "internalType": "string[]",
              "name": "tokenInfo",
              "type": "string[]"
            },
            {
              "internalType": "uint256",
              "name": "tokenAmount",
              "type": "uint256"
            },
            {
              "components": [
                {
                  "internalType": "uint256",
                  "name": "minDepositAmount",
                  "type": "uint256"
                }
              ],
              "internalType": "struct Dao.DaoSetting",
              "name": "daoSetting",
              "type": "tuple"
            },
            {
              "internalType": "address[]",
              "name": "depositTokens",
              "type": "address[]"
            },
            {
              "internalType": "bool",
              "name": "mintMemberToken",
              "type": "bool"
            },
            {
              "components": [
                {
                  "internalType": "address",
                  "name": "token",
                  "type": "address"
                },
                {
                  "internalType": "uint256",
                  "name": "minTokenToAdmit",
                  "type": "uint256"
                },
                {
                  "internalType": "uint256",
                  "name": "tokenId",
                  "type": "uint256"
                },
                {
                  "internalType": "bool",
                  "name": "isMemberToken",
                  "type": "bool"
                }
              ],
              "internalType": "struct Dao.AdmissionToken[]",
              "name": "admissionTokens",
              "type": "tuple[]"
            },
            {
              "internalType": "address",
              "name": "baseCurrency",
              "type": "address"
            },
            {
              "internalType": "string",
              "name": "logoCID",
              "type": "string"
            }
          ],
          "internalType": "struct Dao.InitializeParams",
          "name": "params",
          "type": "tuple"
        }
      ],
      "name": "initialize",
      "outputs": [],
      "stateMutability": "nonpayable",
      "type": "function"
    },
    {
      "inputs": [
        {
          "internalType": "address",
          "name": "",
          "type": "address"
        }
      ],
      "name": "isAssetSupported",
      "outputs": [
        {
          "internalType": "bool",
          "name": "",
          "type": "bool"
        }
      ],
      "stateMutability": "view",
      "type": "function"
    },
    {
      "inputs": [
        {
          "internalType": "address",
          "name": "account",
          "type": "address"
        }
      ],
      "name": "isMember",
      "outputs": [
        {
          "internalType": "bool",
          "name": "",
          "type": "bool"
        }
      ],
      "stateMutability": "view",
      "type": "function"
    },
    {
      "inputs": [
        {
          "internalType": "address",
          "name": "account",
          "type": "address"
        }
      ],
      "name": "isPassAdmissionToken",
      "outputs": [
        {
          "internalType": "bool",
          "name": "",
          "type": "bool"
        }
      ],
      "stateMutability": "view",
      "type": "function"
    },
    {
      "inputs": [],
      "name": "liquidPool",
      "outputs": [
        {
          "internalType": "address",
          "name": "",
          "type": "address"
        }
      ],
      "stateMutability": "view",
      "type": "function"
    },
    {
      "inputs": [],
      "name": "locktime",
      "outputs": [
        {
          "internalType": "uint256",
          "name": "",
          "type": "uint256"
        }
      ],
      "stateMutability": "view",
      "type": "function"
    },
    {
      "inputs": [],
      "name": "logoCID",
      "outputs": [
        {
          "internalType": "string",
          "name": "",
          "type": "string"
        }
      ],
      "stateMutability": "view",
      "type": "function"
    },
    {
      "inputs": [],
      "name": "memberToken",
      "outputs": [
        {
          "internalType": "address",
          "name": "",
          "type": "address"
        }
      ],
      "stateMutability": "view",
      "type": "function"
    },
    {
      "inputs": [],
      "name": "membership",
      "outputs": [
        {
          "internalType": "address",
          "name": "",
          "type": "address"
        }
      ],
      "stateMutability": "view",
      "type": "function"
    },
    {
      "inputs": [],
      "name": "minDepositAmount",
      "outputs": [
        {
          "internalType": "uint256",
          "name": "",
          "type": "uint256"
        }
      ],
      "stateMutability": "view",
      "type": "function"
    },
    {
      "inputs": [
        {
          "internalType": "address",
          "name": "owner",
          "type": "address"
        }
      ],
      "name": "mintMember",
      "outputs": [],
      "stateMutability": "nonpayable",
      "type": "function"
    },
    {
      "inputs": [
        {
          "internalType": "uint256",
          "name": "amount",
          "type": "uint256"
        }
      ],
      "name": "mintMemberToken",
      "outputs": [],
      "stateMutability": "nonpayable",
      "type": "function"
    },
    {
      "inputs": [],
      "name": "name",
      "outputs": [
        {
          "internalType": "string",
          "name": "",
          "type": "string"
        }
      ],
      "stateMutability": "view",
      "type": "function"
    },
    {
      "inputs": [
        {
          "internalType": "address",
          "name": "",
          "type": "address"
        },
        {
          "internalType": "address",
          "name": "",
          "type": "address"
        },
        {
          "internalType": "uint256[]",
          "name": "",
          "type": "uint256[]"
        },
        {
          "internalType": "uint256[]",
          "name": "",
          "type": "uint256[]"
        },
        {
          "internalType": "bytes",
          "name": "",
          "type": "bytes"
        }
      ],
      "name": "onERC1155BatchReceived",
      "outputs": [
        {
          "internalType": "bytes4",
          "name": "",
          "type": "bytes4"
        }
      ],
      "stateMutability": "nonpayable",
      "type": "function"
    },
    {
      "inputs": [
        {
          "internalType": "address",
          "name": "",
          "type": "address"
        },
        {
          "internalType": "address",
          "name": "",
          "type": "address"
        },
        {
          "internalType": "uint256",
          "name": "",
          "type": "uint256"
        },
        {
          "internalType": "uint256",
          "name": "",
          "type": "uint256"
        },
        {
          "internalType": "bytes",
          "name": "",
          "type": "bytes"
        }
      ],
      "name": "onERC1155Received",
      "outputs": [
        {
          "internalType": "bytes4",
          "name": "",
          "type": "bytes4"
        }
      ],
      "stateMutability": "nonpayable",
      "type": "function"
    },
    {
      "inputs": [
        {
          "internalType": "address",
          "name": "",
          "type": "address"
        },
        {
          "internalType": "address",
          "name": "",
          "type": "address"
        },
        {
          "internalType": "uint256",
          "name": "",
          "type": "uint256"
        },
        {
          "internalType": "bytes",
          "name": "",
          "type": "bytes"
        }
      ],
      "name": "onERC721Received",
      "outputs": [
        {
          "internalType": "bytes4",
          "name": "",
          "type": "bytes4"
        }
      ],
      "stateMutability": "nonpayable",
      "type": "function"
    },
    {
      "inputs": [],
      "name": "proxiableUUID",
      "outputs": [
        {
          "internalType": "bytes32",
          "name": "",
          "type": "bytes32"
        }
      ],
      "stateMutability": "view",
      "type": "function"
    },
    {
      "inputs": [
        {
          "internalType": "address",
          "name": "owner",
          "type": "address"
        }
      ],
      "name": "setFirstDepositTime",
      "outputs": [],
      "stateMutability": "nonpayable",
      "type": "function"
    },
    {
      "inputs": [
        {
          "internalType": "bytes4",
          "name": "interfaceId",
          "type": "bytes4"
        }
      ],
      "name": "supportsInterface",
      "outputs": [
        {
          "internalType": "bool",
          "name": "",
          "type": "bool"
        }
      ],
      "stateMutability": "view",
      "type": "function"
    },
    {
      "inputs": [],
      "name": "team",
      "outputs": [
        {
          "internalType": "address",
          "name": "",
          "type": "address"
        }
      ],
      "stateMutability": "view",
      "type": "function"
    },
    {
      "inputs": [
        {
          "internalType": "uint256",
          "name": "",
          "type": "uint256"
        }
      ],
      "name": "teamWhitelist",
      "outputs": [
        {
          "internalType": "bool",
          "name": "",
          "type": "bool"
        }
      ],
      "stateMutability": "view",
      "type": "function"
    },
    {
      "inputs": [
        {
          "internalType": "address",
          "name": "to",
          "type": "address"
        },
        {
          "internalType": "uint256",
          "name": "amount",
          "type": "uint256"
        }
      ],
      "name": "transferMemberToken",
      "outputs": [],
      "stateMutability": "nonpayable",
      "type": "function"
    },
    {
      "inputs": [
        {
          "components": [
            {
              "internalType": "uint256",
              "name": "minDepositAmount",
              "type": "uint256"
            }
          ],
          "internalType": "struct Dao.DaoSetting",
          "name": "_setting",
          "type": "tuple"
        }
      ],
      "name": "updateDaoSetting",
      "outputs": [],
      "stateMutability": "nonpayable",
      "type": "function"
    },
    {
      "inputs": [
        {
          "internalType": "address",
          "name": "target",
          "type": "address"
        },
        {
          "internalType": "address",
          "name": "newImplementation",
          "type": "address"
        }
      ],
      "name": "upgradeContractTo",
      "outputs": [],
      "stateMutability": "nonpayable",
      "type": "function"
    },
    {
      "inputs": [
        {
          "internalType": "address",
          "name": "target",
          "type": "address"
        },
        {
          "internalType": "address",
          "name": "newImplementation",
          "type": "address"
        },
        {
          "internalType": "bytes",
          "name": "data",
          "type": "bytes"
        }
      ],
      "name": "upgradeContractToAndCall",
      "outputs": [],
      "stateMutability": "payable",
      "type": "function"
    },
    {
      "inputs": [
        {
          "internalType": "address",
          "name": "newImplementation",
          "type": "address"
        }
      ],
      "name": "upgradeTo",
      "outputs": [],
      "stateMutability": "nonpayable",
      "type": "function"
    },
    {
      "inputs": [
        {
          "internalType": "address",
          "name": "newImplementation",
          "type": "address"
        },
        {
          "internalType": "bytes",
          "name": "data",
          "type": "bytes"
        }
      ],
      "name": "upgradeToAndCall",
      "outputs": [],
      "stateMutability": "payable",
      "type": "function"
    },
    {
      "stateMutability": "payable",
      "type": "receive"
    }
  ],
  "transactionHash": "0xb9ed8c0b3a7db084fe3f1684b48cad8393e3b4f96818d75fe24b621bba30617f",
  "args": [],
  "numDeployments": 1,
  "solcInputHash": "86dfe1265a8c9c9d3960345b0927392b",
  "bytecode": "0x60a06040523060601b60805234801561001757600080fd5b5060805160601c61495361005260003960008181610b4a01528181610b8d01528181610fd80152818161101b01526110b701526149536000f3fe6080604052600436106200029f5760003560e01c806399353316116200015f578063bea2153411620000c5578063d3abc28b1162000084578063d3abc28b1462000879578063df79812e146200089e578063e3c1fe9814620008c3578063eb6d00a614620008e8578063ed0b66bc1462000937578063f23a6e61146200095c57600080fd5b8063bea2153414620007c0578063c311769514620007e5578063c69e6c40146200080a578063c7151157146200082f578063d0244e82146200085457600080fd5b8063a2bf68b9116200011e578063a2bf68b914620006e6578063aea321c61462000709578063b34bacdd146200072e578063b6dbbc561462000746578063bc197c81146200076b578063bcfb1a40146200079b57600080fd5b806399353316146200061d5780639c7880d71462000642578063a177db131462000667578063a230c524146200068c578063a240663e14620006b157600080fd5b806352d1902d11620002055780636cb7c6f911620001c45780636cb7c6f9146200053a57806385f2aef2146200056c57806389409516146200058f5780638b805e9614620005b25780638e3d5d5614620005d757806392a85fde14620005fa57600080fd5b806352d1902d146200049b57806357338b2214620004c25780635cb5438414620004e557806361c533b41462000508578063645006ca146200052157600080fd5b80632f10e236116200025e5780632f10e23614620003ab5780633659cfe614620003e05780633e0f7fde1462000405578063406cfb75146200042a578063464b4158146200044f5780634f1ef286146200048457600080fd5b806301ffc9a714620002ac57806302d05d3f14620002e657806306fdde031462000322578063150b7a02146200034957806323663ab6146200039257600080fd5b36620002a757005b600080fd5b348015620002b957600080fd5b50620002d1620002cb36600462003884565b6200098c565b60405190151581526020015b60405180910390f35b348015620002f357600080fd5b506101305462000309906001600160a01b031681565b6040516001600160a01b039091168152602001620002dd565b3480156200032f57600080fd5b506200033a620009c4565b604051620002dd919062003d11565b3480156200035657600080fd5b50620003786200036836600462003537565b630a85bd0160e11b949350505050565b6040516001600160e01b03199091168152602001620002dd565b620003a9620003a3366004620034ce565b62000a5b565b005b348015620003b857600080fd5b50620002d1620003ca36600462003b9b565b61013d6020526000908152604090205460ff1681565b348015620003ed57600080fd5b50620003a9620003ff36600462003395565b62000b3f565b3480156200041257600080fd5b50620003a96200042436600462003a2c565b62000c2b565b3480156200043757600080fd5b50620002d16200044936600462003395565b62000d8a565b3480156200045c57600080fd5b50620002d16200046e36600462003395565b61013c6020526000908152604090205460ff1681565b620003a9620004953660046200361a565b62000fcd565b348015620004a857600080fd5b50620004b3620010aa565b604051908152602001620002dd565b348015620004cf57600080fd5b506101335462000309906001600160a01b031681565b348015620004f257600080fd5b5061012f5462000309906001600160a01b031681565b3480156200051557600080fd5b50620004b36101365481565b3480156200052e57600080fd5b50620004b36101375481565b3480156200054757600080fd5b50620004b36200055936600462003395565b61013b6020526000908152604090205481565b3480156200057957600080fd5b5061012d5462000309906001600160a01b031681565b3480156200059c57600080fd5b506101345462000309906001600160a01b031681565b348015620005bf57600080fd5b50620003a9620005d136600462003b9b565b62001160565b348015620005e457600080fd5b506101315462000309906001600160a01b031681565b3480156200060757600080fd5b506101385462000309906001600160a01b031681565b3480156200062a57600080fd5b50620003a96200063c366004620038b0565b620011dc565b3480156200064f57600080fd5b50620003a96200066136600462003b44565b620012cf565b3480156200067457600080fd5b50620003a96200068636600462003395565b62001348565b3480156200069957600080fd5b50620002d1620006ab36600462003395565b620013e9565b348015620006be57600080fd5b50620002d1620006d036600462003395565b61012e6020526000908152604090205460ff1681565b348015620006f357600080fd5b506101325462000309906001600160a01b031681565b3480156200071657600080fd5b50620003a962000728366004620036fc565b6200146d565b3480156200073b57600080fd5b506200033a62001521565b3480156200075357600080fd5b50620002d16200076536600462003395565b62001531565b3480156200077857600080fd5b50620003786200078a36600462003413565b63bc197c8160e01b95945050505050565b348015620007a857600080fd5b5062000309620007ba36600462003b9b565b620015c9565b348015620007cd57600080fd5b50620003a9620007df366004620033d5565b620015f5565b348015620007f257600080fd5b50620003a962000804366004620036cd565b620016c8565b3480156200081757600080fd5b50620003096200082936600462003976565b62001745565b3480156200083c57600080fd5b50620003a96200084e36600462003395565b620017cf565b3480156200086157600080fd5b50620003a96200087336600462003b5d565b62001821565b3480156200088657600080fd5b506200033a620008983660046200366f565b62001c39565b348015620008ab57600080fd5b50620003a9620008bd36600462003741565b62001d89565b348015620008d057600080fd5b50620003a9620008e2366004620036cd565b62001f68565b348015620008f557600080fd5b50620009216200090736600462003395565b61013e602052600090815260409020805460019091015482565b60408051928352602083019190915201620002dd565b3480156200094457600080fd5b50620002d16200095636600462003395565b620020a6565b3480156200096957600080fd5b50620003786200097b366004620035aa565b63f23a6e6160e01b95945050505050565b60006001600160e01b03198216630271189760e51b1480620009be57506301ffc9a760e01b6001600160e01b03198316145b92915050565b6101358054620009d4906200405d565b80601f016020809104026020016040519081016040528092919081815260200182805462000a02906200405d565b801562000a535780601f1062000a275761010080835404028352916020019162000a53565b820191906000526020600020905b81548152906001019060200180831162000a3557829003601f168201915b505050505081565b6040518060400160405280600781526020016611d95b995c985b60ca1b81525062000a863362001531565b8062000aad575062000a988162001745565b6001600160a01b0316336001600160a01b0316145b62000ad55760405162461bcd60e51b815260040162000acc9062003e04565b60405180910390fd5b60405163278f794360e11b81526001600160a01b03851690634f1ef2869062000b05908690869060040162003ca3565b600060405180830381600087803b15801562000b2057600080fd5b505af115801562000b35573d6000803e3d6000fd5b5050505050505050565b306001600160a01b037f000000000000000000000000000000000000000000000000000000000000000016141562000b8b5760405162461bcd60e51b815260040162000acc9062003e32565b7f00000000000000000000000000000000000000000000000000000000000000006001600160a01b031662000bd6600080516020620048d7833981519152546001600160a01b031690565b6001600160a01b03161462000bff5760405162461bcd60e51b815260040162000acc9062003e7e565b62000c0a81620020db565b6040805160008082526020820190925262000c28918391906200214c565b50565b6040518060400160405280600781526020016611d95b995c985b60ca1b81525062000c563362001531565b8062000c7d575062000c688162001745565b6001600160a01b0316336001600160a01b0316145b62000c9c5760405162461bcd60e51b815260040162000acc9062003e04565b61012d546040516253153b60e01b81526000916001600160a01b0316906253153b9062000cd490899089908990899060040162003d26565b602060405180830381600087803b15801562000cef57600080fd5b505af115801562000d04573d6000803e3d6000fd5b505050506040513d601f19601f8201168201806040525081019062000d2a91906200386a565b600081815261013d602052604090819020805460ff19166001179055519091507ff94f63f5f9de5de7659ae3ccaa099cce39347833cbd85ffe78570b86f4051ab49062000d7a9083815260200190565b60405180910390a1505050505050565b6000805b61013a5481101562000fc457600061013a828154811062000db35762000db3620040d4565b60009182526020808320909101546001600160a01b031680835261013e9091526040909120549091501562000fae57600062000df8826001600160a01b0316620022d4565b1562000e84576040516370a0823160e01b81526001600160a01b0386811660048301528316906370a08231906024015b60206040518083038186803b15801562000e4157600080fd5b505afa15801562000e56573d6000803e3d6000fd5b505050506040513d601f19601f8201168201806040525081019062000e7c91906200386a565b905062000f7f565b62000e98826001600160a01b03166200235f565b1562000ee5576001600160a01b03828116600081815261013e602052604090819020600101549051627eeac760e11b8152928816600484015260248301529062fdd58e9060440162000e28565b62000ef9826001600160a01b031662002396565b1562000f7f576040516370a0823160e01b81526001600160a01b0386811660048301528316906370a082319060240160206040518083038186803b15801562000f4157600080fd5b505afa15801562000f56573d6000803e3d6000fd5b505050506040513d601f19601f8201168201806040525081019062000f7c91906200386a565b90505b6001600160a01b038216600090815261013e602052604090205481101562000fac57506000949350505050565b505b508062000fbb8162004094565b91505062000d8e565b50600192915050565b306001600160a01b037f0000000000000000000000000000000000000000000000000000000000000000161415620010195760405162461bcd60e51b815260040162000acc9062003e32565b7f00000000000000000000000000000000000000000000000000000000000000006001600160a01b031662001064600080516020620048d7833981519152546001600160a01b031690565b6001600160a01b0316146200108d5760405162461bcd60e51b815260040162000acc9062003e7e565b6200109882620020db565b620010a6828260016200214c565b5050565b6000306001600160a01b037f000000000000000000000000000000000000000000000000000000000000000016146200114c5760405162461bcd60e51b815260206004820152603860248201527f555550535570677261646561626c653a206d757374206e6f742062652063616c60448201527f6c6564207468726f7567682064656c656761746563616c6c0000000000000000606482015260840162000acc565b50600080516020620048d783398151915290565b6040518060400160405280600781526020016611d95b995c985b60ca1b8152506200118b3362001531565b80620011b257506200119d8162001745565b6001600160a01b0316336001600160a01b0316145b620011d15760405162461bcd60e51b815260040162000acc9062003e04565b620010a6826200241a565b6040518060400160405280600681526020016523b7bb32b93760d11b815250620012063362001531565b806200122d5750620012188162001745565b6001600160a01b0316336001600160a01b0316145b6200124c5760405162461bcd60e51b815260040162000acc9062003e04565b620012c489898080601f01602080910402602001604051908101604052809392919081815260200183838082843760009201919091525050604080516020808a0282810182019093528982528d94508c93508b928b918b9182918501908490808284376000920191909152508a925062002485915050565b505050505050505050565b6040518060400160405280600781526020016611d95b995c985b60ca1b815250620012fa3362001531565b806200132157506200130c8162001745565b6001600160a01b0316336001600160a01b0316145b620013405760405162461bcd60e51b815260040162000acc9062003e04565b503561013755565b610133546001600160a01b031633146200138f5760405162461bcd60e51b815260206004820152600760248201526606f6e6c79204c560cc1b604482015260640162000acc565b6001600160a01b038116600081815261013b602090815260409182902042908190558251938452908301527f7ac58570d3e556be8ffd5d5bda8bc949958077c3aa21c4b5fa11b63ed12dafa791015b60405180910390a150565b6101325460405163288c314960e21b81526001600160a01b038381166004830152600092169063a230c524906024015b60206040518083038186803b1580156200143257600080fd5b505afa15801562001447573d6000803e3d6000fd5b505050506040513d601f19601f82011682018060405250810190620009be91906200384a565b6040518060400160405280600781526020016611d95b995c985b60ca1b815250620014983362001531565b80620014bf5750620014aa8162001745565b6001600160a01b0316336001600160a01b0316145b620014de5760405162461bcd60e51b815260040162000acc9062003e04565b6200151c8383808060200260200160405190810160405280939291908181526020018383602002808284376000920191909152506200252192505050565b505050565b6101398054620009d4906200405d565b61013254604080516318160ddd60e01b815290516000926001600160a01b0316916318160ddd916004808301926020929190829003018186803b1580156200157857600080fd5b505afa1580156200158d573d6000803e3d6000fd5b505050506040513d601f19601f82011682018060405250810190620015b391906200386a565b6001148015620009be5750620009be82620013e9565b61013a8181548110620015db57600080fd5b6000918252602090912001546001600160a01b0316905081565b6040518060400160405280600781526020016611d95b995c985b60ca1b815250620016203362001531565b80620016475750620016328162001745565b6001600160a01b0316336001600160a01b0316145b620016665760405162461bcd60e51b815260040162000acc9062003e04565b604051631b2ce7f360e11b81526001600160a01b038381166004830152841690633659cfe690602401600060405180830381600087803b158015620016aa57600080fd5b505af1158015620016bf573d6000803e3d6000fd5b50505050505050565b6040518060400160405280600781526020016611d95b995c985b60ca1b815250620016f33362001531565b806200171a5750620017058162001745565b6001600160a01b0316336001600160a01b0316145b620017395760405162461bcd60e51b815260040162000acc9062003e04565b6200151c83836200256a565b6101345460405163385f5d8f60e11b81526000916001600160a01b0316906370bebb1e906200177b903090869060040162003ca3565b60206040518083038186803b1580156200179457600080fd5b505afa158015620017a9573d6000803e3d6000fd5b505050506040513d601f19601f82011682018060405250810190620009be9190620033b5565b610133546001600160a01b03163314620018165760405162461bcd60e51b815260206004820152600760248201526606f6e6c79204c560cc1b604482015260640162000acc565b62000c2881620025f5565b600054610100900460ff166200183e5760005460ff161562001842565b303b155b620018a75760405162461bcd60e51b815260206004820152602e60248201527f496e697469616c697a61626c653a20636f6e747261637420697320616c72656160448201526d191e481a5b9a5d1a585b1a5e995960921b606482015260840162000acc565b600054610100900460ff16158015620018ca576000805461ffff19166101011790555b61013180546001600160a01b03191633179055620018ec602083018362003395565b61013080546001600160a01b0319166001600160a01b03929092169190911790556200191f604083016020840162003395565b61013280546001600160a01b0319166001600160a01b039290921691909117905562001952606083016040840162003395565b61013380546001600160a01b0319166001600160a01b03929092169190911790556200198260c083018362003f62565b62001991916101359162003151565b5061010082013561013655620019ae608083016060840162003395565b61013480546001600160a01b0319166001600160a01b0392909216919091179055620019e160a083016080840162003395565b61012d80546001600160a01b0319166001600160a01b03929092169190911790556101e08201356101375562001a206102808301610260840162003395565b61013880546001600160a01b0319166001600160a01b039290921691909117905562001a5161028083018362003f62565b62001a60916101399162003151565b5062001a75610240830161022084016200382a565b1562001aad5762001aad62001a9160c0840160a0850162003395565b62001aa16101a085018562003eca565b856101c0013562002629565b6040805160018082528183019092526000916020808301908036833701905050905060018160008151811062001ae75762001ae7620040d4565b60200260200101818152505062001b4f6040518060400160405280600781526020016611d95b995c985b60ca1b815250846101200160006004811062001b315762001b31620040d4565b60200201356101408601356101608701358561018089013562002485565b62001bbe62001b6361024085018562003f16565b808060200260200160405190810160405280939291908181526020016000905b8282101562001bb35762001ba36080830286013681900381019062003ac8565b8152602001906001019062001b83565b505050505062002877565b6101305462001bd6906001600160a01b0316620025f5565b62001c2262001bea61020085018562003eca565b808060200260200160405190810160405280939291908181526020018383602002808284376000920191909152506200252192505050565b508015620010a6576000805461ff00191690555050565b33600090815261012e602052604090205460609060ff1662001cac5760405162461bcd60e51b815260206004820152602560248201527f427564676574417070726f76616c45786563757465653a206163636573732064604482015264195b9a595960da1b606482015260840162000acc565b600080856001600160a01b0316848660405162001cca919062003c52565b60006040518083038185875af1925050503d806000811462001d09576040519150601f19603f3d011682016040523d82523d6000602084013e62001d0e565b606091505b50915091508162001d7e5762001d6362001d288262002b59565b60408051808201909152601d81527f52657665727465642062792065787465726e616c20636f6e747261637400000060208201529062002bb6565b60405162461bcd60e51b815260040162000acc919062003d11565b9150505b9392505050565b805182511462001dd15760405162461bcd60e51b8152602060048201526012602482015271496e636f72726563742043616c6c6461746160701b604482015260640162000acc565b60005b82518110156200151c5762001e0583828151811062001df75762001df7620040d4565b602002602001015162002be4565b600083828151811062001e1c5762001e1c620040d4565b602002602001015183838151811062001e395762001e39620040d4565b602002602001015160405162001e4f90620031e0565b62001e5c92919062003ca3565b604051809103906000f08015801562001e79573d6000803e3d6000fd5b506001600160a01b038116600090815261012e60205260409020805460ff1916600117905583519091507f26c79e13dd63e8716f130c25331c09f2fdd55d6880bbfa7bcc38868207e8a67090829085908590811062001edc5762001edc620040d4565b602002602001015160405162001ef492919062003ca3565b60405180910390a1806001600160a01b031663cf26fec66040518163ffffffff1660e01b8152600401600060405180830381600087803b15801562001f3857600080fd5b505af115801562001f4d573d6000803e3d6000fd5b5050505050808062001f5f9062004094565b91505062001dd4565b6001600160a01b038216600090815261013b6020526040902054620010a65762001f928262001348565b6101375481101562001fe75760405162461bcd60e51b815260206004820152601960248201527f6465706f73697420616d6f756e74206e6f7420656e6f75676800000000000000604482015260640162000acc565b62001ff282620013e9565b1562001ffc575050565b620020078262000d8a565b620020555760405162461bcd60e51b815260206004820152601a60248201527f41646d697373696f6e20746f6b656e206e6f7420656e6f756768000000000000604482015260640162000acc565b6200206082620017cf565b604080516001600160a01b0384168152602081018390527fbd251213ab4f4d6ca44f082b3e6aadf9c5153e7c16bac3ac4f959462d425c23c910160405180910390a15050565b61013154604051635120331f60e11b81526001600160a01b038381166004830152600092169063a240663e9060240162001419565b6040518060400160405280600781526020016611d95b995c985b60ca1b815250620021063362001531565b806200212d5750620021188162001745565b6001600160a01b0316336001600160a01b0316145b620010a65760405162461bcd60e51b815260040162000acc9062003e04565b7f4910fdfa16fed3260ed0e7147f7cc6da11a60208b5b9406d12a635614ffd91435460ff161562002182576200151c8362002cbc565b826001600160a01b03166352d1902d6040518163ffffffff1660e01b815260040160206040518083038186803b158015620021bc57600080fd5b505afa925050508015620021ef575060408051601f3d908101601f19168201909252620021ec918101906200386a565b60015b620022545760405162461bcd60e51b815260206004820152602e60248201527f45524331393637557067726164653a206e657720696d706c656d656e7461746960448201526d6f6e206973206e6f74205555505360901b606482015260840162000acc565b600080516020620048d78339815191528114620022c65760405162461bcd60e51b815260206004820152602960248201527f45524331393637557067726164653a20756e737570706f727465642070726f786044820152681a58589b195555525160ba1b606482015260840162000acc565b506200151c83838362002d5b565b6040516301ffc9a760e01b81526380ac58cd60e01b60048201526000906001600160a01b038316906301ffc9a7906024015b60206040518083038186803b1580156200231f57600080fd5b505afa92505050801562002352575060408051601f3d908101601f191682019092526200234f918101906200384a565b60015b620009be57506000919050565b6040516301ffc9a760e01b8152636cdb3d1360e11b60048201526000906001600160a01b038316906301ffc9a79060240162002306565b6040516370a0823160e01b8152600060048201819052906001600160a01b038316906370a082319060240160206040518083038186803b158015620023da57600080fd5b505afa9250505080156200240d575060408051601f3d908101601f191682019092526200240a918101906200386a565b60015b62000fc457506000919050565b61012f546040516340c10f1960e01b8152306004820152602481018390526001600160a01b03909116906340c10f19906044015b600060405180830381600087803b1580156200246957600080fd5b505af11580156200247e573d6000803e3d6000fd5b5050505050565b6000620024a6826002811115620024a057620024a0620040be565b62002d8c565b6101345460405163c7934a2360e01b81529192506001600160a01b03169063c7934a2390620024e4908a908a908a908a908a90899060040162003d7f565b600060405180830381600087803b158015620024ff57600080fd5b505af115801562002514573d6000803e3d6000fd5b5050505050505050505050565b60005b8151811015620010a65762002555828281518110620025475762002547620040d4565b602002602001015162002f7e565b80620025618162004094565b91505062002524565b61012f5460405163a9059cbb60e01b81526001600160a01b038481166004830152602482018490529091169063a9059cbb90604401602060405180830381600087803b158015620025ba57600080fd5b505af1158015620025cf573d6000803e3d6000fd5b505050506040513d601f19601f820116820180604052508101906200151c91906200384a565b61013254604051632124d52960e01b81526001600160a01b03838116600483015290911690632124d529906024016200244e565b61012f546001600160a01b031615620026855760405162461bcd60e51b815260206004820181905260248201527f4d656d62657220746f6b656e20616c726561647920696e697469616c697a6564604482015260640162000acc565b60028214620026e85760405162461bcd60e51b815260206004820152602860248201527f496e73756666696369656e7420696e666f20746f20637265617465206d656d6260448201526732b9103a37b5b2b760c11b606482015260840162000acc565b600084604051620026f990620031e0565b6001600160a01b039091168152604060208201819052600090820152606001604051809103906000f08015801562002735573d6000803e3d6000fd5b5061012f80546001600160a01b0319166001600160a01b0383169081179091559091506390657147308686600081620027725762002772620040d4565b905060200281019062002786919062003f62565b888860018181106200279c576200279c620040d4565b9050602002810190620027b0919062003f62565b6040518663ffffffff1660e01b8152600401620027d295949392919062003cc9565b600060405180830381600087803b158015620027ed57600080fd5b505af115801562002802573d6000803e3d6000fd5b505061012f546200281f92506001600160a01b0316905062002f7e565b6200282a826200241a565b61012f54604080513381526001600160a01b0390921660208301527f51872b89ca0a4559a29252fabe8e58a51d77923ec1fdb596822e56c918df96eb910160405180910390a15050505050565b600381511115620028cb5760405162461bcd60e51b815260206004820181905260248201527f41646d697373696f6e20546f6b656e206c656e67746820746f6f206c6f6e672e604482015260640162000acc565b60005b8151811015620010a6576000828281518110620028ef57620028ef620040d4565b6020026020010151606001516200292757828281518110620029155762002915620040d4565b60200260200101516000015162002935565b61012f546001600160a01b03165b90506001600160a01b0381163b620029905760405162461bcd60e51b815260206004820152601c60248201527f41646d697373696f6e20546f6b656e206e6f7420537570706f72742100000000604482015260640162000acc565b61013a80546001810182556000919091527f1cc3277f886bc7650038e458160d07e0113c6dbe808de6ada3226131dc5802510180546001600160a01b0319166001600160a01b0383161790556040805180820190915283518190859085908110620029ff57620029ff620040d4565b602002602001015160200151815260200184848151811062002a255762002a25620040d4565b6020908102919091018101516040908101519092526001600160a01b038416600090815261013e8252919091208251815591015160019091015582517fc7ff60e3f07d1e83c30c2fb716313eccef5470e6bdf300d865c747e76f379a839084908490811062002a985762002a98620040d4565b60200260200101516000015184848151811062002ab95762002ab9620040d4565b60200260200101516020015185858151811062002ada5762002ada620040d4565b60200260200101516040015186868151811062002afb5762002afb620040d4565b60200260200101516060015160405162002b3b94939291906001600160a01b03949094168452602084019290925260408301521515606082015260800190565b60405180910390a1508062002b508162004094565b915050620028ce565b606060448251101562002b7a57505060408051602081019091526000815290565b600482019150620009be8280602001905181019062002b9a9190620039b6565b60408051808201909152600381526201016960ed1b6020820152905b6060828260405160200162002bcd92919062003c70565b604051602081830303815290604052905092915050565b6040518060400160405280600781526020016611d95b995c985b60ca1b81525062002c0f3362001531565b8062002c36575062002c218162001745565b6001600160a01b0316336001600160a01b0316145b62002c555760405162461bcd60e51b815260040162000acc9062003e04565b62002c6082620020a6565b620010a65760405162461bcd60e51b815260206004820152602560248201527f42756467657420496d706c656d656e746174696f6e206e6f742077686974656c6044820152641a5cdd195960da1b606482015260840162000acc565b6001600160a01b0381163b62002d2b5760405162461bcd60e51b815260206004820152602d60248201527f455243313936373a206e657720696d706c656d656e746174696f6e206973206e60448201526c1bdd08184818dbdb9d1c9858dd609a1b606482015260840162000acc565b600080516020620048d783398151915280546001600160a01b0319166001600160a01b0392909216919091179055565b62002d668362002fd4565b60008251118062002d745750805b156200151c5762002d86838362003016565b50505050565b606081600281111562002da35762002da3620040be565b62002e6757610132546001600160a01b031662002e035760405162461bcd60e51b815260206004820152601e60248201527f4d656d62657273686970206e6f742079657420696e697469616c697a65640000604482015260640162000acc565b6040805160018082528183019092526000916020808301908036833750506101325482519293506001600160a01b03169183915060009062002e495762002e49620040d4565b6001600160a01b039092166020928302919091019091015292915050565b81600281111562002e7c5762002e7c620040be565b6001141562002f265761012f546001600160a01b031662002ee05760405162461bcd60e51b815260206004820152601f60248201527f4d656d626572546f6b656e206e6f742079657420696e697469616c697a656400604482015260640162000acc565b60408051600180825281830190925260009160208083019080368337505061012f5482519293506001600160a01b03169183915060009062002e495762002e49620040d4565b81600281111562002f3b5762002f3b620040be565b5060405162461bcd60e51b8152602060048201526016602482015275556e737570706f7274656420546f6b656e207479706560501b604482015260640162000acc565b6001600160a01b038116600081815261013c6020908152604091829020805460ff1916600117905590519182527f808665eda000f8d729f31a384bae411282aa3be62cb73ed74e2225e2eef7125d9101620013de565b62002fdf8162002cbc565b6040516001600160a01b038216907fbc7cd75a20ee27fd9adebab32041f755214dbc6bffa90cc0225b39da2e5c2d3b90600090a250565b60606001600160a01b0383163b620030805760405162461bcd60e51b815260206004820152602660248201527f416464726573733a2064656c65676174652063616c6c20746f206e6f6e2d636f6044820152651b9d1c9858dd60d21b606482015260840162000acc565b600080846001600160a01b0316846040516200309d919062003c52565b600060405180830381855af49150503d8060008114620030da576040519150601f19603f3d011682016040523d82523d6000602084013e620030df565b606091505b50915091506200310a8282604051806060016040528060278152602001620048f76027913962003113565b95945050505050565b606083156200312457508162001d82565b825115620031355782518084602001fd5b8160405162461bcd60e51b815260040162000acc919062003d11565b8280546200315f906200405d565b90600052602060002090601f016020900481019282620031835760008555620031ce565b82601f106200319e5782800160ff19823516178555620031ce565b82800160010185558215620031ce579182015b82811115620031ce578235825591602001919060010190620031b1565b50620031dc929150620031ee565b5090565b6107b1806200412683390190565b5b80821115620031dc5760008155600101620031ef565b60008083601f8401126200321857600080fd5b5081356001600160401b038111156200323057600080fd5b6020830191508360208260051b85010111156200324c57600080fd5b9250929050565b600082601f8301126200326557600080fd5b813560206200327e620032788362003fde565b62003fab565b80838252828201915082860187848660051b89010111156200329f57600080fd5b60005b85811015620032cb578135620032b88162004100565b84529284019290840190600101620032a2565b5090979650505050505050565b600082601f830112620032ea57600080fd5b81356020620032fd620032788362003fde565b80838252828201915082860187848660051b89010111156200331e57600080fd5b60005b85811015620032cb5781358452928401929084019060010162003321565b600082601f8301126200335157600080fd5b813562003362620032788262004004565b8181528460208386010111156200337857600080fd5b816020850160208301376000918101602001919091529392505050565b600060208284031215620033a857600080fd5b813562001d828162004100565b600060208284031215620033c857600080fd5b815162001d828162004100565b60008060408385031215620033e957600080fd5b8235620033f68162004100565b91506020830135620034088162004100565b809150509250929050565b600080600080600060a086880312156200342c57600080fd5b8535620034398162004100565b945060208601356200344b8162004100565b935060408601356001600160401b03808211156200346857600080fd5b6200347689838a01620032d8565b945060608801359150808211156200348d57600080fd5b6200349b89838a01620032d8565b93506080880135915080821115620034b257600080fd5b50620034c1888289016200333f565b9150509295509295909350565b600080600060608486031215620034e457600080fd5b8335620034f18162004100565b92506020840135620035038162004100565b915060408401356001600160401b038111156200351f57600080fd5b6200352d868287016200333f565b9150509250925092565b600080600080608085870312156200354e57600080fd5b84356200355b8162004100565b935060208501356200356d8162004100565b92506040850135915060608501356001600160401b038111156200359057600080fd5b6200359e878288016200333f565b91505092959194509250565b600080600080600060a08688031215620035c357600080fd5b8535620035d08162004100565b94506020860135620035e28162004100565b9350604086013592506060860135915060808601356001600160401b038111156200360c57600080fd5b620034c1888289016200333f565b600080604083850312156200362e57600080fd5b82356200363b8162004100565b915060208301356001600160401b038111156200365757600080fd5b62003665858286016200333f565b9150509250929050565b6000806000606084860312156200368557600080fd5b8335620036928162004100565b925060208401356001600160401b03811115620036ae57600080fd5b620036bc868287016200333f565b925050604084013590509250925092565b60008060408385031215620036e157600080fd5b8235620036ee8162004100565b946020939093013593505050565b600080602083850312156200371057600080fd5b82356001600160401b038111156200372757600080fd5b620037358582860162003205565b90969095509350505050565b600080604083850312156200375557600080fd5b82356001600160401b03808211156200376d57600080fd5b6200377b8683870162003253565b93506020915081850135818111156200379357600080fd5b8501601f81018713620037a557600080fd5b8035620037b6620032788262003fde565b8082825285820191508584018a878560051b8701011115620037d757600080fd5b6000805b858110156200381757823588811115620037f3578283fd5b620038038e8b838b01016200333f565b8652509388019391880191600101620037db565b5050508096505050505050509250929050565b6000602082840312156200383d57600080fd5b813562001d828162004116565b6000602082840312156200385d57600080fd5b815162001d828162004116565b6000602082840312156200387d57600080fd5b5051919050565b6000602082840312156200389757600080fd5b81356001600160e01b03198116811462001d8257600080fd5b60008060008060008060008060c0898b031215620038cd57600080fd5b88356001600160401b0380821115620038e557600080fd5b818b0191508b601f830112620038fa57600080fd5b8135818111156200390a57600080fd5b8c60208285010111156200391d57600080fd5b60209283019a509850908a0135965060408a0135955060608a0135945060808a013590808211156200394e57600080fd5b506200395d8b828c0162003205565b999c989b50969995989497949560a00135949350505050565b6000602082840312156200398957600080fd5b81356001600160401b03811115620039a057600080fd5b620039ae848285016200333f565b949350505050565b600060208284031215620039c957600080fd5b81516001600160401b03811115620039e057600080fd5b8201601f81018413620039f257600080fd5b805162003a03620032788262004004565b81815285602083850101111562003a1957600080fd5b6200310a8260208301602086016200402e565b6000806000806080858703121562003a4357600080fd5b84356001600160401b038082111562003a5b57600080fd5b62003a69888389016200333f565b95506020870135915062003a7d8262004100565b9093506040860135908082111562003a9457600080fd5b62003aa28883890162003253565b9350606087013591508082111562003ab957600080fd5b506200359e878288016200333f565b60006080828403121562003adb57600080fd5b604051608081018181106001600160401b038211171562003b005762003b00620040ea565b604052823562003b108162004100565b808252506020830135602082015260408301356040820152606083013562003b388162004116565b60608201529392505050565b60006020828403121562003b5757600080fd5b50919050565b60006020828403121562003b7057600080fd5b81356001600160401b0381111562003b8757600080fd5b82016102a0818503121562001d8257600080fd5b60006020828403121562003bae57600080fd5b5035919050565b600081518084526020808501945080840160005b8381101562003bf05781516001600160a01b03168752958201959082019060010162003bc9565b509495945050505050565b6000815180845262003c158160208601602086016200402e565b601f01601f19169290920160200192915050565b81835281816020850137506000828201602090810191909152601f909101601f19169091010190565b6000825162003c668184602087016200402e565b9190910192915050565b6000835162003c848184602088016200402e565b83519083019062003c9a8183602088016200402e565b01949350505050565b6001600160a01b0383168152604060208201819052600090620039ae9083018462003bfb565b6001600160a01b038616815260606020820181905260009062003cf0908301868862003c29565b828103604084015262003d0581858762003c29565b98975050505050505050565b60208152600062001d82602083018462003bfb565b60808152600062003d3b608083018762003bfb565b6001600160a01b0386166020840152828103604084015262003d5e818662003bb5565b9050828103606084015262003d74818562003bfb565b979650505050505050565b60c08152600062003d9460c083018962003bfb565b60208381018990526040840188905260608401879052838203608085015285518083528682019282019060005b8181101562003ddf5784518352938301939183019160010162003dc1565b505084810360a086015262003df5818762003bb5565b9b9a5050505050505050505050565b6020808252601490820152731058dd1a5bdb881b9bdd081c195c9b5a5d1d195960621b604082015260600190565b6020808252602c908201527f46756e6374696f6e206d7573742062652063616c6c6564207468726f7567682060408201526b19195b1959d85d1958d85b1b60a21b606082015260800190565b6020808252602c908201527f46756e6374696f6e206d7573742062652063616c6c6564207468726f7567682060408201526b6163746976652070726f787960a01b606082015260800190565b6000808335601e1984360301811262003ee257600080fd5b8301803591506001600160401b0382111562003efd57600080fd5b6020019150600581901b36038213156200324c57600080fd5b6000808335601e1984360301811262003f2e57600080fd5b8301803591506001600160401b0382111562003f4957600080fd5b6020019150600781901b36038213156200324c57600080fd5b6000808335601e1984360301811262003f7a57600080fd5b8301803591506001600160401b0382111562003f9557600080fd5b6020019150368190038213156200324c57600080fd5b604051601f8201601f191681016001600160401b038111828210171562003fd65762003fd6620040ea565b604052919050565b60006001600160401b0382111562003ffa5762003ffa620040ea565b5060051b60200190565b60006001600160401b03821115620040205762004020620040ea565b50601f01601f191660200190565b60005b838110156200404b57818101518382015260200162004031565b8381111562002d865750506000910152565b600181811c908216806200407257607f821691505b6020821081141562003b5757634e487b7160e01b600052602260045260246000fd5b6000600019821415620040b757634e487b7160e01b600052601160045260246000fd5b5060010190565b634e487b7160e01b600052602160045260246000fd5b634e487b7160e01b600052603260045260246000fd5b634e487b7160e01b600052604160045260246000fd5b6001600160a01b038116811462000c2857600080fd5b801515811462000c2857600080fdfe60806040526040516107b13803806107b183398101604081905261002291610307565b61004d60017f360894a13ba1a3210667c828492db98dca3e2076cc3735a920a3ca505d382bbd610424565b60008051602061076a8339815191521461006957610069610475565b6100758282600061007c565b50506104a1565b610085836100b2565b6000825111806100925750805b156100ad576100ab83836100f260201b6100291760201c565b505b505050565b6100bb8161011e565b6040516001600160a01b038216907fbc7cd75a20ee27fd9adebab32041f755214dbc6bffa90cc0225b39da2e5c2d3b90600090a250565b6060610117838360405180606001604052806027815260200161078a602791396101de565b9392505050565b610131816102bc60201b6100551760201c565b6101985760405162461bcd60e51b815260206004820152602d60248201527f455243313936373a206e657720696d706c656d656e746174696f6e206973206e60448201526c1bdd08184818dbdb9d1c9858dd609a1b60648201526084015b60405180910390fd5b806101bd60008051602061076a83398151915260001b6102cb60201b6100641760201c565b80546001600160a01b0319166001600160a01b039290921691909117905550565b60606001600160a01b0384163b6102465760405162461bcd60e51b815260206004820152602660248201527f416464726573733a2064656c65676174652063616c6c20746f206e6f6e2d636f6044820152651b9d1c9858dd60d21b606482015260840161018f565b600080856001600160a01b03168560405161026191906103d5565b600060405180830381855af49150503d806000811461029c576040519150601f19603f3d011682016040523d82523d6000602084013e6102a1565b606091505b5090925090506102b28282866102ce565b9695505050505050565b6001600160a01b03163b151590565b90565b606083156102dd575081610117565b8251156102ed5782518084602001fd5b8160405162461bcd60e51b815260040161018f91906103f1565b6000806040838503121561031a57600080fd5b82516001600160a01b038116811461033157600080fd5b60208401519092506001600160401b038082111561034e57600080fd5b818501915085601f83011261036257600080fd5b8151818111156103745761037461048b565b604051601f8201601f19908116603f0116810190838211818310171561039c5761039c61048b565b816040528281528860208487010111156103b557600080fd5b6103c6836020830160208801610449565b80955050505050509250929050565b600082516103e7818460208701610449565b9190910192915050565b6020815260008251806020840152610410816040850160208701610449565b601f01601f19169190910160400192915050565b60008282101561044457634e487b7160e01b600052601160045260246000fd5b500390565b60005b8381101561046457818101518382015260200161044c565b838111156100ab5750506000910152565b634e487b7160e01b600052600160045260246000fd5b634e487b7160e01b600052604160045260246000fd5b6102ba806104b06000396000f3fe60806040523661001357610011610017565b005b6100115b610027610022610067565b61009f565b565b606061004e838360405180606001604052806027815260200161025e602791396100c3565b9392505050565b6001600160a01b03163b151590565b90565b600061009a7f360894a13ba1a3210667c828492db98dca3e2076cc3735a920a3ca505d382bbc546001600160a01b031690565b905090565b3660008037600080366000845af43d6000803e8080156100be573d6000f35b3d6000fd5b60606001600160a01b0384163b6101305760405162461bcd60e51b815260206004820152602660248201527f416464726573733a2064656c65676174652063616c6c20746f206e6f6e2d636f6044820152651b9d1c9858dd60d21b60648201526084015b60405180910390fd5b600080856001600160a01b03168560405161014b91906101de565b600060405180830381855af49150503d8060008114610186576040519150601f19603f3d011682016040523d82523d6000602084013e61018b565b606091505b509150915061019b8282866101a5565b9695505050505050565b606083156101b457508161004e565b8251156101c45782518084602001fd5b8160405162461bcd60e51b815260040161012791906101fa565b600082516101f081846020870161022d565b9190910192915050565b602081526000825180602084015261021981604085016020870161022d565b601f01601f19169190910160400192915050565b60005b83811015610248578181015183820152602001610230565b83811115610257576000848401525b5050505056fe416464726573733a206c6f772d6c6576656c2064656c65676174652063616c6c206661696c6564a26469706673582212203f90f01760a3fb86c9c8320cdb707a76979bbded46a4033a6a8dc276b5de4a1864736f6c63430008070033360894a13ba1a3210667c828492db98dca3e2076cc3735a920a3ca505d382bbc416464726573733a206c6f772d6c6576656c2064656c65676174652063616c6c206661696c6564360894a13ba1a3210667c828492db98dca3e2076cc3735a920a3ca505d382bbc416464726573733a206c6f772d6c6576656c2064656c65676174652063616c6c206661696c6564a2646970667358221220dcbddaeaf5512266be10d4f0995cbbf99977bb7c41740eb03d9f94ea6e433f4364736f6c63430008070033",
  "devdoc": {
    "kind": "dev",
    "methods": {
      "onERC721Received(address,address,uint256,bytes)": {
        "details": "See {IERC721Receiver-onERC721Received}. Always returns `IERC721Receiver.onERC721Received.selector`."
      },
      "proxiableUUID()": {
        "details": "Implementation of the ERC1822 {proxiableUUID} function. This returns the storage slot used by the implementation. It is used to validate that the this implementation remains valid after an upgrade. IMPORTANT: A proxy pointing at a proxiable contract should not be considered proxiable itself, because this risks bricking a proxy that upgrades to it, by delegating to itself until out of gas. Thus it is critical that this function revert if invoked through a proxy. This is guaranteed by the `notDelegated` modifier."
      },
      "supportsInterface(bytes4)": {
        "details": "See {IERC165-supportsInterface}."
      },
      "upgradeTo(address)": {
        "details": "Upgrade the implementation of the proxy to `newImplementation`. Calls {_authorizeUpgrade}. Emits an {Upgraded} event."
      },
      "upgradeToAndCall(address,bytes)": {
        "details": "Upgrade the implementation of the proxy to `newImplementation`, and subsequently execute the function call encoded in `data`. Calls {_authorizeUpgrade}. Emits an {Upgraded} event."
      }
    },
    "version": 1
  },
  "userdoc": {
    "kind": "user",
    "methods": {},
    "version": 1
  },
  "storageLayout": {
    "storage": [
      {
        "astId": 2736,
        "contract": "contracts/Dao.sol:Dao",
        "label": "_initialized",
        "offset": 0,
        "slot": "0",
        "type": "t_bool"
      },
      {
        "astId": 2739,
        "contract": "contracts/Dao.sol:Dao",
        "label": "_initializing",
        "offset": 1,
        "slot": "0",
        "type": "t_bool"
      },
      {
        "astId": 2718,
        "contract": "contracts/Dao.sol:Dao",
        "label": "__gap",
        "offset": 0,
        "slot": "1",
        "type": "t_array(t_uint256)50_storage"
      },
      {
        "astId": 2938,
        "contract": "contracts/Dao.sol:Dao",
        "label": "__gap",
        "offset": 0,
        "slot": "51",
        "type": "t_array(t_uint256)50_storage"
      },
      {
        "astId": 7132,
        "contract": "contracts/Dao.sol:Dao",
        "label": "__gap",
        "offset": 0,
        "slot": "101",
        "type": "t_array(t_uint256)50_storage"
      },
      {
        "astId": 8803,
        "contract": "contracts/Dao.sol:Dao",
        "label": "__gap",
        "offset": 0,
        "slot": "151",
        "type": "t_array(t_uint256)50_storage"
      },
      {
        "astId": 4359,
        "contract": "contracts/Dao.sol:Dao",
        "label": "__gap",
        "offset": 0,
        "slot": "201",
        "type": "t_array(t_uint256)50_storage"
      },
      {
        "astId": 4305,
        "contract": "contracts/Dao.sol:Dao",
        "label": "__gap",
        "offset": 0,
        "slot": "251",
        "type": "t_array(t_uint256)50_storage"
      },
      {
        "astId": 20955,
        "contract": "contracts/Dao.sol:Dao",
        "label": "team",
        "offset": 0,
        "slot": "301",
        "type": "t_address"
      },
      {
        "astId": 20959,
        "contract": "contracts/Dao.sol:Dao",
        "label": "budgetApprovals",
        "offset": 0,
        "slot": "302",
        "type": "t_mapping(t_address,t_bool)"
      },
      {
        "astId": 15921,
        "contract": "contracts/Dao.sol:Dao",
        "label": "memberToken",
        "offset": 0,
        "slot": "303",
        "type": "t_address"
      },
      {
        "astId": 15923,
        "contract": "contracts/Dao.sol:Dao",
        "label": "creator",
        "offset": 0,
        "slot": "304",
        "type": "t_address"
      },
      {
        "astId": 15925,
        "contract": "contracts/Dao.sol:Dao",
        "label": "adam",
        "offset": 0,
        "slot": "305",
        "type": "t_address"
      },
      {
        "astId": 15927,
        "contract": "contracts/Dao.sol:Dao",
        "label": "membership",
        "offset": 0,
        "slot": "306",
        "type": "t_address"
      },
      {
        "astId": 15929,
        "contract": "contracts/Dao.sol:Dao",
        "label": "liquidPool",
        "offset": 0,
        "slot": "307",
        "type": "t_address"
      },
      {
        "astId": 15931,
        "contract": "contracts/Dao.sol:Dao",
        "label": "governFactory",
        "offset": 0,
        "slot": "308",
        "type": "t_address"
      },
      {
        "astId": 15933,
        "contract": "contracts/Dao.sol:Dao",
        "label": "name",
        "offset": 0,
        "slot": "309",
        "type": "t_string_storage"
      },
      {
        "astId": 15935,
        "contract": "contracts/Dao.sol:Dao",
        "label": "locktime",
        "offset": 0,
        "slot": "310",
        "type": "t_uint256"
      },
      {
        "astId": 15937,
        "contract": "contracts/Dao.sol:Dao",
        "label": "minDepositAmount",
        "offset": 0,
        "slot": "311",
        "type": "t_uint256"
      },
      {
        "astId": 15939,
        "contract": "contracts/Dao.sol:Dao",
        "label": "baseCurrency",
        "offset": 0,
        "slot": "312",
        "type": "t_address"
      },
      {
        "astId": 15941,
        "contract": "contracts/Dao.sol:Dao",
        "label": "logoCID",
        "offset": 0,
        "slot": "313",
        "type": "t_string_storage"
      },
      {
        "astId": 15944,
        "contract": "contracts/Dao.sol:Dao",
        "label": "admissionTokens",
        "offset": 0,
        "slot": "314",
        "type": "t_array(t_address)dyn_storage"
      },
      {
        "astId": 15948,
        "contract": "contracts/Dao.sol:Dao",
        "label": "firstDepositTime",
        "offset": 0,
        "slot": "315",
        "type": "t_mapping(t_address,t_uint256)"
      },
      {
        "astId": 15952,
        "contract": "contracts/Dao.sol:Dao",
        "label": "isAssetSupported",
        "offset": 0,
        "slot": "316",
        "type": "t_mapping(t_address,t_bool)"
      },
      {
        "astId": 15956,
        "contract": "contracts/Dao.sol:Dao",
        "label": "teamWhitelist",
        "offset": 0,
        "slot": "317",
        "type": "t_mapping(t_uint256,t_bool)"
      },
      {
        "astId": 15961,
        "contract": "contracts/Dao.sol:Dao",
        "label": "admissionTokenSetting",
        "offset": 0,
        "slot": "318",
        "type": "t_mapping(t_address,t_struct(AdmissionTokenSetting)15912_storage)"
      }
    ],
    "types": {
      "t_address": {
        "encoding": "inplace",
        "label": "address",
        "numberOfBytes": "20"
      },
      "t_array(t_address)dyn_storage": {
        "base": "t_address",
        "encoding": "dynamic_array",
        "label": "address[]",
        "numberOfBytes": "32"
      },
      "t_array(t_uint256)50_storage": {
        "base": "t_uint256",
        "encoding": "inplace",
        "label": "uint256[50]",
        "numberOfBytes": "1600"
      },
      "t_bool": {
        "encoding": "inplace",
        "label": "bool",
        "numberOfBytes": "1"
      },
      "t_mapping(t_address,t_bool)": {
        "encoding": "mapping",
        "key": "t_address",
        "label": "mapping(address => bool)",
        "numberOfBytes": "32",
        "value": "t_bool"
      },
      "t_mapping(t_address,t_struct(AdmissionTokenSetting)15912_storage)": {
        "encoding": "mapping",
        "key": "t_address",
        "label": "mapping(address => struct Dao.AdmissionTokenSetting)",
        "numberOfBytes": "32",
        "value": "t_struct(AdmissionTokenSetting)15912_storage"
      },
      "t_mapping(t_address,t_uint256)": {
        "encoding": "mapping",
        "key": "t_address",
        "label": "mapping(address => uint256)",
        "numberOfBytes": "32",
        "value": "t_uint256"
      },
      "t_mapping(t_uint256,t_bool)": {
        "encoding": "mapping",
        "key": "t_uint256",
        "label": "mapping(uint256 => bool)",
        "numberOfBytes": "32",
        "value": "t_bool"
      },
      "t_string_storage": {
        "encoding": "bytes",
        "label": "string",
        "numberOfBytes": "32"
      },
      "t_struct(AdmissionTokenSetting)15912_storage": {
        "encoding": "inplace",
        "label": "struct Dao.AdmissionTokenSetting",
        "members": [
          {
            "astId": 15909,
            "contract": "contracts/Dao.sol:Dao",
            "label": "minTokenToAdmit",
            "offset": 0,
            "slot": "0",
            "type": "t_uint256"
          },
          {
            "astId": 15911,
            "contract": "contracts/Dao.sol:Dao",
            "label": "tokenId",
            "offset": 0,
            "slot": "1",
            "type": "t_uint256"
          }
        ],
        "numberOfBytes": "64"
      },
      "t_uint256": {
        "encoding": "inplace",
        "label": "uint256",
        "numberOfBytes": "32"
      }
    }
  }
}