{
  "address": "0x0826Cf9Ed7fBb294f9B9600Edd15e0D083f137Cf",
  "abi": [
    {
      "anonymous": false,
      "inputs": [
        {
          "indexed": false,
          "internalType": "address",
          "name": "previousAdmin",
          "type": "address"
        },
        {
          "indexed": false,
          "internalType": "address",
          "name": "newAdmin",
          "type": "address"
        }
      ],
      "name": "AdminChanged",
      "type": "event"
    },
    {
      "anonymous": false,
      "inputs": [
        {
          "indexed": false,
          "internalType": "uint256",
          "name": "id",
          "type": "uint256"
        },
        {
          "indexed": false,
          "internalType": "address",
          "name": "contractAddress",
          "type": "address"
        }
      ],
      "name": "AllowDepositToken",
      "type": "event"
    },
    {
      "anonymous": false,
      "inputs": [
        {
          "indexed": true,
          "internalType": "address",
          "name": "account",
          "type": "address"
        },
        {
          "indexed": true,
          "internalType": "address",
          "name": "operator",
          "type": "address"
        },
        {
          "indexed": false,
          "internalType": "bool",
          "name": "approved",
          "type": "bool"
        }
      ],
      "name": "ApprovalForAll",
      "type": "event"
    },
    {
      "anonymous": false,
      "inputs": [
        {
          "indexed": true,
          "internalType": "address",
          "name": "beacon",
          "type": "address"
        }
      ],
      "name": "BeaconUpgraded",
      "type": "event"
    },
    {
      "anonymous": false,
      "inputs": [
        {
          "indexed": false,
          "internalType": "uint256",
          "name": "id",
          "type": "uint256"
        },
        {
          "indexed": false,
          "internalType": "address",
          "name": "contractAddress",
          "type": "address"
        }
      ],
      "name": "CreateToken",
      "type": "event"
    },
    {
      "anonymous": false,
      "inputs": [
        {
          "indexed": false,
          "internalType": "uint256",
          "name": "id",
          "type": "uint256"
        },
        {
          "indexed": false,
          "internalType": "address",
          "name": "contractAddress",
          "type": "address"
        }
      ],
      "name": "DisallowDepositToken",
      "type": "event"
    },
    {
      "anonymous": false,
      "inputs": [
        {
          "indexed": true,
          "internalType": "address",
          "name": "operator",
          "type": "address"
        },
        {
          "indexed": true,
          "internalType": "address",
          "name": "from",
          "type": "address"
        },
        {
          "indexed": true,
          "internalType": "address",
          "name": "to",
          "type": "address"
        },
        {
          "indexed": false,
          "internalType": "uint256[]",
          "name": "ids",
          "type": "uint256[]"
        },
        {
          "indexed": false,
          "internalType": "uint256[]",
          "name": "values",
          "type": "uint256[]"
        }
      ],
      "name": "TransferBatch",
      "type": "event"
    },
    {
      "anonymous": false,
      "inputs": [
        {
          "indexed": true,
          "internalType": "address",
          "name": "operator",
          "type": "address"
        },
        {
          "indexed": true,
          "internalType": "address",
          "name": "from",
          "type": "address"
        },
        {
          "indexed": true,
          "internalType": "address",
          "name": "to",
          "type": "address"
        },
        {
          "indexed": false,
          "internalType": "uint256",
          "name": "id",
          "type": "uint256"
        },
        {
          "indexed": false,
          "internalType": "uint256",
          "name": "value",
          "type": "uint256"
        }
      ],
      "name": "TransferSingle",
      "type": "event"
    },
    {
      "anonymous": false,
      "inputs": [
        {
          "indexed": false,
          "internalType": "string",
          "name": "value",
          "type": "string"
        },
        {
          "indexed": true,
          "internalType": "uint256",
          "name": "id",
          "type": "uint256"
        }
      ],
      "name": "URI",
      "type": "event"
    },
    {
      "anonymous": false,
      "inputs": [
        {
          "indexed": true,
          "internalType": "address",
          "name": "implementation",
          "type": "address"
        }
      ],
      "name": "Upgraded",
      "type": "event"
    },
    {
      "inputs": [
        {
          "internalType": "address[]",
          "name": "erc20s",
          "type": "address[]"
        }
      ],
      "name": "addAssets",
      "outputs": [],
      "stateMutability": "nonpayable",
      "type": "function"
    },
    {
      "inputs": [
        {
          "internalType": "address",
          "name": "asset",
          "type": "address"
        },
        {
          "internalType": "uint256",
          "name": "amount",
          "type": "uint256"
        }
      ],
      "name": "assetBaseCurrencyPrice",
      "outputs": [
        {
          "internalType": "uint256",
          "name": "",
          "type": "uint256"
        }
      ],
      "stateMutability": "view",
      "type": "function"
    },
    {
      "inputs": [
        {
          "internalType": "address",
          "name": "asset",
          "type": "address"
        },
        {
          "internalType": "uint256",
          "name": "amount",
          "type": "uint256"
        }
      ],
      "name": "assetEthPrice",
      "outputs": [
        {
          "internalType": "uint256",
          "name": "",
          "type": "uint256"
        }
      ],
      "stateMutability": "view",
      "type": "function"
    },
    {
      "inputs": [
        {
          "internalType": "address",
          "name": "account",
          "type": "address"
        },
        {
          "internalType": "uint256",
          "name": "id",
          "type": "uint256"
        }
      ],
      "name": "balanceOf",
      "outputs": [
        {
          "internalType": "uint256",
          "name": "",
          "type": "uint256"
        }
      ],
      "stateMutability": "view",
      "type": "function"
    },
    {
      "inputs": [
        {
          "internalType": "address[]",
          "name": "accounts",
          "type": "address[]"
        },
        {
          "internalType": "uint256[]",
          "name": "ids",
          "type": "uint256[]"
        }
      ],
      "name": "balanceOfBatch",
      "outputs": [
        {
          "internalType": "uint256[]",
          "name": "",
          "type": "uint256[]"
        }
      ],
      "stateMutability": "view",
      "type": "function"
    },
    {
      "inputs": [],
      "name": "baseCurrency",
      "outputs": [
        {
          "internalType": "address",
          "name": "",
          "type": "address"
        }
      ],
      "stateMutability": "view",
      "type": "function"
    },
    {
      "inputs": [],
      "name": "baseCurrencyDecimals",
      "outputs": [
        {
          "internalType": "uint8",
          "name": "",
          "type": "uint8"
        }
      ],
      "stateMutability": "view",
      "type": "function"
    },
    {
      "inputs": [
        {
          "internalType": "address",
          "name": "asset",
          "type": "address"
        }
      ],
      "name": "canAddAsset",
      "outputs": [
        {
          "internalType": "bool",
          "name": "",
          "type": "bool"
        }
      ],
      "stateMutability": "view",
      "type": "function"
    },
    {
      "inputs": [
        {
          "internalType": "address",
          "name": "budgetApproval",
          "type": "address"
        }
      ],
      "name": "canCreateBudgetApproval",
      "outputs": [
        {
          "internalType": "bool",
          "name": "",
          "type": "bool"
        }
      ],
      "stateMutability": "view",
      "type": "function"
    },
    {
      "inputs": [
        {
          "internalType": "address",
          "name": "asset",
          "type": "address"
        }
      ],
      "name": "canResolvePrice",
      "outputs": [
        {
          "internalType": "bool",
          "name": "",
          "type": "bool"
        }
      ],
      "stateMutability": "view",
      "type": "function"
    },
    {
      "inputs": [
        {
          "internalType": "uint256",
          "name": "",
          "type": "uint256"
        }
      ],
      "name": "contractAddress",
      "outputs": [
        {
          "internalType": "address",
          "name": "",
          "type": "address"
        }
      ],
      "stateMutability": "view",
      "type": "function"
    },
    {
      "inputs": [],
      "name": "dao",
      "outputs": [
        {
          "internalType": "contract IDao",
          "name": "",
          "type": "address"
        }
      ],
      "stateMutability": "view",
      "type": "function"
    },
    {
      "inputs": [
        {
          "internalType": "address",
          "name": "asset",
          "type": "address"
        }
      ],
      "name": "decimals",
      "outputs": [
        {
          "internalType": "uint8",
          "name": "",
          "type": "uint8"
        }
      ],
      "stateMutability": "view",
      "type": "function"
    },
    {
      "inputs": [],
      "name": "deposit",
      "outputs": [],
      "stateMutability": "payable",
      "type": "function"
    },
    {
      "inputs": [
        {
          "internalType": "address",
          "name": "asset",
          "type": "address"
        },
        {
          "internalType": "uint256",
          "name": "amount",
          "type": "uint256"
        }
      ],
      "name": "depositToken",
      "outputs": [],
      "stateMutability": "nonpayable",
      "type": "function"
    },
    {
      "inputs": [
        {
          "internalType": "address",
          "name": "asset",
          "type": "address"
        },
        {
          "internalType": "uint256",
          "name": "ethAmount",
          "type": "uint256"
        }
      ],
      "name": "ethAssetPrice",
      "outputs": [
        {
          "internalType": "uint256",
          "name": "",
          "type": "uint256"
        }
      ],
      "stateMutability": "view",
      "type": "function"
    },
    {
      "inputs": [
        {
          "internalType": "address",
          "name": "",
          "type": "address"
        }
      ],
      "name": "idOf",
      "outputs": [
        {
          "internalType": "uint256",
          "name": "",
          "type": "uint256"
        }
      ],
      "stateMutability": "view",
      "type": "function"
    },
    {
      "inputs": [
        {
          "internalType": "address",
          "name": "owner",
          "type": "address"
        },
        {
          "internalType": "address[]",
          "name": "depositTokens",
          "type": "address[]"
        },
        {
          "internalType": "address",
          "name": "baseCurrency",
          "type": "address"
        }
      ],
      "name": "initialize",
      "outputs": [],
      "stateMutability": "nonpayable",
      "type": "function"
    },
    {
      "inputs": [
        {
          "internalType": "address",
          "name": "account",
          "type": "address"
        },
        {
          "internalType": "address",
          "name": "operator",
          "type": "address"
        }
      ],
      "name": "isApprovedForAll",
      "outputs": [
        {
          "internalType": "bool",
          "name": "",
          "type": "bool"
        }
      ],
      "stateMutability": "view",
      "type": "function"
    },
    {
      "inputs": [
        {
          "internalType": "address",
          "name": "",
          "type": "address"
        }
      ],
      "name": "isAssetSupported",
      "outputs": [
        {
          "internalType": "bool",
          "name": "",
          "type": "bool"
        }
      ],
      "stateMutability": "view",
      "type": "function"
    },
    {
      "inputs": [
        {
          "internalType": "address",
          "name": "asset",
          "type": "address"
        }
      ],
      "name": "name",
      "outputs": [
        {
          "internalType": "string",
          "name": "",
          "type": "string"
        }
      ],
      "stateMutability": "view",
      "type": "function"
    },
    {
      "inputs": [],
      "name": "proxiableUUID",
      "outputs": [
        {
          "internalType": "bytes32",
          "name": "",
          "type": "bytes32"
        }
      ],
      "stateMutability": "view",
      "type": "function"
    },
    {
      "inputs": [
        {
          "internalType": "address",
          "name": "from",
          "type": "address"
        },
        {
          "internalType": "address",
          "name": "to",
          "type": "address"
        },
        {
          "internalType": "uint256[]",
          "name": "ids",
          "type": "uint256[]"
        },
        {
          "internalType": "uint256[]",
          "name": "amounts",
          "type": "uint256[]"
        },
        {
          "internalType": "bytes",
          "name": "data",
          "type": "bytes"
        }
      ],
      "name": "safeBatchTransferFrom",
      "outputs": [],
      "stateMutability": "nonpayable",
      "type": "function"
    },
    {
      "inputs": [
        {
          "internalType": "address",
          "name": "from",
          "type": "address"
        },
        {
          "internalType": "address",
          "name": "to",
          "type": "address"
        },
        {
          "internalType": "uint256",
          "name": "id",
          "type": "uint256"
        },
        {
          "internalType": "uint256",
          "name": "amount",
          "type": "uint256"
        },
        {
          "internalType": "bytes",
          "name": "data",
          "type": "bytes"
        }
      ],
      "name": "safeTransferFrom",
      "outputs": [],
      "stateMutability": "nonpayable",
      "type": "function"
    },
    {
      "inputs": [
        {
          "internalType": "address",
          "name": "operator",
          "type": "address"
        },
        {
          "internalType": "bool",
          "name": "approved",
          "type": "bool"
        }
      ],
      "name": "setApprovalForAll",
      "outputs": [],
      "stateMutability": "nonpayable",
      "type": "function"
    },
    {
      "inputs": [
        {
          "internalType": "bytes4",
          "name": "interfaceId",
          "type": "bytes4"
        }
      ],
      "name": "supportsInterface",
      "outputs": [
        {
          "internalType": "bool",
          "name": "",
          "type": "bool"
        }
      ],
      "stateMutability": "view",
      "type": "function"
    },
    {
      "inputs": [
        {
          "internalType": "address",
          "name": "",
          "type": "address"
        }
      ],
      "name": "totalSupply",
      "outputs": [
        {
          "internalType": "uint256",
          "name": "",
          "type": "uint256"
        }
      ],
      "stateMutability": "view",
      "type": "function"
    },
    {
      "inputs": [
        {
          "internalType": "address",
          "name": "newImplementation",
          "type": "address"
        }
      ],
      "name": "upgradeTo",
      "outputs": [],
      "stateMutability": "nonpayable",
      "type": "function"
    },
    {
      "inputs": [
        {
          "internalType": "address",
          "name": "newImplementation",
          "type": "address"
        },
        {
          "internalType": "bytes",
          "name": "data",
          "type": "bytes"
        }
      ],
      "name": "upgradeToAndCall",
      "outputs": [],
      "stateMutability": "payable",
      "type": "function"
    },
    {
      "inputs": [
        {
          "internalType": "uint256",
          "name": "_id",
          "type": "uint256"
        }
      ],
      "name": "uri",
      "outputs": [
        {
          "internalType": "string",
          "name": "",
          "type": "string"
        }
      ],
      "stateMutability": "view",
      "type": "function"
    },
    {
      "inputs": [
        {
          "internalType": "address",
          "name": "asset",
          "type": "address"
        },
        {
          "internalType": "uint256",
          "name": "amount",
          "type": "uint256"
        }
      ],
      "name": "withdraw",
      "outputs": [],
      "stateMutability": "nonpayable",
      "type": "function"
    }
  ],
  "transactionHash": "0x7af04c5708b38ffcfdf0460dd000dd139bf2ebaf396443b128ca5a7163c1176b",
  "args": [],
  "numDeployments": 1,
  "solcInputHash": "da7809b3b714fba03a8268402ac25a3e",
  "bytecode": "0x60a06040523060601b60805234801561001757600080fd5b5060805160601c614c5e61005260003960008181610aeb01528181610b2b01528181610d2c01528181610d6c0152610dfb0152614c5e6000f3fe6080604052600436106101d75760003560e01c806363d727dc11610102578063d449a83211610095578063e985e9c511610064578063e985e9c5146105ac578063ed0b66bc146105f5578063f242432a14610615578063f3fef3a31461063557600080fd5b8063d449a83214610511578063d94fe83214610531578063dc5b68a61461055e578063e4dc2aa41461057e57600080fd5b8063aea321c6116100d1578063aea321c6146104a9578063b49612ba146104c9578063bc9c5e90146104e9578063d0e30db01461050957600080fd5b806363d727dc146104225780636f7a4b231461044957806392a85fde14610469578063a22cb4651461048957600080fd5b80633659cfe61161017a5780634f1ef286116101495780634f1ef286146103ba57806352d1902d146103cd5780635aaaefad146103e257806360d8bb221461040257600080fd5b80633659cfe61461031c5780634162169f1461033c578063464b41581461035c5780634e1273f41461038d57600080fd5b80630e89341c116101b65780630e89341c1461026c57806313c013681461028c5780632eb2c2d6146102da578063338b5dea146102fc57600080fd5b8062fdd58e146101dc578063019848921461020f57806301ffc9a71461023c575b600080fd5b3480156101e857600080fd5b506101fc6101f7366004613fed565b610655565b6040519081526020015b60405180910390f35b34801561021b57600080fd5b5061022f61022a366004613d93565b6106f1565b604051610206919061450e565b34801561024857600080fd5b5061025c610257366004614111565b6107a6565b6040519015158152602001610206565b34801561027857600080fd5b5061022f6102873660046141c6565b6107f6565b34801561029857600080fd5b506102c26102a73660046141c6565b60fe602052600090815260409020546001600160a01b031681565b6040516001600160a01b039091168152602001610206565b3480156102e657600080fd5b506102fa6102f5366004613e03565b6108ec565b005b34801561030857600080fd5b506102fa610317366004613fed565b610983565b34801561032857600080fd5b506102fa610337366004613d93565b610ae0565b34801561034857600080fd5b5060fc546102c2906001600160a01b031681565b34801561036857600080fd5b5061025c610377366004613d93565b6101016020526000908152604090205460ff1681565b34801561039957600080fd5b506103ad6103a8366004614087565b610bc0565b60405161020691906144d6565b6102fa6103c8366004613fa0565b610d21565b3480156103d957600080fd5b506101fc610dee565b3480156103ee57600080fd5b506101fc6103fd366004613fed565b610ea2565b34801561040e57600080fd5b506101fc61041d366004613fed565b611044565b34801561042e57600080fd5b5061043761132d565b60405160ff9091168152602001610206565b34801561045557600080fd5b5061025c610464366004613d93565b6113e4565b34801561047557600080fd5b5060fb546102c2906001600160a01b031681565b34801561049557600080fd5b506102fa6104a4366004613f73565b6113ef565b3480156104b557600080fd5b506102fa6104c4366004614018565b6113fa565b3480156104d557600080fd5b506101fc6104e4366004613fed565b61147a565b3480156104f557600080fd5b5061025c610504366004613d93565b611601565b6102fa61171f565b34801561051d57600080fd5b5061043761052c366004613d93565b61189e565b34801561053d57600080fd5b506101fc61054c366004613d93565b60ff6020526000908152604090205481565b34801561056a57600080fd5b506102fa610579366004613f12565b61193c565b34801561058a57600080fd5b506101fc610599366004613d93565b6101006020526000908152604090205481565b3480156105b857600080fd5b5061025c6105c7366004613dcb565b6001600160a01b03918216600090815260ca6020908152604080832093909416825291909152205460ff1690565b34801561060157600080fd5b5061025c610610366004613d93565b6119f6565b34801561062157600080fd5b506102fa610630366004613eac565b611a74565b34801561064157600080fd5b506102fa610650366004613fed565b611afb565b60006001600160a01b0383166106c65760405162461bcd60e51b815260206004820152602b60248201527f455243313135353a2062616c616e636520717565727920666f7220746865207a60448201526a65726f206164647265737360a81b60648201526084015b60405180910390fd5b50600081815260c9602090815260408083206001600160a01b03861684529091529020545b92915050565b60606001600160a01b038216600080516020614be2833981519152141561073157505060408051808201909152600381526208aa8960eb1b602082015290565b816001600160a01b03166306fdde036040518163ffffffff1660e01b815260040160006040518083038186803b15801561076a57600080fd5b505afa15801561077e573d6000803e3d6000fd5b505050506040513d6000823e601f3d908101601f191682016040526106eb9190810190614149565b60006001600160e01b03198216636cdb3d1360e11b14806107d757506001600160e01b031982166303a24d0760e21b145b806106eb57506301ffc9a760e01b6001600160e01b03198316146106eb565b600081815260fe60205260408120546060919061081b906001600160a01b03166106f1565b600084815260fe602052604090205461084890610840906001600160a01b031661189e565b60ff16611cff565b600085815260fe60209081526040808320546001600160a01b0316835261010090915290205461087790611cff565b600086815260fe6020526040902054610898906001600160a01b0316611e20565b6040516020016108ab94939291906142d0565b60405160208183030381529060405290506108c581611e58565b6040516020016108d591906143fa565b604051602081830303815290604052915050919050565b6001600160a01b038516331480610908575061090885336105c7565b61096f5760405162461bcd60e51b815260206004820152603260248201527f455243313135353a207472616e736665722063616c6c6572206973206e6f74206044820152711bdddb995c881b9bdc88185c1c1c9bdd995960721b60648201526084016106bd565b61097c8585858585611fcd565b5050505050565b6001600160a01b0382166000908152610101602052604090205460ff166109e05760405162461bcd60e51b8152602060048201526011602482015270185cdcd95d081b9bdd081cdd5c1c1bdc9d607a1b60448201526064016106bd565b6040516323b872dd60e01b8152336004820152306024820152604481018290526001600160a01b038316906323b872dd90606401602060405180830381600087803b158015610a2e57600080fd5b505af1158015610a42573d6000803e3d6000fd5b505050506040513d601f19601f82011682018060405250810190610a6691906140dd565b506001600160a01b0382166000908152610100602052604081208054839290610a90908490614773565b90915550506001600160a01b038216600090815260ff60209081526040808320548151928301909152918152610ac991339184906121c9565b610adc33610ad78484611044565b6122d5565b5050565b306001600160a01b037f0000000000000000000000000000000000000000000000000000000000000000161415610b295760405162461bcd60e51b81526004016106bd90614569565b7f00000000000000000000000000000000000000000000000000000000000000006001600160a01b0316610b72600080516020614b82833981519152546001600160a01b031690565b6001600160a01b031614610b985760405162461bcd60e51b81526004016106bd906145b5565b610ba18161289b565b60408051600080825260208201909252610bbd9183919061290d565b50565b60608151835114610c255760405162461bcd60e51b815260206004820152602960248201527f455243313135353a206163636f756e747320616e6420696473206c656e677468604482015268040dad2e6dac2e8c6d60bb1b60648201526084016106bd565b600083516001600160401b03811115610c4e57634e487b7160e01b600052604160045260246000fd5b604051908082528060200260200182016040528015610c77578160200160208202803683370190505b50905060005b8451811015610d1957610cde858281518110610ca957634e487b7160e01b600052603260045260246000fd5b6020026020010151858381518110610cd157634e487b7160e01b600052603260045260246000fd5b6020026020010151610655565b828281518110610cfe57634e487b7160e01b600052603260045260246000fd5b6020908102919091010152610d1281614a37565b9050610c7d565b509392505050565b306001600160a01b037f0000000000000000000000000000000000000000000000000000000000000000161415610d6a5760405162461bcd60e51b81526004016106bd90614569565b7f00000000000000000000000000000000000000000000000000000000000000006001600160a01b0316610db3600080516020614b82833981519152546001600160a01b031690565b6001600160a01b031614610dd95760405162461bcd60e51b81526004016106bd906145b5565b610de28261289b565b610adc8282600161290d565b6000306001600160a01b037f00000000000000000000000000000000000000000000000000000000000000001614610e8e5760405162461bcd60e51b815260206004820152603860248201527f555550535570677261646561626c653a206d757374206e6f742062652063616c60448201527f6c6564207468726f7567682064656c656761746563616c6c000000000000000060648201526084016106bd565b50600080516020614b828339815191525b90565b60006001600160a01b038316600080516020614be28339815191521480610ee557506001600160a01b03831673c778417e063141139fce010982780140aa0cd5ab145b15610ef15750806106eb565b60405163bcfd032d60e01b81526001600160a01b0384166004820152600080516020614be2833981519152602482015260009073f948fc3d6c2c2c866f622c79612bb4e8708883cf9063bcfd032d9060440160a06040518083038186803b158015610f5b57600080fd5b505afa158015610f6f573d6000803e3d6000fd5b505050506040513d601f19601f82011682018060405250810190610f9391906141de565b505050915050600081131561103a57836001600160a01b031663313ce5676040518163ffffffff1660e01b815260040160206040518083038186803b158015610fdb57600080fd5b505afa158015610fef573d6000803e3d6000fd5b505050506040513d601f19601f82011682018060405250810190611013919061422d565b61101e90600a61481c565b611028848361494b565b61103291906147b9565b9150506106eb565b5060009392505050565b60fb546000906001600160a01b03848116911614156110645750806106eb565b60fb546001600160a01b0316600080516020614be283398151915214806110a9575060fb546001600160a01b031673c778417e063141139fce010982780140aa0cd5ab145b156110bf576110b88383610ea2565b90506106eb565b6001600160a01b038316600080516020614be2833981519152148061110057506001600160a01b03831673c778417e063141139fce010982780140aa0cd5ab145b1561111b5760fb546110b8906001600160a01b03168361147a565b60fb5460405163d2edb6dd60e01b81526001600160a01b039091166004820152600080516020614be2833981519152602482015260009073f948fc3d6c2c2c866f622c79612bb4e8708883cf9063d2edb6dd9060440160206040518083038186803b15801561118957600080fd5b505afa15801561119d573d6000803e3d6000fd5b505050506040513d601f19601f820116820180604052508101906111c19190613daf565b60405163d2edb6dd60e01b81526001600160a01b0386166004820152600080516020614be2833981519152602482015290915060009073f948fc3d6c2c2c866f622c79612bb4e8708883cf9063d2edb6dd9060440160206040518083038186803b15801561122e57600080fd5b505afa158015611242573d6000803e3d6000fd5b505050506040513d601f19601f820116820180604052508101906112669190613daf565b9050600061127c828461127761132d565b612a8c565b9050600081131561132157856001600160a01b031663313ce5676040518163ffffffff1660e01b815260040160206040518083038186803b1580156112c057600080fd5b505afa1580156112d4573d6000803e3d6000fd5b505050506040513d601f19601f820116820180604052508101906112f8919061422d565b61130390600a61481c565b61130d868361494b565b61131791906147b9565b93505050506106eb565b50600095945050505050565b60fb546000906001600160a01b0316600080516020614be283398151915214156113575750601290565b60fb60009054906101000a90046001600160a01b03166001600160a01b031663313ce5676040518163ffffffff1660e01b815260040160206040518083038186803b1580156113a557600080fd5b505afa9250505080156113d5575060408051601f3d908101601f191682019092526113d29181019061422d565b60015b6113df5750600090565b919050565b60006106eb82611601565b610adc338383612d10565b60fc546001600160a01b0316331461143e5760405162461bcd60e51b81526020600482015260076024820152666e6f742064616f60c81b60448201526064016106bd565b610adc828280806020026020016040519081016040528093929190818152602001838360200280828437600092019190915250612df192505050565b60006001600160a01b038316600080516020614be283398151915214806114bd57506001600160a01b03831673c778417e063141139fce010982780140aa0cd5ab145b156114c95750806106eb565b60405163bcfd032d60e01b81526001600160a01b0384166004820152600080516020614be2833981519152602482015260009073f948fc3d6c2c2c866f622c79612bb4e8708883cf9063bcfd032d9060440160a06040518083038186803b15801561153357600080fd5b505afa158015611547573d6000803e3d6000fd5b505050506040513d601f19601f8201168201806040525081019061156b91906141de565b505050915050600081131561103a5780846001600160a01b031663313ce5676040518163ffffffff1660e01b815260040160206040518083038186803b1580156115b457600080fd5b505afa1580156115c8573d6000803e3d6000fd5b505050506040513d601f19601f820116820180604052508101906115ec919061422d565b6115f790600a61481c565b611028908561494b565b60006001600160a01b038216600080516020614be2833981519152148061164457506001600160a01b03821673c778417e063141139fce010982780140aa0cd5ab145b1561165157506001919050565b60405163d2edb6dd60e01b81526001600160a01b0383166004820152600080516020614be2833981519152602482015273f948fc3d6c2c2c866f622c79612bb4e8708883cf9063d2edb6dd9060440160206040518083038186803b1580156116b857600080fd5b505afa9250505080156116e8575060408051601f3d908101601f191682019092526116e591810190613daf565b60015b611716573d80801561103a576040519150601f19603f3d011682016040523d82523d6000602084013e61103a565b50600192915050565b600080516020614be28339815191526000526101016020527ffc69fe689a10849a4c810115708945edcdce02b4ce0b8911d1cf85d0b30251d55460ff1661179c5760405162461bcd60e51b8152602060048201526011602482015270185cdcd95d081b9bdd081cdd5c1c1bdc9d607a1b60448201526064016106bd565b600034116117da5760405162461bcd60e51b815260206004820152600b60248201526a063616e6e6f7420626520360ac1b60448201526064016106bd565b600080516020614be283398151915260009081526101006020527f2b059b74fd1a791c364ba3774b7b32962c8588e0963decac3c595ae8acf46c9b8054349290611825908490614773565b9091555050600080516020614be2833981519152600090815260ff60209081527f48d52aa77f9770a353799dec0ca72914498b0cb78b8c1027c14f34eeee833dba5460408051928301905291815261188091339134906121c9565b61189c33610ad7600080516020614be283398151915234611044565b565b60006001600160a01b038216600080516020614be283398151915214156118c757506012919050565b816001600160a01b031663313ce5676040518163ffffffff1660e01b815260040160206040518083038186803b15801561190057600080fd5b505afa925050508015611930575060408051601f3d908101601f1916820190925261192d9181019061422d565b60015b6106eb57506000919050565b600054610100900460ff166119575760005460ff161561195b565b303b155b6119775760405162461bcd60e51b81526004016106bd90614646565b600054610100900460ff16158015611999576000805461ffff19166101011790555b6119b160405180602001604052806000815250612e3f565b6119ba82612e6f565b60fc80546001600160a01b0319166001600160a01b0386161790556119de83612df1565b80156119f0576000805461ff00191690555b50505050565b60fc54604051635120331f60e11b81526001600160a01b038381166004830152600092169063a240663e9060240160206040518083038186803b158015611a3c57600080fd5b505afa158015611a50573d6000803e3d6000fd5b505050506040513d601f19601f820116820180604052508101906106eb91906140dd565b6001600160a01b038516331480611a905750611a9085336105c7565b611aee5760405162461bcd60e51b815260206004820152602960248201527f455243313135353a2063616c6c6572206973206e6f74206f776e6572206e6f7260448201526808185c1c1c9bdd995960ba1b60648201526084016106bd565b61097c8585858585612eb8565b6001600160a01b038216600090815260ff6020526040902054611b1f903390610655565b811115611b635760405162461bcd60e51b81526020600482015260126024820152716e6f7420656e6f7567682062616c616e636560701b60448201526064016106bd565b60fc54604080516318714ced60e21b8152905142926001600160a01b0316916361c533b4916004808301926020929190829003018186803b158015611ba757600080fd5b505afa158015611bbb573d6000803e3d6000fd5b505050506040513d601f19601f82011682018060405250810190611bdf91906140f9565b60fc54604051636cb7c6f960e01b81523360048201526001600160a01b0390911690636cb7c6f99060240160206040518083038186803b158015611c2257600080fd5b505afa158015611c36573d6000803e3d6000fd5b505050506040513d601f19601f82011682018060405250810190611c5a91906140f9565b611c649190614773565b1115611ca05760405162461bcd60e51b815260206004820152600b60248201526a6c6f636b75702074696d6560a81b60448201526064016106bd565b6001600160a01b038216600090815260ff6020526040902054611cc590339083612fd9565b6001600160a01b0382166000908152610100602052604081208054839290611cee90849061496a565b90915550610adc9050338383613157565b606081611d235750506040805180820190915260018152600360fc1b602082015290565b8160005b8115611d4d5780611d3781614a37565b9150611d469050600a836147b9565b9150611d27565b6000816001600160401b03811115611d7557634e487b7160e01b600052604160045260246000fd5b6040519080825280601f01601f191660200182016040528015611d9f576020820181803683370190505b5090505b8415611e1857611db460018361496a565b9150611dc1600a86614a52565b611dcc906030614773565b60f81b818381518110611def57634e487b7160e01b600052603260045260246000fd5b60200101906001600160f81b031916908160001a905350611e11600a866147b9565b9450611da3565b949350505050565b604051606082811b6bffffffffffffffffffffffff19166020830152906106eb9060340160405160208183030381529060405261322e565b6060815160001415611e7857505060408051602081019091526000815290565b6000604051806060016040528060408152602001614ba26040913990506000600384516002611ea79190614773565b611eb191906147b9565b611ebc90600461494b565b90506000611ecb826020614773565b6001600160401b03811115611ef057634e487b7160e01b600052604160045260246000fd5b6040519080825280601f01601f191660200182016040528015611f1a576020820181803683370190505b509050818152600183018586518101602084015b81831015611f885760039283018051603f601282901c811687015160f890811b8552600c83901c8216880151811b6001860152600683901c8216880151811b60028601529116860151901b93820193909352600401611f2e565b600389510660018114611fa25760028114611fb357611fbf565b613d3d60f01b600119830152611fbf565b603d60f81b6000198301525b509398975050505050505050565b815183511461202f5760405162461bcd60e51b815260206004820152602860248201527f455243313135353a2069647320616e6420616d6f756e7473206c656e677468206044820152670dad2e6dac2e8c6d60c31b60648201526084016106bd565b6001600160a01b0384166120555760405162461bcd60e51b81526004016106bd90614601565b3360005b845181101561215b57600085828151811061208457634e487b7160e01b600052603260045260246000fd5b6020026020010151905060008583815181106120b057634e487b7160e01b600052603260045260246000fd5b602090810291909101810151600084815260c9835260408082206001600160a01b038e1683529093529190912054909150818110156121015760405162461bcd60e51b81526004016106bd90614694565b600083815260c9602090815260408083206001600160a01b038e8116855292528083208585039055908b16825281208054849290612140908490614773565b925050819055505050508061215490614a37565b9050612059565b50846001600160a01b0316866001600160a01b0316826001600160a01b03167f4a39dc06d4c0dbc64b70af90fd698a233a518aa5d07e595d983b8c0526c8f7fb87876040516121ab9291906144e9565b60405180910390a46121c18187878787876134bc565b505050505050565b6001600160a01b0384166122295760405162461bcd60e51b815260206004820152602160248201527f455243313135353a206d696e7420746f20746865207a65726f206164647265736044820152607360f81b60648201526084016106bd565b336122438160008761223a88613627565b61097c88613627565b600084815260c9602090815260408083206001600160a01b038916845290915281208054859290612275908490614773565b909155505060408051858152602081018590526001600160a01b0380881692600092918516917fc3d58168c5ae7397731d063d5bbf3d657854427343f4c083240f7aacaa2d0f62910160405180910390a461097c81600087878787613680565b60fc54604051630240d31d60e11b81526001600160a01b03848116600483015290911690630481a63a9060240160206040518083038186803b15801561231a57600080fd5b505afa15801561232e573d6000803e3d6000fd5b505050506040513d601f19601f8201168201806040525081019061235291906140dd565b1561235b575050565b60fc54604051636cb7c6f960e01b81526001600160a01b03848116600483015290911690636cb7c6f99060240160206040518083038186803b1580156123a057600080fd5b505afa1580156123b4573d6000803e3d6000fd5b505050506040513d601f19601f820116820180604052508101906123d891906140f9565b610adc5760fc5460405163a177db1360e01b81526001600160a01b0384811660048301529091169063a177db1390602401600060405180830381600087803b15801561242357600080fd5b505af1158015612437573d6000803e3d6000fd5b5050505060fc60009054906101000a90046001600160a01b03166001600160a01b031663645006ca6040518163ffffffff1660e01b815260040160206040518083038186803b15801561248957600080fd5b505afa15801561249d573d6000803e3d6000fd5b505050506040513d601f19601f820116820180604052508101906124c191906140f9565b8110156125105760405162461bcd60e51b815260206004820152601960248201527f6465706f73697420616d6f756e74206e6f7420656e6f7567680000000000000060448201526064016106bd565b60fc5460405163288c314960e21b81526001600160a01b0384811660048301529091169063a230c5249060240160206040518083038186803b15801561255557600080fd5b505afa158015612569573d6000803e3d6000fd5b505050506040513d601f19601f8201168201806040525081019061258d91906140dd565b15612596575050565b60fc546040805163ec756a2f60e01b815290516000926001600160a01b03169163ec756a2f916004808301926020929190829003018186803b1580156125db57600080fd5b505afa1580156125ef573d6000803e3d6000fd5b505050506040513d601f19601f8201168201806040525081019061261391906140f9565b111561284057604080516001600160a01b038481166024808401919091528351808403909101815260449092018352602080830180516001600160e01b03166370a0823160e01b17905260fc54845163046cfb9560e21b815294517f70a08231b98ef4ca268c9cc3f6b4590e4bfec28280db06bb5d45e689f2a360be9560009492909216926311b3ee549260048082019391829003018186803b1580156126b957600080fd5b505afa1580156126cd573d6000803e3d6000fd5b505050506040513d601f19601f820116820180604052508101906126f19190613daf565b6001600160a01b03168260405161270891906142b4565b6000604051808303816000865af19150503d8060008114612745576040519150601f19603f3d011682016040523d82523d6000602084013e61274a565b606091505b5091505060008180602001905181019061276491906140f9565b905060fc60009054906101000a90046001600160a01b03166001600160a01b031663ec756a2f6040518163ffffffff1660e01b815260040160206040518083038186803b1580156127b457600080fd5b505afa1580156127c8573d6000803e3d6000fd5b505050506040513d601f19601f820116820180604052508101906127ec91906140f9565b81101561283b5760405162461bcd60e51b815260206004820152601a60248201527f41646d697373696f6e20746f6b656e206e6f7420656e6f75676800000000000060448201526064016106bd565b505050505b60fc5460405163c715115760e01b81526001600160a01b0384811660048301529091169063c715115790602401600060405180830381600087803b15801561288757600080fd5b505af11580156121c1573d6000803e3d6000fd5b600054610100900460ff166128b65760005460ff16156128ba565b303b155b6128d65760405162461bcd60e51b81526004016106bd90614646565b600054610100900460ff161580156128f8576000805461ffff19166101011790555b8015610adc576000805461ff00191690555050565b7f4910fdfa16fed3260ed0e7147f7cc6da11a60208b5b9406d12a635614ffd91435460ff1615612945576129408361374a565b505050565b826001600160a01b03166352d1902d6040518163ffffffff1660e01b815260040160206040518083038186803b15801561297e57600080fd5b505afa9250505080156129ae575060408051601f3d908101601f191682019092526129ab918101906140f9565b60015b612a115760405162461bcd60e51b815260206004820152602e60248201527f45524331393637557067726164653a206e657720696d706c656d656e7461746960448201526d6f6e206973206e6f74205555505360901b60648201526084016106bd565b600080516020614b828339815191528114612a805760405162461bcd60e51b815260206004820152602960248201527f45524331393637557067726164653a20756e737570706f727465642070726f786044820152681a58589b195555525160ba1b60648201526084016106bd565b506129408383836137e6565b600060ff821615801590612aa45750601260ff831611155b612ae45760405162461bcd60e51b8152602060048201526011602482015270496e76616c6964205f646563696d616c7360781b60448201526064016106bd565b6000612af460ff8416600a614810565b90506000856001600160a01b031663feaf968c6040518163ffffffff1660e01b815260040160a06040518083038186803b158015612b3157600080fd5b505afa158015612b45573d6000803e3d6000fd5b505050506040513d601f19601f82011682018060405250810190612b6991906141de565b5050509150506000866001600160a01b031663313ce5676040518163ffffffff1660e01b815260040160206040518083038186803b158015612baa57600080fd5b505afa158015612bbe573d6000803e3d6000fd5b505050506040513d601f19601f82011682018060405250810190612be2919061422d565b9050612bef82828761380b565b91506000866001600160a01b031663feaf968c6040518163ffffffff1660e01b815260040160a06040518083038186803b158015612c2c57600080fd5b505afa158015612c40573d6000803e3d6000fd5b505050506040513d601f19601f82011682018060405250810190612c6491906141de565b5050509150506000876001600160a01b031663313ce5676040518163ffffffff1660e01b815260040160206040518083038186803b158015612ca557600080fd5b505afa158015612cb9573d6000803e3d6000fd5b505050506040513d601f19601f82011682018060405250810190612cdd919061422d565b9050612cea82828961380b565b915081612cf786866148c8565b612d01919061478b565b955050505050505b9392505050565b816001600160a01b0316836001600160a01b03161415612d845760405162461bcd60e51b815260206004820152602960248201527f455243313135353a2073657474696e6720617070726f76616c20737461747573604482015268103337b91039b2b63360b91b60648201526084016106bd565b6001600160a01b03838116600081815260ca6020908152604080832094871680845294825291829020805460ff191686151590811790915591519182527f17307eab39ab6107e8899845ad3d59bd9653f200f220920489ca2b5937696c31910160405180910390a3505050565b60005b8151811015610adc57612e2d828281518110612e2057634e487b7160e01b600052603260045260246000fd5b602002602001015161387c565b80612e3781614a37565b915050612df4565b600054610100900460ff16612e665760405162461bcd60e51b81526004016106bd906146de565b610bbd816139f5565b600054610100900460ff16612e965760405162461bcd60e51b81526004016106bd906146de565b60fb80546001600160a01b0319166001600160a01b0392909216919091179055565b6001600160a01b038416612ede5760405162461bcd60e51b81526004016106bd90614601565b33612eee81878761223a88613627565b600084815260c9602090815260408083206001600160a01b038a16845290915290205483811015612f315760405162461bcd60e51b81526004016106bd90614694565b600085815260c9602090815260408083206001600160a01b038b8116855292528083208785039055908816825281208054869290612f70908490614773565b909155505060408051868152602081018690526001600160a01b03808916928a821692918616917fc3d58168c5ae7397731d063d5bbf3d657854427343f4c083240f7aacaa2d0f62910160405180910390a4612fd0828888888888613680565b50505050505050565b6001600160a01b03831661303b5760405162461bcd60e51b815260206004820152602360248201527f455243313135353a206275726e2066726f6d20746865207a65726f206164647260448201526265737360e81b60648201526084016106bd565b3361306b8185600061304c87613627565b61305587613627565b5050604080516020810190915260009052505050565b600083815260c9602090815260408083206001600160a01b0388168452909152902054828110156130ea5760405162461bcd60e51b8152602060048201526024808201527f455243313135353a206275726e20616d6f756e7420657863656564732062616c604482015263616e636560e01b60648201526084016106bd565b600084815260c9602090815260408083206001600160a01b03898116808652918452828520888703905582518981529384018890529092908616917fc3d58168c5ae7397731d063d5bbf3d657854427343f4c083240f7aacaa2d0f62910160405180910390a45050505050565b6001600160a01b038216600080516020614be283398151915214156131ac576040516001600160a01b0384169082156108fc029083906000818181858888f193505050501580156119f0573d6000803e3d6000fd5b60405163a9059cbb60e01b81526001600160a01b0384811660048301526024820183905283169063a9059cbb90604401602060405180830381600087803b1580156131f657600080fd5b505af115801561320a573d6000803e3d6000fd5b505050506040513d601f19601f820116820180604052508101906119f091906140dd565b60408051808201909152601081526f181899199a1a9b1b9c1cb0b131b232b360811b602082015281516060919060009061326990600261494b565b613274906002614773565b6001600160401b0381111561329957634e487b7160e01b600052604160045260246000fd5b6040519080825280601f01601f1916602001820160405280156132c3576020820181803683370190505b509050600360fc1b816000815181106132ec57634e487b7160e01b600052603260045260246000fd5b60200101906001600160f81b031916908160001a905350600f60fb1b8160018151811061332957634e487b7160e01b600052603260045260246000fd5b60200101906001600160f81b031916908160001a90535060005b8451811015610d195782600486838151811061336f57634e487b7160e01b600052603260045260246000fd5b016020015182516001600160f81b031990911690911c60f81c9081106133a557634e487b7160e01b600052603260045260246000fd5b01602001516001600160f81b031916826133c083600261494b565b6133cb906002614773565b815181106133e957634e487b7160e01b600052603260045260246000fd5b60200101906001600160f81b031916908160001a9053508285828151811061342157634e487b7160e01b600052603260045260246000fd5b602091010151815160f89190911c600f1690811061344f57634e487b7160e01b600052603260045260246000fd5b01602001516001600160f81b0319168261346a83600261494b565b613475906003614773565b8151811061349357634e487b7160e01b600052603260045260246000fd5b60200101906001600160f81b031916908160001a905350806134b481614a37565b915050613343565b6001600160a01b0384163b156121c15760405163bc197c8160e01b81526001600160a01b0385169063bc197c8190613500908990899088908890889060040161443f565b602060405180830381600087803b15801561351a57600080fd5b505af192505050801561354a575060408051601f3d908101601f191682019092526135479181019061412d565b60015b6135f757613556614aa8565b806308c379a01415613590575061356b614abf565b806135765750613592565b8060405162461bcd60e51b81526004016106bd919061450e565b505b60405162461bcd60e51b815260206004820152603460248201527f455243313135353a207472616e7366657220746f206e6f6e20455243313135356044820152732932b1b2b4bb32b91034b6b83632b6b2b73a32b960611b60648201526084016106bd565b6001600160e01b0319811663bc197c8160e01b14612fd05760405162461bcd60e51b81526004016106bd90614521565b6040805160018082528183019092526060916000919060208083019080368337019050509050828160008151811061366f57634e487b7160e01b600052603260045260246000fd5b602090810291909101015292915050565b6001600160a01b0384163b156121c15760405163f23a6e6160e01b81526001600160a01b0385169063f23a6e61906136c49089908990889088908890600401614491565b602060405180830381600087803b1580156136de57600080fd5b505af192505050801561370e575060408051601f3d908101601f1916820190925261370b9181019061412d565b60015b61371a57613556614aa8565b6001600160e01b0319811663f23a6e6160e01b14612fd05760405162461bcd60e51b81526004016106bd90614521565b6001600160a01b0381163b6137b75760405162461bcd60e51b815260206004820152602d60248201527f455243313936373a206e657720696d706c656d656e746174696f6e206973206e60448201526c1bdd08184818dbdb9d1c9858dd609a1b60648201526084016106bd565b600080516020614b8283398151915280546001600160a01b0319166001600160a01b0392909216919091179055565b6137ef83613a25565b6000825111806137fc5750805b15612940576119f08383613a65565b60008160ff168360ff161015613844576138258383614981565b6138339060ff16600a614810565b61383d90856148c8565b9050612d09565b8160ff168360ff1611156138745761385c8284614981565b61386a9060ff16600a614810565b61383d908561478b565b509192915050565b613885816113e4565b80156138ab57506001600160a01b0381166000908152610101602052604090205460ff16155b6138eb5760405162461bcd60e51b8152602060048201526011602482015270105cdcd95d081b9bdd081cdd5c1c1bdc9d607a1b60448201526064016106bd565b6001600160a01b038116600090815260ff602052604090205461398b5761391660fd80546001019055565b60fd80546001600160a01b038316600081815260ff6020908152604080832085905593825260fe81529083902080546001600160a01b03191683179055925482519081529283015280517f20083cb7eb1c58b3c0fd13a9da9120c4a541f6ee8340360fdf9af2fbcb9a97fd9281900390910190a15b6001600160a01b038116600081815261010160209081526040808320805460ff1916600117905560ff825291829020548251908152908101929092527fee2f8e2525167d27f89e5ba7f30aeffaa93a061d2c04e454ae80fde69b726b6c910160405180910390a150565b600054610100900460ff16613a1c5760405162461bcd60e51b81526004016106bd906146de565b610bbd81613b59565b613a2e8161374a565b6040516001600160a01b038216907fbc7cd75a20ee27fd9adebab32041f755214dbc6bffa90cc0225b39da2e5c2d3b90600090a250565b60606001600160a01b0383163b613acd5760405162461bcd60e51b815260206004820152602660248201527f416464726573733a2064656c65676174652063616c6c20746f206e6f6e2d636f6044820152651b9d1c9858dd60d21b60648201526084016106bd565b600080846001600160a01b031684604051613ae891906142b4565b600060405180830381855af49150503d8060008114613b23576040519150601f19603f3d011682016040523d82523d6000602084013e613b28565b606091505b5091509150613b508282604051806060016040528060278152602001614c0260279139613b6c565b95945050505050565b8051610adc9060cb906020840190613ba5565b60608315613b7b575081612d09565b825115613b8b5782518084602001fd5b8160405162461bcd60e51b81526004016106bd919061450e565b828054613bb1906149d0565b90600052602060002090601f016020900481019282613bd35760008555613c19565b82601f10613bec57805160ff1916838001178555613c19565b82800160010185558215613c19579182015b82811115613c19578251825591602001919060010190613bfe565b50613c25929150613c29565b5090565b5b80821115613c255760008155600101613c2a565b600082601f830112613c4e578081fd5b81356020613c5b82614729565b604051613c688282614a0b565b8381528281019150858301600585901b87018401881015613c87578586fd5b855b85811015613cae578135613c9c81614b48565b84529284019290840190600101613c89565b5090979650505050505050565b600082601f830112613ccb578081fd5b81356020613cd882614729565b604051613ce58282614a0b565b8381528281019150858301600585901b87018401881015613d04578586fd5b855b85811015613cae57813584529284019290840190600101613d06565b600082601f830112613d32578081fd5b8135613d3d8161474c565b604051613d4a8282614a0b565b828152856020848701011115613d5e578384fd5b82602086016020830137918201602001929092529392505050565b805169ffffffffffffffffffff811681146113df57600080fd5b600060208284031215613da4578081fd5b8135612d0981614b48565b600060208284031215613dc0578081fd5b8151612d0981614b48565b60008060408385031215613ddd578081fd5b8235613de881614b48565b91506020830135613df881614b48565b809150509250929050565b600080600080600060a08688031215613e1a578081fd5b8535613e2581614b48565b94506020860135613e3581614b48565b935060408601356001600160401b0380821115613e50578283fd5b613e5c89838a01613cbb565b94506060880135915080821115613e71578283fd5b613e7d89838a01613cbb565b93506080880135915080821115613e92578283fd5b50613e9f88828901613d22565b9150509295509295909350565b600080600080600060a08688031215613ec3578081fd5b8535613ece81614b48565b94506020860135613ede81614b48565b9350604086013592506060860135915060808601356001600160401b03811115613f06578182fd5b613e9f88828901613d22565b600080600060608486031215613f26578081fd5b8335613f3181614b48565b925060208401356001600160401b03811115613f4b578182fd5b613f5786828701613c3e565b9250506040840135613f6881614b48565b809150509250925092565b60008060408385031215613f85578182fd5b8235613f9081614b48565b91506020830135613df881614b5d565b60008060408385031215613fb2578182fd5b8235613fbd81614b48565b915060208301356001600160401b03811115613fd7578182fd5b613fe385828601613d22565b9150509250929050565b60008060408385031215613fff578182fd5b823561400a81614b48565b946020939093013593505050565b6000806020838503121561402a578182fd5b82356001600160401b0380821115614040578384fd5b818501915085601f830112614053578384fd5b813581811115614061578485fd5b8660208260051b8501011115614075578485fd5b60209290920196919550909350505050565b60008060408385031215614099578182fd5b82356001600160401b03808211156140af578384fd5b6140bb86838701613c3e565b935060208501359150808211156140d0578283fd5b50613fe385828601613cbb565b6000602082840312156140ee578081fd5b8151612d0981614b5d565b60006020828403121561410a578081fd5b5051919050565b600060208284031215614122578081fd5b8135612d0981614b6b565b60006020828403121561413e578081fd5b8151612d0981614b6b565b60006020828403121561415a578081fd5b81516001600160401b0381111561416f578182fd5b8201601f8101841361417f578182fd5b805161418a8161474c565b6040516141978282614a0b565b8281528660208486010111156141ab578485fd5b6141bc8360208301602087016149a4565b9695505050505050565b6000602082840312156141d7578081fd5b5035919050565b600080600080600060a086880312156141f5578283fd5b6141fe86613d79565b945060208601519350604086015192506060860151915061422160808701613d79565b90509295509295909350565b60006020828403121561423e578081fd5b815160ff81168114612d09578182fd5b6000815180845260208085019450808401835b8381101561427d57815187529582019590820190600101614261565b509495945050505050565b600081518084526142a08160208601602086016149a4565b601f01601f19169290920160200192915050565b600082516142c68184602087016149a4565b9190910192915050565b693d913730b6b2911d101160b11b815284516000906142f681600a850160208a016149a4565b6e0111610113232b1b4b6b0b639911d1608d1b600a918401918201528551614325816019840160208a016149a4565b7001610113a37ba30b629bab838363c911d1607d1b60199290910191820152845161435781602a8401602089016149a4565b7f2c20226465736372697074696f6e223a2022222c202261747472696275746573602a929091019182015261111d60f11b604a8201527f5b7b226b6579223a2261646472657373222c2276616c7565223a220000000000604c82015283516143c68160678401602088016149a4565b6143ee6143e160678385010162227d5d60e81b815260030190565b607d60f81b815260010190565b98975050505050505050565b7f646174613a6170706c69636174696f6e2f6a736f6e3b6261736536342c00000081526000825161443281601d8501602087016149a4565b91909101601d0192915050565b6001600160a01b0386811682528516602082015260a06040820181905260009061446b9083018661424e565b828103606084015261447d818661424e565b905082810360808401526143ee8185614288565b6001600160a01b03868116825285166020820152604081018490526060810183905260a0608082018190526000906144cb90830184614288565b979650505050505050565b602081526000612d09602083018461424e565b6040815260006144fc604083018561424e565b8281036020840152613b50818561424e565b602081526000612d096020830184614288565b60208082526028908201527f455243313135353a204552433131353552656365697665722072656a656374656040820152676420746f6b656e7360c01b606082015260800190565b6020808252602c908201527f46756e6374696f6e206d7573742062652063616c6c6564207468726f7567682060408201526b19195b1959d85d1958d85b1b60a21b606082015260800190565b6020808252602c908201527f46756e6374696f6e206d7573742062652063616c6c6564207468726f7567682060408201526b6163746976652070726f787960a01b606082015260800190565b60208082526025908201527f455243313135353a207472616e7366657220746f20746865207a65726f206164604082015264647265737360d81b606082015260800190565b6020808252602e908201527f496e697469616c697a61626c653a20636f6e747261637420697320616c72656160408201526d191e481a5b9a5d1a585b1a5e995960921b606082015260800190565b6020808252602a908201527f455243313135353a20696e73756666696369656e742062616c616e636520666f60408201526939103a3930b739b332b960b11b606082015260800190565b6020808252602b908201527f496e697469616c697a61626c653a20636f6e7472616374206973206e6f74206960408201526a6e697469616c697a696e6760a81b606082015260800190565b60006001600160401b0382111561474257614742614a92565b5060051b60200190565b60006001600160401b0382111561476557614765614a92565b50601f01601f191660200190565b6000821982111561478657614786614a66565b500190565b60008261479a5761479a614a7c565b600160ff1b8214600019841416156147b4576147b4614a66565b500590565b6000826147c8576147c8614a7c565b500490565b600181815b808511156148085781600019048211156147ee576147ee614a66565b808516156147fb57918102915b93841c93908002906147d2565b509250929050565b6000612d098383614827565b6000612d0960ff8416835b600082614836575060016106eb565b81614843575060006106eb565b816001811461485957600281146148635761487f565b60019150506106eb565b60ff84111561487457614874614a66565b50506001821b6106eb565b5060208310610133831016604e8410600b84101617156148a2575081810a6106eb565b6148ac83836147cd565b80600019048211156148c0576148c0614a66565b029392505050565b60006001600160ff1b03818413828413808216868404861116156148ee576148ee614a66565b600160ff1b8487128281168783058912161561490c5761490c614a66565b85871292508782058712848416161561492757614927614a66565b8785058712818416161561493d5761493d614a66565b505050929093029392505050565b600081600019048311821515161561496557614965614a66565b500290565b60008282101561497c5761497c614a66565b500390565b600060ff821660ff84168082101561499b5761499b614a66565b90039392505050565b60005b838110156149bf5781810151838201526020016149a7565b838111156119f05750506000910152565b600181811c908216806149e457607f821691505b60208210811415614a0557634e487b7160e01b600052602260045260246000fd5b50919050565b601f8201601f191681016001600160401b0381118282101715614a3057614a30614a92565b6040525050565b6000600019821415614a4b57614a4b614a66565b5060010190565b600082614a6157614a61614a7c565b500690565b634e487b7160e01b600052601160045260246000fd5b634e487b7160e01b600052601260045260246000fd5b634e487b7160e01b600052604160045260246000fd5b600060033d1115610e9f57600481823e5160e01c90565b600060443d1015614acd5790565b6040516003193d81016004833e81513d6001600160401b038160248401118184111715614afc57505050505090565b8285019150815181811115614b145750505050505090565b843d8701016020828501011115614b2e5750505050505090565b614b3d60208286010187614a0b565b509095945050505050565b6001600160a01b0381168114610bbd57600080fd5b8015158114610bbd57600080fd5b6001600160e01b031981168114610bbd57600080fdfe360894a13ba1a3210667c828492db98dca3e2076cc3735a920a3ca505d382bbc4142434445464748494a4b4c4d4e4f505152535455565758595a6162636465666768696a6b6c6d6e6f707172737475767778797a303132333435363738392b2f000000000000000000000000eeeeeeeeeeeeeeeeeeeeeeeeeeeeeeeeeeeeeeee416464726573733a206c6f772d6c6576656c2064656c65676174652063616c6c206661696c6564a2646970667358221220851666ff177743e2067bf5cfbe4581f7e4c178347e8bcf1747e0f241e004220664736f6c63430008040033",
  "devdoc": {
    "kind": "dev",
    "methods": {
      "balanceOf(address,uint256)": {
        "details": "See {IERC1155-balanceOf}. Requirements: - `account` cannot be the zero address."
      },
      "balanceOfBatch(address[],uint256[])": {
        "details": "See {IERC1155-balanceOfBatch}. Requirements: - `accounts` and `ids` must have the same length."
      },
      "isApprovedForAll(address,address)": {
        "details": "See {IERC1155-isApprovedForAll}."
      },
      "proxiableUUID()": {
        "details": "Implementation of the ERC1822 {proxiableUUID} function. This returns the storage slot used by the implementation. It is used to validate that the this implementation remains valid after an upgrade. IMPORTANT: A proxy pointing at a proxiable contract should not be considered proxiable itself, because this risks bricking a proxy that upgrades to it, by delegating to itself until out of gas. Thus it is critical that this function revert if invoked through a proxy. This is guaranteed by the `notDelegated` modifier."
      },
      "safeBatchTransferFrom(address,address,uint256[],uint256[],bytes)": {
        "details": "See {IERC1155-safeBatchTransferFrom}."
      },
      "safeTransferFrom(address,address,uint256,uint256,bytes)": {
        "details": "See {IERC1155-safeTransferFrom}."
      },
      "setApprovalForAll(address,bool)": {
        "details": "See {IERC1155-setApprovalForAll}."
      },
      "supportsInterface(bytes4)": {
        "details": "See {IERC165-supportsInterface}."
      },
      "upgradeTo(address)": {
        "details": "Upgrade the implementation of the proxy to `newImplementation`. Calls {_authorizeUpgrade}. Emits an {Upgraded} event."
      },
      "upgradeToAndCall(address,bytes)": {
        "details": "Upgrade the implementation of the proxy to `newImplementation`, and subsequently execute the function call encoded in `data`. Calls {_authorizeUpgrade}. Emits an {Upgraded} event."
      }
    },
    "version": 1
  },
  "userdoc": {
    "kind": "user",
    "methods": {},
    "version": 1
  },
  "storageLayout": {
    "storage": [
      {
        "astId": 2736,
        "contract": "contracts/DepositPool.sol:DepositPool",
        "label": "_initialized",
        "offset": 0,
        "slot": "0",
        "type": "t_bool"
      },
      {
        "astId": 2739,
        "contract": "contracts/DepositPool.sol:DepositPool",
        "label": "_initializing",
        "offset": 1,
        "slot": "0",
        "type": "t_bool"
      },
      {
        "astId": 2718,
        "contract": "contracts/DepositPool.sol:DepositPool",
        "label": "__gap",
        "offset": 0,
        "slot": "1",
        "type": "t_array(t_uint256)50_storage"
      },
      {
        "astId": 2938,
        "contract": "contracts/DepositPool.sol:DepositPool",
        "label": "__gap",
        "offset": 0,
        "slot": "51",
        "type": "t_array(t_uint256)50_storage"
      },
      {
        "astId": 7651,
        "contract": "contracts/DepositPool.sol:DepositPool",
        "label": "__gap",
        "offset": 0,
        "slot": "101",
        "type": "t_array(t_uint256)50_storage"
      },
      {
        "astId": 8803,
        "contract": "contracts/DepositPool.sol:DepositPool",
        "label": "__gap",
        "offset": 0,
        "slot": "151",
        "type": "t_array(t_uint256)50_storage"
      },
      {
        "astId": 2968,
        "contract": "contracts/DepositPool.sol:DepositPool",
        "label": "_balances",
        "offset": 0,
        "slot": "201",
        "type": "t_mapping(t_uint256,t_mapping(t_address,t_uint256))"
      },
      {
        "astId": 2974,
        "contract": "contracts/DepositPool.sol:DepositPool",
        "label": "_operatorApprovals",
        "offset": 0,
        "slot": "202",
        "type": "t_mapping(t_address,t_mapping(t_address,t_bool))"
      },
      {
        "astId": 2976,
        "contract": "contracts/DepositPool.sol:DepositPool",
        "label": "_uri",
        "offset": 0,
        "slot": "203",
        "type": "t_string_storage"
      },
      {
        "astId": 4056,
        "contract": "contracts/DepositPool.sol:DepositPool",
        "label": "__gap",
        "offset": 0,
        "slot": "204",
        "type": "t_array(t_uint256)47_storage"
      },
      {
        "astId": 23014,
        "contract": "contracts/DepositPool.sol:DepositPool",
        "label": "baseCurrency",
        "offset": 0,
        "slot": "251",
        "type": "t_address"
      },
      {
        "astId": 16947,
        "contract": "contracts/DepositPool.sol:DepositPool",
        "label": "dao",
        "offset": 0,
        "slot": "252",
        "type": "t_contract(IDao)25086"
      },
      {
        "astId": 16950,
        "contract": "contracts/DepositPool.sol:DepositPool",
        "label": "_tokenIds",
        "offset": 0,
        "slot": "253",
        "type": "t_struct(Counter)13975_storage"
      },
      {
        "astId": 16954,
        "contract": "contracts/DepositPool.sol:DepositPool",
        "label": "contractAddress",
        "offset": 0,
        "slot": "254",
        "type": "t_mapping(t_uint256,t_address)"
      },
      {
        "astId": 16958,
        "contract": "contracts/DepositPool.sol:DepositPool",
        "label": "idOf",
        "offset": 0,
        "slot": "255",
        "type": "t_mapping(t_address,t_uint256)"
      },
      {
        "astId": 16962,
        "contract": "contracts/DepositPool.sol:DepositPool",
        "label": "totalSupply",
        "offset": 0,
        "slot": "256",
        "type": "t_mapping(t_address,t_uint256)"
      },
      {
        "astId": 16966,
        "contract": "contracts/DepositPool.sol:DepositPool",
        "label": "isAssetSupported",
        "offset": 0,
        "slot": "257",
        "type": "t_mapping(t_address,t_bool)"
      }
    ],
    "types": {
      "t_address": {
        "encoding": "inplace",
        "label": "address",
        "numberOfBytes": "20"
      },
      "t_array(t_uint256)47_storage": {
        "base": "t_uint256",
        "encoding": "inplace",
        "label": "uint256[47]",
        "numberOfBytes": "1504"
      },
      "t_array(t_uint256)50_storage": {
        "base": "t_uint256",
        "encoding": "inplace",
        "label": "uint256[50]",
        "numberOfBytes": "1600"
      },
      "t_bool": {
        "encoding": "inplace",
        "label": "bool",
        "numberOfBytes": "1"
      },
      "t_contract(IDao)25086": {
        "encoding": "inplace",
        "label": "contract IDao",
        "numberOfBytes": "20"
      },
      "t_mapping(t_address,t_bool)": {
        "encoding": "mapping",
        "key": "t_address",
        "label": "mapping(address => bool)",
        "numberOfBytes": "32",
        "value": "t_bool"
      },
      "t_mapping(t_address,t_mapping(t_address,t_bool))": {
        "encoding": "mapping",
        "key": "t_address",
        "label": "mapping(address => mapping(address => bool))",
        "numberOfBytes": "32",
        "value": "t_mapping(t_address,t_bool)"
      },
      "t_mapping(t_address,t_uint256)": {
        "encoding": "mapping",
        "key": "t_address",
        "label": "mapping(address => uint256)",
        "numberOfBytes": "32",
        "value": "t_uint256"
      },
      "t_mapping(t_uint256,t_address)": {
        "encoding": "mapping",
        "key": "t_uint256",
        "label": "mapping(uint256 => address)",
        "numberOfBytes": "32",
        "value": "t_address"
      },
      "t_mapping(t_uint256,t_mapping(t_address,t_uint256))": {
        "encoding": "mapping",
        "key": "t_uint256",
        "label": "mapping(uint256 => mapping(address => uint256))",
        "numberOfBytes": "32",
        "value": "t_mapping(t_address,t_uint256)"
      },
      "t_string_storage": {
        "encoding": "bytes",
        "label": "string",
        "numberOfBytes": "32"
      },
      "t_struct(Counter)13975_storage": {
        "encoding": "inplace",
        "label": "struct Counters.Counter",
        "members": [
          {
            "astId": 13974,
            "contract": "contracts/DepositPool.sol:DepositPool",
            "label": "_value",
            "offset": 0,
            "slot": "0",
            "type": "t_uint256"
          }
        ],
        "numberOfBytes": "32"
      },
      "t_uint256": {
        "encoding": "inplace",
        "label": "uint256",
        "numberOfBytes": "32"
      }
    }
  }
}