{
  "address": "0x67AD6671793B988489188E0205e6f95272f2C087",
  "abi": [
    {
      "anonymous": false,
      "inputs": [
        {
          "indexed": false,
          "internalType": "address",
          "name": "token",
          "type": "address"
        },
        {
          "indexed": false,
          "internalType": "uint256",
          "name": "weight",
          "type": "uint256"
        }
      ],
      "name": "AddVoteToken",
      "type": "event"
    },
    {
      "anonymous": false,
      "inputs": [
        {
          "indexed": false,
          "internalType": "address",
          "name": "previousAdmin",
          "type": "address"
        },
        {
          "indexed": false,
          "internalType": "address",
          "name": "newAdmin",
          "type": "address"
        }
      ],
      "name": "AdminChanged",
      "type": "event"
    },
    {
      "anonymous": false,
      "inputs": [
        {
          "indexed": true,
          "internalType": "address",
          "name": "beacon",
          "type": "address"
        }
      ],
      "name": "BeaconUpgraded",
      "type": "event"
    },
    {
      "anonymous": false,
      "inputs": [
        {
          "indexed": false,
          "internalType": "uint256",
          "name": "proposalId",
          "type": "uint256"
        }
      ],
      "name": "ProposalCanceled",
      "type": "event"
    },
    {
      "anonymous": false,
      "inputs": [
        {
          "indexed": false,
          "internalType": "uint256",
          "name": "proposalId",
          "type": "uint256"
        },
        {
          "indexed": false,
          "internalType": "address",
          "name": "proposer",
          "type": "address"
        },
        {
          "indexed": false,
          "internalType": "address[]",
          "name": "targets",
          "type": "address[]"
        },
        {
          "indexed": false,
          "internalType": "uint256[]",
          "name": "values",
          "type": "uint256[]"
        },
        {
          "indexed": false,
          "internalType": "string[]",
          "name": "signatures",
          "type": "string[]"
        },
        {
          "indexed": false,
          "internalType": "bytes[]",
          "name": "calldatas",
          "type": "bytes[]"
        },
        {
          "indexed": false,
          "internalType": "uint256",
          "name": "startBlock",
          "type": "uint256"
        },
        {
          "indexed": false,
          "internalType": "uint256",
          "name": "endBlock",
          "type": "uint256"
        },
        {
          "indexed": false,
          "internalType": "string",
          "name": "description",
          "type": "string"
        }
      ],
      "name": "ProposalCreated",
      "type": "event"
    },
    {
      "anonymous": false,
      "inputs": [
        {
          "indexed": false,
          "internalType": "uint256",
          "name": "proposalId",
          "type": "uint256"
        }
      ],
      "name": "ProposalExecuted",
      "type": "event"
    },
    {
      "anonymous": false,
      "inputs": [
        {
          "indexed": true,
          "internalType": "address",
          "name": "implementation",
          "type": "address"
        }
      ],
      "name": "Upgraded",
      "type": "event"
    },
    {
      "anonymous": false,
      "inputs": [
        {
          "indexed": true,
          "internalType": "address",
          "name": "voter",
          "type": "address"
        },
        {
          "indexed": false,
          "internalType": "uint256",
          "name": "proposalId",
          "type": "uint256"
        },
        {
          "indexed": false,
          "internalType": "uint8",
          "name": "support",
          "type": "uint8"
        },
        {
          "indexed": false,
          "internalType": "uint256",
          "name": "weight",
          "type": "uint256"
        },
        {
          "indexed": false,
          "internalType": "string",
          "name": "reason",
          "type": "string"
        }
      ],
      "name": "VoteCast",
      "type": "event"
    },
    {
      "inputs": [],
      "name": "BALLOT_TYPEHASH",
      "outputs": [
        {
          "internalType": "bytes32",
          "name": "",
          "type": "bytes32"
        }
      ],
      "stateMutability": "view",
      "type": "function"
    },
    {
      "inputs": [],
      "name": "COUNTING_MODE",
      "outputs": [
        {
          "internalType": "string",
          "name": "",
          "type": "string"
        }
      ],
      "stateMutability": "pure",
      "type": "function"
    },
    {
      "inputs": [
        {
          "internalType": "address",
          "name": "token",
          "type": "address"
        },
        {
          "internalType": "uint256",
          "name": "weight",
          "type": "uint256"
        }
      ],
      "name": "addVoteToken",
      "outputs": [],
      "stateMutability": "nonpayable",
      "type": "function"
    },
    {
      "inputs": [
        {
          "internalType": "uint256",
          "name": "proposalId",
          "type": "uint256"
        },
        {
          "internalType": "uint8",
          "name": "support",
          "type": "uint8"
        }
      ],
      "name": "castVote",
      "outputs": [
        {
          "internalType": "uint256",
          "name": "",
          "type": "uint256"
        }
      ],
      "stateMutability": "nonpayable",
      "type": "function"
    },
    {
      "inputs": [
        {
          "internalType": "uint256",
          "name": "proposalId",
          "type": "uint256"
        },
        {
          "internalType": "uint8",
          "name": "support",
          "type": "uint8"
        },
        {
          "internalType": "uint8",
          "name": "v",
          "type": "uint8"
        },
        {
          "internalType": "bytes32",
          "name": "r",
          "type": "bytes32"
        },
        {
          "internalType": "bytes32",
          "name": "s",
          "type": "bytes32"
        }
      ],
      "name": "castVoteBySig",
      "outputs": [
        {
          "internalType": "uint256",
          "name": "",
          "type": "uint256"
        }
      ],
      "stateMutability": "nonpayable",
      "type": "function"
    },
    {
      "inputs": [
        {
          "internalType": "uint256",
          "name": "proposalId",
          "type": "uint256"
        },
        {
          "internalType": "uint8",
          "name": "support",
          "type": "uint8"
        },
        {
          "internalType": "string",
          "name": "reason",
          "type": "string"
        }
      ],
      "name": "castVoteWithReason",
      "outputs": [
        {
          "internalType": "uint256",
          "name": "",
          "type": "uint256"
        }
      ],
      "stateMutability": "nonpayable",
      "type": "function"
    },
    {
      "inputs": [],
      "name": "duration",
      "outputs": [
        {
          "internalType": "uint256",
          "name": "",
          "type": "uint256"
        }
      ],
      "stateMutability": "view",
      "type": "function"
    },
    {
      "inputs": [
        {
          "internalType": "address[]",
          "name": "targets",
          "type": "address[]"
        },
        {
          "internalType": "uint256[]",
          "name": "values",
          "type": "uint256[]"
        },
        {
          "internalType": "bytes[]",
          "name": "calldatas",
          "type": "bytes[]"
        },
        {
          "internalType": "bytes32",
          "name": "descriptionHash",
          "type": "bytes32"
        }
      ],
      "name": "execute",
      "outputs": [
        {
          "internalType": "uint256",
          "name": "",
          "type": "uint256"
        }
      ],
      "stateMutability": "payable",
      "type": "function"
    },
    {
      "inputs": [
        {
          "internalType": "uint256",
          "name": "proposalId",
          "type": "uint256"
        },
        {
          "internalType": "uint8",
          "name": "support",
          "type": "uint8"
        }
      ],
      "name": "getProposalVote",
      "outputs": [
        {
          "internalType": "uint256",
          "name": "",
          "type": "uint256"
        }
      ],
      "stateMutability": "view",
      "type": "function"
    },
    {
      "inputs": [
        {
          "internalType": "address",
          "name": "account",
          "type": "address"
        },
        {
          "internalType": "uint256",
          "name": "blockNumber",
          "type": "uint256"
        }
      ],
      "name": "getVotes",
      "outputs": [
        {
          "internalType": "uint256",
          "name": "",
          "type": "uint256"
        }
      ],
      "stateMutability": "view",
      "type": "function"
    },
    {
      "inputs": [
        {
          "internalType": "uint256",
          "name": "proposalId",
          "type": "uint256"
        },
        {
          "internalType": "address",
          "name": "account",
          "type": "address"
        }
      ],
      "name": "hasVoted",
      "outputs": [
        {
          "internalType": "bool",
          "name": "",
          "type": "bool"
        }
      ],
      "stateMutability": "view",
      "type": "function"
    },
    {
      "inputs": [
        {
          "internalType": "address[]",
          "name": "targets",
          "type": "address[]"
        },
        {
          "internalType": "uint256[]",
          "name": "values",
          "type": "uint256[]"
        },
        {
          "internalType": "bytes[]",
          "name": "calldatas",
          "type": "bytes[]"
        },
        {
          "internalType": "bytes32",
          "name": "descriptionHash",
          "type": "bytes32"
        }
      ],
      "name": "hashProposal",
      "outputs": [
        {
          "internalType": "uint256",
          "name": "",
          "type": "uint256"
        }
      ],
      "stateMutability": "pure",
      "type": "function"
    },
    {
      "inputs": [
        {
          "internalType": "address",
          "name": "_owner",
          "type": "address"
        },
        {
          "internalType": "string",
          "name": "_name",
          "type": "string"
        },
        {
          "internalType": "uint256",
          "name": "_duration",
          "type": "uint256"
        },
        {
          "internalType": "uint256",
          "name": "_quorum",
          "type": "uint256"
        },
        {
          "internalType": "uint256",
          "name": "_passThreshold",
          "type": "uint256"
        },
        {
          "internalType": "uint256[]",
          "name": "_voteWeights",
          "type": "uint256[]"
        },
        {
          "internalType": "address[]",
          "name": "_voteTokens",
          "type": "address[]"
        }
      ],
      "name": "initialize",
      "outputs": [],
      "stateMutability": "nonpayable",
      "type": "function"
    },
    {
      "inputs": [],
      "name": "name",
      "outputs": [
        {
          "internalType": "string",
          "name": "",
          "type": "string"
        }
      ],
      "stateMutability": "view",
      "type": "function"
    },
    {
      "inputs": [],
      "name": "owner",
      "outputs": [
        {
          "internalType": "address",
          "name": "",
          "type": "address"
        }
      ],
      "stateMutability": "view",
      "type": "function"
    },
    {
      "inputs": [],
      "name": "passThreshold",
      "outputs": [
        {
          "internalType": "uint256",
          "name": "",
          "type": "uint256"
        }
      ],
      "stateMutability": "view",
      "type": "function"
    },
    {
      "inputs": [
        {
          "internalType": "uint256",
          "name": "proposalId",
          "type": "uint256"
        }
      ],
      "name": "proposalDeadline",
      "outputs": [
        {
          "internalType": "uint256",
          "name": "",
          "type": "uint256"
        }
      ],
      "stateMutability": "view",
      "type": "function"
    },
    {
      "inputs": [
        {
          "internalType": "uint256",
          "name": "proposalId",
          "type": "uint256"
        }
      ],
      "name": "proposalSnapshot",
      "outputs": [
        {
          "internalType": "uint256",
          "name": "",
          "type": "uint256"
        }
      ],
      "stateMutability": "view",
      "type": "function"
    },
    {
      "inputs": [],
      "name": "proposalThreshold",
      "outputs": [
        {
          "internalType": "uint256",
          "name": "",
          "type": "uint256"
        }
      ],
      "stateMutability": "pure",
      "type": "function"
    },
    {
      "inputs": [
        {
          "internalType": "address[]",
          "name": "targets",
          "type": "address[]"
        },
        {
          "internalType": "uint256[]",
          "name": "values",
          "type": "uint256[]"
        },
        {
          "internalType": "bytes[]",
          "name": "calldatas",
          "type": "bytes[]"
        },
        {
          "internalType": "string",
          "name": "description",
          "type": "string"
        }
      ],
      "name": "propose",
      "outputs": [
        {
          "internalType": "uint256",
          "name": "",
          "type": "uint256"
        }
      ],
      "stateMutability": "nonpayable",
      "type": "function"
    },
    {
      "inputs": [],
      "name": "proxiableUUID",
      "outputs": [
        {
          "internalType": "bytes32",
          "name": "",
          "type": "bytes32"
        }
      ],
      "stateMutability": "view",
      "type": "function"
    },
    {
      "inputs": [
        {
          "internalType": "uint256",
          "name": "blockNumber",
          "type": "uint256"
        }
      ],
      "name": "quorum",
      "outputs": [
        {
          "internalType": "uint256",
          "name": "",
          "type": "uint256"
        }
      ],
      "stateMutability": "view",
      "type": "function"
    },
    {
      "inputs": [
        {
          "internalType": "uint256",
          "name": "proposalId",
          "type": "uint256"
        }
      ],
      "name": "quorumReached",
      "outputs": [
        {
          "internalType": "bool",
          "name": "",
          "type": "bool"
        }
      ],
      "stateMutability": "view",
      "type": "function"
    },
    {
      "inputs": [],
      "name": "quorumThreshold",
      "outputs": [
        {
          "internalType": "uint256",
          "name": "",
          "type": "uint256"
        }
      ],
      "stateMutability": "view",
      "type": "function"
    },
    {
      "inputs": [
        {
          "internalType": "address",
          "name": "target",
          "type": "address"
        },
        {
          "internalType": "uint256",
          "name": "value",
          "type": "uint256"
        },
        {
          "internalType": "bytes",
          "name": "data",
          "type": "bytes"
        }
      ],
      "name": "relay",
      "outputs": [],
      "stateMutability": "nonpayable",
      "type": "function"
    },
    {
      "inputs": [
        {
          "internalType": "uint256",
          "name": "proposalId",
          "type": "uint256"
        }
      ],
      "name": "state",
      "outputs": [
        {
          "internalType": "enum IGovernorUpgradeable.ProposalState",
          "name": "",
          "type": "uint8"
        }
      ],
      "stateMutability": "view",
      "type": "function"
    },
    {
      "inputs": [
        {
          "internalType": "bytes4",
          "name": "interfaceId",
          "type": "bytes4"
        }
      ],
      "name": "supportsInterface",
      "outputs": [
        {
          "internalType": "bool",
          "name": "",
          "type": "bool"
        }
      ],
      "stateMutability": "view",
      "type": "function"
    },
    {
      "inputs": [
        {
          "internalType": "uint256",
          "name": "blockNumber",
          "type": "uint256"
        }
      ],
      "name": "totalPastSupply",
      "outputs": [
        {
          "internalType": "uint256",
          "name": "",
          "type": "uint256"
        }
      ],
      "stateMutability": "view",
      "type": "function"
    },
    {
      "inputs": [
        {
          "internalType": "address",
          "name": "newImplementation",
          "type": "address"
        }
      ],
      "name": "upgradeTo",
      "outputs": [],
      "stateMutability": "nonpayable",
      "type": "function"
    },
    {
      "inputs": [
        {
          "internalType": "address",
          "name": "newImplementation",
          "type": "address"
        },
        {
          "internalType": "bytes",
          "name": "data",
          "type": "bytes"
        }
      ],
      "name": "upgradeToAndCall",
      "outputs": [],
      "stateMutability": "payable",
      "type": "function"
    },
    {
      "inputs": [],
      "name": "version",
      "outputs": [
        {
          "internalType": "string",
          "name": "",
          "type": "string"
        }
      ],
      "stateMutability": "view",
      "type": "function"
    },
    {
      "inputs": [
        {
          "internalType": "uint256",
          "name": "proposalId",
          "type": "uint256"
        }
      ],
      "name": "voteSucceeded",
      "outputs": [
        {
          "internalType": "bool",
          "name": "",
          "type": "bool"
        }
      ],
      "stateMutability": "view",
      "type": "function"
    },
    {
      "inputs": [
        {
          "internalType": "uint256",
          "name": "",
          "type": "uint256"
        }
      ],
      "name": "voteTokens",
      "outputs": [
        {
          "internalType": "address",
          "name": "",
          "type": "address"
        }
      ],
      "stateMutability": "view",
      "type": "function"
    },
    {
      "inputs": [
        {
          "internalType": "uint256",
          "name": "",
          "type": "uint256"
        }
      ],
      "name": "voteWeights",
      "outputs": [
        {
          "internalType": "uint256",
          "name": "",
          "type": "uint256"
        }
      ],
      "stateMutability": "view",
      "type": "function"
    },
    {
      "inputs": [],
      "name": "votingDelay",
      "outputs": [
        {
          "internalType": "uint256",
          "name": "",
          "type": "uint256"
        }
      ],
      "stateMutability": "pure",
      "type": "function"
    },
    {
      "inputs": [],
      "name": "votingPeriod",
      "outputs": [
        {
          "internalType": "uint256",
          "name": "",
          "type": "uint256"
        }
      ],
      "stateMutability": "view",
      "type": "function"
    },
    {
      "stateMutability": "payable",
      "type": "receive"
    }
  ],
  "transactionHash": "0x8a18fce30df124cdcab5896440271b9fb03eea5b6e4de2b68401056f9cbe9f97",
  "args": [],
  "numDeployments": 1,
  "solcInputHash": "86dfe1265a8c9c9d3960345b0927392b",
  "bytecode": "0x60a06040523060601b60805234801561001757600080fd5b5060805160601c6133716100526000396000818161088d015281816108cd01528181610ba601528181610be60152610c7901526133716000f3fe6080604052600436106102135760003560e01c80636482ff9811610118578063c59057e4116100a0578063dc5dadc01161006f578063dc5dadc01461060a578063dd4e2ba51461062a578063deaaa7cc14610670578063eb9019d4146106a4578063f8ce560a146106c457600080fd5b8063c59057e41461058a578063d4a8dd98146105aa578063d6ccb298146105ca578063da043af3146105ea57600080fd5b80638d73b031116100e75780638d73b031146105095780638da5cb5b14610529578063b58131b014610305578063c01f9e371461054a578063c28bc2fa1461056a57600080fd5b80636482ff981461047a5780637b3c71d3146104b25780637b7a91dd146104d25780637d5e81e2146104e957600080fd5b80633e4f49e61161019b5780634f1ef2861161016a5780634f1ef286146103e857806352d1902d146103fb57806354fd4d5014610410578063567813881461043a57806356f40aa21461045a57600080fd5b80633e4f49e614610339578063438596321461036657806345f3c4d6146103b15780634b3a9a2c146103d157600080fd5b80632656227d116101e25780632656227d146102b25780632d63f693146102c55780633659cfe6146102e55780633932abb1146103055780633bccf4fd1461031957600080fd5b806301ffc9a71461022157806302a251a31461025657806306fdde03146102795780630fb5a6b41461029b57600080fd5b3661021c57005b005b600080fd5b34801561022d57600080fd5b5061024161023c366004612be9565b6106e4565b60405190151581526020015b60405180910390f35b34801561026257600080fd5b5061026b61071b565b60405190815260200161024d565b34801561028557600080fd5b5061028e610732565b60405161024d9190612e8e565b3480156102a757600080fd5b5061026b6101625481565b61026b6102c0366004612a95565b6107c5565b3480156102d157600080fd5b5061026b6102e0366004612c13565b61084a565b3480156102f157600080fd5b5061021a6103003660046128f5565b610882565b34801561031157600080fd5b50600061026b565b34801561032557600080fd5b5061026b610334366004612cbc565b610962565b34801561034557600080fd5b50610359610354366004612c13565b6109f6565b60405161024d9190612e66565b34801561037257600080fd5b50610241610381366004612c2c565b6000828152610167602090815260408083206001600160a01b038516845260030190915290205460ff1692915050565b3480156103bd57600080fd5b5061026b6103cc366004612c58565b610af4565b3480156103dd57600080fd5b5061026b6101645481565b61021a6103f6366004612910565b610b9b565b34801561040757600080fd5b5061026b610c6c565b34801561041c57600080fd5b506040805180820190915260018152603160f81b602082015261028e565b34801561044657600080fd5b5061026b610455366004612c58565b610d1f565b34801561046657600080fd5b5061026b610475366004612c13565b610d48565b34801561048657600080fd5b5061049a610495366004612c13565b610d6a565b6040516001600160a01b03909116815260200161024d565b3480156104be57600080fd5b5061026b6104cd366004612c7b565b610d95565b3480156104de57600080fd5b5061026b6101635481565b3480156104f557600080fd5b5061026b610504366004612b24565b610de7565b34801561051557600080fd5b50610241610524366004612c13565b6110ba565b34801561053557600080fd5b506101615461049a906001600160a01b031681565b34801561055657600080fd5b5061026b610565366004612c13565b6110c5565b34801561057657600080fd5b5061021a610585366004612a3c565b6110f5565b34801561059657600080fd5b5061026b6105a5366004612a95565b61118d565b3480156105b657600080fd5b506102416105c5366004612c13565b6111c7565b3480156105d657600080fd5b5061021a6105e536600461295d565b6111d2565b3480156105f657600080fd5b5061021a610605366004612a12565b6112f3565b34801561061657600080fd5b5061026b610625366004612c13565b611494565b34801561063657600080fd5b5060408051808201909152601a81527f737570706f72743d627261766f2671756f72756d3d627261766f000000000000602082015261028e565b34801561067c57600080fd5b5061026b7f150214d74d59b7d1e90c73fc22ef3d991dd0a76b046543d4d80ab92d2a50328f81565b3480156106b057600080fd5b5061026b6106bf366004612a12565b611568565b3480156106d057600080fd5b5061026b6106df366004612c13565b61166f565b60006001600160e01b0319821663bf26d89760e01b148061071557506301ffc9a760e01b6001600160e01b03198316145b92915050565b6000600d6101625461072d9190613172565b905090565b606061012f8054610742906131f6565b80601f016020809104026020016040519081016040528092919081815260200182805461076e906131f6565b80156107bb5780601f10610790576101008083540402835291602001916107bb565b820191906000526020600020905b81548152906001019060200180831161079e57829003601f168201915b5050505050905090565b6000806001600160a01b0316856000815181106107e4576107e4613278565b60200260200101516001600160a01b031614156108355760405162461bcd60e51b815260206004820152600a6024820152691b9bc818dbdb9d195b9d60b21b60448201526064015b60405180910390fd5b61084185858585611694565b95945050505050565b6000818152610130602090815260408083208151928301909152546001600160401b0316908190525b6001600160401b031692915050565b306001600160a01b037f00000000000000000000000000000000000000000000000000000000000000001614156108cb5760405162461bcd60e51b815260040161082c90612ee2565b7f00000000000000000000000000000000000000000000000000000000000000006001600160a01b03166109146000805160206132cc833981519152546001600160a01b031690565b6001600160a01b03161461093a5760405162461bcd60e51b815260040161082c90612f2e565b610943816117a7565b6040805160008082526020820190925261095f918391906117f2565b50565b604080517f150214d74d59b7d1e90c73fc22ef3d991dd0a76b046543d4d80ab92d2a50328f602082015290810186905260ff8516606082015260009081906109ce906109c69060800160405160208183030381529060405280519060200120611971565b8686866119bf565b90506109eb878288604051806020016040528060008152506119dd565b979650505050505050565b600081815261013060205260408120600281015460ff1615610a1b5750600792915050565b6002810154610100900460ff1615610a365750600292915050565b6000610a418461084a565b905080610a905760405162461bcd60e51b815260206004820152601d60248201527f476f7665726e6f723a20756e6b6e6f776e2070726f706f73616c206964000000604482015260640161082c565b438110610aa1575060009392505050565b6000610aac856110c5565b9050438110610ac057506001949350505050565b610ac985611ae8565b8015610ad95750610ad985611b2f565b15610ae957506004949350505050565b506003949350505050565b60008281526101676020526040812060ff8316610b1357549050610715565b60ff831660011415610b2a57600101549050610715565b60ff831660021415610b4157600201549050610715565b60405162461bcd60e51b815260206004820152602960248201527f476f7665726e6f723a20696e76616c69642076616c756520666f7220656e756d60448201526820566f74655479706560b81b606482015260840161082c565b306001600160a01b037f0000000000000000000000000000000000000000000000000000000000000000161415610be45760405162461bcd60e51b815260040161082c90612ee2565b7f00000000000000000000000000000000000000000000000000000000000000006001600160a01b0316610c2d6000805160206132cc833981519152546001600160a01b031690565b6001600160a01b031614610c535760405162461bcd60e51b815260040161082c90612f2e565b610c5c826117a7565b610c68828260016117f2565b5050565b6000306001600160a01b037f00000000000000000000000000000000000000000000000000000000000000001614610d0c5760405162461bcd60e51b815260206004820152603860248201527f555550535570677261646561626c653a206d757374206e6f742062652063616c60448201527f6c6564207468726f7567682064656c656761746563616c6c0000000000000000606482015260840161082c565b506000805160206132cc83398151915290565b600080339050610d40848285604051806020016040528060008152506119dd565b949350505050565b6101658181548110610d5957600080fd5b600091825260209091200154905081565b6101668181548110610d7b57600080fd5b6000918252602090912001546001600160a01b0316905081565b600080339050610ddd86828787878080601f0160208091040260200160405190810160405280939291908181526020018383808284376000920191909152506119dd92505050565b9695505050505050565b600080610df9336106bf6001436131b3565b1015610e795760405162461bcd60e51b815260206004820152604360248201527f476f7665726e6f72436f6d7061746962696c697479427261766f3a2070726f7060448201527f6f73657220766f7465732062656c6f772070726f706f73616c207468726573686064820152621bdb1960ea1b608482015260a40161082c565b6000610e8e868686868051906020012061118d565b90508451865114610eb15760405162461bcd60e51b815260040161082c90612ea1565b8351865114610ed25760405162461bcd60e51b815260040161082c90612ea1565b6000865111610f235760405162461bcd60e51b815260206004820152601860248201527f476f7665726e6f723a20656d7074792070726f706f73616c0000000000000000604482015260640161082c565b60008181526101306020908152604091829020825191820190925281546001600160401b03169081905215610fa45760405162461bcd60e51b815260206004820152602160248201527f476f7665726e6f723a2070726f706f73616c20616c72656164792065786973746044820152607360f81b606482015260840161082c565b6000610fb481611b87565b611b87565b610fbd43611b87565b610fc79190613147565b90506000610fd6610faf61071b565b610fe09083613147565b835467ffffffffffffffff19166001600160401b038416178455905060018301805467ffffffffffffffff19166001600160401b0383161790557f7d84a6263ae0d98d3329bd7b46bb4e8d6f98cd35a7adb45c274c8b7fd5ebd5e084338b8b8d516001600160401b038111156110585761105861328e565b60405190808252806020026020018201604052801561108b57816020015b60608152602001906001900390816110765790505b508c88888e6040516110a599989796959493929190612fc5565b60405180910390a15091979650505050505050565b600061071582611b2f565b6000818152610130602090815260408083208151928301909152600101546001600160401b031690819052610873565b3330146111445760405162461bcd60e51b815260206004820152601860248201527f476f7665726e6f723a206f6e6c79476f7665726e616e63650000000000000000604482015260640161082c565b6111868483838080601f016020809104026020016040519081016040528093929190818152602001838380828437600092019190915250889250611bf3915050565b5050505050565b6000848484846040516020016111a69493929190612e1b565b60408051601f19818403018152919052805160209091012095945050505050565b600061071582611ae8565b600054610100900460ff166111ed5760005460ff16156111f1565b303b155b6112545760405162461bcd60e51b815260206004820152602e60248201527f496e697469616c697a61626c653a20636f6e747261637420697320616c72656160448201526d191e481a5b9a5d1a585b1a5e995960921b606482015260840161082c565b600054610100900460ff16158015611276576000805461ffff19166101011790555b61127f87611c23565b61016180546001600160a01b0319166001600160a01b038a1617905561016286905561016385905561016484905582516112c190610165906020860190612583565b5081516112d6906101669060208501906125ca565b5080156112e9576000805461ff00191690555b5050505050505050565b610161546001600160a01b0316331461133e5760405162461bcd60e51b815260206004820152600d60248201526c1058d8d95cdcc819195b9a5959609a1b604482015260640161082c565b60005b610166548110156113d757826001600160a01b0316610166828154811061136a5761136a613278565b6000918252602090912001546001600160a01b031614156113c55760405162461bcd60e51b8152602060048201526015602482015274151bdad95b88185b1c9958591e481a5b881b1a5cdd605a1b604482015260640161082c565b806113cf81613231565b915050611341565b50610166805460018082019092557fa5a4c57b7184ec73d55be4993773cb4eef681bc86a28d0285cd66efb50676a970180546001600160a01b0319166001600160a01b038516908117909155610165805492830181556000527fd91ca5e44fa96a1732bfaed7fe33fc20ed69a9895cde1f18c7dcabca39d6a78b90910182905560408051918252602082018390527f6ceb863bca038349b7317c60cc616d536413690f5699e38b4a6748284600e34f910160405180910390a15050565b600080805b6101665481101561156157600061016682815481106114ba576114ba613278565b600091825260209091200154604051632394e7a360e21b8152600481018790526001600160a01b0390911690638e539e8c9060240160206040518083038186803b15801561150757600080fd5b505afa15801561151b573d6000803e3d6000fd5b505050506040513d601f19601f8201168201806040525081019061153f9190612bd0565b905061154b818461312f565b925050808061155990613231565b915050611499565b5092915050565b600080805b61016654811015611667576000610166828154811061158e5761158e613278565b600091825260209091200154604051630748d63560e31b81526001600160a01b0388811660048301526024820188905290911690633a46b1a89060440160206040518083038186803b1580156115e357600080fd5b505afa1580156115f7573d6000803e3d6000fd5b505050506040513d601f19601f8201168201806040525081019061161b9190612bd0565b9050610165828154811061163157611631613278565b9060005260206000200154816116479190613194565b611651908461312f565b925050808061165f90613231565b91505061156d565b509392505050565b60006064610163546116819190613172565b61168a83611494565b6107159190613194565b6000806116a38686868661118d565b905060006116b0826109f6565b905060048160078111156116c6576116c6613262565b14806116e3575060058160078111156116e1576116e1613262565b145b6117395760405162461bcd60e51b815260206004820152602160248201527f476f7665726e6f723a2070726f706f73616c206e6f74207375636365737366756044820152601b60fa1b606482015260840161082c565b6000828152610130602052604090819020600201805460ff19166001179055517f712ae1383f79ac853f8d882153778e0260ef8f03b504e2866e0593e04d2b291f906117889084815260200190565b60405180910390a161179d8288888888611c7a565b5095945050505050565b610161546001600160a01b0316331461095f5760405162461bcd60e51b815260206004820152600d60248201526c1058d8d95cdcc819195b9a5959609a1b604482015260640161082c565b7f4910fdfa16fed3260ed0e7147f7cc6da11a60208b5b9406d12a635614ffd91435460ff161561182a5761182583611d79565b505050565b826001600160a01b03166352d1902d6040518163ffffffff1660e01b815260040160206040518083038186803b15801561186357600080fd5b505afa925050508015611893575060408051601f3d908101601f1916820190925261189091810190612bd0565b60015b6118f65760405162461bcd60e51b815260206004820152602e60248201527f45524331393637557067726164653a206e657720696d706c656d656e7461746960448201526d6f6e206973206e6f74205555505360901b606482015260840161082c565b6000805160206132cc83398151915281146119655760405162461bcd60e51b815260206004820152602960248201527f45524331393637557067726164653a20756e737570706f727465642070726f786044820152681a58589b195555525160ba1b606482015260840161082c565b50611825838383611e15565b600061071561197e611e40565b8360405161190160f01b6020820152602281018390526042810182905260009060620160405160208183030381529060405280519060200120905092915050565b60008060006119d087878787611ebb565b9150915061179d81611fa8565b60008481526101306020526040812060016119f7876109f6565b6007811115611a0857611a08613262565b14611a615760405162461bcd60e51b815260206004820152602360248201527f476f7665726e6f723a20766f7465206e6f742063757272656e746c792061637460448201526269766560e81b606482015260840161082c565b604080516020810190915281546001600160401b031690819052600090611a89908790611568565b9050611a9787878784612163565b856001600160a01b03167fb8e138887d0aa13bab447e82de9d5c1777041ecd21ca36ba824ff1e6c07ddda488878488604051611ad694939291906130b4565b60405180910390a29695505050505050565b600081815261016760205260408120600281015460018201548391611b0c9161312f565b9050611b19816064613194565b611b256106df8661084a565b1115949350505050565b600081815261016760205260408120805460018201548391611b509161312f565b905060646101645482611b639190613194565b611b6d9190613172565b6001830154611b7d906064613194565b1015949350505050565b60006001600160401b03821115611bef5760405162461bcd60e51b815260206004820152602660248201527f53616665436173743a2076616c756520646f65736e27742066697420696e203660448201526534206269747360d01b606482015260840161082c565b5090565b6060611c198484846040518060600160405280602981526020016132ec6029913961227d565b90505b9392505050565b600054610100900460ff16611c4a5760405162461bcd60e51b815260040161082c90612f7a565b611c7181611c6c6040805180820190915260018152603160f81b602082015290565b6123a3565b61095f816123e4565b60006040518060600160405280602781526020016132a560279139905060005b8551811015611d7057600080878381518110611cb857611cb8613278565b60200260200101516001600160a01b0316878481518110611cdb57611cdb613278565b6020026020010151878581518110611cf557611cf5613278565b6020026020010151604051611d0a9190612dff565b60006040518083038185875af1925050503d8060008114611d47576040519150601f19603f3d011682016040523d82523d6000602084013e611d4c565b606091505b5091509150611d5c82828661241f565b50505080611d6990613231565b9050611c9a565b50505050505050565b6001600160a01b0381163b611de65760405162461bcd60e51b815260206004820152602d60248201527f455243313936373a206e657720696d706c656d656e746174696f6e206973206e60448201526c1bdd08184818dbdb9d1c9858dd609a1b606482015260840161082c565b6000805160206132cc83398151915280546001600160a01b0319166001600160a01b0392909216919091179055565b611e1e83612458565b600082511180611e2b5750805b1561182557611e3a8383612498565b50505050565b600061072d7f8b73c3c69bb8fe3d512ecc4cf759cc79239f7b179b0ffacaa9a75d522b39400f611e6f60c95490565b60ca546040805160208101859052908101839052606081018290524660808201523060a082015260009060c0016040516020818303038152906040528051906020012090509392505050565b6000807f7fffffffffffffffffffffffffffffff5d576e7357a4501ddfe92f46681b20a0831115611ef25750600090506003611f9f565b8460ff16601b14158015611f0a57508460ff16601c14155b15611f1b5750600090506004611f9f565b6040805160008082526020820180845289905260ff881692820192909252606081018690526080810185905260019060a0016020604051602081039080840390855afa158015611f6f573d6000803e3d6000fd5b5050604051601f1901519150506001600160a01b038116611f9857600060019250925050611f9f565b9150600090505b94509492505050565b6000816004811115611fbc57611fbc613262565b1415611fc55750565b6001816004811115611fd957611fd9613262565b14156120275760405162461bcd60e51b815260206004820152601860248201527f45434453413a20696e76616c6964207369676e61747572650000000000000000604482015260640161082c565b600281600481111561203b5761203b613262565b14156120895760405162461bcd60e51b815260206004820152601f60248201527f45434453413a20696e76616c6964207369676e6174757265206c656e67746800604482015260640161082c565b600381600481111561209d5761209d613262565b14156120f65760405162461bcd60e51b815260206004820152602260248201527f45434453413a20696e76616c6964207369676e6174757265202773272076616c604482015261756560f01b606482015260840161082c565b600481600481111561210a5761210a613262565b141561095f5760405162461bcd60e51b815260206004820152602260248201527f45434453413a20696e76616c6964207369676e6174757265202776272076616c604482015261756560f01b606482015260840161082c565b6000848152610167602090815260408083206001600160a01b0387168452600381019092529091205460ff16156121ec5760405162461bcd60e51b815260206004820152602760248201527f476f7665726e6f72566f74696e6753696d706c653a20766f746520616c726561604482015266191e4818d85cdd60ca1b606482015260840161082c565b6001600160a01b03841660009081526003820160205260408120805460ff1916600117905560ff168360ff16141561223d5781816000016000828254612232919061312f565b909155506111869050565b60ff83166001141561225d5781816001016000828254612232919061312f565b60ff831660021415610b415781816002016000828254612232919061312f565b6060824710156122de5760405162461bcd60e51b815260206004820152602660248201527f416464726573733a20696e73756666696369656e742062616c616e636520666f6044820152651c8818d85b1b60d21b606482015260840161082c565b6001600160a01b0385163b6123355760405162461bcd60e51b815260206004820152601d60248201527f416464726573733a2063616c6c20746f206e6f6e2d636f6e7472616374000000604482015260640161082c565b600080866001600160a01b031685876040516123519190612dff565b60006040518083038185875af1925050503d806000811461238e576040519150601f19603f3d011682016040523d82523d6000602084013e612393565b606091505b50915091506109eb82828661241f565b600054610100900460ff166123ca5760405162461bcd60e51b815260040161082c90612f7a565b81516020928301208151919092012060c99190915560ca55565b600054610100900460ff1661240b5760405162461bcd60e51b815260040161082c90612f7a565b8051610c689061012f90602084019061261f565b6060831561242e575081611c1c565b82511561243e5782518084602001fd5b8160405162461bcd60e51b815260040161082c9190612e8e565b61246181611d79565b6040516001600160a01b038216907fbc7cd75a20ee27fd9adebab32041f755214dbc6bffa90cc0225b39da2e5c2d3b90600090a250565b60606001600160a01b0383163b6125005760405162461bcd60e51b815260206004820152602660248201527f416464726573733a2064656c65676174652063616c6c20746f206e6f6e2d636f6044820152651b9d1c9858dd60d21b606482015260840161082c565b600080846001600160a01b03168460405161251b9190612dff565b600060405180830381855af49150503d8060008114612556576040519150601f19603f3d011682016040523d82523d6000602084013e61255b565b606091505b509150915061084182826040518060600160405280602781526020016133156027913961241f565b8280548282559060005260206000209081019282156125be579160200282015b828111156125be5782518255916020019190600101906125a3565b50611bef929150612692565b8280548282559060005260206000209081019282156125be579160200282015b828111156125be57825182546001600160a01b0319166001600160a01b039091161782556020909201916001909101906125ea565b82805461262b906131f6565b90600052602060002090601f01602090048101928261264d57600085556125be565b82601f1061266657805160ff19168380011785556125be565b828001600101855582156125be57918201828111156125be5782518255916020019190600101906125a3565b5b80821115611bef5760008155600101612693565b80356001600160a01b03811681146126be57600080fd5b919050565b600082601f8301126126d457600080fd5b813560206126e96126e48361310c565b6130dc565b80838252828201915082860187848660051b890101111561270957600080fd5b60005b8581101561272f5761271d826126a7565b8452928401929084019060010161270c565b5090979650505050505050565b600082601f83011261274d57600080fd5b8135602061275d6126e48361310c565b80838252828201915082860187848660051b890101111561277d57600080fd5b6000805b868110156127bf5782356001600160401b0381111561279e578283fd5b6127ac8b88838d0101612875565b8652509385019391850191600101612781565b509198975050505050505050565b600082601f8301126127de57600080fd5b813560206127ee6126e48361310c565b80838252828201915082860187848660051b890101111561280e57600080fd5b60005b8581101561272f57813584529284019290840190600101612811565b60008083601f84011261283f57600080fd5b5081356001600160401b0381111561285657600080fd5b60208301915083602082850101111561286e57600080fd5b9250929050565b600082601f83011261288657600080fd5b81356001600160401b0381111561289f5761289f61328e565b6128b2601f8201601f19166020016130dc565b8181528460208386010111156128c757600080fd5b816020850160208301376000918101602001919091529392505050565b803560ff811681146126be57600080fd5b60006020828403121561290757600080fd5b611c1c826126a7565b6000806040838503121561292357600080fd5b61292c836126a7565b915060208301356001600160401b0381111561294757600080fd5b61295385828601612875565b9150509250929050565b600080600080600080600060e0888a03121561297857600080fd5b612981886126a7565b965060208801356001600160401b038082111561299d57600080fd5b6129a98b838c01612875565b975060408a0135965060608a0135955060808a0135945060a08a01359150808211156129d457600080fd5b6129e08b838c016127cd565b935060c08a01359150808211156129f657600080fd5b50612a038a828b016126c3565b91505092959891949750929550565b60008060408385031215612a2557600080fd5b612a2e836126a7565b946020939093013593505050565b60008060008060608587031215612a5257600080fd5b612a5b856126a7565b93506020850135925060408501356001600160401b03811115612a7d57600080fd5b612a898782880161282d565b95989497509550505050565b60008060008060808587031215612aab57600080fd5b84356001600160401b0380821115612ac257600080fd5b612ace888389016126c3565b95506020870135915080821115612ae457600080fd5b612af0888389016127cd565b94506040870135915080821115612b0657600080fd5b50612b138782880161273c565b949793965093946060013593505050565b60008060008060808587031215612b3a57600080fd5b84356001600160401b0380821115612b5157600080fd5b612b5d888389016126c3565b95506020870135915080821115612b7357600080fd5b612b7f888389016127cd565b94506040870135915080821115612b9557600080fd5b612ba18883890161273c565b93506060870135915080821115612bb757600080fd5b50612bc487828801612875565b91505092959194509250565b600060208284031215612be257600080fd5b5051919050565b600060208284031215612bfb57600080fd5b81356001600160e01b031981168114611c1c57600080fd5b600060208284031215612c2557600080fd5b5035919050565b60008060408385031215612c3f57600080fd5b82359150612c4f602084016126a7565b90509250929050565b60008060408385031215612c6b57600080fd5b82359150612c4f602084016128e4565b60008060008060608587031215612c9157600080fd5b84359350612ca1602086016128e4565b925060408501356001600160401b03811115612a7d57600080fd5b600080600080600060a08688031215612cd457600080fd5b85359450612ce4602087016128e4565b9350612cf2604087016128e4565b94979396509394606081013594506080013592915050565b600081518084526020808501945080840160005b83811015612d435781516001600160a01b031687529582019590820190600101612d1e565b509495945050505050565b600081518084526020808501808196508360051b8101915082860160005b85811015612d96578284038952612d84848351612dd3565b98850198935090840190600101612d6c565b5091979650505050505050565b600081518084526020808501945080840160005b83811015612d4357815187529582019590820190600101612db7565b60008151808452612deb8160208601602086016131ca565b601f01601f19169290920160200192915050565b60008251612e118184602087016131ca565b9190910192915050565b608081526000612e2e6080830187612d0a565b8281036020840152612e408187612da3565b90508281036040840152612e548186612d4e565b91505082606083015295945050505050565b6020810160088310612e8857634e487b7160e01b600052602160045260246000fd5b91905290565b602081526000611c1c6020830184612dd3565b60208082526021908201527f476f7665726e6f723a20696e76616c69642070726f706f73616c206c656e67746040820152600d60fb1b606082015260800190565b6020808252602c908201527f46756e6374696f6e206d7573742062652063616c6c6564207468726f7567682060408201526b19195b1959d85d1958d85b1b60a21b606082015260800190565b6020808252602c908201527f46756e6374696f6e206d7573742062652063616c6c6564207468726f7567682060408201526b6163746976652070726f787960a01b606082015260800190565b6020808252602b908201527f496e697469616c697a61626c653a20636f6e7472616374206973206e6f74206960408201526a6e697469616c697a696e6760a81b606082015260800190565b60006101208b8352602060018060a01b038c1681850152816040850152612fee8285018c612d0a565b91508382036060850152613002828b612da3565b915083820360808501528189518084528284019150828160051b850101838c0160005b8381101561305357601f19878403018552613041838351612dd3565b94860194925090850190600101613025565b505086810360a0880152613067818c612d4e565b94505050505061308260c08401876001600160401b03169052565b6001600160401b03851660e08401528281036101008401526130a48185612dd3565b9c9b505050505050505050505050565b84815260ff84166020820152826040820152608060608201526000610ddd6080830184612dd3565b604051601f8201601f191681016001600160401b03811182821017156131045761310461328e565b604052919050565b60006001600160401b038211156131255761312561328e565b5060051b60200190565b600082198211156131425761314261324c565b500190565b60006001600160401b038083168185168083038211156131695761316961324c565b01949350505050565b60008261318f57634e487b7160e01b600052601260045260246000fd5b500490565b60008160001904831182151516156131ae576131ae61324c565b500290565b6000828210156131c5576131c561324c565b500390565b60005b838110156131e55781810151838201526020016131cd565b83811115611e3a5750506000910152565b600181811c9082168061320a57607f821691505b6020821081141561322b57634e487b7160e01b600052602260045260246000fd5b50919050565b60006000198214156132455761324561324c565b5060010190565b634e487b7160e01b600052601160045260246000fd5b634e487b7160e01b600052602160045260246000fd5b634e487b7160e01b600052603260045260246000fd5b634e487b7160e01b600052604160045260246000fdfe476f7665726e6f723a2063616c6c20726576657274656420776974686f7574206d657373616765360894a13ba1a3210667c828492db98dca3e2076cc3735a920a3ca505d382bbc416464726573733a206c6f772d6c6576656c2063616c6c20776974682076616c7565206661696c6564416464726573733a206c6f772d6c6576656c2064656c65676174652063616c6c206661696c6564a2646970667358221220486c18b8c29f0740da7be020b36d22d7be582ef7743be218bd156e74b1b7379964736f6c63430008070033",
  "devdoc": {
    "kind": "dev",
    "methods": {
      "COUNTING_MODE()": {
        "details": "A description of the possible `support` values for {castVote} and the way these votes are counted, meant to be consumed by UIs to show correct vote options and interpret the results. The string is a URL-encoded sequence of key-value pairs that each describe one aspect, for example `support=bravo&quorum=for,abstain`. There are 2 standard keys: `support` and `quorum`. - `support=bravo` refers to the vote options 0 = Against, 1 = For, 2 = Abstain, as in `GovernorBravo`. - `quorum=bravo` means that only For votes are counted towards quorum. - `quorum=for,abstain` means that both For and Abstain votes are counted towards quorum. NOTE: The string can be decoded by the standard https://developer.mozilla.org/en-US/docs/Web/API/URLSearchParams[`URLSearchParams`] JavaScript class."
      },
      "castVote(uint256,uint8)": {
        "details": "See {IGovernor-castVote}."
      },
      "castVoteBySig(uint256,uint8,uint8,bytes32,bytes32)": {
        "details": "See {IGovernor-castVoteBySig}."
      },
      "castVoteWithReason(uint256,uint8,string)": {
        "details": "See {IGovernor-castVoteWithReason}."
      },
      "execute(address[],uint256[],bytes[],bytes32)": {
        "details": "See {IGovernor-execute}."
      },
      "getVotes(address,uint256)": {
        "details": "Voting power of an `account` at a specific `blockNumber`. Note: this can be implemented in a number of ways, for example by reading the delegated balance from one (or multiple), {ERC20Votes} tokens."
      },
      "hasVoted(uint256,address)": {
        "details": "Returns weither `account` has cast a vote on `proposalId`."
      },
      "hashProposal(address[],uint256[],bytes[],bytes32)": {
        "details": "See {IGovernor-hashProposal}. The proposal id is produced by hashing the RLC encoded `targets` array, the `values` array, the `calldatas` array and the descriptionHash (bytes32 which itself is the keccak256 hash of the description string). This proposal id can be produced from the proposal data which is part of the {ProposalCreated} event. It can even be computed in advance, before the proposal is submitted. Note that the chainId and the governor address are not part of the proposal id computation. Consequently, the same proposal (with same operation and same description) will have the same id if submitted on multiple governors accross multiple networks. This also means that in order to execute the same operation twice (on the same governor) the proposer will have to change the description in order to avoid proposal id conflicts."
      },
      "name()": {
        "details": "See {IGovernor-name}."
      },
      "proposalDeadline(uint256)": {
        "details": "See {IGovernor-proposalDeadline}."
      },
      "proposalSnapshot(uint256)": {
        "details": "See {IGovernor-proposalSnapshot}."
      },
      "proposalThreshold()": {
        "details": "Part of the Governor Bravo's interface: _\"The number of votes required in order for a voter to become a proposer\"_."
      },
      "propose(address[],uint256[],bytes[],string)": {
        "details": "See {IGovernor-propose}."
      },
      "proxiableUUID()": {
        "details": "Implementation of the ERC1822 {proxiableUUID} function. This returns the storage slot used by the implementation. It is used to validate that the this implementation remains valid after an upgrade. IMPORTANT: A proxy pointing at a proxiable contract should not be considered proxiable itself, because this risks bricking a proxy that upgrades to it, by delegating to itself until out of gas. Thus it is critical that this function revert if invoked through a proxy. This is guaranteed by the `notDelegated` modifier."
      },
      "quorum(uint256)": {
        "details": "Minimum number of cast voted required for a proposal to be successful. Note: The `blockNumber` parameter corresponds to the snaphot used for counting vote. This allows to scale the quroum depending on values such as the totalSupply of a token at this block (see {ERC20Votes})."
      },
      "relay(address,uint256,bytes)": {
        "details": "Relays a transaction or function call to an arbitrary target. In cases where the governance executor is some contract other than the governor itself, like when using a timelock, this function can be invoked in a governance proposal to recover tokens or Ether that was sent to the governor contract by mistake. Note that if the executor is simply the governor itself, use of `relay` is redundant."
      },
      "state(uint256)": {
        "details": "See {IGovernor-state}."
      },
      "supportsInterface(bytes4)": {
        "details": "See {IERC165-supportsInterface}."
      },
      "upgradeTo(address)": {
        "details": "Upgrade the implementation of the proxy to `newImplementation`. Calls {_authorizeUpgrade}. Emits an {Upgraded} event."
      },
      "upgradeToAndCall(address,bytes)": {
        "details": "Upgrade the implementation of the proxy to `newImplementation`, and subsequently execute the function call encoded in `data`. Calls {_authorizeUpgrade}. Emits an {Upgraded} event."
      },
      "version()": {
        "details": "See {IGovernor-version}."
      },
      "votingDelay()": {
        "details": "Delay, in number of block, between the proposal is created and the vote starts. This can be increassed to leave time for users to buy voting power, of delegate it, before the voting of a proposal starts."
      },
      "votingPeriod()": {
        "details": "Delay, in number of blocks, between the vote start and vote ends. NOTE: The {votingDelay} can delay the start of the vote. This must be considered when setting the voting duration compared to the voting delay."
      }
    },
    "version": 1
  },
  "userdoc": {
    "kind": "user",
    "methods": {
      "COUNTING_MODE()": {
        "notice": "module:voting"
      },
      "getVotes(address,uint256)": {
        "notice": "module:reputation"
      },
      "hasVoted(uint256,address)": {
        "notice": "module:voting"
      },
      "quorum(uint256)": {
        "notice": "module:user-config"
      },
      "votingDelay()": {
        "notice": "module:user-config"
      },
      "votingPeriod()": {
        "notice": "module:user-config"
      }
    },
    "version": 1
  },
  "storageLayout": {
    "storage": [
      {
        "astId": 2736,
        "contract": "contracts/Govern.sol:Govern",
        "label": "_initialized",
        "offset": 0,
        "slot": "0",
        "type": "t_bool"
      },
      {
        "astId": 2739,
        "contract": "contracts/Govern.sol:Govern",
        "label": "_initializing",
        "offset": 1,
        "slot": "0",
        "type": "t_bool"
      },
      {
        "astId": 2718,
        "contract": "contracts/Govern.sol:Govern",
        "label": "__gap",
        "offset": 0,
        "slot": "1",
        "type": "t_array(t_uint256)50_storage"
      },
      {
        "astId": 2938,
        "contract": "contracts/Govern.sol:Govern",
        "label": "__gap",
        "offset": 0,
        "slot": "51",
        "type": "t_array(t_uint256)50_storage"
      },
      {
        "astId": 7651,
        "contract": "contracts/Govern.sol:Govern",
        "label": "__gap",
        "offset": 0,
        "slot": "101",
        "type": "t_array(t_uint256)50_storage"
      },
      {
        "astId": 8803,
        "contract": "contracts/Govern.sol:Govern",
        "label": "__gap",
        "offset": 0,
        "slot": "151",
        "type": "t_array(t_uint256)50_storage"
      },
      {
        "astId": 8619,
        "contract": "contracts/Govern.sol:Govern",
        "label": "_HASHED_NAME",
        "offset": 0,
        "slot": "201",
        "type": "t_bytes32"
      },
      {
        "astId": 8621,
        "contract": "contracts/Govern.sol:Govern",
        "label": "_HASHED_VERSION",
        "offset": 0,
        "slot": "202",
        "type": "t_bytes32"
      },
      {
        "astId": 8759,
        "contract": "contracts/Govern.sol:Govern",
        "label": "__gap",
        "offset": 0,
        "slot": "203",
        "type": "t_array(t_uint256)50_storage"
      },
      {
        "astId": 1787,
        "contract": "contracts/Govern.sol:Govern",
        "label": "__gap",
        "offset": 0,
        "slot": "253",
        "type": "t_array(t_uint256)50_storage"
      },
      {
        "astId": 701,
        "contract": "contracts/Govern.sol:Govern",
        "label": "_name",
        "offset": 0,
        "slot": "303",
        "type": "t_string_storage"
      },
      {
        "astId": 706,
        "contract": "contracts/Govern.sol:Govern",
        "label": "_proposals",
        "offset": 0,
        "slot": "304",
        "type": "t_mapping(t_uint256,t_struct(ProposalCore)699_storage)"
      },
      {
        "astId": 1531,
        "contract": "contracts/Govern.sol:Govern",
        "label": "__gap",
        "offset": 0,
        "slot": "305",
        "type": "t_array(t_uint256)48_storage"
      },
      {
        "astId": 17050,
        "contract": "contracts/Govern.sol:Govern",
        "label": "owner",
        "offset": 0,
        "slot": "353",
        "type": "t_address"
      },
      {
        "astId": 17052,
        "contract": "contracts/Govern.sol:Govern",
        "label": "duration",
        "offset": 0,
        "slot": "354",
        "type": "t_uint256"
      },
      {
        "astId": 17054,
        "contract": "contracts/Govern.sol:Govern",
        "label": "quorumThreshold",
        "offset": 0,
        "slot": "355",
        "type": "t_uint256"
      },
      {
        "astId": 17056,
        "contract": "contracts/Govern.sol:Govern",
        "label": "passThreshold",
        "offset": 0,
        "slot": "356",
        "type": "t_uint256"
      },
      {
        "astId": 17059,
        "contract": "contracts/Govern.sol:Govern",
        "label": "voteWeights",
        "offset": 0,
        "slot": "357",
        "type": "t_array(t_uint256)dyn_storage"
      },
      {
        "astId": 17062,
        "contract": "contracts/Govern.sol:Govern",
        "label": "voteTokens",
        "offset": 0,
        "slot": "358",
        "type": "t_array(t_address)dyn_storage"
      },
      {
        "astId": 17067,
        "contract": "contracts/Govern.sol:Govern",
        "label": "_proposalVotes",
        "offset": 0,
        "slot": "359",
        "type": "t_mapping(t_uint256,t_struct(ProposalVote)17048_storage)"
      }
    ],
    "types": {
      "t_address": {
        "encoding": "inplace",
        "label": "address",
        "numberOfBytes": "20"
      },
      "t_array(t_address)dyn_storage": {
        "base": "t_address",
        "encoding": "dynamic_array",
        "label": "address[]",
        "numberOfBytes": "32"
      },
      "t_array(t_uint256)48_storage": {
        "base": "t_uint256",
        "encoding": "inplace",
        "label": "uint256[48]",
        "numberOfBytes": "1536"
      },
      "t_array(t_uint256)50_storage": {
        "base": "t_uint256",
        "encoding": "inplace",
        "label": "uint256[50]",
        "numberOfBytes": "1600"
      },
      "t_array(t_uint256)dyn_storage": {
        "base": "t_uint256",
        "encoding": "dynamic_array",
        "label": "uint256[]",
        "numberOfBytes": "32"
      },
      "t_bool": {
        "encoding": "inplace",
        "label": "bool",
        "numberOfBytes": "1"
      },
      "t_bytes32": {
        "encoding": "inplace",
        "label": "bytes32",
        "numberOfBytes": "32"
      },
      "t_mapping(t_address,t_bool)": {
        "encoding": "mapping",
        "key": "t_address",
        "label": "mapping(address => bool)",
        "numberOfBytes": "32",
        "value": "t_bool"
      },
      "t_mapping(t_uint256,t_struct(ProposalCore)699_storage)": {
        "encoding": "mapping",
        "key": "t_uint256",
        "label": "mapping(uint256 => struct GovernorUpgradeable.ProposalCore)",
        "numberOfBytes": "32",
        "value": "t_struct(ProposalCore)699_storage"
      },
      "t_mapping(t_uint256,t_struct(ProposalVote)17048_storage)": {
        "encoding": "mapping",
        "key": "t_uint256",
        "label": "mapping(uint256 => struct Govern.ProposalVote)",
        "numberOfBytes": "32",
        "value": "t_struct(ProposalVote)17048_storage"
      },
      "t_string_storage": {
        "encoding": "bytes",
        "label": "string",
        "numberOfBytes": "32"
      },
      "t_struct(BlockNumber)8100_storage": {
        "encoding": "inplace",
        "label": "struct TimersUpgradeable.BlockNumber",
        "members": [
          {
            "astId": 8099,
            "contract": "contracts/Govern.sol:Govern",
            "label": "_deadline",
            "offset": 0,
            "slot": "0",
            "type": "t_uint64"
          }
        ],
        "numberOfBytes": "32"
      },
      "t_struct(ProposalCore)699_storage": {
        "encoding": "inplace",
        "label": "struct GovernorUpgradeable.ProposalCore",
        "members": [
          {
            "astId": 691,
            "contract": "contracts/Govern.sol:Govern",
            "label": "voteStart",
            "offset": 0,
            "slot": "0",
            "type": "t_struct(BlockNumber)8100_storage"
          },
          {
            "astId": 694,
            "contract": "contracts/Govern.sol:Govern",
            "label": "voteEnd",
            "offset": 0,
            "slot": "1",
            "type": "t_struct(BlockNumber)8100_storage"
          },
          {
            "astId": 696,
            "contract": "contracts/Govern.sol:Govern",
            "label": "executed",
            "offset": 0,
            "slot": "2",
            "type": "t_bool"
          },
          {
            "astId": 698,
            "contract": "contracts/Govern.sol:Govern",
            "label": "canceled",
            "offset": 1,
            "slot": "2",
            "type": "t_bool"
          }
        ],
        "numberOfBytes": "96"
      },
      "t_struct(ProposalVote)17048_storage": {
        "encoding": "inplace",
        "label": "struct Govern.ProposalVote",
        "members": [
          {
            "astId": 17039,
            "contract": "contracts/Govern.sol:Govern",
            "label": "againstVotes",
            "offset": 0,
            "slot": "0",
            "type": "t_uint256"
          },
          {
            "astId": 17041,
            "contract": "contracts/Govern.sol:Govern",
            "label": "forVotes",
            "offset": 0,
            "slot": "1",
            "type": "t_uint256"
          },
          {
            "astId": 17043,
            "contract": "contracts/Govern.sol:Govern",
            "label": "abstainVotes",
            "offset": 0,
            "slot": "2",
            "type": "t_uint256"
          },
          {
            "astId": 17047,
            "contract": "contracts/Govern.sol:Govern",
            "label": "hasVoted",
            "offset": 0,
            "slot": "3",
            "type": "t_mapping(t_address,t_bool)"
          }
        ],
        "numberOfBytes": "128"
      },
      "t_uint256": {
        "encoding": "inplace",
        "label": "uint256",
        "numberOfBytes": "32"
      },
      "t_uint64": {
        "encoding": "inplace",
        "label": "uint64",
        "numberOfBytes": "8"
      }
    }
  }
}