{
  "address": "0x6E2359Cd4Fe9B2Be0c197CfCC763d4824181F379",
  "abi": [
    {
      "anonymous": false,
      "inputs": [
        {
          "indexed": false,
          "internalType": "address",
          "name": "previousAdmin",
          "type": "address"
        },
        {
          "indexed": false,
          "internalType": "address",
          "name": "newAdmin",
          "type": "address"
        }
      ],
      "name": "AdminChanged",
      "type": "event"
    },
    {
      "anonymous": false,
      "inputs": [
        {
          "indexed": false,
          "internalType": "address",
          "name": "token",
          "type": "address"
        }
      ],
      "name": "AllowDepositToken",
      "type": "event"
    },
    {
      "anonymous": false,
      "inputs": [
        {
          "indexed": true,
          "internalType": "address",
          "name": "owner",
          "type": "address"
        },
        {
          "indexed": true,
          "internalType": "address",
          "name": "spender",
          "type": "address"
        },
        {
          "indexed": false,
          "internalType": "uint256",
          "name": "value",
          "type": "uint256"
        }
      ],
      "name": "Approval",
      "type": "event"
    },
    {
      "anonymous": false,
      "inputs": [
        {
          "indexed": true,
          "internalType": "address",
          "name": "beacon",
          "type": "address"
        }
      ],
      "name": "BeaconUpgraded",
      "type": "event"
    },
    {
      "anonymous": false,
      "inputs": [
        {
          "indexed": false,
          "internalType": "address",
          "name": "budgetApproval",
          "type": "address"
        },
        {
          "indexed": false,
          "internalType": "bytes",
          "name": "data",
          "type": "bytes"
        }
      ],
      "name": "CreateBudgetApproval",
      "type": "event"
    },
    {
      "anonymous": false,
      "inputs": [
        {
          "indexed": false,
          "internalType": "address",
          "name": "account",
          "type": "address"
        },
        {
          "indexed": false,
          "internalType": "address",
          "name": "token",
          "type": "address"
        },
        {
          "indexed": false,
          "internalType": "uint256",
          "name": "depositAmount",
          "type": "uint256"
        }
      ],
      "name": "Deposit",
      "type": "event"
    },
    {
      "anonymous": false,
      "inputs": [
        {
          "indexed": true,
          "internalType": "address",
          "name": "from",
          "type": "address"
        },
        {
          "indexed": true,
          "internalType": "address",
          "name": "to",
          "type": "address"
        },
        {
          "indexed": false,
          "internalType": "uint256",
          "name": "value",
          "type": "uint256"
        }
      ],
      "name": "Transfer",
      "type": "event"
    },
    {
      "anonymous": false,
      "inputs": [
        {
          "indexed": true,
          "internalType": "address",
          "name": "implementation",
          "type": "address"
        }
      ],
      "name": "Upgraded",
      "type": "event"
    },
    {
      "inputs": [
        {
          "internalType": "address[]",
          "name": "erc20s",
          "type": "address[]"
        }
      ],
      "name": "addAssets",
      "outputs": [],
      "stateMutability": "nonpayable",
      "type": "function"
    },
    {
      "inputs": [
        {
          "internalType": "address",
          "name": "owner",
          "type": "address"
        },
        {
          "internalType": "address",
          "name": "spender",
          "type": "address"
        }
      ],
      "name": "allowance",
      "outputs": [
        {
          "internalType": "uint256",
          "name": "",
          "type": "uint256"
        }
      ],
      "stateMutability": "view",
      "type": "function"
    },
    {
      "inputs": [
        {
          "internalType": "address",
          "name": "spender",
          "type": "address"
        },
        {
          "internalType": "uint256",
          "name": "amount",
          "type": "uint256"
        }
      ],
      "name": "approve",
      "outputs": [
        {
          "internalType": "bool",
          "name": "",
          "type": "bool"
        }
      ],
      "stateMutability": "nonpayable",
      "type": "function"
    },
    {
      "inputs": [
        {
          "internalType": "address",
          "name": "asset",
          "type": "address"
        },
        {
          "internalType": "uint256",
          "name": "amount",
          "type": "uint256"
        }
      ],
      "name": "assetBaseCurrencyPrice",
      "outputs": [
        {
          "internalType": "uint256",
          "name": "",
          "type": "uint256"
        }
      ],
      "stateMutability": "view",
      "type": "function"
    },
    {
      "inputs": [
        {
          "internalType": "address",
          "name": "asset",
          "type": "address"
        },
        {
          "internalType": "uint256",
          "name": "amount",
          "type": "uint256"
        }
      ],
      "name": "assetEthPrice",
      "outputs": [
        {
          "internalType": "uint256",
          "name": "",
          "type": "uint256"
        }
      ],
      "stateMutability": "view",
      "type": "function"
    },
    {
      "inputs": [
        {
          "internalType": "uint256",
          "name": "",
          "type": "uint256"
        }
      ],
      "name": "assets",
      "outputs": [
        {
          "internalType": "address",
          "name": "",
          "type": "address"
        }
      ],
      "stateMutability": "view",
      "type": "function"
    },
    {
      "inputs": [
        {
          "internalType": "address",
          "name": "asset",
          "type": "address"
        },
        {
          "internalType": "uint256",
          "name": "amount",
          "type": "uint256"
        }
      ],
      "name": "assetsShares",
      "outputs": [
        {
          "internalType": "uint256",
          "name": "",
          "type": "uint256"
        }
      ],
      "stateMutability": "view",
      "type": "function"
    },
    {
      "inputs": [
        {
          "internalType": "address",
          "name": "account",
          "type": "address"
        }
      ],
      "name": "balanceOf",
      "outputs": [
        {
          "internalType": "uint256",
          "name": "",
          "type": "uint256"
        }
      ],
      "stateMutability": "view",
      "type": "function"
    },
    {
      "inputs": [],
      "name": "baseCurrency",
      "outputs": [
        {
          "internalType": "address",
          "name": "",
          "type": "address"
        }
      ],
      "stateMutability": "view",
      "type": "function"
    },
    {
      "inputs": [],
      "name": "baseCurrencyDecimals",
      "outputs": [
        {
          "internalType": "uint8",
          "name": "",
          "type": "uint8"
        }
      ],
      "stateMutability": "view",
      "type": "function"
    },
    {
      "inputs": [
        {
          "internalType": "address",
          "name": "",
          "type": "address"
        }
      ],
      "name": "budgetApprovals",
      "outputs": [
        {
          "internalType": "bool",
          "name": "",
          "type": "bool"
        }
      ],
      "stateMutability": "view",
      "type": "function"
    },
    {
      "inputs": [
        {
          "internalType": "address",
          "name": "asset",
          "type": "address"
        }
      ],
      "name": "canAddAsset",
      "outputs": [
        {
          "internalType": "bool",
          "name": "",
          "type": "bool"
        }
      ],
      "stateMutability": "view",
      "type": "function"
    },
    {
      "inputs": [
        {
          "internalType": "address",
          "name": "asset",
          "type": "address"
        }
      ],
      "name": "canResolvePrice",
      "outputs": [
        {
          "internalType": "bool",
          "name": "",
          "type": "bool"
        }
      ],
      "stateMutability": "view",
      "type": "function"
    },
    {
      "inputs": [
        {
          "internalType": "address[]",
          "name": "_budgetApprovals",
          "type": "address[]"
        },
        {
          "internalType": "bytes[]",
          "name": "data",
          "type": "bytes[]"
        }
      ],
      "name": "createBudgetApprovals",
      "outputs": [],
      "stateMutability": "nonpayable",
      "type": "function"
    },
    {
      "inputs": [],
      "name": "dao",
      "outputs": [
        {
          "internalType": "contract IDao",
          "name": "",
          "type": "address"
        }
      ],
      "stateMutability": "view",
      "type": "function"
    },
    {
      "inputs": [],
      "name": "decimals",
      "outputs": [
        {
          "internalType": "uint8",
          "name": "",
          "type": "uint8"
        }
      ],
      "stateMutability": "view",
      "type": "function"
    },
    {
      "inputs": [
        {
          "internalType": "address",
          "name": "spender",
          "type": "address"
        },
        {
          "internalType": "uint256",
          "name": "subtractedValue",
          "type": "uint256"
        }
      ],
      "name": "decreaseAllowance",
      "outputs": [
        {
          "internalType": "bool",
          "name": "",
          "type": "bool"
        }
      ],
      "stateMutability": "nonpayable",
      "type": "function"
    },
    {
      "inputs": [
        {
          "internalType": "address",
          "name": "receiver",
          "type": "address"
        }
      ],
      "name": "deposit",
      "outputs": [],
      "stateMutability": "payable",
      "type": "function"
    },
    {
      "inputs": [
        {
          "internalType": "address",
          "name": "receiver",
          "type": "address"
        },
        {
          "internalType": "address",
          "name": "asset",
          "type": "address"
        },
        {
          "internalType": "uint256",
          "name": "amount",
          "type": "uint256"
        }
      ],
      "name": "depositToken",
      "outputs": [],
      "stateMutability": "nonpayable",
      "type": "function"
    },
    {
      "inputs": [
        {
          "internalType": "address",
          "name": "asset",
          "type": "address"
        },
        {
          "internalType": "uint256",
          "name": "ethAmount",
          "type": "uint256"
        }
      ],
      "name": "ethAssetPrice",
      "outputs": [
        {
          "internalType": "uint256",
          "name": "",
          "type": "uint256"
        }
      ],
      "stateMutability": "view",
      "type": "function"
    },
    {
      "inputs": [
        {
          "internalType": "address",
          "name": "_to",
          "type": "address"
        },
        {
          "internalType": "bytes",
          "name": "_data",
          "type": "bytes"
        },
        {
          "internalType": "uint256",
          "name": "_value",
          "type": "uint256"
        }
      ],
      "name": "executeByBudgetApproval",
      "outputs": [
        {
          "internalType": "bytes",
          "name": "",
          "type": "bytes"
        }
      ],
      "stateMutability": "nonpayable",
      "type": "function"
    },
    {
      "inputs": [
        {
          "internalType": "address",
          "name": "spender",
          "type": "address"
        },
        {
          "internalType": "uint256",
          "name": "addedValue",
          "type": "uint256"
        }
      ],
      "name": "increaseAllowance",
      "outputs": [
        {
          "internalType": "bool",
          "name": "",
          "type": "bool"
        }
      ],
      "stateMutability": "nonpayable",
      "type": "function"
    },
    {
      "inputs": [
        {
          "internalType": "address",
          "name": "owner",
          "type": "address"
        },
        {
          "internalType": "address[]",
          "name": "depositTokens",
          "type": "address[]"
        },
        {
          "internalType": "address",
          "name": "baseCurrency",
          "type": "address"
        }
      ],
      "name": "initialize",
      "outputs": [],
      "stateMutability": "nonpayable",
      "type": "function"
    },
    {
      "inputs": [
        {
          "internalType": "address",
          "name": "",
          "type": "address"
        }
      ],
      "name": "isAssetSupported",
      "outputs": [
        {
          "internalType": "bool",
          "name": "",
          "type": "bool"
        }
      ],
      "stateMutability": "view",
      "type": "function"
    },
    {
      "inputs": [],
      "name": "name",
      "outputs": [
        {
          "internalType": "string",
          "name": "",
          "type": "string"
        }
      ],
      "stateMutability": "view",
      "type": "function"
    },
    {
      "inputs": [],
      "name": "proxiableUUID",
      "outputs": [
        {
          "internalType": "bytes32",
          "name": "",
          "type": "bytes32"
        }
      ],
      "stateMutability": "view",
      "type": "function"
    },
    {
      "inputs": [
        {
          "internalType": "uint256",
          "name": "amount",
          "type": "uint256"
        }
      ],
      "name": "quote",
      "outputs": [
        {
          "internalType": "uint256",
          "name": "",
          "type": "uint256"
        }
      ],
      "stateMutability": "view",
      "type": "function"
    },
    {
      "inputs": [
        {
          "internalType": "uint256",
          "name": "amount",
          "type": "uint256"
        }
      ],
      "name": "redeem",
      "outputs": [],
      "stateMutability": "nonpayable",
      "type": "function"
    },
    {
      "inputs": [],
      "name": "symbol",
      "outputs": [
        {
          "internalType": "string",
          "name": "",
          "type": "string"
        }
      ],
      "stateMutability": "view",
      "type": "function"
    },
    {
      "inputs": [],
      "name": "team",
      "outputs": [
        {
          "internalType": "address",
          "name": "",
          "type": "address"
        }
      ],
      "stateMutability": "view",
      "type": "function"
    },
    {
      "inputs": [],
      "name": "totalPrice",
      "outputs": [
        {
          "internalType": "uint256",
          "name": "",
          "type": "uint256"
        }
      ],
      "stateMutability": "view",
      "type": "function"
    },
    {
      "inputs": [],
      "name": "totalPriceInEth",
      "outputs": [
        {
          "internalType": "uint256",
          "name": "",
          "type": "uint256"
        }
      ],
      "stateMutability": "view",
      "type": "function"
    },
    {
      "inputs": [],
      "name": "totalSupply",
      "outputs": [
        {
          "internalType": "uint256",
          "name": "",
          "type": "uint256"
        }
      ],
      "stateMutability": "view",
      "type": "function"
    },
    {
      "inputs": [
        {
          "internalType": "address",
          "name": "to",
          "type": "address"
        },
        {
          "internalType": "uint256",
          "name": "amount",
          "type": "uint256"
        }
      ],
      "name": "transfer",
      "outputs": [
        {
          "internalType": "bool",
          "name": "",
          "type": "bool"
        }
      ],
      "stateMutability": "nonpayable",
      "type": "function"
    },
    {
      "inputs": [
        {
          "internalType": "address",
          "name": "from",
          "type": "address"
        },
        {
          "internalType": "address",
          "name": "to",
          "type": "address"
        },
        {
          "internalType": "uint256",
          "name": "amount",
          "type": "uint256"
        }
      ],
      "name": "transferFrom",
      "outputs": [
        {
          "internalType": "bool",
          "name": "",
          "type": "bool"
        }
      ],
      "stateMutability": "nonpayable",
      "type": "function"
    },
    {
      "inputs": [
        {
          "internalType": "address",
          "name": "newImplementation",
          "type": "address"
        }
      ],
      "name": "upgradeTo",
      "outputs": [],
      "stateMutability": "nonpayable",
      "type": "function"
    },
    {
      "inputs": [
        {
          "internalType": "address",
          "name": "newImplementation",
          "type": "address"
        },
        {
          "internalType": "bytes",
          "name": "data",
          "type": "bytes"
        }
      ],
      "name": "upgradeToAndCall",
      "outputs": [],
      "stateMutability": "payable",
      "type": "function"
    },
    {
      "inputs": [],
      "name": "version",
      "outputs": [
        {
          "internalType": "uint256",
          "name": "",
          "type": "uint256"
        }
      ],
      "stateMutability": "pure",
      "type": "function"
    },
    {
      "stateMutability": "payable",
      "type": "receive"
    }
  ],
  "transactionHash": "0xb77aeaa1938fdd849b8eb62a2ec28f3be595d3cba50e7291a6507e68a41c58ee",
  "args": [],
  "numDeployments": 5,
  "solcInputHash": "42e6b2cb95b5aa4c83dcafac20b9e790",
  "bytecode": "0x60a06040523060601b60805234801561001757600080fd5b5060805160601c614cab610052600039600081816109a7015281816109ea01528181610b7d01528181610bc00152610c5c0152614cab6000f3fe608060405260043610620002575760003560e01c806385f2aef2116200013b578063bc9c5e9011620000b9578063dd62ed3e1162000078578063dd62ed3e1462000727578063df79812e1462000771578063ed1bd76c1462000796578063f340fa0114620007bb578063fb0f97a814620007d257600080fd5b8063bc9c5e90146200066e578063cf35bdd01462000693578063d3abc28b14620006b8578063db006a7514620006dd578063dc5b68a6146200070257600080fd5b8063a457c2d71162000106578063a457c2d714620005c2578063a9059cbb14620005e7578063ab0d92dd146200060c578063aea321c61462000624578063b49612ba146200064957600080fd5b806385f2aef2146200053257806392a85fde146200055457806395d89b411462000576578063a240663e146200058e57600080fd5b80634162169f11620001d55780635aaaefad11620001945780635aaaefad146200047157806360d8bb22146200049657806363d727dc14620004bb5780636f7a4b2314620004d357806370a0823114620004f857600080fd5b80634162169f14620003bd578063464b415814620003f85780634f1ef286146200042c57806352d1902d146200044357806354fd4d50146200045b57600080fd5b806330c88fd7116200022257806330c88fd71462000310578063313ce56714620003355780633659cfe6146200035957806337dde58a146200038057806339509351146200039857600080fd5b806306fdde031462000264578063095ea7b3146200029457806318160ddd14620002ca57806323b872dd14620002eb57600080fd5b366200025f57005b600080fd5b3480156200027157600080fd5b506200027c620007f7565b6040516200028b919062003f52565b60405180910390f35b348015620002a157600080fd5b50620002b9620002b336600462003bc9565b62000891565b60405190151581526020016200028b565b348015620002d757600080fd5b506099545b6040519081526020016200028b565b348015620002f857600080fd5b50620002b96200030a36600462003a62565b620008ad565b3480156200031d57600080fd5b50620002dc6200032f36600462003bc9565b620008d7565b3480156200034257600080fd5b5060125b60405160ff90911681526020016200028b565b3480156200036657600080fd5b506200037e62000378366004620039e4565b6200099c565b005b3480156200038d57600080fd5b50620002dc62000a88565b348015620003a557600080fd5b50620002b9620003b736600462003bc9565b62000b2f565b348015620003ca57600080fd5b5060cc54620003df906001600160a01b031681565b6040516001600160a01b0390911681526020016200028b565b3480156200040557600080fd5b50620002b962000417366004620039e4565b60ce6020526000908152604090205460ff1681565b6200037e6200043d36600462003b14565b62000b72565b3480156200045057600080fd5b50620002dc62000c4f565b3480156200046857600080fd5b506005620002dc565b3480156200047e57600080fd5b50620002dc6200049036600462003bc9565b62000d05565b348015620004a357600080fd5b50620002dc620004b536600462003bc9565b62000ebc565b348015620004c857600080fd5b5062000346620011cc565b348015620004e057600080fd5b50620002b9620004f2366004620039e4565b6200128a565b3480156200050557600080fd5b50620002dc62000517366004620039e4565b6001600160a01b031660009081526097602052604090205490565b3480156200053f57600080fd5b5060ca54620003df906001600160a01b031681565b3480156200056157600080fd5b5060c954620003df906001600160a01b031681565b3480156200058357600080fd5b506200027c62001297565b3480156200059b57600080fd5b50620002b9620005ad366004620039e4565b60cb6020526000908152604090205460ff1681565b348015620005cf57600080fd5b50620002b9620005e136600462003bc9565b620012a8565b348015620005f457600080fd5b50620002b96200060636600462003bc9565b62001349565b3480156200061957600080fd5b50620002dc62001359565b3480156200063157600080fd5b506200037e6200064336600462003bf8565b620013df565b3480156200065657600080fd5b50620002dc6200066836600462003bc9565b620015b4565b3480156200067b57600080fd5b50620002b96200068d366004620039e4565b6200174d565b348015620006a057600080fd5b50620003df620006b236600462003e11565b62001876565b348015620006c557600080fd5b506200027c620006d736600462003b6a565b620018a1565b348015620006ea57600080fd5b506200037e620006fc36600462003e11565b620019ee565b3480156200070f57600080fd5b506200037e6200072136600462003aa8565b62001c32565b3480156200073457600080fd5b50620002dc6200074636600462003a24565b6001600160a01b03918216600090815260986020908152604080832093909416825291909152205490565b3480156200077e57600080fd5b506200037e6200079036600462003c72565b62001e17565b348015620007a357600080fd5b50620002dc620007b536600462003e11565b62001ff5565b6200037e620007cc366004620039e4565b62002075565b348015620007df57600080fd5b506200037e620007f136600462003a62565b62002276565b6060609a805462000808906200439a565b80601f016020809104026020016040519081016040528092919081815260200182805462000836906200439a565b8015620008875780601f106200085b5761010080835404028352916020019162000887565b820191906000526020600020905b8154815290600101906020018083116200086957829003601f168201915b5050505050905090565b600033620008a181858562002471565b60019150505b92915050565b600033620008bd85828562002599565b620008ca8585856200262a565b60019150505b9392505050565b6000620008e360995490565b821115620009295760405162461bcd60e51b815260206004820152600e60248201526d677420746f74616c537570706c7960901b60448201526064015b60405180910390fd5b6001600160a01b038316600090815260ce602052604090205460ff16620009645760405162461bcd60e51b8152600401620009209062003fb3565b6099546200097557506000620008a7565b60995482620009848562002802565b62000990919062004309565b620008d091906200414a565b306001600160a01b037f0000000000000000000000000000000000000000000000000000000000000000161415620009e85760405162461bcd60e51b8152600401620009209062003f67565b7f00000000000000000000000000000000000000000000000000000000000000006001600160a01b031662000a3360008051602062004c0f833981519152546001600160a01b031690565b6001600160a01b03161462000a5c5760405162461bcd60e51b8152600401620009209062003fde565b62000a6781620028a7565b6040805160008082526020820190925262000a8591839190620028ed565b50565b60008060005b60cd5481101562000b295762000b0660cd828154811062000ab35762000ab36200441b565b9060005260206000200160009054906101000a90046001600160a01b03166200049060cd848154811062000aeb5762000aeb6200441b565b6000918252602090912001546001600160a01b031662002802565b62000b129083620040fb565b91508062000b2081620043d1565b91505062000a8e565b50919050565b3360008181526098602090815260408083206001600160a01b0387168452909152812054909190620008a1908290869062000b6c908790620040fb565b62002471565b306001600160a01b037f000000000000000000000000000000000000000000000000000000000000000016141562000bbe5760405162461bcd60e51b8152600401620009209062003f67565b7f00000000000000000000000000000000000000000000000000000000000000006001600160a01b031662000c0960008051602062004c0f833981519152546001600160a01b031690565b6001600160a01b03161462000c325760405162461bcd60e51b8152600401620009209062003fde565b62000c3d82620028a7565b62000c4b82826001620028ed565b5050565b6000306001600160a01b037f0000000000000000000000000000000000000000000000000000000000000000161462000cf15760405162461bcd60e51b815260206004820152603860248201527f555550535570677261646561626c653a206d757374206e6f742062652063616c60448201527f6c6564207468726f7567682064656c656761746563616c6c0000000000000000606482015260840162000920565b5060008051602062004c0f83398151915290565b60006001600160a01b03831660008051602062004c2f833981519152148062000d4a57506001600160a01b03831673c778417e063141139fce010982780140aa0cd5ab145b1562000d58575080620008a7565b60405163bcfd032d60e01b81526001600160a01b038416600482015260008051602062004c2f833981519152602482015260009073f948fc3d6c2c2c866f622c79612bb4e8708883cf9063bcfd032d9060440160a06040518083038186803b15801562000dc457600080fd5b505afa15801562000dd9573d6000803e3d6000fd5b505050506040513d601f19601f8201168201806040525081019062000dff919062003e2b565b505050915050600081131562000eb257836001600160a01b031663313ce5676040518163ffffffff1660e01b815260040160206040518083038186803b15801562000e4957600080fd5b505afa15801562000e5e573d6000803e3d6000fd5b505050506040513d601f19601f8201168201806040525081019062000e84919062003e80565b62000e9190600a620041b8565b62000e9d848362004309565b62000ea991906200414a565b915050620008a7565b5060009392505050565b60c9546000906001600160a01b038481169116141562000ede575080620008a7565b60c9546001600160a01b031660008051602062004c2f833981519152148062000f25575060c9546001600160a01b031673c778417e063141139fce010982780140aa0cd5ab145b1562000f3f5762000f37838362000d05565b9050620008a7565b6001600160a01b03831660008051602062004c2f833981519152148062000f8257506001600160a01b03831673c778417e063141139fce010982780140aa0cd5ab145b1562000fa05760c95462000f37906001600160a01b031683620015b4565b60c95460405163d2edb6dd60e01b81526001600160a01b03909116600482015260008051602062004c2f833981519152602482015260009073f948fc3d6c2c2c866f622c79612bb4e8708883cf9063d2edb6dd9060440160206040518083038186803b1580156200101057600080fd5b505afa15801562001025573d6000803e3d6000fd5b505050506040513d601f19601f820116820180604052508101906200104b919062003a04565b60405163d2edb6dd60e01b81526001600160a01b038616600482015260008051602062004c2f833981519152602482015290915060009073f948fc3d6c2c2c866f622c79612bb4e8708883cf9063d2edb6dd9060440160206040518083038186803b158015620010ba57600080fd5b505afa158015620010cf573d6000803e3d6000fd5b505050506040513d601f19601f82011682018060405250810190620010f5919062003a04565b905060006200110f828462001109620011cc565b62002a75565b90506000811315620011c057856001600160a01b031663313ce5676040518163ffffffff1660e01b815260040160206040518083038186803b1580156200115557600080fd5b505afa1580156200116a573d6000803e3d6000fd5b505050506040513d601f19601f8201168201806040525081019062001190919062003e80565b6200119d90600a620041b8565b620011a9868362004309565b620011b591906200414a565b9350505050620008a7565b50600095945050505050565b60c9546000906001600160a01b031660008051602062004c2f8339815191521415620011f85750601290565b60c960009054906101000a90046001600160a01b03166001600160a01b031663313ce5676040518163ffffffff1660e01b815260040160206040518083038186803b1580156200124757600080fd5b505afa9250505080156200127a575060408051601f3d908101601f19168201909252620012779181019062003e80565b60015b620012855750600090565b919050565b6000620008a7826200174d565b6060609b805462000808906200439a565b3360008181526098602090815260408083206001600160a01b0387168452909152812054909190838110156200132f5760405162461bcd60e51b815260206004820152602560248201527f45524332303a2064656372656173656420616c6c6f77616e63652062656c6f77604482015264207a65726f60d81b606482015260840162000920565b6200133e828686840362002471565b506001949350505050565b600033620008a18185856200262a565b60008060005b60cd5481101562000b2957620013bc60cd82815481106200138457620013846200441b565b9060005260206000200160009054906101000a90046001600160a01b0316620004b560cd848154811062000aeb5762000aeb6200441b565b620013c89083620040fb565b915080620013d681620043d1565b9150506200135f565b604080518082018252600781526611d95b995c985b60ca1b602082015260cc549151635b6dde2b60e11b815233600482015290916001600160a01b03169063b6dbbc569060240160206040518083038186803b1580156200143f57600080fd5b505afa15801562001454573d6000803e3d6000fd5b505050506040513d601f19601f820116820180604052508101906200147a919062003d5c565b806200151c575060cc5460405163031a79b160e61b81526001600160a01b039091169063c69e6c4090620014b390849060040162003f52565b60206040518083038186803b158015620014cc57600080fd5b505afa158015620014e1573d6000803e3d6000fd5b505050506040513d601f19601f8201168201806040525081019062001507919062003a04565b6001600160a01b0316336001600160a01b0316145b60408051808201909152601081526f2230b79d1037b7363c9023b7bb32b93760811b60208201526200154f908362002d14565b90620015705760405162461bcd60e51b815260040162000920919062003f52565b50620015af83838080602002602001604051908101604052809392919081815260200183836020028082843760009201919091525062002d4292505050565b505050565b60006001600160a01b03831660008051602062004c2f8339815191521480620015f957506001600160a01b03831673c778417e063141139fce010982780140aa0cd5ab145b1562001607575080620008a7565b60405163bcfd032d60e01b81526001600160a01b038416600482015260008051602062004c2f833981519152602482015260009073f948fc3d6c2c2c866f622c79612bb4e8708883cf9063bcfd032d9060440160a06040518083038186803b1580156200167357600080fd5b505afa15801562001688573d6000803e3d6000fd5b505050506040513d601f19601f82011682018060405250810190620016ae919062003e2b565b505050915050600081131562000eb25780846001600160a01b031663313ce5676040518163ffffffff1660e01b815260040160206040518083038186803b158015620016f957600080fd5b505afa1580156200170e573d6000803e3d6000fd5b505050506040513d601f19601f8201168201806040525081019062001734919062003e80565b6200174190600a620041b8565b62000e9d908562004309565b60006001600160a01b03821660008051602062004c2f83398151915214806200179257506001600160a01b03821673c778417e063141139fce010982780140aa0cd5ab145b15620017a057506001919050565b60405163d2edb6dd60e01b81526001600160a01b038316600482015260008051602062004c2f833981519152602482015273f948fc3d6c2c2c866f622c79612bb4e8708883cf9063d2edb6dd9060440160206040518083038186803b1580156200180957600080fd5b505afa9250505080156200183c575060408051601f3d908101601f19168201909252620018399181019062003a04565b60015b6200186d573d80801562000eb2576040519150601f19603f3d011682016040523d82523d6000602084013e62000eb2565b50600192915050565b60cd81815481106200188757600080fd5b6000918252602090912001546001600160a01b0316905081565b33600090815260cb602052604090205460609060ff16620019135760405162461bcd60e51b815260206004820152602560248201527f427564676574417070726f76616c45786563757465653a206163636573732064604482015264195b9a595960da1b606482015260840162000920565b600080856001600160a01b0316848660405162001931919062003ed3565b60006040518083038185875af1925050503d806000811462001970576040519150601f19603f3d011682016040523d82523d6000602084013e62001975565b606091505b509150915081620019e557620019ca6200198f8262002d8b565b60408051808201909152601d81527f52657665727465642062792065787465726e616c20636f6e747261637400000060208201529062002d14565b60405162461bcd60e51b815260040162000920919062003f52565b95945050505050565b3360009081526097602052604090205481111562001a445760405162461bcd60e51b81526020600482015260126024820152716e6f7420656e6f7567682062616c616e636560701b604482015260640162000920565b60cc54604080516318714ced60e21b8152905142926001600160a01b0316916361c533b4916004808301926020929190829003018186803b15801562001a8957600080fd5b505afa15801562001a9e573d6000803e3d6000fd5b505050506040513d601f19601f8201168201806040525081019062001ac4919062003d80565b60cc54604051636cb7c6f960e01b81523360048201526001600160a01b0390911690636cb7c6f99060240160206040518083038186803b15801562001b0857600080fd5b505afa15801562001b1d573d6000803e3d6000fd5b505050506040513d601f19601f8201168201806040525081019062001b43919062003d80565b62001b4f9190620040fb565b111562001b8d5760405162461bcd60e51b815260206004820152600b60248201526a6c6f636b75702074696d6560a81b604482015260640162000920565b60005b60cd5481101562001c255762001c103360cd838154811062001bb65762001bb66200441b565b9060005260206000200160009054906101000a90046001600160a01b031662001c0a60cd858154811062001bee5762001bee6200441b565b6000918252602090912001546001600160a01b031686620008d7565b62002ded565b8062001c1c81620043d1565b91505062001b90565b5062000a85338262002ecb565b600054610100900460ff1662001c4f5760005460ff161562001c53565b303b155b62001cb85760405162461bcd60e51b815260206004820152602e60248201527f496e697469616c697a61626c653a20636f6e747261637420697320616c72656160448201526d191e481a5b9a5d1a585b1a5e995960921b606482015260840162000920565b600054610100900460ff1615801562001cdb576000805461ffff19166101011790555b62001d236040518060400160405280600a815260200169131a5c5d5a59141bdbdb60b21b8152506040518060400160405280600281526020016104c560f41b8152506200301f565b62001d2e8262003055565b60cc80546001600160a01b0319166001600160a01b03861617905562001d548362002d42565b60cc60009054906101000a90046001600160a01b03166001600160a01b03166385f2aef26040518163ffffffff1660e01b815260040160206040518083038186803b15801562001da357600080fd5b505afa15801562001db8573d6000803e3d6000fd5b505050506040513d601f19601f8201168201806040525081019062001dde919062003a04565b60ca80546001600160a01b0319166001600160a01b0392909216919091179055801562001e11576000805461ff00191690555b50505050565b805182511462001e5f5760405162461bcd60e51b8152602060048201526012602482015271496e636f72726563742043616c6c6461746160701b604482015260640162000920565b60005b8251811015620015af5762001e9383828151811062001e855762001e856200441b565b6020026020010151620030a1565b600083828151811062001eaa5762001eaa6200441b565b602002602001015183838151811062001ec75762001ec76200441b565b602002602001015160405162001edd906200383a565b62001eea92919062003f24565b604051809103906000f08015801562001f07573d6000803e3d6000fd5b506001600160a01b038116600090815260cb60205260409020805460ff1916600117905583519091507f26c79e13dd63e8716f130c25331c09f2fdd55d6880bbfa7bcc38868207e8a67090829085908590811062001f695762001f696200441b565b602002602001015160405162001f8192919062003f24565b60405180910390a1806001600160a01b031663cf26fec66040518163ffffffff1660e01b8152600401600060405180830381600087803b15801562001fc557600080fd5b505af115801562001fda573d6000803e3d6000fd5b5050505050808062001fec90620043d1565b91505062001e62565b60006200200160995490565b6200200a575090565b60995462002017620011cc565b6200202490600a620041b8565b6200202e62001359565b6200203a919062004309565b6200204691906200414a565b62002050620011cc565b6200205d90600a620041b8565b62002069908462004309565b620008a791906200414a565b60008051602062004c2f83398151915260005260ce6020527f5a1e9eac86b84840fb4805895a25c4fc4f69ba90ae8daacc31c37107791786d95460ff16620020f45760405162461bcd60e51b8152602060048201526011602482015270185cdcd95d081b9bdd081cdd5c1c1bdc9d607a1b604482015260640162000920565b609954620021485762002122816200211c60008051602062004c2f8339815191523462000ebc565b620032f2565b62000a85816200214260008051602062004c2f8339815191523462000ebc565b620033d7565b60006200216560008051602062004c2f8339815191523462000ebc565b6200216f62001359565b6200217b91906200432b565b905062002205826200218c60995490565b62002196620011cc565b620021a390600a620041b8565b620021af908562004309565b620021bb91906200414a565b620021c5620011cc565b620021d290600a620041b8565b620021ed60008051602062004c2f8339815191523462000ebc565b620021f9919062004309565b6200211c91906200414a565b62002225336200214260008051602062004c2f8339815191523462000ebc565b6040805133815260008051602062004c2f8339815191526020820152348183015290517f5548c837ab068cf56a2c2479df0882a4922fd203edb7517321831d95078c5f629181900360600190a15050565b6001600160a01b038216600090815260ce602052604090205460ff16620022b15760405162461bcd60e51b8152600401620009209062003fb3565b604051636eb1769f60e11b815233600482015230602482015281906001600160a01b0384169063dd62ed3e9060440160206040518083038186803b158015620022f957600080fd5b505afa1580156200230e573d6000803e3d6000fd5b505050506040513d601f19601f8201168201806040525081019062002334919062003d80565b1015620023725760405162461bcd60e51b815260206004820152600b60248201526a6e6f7420617070726f766560a81b604482015260640162000920565b62002387836200211c620007b5858562000ebc565b6040516323b872dd60e01b8152336004820152306024820152604481018290526001600160a01b038316906323b872dd90606401602060405180830381600087803b158015620023d657600080fd5b505af1158015620023eb573d6000803e3d6000fd5b505050506040513d601f19601f8201168201806040525081019062002411919062003d5c565b50620024233362002142848462000ebc565b604080513381526001600160a01b03841660208201529081018290527f5548c837ab068cf56a2c2479df0882a4922fd203edb7517321831d95078c5f629060600160405180910390a1505050565b6001600160a01b038316620024d55760405162461bcd60e51b8152602060048201526024808201527f45524332303a20617070726f76652066726f6d20746865207a65726f206164646044820152637265737360e01b606482015260840162000920565b6001600160a01b038216620025385760405162461bcd60e51b815260206004820152602260248201527f45524332303a20617070726f766520746f20746865207a65726f206164647265604482015261737360f01b606482015260840162000920565b6001600160a01b0383811660008181526098602090815260408083209487168084529482529182902085905590518481527f8c5be1e5ebec7d5bd14f71427d1e84f3dd0314c0f7b2291e5b200ac8c7c3b925910160405180910390a3505050565b6001600160a01b03838116600090815260986020908152604080832093861683529290522054600019811462001e1157818110156200261b5760405162461bcd60e51b815260206004820152601d60248201527f45524332303a20696e73756666696369656e7420616c6c6f77616e6365000000604482015260640162000920565b62001e11848484840362002471565b6001600160a01b038316620026905760405162461bcd60e51b815260206004820152602560248201527f45524332303a207472616e736665722066726f6d20746865207a65726f206164604482015264647265737360d81b606482015260840162000920565b6001600160a01b038216620026f45760405162461bcd60e51b815260206004820152602360248201527f45524332303a207472616e7366657220746f20746865207a65726f206164647260448201526265737360e81b606482015260840162000920565b6001600160a01b038316600090815260976020526040902054818110156200276e5760405162461bcd60e51b815260206004820152602660248201527f45524332303a207472616e7366657220616d6f756e7420657863656564732062604482015265616c616e636560d01b606482015260840162000920565b6001600160a01b03808516600090815260976020526040808220858503905591851681529081208054849290620027a7908490620040fb565b92505081905550826001600160a01b0316846001600160a01b03167fddf252ad1be2c89b69c2b068fc378daa952ba7f163c4a11628f55a4df523b3ef84604051620027f491815260200190565b60405180910390a362001e11565b60006001600160a01b03821660008051602062004c2f83398151915214156200282c575047919050565b6040516370a0823160e01b81523060048201526001600160a01b038316906370a082319060240160206040518083038186803b1580156200286c57600080fd5b505afa15801562002881573d6000803e3d6000fd5b505050506040513d601f19601f82011682018060405250810190620008a7919062003d80565b60cc546001600160a01b0316331462000a855760405162461bcd60e51b81526020600482015260076024820152666e6f742064616f60c81b604482015260640162000920565b7f4910fdfa16fed3260ed0e7147f7cc6da11a60208b5b9406d12a635614ffd91435460ff16156200292357620015af8362003443565b826001600160a01b03166352d1902d6040518163ffffffff1660e01b815260040160206040518083038186803b1580156200295d57600080fd5b505afa92505050801562002990575060408051601f3d908101601f191682019092526200298d9181019062003d80565b60015b620029f55760405162461bcd60e51b815260206004820152602e60248201527f45524331393637557067726164653a206e657720696d706c656d656e7461746960448201526d6f6e206973206e6f74205555505360901b606482015260840162000920565b60008051602062004c0f833981519152811462002a675760405162461bcd60e51b815260206004820152602960248201527f45524331393637557067726164653a20756e737570706f727465642070726f786044820152681a58589b195555525160ba1b606482015260840162000920565b50620015af838383620034e2565b600060ff82161580159062002a8e5750601260ff831611155b62002ad05760405162461bcd60e51b8152602060048201526011602482015270496e76616c6964205f646563696d616c7360781b604482015260640162000920565b600062002ae260ff8416600a620041aa565b90506000856001600160a01b031663feaf968c6040518163ffffffff1660e01b815260040160a06040518083038186803b15801562002b2057600080fd5b505afa15801562002b35573d6000803e3d6000fd5b505050506040513d601f19601f8201168201806040525081019062002b5b919062003e2b565b5050509150506000866001600160a01b031663313ce5676040518163ffffffff1660e01b815260040160206040518083038186803b15801562002b9d57600080fd5b505afa15801562002bb2573d6000803e3d6000fd5b505050506040513d601f19601f8201168201806040525081019062002bd8919062003e80565b905062002be78282876200350d565b91506000866001600160a01b031663feaf968c6040518163ffffffff1660e01b815260040160a06040518083038186803b15801562002c2557600080fd5b505afa15801562002c3a573d6000803e3d6000fd5b505050506040513d601f19601f8201168201806040525081019062002c60919062003e2b565b5050509150506000876001600160a01b031663313ce5676040518163ffffffff1660e01b815260040160206040518083038186803b15801562002ca257600080fd5b505afa15801562002cb7573d6000803e3d6000fd5b505050506040513d601f19601f8201168201806040525081019062002cdd919062003e80565b905062002cec8282896200350d565b91508162002cfb868662004278565b62002d07919062004116565b9998505050505050505050565b6060828260405160200162002d2b92919062003ef1565b604051602081830303815290604052905092915050565b60005b815181101562000c4b5762002d7682828151811062002d685762002d686200441b565b60200260200101516200358d565b8062002d8281620043d1565b91505062002d45565b606060448251101562002dac57505060408051602081019091526000815290565b600482019150620008a78280602001905181019062002dcc919062003d9a565b60408051808201909152600381526201016960ed1b60208201529062002d14565b6001600160a01b03821660008051602062004c2f833981519152141562002e45576040516001600160a01b0384169082156108fc029083906000818181858888f1935050505015801562001e11573d6000803e3d6000fd5b60405163a9059cbb60e01b81526001600160a01b0384811660048301526024820183905283169063a9059cbb90604401602060405180830381600087803b15801562002e9057600080fd5b505af115801562002ea5573d6000803e3d6000fd5b505050506040513d601f19601f8201168201806040525081019062001e11919062003d5c565b6001600160a01b03821662002f2d5760405162461bcd60e51b815260206004820152602160248201527f45524332303a206275726e2066726f6d20746865207a65726f206164647265736044820152607360f81b606482015260840162000920565b6001600160a01b0382166000908152609760205260409020548181101562002fa35760405162461bcd60e51b815260206004820152602260248201527f45524332303a206275726e20616d6f756e7420657863656564732062616c616e604482015261636560f01b606482015260840162000920565b6001600160a01b038316600090815260976020526040812083830390556099805484929062002fd49084906200432b565b90915550506040518281526000906001600160a01b038516907fddf252ad1be2c89b69c2b068fc378daa952ba7f163c4a11628f55a4df523b3ef9060200160405180910390a3505050565b600054610100900460ff16620030495760405162461bcd60e51b815260040162000920906200402a565b62000c4b828262003677565b600054610100900460ff166200307f5760405162461bcd60e51b815260040162000920906200402a565b60c980546001600160a01b0319166001600160a01b0392909216919091179055565b604080518082018252600781526611d95b995c985b60ca1b602082015260cc549151635b6dde2b60e11b815233600482015290916001600160a01b03169063b6dbbc569060240160206040518083038186803b1580156200310157600080fd5b505afa15801562003116573d6000803e3d6000fd5b505050506040513d601f19601f820116820180604052508101906200313c919062003d5c565b80620031de575060cc5460405163031a79b160e61b81526001600160a01b039091169063c69e6c40906200317590849060040162003f52565b60206040518083038186803b1580156200318e57600080fd5b505afa158015620031a3573d6000803e3d6000fd5b505050506040513d601f19601f82011682018060405250810190620031c9919062003a04565b6001600160a01b0316336001600160a01b0316145b60408051808201909152601081526f2230b79d1037b7363c9023b7bb32b93760811b602082015262003211908362002d14565b90620032325760405162461bcd60e51b815260040162000920919062003f52565b5060cc54604051633b42d9af60e21b81526001600160a01b0384811660048301529091169063ed0b66bc9060240160206040518083038186803b1580156200327957600080fd5b505afa1580156200328e573d6000803e3d6000fd5b505050506040513d601f19601f82011682018060405250810190620032b4919062003d5c565b62000c4b5760405162461bcd60e51b815260206004820152600d60248201526c1b9bdd081dda1a5d195b1a5cdd609a1b604482015260640162000920565b6001600160a01b0382166200334a5760405162461bcd60e51b815260206004820152601f60248201527f45524332303a206d696e7420746f20746865207a65726f206164647265737300604482015260640162000920565b80609960008282546200335e9190620040fb565b90915550506001600160a01b038216600090815260976020526040812080548392906200338d908490620040fb565b90915550506040518181526001600160a01b038316906000907fddf252ad1be2c89b69c2b068fc378daa952ba7f163c4a11628f55a4df523b3ef9060200160405180910390a35050565b60cc54604051631c783fd360e31b81526001600160a01b038481166004830152602482018490529091169063e3c1fe9890604401600060405180830381600087803b1580156200342657600080fd5b505af11580156200343b573d6000803e3d6000fd5b505050505050565b6001600160a01b0381163b620034b25760405162461bcd60e51b815260206004820152602d60248201527f455243313936373a206e657720696d706c656d656e746174696f6e206973206e60448201526c1bdd08184818dbdb9d1c9858dd609a1b606482015260840162000920565b60008051602062004c0f83398151915280546001600160a01b0319166001600160a01b0392909216919091179055565b620034ed83620036cc565b600082511180620034fb5750805b15620015af5762001e1183836200370e565b60008160ff168360ff1610156200354e576200352a838362004345565b6200353a9060ff16600a620041aa565b62003546908562004278565b9050620008d0565b8160ff168360ff161115620035855762003569828462004345565b620035799060ff16600a620041aa565b62003546908562004116565b509192915050565b62003598816200128a565b8015620035be57506001600160a01b038116600090815260ce602052604090205460ff16155b620035dd5760405162461bcd60e51b8152600401620009209062003fb3565b60cd805460018082019092557f83978b4c69c48dd978ab43fe30f077615294f938fb7f936d9eb340e51ea7db2e0180546001600160a01b0319166001600160a01b038416908117909155600081815260ce6020908152604091829020805460ff1916909417909355519081527f808665eda000f8d729f31a384bae411282aa3be62cb73ed74e2225e2eef7125d910160405180910390a150565b600054610100900460ff16620036a15760405162461bcd60e51b815260040162000920906200402a565b8151620036b690609a90602085019062003848565b508051620015af90609b90602084019062003848565b620036d78162003443565b6040516001600160a01b038216907fbc7cd75a20ee27fd9adebab32041f755214dbc6bffa90cc0225b39da2e5c2d3b90600090a250565b60606001600160a01b0383163b620037785760405162461bcd60e51b815260206004820152602660248201527f416464726573733a2064656c65676174652063616c6c20746f206e6f6e2d636f6044820152651b9d1c9858dd60d21b606482015260840162000920565b600080846001600160a01b03168460405162003795919062003ed3565b600060405180830381855af49150503d8060008114620037d2576040519150601f19603f3d011682016040523d82523d6000602084013e620037d7565b606091505b5091509150620019e5828260405180606001604052806027815260200162004c4f60279139606083156200380d575081620008d0565b8251156200381e5782518084602001fd5b8160405162461bcd60e51b815260040162000920919062003f52565b6107b1806200445e83390190565b82805462003856906200439a565b90600052602060002090601f0160209004810192826200387a5760008555620038c5565b82601f106200389557805160ff1916838001178555620038c5565b82800160010185558215620038c5579182015b82811115620038c5578251825591602001919060010190620038a8565b50620038d3929150620038d7565b5090565b5b80821115620038d35760008155600101620038d8565b600082601f8301126200390057600080fd5b81356020620039196200391383620040a9565b62004075565b80838252828201915082860187848660051b89010111156200393a57600080fd5b60005b8581101562003966578135620039538162004447565b845292840192908401906001016200393d565b5090979650505050505050565b600082601f8301126200398557600080fd5b8135620039966200391382620040d0565b818152846020838601011115620039ac57600080fd5b816020850160208301376000918101602001919091529392505050565b805169ffffffffffffffffffff811681146200128557600080fd5b600060208284031215620039f757600080fd5b8135620008d08162004447565b60006020828403121562003a1757600080fd5b8151620008d08162004447565b6000806040838503121562003a3857600080fd5b823562003a458162004447565b9150602083013562003a578162004447565b809150509250929050565b60008060006060848603121562003a7857600080fd5b833562003a858162004447565b9250602084013562003a978162004447565b929592945050506040919091013590565b60008060006060848603121562003abe57600080fd5b833562003acb8162004447565b9250602084013567ffffffffffffffff81111562003ae857600080fd5b62003af686828701620038ee565b925050604084013562003b098162004447565b809150509250925092565b6000806040838503121562003b2857600080fd5b823562003b358162004447565b9150602083013567ffffffffffffffff81111562003b5257600080fd5b62003b608582860162003973565b9150509250929050565b60008060006060848603121562003b8057600080fd5b833562003b8d8162004447565b9250602084013567ffffffffffffffff81111562003baa57600080fd5b62003bb88682870162003973565b925050604084013590509250925092565b6000806040838503121562003bdd57600080fd5b823562003bea8162004447565b946020939093013593505050565b6000806020838503121562003c0c57600080fd5b823567ffffffffffffffff8082111562003c2557600080fd5b818501915085601f83011262003c3a57600080fd5b81358181111562003c4a57600080fd5b8660208260051b850101111562003c6057600080fd5b60209290920196919550909350505050565b6000806040838503121562003c8657600080fd5b823567ffffffffffffffff8082111562003c9f57600080fd5b62003cad86838701620038ee565b935060209150818501358181111562003cc557600080fd5b8501601f8101871362003cd757600080fd5b803562003ce86200391382620040a9565b8082825285820191508584018a878560051b870101111562003d0957600080fd5b6000805b8581101562003d495782358881111562003d25578283fd5b62003d358e8b838b010162003973565b865250938801939188019160010162003d0d565b5050508096505050505050509250929050565b60006020828403121562003d6f57600080fd5b81518015158114620008d057600080fd5b60006020828403121562003d9357600080fd5b5051919050565b60006020828403121562003dad57600080fd5b815167ffffffffffffffff81111562003dc557600080fd5b8201601f8101841362003dd757600080fd5b805162003de86200391382620040d0565b81815285602083850101111562003dfe57600080fd5b620019e58260208301602086016200436b565b60006020828403121562003e2457600080fd5b5035919050565b600080600080600060a0868803121562003e4457600080fd5b62003e4f86620039c9565b945060208601519350604086015192506060860151915062003e7460808701620039c9565b90509295509295909350565b60006020828403121562003e9357600080fd5b815160ff81168114620008d057600080fd5b6000815180845262003ebf8160208601602086016200436b565b601f01601f19169290920160200192915050565b6000825162003ee78184602087016200436b565b9190910192915050565b6000835162003f058184602088016200436b565b83519083019062003f1b8183602088016200436b565b01949350505050565b6001600160a01b038316815260406020820181905260009062003f4a9083018462003ea5565b949350505050565b602081526000620008d0602083018462003ea5565b6020808252602c908201527f46756e6374696f6e206d7573742062652063616c6c6564207468726f7567682060408201526b19195b1959d85d1958d85b1b60a21b606082015260800190565b602080825260119082015270105cdcd95d081b9bdd081cdd5c1c1bdc9d607a1b604082015260600190565b6020808252602c908201527f46756e6374696f6e206d7573742062652063616c6c6564207468726f7567682060408201526b6163746976652070726f787960a01b606082015260800190565b6020808252602b908201527f496e697469616c697a61626c653a20636f6e7472616374206973206e6f74206960408201526a6e697469616c697a696e6760a81b606082015260800190565b604051601f8201601f1916810167ffffffffffffffff81118282101715620040a157620040a162004431565b604052919050565b600067ffffffffffffffff821115620040c657620040c662004431565b5060051b60200190565b600067ffffffffffffffff821115620040ed57620040ed62004431565b50601f01601f191660200190565b60008219821115620041115762004111620043ef565b500190565b60008262004128576200412862004405565b600160ff1b821460001984141615620041455762004145620043ef565b500590565b6000826200415c576200415c62004405565b500490565b600181815b80851115620041a2578160001904821115620041865762004186620043ef565b808516156200419457918102915b93841c939080029062004166565b509250929050565b6000620008d08383620041c4565b6000620008d060ff8416835b600082620041d557506001620008a7565b81620041e457506000620008a7565b8160018114620041fd5760028114620042085762004228565b6001915050620008a7565b60ff8411156200421c576200421c620043ef565b50506001821b620008a7565b5060208310610133831016604e8410600b84101617156200424d575081810a620008a7565b62004259838362004161565b8060001904821115620042705762004270620043ef565b029392505050565b60006001600160ff1b0381841382841380821686840486111615620042a157620042a1620043ef565b600160ff1b6000871282811687830589121615620042c357620042c3620043ef565b60008712925087820587128484161615620042e257620042e2620043ef565b87850587128184161615620042fb57620042fb620043ef565b505050929093029392505050565b6000816000190483118215151615620043265762004326620043ef565b500290565b600082821015620043405762004340620043ef565b500390565b600060ff821660ff841680821015620043625762004362620043ef565b90039392505050565b60005b83811015620043885781810151838201526020016200436e565b8381111562001e115750506000910152565b600181811c90821680620043af57607f821691505b6020821081141562000b2957634e487b7160e01b600052602260045260246000fd5b6000600019821415620043e857620043e8620043ef565b5060010190565b634e487b7160e01b600052601160045260246000fd5b634e487b7160e01b600052601260045260246000fd5b634e487b7160e01b600052603260045260246000fd5b634e487b7160e01b600052604160045260246000fd5b6001600160a01b038116811462000a8557600080fdfe60806040526040516107b13803806107b183398101604081905261002291610307565b61004d60017f360894a13ba1a3210667c828492db98dca3e2076cc3735a920a3ca505d382bbd610424565b60008051602061076a8339815191521461006957610069610475565b6100758282600061007c565b50506104a1565b610085836100b2565b6000825111806100925750805b156100ad576100ab83836100f260201b6100291760201c565b505b505050565b6100bb8161011e565b6040516001600160a01b038216907fbc7cd75a20ee27fd9adebab32041f755214dbc6bffa90cc0225b39da2e5c2d3b90600090a250565b6060610117838360405180606001604052806027815260200161078a602791396101de565b9392505050565b610131816102bc60201b6100551760201c565b6101985760405162461bcd60e51b815260206004820152602d60248201527f455243313936373a206e657720696d706c656d656e746174696f6e206973206e60448201526c1bdd08184818dbdb9d1c9858dd609a1b60648201526084015b60405180910390fd5b806101bd60008051602061076a83398151915260001b6102cb60201b6100641760201c565b80546001600160a01b0319166001600160a01b039290921691909117905550565b60606001600160a01b0384163b6102465760405162461bcd60e51b815260206004820152602660248201527f416464726573733a2064656c65676174652063616c6c20746f206e6f6e2d636f6044820152651b9d1c9858dd60d21b606482015260840161018f565b600080856001600160a01b03168560405161026191906103d5565b600060405180830381855af49150503d806000811461029c576040519150601f19603f3d011682016040523d82523d6000602084013e6102a1565b606091505b5090925090506102b28282866102ce565b9695505050505050565b6001600160a01b03163b151590565b90565b606083156102dd575081610117565b8251156102ed5782518084602001fd5b8160405162461bcd60e51b815260040161018f91906103f1565b6000806040838503121561031a57600080fd5b82516001600160a01b038116811461033157600080fd5b60208401519092506001600160401b038082111561034e57600080fd5b818501915085601f83011261036257600080fd5b8151818111156103745761037461048b565b604051601f8201601f19908116603f0116810190838211818310171561039c5761039c61048b565b816040528281528860208487010111156103b557600080fd5b6103c6836020830160208801610449565b80955050505050509250929050565b600082516103e7818460208701610449565b9190910192915050565b6020815260008251806020840152610410816040850160208701610449565b601f01601f19169190910160400192915050565b60008282101561044457634e487b7160e01b600052601160045260246000fd5b500390565b60005b8381101561046457818101518382015260200161044c565b838111156100ab5750506000910152565b634e487b7160e01b600052600160045260246000fd5b634e487b7160e01b600052604160045260246000fd5b6102ba806104b06000396000f3fe60806040523661001357610011610017565b005b6100115b610027610022610067565b61009f565b565b606061004e838360405180606001604052806027815260200161025e602791396100c3565b9392505050565b6001600160a01b03163b151590565b90565b600061009a7f360894a13ba1a3210667c828492db98dca3e2076cc3735a920a3ca505d382bbc546001600160a01b031690565b905090565b3660008037600080366000845af43d6000803e8080156100be573d6000f35b3d6000fd5b60606001600160a01b0384163b6101305760405162461bcd60e51b815260206004820152602660248201527f416464726573733a2064656c65676174652063616c6c20746f206e6f6e2d636f6044820152651b9d1c9858dd60d21b60648201526084015b60405180910390fd5b600080856001600160a01b03168560405161014b91906101de565b600060405180830381855af49150503d8060008114610186576040519150601f19603f3d011682016040523d82523d6000602084013e61018b565b606091505b509150915061019b8282866101a5565b9695505050505050565b606083156101b457508161004e565b8251156101c45782518084602001fd5b8160405162461bcd60e51b815260040161012791906101fa565b600082516101f081846020870161022d565b9190910192915050565b602081526000825180602084015261021981604085016020870161022d565b601f01601f19169190910160400192915050565b60005b83811015610248578181015183820152602001610230565b83811115610257576000848401525b5050505056fe416464726573733a206c6f772d6c6576656c2064656c65676174652063616c6c206661696c6564a26469706673582212203f90f01760a3fb86c9c8320cdb707a76979bbded46a4033a6a8dc276b5de4a1864736f6c63430008070033360894a13ba1a3210667c828492db98dca3e2076cc3735a920a3ca505d382bbc416464726573733a206c6f772d6c6576656c2064656c65676174652063616c6c206661696c6564360894a13ba1a3210667c828492db98dca3e2076cc3735a920a3ca505d382bbc000000000000000000000000eeeeeeeeeeeeeeeeeeeeeeeeeeeeeeeeeeeeeeee416464726573733a206c6f772d6c6576656c2064656c65676174652063616c6c206661696c6564a264697066735822122046cc2333da988490505b76d3abe3b8acde5d06113d189e2a50ed6ae4b2c44d8364736f6c63430008070033",
  "devdoc": {
    "kind": "dev",
    "methods": {
      "allowance(address,address)": {
        "details": "See {IERC20-allowance}."
      },
      "approve(address,uint256)": {
        "details": "See {IERC20-approve}. NOTE: If `amount` is the maximum `uint256`, the allowance is not updated on `transferFrom`. This is semantically equivalent to an infinite approval. Requirements: - `spender` cannot be the zero address."
      },
      "balanceOf(address)": {
        "details": "See {IERC20-balanceOf}."
      },
      "decimals()": {
        "details": "Returns the number of decimals used to get its user representation. For example, if `decimals` equals `2`, a balance of `505` tokens should be displayed to a user as `5.05` (`505 / 10 ** 2`). Tokens usually opt for a value of 18, imitating the relationship between Ether and Wei. This is the value {ERC20} uses, unless this function is overridden; NOTE: This information is only used for _display_ purposes: it in no way affects any of the arithmetic of the contract, including {IERC20-balanceOf} and {IERC20-transfer}."
      },
      "decreaseAllowance(address,uint256)": {
        "details": "Atomically decreases the allowance granted to `spender` by the caller. This is an alternative to {approve} that can be used as a mitigation for problems described in {IERC20-approve}. Emits an {Approval} event indicating the updated allowance. Requirements: - `spender` cannot be the zero address. - `spender` must have allowance for the caller of at least `subtractedValue`."
      },
      "increaseAllowance(address,uint256)": {
        "details": "Atomically increases the allowance granted to `spender` by the caller. This is an alternative to {approve} that can be used as a mitigation for problems described in {IERC20-approve}. Emits an {Approval} event indicating the updated allowance. Requirements: - `spender` cannot be the zero address."
      },
      "name()": {
        "details": "Returns the name of the token."
      },
      "proxiableUUID()": {
        "details": "Implementation of the ERC1822 {proxiableUUID} function. This returns the storage slot used by the implementation. It is used to validate that the this implementation remains valid after an upgrade. IMPORTANT: A proxy pointing at a proxiable contract should not be considered proxiable itself, because this risks bricking a proxy that upgrades to it, by delegating to itself until out of gas. Thus it is critical that this function revert if invoked through a proxy. This is guaranteed by the `notDelegated` modifier."
      },
      "symbol()": {
        "details": "Returns the symbol of the token, usually a shorter version of the name."
      },
      "totalSupply()": {
        "details": "See {IERC20-totalSupply}."
      },
      "transfer(address,uint256)": {
        "details": "See {IERC20-transfer}. Requirements: - `to` cannot be the zero address. - the caller must have a balance of at least `amount`."
      },
      "transferFrom(address,address,uint256)": {
        "details": "See {IERC20-transferFrom}. Emits an {Approval} event indicating the updated allowance. This is not required by the EIP. See the note at the beginning of {ERC20}. NOTE: Does not update the allowance if the current allowance is the maximum `uint256`. Requirements: - `from` and `to` cannot be the zero address. - `from` must have a balance of at least `amount`. - the caller must have allowance for ``from``'s tokens of at least `amount`."
      },
      "upgradeTo(address)": {
        "details": "Upgrade the implementation of the proxy to `newImplementation`. Calls {_authorizeUpgrade}. Emits an {Upgraded} event."
      },
      "upgradeToAndCall(address,bytes)": {
        "details": "Upgrade the implementation of the proxy to `newImplementation`, and subsequently execute the function call encoded in `data`. Calls {_authorizeUpgrade}. Emits an {Upgraded} event."
      }
    },
    "version": 1
  },
  "userdoc": {
    "kind": "user",
    "methods": {},
    "version": 1
  },
  "storageLayout": {
    "storage": [
      {
        "astId": 2736,
        "contract": "contracts/LiquidPool.sol:LiquidPool",
        "label": "_initialized",
        "offset": 0,
        "slot": "0",
        "type": "t_bool"
      },
      {
        "astId": 2739,
        "contract": "contracts/LiquidPool.sol:LiquidPool",
        "label": "_initializing",
        "offset": 1,
        "slot": "0",
        "type": "t_bool"
      },
      {
        "astId": 2718,
        "contract": "contracts/LiquidPool.sol:LiquidPool",
        "label": "__gap",
        "offset": 0,
        "slot": "1",
        "type": "t_array(t_uint256)50_storage"
      },
      {
        "astId": 2938,
        "contract": "contracts/LiquidPool.sol:LiquidPool",
        "label": "__gap",
        "offset": 0,
        "slot": "51",
        "type": "t_array(t_uint256)50_storage"
      },
      {
        "astId": 7651,
        "contract": "contracts/LiquidPool.sol:LiquidPool",
        "label": "__gap",
        "offset": 0,
        "slot": "101",
        "type": "t_array(t_uint256)50_storage"
      },
      {
        "astId": 4379,
        "contract": "contracts/LiquidPool.sol:LiquidPool",
        "label": "_balances",
        "offset": 0,
        "slot": "151",
        "type": "t_mapping(t_address,t_uint256)"
      },
      {
        "astId": 4385,
        "contract": "contracts/LiquidPool.sol:LiquidPool",
        "label": "_allowances",
        "offset": 0,
        "slot": "152",
        "type": "t_mapping(t_address,t_mapping(t_address,t_uint256))"
      },
      {
        "astId": 4387,
        "contract": "contracts/LiquidPool.sol:LiquidPool",
        "label": "_totalSupply",
        "offset": 0,
        "slot": "153",
        "type": "t_uint256"
      },
      {
        "astId": 4389,
        "contract": "contracts/LiquidPool.sol:LiquidPool",
        "label": "_name",
        "offset": 0,
        "slot": "154",
        "type": "t_string_storage"
      },
      {
        "astId": 4391,
        "contract": "contracts/LiquidPool.sol:LiquidPool",
        "label": "_symbol",
        "offset": 0,
        "slot": "155",
        "type": "t_string_storage"
      },
      {
        "astId": 4972,
        "contract": "contracts/LiquidPool.sol:LiquidPool",
        "label": "__gap",
        "offset": 0,
        "slot": "156",
        "type": "t_array(t_uint256)45_storage"
      },
      {
        "astId": 21911,
        "contract": "contracts/LiquidPool.sol:LiquidPool",
        "label": "baseCurrency",
        "offset": 0,
        "slot": "201",
        "type": "t_address"
      },
      {
        "astId": 20989,
        "contract": "contracts/LiquidPool.sol:LiquidPool",
        "label": "team",
        "offset": 0,
        "slot": "202",
        "type": "t_address"
      },
      {
        "astId": 20993,
        "contract": "contracts/LiquidPool.sol:LiquidPool",
        "label": "budgetApprovals",
        "offset": 0,
        "slot": "203",
        "type": "t_mapping(t_address,t_bool)"
      },
      {
        "astId": 17868,
        "contract": "contracts/LiquidPool.sol:LiquidPool",
        "label": "dao",
        "offset": 0,
        "slot": "204",
        "type": "t_contract(IDao)23961"
      },
      {
        "astId": 17871,
        "contract": "contracts/LiquidPool.sol:LiquidPool",
        "label": "assets",
        "offset": 0,
        "slot": "205",
        "type": "t_array(t_address)dyn_storage"
      },
      {
        "astId": 17875,
        "contract": "contracts/LiquidPool.sol:LiquidPool",
        "label": "isAssetSupported",
        "offset": 0,
        "slot": "206",
        "type": "t_mapping(t_address,t_bool)"
      }
    ],
    "types": {
      "t_address": {
        "encoding": "inplace",
        "label": "address",
        "numberOfBytes": "20"
      },
      "t_array(t_address)dyn_storage": {
        "base": "t_address",
        "encoding": "dynamic_array",
        "label": "address[]",
        "numberOfBytes": "32"
      },
      "t_array(t_uint256)45_storage": {
        "base": "t_uint256",
        "encoding": "inplace",
        "label": "uint256[45]",
        "numberOfBytes": "1440"
      },
      "t_array(t_uint256)50_storage": {
        "base": "t_uint256",
        "encoding": "inplace",
        "label": "uint256[50]",
        "numberOfBytes": "1600"
      },
      "t_bool": {
        "encoding": "inplace",
        "label": "bool",
        "numberOfBytes": "1"
      },
      "t_contract(IDao)23961": {
        "encoding": "inplace",
        "label": "contract IDao",
        "numberOfBytes": "20"
      },
      "t_mapping(t_address,t_bool)": {
        "encoding": "mapping",
        "key": "t_address",
        "label": "mapping(address => bool)",
        "numberOfBytes": "32",
        "value": "t_bool"
      },
      "t_mapping(t_address,t_mapping(t_address,t_uint256))": {
        "encoding": "mapping",
        "key": "t_address",
        "label": "mapping(address => mapping(address => uint256))",
        "numberOfBytes": "32",
        "value": "t_mapping(t_address,t_uint256)"
      },
      "t_mapping(t_address,t_uint256)": {
        "encoding": "mapping",
        "key": "t_address",
        "label": "mapping(address => uint256)",
        "numberOfBytes": "32",
        "value": "t_uint256"
      },
      "t_string_storage": {
        "encoding": "bytes",
        "label": "string",
        "numberOfBytes": "32"
      },
      "t_uint256": {
        "encoding": "inplace",
        "label": "uint256",
        "numberOfBytes": "32"
      }
    }
  }
}