{
  "address": "0x1dBEEc4ac0ff9550ED1f3AE6d69A5E31b88510d2",
  "abi": [
    {
      "anonymous": false,
      "inputs": [
        {
          "indexed": false,
          "internalType": "address",
          "name": "previousAdmin",
          "type": "address"
        },
        {
          "indexed": false,
          "internalType": "address",
          "name": "newAdmin",
          "type": "address"
        }
      ],
      "name": "AdminChanged",
      "type": "event"
    },
    {
      "anonymous": false,
      "inputs": [
        {
          "indexed": true,
          "internalType": "address",
          "name": "owner",
          "type": "address"
        },
        {
          "indexed": true,
          "internalType": "address",
          "name": "spender",
          "type": "address"
        },
        {
          "indexed": false,
          "internalType": "uint256",
          "name": "value",
          "type": "uint256"
        }
      ],
      "name": "Approval",
      "type": "event"
    },
    {
      "anonymous": false,
      "inputs": [
        {
          "indexed": true,
          "internalType": "address",
          "name": "beacon",
          "type": "address"
        }
      ],
      "name": "BeaconUpgraded",
      "type": "event"
    },
    {
      "anonymous": false,
      "inputs": [
        {
          "indexed": true,
          "internalType": "address",
          "name": "delegator",
          "type": "address"
        },
        {
          "indexed": true,
          "internalType": "address",
          "name": "fromDelegate",
          "type": "address"
        },
        {
          "indexed": true,
          "internalType": "address",
          "name": "toDelegate",
          "type": "address"
        }
      ],
      "name": "DelegateChanged",
      "type": "event"
    },
    {
      "anonymous": false,
      "inputs": [
        {
          "indexed": true,
          "internalType": "address",
          "name": "delegate",
          "type": "address"
        },
        {
          "indexed": false,
          "internalType": "uint256",
          "name": "previousBalance",
          "type": "uint256"
        },
        {
          "indexed": false,
          "internalType": "uint256",
          "name": "newBalance",
          "type": "uint256"
        }
      ],
      "name": "DelegateVotesChanged",
      "type": "event"
    },
    {
      "anonymous": false,
      "inputs": [
        {
          "indexed": true,
          "internalType": "address",
          "name": "from",
          "type": "address"
        },
        {
          "indexed": true,
          "internalType": "address",
          "name": "to",
          "type": "address"
        },
        {
          "indexed": false,
          "internalType": "uint256",
          "name": "value",
          "type": "uint256"
        }
      ],
      "name": "Transfer",
      "type": "event"
    },
    {
      "anonymous": false,
      "inputs": [
        {
          "indexed": true,
          "internalType": "address",
          "name": "implementation",
          "type": "address"
        }
      ],
      "name": "Upgraded",
      "type": "event"
    },
    {
      "inputs": [],
      "name": "DOMAIN_SEPARATOR",
      "outputs": [
        {
          "internalType": "bytes32",
          "name": "",
          "type": "bytes32"
        }
      ],
      "stateMutability": "view",
      "type": "function"
    },
    {
      "inputs": [
        {
          "internalType": "address",
          "name": "owner",
          "type": "address"
        },
        {
          "internalType": "address",
          "name": "spender",
          "type": "address"
        }
      ],
      "name": "allowance",
      "outputs": [
        {
          "internalType": "uint256",
          "name": "",
          "type": "uint256"
        }
      ],
      "stateMutability": "view",
      "type": "function"
    },
    {
      "inputs": [
        {
          "internalType": "address",
          "name": "spender",
          "type": "address"
        },
        {
          "internalType": "uint256",
          "name": "amount",
          "type": "uint256"
        }
      ],
      "name": "approve",
      "outputs": [
        {
          "internalType": "bool",
          "name": "",
          "type": "bool"
        }
      ],
      "stateMutability": "nonpayable",
      "type": "function"
    },
    {
      "inputs": [
        {
          "internalType": "address",
          "name": "account",
          "type": "address"
        }
      ],
      "name": "balanceOf",
      "outputs": [
        {
          "internalType": "uint256",
          "name": "",
          "type": "uint256"
        }
      ],
      "stateMutability": "view",
      "type": "function"
    },
    {
      "inputs": [
        {
          "internalType": "address",
          "name": "account",
          "type": "address"
        },
        {
          "internalType": "uint32",
          "name": "pos",
          "type": "uint32"
        }
      ],
      "name": "checkpoints",
      "outputs": [
        {
          "components": [
            {
              "internalType": "uint32",
              "name": "fromBlock",
              "type": "uint32"
            },
            {
              "internalType": "uint224",
              "name": "votes",
              "type": "uint224"
            }
          ],
          "internalType": "struct ERC20VotesUpgradeable.Checkpoint",
          "name": "",
          "type": "tuple"
        }
      ],
      "stateMutability": "view",
      "type": "function"
    },
    {
      "inputs": [],
      "name": "dao",
      "outputs": [
        {
          "internalType": "address",
          "name": "",
          "type": "address"
        }
      ],
      "stateMutability": "view",
      "type": "function"
    },
    {
      "inputs": [],
      "name": "decimals",
      "outputs": [
        {
          "internalType": "uint8",
          "name": "",
          "type": "uint8"
        }
      ],
      "stateMutability": "view",
      "type": "function"
    },
    {
      "inputs": [
        {
          "internalType": "address",
          "name": "spender",
          "type": "address"
        },
        {
          "internalType": "uint256",
          "name": "subtractedValue",
          "type": "uint256"
        }
      ],
      "name": "decreaseAllowance",
      "outputs": [
        {
          "internalType": "bool",
          "name": "",
          "type": "bool"
        }
      ],
      "stateMutability": "nonpayable",
      "type": "function"
    },
    {
      "inputs": [
        {
          "internalType": "address",
          "name": "delegatee",
          "type": "address"
        }
      ],
      "name": "delegate",
      "outputs": [],
      "stateMutability": "nonpayable",
      "type": "function"
    },
    {
      "inputs": [
        {
          "internalType": "address",
          "name": "delegatee",
          "type": "address"
        },
        {
          "internalType": "uint256",
          "name": "nonce",
          "type": "uint256"
        },
        {
          "internalType": "uint256",
          "name": "expiry",
          "type": "uint256"
        },
        {
          "internalType": "uint8",
          "name": "v",
          "type": "uint8"
        },
        {
          "internalType": "bytes32",
          "name": "r",
          "type": "bytes32"
        },
        {
          "internalType": "bytes32",
          "name": "s",
          "type": "bytes32"
        }
      ],
      "name": "delegateBySig",
      "outputs": [],
      "stateMutability": "nonpayable",
      "type": "function"
    },
    {
      "inputs": [
        {
          "internalType": "address",
          "name": "account",
          "type": "address"
        }
      ],
      "name": "delegates",
      "outputs": [
        {
          "internalType": "address",
          "name": "",
          "type": "address"
        }
      ],
      "stateMutability": "view",
      "type": "function"
    },
    {
      "inputs": [
        {
          "internalType": "uint256",
          "name": "blockNumber",
          "type": "uint256"
        }
      ],
      "name": "getPastTotalSupply",
      "outputs": [
        {
          "internalType": "uint256",
          "name": "",
          "type": "uint256"
        }
      ],
      "stateMutability": "view",
      "type": "function"
    },
    {
      "inputs": [
        {
          "internalType": "address",
          "name": "account",
          "type": "address"
        },
        {
          "internalType": "uint256",
          "name": "blockNumber",
          "type": "uint256"
        }
      ],
      "name": "getPastVotes",
      "outputs": [
        {
          "internalType": "uint256",
          "name": "",
          "type": "uint256"
        }
      ],
      "stateMutability": "view",
      "type": "function"
    },
    {
      "inputs": [
        {
          "internalType": "address",
          "name": "account",
          "type": "address"
        }
      ],
      "name": "getVotes",
      "outputs": [
        {
          "internalType": "uint256",
          "name": "",
          "type": "uint256"
        }
      ],
      "stateMutability": "view",
      "type": "function"
    },
    {
      "inputs": [
        {
          "internalType": "address",
          "name": "spender",
          "type": "address"
        },
        {
          "internalType": "uint256",
          "name": "addedValue",
          "type": "uint256"
        }
      ],
      "name": "increaseAllowance",
      "outputs": [
        {
          "internalType": "bool",
          "name": "",
          "type": "bool"
        }
      ],
      "stateMutability": "nonpayable",
      "type": "function"
    },
    {
      "inputs": [
        {
          "internalType": "address",
          "name": "_minter",
          "type": "address"
        },
        {
          "internalType": "string",
          "name": "_name",
          "type": "string"
        },
        {
          "internalType": "string",
          "name": "_symbol",
          "type": "string"
        }
      ],
      "name": "initialize",
      "outputs": [],
      "stateMutability": "nonpayable",
      "type": "function"
    },
    {
      "inputs": [
        {
          "internalType": "address",
          "name": "account",
          "type": "address"
        },
        {
          "internalType": "uint256",
          "name": "amount",
          "type": "uint256"
        }
      ],
      "name": "mint",
      "outputs": [],
      "stateMutability": "nonpayable",
      "type": "function"
    },
    {
      "inputs": [],
      "name": "minter",
      "outputs": [
        {
          "internalType": "address",
          "name": "",
          "type": "address"
        }
      ],
      "stateMutability": "view",
      "type": "function"
    },
    {
      "inputs": [],
      "name": "name",
      "outputs": [
        {
          "internalType": "string",
          "name": "",
          "type": "string"
        }
      ],
      "stateMutability": "view",
      "type": "function"
    },
    {
      "inputs": [
        {
          "internalType": "address",
          "name": "owner",
          "type": "address"
        }
      ],
      "name": "nonces",
      "outputs": [
        {
          "internalType": "uint256",
          "name": "",
          "type": "uint256"
        }
      ],
      "stateMutability": "view",
      "type": "function"
    },
    {
      "inputs": [
        {
          "internalType": "address",
          "name": "account",
          "type": "address"
        }
      ],
      "name": "numCheckpoints",
      "outputs": [
        {
          "internalType": "uint32",
          "name": "",
          "type": "uint32"
        }
      ],
      "stateMutability": "view",
      "type": "function"
    },
    {
      "inputs": [
        {
          "internalType": "address",
          "name": "owner",
          "type": "address"
        },
        {
          "internalType": "address",
          "name": "spender",
          "type": "address"
        },
        {
          "internalType": "uint256",
          "name": "value",
          "type": "uint256"
        },
        {
          "internalType": "uint256",
          "name": "deadline",
          "type": "uint256"
        },
        {
          "internalType": "uint8",
          "name": "v",
          "type": "uint8"
        },
        {
          "internalType": "bytes32",
          "name": "r",
          "type": "bytes32"
        },
        {
          "internalType": "bytes32",
          "name": "s",
          "type": "bytes32"
        }
      ],
      "name": "permit",
      "outputs": [],
      "stateMutability": "nonpayable",
      "type": "function"
    },
    {
      "inputs": [],
      "name": "proxiableUUID",
      "outputs": [
        {
          "internalType": "bytes32",
          "name": "",
          "type": "bytes32"
        }
      ],
      "stateMutability": "view",
      "type": "function"
    },
    {
      "inputs": [],
      "name": "symbol",
      "outputs": [
        {
          "internalType": "string",
          "name": "",
          "type": "string"
        }
      ],
      "stateMutability": "view",
      "type": "function"
    },
    {
      "inputs": [],
      "name": "totalSupply",
      "outputs": [
        {
          "internalType": "uint256",
          "name": "",
          "type": "uint256"
        }
      ],
      "stateMutability": "view",
      "type": "function"
    },
    {
      "inputs": [
        {
          "internalType": "address",
          "name": "to",
          "type": "address"
        },
        {
          "internalType": "uint256",
          "name": "amount",
          "type": "uint256"
        }
      ],
      "name": "transfer",
      "outputs": [
        {
          "internalType": "bool",
          "name": "",
          "type": "bool"
        }
      ],
      "stateMutability": "nonpayable",
      "type": "function"
    },
    {
      "inputs": [
        {
          "internalType": "address",
          "name": "from",
          "type": "address"
        },
        {
          "internalType": "address",
          "name": "to",
          "type": "address"
        },
        {
          "internalType": "uint256",
          "name": "amount",
          "type": "uint256"
        }
      ],
      "name": "transferFrom",
      "outputs": [
        {
          "internalType": "bool",
          "name": "",
          "type": "bool"
        }
      ],
      "stateMutability": "nonpayable",
      "type": "function"
    },
    {
      "inputs": [
        {
          "internalType": "address",
          "name": "newImplementation",
          "type": "address"
        }
      ],
      "name": "upgradeTo",
      "outputs": [],
      "stateMutability": "nonpayable",
      "type": "function"
    },
    {
      "inputs": [
        {
          "internalType": "address",
          "name": "newImplementation",
          "type": "address"
        },
        {
          "internalType": "bytes",
          "name": "data",
          "type": "bytes"
        }
      ],
      "name": "upgradeToAndCall",
      "outputs": [],
      "stateMutability": "payable",
      "type": "function"
    },
    {
      "inputs": [],
      "name": "version",
      "outputs": [
        {
          "internalType": "uint256",
          "name": "",
          "type": "uint256"
        }
      ],
      "stateMutability": "pure",
      "type": "function"
    }
  ],
  "transactionHash": "0x763f4dd2999cc859b78ce6901c8f2c2f7ccedf9f64fbfcbbde98cab42249eff1",
  "args": [],
  "numDeployments": 2,
  "solcInputHash": "9ffb9e6fbf500230fbc8dc2e3ff9f32f",
  "bytecode": "0x60a06040523060601b60805234801561001757600080fd5b5060805160601c612a056100526000396000818161070b01528181610754015281816108b5015281816108f501526109840152612a056000f3fe6080604052600436106101cd5760003560e01c8063587cde1e116100f757806395d89b4111610095578063c3cda52011610064578063c3cda5201461054f578063d505accf1461056f578063dd62ed3e1461058f578063f1127ed8146105d557600080fd5b806395d89b41146104da5780639ab24eb0146104ef578063a457c2d71461050f578063a9059cbb1461052f57600080fd5b806370a08231116100d157806370a08231146104445780637ecebe001461047a5780638e539e8c1461049a57806390657147146104ba57600080fd5b8063587cde1e146103b55780635c19a95c146103ef5780636fcfff451461040f57600080fd5b80633659cfe61161016f5780634162169f1161013e5780634162169f146103585780634f1ef2861461037957806352d1902d1461038c57806354fd4d50146103a157600080fd5b80633659cfe6146102d657806339509351146102f85780633a46b1a81461031857806340c10f191461033857600080fd5b806318160ddd116101ab57806318160ddd1461026657806323b872dd14610285578063313ce567146102a55780633644e515146102c157600080fd5b806306fdde03146101d257806307546172146101fd578063095ea7b314610236575b600080fd5b3480156101de57600080fd5b506101e761061f565b6040516101f49190612768565b60405180910390f35b34801561020957600080fd5b506101625461021e906001600160a01b031681565b6040516001600160a01b0390911681526020016101f4565b34801561024257600080fd5b50610256610251366004612658565b6106b1565b60405190151581526020016101f4565b34801561027257600080fd5b506099545b6040519081526020016101f4565b34801561029157600080fd5b506102566102a03660046124dc565b6106cb565b3480156102b157600080fd5b50604051601281526020016101f4565b3480156102cd57600080fd5b506102776106f1565b3480156102e257600080fd5b506102f66102f136600461248e565b610700565b005b34801561030457600080fd5b50610256610313366004612658565b6107e9565b34801561032457600080fd5b50610277610333366004612658565b610828565b34801561034457600080fd5b506102f6610353366004612658565b610854565b34801561036457600080fd5b506101635461021e906001600160a01b031681565b6102f6610387366004612582565b6108aa565b34801561039857600080fd5b50610277610977565b3480156103ad57600080fd5b506002610277565b3480156103c157600080fd5b5061021e6103d036600461248e565b6001600160a01b03908116600090815261013060205260409020541690565b3480156103fb57600080fd5b506102f661040a36600461248e565b610a2a565b34801561041b57600080fd5b5061042f61042a36600461248e565b610a34565b60405163ffffffff90911681526020016101f4565b34801561045057600080fd5b5061027761045f36600461248e565b6001600160a01b031660009081526097602052604090205490565b34801561048657600080fd5b5061027761049536600461248e565b610a57565b3480156104a657600080fd5b506102776104b5366004612733565b610a75565b3480156104c657600080fd5b506102f66104d53660046125e4565b610aa2565b3480156104e657600080fd5b506101e7610b93565b3480156104fb57600080fd5b5061027761050a36600461248e565b610ba2565b34801561051b57600080fd5b5061025661052a366004612658565b610bcd565b34801561053b57600080fd5b5061025661054a366004612658565b610c6a565b34801561055b57600080fd5b506102f661056a366004612682565b610c78565b34801561057b57600080fd5b506102f661058a366004612518565b610dae565b34801561059b57600080fd5b506102776105aa3660046124a9565b6001600160a01b03918216600090815260986020908152604080832093909416825291909152205490565b3480156105e157600080fd5b506105f56105f03660046126da565b610ef4565b60408051825163ffffffff1681526020928301516001600160e01b031692810192909252016101f4565b6060609a805461062e906128fb565b80601f016020809104026020016040519081016040528092919081815260200182805461065a906128fb565b80156106a75780601f1061067c576101008083540402835291602001916106a7565b820191906000526020600020905b81548152906001019060200180831161068a57829003601f168201915b5050505050905090565b6000336106bf818585610f79565b60019150505b92915050565b6000336106d985828561109d565b6106e4858585611129565b60019150505b9392505050565b60006106fb6112fd565b905090565b306001600160a01b037f00000000000000000000000000000000000000000000000000000000000000001614156107525760405162461bcd60e51b81526004016107499061279b565b60405180910390fd5b7f00000000000000000000000000000000000000000000000000000000000000006001600160a01b031661079b600080516020612989833981519152546001600160a01b031690565b6001600160a01b0316146107c15760405162461bcd60e51b8152600401610749906127e7565b6107ca81611378565b604080516000808252602082019092526107e6918391906113c0565b50565b3360008181526098602090815260408083206001600160a01b03871684529091528120549091906106bf908290869061082390879061287e565b610f79565b610162546000906001600160a01b038481169116141561084a575060006106c5565b6106ea838361153f565b610162546001600160a01b0316331461089c5760405162461bcd60e51b815260206004820152600a6024820152692737ba1036b4b73a32b960b11b6044820152606401610749565b6108a682826115b3565b5050565b306001600160a01b037f00000000000000000000000000000000000000000000000000000000000000001614156108f35760405162461bcd60e51b81526004016107499061279b565b7f00000000000000000000000000000000000000000000000000000000000000006001600160a01b031661093c600080516020612989833981519152546001600160a01b031690565b6001600160a01b0316146109625760405162461bcd60e51b8152600401610749906127e7565b61096b82611378565b6108a6828260016113c0565b6000306001600160a01b037f00000000000000000000000000000000000000000000000000000000000000001614610a175760405162461bcd60e51b815260206004820152603860248201527f555550535570677261646561626c653a206d757374206e6f742062652063616c60448201527f6c6564207468726f7567682064656c656761746563616c6c00000000000000006064820152608401610749565b5060008051602061298983398151915290565b6107e6338261163e565b6001600160a01b038116600090815261013160205260408120546106c5906116b9565b6001600160a01b038116600090815260fd60205260408120546106c5565b61016254600090610a8f906001600160a01b03168361153f565b610a9883611722565b6106c591906128b8565b600054610100900460ff16610abd5760005460ff1615610ac1565b303b155b610b245760405162461bcd60e51b815260206004820152602e60248201527f496e697469616c697a61626c653a20636f6e747261637420697320616c72656160448201526d191e481a5b9a5d1a585b1a5e995960921b6064820152608401610749565b600054610100900460ff16158015610b46576000805461ffff19166101011790555b61016280546001600160a01b0386166001600160a01b031991821617909155610163805490911633179055610b7b838361177f565b8015610b8d576000805461ff00191690555b50505050565b6060609b805461062e906128fb565b610162546000906001600160a01b0383811691161415610bc457506000919050565b6106c5826117b0565b3360008181526098602090815260408083206001600160a01b038716845290915281205490919083811015610c525760405162461bcd60e51b815260206004820152602560248201527f45524332303a2064656372656173656420616c6c6f77616e63652062656c6f77604482015264207a65726f60d81b6064820152608401610749565b610c5f8286868403610f79565b506001949350505050565b6000336106bf818585611129565b83421115610cc85760405162461bcd60e51b815260206004820152601d60248201527f4552433230566f7465733a207369676e617475726520657870697265640000006044820152606401610749565b604080517fe48329057bfd03d55e49b547132e39cffd9c1820ad7b9d4c5307691425d15adf60208201526001600160a01b038816918101919091526060810186905260808101859052600090610d4290610d3a9060a00160405160208183030381529060405280519060200120611839565b858585611887565b9050610d4d816118af565b8614610d9b5760405162461bcd60e51b815260206004820152601960248201527f4552433230566f7465733a20696e76616c6964206e6f6e6365000000000000006044820152606401610749565b610da5818861163e565b50505050505050565b83421115610dfe5760405162461bcd60e51b815260206004820152601d60248201527f45524332305065726d69743a206578706972656420646561646c696e650000006044820152606401610749565b600060fe54888888610e0f8c6118af565b6040805160208101969096526001600160a01b0394851690860152929091166060840152608083015260a082015260c0810186905260e0016040516020818303038152906040528051906020012090506000610e6a82611839565b90506000610e7a82878787611887565b9050896001600160a01b0316816001600160a01b031614610edd5760405162461bcd60e51b815260206004820152601e60248201527f45524332305065726d69743a20696e76616c6964207369676e617475726500006044820152606401610749565b610ee88a8a8a610f79565b50505050505050505050565b60408051808201909152600080825260208201526001600160a01b038316600090815261013160205260409020805463ffffffff8416908110610f3957610f3961295c565b60009182526020918290206040805180820190915291015463ffffffff8116825264010000000090046001600160e01b0316918101919091529392505050565b6001600160a01b038316610fdb5760405162461bcd60e51b8152602060048201526024808201527f45524332303a20617070726f76652066726f6d20746865207a65726f206164646044820152637265737360e01b6064820152608401610749565b6001600160a01b03821661103c5760405162461bcd60e51b815260206004820152602260248201527f45524332303a20617070726f766520746f20746865207a65726f206164647265604482015261737360f01b6064820152608401610749565b6001600160a01b0383811660008181526098602090815260408083209487168084529482529182902085905590518481527f8c5be1e5ebec7d5bd14f71427d1e84f3dd0314c0f7b2291e5b200ac8c7c3b925910160405180910390a3505050565b6001600160a01b038381166000908152609860209081526040808320938616835292905220546000198114610b8d578181101561111c5760405162461bcd60e51b815260206004820152601d60248201527f45524332303a20696e73756666696369656e7420616c6c6f77616e63650000006044820152606401610749565b610b8d8484848403610f79565b6001600160a01b03831661118d5760405162461bcd60e51b815260206004820152602560248201527f45524332303a207472616e736665722066726f6d20746865207a65726f206164604482015264647265737360d81b6064820152608401610749565b6001600160a01b0382166111ef5760405162461bcd60e51b815260206004820152602360248201527f45524332303a207472616e7366657220746f20746865207a65726f206164647260448201526265737360e81b6064820152608401610749565b6001600160a01b038316600090815260976020526040902054818110156112675760405162461bcd60e51b815260206004820152602660248201527f45524332303a207472616e7366657220616d6f756e7420657863656564732062604482015265616c616e636560d01b6064820152608401610749565b6001600160a01b0380851660009081526097602052604080822085850390559185168152908120805484929061129e90849061287e565b92505081905550826001600160a01b0316846001600160a01b03167fddf252ad1be2c89b69c2b068fc378daa952ba7f163c4a11628f55a4df523b3ef846040516112ea91815260200190565b60405180910390a3610b8d8484846118d7565b60006106fb7f8b73c3c69bb8fe3d512ecc4cf759cc79239f7b179b0ffacaa9a75d522b39400f61132c60c95490565b60ca546040805160208101859052908101839052606081018290524660808201523060a082015260009060c0016040516020818303038152906040528051906020012090509392505050565b610163546001600160a01b031633146107e65760405162461bcd60e51b815260206004820152600a6024820152692737ba1036b4b73a32b960b11b6044820152606401610749565b7f4910fdfa16fed3260ed0e7147f7cc6da11a60208b5b9406d12a635614ffd91435460ff16156113f8576113f3836118ec565b505050565b826001600160a01b03166352d1902d6040518163ffffffff1660e01b815260040160206040518083038186803b15801561143157600080fd5b505afa925050508015611461575060408051601f3d908101601f1916820190925261145e9181019061271a565b60015b6114c45760405162461bcd60e51b815260206004820152602e60248201527f45524331393637557067726164653a206e657720696d706c656d656e7461746960448201526d6f6e206973206e6f74205555505360901b6064820152608401610749565b60008051602061298983398151915281146115335760405162461bcd60e51b815260206004820152602960248201527f45524331393637557067726164653a20756e737570706f727465642070726f786044820152681a58589b195555525160ba1b6064820152608401610749565b506113f3838383611988565b60004382106115905760405162461bcd60e51b815260206004820152601f60248201527f4552433230566f7465733a20626c6f636b206e6f7420796574206d696e6564006044820152606401610749565b6001600160a01b0383166000908152610131602052604090206106ea90836119ad565b6115bd8282611a6a565b6099546001600160e01b03101561162f5760405162461bcd60e51b815260206004820152603060248201527f4552433230566f7465733a20746f74616c20737570706c79207269736b73206f60448201526f766572666c6f77696e6720766f74657360801b6064820152608401610749565b610b8d610132611b5183611b5d565b6001600160a01b0382811660008181526101306020818152604080842080546097845282862054949093528787166001600160a01b03198416811790915590519190951694919391928592917f3134e8a2e6d97e929a7e54011ea5485d7d196dd5f0ba4d4ef95803e8e3fc257f9190a4610b8d828483611cd6565b600063ffffffff82111561171e5760405162461bcd60e51b815260206004820152602660248201527f53616665436173743a2076616c756520646f65736e27742066697420696e203360448201526532206269747360d01b6064820152608401610749565b5090565b60004382106117735760405162461bcd60e51b815260206004820152601f60248201527f4552433230566f7465733a20626c6f636b206e6f7420796574206d696e6564006044820152606401610749565b6106c5610132836119ad565b600054610100900460ff166117a65760405162461bcd60e51b815260040161074990612833565b6108a68282611e15565b6001600160a01b038116600090815261013160205260408120548015611826576001600160a01b0383166000908152610131602052604090206117f46001836128b8565b815481106118045761180461295c565b60009182526020909120015464010000000090046001600160e01b0316611829565b60005b6001600160e01b03169392505050565b60006106c56118466112fd565b8360405161190160f01b6020820152602281018390526042810182905260009060620160405160208183030381529060405280519060200120905092915050565b600080600061189887878787611e63565b915091506118a581611f50565b5095945050505050565b6001600160a01b038116600090815260fd602052604090208054600181018255905b50919050565b6118e283838361210b565b6113f3828361163e565b6001600160a01b0381163b6119595760405162461bcd60e51b815260206004820152602d60248201527f455243313936373a206e657720696d706c656d656e746174696f6e206973206e60448201526c1bdd08184818dbdb9d1c9858dd609a1b6064820152608401610749565b60008051602061298983398151915280546001600160a01b0319166001600160a01b0392909216919091179055565b6119918361213e565b60008251118061199e5750805b156113f357610b8d838361217e565b8154600090815b81811015611a115760006119c88284612272565b9050848682815481106119dd576119dd61295c565b60009182526020909120015463ffffffff1611156119fd57809250611a0b565b611a0881600161287e565b91505b506119b4565b8115611a555784611a236001846128b8565b81548110611a3357611a3361295c565b60009182526020909120015464010000000090046001600160e01b0316611a58565b60005b6001600160e01b031695945050505050565b6001600160a01b038216611ac05760405162461bcd60e51b815260206004820152601f60248201527f45524332303a206d696e7420746f20746865207a65726f2061646472657373006044820152606401610749565b8060996000828254611ad2919061287e565b90915550506001600160a01b03821660009081526097602052604081208054839290611aff90849061287e565b90915550506040518181526001600160a01b038316906000907fddf252ad1be2c89b69c2b068fc378daa952ba7f163c4a11628f55a4df523b3ef9060200160405180910390a36108a6600083836118d7565b60006106ea828461287e565b825460009081908015611ba85785611b766001836128b8565b81548110611b8657611b8661295c565b60009182526020909120015464010000000090046001600160e01b0316611bab565b60005b6001600160e01b03169250611bc483858763ffffffff16565b9150600081118015611c0257504386611bde6001846128b8565b81548110611bee57611bee61295c565b60009182526020909120015463ffffffff16145b15611c6257611c108261228d565b86611c1c6001846128b8565b81548110611c2c57611c2c61295c565b9060005260206000200160000160046101000a8154816001600160e01b0302191690836001600160e01b03160217905550611ccd565b856040518060400160405280611c77436116b9565b63ffffffff168152602001611c8b8561228d565b6001600160e01b0390811690915282546001810184556000938452602093849020835194909301519091166401000000000263ffffffff909316929092179101555b50935093915050565b816001600160a01b0316836001600160a01b031614158015611cf85750600081115b156113f3576001600160a01b03831615611d87576001600160a01b0383166000908152610131602052604081208190611d34906122f685611b5d565b91509150846001600160a01b03167fdec2bacdd2f05b59de34da9b523dff8be42e5e38e818c82fdb0bae774387a7248383604051611d7c929190918252602082015260400190565b60405180910390a250505b6001600160a01b038216156113f3576001600160a01b0382166000908152610131602052604081208190611dbe90611b5185611b5d565b91509150836001600160a01b03167fdec2bacdd2f05b59de34da9b523dff8be42e5e38e818c82fdb0bae774387a7248383604051611e06929190918252602082015260400190565b60405180910390a25050505050565b600054610100900460ff16611e3c5760405162461bcd60e51b815260040161074990612833565b8151611e4f90609a90602085019061233b565b5080516113f390609b90602084019061233b565b6000807f7fffffffffffffffffffffffffffffff5d576e7357a4501ddfe92f46681b20a0831115611e9a5750600090506003611f47565b8460ff16601b14158015611eb257508460ff16601c14155b15611ec35750600090506004611f47565b6040805160008082526020820180845289905260ff881692820192909252606081018690526080810185905260019060a0016020604051602081039080840390855afa158015611f17573d6000803e3d6000fd5b5050604051601f1901519150506001600160a01b038116611f4057600060019250925050611f47565b9150600090505b94509492505050565b6000816004811115611f6457611f64612946565b1415611f6d5750565b6001816004811115611f8157611f81612946565b1415611fcf5760405162461bcd60e51b815260206004820152601860248201527f45434453413a20696e76616c6964207369676e617475726500000000000000006044820152606401610749565b6002816004811115611fe357611fe3612946565b14156120315760405162461bcd60e51b815260206004820152601f60248201527f45434453413a20696e76616c6964207369676e6174757265206c656e677468006044820152606401610749565b600381600481111561204557612045612946565b141561209e5760405162461bcd60e51b815260206004820152602260248201527f45434453413a20696e76616c6964207369676e6174757265202773272076616c604482015261756560f01b6064820152608401610749565b60048160048111156120b2576120b2612946565b14156107e65760405162461bcd60e51b815260206004820152602260248201527f45434453413a20696e76616c6964207369676e6174757265202776272076616c604482015261756560f01b6064820152608401610749565b6001600160a01b03838116600090815261013060205260408082205485841683529120546113f392918216911683611cd6565b612147816118ec565b6040516001600160a01b038216907fbc7cd75a20ee27fd9adebab32041f755214dbc6bffa90cc0225b39da2e5c2d3b90600090a250565b60606001600160a01b0383163b6121e65760405162461bcd60e51b815260206004820152602660248201527f416464726573733a2064656c65676174652063616c6c20746f206e6f6e2d636f6044820152651b9d1c9858dd60d21b6064820152608401610749565b600080846001600160a01b031684604051612201919061274c565b600060405180830381855af49150503d806000811461223c576040519150601f19603f3d011682016040523d82523d6000602084013e612241565b606091505b509150915061226982826040518060600160405280602781526020016129a960279139612302565b95945050505050565b60006122816002848418612896565b6106ea9084841661287e565b60006001600160e01b0382111561171e5760405162461bcd60e51b815260206004820152602760248201527f53616665436173743a2076616c756520646f65736e27742066697420696e20326044820152663234206269747360c81b6064820152608401610749565b60006106ea82846128b8565b606083156123115750816106ea565b8251156123215782518084602001fd5b8160405162461bcd60e51b81526004016107499190612768565b828054612347906128fb565b90600052602060002090601f01602090048101928261236957600085556123af565b82601f1061238257805160ff19168380011785556123af565b828001600101855582156123af579182015b828111156123af578251825591602001919060010190612394565b5061171e9291505b8082111561171e57600081556001016123b7565b600067ffffffffffffffff808411156123e6576123e6612972565b604051601f8501601f19908116603f0116810190828211818310171561240e5761240e612972565b8160405280935085815286868601111561242757600080fd5b858560208301376000602087830101525050509392505050565b80356001600160a01b038116811461245857600080fd5b919050565b600082601f83011261246e57600080fd5b6106ea838335602085016123cb565b803560ff8116811461245857600080fd5b6000602082840312156124a057600080fd5b6106ea82612441565b600080604083850312156124bc57600080fd5b6124c583612441565b91506124d360208401612441565b90509250929050565b6000806000606084860312156124f157600080fd5b6124fa84612441565b925061250860208501612441565b9150604084013590509250925092565b600080600080600080600060e0888a03121561253357600080fd5b61253c88612441565b965061254a60208901612441565b955060408801359450606088013593506125666080890161247d565b925060a0880135915060c0880135905092959891949750929550565b6000806040838503121561259557600080fd5b61259e83612441565b9150602083013567ffffffffffffffff8111156125ba57600080fd5b8301601f810185136125cb57600080fd5b6125da858235602084016123cb565b9150509250929050565b6000806000606084860312156125f957600080fd5b61260284612441565b9250602084013567ffffffffffffffff8082111561261f57600080fd5b61262b8783880161245d565b9350604086013591508082111561264157600080fd5b5061264e8682870161245d565b9150509250925092565b6000806040838503121561266b57600080fd5b61267483612441565b946020939093013593505050565b60008060008060008060c0878903121561269b57600080fd5b6126a487612441565b955060208701359450604087013593506126c06060880161247d565b92506080870135915060a087013590509295509295509295565b600080604083850312156126ed57600080fd5b6126f683612441565b9150602083013563ffffffff8116811461270f57600080fd5b809150509250929050565b60006020828403121561272c57600080fd5b5051919050565b60006020828403121561274557600080fd5b5035919050565b6000825161275e8184602087016128cf565b9190910192915050565b60208152600082518060208401526127878160408501602087016128cf565b601f01601f19169190910160400192915050565b6020808252602c908201527f46756e6374696f6e206d7573742062652063616c6c6564207468726f7567682060408201526b19195b1959d85d1958d85b1b60a21b606082015260800190565b6020808252602c908201527f46756e6374696f6e206d7573742062652063616c6c6564207468726f7567682060408201526b6163746976652070726f787960a01b606082015260800190565b6020808252602b908201527f496e697469616c697a61626c653a20636f6e7472616374206973206e6f74206960408201526a6e697469616c697a696e6760a81b606082015260800190565b6000821982111561289157612891612930565b500190565b6000826128b357634e487b7160e01b600052601260045260246000fd5b500490565b6000828210156128ca576128ca612930565b500390565b60005b838110156128ea5781810151838201526020016128d2565b83811115610b8d5750506000910152565b600181811c9082168061290f57607f821691505b602082108114156118d157634e487b7160e01b600052602260045260246000fd5b634e487b7160e01b600052601160045260246000fd5b634e487b7160e01b600052602160045260246000fd5b634e487b7160e01b600052603260045260246000fd5b634e487b7160e01b600052604160045260246000fdfe360894a13ba1a3210667c828492db98dca3e2076cc3735a920a3ca505d382bbc416464726573733a206c6f772d6c6576656c2064656c65676174652063616c6c206661696c6564a264697066735822122037454cae720978b425e837efd5e7b081fa572f8d05f4b9835514a0037c3e301864736f6c63430008070033",
  "devdoc": {
    "kind": "dev",
    "methods": {
      "DOMAIN_SEPARATOR()": {
        "details": "See {IERC20Permit-DOMAIN_SEPARATOR}."
      },
      "allowance(address,address)": {
        "details": "See {IERC20-allowance}."
      },
      "approve(address,uint256)": {
        "details": "See {IERC20-approve}. NOTE: If `amount` is the maximum `uint256`, the allowance is not updated on `transferFrom`. This is semantically equivalent to an infinite approval. Requirements: - `spender` cannot be the zero address."
      },
      "balanceOf(address)": {
        "details": "See {IERC20-balanceOf}."
      },
      "checkpoints(address,uint32)": {
        "details": "Get the `pos`-th checkpoint for `account`."
      },
      "decimals()": {
        "details": "Returns the number of decimals used to get its user representation. For example, if `decimals` equals `2`, a balance of `505` tokens should be displayed to a user as `5.05` (`505 / 10 ** 2`). Tokens usually opt for a value of 18, imitating the relationship between Ether and Wei. This is the value {ERC20} uses, unless this function is overridden; NOTE: This information is only used for _display_ purposes: it in no way affects any of the arithmetic of the contract, including {IERC20-balanceOf} and {IERC20-transfer}."
      },
      "decreaseAllowance(address,uint256)": {
        "details": "Atomically decreases the allowance granted to `spender` by the caller. This is an alternative to {approve} that can be used as a mitigation for problems described in {IERC20-approve}. Emits an {Approval} event indicating the updated allowance. Requirements: - `spender` cannot be the zero address. - `spender` must have allowance for the caller of at least `subtractedValue`."
      },
      "delegate(address)": {
        "details": "Delegate votes from the sender to `delegatee`."
      },
      "delegateBySig(address,uint256,uint256,uint8,bytes32,bytes32)": {
        "details": "Delegates votes from signer to `delegatee`"
      },
      "delegates(address)": {
        "details": "Get the address `account` is currently delegating to."
      },
      "getPastTotalSupply(uint256)": {
        "details": "Retrieve the `totalSupply` at the end of `blockNumber`. Note, this value is the sum of all balances. It is but NOT the sum of all the delegated votes! Requirements: - `blockNumber` must have been already mined"
      },
      "getPastVotes(address,uint256)": {
        "details": "Retrieve the number of votes for `account` at the end of `blockNumber`. Requirements: - `blockNumber` must have been already mined"
      },
      "getVotes(address)": {
        "details": "Gets the current votes balance for `account`"
      },
      "increaseAllowance(address,uint256)": {
        "details": "Atomically increases the allowance granted to `spender` by the caller. This is an alternative to {approve} that can be used as a mitigation for problems described in {IERC20-approve}. Emits an {Approval} event indicating the updated allowance. Requirements: - `spender` cannot be the zero address."
      },
      "name()": {
        "details": "Returns the name of the token."
      },
      "nonces(address)": {
        "details": "See {IERC20Permit-nonces}."
      },
      "numCheckpoints(address)": {
        "details": "Get number of checkpoints for `account`."
      },
      "permit(address,address,uint256,uint256,uint8,bytes32,bytes32)": {
        "details": "See {IERC20Permit-permit}."
      },
      "proxiableUUID()": {
        "details": "Implementation of the ERC1822 {proxiableUUID} function. This returns the storage slot used by the implementation. It is used to validate that the this implementation remains valid after an upgrade. IMPORTANT: A proxy pointing at a proxiable contract should not be considered proxiable itself, because this risks bricking a proxy that upgrades to it, by delegating to itself until out of gas. Thus it is critical that this function revert if invoked through a proxy. This is guaranteed by the `notDelegated` modifier."
      },
      "symbol()": {
        "details": "Returns the symbol of the token, usually a shorter version of the name."
      },
      "totalSupply()": {
        "details": "See {IERC20-totalSupply}."
      },
      "transfer(address,uint256)": {
        "details": "See {IERC20-transfer}. Requirements: - `to` cannot be the zero address. - the caller must have a balance of at least `amount`."
      },
      "transferFrom(address,address,uint256)": {
        "details": "See {IERC20-transferFrom}. Emits an {Approval} event indicating the updated allowance. This is not required by the EIP. See the note at the beginning of {ERC20}. NOTE: Does not update the allowance if the current allowance is the maximum `uint256`. Requirements: - `from` and `to` cannot be the zero address. - `from` must have a balance of at least `amount`. - the caller must have allowance for ``from``'s tokens of at least `amount`."
      },
      "upgradeTo(address)": {
        "details": "Upgrade the implementation of the proxy to `newImplementation`. Calls {_authorizeUpgrade}. Emits an {Upgraded} event."
      },
      "upgradeToAndCall(address,bytes)": {
        "details": "Upgrade the implementation of the proxy to `newImplementation`, and subsequently execute the function call encoded in `data`. Calls {_authorizeUpgrade}. Emits an {Upgraded} event."
      }
    },
    "version": 1
  },
  "userdoc": {
    "kind": "user",
    "methods": {},
    "version": 1
  },
  "storageLayout": {
    "storage": [
      {
        "astId": 2736,
        "contract": "contracts/MemberToken.sol:MemberToken",
        "label": "_initialized",
        "offset": 0,
        "slot": "0",
        "type": "t_bool"
      },
      {
        "astId": 2739,
        "contract": "contracts/MemberToken.sol:MemberToken",
        "label": "_initializing",
        "offset": 1,
        "slot": "0",
        "type": "t_bool"
      },
      {
        "astId": 2718,
        "contract": "contracts/MemberToken.sol:MemberToken",
        "label": "__gap",
        "offset": 0,
        "slot": "1",
        "type": "t_array(t_uint256)50_storage"
      },
      {
        "astId": 2938,
        "contract": "contracts/MemberToken.sol:MemberToken",
        "label": "__gap",
        "offset": 0,
        "slot": "51",
        "type": "t_array(t_uint256)50_storage"
      },
      {
        "astId": 7651,
        "contract": "contracts/MemberToken.sol:MemberToken",
        "label": "__gap",
        "offset": 0,
        "slot": "101",
        "type": "t_array(t_uint256)50_storage"
      },
      {
        "astId": 4379,
        "contract": "contracts/MemberToken.sol:MemberToken",
        "label": "_balances",
        "offset": 0,
        "slot": "151",
        "type": "t_mapping(t_address,t_uint256)"
      },
      {
        "astId": 4385,
        "contract": "contracts/MemberToken.sol:MemberToken",
        "label": "_allowances",
        "offset": 0,
        "slot": "152",
        "type": "t_mapping(t_address,t_mapping(t_address,t_uint256))"
      },
      {
        "astId": 4387,
        "contract": "contracts/MemberToken.sol:MemberToken",
        "label": "_totalSupply",
        "offset": 0,
        "slot": "153",
        "type": "t_uint256"
      },
      {
        "astId": 4389,
        "contract": "contracts/MemberToken.sol:MemberToken",
        "label": "_name",
        "offset": 0,
        "slot": "154",
        "type": "t_string_storage"
      },
      {
        "astId": 4391,
        "contract": "contracts/MemberToken.sol:MemberToken",
        "label": "_symbol",
        "offset": 0,
        "slot": "155",
        "type": "t_string_storage"
      },
      {
        "astId": 4972,
        "contract": "contracts/MemberToken.sol:MemberToken",
        "label": "__gap",
        "offset": 0,
        "slot": "156",
        "type": "t_array(t_uint256)45_storage"
      },
      {
        "astId": 8619,
        "contract": "contracts/MemberToken.sol:MemberToken",
        "label": "_HASHED_NAME",
        "offset": 0,
        "slot": "201",
        "type": "t_bytes32"
      },
      {
        "astId": 8621,
        "contract": "contracts/MemberToken.sol:MemberToken",
        "label": "_HASHED_VERSION",
        "offset": 0,
        "slot": "202",
        "type": "t_bytes32"
      },
      {
        "astId": 8759,
        "contract": "contracts/MemberToken.sol:MemberToken",
        "label": "__gap",
        "offset": 0,
        "slot": "203",
        "type": "t_array(t_uint256)50_storage"
      },
      {
        "astId": 5759,
        "contract": "contracts/MemberToken.sol:MemberToken",
        "label": "_nonces",
        "offset": 0,
        "slot": "253",
        "type": "t_mapping(t_address,t_struct(Counter)7658_storage)"
      },
      {
        "astId": 5761,
        "contract": "contracts/MemberToken.sol:MemberToken",
        "label": "_PERMIT_TYPEHASH",
        "offset": 0,
        "slot": "254",
        "type": "t_bytes32"
      },
      {
        "astId": 5927,
        "contract": "contracts/MemberToken.sol:MemberToken",
        "label": "__gap",
        "offset": 0,
        "slot": "255",
        "type": "t_array(t_uint256)49_storage"
      },
      {
        "astId": 5092,
        "contract": "contracts/MemberToken.sol:MemberToken",
        "label": "_delegates",
        "offset": 0,
        "slot": "304",
        "type": "t_mapping(t_address,t_address)"
      },
      {
        "astId": 5098,
        "contract": "contracts/MemberToken.sol:MemberToken",
        "label": "_checkpoints",
        "offset": 0,
        "slot": "305",
        "type": "t_mapping(t_address,t_array(t_struct(Checkpoint)5083_storage)dyn_storage)"
      },
      {
        "astId": 5102,
        "contract": "contracts/MemberToken.sol:MemberToken",
        "label": "_totalSupplyCheckpoints",
        "offset": 0,
        "slot": "306",
        "type": "t_array(t_struct(Checkpoint)5083_storage)dyn_storage"
      },
      {
        "astId": 5707,
        "contract": "contracts/MemberToken.sol:MemberToken",
        "label": "__gap",
        "offset": 0,
        "slot": "307",
        "type": "t_array(t_uint256)47_storage"
      },
      {
        "astId": 18579,
        "contract": "contracts/MemberToken.sol:MemberToken",
        "label": "minter",
        "offset": 0,
        "slot": "354",
        "type": "t_address"
      },
      {
        "astId": 18581,
        "contract": "contracts/MemberToken.sol:MemberToken",
        "label": "dao",
        "offset": 0,
        "slot": "355",
        "type": "t_address"
      }
    ],
    "types": {
      "t_address": {
        "encoding": "inplace",
        "label": "address",
        "numberOfBytes": "20"
      },
      "t_array(t_struct(Checkpoint)5083_storage)dyn_storage": {
        "base": "t_struct(Checkpoint)5083_storage",
        "encoding": "dynamic_array",
        "label": "struct ERC20VotesUpgradeable.Checkpoint[]",
        "numberOfBytes": "32"
      },
      "t_array(t_uint256)45_storage": {
        "base": "t_uint256",
        "encoding": "inplace",
        "label": "uint256[45]",
        "numberOfBytes": "1440"
      },
      "t_array(t_uint256)47_storage": {
        "base": "t_uint256",
        "encoding": "inplace",
        "label": "uint256[47]",
        "numberOfBytes": "1504"
      },
      "t_array(t_uint256)49_storage": {
        "base": "t_uint256",
        "encoding": "inplace",
        "label": "uint256[49]",
        "numberOfBytes": "1568"
      },
      "t_array(t_uint256)50_storage": {
        "base": "t_uint256",
        "encoding": "inplace",
        "label": "uint256[50]",
        "numberOfBytes": "1600"
      },
      "t_bool": {
        "encoding": "inplace",
        "label": "bool",
        "numberOfBytes": "1"
      },
      "t_bytes32": {
        "encoding": "inplace",
        "label": "bytes32",
        "numberOfBytes": "32"
      },
      "t_mapping(t_address,t_address)": {
        "encoding": "mapping",
        "key": "t_address",
        "label": "mapping(address => address)",
        "numberOfBytes": "32",
        "value": "t_address"
      },
      "t_mapping(t_address,t_array(t_struct(Checkpoint)5083_storage)dyn_storage)": {
        "encoding": "mapping",
        "key": "t_address",
        "label": "mapping(address => struct ERC20VotesUpgradeable.Checkpoint[])",
        "numberOfBytes": "32",
        "value": "t_array(t_struct(Checkpoint)5083_storage)dyn_storage"
      },
      "t_mapping(t_address,t_mapping(t_address,t_uint256))": {
        "encoding": "mapping",
        "key": "t_address",
        "label": "mapping(address => mapping(address => uint256))",
        "numberOfBytes": "32",
        "value": "t_mapping(t_address,t_uint256)"
      },
      "t_mapping(t_address,t_struct(Counter)7658_storage)": {
        "encoding": "mapping",
        "key": "t_address",
        "label": "mapping(address => struct CountersUpgradeable.Counter)",
        "numberOfBytes": "32",
        "value": "t_struct(Counter)7658_storage"
      },
      "t_mapping(t_address,t_uint256)": {
        "encoding": "mapping",
        "key": "t_address",
        "label": "mapping(address => uint256)",
        "numberOfBytes": "32",
        "value": "t_uint256"
      },
      "t_string_storage": {
        "encoding": "bytes",
        "label": "string",
        "numberOfBytes": "32"
      },
      "t_struct(Checkpoint)5083_storage": {
        "encoding": "inplace",
        "label": "struct ERC20VotesUpgradeable.Checkpoint",
        "members": [
          {
            "astId": 5080,
            "contract": "contracts/MemberToken.sol:MemberToken",
            "label": "fromBlock",
            "offset": 0,
            "slot": "0",
            "type": "t_uint32"
          },
          {
            "astId": 5082,
            "contract": "contracts/MemberToken.sol:MemberToken",
            "label": "votes",
            "offset": 4,
            "slot": "0",
            "type": "t_uint224"
          }
        ],
        "numberOfBytes": "32"
      },
      "t_struct(Counter)7658_storage": {
        "encoding": "inplace",
        "label": "struct CountersUpgradeable.Counter",
        "members": [
          {
            "astId": 7657,
            "contract": "contracts/MemberToken.sol:MemberToken",
            "label": "_value",
            "offset": 0,
            "slot": "0",
            "type": "t_uint256"
          }
        ],
        "numberOfBytes": "32"
      },
      "t_uint224": {
        "encoding": "inplace",
        "label": "uint224",
        "numberOfBytes": "28"
      },
      "t_uint256": {
        "encoding": "inplace",
        "label": "uint256",
        "numberOfBytes": "32"
      },
      "t_uint32": {
        "encoding": "inplace",
        "label": "uint32",
        "numberOfBytes": "4"
      }
    }
  }
}