{
  "address": "0xcbE4aC70daA94f3DfB3b9511d85ea425a95D487d",
  "abi": [
    {
      "anonymous": false,
      "inputs": [
        {
          "indexed": true,
          "internalType": "address",
          "name": "owner",
          "type": "address"
        },
        {
          "indexed": true,
          "internalType": "address",
          "name": "spender",
          "type": "address"
        },
        {
          "indexed": false,
          "internalType": "uint256",
          "name": "value",
          "type": "uint256"
        }
      ],
      "name": "Approval",
      "type": "event"
    },
    {
      "anonymous": false,
      "inputs": [
        {
          "indexed": true,
          "internalType": "address",
          "name": "delegator",
          "type": "address"
        },
        {
          "indexed": true,
          "internalType": "address",
          "name": "fromDelegate",
          "type": "address"
        },
        {
          "indexed": true,
          "internalType": "address",
          "name": "toDelegate",
          "type": "address"
        }
      ],
      "name": "DelegateChanged",
      "type": "event"
    },
    {
      "anonymous": false,
      "inputs": [
        {
          "indexed": true,
          "internalType": "address",
          "name": "delegate",
          "type": "address"
        },
        {
          "indexed": false,
          "internalType": "uint256",
          "name": "previousBalance",
          "type": "uint256"
        },
        {
          "indexed": false,
          "internalType": "uint256",
          "name": "newBalance",
          "type": "uint256"
        }
      ],
      "name": "DelegateVotesChanged",
      "type": "event"
    },
    {
      "anonymous": false,
      "inputs": [
        {
          "indexed": true,
          "internalType": "address",
          "name": "from",
          "type": "address"
        },
        {
          "indexed": true,
          "internalType": "address",
          "name": "to",
          "type": "address"
        },
        {
          "indexed": false,
          "internalType": "uint256",
          "name": "value",
          "type": "uint256"
        }
      ],
      "name": "Transfer",
      "type": "event"
    },
    {
      "inputs": [],
      "name": "DOMAIN_SEPARATOR",
      "outputs": [
        {
          "internalType": "bytes32",
          "name": "",
          "type": "bytes32"
        }
      ],
      "stateMutability": "view",
      "type": "function"
    },
    {
      "inputs": [
        {
          "internalType": "address",
          "name": "owner",
          "type": "address"
        },
        {
          "internalType": "address",
          "name": "spender",
          "type": "address"
        }
      ],
      "name": "allowance",
      "outputs": [
        {
          "internalType": "uint256",
          "name": "",
          "type": "uint256"
        }
      ],
      "stateMutability": "view",
      "type": "function"
    },
    {
      "inputs": [
        {
          "internalType": "address",
          "name": "spender",
          "type": "address"
        },
        {
          "internalType": "uint256",
          "name": "amount",
          "type": "uint256"
        }
      ],
      "name": "approve",
      "outputs": [
        {
          "internalType": "bool",
          "name": "",
          "type": "bool"
        }
      ],
      "stateMutability": "nonpayable",
      "type": "function"
    },
    {
      "inputs": [
        {
          "internalType": "address",
          "name": "account",
          "type": "address"
        }
      ],
      "name": "balanceOf",
      "outputs": [
        {
          "internalType": "uint256",
          "name": "",
          "type": "uint256"
        }
      ],
      "stateMutability": "view",
      "type": "function"
    },
    {
      "inputs": [
        {
          "internalType": "address",
          "name": "account",
          "type": "address"
        },
        {
          "internalType": "uint32",
          "name": "pos",
          "type": "uint32"
        }
      ],
      "name": "checkpoints",
      "outputs": [
        {
          "components": [
            {
              "internalType": "uint32",
              "name": "fromBlock",
              "type": "uint32"
            },
            {
              "internalType": "uint224",
              "name": "votes",
              "type": "uint224"
            }
          ],
          "internalType": "struct ERC20VotesUpgradeable.Checkpoint",
          "name": "",
          "type": "tuple"
        }
      ],
      "stateMutability": "view",
      "type": "function"
    },
    {
      "inputs": [],
      "name": "decimals",
      "outputs": [
        {
          "internalType": "uint8",
          "name": "",
          "type": "uint8"
        }
      ],
      "stateMutability": "view",
      "type": "function"
    },
    {
      "inputs": [
        {
          "internalType": "address",
          "name": "spender",
          "type": "address"
        },
        {
          "internalType": "uint256",
          "name": "subtractedValue",
          "type": "uint256"
        }
      ],
      "name": "decreaseAllowance",
      "outputs": [
        {
          "internalType": "bool",
          "name": "",
          "type": "bool"
        }
      ],
      "stateMutability": "nonpayable",
      "type": "function"
    },
    {
      "inputs": [
        {
          "internalType": "address",
          "name": "delegatee",
          "type": "address"
        }
      ],
      "name": "delegate",
      "outputs": [],
      "stateMutability": "nonpayable",
      "type": "function"
    },
    {
      "inputs": [
        {
          "internalType": "address",
          "name": "delegatee",
          "type": "address"
        },
        {
          "internalType": "uint256",
          "name": "nonce",
          "type": "uint256"
        },
        {
          "internalType": "uint256",
          "name": "expiry",
          "type": "uint256"
        },
        {
          "internalType": "uint8",
          "name": "v",
          "type": "uint8"
        },
        {
          "internalType": "bytes32",
          "name": "r",
          "type": "bytes32"
        },
        {
          "internalType": "bytes32",
          "name": "s",
          "type": "bytes32"
        }
      ],
      "name": "delegateBySig",
      "outputs": [],
      "stateMutability": "nonpayable",
      "type": "function"
    },
    {
      "inputs": [
        {
          "internalType": "address",
          "name": "account",
          "type": "address"
        }
      ],
      "name": "delegates",
      "outputs": [
        {
          "internalType": "address",
          "name": "",
          "type": "address"
        }
      ],
      "stateMutability": "view",
      "type": "function"
    },
    {
      "inputs": [
        {
          "internalType": "uint256",
          "name": "blockNumber",
          "type": "uint256"
        }
      ],
      "name": "getPastTotalSupply",
      "outputs": [
        {
          "internalType": "uint256",
          "name": "",
          "type": "uint256"
        }
      ],
      "stateMutability": "view",
      "type": "function"
    },
    {
      "inputs": [
        {
          "internalType": "address",
          "name": "account",
          "type": "address"
        },
        {
          "internalType": "uint256",
          "name": "blockNumber",
          "type": "uint256"
        }
      ],
      "name": "getPastVotes",
      "outputs": [
        {
          "internalType": "uint256",
          "name": "",
          "type": "uint256"
        }
      ],
      "stateMutability": "view",
      "type": "function"
    },
    {
      "inputs": [
        {
          "internalType": "address",
          "name": "account",
          "type": "address"
        }
      ],
      "name": "getVotes",
      "outputs": [
        {
          "internalType": "uint256",
          "name": "",
          "type": "uint256"
        }
      ],
      "stateMutability": "view",
      "type": "function"
    },
    {
      "inputs": [
        {
          "internalType": "address",
          "name": "spender",
          "type": "address"
        },
        {
          "internalType": "uint256",
          "name": "addedValue",
          "type": "uint256"
        }
      ],
      "name": "increaseAllowance",
      "outputs": [
        {
          "internalType": "bool",
          "name": "",
          "type": "bool"
        }
      ],
      "stateMutability": "nonpayable",
      "type": "function"
    },
    {
      "inputs": [
        {
          "internalType": "address",
          "name": "_minter",
          "type": "address"
        },
        {
          "internalType": "string",
          "name": "_name",
          "type": "string"
        },
        {
          "internalType": "string",
          "name": "_symbol",
          "type": "string"
        }
      ],
      "name": "initialize",
      "outputs": [],
      "stateMutability": "nonpayable",
      "type": "function"
    },
    {
      "inputs": [
        {
          "internalType": "address",
          "name": "account",
          "type": "address"
        },
        {
          "internalType": "uint256",
          "name": "amount",
          "type": "uint256"
        }
      ],
      "name": "mint",
      "outputs": [],
      "stateMutability": "nonpayable",
      "type": "function"
    },
    {
      "inputs": [],
      "name": "minter",
      "outputs": [
        {
          "internalType": "address",
          "name": "",
          "type": "address"
        }
      ],
      "stateMutability": "view",
      "type": "function"
    },
    {
      "inputs": [],
      "name": "name",
      "outputs": [
        {
          "internalType": "string",
          "name": "",
          "type": "string"
        }
      ],
      "stateMutability": "view",
      "type": "function"
    },
    {
      "inputs": [
        {
          "internalType": "address",
          "name": "owner",
          "type": "address"
        }
      ],
      "name": "nonces",
      "outputs": [
        {
          "internalType": "uint256",
          "name": "",
          "type": "uint256"
        }
      ],
      "stateMutability": "view",
      "type": "function"
    },
    {
      "inputs": [
        {
          "internalType": "address",
          "name": "account",
          "type": "address"
        }
      ],
      "name": "numCheckpoints",
      "outputs": [
        {
          "internalType": "uint32",
          "name": "",
          "type": "uint32"
        }
      ],
      "stateMutability": "view",
      "type": "function"
    },
    {
      "inputs": [
        {
          "internalType": "address",
          "name": "owner",
          "type": "address"
        },
        {
          "internalType": "address",
          "name": "spender",
          "type": "address"
        },
        {
          "internalType": "uint256",
          "name": "value",
          "type": "uint256"
        },
        {
          "internalType": "uint256",
          "name": "deadline",
          "type": "uint256"
        },
        {
          "internalType": "uint8",
          "name": "v",
          "type": "uint8"
        },
        {
          "internalType": "bytes32",
          "name": "r",
          "type": "bytes32"
        },
        {
          "internalType": "bytes32",
          "name": "s",
          "type": "bytes32"
        }
      ],
      "name": "permit",
      "outputs": [],
      "stateMutability": "nonpayable",
      "type": "function"
    },
    {
      "inputs": [],
      "name": "symbol",
      "outputs": [
        {
          "internalType": "string",
          "name": "",
          "type": "string"
        }
      ],
      "stateMutability": "view",
      "type": "function"
    },
    {
      "inputs": [],
      "name": "totalSupply",
      "outputs": [
        {
          "internalType": "uint256",
          "name": "",
          "type": "uint256"
        }
      ],
      "stateMutability": "view",
      "type": "function"
    },
    {
      "inputs": [
        {
          "internalType": "address",
          "name": "to",
          "type": "address"
        },
        {
          "internalType": "uint256",
          "name": "amount",
          "type": "uint256"
        }
      ],
      "name": "transfer",
      "outputs": [
        {
          "internalType": "bool",
          "name": "",
          "type": "bool"
        }
      ],
      "stateMutability": "nonpayable",
      "type": "function"
    },
    {
      "inputs": [
        {
          "internalType": "address",
          "name": "from",
          "type": "address"
        },
        {
          "internalType": "address",
          "name": "to",
          "type": "address"
        },
        {
          "internalType": "uint256",
          "name": "amount",
          "type": "uint256"
        }
      ],
      "name": "transferFrom",
      "outputs": [
        {
          "internalType": "bool",
          "name": "",
          "type": "bool"
        }
      ],
      "stateMutability": "nonpayable",
      "type": "function"
    }
  ],
  "transactionHash": "0x0de8df06672e334eaa13f9359d651ebf70d48e61c9c6ffcbdcfe35f1e8d33912",
  "args": [],
  "numDeployments": 1,
  "solcInputHash": "da7809b3b714fba03a8268402ac25a3e",
  "bytecode": "0x608060405234801561001057600080fd5b5061204e806100206000396000f3fe608060405234801561001057600080fd5b50600436106101735760003560e01c80636fcfff45116100de5780639ab24eb011610097578063c3cda52011610071578063c3cda52014610365578063d505accf14610378578063dd62ed3e1461038b578063f1127ed8146103c457600080fd5b80639ab24eb01461032c578063a457c2d71461033f578063a9059cbb1461035257600080fd5b80636fcfff451461029a57806370a08231146102c25780637ecebe00146102eb5780638e539e8c146102fe578063906571471461031157806395d89b411461032457600080fd5b80633644e515116101305780633644e5151461021857806339509351146102205780633a46b1a81461023357806340c10f1914610246578063587cde1e1461025b5780635c19a95c1461028757600080fd5b806306fdde03146101785780630754617214610196578063095ea7b3146101c157806318160ddd146101e457806323b872dd146101f6578063313ce56714610209575b600080fd5b610180610401565b60405161018d9190611eca565b60405180910390f35b60fe546101a9906001600160a01b031681565b6040516001600160a01b03909116815260200161018d565b6101d46101cf366004611df4565b610493565b604051901515815260200161018d565b6035545b60405190815260200161018d565b6101d4610204366004611cdf565b6104ad565b6040516012815260200161018d565b6101e86104d1565b6101d461022e366004611df4565b6104e0565b6101e8610241366004611df4565b61051f565b610259610254366004611df4565b610551565b005b6101a9610269366004611c93565b6001600160a01b03908116600090815260cc60205260409020541690565b610259610295366004611c93565b6105ab565b6102ad6102a8366004611c93565b6105b8565b60405163ffffffff909116815260200161018d565b6101e86102d0366004611c93565b6001600160a01b031660009081526033602052604090205490565b6101e86102f9366004611c93565b6105da565b6101e861030c366004611eb2565b6105f8565b61025961031f366004611d83565b610624565b610180610705565b6101e861033a366004611c93565b610714565b6101d461034d366004611df4565b61073e565b6101d4610360366004611df4565b6107d0565b610259610373366004611e1d565b6107de565b610259610386366004611d1a565b610914565b6101e8610399366004611cad565b6001600160a01b03918216600090815260346020908152604080832093909416825291909152205490565b6103d76103d2366004611e74565b610a5a565b60408051825163ffffffff1681526020928301516001600160e01b0316928101929092520161018d565b60606036805461041090611fb7565b80601f016020809104026020016040519081016040528092919081815260200182805461043c90611fb7565b80156104895780601f1061045e57610100808354040283529160200191610489565b820191906000526020600020905b81548152906001019060200180831161046c57829003601f168201915b5050505050905090565b6000336104a1818585610aec565b60019150505b92915050565b6000336104bb858285610c10565b6104c6858585610c9c565b506001949350505050565b60006104db610e70565b905090565b3360008181526034602090815260408083206001600160a01b03871684529091528120549091906104a1908290869061051a908790611f68565b610aec565b60fe546000906001600160a01b0384811691161415610540575060006104a7565b61054a8383610eeb565b9392505050565b60fe546001600160a01b0316331461059d5760405162461bcd60e51b815260206004820152600a6024820152692737ba1036b4b73a32b960b11b60448201526064015b60405180910390fd5b6105a78282610f5e565b5050565b6105b53382610fe8565b50565b6001600160a01b038116600090815260cd60205260408120546104a790611062565b6001600160a01b0381166000908152609960205260408120546104a7565b60fe54600090610611906001600160a01b031683610eeb565b61061a836110cb565b6104a79190611fa0565b600054610100900460ff1661063f5760005460ff1615610643565b303b155b6106a65760405162461bcd60e51b815260206004820152602e60248201527f496e697469616c697a61626c653a20636f6e747261637420697320616c72656160448201526d191e481a5b9a5d1a585b1a5e995960921b6064820152608401610594565b600054610100900460ff161580156106c8576000805461ffff19166101011790555b60fe80546001600160a01b0319166001600160a01b0386161790556106ed8383611127565b80156106ff576000805461ff00191690555b50505050565b60606037805461041090611fb7565b60fe546000906001600160a01b038381169116141561073557506000919050565b6104a782611158565b3360008181526034602090815260408083206001600160a01b0387168452909152812054909190838110156107c35760405162461bcd60e51b815260206004820152602560248201527f45524332303a2064656372656173656420616c6c6f77616e63652062656c6f77604482015264207a65726f60d81b6064820152608401610594565b6104c68286868403610aec565b6000336104a1818585610c9c565b8342111561082e5760405162461bcd60e51b815260206004820152601d60248201527f4552433230566f7465733a207369676e617475726520657870697265640000006044820152606401610594565b604080517fe48329057bfd03d55e49b547132e39cffd9c1820ad7b9d4c5307691425d15adf60208201526001600160a01b0388169181019190915260608101869052608081018590526000906108a8906108a09060a001604051602081830303815290604052805190602001206111ed565b85858561123b565b90506108b381611263565b86146109015760405162461bcd60e51b815260206004820152601960248201527f4552433230566f7465733a20696e76616c6964206e6f6e6365000000000000006044820152606401610594565b61090b8188610fe8565b50505050505050565b834211156109645760405162461bcd60e51b815260206004820152601d60248201527f45524332305065726d69743a206578706972656420646561646c696e650000006044820152606401610594565b6000609a548888886109758c611263565b6040805160208101969096526001600160a01b0394851690860152929091166060840152608083015260a082015260c0810186905260e00160405160208183030381529060405280519060200120905060006109d0826111ed565b905060006109e08287878761123b565b9050896001600160a01b0316816001600160a01b031614610a435760405162461bcd60e51b815260206004820152601e60248201527f45524332305065726d69743a20696e76616c6964207369676e617475726500006044820152606401610594565b610a4e8a8a8a610aec565b50505050505050505050565b60408051808201909152600080825260208201526001600160a01b038316600090815260cd60205260409020805463ffffffff8416908110610aac57634e487b7160e01b600052603260045260246000fd5b60009182526020918290206040805180820190915291015463ffffffff8116825264010000000090046001600160e01b0316918101919091529392505050565b6001600160a01b038316610b4e5760405162461bcd60e51b8152602060048201526024808201527f45524332303a20617070726f76652066726f6d20746865207a65726f206164646044820152637265737360e01b6064820152608401610594565b6001600160a01b038216610baf5760405162461bcd60e51b815260206004820152602260248201527f45524332303a20617070726f766520746f20746865207a65726f206164647265604482015261737360f01b6064820152608401610594565b6001600160a01b0383811660008181526034602090815260408083209487168084529482529182902085905590518481527f8c5be1e5ebec7d5bd14f71427d1e84f3dd0314c0f7b2291e5b200ac8c7c3b925910160405180910390a3505050565b6001600160a01b0383811660009081526034602090815260408083209386168352929052205460001981146106ff5781811015610c8f5760405162461bcd60e51b815260206004820152601d60248201527f45524332303a20696e73756666696369656e7420616c6c6f77616e63650000006044820152606401610594565b6106ff8484848403610aec565b6001600160a01b038316610d005760405162461bcd60e51b815260206004820152602560248201527f45524332303a207472616e736665722066726f6d20746865207a65726f206164604482015264647265737360d81b6064820152608401610594565b6001600160a01b038216610d625760405162461bcd60e51b815260206004820152602360248201527f45524332303a207472616e7366657220746f20746865207a65726f206164647260448201526265737360e81b6064820152608401610594565b6001600160a01b03831660009081526033602052604090205481811015610dda5760405162461bcd60e51b815260206004820152602660248201527f45524332303a207472616e7366657220616d6f756e7420657863656564732062604482015265616c616e636560d01b6064820152608401610594565b6001600160a01b03808516600090815260336020526040808220858503905591851681529081208054849290610e11908490611f68565b92505081905550826001600160a01b0316846001600160a01b03167fddf252ad1be2c89b69c2b068fc378daa952ba7f163c4a11628f55a4df523b3ef84604051610e5d91815260200190565b60405180910390a36106ff848484611290565b60006104db7f8b73c3c69bb8fe3d512ecc4cf759cc79239f7b179b0ffacaa9a75d522b39400f610e9f60655490565b6066546040805160208101859052908101839052606081018290524660808201523060a082015260009060c0016040516020818303038152906040528051906020012090509392505050565b6000438210610f3c5760405162461bcd60e51b815260206004820152601f60248201527f4552433230566f7465733a20626c6f636b206e6f7420796574206d696e6564006044820152606401610594565b6001600160a01b038316600090815260cd6020526040902061054a90836112a5565b610f68828261137e565b6035546001600160e01b031015610fda5760405162461bcd60e51b815260206004820152603060248201527f4552433230566f7465733a20746f74616c20737570706c79207269736b73206f60448201526f766572666c6f77696e6720766f74657360801b6064820152608401610594565b6106ff60ce61146583611471565b6001600160a01b03828116600081815260cc6020818152604080842080546033845282862054949093528787166001600160a01b03198416811790915590519190951694919391928592917f3134e8a2e6d97e929a7e54011ea5485d7d196dd5f0ba4d4ef95803e8e3fc257f9190a46106ff828483611614565b600063ffffffff8211156110c75760405162461bcd60e51b815260206004820152602660248201527f53616665436173743a2076616c756520646f65736e27742066697420696e203360448201526532206269747360d01b6064820152608401610594565b5090565b600043821061111c5760405162461bcd60e51b815260206004820152601f60248201527f4552433230566f7465733a20626c6f636b206e6f7420796574206d696e6564006044820152606401610594565b6104a760ce836112a5565b600054610100900460ff1661114e5760405162461bcd60e51b815260040161059490611f1d565b6105a78282611751565b6001600160a01b038116600090815260cd602052604081205480156111da576001600160a01b038316600090815260cd6020526040902061119a600183611fa0565b815481106111b857634e487b7160e01b600052603260045260246000fd5b60009182526020909120015464010000000090046001600160e01b03166111dd565b60005b6001600160e01b03169392505050565b60006104a76111fa610e70565b8360405161190160f01b6020820152602281018390526042810182905260009060620160405160208183030381529060405280519060200120905092915050565b600080600061124c8787878761179f565b915091506112598161188c565b5095945050505050565b6001600160a01b03811660009081526099602052604090208054600181018255905b50919050565b505050565b61129b838383611a8d565b61128b8283610fe8565b8154600090815b818110156113175760006112c08284611abf565b9050848682815481106112e357634e487b7160e01b600052603260045260246000fd5b60009182526020909120015463ffffffff16111561130357809250611311565b61130e816001611f68565b91505b506112ac565b81156113695784611329600184611fa0565b8154811061134757634e487b7160e01b600052603260045260246000fd5b60009182526020909120015464010000000090046001600160e01b031661136c565b60005b6001600160e01b031695945050505050565b6001600160a01b0382166113d45760405162461bcd60e51b815260206004820152601f60248201527f45524332303a206d696e7420746f20746865207a65726f2061646472657373006044820152606401610594565b80603560008282546113e69190611f68565b90915550506001600160a01b03821660009081526033602052604081208054839290611413908490611f68565b90915550506040518181526001600160a01b038316906000907fddf252ad1be2c89b69c2b068fc378daa952ba7f163c4a11628f55a4df523b3ef9060200160405180910390a36105a760008383611290565b600061054a8284611f68565b8254600090819080156114ca578561148a600183611fa0565b815481106114a857634e487b7160e01b600052603260045260246000fd5b60009182526020909120015464010000000090046001600160e01b03166114cd565b60005b6001600160e01b031692506114e683858763ffffffff16565b915060008111801561153257504386611500600184611fa0565b8154811061151e57634e487b7160e01b600052603260045260246000fd5b60009182526020909120015463ffffffff16145b156115a05761154082611ada565b8661154c600184611fa0565b8154811061156a57634e487b7160e01b600052603260045260246000fd5b9060005260206000200160000160046101000a8154816001600160e01b0302191690836001600160e01b0316021790555061160b565b8560405180604001604052806115b543611062565b63ffffffff1681526020016115c985611ada565b6001600160e01b0390811690915282546001810184556000938452602093849020835194909301519091166401000000000263ffffffff909316929092179101555b50935093915050565b816001600160a01b0316836001600160a01b0316141580156116365750600081115b1561128b576001600160a01b038316156116c4576001600160a01b038316600090815260cd60205260408120819061167190611b4385611471565b91509150846001600160a01b03167fdec2bacdd2f05b59de34da9b523dff8be42e5e38e818c82fdb0bae774387a72483836040516116b9929190918252602082015260400190565b60405180910390a250505b6001600160a01b0382161561128b576001600160a01b038216600090815260cd6020526040812081906116fa9061146585611471565b91509150836001600160a01b03167fdec2bacdd2f05b59de34da9b523dff8be42e5e38e818c82fdb0bae774387a7248383604051611742929190918252602082015260400190565b60405180910390a25050505050565b600054610100900460ff166117785760405162461bcd60e51b815260040161059490611f1d565b815161178b906036906020850190611b4f565b50805161128b906037906020840190611b4f565b6000807f7fffffffffffffffffffffffffffffff5d576e7357a4501ddfe92f46681b20a08311156117d65750600090506003611883565b8460ff16601b141580156117ee57508460ff16601c14155b156117ff5750600090506004611883565b6040805160008082526020820180845289905260ff881692820192909252606081018690526080810185905260019060a0016020604051602081039080840390855afa158015611853573d6000803e3d6000fd5b5050604051601f1901519150506001600160a01b03811661187c57600060019250925050611883565b9150600090505b94509492505050565b60008160048111156118ae57634e487b7160e01b600052602160045260246000fd5b14156118b75750565b60018160048111156118d957634e487b7160e01b600052602160045260246000fd5b14156119275760405162461bcd60e51b815260206004820152601860248201527f45434453413a20696e76616c6964207369676e617475726500000000000000006044820152606401610594565b600281600481111561194957634e487b7160e01b600052602160045260246000fd5b14156119975760405162461bcd60e51b815260206004820152601f60248201527f45434453413a20696e76616c6964207369676e6174757265206c656e677468006044820152606401610594565b60038160048111156119b957634e487b7160e01b600052602160045260246000fd5b1415611a125760405162461bcd60e51b815260206004820152602260248201527f45434453413a20696e76616c6964207369676e6174757265202773272076616c604482015261756560f01b6064820152608401610594565b6004816004811115611a3457634e487b7160e01b600052602160045260246000fd5b14156105b55760405162461bcd60e51b815260206004820152602260248201527f45434453413a20696e76616c6964207369676e6174757265202776272076616c604482015261756560f01b6064820152608401610594565b6001600160a01b03838116600090815260cc602052604080822054858416835291205461128b92918216911683611614565b6000611ace6002848418611f80565b61054a90848416611f68565b60006001600160e01b038211156110c75760405162461bcd60e51b815260206004820152602760248201527f53616665436173743a2076616c756520646f65736e27742066697420696e20326044820152663234206269747360c81b6064820152608401610594565b600061054a8284611fa0565b828054611b5b90611fb7565b90600052602060002090601f016020900481019282611b7d5760008555611bc3565b82601f10611b9657805160ff1916838001178555611bc3565b82800160010185558215611bc3579182015b82811115611bc3578251825591602001919060010190611ba8565b506110c79291505b808211156110c75760008155600101611bcb565b80356001600160a01b0381168114611bf657600080fd5b919050565b600082601f830112611c0b578081fd5b813567ffffffffffffffff80821115611c2657611c26612002565b604051601f8301601f19908116603f01168101908282118183101715611c4e57611c4e612002565b81604052838152866020858801011115611c66578485fd5b8360208701602083013792830160200193909352509392505050565b803560ff81168114611bf657600080fd5b600060208284031215611ca4578081fd5b61054a82611bdf565b60008060408385031215611cbf578081fd5b611cc883611bdf565b9150611cd660208401611bdf565b90509250929050565b600080600060608486031215611cf3578081fd5b611cfc84611bdf565b9250611d0a60208501611bdf565b9150604084013590509250925092565b600080600080600080600060e0888a031215611d34578283fd5b611d3d88611bdf565b9650611d4b60208901611bdf565b95506040880135945060608801359350611d6760808901611c82565b925060a0880135915060c0880135905092959891949750929550565b600080600060608486031215611d97578283fd5b611da084611bdf565b9250602084013567ffffffffffffffff80821115611dbc578384fd5b611dc887838801611bfb565b93506040860135915080821115611ddd578283fd5b50611dea86828701611bfb565b9150509250925092565b60008060408385031215611e06578182fd5b611e0f83611bdf565b946020939093013593505050565b60008060008060008060c08789031215611e35578182fd5b611e3e87611bdf565b95506020870135945060408701359350611e5a60608801611c82565b92506080870135915060a087013590509295509295509295565b60008060408385031215611e86578182fd5b611e8f83611bdf565b9150602083013563ffffffff81168114611ea7578182fd5b809150509250929050565b600060208284031215611ec3578081fd5b5035919050565b6000602080835283518082850152825b81811015611ef657858101830151858201604001528201611eda565b81811115611f075783604083870101525b50601f01601f1916929092016040019392505050565b6020808252602b908201527f496e697469616c697a61626c653a20636f6e7472616374206973206e6f74206960408201526a6e697469616c697a696e6760a81b606082015260800190565b60008219821115611f7b57611f7b611fec565b500190565b600082611f9b57634e487b7160e01b81526012600452602481fd5b500490565b600082821015611fb257611fb2611fec565b500390565b600181811c90821680611fcb57607f821691505b6020821081141561128557634e487b7160e01b600052602260045260246000fd5b634e487b7160e01b600052601160045260246000fd5b634e487b7160e01b600052604160045260246000fdfea2646970667358221220939cb8a748be969a075b6fda71dec2c1c0e0c5daf2cb1a0eccea8910d50c8f9964736f6c63430008040033",
  "devdoc": {
    "kind": "dev",
    "methods": {
      "DOMAIN_SEPARATOR()": {
        "details": "See {IERC20Permit-DOMAIN_SEPARATOR}."
      },
      "allowance(address,address)": {
        "details": "See {IERC20-allowance}."
      },
      "approve(address,uint256)": {
        "details": "See {IERC20-approve}. NOTE: If `amount` is the maximum `uint256`, the allowance is not updated on `transferFrom`. This is semantically equivalent to an infinite approval. Requirements: - `spender` cannot be the zero address."
      },
      "balanceOf(address)": {
        "details": "See {IERC20-balanceOf}."
      },
      "checkpoints(address,uint32)": {
        "details": "Get the `pos`-th checkpoint for `account`."
      },
      "decimals()": {
        "details": "Returns the number of decimals used to get its user representation. For example, if `decimals` equals `2`, a balance of `505` tokens should be displayed to a user as `5.05` (`505 / 10 ** 2`). Tokens usually opt for a value of 18, imitating the relationship between Ether and Wei. This is the value {ERC20} uses, unless this function is overridden; NOTE: This information is only used for _display_ purposes: it in no way affects any of the arithmetic of the contract, including {IERC20-balanceOf} and {IERC20-transfer}."
      },
      "decreaseAllowance(address,uint256)": {
        "details": "Atomically decreases the allowance granted to `spender` by the caller. This is an alternative to {approve} that can be used as a mitigation for problems described in {IERC20-approve}. Emits an {Approval} event indicating the updated allowance. Requirements: - `spender` cannot be the zero address. - `spender` must have allowance for the caller of at least `subtractedValue`."
      },
      "delegate(address)": {
        "details": "Delegate votes from the sender to `delegatee`."
      },
      "delegateBySig(address,uint256,uint256,uint8,bytes32,bytes32)": {
        "details": "Delegates votes from signer to `delegatee`"
      },
      "delegates(address)": {
        "details": "Get the address `account` is currently delegating to."
      },
      "getPastTotalSupply(uint256)": {
        "details": "Retrieve the `totalSupply` at the end of `blockNumber`. Note, this value is the sum of all balances. It is but NOT the sum of all the delegated votes! Requirements: - `blockNumber` must have been already mined"
      },
      "getPastVotes(address,uint256)": {
        "details": "Retrieve the number of votes for `account` at the end of `blockNumber`. Requirements: - `blockNumber` must have been already mined"
      },
      "getVotes(address)": {
        "details": "Gets the current votes balance for `account`"
      },
      "increaseAllowance(address,uint256)": {
        "details": "Atomically increases the allowance granted to `spender` by the caller. This is an alternative to {approve} that can be used as a mitigation for problems described in {IERC20-approve}. Emits an {Approval} event indicating the updated allowance. Requirements: - `spender` cannot be the zero address."
      },
      "name()": {
        "details": "Returns the name of the token."
      },
      "nonces(address)": {
        "details": "See {IERC20Permit-nonces}."
      },
      "numCheckpoints(address)": {
        "details": "Get number of checkpoints for `account`."
      },
      "permit(address,address,uint256,uint256,uint8,bytes32,bytes32)": {
        "details": "See {IERC20Permit-permit}."
      },
      "symbol()": {
        "details": "Returns the symbol of the token, usually a shorter version of the name."
      },
      "totalSupply()": {
        "details": "See {IERC20-totalSupply}."
      },
      "transfer(address,uint256)": {
        "details": "See {IERC20-transfer}. Requirements: - `to` cannot be the zero address. - the caller must have a balance of at least `amount`."
      },
      "transferFrom(address,address,uint256)": {
        "details": "See {IERC20-transferFrom}. Emits an {Approval} event indicating the updated allowance. This is not required by the EIP. See the note at the beginning of {ERC20}. NOTE: Does not update the allowance if the current allowance is the maximum `uint256`. Requirements: - `from` and `to` cannot be the zero address. - `from` must have a balance of at least `amount`. - the caller must have allowance for ``from``'s tokens of at least `amount`."
      }
    },
    "version": 1
  },
  "userdoc": {
    "kind": "user",
    "methods": {},
    "version": 1
  },
  "storageLayout": {
    "storage": [
      {
        "astId": 2736,
        "contract": "contracts/MemberToken.sol:MemberToken",
        "label": "_initialized",
        "offset": 0,
        "slot": "0",
        "type": "t_bool"
      },
      {
        "astId": 2739,
        "contract": "contracts/MemberToken.sol:MemberToken",
        "label": "_initializing",
        "offset": 1,
        "slot": "0",
        "type": "t_bool"
      },
      {
        "astId": 7651,
        "contract": "contracts/MemberToken.sol:MemberToken",
        "label": "__gap",
        "offset": 0,
        "slot": "1",
        "type": "t_array(t_uint256)50_storage"
      },
      {
        "astId": 4379,
        "contract": "contracts/MemberToken.sol:MemberToken",
        "label": "_balances",
        "offset": 0,
        "slot": "51",
        "type": "t_mapping(t_address,t_uint256)"
      },
      {
        "astId": 4385,
        "contract": "contracts/MemberToken.sol:MemberToken",
        "label": "_allowances",
        "offset": 0,
        "slot": "52",
        "type": "t_mapping(t_address,t_mapping(t_address,t_uint256))"
      },
      {
        "astId": 4387,
        "contract": "contracts/MemberToken.sol:MemberToken",
        "label": "_totalSupply",
        "offset": 0,
        "slot": "53",
        "type": "t_uint256"
      },
      {
        "astId": 4389,
        "contract": "contracts/MemberToken.sol:MemberToken",
        "label": "_name",
        "offset": 0,
        "slot": "54",
        "type": "t_string_storage"
      },
      {
        "astId": 4391,
        "contract": "contracts/MemberToken.sol:MemberToken",
        "label": "_symbol",
        "offset": 0,
        "slot": "55",
        "type": "t_string_storage"
      },
      {
        "astId": 4972,
        "contract": "contracts/MemberToken.sol:MemberToken",
        "label": "__gap",
        "offset": 0,
        "slot": "56",
        "type": "t_array(t_uint256)45_storage"
      },
      {
        "astId": 8619,
        "contract": "contracts/MemberToken.sol:MemberToken",
        "label": "_HASHED_NAME",
        "offset": 0,
        "slot": "101",
        "type": "t_bytes32"
      },
      {
        "astId": 8621,
        "contract": "contracts/MemberToken.sol:MemberToken",
        "label": "_HASHED_VERSION",
        "offset": 0,
        "slot": "102",
        "type": "t_bytes32"
      },
      {
        "astId": 8759,
        "contract": "contracts/MemberToken.sol:MemberToken",
        "label": "__gap",
        "offset": 0,
        "slot": "103",
        "type": "t_array(t_uint256)50_storage"
      },
      {
        "astId": 5759,
        "contract": "contracts/MemberToken.sol:MemberToken",
        "label": "_nonces",
        "offset": 0,
        "slot": "153",
        "type": "t_mapping(t_address,t_struct(Counter)7658_storage)"
      },
      {
        "astId": 5761,
        "contract": "contracts/MemberToken.sol:MemberToken",
        "label": "_PERMIT_TYPEHASH",
        "offset": 0,
        "slot": "154",
        "type": "t_bytes32"
      },
      {
        "astId": 5927,
        "contract": "contracts/MemberToken.sol:MemberToken",
        "label": "__gap",
        "offset": 0,
        "slot": "155",
        "type": "t_array(t_uint256)49_storage"
      },
      {
        "astId": 5092,
        "contract": "contracts/MemberToken.sol:MemberToken",
        "label": "_delegates",
        "offset": 0,
        "slot": "204",
        "type": "t_mapping(t_address,t_address)"
      },
      {
        "astId": 5098,
        "contract": "contracts/MemberToken.sol:MemberToken",
        "label": "_checkpoints",
        "offset": 0,
        "slot": "205",
        "type": "t_mapping(t_address,t_array(t_struct(Checkpoint)5083_storage)dyn_storage)"
      },
      {
        "astId": 5102,
        "contract": "contracts/MemberToken.sol:MemberToken",
        "label": "_totalSupplyCheckpoints",
        "offset": 0,
        "slot": "206",
        "type": "t_array(t_struct(Checkpoint)5083_storage)dyn_storage"
      },
      {
        "astId": 5707,
        "contract": "contracts/MemberToken.sol:MemberToken",
        "label": "__gap",
        "offset": 0,
        "slot": "207",
        "type": "t_array(t_uint256)47_storage"
      },
      {
        "astId": 19180,
        "contract": "contracts/MemberToken.sol:MemberToken",
        "label": "minter",
        "offset": 0,
        "slot": "254",
        "type": "t_address"
      }
    ],
    "types": {
      "t_address": {
        "encoding": "inplace",
        "label": "address",
        "numberOfBytes": "20"
      },
      "t_array(t_struct(Checkpoint)5083_storage)dyn_storage": {
        "base": "t_struct(Checkpoint)5083_storage",
        "encoding": "dynamic_array",
        "label": "struct ERC20VotesUpgradeable.Checkpoint[]",
        "numberOfBytes": "32"
      },
      "t_array(t_uint256)45_storage": {
        "base": "t_uint256",
        "encoding": "inplace",
        "label": "uint256[45]",
        "numberOfBytes": "1440"
      },
      "t_array(t_uint256)47_storage": {
        "base": "t_uint256",
        "encoding": "inplace",
        "label": "uint256[47]",
        "numberOfBytes": "1504"
      },
      "t_array(t_uint256)49_storage": {
        "base": "t_uint256",
        "encoding": "inplace",
        "label": "uint256[49]",
        "numberOfBytes": "1568"
      },
      "t_array(t_uint256)50_storage": {
        "base": "t_uint256",
        "encoding": "inplace",
        "label": "uint256[50]",
        "numberOfBytes": "1600"
      },
      "t_bool": {
        "encoding": "inplace",
        "label": "bool",
        "numberOfBytes": "1"
      },
      "t_bytes32": {
        "encoding": "inplace",
        "label": "bytes32",
        "numberOfBytes": "32"
      },
      "t_mapping(t_address,t_address)": {
        "encoding": "mapping",
        "key": "t_address",
        "label": "mapping(address => address)",
        "numberOfBytes": "32",
        "value": "t_address"
      },
      "t_mapping(t_address,t_array(t_struct(Checkpoint)5083_storage)dyn_storage)": {
        "encoding": "mapping",
        "key": "t_address",
        "label": "mapping(address => struct ERC20VotesUpgradeable.Checkpoint[])",
        "numberOfBytes": "32",
        "value": "t_array(t_struct(Checkpoint)5083_storage)dyn_storage"
      },
      "t_mapping(t_address,t_mapping(t_address,t_uint256))": {
        "encoding": "mapping",
        "key": "t_address",
        "label": "mapping(address => mapping(address => uint256))",
        "numberOfBytes": "32",
        "value": "t_mapping(t_address,t_uint256)"
      },
      "t_mapping(t_address,t_struct(Counter)7658_storage)": {
        "encoding": "mapping",
        "key": "t_address",
        "label": "mapping(address => struct CountersUpgradeable.Counter)",
        "numberOfBytes": "32",
        "value": "t_struct(Counter)7658_storage"
      },
      "t_mapping(t_address,t_uint256)": {
        "encoding": "mapping",
        "key": "t_address",
        "label": "mapping(address => uint256)",
        "numberOfBytes": "32",
        "value": "t_uint256"
      },
      "t_string_storage": {
        "encoding": "bytes",
        "label": "string",
        "numberOfBytes": "32"
      },
      "t_struct(Checkpoint)5083_storage": {
        "encoding": "inplace",
        "label": "struct ERC20VotesUpgradeable.Checkpoint",
        "members": [
          {
            "astId": 5080,
            "contract": "contracts/MemberToken.sol:MemberToken",
            "label": "fromBlock",
            "offset": 0,
            "slot": "0",
            "type": "t_uint32"
          },
          {
            "astId": 5082,
            "contract": "contracts/MemberToken.sol:MemberToken",
            "label": "votes",
            "offset": 4,
            "slot": "0",
            "type": "t_uint224"
          }
        ],
        "numberOfBytes": "32"
      },
      "t_struct(Counter)7658_storage": {
        "encoding": "inplace",
        "label": "struct CountersUpgradeable.Counter",
        "members": [
          {
            "astId": 7657,
            "contract": "contracts/MemberToken.sol:MemberToken",
            "label": "_value",
            "offset": 0,
            "slot": "0",
            "type": "t_uint256"
          }
        ],
        "numberOfBytes": "32"
      },
      "t_uint224": {
        "encoding": "inplace",
        "label": "uint224",
        "numberOfBytes": "28"
      },
      "t_uint256": {
        "encoding": "inplace",
        "label": "uint256",
        "numberOfBytes": "32"
      },
      "t_uint32": {
        "encoding": "inplace",
        "label": "uint32",
        "numberOfBytes": "4"
      }
    }
  }
}