{
  "address": "0x3F50cf7f0b417063a7775bAf29D7E8c4f558D1Cd",
  "abi": [
    {
      "anonymous": false,
      "inputs": [
        {
          "indexed": false,
          "internalType": "address",
          "name": "previousAdmin",
          "type": "address"
        },
        {
          "indexed": false,
          "internalType": "address",
          "name": "newAdmin",
          "type": "address"
        }
      ],
      "name": "AdminChanged",
      "type": "event"
    },
    {
      "anonymous": false,
      "inputs": [
        {
          "indexed": false,
          "internalType": "address",
          "name": "token",
          "type": "address"
        }
      ],
      "name": "AllowDepositToken",
      "type": "event"
    },
    {
      "anonymous": false,
      "inputs": [
        {
          "indexed": true,
          "internalType": "address",
          "name": "owner",
          "type": "address"
        },
        {
          "indexed": true,
          "internalType": "address",
          "name": "spender",
          "type": "address"
        },
        {
          "indexed": false,
          "internalType": "uint256",
          "name": "value",
          "type": "uint256"
        }
      ],
      "name": "Approval",
      "type": "event"
    },
    {
      "anonymous": false,
      "inputs": [
        {
          "indexed": true,
          "internalType": "address",
          "name": "beacon",
          "type": "address"
        }
      ],
      "name": "BeaconUpgraded",
      "type": "event"
    },
    {
      "anonymous": false,
      "inputs": [
        {
          "indexed": false,
          "internalType": "address",
          "name": "budgetApproval",
          "type": "address"
        },
        {
          "indexed": false,
          "internalType": "bytes",
          "name": "data",
          "type": "bytes"
        }
      ],
      "name": "CreateBudgetApproval",
      "type": "event"
    },
    {
      "anonymous": false,
      "inputs": [
        {
          "indexed": true,
          "internalType": "address",
          "name": "from",
          "type": "address"
        },
        {
          "indexed": true,
          "internalType": "address",
          "name": "to",
          "type": "address"
        },
        {
          "indexed": false,
          "internalType": "uint256",
          "name": "value",
          "type": "uint256"
        }
      ],
      "name": "Transfer",
      "type": "event"
    },
    {
      "anonymous": false,
      "inputs": [
        {
          "indexed": true,
          "internalType": "address",
          "name": "implementation",
          "type": "address"
        }
      ],
      "name": "Upgraded",
      "type": "event"
    },
    {
      "inputs": [
        {
          "internalType": "address",
          "name": "owner",
          "type": "address"
        },
        {
          "internalType": "address",
          "name": "spender",
          "type": "address"
        }
      ],
      "name": "allowance",
      "outputs": [
        {
          "internalType": "uint256",
          "name": "",
          "type": "uint256"
        }
      ],
      "stateMutability": "view",
      "type": "function"
    },
    {
      "inputs": [
        {
          "internalType": "address",
          "name": "spender",
          "type": "address"
        },
        {
          "internalType": "uint256",
          "name": "amount",
          "type": "uint256"
        }
      ],
      "name": "approve",
      "outputs": [
        {
          "internalType": "bool",
          "name": "",
          "type": "bool"
        }
      ],
      "stateMutability": "nonpayable",
      "type": "function"
    },
    {
      "inputs": [
        {
          "internalType": "address",
          "name": "asset",
          "type": "address"
        },
        {
          "internalType": "uint256",
          "name": "amount",
          "type": "uint256"
        }
      ],
      "name": "assetsShares",
      "outputs": [
        {
          "internalType": "uint256",
          "name": "",
          "type": "uint256"
        }
      ],
      "stateMutability": "view",
      "type": "function"
    },
    {
      "inputs": [
        {
          "internalType": "address",
          "name": "account",
          "type": "address"
        }
      ],
      "name": "balanceOf",
      "outputs": [
        {
          "internalType": "uint256",
          "name": "",
          "type": "uint256"
        }
      ],
      "stateMutability": "view",
      "type": "function"
    },
    {
      "inputs": [
        {
          "internalType": "address",
          "name": "",
          "type": "address"
        }
      ],
      "name": "budgetApprovals",
      "outputs": [
        {
          "internalType": "bool",
          "name": "",
          "type": "bool"
        }
      ],
      "stateMutability": "view",
      "type": "function"
    },
    {
      "inputs": [
        {
          "internalType": "address[]",
          "name": "_budgetApprovals",
          "type": "address[]"
        },
        {
          "internalType": "bytes[]",
          "name": "data",
          "type": "bytes[]"
        }
      ],
      "name": "createBudgetApprovals",
      "outputs": [],
      "stateMutability": "nonpayable",
      "type": "function"
    },
    {
      "inputs": [],
      "name": "decimals",
      "outputs": [
        {
          "internalType": "uint8",
          "name": "",
          "type": "uint8"
        }
      ],
      "stateMutability": "view",
      "type": "function"
    },
    {
      "inputs": [
        {
          "internalType": "address",
          "name": "spender",
          "type": "address"
        },
        {
          "internalType": "uint256",
          "name": "subtractedValue",
          "type": "uint256"
        }
      ],
      "name": "decreaseAllowance",
      "outputs": [
        {
          "internalType": "bool",
          "name": "",
          "type": "bool"
        }
      ],
      "stateMutability": "nonpayable",
      "type": "function"
    },
    {
      "inputs": [],
      "name": "depositDeadline",
      "outputs": [
        {
          "internalType": "uint256",
          "name": "",
          "type": "uint256"
        }
      ],
      "stateMutability": "view",
      "type": "function"
    },
    {
      "inputs": [],
      "name": "depositPool",
      "outputs": [
        {
          "internalType": "contract IDepositPool",
          "name": "",
          "type": "address"
        }
      ],
      "stateMutability": "view",
      "type": "function"
    },
    {
      "inputs": [],
      "name": "depositThreshold",
      "outputs": [
        {
          "internalType": "uint256",
          "name": "",
          "type": "uint256"
        }
      ],
      "stateMutability": "view",
      "type": "function"
    },
    {
      "inputs": [],
      "name": "depositToken",
      "outputs": [
        {
          "internalType": "address",
          "name": "",
          "type": "address"
        }
      ],
      "stateMutability": "view",
      "type": "function"
    },
    {
      "inputs": [
        {
          "internalType": "uint256",
          "name": "amount",
          "type": "uint256"
        }
      ],
      "name": "ethShares",
      "outputs": [
        {
          "internalType": "uint256",
          "name": "",
          "type": "uint256"
        }
      ],
      "stateMutability": "view",
      "type": "function"
    },
    {
      "inputs": [
        {
          "internalType": "address",
          "name": "_to",
          "type": "address"
        },
        {
          "internalType": "bytes",
          "name": "_data",
          "type": "bytes"
        },
        {
          "internalType": "uint256",
          "name": "_value",
          "type": "uint256"
        }
      ],
      "name": "executeByBudgetApproval",
      "outputs": [
        {
          "internalType": "bytes",
          "name": "",
          "type": "bytes"
        }
      ],
      "stateMutability": "nonpayable",
      "type": "function"
    },
    {
      "inputs": [
        {
          "internalType": "address",
          "name": "spender",
          "type": "address"
        },
        {
          "internalType": "uint256",
          "name": "addedValue",
          "type": "uint256"
        }
      ],
      "name": "increaseAllowance",
      "outputs": [
        {
          "internalType": "bool",
          "name": "",
          "type": "bool"
        }
      ],
      "stateMutability": "nonpayable",
      "type": "function"
    },
    {
      "inputs": [
        {
          "internalType": "address",
          "name": "_depositPool",
          "type": "address"
        },
        {
          "internalType": "address",
          "name": "_depositToken",
          "type": "address"
        },
        {
          "internalType": "uint256",
          "name": "_depositThreshold",
          "type": "uint256"
        },
        {
          "internalType": "uint256",
          "name": "_depositDeadline",
          "type": "uint256"
        },
        {
          "internalType": "address[]",
          "name": "_redeemTokens",
          "type": "address[]"
        },
        {
          "internalType": "uint256",
          "name": "_redeemTime",
          "type": "uint256"
        },
        {
          "internalType": "address[]",
          "name": "_budgetApprovals",
          "type": "address[]"
        },
        {
          "internalType": "bytes[]",
          "name": "_budgetApprovalsData",
          "type": "bytes[]"
        },
        {
          "internalType": "address",
          "name": "_team",
          "type": "address"
        }
      ],
      "name": "initialize",
      "outputs": [],
      "stateMutability": "nonpayable",
      "type": "function"
    },
    {
      "inputs": [
        {
          "internalType": "address",
          "name": "",
          "type": "address"
        }
      ],
      "name": "isRedeemTokens",
      "outputs": [
        {
          "internalType": "bool",
          "name": "",
          "type": "bool"
        }
      ],
      "stateMutability": "view",
      "type": "function"
    },
    {
      "inputs": [
        {
          "internalType": "uint256",
          "name": "amount",
          "type": "uint256"
        }
      ],
      "name": "join",
      "outputs": [],
      "stateMutability": "nonpayable",
      "type": "function"
    },
    {
      "inputs": [],
      "name": "name",
      "outputs": [
        {
          "internalType": "string",
          "name": "",
          "type": "string"
        }
      ],
      "stateMutability": "view",
      "type": "function"
    },
    {
      "inputs": [
        {
          "internalType": "address",
          "name": "",
          "type": "address"
        },
        {
          "internalType": "address",
          "name": "",
          "type": "address"
        },
        {
          "internalType": "uint256[]",
          "name": "",
          "type": "uint256[]"
        },
        {
          "internalType": "uint256[]",
          "name": "",
          "type": "uint256[]"
        },
        {
          "internalType": "bytes",
          "name": "",
          "type": "bytes"
        }
      ],
      "name": "onERC1155BatchReceived",
      "outputs": [
        {
          "internalType": "bytes4",
          "name": "",
          "type": "bytes4"
        }
      ],
      "stateMutability": "nonpayable",
      "type": "function"
    },
    {
      "inputs": [
        {
          "internalType": "address",
          "name": "",
          "type": "address"
        },
        {
          "internalType": "address",
          "name": "",
          "type": "address"
        },
        {
          "internalType": "uint256",
          "name": "",
          "type": "uint256"
        },
        {
          "internalType": "uint256",
          "name": "",
          "type": "uint256"
        },
        {
          "internalType": "bytes",
          "name": "",
          "type": "bytes"
        }
      ],
      "name": "onERC1155Received",
      "outputs": [
        {
          "internalType": "bytes4",
          "name": "",
          "type": "bytes4"
        }
      ],
      "stateMutability": "nonpayable",
      "type": "function"
    },
    {
      "inputs": [
        {
          "internalType": "address",
          "name": "",
          "type": "address"
        },
        {
          "internalType": "address",
          "name": "",
          "type": "address"
        },
        {
          "internalType": "uint256",
          "name": "",
          "type": "uint256"
        },
        {
          "internalType": "bytes",
          "name": "",
          "type": "bytes"
        }
      ],
      "name": "onERC721Received",
      "outputs": [
        {
          "internalType": "bytes4",
          "name": "",
          "type": "bytes4"
        }
      ],
      "stateMutability": "nonpayable",
      "type": "function"
    },
    {
      "inputs": [],
      "name": "proxiableUUID",
      "outputs": [
        {
          "internalType": "bytes32",
          "name": "",
          "type": "bytes32"
        }
      ],
      "stateMutability": "view",
      "type": "function"
    },
    {
      "inputs": [],
      "name": "recevied",
      "outputs": [
        {
          "internalType": "uint256",
          "name": "",
          "type": "uint256"
        }
      ],
      "stateMutability": "view",
      "type": "function"
    },
    {
      "inputs": [
        {
          "internalType": "address[]",
          "name": "accounts",
          "type": "address[]"
        }
      ],
      "name": "redeem",
      "outputs": [],
      "stateMutability": "nonpayable",
      "type": "function"
    },
    {
      "inputs": [],
      "name": "redeemTime",
      "outputs": [
        {
          "internalType": "uint256",
          "name": "",
          "type": "uint256"
        }
      ],
      "stateMutability": "view",
      "type": "function"
    },
    {
      "inputs": [
        {
          "internalType": "uint256",
          "name": "",
          "type": "uint256"
        }
      ],
      "name": "redeemTokens",
      "outputs": [
        {
          "internalType": "address",
          "name": "",
          "type": "address"
        }
      ],
      "stateMutability": "view",
      "type": "function"
    },
    {
      "inputs": [
        {
          "internalType": "address[]",
          "name": "accounts",
          "type": "address[]"
        }
      ],
      "name": "refund",
      "outputs": [],
      "stateMutability": "nonpayable",
      "type": "function"
    },
    {
      "inputs": [
        {
          "internalType": "bytes4",
          "name": "interfaceId",
          "type": "bytes4"
        }
      ],
      "name": "supportsInterface",
      "outputs": [
        {
          "internalType": "bool",
          "name": "",
          "type": "bool"
        }
      ],
      "stateMutability": "view",
      "type": "function"
    },
    {
      "inputs": [],
      "name": "symbol",
      "outputs": [
        {
          "internalType": "string",
          "name": "",
          "type": "string"
        }
      ],
      "stateMutability": "view",
      "type": "function"
    },
    {
      "inputs": [],
      "name": "team",
      "outputs": [
        {
          "internalType": "address",
          "name": "",
          "type": "address"
        }
      ],
      "stateMutability": "view",
      "type": "function"
    },
    {
      "inputs": [],
      "name": "totalSupply",
      "outputs": [
        {
          "internalType": "uint256",
          "name": "",
          "type": "uint256"
        }
      ],
      "stateMutability": "view",
      "type": "function"
    },
    {
      "inputs": [
        {
          "internalType": "address",
          "name": "to",
          "type": "address"
        },
        {
          "internalType": "uint256",
          "name": "amount",
          "type": "uint256"
        }
      ],
      "name": "transfer",
      "outputs": [
        {
          "internalType": "bool",
          "name": "",
          "type": "bool"
        }
      ],
      "stateMutability": "nonpayable",
      "type": "function"
    },
    {
      "inputs": [
        {
          "internalType": "address",
          "name": "erc20",
          "type": "address"
        },
        {
          "internalType": "address",
          "name": "recipient",
          "type": "address"
        },
        {
          "internalType": "uint256",
          "name": "amount",
          "type": "uint256"
        }
      ],
      "name": "transferERC20",
      "outputs": [],
      "stateMutability": "nonpayable",
      "type": "function"
    },
    {
      "inputs": [
        {
          "internalType": "address",
          "name": "erc721",
          "type": "address"
        },
        {
          "internalType": "address",
          "name": "recipient",
          "type": "address"
        },
        {
          "internalType": "uint256",
          "name": "id",
          "type": "uint256"
        }
      ],
      "name": "transferERC721",
      "outputs": [],
      "stateMutability": "nonpayable",
      "type": "function"
    },
    {
      "inputs": [
        {
          "internalType": "address",
          "name": "from",
          "type": "address"
        },
        {
          "internalType": "address",
          "name": "to",
          "type": "address"
        },
        {
          "internalType": "uint256",
          "name": "amount",
          "type": "uint256"
        }
      ],
      "name": "transferFrom",
      "outputs": [
        {
          "internalType": "bool",
          "name": "",
          "type": "bool"
        }
      ],
      "stateMutability": "nonpayable",
      "type": "function"
    },
    {
      "inputs": [
        {
          "internalType": "address",
          "name": "newImplementation",
          "type": "address"
        }
      ],
      "name": "upgradeTo",
      "outputs": [],
      "stateMutability": "nonpayable",
      "type": "function"
    },
    {
      "inputs": [
        {
          "internalType": "address",
          "name": "newImplementation",
          "type": "address"
        },
        {
          "internalType": "bytes",
          "name": "data",
          "type": "bytes"
        }
      ],
      "name": "upgradeToAndCall",
      "outputs": [],
      "stateMutability": "payable",
      "type": "function"
    },
    {
      "stateMutability": "payable",
      "type": "receive"
    }
  ],
  "transactionHash": "0xdac997fea0ec861694a3493a05e9406c48be455e5bae05b6b9036373491aeae9",
  "args": [],
  "numDeployments": 1,
  "solcInputHash": "da7809b3b714fba03a8268402ac25a3e",
  "bytecode": "0x60a06040523060601b60805234801561001757600080fd5b5060805160601c613fc661005260003960008181610cf001528181610d3301528181610e1401528181610e570152610ee80152613fc66000f3fe608060405260043610620002575760003560e01c806385f2aef2116200013b578063a9059cbb11620000b9578063dd62ed3e1162000078578063dd62ed3e1462000754578063df79812e146200079e578063e02cec5114620007c3578063f23a6e6114620007e8578063ff7121a2146200081857600080fd5b8063a9059cbb146200069e578063bc197c8114620006c3578063c554930714620006f3578063c89039c5146200070c578063d3abc28b146200072f57600080fd5b80639a39f9f011620001065780639a39f9f014620005c65780639db5dbe414620005fb578063a240663e1462000620578063a457c2d71462000654578063a6e158f8146200067957600080fd5b806385f2aef214620005425780638730b20514620005645780638d0950df146200058957806395d89b4114620005ae57600080fd5b80632a34370911620001d55780634f1ef28611620001945780634f1ef28614620004a757806352d1902d14620004be57806361603d8914620004d657806370a0823114620004ef578063734daaa1146200052957600080fd5b80632a34370914620003de57806330c88fd7146200041a578063313ce567146200043f5780633659cfe6146200045d57806339509351146200048257600080fd5b8063150b7a021162000222578063150b7a02146200031157806318160ddd146200035a5780631aca6376146200037b57806323b872dd14620003a05780632584c88914620003c557600080fd5b806301ffc9a71462000264578063049878f3146200029e57806306fdde0314620002c5578063095ea7b314620002ec57600080fd5b366200025f57005b600080fd5b3480156200027157600080fd5b50620002896200028336600462003364565b6200083d565b60405190151581526020015b60405180910390f35b348015620002ab57600080fd5b50620002c3620002bd36600462003400565b62000875565b005b348015620002d257600080fd5b50620002dd62000a42565b604051620002959190620034fe565b348015620002f957600080fd5b50620002896200030b3660046200322c565b62000adc565b3480156200031e57600080fd5b50620003406200033036600462002fc7565b630a85bd0160e11b949350505050565b6040516001600160e01b0319909116815260200162000295565b3480156200036757600080fd5b506099545b60405190815260200162000295565b3480156200038857600080fd5b50620002c36200039a36600462002f87565b62000af6565b348015620003ad57600080fd5b5062000289620003bf36600462002f87565b62000b65565b348015620003d257600080fd5b506200036c61019a5481565b348015620003eb57600080fd5b506101935462000401906001600160a01b031681565b6040516001600160a01b03909116815260200162000295565b3480156200042757600080fd5b506200036c620004393660046200322c565b62000b8f565b3480156200044c57600080fd5b506040516012815260200162000295565b3480156200046a57600080fd5b50620002c36200047c36600462002e80565b62000ce5565b3480156200048f57600080fd5b5062000289620004a13660046200322c565b62000dc6565b620002c3620004b836600462003181565b62000e09565b348015620004cb57600080fd5b506200036c62000edb565b348015620004e357600080fd5b506200036c6101995481565b348015620004fc57600080fd5b506200036c6200050e36600462002e80565b6001600160a01b031660009081526097602052604090205490565b3480156200053657600080fd5b506200036c6101975481565b3480156200054f57600080fd5b5060c95462000401906001600160a01b031681565b3480156200057157600080fd5b50620002c36200058336600462003258565b62000f91565b3480156200059657600080fd5b50620002c3620005a836600462003034565b62001301565b348015620005bb57600080fd5b50620002dd62001798565b348015620005d357600080fd5b5062000289620005e536600462002e80565b6101966020526000908152604090205460ff1681565b3480156200060857600080fd5b50620002c36200061a36600462002f87565b620017a9565b3480156200062d57600080fd5b50620002896200063f36600462002e80565b60ca6020526000908152604090205460ff1681565b3480156200066157600080fd5b5062000289620006733660046200322c565b62001835565b3480156200068657600080fd5b50620004016200069836600462003400565b620018d6565b348015620006ab57600080fd5b5062000289620006bd3660046200322c565b62001902565b348015620006d057600080fd5b5062000340620006e236600462002ed4565b63bc197c8160e01b95945050505050565b3480156200070057600080fd5b506200036c6101985481565b3480156200071957600080fd5b506101945462000401906001600160a01b031681565b3480156200073c57600080fd5b50620002dd6200074e366004620031d2565b62001912565b3480156200076157600080fd5b506200036c6200077336600462002e9d565b6001600160a01b03918216600090815260986020908152604080832093909416825291909152205490565b348015620007ab57600080fd5b50620002c3620007bd366004620032cc565b62001a5f565b348015620007d057600080fd5b50620002c3620007e236600462003258565b62001c6d565b348015620007f557600080fd5b50620003406200080736600462003117565b63f23a6e6160e01b95945050505050565b3480156200082557600080fd5b506200036c6200083736600462003400565b62001d27565b60006001600160e01b03198216630271189760e51b14806200086f57506301ffc9a760e01b6001600160e01b03198316145b92915050565b610199544210620008c65760405162461bcd60e51b815260206004820152601660248201527519195c1bdcda5d111958591b1a5b99481c185cdcd95960521b60448201526064015b60405180910390fd5b6101935461019454604051636ca7f41960e11b81526001600160a01b03918216600482015291169063f242432a9033903090849063d94fe8329060240160206040518083038186803b1580156200091c57600080fd5b505afa15801562000931573d6000803e3d6000fd5b505050506040513d601f19601f820116820180604052508101906200095791906200334b565b856040518563ffffffff1660e01b815260040162000979949392919062003498565b600060405180830381600087803b1580156200099457600080fd5b505af1158015620009a9573d6000803e3d6000fd5b5050610193546101945460405163f3fef3a360e01b81526001600160a01b039182166004820152602481018690529116925063f3fef3a39150604401600060405180830381600087803b15801562000a0057600080fd5b505af115801562000a15573d6000803e3d6000fd5b5050505062000a25338262001da0565b80610198600082825462000a3a919062003679565b909155505050565b6060609a805462000a539062003720565b80601f016020809104026020016040519081016040528092919081815260200182805462000a819062003720565b801562000ad25780601f1062000aa65761010080835404028352916020019162000ad2565b820191906000526020600020905b81548152906001019060200180831162000ab457829003601f168201915b5050505050905090565b60003362000aec81858562001e85565b5060019392505050565b604051632142170760e11b81523060048201526001600160a01b038381166024830152604482018390528416906342842e0e90606401600060405180830381600087803b15801562000b4757600080fd5b505af115801562000b5c573d6000803e3d6000fd5b50505050505050565b60003362000b7585828562001fad565b62000b828585856200203e565b60019150505b9392505050565b600062000b9b60995490565b82111562000bdd5760405162461bcd60e51b815260206004820152600e60248201526d677420746f74616c537570706c7960901b6044820152606401620008bd565b6001600160a01b0383166000908152610196602052604090205460ff1662000c3c5760405162461bcd60e51b8152602060048201526011602482015270105cdcd95d081b9bdd081cdd5c1c1bdc9d607a1b6044820152606401620008bd565b60995462000c4d575060006200086f565b6099546040516370a0823160e01b815230600482015283906001600160a01b038616906370a082319060240160206040518083038186803b15801562000c9257600080fd5b505afa15801562000ca7573d6000803e3d6000fd5b505050506040513d601f19601f8201168201806040525081019062000ccd91906200334b565b62000cd99190620036b5565b62000b88919062003694565b306001600160a01b037f000000000000000000000000000000000000000000000000000000000000000016141562000d315760405162461bcd60e51b8152600401620008bd9062003513565b7f00000000000000000000000000000000000000000000000000000000000000006001600160a01b031662000d7c60008051602062003f4a833981519152546001600160a01b031690565b6001600160a01b03161462000da55760405162461bcd60e51b8152600401620008bd906200355f565b6040805160008082526020820190925262000dc39183919062002216565b50565b3360008181526098602090815260408083206001600160a01b038716845290915281205490919062000aec908290869062000e0390879062003679565b62001e85565b306001600160a01b037f000000000000000000000000000000000000000000000000000000000000000016141562000e555760405162461bcd60e51b8152600401620008bd9062003513565b7f00000000000000000000000000000000000000000000000000000000000000006001600160a01b031662000ea060008051602062003f4a833981519152546001600160a01b031690565b6001600160a01b03161462000ec95760405162461bcd60e51b8152600401620008bd906200355f565b62000ed78282600162002216565b5050565b6000306001600160a01b037f0000000000000000000000000000000000000000000000000000000000000000161462000f7d5760405162461bcd60e51b815260206004820152603860248201527f555550535570677261646561626c653a206d757374206e6f742062652063616c60448201527f6c6564207468726f7567682064656c656761746563616c6c00000000000000006064820152608401620008bd565b5060008051602062003f4a83398151915290565b61019a5442101562000fdb5760405162461bcd60e51b8152602060048201526012602482015271696e76616c69642072656465656d54696d6560701b6044820152606401620008bd565b60005b81811015620012fc576000620010258484848181106200100e57634e487b7160e01b600052603260045260246000fd5b90506020020160208101906200050e919062002e80565b905060005b61019554811015620012a257600061019582815481106200105b57634e487b7160e01b600052603260045260246000fd5b6000918252602090912001546001600160a01b031673eeeeeeeeeeeeeeeeeeeeeeeeeeeeeeeeeeeeeeee14156200109f57620010978362001d27565b9050620010e5565b620010e26101958381548110620010c657634e487b7160e01b600052603260045260246000fd5b6000918252602090912001546001600160a01b03168462000b8f565b90505b6200112861019583815481106200110c57634e487b7160e01b600052603260045260246000fd5b6000918252602090912001546001600160a01b0316826200239e565b610193546001600160a01b031663f242432a308888888181106200115c57634e487b7160e01b600052603260045260246000fd5b905060200201602081019062001173919062002e80565b6101935461019580546001600160a01b039092169163d94fe832919089908110620011ae57634e487b7160e01b600052603260045260246000fd5b60009182526020909120015460405160e083901b6001600160e01b03191681526001600160a01b03909116600482015260240160206040518083038186803b158015620011fa57600080fd5b505afa1580156200120f573d6000803e3d6000fd5b505050506040513d601f19601f820116820180604052508101906200123591906200334b565b856040518563ffffffff1660e01b815260040162001257949392919062003498565b600060405180830381600087803b1580156200127257600080fd5b505af115801562001287573d6000803e3d6000fd5b5050505050808062001299906200375d565b9150506200102a565b50620012e6848484818110620012c857634e487b7160e01b600052603260045260246000fd5b9050602002016020810190620012df919062002e80565b826200250f565b5080620012f3816200375d565b91505062000fde565b505050565b600054610100900460ff166200131e5760005460ff161562001322565b303b155b620013875760405162461bcd60e51b815260206004820152602e60248201527f496e697469616c697a61626c653a20636f6e747261637420697320616c72656160448201526d191e481a5b9a5d1a585b1a5e995960921b6064820152608401620008bd565b600054610100900460ff16158015620013aa576000805461ffff19166101011790555b620013f16040518060400160405280600981526020016813dc1d125b941bdbdb60ba1b8152506040518060400160405280600281526020016104f560f41b81525062002663565b61019380546001600160a01b038c81166001600160a01b0319928316811790935561019480548d831690841681179091556101978c90556101998b905561019a89905560c980549287169290931691909117909155604051636ca7f41960e11b8152600481019190915263d94fe8329060240160206040518083038186803b1580156200147d57600080fd5b505afa15801562001492573d6000803e3d6000fd5b505050506040513d601f19601f82011682018060405250810190620014b891906200334b565b620014fc5760405162461bcd60e51b8152602060048201526013602482015272151bdad95b881b9bdd081cdd5c1c1bdc9d1959606a1b6044820152606401620008bd565b60005b86518110156200176c576101935487516001600160a01b039091169063d94fe832908990849081106200154257634e487b7160e01b600052603260045260246000fd5b60200260200101516040518263ffffffff1660e01b81526004016200157691906001600160a01b0391909116815260200190565b60206040518083038186803b1580156200158f57600080fd5b505afa158015620015a4573d6000803e3d6000fd5b505050506040513d601f19601f82011682018060405250810190620015ca91906200334b565b6200160e5760405162461bcd60e51b8152602060048201526013602482015272151bdad95b881b9bdd081cdd5c1c1bdc9d1959606a1b6044820152606401620008bd565b61019660008883815181106200163457634e487b7160e01b600052603260045260246000fd5b6020908102919091018101516001600160a01b031682528101919091526040016000205460ff16156200169d5760405162461bcd60e51b815260206004820152601060248201526f151bdad95b88191d5c1b1a58d85d195960821b6044820152606401620008bd565b610195878281518110620016c157634e487b7160e01b600052603260045260246000fd5b60209081029190910181015182546001808201855560009485529284200180546001600160a01b0319166001600160a01b0390921691909117905588519091610196918a90859081106200172557634e487b7160e01b600052603260045260246000fd5b6020908102919091018101516001600160a01b03168252810191909152604001600020805460ff19169115159190911790558062001763816200375d565b915050620014ff565b5062001779848462001a5f565b80156200178c576000805461ff00191690555b50505050505050505050565b6060609b805462000a539062003720565b60405163a9059cbb60e01b81526001600160a01b0383811660048301526024820183905284169063a9059cbb90604401602060405180830381600087803b158015620017f457600080fd5b505af115801562001809573d6000803e3d6000fd5b505050506040513d601f19601f820116820180604052508101906200182f919062003329565b50505050565b3360008181526098602090815260408083206001600160a01b038716845290915281205490919083811015620018bc5760405162461bcd60e51b815260206004820152602560248201527f45524332303a2064656372656173656420616c6c6f77616e63652062656c6f77604482015264207a65726f60d81b6064820152608401620008bd565b620018cb828686840362001e85565b506001949350505050565b6101958181548110620018e857600080fd5b6000918252602090912001546001600160a01b0316905081565b60003362000aec8185856200203e565b33600090815260ca602052604090205460609060ff16620019845760405162461bcd60e51b815260206004820152602560248201527f427564676574417070726f76616c45786563757465653a206163636573732064604482015264195b9a595960da1b6064820152608401620008bd565b600080856001600160a01b03168486604051620019a2919062003447565b60006040518083038185875af1925050503d8060008114620019e1576040519150601f19603f3d011682016040523d82523d6000602084013e620019e6565b606091505b50915091508162001a565762001a3b62001a008262002699565b60408051808201909152601d81527f52657665727465642062792065787465726e616c20636f6e7472616374000000602082015290620026f6565b60405162461bcd60e51b8152600401620008bd9190620034fe565b95945050505050565b805182511462001aa75760405162461bcd60e51b8152602060048201526012602482015271496e636f72726563742043616c6c6461746160701b6044820152606401620008bd565b60005b8251811015620012fc5762001ae783828151811062001ad957634e487b7160e01b600052603260045260246000fd5b602002602001015162002724565b600083828151811062001b0a57634e487b7160e01b600052603260045260246000fd5b602002602001015183838151811062001b3357634e487b7160e01b600052603260045260246000fd5b602002602001015160405162001b499062002bf1565b62001b56929190620034d0565b604051809103906000f08015801562001b73573d6000803e3d6000fd5b506001600160a01b038116600090815260ca60205260409020805460ff1916600117905583519091507f26c79e13dd63e8716f130c25331c09f2fdd55d6880bbfa7bcc38868207e8a67090829085908590811062001be157634e487b7160e01b600052603260045260246000fd5b602002602001015160405162001bf9929190620034d0565b60405180910390a1806001600160a01b031663cf26fec66040518163ffffffff1660e01b8152600401600060405180830381600087803b15801562001c3d57600080fd5b505af115801562001c52573d6000803e3d6000fd5b5050505050808062001c64906200375d565b91505062001aaa565b61019954421015801562001c8657506101975461019854105b62001cc45760405162461bcd60e51b815260206004820152600d60248201526c18d85b9b9bdd081c99599d5b99609a1b6044820152606401620008bd565b60005b81811015620012fc5762001d1283838381811062001cf557634e487b7160e01b600052603260045260246000fd5b905060200201602081019062001d0c919062002e80565b620027e4565b8062001d1e816200375d565b91505062001cc7565b600062001d3360995490565b82111562001d755760405162461bcd60e51b815260206004820152600e60248201526d677420746f74616c537570706c7960901b6044820152606401620008bd565b60995462001d8557506000919050565b60995462001d948347620036b5565b6200086f919062003694565b6001600160a01b03821662001df85760405162461bcd60e51b815260206004820152601f60248201527f45524332303a206d696e7420746f20746865207a65726f2061646472657373006044820152606401620008bd565b806099600082825462001e0c919062003679565b90915550506001600160a01b0382166000908152609760205260408120805483929062001e3b90849062003679565b90915550506040518181526001600160a01b038316906000907fddf252ad1be2c89b69c2b068fc378daa952ba7f163c4a11628f55a4df523b3ef9060200160405180910390a35050565b6001600160a01b03831662001ee95760405162461bcd60e51b8152602060048201526024808201527f45524332303a20617070726f76652066726f6d20746865207a65726f206164646044820152637265737360e01b6064820152608401620008bd565b6001600160a01b03821662001f4c5760405162461bcd60e51b815260206004820152602260248201527f45524332303a20617070726f766520746f20746865207a65726f206164647265604482015261737360f01b6064820152608401620008bd565b6001600160a01b0383811660008181526098602090815260408083209487168084529482529182902085905590518481527f8c5be1e5ebec7d5bd14f71427d1e84f3dd0314c0f7b2291e5b200ac8c7c3b925910160405180910390a3505050565b6001600160a01b0383811660009081526098602090815260408083209386168352929052205460001981146200182f57818110156200202f5760405162461bcd60e51b815260206004820152601d60248201527f45524332303a20696e73756666696369656e7420616c6c6f77616e63650000006044820152606401620008bd565b6200182f848484840362001e85565b6001600160a01b038316620020a45760405162461bcd60e51b815260206004820152602560248201527f45524332303a207472616e736665722066726f6d20746865207a65726f206164604482015264647265737360d81b6064820152608401620008bd565b6001600160a01b038216620021085760405162461bcd60e51b815260206004820152602360248201527f45524332303a207472616e7366657220746f20746865207a65726f206164647260448201526265737360e81b6064820152608401620008bd565b6001600160a01b03831660009081526097602052604090205481811015620021825760405162461bcd60e51b815260206004820152602660248201527f45524332303a207472616e7366657220616d6f756e7420657863656564732062604482015265616c616e636560d01b6064820152608401620008bd565b6001600160a01b03808516600090815260976020526040808220858503905591851681529081208054849290620021bb90849062003679565b92505081905550826001600160a01b0316846001600160a01b03167fddf252ad1be2c89b69c2b068fc378daa952ba7f163c4a11628f55a4df523b3ef846040516200220891815260200190565b60405180910390a36200182f565b7f4910fdfa16fed3260ed0e7147f7cc6da11a60208b5b9406d12a635614ffd91435460ff16156200224c57620012fc8362002964565b826001600160a01b03166352d1902d6040518163ffffffff1660e01b815260040160206040518083038186803b1580156200228657600080fd5b505afa925050508015620022b9575060408051601f3d908101601f19168201909252620022b6918101906200334b565b60015b6200231e5760405162461bcd60e51b815260206004820152602e60248201527f45524331393637557067726164653a206e657720696d706c656d656e7461746960448201526d6f6e206973206e6f74205555505360901b6064820152608401620008bd565b60008051602062003f4a8339815191528114620023905760405162461bcd60e51b815260206004820152602960248201527f45524331393637557067726164653a20756e737570706f727465642070726f786044820152681a58589b195555525160ba1b6064820152608401620008bd565b50620012fc83838362002a03565b6001600160a01b03821673eeeeeeeeeeeeeeeeeeeeeeeeeeeeeeeeeeeeeeee1415620024165761019360009054906101000a90046001600160a01b03166001600160a01b031663d0e30db0826040518263ffffffff1660e01b81526004016000604051808303818588803b15801562000b4757600080fd5b6101935460405163095ea7b360e01b81526001600160a01b039182166004820152602481018390529083169063095ea7b390604401602060405180830381600087803b1580156200246657600080fd5b505af11580156200247b573d6000803e3d6000fd5b505050506040513d601f19601f82011682018060405250810190620024a1919062003329565b50610193546040516319c5aef560e11b81526001600160a01b038481166004830152602482018490529091169063338b5dea90604401600060405180830381600087803b158015620024f257600080fd5b505af115801562002507573d6000803e3d6000fd5b505050505050565b6001600160a01b038216620025715760405162461bcd60e51b815260206004820152602160248201527f45524332303a206275726e2066726f6d20746865207a65726f206164647265736044820152607360f81b6064820152608401620008bd565b6001600160a01b03821660009081526097602052604090205481811015620025e75760405162461bcd60e51b815260206004820152602260248201527f45524332303a206275726e20616d6f756e7420657863656564732062616c616e604482015261636560f01b6064820152608401620008bd565b6001600160a01b038316600090815260976020526040812083830390556099805484929062002618908490620036d7565b90915550506040518281526000906001600160a01b038516907fddf252ad1be2c89b69c2b068fc378daa952ba7f163c4a11628f55a4df523b3ef9060200160405180910390a3505050565b600054610100900460ff166200268d5760405162461bcd60e51b8152600401620008bd90620035ab565b62000ed7828262002a2e565b6060604482511015620026ba57505060408051602081019091526000815290565b6004820191506200086f82806020019051810190620026da91906200338e565b60408051808201909152600381526201016960ed1b6020820152905b606082826040516020016200270d92919062003465565b604051602081830303815290604052905092915050565b61019354604051633b42d9af60e21b81526001600160a01b0383811660048301529091169063ed0b66bc9060240160206040518083038186803b1580156200276b57600080fd5b505afa15801562002780573d6000803e3d6000fd5b505050506040513d601f19601f82011682018060405250810190620027a6919062003329565b62000dc35760405162461bcd60e51b815260206004820152600d60248201526c1b9bdd081dda1a5d195b1a5cdd609a1b6044820152606401620008bd565b6001600160a01b038116600090815260976020526040902054806200283a5760405162461bcd60e51b815260206004820152600b60248201526a1b9bdd081a5b881b1a5cdd60aa1b6044820152606401620008bd565b6200284682826200250f565b610194546200285f906001600160a01b0316826200239e565b6101935461019454604051636ca7f41960e11b81526001600160a01b03918216600482015291169063f242432a9030908590849063d94fe8329060240160206040518083038186803b158015620028b557600080fd5b505afa158015620028ca573d6000803e3d6000fd5b505050506040513d601f19601f82011682018060405250810190620028f091906200334b565b856040518563ffffffff1660e01b815260040162002912949392919062003498565b600060405180830381600087803b1580156200292d57600080fd5b505af115801562002942573d6000803e3d6000fd5b505050508061019860008282546200295b9190620036d7565b90915550505050565b6001600160a01b0381163b620029d35760405162461bcd60e51b815260206004820152602d60248201527f455243313936373a206e657720696d706c656d656e746174696f6e206973206e60448201526c1bdd08184818dbdb9d1c9858dd609a1b6064820152608401620008bd565b60008051602062003f4a83398151915280546001600160a01b0319166001600160a01b0392909216919091179055565b62002a0e8362002a83565b60008251118062002a1c5750805b15620012fc576200182f838362002ac5565b600054610100900460ff1662002a585760405162461bcd60e51b8152600401620008bd90620035ab565b815162002a6d90609a90602085019062002bff565b508051620012fc90609b90602084019062002bff565b62002a8e8162002964565b6040516001600160a01b038216907fbc7cd75a20ee27fd9adebab32041f755214dbc6bffa90cc0225b39da2e5c2d3b90600090a250565b60606001600160a01b0383163b62002b2f5760405162461bcd60e51b815260206004820152602660248201527f416464726573733a2064656c65676174652063616c6c20746f206e6f6e2d636f6044820152651b9d1c9858dd60d21b6064820152608401620008bd565b600080846001600160a01b03168460405162002b4c919062003447565b600060405180830381855af49150503d806000811462002b89576040519150601f19603f3d011682016040523d82523d6000602084013e62002b8e565b606091505b509150915062001a56828260405180606001604052806027815260200162003f6a602791396060831562002bc457508162000b88565b82511562002bd55782518084602001fd5b8160405162461bcd60e51b8152600401620008bd9190620034fe565b6107a280620037a883390190565b82805462002c0d9062003720565b90600052602060002090601f01602090048101928262002c31576000855562002c7c565b82601f1062002c4c57805160ff191683800117855562002c7c565b8280016001018555821562002c7c579182015b8281111562002c7c57825182559160200191906001019062002c5f565b5062002c8a92915062002c8e565b5090565b5b8082111562002c8a576000815560010162002c8f565b80356001600160a01b038116811462002cbd57600080fd5b919050565b600082601f83011262002cd3578081fd5b8135602062002cec62002ce68362003629565b620035f6565b80838252828201915082860187848660051b890101111562002d0c578586fd5b855b8581101562002d355762002d228262002ca5565b8452928401929084019060010162002d0e565b5090979650505050505050565b600082601f83011262002d53578081fd5b8135602062002d6662002ce68362003629565b80838252828201915082860187848660051b890101111562002d86578586fd5b855b8581101562002d355781356001600160401b0381111562002da7578788fd5b62002db78a87838c010162002e2f565b855250928401929084019060010162002d88565b600082601f83011262002ddc578081fd5b8135602062002def62002ce68362003629565b80838252828201915082860187848660051b890101111562002e0f578586fd5b855b8581101562002d355781358452928401929084019060010162002e11565b600082601f83011262002e40578081fd5b813562002e5162002ce6826200364f565b81815284602083860101111562002e66578283fd5b816020850160208301379081016020019190915292915050565b60006020828403121562002e92578081fd5b62000b888262002ca5565b6000806040838503121562002eb0578081fd5b62002ebb8362002ca5565b915062002ecb6020840162002ca5565b90509250929050565b600080600080600060a0868803121562002eec578081fd5b62002ef78662002ca5565b945062002f076020870162002ca5565b935060408601356001600160401b038082111562002f23578283fd5b62002f3189838a0162002dcb565b9450606088013591508082111562002f47578283fd5b62002f5589838a0162002dcb565b9350608088013591508082111562002f6b578283fd5b5062002f7a8882890162002e2f565b9150509295509295909350565b60008060006060848603121562002f9c578283fd5b62002fa78462002ca5565b925062002fb76020850162002ca5565b9150604084013590509250925092565b6000806000806080858703121562002fdd578384fd5b62002fe88562002ca5565b935062002ff86020860162002ca5565b92506040850135915060608501356001600160401b038111156200301a578182fd5b620030288782880162002e2f565b91505092959194509250565b60008060008060008060008060006101208a8c03121562003053578687fd5b6200305e8a62002ca5565b98506200306e60208b0162002ca5565b975060408a0135965060608a0135955060808a01356001600160401b038082111562003098578586fd5b620030a68d838e0162002cc2565b965060a08c0135955060c08c0135915080821115620030c3578485fd5b620030d18d838e0162002cc2565b945060e08c0135915080821115620030e7578384fd5b50620030f68c828d0162002d42565b925050620031086101008b0162002ca5565b90509295985092959850929598565b600080600080600060a086880312156200312f578283fd5b6200313a8662002ca5565b94506200314a6020870162002ca5565b9350604086013592506060860135915060808601356001600160401b0381111562003173578182fd5b62002f7a8882890162002e2f565b6000806040838503121562003194578182fd5b6200319f8362002ca5565b915060208301356001600160401b03811115620031ba578182fd5b620031c88582860162002e2f565b9150509250929050565b600080600060608486031215620031e7578081fd5b620031f28462002ca5565b925060208401356001600160401b038111156200320d578182fd5b6200321b8682870162002e2f565b925050604084013590509250925092565b600080604083850312156200323f578182fd5b6200324a8362002ca5565b946020939093013593505050565b600080602083850312156200326b578182fd5b82356001600160401b038082111562003282578384fd5b818501915085601f83011262003296578384fd5b813581811115620032a5578485fd5b8660208260051b8501011115620032ba578485fd5b60209290920196919550909350505050565b60008060408385031215620032df578182fd5b82356001600160401b0380821115620032f6578384fd5b620033048683870162002cc2565b935060208501359150808211156200331a578283fd5b50620031c88582860162002d42565b6000602082840312156200333b578081fd5b8151801515811462000b88578182fd5b6000602082840312156200335d578081fd5b5051919050565b60006020828403121562003376578081fd5b81356001600160e01b03198116811462000b88578182fd5b600060208284031215620033a0578081fd5b81516001600160401b03811115620033b6578182fd5b8201601f81018413620033c7578182fd5b8051620033d862002ce6826200364f565b818152856020838501011115620033ed578384fd5b62001a56826020830160208601620036f1565b60006020828403121562003412578081fd5b5035919050565b6000815180845262003433816020860160208601620036f1565b601f01601f19169290920160200192915050565b600082516200345b818460208701620036f1565b9190910192915050565b6000835162003479818460208801620036f1565b8351908301906200348f818360208801620036f1565b01949350505050565b6001600160a01b0394851681529290931660208301526040820152606081019190915260a06080820181905260009082015260c00190565b6001600160a01b0383168152604060208201819052600090620034f69083018462003419565b949350505050565b60208152600062000b88602083018462003419565b6020808252602c908201527f46756e6374696f6e206d7573742062652063616c6c6564207468726f7567682060408201526b19195b1959d85d1958d85b1b60a21b606082015260800190565b6020808252602c908201527f46756e6374696f6e206d7573742062652063616c6c6564207468726f7567682060408201526b6163746976652070726f787960a01b606082015260800190565b6020808252602b908201527f496e697469616c697a61626c653a20636f6e7472616374206973206e6f74206960408201526a6e697469616c697a696e6760a81b606082015260800190565b604051601f8201601f191681016001600160401b038111828210171562003621576200362162003791565b604052919050565b60006001600160401b0382111562003645576200364562003791565b5060051b60200190565b60006001600160401b038211156200366b576200366b62003791565b50601f01601f191660200190565b600082198211156200368f576200368f6200377b565b500190565b600082620036b057634e487b7160e01b81526012600452602481fd5b500490565b6000816000190483118215151615620036d257620036d26200377b565b500290565b600082821015620036ec57620036ec6200377b565b500390565b60005b838110156200370e578181015183820152602001620036f4565b838111156200182f5750506000910152565b600181811c908216806200373557607f821691505b602082108114156200375757634e487b7160e01b600052602260045260246000fd5b50919050565b60006000198214156200377457620037746200377b565b5060010190565b634e487b7160e01b600052601160045260246000fd5b634e487b7160e01b600052604160045260246000fdfe60806040526040516107a23803806107a283398101604081905261002291610315565b61004d60017f360894a13ba1a3210667c828492db98dca3e2076cc3735a920a3ca505d382bbd61042d565b60008051602061075b8339815191521461007757634e487b7160e01b600052600160045260246000fd5b6100838282600061008a565b5050610492565b610093836100c0565b6000825111806100a05750805b156100bb576100b9838361010060201b6100291760201c565b505b505050565b6100c98161012c565b6040516001600160a01b038216907fbc7cd75a20ee27fd9adebab32041f755214dbc6bffa90cc0225b39da2e5c2d3b90600090a250565b6060610125838360405180606001604052806027815260200161077b602791396101ec565b9392505050565b61013f816102ca60201b6100551760201c565b6101a65760405162461bcd60e51b815260206004820152602d60248201527f455243313936373a206e657720696d706c656d656e746174696f6e206973206e60448201526c1bdd08184818dbdb9d1c9858dd609a1b60648201526084015b60405180910390fd5b806101cb60008051602061075b83398151915260001b6102d960201b6100641760201c565b80546001600160a01b0319166001600160a01b039290921691909117905550565b60606001600160a01b0384163b6102545760405162461bcd60e51b815260206004820152602660248201527f416464726573733a2064656c65676174652063616c6c20746f206e6f6e2d636f6044820152651b9d1c9858dd60d21b606482015260840161019d565b600080856001600160a01b03168560405161026f91906103de565b600060405180830381855af49150503d80600081146102aa576040519150601f19603f3d011682016040523d82523d6000602084013e6102af565b606091505b5090925090506102c08282866102dc565b9695505050505050565b6001600160a01b03163b151590565b90565b606083156102eb575081610125565b8251156102fb5782518084602001fd5b8160405162461bcd60e51b815260040161019d91906103fa565b60008060408385031215610327578182fd5b82516001600160a01b038116811461033d578283fd5b60208401519092506001600160401b0380821115610359578283fd5b818501915085601f83011261036c578283fd5b81518181111561037e5761037e61047c565b604051601f8201601f19908116603f011681019083821181831017156103a6576103a661047c565b816040528281528860208487010111156103be578586fd5b6103cf836020830160208801610450565b80955050505050509250929050565b600082516103f0818460208701610450565b9190910192915050565b6020815260008251806020840152610419816040850160208701610450565b601f01601f19169190910160400192915050565b60008282101561044b57634e487b7160e01b81526011600452602481fd5b500390565b60005b8381101561046b578181015183820152602001610453565b838111156100b95750506000910152565b634e487b7160e01b600052604160045260246000fd5b6102ba806104a16000396000f3fe60806040523661001357610011610017565b005b6100115b610027610022610067565b61009f565b565b606061004e838360405180606001604052806027815260200161025e602791396100c3565b9392505050565b6001600160a01b03163b151590565b90565b600061009a7f360894a13ba1a3210667c828492db98dca3e2076cc3735a920a3ca505d382bbc546001600160a01b031690565b905090565b3660008037600080366000845af43d6000803e8080156100be573d6000f35b3d6000fd5b60606001600160a01b0384163b6101305760405162461bcd60e51b815260206004820152602660248201527f416464726573733a2064656c65676174652063616c6c20746f206e6f6e2d636f6044820152651b9d1c9858dd60d21b60648201526084015b60405180910390fd5b600080856001600160a01b03168560405161014b91906101de565b600060405180830381855af49150503d8060008114610186576040519150601f19603f3d011682016040523d82523d6000602084013e61018b565b606091505b509150915061019b8282866101a5565b9695505050505050565b606083156101b457508161004e565b8251156101c45782518084602001fd5b8160405162461bcd60e51b815260040161012791906101fa565b600082516101f081846020870161022d565b9190910192915050565b602081526000825180602084015261021981604085016020870161022d565b601f01601f19169190910160400192915050565b60005b83811015610248578181015183820152602001610230565b83811115610257576000848401525b5050505056fe416464726573733a206c6f772d6c6576656c2064656c65676174652063616c6c206661696c6564a2646970667358221220f8739cd7f4c1a028f8618c6d23878548f4c2e3037f64390b7cb441fc411d4ec364736f6c63430008040033360894a13ba1a3210667c828492db98dca3e2076cc3735a920a3ca505d382bbc416464726573733a206c6f772d6c6576656c2064656c65676174652063616c6c206661696c6564360894a13ba1a3210667c828492db98dca3e2076cc3735a920a3ca505d382bbc416464726573733a206c6f772d6c6576656c2064656c65676174652063616c6c206661696c6564a264697066735822122004b5e3048da966e51bb305e485c5042608ffc950699b62506a00881b20bd1f2d64736f6c63430008040033",
  "devdoc": {
    "kind": "dev",
    "methods": {
      "allowance(address,address)": {
        "details": "See {IERC20-allowance}."
      },
      "approve(address,uint256)": {
        "details": "See {IERC20-approve}. NOTE: If `amount` is the maximum `uint256`, the allowance is not updated on `transferFrom`. This is semantically equivalent to an infinite approval. Requirements: - `spender` cannot be the zero address."
      },
      "balanceOf(address)": {
        "details": "See {IERC20-balanceOf}."
      },
      "decimals()": {
        "details": "Returns the number of decimals used to get its user representation. For example, if `decimals` equals `2`, a balance of `505` tokens should be displayed to a user as `5.05` (`505 / 10 ** 2`). Tokens usually opt for a value of 18, imitating the relationship between Ether and Wei. This is the value {ERC20} uses, unless this function is overridden; NOTE: This information is only used for _display_ purposes: it in no way affects any of the arithmetic of the contract, including {IERC20-balanceOf} and {IERC20-transfer}."
      },
      "decreaseAllowance(address,uint256)": {
        "details": "Atomically decreases the allowance granted to `spender` by the caller. This is an alternative to {approve} that can be used as a mitigation for problems described in {IERC20-approve}. Emits an {Approval} event indicating the updated allowance. Requirements: - `spender` cannot be the zero address. - `spender` must have allowance for the caller of at least `subtractedValue`."
      },
      "increaseAllowance(address,uint256)": {
        "details": "Atomically increases the allowance granted to `spender` by the caller. This is an alternative to {approve} that can be used as a mitigation for problems described in {IERC20-approve}. Emits an {Approval} event indicating the updated allowance. Requirements: - `spender` cannot be the zero address."
      },
      "name()": {
        "details": "Returns the name of the token."
      },
      "onERC721Received(address,address,uint256,bytes)": {
        "details": "See {IERC721Receiver-onERC721Received}. Always returns `IERC721Receiver.onERC721Received.selector`."
      },
      "proxiableUUID()": {
        "details": "Implementation of the ERC1822 {proxiableUUID} function. This returns the storage slot used by the implementation. It is used to validate that the this implementation remains valid after an upgrade. IMPORTANT: A proxy pointing at a proxiable contract should not be considered proxiable itself, because this risks bricking a proxy that upgrades to it, by delegating to itself until out of gas. Thus it is critical that this function revert if invoked through a proxy. This is guaranteed by the `notDelegated` modifier."
      },
      "supportsInterface(bytes4)": {
        "details": "See {IERC165-supportsInterface}."
      },
      "symbol()": {
        "details": "Returns the symbol of the token, usually a shorter version of the name."
      },
      "totalSupply()": {
        "details": "See {IERC20-totalSupply}."
      },
      "transfer(address,uint256)": {
        "details": "See {IERC20-transfer}. Requirements: - `to` cannot be the zero address. - the caller must have a balance of at least `amount`."
      },
      "transferFrom(address,address,uint256)": {
        "details": "See {IERC20-transferFrom}. Emits an {Approval} event indicating the updated allowance. This is not required by the EIP. See the note at the beginning of {ERC20}. NOTE: Does not update the allowance if the current allowance is the maximum `uint256`. Requirements: - `from` and `to` cannot be the zero address. - `from` must have a balance of at least `amount`. - the caller must have allowance for ``from``'s tokens of at least `amount`."
      },
      "upgradeTo(address)": {
        "details": "Upgrade the implementation of the proxy to `newImplementation`. Calls {_authorizeUpgrade}. Emits an {Upgraded} event."
      },
      "upgradeToAndCall(address,bytes)": {
        "details": "Upgrade the implementation of the proxy to `newImplementation`, and subsequently execute the function call encoded in `data`. Calls {_authorizeUpgrade}. Emits an {Upgraded} event."
      }
    },
    "version": 1
  },
  "userdoc": {
    "kind": "user",
    "methods": {},
    "version": 1
  },
  "storageLayout": {
    "storage": [
      {
        "astId": 2736,
        "contract": "contracts/OptInPool.sol:OptInPool",
        "label": "_initialized",
        "offset": 0,
        "slot": "0",
        "type": "t_bool"
      },
      {
        "astId": 2739,
        "contract": "contracts/OptInPool.sol:OptInPool",
        "label": "_initializing",
        "offset": 1,
        "slot": "0",
        "type": "t_bool"
      },
      {
        "astId": 2718,
        "contract": "contracts/OptInPool.sol:OptInPool",
        "label": "__gap",
        "offset": 0,
        "slot": "1",
        "type": "t_array(t_uint256)50_storage"
      },
      {
        "astId": 2938,
        "contract": "contracts/OptInPool.sol:OptInPool",
        "label": "__gap",
        "offset": 0,
        "slot": "51",
        "type": "t_array(t_uint256)50_storage"
      },
      {
        "astId": 7651,
        "contract": "contracts/OptInPool.sol:OptInPool",
        "label": "__gap",
        "offset": 0,
        "slot": "101",
        "type": "t_array(t_uint256)50_storage"
      },
      {
        "astId": 4379,
        "contract": "contracts/OptInPool.sol:OptInPool",
        "label": "_balances",
        "offset": 0,
        "slot": "151",
        "type": "t_mapping(t_address,t_uint256)"
      },
      {
        "astId": 4385,
        "contract": "contracts/OptInPool.sol:OptInPool",
        "label": "_allowances",
        "offset": 0,
        "slot": "152",
        "type": "t_mapping(t_address,t_mapping(t_address,t_uint256))"
      },
      {
        "astId": 4387,
        "contract": "contracts/OptInPool.sol:OptInPool",
        "label": "_totalSupply",
        "offset": 0,
        "slot": "153",
        "type": "t_uint256"
      },
      {
        "astId": 4389,
        "contract": "contracts/OptInPool.sol:OptInPool",
        "label": "_name",
        "offset": 0,
        "slot": "154",
        "type": "t_string_storage"
      },
      {
        "astId": 4391,
        "contract": "contracts/OptInPool.sol:OptInPool",
        "label": "_symbol",
        "offset": 0,
        "slot": "155",
        "type": "t_string_storage"
      },
      {
        "astId": 4972,
        "contract": "contracts/OptInPool.sol:OptInPool",
        "label": "__gap",
        "offset": 0,
        "slot": "156",
        "type": "t_array(t_uint256)45_storage"
      },
      {
        "astId": 22099,
        "contract": "contracts/OptInPool.sol:OptInPool",
        "label": "team",
        "offset": 0,
        "slot": "201",
        "type": "t_address"
      },
      {
        "astId": 22103,
        "contract": "contracts/OptInPool.sol:OptInPool",
        "label": "budgetApprovals",
        "offset": 0,
        "slot": "202",
        "type": "t_mapping(t_address,t_bool)"
      },
      {
        "astId": 7132,
        "contract": "contracts/OptInPool.sol:OptInPool",
        "label": "__gap",
        "offset": 0,
        "slot": "203",
        "type": "t_array(t_uint256)50_storage"
      },
      {
        "astId": 8803,
        "contract": "contracts/OptInPool.sol:OptInPool",
        "label": "__gap",
        "offset": 0,
        "slot": "253",
        "type": "t_array(t_uint256)50_storage"
      },
      {
        "astId": 4359,
        "contract": "contracts/OptInPool.sol:OptInPool",
        "label": "__gap",
        "offset": 0,
        "slot": "303",
        "type": "t_array(t_uint256)50_storage"
      },
      {
        "astId": 4305,
        "contract": "contracts/OptInPool.sol:OptInPool",
        "label": "__gap",
        "offset": 0,
        "slot": "353",
        "type": "t_array(t_uint256)50_storage"
      },
      {
        "astId": 19610,
        "contract": "contracts/OptInPool.sol:OptInPool",
        "label": "depositPool",
        "offset": 0,
        "slot": "403",
        "type": "t_contract(IDepositPool)25395"
      },
      {
        "astId": 19612,
        "contract": "contracts/OptInPool.sol:OptInPool",
        "label": "depositToken",
        "offset": 0,
        "slot": "404",
        "type": "t_address"
      },
      {
        "astId": 19615,
        "contract": "contracts/OptInPool.sol:OptInPool",
        "label": "redeemTokens",
        "offset": 0,
        "slot": "405",
        "type": "t_array(t_address)dyn_storage"
      },
      {
        "astId": 19619,
        "contract": "contracts/OptInPool.sol:OptInPool",
        "label": "isRedeemTokens",
        "offset": 0,
        "slot": "406",
        "type": "t_mapping(t_address,t_bool)"
      },
      {
        "astId": 19621,
        "contract": "contracts/OptInPool.sol:OptInPool",
        "label": "depositThreshold",
        "offset": 0,
        "slot": "407",
        "type": "t_uint256"
      },
      {
        "astId": 19623,
        "contract": "contracts/OptInPool.sol:OptInPool",
        "label": "recevied",
        "offset": 0,
        "slot": "408",
        "type": "t_uint256"
      },
      {
        "astId": 19625,
        "contract": "contracts/OptInPool.sol:OptInPool",
        "label": "depositDeadline",
        "offset": 0,
        "slot": "409",
        "type": "t_uint256"
      },
      {
        "astId": 19627,
        "contract": "contracts/OptInPool.sol:OptInPool",
        "label": "redeemTime",
        "offset": 0,
        "slot": "410",
        "type": "t_uint256"
      }
    ],
    "types": {
      "t_address": {
        "encoding": "inplace",
        "label": "address",
        "numberOfBytes": "20"
      },
      "t_array(t_address)dyn_storage": {
        "base": "t_address",
        "encoding": "dynamic_array",
        "label": "address[]",
        "numberOfBytes": "32"
      },
      "t_array(t_uint256)45_storage": {
        "base": "t_uint256",
        "encoding": "inplace",
        "label": "uint256[45]",
        "numberOfBytes": "1440"
      },
      "t_array(t_uint256)50_storage": {
        "base": "t_uint256",
        "encoding": "inplace",
        "label": "uint256[50]",
        "numberOfBytes": "1600"
      },
      "t_bool": {
        "encoding": "inplace",
        "label": "bool",
        "numberOfBytes": "1"
      },
      "t_contract(IDepositPool)25395": {
        "encoding": "inplace",
        "label": "contract IDepositPool",
        "numberOfBytes": "20"
      },
      "t_mapping(t_address,t_bool)": {
        "encoding": "mapping",
        "key": "t_address",
        "label": "mapping(address => bool)",
        "numberOfBytes": "32",
        "value": "t_bool"
      },
      "t_mapping(t_address,t_mapping(t_address,t_uint256))": {
        "encoding": "mapping",
        "key": "t_address",
        "label": "mapping(address => mapping(address => uint256))",
        "numberOfBytes": "32",
        "value": "t_mapping(t_address,t_uint256)"
      },
      "t_mapping(t_address,t_uint256)": {
        "encoding": "mapping",
        "key": "t_address",
        "label": "mapping(address => uint256)",
        "numberOfBytes": "32",
        "value": "t_uint256"
      },
      "t_string_storage": {
        "encoding": "bytes",
        "label": "string",
        "numberOfBytes": "32"
      },
      "t_uint256": {
        "encoding": "inplace",
        "label": "uint256",
        "numberOfBytes": "32"
      }
    }
  }
}