{
  "address": "0x4e170ADcf531F3707E9FdEF27eE7fc3A1ad67591",
  "abi": [
    {
      "anonymous": false,
      "inputs": [
        {
          "indexed": false,
          "internalType": "address",
          "name": "previousAdmin",
          "type": "address"
        },
        {
          "indexed": false,
          "internalType": "address",
          "name": "newAdmin",
          "type": "address"
        }
      ],
      "name": "AdminChanged",
      "type": "event"
    },
    {
      "anonymous": false,
      "inputs": [
        {
          "indexed": true,
          "internalType": "address",
          "name": "account",
          "type": "address"
        },
        {
          "indexed": true,
          "internalType": "address",
          "name": "operator",
          "type": "address"
        },
        {
          "indexed": false,
          "internalType": "bool",
          "name": "approved",
          "type": "bool"
        }
      ],
      "name": "ApprovalForAll",
      "type": "event"
    },
    {
      "anonymous": false,
      "inputs": [
        {
          "indexed": true,
          "internalType": "address",
          "name": "beacon",
          "type": "address"
        }
      ],
      "name": "BeaconUpgraded",
      "type": "event"
    },
    {
      "anonymous": false,
      "inputs": [
        {
          "indexed": false,
          "internalType": "string",
          "name": "name",
          "type": "string"
        },
        {
          "indexed": false,
          "internalType": "string",
          "name": "description",
          "type": "string"
        },
        {
          "indexed": false,
          "internalType": "uint256",
          "name": "tokenId",
          "type": "uint256"
        }
      ],
      "name": "EditInfo",
      "type": "event"
    },
    {
      "anonymous": false,
      "inputs": [
        {
          "indexed": true,
          "internalType": "address",
          "name": "operator",
          "type": "address"
        },
        {
          "indexed": true,
          "internalType": "address",
          "name": "from",
          "type": "address"
        },
        {
          "indexed": true,
          "internalType": "address",
          "name": "to",
          "type": "address"
        },
        {
          "indexed": false,
          "internalType": "uint256[]",
          "name": "ids",
          "type": "uint256[]"
        },
        {
          "indexed": false,
          "internalType": "uint256[]",
          "name": "values",
          "type": "uint256[]"
        }
      ],
      "name": "TransferBatch",
      "type": "event"
    },
    {
      "anonymous": false,
      "inputs": [
        {
          "indexed": true,
          "internalType": "address",
          "name": "operator",
          "type": "address"
        },
        {
          "indexed": true,
          "internalType": "address",
          "name": "from",
          "type": "address"
        },
        {
          "indexed": true,
          "internalType": "address",
          "name": "to",
          "type": "address"
        },
        {
          "indexed": false,
          "internalType": "uint256",
          "name": "id",
          "type": "uint256"
        },
        {
          "indexed": false,
          "internalType": "uint256",
          "name": "value",
          "type": "uint256"
        }
      ],
      "name": "TransferSingle",
      "type": "event"
    },
    {
      "anonymous": false,
      "inputs": [
        {
          "indexed": false,
          "internalType": "string",
          "name": "value",
          "type": "string"
        },
        {
          "indexed": true,
          "internalType": "uint256",
          "name": "id",
          "type": "uint256"
        }
      ],
      "name": "URI",
      "type": "event"
    },
    {
      "anonymous": false,
      "inputs": [
        {
          "indexed": true,
          "internalType": "address",
          "name": "implementation",
          "type": "address"
        }
      ],
      "name": "Upgraded",
      "type": "event"
    },
    {
      "inputs": [
        {
          "internalType": "address[]",
          "name": "members",
          "type": "address[]"
        },
        {
          "internalType": "uint256",
          "name": "tokenId",
          "type": "uint256"
        }
      ],
      "name": "addMembers",
      "outputs": [],
      "stateMutability": "nonpayable",
      "type": "function"
    },
    {
      "inputs": [
        {
          "internalType": "string",
          "name": "name",
          "type": "string"
        },
        {
          "internalType": "address",
          "name": "minter",
          "type": "address"
        },
        {
          "internalType": "address[]",
          "name": "members",
          "type": "address[]"
        },
        {
          "internalType": "string",
          "name": "description",
          "type": "string"
        }
      ],
      "name": "addTeam",
      "outputs": [
        {
          "internalType": "uint256",
          "name": "",
          "type": "uint256"
        }
      ],
      "stateMutability": "nonpayable",
      "type": "function"
    },
    {
      "inputs": [
        {
          "internalType": "address",
          "name": "account",
          "type": "address"
        },
        {
          "internalType": "uint256",
          "name": "id",
          "type": "uint256"
        }
      ],
      "name": "balanceOf",
      "outputs": [
        {
          "internalType": "uint256",
          "name": "",
          "type": "uint256"
        }
      ],
      "stateMutability": "view",
      "type": "function"
    },
    {
      "inputs": [
        {
          "internalType": "address[]",
          "name": "accounts",
          "type": "address[]"
        },
        {
          "internalType": "uint256[]",
          "name": "ids",
          "type": "uint256[]"
        }
      ],
      "name": "balanceOfBatch",
      "outputs": [
        {
          "internalType": "uint256[]",
          "name": "",
          "type": "uint256[]"
        }
      ],
      "stateMutability": "view",
      "type": "function"
    },
    {
      "inputs": [
        {
          "internalType": "uint256",
          "name": "",
          "type": "uint256"
        }
      ],
      "name": "creatorOf",
      "outputs": [
        {
          "internalType": "address",
          "name": "",
          "type": "address"
        }
      ],
      "stateMutability": "view",
      "type": "function"
    },
    {
      "inputs": [
        {
          "internalType": "uint256",
          "name": "",
          "type": "uint256"
        }
      ],
      "name": "descriptionOf",
      "outputs": [
        {
          "internalType": "string",
          "name": "",
          "type": "string"
        }
      ],
      "stateMutability": "view",
      "type": "function"
    },
    {
      "inputs": [
        {
          "internalType": "address",
          "name": "account",
          "type": "address"
        },
        {
          "internalType": "address",
          "name": "operator",
          "type": "address"
        }
      ],
      "name": "isApprovedForAll",
      "outputs": [
        {
          "internalType": "bool",
          "name": "",
          "type": "bool"
        }
      ],
      "stateMutability": "view",
      "type": "function"
    },
    {
      "inputs": [
        {
          "internalType": "uint256",
          "name": "",
          "type": "uint256"
        }
      ],
      "name": "minterOf",
      "outputs": [
        {
          "internalType": "address",
          "name": "",
          "type": "address"
        }
      ],
      "stateMutability": "view",
      "type": "function"
    },
    {
      "inputs": [
        {
          "internalType": "uint256",
          "name": "",
          "type": "uint256"
        }
      ],
      "name": "nameOf",
      "outputs": [
        {
          "internalType": "string",
          "name": "",
          "type": "string"
        }
      ],
      "stateMutability": "view",
      "type": "function"
    },
    {
      "inputs": [],
      "name": "proxiableUUID",
      "outputs": [
        {
          "internalType": "bytes32",
          "name": "",
          "type": "bytes32"
        }
      ],
      "stateMutability": "view",
      "type": "function"
    },
    {
      "inputs": [
        {
          "internalType": "address[]",
          "name": "members",
          "type": "address[]"
        },
        {
          "internalType": "uint256",
          "name": "tokenId",
          "type": "uint256"
        }
      ],
      "name": "removeMembers",
      "outputs": [],
      "stateMutability": "nonpayable",
      "type": "function"
    },
    {
      "inputs": [
        {
          "internalType": "address",
          "name": "from",
          "type": "address"
        },
        {
          "internalType": "address",
          "name": "to",
          "type": "address"
        },
        {
          "internalType": "uint256[]",
          "name": "ids",
          "type": "uint256[]"
        },
        {
          "internalType": "uint256[]",
          "name": "amounts",
          "type": "uint256[]"
        },
        {
          "internalType": "bytes",
          "name": "data",
          "type": "bytes"
        }
      ],
      "name": "safeBatchTransferFrom",
      "outputs": [],
      "stateMutability": "nonpayable",
      "type": "function"
    },
    {
      "inputs": [
        {
          "internalType": "address",
          "name": "from",
          "type": "address"
        },
        {
          "internalType": "address",
          "name": "to",
          "type": "address"
        },
        {
          "internalType": "uint256",
          "name": "id",
          "type": "uint256"
        },
        {
          "internalType": "uint256",
          "name": "amount",
          "type": "uint256"
        },
        {
          "internalType": "bytes",
          "name": "data",
          "type": "bytes"
        }
      ],
      "name": "safeTransferFrom",
      "outputs": [],
      "stateMutability": "nonpayable",
      "type": "function"
    },
    {
      "inputs": [
        {
          "internalType": "address",
          "name": "operator",
          "type": "address"
        },
        {
          "internalType": "bool",
          "name": "approved",
          "type": "bool"
        }
      ],
      "name": "setApprovalForAll",
      "outputs": [],
      "stateMutability": "nonpayable",
      "type": "function"
    },
    {
      "inputs": [
        {
          "internalType": "string",
          "name": "name",
          "type": "string"
        },
        {
          "internalType": "string",
          "name": "description",
          "type": "string"
        },
        {
          "internalType": "uint256",
          "name": "tokenId",
          "type": "uint256"
        }
      ],
      "name": "setInfo",
      "outputs": [],
      "stateMutability": "nonpayable",
      "type": "function"
    },
    {
      "inputs": [
        {
          "internalType": "bytes4",
          "name": "interfaceId",
          "type": "bytes4"
        }
      ],
      "name": "supportsInterface",
      "outputs": [
        {
          "internalType": "bool",
          "name": "",
          "type": "bool"
        }
      ],
      "stateMutability": "view",
      "type": "function"
    },
    {
      "inputs": [
        {
          "internalType": "address",
          "name": "newImplementation",
          "type": "address"
        }
      ],
      "name": "upgradeTo",
      "outputs": [],
      "stateMutability": "nonpayable",
      "type": "function"
    },
    {
      "inputs": [
        {
          "internalType": "address",
          "name": "newImplementation",
          "type": "address"
        },
        {
          "internalType": "bytes",
          "name": "data",
          "type": "bytes"
        }
      ],
      "name": "upgradeToAndCall",
      "outputs": [],
      "stateMutability": "payable",
      "type": "function"
    },
    {
      "inputs": [
        {
          "internalType": "uint256",
          "name": "_id",
          "type": "uint256"
        }
      ],
      "name": "uri",
      "outputs": [
        {
          "internalType": "string",
          "name": "",
          "type": "string"
        }
      ],
      "stateMutability": "view",
      "type": "function"
    }
  ],
  "transactionHash": "0xaa6dbdaafe491b38c3775fc9dc4f9e930fa9fbde39f47129c137cad67793a2d6",
  "args": [],
  "numDeployments": 1,
  "solcInputHash": "da7809b3b714fba03a8268402ac25a3e",
  "bytecode": "0x60a06040523060601b60805234801561001757600080fd5b5060805160601c612f8f610052600039600081816107f50152818161083501528181610a4f01528181610a8f0152610b220152612f8f6000f3fe6080604052600436106101125760003560e01c80634f1ef286116100a05780639e942ace116100645780639e942ace1461032c578063a22cb46514610362578063b9e2b54414610382578063e985e9c5146103a2578063f242432a146103eb57600080fd5b80634f1ef2861461027657806352d1902d14610289578063589a17431461029e5780636c2d1852146102ec5780638304fc251461030c57600080fd5b80630e89341c116100e75780630e89341c146101c75780632eb2c2d6146101e75780633659cfe6146102095780633e0fb267146102295780634e1273f41461024957600080fd5b806253153b14610117578062fdd58e1461014a57806301ffc9a71461016a578063051a26641461019a575b600080fd5b34801561012357600080fd5b506101376101323660046126c7565b61040b565b6040519081526020015b60405180910390f35b34801561015657600080fd5b506101376101653660046125b6565b61051a565b34801561017657600080fd5b5061018a61018536600461268f565b6105b3565b6040519015158152602001610141565b3480156101a657600080fd5b506101ba6101b53660046127c4565b610605565b6040516101419190612ad9565b3480156101d357600080fd5b506101ba6101e23660046127c4565b61069f565b3480156101f357600080fd5b5061020761020236600461242a565b610753565b005b34801561021557600080fd5b506102076102243660046123de565b6107ea565b34801561023557600080fd5b506101ba6102443660046127c4565b6108ca565b34801561025557600080fd5b506102696102643660046125df565b6108e3565b6040516101419190612aa1565b61020761028436600461256b565b610a44565b34801561029557600080fd5b50610137610b15565b3480156102aa57600080fd5b506102d46102b93660046127c4565b60fb602052600090815260409020546001600160a01b031681565b6040516001600160a01b039091168152602001610141565b3480156102f857600080fd5b50610207610307366004612635565b610bc9565b34801561031857600080fd5b50610207610327366004612635565b610c13565b34801561033857600080fd5b506102d46103473660046127c4565b60fc602052600090815260409020546001600160a01b031681565b34801561036e57600080fd5b5061020761037d366004612531565b610c57565b34801561038e57600080fd5b5061020761039d36600461275b565b610c62565b3480156103ae57600080fd5b5061018a6103bd3660046123f8565b6001600160a01b03918216600090815260ca6020908152604080832093909416825291909152205460ff1690565b3480156103f757600080fd5b506102076104063660046124cf565b610d1e565b600061041b60ff80546001019055565b3360fb600061042960ff5490565b815260200190815260200160002060006101000a8154816001600160a01b0302191690836001600160a01b031602179055508360fc600061046960ff5490565b815260200190815260200160002060006101000a8154816001600160a01b0302191690836001600160a01b031602179055508460fd60006104a960ff5490565b815260200190815260200160002090805190602001906104ca9291906121d9565b508160fe60006104d960ff5490565b815260200190815260200160002090805190602001906104fa9291906121d9565b5061050d8361050860ff5490565b610da5565b60ff545b95945050505050565b60006001600160a01b03831661058b5760405162461bcd60e51b815260206004820152602b60248201527f455243313135353a2062616c616e636520717565727920666f7220746865207a60448201526a65726f206164647265737360a81b60648201526084015b60405180910390fd5b50600090815260c9602090815260408083206001600160a01b03949094168352929052205490565b60006001600160e01b03198216636cdb3d1360e11b14806105e457506001600160e01b031982166303a24d0760e21b145b806105ff57506301ffc9a760e01b6001600160e01b03198316145b92915050565b60fd602052600090815260409020805461061e90612d6e565b80601f016020809104026020016040519081016040528092919081815260200182805461064a90612d6e565b80156106975780601f1061066c57610100808354040283529160200191610697565b820191906000526020600020905b81548152906001019060200180831161067a57829003601f168201915b505050505081565b600081815260fd6020908152604080832060fb90925282205460609291906106cf906001600160a01b0316610e0b565b600085815260fc60205260409020546106f0906001600160a01b0316610e0b565b600086815260fe602090815260409182902091516107129594939291016128f6565b604051602081830303815290604052905061072c81610e43565b60405160200161073c91906129b9565b604051602081830303815290604052915050919050565b6001600160a01b03851633148061076f575061076f85336103bd565b6107d65760405162461bcd60e51b815260206004820152603260248201527f455243313135353a207472616e736665722063616c6c6572206973206e6f74206044820152711bdddb995c881b9bdc88185c1c1c9bdd995960721b6064820152608401610582565b6107e38585858585610fb8565b5050505050565b306001600160a01b037f00000000000000000000000000000000000000000000000000000000000000001614156108335760405162461bcd60e51b815260040161058290612ba1565b7f00000000000000000000000000000000000000000000000000000000000000006001600160a01b031661087c600080516020612ed3833981519152546001600160a01b031690565b6001600160a01b0316146108a25760405162461bcd60e51b815260040161058290612bed565b6108ab816111c2565b604080516000808252602082019092526108c79183919061127b565b50565b60fe602052600090815260409020805461061e90612d6e565b606081518351146109485760405162461bcd60e51b815260206004820152602960248201527f455243313135353a206163636f756e747320616e6420696473206c656e677468604482015268040dad2e6dac2e8c6d60bb1b6064820152608401610582565b600083516001600160401b0381111561097157634e487b7160e01b600052604160045260246000fd5b60405190808252806020026020018201604052801561099a578160200160208202803683370190505b50905060005b8451811015610a3c57610a018582815181106109cc57634e487b7160e01b600052603260045260246000fd5b60200260200101518583815181106109f457634e487b7160e01b600052603260045260246000fd5b602002602001015161051a565b828281518110610a2157634e487b7160e01b600052603260045260246000fd5b6020908102919091010152610a3581612dd5565b90506109a0565b509392505050565b306001600160a01b037f0000000000000000000000000000000000000000000000000000000000000000161415610a8d5760405162461bcd60e51b815260040161058290612ba1565b7f00000000000000000000000000000000000000000000000000000000000000006001600160a01b0316610ad6600080516020612ed3833981519152546001600160a01b031690565b6001600160a01b031614610afc5760405162461bcd60e51b815260040161058290612bed565b610b05826111c2565b610b118282600161127b565b5050565b6000306001600160a01b037f00000000000000000000000000000000000000000000000000000000000000001614610bb55760405162461bcd60e51b815260206004820152603860248201527f555550535570677261646561626c653a206d757374206e6f742062652063616c60448201527f6c6564207468726f7567682064656c656761746563616c6c00000000000000006064820152608401610582565b50600080516020612ed38339815191525b90565b600081815260fc6020526040902054819033906001600160a01b03168114610c035760405162461bcd60e51b815260040161058290612b22565b610c0d84846113f5565b50505050565b600081815260fc6020526040902054819033906001600160a01b03168114610c4d5760405162461bcd60e51b815260040161058290612b22565b610c0d8484610da5565b610b11338383611475565b600081815260fc6020526040902054819033906001600160a01b03168114610c9c5760405162461bcd60e51b815260040161058290612b22565b600083815260fd602090815260409091208651610cbb928801906121d9565b50600083815260fe602090815260409091208551610cdb928701906121d9565b507f9a9f1e87acdbebd6a43613eb3302ce8597ca8fd373aaf822705b2d7771f96cc1858585604051610d0f93929190612aec565b60405180910390a15050505050565b6001600160a01b038516331480610d3a5750610d3a85336103bd565b610d985760405162461bcd60e51b815260206004820152602960248201527f455243313135353a2063616c6c6572206973206e6f74206f776e6572206e6f7260448201526808185c1c1c9bdd995960ba1b6064820152608401610582565b6107e38585858585611556565b60005b8251811015610e0657610df4838281518110610dd457634e487b7160e01b600052603260045260246000fd5b602002602001015183600160405180602001604052806000815250611686565b80610dfe81612dd5565b915050610da8565b505050565b604051606082811b6bffffffffffffffffffffffff19166020830152906105ff90603401604051602081830303815290604052611789565b6060815160001415610e6357505060408051602081019091526000815290565b6000604051806060016040528060408152602001612ef36040913990506000600384516002610e929190612ceb565b610e9c9190612d03565b610ea7906004612d23565b90506000610eb6826020612ceb565b6001600160401b03811115610edb57634e487b7160e01b600052604160045260246000fd5b6040519080825280601f01601f191660200182016040528015610f05576020820181803683370190505b509050818152600183018586518101602084015b81831015610f735760039283018051603f601282901c811687015160f890811b8552600c83901c8216880151811b6001860152600683901c8216880151811b60028601529116860151901b93820193909352600401610f19565b600389510660018114610f8d5760028114610f9e57610faa565b613d3d60f01b600119830152610faa565b603d60f81b6000198301525b509398975050505050505050565b815183511461101a5760405162461bcd60e51b815260206004820152602860248201527f455243313135353a2069647320616e6420616d6f756e7473206c656e677468206044820152670dad2e6dac2e8c6d60c31b6064820152608401610582565b6001600160a01b0384166110405760405162461bcd60e51b815260040161058290612c39565b3361104f818787878787611a17565b60005b845181101561115457600085828151811061107d57634e487b7160e01b600052603260045260246000fd5b6020026020010151905060008583815181106110a957634e487b7160e01b600052603260045260246000fd5b602090810291909101810151600084815260c9835260408082206001600160a01b038e1683529093529190912054909150818110156110fa5760405162461bcd60e51b815260040161058290612c7e565b600083815260c9602090815260408083206001600160a01b038e8116855292528083208585039055908b16825281208054849290611139908490612ceb565b925050819055505050508061114d90612dd5565b9050611052565b50846001600160a01b0316866001600160a01b0316826001600160a01b03167f4a39dc06d4c0dbc64b70af90fd698a233a518aa5d07e595d983b8c0526c8f7fb87876040516111a4929190612ab4565b60405180910390a46111ba818787878787611ba7565b505050505050565b600054610100900460ff166111dd5760005460ff16156111e1565b303b155b6112445760405162461bcd60e51b815260206004820152602e60248201527f496e697469616c697a61626c653a20636f6e747261637420697320616c72656160448201526d191e481a5b9a5d1a585b1a5e995960921b6064820152608401610582565b600054610100900460ff16158015611266576000805461ffff19166101011790555b8015610b11576000805461ff00191690555050565b7f4910fdfa16fed3260ed0e7147f7cc6da11a60208b5b9406d12a635614ffd91435460ff16156112ae57610e0683611d12565b826001600160a01b03166352d1902d6040518163ffffffff1660e01b815260040160206040518083038186803b1580156112e757600080fd5b505afa925050508015611317575060408051601f3d908101601f1916820190925261131491810190612677565b60015b61137a5760405162461bcd60e51b815260206004820152602e60248201527f45524331393637557067726164653a206e657720696d706c656d656e7461746960448201526d6f6e206973206e6f74205555505360901b6064820152608401610582565b600080516020612ed383398151915281146113e95760405162461bcd60e51b815260206004820152602960248201527f45524331393637557067726164653a20756e737570706f727465642070726f786044820152681a58589b195555525160ba1b6064820152608401610582565b50610e06838383611dae565b60005b8251811015610e065761146383828151811061142457634e487b7160e01b600052603260045260246000fd5b60200260200101518361145e86858151811061145057634e487b7160e01b600052603260045260246000fd5b60200260200101518661051a565b611dd3565b8061146d81612dd5565b9150506113f8565b816001600160a01b0316836001600160a01b031614156114e95760405162461bcd60e51b815260206004820152602960248201527f455243313135353a2073657474696e6720617070726f76616c20737461747573604482015268103337b91039b2b63360b91b6064820152608401610582565b6001600160a01b03838116600081815260ca6020908152604080832094871680845294825291829020805460ff191686151590811790915591519182527f17307eab39ab6107e8899845ad3d59bd9653f200f220920489ca2b5937696c31910160405180910390a3505050565b6001600160a01b03841661157c5760405162461bcd60e51b815260040161058290612c39565b3361159b81878761158c88611f50565b61159588611f50565b87611a17565b600084815260c9602090815260408083206001600160a01b038a168452909152902054838110156115de5760405162461bcd60e51b815260040161058290612c7e565b600085815260c9602090815260408083206001600160a01b038b811685529252808320878503905590881682528120805486929061161d908490612ceb565b909155505060408051868152602081018690526001600160a01b03808916928a821692918616917fc3d58168c5ae7397731d063d5bbf3d657854427343f4c083240f7aacaa2d0f62910160405180910390a461167d828888888888611fa9565b50505050505050565b6001600160a01b0384166116e65760405162461bcd60e51b815260206004820152602160248201527f455243313135353a206d696e7420746f20746865207a65726f206164647265736044820152607360f81b6064820152608401610582565b336116f78160008761158c88611f50565b600084815260c9602090815260408083206001600160a01b038916845290915281208054859290611729908490612ceb565b909155505060408051858152602081018590526001600160a01b0380881692600092918516917fc3d58168c5ae7397731d063d5bbf3d657854427343f4c083240f7aacaa2d0f62910160405180910390a46107e381600087878787611fa9565b60408051808201909152601081526f181899199a1a9b1b9c1cb0b131b232b360811b60208201528151606091906000906117c4906002612d23565b6117cf906002612ceb565b6001600160401b038111156117f457634e487b7160e01b600052604160045260246000fd5b6040519080825280601f01601f19166020018201604052801561181e576020820181803683370190505b509050600360fc1b8160008151811061184757634e487b7160e01b600052603260045260246000fd5b60200101906001600160f81b031916908160001a905350600f60fb1b8160018151811061188457634e487b7160e01b600052603260045260246000fd5b60200101906001600160f81b031916908160001a90535060005b8451811015610a3c578260048683815181106118ca57634e487b7160e01b600052603260045260246000fd5b016020015182516001600160f81b031990911690911c60f81c90811061190057634e487b7160e01b600052603260045260246000fd5b01602001516001600160f81b0319168261191b836002612d23565b611926906002612ceb565b8151811061194457634e487b7160e01b600052603260045260246000fd5b60200101906001600160f81b031916908160001a9053508285828151811061197c57634e487b7160e01b600052603260045260246000fd5b602091010151815160f89190911c600f169081106119aa57634e487b7160e01b600052603260045260246000fd5b01602001516001600160f81b031916826119c5836002612d23565b6119d0906003612ceb565b815181106119ee57634e487b7160e01b600052603260045260246000fd5b60200101906001600160f81b031916908160001a90535080611a0f81612dd5565b91505061189e565b6001600160a01b038516611aa257611a4a84846000815181106109f457634e487b7160e01b600052603260045260246000fd5b15611aa25760405162461bcd60e51b815260206004820152602260248201527f5465616d3a204d656d6265722f4d656d6265727320616c726561647920616464604482015261195960f21b6064820152608401610582565b6001600160a01b038416611b24576000611ad786856000815181106109f457634e487b7160e01b600052603260045260246000fd5b11611b245760405162461bcd60e51b815260206004820152601f60248201527f5465616d3a204d656d6265722f4d656d62657273206e6f7420657869737473006044820152606401610582565b6001600160a01b03851615801590611b4457506001600160a01b03841615155b156111ba5760405162461bcd60e51b815260206004820152602d60248201527f5465616d3a205472616e73666572206f66207465616d206f776e65727368697060448201526c081a5cc818589bdd5b99185b99609a1b6064820152608401610582565b6001600160a01b0384163b156111ba5760405163bc197c8160e01b81526001600160a01b0385169063bc197c8190611beb90899089908890889088906004016129fe565b602060405180830381600087803b158015611c0557600080fd5b505af1925050508015611c35575060408051601f3d908101601f19168201909252611c32918101906126ab565b60015b611ce257611c41612e1c565b806308c379a01415611c7b5750611c56612e33565b80611c615750611c7d565b8060405162461bcd60e51b81526004016105829190612ad9565b505b60405162461bcd60e51b815260206004820152603460248201527f455243313135353a207472616e7366657220746f206e6f6e20455243313135356044820152732932b1b2b4bb32b91034b6b83632b6b2b73a32b960611b6064820152608401610582565b6001600160e01b0319811663bc197c8160e01b1461167d5760405162461bcd60e51b815260040161058290612b59565b6001600160a01b0381163b611d7f5760405162461bcd60e51b815260206004820152602d60248201527f455243313936373a206e657720696d706c656d656e746174696f6e206973206e60448201526c1bdd08184818dbdb9d1c9858dd609a1b6064820152608401610582565b600080516020612ed383398151915280546001600160a01b0319166001600160a01b0392909216919091179055565b611db783612073565b600082511180611dc45750805b15610e0657610c0d83836120b3565b6001600160a01b038316611e355760405162461bcd60e51b815260206004820152602360248201527f455243313135353a206275726e2066726f6d20746865207a65726f206164647260448201526265737360e81b6064820152608401610582565b33611e6481856000611e4687611f50565b611e4f87611f50565b60405180602001604052806000815250611a17565b600083815260c9602090815260408083206001600160a01b038816845290915290205482811015611ee35760405162461bcd60e51b8152602060048201526024808201527f455243313135353a206275726e20616d6f756e7420657863656564732062616c604482015263616e636560e01b6064820152608401610582565b600084815260c9602090815260408083206001600160a01b03898116808652918452828520888703905582518981529384018890529092908616917fc3d58168c5ae7397731d063d5bbf3d657854427343f4c083240f7aacaa2d0f62910160405180910390a45050505050565b60408051600180825281830190925260609160009190602080830190803683370190505090508281600081518110611f9857634e487b7160e01b600052603260045260246000fd5b602090810291909101015292915050565b6001600160a01b0384163b156111ba5760405163f23a6e6160e01b81526001600160a01b0385169063f23a6e6190611fed9089908990889088908890600401612a5c565b602060405180830381600087803b15801561200757600080fd5b505af1925050508015612037575060408051601f3d908101601f19168201909252612034918101906126ab565b60015b61204357611c41612e1c565b6001600160e01b0319811663f23a6e6160e01b1461167d5760405162461bcd60e51b815260040161058290612b59565b61207c81611d12565b6040516001600160a01b038216907fbc7cd75a20ee27fd9adebab32041f755214dbc6bffa90cc0225b39da2e5c2d3b90600090a250565b60606001600160a01b0383163b61211b5760405162461bcd60e51b815260206004820152602660248201527f416464726573733a2064656c65676174652063616c6c20746f206e6f6e2d636f6044820152651b9d1c9858dd60d21b6064820152608401610582565b600080846001600160a01b03168460405161213691906128da565b600060405180830381855af49150503d8060008114612171576040519150601f19603f3d011682016040523d82523d6000602084013e612176565b606091505b50915091506105118282604051806060016040528060278152602001612f3360279139606083156121a85750816121d2565b8251156121b85782518084602001fd5b8160405162461bcd60e51b81526004016105829190612ad9565b9392505050565b8280546121e590612d6e565b90600052602060002090601f016020900481019282612207576000855561224d565b82601f1061222057805160ff191683800117855561224d565b8280016001018555821561224d579182015b8281111561224d578251825591602001919060010190612232565b5061225992915061225d565b5090565b5b80821115612259576000815560010161225e565b80356001600160a01b038116811461228957600080fd5b919050565b600082601f83011261229e578081fd5b813560206122ab82612cc8565b6040516122b88282612da9565b8381528281019150858301600585901b870184018810156122d7578586fd5b855b858110156122fc576122ea82612272565b845292840192908401906001016122d9565b5090979650505050505050565b600082601f830112612319578081fd5b8135602061232682612cc8565b6040516123338282612da9565b8381528281019150858301600585901b87018401881015612352578586fd5b855b858110156122fc57813584529284019290840190600101612354565b600082601f830112612380578081fd5b81356001600160401b0381111561239957612399612e06565b6040516123b0601f8301601f191660200182612da9565b8181528460208386010111156123c4578283fd5b816020850160208301379081016020019190915292915050565b6000602082840312156123ef578081fd5b6121d282612272565b6000806040838503121561240a578081fd5b61241383612272565b915061242160208401612272565b90509250929050565b600080600080600060a08688031215612441578081fd5b61244a86612272565b945061245860208701612272565b935060408601356001600160401b0380821115612473578283fd5b61247f89838a01612309565b94506060880135915080821115612494578283fd5b6124a089838a01612309565b935060808801359150808211156124b5578283fd5b506124c288828901612370565b9150509295509295909350565b600080600080600060a086880312156124e6578081fd5b6124ef86612272565b94506124fd60208701612272565b9350604086013592506060860135915060808601356001600160401b03811115612525578182fd5b6124c288828901612370565b60008060408385031215612543578182fd5b61254c83612272565b915060208301358015158114612560578182fd5b809150509250929050565b6000806040838503121561257d578182fd5b61258683612272565b915060208301356001600160401b038111156125a0578182fd5b6125ac85828601612370565b9150509250929050565b600080604083850312156125c8578182fd5b6125d183612272565b946020939093013593505050565b600080604083850312156125f1578081fd5b82356001600160401b0380821115612607578283fd5b6126138683870161228e565b93506020850135915080821115612628578283fd5b506125ac85828601612309565b60008060408385031215612647578182fd5b82356001600160401b0381111561265c578283fd5b6126688582860161228e565b95602094909401359450505050565b600060208284031215612688578081fd5b5051919050565b6000602082840312156126a0578081fd5b81356121d281612ebc565b6000602082840312156126bc578081fd5b81516121d281612ebc565b600080600080608085870312156126dc578182fd5b84356001600160401b03808211156126f2578384fd5b6126fe88838901612370565b955061270c60208801612272565b94506040870135915080821115612721578384fd5b61272d8883890161228e565b93506060870135915080821115612742578283fd5b5061274f87828801612370565b91505092959194509250565b60008060006060848603121561276f578081fd5b83356001600160401b0380821115612785578283fd5b61279187838801612370565b945060208601359150808211156127a6578283fd5b506127b386828701612370565b925050604084013590509250925092565b6000602082840312156127d5578081fd5b5035919050565b6000815180845260208085019450808401835b8381101561280b578151875295820195908201906001016127ef565b509495945050505050565b6000815180845261282e816020860160208601612d42565b601f01601f19169290920160200192915050565b8054600090600181811c908083168061285c57607f831692505b602080841082141561287c57634e487b7160e01b86526022600452602486fd5b81801561289057600181146128a1576128ce565b60ff198616895284890196506128ce565b60008881526020902060005b868110156128c65781548b8201529085019083016128ad565b505084890196505b50505050505092915050565b600082516128ec818460208701612d42565b9190910192915050565b693d913730b6b2911d101160b11b81526000612915600a830187612842565b6e1116101131b932b0ba37b9111d101160891b8152855161293d81600f840160208a01612d42565b6d1116101136b4b73a32b9111d101160911b600f9290910191820152845161296c81601d840160208901612d42565b72111610113232b9b1b934b83a34b7b7111d101160691b601d929091019182015261299a6030820185612842565b601160f91b8152607d60f81b6001820152600201979650505050505050565b7f646174613a6170706c69636174696f6e2f6a736f6e3b6261736536342c0000008152600082516129f181601d850160208701612d42565b91909101601d0192915050565b6001600160a01b0386811682528516602082015260a060408201819052600090612a2a908301866127dc565b8281036060840152612a3c81866127dc565b90508281036080840152612a508185612816565b98975050505050505050565b6001600160a01b03868116825285166020820152604081018490526060810183905260a060808201819052600090612a9690830184612816565b979650505050505050565b6020815260006121d260208301846127dc565b604081526000612ac760408301856127dc565b828103602084015261051181856127dc565b6020815260006121d26020830184612816565b606081526000612aff6060830186612816565b8281036020840152612b118186612816565b915050826040830152949350505050565b6020808252601a908201527f5465616d3a206f6e6c792073656c6563746564206d696e746572000000000000604082015260600190565b60208082526028908201527f455243313135353a204552433131353552656365697665722072656a656374656040820152676420746f6b656e7360c01b606082015260800190565b6020808252602c908201527f46756e6374696f6e206d7573742062652063616c6c6564207468726f7567682060408201526b19195b1959d85d1958d85b1b60a21b606082015260800190565b6020808252602c908201527f46756e6374696f6e206d7573742062652063616c6c6564207468726f7567682060408201526b6163746976652070726f787960a01b606082015260800190565b60208082526025908201527f455243313135353a207472616e7366657220746f20746865207a65726f206164604082015264647265737360d81b606082015260800190565b6020808252602a908201527f455243313135353a20696e73756666696369656e742062616c616e636520666f60408201526939103a3930b739b332b960b11b606082015260800190565b60006001600160401b03821115612ce157612ce1612e06565b5060051b60200190565b60008219821115612cfe57612cfe612df0565b500190565b600082612d1e57634e487b7160e01b81526012600452602481fd5b500490565b6000816000190483118215151615612d3d57612d3d612df0565b500290565b60005b83811015612d5d578181015183820152602001612d45565b83811115610c0d5750506000910152565b600181811c90821680612d8257607f821691505b60208210811415612da357634e487b7160e01b600052602260045260246000fd5b50919050565b601f8201601f191681016001600160401b0381118282101715612dce57612dce612e06565b6040525050565b6000600019821415612de957612de9612df0565b5060010190565b634e487b7160e01b600052601160045260246000fd5b634e487b7160e01b600052604160045260246000fd5b600060033d1115610bc657600481823e5160e01c90565b600060443d1015612e415790565b6040516003193d81016004833e81513d6001600160401b038160248401118184111715612e7057505050505090565b8285019150815181811115612e885750505050505090565b843d8701016020828501011115612ea25750505050505090565b612eb160208286010187612da9565b509095945050505050565b6001600160e01b0319811681146108c757600080fdfe360894a13ba1a3210667c828492db98dca3e2076cc3735a920a3ca505d382bbc4142434445464748494a4b4c4d4e4f505152535455565758595a6162636465666768696a6b6c6d6e6f707172737475767778797a303132333435363738392b2f416464726573733a206c6f772d6c6576656c2064656c65676174652063616c6c206661696c6564a2646970667358221220c81ca6b63eceed971f7366a23ece3e5a40838b81f8ef25ed267b25cd2e24f42f64736f6c63430008040033",
  "devdoc": {
    "kind": "dev",
    "methods": {
      "balanceOf(address,uint256)": {
        "details": "See {IERC1155-balanceOf}. Requirements: - `account` cannot be the zero address."
      },
      "balanceOfBatch(address[],uint256[])": {
        "details": "See {IERC1155-balanceOfBatch}. Requirements: - `accounts` and `ids` must have the same length."
      },
      "isApprovedForAll(address,address)": {
        "details": "See {IERC1155-isApprovedForAll}."
      },
      "proxiableUUID()": {
        "details": "Implementation of the ERC1822 {proxiableUUID} function. This returns the storage slot used by the implementation. It is used to validate that the this implementation remains valid after an upgrade. IMPORTANT: A proxy pointing at a proxiable contract should not be considered proxiable itself, because this risks bricking a proxy that upgrades to it, by delegating to itself until out of gas. Thus it is critical that this function revert if invoked through a proxy. This is guaranteed by the `notDelegated` modifier."
      },
      "safeBatchTransferFrom(address,address,uint256[],uint256[],bytes)": {
        "details": "See {IERC1155-safeBatchTransferFrom}."
      },
      "safeTransferFrom(address,address,uint256,uint256,bytes)": {
        "details": "See {IERC1155-safeTransferFrom}."
      },
      "setApprovalForAll(address,bool)": {
        "details": "See {IERC1155-setApprovalForAll}."
      },
      "supportsInterface(bytes4)": {
        "details": "See {IERC165-supportsInterface}."
      },
      "upgradeTo(address)": {
        "details": "Upgrade the implementation of the proxy to `newImplementation`. Calls {_authorizeUpgrade}. Emits an {Upgraded} event."
      },
      "upgradeToAndCall(address,bytes)": {
        "details": "Upgrade the implementation of the proxy to `newImplementation`, and subsequently execute the function call encoded in `data`. Calls {_authorizeUpgrade}. Emits an {Upgraded} event."
      }
    },
    "version": 1
  },
  "userdoc": {
    "kind": "user",
    "methods": {},
    "version": 1
  },
  "storageLayout": {
    "storage": [
      {
        "astId": 2736,
        "contract": "contracts/Team.sol:Team",
        "label": "_initialized",
        "offset": 0,
        "slot": "0",
        "type": "t_bool"
      },
      {
        "astId": 2739,
        "contract": "contracts/Team.sol:Team",
        "label": "_initializing",
        "offset": 1,
        "slot": "0",
        "type": "t_bool"
      },
      {
        "astId": 2718,
        "contract": "contracts/Team.sol:Team",
        "label": "__gap",
        "offset": 0,
        "slot": "1",
        "type": "t_array(t_uint256)50_storage"
      },
      {
        "astId": 2938,
        "contract": "contracts/Team.sol:Team",
        "label": "__gap",
        "offset": 0,
        "slot": "51",
        "type": "t_array(t_uint256)50_storage"
      },
      {
        "astId": 7651,
        "contract": "contracts/Team.sol:Team",
        "label": "__gap",
        "offset": 0,
        "slot": "101",
        "type": "t_array(t_uint256)50_storage"
      },
      {
        "astId": 8803,
        "contract": "contracts/Team.sol:Team",
        "label": "__gap",
        "offset": 0,
        "slot": "151",
        "type": "t_array(t_uint256)50_storage"
      },
      {
        "astId": 2968,
        "contract": "contracts/Team.sol:Team",
        "label": "_balances",
        "offset": 0,
        "slot": "201",
        "type": "t_mapping(t_uint256,t_mapping(t_address,t_uint256))"
      },
      {
        "astId": 2974,
        "contract": "contracts/Team.sol:Team",
        "label": "_operatorApprovals",
        "offset": 0,
        "slot": "202",
        "type": "t_mapping(t_address,t_mapping(t_address,t_bool))"
      },
      {
        "astId": 2976,
        "contract": "contracts/Team.sol:Team",
        "label": "_uri",
        "offset": 0,
        "slot": "203",
        "type": "t_string_storage"
      },
      {
        "astId": 4056,
        "contract": "contracts/Team.sol:Team",
        "label": "__gap",
        "offset": 0,
        "slot": "204",
        "type": "t_array(t_uint256)47_storage"
      },
      {
        "astId": 20224,
        "contract": "contracts/Team.sol:Team",
        "label": "creatorOf",
        "offset": 0,
        "slot": "251",
        "type": "t_mapping(t_uint256,t_address)"
      },
      {
        "astId": 20228,
        "contract": "contracts/Team.sol:Team",
        "label": "minterOf",
        "offset": 0,
        "slot": "252",
        "type": "t_mapping(t_uint256,t_address)"
      },
      {
        "astId": 20232,
        "contract": "contracts/Team.sol:Team",
        "label": "nameOf",
        "offset": 0,
        "slot": "253",
        "type": "t_mapping(t_uint256,t_string_storage)"
      },
      {
        "astId": 20236,
        "contract": "contracts/Team.sol:Team",
        "label": "descriptionOf",
        "offset": 0,
        "slot": "254",
        "type": "t_mapping(t_uint256,t_string_storage)"
      },
      {
        "astId": 20239,
        "contract": "contracts/Team.sol:Team",
        "label": "_tokenIds",
        "offset": 0,
        "slot": "255",
        "type": "t_struct(Counter)13975_storage"
      }
    ],
    "types": {
      "t_address": {
        "encoding": "inplace",
        "label": "address",
        "numberOfBytes": "20"
      },
      "t_array(t_uint256)47_storage": {
        "base": "t_uint256",
        "encoding": "inplace",
        "label": "uint256[47]",
        "numberOfBytes": "1504"
      },
      "t_array(t_uint256)50_storage": {
        "base": "t_uint256",
        "encoding": "inplace",
        "label": "uint256[50]",
        "numberOfBytes": "1600"
      },
      "t_bool": {
        "encoding": "inplace",
        "label": "bool",
        "numberOfBytes": "1"
      },
      "t_mapping(t_address,t_bool)": {
        "encoding": "mapping",
        "key": "t_address",
        "label": "mapping(address => bool)",
        "numberOfBytes": "32",
        "value": "t_bool"
      },
      "t_mapping(t_address,t_mapping(t_address,t_bool))": {
        "encoding": "mapping",
        "key": "t_address",
        "label": "mapping(address => mapping(address => bool))",
        "numberOfBytes": "32",
        "value": "t_mapping(t_address,t_bool)"
      },
      "t_mapping(t_address,t_uint256)": {
        "encoding": "mapping",
        "key": "t_address",
        "label": "mapping(address => uint256)",
        "numberOfBytes": "32",
        "value": "t_uint256"
      },
      "t_mapping(t_uint256,t_address)": {
        "encoding": "mapping",
        "key": "t_uint256",
        "label": "mapping(uint256 => address)",
        "numberOfBytes": "32",
        "value": "t_address"
      },
      "t_mapping(t_uint256,t_mapping(t_address,t_uint256))": {
        "encoding": "mapping",
        "key": "t_uint256",
        "label": "mapping(uint256 => mapping(address => uint256))",
        "numberOfBytes": "32",
        "value": "t_mapping(t_address,t_uint256)"
      },
      "t_mapping(t_uint256,t_string_storage)": {
        "encoding": "mapping",
        "key": "t_uint256",
        "label": "mapping(uint256 => string)",
        "numberOfBytes": "32",
        "value": "t_string_storage"
      },
      "t_string_storage": {
        "encoding": "bytes",
        "label": "string",
        "numberOfBytes": "32"
      },
      "t_struct(Counter)13975_storage": {
        "encoding": "inplace",
        "label": "struct Counters.Counter",
        "members": [
          {
            "astId": 13974,
            "contract": "contracts/Team.sol:Team",
            "label": "_value",
            "offset": 0,
            "slot": "0",
            "type": "t_uint256"
          }
        ],
        "numberOfBytes": "32"
      },
      "t_uint256": {
        "encoding": "inplace",
        "label": "uint256",
        "numberOfBytes": "32"
      }
    }
  }
}