{
  "address": "0xF7EE92afc1A133264Ff85616e4aE39147CF79B5E",
  "abi": [
    {
      "anonymous": false,
      "inputs": [
        {
          "indexed": false,
          "internalType": "address",
          "name": "previousAdmin",
          "type": "address"
        },
        {
          "indexed": false,
          "internalType": "address",
          "name": "newAdmin",
          "type": "address"
        }
      ],
      "name": "AdminChanged",
      "type": "event"
    },
    {
      "anonymous": false,
      "inputs": [
        {
          "indexed": true,
          "internalType": "address",
          "name": "account",
          "type": "address"
        },
        {
          "indexed": true,
          "internalType": "address",
          "name": "operator",
          "type": "address"
        },
        {
          "indexed": false,
          "internalType": "bool",
          "name": "approved",
          "type": "bool"
        }
      ],
      "name": "ApprovalForAll",
      "type": "event"
    },
    {
      "anonymous": false,
      "inputs": [
        {
          "indexed": true,
          "internalType": "address",
          "name": "beacon",
          "type": "address"
        }
      ],
      "name": "BeaconUpgraded",
      "type": "event"
    },
    {
      "anonymous": false,
      "inputs": [
        {
          "indexed": false,
          "internalType": "string",
          "name": "name",
          "type": "string"
        },
        {
          "indexed": false,
          "internalType": "string",
          "name": "description",
          "type": "string"
        },
        {
          "indexed": false,
          "internalType": "uint256",
          "name": "tokenId",
          "type": "uint256"
        }
      ],
      "name": "EditInfo",
      "type": "event"
    },
    {
      "anonymous": false,
      "inputs": [
        {
          "indexed": true,
          "internalType": "address",
          "name": "operator",
          "type": "address"
        },
        {
          "indexed": true,
          "internalType": "address",
          "name": "from",
          "type": "address"
        },
        {
          "indexed": true,
          "internalType": "address",
          "name": "to",
          "type": "address"
        },
        {
          "indexed": false,
          "internalType": "uint256[]",
          "name": "ids",
          "type": "uint256[]"
        },
        {
          "indexed": false,
          "internalType": "uint256[]",
          "name": "values",
          "type": "uint256[]"
        }
      ],
      "name": "TransferBatch",
      "type": "event"
    },
    {
      "anonymous": false,
      "inputs": [
        {
          "indexed": true,
          "internalType": "address",
          "name": "operator",
          "type": "address"
        },
        {
          "indexed": true,
          "internalType": "address",
          "name": "from",
          "type": "address"
        },
        {
          "indexed": true,
          "internalType": "address",
          "name": "to",
          "type": "address"
        },
        {
          "indexed": false,
          "internalType": "uint256",
          "name": "id",
          "type": "uint256"
        },
        {
          "indexed": false,
          "internalType": "uint256",
          "name": "value",
          "type": "uint256"
        }
      ],
      "name": "TransferSingle",
      "type": "event"
    },
    {
      "anonymous": false,
      "inputs": [
        {
          "indexed": false,
          "internalType": "string",
          "name": "value",
          "type": "string"
        },
        {
          "indexed": true,
          "internalType": "uint256",
          "name": "id",
          "type": "uint256"
        }
      ],
      "name": "URI",
      "type": "event"
    },
    {
      "anonymous": false,
      "inputs": [
        {
          "indexed": true,
          "internalType": "address",
          "name": "implementation",
          "type": "address"
        }
      ],
      "name": "Upgraded",
      "type": "event"
    },
    {
      "inputs": [
        {
          "internalType": "address[]",
          "name": "members",
          "type": "address[]"
        },
        {
          "internalType": "uint256",
          "name": "tokenId",
          "type": "uint256"
        }
      ],
      "name": "addMembers",
      "outputs": [],
      "stateMutability": "nonpayable",
      "type": "function"
    },
    {
      "inputs": [
        {
          "internalType": "string",
          "name": "name",
          "type": "string"
        },
        {
          "internalType": "address",
          "name": "minter",
          "type": "address"
        },
        {
          "internalType": "address[]",
          "name": "members",
          "type": "address[]"
        },
        {
          "internalType": "string",
          "name": "description",
          "type": "string"
        }
      ],
      "name": "addTeam",
      "outputs": [
        {
          "internalType": "uint256",
          "name": "",
          "type": "uint256"
        }
      ],
      "stateMutability": "nonpayable",
      "type": "function"
    },
    {
      "inputs": [
        {
          "internalType": "address",
          "name": "account",
          "type": "address"
        },
        {
          "internalType": "uint256",
          "name": "id",
          "type": "uint256"
        }
      ],
      "name": "balanceOf",
      "outputs": [
        {
          "internalType": "uint256",
          "name": "",
          "type": "uint256"
        }
      ],
      "stateMutability": "view",
      "type": "function"
    },
    {
      "inputs": [
        {
          "internalType": "address[]",
          "name": "accounts",
          "type": "address[]"
        },
        {
          "internalType": "uint256[]",
          "name": "ids",
          "type": "uint256[]"
        }
      ],
      "name": "balanceOfBatch",
      "outputs": [
        {
          "internalType": "uint256[]",
          "name": "",
          "type": "uint256[]"
        }
      ],
      "stateMutability": "view",
      "type": "function"
    },
    {
      "inputs": [
        {
          "internalType": "uint256",
          "name": "",
          "type": "uint256"
        }
      ],
      "name": "creatorOf",
      "outputs": [
        {
          "internalType": "address",
          "name": "",
          "type": "address"
        }
      ],
      "stateMutability": "view",
      "type": "function"
    },
    {
      "inputs": [
        {
          "internalType": "uint256",
          "name": "",
          "type": "uint256"
        }
      ],
      "name": "descriptionOf",
      "outputs": [
        {
          "internalType": "string",
          "name": "",
          "type": "string"
        }
      ],
      "stateMutability": "view",
      "type": "function"
    },
    {
      "inputs": [],
      "name": "initialize",
      "outputs": [],
      "stateMutability": "nonpayable",
      "type": "function"
    },
    {
      "inputs": [
        {
          "internalType": "address",
          "name": "account",
          "type": "address"
        },
        {
          "internalType": "address",
          "name": "operator",
          "type": "address"
        }
      ],
      "name": "isApprovedForAll",
      "outputs": [
        {
          "internalType": "bool",
          "name": "",
          "type": "bool"
        }
      ],
      "stateMutability": "view",
      "type": "function"
    },
    {
      "inputs": [
        {
          "internalType": "uint256",
          "name": "",
          "type": "uint256"
        }
      ],
      "name": "minterOf",
      "outputs": [
        {
          "internalType": "address",
          "name": "",
          "type": "address"
        }
      ],
      "stateMutability": "view",
      "type": "function"
    },
    {
      "inputs": [
        {
          "internalType": "uint256",
          "name": "",
          "type": "uint256"
        }
      ],
      "name": "nameOf",
      "outputs": [
        {
          "internalType": "string",
          "name": "",
          "type": "string"
        }
      ],
      "stateMutability": "view",
      "type": "function"
    },
    {
      "inputs": [],
      "name": "proxiableUUID",
      "outputs": [
        {
          "internalType": "bytes32",
          "name": "",
          "type": "bytes32"
        }
      ],
      "stateMutability": "view",
      "type": "function"
    },
    {
      "inputs": [
        {
          "internalType": "address[]",
          "name": "members",
          "type": "address[]"
        },
        {
          "internalType": "uint256",
          "name": "tokenId",
          "type": "uint256"
        }
      ],
      "name": "removeMembers",
      "outputs": [],
      "stateMutability": "nonpayable",
      "type": "function"
    },
    {
      "inputs": [
        {
          "internalType": "address",
          "name": "from",
          "type": "address"
        },
        {
          "internalType": "address",
          "name": "to",
          "type": "address"
        },
        {
          "internalType": "uint256[]",
          "name": "ids",
          "type": "uint256[]"
        },
        {
          "internalType": "uint256[]",
          "name": "amounts",
          "type": "uint256[]"
        },
        {
          "internalType": "bytes",
          "name": "data",
          "type": "bytes"
        }
      ],
      "name": "safeBatchTransferFrom",
      "outputs": [],
      "stateMutability": "nonpayable",
      "type": "function"
    },
    {
      "inputs": [
        {
          "internalType": "address",
          "name": "from",
          "type": "address"
        },
        {
          "internalType": "address",
          "name": "to",
          "type": "address"
        },
        {
          "internalType": "uint256",
          "name": "id",
          "type": "uint256"
        },
        {
          "internalType": "uint256",
          "name": "amount",
          "type": "uint256"
        },
        {
          "internalType": "bytes",
          "name": "data",
          "type": "bytes"
        }
      ],
      "name": "safeTransferFrom",
      "outputs": [],
      "stateMutability": "nonpayable",
      "type": "function"
    },
    {
      "inputs": [
        {
          "internalType": "address",
          "name": "operator",
          "type": "address"
        },
        {
          "internalType": "bool",
          "name": "approved",
          "type": "bool"
        }
      ],
      "name": "setApprovalForAll",
      "outputs": [],
      "stateMutability": "nonpayable",
      "type": "function"
    },
    {
      "inputs": [
        {
          "internalType": "string",
          "name": "name",
          "type": "string"
        },
        {
          "internalType": "string",
          "name": "description",
          "type": "string"
        },
        {
          "internalType": "uint256",
          "name": "tokenId",
          "type": "uint256"
        }
      ],
      "name": "setInfo",
      "outputs": [],
      "stateMutability": "nonpayable",
      "type": "function"
    },
    {
      "inputs": [
        {
          "internalType": "bytes4",
          "name": "interfaceId",
          "type": "bytes4"
        }
      ],
      "name": "supportsInterface",
      "outputs": [
        {
          "internalType": "bool",
          "name": "",
          "type": "bool"
        }
      ],
      "stateMutability": "view",
      "type": "function"
    },
    {
      "inputs": [
        {
          "internalType": "address",
          "name": "newImplementation",
          "type": "address"
        }
      ],
      "name": "upgradeTo",
      "outputs": [],
      "stateMutability": "nonpayable",
      "type": "function"
    },
    {
      "inputs": [
        {
          "internalType": "address",
          "name": "newImplementation",
          "type": "address"
        },
        {
          "internalType": "bytes",
          "name": "data",
          "type": "bytes"
        }
      ],
      "name": "upgradeToAndCall",
      "outputs": [],
      "stateMutability": "payable",
      "type": "function"
    },
    {
      "inputs": [
        {
          "internalType": "uint256",
          "name": "_id",
          "type": "uint256"
        }
      ],
      "name": "uri",
      "outputs": [
        {
          "internalType": "string",
          "name": "",
          "type": "string"
        }
      ],
      "stateMutability": "view",
      "type": "function"
    }
  ],
  "transactionHash": "0x0e100158299db513767426fb4329b221c03b48d9d49d28fdf1a2e95044bd9780",
  "args": [],
  "numDeployments": 1,
  "solcInputHash": "86dfe1265a8c9c9d3960345b0927392b",
  "bytecode": "0x60a06040523060601b60805234801561001757600080fd5b5060805160601c613015610052600039600081816108150152818161085501528181610a3701528181610a770152610b0a01526130156000f3fe60806040526004361061011d5760003560e01c806352d1902d116100a05780639e942ace116100645780639e942ace1461034c578063a22cb46514610382578063b9e2b544146103a2578063e985e9c5146103c2578063f242432a1461040b57600080fd5b806352d1902d14610294578063589a1743146102a95780636c2d1852146102f75780638129fc1c146103175780638304fc251461032c57600080fd5b80632eb2c2d6116100e75780632eb2c2d6146101f25780633659cfe6146102145780633e0fb267146102345780634e1273f4146102545780634f1ef2861461028157600080fd5b806253153b14610122578062fdd58e1461015557806301ffc9a714610175578063051a2664146101a55780630e89341c146101d2575b600080fd5b34801561012e57600080fd5b5061014261013d36600461268d565b61042b565b6040519081526020015b60405180910390f35b34801561016157600080fd5b50610142610170366004612573565b61053a565b34801561018157600080fd5b50610195610190366004612653565b6105d3565b604051901515815260200161014c565b3480156101b157600080fd5b506101c56101c0366004612791565b610625565b60405161014c9190612aaa565b3480156101de57600080fd5b506101c56101ed366004612791565b6106bf565b3480156101fe57600080fd5b5061021261020d3660046123dd565b610773565b005b34801561022057600080fd5b5061021261022f36600461238f565b61080a565b34801561024057600080fd5b506101c561024f366004612791565b6108ea565b34801561026057600080fd5b5061027461026f36600461259d565b610903565b60405161014c9190612a72565b61021261028f366004612526565b610a2c565b3480156102a057600080fd5b50610142610afd565b3480156102b557600080fd5b506102df6102c4366004612791565b60fb602052600090815260409020546001600160a01b031681565b6040516001600160a01b03909116815260200161014c565b34801561030357600080fd5b506102126103123660046125f6565b610bb1565b34801561032357600080fd5b50610212610bfb565b34801561033857600080fd5b506102126103473660046125f6565b610c84565b34801561035857600080fd5b506102df610367366004612791565b60fc602052600090815260409020546001600160a01b031681565b34801561038e57600080fd5b5061021261039d3660046124ea565b610cc8565b3480156103ae57600080fd5b506102126103bd366004612725565b610cd3565b3480156103ce57600080fd5b506101956103dd3660046123aa565b6001600160a01b03918216600090815260ca6020908152604080832093909416825291909152205460ff1690565b34801561041757600080fd5b50610212610426366004612486565b610d8f565b600061043b60ff80546001019055565b3360fb600061044960ff5490565b815260200190815260200160002060006101000a8154816001600160a01b0302191690836001600160a01b031602179055508360fc600061048960ff5490565b815260200190815260200160002060006101000a8154816001600160a01b0302191690836001600160a01b031602179055508460fd60006104c960ff5490565b815260200190815260200160002090805190602001906104ea92919061217f565b508160fe60006104f960ff5490565b8152602001908152602001600020908051906020019061051a92919061217f565b5061052d8361052860ff5490565b610e16565b60ff545b95945050505050565b60006001600160a01b0383166105ab5760405162461bcd60e51b815260206004820152602b60248201527f455243313135353a2062616c616e636520717565727920666f7220746865207a60448201526a65726f206164647265737360a81b60648201526084015b60405180910390fd5b50600090815260c9602090815260408083206001600160a01b03949094168352929052205490565b60006001600160e01b03198216636cdb3d1360e11b148061060457506001600160e01b031982166303a24d0760e21b145b8061061f57506301ffc9a760e01b6001600160e01b03198316145b92915050565b60fd602052600090815260409020805461063e90612dda565b80601f016020809104026020016040519081016040528092919081815260200182805461066a90612dda565b80156106b75780601f1061068c576101008083540402835291602001916106b7565b820191906000526020600020905b81548152906001019060200180831161069a57829003601f168201915b505050505081565b600081815260fd6020908152604080832060fb90925282205460609291906106ef906001600160a01b0316610e6e565b600085815260fc6020526040902054610710906001600160a01b0316610e6e565b600086815260fe602090815260409182902091516107329594939291016128c7565b604051602081830303815290604052905061074c81610ea6565b60405160200161075c919061298a565b604051602081830303815290604052915050919050565b6001600160a01b03851633148061078f575061078f85336103dd565b6107f65760405162461bcd60e51b815260206004820152603260248201527f455243313135353a207472616e736665722063616c6c6572206973206e6f74206044820152711bdddb995c881b9bdc88185c1c1c9bdd995960721b60648201526084016105a2565b610803858585858561100d565b5050505050565b306001600160a01b037f00000000000000000000000000000000000000000000000000000000000000001614156108535760405162461bcd60e51b81526004016105a290612b72565b7f00000000000000000000000000000000000000000000000000000000000000006001600160a01b031661089c600080516020612f59833981519152546001600160a01b031690565b6001600160a01b0316146108c25760405162461bcd60e51b81526004016105a290612bbe565b6108cb816111fb565b604080516000808252602082019092526108e79183919061126d565b50565b60fe602052600090815260409020805461063e90612dda565b606081518351146109685760405162461bcd60e51b815260206004820152602960248201527f455243313135353a206163636f756e747320616e6420696473206c656e677468604482015268040dad2e6dac2e8c6d60bb1b60648201526084016105a2565b600083516001600160401b0381111561098357610983612e88565b6040519080825280602002602001820160405280156109ac578160200160208202803683370190505b50905060005b8451811015610a24576109f78582815181106109d0576109d0612e72565b60200260200101518583815181106109ea576109ea612e72565b602002602001015161053a565b828281518110610a0957610a09612e72565b6020908102919091010152610a1d81612e41565b90506109b2565b509392505050565b306001600160a01b037f0000000000000000000000000000000000000000000000000000000000000000161415610a755760405162461bcd60e51b81526004016105a290612b72565b7f00000000000000000000000000000000000000000000000000000000000000006001600160a01b0316610abe600080516020612f59833981519152546001600160a01b031690565b6001600160a01b031614610ae45760405162461bcd60e51b81526004016105a290612bbe565b610aed826111fb565b610af98282600161126d565b5050565b6000306001600160a01b037f00000000000000000000000000000000000000000000000000000000000000001614610b9d5760405162461bcd60e51b815260206004820152603860248201527f555550535570677261646561626c653a206d757374206e6f742062652063616c60448201527f6c6564207468726f7567682064656c656761746563616c6c000000000000000060648201526084016105a2565b50600080516020612f598339815191525b90565b600081815260fc6020526040902054819033906001600160a01b03168114610beb5760405162461bcd60e51b81526004016105a290612af3565b610bf584846113e7565b50505050565b600054610100900460ff16610c165760005460ff1615610c1a565b303b155b610c365760405162461bcd60e51b81526004016105a290612c4f565b600054610100900460ff16158015610c58576000805461ffff19166101011790555b610c706040518060200160405280600081525061144b565b80156108e7576000805461ff001916905550565b600081815260fc6020526040902054819033906001600160a01b03168114610cbe5760405162461bcd60e51b81526004016105a290612af3565b610bf58484610e16565b610af933838361147b565b600081815260fc6020526040902054819033906001600160a01b03168114610d0d5760405162461bcd60e51b81526004016105a290612af3565b600083815260fd602090815260409091208651610d2c9288019061217f565b50600083815260fe602090815260409091208551610d4c9287019061217f565b507f9a9f1e87acdbebd6a43613eb3302ce8597ca8fd373aaf822705b2d7771f96cc1858585604051610d8093929190612abd565b60405180910390a15050505050565b6001600160a01b038516331480610dab5750610dab85336103dd565b610e095760405162461bcd60e51b815260206004820152602960248201527f455243313135353a2063616c6c6572206973206e6f74206f776e6572206e6f7260448201526808185c1c1c9bdd995960ba1b60648201526084016105a2565b610803858585858561155c565b60005b8251811015610e6957610e57838281518110610e3757610e37612e72565b60200260200101518360016040518060200160405280600081525061168c565b80610e6181612e41565b915050610e19565b505050565b604051606082811b6bffffffffffffffffffffffff191660208301529061061f9060340160405160208183030381529060405261178f565b6060815160001415610ec657505060408051602081019091526000815290565b6000604051806060016040528060408152602001612f796040913990506000600384516002610ef59190612d55565b610eff9190612d6d565b610f0a906004612d8f565b90506000610f19826020612d55565b6001600160401b03811115610f3057610f30612e88565b6040519080825280601f01601f191660200182016040528015610f5a576020820181803683370190505b509050818152600183018586518101602084015b81831015610fc85760039283018051603f601282901c811687015160f890811b8552600c83901c8216880151811b6001860152600683901c8216880151811b60028601529116860151901b93820193909352600401610f6e565b600389510660018114610fe25760028114610ff357610fff565b613d3d60f01b600119830152610fff565b603d60f81b6000198301525b509398975050505050505050565b815183511461106f5760405162461bcd60e51b815260206004820152602860248201527f455243313135353a2069647320616e6420616d6f756e7473206c656e677468206044820152670dad2e6dac2e8c6d60c31b60648201526084016105a2565b6001600160a01b0384166110955760405162461bcd60e51b81526004016105a290612c0a565b336110a481878787878761199f565b60005b845181101561118d5760008582815181106110c4576110c4612e72565b6020026020010151905060008583815181106110e2576110e2612e72565b602090810291909101810151600084815260c9835260408082206001600160a01b038e1683529093529190912054909150818110156111335760405162461bcd60e51b81526004016105a290612c9d565b600083815260c9602090815260408083206001600160a01b038e8116855292528083208585039055908b16825281208054849290611172908490612d55565b925050819055505050508061118690612e41565b90506110a7565b50846001600160a01b0316866001600160a01b0316826001600160a01b03167f4a39dc06d4c0dbc64b70af90fd698a233a518aa5d07e595d983b8c0526c8f7fb87876040516111dd929190612a85565b60405180910390a46111f3818787878787611b13565b505050505050565b600054610100900460ff166112165760005460ff161561121a565b303b155b6112365760405162461bcd60e51b81526004016105a290612c4f565b600054610100900460ff16158015611258576000805461ffff19166101011790555b8015610af9576000805461ff00191690555050565b7f4910fdfa16fed3260ed0e7147f7cc6da11a60208b5b9406d12a635614ffd91435460ff16156112a057610e6983611c7e565b826001600160a01b03166352d1902d6040518163ffffffff1660e01b815260040160206040518083038186803b1580156112d957600080fd5b505afa925050508015611309575060408051601f3d908101601f191682019092526113069181019061263a565b60015b61136c5760405162461bcd60e51b815260206004820152602e60248201527f45524331393637557067726164653a206e657720696d706c656d656e7461746960448201526d6f6e206973206e6f74205555505360901b60648201526084016105a2565b600080516020612f5983398151915281146113db5760405162461bcd60e51b815260206004820152602960248201527f45524331393637557067726164653a20756e737570706f727465642070726f786044820152681a58589b195555525160ba1b60648201526084016105a2565b50610e69838383611d1a565b60005b8251811015610e695761143983828151811061140857611408612e72565b60200260200101518361143486858151811061142657611426612e72565b60200260200101518661053a565b611d3f565b8061144381612e41565b9150506113ea565b600054610100900460ff166114725760405162461bcd60e51b81526004016105a290612ce7565b6108e781611ebc565b816001600160a01b0316836001600160a01b031614156114ef5760405162461bcd60e51b815260206004820152602960248201527f455243313135353a2073657474696e6720617070726f76616c20737461747573604482015268103337b91039b2b63360b91b60648201526084016105a2565b6001600160a01b03838116600081815260ca6020908152604080832094871680845294825291829020805460ff191686151590811790915591519182527f17307eab39ab6107e8899845ad3d59bd9653f200f220920489ca2b5937696c31910160405180910390a3505050565b6001600160a01b0384166115825760405162461bcd60e51b81526004016105a290612c0a565b336115a181878761159288611eec565b61159b88611eec565b8761199f565b600084815260c9602090815260408083206001600160a01b038a168452909152902054838110156115e45760405162461bcd60e51b81526004016105a290612c9d565b600085815260c9602090815260408083206001600160a01b038b8116855292528083208785039055908816825281208054869290611623908490612d55565b909155505060408051868152602081018690526001600160a01b03808916928a821692918616917fc3d58168c5ae7397731d063d5bbf3d657854427343f4c083240f7aacaa2d0f62910160405180910390a4611683828888888888611f37565b50505050505050565b6001600160a01b0384166116ec5760405162461bcd60e51b815260206004820152602160248201527f455243313135353a206d696e7420746f20746865207a65726f206164647265736044820152607360f81b60648201526084016105a2565b336116fd8160008761159288611eec565b600084815260c9602090815260408083206001600160a01b03891684529091528120805485929061172f908490612d55565b909155505060408051858152602081018590526001600160a01b0380881692600092918516917fc3d58168c5ae7397731d063d5bbf3d657854427343f4c083240f7aacaa2d0f62910160405180910390a461080381600087878787611f37565b60408051808201909152601081526f181899199a1a9b1b9c1cb0b131b232b360811b60208201528151606091906000906117ca906002612d8f565b6117d5906002612d55565b6001600160401b038111156117ec576117ec612e88565b6040519080825280601f01601f191660200182016040528015611816576020820181803683370190505b509050600360fc1b8160008151811061183157611831612e72565b60200101906001600160f81b031916908160001a905350600f60fb1b8160018151811061186057611860612e72565b60200101906001600160f81b031916908160001a90535060005b8451811015610a245782600486838151811061189857611898612e72565b016020015182516001600160f81b031990911690911c60f81c9081106118c0576118c0612e72565b01602001516001600160f81b031916826118db836002612d8f565b6118e6906002612d55565b815181106118f6576118f6612e72565b60200101906001600160f81b031916908160001a9053508285828151811061192057611920612e72565b602091010151815160f89190911c600f1690811061194057611940612e72565b01602001516001600160f81b0319168261195b836002612d8f565b611966906003612d55565b8151811061197657611976612e72565b60200101906001600160f81b031916908160001a9053508061199781612e41565b91505061187a565b6001600160a01b038516611a1c576119c484846000815181106109ea576109ea612e72565b15611a1c5760405162461bcd60e51b815260206004820152602260248201527f5465616d3a204d656d6265722f4d656d6265727320616c726561647920616464604482015261195960f21b60648201526084016105a2565b6001600160a01b038416611a90576000611a4386856000815181106109ea576109ea612e72565b11611a905760405162461bcd60e51b815260206004820152601f60248201527f5465616d3a204d656d6265722f4d656d62657273206e6f74206578697374730060448201526064016105a2565b6001600160a01b03851615801590611ab057506001600160a01b03841615155b156111f35760405162461bcd60e51b815260206004820152602d60248201527f5465616d3a205472616e73666572206f66207465616d206f776e65727368697060448201526c081a5cc818589bdd5b99185b99609a1b60648201526084016105a2565b6001600160a01b0384163b156111f35760405163bc197c8160e01b81526001600160a01b0385169063bc197c8190611b5790899089908890889088906004016129cf565b602060405180830381600087803b158015611b7157600080fd5b505af1925050508015611ba1575060408051601f3d908101601f19168201909252611b9e91810190612670565b60015b611c4e57611bad612e9e565b806308c379a01415611be75750611bc2612eb9565b80611bcd5750611be9565b8060405162461bcd60e51b81526004016105a29190612aaa565b505b60405162461bcd60e51b815260206004820152603460248201527f455243313135353a207472616e7366657220746f206e6f6e20455243313135356044820152732932b1b2b4bb32b91034b6b83632b6b2b73a32b960611b60648201526084016105a2565b6001600160e01b0319811663bc197c8160e01b146116835760405162461bcd60e51b81526004016105a290612b2a565b6001600160a01b0381163b611ceb5760405162461bcd60e51b815260206004820152602d60248201527f455243313936373a206e657720696d706c656d656e746174696f6e206973206e60448201526c1bdd08184818dbdb9d1c9858dd609a1b60648201526084016105a2565b600080516020612f5983398151915280546001600160a01b0319166001600160a01b0392909216919091179055565b611d2383612001565b600082511180611d305750805b15610e6957610bf58383612041565b6001600160a01b038316611da15760405162461bcd60e51b815260206004820152602360248201527f455243313135353a206275726e2066726f6d20746865207a65726f206164647260448201526265737360e81b60648201526084016105a2565b33611dd081856000611db287611eec565b611dbb87611eec565b6040518060200160405280600081525061199f565b600083815260c9602090815260408083206001600160a01b038816845290915290205482811015611e4f5760405162461bcd60e51b8152602060048201526024808201527f455243313135353a206275726e20616d6f756e7420657863656564732062616c604482015263616e636560e01b60648201526084016105a2565b600084815260c9602090815260408083206001600160a01b03898116808652918452828520888703905582518981529384018890529092908616917fc3d58168c5ae7397731d063d5bbf3d657854427343f4c083240f7aacaa2d0f62910160405180910390a45050505050565b600054610100900460ff16611ee35760405162461bcd60e51b81526004016105a290612ce7565b6108e78161212c565b60408051600180825281830190925260609160009190602080830190803683370190505090508281600081518110611f2657611f26612e72565b602090810291909101015292915050565b6001600160a01b0384163b156111f35760405163f23a6e6160e01b81526001600160a01b0385169063f23a6e6190611f7b9089908990889088908890600401612a2d565b602060405180830381600087803b158015611f9557600080fd5b505af1925050508015611fc5575060408051601f3d908101601f19168201909252611fc291810190612670565b60015b611fd157611bad612e9e565b6001600160e01b0319811663f23a6e6160e01b146116835760405162461bcd60e51b81526004016105a290612b2a565b61200a81611c7e565b6040516001600160a01b038216907fbc7cd75a20ee27fd9adebab32041f755214dbc6bffa90cc0225b39da2e5c2d3b90600090a250565b60606001600160a01b0383163b6120a95760405162461bcd60e51b815260206004820152602660248201527f416464726573733a2064656c65676174652063616c6c20746f206e6f6e2d636f6044820152651b9d1c9858dd60d21b60648201526084016105a2565b600080846001600160a01b0316846040516120c491906128ab565b600060405180830381855af49150503d80600081146120ff576040519150601f19603f3d011682016040523d82523d6000602084013e612104565b606091505b50915091506105318282604051806060016040528060278152602001612fb96027913961213f565b8051610af99060cb90602084019061217f565b6060831561214e575081612178565b82511561215e5782518084602001fd5b8160405162461bcd60e51b81526004016105a29190612aaa565b9392505050565b82805461218b90612dda565b90600052602060002090601f0160209004810192826121ad57600085556121f3565b82601f106121c657805160ff19168380011785556121f3565b828001600101855582156121f3579182015b828111156121f35782518255916020019190600101906121d8565b506121ff929150612203565b5090565b5b808211156121ff5760008155600101612204565b80356001600160a01b038116811461222f57600080fd5b919050565b600082601f83011261224557600080fd5b8135602061225282612d32565b60405161225f8282612e15565b8381528281019150858301600585901b8701840188101561227f57600080fd5b60005b858110156122a55761229382612218565b84529284019290840190600101612282565b5090979650505050505050565b600082601f8301126122c357600080fd5b813560206122d082612d32565b6040516122dd8282612e15565b8381528281019150858301600585901b870184018810156122fd57600080fd5b60005b858110156122a557813584529284019290840190600101612300565b600082601f83011261232d57600080fd5b81356001600160401b0381111561234657612346612e88565b60405161235d601f8301601f191660200182612e15565b81815284602083860101111561237257600080fd5b816020850160208301376000918101602001919091529392505050565b6000602082840312156123a157600080fd5b61217882612218565b600080604083850312156123bd57600080fd5b6123c683612218565b91506123d460208401612218565b90509250929050565b600080600080600060a086880312156123f557600080fd5b6123fe86612218565b945061240c60208701612218565b935060408601356001600160401b038082111561242857600080fd5b61243489838a016122b2565b9450606088013591508082111561244a57600080fd5b61245689838a016122b2565b9350608088013591508082111561246c57600080fd5b506124798882890161231c565b9150509295509295909350565b600080600080600060a0868803121561249e57600080fd5b6124a786612218565b94506124b560208701612218565b9350604086013592506060860135915060808601356001600160401b038111156124de57600080fd5b6124798882890161231c565b600080604083850312156124fd57600080fd5b61250683612218565b91506020830135801515811461251b57600080fd5b809150509250929050565b6000806040838503121561253957600080fd5b61254283612218565b915060208301356001600160401b0381111561255d57600080fd5b6125698582860161231c565b9150509250929050565b6000806040838503121561258657600080fd5b61258f83612218565b946020939093013593505050565b600080604083850312156125b057600080fd5b82356001600160401b03808211156125c757600080fd5b6125d386838701612234565b935060208501359150808211156125e957600080fd5b50612569858286016122b2565b6000806040838503121561260957600080fd5b82356001600160401b0381111561261f57600080fd5b61262b85828601612234565b95602094909401359450505050565b60006020828403121561264c57600080fd5b5051919050565b60006020828403121561266557600080fd5b813561217881612f42565b60006020828403121561268257600080fd5b815161217881612f42565b600080600080608085870312156126a357600080fd5b84356001600160401b03808211156126ba57600080fd5b6126c68883890161231c565b95506126d460208801612218565b945060408701359150808211156126ea57600080fd5b6126f688838901612234565b9350606087013591508082111561270c57600080fd5b506127198782880161231c565b91505092959194509250565b60008060006060848603121561273a57600080fd5b83356001600160401b038082111561275157600080fd5b61275d8783880161231c565b9450602086013591508082111561277357600080fd5b506127808682870161231c565b925050604084013590509250925092565b6000602082840312156127a357600080fd5b5035919050565b600081518084526020808501945080840160005b838110156127da578151875295820195908201906001016127be565b509495945050505050565b600081518084526127fd816020860160208601612dae565b601f01601f19169290920160200192915050565b8054600090600181811c908083168061282b57607f831692505b602080841082141561284d57634e487b7160e01b600052602260045260246000fd5b81801561286157600181146128725761289f565b60ff1986168952848901965061289f565b60008881526020902060005b868110156128975781548b82015290850190830161287e565b505084890196505b50505050505092915050565b600082516128bd818460208701612dae565b9190910192915050565b693d913730b6b2911d101160b11b815260006128e6600a830187612811565b6e1116101131b932b0ba37b9111d101160891b8152855161290e81600f840160208a01612dae565b6d1116101136b4b73a32b9111d101160911b600f9290910191820152845161293d81601d840160208901612dae565b72111610113232b9b1b934b83a34b7b7111d101160691b601d929091019182015261296b6030820185612811565b601160f91b8152607d60f81b6001820152600201979650505050505050565b7f646174613a6170706c69636174696f6e2f6a736f6e3b6261736536342c0000008152600082516129c281601d850160208701612dae565b91909101601d0192915050565b6001600160a01b0386811682528516602082015260a0604082018190526000906129fb908301866127aa565b8281036060840152612a0d81866127aa565b90508281036080840152612a2181856127e5565b98975050505050505050565b6001600160a01b03868116825285166020820152604081018490526060810183905260a060808201819052600090612a67908301846127e5565b979650505050505050565b60208152600061217860208301846127aa565b604081526000612a9860408301856127aa565b828103602084015261053181856127aa565b60208152600061217860208301846127e5565b606081526000612ad060608301866127e5565b8281036020840152612ae281866127e5565b915050826040830152949350505050565b6020808252601a908201527f5465616d3a206f6e6c792073656c6563746564206d696e746572000000000000604082015260600190565b60208082526028908201527f455243313135353a204552433131353552656365697665722072656a656374656040820152676420746f6b656e7360c01b606082015260800190565b6020808252602c908201527f46756e6374696f6e206d7573742062652063616c6c6564207468726f7567682060408201526b19195b1959d85d1958d85b1b60a21b606082015260800190565b6020808252602c908201527f46756e6374696f6e206d7573742062652063616c6c6564207468726f7567682060408201526b6163746976652070726f787960a01b606082015260800190565b60208082526025908201527f455243313135353a207472616e7366657220746f20746865207a65726f206164604082015264647265737360d81b606082015260800190565b6020808252602e908201527f496e697469616c697a61626c653a20636f6e747261637420697320616c72656160408201526d191e481a5b9a5d1a585b1a5e995960921b606082015260800190565b6020808252602a908201527f455243313135353a20696e73756666696369656e742062616c616e636520666f60408201526939103a3930b739b332b960b11b606082015260800190565b6020808252602b908201527f496e697469616c697a61626c653a20636f6e7472616374206973206e6f74206960408201526a6e697469616c697a696e6760a81b606082015260800190565b60006001600160401b03821115612d4b57612d4b612e88565b5060051b60200190565b60008219821115612d6857612d68612e5c565b500190565b600082612d8a57634e487b7160e01b600052601260045260246000fd5b500490565b6000816000190483118215151615612da957612da9612e5c565b500290565b60005b83811015612dc9578181015183820152602001612db1565b83811115610bf55750506000910152565b600181811c90821680612dee57607f821691505b60208210811415612e0f57634e487b7160e01b600052602260045260246000fd5b50919050565b601f8201601f191681016001600160401b0381118282101715612e3a57612e3a612e88565b6040525050565b6000600019821415612e5557612e55612e5c565b5060010190565b634e487b7160e01b600052601160045260246000fd5b634e487b7160e01b600052603260045260246000fd5b634e487b7160e01b600052604160045260246000fd5b600060033d1115610bae5760046000803e5060005160e01c90565b600060443d1015612ec75790565b6040516003193d81016004833e81513d6001600160401b038160248401118184111715612ef657505050505090565b8285019150815181811115612f0e5750505050505090565b843d8701016020828501011115612f285750505050505090565b612f3760208286010187612e15565b509095945050505050565b6001600160e01b0319811681146108e757600080fdfe360894a13ba1a3210667c828492db98dca3e2076cc3735a920a3ca505d382bbc4142434445464748494a4b4c4d4e4f505152535455565758595a6162636465666768696a6b6c6d6e6f707172737475767778797a303132333435363738392b2f416464726573733a206c6f772d6c6576656c2064656c65676174652063616c6c206661696c6564a26469706673582212206ff87d24e3dff86008a5c3b93e6de069e6b39c4dfb5503da2ba6616bf91b485164736f6c63430008070033",
  "devdoc": {
    "kind": "dev",
    "methods": {
      "balanceOf(address,uint256)": {
        "details": "See {IERC1155-balanceOf}. Requirements: - `account` cannot be the zero address."
      },
      "balanceOfBatch(address[],uint256[])": {
        "details": "See {IERC1155-balanceOfBatch}. Requirements: - `accounts` and `ids` must have the same length."
      },
      "isApprovedForAll(address,address)": {
        "details": "See {IERC1155-isApprovedForAll}."
      },
      "proxiableUUID()": {
        "details": "Implementation of the ERC1822 {proxiableUUID} function. This returns the storage slot used by the implementation. It is used to validate that the this implementation remains valid after an upgrade. IMPORTANT: A proxy pointing at a proxiable contract should not be considered proxiable itself, because this risks bricking a proxy that upgrades to it, by delegating to itself until out of gas. Thus it is critical that this function revert if invoked through a proxy. This is guaranteed by the `notDelegated` modifier."
      },
      "safeBatchTransferFrom(address,address,uint256[],uint256[],bytes)": {
        "details": "See {IERC1155-safeBatchTransferFrom}."
      },
      "safeTransferFrom(address,address,uint256,uint256,bytes)": {
        "details": "See {IERC1155-safeTransferFrom}."
      },
      "setApprovalForAll(address,bool)": {
        "details": "See {IERC1155-setApprovalForAll}."
      },
      "supportsInterface(bytes4)": {
        "details": "See {IERC165-supportsInterface}."
      },
      "upgradeTo(address)": {
        "details": "Upgrade the implementation of the proxy to `newImplementation`. Calls {_authorizeUpgrade}. Emits an {Upgraded} event."
      },
      "upgradeToAndCall(address,bytes)": {
        "details": "Upgrade the implementation of the proxy to `newImplementation`, and subsequently execute the function call encoded in `data`. Calls {_authorizeUpgrade}. Emits an {Upgraded} event."
      }
    },
    "version": 1
  },
  "userdoc": {
    "kind": "user",
    "methods": {},
    "version": 1
  },
  "storageLayout": {
    "storage": [
      {
        "astId": 2736,
        "contract": "contracts/Team.sol:Team",
        "label": "_initialized",
        "offset": 0,
        "slot": "0",
        "type": "t_bool"
      },
      {
        "astId": 2739,
        "contract": "contracts/Team.sol:Team",
        "label": "_initializing",
        "offset": 1,
        "slot": "0",
        "type": "t_bool"
      },
      {
        "astId": 2718,
        "contract": "contracts/Team.sol:Team",
        "label": "__gap",
        "offset": 0,
        "slot": "1",
        "type": "t_array(t_uint256)50_storage"
      },
      {
        "astId": 2938,
        "contract": "contracts/Team.sol:Team",
        "label": "__gap",
        "offset": 0,
        "slot": "51",
        "type": "t_array(t_uint256)50_storage"
      },
      {
        "astId": 7651,
        "contract": "contracts/Team.sol:Team",
        "label": "__gap",
        "offset": 0,
        "slot": "101",
        "type": "t_array(t_uint256)50_storage"
      },
      {
        "astId": 8803,
        "contract": "contracts/Team.sol:Team",
        "label": "__gap",
        "offset": 0,
        "slot": "151",
        "type": "t_array(t_uint256)50_storage"
      },
      {
        "astId": 2968,
        "contract": "contracts/Team.sol:Team",
        "label": "_balances",
        "offset": 0,
        "slot": "201",
        "type": "t_mapping(t_uint256,t_mapping(t_address,t_uint256))"
      },
      {
        "astId": 2974,
        "contract": "contracts/Team.sol:Team",
        "label": "_operatorApprovals",
        "offset": 0,
        "slot": "202",
        "type": "t_mapping(t_address,t_mapping(t_address,t_bool))"
      },
      {
        "astId": 2976,
        "contract": "contracts/Team.sol:Team",
        "label": "_uri",
        "offset": 0,
        "slot": "203",
        "type": "t_string_storage"
      },
      {
        "astId": 4056,
        "contract": "contracts/Team.sol:Team",
        "label": "__gap",
        "offset": 0,
        "slot": "204",
        "type": "t_array(t_uint256)47_storage"
      },
      {
        "astId": 19031,
        "contract": "contracts/Team.sol:Team",
        "label": "creatorOf",
        "offset": 0,
        "slot": "251",
        "type": "t_mapping(t_uint256,t_address)"
      },
      {
        "astId": 19035,
        "contract": "contracts/Team.sol:Team",
        "label": "minterOf",
        "offset": 0,
        "slot": "252",
        "type": "t_mapping(t_uint256,t_address)"
      },
      {
        "astId": 19039,
        "contract": "contracts/Team.sol:Team",
        "label": "nameOf",
        "offset": 0,
        "slot": "253",
        "type": "t_mapping(t_uint256,t_string_storage)"
      },
      {
        "astId": 19043,
        "contract": "contracts/Team.sol:Team",
        "label": "descriptionOf",
        "offset": 0,
        "slot": "254",
        "type": "t_mapping(t_uint256,t_string_storage)"
      },
      {
        "astId": 19046,
        "contract": "contracts/Team.sol:Team",
        "label": "_tokenIds",
        "offset": 0,
        "slot": "255",
        "type": "t_struct(Counter)13987_storage"
      }
    ],
    "types": {
      "t_address": {
        "encoding": "inplace",
        "label": "address",
        "numberOfBytes": "20"
      },
      "t_array(t_uint256)47_storage": {
        "base": "t_uint256",
        "encoding": "inplace",
        "label": "uint256[47]",
        "numberOfBytes": "1504"
      },
      "t_array(t_uint256)50_storage": {
        "base": "t_uint256",
        "encoding": "inplace",
        "label": "uint256[50]",
        "numberOfBytes": "1600"
      },
      "t_bool": {
        "encoding": "inplace",
        "label": "bool",
        "numberOfBytes": "1"
      },
      "t_mapping(t_address,t_bool)": {
        "encoding": "mapping",
        "key": "t_address",
        "label": "mapping(address => bool)",
        "numberOfBytes": "32",
        "value": "t_bool"
      },
      "t_mapping(t_address,t_mapping(t_address,t_bool))": {
        "encoding": "mapping",
        "key": "t_address",
        "label": "mapping(address => mapping(address => bool))",
        "numberOfBytes": "32",
        "value": "t_mapping(t_address,t_bool)"
      },
      "t_mapping(t_address,t_uint256)": {
        "encoding": "mapping",
        "key": "t_address",
        "label": "mapping(address => uint256)",
        "numberOfBytes": "32",
        "value": "t_uint256"
      },
      "t_mapping(t_uint256,t_address)": {
        "encoding": "mapping",
        "key": "t_uint256",
        "label": "mapping(uint256 => address)",
        "numberOfBytes": "32",
        "value": "t_address"
      },
      "t_mapping(t_uint256,t_mapping(t_address,t_uint256))": {
        "encoding": "mapping",
        "key": "t_uint256",
        "label": "mapping(uint256 => mapping(address => uint256))",
        "numberOfBytes": "32",
        "value": "t_mapping(t_address,t_uint256)"
      },
      "t_mapping(t_uint256,t_string_storage)": {
        "encoding": "mapping",
        "key": "t_uint256",
        "label": "mapping(uint256 => string)",
        "numberOfBytes": "32",
        "value": "t_string_storage"
      },
      "t_string_storage": {
        "encoding": "bytes",
        "label": "string",
        "numberOfBytes": "32"
      },
      "t_struct(Counter)13987_storage": {
        "encoding": "inplace",
        "label": "struct Counters.Counter",
        "members": [
          {
            "astId": 13986,
            "contract": "contracts/Team.sol:Team",
            "label": "_value",
            "offset": 0,
            "slot": "0",
            "type": "t_uint256"
          }
        ],
        "numberOfBytes": "32"
      },
      "t_uint256": {
        "encoding": "inplace",
        "label": "uint256",
        "numberOfBytes": "32"
      }
    }
  }
}