{
  "address": "0x8F966bD2216696C389f5ab2aeF542b6Dc2f89525",
  "abi": [
    {
      "anonymous": false,
      "inputs": [
        {
          "indexed": false,
          "internalType": "address",
          "name": "previousAdmin",
          "type": "address"
        },
        {
          "indexed": false,
          "internalType": "address",
          "name": "newAdmin",
          "type": "address"
        }
      ],
      "name": "AdminChanged",
      "type": "event"
    },
    {
      "anonymous": false,
      "inputs": [
        {
          "indexed": true,
          "internalType": "address",
          "name": "account",
          "type": "address"
        },
        {
          "indexed": true,
          "internalType": "address",
          "name": "operator",
          "type": "address"
        },
        {
          "indexed": false,
          "internalType": "bool",
          "name": "approved",
          "type": "bool"
        }
      ],
      "name": "ApprovalForAll",
      "type": "event"
    },
    {
      "anonymous": false,
      "inputs": [
        {
          "indexed": true,
          "internalType": "address",
          "name": "beacon",
          "type": "address"
        }
      ],
      "name": "BeaconUpgraded",
      "type": "event"
    },
    {
      "anonymous": false,
      "inputs": [
        {
          "indexed": false,
          "internalType": "string",
          "name": "name",
          "type": "string"
        },
        {
          "indexed": false,
          "internalType": "string",
          "name": "description",
          "type": "string"
        },
        {
          "indexed": false,
          "internalType": "uint256",
          "name": "tokenId",
          "type": "uint256"
        }
      ],
      "name": "EditInfo",
      "type": "event"
    },
    {
      "anonymous": false,
      "inputs": [
        {
          "indexed": true,
          "internalType": "address",
          "name": "previousOwner",
          "type": "address"
        },
        {
          "indexed": true,
          "internalType": "address",
          "name": "newOwner",
          "type": "address"
        }
      ],
      "name": "OwnershipTransferred",
      "type": "event"
    },
    {
      "anonymous": false,
      "inputs": [
        {
          "indexed": true,
          "internalType": "address",
          "name": "operator",
          "type": "address"
        },
        {
          "indexed": true,
          "internalType": "address",
          "name": "from",
          "type": "address"
        },
        {
          "indexed": true,
          "internalType": "address",
          "name": "to",
          "type": "address"
        },
        {
          "indexed": false,
          "internalType": "uint256[]",
          "name": "ids",
          "type": "uint256[]"
        },
        {
          "indexed": false,
          "internalType": "uint256[]",
          "name": "values",
          "type": "uint256[]"
        }
      ],
      "name": "TransferBatch",
      "type": "event"
    },
    {
      "anonymous": false,
      "inputs": [
        {
          "indexed": true,
          "internalType": "address",
          "name": "operator",
          "type": "address"
        },
        {
          "indexed": true,
          "internalType": "address",
          "name": "from",
          "type": "address"
        },
        {
          "indexed": true,
          "internalType": "address",
          "name": "to",
          "type": "address"
        },
        {
          "indexed": false,
          "internalType": "uint256",
          "name": "id",
          "type": "uint256"
        },
        {
          "indexed": false,
          "internalType": "uint256",
          "name": "value",
          "type": "uint256"
        }
      ],
      "name": "TransferSingle",
      "type": "event"
    },
    {
      "anonymous": false,
      "inputs": [
        {
          "indexed": false,
          "internalType": "string",
          "name": "value",
          "type": "string"
        },
        {
          "indexed": true,
          "internalType": "uint256",
          "name": "id",
          "type": "uint256"
        }
      ],
      "name": "URI",
      "type": "event"
    },
    {
      "anonymous": false,
      "inputs": [
        {
          "indexed": true,
          "internalType": "address",
          "name": "implementation",
          "type": "address"
        }
      ],
      "name": "Upgraded",
      "type": "event"
    },
    {
      "inputs": [
        {
          "internalType": "address[]",
          "name": "members",
          "type": "address[]"
        },
        {
          "internalType": "uint256",
          "name": "tokenId",
          "type": "uint256"
        }
      ],
      "name": "addMembers",
      "outputs": [],
      "stateMutability": "nonpayable",
      "type": "function"
    },
    {
      "inputs": [
        {
          "internalType": "string",
          "name": "name",
          "type": "string"
        },
        {
          "internalType": "address",
          "name": "minter",
          "type": "address"
        },
        {
          "internalType": "address[]",
          "name": "members",
          "type": "address[]"
        },
        {
          "internalType": "string",
          "name": "description",
          "type": "string"
        }
      ],
      "name": "addTeam",
      "outputs": [
        {
          "internalType": "uint256",
          "name": "",
          "type": "uint256"
        }
      ],
      "stateMutability": "nonpayable",
      "type": "function"
    },
    {
      "inputs": [
        {
          "internalType": "address",
          "name": "account",
          "type": "address"
        },
        {
          "internalType": "uint256",
          "name": "id",
          "type": "uint256"
        }
      ],
      "name": "balanceOf",
      "outputs": [
        {
          "internalType": "uint256",
          "name": "",
          "type": "uint256"
        }
      ],
      "stateMutability": "view",
      "type": "function"
    },
    {
      "inputs": [
        {
          "internalType": "address[]",
          "name": "accounts",
          "type": "address[]"
        },
        {
          "internalType": "uint256[]",
          "name": "ids",
          "type": "uint256[]"
        }
      ],
      "name": "balanceOfBatch",
      "outputs": [
        {
          "internalType": "uint256[]",
          "name": "",
          "type": "uint256[]"
        }
      ],
      "stateMutability": "view",
      "type": "function"
    },
    {
      "inputs": [
        {
          "internalType": "uint256",
          "name": "",
          "type": "uint256"
        }
      ],
      "name": "creatorOf",
      "outputs": [
        {
          "internalType": "address",
          "name": "",
          "type": "address"
        }
      ],
      "stateMutability": "view",
      "type": "function"
    },
    {
      "inputs": [
        {
          "internalType": "uint256",
          "name": "",
          "type": "uint256"
        }
      ],
      "name": "descriptionOf",
      "outputs": [
        {
          "internalType": "string",
          "name": "",
          "type": "string"
        }
      ],
      "stateMutability": "view",
      "type": "function"
    },
    {
      "inputs": [],
      "name": "initialize",
      "outputs": [],
      "stateMutability": "nonpayable",
      "type": "function"
    },
    {
      "inputs": [
        {
          "internalType": "address",
          "name": "account",
          "type": "address"
        },
        {
          "internalType": "address",
          "name": "operator",
          "type": "address"
        }
      ],
      "name": "isApprovedForAll",
      "outputs": [
        {
          "internalType": "bool",
          "name": "",
          "type": "bool"
        }
      ],
      "stateMutability": "view",
      "type": "function"
    },
    {
      "inputs": [
        {
          "internalType": "uint256",
          "name": "",
          "type": "uint256"
        }
      ],
      "name": "minterOf",
      "outputs": [
        {
          "internalType": "address",
          "name": "",
          "type": "address"
        }
      ],
      "stateMutability": "view",
      "type": "function"
    },
    {
      "inputs": [
        {
          "internalType": "uint256",
          "name": "",
          "type": "uint256"
        }
      ],
      "name": "nameOf",
      "outputs": [
        {
          "internalType": "string",
          "name": "",
          "type": "string"
        }
      ],
      "stateMutability": "view",
      "type": "function"
    },
    {
      "inputs": [],
      "name": "owner",
      "outputs": [
        {
          "internalType": "address",
          "name": "",
          "type": "address"
        }
      ],
      "stateMutability": "view",
      "type": "function"
    },
    {
      "inputs": [],
      "name": "proxiableUUID",
      "outputs": [
        {
          "internalType": "bytes32",
          "name": "",
          "type": "bytes32"
        }
      ],
      "stateMutability": "view",
      "type": "function"
    },
    {
      "inputs": [
        {
          "internalType": "address[]",
          "name": "members",
          "type": "address[]"
        },
        {
          "internalType": "uint256",
          "name": "tokenId",
          "type": "uint256"
        }
      ],
      "name": "removeMembers",
      "outputs": [],
      "stateMutability": "nonpayable",
      "type": "function"
    },
    {
      "inputs": [],
      "name": "renounceOwnership",
      "outputs": [],
      "stateMutability": "nonpayable",
      "type": "function"
    },
    {
      "inputs": [
        {
          "internalType": "address",
          "name": "from",
          "type": "address"
        },
        {
          "internalType": "address",
          "name": "to",
          "type": "address"
        },
        {
          "internalType": "uint256[]",
          "name": "ids",
          "type": "uint256[]"
        },
        {
          "internalType": "uint256[]",
          "name": "amounts",
          "type": "uint256[]"
        },
        {
          "internalType": "bytes",
          "name": "data",
          "type": "bytes"
        }
      ],
      "name": "safeBatchTransferFrom",
      "outputs": [],
      "stateMutability": "nonpayable",
      "type": "function"
    },
    {
      "inputs": [
        {
          "internalType": "address",
          "name": "from",
          "type": "address"
        },
        {
          "internalType": "address",
          "name": "to",
          "type": "address"
        },
        {
          "internalType": "uint256",
          "name": "id",
          "type": "uint256"
        },
        {
          "internalType": "uint256",
          "name": "amount",
          "type": "uint256"
        },
        {
          "internalType": "bytes",
          "name": "data",
          "type": "bytes"
        }
      ],
      "name": "safeTransferFrom",
      "outputs": [],
      "stateMutability": "nonpayable",
      "type": "function"
    },
    {
      "inputs": [
        {
          "internalType": "address",
          "name": "operator",
          "type": "address"
        },
        {
          "internalType": "bool",
          "name": "approved",
          "type": "bool"
        }
      ],
      "name": "setApprovalForAll",
      "outputs": [],
      "stateMutability": "nonpayable",
      "type": "function"
    },
    {
      "inputs": [
        {
          "internalType": "string",
          "name": "name",
          "type": "string"
        },
        {
          "internalType": "string",
          "name": "description",
          "type": "string"
        },
        {
          "internalType": "uint256",
          "name": "tokenId",
          "type": "uint256"
        }
      ],
      "name": "setInfo",
      "outputs": [],
      "stateMutability": "nonpayable",
      "type": "function"
    },
    {
      "inputs": [
        {
          "internalType": "bytes4",
          "name": "interfaceId",
          "type": "bytes4"
        }
      ],
      "name": "supportsInterface",
      "outputs": [
        {
          "internalType": "bool",
          "name": "",
          "type": "bool"
        }
      ],
      "stateMutability": "view",
      "type": "function"
    },
    {
      "inputs": [
        {
          "internalType": "address",
          "name": "newOwner",
          "type": "address"
        }
      ],
      "name": "transferOwnership",
      "outputs": [],
      "stateMutability": "nonpayable",
      "type": "function"
    },
    {
      "inputs": [
        {
          "internalType": "address",
          "name": "newImplementation",
          "type": "address"
        }
      ],
      "name": "upgradeTo",
      "outputs": [],
      "stateMutability": "nonpayable",
      "type": "function"
    },
    {
      "inputs": [
        {
          "internalType": "address",
          "name": "newImplementation",
          "type": "address"
        },
        {
          "internalType": "bytes",
          "name": "data",
          "type": "bytes"
        }
      ],
      "name": "upgradeToAndCall",
      "outputs": [],
      "stateMutability": "payable",
      "type": "function"
    },
    {
      "inputs": [
        {
          "internalType": "uint256",
          "name": "_id",
          "type": "uint256"
        }
      ],
      "name": "uri",
      "outputs": [
        {
          "internalType": "string",
          "name": "",
          "type": "string"
        }
      ],
      "stateMutability": "view",
      "type": "function"
    }
  ],
  "transactionHash": "0x9cec40d27a728b7e134d89f5c16d43a40c10a4f4fc53ee3366cad043b0e84350",
  "args": [],
  "numDeployments": 1,
  "solcInputHash": "497d6400f821a79c58d12e63616fa963",
  "bytecode": "0x60a06040523060601b60805234801561001757600080fd5b5060805160601c61320e6100526000396000818161089b015281816108db01528181610abe01528181610afe0152610b91015261320e6000f3fe60806040526004361061013e5760003560e01c8063589a1743116100b65780639e942ace1161006f5780639e942ace146103a1578063a22cb465146103d8578063b9e2b544146103f8578063e985e9c514610418578063f242432a14610461578063f2fde38b1461048157600080fd5b8063589a1743146102ca5780636c2d185214610319578063715018a6146103395780638129fc1c1461034e5780638304fc25146103635780638da5cb5b1461038357600080fd5b80632eb2c2d6116101085780632eb2c2d6146102135780633659cfe6146102355780633e0fb267146102555780634e1273f4146102755780634f1ef286146102a257806352d1902d146102b557600080fd5b806253153b14610143578062fdd58e1461017657806301ffc9a714610196578063051a2664146101c65780630e89341c146101f3575b600080fd5b34801561014f57600080fd5b5061016361015e36600461289f565b6104a1565b6040519081526020015b60405180910390f35b34801561018257600080fd5b50610163610191366004612785565b6105bb565b3480156101a257600080fd5b506101b66101b1366004612865565b610654565b604051901515815260200161016d565b3480156101d257600080fd5b506101e66101e13660046129a3565b6106a6565b60405161016d9190612cbc565b3480156101ff57600080fd5b506101e661020e3660046129a3565b610741565b34801561021f57600080fd5b5061023361022e3660046125ef565b6107f9565b005b34801561024157600080fd5b506102336102503660046125a1565b610890565b34801561026157600080fd5b506101e66102703660046129a3565b610970565b34801561028157600080fd5b506102956102903660046127af565b61098a565b60405161016d9190612c84565b6102336102b0366004612738565b610ab3565b3480156102c157600080fd5b50610163610b84565b3480156102d657600080fd5b506103016102e53660046129a3565b61012d602052600090815260409020546001600160a01b031681565b6040516001600160a01b03909116815260200161016d565b34801561032557600080fd5b50610233610334366004612808565b610c38565b34801561034557600080fd5b50610233610c83565b34801561035a57600080fd5b50610233610cb9565b34801561036f57600080fd5b5061023361037e366004612808565b610d91565b34801561038f57600080fd5b5060fb546001600160a01b0316610301565b3480156103ad57600080fd5b506103016103bc3660046129a3565b61012e602052600090815260409020546001600160a01b031681565b3480156103e457600080fd5b506102336103f33660046126fc565b610dd6565b34801561040457600080fd5b50610233610413366004612937565b610de1565b34801561042457600080fd5b506101b66104333660046125bc565b6001600160a01b03918216600090815260ca6020908152604080832093909416825291909152205460ff1690565b34801561046d57600080fd5b5061023361047c366004612698565b610ea0565b34801561048d57600080fd5b5061023361049c3660046125a1565b610f27565b60006104b261013180546001019055565b3361012d60006104c26101315490565b815260200190815260200160002060006101000a8154816001600160a01b0302191690836001600160a01b031602179055508361012e60006105046101315490565b815260200190815260200160002060006101000a8154816001600160a01b0302191690836001600160a01b031602179055508461012f60006105466101315490565b81526020019081526020016000209080519060200190610567929190612391565b508161013060006105786101315490565b81526020019081526020016000209080519060200190610599929190612391565b506105ad836105a86101315490565b610fbf565b610131545b95945050505050565b60006001600160a01b03831661062c5760405162461bcd60e51b815260206004820152602b60248201527f455243313135353a2062616c616e636520717565727920666f7220746865207a60448201526a65726f206164647265737360a81b60648201526084015b60405180910390fd5b50600090815260c9602090815260408083206001600160a01b03949094168352929052205490565b60006001600160e01b03198216636cdb3d1360e11b148061068557506001600160e01b031982166303a24d0760e21b145b806106a057506301ffc9a760e01b6001600160e01b03198316145b92915050565b61012f60205260009081526040902080546106c090612fd3565b80601f01602080910402602001604051908101604052809291908181526020018280546106ec90612fd3565b80156107395780601f1061070e57610100808354040283529160200191610739565b820191906000526020600020905b81548152906001019060200180831161071c57829003601f168201915b505050505081565b600081815261012f6020908152604080832061012d9092528220546060929190610773906001600160a01b0316611017565b600085815261012e6020526040902054610795906001600160a01b0316611017565b6000868152610130602090815260409182902091516107b8959493929101612ad9565b60405160208183030381529060405290506107d28161104f565b6040516020016107e29190612b9c565b604051602081830303815290604052915050919050565b6001600160a01b03851633148061081557506108158533610433565b61087c5760405162461bcd60e51b815260206004820152603260248201527f455243313135353a207472616e736665722063616c6c6572206973206e6f74206044820152711bdddb995c881b9bdc88185c1c1c9bdd995960721b6064820152608401610623565b61088985858585856111b6565b5050505050565b306001600160a01b037f00000000000000000000000000000000000000000000000000000000000000001614156108d95760405162461bcd60e51b815260040161062390612d84565b7f00000000000000000000000000000000000000000000000000000000000000006001600160a01b0316610922600080516020613152833981519152546001600160a01b031690565b6001600160a01b0316146109485760405162461bcd60e51b815260040161062390612dd0565b610951816113a4565b6040805160008082526020820190925261096d918391906113ce565b50565b61013060205260009081526040902080546106c090612fd3565b606081518351146109ef5760405162461bcd60e51b815260206004820152602960248201527f455243313135353a206163636f756e747320616e6420696473206c656e677468604482015268040dad2e6dac2e8c6d60bb1b6064820152608401610623565b600083516001600160401b03811115610a0a57610a0a613081565b604051908082528060200260200182016040528015610a33578160200160208202803683370190505b50905060005b8451811015610aab57610a7e858281518110610a5757610a5761306b565b6020026020010151858381518110610a7157610a7161306b565b60200260200101516105bb565b828281518110610a9057610a9061306b565b6020908102919091010152610aa48161303a565b9050610a39565b509392505050565b306001600160a01b037f0000000000000000000000000000000000000000000000000000000000000000161415610afc5760405162461bcd60e51b815260040161062390612d84565b7f00000000000000000000000000000000000000000000000000000000000000006001600160a01b0316610b45600080516020613152833981519152546001600160a01b031690565b6001600160a01b031614610b6b5760405162461bcd60e51b815260040161062390612dd0565b610b74826113a4565b610b80828260016113ce565b5050565b6000306001600160a01b037f00000000000000000000000000000000000000000000000000000000000000001614610c245760405162461bcd60e51b815260206004820152603860248201527f555550535570677261646561626c653a206d757374206e6f742062652063616c60448201527f6c6564207468726f7567682064656c656761746563616c6c00000000000000006064820152608401610623565b506000805160206131528339815191525b90565b600081815261012e6020526040902054819033906001600160a01b03168114610c735760405162461bcd60e51b815260040161062390612d05565b610c7d8484611548565b50505050565b60fb546001600160a01b03163314610cad5760405162461bcd60e51b815260040161062390612eab565b610cb760006115ac565b565b600054610100900460ff16610cd45760005460ff1615610cd8565b303b155b610d3b5760405162461bcd60e51b815260206004820152602e60248201527f496e697469616c697a61626c653a20636f6e747261637420697320616c72656160448201526d191e481a5b9a5d1a585b1a5e995960921b6064820152608401610623565b600054610100900460ff16158015610d5d576000805461ffff19166101011790555b610d656115fe565b610d7d6040518060200160405280600081525061162d565b801561096d576000805461ff001916905550565b600081815261012e6020526040902054819033906001600160a01b03168114610dcc5760405162461bcd60e51b815260040161062390612d05565b610c7d8484610fbf565b610b8033838361165d565b600081815261012e6020526040902054819033906001600160a01b03168114610e1c5760405162461bcd60e51b815260040161062390612d05565b600083815261012f602090815260409091208651610e3c92880190612391565b506000838152610130602090815260409091208551610e5d92870190612391565b507f9a9f1e87acdbebd6a43613eb3302ce8597ca8fd373aaf822705b2d7771f96cc1858585604051610e9193929190612ccf565b60405180910390a15050505050565b6001600160a01b038516331480610ebc5750610ebc8533610433565b610f1a5760405162461bcd60e51b815260206004820152602960248201527f455243313135353a2063616c6c6572206973206e6f74206f776e6572206e6f7260448201526808185c1c1c9bdd995960ba1b6064820152608401610623565b610889858585858561173e565b60fb546001600160a01b03163314610f515760405162461bcd60e51b815260040161062390612eab565b6001600160a01b038116610fb65760405162461bcd60e51b815260206004820152602660248201527f4f776e61626c653a206e6577206f776e657220697320746865207a65726f206160448201526564647265737360d01b6064820152608401610623565b61096d816115ac565b60005b825181101561101257611000838281518110610fe057610fe061306b565b60200260200101518360016040518060200160405280600081525061186e565b8061100a8161303a565b915050610fc2565b505050565b604051606082811b6bffffffffffffffffffffffff19166020830152906106a090603401604051602081830303815290604052611971565b606081516000141561106f57505060408051602081019091526000815290565b6000604051806060016040528060408152602001613172604091399050600060038451600261109e9190612f4e565b6110a89190612f66565b6110b3906004612f88565b905060006110c2826020612f4e565b6001600160401b038111156110d9576110d9613081565b6040519080825280601f01601f191660200182016040528015611103576020820181803683370190505b509050818152600183018586518101602084015b818310156111715760039283018051603f601282901c811687015160f890811b8552600c83901c8216880151811b6001860152600683901c8216880151811b60028601529116860151901b93820193909352600401611117565b60038951066001811461118b576002811461119c576111a8565b613d3d60f01b6001198301526111a8565b603d60f81b6000198301525b509398975050505050505050565b81518351146112185760405162461bcd60e51b815260206004820152602860248201527f455243313135353a2069647320616e6420616d6f756e7473206c656e677468206044820152670dad2e6dac2e8c6d60c31b6064820152608401610623565b6001600160a01b03841661123e5760405162461bcd60e51b815260040161062390612e1c565b3361124d818787878787611b81565b60005b845181101561133657600085828151811061126d5761126d61306b565b60200260200101519050600085838151811061128b5761128b61306b565b602090810291909101810151600084815260c9835260408082206001600160a01b038e1683529093529190912054909150818110156112dc5760405162461bcd60e51b815260040161062390612e61565b600083815260c9602090815260408083206001600160a01b038e8116855292528083208585039055908b1682528120805484929061131b908490612f4e565b925050819055505050508061132f9061303a565b9050611250565b50846001600160a01b0316866001600160a01b0316826001600160a01b03167f4a39dc06d4c0dbc64b70af90fd698a233a518aa5d07e595d983b8c0526c8f7fb8787604051611386929190612c97565b60405180910390a461139c818787878787611cf5565b505050505050565b60fb546001600160a01b0316331461096d5760405162461bcd60e51b815260040161062390612eab565b7f4910fdfa16fed3260ed0e7147f7cc6da11a60208b5b9406d12a635614ffd91435460ff16156114015761101283611e60565b826001600160a01b03166352d1902d6040518163ffffffff1660e01b815260040160206040518083038186803b15801561143a57600080fd5b505afa92505050801561146a575060408051601f3d908101601f191682019092526114679181019061284c565b60015b6114cd5760405162461bcd60e51b815260206004820152602e60248201527f45524331393637557067726164653a206e657720696d706c656d656e7461746960448201526d6f6e206973206e6f74205555505360901b6064820152608401610623565b600080516020613152833981519152811461153c5760405162461bcd60e51b815260206004820152602960248201527f45524331393637557067726164653a20756e737570706f727465642070726f786044820152681a58589b195555525160ba1b6064820152608401610623565b50611012838383611efc565b60005b82518110156110125761159a8382815181106115695761156961306b565b6020026020010151836115958685815181106115875761158761306b565b6020026020010151866105bb565b611f21565b806115a48161303a565b91505061154b565b60fb80546001600160a01b038381166001600160a01b0319831681179093556040519116919082907f8be0079c531659141344cd1fd0a4f28419497f9722a3daafe3b4186f6b6457e090600090a35050565b600054610100900460ff166116255760405162461bcd60e51b815260040161062390612ee0565b610cb761209e565b600054610100900460ff166116545760405162461bcd60e51b815260040161062390612ee0565b61096d816120ce565b816001600160a01b0316836001600160a01b031614156116d15760405162461bcd60e51b815260206004820152602960248201527f455243313135353a2073657474696e6720617070726f76616c20737461747573604482015268103337b91039b2b63360b91b6064820152608401610623565b6001600160a01b03838116600081815260ca6020908152604080832094871680845294825291829020805460ff191686151590811790915591519182527f17307eab39ab6107e8899845ad3d59bd9653f200f220920489ca2b5937696c31910160405180910390a3505050565b6001600160a01b0384166117645760405162461bcd60e51b815260040161062390612e1c565b33611783818787611774886120fe565b61177d886120fe565b87611b81565b600084815260c9602090815260408083206001600160a01b038a168452909152902054838110156117c65760405162461bcd60e51b815260040161062390612e61565b600085815260c9602090815260408083206001600160a01b038b8116855292528083208785039055908816825281208054869290611805908490612f4e565b909155505060408051868152602081018690526001600160a01b03808916928a821692918616917fc3d58168c5ae7397731d063d5bbf3d657854427343f4c083240f7aacaa2d0f62910160405180910390a4611865828888888888612149565b50505050505050565b6001600160a01b0384166118ce5760405162461bcd60e51b815260206004820152602160248201527f455243313135353a206d696e7420746f20746865207a65726f206164647265736044820152607360f81b6064820152608401610623565b336118df81600087611774886120fe565b600084815260c9602090815260408083206001600160a01b038916845290915281208054859290611911908490612f4e565b909155505060408051858152602081018590526001600160a01b0380881692600092918516917fc3d58168c5ae7397731d063d5bbf3d657854427343f4c083240f7aacaa2d0f62910160405180910390a461088981600087878787612149565b60408051808201909152601081526f181899199a1a9b1b9c1cb0b131b232b360811b60208201528151606091906000906119ac906002612f88565b6119b7906002612f4e565b6001600160401b038111156119ce576119ce613081565b6040519080825280601f01601f1916602001820160405280156119f8576020820181803683370190505b509050600360fc1b81600081518110611a1357611a1361306b565b60200101906001600160f81b031916908160001a905350600f60fb1b81600181518110611a4257611a4261306b565b60200101906001600160f81b031916908160001a90535060005b8451811015610aab57826004868381518110611a7a57611a7a61306b565b016020015182516001600160f81b031990911690911c60f81c908110611aa257611aa261306b565b01602001516001600160f81b03191682611abd836002612f88565b611ac8906002612f4e565b81518110611ad857611ad861306b565b60200101906001600160f81b031916908160001a90535082858281518110611b0257611b0261306b565b602091010151815160f89190911c600f16908110611b2257611b2261306b565b01602001516001600160f81b03191682611b3d836002612f88565b611b48906003612f4e565b81518110611b5857611b5861306b565b60200101906001600160f81b031916908160001a90535080611b798161303a565b915050611a5c565b6001600160a01b038516611bfe57611ba68484600081518110610a7157610a7161306b565b15611bfe5760405162461bcd60e51b815260206004820152602260248201527f5465616d3a204d656d6265722f4d656d6265727320616c726561647920616464604482015261195960f21b6064820152608401610623565b6001600160a01b038416611c72576000611c258685600081518110610a7157610a7161306b565b11611c725760405162461bcd60e51b815260206004820152601f60248201527f5465616d3a204d656d6265722f4d656d62657273206e6f7420657869737473006044820152606401610623565b6001600160a01b03851615801590611c9257506001600160a01b03841615155b1561139c5760405162461bcd60e51b815260206004820152602d60248201527f5465616d3a205472616e73666572206f66207465616d206f776e65727368697060448201526c081a5cc818589bdd5b99185b99609a1b6064820152608401610623565b6001600160a01b0384163b1561139c5760405163bc197c8160e01b81526001600160a01b0385169063bc197c8190611d399089908990889088908890600401612be1565b602060405180830381600087803b158015611d5357600080fd5b505af1925050508015611d83575060408051601f3d908101601f19168201909252611d8091810190612882565b60015b611e3057611d8f613097565b806308c379a01415611dc95750611da46130b2565b80611daf5750611dcb565b8060405162461bcd60e51b81526004016106239190612cbc565b505b60405162461bcd60e51b815260206004820152603460248201527f455243313135353a207472616e7366657220746f206e6f6e20455243313135356044820152732932b1b2b4bb32b91034b6b83632b6b2b73a32b960611b6064820152608401610623565b6001600160e01b0319811663bc197c8160e01b146118655760405162461bcd60e51b815260040161062390612d3c565b6001600160a01b0381163b611ecd5760405162461bcd60e51b815260206004820152602d60248201527f455243313936373a206e657720696d706c656d656e746174696f6e206973206e60448201526c1bdd08184818dbdb9d1c9858dd609a1b6064820152608401610623565b60008051602061315283398151915280546001600160a01b0319166001600160a01b0392909216919091179055565b611f0583612213565b600082511180611f125750805b1561101257610c7d8383612253565b6001600160a01b038316611f835760405162461bcd60e51b815260206004820152602360248201527f455243313135353a206275726e2066726f6d20746865207a65726f206164647260448201526265737360e81b6064820152608401610623565b33611fb281856000611f94876120fe565b611f9d876120fe565b60405180602001604052806000815250611b81565b600083815260c9602090815260408083206001600160a01b0388168452909152902054828110156120315760405162461bcd60e51b8152602060048201526024808201527f455243313135353a206275726e20616d6f756e7420657863656564732062616c604482015263616e636560e01b6064820152608401610623565b600084815260c9602090815260408083206001600160a01b03898116808652918452828520888703905582518981529384018890529092908616917fc3d58168c5ae7397731d063d5bbf3d657854427343f4c083240f7aacaa2d0f62910160405180910390a45050505050565b600054610100900460ff166120c55760405162461bcd60e51b815260040161062390612ee0565b610cb7336115ac565b600054610100900460ff166120f55760405162461bcd60e51b815260040161062390612ee0565b61096d8161233e565b604080516001808252818301909252606091600091906020808301908036833701905050905082816000815181106121385761213861306b565b602090810291909101015292915050565b6001600160a01b0384163b1561139c5760405163f23a6e6160e01b81526001600160a01b0385169063f23a6e619061218d9089908990889088908890600401612c3f565b602060405180830381600087803b1580156121a757600080fd5b505af19250505080156121d7575060408051601f3d908101601f191682019092526121d491810190612882565b60015b6121e357611d8f613097565b6001600160e01b0319811663f23a6e6160e01b146118655760405162461bcd60e51b815260040161062390612d3c565b61221c81611e60565b6040516001600160a01b038216907fbc7cd75a20ee27fd9adebab32041f755214dbc6bffa90cc0225b39da2e5c2d3b90600090a250565b60606001600160a01b0383163b6122bb5760405162461bcd60e51b815260206004820152602660248201527f416464726573733a2064656c65676174652063616c6c20746f206e6f6e2d636f6044820152651b9d1c9858dd60d21b6064820152608401610623565b600080846001600160a01b0316846040516122d69190612abd565b600060405180830381855af49150503d8060008114612311576040519150601f19603f3d011682016040523d82523d6000602084013e612316565b606091505b50915091506105b282826040518060600160405280602781526020016131b260279139612351565b8051610b809060cb906020840190612391565b6060831561236057508161238a565b8251156123705782518084602001fd5b8160405162461bcd60e51b81526004016106239190612cbc565b9392505050565b82805461239d90612fd3565b90600052602060002090601f0160209004810192826123bf5760008555612405565b82601f106123d857805160ff1916838001178555612405565b82800160010185558215612405579182015b828111156124055782518255916020019190600101906123ea565b50612411929150612415565b5090565b5b808211156124115760008155600101612416565b80356001600160a01b038116811461244157600080fd5b919050565b600082601f83011261245757600080fd5b8135602061246482612f2b565b604051612471828261300e565b8381528281019150858301600585901b8701840188101561249157600080fd5b60005b858110156124b7576124a58261242a565b84529284019290840190600101612494565b5090979650505050505050565b600082601f8301126124d557600080fd5b813560206124e282612f2b565b6040516124ef828261300e565b8381528281019150858301600585901b8701840188101561250f57600080fd5b60005b858110156124b757813584529284019290840190600101612512565b600082601f83011261253f57600080fd5b81356001600160401b0381111561255857612558613081565b60405161256f601f8301601f19166020018261300e565b81815284602083860101111561258457600080fd5b816020850160208301376000918101602001919091529392505050565b6000602082840312156125b357600080fd5b61238a8261242a565b600080604083850312156125cf57600080fd5b6125d88361242a565b91506125e66020840161242a565b90509250929050565b600080600080600060a0868803121561260757600080fd5b6126108661242a565b945061261e6020870161242a565b935060408601356001600160401b038082111561263a57600080fd5b61264689838a016124c4565b9450606088013591508082111561265c57600080fd5b61266889838a016124c4565b9350608088013591508082111561267e57600080fd5b5061268b8882890161252e565b9150509295509295909350565b600080600080600060a086880312156126b057600080fd5b6126b98661242a565b94506126c76020870161242a565b9350604086013592506060860135915060808601356001600160401b038111156126f057600080fd5b61268b8882890161252e565b6000806040838503121561270f57600080fd5b6127188361242a565b91506020830135801515811461272d57600080fd5b809150509250929050565b6000806040838503121561274b57600080fd5b6127548361242a565b915060208301356001600160401b0381111561276f57600080fd5b61277b8582860161252e565b9150509250929050565b6000806040838503121561279857600080fd5b6127a18361242a565b946020939093013593505050565b600080604083850312156127c257600080fd5b82356001600160401b03808211156127d957600080fd5b6127e586838701612446565b935060208501359150808211156127fb57600080fd5b5061277b858286016124c4565b6000806040838503121561281b57600080fd5b82356001600160401b0381111561283157600080fd5b61283d85828601612446565b95602094909401359450505050565b60006020828403121561285e57600080fd5b5051919050565b60006020828403121561287757600080fd5b813561238a8161313b565b60006020828403121561289457600080fd5b815161238a8161313b565b600080600080608085870312156128b557600080fd5b84356001600160401b03808211156128cc57600080fd5b6128d88883890161252e565b95506128e66020880161242a565b945060408701359150808211156128fc57600080fd5b61290888838901612446565b9350606087013591508082111561291e57600080fd5b5061292b8782880161252e565b91505092959194509250565b60008060006060848603121561294c57600080fd5b83356001600160401b038082111561296357600080fd5b61296f8783880161252e565b9450602086013591508082111561298557600080fd5b506129928682870161252e565b925050604084013590509250925092565b6000602082840312156129b557600080fd5b5035919050565b600081518084526020808501945080840160005b838110156129ec578151875295820195908201906001016129d0565b509495945050505050565b60008151808452612a0f816020860160208601612fa7565b601f01601f19169290920160200192915050565b8054600090600181811c9080831680612a3d57607f831692505b6020808410821415612a5f57634e487b7160e01b600052602260045260246000fd5b818015612a735760018114612a8457612ab1565b60ff19861689528489019650612ab1565b60008881526020902060005b86811015612aa95781548b820152908501908301612a90565b505084890196505b50505050505092915050565b60008251612acf818460208701612fa7565b9190910192915050565b693d913730b6b2911d101160b11b81526000612af8600a830187612a23565b6e1116101131b932b0ba37b9111d101160891b81528551612b2081600f840160208a01612fa7565b6d1116101136b4b73a32b9111d101160911b600f92909101918201528451612b4f81601d840160208901612fa7565b72111610113232b9b1b934b83a34b7b7111d101160691b601d9290910191820152612b7d6030820185612a23565b601160f91b8152607d60f81b6001820152600201979650505050505050565b7f646174613a6170706c69636174696f6e2f6a736f6e3b6261736536342c000000815260008251612bd481601d850160208701612fa7565b91909101601d0192915050565b6001600160a01b0386811682528516602082015260a060408201819052600090612c0d908301866129bc565b8281036060840152612c1f81866129bc565b90508281036080840152612c3381856129f7565b98975050505050505050565b6001600160a01b03868116825285166020820152604081018490526060810183905260a060808201819052600090612c79908301846129f7565b979650505050505050565b60208152600061238a60208301846129bc565b604081526000612caa60408301856129bc565b82810360208401526105b281856129bc565b60208152600061238a60208301846129f7565b606081526000612ce260608301866129f7565b8281036020840152612cf481866129f7565b915050826040830152949350505050565b6020808252601a908201527f5465616d3a206f6e6c792073656c6563746564206d696e746572000000000000604082015260600190565b60208082526028908201527f455243313135353a204552433131353552656365697665722072656a656374656040820152676420746f6b656e7360c01b606082015260800190565b6020808252602c908201527f46756e6374696f6e206d7573742062652063616c6c6564207468726f7567682060408201526b19195b1959d85d1958d85b1b60a21b606082015260800190565b6020808252602c908201527f46756e6374696f6e206d7573742062652063616c6c6564207468726f7567682060408201526b6163746976652070726f787960a01b606082015260800190565b60208082526025908201527f455243313135353a207472616e7366657220746f20746865207a65726f206164604082015264647265737360d81b606082015260800190565b6020808252602a908201527f455243313135353a20696e73756666696369656e742062616c616e636520666f60408201526939103a3930b739b332b960b11b606082015260800190565b6020808252818101527f4f776e61626c653a2063616c6c6572206973206e6f7420746865206f776e6572604082015260600190565b6020808252602b908201527f496e697469616c697a61626c653a20636f6e7472616374206973206e6f74206960408201526a6e697469616c697a696e6760a81b606082015260800190565b60006001600160401b03821115612f4457612f44613081565b5060051b60200190565b60008219821115612f6157612f61613055565b500190565b600082612f8357634e487b7160e01b600052601260045260246000fd5b500490565b6000816000190483118215151615612fa257612fa2613055565b500290565b60005b83811015612fc2578181015183820152602001612faa565b83811115610c7d5750506000910152565b600181811c90821680612fe757607f821691505b6020821081141561300857634e487b7160e01b600052602260045260246000fd5b50919050565b601f8201601f191681016001600160401b038111828210171561303357613033613081565b6040525050565b600060001982141561304e5761304e613055565b5060010190565b634e487b7160e01b600052601160045260246000fd5b634e487b7160e01b600052603260045260246000fd5b634e487b7160e01b600052604160045260246000fd5b600060033d1115610c355760046000803e5060005160e01c90565b600060443d10156130c05790565b6040516003193d81016004833e81513d6001600160401b0381602484011181841117156130ef57505050505090565b82850191508151818111156131075750505050505090565b843d87010160208285010111156131215750505050505090565b6131306020828601018761300e565b509095945050505050565b6001600160e01b03198116811461096d57600080fdfe360894a13ba1a3210667c828492db98dca3e2076cc3735a920a3ca505d382bbc4142434445464748494a4b4c4d4e4f505152535455565758595a6162636465666768696a6b6c6d6e6f707172737475767778797a303132333435363738392b2f416464726573733a206c6f772d6c6576656c2064656c65676174652063616c6c206661696c6564a26469706673582212208765fef20fde43e7a986c75769a510a6669eccf886bcb8285e12b8eaa44ef1c464736f6c63430008070033",
  "devdoc": {
    "kind": "dev",
    "methods": {
      "balanceOf(address,uint256)": {
        "details": "See {IERC1155-balanceOf}. Requirements: - `account` cannot be the zero address."
      },
      "balanceOfBatch(address[],uint256[])": {
        "details": "See {IERC1155-balanceOfBatch}. Requirements: - `accounts` and `ids` must have the same length."
      },
      "isApprovedForAll(address,address)": {
        "details": "See {IERC1155-isApprovedForAll}."
      },
      "owner()": {
        "details": "Returns the address of the current owner."
      },
      "proxiableUUID()": {
        "details": "Implementation of the ERC1822 {proxiableUUID} function. This returns the storage slot used by the implementation. It is used to validate that the this implementation remains valid after an upgrade. IMPORTANT: A proxy pointing at a proxiable contract should not be considered proxiable itself, because this risks bricking a proxy that upgrades to it, by delegating to itself until out of gas. Thus it is critical that this function revert if invoked through a proxy. This is guaranteed by the `notDelegated` modifier."
      },
      "renounceOwnership()": {
        "details": "Leaves the contract without owner. It will not be possible to call `onlyOwner` functions anymore. Can only be called by the current owner. NOTE: Renouncing ownership will leave the contract without an owner, thereby removing any functionality that is only available to the owner."
      },
      "safeBatchTransferFrom(address,address,uint256[],uint256[],bytes)": {
        "details": "See {IERC1155-safeBatchTransferFrom}."
      },
      "safeTransferFrom(address,address,uint256,uint256,bytes)": {
        "details": "See {IERC1155-safeTransferFrom}."
      },
      "setApprovalForAll(address,bool)": {
        "details": "See {IERC1155-setApprovalForAll}."
      },
      "supportsInterface(bytes4)": {
        "details": "See {IERC165-supportsInterface}."
      },
      "transferOwnership(address)": {
        "details": "Transfers ownership of the contract to a new account (`newOwner`). Can only be called by the current owner."
      },
      "upgradeTo(address)": {
        "details": "Upgrade the implementation of the proxy to `newImplementation`. Calls {_authorizeUpgrade}. Emits an {Upgraded} event."
      },
      "upgradeToAndCall(address,bytes)": {
        "details": "Upgrade the implementation of the proxy to `newImplementation`, and subsequently execute the function call encoded in `data`. Calls {_authorizeUpgrade}. Emits an {Upgraded} event."
      }
    },
    "version": 1
  },
  "userdoc": {
    "kind": "user",
    "methods": {},
    "version": 1
  },
  "storageLayout": {
    "storage": [
      {
        "astId": 2736,
        "contract": "contracts/Team.sol:Team",
        "label": "_initialized",
        "offset": 0,
        "slot": "0",
        "type": "t_bool"
      },
      {
        "astId": 2739,
        "contract": "contracts/Team.sol:Team",
        "label": "_initializing",
        "offset": 1,
        "slot": "0",
        "type": "t_bool"
      },
      {
        "astId": 2718,
        "contract": "contracts/Team.sol:Team",
        "label": "__gap",
        "offset": 0,
        "slot": "1",
        "type": "t_array(t_uint256)50_storage"
      },
      {
        "astId": 2938,
        "contract": "contracts/Team.sol:Team",
        "label": "__gap",
        "offset": 0,
        "slot": "51",
        "type": "t_array(t_uint256)50_storage"
      },
      {
        "astId": 7651,
        "contract": "contracts/Team.sol:Team",
        "label": "__gap",
        "offset": 0,
        "slot": "101",
        "type": "t_array(t_uint256)50_storage"
      },
      {
        "astId": 8803,
        "contract": "contracts/Team.sol:Team",
        "label": "__gap",
        "offset": 0,
        "slot": "151",
        "type": "t_array(t_uint256)50_storage"
      },
      {
        "astId": 2968,
        "contract": "contracts/Team.sol:Team",
        "label": "_balances",
        "offset": 0,
        "slot": "201",
        "type": "t_mapping(t_uint256,t_mapping(t_address,t_uint256))"
      },
      {
        "astId": 2974,
        "contract": "contracts/Team.sol:Team",
        "label": "_operatorApprovals",
        "offset": 0,
        "slot": "202",
        "type": "t_mapping(t_address,t_mapping(t_address,t_bool))"
      },
      {
        "astId": 2976,
        "contract": "contracts/Team.sol:Team",
        "label": "_uri",
        "offset": 0,
        "slot": "203",
        "type": "t_string_storage"
      },
      {
        "astId": 4056,
        "contract": "contracts/Team.sol:Team",
        "label": "__gap",
        "offset": 0,
        "slot": "204",
        "type": "t_array(t_uint256)47_storage"
      },
      {
        "astId": 541,
        "contract": "contracts/Team.sol:Team",
        "label": "_owner",
        "offset": 0,
        "slot": "251",
        "type": "t_address"
      },
      {
        "astId": 653,
        "contract": "contracts/Team.sol:Team",
        "label": "__gap",
        "offset": 0,
        "slot": "252",
        "type": "t_array(t_uint256)49_storage"
      },
      {
        "astId": 19046,
        "contract": "contracts/Team.sol:Team",
        "label": "creatorOf",
        "offset": 0,
        "slot": "301",
        "type": "t_mapping(t_uint256,t_address)"
      },
      {
        "astId": 19050,
        "contract": "contracts/Team.sol:Team",
        "label": "minterOf",
        "offset": 0,
        "slot": "302",
        "type": "t_mapping(t_uint256,t_address)"
      },
      {
        "astId": 19054,
        "contract": "contracts/Team.sol:Team",
        "label": "nameOf",
        "offset": 0,
        "slot": "303",
        "type": "t_mapping(t_uint256,t_string_storage)"
      },
      {
        "astId": 19058,
        "contract": "contracts/Team.sol:Team",
        "label": "descriptionOf",
        "offset": 0,
        "slot": "304",
        "type": "t_mapping(t_uint256,t_string_storage)"
      },
      {
        "astId": 19061,
        "contract": "contracts/Team.sol:Team",
        "label": "_tokenIds",
        "offset": 0,
        "slot": "305",
        "type": "t_struct(Counter)13987_storage"
      }
    ],
    "types": {
      "t_address": {
        "encoding": "inplace",
        "label": "address",
        "numberOfBytes": "20"
      },
      "t_array(t_uint256)47_storage": {
        "base": "t_uint256",
        "encoding": "inplace",
        "label": "uint256[47]",
        "numberOfBytes": "1504"
      },
      "t_array(t_uint256)49_storage": {
        "base": "t_uint256",
        "encoding": "inplace",
        "label": "uint256[49]",
        "numberOfBytes": "1568"
      },
      "t_array(t_uint256)50_storage": {
        "base": "t_uint256",
        "encoding": "inplace",
        "label": "uint256[50]",
        "numberOfBytes": "1600"
      },
      "t_bool": {
        "encoding": "inplace",
        "label": "bool",
        "numberOfBytes": "1"
      },
      "t_mapping(t_address,t_bool)": {
        "encoding": "mapping",
        "key": "t_address",
        "label": "mapping(address => bool)",
        "numberOfBytes": "32",
        "value": "t_bool"
      },
      "t_mapping(t_address,t_mapping(t_address,t_bool))": {
        "encoding": "mapping",
        "key": "t_address",
        "label": "mapping(address => mapping(address => bool))",
        "numberOfBytes": "32",
        "value": "t_mapping(t_address,t_bool)"
      },
      "t_mapping(t_address,t_uint256)": {
        "encoding": "mapping",
        "key": "t_address",
        "label": "mapping(address => uint256)",
        "numberOfBytes": "32",
        "value": "t_uint256"
      },
      "t_mapping(t_uint256,t_address)": {
        "encoding": "mapping",
        "key": "t_uint256",
        "label": "mapping(uint256 => address)",
        "numberOfBytes": "32",
        "value": "t_address"
      },
      "t_mapping(t_uint256,t_mapping(t_address,t_uint256))": {
        "encoding": "mapping",
        "key": "t_uint256",
        "label": "mapping(uint256 => mapping(address => uint256))",
        "numberOfBytes": "32",
        "value": "t_mapping(t_address,t_uint256)"
      },
      "t_mapping(t_uint256,t_string_storage)": {
        "encoding": "mapping",
        "key": "t_uint256",
        "label": "mapping(uint256 => string)",
        "numberOfBytes": "32",
        "value": "t_string_storage"
      },
      "t_string_storage": {
        "encoding": "bytes",
        "label": "string",
        "numberOfBytes": "32"
      },
      "t_struct(Counter)13987_storage": {
        "encoding": "inplace",
        "label": "struct Counters.Counter",
        "members": [
          {
            "astId": 13986,
            "contract": "contracts/Team.sol:Team",
            "label": "_value",
            "offset": 0,
            "slot": "0",
            "type": "t_uint256"
          }
        ],
        "numberOfBytes": "32"
      },
      "t_uint256": {
        "encoding": "inplace",
        "label": "uint256",
        "numberOfBytes": "32"
      }
    }
  }
}