{
  "address": "0x2D76FCCC67645A61794cB65584c5e89A9f3945Ed",
  "abi": [
    {
      "anonymous": false,
      "inputs": [
        {
          "indexed": false,
          "internalType": "address",
          "name": "previousAdmin",
          "type": "address"
        },
        {
          "indexed": false,
          "internalType": "address",
          "name": "newAdmin",
          "type": "address"
        }
      ],
      "name": "AdminChanged",
      "type": "event"
    },
    {
      "anonymous": false,
      "inputs": [
        {
          "indexed": false,
          "internalType": "address",
          "name": "target",
          "type": "address"
        }
      ],
      "name": "AllowAddress",
      "type": "event"
    },
    {
      "anonymous": false,
      "inputs": [
        {
          "indexed": false,
          "internalType": "uint256",
          "name": "amount",
          "type": "uint256"
        }
      ],
      "name": "AllowAmount",
      "type": "event"
    },
    {
      "anonymous": false,
      "inputs": [
        {
          "indexed": false,
          "internalType": "address",
          "name": "token",
          "type": "address"
        }
      ],
      "name": "AllowToken",
      "type": "event"
    },
    {
      "anonymous": false,
      "inputs": [
        {
          "indexed": false,
          "internalType": "uint256",
          "name": "id",
          "type": "uint256"
        },
        {
          "indexed": false,
          "internalType": "address",
          "name": "approver",
          "type": "address"
        }
      ],
      "name": "ApproveTransaction",
      "type": "event"
    },
    {
      "anonymous": false,
      "inputs": [
        {
          "indexed": true,
          "internalType": "address",
          "name": "beacon",
          "type": "address"
        }
      ],
      "name": "BeaconUpgraded",
      "type": "event"
    },
    {
      "anonymous": false,
      "inputs": [
        {
          "indexed": false,
          "internalType": "uint256",
          "name": "id",
          "type": "uint256"
        },
        {
          "indexed": false,
          "internalType": "bytes[]",
          "name": "data",
          "type": "bytes[]"
        },
        {
          "indexed": false,
          "internalType": "uint256",
          "name": "deadline",
          "type": "uint256"
        },
        {
          "indexed": false,
          "internalType": "enum CommonBudgetApproval.Status",
          "name": "status",
          "type": "uint8"
        }
      ],
      "name": "CreateTransaction",
      "type": "event"
    },
    {
      "anonymous": false,
      "inputs": [
        {
          "indexed": false,
          "internalType": "uint256",
          "name": "id",
          "type": "uint256"
        },
        {
          "indexed": false,
          "internalType": "bytes[]",
          "name": "data",
          "type": "bytes[]"
        },
        {
          "indexed": false,
          "internalType": "address",
          "name": "executor",
          "type": "address"
        }
      ],
      "name": "ExecuteTransaction",
      "type": "event"
    },
    {
      "anonymous": false,
      "inputs": [
        {
          "indexed": false,
          "internalType": "uint256",
          "name": "id",
          "type": "uint256"
        }
      ],
      "name": "RevokeTransaction",
      "type": "event"
    },
    {
      "anonymous": false,
      "inputs": [
        {
          "indexed": false,
          "internalType": "address",
          "name": "approver",
          "type": "address"
        }
      ],
      "name": "SetApprover",
      "type": "event"
    },
    {
      "anonymous": false,
      "inputs": [
        {
          "indexed": true,
          "internalType": "address",
          "name": "implementation",
          "type": "address"
        }
      ],
      "name": "Upgraded",
      "type": "event"
    },
    {
      "inputs": [],
      "name": "ETH_ADDRESS",
      "outputs": [
        {
          "internalType": "address",
          "name": "",
          "type": "address"
        }
      ],
      "stateMutability": "view",
      "type": "function"
    },
    {
      "inputs": [
        {
          "internalType": "address",
          "name": "",
          "type": "address"
        }
      ],
      "name": "addressesMapping",
      "outputs": [
        {
          "internalType": "bool",
          "name": "",
          "type": "bool"
        }
      ],
      "stateMutability": "view",
      "type": "function"
    },
    {
      "inputs": [],
      "name": "afterInitialized",
      "outputs": [],
      "stateMutability": "nonpayable",
      "type": "function"
    },
    {
      "inputs": [],
      "name": "allowAllAddresses",
      "outputs": [
        {
          "internalType": "bool",
          "name": "",
          "type": "bool"
        }
      ],
      "stateMutability": "view",
      "type": "function"
    },
    {
      "inputs": [],
      "name": "allowAllTokens",
      "outputs": [
        {
          "internalType": "bool",
          "name": "",
          "type": "bool"
        }
      ],
      "stateMutability": "view",
      "type": "function"
    },
    {
      "inputs": [],
      "name": "allowAnyAmount",
      "outputs": [
        {
          "internalType": "bool",
          "name": "",
          "type": "bool"
        }
      ],
      "stateMutability": "view",
      "type": "function"
    },
    {
      "inputs": [],
      "name": "allowUnlimitedUsageCount",
      "outputs": [
        {
          "internalType": "bool",
          "name": "",
          "type": "bool"
        }
      ],
      "stateMutability": "view",
      "type": "function"
    },
    {
      "inputs": [],
      "name": "amountPercentage",
      "outputs": [
        {
          "internalType": "uint8",
          "name": "",
          "type": "uint8"
        }
      ],
      "stateMutability": "view",
      "type": "function"
    },
    {
      "inputs": [
        {
          "internalType": "uint256",
          "name": "id",
          "type": "uint256"
        }
      ],
      "name": "approveTransaction",
      "outputs": [],
      "stateMutability": "nonpayable",
      "type": "function"
    },
    {
      "inputs": [
        {
          "internalType": "uint256",
          "name": "id",
          "type": "uint256"
        }
      ],
      "name": "approvedCountOf",
      "outputs": [
        {
          "internalType": "uint256",
          "name": "",
          "type": "uint256"
        }
      ],
      "stateMutability": "view",
      "type": "function"
    },
    {
      "inputs": [],
      "name": "approverTeamId",
      "outputs": [
        {
          "internalType": "uint256",
          "name": "",
          "type": "uint256"
        }
      ],
      "stateMutability": "view",
      "type": "function"
    },
    {
      "inputs": [
        {
          "internalType": "address",
          "name": "",
          "type": "address"
        }
      ],
      "name": "approversMapping",
      "outputs": [
        {
          "internalType": "bool",
          "name": "",
          "type": "bool"
        }
      ],
      "stateMutability": "view",
      "type": "function"
    },
    {
      "inputs": [
        {
          "internalType": "bytes[]",
          "name": "_data",
          "type": "bytes[]"
        },
        {
          "internalType": "uint256",
          "name": "_deadline",
          "type": "uint256"
        },
        {
          "internalType": "bool",
          "name": "_isExecute",
          "type": "bool"
        }
      ],
      "name": "createTransaction",
      "outputs": [
        {
          "internalType": "uint256",
          "name": "",
          "type": "uint256"
        }
      ],
      "stateMutability": "nonpayable",
      "type": "function"
    },
    {
      "inputs": [],
      "name": "dao",
      "outputs": [
        {
          "internalType": "address payable",
          "name": "",
          "type": "address"
        }
      ],
      "stateMutability": "view",
      "type": "function"
    },
    {
      "inputs": [
        {
          "internalType": "uint256",
          "name": "id",
          "type": "uint256"
        }
      ],
      "name": "deadlineOf",
      "outputs": [
        {
          "internalType": "uint256",
          "name": "",
          "type": "uint256"
        }
      ],
      "stateMutability": "view",
      "type": "function"
    },
    {
      "inputs": [],
      "name": "endTime",
      "outputs": [
        {
          "internalType": "uint256",
          "name": "",
          "type": "uint256"
        }
      ],
      "stateMutability": "view",
      "type": "function"
    },
    {
      "inputs": [],
      "name": "executeParams",
      "outputs": [
        {
          "internalType": "string[]",
          "name": "",
          "type": "string[]"
        }
      ],
      "stateMutability": "pure",
      "type": "function"
    },
    {
      "inputs": [
        {
          "internalType": "uint256",
          "name": "id",
          "type": "uint256"
        }
      ],
      "name": "executeTransaction",
      "outputs": [],
      "stateMutability": "nonpayable",
      "type": "function"
    },
    {
      "inputs": [],
      "name": "executee",
      "outputs": [
        {
          "internalType": "address",
          "name": "",
          "type": "address"
        }
      ],
      "stateMutability": "view",
      "type": "function"
    },
    {
      "inputs": [],
      "name": "executor",
      "outputs": [
        {
          "internalType": "address",
          "name": "",
          "type": "address"
        }
      ],
      "stateMutability": "view",
      "type": "function"
    },
    {
      "inputs": [],
      "name": "executorTeamId",
      "outputs": [
        {
          "internalType": "uint256",
          "name": "",
          "type": "uint256"
        }
      ],
      "stateMutability": "view",
      "type": "function"
    },
    {
      "inputs": [
        {
          "components": [
            {
              "internalType": "address",
              "name": "dao",
              "type": "address"
            },
            {
              "internalType": "address",
              "name": "executor",
              "type": "address"
            },
            {
              "internalType": "uint256",
              "name": "executorTeamId",
              "type": "uint256"
            },
            {
              "internalType": "address[]",
              "name": "approvers",
              "type": "address[]"
            },
            {
              "internalType": "uint256",
              "name": "approverTeamId",
              "type": "uint256"
            },
            {
              "internalType": "uint256",
              "name": "minApproval",
              "type": "uint256"
            },
            {
              "internalType": "string",
              "name": "text",
              "type": "string"
            },
            {
              "internalType": "string",
              "name": "transactionType",
              "type": "string"
            },
            {
              "internalType": "uint256",
              "name": "startTime",
              "type": "uint256"
            },
            {
              "internalType": "uint256",
              "name": "endTime",
              "type": "uint256"
            },
            {
              "internalType": "bool",
              "name": "allowUnlimitedUsageCount",
              "type": "bool"
            },
            {
              "internalType": "uint256",
              "name": "usageCount",
              "type": "uint256"
            },
            {
              "internalType": "address",
              "name": "team",
              "type": "address"
            }
          ],
          "internalType": "struct CommonBudgetApproval.InitializeParams",
          "name": "params",
          "type": "tuple"
        },
        {
          "internalType": "bool",
          "name": "_allowAllAddresses",
          "type": "bool"
        },
        {
          "internalType": "address[]",
          "name": "_toAddresses",
          "type": "address[]"
        },
        {
          "internalType": "bool",
          "name": "_allowAllTokens",
          "type": "bool"
        },
        {
          "internalType": "address",
          "name": "_token",
          "type": "address"
        },
        {
          "internalType": "bool",
          "name": "_allowAnyAmount",
          "type": "bool"
        },
        {
          "internalType": "uint256",
          "name": "_totalAmount",
          "type": "uint256"
        },
        {
          "internalType": "uint8",
          "name": "_amountPercentage",
          "type": "uint8"
        }
      ],
      "name": "initialize",
      "outputs": [],
      "stateMutability": "nonpayable",
      "type": "function"
    },
    {
      "inputs": [],
      "name": "minApproval",
      "outputs": [
        {
          "internalType": "uint256",
          "name": "",
          "type": "uint256"
        }
      ],
      "stateMutability": "view",
      "type": "function"
    },
    {
      "inputs": [],
      "name": "name",
      "outputs": [
        {
          "internalType": "string",
          "name": "",
          "type": "string"
        }
      ],
      "stateMutability": "view",
      "type": "function"
    },
    {
      "inputs": [],
      "name": "proxiableUUID",
      "outputs": [
        {
          "internalType": "bytes32",
          "name": "",
          "type": "bytes32"
        }
      ],
      "stateMutability": "view",
      "type": "function"
    },
    {
      "inputs": [
        {
          "internalType": "uint256",
          "name": "id",
          "type": "uint256"
        }
      ],
      "name": "revokeTransaction",
      "outputs": [],
      "stateMutability": "nonpayable",
      "type": "function"
    },
    {
      "inputs": [],
      "name": "startTime",
      "outputs": [
        {
          "internalType": "uint256",
          "name": "",
          "type": "uint256"
        }
      ],
      "stateMutability": "view",
      "type": "function"
    },
    {
      "inputs": [
        {
          "internalType": "uint256",
          "name": "id",
          "type": "uint256"
        }
      ],
      "name": "statusOf",
      "outputs": [
        {
          "internalType": "enum CommonBudgetApproval.Status",
          "name": "",
          "type": "uint8"
        }
      ],
      "stateMutability": "view",
      "type": "function"
    },
    {
      "inputs": [],
      "name": "team",
      "outputs": [
        {
          "internalType": "address",
          "name": "",
          "type": "address"
        }
      ],
      "stateMutability": "view",
      "type": "function"
    },
    {
      "inputs": [],
      "name": "text",
      "outputs": [
        {
          "internalType": "string",
          "name": "",
          "type": "string"
        }
      ],
      "stateMutability": "view",
      "type": "function"
    },
    {
      "inputs": [],
      "name": "token",
      "outputs": [
        {
          "internalType": "address",
          "name": "",
          "type": "address"
        }
      ],
      "stateMutability": "view",
      "type": "function"
    },
    {
      "inputs": [],
      "name": "totalAmount",
      "outputs": [
        {
          "internalType": "uint256",
          "name": "",
          "type": "uint256"
        }
      ],
      "stateMutability": "view",
      "type": "function"
    },
    {
      "inputs": [],
      "name": "transactionType",
      "outputs": [
        {
          "internalType": "string",
          "name": "",
          "type": "string"
        }
      ],
      "stateMutability": "view",
      "type": "function"
    },
    {
      "inputs": [
        {
          "internalType": "uint256",
          "name": "",
          "type": "uint256"
        }
      ],
      "name": "transactions",
      "outputs": [
        {
          "internalType": "uint256",
          "name": "id",
          "type": "uint256"
        },
        {
          "internalType": "enum CommonBudgetApproval.Status",
          "name": "status",
          "type": "uint8"
        },
        {
          "internalType": "uint256",
          "name": "deadline",
          "type": "uint256"
        },
        {
          "internalType": "uint256",
          "name": "approvedCount",
          "type": "uint256"
        },
        {
          "internalType": "bool",
          "name": "isExist",
          "type": "bool"
        }
      ],
      "stateMutability": "view",
      "type": "function"
    },
    {
      "inputs": [
        {
          "internalType": "address",
          "name": "newImplementation",
          "type": "address"
        }
      ],
      "name": "upgradeTo",
      "outputs": [],
      "stateMutability": "nonpayable",
      "type": "function"
    },
    {
      "inputs": [
        {
          "internalType": "address",
          "name": "newImplementation",
          "type": "address"
        },
        {
          "internalType": "bytes",
          "name": "data",
          "type": "bytes"
        }
      ],
      "name": "upgradeToAndCall",
      "outputs": [],
      "stateMutability": "payable",
      "type": "function"
    },
    {
      "inputs": [],
      "name": "usageCount",
      "outputs": [
        {
          "internalType": "uint256",
          "name": "",
          "type": "uint256"
        }
      ],
      "stateMutability": "view",
      "type": "function"
    }
  ],
  "transactionHash": "0x24e812bdf003a86d7fdd7b96919a60613086b73bbc2a98ca890e7a9d95711a2f",
  "args": [],
  "numDeployments": 1,
  "solcInputHash": "86dfe1265a8c9c9d3960345b0927392b",
  "bytecode": "0x60a06040523060601b60805234801561001757600080fd5b5060805160601c612f6a61005260003960008181610bcc01528181610c0c01528181610cac01528181610cec0152610d7f0152612f6a6000f3fe60806040526004361061021a5760003560e01c80637cd47d9311610123578063b18b32fb116100ab578063d96c91961161006f578063d96c9196146106d4578063de755e2f146106ea578063ee22610b14610700578063f5c0385214610720578063fc0c546a1461074057600080fd5b8063b18b32fb14610638578063b617b3ee14610664578063c34c08e514610685578063cd753b6c146106a5578063cf26fec6146106bf57600080fd5b8063914e4909116100f2578063914e49091461052f5780639ace38c21461054f578063a734f06e146105b0578063ad21a579146105d8578063ad35efd4146105f857600080fd5b80637cd47d93146104a957806385015437146104be57806385f2aef2146104df5780638d1c5c29146104ff57600080fd5b80634162169f116101a657806352d1902d1161017557806352d1902d146104045780635ad32502146104195780636bdebe5e14610443578063735631ad1461047357806378e979251461049357600080fd5b80634162169f146103735780634f1ef286146103ab5780635078f67a146103be57806350bd881f146103ee57600080fd5b8063242232d1116101ed578063242232d1146102c95780633197cbb6146102eb57806331a7bdd9146103015780633659cfe6146103235780633ed38daf1461034357600080fd5b806303ff90f61461021f57806306fdde03146102485780631a39d8ef1461029e5780631f1bd692146102b4575b600080fd5b34801561022b57600080fd5b50610235606d5481565b6040519081526020015b60405180910390f35b34801561025457600080fd5b506102916040518060400160405280601e81526020017f5472616e736665722045524332302042756467657420417070726f76616c000081525081565b60405161023f919061296f565b3480156102aa57600080fd5b5061023560775481565b3480156102c057600080fd5b50610291610765565b3480156102d557600080fd5b506102e96102e4366004612848565b6107f3565b005b3480156102f757600080fd5b5061023560735481565b34801561030d57600080fd5b50610316610ac0565b60405161023f91906128ff565b34801561032f57600080fd5b506102e961033e366004612559565b610bc1565b34801561034f57600080fd5b5061023561035e366004612848565b60009081526066602052604090206003015490565b34801561037f57600080fd5b50606954610393906001600160a01b031681565b6040516001600160a01b03909116815260200161023f565b6102e96103b93660046125b9565b610ca1565b3480156103ca57600080fd5b506102356103d9366004612848565b60009081526066602052604090206005015490565b3480156103fa57600080fd5b5061023560715481565b34801561041057600080fd5b50610235610d72565b34801561042557600080fd5b506070546104339060ff1681565b604051901515815260200161023f565b34801561044f57600080fd5b5061043361045e366004612559565b606b6020526000908152604090205460ff1681565b34801561047f57600080fd5b506102e961048e366004612848565b610e25565b34801561049f57600080fd5b5061023560725481565b3480156104b557600080fd5b50610291610fad565b3480156104ca57600080fd5b5060765461043390600160a81b900460ff1681565b3480156104eb57600080fd5b50607454610393906001600160a01b031681565b34801561050b57600080fd5b5061043361051a366004612559565b60756020526000908152604090205460ff1681565b34801561053b57600080fd5b5061023561054a366004612609565b610fba565b34801561055b57600080fd5b5061059f61056a366004612848565b60666020526000908152604090208054600282015460038301546005840154600690940154929360ff92831693919290911685565b60405161023f959493929190612c30565b3480156105bc57600080fd5b5061039373eeeeeeeeeeeeeeeeeeeeeeeeeeeeeeeeeeeeeeee81565b3480156105e457600080fd5b506102e96105f336600461277d565b611171565b34801561060457600080fd5b5061062b610613366004612848565b60009081526066602052604090206002015460ff1690565b60405161023f9190612961565b34801561064457600080fd5b506078546106529060ff1681565b60405160ff909116815260200161023f565b34801561067057600080fd5b5060745461043390600160a01b900460ff1681565b34801561069157600080fd5b50606754610393906001600160a01b031681565b3480156106b157600080fd5b506076546104339060ff1681565b3480156106cb57600080fd5b506102e961129f565b3480156106e057600080fd5b50610235606c5481565b3480156106f657600080fd5b5061023560685481565b34801561070c57600080fd5b506102e961071b366004612848565b611306565b34801561072c57600080fd5b50606a54610393906001600160a01b031681565b34801561074c57600080fd5b506076546103939061010090046001600160a01b031681565b606e805461077290612e2a565b80601f016020809104026020016040519081016040528092919081815260200182805461079e90612e2a565b80156107eb5780601f106107c0576101008083540402835291602001916107eb565b820191906000526020600020905b8154815290600101906020018083116107ce57829003601f168201915b505050505081565b336000908152606b602052604090205460ff16806108935750607454606c54604051627eeac760e11b815233600482015260248101919091526000916001600160a01b03169062fdd58e9060440160206040518083038186803b15801561085957600080fd5b505afa15801561086d573d6000803e3d6000fd5b505050506040513d601f19601f8201168201806040525081019061089191906126f6565b115b6108ef5760405162461bcd60e51b815260206004820152602260248201527f417070726f766572206e6f742077686974656c697374656420696e2062756467604482015261195d60f21b60648201526084015b60405180910390fd5b60008181526066602052604081206002015460ff16600381111561091557610915612e96565b14806109465750600160008281526066602052604090206002015460ff16600381111561094457610944612e96565b145b6109925760405162461bcd60e51b815260206004820152601d60248201527f556e6578706563746564207472616e73616374696f6e2073746174757300000060448201526064016108e6565b600081815260666020908152604080832033845260040190915290205460ff1615610a0b5760405162461bcd60e51b8152602060048201526024808201527f5472616e73616374696f6e20686173206265656e20617070726f766564206265604482015263666f726560e01b60648201526084016108e6565b6000818152606660208181526040808420338552600481018352908420805460ff19166001179055848452919052600501805491610a4883612e65565b9091555050606d5460008281526066602052604090206005015410610a84576000818152606660205260409020600201805460ff191660011790555b604080518281523360208201527f72224bf551d1ce069c1a2440132e14e1ef15d45977e00541090a35901e527f3b91015b60405180910390a150565b6040805160038082526080820190925260609160009190816020015b6060815260200190600190039081610adc5790505090506040518060400160405280600d81526020016c30b2323932b9b9903a37b5b2b760991b81525081600081518110610b2c57610b2c612eac565b60200260200101819052506040518060400160405280600a8152602001696164647265737320746f60b01b81525081600181518110610b6d57610b6d612eac565b60200260200101819052506040518060400160405280600d81526020016c75696e743235362076616c756560981b81525081600281518110610bb157610bb1612eac565b6020908102919091010152919050565b306001600160a01b037f0000000000000000000000000000000000000000000000000000000000000000161415610c0a5760405162461bcd60e51b81526004016108e690612982565b7f00000000000000000000000000000000000000000000000000000000000000006001600160a01b0316610c53600080516020612eee833981519152546001600160a01b031690565b6001600160a01b031614610c795760405162461bcd60e51b81526004016108e6906129ce565b610c828161170a565b60408051600080825260208201909252610c9e9183919061177c565b50565b306001600160a01b037f0000000000000000000000000000000000000000000000000000000000000000161415610cea5760405162461bcd60e51b81526004016108e690612982565b7f00000000000000000000000000000000000000000000000000000000000000006001600160a01b0316610d33600080516020612eee833981519152546001600160a01b031690565b6001600160a01b031614610d595760405162461bcd60e51b81526004016108e6906129ce565b610d628261170a565b610d6e8282600161177c565b5050565b6000306001600160a01b037f00000000000000000000000000000000000000000000000000000000000000001614610e125760405162461bcd60e51b815260206004820152603860248201527f555550535570677261646561626c653a206d757374206e6f742062652063616c60448201527f6c6564207468726f7567682064656c656761746563616c6c000000000000000060648201526084016108e6565b50600080516020612eee83398151915290565b6067546001600160a01b0316331480610ec05750607454606854604051627eeac760e11b815233600482015260248101919091526000916001600160a01b03169062fdd58e9060440160206040518083038186803b158015610e8657600080fd5b505afa158015610e9a573d6000803e3d6000fd5b505050506040513d601f19601f82011682018060405250810190610ebe91906126f6565b115b610edc5760405162461bcd60e51b81526004016108e690612a68565b600260008281526066602052604090206002015460ff166003811115610f0457610f04612e96565b1415610f605760405162461bcd60e51b815260206004820152602560248201527f5472616e73616374696f6e20686173206265656e20636f6d706c65746564206260448201526465666f726560d81b60648201526084016108e6565b600081815260666020908152604091829020600201805460ff1916600317905590518281527f92a917be073b79ab50f9d997e9514a5d101e052ce04228014947e7883a7c03469101610ab5565b606f805461077290612e2a565b6067546000906001600160a01b03163314806110585750607454606854604051627eeac760e11b815233600482015260248101919091526000916001600160a01b03169062fdd58e9060440160206040518083038186803b15801561101e57600080fd5b505afa158015611032573d6000803e3d6000fd5b505050506040513d601f19601f8201168201806040525081019061105691906126f6565b115b6110745760405162461bcd60e51b81526004016108e690612a68565b611082606580546001019055565b600061108d60655490565b60008181526066602090815260409091208281558751929350916110b99160018401919089019061229f565b506003810185905560068101805460ff19166001179055606d546110f8576000828152606660205260409020600201805460ff19166001179055611112565b6000828152606660205260409020600201805460ff191690555b60028101546040517ff7b10f12a6c66358a337baada438de41a306929aefcec529de156f2686eafd899161114f9185918a918a9160ff1690612aaa565b60405180910390a183156111665761116682611306565b5090505b9392505050565b600054610100900460ff1661118c5760005460ff1615611190565b303b155b6111ac5760405162461bcd60e51b81526004016108e690612a1a565b600054610100900460ff161580156111ce576000805461ffff19166101011790555b6111d7896118fb565b6074805460ff60a01b1916600160a01b8a15150217905560005b875181101561122e5761121c88828151811061120f5761120f612eac565b6020026020010151611bea565b8061122681612e65565b9150506111f1565b50607680546001600160a81b031916871515610100600160a81b031916176101006001600160a01b038816021760ff60a81b1916600160a81b8615150217905560778390556078805460ff191660ff84161790558015611294576000805461ff00191690555b505050505050505050565b606a546001600160a01b031633146113045760405162461bcd60e51b815260206004820152602260248201527f4578656375746565206e6f742077686974656c697374656420696e2062756467604482015261195d60f21b60648201526084016108e6565b565b8060018060008381526066602052604090206002015460ff16600381111561133057611330612e96565b1461137d5760405162461bcd60e51b815260206004820152601a60248201527f5472616e73616374696f6e2073746174757320696e76616c696400000000000060448201526064016108e6565b60008381526066602052604090206003015483904211156113d65760405162461bcd60e51b8152602060048201526013602482015272151c985b9cd858dd1a5bdb88195e1c1a5c9959606a1b60448201526064016108e6565b6072544210156114285760405162461bcd60e51b815260206004820152601f60248201527f42756467657420757361676520706572696f64206e6f7420737461727465640060448201526064016108e6565b607354156114815760735442106114815760405162461bcd60e51b815260206004820152601d60248201527f42756467657420757361676520706572696f642068617320656e64656400000060448201526064016108e6565b6067546001600160a01b031633148061151c5750607454606854604051627eeac760e11b815233600482015260248101919091526000916001600160a01b03169062fdd58e9060440160206040518083038186803b1580156114e257600080fd5b505afa1580156114f6573d6000803e3d6000fd5b505050506040513d601f19601f8201168201806040525081019061151a91906126f6565b115b6115385760405162461bcd60e51b81526004016108e690612a68565b60005b6000858152606660205260409020600101548110156116a65760705460ff168061156757506000607154115b6115b35760405162461bcd60e51b815260206004820152601c60248201527f457863656564656420627564676574207573616765206c696d6974200000000060448201526064016108e6565b60705460ff166115d357607180549060006115cd83612e13565b91905055505b60008581526066602052604090206001018054611694918791849081106115fc576115fc612eac565b90600052602060002001805461161190612e2a565b80601f016020809104026020016040519081016040528092919081815260200182805461163d90612e2a565b801561168a5780601f1061165f5761010080835404028352916020019161168a565b820191906000526020600020905b81548152906001019060200180831161166d57829003601f168201915b5050505050611c99565b8061169e81612e65565b91505061153b565b50600084815260666020526040908190206002808201805460ff1916909117905590517f9060adf413860c5ab6e376e0aa4269e49a13f0853edb1583fce8129d4c756d79916116fc918791600101903390612b21565b60405180910390a150505050565b600054610100900460ff166117255760005460ff1615611729565b303b155b6117455760405162461bcd60e51b81526004016108e690612a1a565b600054610100900460ff16158015611767576000805461ffff19166101011790555b8015610d6e576000805461ff00191690555050565b7f4910fdfa16fed3260ed0e7147f7cc6da11a60208b5b9406d12a635614ffd91435460ff16156117b4576117af83611f8e565b505050565b826001600160a01b03166352d1902d6040518163ffffffff1660e01b815260040160206040518083038186803b1580156117ed57600080fd5b505afa92505050801561181d575060408051601f3d908101601f1916820190925261181a918101906126f6565b60015b6118805760405162461bcd60e51b815260206004820152602e60248201527f45524331393637557067726164653a206e657720696d706c656d656e7461746960448201526d6f6e206973206e6f74205555505360901b60648201526084016108e6565b600080516020612eee83398151915281146118ef5760405162461bcd60e51b815260206004820152602960248201527f45524331393637557067726164653a20756e737570706f727465642070726f786044820152681a58589b195555525160ba1b60648201526084016108e6565b506117af83838361202a565b600054610100900460ff166119665760405162461bcd60e51b815260206004820152602b60248201527f496e697469616c697a61626c653a20636f6e7472616374206973206e6f74206960448201526a6e697469616c697a696e6760a81b60648201526084016108e6565b6119736020820182612559565b606980546001600160a01b03929092166001600160a01b0319928316179055606a8054909116331790556119ad6040820160208301612559565b606780546001600160a01b0319166001600160a01b03929092169190911790556119da60c0820182612cb3565b6119e691606e916122fc565b506119f460e0820182612cb3565b611a0091606f916122fc565b5060005b611a116060830183612c62565b9050811015611afa576001606b6000611a2d6060860186612c62565b85818110611a3d57611a3d612eac565b9050602002016020810190611a529190612559565b6001600160a01b031681526020810191909152604001600020805460ff19169115159190911790557f4664777dbfbcb27de0f602e1da5d5a259992cd7edf5b29192929c96e8fd50def611aa86060840184612c62565b83818110611ab857611ab8612eac565b9050602002016020810190611acd9190612559565b6040516001600160a01b03909116815260200160405180910390a180611af281612e65565b915050611a04565b5060a0810135606d556080810135151580611b255750611b1d6060820182612c62565b9050606d5411155b611b695760405162461bcd60e51b8152602060048201526015602482015274125b9d985b1a5908185c1c1c9bdd995c881b1a5cdd605a1b60448201526064016108e6565b610100810135607255610120810135607355611b8d610160820161014083016126db565b6070805460ff1916911515919091179055610160810135607155611bb96101a082016101808301612559565b607480546001600160a01b0319166001600160a01b0392909216919091179055604081013560685560800135606c55565b6001600160a01b03811660009081526075602052604090205460ff1615611c455760405162461bcd60e51b815260206004820152600f60248201526e323ab83634b1b0ba32903a37b5b2b760891b60448201526064016108e6565b6001600160a01b038116600081815260756020908152604091829020805460ff1916600117905590519182527ff11283a265d7a5f95fbc149dc65464f1f5be0151aac387fd76a938e1e55846049101610ab5565b600080600083806020019051810190611cb29190612576565b604080516001600160a01b038481166024830152604480830185905283518084039091018152606490920183526020820180516001600160e01b031663a9059cbb60e01b179052606a54925163d3abc28b60e01b8152959850939650919450909291169063d3abc28b90611d2f90879085906000906004016128cb565b600060405180830381600087803b158015611d4957600080fd5b505af1158015611d5d573d6000803e3d6000fd5b505050506040513d6000823e601f3d908101601f19168201604052611d85919081019061270f565b50607454600160a01b900460ff1680611db657506001600160a01b03831660009081526075602052604090205460ff165b611e0e5760405162461bcd60e51b815260206004820152602360248201527f526563697069656e74206e6f742077686974656c697374656420696e2062756460448201526219d95d60ea1b60648201526084016108e6565b60765460ff1680611e3157506076546001600160a01b0385811661010090920416145b611e7d5760405162461bcd60e51b815260206004820152601f60248201527f546f6b656e206e6f742077686974656c697374656420696e206275646765740060448201526064016108e6565b607654600160a81b900460ff1680611e9757506077548211155b611ef35760405162461bcd60e51b815260206004820152602760248201527f4578636565646564206d617820627564676574207472616e7366657261626c6560448201526608185b5bdd5b9d60ca1b60648201526084016108e6565b611efd8285612055565b611f5d5760405162461bcd60e51b815260206004820152602b60248201527f4578636565646564206d617820627564676574207472616e7366657261626c6560448201526a2070657263656e7461676560a81b60648201526084016108e6565b607654600160a81b900460ff16611f86578160776000828254611f809190612dd0565b90915550505b505050505050565b6001600160a01b0381163b611ffb5760405162461bcd60e51b815260206004820152602d60248201527f455243313936373a206e657720696d706c656d656e746174696f6e206973206e60448201526c1bdd08184818dbdb9d1c9858dd609a1b60648201526084016108e6565b600080516020612eee83398151915280546001600160a01b0319166001600160a01b0392909216919091179055565b61203383612132565b6000825111806120405750805b156117af5761204f8383612172565b50505050565b60785460009060ff166064141561206e5750600161212c565b606a546040516370a0823160e01b81526001600160a01b0391821660048201526000918416906370a082319060240160206040518083038186803b1580156120b557600080fd5b505afa1580156120c9573d6000803e3d6000fd5b505050506040513d601f19601f820116820180604052508101906120ed91906126f6565b6120f79085612d77565b90508061210857600091505061212c565b60785460649061211b9060ff1683612db1565b6121259190612d8f565b8411159150505b92915050565b61213b81611f8e565b6040516001600160a01b038216907fbc7cd75a20ee27fd9adebab32041f755214dbc6bffa90cc0225b39da2e5c2d3b90600090a250565b60606001600160a01b0383163b6121da5760405162461bcd60e51b815260206004820152602660248201527f416464726573733a2064656c65676174652063616c6c20746f206e6f6e2d636f6044820152651b9d1c9858dd60d21b60648201526084016108e6565b600080846001600160a01b0316846040516121f591906128af565b600060405180830381855af49150503d8060008114612230576040519150601f19603f3d011682016040523d82523d6000602084013e612235565b606091505b509150915061225d8282604051806060016040528060278152602001612f0e60279139612266565b95945050505050565b6060831561227557508161116a565b8251156122855782518084602001fd5b8160405162461bcd60e51b81526004016108e6919061296f565b8280548282559060005260206000209081019282156122ec579160200282015b828111156122ec57825180516122dc91849160209091019061237c565b50916020019190600101906122bf565b506122f89291506123f0565b5090565b82805461230890612e2a565b90600052602060002090601f01602090048101928261232a5760008555612370565b82601f106123435782800160ff19823516178555612370565b82800160010185558215612370579182015b82811115612370578235825591602001919060010190612355565b506122f892915061240d565b82805461238890612e2a565b90600052602060002090601f0160209004810192826123aa5760008555612370565b82601f106123c357805160ff1916838001178555612370565b82800160010185558215612370579182015b828111156123705782518255916020019190600101906123d5565b808211156122f85760006124048282612422565b506001016123f0565b5b808211156122f8576000815560010161240e565b50805461242e90612e2a565b6000825580601f1061243e575050565b601f016020900490600052602060002090810190610c9e919061240d565b803561246781612ed8565b919050565b600082601f83011261247d57600080fd5b8135602061249261248d83612d2b565b612cfa565b80838252828201915082860187848660051b89010111156124b257600080fd5b60005b858110156124da5781356124c881612ed8565b845292840192908401906001016124b5565b5090979650505050505050565b8035801515811461246757600080fd5b600082601f83011261250857600080fd5b813561251661248d82612d4f565b81815284602083860101111561252b57600080fd5b816020850160208301376000918101602001919091529392505050565b803560ff8116811461246757600080fd5b60006020828403121561256b57600080fd5b813561116a81612ed8565b60008060006060848603121561258b57600080fd5b835161259681612ed8565b60208501519093506125a781612ed8565b80925050604084015190509250925092565b600080604083850312156125cc57600080fd5b82356125d781612ed8565b9150602083013567ffffffffffffffff8111156125f357600080fd5b6125ff858286016124f7565b9150509250929050565b60008060006060848603121561261e57600080fd5b833567ffffffffffffffff8082111561263657600080fd5b818601915086601f83011261264a57600080fd5b8135602061265a61248d83612d2b565b8083825282820191508286018b848660051b890101111561267a57600080fd5b6000805b868110156126b557823588811115612694578283fd5b6126a28f88838d01016124f7565b865250938501939185019160010161267e565b5091995050505087013594506126d29250506040860190506124e7565b90509250925092565b6000602082840312156126ed57600080fd5b61116a826124e7565b60006020828403121561270857600080fd5b5051919050565b60006020828403121561272157600080fd5b815167ffffffffffffffff81111561273857600080fd5b8201601f8101841361274957600080fd5b805161275761248d82612d4f565b81815285602083850101111561276c57600080fd5b61225d826020830160208601612de7565b600080600080600080600080610100898b03121561279a57600080fd5b883567ffffffffffffffff808211156127b257600080fd5b908a01906101a0828d0312156127c757600080fd5b8199506127d660208c016124e7565b985060408b01359150808211156127ec57600080fd5b506127f98b828c0161246c565b96505061280860608a016124e7565b945061281660808a0161245c565b935061282460a08a016124e7565b925060c0890135915061283960e08a01612548565b90509295985092959890939650565b60006020828403121561285a57600080fd5b5035919050565b60008151808452612879816020860160208601612de7565b601f01601f19169290920160200192915050565b600481106128ab57634e487b7160e01b600052602160045260246000fd5b9052565b600082516128c1818460208701612de7565b9190910192915050565b6001600160a01b03841681526060602082018190526000906128ef90830185612861565b9050826040830152949350505050565b6000602080830181845280855180835260408601915060408160051b870101925083870160005b8281101561295457603f19888603018452612942858351612861565b94509285019290850190600101612926565b5092979650505050505050565b6020810161212c828461288d565b60208152600061116a6020830184612861565b6020808252602c908201527f46756e6374696f6e206d7573742062652063616c6c6564207468726f7567682060408201526b19195b1959d85d1958d85b1b60a21b606082015260800190565b6020808252602c908201527f46756e6374696f6e206d7573742062652063616c6c6564207468726f7567682060408201526b6163746976652070726f787960a01b606082015260800190565b6020808252602e908201527f496e697469616c697a61626c653a20636f6e747261637420697320616c72656160408201526d191e481a5b9a5d1a585b1a5e995960921b606082015260800190565b60208082526022908201527f4578656375746f72206e6f742077686974656c697374656420696e2062756467604082015261195d60f21b606082015260800190565b600060808201868352602060808185015281875180845260a08601915060a08160051b870101935082890160005b82811015612b0657609f19888703018452612af4868351612861565b95509284019290840190600101612ad8565b505050505060408301859052905061225d606083018461288d565b600060608201858352602060608185015281865480845260808601915060808160051b87010193506000888152838120815b83811015612c0a57888703607f1901855281548390600181811c9080831680612b7d57607f831692505b8a8310811415612b9b57634e487b7160e01b88526022600452602488fd5b828c5260208c01818015612bb65760018114612bc757612bf1565b60ff19861682528c82019650612bf1565b6000898152602090208a5b86811015612beb57815484820152908501908e01612bd2565b83019750505b50949b5050978901979490940193505050600101612b53565b5050506001600160a01b038716604087015250919250612c28915050565b949350505050565b85815260a08101612c44602083018761288d565b84604083015283606083015282151560808301529695505050505050565b6000808335601e19843603018112612c7957600080fd5b83018035915067ffffffffffffffff821115612c9457600080fd5b6020019150600581901b3603821315612cac57600080fd5b9250929050565b6000808335601e19843603018112612cca57600080fd5b83018035915067ffffffffffffffff821115612ce557600080fd5b602001915036819003821315612cac57600080fd5b604051601f8201601f1916810167ffffffffffffffff81118282101715612d2357612d23612ec2565b604052919050565b600067ffffffffffffffff821115612d4557612d45612ec2565b5060051b60200190565b600067ffffffffffffffff821115612d6957612d69612ec2565b50601f01601f191660200190565b60008219821115612d8a57612d8a612e80565b500190565b600082612dac57634e487b7160e01b600052601260045260246000fd5b500490565b6000816000190483118215151615612dcb57612dcb612e80565b500290565b600082821015612de257612de2612e80565b500390565b60005b83811015612e02578181015183820152602001612dea565b8381111561204f5750506000910152565b600081612e2257612e22612e80565b506000190190565b600181811c90821680612e3e57607f821691505b60208210811415612e5f57634e487b7160e01b600052602260045260246000fd5b50919050565b6000600019821415612e7957612e79612e80565b5060010190565b634e487b7160e01b600052601160045260246000fd5b634e487b7160e01b600052602160045260246000fd5b634e487b7160e01b600052603260045260246000fd5b634e487b7160e01b600052604160045260246000fd5b6001600160a01b0381168114610c9e57600080fdfe360894a13ba1a3210667c828492db98dca3e2076cc3735a920a3ca505d382bbc416464726573733a206c6f772d6c6576656c2064656c65676174652063616c6c206661696c6564a264697066735822122054cd11dc12e3ab4b1cacd9c29bcc3442bfe94d0aa45880c643bb51341ffcd96b64736f6c63430008070033",
  "devdoc": {
    "kind": "dev",
    "methods": {
      "proxiableUUID()": {
        "details": "Implementation of the ERC1822 {proxiableUUID} function. This returns the storage slot used by the implementation. It is used to validate that the this implementation remains valid after an upgrade. IMPORTANT: A proxy pointing at a proxiable contract should not be considered proxiable itself, because this risks bricking a proxy that upgrades to it, by delegating to itself until out of gas. Thus it is critical that this function revert if invoked through a proxy. This is guaranteed by the `notDelegated` modifier."
      },
      "upgradeTo(address)": {
        "details": "Upgrade the implementation of the proxy to `newImplementation`. Calls {_authorizeUpgrade}. Emits an {Upgraded} event."
      },
      "upgradeToAndCall(address,bytes)": {
        "details": "Upgrade the implementation of the proxy to `newImplementation`, and subsequently execute the function call encoded in `data`. Calls {_authorizeUpgrade}. Emits an {Upgraded} event."
      }
    },
    "version": 1
  },
  "userdoc": {
    "kind": "user",
    "methods": {},
    "version": 1
  },
  "storageLayout": {
    "storage": [
      {
        "astId": 2736,
        "contract": "contracts/TransferERC20BudgetApproval.sol:TransferERC20BudgetApproval",
        "label": "_initialized",
        "offset": 0,
        "slot": "0",
        "type": "t_bool"
      },
      {
        "astId": 2739,
        "contract": "contracts/TransferERC20BudgetApproval.sol:TransferERC20BudgetApproval",
        "label": "_initializing",
        "offset": 1,
        "slot": "0",
        "type": "t_bool"
      },
      {
        "astId": 2718,
        "contract": "contracts/TransferERC20BudgetApproval.sol:TransferERC20BudgetApproval",
        "label": "__gap",
        "offset": 0,
        "slot": "1",
        "type": "t_array(t_uint256)50_storage"
      },
      {
        "astId": 2938,
        "contract": "contracts/TransferERC20BudgetApproval.sol:TransferERC20BudgetApproval",
        "label": "__gap",
        "offset": 0,
        "slot": "51",
        "type": "t_array(t_uint256)50_storage"
      },
      {
        "astId": 21204,
        "contract": "contracts/TransferERC20BudgetApproval.sol:TransferERC20BudgetApproval",
        "label": "_transactionIds",
        "offset": 0,
        "slot": "101",
        "type": "t_struct(Counter)13987_storage"
      },
      {
        "astId": 21209,
        "contract": "contracts/TransferERC20BudgetApproval.sol:TransferERC20BudgetApproval",
        "label": "transactions",
        "offset": 0,
        "slot": "102",
        "type": "t_mapping(t_uint256,t_struct(Transaction)21154_storage)"
      },
      {
        "astId": 21214,
        "contract": "contracts/TransferERC20BudgetApproval.sol:TransferERC20BudgetApproval",
        "label": "executor",
        "offset": 0,
        "slot": "103",
        "type": "t_address"
      },
      {
        "astId": 21216,
        "contract": "contracts/TransferERC20BudgetApproval.sol:TransferERC20BudgetApproval",
        "label": "executorTeamId",
        "offset": 0,
        "slot": "104",
        "type": "t_uint256"
      },
      {
        "astId": 21218,
        "contract": "contracts/TransferERC20BudgetApproval.sol:TransferERC20BudgetApproval",
        "label": "dao",
        "offset": 0,
        "slot": "105",
        "type": "t_address_payable"
      },
      {
        "astId": 21220,
        "contract": "contracts/TransferERC20BudgetApproval.sol:TransferERC20BudgetApproval",
        "label": "executee",
        "offset": 0,
        "slot": "106",
        "type": "t_address"
      },
      {
        "astId": 21224,
        "contract": "contracts/TransferERC20BudgetApproval.sol:TransferERC20BudgetApproval",
        "label": "approversMapping",
        "offset": 0,
        "slot": "107",
        "type": "t_mapping(t_address,t_bool)"
      },
      {
        "astId": 21226,
        "contract": "contracts/TransferERC20BudgetApproval.sol:TransferERC20BudgetApproval",
        "label": "approverTeamId",
        "offset": 0,
        "slot": "108",
        "type": "t_uint256"
      },
      {
        "astId": 21228,
        "contract": "contracts/TransferERC20BudgetApproval.sol:TransferERC20BudgetApproval",
        "label": "minApproval",
        "offset": 0,
        "slot": "109",
        "type": "t_uint256"
      },
      {
        "astId": 21230,
        "contract": "contracts/TransferERC20BudgetApproval.sol:TransferERC20BudgetApproval",
        "label": "text",
        "offset": 0,
        "slot": "110",
        "type": "t_string_storage"
      },
      {
        "astId": 21232,
        "contract": "contracts/TransferERC20BudgetApproval.sol:TransferERC20BudgetApproval",
        "label": "transactionType",
        "offset": 0,
        "slot": "111",
        "type": "t_string_storage"
      },
      {
        "astId": 21234,
        "contract": "contracts/TransferERC20BudgetApproval.sol:TransferERC20BudgetApproval",
        "label": "allowUnlimitedUsageCount",
        "offset": 0,
        "slot": "112",
        "type": "t_bool"
      },
      {
        "astId": 21236,
        "contract": "contracts/TransferERC20BudgetApproval.sol:TransferERC20BudgetApproval",
        "label": "usageCount",
        "offset": 0,
        "slot": "113",
        "type": "t_uint256"
      },
      {
        "astId": 21238,
        "contract": "contracts/TransferERC20BudgetApproval.sol:TransferERC20BudgetApproval",
        "label": "startTime",
        "offset": 0,
        "slot": "114",
        "type": "t_uint256"
      },
      {
        "astId": 21240,
        "contract": "contracts/TransferERC20BudgetApproval.sol:TransferERC20BudgetApproval",
        "label": "endTime",
        "offset": 0,
        "slot": "115",
        "type": "t_uint256"
      },
      {
        "astId": 21242,
        "contract": "contracts/TransferERC20BudgetApproval.sol:TransferERC20BudgetApproval",
        "label": "team",
        "offset": 0,
        "slot": "116",
        "type": "t_address"
      },
      {
        "astId": 19437,
        "contract": "contracts/TransferERC20BudgetApproval.sol:TransferERC20BudgetApproval",
        "label": "allowAllAddresses",
        "offset": 20,
        "slot": "116",
        "type": "t_bool"
      },
      {
        "astId": 19441,
        "contract": "contracts/TransferERC20BudgetApproval.sol:TransferERC20BudgetApproval",
        "label": "addressesMapping",
        "offset": 0,
        "slot": "117",
        "type": "t_mapping(t_address,t_bool)"
      },
      {
        "astId": 19443,
        "contract": "contracts/TransferERC20BudgetApproval.sol:TransferERC20BudgetApproval",
        "label": "allowAllTokens",
        "offset": 0,
        "slot": "118",
        "type": "t_bool"
      },
      {
        "astId": 19445,
        "contract": "contracts/TransferERC20BudgetApproval.sol:TransferERC20BudgetApproval",
        "label": "token",
        "offset": 1,
        "slot": "118",
        "type": "t_address"
      },
      {
        "astId": 19447,
        "contract": "contracts/TransferERC20BudgetApproval.sol:TransferERC20BudgetApproval",
        "label": "allowAnyAmount",
        "offset": 21,
        "slot": "118",
        "type": "t_bool"
      },
      {
        "astId": 19449,
        "contract": "contracts/TransferERC20BudgetApproval.sol:TransferERC20BudgetApproval",
        "label": "totalAmount",
        "offset": 0,
        "slot": "119",
        "type": "t_uint256"
      },
      {
        "astId": 19451,
        "contract": "contracts/TransferERC20BudgetApproval.sol:TransferERC20BudgetApproval",
        "label": "amountPercentage",
        "offset": 0,
        "slot": "120",
        "type": "t_uint8"
      }
    ],
    "types": {
      "t_address": {
        "encoding": "inplace",
        "label": "address",
        "numberOfBytes": "20"
      },
      "t_address_payable": {
        "encoding": "inplace",
        "label": "address payable",
        "numberOfBytes": "20"
      },
      "t_array(t_bytes_storage)dyn_storage": {
        "base": "t_bytes_storage",
        "encoding": "dynamic_array",
        "label": "bytes[]",
        "numberOfBytes": "32"
      },
      "t_array(t_uint256)50_storage": {
        "base": "t_uint256",
        "encoding": "inplace",
        "label": "uint256[50]",
        "numberOfBytes": "1600"
      },
      "t_bool": {
        "encoding": "inplace",
        "label": "bool",
        "numberOfBytes": "1"
      },
      "t_bytes_storage": {
        "encoding": "bytes",
        "label": "bytes",
        "numberOfBytes": "32"
      },
      "t_enum(Status)21135": {
        "encoding": "inplace",
        "label": "enum CommonBudgetApproval.Status",
        "numberOfBytes": "1"
      },
      "t_mapping(t_address,t_bool)": {
        "encoding": "mapping",
        "key": "t_address",
        "label": "mapping(address => bool)",
        "numberOfBytes": "32",
        "value": "t_bool"
      },
      "t_mapping(t_uint256,t_struct(Transaction)21154_storage)": {
        "encoding": "mapping",
        "key": "t_uint256",
        "label": "mapping(uint256 => struct CommonBudgetApproval.Transaction)",
        "numberOfBytes": "32",
        "value": "t_struct(Transaction)21154_storage"
      },
      "t_string_storage": {
        "encoding": "bytes",
        "label": "string",
        "numberOfBytes": "32"
      },
      "t_struct(Counter)13987_storage": {
        "encoding": "inplace",
        "label": "struct Counters.Counter",
        "members": [
          {
            "astId": 13986,
            "contract": "contracts/TransferERC20BudgetApproval.sol:TransferERC20BudgetApproval",
            "label": "_value",
            "offset": 0,
            "slot": "0",
            "type": "t_uint256"
          }
        ],
        "numberOfBytes": "32"
      },
      "t_struct(Transaction)21154_storage": {
        "encoding": "inplace",
        "label": "struct CommonBudgetApproval.Transaction",
        "members": [
          {
            "astId": 21137,
            "contract": "contracts/TransferERC20BudgetApproval.sol:TransferERC20BudgetApproval",
            "label": "id",
            "offset": 0,
            "slot": "0",
            "type": "t_uint256"
          },
          {
            "astId": 21140,
            "contract": "contracts/TransferERC20BudgetApproval.sol:TransferERC20BudgetApproval",
            "label": "data",
            "offset": 0,
            "slot": "1",
            "type": "t_array(t_bytes_storage)dyn_storage"
          },
          {
            "astId": 21143,
            "contract": "contracts/TransferERC20BudgetApproval.sol:TransferERC20BudgetApproval",
            "label": "status",
            "offset": 0,
            "slot": "2",
            "type": "t_enum(Status)21135"
          },
          {
            "astId": 21145,
            "contract": "contracts/TransferERC20BudgetApproval.sol:TransferERC20BudgetApproval",
            "label": "deadline",
            "offset": 0,
            "slot": "3",
            "type": "t_uint256"
          },
          {
            "astId": 21149,
            "contract": "contracts/TransferERC20BudgetApproval.sol:TransferERC20BudgetApproval",
            "label": "approved",
            "offset": 0,
            "slot": "4",
            "type": "t_mapping(t_address,t_bool)"
          },
          {
            "astId": 21151,
            "contract": "contracts/TransferERC20BudgetApproval.sol:TransferERC20BudgetApproval",
            "label": "approvedCount",
            "offset": 0,
            "slot": "5",
            "type": "t_uint256"
          },
          {
            "astId": 21153,
            "contract": "contracts/TransferERC20BudgetApproval.sol:TransferERC20BudgetApproval",
            "label": "isExist",
            "offset": 0,
            "slot": "6",
            "type": "t_bool"
          }
        ],
        "numberOfBytes": "224"
      },
      "t_uint256": {
        "encoding": "inplace",
        "label": "uint256",
        "numberOfBytes": "32"
      },
      "t_uint8": {
        "encoding": "inplace",
        "label": "uint8",
        "numberOfBytes": "1"
      }
    }
  }
}