{
  "address": "0x94618a268A9c1D7e0Eea5006274D55Af89a54d3A",
  "abi": [
    {
      "anonymous": false,
      "inputs": [
        {
          "indexed": false,
          "internalType": "address",
          "name": "previousAdmin",
          "type": "address"
        },
        {
          "indexed": false,
          "internalType": "address",
          "name": "newAdmin",
          "type": "address"
        }
      ],
      "name": "AdminChanged",
      "type": "event"
    },
    {
      "anonymous": false,
      "inputs": [
        {
          "indexed": false,
          "internalType": "address",
          "name": "target",
          "type": "address"
        }
      ],
      "name": "AllowAddress",
      "type": "event"
    },
    {
      "anonymous": false,
      "inputs": [
        {
          "indexed": false,
          "internalType": "uint256",
          "name": "amount",
          "type": "uint256"
        }
      ],
      "name": "AllowAmount",
      "type": "event"
    },
    {
      "anonymous": false,
      "inputs": [
        {
          "indexed": false,
          "internalType": "address",
          "name": "token",
          "type": "address"
        }
      ],
      "name": "AllowToken",
      "type": "event"
    },
    {
      "anonymous": false,
      "inputs": [
        {
          "indexed": false,
          "internalType": "uint256",
          "name": "id",
          "type": "uint256"
        },
        {
          "indexed": false,
          "internalType": "address",
          "name": "approver",
          "type": "address"
        }
      ],
      "name": "ApproveTransaction",
      "type": "event"
    },
    {
      "anonymous": false,
      "inputs": [
        {
          "indexed": true,
          "internalType": "address",
          "name": "beacon",
          "type": "address"
        }
      ],
      "name": "BeaconUpgraded",
      "type": "event"
    },
    {
      "anonymous": false,
      "inputs": [
        {
          "indexed": false,
          "internalType": "uint256",
          "name": "id",
          "type": "uint256"
        },
        {
          "indexed": false,
          "internalType": "bytes[]",
          "name": "data",
          "type": "bytes[]"
        },
        {
          "indexed": false,
          "internalType": "uint256",
          "name": "deadline",
          "type": "uint256"
        },
        {
          "indexed": false,
          "internalType": "enum CommonBudgetApproval.Status",
          "name": "status",
          "type": "uint8"
        }
      ],
      "name": "CreateTransaction",
      "type": "event"
    },
    {
      "anonymous": false,
      "inputs": [
        {
          "indexed": false,
          "internalType": "uint256",
          "name": "id",
          "type": "uint256"
        },
        {
          "indexed": false,
          "internalType": "bytes[]",
          "name": "data",
          "type": "bytes[]"
        },
        {
          "indexed": false,
          "internalType": "address",
          "name": "executor",
          "type": "address"
        }
      ],
      "name": "ExecuteTransaction",
      "type": "event"
    },
    {
      "anonymous": false,
      "inputs": [
        {
          "indexed": false,
          "internalType": "uint256",
          "name": "id",
          "type": "uint256"
        }
      ],
      "name": "RevokeTransaction",
      "type": "event"
    },
    {
      "anonymous": false,
      "inputs": [
        {
          "indexed": false,
          "internalType": "address",
          "name": "approver",
          "type": "address"
        }
      ],
      "name": "SetApprover",
      "type": "event"
    },
    {
      "anonymous": false,
      "inputs": [
        {
          "indexed": true,
          "internalType": "address",
          "name": "implementation",
          "type": "address"
        }
      ],
      "name": "Upgraded",
      "type": "event"
    },
    {
      "inputs": [],
      "name": "ETH_ADDRESS",
      "outputs": [
        {
          "internalType": "address",
          "name": "",
          "type": "address"
        }
      ],
      "stateMutability": "view",
      "type": "function"
    },
    {
      "inputs": [
        {
          "internalType": "address",
          "name": "",
          "type": "address"
        }
      ],
      "name": "addressesMapping",
      "outputs": [
        {
          "internalType": "bool",
          "name": "",
          "type": "bool"
        }
      ],
      "stateMutability": "view",
      "type": "function"
    },
    {
      "inputs": [],
      "name": "afterInitialized",
      "outputs": [],
      "stateMutability": "nonpayable",
      "type": "function"
    },
    {
      "inputs": [],
      "name": "allowAllAddresses",
      "outputs": [
        {
          "internalType": "bool",
          "name": "",
          "type": "bool"
        }
      ],
      "stateMutability": "view",
      "type": "function"
    },
    {
      "inputs": [],
      "name": "allowAllTokens",
      "outputs": [
        {
          "internalType": "bool",
          "name": "",
          "type": "bool"
        }
      ],
      "stateMutability": "view",
      "type": "function"
    },
    {
      "inputs": [],
      "name": "allowAnyAmount",
      "outputs": [
        {
          "internalType": "bool",
          "name": "",
          "type": "bool"
        }
      ],
      "stateMutability": "view",
      "type": "function"
    },
    {
      "inputs": [],
      "name": "allowUnlimitedUsageCount",
      "outputs": [
        {
          "internalType": "bool",
          "name": "",
          "type": "bool"
        }
      ],
      "stateMutability": "view",
      "type": "function"
    },
    {
      "inputs": [
        {
          "internalType": "uint256",
          "name": "id",
          "type": "uint256"
        }
      ],
      "name": "approveTransaction",
      "outputs": [],
      "stateMutability": "nonpayable",
      "type": "function"
    },
    {
      "inputs": [
        {
          "internalType": "uint256",
          "name": "id",
          "type": "uint256"
        }
      ],
      "name": "approvedCountOf",
      "outputs": [
        {
          "internalType": "uint256",
          "name": "",
          "type": "uint256"
        }
      ],
      "stateMutability": "view",
      "type": "function"
    },
    {
      "inputs": [],
      "name": "approverTeamId",
      "outputs": [
        {
          "internalType": "uint256",
          "name": "",
          "type": "uint256"
        }
      ],
      "stateMutability": "view",
      "type": "function"
    },
    {
      "inputs": [
        {
          "internalType": "address",
          "name": "",
          "type": "address"
        }
      ],
      "name": "approversMapping",
      "outputs": [
        {
          "internalType": "bool",
          "name": "",
          "type": "bool"
        }
      ],
      "stateMutability": "view",
      "type": "function"
    },
    {
      "inputs": [
        {
          "internalType": "bytes[]",
          "name": "_data",
          "type": "bytes[]"
        },
        {
          "internalType": "uint256",
          "name": "_deadline",
          "type": "uint256"
        },
        {
          "internalType": "bool",
          "name": "_isExecute",
          "type": "bool"
        }
      ],
      "name": "createTransaction",
      "outputs": [
        {
          "internalType": "uint256",
          "name": "",
          "type": "uint256"
        }
      ],
      "stateMutability": "nonpayable",
      "type": "function"
    },
    {
      "inputs": [],
      "name": "dao",
      "outputs": [
        {
          "internalType": "address payable",
          "name": "",
          "type": "address"
        }
      ],
      "stateMutability": "view",
      "type": "function"
    },
    {
      "inputs": [
        {
          "internalType": "uint256",
          "name": "id",
          "type": "uint256"
        }
      ],
      "name": "deadlineOf",
      "outputs": [
        {
          "internalType": "uint256",
          "name": "",
          "type": "uint256"
        }
      ],
      "stateMutability": "view",
      "type": "function"
    },
    {
      "inputs": [],
      "name": "endTime",
      "outputs": [
        {
          "internalType": "uint256",
          "name": "",
          "type": "uint256"
        }
      ],
      "stateMutability": "view",
      "type": "function"
    },
    {
      "inputs": [],
      "name": "executeParams",
      "outputs": [
        {
          "internalType": "string[]",
          "name": "",
          "type": "string[]"
        }
      ],
      "stateMutability": "pure",
      "type": "function"
    },
    {
      "inputs": [
        {
          "internalType": "uint256",
          "name": "id",
          "type": "uint256"
        }
      ],
      "name": "executeTransaction",
      "outputs": [],
      "stateMutability": "nonpayable",
      "type": "function"
    },
    {
      "inputs": [],
      "name": "executee",
      "outputs": [
        {
          "internalType": "address",
          "name": "",
          "type": "address"
        }
      ],
      "stateMutability": "view",
      "type": "function"
    },
    {
      "inputs": [],
      "name": "executor",
      "outputs": [
        {
          "internalType": "address",
          "name": "",
          "type": "address"
        }
      ],
      "stateMutability": "view",
      "type": "function"
    },
    {
      "inputs": [],
      "name": "executorTeamId",
      "outputs": [
        {
          "internalType": "uint256",
          "name": "",
          "type": "uint256"
        }
      ],
      "stateMutability": "view",
      "type": "function"
    },
    {
      "inputs": [
        {
          "components": [
            {
              "internalType": "address",
              "name": "dao",
              "type": "address"
            },
            {
              "internalType": "address",
              "name": "executor",
              "type": "address"
            },
            {
              "internalType": "uint256",
              "name": "executorTeamId",
              "type": "uint256"
            },
            {
              "internalType": "address[]",
              "name": "approvers",
              "type": "address[]"
            },
            {
              "internalType": "uint256",
              "name": "approverTeamId",
              "type": "uint256"
            },
            {
              "internalType": "uint256",
              "name": "minApproval",
              "type": "uint256"
            },
            {
              "internalType": "string",
              "name": "text",
              "type": "string"
            },
            {
              "internalType": "string",
              "name": "transactionType",
              "type": "string"
            },
            {
              "internalType": "uint256",
              "name": "startTime",
              "type": "uint256"
            },
            {
              "internalType": "uint256",
              "name": "endTime",
              "type": "uint256"
            },
            {
              "internalType": "bool",
              "name": "allowUnlimitedUsageCount",
              "type": "bool"
            },
            {
              "internalType": "uint256",
              "name": "usageCount",
              "type": "uint256"
            },
            {
              "internalType": "address",
              "name": "team",
              "type": "address"
            }
          ],
          "internalType": "struct CommonBudgetApproval.InitializeParams",
          "name": "params",
          "type": "tuple"
        },
        {
          "internalType": "bool",
          "name": "_allowAllAddresses",
          "type": "bool"
        },
        {
          "internalType": "address[]",
          "name": "_toAddresses",
          "type": "address[]"
        },
        {
          "internalType": "bool",
          "name": "_allowAllTokens",
          "type": "bool"
        },
        {
          "internalType": "address[]",
          "name": "_tokens",
          "type": "address[]"
        },
        {
          "internalType": "bool",
          "name": "_allowAnyAmount",
          "type": "bool"
        },
        {
          "internalType": "uint256",
          "name": "_totalAmount",
          "type": "uint256"
        }
      ],
      "name": "initialize",
      "outputs": [],
      "stateMutability": "nonpayable",
      "type": "function"
    },
    {
      "inputs": [],
      "name": "minApproval",
      "outputs": [
        {
          "internalType": "uint256",
          "name": "",
          "type": "uint256"
        }
      ],
      "stateMutability": "view",
      "type": "function"
    },
    {
      "inputs": [],
      "name": "name",
      "outputs": [
        {
          "internalType": "string",
          "name": "",
          "type": "string"
        }
      ],
      "stateMutability": "view",
      "type": "function"
    },
    {
      "inputs": [],
      "name": "proxiableUUID",
      "outputs": [
        {
          "internalType": "bytes32",
          "name": "",
          "type": "bytes32"
        }
      ],
      "stateMutability": "view",
      "type": "function"
    },
    {
      "inputs": [
        {
          "internalType": "uint256",
          "name": "id",
          "type": "uint256"
        }
      ],
      "name": "revokeTransaction",
      "outputs": [],
      "stateMutability": "nonpayable",
      "type": "function"
    },
    {
      "inputs": [],
      "name": "startTime",
      "outputs": [
        {
          "internalType": "uint256",
          "name": "",
          "type": "uint256"
        }
      ],
      "stateMutability": "view",
      "type": "function"
    },
    {
      "inputs": [
        {
          "internalType": "uint256",
          "name": "id",
          "type": "uint256"
        }
      ],
      "name": "statusOf",
      "outputs": [
        {
          "internalType": "enum CommonBudgetApproval.Status",
          "name": "",
          "type": "uint8"
        }
      ],
      "stateMutability": "view",
      "type": "function"
    },
    {
      "inputs": [],
      "name": "team",
      "outputs": [
        {
          "internalType": "address",
          "name": "",
          "type": "address"
        }
      ],
      "stateMutability": "view",
      "type": "function"
    },
    {
      "inputs": [],
      "name": "text",
      "outputs": [
        {
          "internalType": "string",
          "name": "",
          "type": "string"
        }
      ],
      "stateMutability": "view",
      "type": "function"
    },
    {
      "inputs": [
        {
          "internalType": "uint256",
          "name": "",
          "type": "uint256"
        }
      ],
      "name": "tokens",
      "outputs": [
        {
          "internalType": "address",
          "name": "",
          "type": "address"
        }
      ],
      "stateMutability": "view",
      "type": "function"
    },
    {
      "inputs": [
        {
          "internalType": "address",
          "name": "",
          "type": "address"
        }
      ],
      "name": "tokensMapping",
      "outputs": [
        {
          "internalType": "bool",
          "name": "",
          "type": "bool"
        }
      ],
      "stateMutability": "view",
      "type": "function"
    },
    {
      "inputs": [],
      "name": "totalAmount",
      "outputs": [
        {
          "internalType": "uint256",
          "name": "",
          "type": "uint256"
        }
      ],
      "stateMutability": "view",
      "type": "function"
    },
    {
      "inputs": [],
      "name": "transactionType",
      "outputs": [
        {
          "internalType": "string",
          "name": "",
          "type": "string"
        }
      ],
      "stateMutability": "view",
      "type": "function"
    },
    {
      "inputs": [
        {
          "internalType": "uint256",
          "name": "",
          "type": "uint256"
        }
      ],
      "name": "transactions",
      "outputs": [
        {
          "internalType": "uint256",
          "name": "id",
          "type": "uint256"
        },
        {
          "internalType": "enum CommonBudgetApproval.Status",
          "name": "status",
          "type": "uint8"
        },
        {
          "internalType": "uint256",
          "name": "deadline",
          "type": "uint256"
        },
        {
          "internalType": "uint256",
          "name": "approvedCount",
          "type": "uint256"
        },
        {
          "internalType": "bool",
          "name": "isExist",
          "type": "bool"
        }
      ],
      "stateMutability": "view",
      "type": "function"
    },
    {
      "inputs": [
        {
          "internalType": "address",
          "name": "newImplementation",
          "type": "address"
        }
      ],
      "name": "upgradeTo",
      "outputs": [],
      "stateMutability": "nonpayable",
      "type": "function"
    },
    {
      "inputs": [
        {
          "internalType": "address",
          "name": "newImplementation",
          "type": "address"
        },
        {
          "internalType": "bytes",
          "name": "data",
          "type": "bytes"
        }
      ],
      "name": "upgradeToAndCall",
      "outputs": [],
      "stateMutability": "payable",
      "type": "function"
    },
    {
      "inputs": [],
      "name": "usageCount",
      "outputs": [
        {
          "internalType": "uint256",
          "name": "",
          "type": "uint256"
        }
      ],
      "stateMutability": "view",
      "type": "function"
    }
  ],
  "transactionHash": "0x7ffc8f5c4a97f4ae1bb05d971b212f74344429b3cdde088af2764a1566c549d6",
  "args": [],
  "numDeployments": 1,
  "solcInputHash": "86dfe1265a8c9c9d3960345b0927392b",
  "bytecode": "0x60a06040523060601b60805234801561001757600080fd5b5060805160601c612f2c61005260003960008181610d0601528181610d4601528181610de601528181610e260152610ee30152612f2c6000f3fe60806040526004361061021a5760003560e01c80636bdebe5e11610123578063a734f06e116100ab578063cf26fec61161006f578063cf26fec6146106dc578063d96c9196146106f1578063de755e2f14610707578063ee22610b1461071d578063f5c038521461073d57600080fd5b8063a734f06e14610619578063ad35efd414610641578063b617b3ee14610681578063c34c08e5146106a2578063cd753b6c146106c257600080fd5b806385015437116100f2578063850154371461052e57806385f2aef2146105485780638d1c5c2914610568578063914e4909146105985780639ace38c2146105b857600080fd5b80636bdebe5e146104b3578063735631ad146104e357806378e97925146105035780637cd47d931461051957600080fd5b80633d70015a116101a65780634f64b2be116101755780634f64b2be1461041e5780635078f67a1461043e57806350bd881f1461046e57806352d1902d146104845780635ad325021461049957600080fd5b80633d70015a146103635780633ed38daf146103a35780634162169f146103d35780634f1ef2861461040b57600080fd5b80631f1bd692116101ed5780631f1bd692146102d6578063242232d1146102eb5780633197cbb61461030b57806331a7bdd9146103215780633659cfe61461034357600080fd5b806303ff90f61461021f57806306fdde03146102485780631916b21c1461029e5780631a39d8ef146102c0575b600080fd5b34801561022b57600080fd5b50610235606d5481565b6040519081526020015b60405180910390f35b34801561025457600080fd5b506102916040518060400160405280601f81526020017f5472616e73666572204552433732312042756467657420417070726f76616c0081525081565b60405161023f919061298a565b3480156102aa57600080fd5b506102be6102b9366004612795565b61075d565b005b3480156102cc57600080fd5b50610235607a5481565b3480156102e257600080fd5b506102916108a2565b3480156102f757600080fd5b506102be610306366004612863565b610930565b34801561031757600080fd5b5061023560735481565b34801561032d57600080fd5b50610336610bf8565b60405161023f919061291a565b34801561034f57600080fd5b506102be61035e366004612568565b610cfb565b34801561036f57600080fd5b5061039361037e366004612568565b60786020526000908152604090205460ff1681565b604051901515815260200161023f565b3480156103af57600080fd5b506102356103be366004612863565b60009081526066602052604090206003015490565b3480156103df57600080fd5b506069546103f3906001600160a01b031681565b6040516001600160a01b03909116815260200161023f565b6102be6104193660046125c8565b610ddb565b34801561042a57600080fd5b506103f3610439366004612863565b610eac565b34801561044a57600080fd5b50610235610459366004612863565b60009081526066602052604090206005015490565b34801561047a57600080fd5b5061023560715481565b34801561049057600080fd5b50610235610ed6565b3480156104a557600080fd5b506070546103939060ff1681565b3480156104bf57600080fd5b506103936104ce366004612568565b606b6020526000908152604090205460ff1681565b3480156104ef57600080fd5b506102be6104fe366004612863565b610f89565b34801561050f57600080fd5b5061023560725481565b34801561052557600080fd5b50610291611111565b34801561053a57600080fd5b506079546103939060ff1681565b34801561055457600080fd5b506074546103f3906001600160a01b031681565b34801561057457600080fd5b50610393610583366004612568565b60756020526000908152604090205460ff1681565b3480156105a457600080fd5b506102356105b3366004612618565b61111e565b3480156105c457600080fd5b506106086105d3366004612863565b60666020526000908152604090208054600282015460038301546005840154600690940154929360ff92831693919290911685565b60405161023f959493929190612c4b565b34801561062557600080fd5b506103f373eeeeeeeeeeeeeeeeeeeeeeeeeeeeeeeeeeeeeeee81565b34801561064d57600080fd5b5061067461065c366004612863565b60009081526066602052604090206002015460ff1690565b60405161023f919061297c565b34801561068d57600080fd5b5060745461039390600160a01b900460ff1681565b3480156106ae57600080fd5b506067546103f3906001600160a01b031681565b3480156106ce57600080fd5b506076546103939060ff1681565b3480156106e857600080fd5b506102be6112d5565b3480156106fd57600080fd5b50610235606c5481565b34801561071357600080fd5b5061023560685481565b34801561072957600080fd5b506102be610738366004612863565b61133c565b34801561074957600080fd5b50606a546103f3906001600160a01b031681565b600054610100900460ff166107785760005460ff161561077c565b303b155b6107a15760405162461bcd60e51b815260040161079890612a35565b60405180910390fd5b600054610100900460ff161580156107c3576000805461ffff19166101011790555b6107cc88611740565b6074805460ff60a01b1916600160a01b8915150217905560005b86518110156108235761081187828151811061080457610804612e6e565b6020026020010151611a2f565b8061081b81612e27565b9150506107e6565b506076805460ff191686151517905560005b84518110156108725761086085828151811061085357610853612e6e565b6020026020010151611afe565b8061086a81612e27565b915050610835565b506079805460ff1916841515179055607a8290558015610898576000805461ff00191690555b5050505050505050565b606e80546108af90612dec565b80601f01602080910402602001604051908101604052809291908181526020018280546108db90612dec565b80156109285780601f106108fd57610100808354040283529160200191610928565b820191906000526020600020905b81548152906001019060200180831161090b57829003601f168201915b505050505081565b336000908152606b602052604090205460ff16806109d05750607454606c54604051627eeac760e11b815233600482015260248101919091526000916001600160a01b03169062fdd58e9060440160206040518083038186803b15801561099657600080fd5b505afa1580156109aa573d6000803e3d6000fd5b505050506040513d601f19601f820116820180604052508101906109ce9190612705565b115b610a275760405162461bcd60e51b815260206004820152602260248201527f417070726f766572206e6f742077686974656c697374656420696e2062756467604482015261195d60f21b6064820152608401610798565b60008181526066602052604081206002015460ff166003811115610a4d57610a4d612e58565b1480610a7e5750600160008281526066602052604090206002015460ff166003811115610a7c57610a7c612e58565b145b610aca5760405162461bcd60e51b815260206004820152601d60248201527f556e6578706563746564207472616e73616374696f6e207374617475730000006044820152606401610798565b600081815260666020908152604080832033845260040190915290205460ff1615610b435760405162461bcd60e51b8152602060048201526024808201527f5472616e73616374696f6e20686173206265656e20617070726f766564206265604482015263666f726560e01b6064820152608401610798565b6000818152606660208181526040808420338552600481018352908420805460ff19166001179055848452919052600501805491610b8083612e27565b9091555050606d5460008281526066602052604090206005015410610bbc576000818152606660205260409020600201805460ff191660011790555b604080518281523360208201527f72224bf551d1ce069c1a2440132e14e1ef15d45977e00541090a35901e527f3b91015b60405180910390a150565b6040805160038082526080820190925260609160009190816020015b6060815260200190600190039081610c145790505090506040518060400160405280600d81526020016c30b2323932b9b9903a37b5b2b760991b81525081600081518110610c6457610c64612e6e565b60200260200101819052506040518060400160405280600a8152602001696164647265737320746f60b01b81525081600181518110610ca557610ca5612e6e565b60200260200101819052506040518060400160405280600f81526020016e1d5a5b9d0c8d4d881d1bdad95b9259608a1b81525081600281518110610ceb57610ceb612e6e565b6020908102919091010152919050565b306001600160a01b037f0000000000000000000000000000000000000000000000000000000000000000161415610d445760405162461bcd60e51b81526004016107989061299d565b7f00000000000000000000000000000000000000000000000000000000000000006001600160a01b0316610d8d600080516020612eb0833981519152546001600160a01b031690565b6001600160a01b031614610db35760405162461bcd60e51b8152600401610798906129e9565b610dbc81611c09565b60408051600080825260208201909252610dd891839190611c7b565b50565b306001600160a01b037f0000000000000000000000000000000000000000000000000000000000000000161415610e245760405162461bcd60e51b81526004016107989061299d565b7f00000000000000000000000000000000000000000000000000000000000000006001600160a01b0316610e6d600080516020612eb0833981519152546001600160a01b031690565b6001600160a01b031614610e935760405162461bcd60e51b8152600401610798906129e9565b610e9c82611c09565b610ea882826001611c7b565b5050565b60778181548110610ebc57600080fd5b6000918252602090912001546001600160a01b0316905081565b6000306001600160a01b037f00000000000000000000000000000000000000000000000000000000000000001614610f765760405162461bcd60e51b815260206004820152603860248201527f555550535570677261646561626c653a206d757374206e6f742062652063616c60448201527f6c6564207468726f7567682064656c656761746563616c6c00000000000000006064820152608401610798565b50600080516020612eb083398151915290565b6067546001600160a01b03163314806110245750607454606854604051627eeac760e11b815233600482015260248101919091526000916001600160a01b03169062fdd58e9060440160206040518083038186803b158015610fea57600080fd5b505afa158015610ffe573d6000803e3d6000fd5b505050506040513d601f19601f820116820180604052508101906110229190612705565b115b6110405760405162461bcd60e51b815260040161079890612a83565b600260008281526066602052604090206002015460ff16600381111561106857611068612e58565b14156110c45760405162461bcd60e51b815260206004820152602560248201527f5472616e73616374696f6e20686173206265656e20636f6d706c65746564206260448201526465666f726560d81b6064820152608401610798565b600081815260666020908152604091829020600201805460ff1916600317905590518281527f92a917be073b79ab50f9d997e9514a5d101e052ce04228014947e7883a7c03469101610bed565b606f80546108af90612dec565b6067546000906001600160a01b03163314806111bc5750607454606854604051627eeac760e11b815233600482015260248101919091526000916001600160a01b03169062fdd58e9060440160206040518083038186803b15801561118257600080fd5b505afa158015611196573d6000803e3d6000fd5b505050506040513d601f19601f820116820180604052508101906111ba9190612705565b115b6111d85760405162461bcd60e51b815260040161079890612a83565b6111e6606580546001019055565b60006111f160655490565b600081815260666020908152604090912082815587519293509161121d916001840191908901906122ca565b506003810185905560068101805460ff19166001179055606d5461125c576000828152606660205260409020600201805460ff19166001179055611276565b6000828152606660205260409020600201805460ff191690555b60028101546040517ff7b10f12a6c66358a337baada438de41a306929aefcec529de156f2686eafd89916112b39185918a918a9160ff1690612ac5565b60405180910390a183156112ca576112ca8261133c565b5090505b9392505050565b606a546001600160a01b0316331461133a5760405162461bcd60e51b815260206004820152602260248201527f4578656375746565206e6f742077686974656c697374656420696e2062756467604482015261195d60f21b6064820152608401610798565b565b8060018060008381526066602052604090206002015460ff16600381111561136657611366612e58565b146113b35760405162461bcd60e51b815260206004820152601a60248201527f5472616e73616374696f6e2073746174757320696e76616c69640000000000006044820152606401610798565b600083815260666020526040902060030154839042111561140c5760405162461bcd60e51b8152602060048201526013602482015272151c985b9cd858dd1a5bdb88195e1c1a5c9959606a1b6044820152606401610798565b60725442101561145e5760405162461bcd60e51b815260206004820152601f60248201527f42756467657420757361676520706572696f64206e6f742073746172746564006044820152606401610798565b607354156114b75760735442106114b75760405162461bcd60e51b815260206004820152601d60248201527f42756467657420757361676520706572696f642068617320656e6465640000006044820152606401610798565b6067546001600160a01b03163314806115525750607454606854604051627eeac760e11b815233600482015260248101919091526000916001600160a01b03169062fdd58e9060440160206040518083038186803b15801561151857600080fd5b505afa15801561152c573d6000803e3d6000fd5b505050506040513d601f19601f820116820180604052508101906115509190612705565b115b61156e5760405162461bcd60e51b815260040161079890612a83565b60005b6000858152606660205260409020600101548110156116dc5760705460ff168061159d57506000607154115b6115e95760405162461bcd60e51b815260206004820152601c60248201527f457863656564656420627564676574207573616765206c696d697420000000006044820152606401610798565b60705460ff16611609576071805490600061160383612dd5565b91905055505b600085815260666020526040902060010180546116ca9187918490811061163257611632612e6e565b90600052602060002001805461164790612dec565b80601f016020809104026020016040519081016040528092919081815260200182805461167390612dec565b80156116c05780601f10611695576101008083540402835291602001916116c0565b820191906000526020600020905b8154815290600101906020018083116116a357829003601f168201915b5050505050611dfa565b806116d481612e27565b915050611571565b50600084815260666020526040908190206002808201805460ff1916909117905590517f9060adf413860c5ab6e376e0aa4269e49a13f0853edb1583fce8129d4c756d7991611732918791600101903390612b3c565b60405180910390a150505050565b600054610100900460ff166117ab5760405162461bcd60e51b815260206004820152602b60248201527f496e697469616c697a61626c653a20636f6e7472616374206973206e6f74206960448201526a6e697469616c697a696e6760a81b6064820152608401610798565b6117b86020820182612568565b606980546001600160a01b03929092166001600160a01b0319928316179055606a8054909116331790556117f26040820160208301612568565b606780546001600160a01b0319166001600160a01b039290921691909117905561181f60c0820182612cce565b61182b91606e91612327565b5061183960e0820182612cce565b61184591606f91612327565b5060005b6118566060830183612c7d565b905081101561193f576001606b60006118726060860186612c7d565b8581811061188257611882612e6e565b90506020020160208101906118979190612568565b6001600160a01b031681526020810191909152604001600020805460ff19169115159190911790557f4664777dbfbcb27de0f602e1da5d5a259992cd7edf5b29192929c96e8fd50def6118ed6060840184612c7d565b838181106118fd576118fd612e6e565b90506020020160208101906119129190612568565b6040516001600160a01b03909116815260200160405180910390a18061193781612e27565b915050611849565b5060a0810135606d55608081013515158061196a57506119626060820182612c7d565b9050606d5411155b6119ae5760405162461bcd60e51b8152602060048201526015602482015274125b9d985b1a5908185c1c1c9bdd995c881b1a5cdd605a1b6044820152606401610798565b6101008101356072556101208101356073556119d2610160820161014083016126ea565b6070805460ff19169115159190911790556101608101356071556119fe6101a082016101808301612568565b607480546001600160a01b0319166001600160a01b0392909216919091179055604081013560685560800135606c55565b6001600160a01b03811660009081526075602052604090205460ff1615611aaa5760405162461bcd60e51b815260206004820152602960248201527f4475706c696361746564206164647265737320696e20746172676574206164646044820152681c995cdcc81b1a5cdd60ba1b6064820152608401610798565b6001600160a01b038116600081815260756020908152604091829020805460ff1916600117905590519182527ff11283a265d7a5f95fbc149dc65464f1f5be0151aac387fd76a938e1e55846049101610bed565b6001600160a01b03811660009081526078602052604090205460ff1615611b755760405162461bcd60e51b815260206004820152602560248201527f4475706c696361746564204974656d20696e20736f7572636520746f6b656e206044820152643634b9ba1760d91b6064820152608401610798565b6077805460018082019092557f7901cb5addcae2d210a531c604a76a660d77039093bac314de0816a16392aff10180546001600160a01b0319166001600160a01b038416908117909155600081815260786020908152604091829020805460ff1916909417909355519081527f14009112f2dcb15cad32dab6bf972d6d85286e4ae1178f27323ffe25359459e69101610bed565b600054610100900460ff16611c245760005460ff1615611c28565b303b155b611c445760405162461bcd60e51b815260040161079890612a35565b600054610100900460ff16158015611c66576000805461ffff19166101011790555b8015610ea8576000805461ff00191690555050565b7f4910fdfa16fed3260ed0e7147f7cc6da11a60208b5b9406d12a635614ffd91435460ff1615611cb357611cae83612094565b505050565b826001600160a01b03166352d1902d6040518163ffffffff1660e01b815260040160206040518083038186803b158015611cec57600080fd5b505afa925050508015611d1c575060408051601f3d908101601f19168201909252611d1991810190612705565b60015b611d7f5760405162461bcd60e51b815260206004820152602e60248201527f45524331393637557067726164653a206e657720696d706c656d656e7461746960448201526d6f6e206973206e6f74205555505360901b6064820152608401610798565b600080516020612eb08339815191528114611dee5760405162461bcd60e51b815260206004820152602960248201527f45524331393637557067726164653a20756e737570706f727465642070726f786044820152681a58589b195555525160ba1b6064820152608401610798565b50611cae838383612130565b600080600083806020019051810190611e139190612585565b606a546040516001600160a01b039182166024820152908316604482015260648101829052929550909350915060009060840160408051601f198184030181529181526020820180516001600160e01b0316632142170760e11b179052606a54905163d3abc28b60e01b81529192506001600160a01b03169063d3abc28b90611ea590879085906000906004016128e6565b600060405180830381600087803b158015611ebf57600080fd5b505af1158015611ed3573d6000803e3d6000fd5b505050506040513d6000823e601f3d908101601f19168201604052611efb919081019061271e565b50607454600160a01b900460ff1680611f2c57506001600160a01b03831660009081526075602052604090205460ff165b611f845760405162461bcd60e51b815260206004820152602360248201527f526563697069656e74206e6f742077686974656c697374656420696e2062756460448201526219d95d60ea1b6064820152608401610798565b60765460ff1680611fad57506001600160a01b03841660009081526078602052604090205460ff165b611ff95760405162461bcd60e51b815260206004820152601f60248201527f546f6b656e206e6f742077686974656c697374656420696e20627564676574006044820152606401610798565b60795460ff168061200d5750607a54600111155b6120695760405162461bcd60e51b815260206004820152602760248201527f4578636565646564206d617820627564676574207472616e7366657261626c6560448201526608185b5bdd5b9d60ca1b6064820152608401610798565b60795460ff1661208c576001607a60008282546120869190612d92565b90915550505b505050505050565b6001600160a01b0381163b6121015760405162461bcd60e51b815260206004820152602d60248201527f455243313936373a206e657720696d706c656d656e746174696f6e206973206e60448201526c1bdd08184818dbdb9d1c9858dd609a1b6064820152608401610798565b600080516020612eb083398151915280546001600160a01b0319166001600160a01b0392909216919091179055565b6121398361215b565b6000825111806121465750805b15611cae57612155838361219b565b50505050565b61216481612094565b6040516001600160a01b038216907fbc7cd75a20ee27fd9adebab32041f755214dbc6bffa90cc0225b39da2e5c2d3b90600090a250565b60606001600160a01b0383163b6122035760405162461bcd60e51b815260206004820152602660248201527f416464726573733a2064656c65676174652063616c6c20746f206e6f6e2d636f6044820152651b9d1c9858dd60d21b6064820152608401610798565b600080846001600160a01b03168460405161221e91906128ca565b600060405180830381855af49150503d8060008114612259576040519150601f19603f3d011682016040523d82523d6000602084013e61225e565b606091505b50915091506122868282604051806060016040528060278152602001612ed060279139612291565b925050505b92915050565b606083156122a05750816112ce565b8251156122b05782518084602001fd5b8160405162461bcd60e51b8152600401610798919061298a565b828054828255906000526020600020908101928215612317579160200282015b8281111561231757825180516123079184916020909101906123a7565b50916020019190600101906122ea565b5061232392915061241b565b5090565b82805461233390612dec565b90600052602060002090601f016020900481019282612355576000855561239b565b82601f1061236e5782800160ff1982351617855561239b565b8280016001018555821561239b579182015b8281111561239b578235825591602001919060010190612380565b50612323929150612438565b8280546123b390612dec565b90600052602060002090601f0160209004810192826123d5576000855561239b565b82601f106123ee57805160ff191683800117855561239b565b8280016001018555821561239b579182015b8281111561239b578251825591602001919060010190612400565b8082111561232357600061242f828261244d565b5060010161241b565b5b808211156123235760008155600101612439565b50805461245990612dec565b6000825580601f10612469575050565b601f016020900490600052602060002090810190610dd89190612438565b600082601f83011261249857600080fd5b813560206124ad6124a883612d46565b612d15565b80838252828201915082860187848660051b89010111156124cd57600080fd5b60005b858110156124f55781356124e381612e9a565b845292840192908401906001016124d0565b5090979650505050505050565b8035801515811461251257600080fd5b919050565b600082601f83011261252857600080fd5b81356125366124a882612d6a565b81815284602083860101111561254b57600080fd5b816020850160208301376000918101602001919091529392505050565b60006020828403121561257a57600080fd5b81356112ce81612e9a565b60008060006060848603121561259a57600080fd5b83516125a581612e9a565b60208501519093506125b681612e9a565b80925050604084015190509250925092565b600080604083850312156125db57600080fd5b82356125e681612e9a565b9150602083013567ffffffffffffffff81111561260257600080fd5b61260e85828601612517565b9150509250929050565b60008060006060848603121561262d57600080fd5b833567ffffffffffffffff8082111561264557600080fd5b818601915086601f83011261265957600080fd5b813560206126696124a883612d46565b8083825282820191508286018b848660051b890101111561268957600080fd5b6000805b868110156126c4578235888111156126a3578283fd5b6126b18f88838d0101612517565b865250938501939185019160010161268d565b5091995050505087013594506126e1925050604086019050612502565b90509250925092565b6000602082840312156126fc57600080fd5b6112ce82612502565b60006020828403121561271757600080fd5b5051919050565b60006020828403121561273057600080fd5b815167ffffffffffffffff81111561274757600080fd5b8201601f8101841361275857600080fd5b80516127666124a882612d6a565b81815285602083850101111561277b57600080fd5b61278c826020830160208601612da9565b95945050505050565b600080600080600080600060e0888a0312156127b057600080fd5b873567ffffffffffffffff808211156127c857600080fd5b908901906101a0828c0312156127dd57600080fd5b8198506127ec60208b01612502565b975060408a013591508082111561280257600080fd5b61280e8b838c01612487565b965061281c60608b01612502565b955060808a013591508082111561283257600080fd5b5061283f8a828b01612487565b93505061284e60a08901612502565b915060c0880135905092959891949750929550565b60006020828403121561287557600080fd5b5035919050565b60008151808452612894816020860160208601612da9565b601f01601f19169290920160200192915050565b600481106128c657634e487b7160e01b600052602160045260246000fd5b9052565b600082516128dc818460208701612da9565b9190910192915050565b6001600160a01b038416815260606020820181905260009061290a9083018561287c565b9050826040830152949350505050565b6000602080830181845280855180835260408601915060408160051b870101925083870160005b8281101561296f57603f1988860301845261295d85835161287c565b94509285019290850190600101612941565b5092979650505050505050565b6020810161228b82846128a8565b6020815260006112ce602083018461287c565b6020808252602c908201527f46756e6374696f6e206d7573742062652063616c6c6564207468726f7567682060408201526b19195b1959d85d1958d85b1b60a21b606082015260800190565b6020808252602c908201527f46756e6374696f6e206d7573742062652063616c6c6564207468726f7567682060408201526b6163746976652070726f787960a01b606082015260800190565b6020808252602e908201527f496e697469616c697a61626c653a20636f6e747261637420697320616c72656160408201526d191e481a5b9a5d1a585b1a5e995960921b606082015260800190565b60208082526022908201527f4578656375746f72206e6f742077686974656c697374656420696e2062756467604082015261195d60f21b606082015260800190565b600060808201868352602060808185015281875180845260a08601915060a08160051b870101935082890160005b82811015612b2157609f19888703018452612b0f86835161287c565b95509284019290840190600101612af3565b505050505060408301859052905061278c60608301846128a8565b600060608201858352602060608185015281865480845260808601915060808160051b87010193506000888152838120815b83811015612c2557888703607f1901855281548390600181811c9080831680612b9857607f831692505b8a8310811415612bb657634e487b7160e01b88526022600452602488fd5b828c5260208c01818015612bd15760018114612be257612c0c565b60ff19861682528c82019650612c0c565b6000898152602090208a5b86811015612c0657815484820152908501908e01612bed565b83019750505b50949b5050978901979490940193505050600101612b6e565b5050506001600160a01b038716604087015250919250612c43915050565b949350505050565b85815260a08101612c5f60208301876128a8565b84604083015283606083015282151560808301529695505050505050565b6000808335601e19843603018112612c9457600080fd5b83018035915067ffffffffffffffff821115612caf57600080fd5b6020019150600581901b3603821315612cc757600080fd5b9250929050565b6000808335601e19843603018112612ce557600080fd5b83018035915067ffffffffffffffff821115612d0057600080fd5b602001915036819003821315612cc757600080fd5b604051601f8201601f1916810167ffffffffffffffff81118282101715612d3e57612d3e612e84565b604052919050565b600067ffffffffffffffff821115612d6057612d60612e84565b5060051b60200190565b600067ffffffffffffffff821115612d8457612d84612e84565b50601f01601f191660200190565b600082821015612da457612da4612e42565b500390565b60005b83811015612dc4578181015183820152602001612dac565b838111156121555750506000910152565b600081612de457612de4612e42565b506000190190565b600181811c90821680612e0057607f821691505b60208210811415612e2157634e487b7160e01b600052602260045260246000fd5b50919050565b6000600019821415612e3b57612e3b612e42565b5060010190565b634e487b7160e01b600052601160045260246000fd5b634e487b7160e01b600052602160045260246000fd5b634e487b7160e01b600052603260045260246000fd5b634e487b7160e01b600052604160045260246000fd5b6001600160a01b0381168114610dd857600080fdfe360894a13ba1a3210667c828492db98dca3e2076cc3735a920a3ca505d382bbc416464726573733a206c6f772d6c6576656c2064656c65676174652063616c6c206661696c6564a264697066735822122010e9d13ced73fe3a16da78e6355602cb5de20e4a8d96dd6930c89f52eac3f30364736f6c63430008070033",
  "devdoc": {
    "kind": "dev",
    "methods": {
      "proxiableUUID()": {
        "details": "Implementation of the ERC1822 {proxiableUUID} function. This returns the storage slot used by the implementation. It is used to validate that the this implementation remains valid after an upgrade. IMPORTANT: A proxy pointing at a proxiable contract should not be considered proxiable itself, because this risks bricking a proxy that upgrades to it, by delegating to itself until out of gas. Thus it is critical that this function revert if invoked through a proxy. This is guaranteed by the `notDelegated` modifier."
      },
      "upgradeTo(address)": {
        "details": "Upgrade the implementation of the proxy to `newImplementation`. Calls {_authorizeUpgrade}. Emits an {Upgraded} event."
      },
      "upgradeToAndCall(address,bytes)": {
        "details": "Upgrade the implementation of the proxy to `newImplementation`, and subsequently execute the function call encoded in `data`. Calls {_authorizeUpgrade}. Emits an {Upgraded} event."
      }
    },
    "version": 1
  },
  "userdoc": {
    "kind": "user",
    "methods": {},
    "version": 1
  },
  "storageLayout": {
    "storage": [
      {
        "astId": 2736,
        "contract": "contracts/TransferERC721BudgetApproval.sol:TransferERC721BudgetApproval",
        "label": "_initialized",
        "offset": 0,
        "slot": "0",
        "type": "t_bool"
      },
      {
        "astId": 2739,
        "contract": "contracts/TransferERC721BudgetApproval.sol:TransferERC721BudgetApproval",
        "label": "_initializing",
        "offset": 1,
        "slot": "0",
        "type": "t_bool"
      },
      {
        "astId": 2718,
        "contract": "contracts/TransferERC721BudgetApproval.sol:TransferERC721BudgetApproval",
        "label": "__gap",
        "offset": 0,
        "slot": "1",
        "type": "t_array(t_uint256)50_storage"
      },
      {
        "astId": 2938,
        "contract": "contracts/TransferERC721BudgetApproval.sol:TransferERC721BudgetApproval",
        "label": "__gap",
        "offset": 0,
        "slot": "51",
        "type": "t_array(t_uint256)50_storage"
      },
      {
        "astId": 21204,
        "contract": "contracts/TransferERC721BudgetApproval.sol:TransferERC721BudgetApproval",
        "label": "_transactionIds",
        "offset": 0,
        "slot": "101",
        "type": "t_struct(Counter)13987_storage"
      },
      {
        "astId": 21209,
        "contract": "contracts/TransferERC721BudgetApproval.sol:TransferERC721BudgetApproval",
        "label": "transactions",
        "offset": 0,
        "slot": "102",
        "type": "t_mapping(t_uint256,t_struct(Transaction)21154_storage)"
      },
      {
        "astId": 21214,
        "contract": "contracts/TransferERC721BudgetApproval.sol:TransferERC721BudgetApproval",
        "label": "executor",
        "offset": 0,
        "slot": "103",
        "type": "t_address"
      },
      {
        "astId": 21216,
        "contract": "contracts/TransferERC721BudgetApproval.sol:TransferERC721BudgetApproval",
        "label": "executorTeamId",
        "offset": 0,
        "slot": "104",
        "type": "t_uint256"
      },
      {
        "astId": 21218,
        "contract": "contracts/TransferERC721BudgetApproval.sol:TransferERC721BudgetApproval",
        "label": "dao",
        "offset": 0,
        "slot": "105",
        "type": "t_address_payable"
      },
      {
        "astId": 21220,
        "contract": "contracts/TransferERC721BudgetApproval.sol:TransferERC721BudgetApproval",
        "label": "executee",
        "offset": 0,
        "slot": "106",
        "type": "t_address"
      },
      {
        "astId": 21224,
        "contract": "contracts/TransferERC721BudgetApproval.sol:TransferERC721BudgetApproval",
        "label": "approversMapping",
        "offset": 0,
        "slot": "107",
        "type": "t_mapping(t_address,t_bool)"
      },
      {
        "astId": 21226,
        "contract": "contracts/TransferERC721BudgetApproval.sol:TransferERC721BudgetApproval",
        "label": "approverTeamId",
        "offset": 0,
        "slot": "108",
        "type": "t_uint256"
      },
      {
        "astId": 21228,
        "contract": "contracts/TransferERC721BudgetApproval.sol:TransferERC721BudgetApproval",
        "label": "minApproval",
        "offset": 0,
        "slot": "109",
        "type": "t_uint256"
      },
      {
        "astId": 21230,
        "contract": "contracts/TransferERC721BudgetApproval.sol:TransferERC721BudgetApproval",
        "label": "text",
        "offset": 0,
        "slot": "110",
        "type": "t_string_storage"
      },
      {
        "astId": 21232,
        "contract": "contracts/TransferERC721BudgetApproval.sol:TransferERC721BudgetApproval",
        "label": "transactionType",
        "offset": 0,
        "slot": "111",
        "type": "t_string_storage"
      },
      {
        "astId": 21234,
        "contract": "contracts/TransferERC721BudgetApproval.sol:TransferERC721BudgetApproval",
        "label": "allowUnlimitedUsageCount",
        "offset": 0,
        "slot": "112",
        "type": "t_bool"
      },
      {
        "astId": 21236,
        "contract": "contracts/TransferERC721BudgetApproval.sol:TransferERC721BudgetApproval",
        "label": "usageCount",
        "offset": 0,
        "slot": "113",
        "type": "t_uint256"
      },
      {
        "astId": 21238,
        "contract": "contracts/TransferERC721BudgetApproval.sol:TransferERC721BudgetApproval",
        "label": "startTime",
        "offset": 0,
        "slot": "114",
        "type": "t_uint256"
      },
      {
        "astId": 21240,
        "contract": "contracts/TransferERC721BudgetApproval.sol:TransferERC721BudgetApproval",
        "label": "endTime",
        "offset": 0,
        "slot": "115",
        "type": "t_uint256"
      },
      {
        "astId": 21242,
        "contract": "contracts/TransferERC721BudgetApproval.sol:TransferERC721BudgetApproval",
        "label": "team",
        "offset": 0,
        "slot": "116",
        "type": "t_address"
      },
      {
        "astId": 19734,
        "contract": "contracts/TransferERC721BudgetApproval.sol:TransferERC721BudgetApproval",
        "label": "allowAllAddresses",
        "offset": 20,
        "slot": "116",
        "type": "t_bool"
      },
      {
        "astId": 19738,
        "contract": "contracts/TransferERC721BudgetApproval.sol:TransferERC721BudgetApproval",
        "label": "addressesMapping",
        "offset": 0,
        "slot": "117",
        "type": "t_mapping(t_address,t_bool)"
      },
      {
        "astId": 19740,
        "contract": "contracts/TransferERC721BudgetApproval.sol:TransferERC721BudgetApproval",
        "label": "allowAllTokens",
        "offset": 0,
        "slot": "118",
        "type": "t_bool"
      },
      {
        "astId": 19743,
        "contract": "contracts/TransferERC721BudgetApproval.sol:TransferERC721BudgetApproval",
        "label": "tokens",
        "offset": 0,
        "slot": "119",
        "type": "t_array(t_address)dyn_storage"
      },
      {
        "astId": 19747,
        "contract": "contracts/TransferERC721BudgetApproval.sol:TransferERC721BudgetApproval",
        "label": "tokensMapping",
        "offset": 0,
        "slot": "120",
        "type": "t_mapping(t_address,t_bool)"
      },
      {
        "astId": 19749,
        "contract": "contracts/TransferERC721BudgetApproval.sol:TransferERC721BudgetApproval",
        "label": "allowAnyAmount",
        "offset": 0,
        "slot": "121",
        "type": "t_bool"
      },
      {
        "astId": 19751,
        "contract": "contracts/TransferERC721BudgetApproval.sol:TransferERC721BudgetApproval",
        "label": "totalAmount",
        "offset": 0,
        "slot": "122",
        "type": "t_uint256"
      }
    ],
    "types": {
      "t_address": {
        "encoding": "inplace",
        "label": "address",
        "numberOfBytes": "20"
      },
      "t_address_payable": {
        "encoding": "inplace",
        "label": "address payable",
        "numberOfBytes": "20"
      },
      "t_array(t_address)dyn_storage": {
        "base": "t_address",
        "encoding": "dynamic_array",
        "label": "address[]",
        "numberOfBytes": "32"
      },
      "t_array(t_bytes_storage)dyn_storage": {
        "base": "t_bytes_storage",
        "encoding": "dynamic_array",
        "label": "bytes[]",
        "numberOfBytes": "32"
      },
      "t_array(t_uint256)50_storage": {
        "base": "t_uint256",
        "encoding": "inplace",
        "label": "uint256[50]",
        "numberOfBytes": "1600"
      },
      "t_bool": {
        "encoding": "inplace",
        "label": "bool",
        "numberOfBytes": "1"
      },
      "t_bytes_storage": {
        "encoding": "bytes",
        "label": "bytes",
        "numberOfBytes": "32"
      },
      "t_enum(Status)21135": {
        "encoding": "inplace",
        "label": "enum CommonBudgetApproval.Status",
        "numberOfBytes": "1"
      },
      "t_mapping(t_address,t_bool)": {
        "encoding": "mapping",
        "key": "t_address",
        "label": "mapping(address => bool)",
        "numberOfBytes": "32",
        "value": "t_bool"
      },
      "t_mapping(t_uint256,t_struct(Transaction)21154_storage)": {
        "encoding": "mapping",
        "key": "t_uint256",
        "label": "mapping(uint256 => struct CommonBudgetApproval.Transaction)",
        "numberOfBytes": "32",
        "value": "t_struct(Transaction)21154_storage"
      },
      "t_string_storage": {
        "encoding": "bytes",
        "label": "string",
        "numberOfBytes": "32"
      },
      "t_struct(Counter)13987_storage": {
        "encoding": "inplace",
        "label": "struct Counters.Counter",
        "members": [
          {
            "astId": 13986,
            "contract": "contracts/TransferERC721BudgetApproval.sol:TransferERC721BudgetApproval",
            "label": "_value",
            "offset": 0,
            "slot": "0",
            "type": "t_uint256"
          }
        ],
        "numberOfBytes": "32"
      },
      "t_struct(Transaction)21154_storage": {
        "encoding": "inplace",
        "label": "struct CommonBudgetApproval.Transaction",
        "members": [
          {
            "astId": 21137,
            "contract": "contracts/TransferERC721BudgetApproval.sol:TransferERC721BudgetApproval",
            "label": "id",
            "offset": 0,
            "slot": "0",
            "type": "t_uint256"
          },
          {
            "astId": 21140,
            "contract": "contracts/TransferERC721BudgetApproval.sol:TransferERC721BudgetApproval",
            "label": "data",
            "offset": 0,
            "slot": "1",
            "type": "t_array(t_bytes_storage)dyn_storage"
          },
          {
            "astId": 21143,
            "contract": "contracts/TransferERC721BudgetApproval.sol:TransferERC721BudgetApproval",
            "label": "status",
            "offset": 0,
            "slot": "2",
            "type": "t_enum(Status)21135"
          },
          {
            "astId": 21145,
            "contract": "contracts/TransferERC721BudgetApproval.sol:TransferERC721BudgetApproval",
            "label": "deadline",
            "offset": 0,
            "slot": "3",
            "type": "t_uint256"
          },
          {
            "astId": 21149,
            "contract": "contracts/TransferERC721BudgetApproval.sol:TransferERC721BudgetApproval",
            "label": "approved",
            "offset": 0,
            "slot": "4",
            "type": "t_mapping(t_address,t_bool)"
          },
          {
            "astId": 21151,
            "contract": "contracts/TransferERC721BudgetApproval.sol:TransferERC721BudgetApproval",
            "label": "approvedCount",
            "offset": 0,
            "slot": "5",
            "type": "t_uint256"
          },
          {
            "astId": 21153,
            "contract": "contracts/TransferERC721BudgetApproval.sol:TransferERC721BudgetApproval",
            "label": "isExist",
            "offset": 0,
            "slot": "6",
            "type": "t_bool"
          }
        ],
        "numberOfBytes": "224"
      },
      "t_uint256": {
        "encoding": "inplace",
        "label": "uint256",
        "numberOfBytes": "32"
      }
    }
  }
}