{
  "address": "0x65b933e5787B9066Bf7cA34E253bde21B9EABBE3",
  "abi": [
    {
      "anonymous": false,
      "inputs": [
        {
          "indexed": false,
          "internalType": "address",
          "name": "previousAdmin",
          "type": "address"
        },
        {
          "indexed": false,
          "internalType": "address",
          "name": "newAdmin",
          "type": "address"
        }
      ],
      "name": "AdminChanged",
      "type": "event"
    },
    {
      "anonymous": false,
      "inputs": [
        {
          "indexed": false,
          "internalType": "address",
          "name": "target",
          "type": "address"
        }
      ],
      "name": "AllowAddress",
      "type": "event"
    },
    {
      "anonymous": false,
      "inputs": [
        {
          "indexed": false,
          "internalType": "uint256",
          "name": "amount",
          "type": "uint256"
        }
      ],
      "name": "AllowAmount",
      "type": "event"
    },
    {
      "anonymous": false,
      "inputs": [
        {
          "indexed": false,
          "internalType": "address",
          "name": "token",
          "type": "address"
        }
      ],
      "name": "AllowToken",
      "type": "event"
    },
    {
      "anonymous": false,
      "inputs": [
        {
          "indexed": false,
          "internalType": "uint256",
          "name": "id",
          "type": "uint256"
        },
        {
          "indexed": false,
          "internalType": "address",
          "name": "approver",
          "type": "address"
        }
      ],
      "name": "ApproveTransaction",
      "type": "event"
    },
    {
      "anonymous": false,
      "inputs": [
        {
          "indexed": true,
          "internalType": "address",
          "name": "beacon",
          "type": "address"
        }
      ],
      "name": "BeaconUpgraded",
      "type": "event"
    },
    {
      "anonymous": false,
      "inputs": [
        {
          "indexed": false,
          "internalType": "uint256",
          "name": "id",
          "type": "uint256"
        },
        {
          "indexed": false,
          "internalType": "bytes[]",
          "name": "data",
          "type": "bytes[]"
        },
        {
          "indexed": false,
          "internalType": "uint256",
          "name": "deadline",
          "type": "uint256"
        },
        {
          "indexed": false,
          "internalType": "enum CommonBudgetApproval.Status",
          "name": "status",
          "type": "uint8"
        }
      ],
      "name": "CreateTransaction",
      "type": "event"
    },
    {
      "anonymous": false,
      "inputs": [
        {
          "indexed": false,
          "internalType": "uint256",
          "name": "id",
          "type": "uint256"
        },
        {
          "indexed": false,
          "internalType": "bytes[]",
          "name": "data",
          "type": "bytes[]"
        }
      ],
      "name": "ExecuteTransaction",
      "type": "event"
    },
    {
      "anonymous": false,
      "inputs": [
        {
          "indexed": false,
          "internalType": "uint256",
          "name": "id",
          "type": "uint256"
        }
      ],
      "name": "RevokeTransaction",
      "type": "event"
    },
    {
      "anonymous": false,
      "inputs": [
        {
          "indexed": false,
          "internalType": "address",
          "name": "approver",
          "type": "address"
        }
      ],
      "name": "SetApprover",
      "type": "event"
    },
    {
      "anonymous": false,
      "inputs": [
        {
          "indexed": true,
          "internalType": "address",
          "name": "implementation",
          "type": "address"
        }
      ],
      "name": "Upgraded",
      "type": "event"
    },
    {
      "inputs": [],
      "name": "ETH_ADDRESS",
      "outputs": [
        {
          "internalType": "address",
          "name": "",
          "type": "address"
        }
      ],
      "stateMutability": "view",
      "type": "function"
    },
    {
      "inputs": [
        {
          "internalType": "address",
          "name": "",
          "type": "address"
        }
      ],
      "name": "addressesMapping",
      "outputs": [
        {
          "internalType": "bool",
          "name": "",
          "type": "bool"
        }
      ],
      "stateMutability": "view",
      "type": "function"
    },
    {
      "inputs": [],
      "name": "afterInitialized",
      "outputs": [],
      "stateMutability": "nonpayable",
      "type": "function"
    },
    {
      "inputs": [],
      "name": "allowAllAddresses",
      "outputs": [
        {
          "internalType": "bool",
          "name": "",
          "type": "bool"
        }
      ],
      "stateMutability": "view",
      "type": "function"
    },
    {
      "inputs": [],
      "name": "allowAnyAmount",
      "outputs": [
        {
          "internalType": "bool",
          "name": "",
          "type": "bool"
        }
      ],
      "stateMutability": "view",
      "type": "function"
    },
    {
      "inputs": [],
      "name": "allowUnlimitedUsageCount",
      "outputs": [
        {
          "internalType": "bool",
          "name": "",
          "type": "bool"
        }
      ],
      "stateMutability": "view",
      "type": "function"
    },
    {
      "inputs": [],
      "name": "amountPercentage",
      "outputs": [
        {
          "internalType": "uint8",
          "name": "",
          "type": "uint8"
        }
      ],
      "stateMutability": "view",
      "type": "function"
    },
    {
      "inputs": [
        {
          "internalType": "uint256",
          "name": "id",
          "type": "uint256"
        }
      ],
      "name": "approveTransaction",
      "outputs": [],
      "stateMutability": "nonpayable",
      "type": "function"
    },
    {
      "inputs": [
        {
          "internalType": "uint256",
          "name": "id",
          "type": "uint256"
        }
      ],
      "name": "approvedCountOf",
      "outputs": [
        {
          "internalType": "uint256",
          "name": "",
          "type": "uint256"
        }
      ],
      "stateMutability": "view",
      "type": "function"
    },
    {
      "inputs": [],
      "name": "approverTeamId",
      "outputs": [
        {
          "internalType": "uint256",
          "name": "",
          "type": "uint256"
        }
      ],
      "stateMutability": "view",
      "type": "function"
    },
    {
      "inputs": [
        {
          "internalType": "address",
          "name": "",
          "type": "address"
        }
      ],
      "name": "approversMapping",
      "outputs": [
        {
          "internalType": "bool",
          "name": "",
          "type": "bool"
        }
      ],
      "stateMutability": "view",
      "type": "function"
    },
    {
      "inputs": [
        {
          "internalType": "address",
          "name": "asset",
          "type": "address"
        },
        {
          "internalType": "uint256",
          "name": "amount",
          "type": "uint256"
        }
      ],
      "name": "assetBaseCurrencyPrice",
      "outputs": [
        {
          "internalType": "uint256",
          "name": "",
          "type": "uint256"
        }
      ],
      "stateMutability": "view",
      "type": "function"
    },
    {
      "inputs": [
        {
          "internalType": "address",
          "name": "asset",
          "type": "address"
        },
        {
          "internalType": "uint256",
          "name": "amount",
          "type": "uint256"
        }
      ],
      "name": "assetEthPrice",
      "outputs": [
        {
          "internalType": "uint256",
          "name": "",
          "type": "uint256"
        }
      ],
      "stateMutability": "view",
      "type": "function"
    },
    {
      "inputs": [],
      "name": "baseCurrency",
      "outputs": [
        {
          "internalType": "address",
          "name": "",
          "type": "address"
        }
      ],
      "stateMutability": "view",
      "type": "function"
    },
    {
      "inputs": [],
      "name": "baseCurrencyDecimals",
      "outputs": [
        {
          "internalType": "uint8",
          "name": "",
          "type": "uint8"
        }
      ],
      "stateMutability": "view",
      "type": "function"
    },
    {
      "inputs": [
        {
          "internalType": "address",
          "name": "asset",
          "type": "address"
        }
      ],
      "name": "canResolvePrice",
      "outputs": [
        {
          "internalType": "bool",
          "name": "",
          "type": "bool"
        }
      ],
      "stateMutability": "view",
      "type": "function"
    },
    {
      "inputs": [
        {
          "internalType": "bytes[]",
          "name": "_data",
          "type": "bytes[]"
        },
        {
          "internalType": "uint256",
          "name": "_deadline",
          "type": "uint256"
        },
        {
          "internalType": "bool",
          "name": "_isExecute",
          "type": "bool"
        }
      ],
      "name": "createTransaction",
      "outputs": [
        {
          "internalType": "uint256",
          "name": "",
          "type": "uint256"
        }
      ],
      "stateMutability": "nonpayable",
      "type": "function"
    },
    {
      "inputs": [],
      "name": "dao",
      "outputs": [
        {
          "internalType": "address payable",
          "name": "",
          "type": "address"
        }
      ],
      "stateMutability": "view",
      "type": "function"
    },
    {
      "inputs": [
        {
          "internalType": "uint256",
          "name": "id",
          "type": "uint256"
        }
      ],
      "name": "deadlineOf",
      "outputs": [
        {
          "internalType": "uint256",
          "name": "",
          "type": "uint256"
        }
      ],
      "stateMutability": "view",
      "type": "function"
    },
    {
      "inputs": [],
      "name": "endTime",
      "outputs": [
        {
          "internalType": "uint256",
          "name": "",
          "type": "uint256"
        }
      ],
      "stateMutability": "view",
      "type": "function"
    },
    {
      "inputs": [
        {
          "internalType": "address",
          "name": "asset",
          "type": "address"
        },
        {
          "internalType": "uint256",
          "name": "ethAmount",
          "type": "uint256"
        }
      ],
      "name": "ethAssetPrice",
      "outputs": [
        {
          "internalType": "uint256",
          "name": "",
          "type": "uint256"
        }
      ],
      "stateMutability": "view",
      "type": "function"
    },
    {
      "inputs": [],
      "name": "executeParams",
      "outputs": [
        {
          "internalType": "string[]",
          "name": "",
          "type": "string[]"
        }
      ],
      "stateMutability": "pure",
      "type": "function"
    },
    {
      "inputs": [
        {
          "internalType": "uint256",
          "name": "id",
          "type": "uint256"
        }
      ],
      "name": "executeTransaction",
      "outputs": [],
      "stateMutability": "nonpayable",
      "type": "function"
    },
    {
      "inputs": [],
      "name": "executee",
      "outputs": [
        {
          "internalType": "address",
          "name": "",
          "type": "address"
        }
      ],
      "stateMutability": "view",
      "type": "function"
    },
    {
      "inputs": [],
      "name": "executor",
      "outputs": [
        {
          "internalType": "address",
          "name": "",
          "type": "address"
        }
      ],
      "stateMutability": "view",
      "type": "function"
    },
    {
      "inputs": [],
      "name": "executorTeamId",
      "outputs": [
        {
          "internalType": "uint256",
          "name": "",
          "type": "uint256"
        }
      ],
      "stateMutability": "view",
      "type": "function"
    },
    {
      "inputs": [
        {
          "components": [
            {
              "internalType": "address",
              "name": "dao",
              "type": "address"
            },
            {
              "internalType": "address",
              "name": "executor",
              "type": "address"
            },
            {
              "internalType": "uint256",
              "name": "executorTeamId",
              "type": "uint256"
            },
            {
              "internalType": "address[]",
              "name": "approvers",
              "type": "address[]"
            },
            {
              "internalType": "uint256",
              "name": "approverTeamId",
              "type": "uint256"
            },
            {
              "internalType": "uint256",
              "name": "minApproval",
              "type": "uint256"
            },
            {
              "internalType": "string",
              "name": "text",
              "type": "string"
            },
            {
              "internalType": "string",
              "name": "transactionType",
              "type": "string"
            },
            {
              "internalType": "uint256",
              "name": "startTime",
              "type": "uint256"
            },
            {
              "internalType": "uint256",
              "name": "endTime",
              "type": "uint256"
            },
            {
              "internalType": "bool",
              "name": "allowUnlimitedUsageCount",
              "type": "bool"
            },
            {
              "internalType": "uint256",
              "name": "usageCount",
              "type": "uint256"
            },
            {
              "internalType": "address",
              "name": "team",
              "type": "address"
            }
          ],
          "internalType": "struct CommonBudgetApproval.InitializeParams",
          "name": "params",
          "type": "tuple"
        },
        {
          "internalType": "bool",
          "name": "_allowAllAddresses",
          "type": "bool"
        },
        {
          "internalType": "address[]",
          "name": "_toAddresses",
          "type": "address[]"
        },
        {
          "internalType": "address[]",
          "name": "_tokens",
          "type": "address[]"
        },
        {
          "internalType": "bool",
          "name": "_allowAnyAmount",
          "type": "bool"
        },
        {
          "internalType": "uint256",
          "name": "_totalAmount",
          "type": "uint256"
        },
        {
          "internalType": "uint8",
          "name": "_amountPercentage",
          "type": "uint8"
        },
        {
          "internalType": "address",
          "name": "_baseCurrency",
          "type": "address"
        }
      ],
      "name": "initialize",
      "outputs": [],
      "stateMutability": "nonpayable",
      "type": "function"
    },
    {
      "inputs": [],
      "name": "minApproval",
      "outputs": [
        {
          "internalType": "uint256",
          "name": "",
          "type": "uint256"
        }
      ],
      "stateMutability": "view",
      "type": "function"
    },
    {
      "inputs": [],
      "name": "name",
      "outputs": [
        {
          "internalType": "string",
          "name": "",
          "type": "string"
        }
      ],
      "stateMutability": "view",
      "type": "function"
    },
    {
      "inputs": [],
      "name": "proxiableUUID",
      "outputs": [
        {
          "internalType": "bytes32",
          "name": "",
          "type": "bytes32"
        }
      ],
      "stateMutability": "view",
      "type": "function"
    },
    {
      "inputs": [
        {
          "internalType": "uint256",
          "name": "id",
          "type": "uint256"
        }
      ],
      "name": "revokeTransaction",
      "outputs": [],
      "stateMutability": "nonpayable",
      "type": "function"
    },
    {
      "inputs": [],
      "name": "startTime",
      "outputs": [
        {
          "internalType": "uint256",
          "name": "",
          "type": "uint256"
        }
      ],
      "stateMutability": "view",
      "type": "function"
    },
    {
      "inputs": [
        {
          "internalType": "uint256",
          "name": "id",
          "type": "uint256"
        }
      ],
      "name": "statusOf",
      "outputs": [
        {
          "internalType": "enum CommonBudgetApproval.Status",
          "name": "",
          "type": "uint8"
        }
      ],
      "stateMutability": "view",
      "type": "function"
    },
    {
      "inputs": [],
      "name": "team",
      "outputs": [
        {
          "internalType": "address",
          "name": "",
          "type": "address"
        }
      ],
      "stateMutability": "view",
      "type": "function"
    },
    {
      "inputs": [],
      "name": "text",
      "outputs": [
        {
          "internalType": "string",
          "name": "",
          "type": "string"
        }
      ],
      "stateMutability": "view",
      "type": "function"
    },
    {
      "inputs": [
        {
          "internalType": "uint256",
          "name": "",
          "type": "uint256"
        }
      ],
      "name": "tokens",
      "outputs": [
        {
          "internalType": "address",
          "name": "",
          "type": "address"
        }
      ],
      "stateMutability": "view",
      "type": "function"
    },
    {
      "inputs": [
        {
          "internalType": "address",
          "name": "",
          "type": "address"
        }
      ],
      "name": "tokensMapping",
      "outputs": [
        {
          "internalType": "bool",
          "name": "",
          "type": "bool"
        }
      ],
      "stateMutability": "view",
      "type": "function"
    },
    {
      "inputs": [],
      "name": "totalAmount",
      "outputs": [
        {
          "internalType": "uint256",
          "name": "",
          "type": "uint256"
        }
      ],
      "stateMutability": "view",
      "type": "function"
    },
    {
      "inputs": [],
      "name": "transactionType",
      "outputs": [
        {
          "internalType": "string",
          "name": "",
          "type": "string"
        }
      ],
      "stateMutability": "view",
      "type": "function"
    },
    {
      "inputs": [
        {
          "internalType": "uint256",
          "name": "",
          "type": "uint256"
        }
      ],
      "name": "transactions",
      "outputs": [
        {
          "internalType": "uint256",
          "name": "id",
          "type": "uint256"
        },
        {
          "internalType": "enum CommonBudgetApproval.Status",
          "name": "status",
          "type": "uint8"
        },
        {
          "internalType": "uint256",
          "name": "deadline",
          "type": "uint256"
        },
        {
          "internalType": "uint256",
          "name": "approvedCount",
          "type": "uint256"
        },
        {
          "internalType": "bool",
          "name": "isExist",
          "type": "bool"
        }
      ],
      "stateMutability": "view",
      "type": "function"
    },
    {
      "inputs": [
        {
          "internalType": "address",
          "name": "newImplementation",
          "type": "address"
        }
      ],
      "name": "upgradeTo",
      "outputs": [],
      "stateMutability": "nonpayable",
      "type": "function"
    },
    {
      "inputs": [
        {
          "internalType": "address",
          "name": "newImplementation",
          "type": "address"
        },
        {
          "internalType": "bytes",
          "name": "data",
          "type": "bytes"
        }
      ],
      "name": "upgradeToAndCall",
      "outputs": [],
      "stateMutability": "payable",
      "type": "function"
    },
    {
      "inputs": [],
      "name": "usageCount",
      "outputs": [
        {
          "internalType": "uint256",
          "name": "",
          "type": "uint256"
        }
      ],
      "stateMutability": "view",
      "type": "function"
    }
  ],
  "transactionHash": "0xfa73426b57fd444ba7c6360541309a9e442a294e1e25c71cb613dc1449d350f3",
  "args": [],
  "numDeployments": 1,
  "solcInputHash": "da7809b3b714fba03a8268402ac25a3e",
  "bytecode": "0x60a06040523060601b60805234801561001757600080fd5b5060805160601c61426561005260003960008181610e5a01528181610e9a01528181610f3a01528181610f7a015261103701526142656000f3fe60806040526004361061025c5760003560e01c80636bdebe5e11610144578063ad35efd4116100b6578063c34c08e51161007a578063c34c08e51461078b578063cf26fec6146107ab578063d96c9196146107c0578063de755e2f146107d6578063ee22610b146107ec578063f5c038521461080c57600080fd5b8063ad35efd4146106d0578063b18b32fb14610710578063b49612ba1461072a578063b617b3ee1461074a578063bc9c5e901461076b57600080fd5b806385f2aef21161010857806385f2aef2146105bd5780638d1c5c29146105dd578063914e49091461060d57806392a85fde1461062d5780639ace38c21461064d578063a734f06e146106ae57600080fd5b80636bdebe5e14610528578063735631ad1461055857806378e97925146105785780637cd47d931461058e57806385015437146105a357600080fd5b80633ed38daf116101dd57806350bd881f116101a157806350bd881f1461047c57806352d1902d146104925780635aaaefad146104a75780635ad32502146104c757806360d8bb22146104e157806363d727dc1461050157600080fd5b80633ed38daf146103b15780634162169f146103e15780634f1ef286146104195780634f64b2be1461042c5780635078f67a1461044c57600080fd5b80633197cbb6116102245780633197cbb6146102f957806331a7bdd91461030f57806335efb1f9146103315780633659cfe6146103515780633d70015a1461037157600080fd5b806303ff90f61461026157806306fdde031461028a5780631a39d8ef146102ac5780631f1bd692146102c2578063242232d1146102d7575b600080fd5b34801561026d57600080fd5b50610277606d5481565b6040519081526020015b60405180910390f35b34801561029657600080fd5b5061029f61082c565b6040516102819190613a45565b3480156102b857600080fd5b50610277607a5481565b3480156102ce57600080fd5b5061029f610848565b3480156102e357600080fd5b506102f76102f23660046138b5565b6108d6565b005b34801561030557600080fd5b5061027760735481565b34801561031b57600080fd5b50610324610bbf565b60405161028191906139d6565b34801561033d57600080fd5b506102f761034c3660046137e4565b610cea565b34801561035d57600080fd5b506102f761036c36600461358a565b610e4f565b34801561037d57600080fd5b506103a161038c36600461358a565b60786020526000908152604090205460ff1681565b6040519015158152602001610281565b3480156103bd57600080fd5b506102776103cc3660046138b5565b60009081526066602052604090206003015490565b3480156103ed57600080fd5b50606954610401906001600160a01b031681565b6040516001600160a01b039091168152602001610281565b6102f76104273660046135e8565b610f2f565b34801561043857600080fd5b506104016104473660046138b5565b611000565b34801561045857600080fd5b506102776104673660046138b5565b60009081526066602052604090206005015490565b34801561048857600080fd5b5061027760715481565b34801561049e57600080fd5b5061027761102a565b3480156104b357600080fd5b506102776104c2366004613636565b6110dd565b3480156104d357600080fd5b506070546103a19060ff1681565b3480156104ed57600080fd5b506102776104fc366004613636565b611281565b34801561050d57600080fd5b5061051661156a565b60405160ff9091168152602001610281565b34801561053457600080fd5b506103a161054336600461358a565b606b6020526000908152604090205460ff1681565b34801561056457600080fd5b506102f76105733660046138b5565b611621565b34801561058457600080fd5b5061027760725481565b34801561059a57600080fd5b5061029f6117b7565b3480156105af57600080fd5b506079546103a19060ff1681565b3480156105c957600080fd5b50607454610401906001600160a01b031681565b3480156105e957600080fd5b506103a16105f836600461358a565b60766020526000908152604090205460ff1681565b34801561061957600080fd5b50610277610628366004613661565b6117c4565b34801561063957600080fd5b50607554610401906001600160a01b031681565b34801561065957600080fd5b5061069d6106683660046138b5565b60666020526000908152604090208054600282015460038301546005840154600690940154929360ff92831693919290911685565b604051610281959493929190613d36565b3480156106ba57600080fd5b506104016000805160206141e983398151915281565b3480156106dc57600080fd5b506107036106eb3660046138b5565b60009081526066602052604090206002015460ff1690565b6040516102819190613a37565b34801561071c57600080fd5b50607b546105169060ff1681565b34801561073657600080fd5b50610277610745366004613636565b61197b565b34801561075657600080fd5b506075546103a190600160a01b900460ff1681565b34801561077757600080fd5b506103a161078636600461358a565b611b02565b34801561079757600080fd5b50606754610401906001600160a01b031681565b3480156107b757600080fd5b506102f7611c2f565b3480156107cc57600080fd5b50610277606c5481565b3480156107e257600080fd5b5061027760685481565b3480156107f857600080fd5b506102f76108073660046138b5565b611c96565b34801561081857600080fd5b50606a54610401906001600160a01b031681565b6040518060600160405280602581526020016141c46025913981565b606e8054610855906140ed565b80601f0160208091040260200160405190810160405280929190818152602001828054610881906140ed565b80156108ce5780601f106108a3576101008083540402835291602001916108ce565b820191906000526020600020905b8154815290600101906020018083116108b157829003601f168201915b505050505081565b336000908152606b602052604090205460ff16806109765750607454606c54604051627eeac760e11b815233600482015260248101919091526000916001600160a01b03169062fdd58e9060440160206040518083038186803b15801561093c57600080fd5b505afa158015610950573d6000803e3d6000fd5b505050506040513d601f19601f820116820180604052508101906109749190613746565b115b6109d25760405162461bcd60e51b815260206004820152602260248201527f417070726f766572206e6f742077686974656c697374656420696e2062756467604482015261195d60f21b60648201526084015b60405180910390fd5b60008181526066602052604081206002015460ff166003811115610a0657634e487b7160e01b600052602160045260246000fd5b1480610a455750600160008281526066602052604090206002015460ff166003811115610a4357634e487b7160e01b600052602160045260246000fd5b145b610a915760405162461bcd60e51b815260206004820152601d60248201527f556e6578706563746564207472616e73616374696f6e2073746174757300000060448201526064016109c9565b600081815260666020908152604080832033845260040190915290205460ff1615610b0a5760405162461bcd60e51b8152602060048201526024808201527f5472616e73616374696f6e20686173206265656e20617070726f766564206265604482015263666f726560e01b60648201526084016109c9565b6000818152606660208181526040808420338552600481018352908420805460ff19166001179055848452919052600501805491610b4783614122565b9091555050606d5460008281526066602052604090206005015410610b83576000818152606660205260409020600201805460ff191660011790555b604080518281523360208201527f72224bf551d1ce069c1a2440132e14e1ef15d45977e00541090a35901e527f3b91015b60405180910390a150565b6040805160038082526080820190925260609160009190816020015b6060815260200190600190039081610bdb5790505090506040518060400160405280600d81526020016c30b2323932b9b9903a37b5b2b760991b81525081600081518110610c3957634e487b7160e01b600052603260045260246000fd5b60200260200101819052506040518060400160405280600a8152602001696164647265737320746f60b01b81525081600181518110610c8857634e487b7160e01b600052603260045260246000fd5b60200260200101819052506040518060400160405280600d81526020016c75696e743235362076616c756560981b81525081600281518110610cda57634e487b7160e01b600052603260045260246000fd5b6020908102919091010152919050565b600054610100900460ff16610d055760005460ff1615610d09565b303b155b610d255760405162461bcd60e51b81526004016109c990613af0565b600054610100900460ff16158015610d47576000805461ffff19166101011790555b610d50896120b3565b6075805460ff60a01b1916600160a01b8a15150217905560005b8751811015610db557610da3888281518110610d9657634e487b7160e01b600052603260045260246000fd5b602002602001015161237a565b80610dad81614122565b915050610d6a565b5060005b8651811015610e0457610df2878281518110610de557634e487b7160e01b600052603260045260246000fd5b6020026020010151612449565b80610dfc81614122565b915050610db9565b506079805460ff1990811687151517909155607a859055607b805490911660ff8516179055610e32826125ba565b8015610e44576000805461ff00191690555b505050505050505050565b306001600160a01b037f0000000000000000000000000000000000000000000000000000000000000000161415610e985760405162461bcd60e51b81526004016109c990613a58565b7f00000000000000000000000000000000000000000000000000000000000000006001600160a01b0316610ee16000805160206141a4833981519152546001600160a01b031690565b6001600160a01b031614610f075760405162461bcd60e51b81526004016109c990613aa4565b610f1081612603565b60408051600080825260208201909252610f2c91839190612675565b50565b306001600160a01b037f0000000000000000000000000000000000000000000000000000000000000000161415610f785760405162461bcd60e51b81526004016109c990613a58565b7f00000000000000000000000000000000000000000000000000000000000000006001600160a01b0316610fc16000805160206141a4833981519152546001600160a01b031690565b6001600160a01b031614610fe75760405162461bcd60e51b81526004016109c990613aa4565b610ff082612603565b610ffc82826001612675565b5050565b6077818154811061101057600080fd5b6000918252602090912001546001600160a01b0316905081565b6000306001600160a01b037f000000000000000000000000000000000000000000000000000000000000000016146110ca5760405162461bcd60e51b815260206004820152603860248201527f555550535570677261646561626c653a206d757374206e6f742062652063616c60448201527f6c6564207468726f7567682064656c656761746563616c6c000000000000000060648201526084016109c9565b506000805160206141a483398151915290565b60006001600160a01b0383166000805160206141e9833981519152148061112057506001600160a01b03831673c778417e063141139fce010982780140aa0cd5ab145b1561112c57508061127b565b60405163bcfd032d60e01b81526001600160a01b03841660048201526000805160206141e9833981519152602482015260009073f948fc3d6c2c2c866f622c79612bb4e8708883cf9063bcfd032d9060440160a06040518083038186803b15801561119657600080fd5b505afa1580156111aa573d6000803e3d6000fd5b505050506040513d601f19601f820116820180604052508101906111ce91906138cd565b505050915050600081131561127557836001600160a01b031663313ce5676040518163ffffffff1660e01b815260040160206040518083038186803b15801561121657600080fd5b505afa15801561122a573d6000803e3d6000fd5b505050506040513d601f19601f8201168201806040525081019061124e919061391c565b61125990600a613f22565b6112638483614051565b61126d9190613ebf565b91505061127b565b60009150505b92915050565b6075546000906001600160a01b03848116911614156112a157508061127b565b6075546001600160a01b03166000805160206141e983398151915214806112e657506075546001600160a01b031673c778417e063141139fce010982780140aa0cd5ab145b156112fc576112f583836110dd565b905061127b565b6001600160a01b0383166000805160206141e9833981519152148061133d57506001600160a01b03831673c778417e063141139fce010982780140aa0cd5ab145b15611358576075546112f5906001600160a01b03168361197b565b60755460405163d2edb6dd60e01b81526001600160a01b0390911660048201526000805160206141e9833981519152602482015260009073f948fc3d6c2c2c866f622c79612bb4e8708883cf9063d2edb6dd9060440160206040518083038186803b1580156113c657600080fd5b505afa1580156113da573d6000803e3d6000fd5b505050506040513d601f19601f820116820180604052508101906113fe91906137c8565b60405163d2edb6dd60e01b81526001600160a01b03861660048201526000805160206141e9833981519152602482015290915060009073f948fc3d6c2c2c866f622c79612bb4e8708883cf9063d2edb6dd9060440160206040518083038186803b15801561146b57600080fd5b505afa15801561147f573d6000803e3d6000fd5b505050506040513d601f19601f820116820180604052508101906114a391906137c8565b905060006114b982846114b461156a565b6127f4565b9050600081131561155e57856001600160a01b031663313ce5676040518163ffffffff1660e01b815260040160206040518083038186803b1580156114fd57600080fd5b505afa158015611511573d6000803e3d6000fd5b505050506040513d601f19601f82011682018060405250810190611535919061391c565b61154090600a613f22565b61154a8683614051565b6115549190613ebf565b935050505061127b565b50600095945050505050565b6075546000906001600160a01b03166000805160206141e983398151915214156115945750601290565b607560009054906101000a90046001600160a01b03166001600160a01b031663313ce5676040518163ffffffff1660e01b815260040160206040518083038186803b1580156115e257600080fd5b505afa925050508015611612575060408051601f3d908101601f1916820190925261160f9181019061391c565b60015b61161c5750600090565b919050565b6067546001600160a01b03163314806116bc5750607454606854604051627eeac760e11b815233600482015260248101919091526000916001600160a01b03169062fdd58e9060440160206040518083038186803b15801561168257600080fd5b505afa158015611696573d6000803e3d6000fd5b505050506040513d601f19601f820116820180604052508101906116ba9190613746565b115b6116d85760405162461bcd60e51b81526004016109c990613b89565b600260008281526066602052604090206002015460ff16600381111561170e57634e487b7160e01b600052602160045260246000fd5b141561176a5760405162461bcd60e51b815260206004820152602560248201527f5472616e73616374696f6e20686173206265656e20636f6d706c65746564206260448201526465666f726560d81b60648201526084016109c9565b600081815260666020908152604091829020600201805460ff1916600317905590518281527f92a917be073b79ab50f9d997e9514a5d101e052ce04228014947e7883a7c03469101610bb4565b606f8054610855906140ed565b6067546000906001600160a01b03163314806118625750607454606854604051627eeac760e11b815233600482015260248101919091526000916001600160a01b03169062fdd58e9060440160206040518083038186803b15801561182857600080fd5b505afa15801561183c573d6000803e3d6000fd5b505050506040513d601f19601f820116820180604052508101906118609190613746565b115b61187e5760405162461bcd60e51b81526004016109c990613b89565b61188c606580546001019055565b600061189760655490565b60008181526066602090815260409091208281558751929350916118c3916001840191908901906132b1565b506003810185905560068101805460ff19166001179055606d54611902576000828152606660205260409020600201805460ff1916600117905561191c565b6000828152606660205260409020600201805460ff191690555b60028101546040517ff7b10f12a6c66358a337baada438de41a306929aefcec529de156f2686eafd89916119599185918a918a9160ff1690613bcb565b60405180910390a183156119705761197082611c96565b5090505b9392505050565b60006001600160a01b0383166000805160206141e983398151915214806119be57506001600160a01b03831673c778417e063141139fce010982780140aa0cd5ab145b156119ca57508061127b565b60405163bcfd032d60e01b81526001600160a01b03841660048201526000805160206141e9833981519152602482015260009073f948fc3d6c2c2c866f622c79612bb4e8708883cf9063bcfd032d9060440160a06040518083038186803b158015611a3457600080fd5b505afa158015611a48573d6000803e3d6000fd5b505050506040513d601f19601f82011682018060405250810190611a6c91906138cd565b50505091505060008113156112755780846001600160a01b031663313ce5676040518163ffffffff1660e01b815260040160206040518083038186803b158015611ab557600080fd5b505afa158015611ac9573d6000803e3d6000fd5b505050506040513d601f19601f82011682018060405250810190611aed919061391c565b611af890600a613f22565b6112639085614051565b60006001600160a01b0382166000805160206141e98339815191521480611b4557506001600160a01b03821673c778417e063141139fce010982780140aa0cd5ab145b15611b5257506001919050565b60405163d2edb6dd60e01b81526001600160a01b03831660048201526000805160206141e9833981519152602482015273f948fc3d6c2c2c866f622c79612bb4e8708883cf9063d2edb6dd9060440160206040518083038186803b158015611bb957600080fd5b505afa925050508015611be9575060408051601f3d908101601f19168201909252611be6918101906137c8565b60015b611c26573d808015611c17576040519150601f19603f3d011682016040523d82523d6000602084013e611c1c565b606091505b5060009392505050565b50600192915050565b606a546001600160a01b03163314611c945760405162461bcd60e51b815260206004820152602260248201527f4578656375746565206e6f742077686974656c697374656420696e2062756467604482015261195d60f21b60648201526084016109c9565b565b8060018060008381526066602052604090206002015460ff166003811115611cce57634e487b7160e01b600052602160045260246000fd5b14611d1b5760405162461bcd60e51b815260206004820152601a60248201527f5472616e73616374696f6e2073746174757320696e76616c696400000000000060448201526064016109c9565b6000838152606660205260409020600301548390421115611d745760405162461bcd60e51b8152602060048201526013602482015272151c985b9cd858dd1a5bdb88195e1c1a5c9959606a1b60448201526064016109c9565b607254421015611dc65760405162461bcd60e51b815260206004820152601f60248201527f42756467657420757361676520706572696f64206e6f7420737461727465640060448201526064016109c9565b60735415611e1f576073544210611e1f5760405162461bcd60e51b815260206004820152601d60248201527f42756467657420757361676520706572696f642068617320656e64656400000060448201526064016109c9565b6067546001600160a01b0316331480611eba5750607454606854604051627eeac760e11b815233600482015260248101919091526000916001600160a01b03169062fdd58e9060440160206040518083038186803b158015611e8057600080fd5b505afa158015611e94573d6000803e3d6000fd5b505050506040513d601f19601f82011682018060405250810190611eb89190613746565b115b611ed65760405162461bcd60e51b81526004016109c990613b89565b60005b6000858152606660205260409020600101548110156120515760705460ff1680611f0557506000607154115b611f515760405162461bcd60e51b815260206004820152601c60248201527f457863656564656420627564676574207573616765206c696d6974200000000060448201526064016109c9565b60705460ff16611f715760718054906000611f6b836140d6565b91905055505b6000858152606660205260409020600101805461203f919083908110611fa757634e487b7160e01b600052603260045260246000fd5b906000526020600020018054611fbc906140ed565b80601f0160208091040260200160405190810160405280929190818152602001828054611fe8906140ed565b80156120355780601f1061200a57610100808354040283529160200191612035565b820191906000526020600020905b81548152906001019060200180831161201857829003601f168201915b5050505050612a76565b8061204981614122565b915050611ed9565b50600084815260666020526040908190206002808201805460ff1916909117905590517f29652b4901331abf930397514a1ef13b239fe6b6b5d17244d0aa234f2fe69994916120a591879160010190613c41565b60405180910390a150505050565b600054610100900460ff166120da5760405162461bcd60e51b81526004016109c990613b3e565b6120e7602082018261358a565b606980546001600160a01b03929092166001600160a01b0319928316179055606a805490911633179055612121604082016020830161358a565b606780546001600160a01b0319166001600160a01b039290921691909117905561214e60c0820182613db7565b61215a91606e9161330e565b5061216860e0820182613db7565b61217491606f9161330e565b5060005b6121856060830183613d68565b905081101561228a576001606b60006121a16060860186613d68565b858181106121bf57634e487b7160e01b600052603260045260246000fd5b90506020020160208101906121d4919061358a565b6001600160a01b031681526020810191909152604001600020805460ff19169115159190911790557f4664777dbfbcb27de0f602e1da5d5a259992cd7edf5b29192929c96e8fd50def61222a6060840184613d68565b8381811061224857634e487b7160e01b600052603260045260246000fd5b905060200201602081019061225d919061358a565b6040516001600160a01b03909116815260200160405180910390a18061228281614122565b915050612178565b5060a0810135606d5560808101351515806122b557506122ad6060820182613d68565b9050606d5411155b6122f95760405162461bcd60e51b8152602060048201526015602482015274125b9d985b1a5908185c1c1c9bdd995c881b1a5cdd605a1b60448201526064016109c9565b61010081013560725561012081013560735561231d6101608201610140830161372c565b6070805460ff19169115159190911790556101608101356071556123496101a08201610180830161358a565b607480546001600160a01b0319166001600160a01b0392909216919091179055604081013560685560800135606c55565b6001600160a01b03811660009081526076602052604090205460ff16156123f55760405162461bcd60e51b815260206004820152602960248201527f4475706c696361746564206164647265737320696e20746172676574206164646044820152681c995cdcc81b1a5cdd60ba1b60648201526084016109c9565b6001600160a01b038116600081815260766020908152604091829020805460ff1916600117905590519182527ff11283a265d7a5f95fbc149dc65464f1f5be0151aac387fd76a938e1e55846049101610bb4565b6001600160a01b03811660009081526078602052604090205460ff16156124c05760405162461bcd60e51b815260206004820152602560248201527f4475706c696361746564204974656d20696e20736f7572636520746f6b656e206044820152643634b9ba1760d91b60648201526084016109c9565b6124c981611b02565b6125265760405162461bcd60e51b815260206004820152602860248201527f556e7265736f6c7661626c6520746f6b656e20696e2074617267657420746f6b60448201526732b7103634b9ba1760c11b60648201526084016109c9565b6077805460018082019092557f7901cb5addcae2d210a531c604a76a660d77039093bac314de0816a16392aff10180546001600160a01b0319166001600160a01b038416908117909155600081815260786020908152604091829020805460ff1916909417909355519081527f14009112f2dcb15cad32dab6bf972d6d85286e4ae1178f27323ffe25359459e69101610bb4565b600054610100900460ff166125e15760405162461bcd60e51b81526004016109c990613b3e565b607580546001600160a01b0319166001600160a01b0392909216919091179055565b600054610100900460ff1661261e5760005460ff1615612622565b303b155b61263e5760405162461bcd60e51b81526004016109c990613af0565b600054610100900460ff16158015612660576000805461ffff19166101011790555b8015610ffc576000805461ff00191690555050565b7f4910fdfa16fed3260ed0e7147f7cc6da11a60208b5b9406d12a635614ffd91435460ff16156126ad576126a883612e1f565b505050565b826001600160a01b03166352d1902d6040518163ffffffff1660e01b815260040160206040518083038186803b1580156126e657600080fd5b505afa925050508015612716575060408051601f3d908101601f1916820190925261271391810190613746565b60015b6127795760405162461bcd60e51b815260206004820152602e60248201527f45524331393637557067726164653a206e657720696d706c656d656e7461746960448201526d6f6e206973206e6f74205555505360901b60648201526084016109c9565b6000805160206141a483398151915281146127e85760405162461bcd60e51b815260206004820152602960248201527f45524331393637557067726164653a20756e737570706f727465642070726f786044820152681a58589b195555525160ba1b60648201526084016109c9565b506126a8838383612ebb565b600060ff82161580159061280c5750601260ff831611155b61284c5760405162461bcd60e51b8152602060048201526011602482015270496e76616c6964205f646563696d616c7360781b60448201526064016109c9565b600061285c60ff8416600a613f16565b90506000856001600160a01b031663feaf968c6040518163ffffffff1660e01b815260040160a06040518083038186803b15801561289957600080fd5b505afa1580156128ad573d6000803e3d6000fd5b505050506040513d601f19601f820116820180604052508101906128d191906138cd565b5050509150506000866001600160a01b031663313ce5676040518163ffffffff1660e01b815260040160206040518083038186803b15801561291257600080fd5b505afa158015612926573d6000803e3d6000fd5b505050506040513d601f19601f8201168201806040525081019061294a919061391c565b9050612957828287612ee6565b91506000866001600160a01b031663feaf968c6040518163ffffffff1660e01b815260040160a06040518083038186803b15801561299457600080fd5b505afa1580156129a8573d6000803e3d6000fd5b505050506040513d601f19601f820116820180604052508101906129cc91906138cd565b5050509150506000876001600160a01b031663313ce5676040518163ffffffff1660e01b815260040160206040518083038186803b158015612a0d57600080fd5b505afa158015612a21573d6000803e3d6000fd5b505050506040513d601f19601f82011682018060405250810190612a45919061391c565b9050612a52828289612ee6565b915081612a5f8686613fce565b612a699190613e91565b9998505050505050505050565b600080600083806020019051810190612a8f91906135a6565b9194509250905060006001600160a01b0384166000805160206141e98339815191521415612b5557606a5460405163d3abc28b60e01b81526001600160a01b0385811660048301526060602483015260006064830152604482018590529091169063d3abc28b90608401600060405180830381600087803b158015612b1357600080fd5b505af1158015612b27573d6000803e3d6000fd5b505050506040513d6000823e601f3d908101601f19168201604052612b4f919081019061375e565b50612c21565b604080516001600160a01b038581166024830152604480830186905283518084039091018152606490920183526020820180516001600160e01b031663a9059cbb60e01b179052606a54925163d3abc28b60e01b81529192169063d3abc28b90612bc890889085906000906004016139a2565b600060405180830381600087803b158015612be257600080fd5b505af1158015612bf6573d6000803e3d6000fd5b505050506040513d6000823e601f3d908101601f19168201604052612c1e919081019061375e565b50505b612c2b8483611281565b607554909150600160a01b900460ff1680612c5e57506001600160a01b03831660009081526076602052604090205460ff165b612cb65760405162461bcd60e51b815260206004820152602360248201527f526563697069656e74206e6f742077686974656c697374656420696e2062756460448201526219d95d60ea1b60648201526084016109c9565b6001600160a01b03841660009081526078602052604090205460ff16612d1e5760405162461bcd60e51b815260206004820152601f60248201527f546f6b656e206e6f742077686974656c697374656420696e206275646765740060448201526064016109c9565b60795460ff1680612d315750607a548111155b612d8d5760405162461bcd60e51b815260206004820152602760248201527f4578636565646564206d617820627564676574207472616e7366657261626c6560448201526608185b5bdd5b9d60ca1b60648201526084016109c9565b612d9681612f57565b612df65760405162461bcd60e51b815260206004820152602b60248201527f4578636565646564206d617820627564676574207472616e7366657261626c6560448201526a2070657263656e7461676560a81b60648201526084016109c9565b60795460ff16612e185780607a6000828254612e129190614070565b90915550505b5050505050565b6001600160a01b0381163b612e8c5760405162461bcd60e51b815260206004820152602d60248201527f455243313936373a206e657720696d706c656d656e746174696f6e206973206e60448201526c1bdd08184818dbdb9d1c9858dd609a1b60648201526084016109c9565b6000805160206141a483398151915280546001600160a01b0319166001600160a01b0392909216919091179055565b612ec483613144565b600082511180612ed15750805b156126a857612ee08383613184565b50505050565b60008160ff168360ff161015612f1f57612f008383614087565b612f0e9060ff16600a613f16565b612f189085613fce565b9050611974565b8160ff168360ff161115612f4f57612f378284614087565b612f459060ff16600a613f16565b612f189085613e91565b509192915050565b607b5460009060ff1660641415612f7057506001919050565b8160005b60775481101561310e576000805160206141e98339815191526001600160a01b031660778281548110612fb757634e487b7160e01b600052603260045260246000fd5b6000918252602090912001546001600160a01b0316141561300957606a54612ff8906000805160206141e9833981519152906001600160a01b031631611281565b6130029083613e79565b91506130fc565b6130ef6077828154811061302d57634e487b7160e01b600052603260045260246000fd5b600091825260209091200154607780546001600160a01b03909216918490811061306757634e487b7160e01b600052603260045260246000fd5b600091825260209091200154606a546040516370a0823160e01b81526001600160a01b0391821660048201529116906370a082319060240160206040518083038186803b1580156130b757600080fd5b505afa1580156130cb573d6000803e3d6000fd5b505050506040513d601f19601f820116820180604052508101906104fc9190613746565b6130f99083613e79565b91505b8061310681614122565b915050612f74565b508061311d5750600092915050565b607b546064906131309060ff1683614051565b61313a9190613ebf565b9092111592915050565b61314d81612e1f565b6040516001600160a01b038216907fbc7cd75a20ee27fd9adebab32041f755214dbc6bffa90cc0225b39da2e5c2d3b90600090a250565b60606001600160a01b0383163b6131ec5760405162461bcd60e51b815260206004820152602660248201527f416464726573733a2064656c65676174652063616c6c20746f206e6f6e2d636f6044820152651b9d1c9858dd60d21b60648201526084016109c9565b600080846001600160a01b0316846040516132079190613986565b600060405180830381855af49150503d8060008114613242576040519150601f19603f3d011682016040523d82523d6000602084013e613247565b606091505b509150915061326f828260405180606001604052806027815260200161420960279139613278565b95945050505050565b60608315613287575081611974565b8251156132975782518084602001fd5b8160405162461bcd60e51b81526004016109c99190613a45565b8280548282559060005260206000209081019282156132fe579160200282015b828111156132fe57825180516132ee91849160209091019061338e565b50916020019190600101906132d1565b5061330a929150613402565b5090565b82805461331a906140ed565b90600052602060002090601f01602090048101928261333c5760008555613382565b82601f106133555782800160ff19823516178555613382565b82800160010185558215613382579182015b82811115613382578235825591602001919060010190613367565b5061330a92915061341f565b82805461339a906140ed565b90600052602060002090601f0160209004810192826133bc5760008555613382565b82601f106133d557805160ff1916838001178555613382565b82800160010185558215613382579182015b828111156133825782518255916020019190600101906133e7565b8082111561330a5760006134168282613434565b50600101613402565b5b8082111561330a5760008155600101613420565b508054613440906140ed565b6000825580601f10613450575050565b601f016020900490600052602060002090810190610f2c919061341f565b803561161c8161417f565b600082601f830112613489578081fd5b8135602061349e61349983613e2d565b613dfc565b80838252828201915082860187848660051b89010111156134bd578586fd5b855b858110156134e45781356134d28161417f565b845292840192908401906001016134bf565b5090979650505050505050565b8035801515811461161c57600080fd5b600082601f830112613511578081fd5b813561351f61349982613e51565b818152846020838601011115613533578283fd5b816020850160208301379081016020019190915292915050565b60006101a0828403121561355f578081fd5b50919050565b803561161c81614194565b805169ffffffffffffffffffff8116811461161c57600080fd5b60006020828403121561359b578081fd5b81356119748161417f565b6000806000606084860312156135ba578182fd5b83516135c58161417f565b60208501519093506135d68161417f565b80925050604084015190509250925092565b600080604083850312156135fa578182fd5b82356136058161417f565b9150602083013567ffffffffffffffff811115613620578182fd5b61362c85828601613501565b9150509250929050565b60008060408385031215613648578182fd5b82356136538161417f565b946020939093013593505050565b600080600060608486031215613675578283fd5b833567ffffffffffffffff8082111561368c578485fd5b818601915086601f83011261369f578485fd5b813560206136af61349983613e2d565b8083825282820191508286018b848660051b89010111156136ce57898afd5b895b85811015613707578135878111156136e6578b8cfd5b6136f48e87838c0101613501565b85525092840192908401906001016136d0565b50909850505087013594506137239250506040860190506134f1565b90509250925092565b60006020828403121561373d578081fd5b611974826134f1565b600060208284031215613757578081fd5b5051919050565b60006020828403121561376f578081fd5b815167ffffffffffffffff811115613785578182fd5b8201601f81018413613795578182fd5b80516137a361349982613e51565b8181528560208385010111156137b7578384fd5b61326f8260208301602086016140aa565b6000602082840312156137d9578081fd5b81516119748161417f565b600080600080600080600080610100898b031215613800578586fd5b883567ffffffffffffffff80821115613817578788fd5b6138238c838d0161354d565b995061383160208c016134f1565b985060408b0135915080821115613846578788fd5b6138528c838d01613479565b975060608b0135915080821115613867578586fd5b506138748b828c01613479565b95505061388360808a016134f1565b935060a0890135925061389860c08a01613565565b91506138a660e08a0161346e565b90509295985092959890939650565b6000602082840312156138c6578081fd5b5035919050565b600080600080600060a086880312156138e4578283fd5b6138ed86613570565b945060208601519350604086015192506060860151915061391060808701613570565b90509295509295909350565b60006020828403121561392d578081fd5b815161197481614194565b600081518084526139508160208601602086016140aa565b601f01601f19169290920160200192915050565b6004811061398257634e487b7160e01b600052602160045260246000fd5b9052565b600082516139988184602087016140aa565b9190910192915050565b6001600160a01b03841681526060602082018190526000906139c690830185613938565b9050826040830152949350505050565b6000602080830181845280855180835260408601915060408160051b8701019250838701855b82811015613a2a57603f19888603018452613a18858351613938565b945092850192908501906001016139fc565b5092979650505050505050565b6020810161127b8284613964565b6020815260006119746020830184613938565b6020808252602c908201527f46756e6374696f6e206d7573742062652063616c6c6564207468726f7567682060408201526b19195b1959d85d1958d85b1b60a21b606082015260800190565b6020808252602c908201527f46756e6374696f6e206d7573742062652063616c6c6564207468726f7567682060408201526b6163746976652070726f787960a01b606082015260800190565b6020808252602e908201527f496e697469616c697a61626c653a20636f6e747261637420697320616c72656160408201526d191e481a5b9a5d1a585b1a5e995960921b606082015260800190565b6020808252602b908201527f496e697469616c697a61626c653a20636f6e7472616374206973206e6f74206960408201526a6e697469616c697a696e6760a81b606082015260800190565b60208082526022908201527f4578656375746f72206e6f742077686974656c697374656420696e2062756467604082015261195d60f21b606082015260800190565b600060808201868352602060808185015281875180845260a08601915060a08160051b8701019350828901855b82811015613c2657609f19888703018452613c14868351613938565b95509284019290840190600101613bf8565b505050505060408301859052905061326f6060830184613964565b600060408201848352602060408185015281855480845260608601915060608160051b8701019350868552828520855b82811015613d2857878603605f1901845281548790600181811c9080831680613c9b57607f831692505b898310811415613cb957634e487b7160e01b8c52602260045260248cfd5b828b5260208b01818015613cd45760018114613ce557613d0f565b60ff19861682528b82019650613d0f565b6000898152602090208e5b86811015613d0957815484820152908501908d01613cf0565b83019750505b50949a5050968801969490940193505050600101613c71565b509398975050505050505050565b85815260a08101613d4a6020830187613964565b84604083015283606083015282151560808301529695505050505050565b6000808335601e19843603018112613d7e578283fd5b83018035915067ffffffffffffffff821115613d98578283fd5b6020019150600581901b3603821315613db057600080fd5b9250929050565b6000808335601e19843603018112613dcd578283fd5b83018035915067ffffffffffffffff821115613de7578283fd5b602001915036819003821315613db057600080fd5b604051601f8201601f1916810167ffffffffffffffff81118282101715613e2557613e25614169565b604052919050565b600067ffffffffffffffff821115613e4757613e47614169565b5060051b60200190565b600067ffffffffffffffff821115613e6b57613e6b614169565b50601f01601f191660200190565b60008219821115613e8c57613e8c61413d565b500190565b600082613ea057613ea0614153565b600160ff1b821460001984141615613eba57613eba61413d565b500590565b600082613ece57613ece614153565b500490565b600181815b80851115613f0e578160001904821115613ef457613ef461413d565b80851615613f0157918102915b93841c9390800290613ed8565b509250929050565b60006119748383613f2d565b600061197460ff8416835b600082613f3c5750600161127b565b81613f495750600061127b565b8160018114613f5f5760028114613f6957613f85565b600191505061127b565b60ff841115613f7a57613f7a61413d565b50506001821b61127b565b5060208310610133831016604e8410600b8410161715613fa8575081810a61127b565b613fb28383613ed3565b8060001904821115613fc657613fc661413d565b029392505050565b60006001600160ff1b0381841382841380821686840486111615613ff457613ff461413d565b600160ff1b848712828116878305891216156140125761401261413d565b85871292508782058712848416161561402d5761402d61413d565b878505871281841616156140435761404361413d565b505050929093029392505050565b600081600019048311821515161561406b5761406b61413d565b500290565b6000828210156140825761408261413d565b500390565b600060ff821660ff8416808210156140a1576140a161413d565b90039392505050565b60005b838110156140c55781810151838201526020016140ad565b83811115612ee05750506000910152565b6000816140e5576140e561413d565b506000190190565b600181811c9082168061410157607f821691505b6020821081141561355f57634e487b7160e01b600052602260045260246000fd5b60006000198214156141365761413661413d565b5060010190565b634e487b7160e01b600052601160045260246000fd5b634e487b7160e01b600052601260045260246000fd5b634e487b7160e01b600052604160045260246000fd5b6001600160a01b0381168114610f2c57600080fd5b60ff81168114610f2c57600080fdfe360894a13ba1a3210667c828492db98dca3e2076cc3735a920a3ca505d382bbc5472616e73666572204c69717569642045524332302042756467657420417070726f76616c000000000000000000000000eeeeeeeeeeeeeeeeeeeeeeeeeeeeeeeeeeeeeeee416464726573733a206c6f772d6c6576656c2064656c65676174652063616c6c206661696c6564a2646970667358221220192d5ed35132d3c08720c9db3322c2802f4d91fac4a2fe7576a38bd059ef980c64736f6c63430008040033",
  "devdoc": {
    "kind": "dev",
    "methods": {
      "proxiableUUID()": {
        "details": "Implementation of the ERC1822 {proxiableUUID} function. This returns the storage slot used by the implementation. It is used to validate that the this implementation remains valid after an upgrade. IMPORTANT: A proxy pointing at a proxiable contract should not be considered proxiable itself, because this risks bricking a proxy that upgrades to it, by delegating to itself until out of gas. Thus it is critical that this function revert if invoked through a proxy. This is guaranteed by the `notDelegated` modifier."
      },
      "upgradeTo(address)": {
        "details": "Upgrade the implementation of the proxy to `newImplementation`. Calls {_authorizeUpgrade}. Emits an {Upgraded} event."
      },
      "upgradeToAndCall(address,bytes)": {
        "details": "Upgrade the implementation of the proxy to `newImplementation`, and subsequently execute the function call encoded in `data`. Calls {_authorizeUpgrade}. Emits an {Upgraded} event."
      }
    },
    "version": 1
  },
  "userdoc": {
    "kind": "user",
    "methods": {},
    "version": 1
  },
  "storageLayout": {
    "storage": [
      {
        "astId": 2736,
        "contract": "contracts/TransferLiquidERC20BudgetApproval.sol:TransferLiquidERC20BudgetApproval",
        "label": "_initialized",
        "offset": 0,
        "slot": "0",
        "type": "t_bool"
      },
      {
        "astId": 2739,
        "contract": "contracts/TransferLiquidERC20BudgetApproval.sol:TransferLiquidERC20BudgetApproval",
        "label": "_initializing",
        "offset": 1,
        "slot": "0",
        "type": "t_bool"
      },
      {
        "astId": 2718,
        "contract": "contracts/TransferLiquidERC20BudgetApproval.sol:TransferLiquidERC20BudgetApproval",
        "label": "__gap",
        "offset": 0,
        "slot": "1",
        "type": "t_array(t_uint256)50_storage"
      },
      {
        "astId": 2938,
        "contract": "contracts/TransferLiquidERC20BudgetApproval.sol:TransferLiquidERC20BudgetApproval",
        "label": "__gap",
        "offset": 0,
        "slot": "51",
        "type": "t_array(t_uint256)50_storage"
      },
      {
        "astId": 22346,
        "contract": "contracts/TransferLiquidERC20BudgetApproval.sol:TransferLiquidERC20BudgetApproval",
        "label": "_transactionIds",
        "offset": 0,
        "slot": "101",
        "type": "t_struct(Counter)13975_storage"
      },
      {
        "astId": 22351,
        "contract": "contracts/TransferLiquidERC20BudgetApproval.sol:TransferLiquidERC20BudgetApproval",
        "label": "transactions",
        "offset": 0,
        "slot": "102",
        "type": "t_mapping(t_uint256,t_struct(Transaction)22298_storage)"
      },
      {
        "astId": 22356,
        "contract": "contracts/TransferLiquidERC20BudgetApproval.sol:TransferLiquidERC20BudgetApproval",
        "label": "executor",
        "offset": 0,
        "slot": "103",
        "type": "t_address"
      },
      {
        "astId": 22358,
        "contract": "contracts/TransferLiquidERC20BudgetApproval.sol:TransferLiquidERC20BudgetApproval",
        "label": "executorTeamId",
        "offset": 0,
        "slot": "104",
        "type": "t_uint256"
      },
      {
        "astId": 22360,
        "contract": "contracts/TransferLiquidERC20BudgetApproval.sol:TransferLiquidERC20BudgetApproval",
        "label": "dao",
        "offset": 0,
        "slot": "105",
        "type": "t_address_payable"
      },
      {
        "astId": 22362,
        "contract": "contracts/TransferLiquidERC20BudgetApproval.sol:TransferLiquidERC20BudgetApproval",
        "label": "executee",
        "offset": 0,
        "slot": "106",
        "type": "t_address"
      },
      {
        "astId": 22366,
        "contract": "contracts/TransferLiquidERC20BudgetApproval.sol:TransferLiquidERC20BudgetApproval",
        "label": "approversMapping",
        "offset": 0,
        "slot": "107",
        "type": "t_mapping(t_address,t_bool)"
      },
      {
        "astId": 22368,
        "contract": "contracts/TransferLiquidERC20BudgetApproval.sol:TransferLiquidERC20BudgetApproval",
        "label": "approverTeamId",
        "offset": 0,
        "slot": "108",
        "type": "t_uint256"
      },
      {
        "astId": 22370,
        "contract": "contracts/TransferLiquidERC20BudgetApproval.sol:TransferLiquidERC20BudgetApproval",
        "label": "minApproval",
        "offset": 0,
        "slot": "109",
        "type": "t_uint256"
      },
      {
        "astId": 22372,
        "contract": "contracts/TransferLiquidERC20BudgetApproval.sol:TransferLiquidERC20BudgetApproval",
        "label": "text",
        "offset": 0,
        "slot": "110",
        "type": "t_string_storage"
      },
      {
        "astId": 22374,
        "contract": "contracts/TransferLiquidERC20BudgetApproval.sol:TransferLiquidERC20BudgetApproval",
        "label": "transactionType",
        "offset": 0,
        "slot": "111",
        "type": "t_string_storage"
      },
      {
        "astId": 22376,
        "contract": "contracts/TransferLiquidERC20BudgetApproval.sol:TransferLiquidERC20BudgetApproval",
        "label": "allowUnlimitedUsageCount",
        "offset": 0,
        "slot": "112",
        "type": "t_bool"
      },
      {
        "astId": 22378,
        "contract": "contracts/TransferLiquidERC20BudgetApproval.sol:TransferLiquidERC20BudgetApproval",
        "label": "usageCount",
        "offset": 0,
        "slot": "113",
        "type": "t_uint256"
      },
      {
        "astId": 22380,
        "contract": "contracts/TransferLiquidERC20BudgetApproval.sol:TransferLiquidERC20BudgetApproval",
        "label": "startTime",
        "offset": 0,
        "slot": "114",
        "type": "t_uint256"
      },
      {
        "astId": 22382,
        "contract": "contracts/TransferLiquidERC20BudgetApproval.sol:TransferLiquidERC20BudgetApproval",
        "label": "endTime",
        "offset": 0,
        "slot": "115",
        "type": "t_uint256"
      },
      {
        "astId": 22384,
        "contract": "contracts/TransferLiquidERC20BudgetApproval.sol:TransferLiquidERC20BudgetApproval",
        "label": "team",
        "offset": 0,
        "slot": "116",
        "type": "t_address"
      },
      {
        "astId": 23014,
        "contract": "contracts/TransferLiquidERC20BudgetApproval.sol:TransferLiquidERC20BudgetApproval",
        "label": "baseCurrency",
        "offset": 0,
        "slot": "117",
        "type": "t_address"
      },
      {
        "astId": 21209,
        "contract": "contracts/TransferLiquidERC20BudgetApproval.sol:TransferLiquidERC20BudgetApproval",
        "label": "allowAllAddresses",
        "offset": 20,
        "slot": "117",
        "type": "t_bool"
      },
      {
        "astId": 21213,
        "contract": "contracts/TransferLiquidERC20BudgetApproval.sol:TransferLiquidERC20BudgetApproval",
        "label": "addressesMapping",
        "offset": 0,
        "slot": "118",
        "type": "t_mapping(t_address,t_bool)"
      },
      {
        "astId": 21216,
        "contract": "contracts/TransferLiquidERC20BudgetApproval.sol:TransferLiquidERC20BudgetApproval",
        "label": "tokens",
        "offset": 0,
        "slot": "119",
        "type": "t_array(t_address)dyn_storage"
      },
      {
        "astId": 21220,
        "contract": "contracts/TransferLiquidERC20BudgetApproval.sol:TransferLiquidERC20BudgetApproval",
        "label": "tokensMapping",
        "offset": 0,
        "slot": "120",
        "type": "t_mapping(t_address,t_bool)"
      },
      {
        "astId": 21222,
        "contract": "contracts/TransferLiquidERC20BudgetApproval.sol:TransferLiquidERC20BudgetApproval",
        "label": "allowAnyAmount",
        "offset": 0,
        "slot": "121",
        "type": "t_bool"
      },
      {
        "astId": 21224,
        "contract": "contracts/TransferLiquidERC20BudgetApproval.sol:TransferLiquidERC20BudgetApproval",
        "label": "totalAmount",
        "offset": 0,
        "slot": "122",
        "type": "t_uint256"
      },
      {
        "astId": 21226,
        "contract": "contracts/TransferLiquidERC20BudgetApproval.sol:TransferLiquidERC20BudgetApproval",
        "label": "amountPercentage",
        "offset": 0,
        "slot": "123",
        "type": "t_uint8"
      }
    ],
    "types": {
      "t_address": {
        "encoding": "inplace",
        "label": "address",
        "numberOfBytes": "20"
      },
      "t_address_payable": {
        "encoding": "inplace",
        "label": "address payable",
        "numberOfBytes": "20"
      },
      "t_array(t_address)dyn_storage": {
        "base": "t_address",
        "encoding": "dynamic_array",
        "label": "address[]",
        "numberOfBytes": "32"
      },
      "t_array(t_bytes_storage)dyn_storage": {
        "base": "t_bytes_storage",
        "encoding": "dynamic_array",
        "label": "bytes[]",
        "numberOfBytes": "32"
      },
      "t_array(t_uint256)50_storage": {
        "base": "t_uint256",
        "encoding": "inplace",
        "label": "uint256[50]",
        "numberOfBytes": "1600"
      },
      "t_bool": {
        "encoding": "inplace",
        "label": "bool",
        "numberOfBytes": "1"
      },
      "t_bytes_storage": {
        "encoding": "bytes",
        "label": "bytes",
        "numberOfBytes": "32"
      },
      "t_enum(Status)22279": {
        "encoding": "inplace",
        "label": "enum CommonBudgetApproval.Status",
        "numberOfBytes": "1"
      },
      "t_mapping(t_address,t_bool)": {
        "encoding": "mapping",
        "key": "t_address",
        "label": "mapping(address => bool)",
        "numberOfBytes": "32",
        "value": "t_bool"
      },
      "t_mapping(t_uint256,t_struct(Transaction)22298_storage)": {
        "encoding": "mapping",
        "key": "t_uint256",
        "label": "mapping(uint256 => struct CommonBudgetApproval.Transaction)",
        "numberOfBytes": "32",
        "value": "t_struct(Transaction)22298_storage"
      },
      "t_string_storage": {
        "encoding": "bytes",
        "label": "string",
        "numberOfBytes": "32"
      },
      "t_struct(Counter)13975_storage": {
        "encoding": "inplace",
        "label": "struct Counters.Counter",
        "members": [
          {
            "astId": 13974,
            "contract": "contracts/TransferLiquidERC20BudgetApproval.sol:TransferLiquidERC20BudgetApproval",
            "label": "_value",
            "offset": 0,
            "slot": "0",
            "type": "t_uint256"
          }
        ],
        "numberOfBytes": "32"
      },
      "t_struct(Transaction)22298_storage": {
        "encoding": "inplace",
        "label": "struct CommonBudgetApproval.Transaction",
        "members": [
          {
            "astId": 22281,
            "contract": "contracts/TransferLiquidERC20BudgetApproval.sol:TransferLiquidERC20BudgetApproval",
            "label": "id",
            "offset": 0,
            "slot": "0",
            "type": "t_uint256"
          },
          {
            "astId": 22284,
            "contract": "contracts/TransferLiquidERC20BudgetApproval.sol:TransferLiquidERC20BudgetApproval",
            "label": "data",
            "offset": 0,
            "slot": "1",
            "type": "t_array(t_bytes_storage)dyn_storage"
          },
          {
            "astId": 22287,
            "contract": "contracts/TransferLiquidERC20BudgetApproval.sol:TransferLiquidERC20BudgetApproval",
            "label": "status",
            "offset": 0,
            "slot": "2",
            "type": "t_enum(Status)22279"
          },
          {
            "astId": 22289,
            "contract": "contracts/TransferLiquidERC20BudgetApproval.sol:TransferLiquidERC20BudgetApproval",
            "label": "deadline",
            "offset": 0,
            "slot": "3",
            "type": "t_uint256"
          },
          {
            "astId": 22293,
            "contract": "contracts/TransferLiquidERC20BudgetApproval.sol:TransferLiquidERC20BudgetApproval",
            "label": "approved",
            "offset": 0,
            "slot": "4",
            "type": "t_mapping(t_address,t_bool)"
          },
          {
            "astId": 22295,
            "contract": "contracts/TransferLiquidERC20BudgetApproval.sol:TransferLiquidERC20BudgetApproval",
            "label": "approvedCount",
            "offset": 0,
            "slot": "5",
            "type": "t_uint256"
          },
          {
            "astId": 22297,
            "contract": "contracts/TransferLiquidERC20BudgetApproval.sol:TransferLiquidERC20BudgetApproval",
            "label": "isExist",
            "offset": 0,
            "slot": "6",
            "type": "t_bool"
          }
        ],
        "numberOfBytes": "224"
      },
      "t_uint256": {
        "encoding": "inplace",
        "label": "uint256",
        "numberOfBytes": "32"
      },
      "t_uint8": {
        "encoding": "inplace",
        "label": "uint8",
        "numberOfBytes": "1"
      }
    }
  }
}