{
  "address": "0xD5260Dc06aEE74B6cC687Cc36D1ECd09657DEb6B",
  "abi": [
    {
      "anonymous": false,
      "inputs": [
        {
          "indexed": false,
          "internalType": "address",
          "name": "previousAdmin",
          "type": "address"
        },
        {
          "indexed": false,
          "internalType": "address",
          "name": "newAdmin",
          "type": "address"
        }
      ],
      "name": "AdminChanged",
      "type": "event"
    },
    {
      "anonymous": false,
      "inputs": [
        {
          "indexed": false,
          "internalType": "address",
          "name": "target",
          "type": "address"
        }
      ],
      "name": "AllowAddress",
      "type": "event"
    },
    {
      "anonymous": false,
      "inputs": [
        {
          "indexed": false,
          "internalType": "uint256",
          "name": "amount",
          "type": "uint256"
        }
      ],
      "name": "AllowAmount",
      "type": "event"
    },
    {
      "anonymous": false,
      "inputs": [
        {
          "indexed": false,
          "internalType": "address",
          "name": "token",
          "type": "address"
        }
      ],
      "name": "AllowToken",
      "type": "event"
    },
    {
      "anonymous": false,
      "inputs": [
        {
          "indexed": false,
          "internalType": "uint256",
          "name": "id",
          "type": "uint256"
        },
        {
          "indexed": false,
          "internalType": "address",
          "name": "approver",
          "type": "address"
        }
      ],
      "name": "ApproveTransaction",
      "type": "event"
    },
    {
      "anonymous": false,
      "inputs": [
        {
          "indexed": true,
          "internalType": "address",
          "name": "beacon",
          "type": "address"
        }
      ],
      "name": "BeaconUpgraded",
      "type": "event"
    },
    {
      "anonymous": false,
      "inputs": [
        {
          "indexed": false,
          "internalType": "uint256",
          "name": "id",
          "type": "uint256"
        },
        {
          "indexed": false,
          "internalType": "bytes[]",
          "name": "data",
          "type": "bytes[]"
        },
        {
          "indexed": false,
          "internalType": "uint256",
          "name": "deadline",
          "type": "uint256"
        },
        {
          "indexed": false,
          "internalType": "enum CommonBudgetApproval.Status",
          "name": "status",
          "type": "uint8"
        }
      ],
      "name": "CreateTransaction",
      "type": "event"
    },
    {
      "anonymous": false,
      "inputs": [
        {
          "indexed": false,
          "internalType": "uint256",
          "name": "id",
          "type": "uint256"
        },
        {
          "indexed": false,
          "internalType": "bytes[]",
          "name": "data",
          "type": "bytes[]"
        }
      ],
      "name": "ExecuteTransaction",
      "type": "event"
    },
    {
      "anonymous": false,
      "inputs": [
        {
          "indexed": false,
          "internalType": "uint256",
          "name": "id",
          "type": "uint256"
        }
      ],
      "name": "RevokeTransaction",
      "type": "event"
    },
    {
      "anonymous": false,
      "inputs": [
        {
          "indexed": false,
          "internalType": "address",
          "name": "approver",
          "type": "address"
        }
      ],
      "name": "SetApprover",
      "type": "event"
    },
    {
      "anonymous": false,
      "inputs": [
        {
          "indexed": true,
          "internalType": "address",
          "name": "implementation",
          "type": "address"
        }
      ],
      "name": "Upgraded",
      "type": "event"
    },
    {
      "inputs": [],
      "name": "ETH_ADDRESS",
      "outputs": [
        {
          "internalType": "address",
          "name": "",
          "type": "address"
        }
      ],
      "stateMutability": "view",
      "type": "function"
    },
    {
      "inputs": [
        {
          "internalType": "address",
          "name": "",
          "type": "address"
        }
      ],
      "name": "addressesMapping",
      "outputs": [
        {
          "internalType": "bool",
          "name": "",
          "type": "bool"
        }
      ],
      "stateMutability": "view",
      "type": "function"
    },
    {
      "inputs": [],
      "name": "afterInitialized",
      "outputs": [],
      "stateMutability": "nonpayable",
      "type": "function"
    },
    {
      "inputs": [],
      "name": "allowAllAddresses",
      "outputs": [
        {
          "internalType": "bool",
          "name": "",
          "type": "bool"
        }
      ],
      "stateMutability": "view",
      "type": "function"
    },
    {
      "inputs": [],
      "name": "allowAllTokens",
      "outputs": [
        {
          "internalType": "bool",
          "name": "",
          "type": "bool"
        }
      ],
      "stateMutability": "view",
      "type": "function"
    },
    {
      "inputs": [],
      "name": "allowAnyAmount",
      "outputs": [
        {
          "internalType": "bool",
          "name": "",
          "type": "bool"
        }
      ],
      "stateMutability": "view",
      "type": "function"
    },
    {
      "inputs": [],
      "name": "allowUnlimitedUsageCount",
      "outputs": [
        {
          "internalType": "bool",
          "name": "",
          "type": "bool"
        }
      ],
      "stateMutability": "view",
      "type": "function"
    },
    {
      "inputs": [
        {
          "internalType": "uint256",
          "name": "id",
          "type": "uint256"
        }
      ],
      "name": "approveTransaction",
      "outputs": [],
      "stateMutability": "nonpayable",
      "type": "function"
    },
    {
      "inputs": [
        {
          "internalType": "uint256",
          "name": "id",
          "type": "uint256"
        }
      ],
      "name": "approvedCountOf",
      "outputs": [
        {
          "internalType": "uint256",
          "name": "",
          "type": "uint256"
        }
      ],
      "stateMutability": "view",
      "type": "function"
    },
    {
      "inputs": [],
      "name": "approverTeamId",
      "outputs": [
        {
          "internalType": "uint256",
          "name": "",
          "type": "uint256"
        }
      ],
      "stateMutability": "view",
      "type": "function"
    },
    {
      "inputs": [
        {
          "internalType": "address",
          "name": "",
          "type": "address"
        }
      ],
      "name": "approversMapping",
      "outputs": [
        {
          "internalType": "bool",
          "name": "",
          "type": "bool"
        }
      ],
      "stateMutability": "view",
      "type": "function"
    },
    {
      "inputs": [
        {
          "internalType": "bytes[]",
          "name": "_data",
          "type": "bytes[]"
        },
        {
          "internalType": "uint256",
          "name": "_deadline",
          "type": "uint256"
        },
        {
          "internalType": "bool",
          "name": "_isExecute",
          "type": "bool"
        }
      ],
      "name": "createTransaction",
      "outputs": [
        {
          "internalType": "uint256",
          "name": "",
          "type": "uint256"
        }
      ],
      "stateMutability": "nonpayable",
      "type": "function"
    },
    {
      "inputs": [],
      "name": "dao",
      "outputs": [
        {
          "internalType": "address payable",
          "name": "",
          "type": "address"
        }
      ],
      "stateMutability": "view",
      "type": "function"
    },
    {
      "inputs": [
        {
          "internalType": "uint256",
          "name": "id",
          "type": "uint256"
        }
      ],
      "name": "deadlineOf",
      "outputs": [
        {
          "internalType": "uint256",
          "name": "",
          "type": "uint256"
        }
      ],
      "stateMutability": "view",
      "type": "function"
    },
    {
      "inputs": [],
      "name": "endTime",
      "outputs": [
        {
          "internalType": "uint256",
          "name": "",
          "type": "uint256"
        }
      ],
      "stateMutability": "view",
      "type": "function"
    },
    {
      "inputs": [],
      "name": "executeParams",
      "outputs": [
        {
          "internalType": "string[]",
          "name": "",
          "type": "string[]"
        }
      ],
      "stateMutability": "pure",
      "type": "function"
    },
    {
      "inputs": [
        {
          "internalType": "uint256",
          "name": "id",
          "type": "uint256"
        }
      ],
      "name": "executeTransaction",
      "outputs": [],
      "stateMutability": "nonpayable",
      "type": "function"
    },
    {
      "inputs": [],
      "name": "executee",
      "outputs": [
        {
          "internalType": "address",
          "name": "",
          "type": "address"
        }
      ],
      "stateMutability": "view",
      "type": "function"
    },
    {
      "inputs": [],
      "name": "executor",
      "outputs": [
        {
          "internalType": "address",
          "name": "",
          "type": "address"
        }
      ],
      "stateMutability": "view",
      "type": "function"
    },
    {
      "inputs": [],
      "name": "executorTeamId",
      "outputs": [
        {
          "internalType": "uint256",
          "name": "",
          "type": "uint256"
        }
      ],
      "stateMutability": "view",
      "type": "function"
    },
    {
      "inputs": [
        {
          "components": [
            {
              "internalType": "address",
              "name": "dao",
              "type": "address"
            },
            {
              "internalType": "address",
              "name": "executor",
              "type": "address"
            },
            {
              "internalType": "uint256",
              "name": "executorTeamId",
              "type": "uint256"
            },
            {
              "internalType": "address[]",
              "name": "approvers",
              "type": "address[]"
            },
            {
              "internalType": "uint256",
              "name": "approverTeamId",
              "type": "uint256"
            },
            {
              "internalType": "uint256",
              "name": "minApproval",
              "type": "uint256"
            },
            {
              "internalType": "string",
              "name": "text",
              "type": "string"
            },
            {
              "internalType": "string",
              "name": "transactionType",
              "type": "string"
            },
            {
              "internalType": "uint256",
              "name": "startTime",
              "type": "uint256"
            },
            {
              "internalType": "uint256",
              "name": "endTime",
              "type": "uint256"
            },
            {
              "internalType": "bool",
              "name": "allowUnlimitedUsageCount",
              "type": "bool"
            },
            {
              "internalType": "uint256",
              "name": "usageCount",
              "type": "uint256"
            },
            {
              "internalType": "address",
              "name": "team",
              "type": "address"
            }
          ],
          "internalType": "struct CommonBudgetApproval.InitializeParams",
          "name": "params",
          "type": "tuple"
        },
        {
          "internalType": "bool",
          "name": "_allowAllAddresses",
          "type": "bool"
        },
        {
          "internalType": "address[]",
          "name": "_toAddresses",
          "type": "address[]"
        },
        {
          "internalType": "bool",
          "name": "_allowAllTokens",
          "type": "bool"
        },
        {
          "internalType": "address[]",
          "name": "_tokens",
          "type": "address[]"
        },
        {
          "internalType": "bool",
          "name": "_allowAnyAmount",
          "type": "bool"
        },
        {
          "internalType": "uint256",
          "name": "_totalAmount",
          "type": "uint256"
        }
      ],
      "name": "initialize",
      "outputs": [],
      "stateMutability": "nonpayable",
      "type": "function"
    },
    {
      "inputs": [],
      "name": "minApproval",
      "outputs": [
        {
          "internalType": "uint256",
          "name": "",
          "type": "uint256"
        }
      ],
      "stateMutability": "view",
      "type": "function"
    },
    {
      "inputs": [],
      "name": "name",
      "outputs": [
        {
          "internalType": "string",
          "name": "",
          "type": "string"
        }
      ],
      "stateMutability": "view",
      "type": "function"
    },
    {
      "inputs": [],
      "name": "proxiableUUID",
      "outputs": [
        {
          "internalType": "bytes32",
          "name": "",
          "type": "bytes32"
        }
      ],
      "stateMutability": "view",
      "type": "function"
    },
    {
      "inputs": [
        {
          "internalType": "uint256",
          "name": "id",
          "type": "uint256"
        }
      ],
      "name": "revokeTransaction",
      "outputs": [],
      "stateMutability": "nonpayable",
      "type": "function"
    },
    {
      "inputs": [],
      "name": "startTime",
      "outputs": [
        {
          "internalType": "uint256",
          "name": "",
          "type": "uint256"
        }
      ],
      "stateMutability": "view",
      "type": "function"
    },
    {
      "inputs": [
        {
          "internalType": "uint256",
          "name": "id",
          "type": "uint256"
        }
      ],
      "name": "statusOf",
      "outputs": [
        {
          "internalType": "enum CommonBudgetApproval.Status",
          "name": "",
          "type": "uint8"
        }
      ],
      "stateMutability": "view",
      "type": "function"
    },
    {
      "inputs": [],
      "name": "team",
      "outputs": [
        {
          "internalType": "address",
          "name": "",
          "type": "address"
        }
      ],
      "stateMutability": "view",
      "type": "function"
    },
    {
      "inputs": [],
      "name": "text",
      "outputs": [
        {
          "internalType": "string",
          "name": "",
          "type": "string"
        }
      ],
      "stateMutability": "view",
      "type": "function"
    },
    {
      "inputs": [
        {
          "internalType": "uint256",
          "name": "",
          "type": "uint256"
        }
      ],
      "name": "tokens",
      "outputs": [
        {
          "internalType": "address",
          "name": "",
          "type": "address"
        }
      ],
      "stateMutability": "view",
      "type": "function"
    },
    {
      "inputs": [
        {
          "internalType": "address",
          "name": "",
          "type": "address"
        }
      ],
      "name": "tokensMapping",
      "outputs": [
        {
          "internalType": "bool",
          "name": "",
          "type": "bool"
        }
      ],
      "stateMutability": "view",
      "type": "function"
    },
    {
      "inputs": [],
      "name": "totalAmount",
      "outputs": [
        {
          "internalType": "uint256",
          "name": "",
          "type": "uint256"
        }
      ],
      "stateMutability": "view",
      "type": "function"
    },
    {
      "inputs": [],
      "name": "transactionType",
      "outputs": [
        {
          "internalType": "string",
          "name": "",
          "type": "string"
        }
      ],
      "stateMutability": "view",
      "type": "function"
    },
    {
      "inputs": [
        {
          "internalType": "uint256",
          "name": "",
          "type": "uint256"
        }
      ],
      "name": "transactions",
      "outputs": [
        {
          "internalType": "uint256",
          "name": "id",
          "type": "uint256"
        },
        {
          "internalType": "enum CommonBudgetApproval.Status",
          "name": "status",
          "type": "uint8"
        },
        {
          "internalType": "uint256",
          "name": "deadline",
          "type": "uint256"
        },
        {
          "internalType": "uint256",
          "name": "approvedCount",
          "type": "uint256"
        },
        {
          "internalType": "bool",
          "name": "isExist",
          "type": "bool"
        }
      ],
      "stateMutability": "view",
      "type": "function"
    },
    {
      "inputs": [
        {
          "internalType": "address",
          "name": "newImplementation",
          "type": "address"
        }
      ],
      "name": "upgradeTo",
      "outputs": [],
      "stateMutability": "nonpayable",
      "type": "function"
    },
    {
      "inputs": [
        {
          "internalType": "address",
          "name": "newImplementation",
          "type": "address"
        },
        {
          "internalType": "bytes",
          "name": "data",
          "type": "bytes"
        }
      ],
      "name": "upgradeToAndCall",
      "outputs": [],
      "stateMutability": "payable",
      "type": "function"
    },
    {
      "inputs": [],
      "name": "usageCount",
      "outputs": [
        {
          "internalType": "uint256",
          "name": "",
          "type": "uint256"
        }
      ],
      "stateMutability": "view",
      "type": "function"
    }
  ],
  "transactionHash": "0x3703d46df729ddc330db7836892168200ccd631b576250ae140e364afb8b8fbb",
  "args": [],
  "numDeployments": 1,
  "solcInputHash": "da7809b3b714fba03a8268402ac25a3e",
  "bytecode": "0x60a06040523060601b60805234801561001757600080fd5b5060805160601c612f6561005260003960008181610d6801528181610da801528181610e4801528181610e880152610f450152612f656000f3fe60806040526004361061021a5760003560e01c80636bdebe5e11610123578063a734f06e116100ab578063cf26fec61161006f578063cf26fec6146106dc578063d96c9196146106f1578063de755e2f14610707578063ee22610b1461071d578063f5c038521461073d57600080fd5b8063a734f06e14610619578063ad35efd414610641578063b617b3ee14610681578063c34c08e5146106a2578063cd753b6c146106c257600080fd5b806385015437116100f2578063850154371461052e57806385f2aef2146105485780638d1c5c2914610568578063914e4909146105985780639ace38c2146105b857600080fd5b80636bdebe5e146104b3578063735631ad146104e357806378e97925146105035780637cd47d931461051957600080fd5b80633d70015a116101a65780634f64b2be116101755780634f64b2be1461041e5780635078f67a1461043e57806350bd881f1461046e57806352d1902d146104845780635ad325021461049957600080fd5b80633d70015a146103635780633ed38daf146103a35780634162169f146103d35780634f1ef2861461040b57600080fd5b80631f1bd692116101ed5780631f1bd692146102d6578063242232d1146102eb5780633197cbb61461030b57806331a7bdd9146103215780633659cfe61461034357600080fd5b806303ff90f61461021f57806306fdde03146102485780631916b21c1461029e5780631a39d8ef146102c0575b600080fd5b34801561022b57600080fd5b50610235606d5481565b6040519081526020015b60405180910390f35b34801561025457600080fd5b506102916040518060400160405280601f81526020017f5472616e73666572204552433732312042756467657420417070726f76616c0081525081565b60405161023f9190612a0e565b3480156102aa57600080fd5b506102be6102b9366004612820565b61075d565b005b3480156102cc57600080fd5b50610235607a5481565b3480156102e257600080fd5b506102916108be565b3480156102f757600080fd5b506102be6103063660046128e9565b61094c565b34801561031757600080fd5b5061023560735481565b34801561032d57600080fd5b50610336610c30565b60405161023f919061299f565b34801561034f57600080fd5b506102be61035e366004612604565b610d5d565b34801561036f57600080fd5b5061039361037e366004612604565b60786020526000908152604090205460ff1681565b604051901515815260200161023f565b3480156103af57600080fd5b506102356103be3660046128e9565b60009081526066602052604090206003015490565b3480156103df57600080fd5b506069546103f3906001600160a01b031681565b6040516001600160a01b03909116815260200161023f565b6102be610419366004612662565b610e3d565b34801561042a57600080fd5b506103f36104393660046128e9565b610f0e565b34801561044a57600080fd5b506102356104593660046128e9565b60009081526066602052604090206005015490565b34801561047a57600080fd5b5061023560715481565b34801561049057600080fd5b50610235610f38565b3480156104a557600080fd5b506070546103939060ff1681565b3480156104bf57600080fd5b506103936104ce366004612604565b606b6020526000908152604090205460ff1681565b3480156104ef57600080fd5b506102be6104fe3660046128e9565b610feb565b34801561050f57600080fd5b5061023560725481565b34801561052557600080fd5b50610291611181565b34801561053a57600080fd5b506079546103939060ff1681565b34801561055457600080fd5b506074546103f3906001600160a01b031681565b34801561057457600080fd5b50610393610583366004612604565b60756020526000908152604090205460ff1681565b3480156105a457600080fd5b506102356105b33660046126b0565b61118e565b3480156105c457600080fd5b506106086105d33660046128e9565b60666020526000908152604090208054600282015460038301546005840154600690940154929360ff92831693919290911685565b60405161023f959493929190612cb4565b34801561062557600080fd5b506103f373eeeeeeeeeeeeeeeeeeeeeeeeeeeeeeeeeeeeeeee81565b34801561064d57600080fd5b5061067461065c3660046128e9565b60009081526066602052604090206002015460ff1690565b60405161023f9190612a00565b34801561068d57600080fd5b5060745461039390600160a01b900460ff1681565b3480156106ae57600080fd5b506067546103f3906001600160a01b031681565b3480156106ce57600080fd5b506076546103939060ff1681565b3480156106e857600080fd5b506102be611345565b3480156106fd57600080fd5b50610235606c5481565b34801561071357600080fd5b5061023560685481565b34801561072957600080fd5b506102be6107383660046128e9565b6113ac565b34801561074957600080fd5b50606a546103f3906001600160a01b031681565b600054610100900460ff166107785760005460ff161561077c565b303b155b6107a15760405162461bcd60e51b815260040161079890612ab9565b60405180910390fd5b600054610100900460ff161580156107c3576000805461ffff19166101011790555b6107cc886117c9565b6074805460ff60a01b1916600160a01b8915150217905560005b86518110156108315761081f87828151811061081257634e487b7160e01b600052603260045260246000fd5b6020026020010151611ad4565b8061082981612e8c565b9150506107e6565b506076805460ff191686151517905560005b845181101561088e5761087c85828151811061086f57634e487b7160e01b600052603260045260246000fd5b6020026020010151611ba3565b8061088681612e8c565b915050610843565b506079805460ff1916841515179055607a82905580156108b4576000805461ff00191690555b5050505050505050565b606e80546108cb90612e51565b80601f01602080910402602001604051908101604052809291908181526020018280546108f790612e51565b80156109445780601f1061091957610100808354040283529160200191610944565b820191906000526020600020905b81548152906001019060200180831161092757829003601f168201915b505050505081565b336000908152606b602052604090205460ff16806109ec5750607454606c54604051627eeac760e11b815233600482015260248101919091526000916001600160a01b03169062fdd58e9060440160206040518083038186803b1580156109b257600080fd5b505afa1580156109c6573d6000803e3d6000fd5b505050506040513d601f19601f820116820180604052508101906109ea9190612795565b115b610a435760405162461bcd60e51b815260206004820152602260248201527f417070726f766572206e6f742077686974656c697374656420696e2062756467604482015261195d60f21b6064820152608401610798565b60008181526066602052604081206002015460ff166003811115610a7757634e487b7160e01b600052602160045260246000fd5b1480610ab65750600160008281526066602052604090206002015460ff166003811115610ab457634e487b7160e01b600052602160045260246000fd5b145b610b025760405162461bcd60e51b815260206004820152601d60248201527f556e6578706563746564207472616e73616374696f6e207374617475730000006044820152606401610798565b600081815260666020908152604080832033845260040190915290205460ff1615610b7b5760405162461bcd60e51b8152602060048201526024808201527f5472616e73616374696f6e20686173206265656e20617070726f766564206265604482015263666f726560e01b6064820152608401610798565b6000818152606660208181526040808420338552600481018352908420805460ff19166001179055848452919052600501805491610bb883612e8c565b9091555050606d5460008281526066602052604090206005015410610bf4576000818152606660205260409020600201805460ff191660011790555b604080518281523360208201527f72224bf551d1ce069c1a2440132e14e1ef15d45977e00541090a35901e527f3b91015b60405180910390a150565b6040805160038082526080820190925260609160009190816020015b6060815260200190600190039081610c4c5790505090506040518060400160405280600d81526020016c30b2323932b9b9903a37b5b2b760991b81525081600081518110610caa57634e487b7160e01b600052603260045260246000fd5b60200260200101819052506040518060400160405280600a8152602001696164647265737320746f60b01b81525081600181518110610cf957634e487b7160e01b600052603260045260246000fd5b60200260200101819052506040518060400160405280600f81526020016e1d5a5b9d0c8d4d881d1bdad95b9259608a1b81525081600281518110610d4d57634e487b7160e01b600052603260045260246000fd5b6020908102919091010152919050565b306001600160a01b037f0000000000000000000000000000000000000000000000000000000000000000161415610da65760405162461bcd60e51b815260040161079890612a21565b7f00000000000000000000000000000000000000000000000000000000000000006001600160a01b0316610def600080516020612ee9833981519152546001600160a01b031690565b6001600160a01b031614610e155760405162461bcd60e51b815260040161079890612a6d565b610e1e81611cae565b60408051600080825260208201909252610e3a91839190611d20565b50565b306001600160a01b037f0000000000000000000000000000000000000000000000000000000000000000161415610e865760405162461bcd60e51b815260040161079890612a21565b7f00000000000000000000000000000000000000000000000000000000000000006001600160a01b0316610ecf600080516020612ee9833981519152546001600160a01b031690565b6001600160a01b031614610ef55760405162461bcd60e51b815260040161079890612a6d565b610efe82611cae565b610f0a82826001611d20565b5050565b60778181548110610f1e57600080fd5b6000918252602090912001546001600160a01b0316905081565b6000306001600160a01b037f00000000000000000000000000000000000000000000000000000000000000001614610fd85760405162461bcd60e51b815260206004820152603860248201527f555550535570677261646561626c653a206d757374206e6f742062652063616c60448201527f6c6564207468726f7567682064656c656761746563616c6c00000000000000006064820152608401610798565b50600080516020612ee983398151915290565b6067546001600160a01b03163314806110865750607454606854604051627eeac760e11b815233600482015260248101919091526000916001600160a01b03169062fdd58e9060440160206040518083038186803b15801561104c57600080fd5b505afa158015611060573d6000803e3d6000fd5b505050506040513d601f19601f820116820180604052508101906110849190612795565b115b6110a25760405162461bcd60e51b815260040161079890612b07565b600260008281526066602052604090206002015460ff1660038111156110d857634e487b7160e01b600052602160045260246000fd5b14156111345760405162461bcd60e51b815260206004820152602560248201527f5472616e73616374696f6e20686173206265656e20636f6d706c65746564206260448201526465666f726560d81b6064820152608401610798565b600081815260666020908152604091829020600201805460ff1916600317905590518281527f92a917be073b79ab50f9d997e9514a5d101e052ce04228014947e7883a7c03469101610c25565b606f80546108cb90612e51565b6067546000906001600160a01b031633148061122c5750607454606854604051627eeac760e11b815233600482015260248101919091526000916001600160a01b03169062fdd58e9060440160206040518083038186803b1580156111f257600080fd5b505afa158015611206573d6000803e3d6000fd5b505050506040513d601f19601f8201168201806040525081019061122a9190612795565b115b6112485760405162461bcd60e51b815260040161079890612b07565b611256606580546001019055565b600061126160655490565b600081815260666020908152604090912082815587519293509161128d9160018401919089019061236e565b506003810185905560068101805460ff19166001179055606d546112cc576000828152606660205260409020600201805460ff191660011790556112e6565b6000828152606660205260409020600201805460ff191690555b60028101546040517ff7b10f12a6c66358a337baada438de41a306929aefcec529de156f2686eafd89916113239185918a918a9160ff1690612b49565b60405180910390a1831561133a5761133a826113ac565b5090505b9392505050565b606a546001600160a01b031633146113aa5760405162461bcd60e51b815260206004820152602260248201527f4578656375746565206e6f742077686974656c697374656420696e2062756467604482015261195d60f21b6064820152608401610798565b565b8060018060008381526066602052604090206002015460ff1660038111156113e457634e487b7160e01b600052602160045260246000fd5b146114315760405162461bcd60e51b815260206004820152601a60248201527f5472616e73616374696f6e2073746174757320696e76616c69640000000000006044820152606401610798565b600083815260666020526040902060030154839042111561148a5760405162461bcd60e51b8152602060048201526013602482015272151c985b9cd858dd1a5bdb88195e1c1a5c9959606a1b6044820152606401610798565b6072544210156114dc5760405162461bcd60e51b815260206004820152601f60248201527f42756467657420757361676520706572696f64206e6f742073746172746564006044820152606401610798565b607354156115355760735442106115355760405162461bcd60e51b815260206004820152601d60248201527f42756467657420757361676520706572696f642068617320656e6465640000006044820152606401610798565b6067546001600160a01b03163314806115d05750607454606854604051627eeac760e11b815233600482015260248101919091526000916001600160a01b03169062fdd58e9060440160206040518083038186803b15801561159657600080fd5b505afa1580156115aa573d6000803e3d6000fd5b505050506040513d601f19601f820116820180604052508101906115ce9190612795565b115b6115ec5760405162461bcd60e51b815260040161079890612b07565b60005b6000858152606660205260409020600101548110156117675760705460ff168061161b57506000607154115b6116675760405162461bcd60e51b815260206004820152601c60248201527f457863656564656420627564676574207573616765206c696d697420000000006044820152606401610798565b60705460ff16611687576071805490600061168183612e3a565b91905055505b600085815260666020526040902060010180546117559190839081106116bd57634e487b7160e01b600052603260045260246000fd5b9060005260206000200180546116d290612e51565b80601f01602080910402602001604051908101604052809291908181526020018280546116fe90612e51565b801561174b5780601f106117205761010080835404028352916020019161174b565b820191906000526020600020905b81548152906001019060200180831161172e57829003601f168201915b5050505050611e9f565b8061175f81612e8c565b9150506115ef565b50600084815260666020526040908190206002808201805460ff1916909117905590517f29652b4901331abf930397514a1ef13b239fe6b6b5d17244d0aa234f2fe69994916117bb91879160010190612bbf565b60405180910390a150505050565b600054610100900460ff166118345760405162461bcd60e51b815260206004820152602b60248201527f496e697469616c697a61626c653a20636f6e7472616374206973206e6f74206960448201526a6e697469616c697a696e6760a81b6064820152608401610798565b6118416020820182612604565b606980546001600160a01b03929092166001600160a01b0319928316179055606a80549091163317905561187b6040820160208301612604565b606780546001600160a01b0319166001600160a01b03929092169190911790556118a860c0820182612d35565b6118b491606e916123cb565b506118c260e0820182612d35565b6118ce91606f916123cb565b5060005b6118df6060830183612ce6565b90508110156119e4576001606b60006118fb6060860186612ce6565b8581811061191957634e487b7160e01b600052603260045260246000fd5b905060200201602081019061192e9190612604565b6001600160a01b031681526020810191909152604001600020805460ff19169115159190911790557f4664777dbfbcb27de0f602e1da5d5a259992cd7edf5b29192929c96e8fd50def6119846060840184612ce6565b838181106119a257634e487b7160e01b600052603260045260246000fd5b90506020020160208101906119b79190612604565b6040516001600160a01b03909116815260200160405180910390a1806119dc81612e8c565b9150506118d2565b5060a0810135606d556080810135151580611a0f5750611a076060820182612ce6565b9050606d5411155b611a535760405162461bcd60e51b8152602060048201526015602482015274125b9d985b1a5908185c1c1c9bdd995c881b1a5cdd605a1b6044820152606401610798565b610100810135607255610120810135607355611a776101608201610140830161277b565b6070805460ff1916911515919091179055610160810135607155611aa36101a082016101808301612604565b607480546001600160a01b0319166001600160a01b0392909216919091179055604081013560685560800135606c55565b6001600160a01b03811660009081526075602052604090205460ff1615611b4f5760405162461bcd60e51b815260206004820152602960248201527f4475706c696361746564206164647265737320696e20746172676574206164646044820152681c995cdcc81b1a5cdd60ba1b6064820152608401610798565b6001600160a01b038116600081815260756020908152604091829020805460ff1916600117905590519182527ff11283a265d7a5f95fbc149dc65464f1f5be0151aac387fd76a938e1e55846049101610c25565b6001600160a01b03811660009081526078602052604090205460ff1615611c1a5760405162461bcd60e51b815260206004820152602560248201527f4475706c696361746564204974656d20696e20736f7572636520746f6b656e206044820152643634b9ba1760d91b6064820152608401610798565b6077805460018082019092557f7901cb5addcae2d210a531c604a76a660d77039093bac314de0816a16392aff10180546001600160a01b0319166001600160a01b038416908117909155600081815260786020908152604091829020805460ff1916909417909355519081527f14009112f2dcb15cad32dab6bf972d6d85286e4ae1178f27323ffe25359459e69101610c25565b600054610100900460ff16611cc95760005460ff1615611ccd565b303b155b611ce95760405162461bcd60e51b815260040161079890612ab9565b600054610100900460ff16158015611d0b576000805461ffff19166101011790555b8015610f0a576000805461ff00191690555050565b7f4910fdfa16fed3260ed0e7147f7cc6da11a60208b5b9406d12a635614ffd91435460ff1615611d5857611d5383612138565b505050565b826001600160a01b03166352d1902d6040518163ffffffff1660e01b815260040160206040518083038186803b158015611d9157600080fd5b505afa925050508015611dc1575060408051601f3d908101601f19168201909252611dbe91810190612795565b60015b611e245760405162461bcd60e51b815260206004820152602e60248201527f45524331393637557067726164653a206e657720696d706c656d656e7461746960448201526d6f6e206973206e6f74205555505360901b6064820152608401610798565b600080516020612ee98339815191528114611e935760405162461bcd60e51b815260206004820152602960248201527f45524331393637557067726164653a20756e737570706f727465642070726f786044820152681a58589b195555525160ba1b6064820152608401610798565b50611d538383836121d4565b600080600083806020019051810190611eb89190612620565b606a546040516001600160a01b039182166024820152908316604482015260648101829052929550909350915060009060840160408051601f198184030181529181526020820180516001600160e01b0316632142170760e11b179052606a54905163d3abc28b60e01b81529192506001600160a01b03169063d3abc28b90611f4a908790859060009060040161296b565b600060405180830381600087803b158015611f6457600080fd5b505af1158015611f78573d6000803e3d6000fd5b505050506040513d6000823e601f3d908101601f19168201604052611fa091908101906127ad565b50607454600160a01b900460ff1680611fd157506001600160a01b03831660009081526075602052604090205460ff165b6120295760405162461bcd60e51b815260206004820152602360248201527f526563697069656e74206e6f742077686974656c697374656420696e2062756460448201526219d95d60ea1b6064820152608401610798565b60765460ff168061205257506001600160a01b03841660009081526078602052604090205460ff165b61209e5760405162461bcd60e51b815260206004820152601f60248201527f546f6b656e206e6f742077686974656c697374656420696e20627564676574006044820152606401610798565b60795460ff16806120b25750607a54600111155b61210e5760405162461bcd60e51b815260206004820152602760248201527f4578636565646564206d617820627564676574207472616e7366657261626c6560448201526608185b5bdd5b9d60ca1b6064820152608401610798565b60795460ff16612131576001607a600082825461212b9190612df7565b90915550505b5050505050565b6001600160a01b0381163b6121a55760405162461bcd60e51b815260206004820152602d60248201527f455243313936373a206e657720696d706c656d656e746174696f6e206973206e60448201526c1bdd08184818dbdb9d1c9858dd609a1b6064820152608401610798565b600080516020612ee983398151915280546001600160a01b0319166001600160a01b0392909216919091179055565b6121dd836121ff565b6000825111806121ea5750805b15611d53576121f9838361223f565b50505050565b61220881612138565b6040516001600160a01b038216907fbc7cd75a20ee27fd9adebab32041f755214dbc6bffa90cc0225b39da2e5c2d3b90600090a250565b60606001600160a01b0383163b6122a75760405162461bcd60e51b815260206004820152602660248201527f416464726573733a2064656c65676174652063616c6c20746f206e6f6e2d636f6044820152651b9d1c9858dd60d21b6064820152608401610798565b600080846001600160a01b0316846040516122c2919061294f565b600060405180830381855af49150503d80600081146122fd576040519150601f19603f3d011682016040523d82523d6000602084013e612302565b606091505b509150915061232a8282604051806060016040528060278152602001612f0960279139612335565b925050505b92915050565b6060831561234457508161133e565b8251156123545782518084602001fd5b8160405162461bcd60e51b81526004016107989190612a0e565b8280548282559060005260206000209081019282156123bb579160200282015b828111156123bb57825180516123ab91849160209091019061244b565b509160200191906001019061238e565b506123c79291506124bf565b5090565b8280546123d790612e51565b90600052602060002090601f0160209004810192826123f9576000855561243f565b82601f106124125782800160ff1982351617855561243f565b8280016001018555821561243f579182015b8281111561243f578235825591602001919060010190612424565b506123c79291506124dc565b82805461245790612e51565b90600052602060002090601f016020900481019282612479576000855561243f565b82601f1061249257805160ff191683800117855561243f565b8280016001018555821561243f579182015b8281111561243f5782518255916020019190600101906124a4565b808211156123c75760006124d382826124f1565b506001016124bf565b5b808211156123c757600081556001016124dd565b5080546124fd90612e51565b6000825580601f1061250d575050565b601f016020900490600052602060002090810190610e3a91906124dc565b600082601f83011261253b578081fd5b8135602061255061254b83612dab565b612d7a565b80838252828201915082860187848660051b890101111561256f578586fd5b855b8581101561259657813561258481612ed3565b84529284019290840190600101612571565b5090979650505050505050565b803580151581146125b357600080fd5b919050565b600082601f8301126125c8578081fd5b81356125d661254b82612dcf565b8181528460208386010111156125ea578283fd5b816020850160208301379081016020019190915292915050565b600060208284031215612615578081fd5b813561133e81612ed3565b600080600060608486031215612634578182fd5b835161263f81612ed3565b602085015190935061265081612ed3565b80925050604084015190509250925092565b60008060408385031215612674578182fd5b823561267f81612ed3565b9150602083013567ffffffffffffffff81111561269a578182fd5b6126a6858286016125b8565b9150509250929050565b6000806000606084860312156126c4578283fd5b833567ffffffffffffffff808211156126db578485fd5b818601915086601f8301126126ee578485fd5b813560206126fe61254b83612dab565b8083825282820191508286018b848660051b890101111561271d57898afd5b895b8581101561275657813587811115612735578b8cfd5b6127438e87838c01016125b8565b855250928401929084019060010161271f565b50909850505087013594506127729250506040860190506125a3565b90509250925092565b60006020828403121561278c578081fd5b61133e826125a3565b6000602082840312156127a6578081fd5b5051919050565b6000602082840312156127be578081fd5b815167ffffffffffffffff8111156127d4578182fd5b8201601f810184136127e4578182fd5b80516127f261254b82612dcf565b818152856020838501011115612806578384fd5b612817826020830160208601612e0e565b95945050505050565b600080600080600080600060e0888a03121561283a578283fd5b873567ffffffffffffffff80821115612851578485fd5b908901906101a0828c031215612865578485fd5b81985061287460208b016125a3565b975060408a0135915080821115612889578485fd5b6128958b838c0161252b565b96506128a360608b016125a3565b955060808a01359150808211156128b8578485fd5b506128c58a828b0161252b565b9350506128d460a089016125a3565b915060c0880135905092959891949750929550565b6000602082840312156128fa578081fd5b5035919050565b60008151808452612919816020860160208601612e0e565b601f01601f19169290920160200192915050565b6004811061294b57634e487b7160e01b600052602160045260246000fd5b9052565b60008251612961818460208701612e0e565b9190910192915050565b6001600160a01b038416815260606020820181905260009061298f90830185612901565b9050826040830152949350505050565b6000602080830181845280855180835260408601915060408160051b8701019250838701855b828110156129f357603f198886030184526129e1858351612901565b945092850192908501906001016129c5565b5092979650505050505050565b6020810161232f828461292d565b60208152600061133e6020830184612901565b6020808252602c908201527f46756e6374696f6e206d7573742062652063616c6c6564207468726f7567682060408201526b19195b1959d85d1958d85b1b60a21b606082015260800190565b6020808252602c908201527f46756e6374696f6e206d7573742062652063616c6c6564207468726f7567682060408201526b6163746976652070726f787960a01b606082015260800190565b6020808252602e908201527f496e697469616c697a61626c653a20636f6e747261637420697320616c72656160408201526d191e481a5b9a5d1a585b1a5e995960921b606082015260800190565b60208082526022908201527f4578656375746f72206e6f742077686974656c697374656420696e2062756467604082015261195d60f21b606082015260800190565b600060808201868352602060808185015281875180845260a08601915060a08160051b8701019350828901855b82811015612ba457609f19888703018452612b92868351612901565b95509284019290840190600101612b76565b5050505050604083018590529050612817606083018461292d565b600060408201848352602060408185015281855480845260608601915060608160051b8701019350868552828520855b82811015612ca657878603605f1901845281548790600181811c9080831680612c1957607f831692505b898310811415612c3757634e487b7160e01b8c52602260045260248cfd5b828b5260208b01818015612c525760018114612c6357612c8d565b60ff19861682528b82019650612c8d565b6000898152602090208e5b86811015612c8757815484820152908501908d01612c6e565b83019750505b50949a5050968801969490940193505050600101612bef565b509398975050505050505050565b85815260a08101612cc8602083018761292d565b84604083015283606083015282151560808301529695505050505050565b6000808335601e19843603018112612cfc578283fd5b83018035915067ffffffffffffffff821115612d16578283fd5b6020019150600581901b3603821315612d2e57600080fd5b9250929050565b6000808335601e19843603018112612d4b578283fd5b83018035915067ffffffffffffffff821115612d65578283fd5b602001915036819003821315612d2e57600080fd5b604051601f8201601f1916810167ffffffffffffffff81118282101715612da357612da3612ebd565b604052919050565b600067ffffffffffffffff821115612dc557612dc5612ebd565b5060051b60200190565b600067ffffffffffffffff821115612de957612de9612ebd565b50601f01601f191660200190565b600082821015612e0957612e09612ea7565b500390565b60005b83811015612e29578181015183820152602001612e11565b838111156121f95750506000910152565b600081612e4957612e49612ea7565b506000190190565b600181811c90821680612e6557607f821691505b60208210811415612e8657634e487b7160e01b600052602260045260246000fd5b50919050565b6000600019821415612ea057612ea0612ea7565b5060010190565b634e487b7160e01b600052601160045260246000fd5b634e487b7160e01b600052604160045260246000fd5b6001600160a01b0381168114610e3a57600080fdfe360894a13ba1a3210667c828492db98dca3e2076cc3735a920a3ca505d382bbc416464726573733a206c6f772d6c6576656c2064656c65676174652063616c6c206661696c6564a2646970667358221220a74e790d2866dff2ed02a47badcd37bd17650ad2841bc839faf5ee8f84deb99264736f6c63430008040033",
  "devdoc": {
    "kind": "dev",
    "methods": {
      "proxiableUUID()": {
        "details": "Implementation of the ERC1822 {proxiableUUID} function. This returns the storage slot used by the implementation. It is used to validate that the this implementation remains valid after an upgrade. IMPORTANT: A proxy pointing at a proxiable contract should not be considered proxiable itself, because this risks bricking a proxy that upgrades to it, by delegating to itself until out of gas. Thus it is critical that this function revert if invoked through a proxy. This is guaranteed by the `notDelegated` modifier."
      },
      "upgradeTo(address)": {
        "details": "Upgrade the implementation of the proxy to `newImplementation`. Calls {_authorizeUpgrade}. Emits an {Upgraded} event."
      },
      "upgradeToAndCall(address,bytes)": {
        "details": "Upgrade the implementation of the proxy to `newImplementation`, and subsequently execute the function call encoded in `data`. Calls {_authorizeUpgrade}. Emits an {Upgraded} event."
      }
    },
    "version": 1
  },
  "userdoc": {
    "kind": "user",
    "methods": {},
    "version": 1
  },
  "storageLayout": {
    "storage": [
      {
        "astId": 2736,
        "contract": "contracts/TransferERC721BudgetApproval.sol:TransferERC721BudgetApproval",
        "label": "_initialized",
        "offset": 0,
        "slot": "0",
        "type": "t_bool"
      },
      {
        "astId": 2739,
        "contract": "contracts/TransferERC721BudgetApproval.sol:TransferERC721BudgetApproval",
        "label": "_initializing",
        "offset": 1,
        "slot": "0",
        "type": "t_bool"
      },
      {
        "astId": 2718,
        "contract": "contracts/TransferERC721BudgetApproval.sol:TransferERC721BudgetApproval",
        "label": "__gap",
        "offset": 0,
        "slot": "1",
        "type": "t_array(t_uint256)50_storage"
      },
      {
        "astId": 2938,
        "contract": "contracts/TransferERC721BudgetApproval.sol:TransferERC721BudgetApproval",
        "label": "__gap",
        "offset": 0,
        "slot": "51",
        "type": "t_array(t_uint256)50_storage"
      },
      {
        "astId": 22346,
        "contract": "contracts/TransferERC721BudgetApproval.sol:TransferERC721BudgetApproval",
        "label": "_transactionIds",
        "offset": 0,
        "slot": "101",
        "type": "t_struct(Counter)13975_storage"
      },
      {
        "astId": 22351,
        "contract": "contracts/TransferERC721BudgetApproval.sol:TransferERC721BudgetApproval",
        "label": "transactions",
        "offset": 0,
        "slot": "102",
        "type": "t_mapping(t_uint256,t_struct(Transaction)22298_storage)"
      },
      {
        "astId": 22356,
        "contract": "contracts/TransferERC721BudgetApproval.sol:TransferERC721BudgetApproval",
        "label": "executor",
        "offset": 0,
        "slot": "103",
        "type": "t_address"
      },
      {
        "astId": 22358,
        "contract": "contracts/TransferERC721BudgetApproval.sol:TransferERC721BudgetApproval",
        "label": "executorTeamId",
        "offset": 0,
        "slot": "104",
        "type": "t_uint256"
      },
      {
        "astId": 22360,
        "contract": "contracts/TransferERC721BudgetApproval.sol:TransferERC721BudgetApproval",
        "label": "dao",
        "offset": 0,
        "slot": "105",
        "type": "t_address_payable"
      },
      {
        "astId": 22362,
        "contract": "contracts/TransferERC721BudgetApproval.sol:TransferERC721BudgetApproval",
        "label": "executee",
        "offset": 0,
        "slot": "106",
        "type": "t_address"
      },
      {
        "astId": 22366,
        "contract": "contracts/TransferERC721BudgetApproval.sol:TransferERC721BudgetApproval",
        "label": "approversMapping",
        "offset": 0,
        "slot": "107",
        "type": "t_mapping(t_address,t_bool)"
      },
      {
        "astId": 22368,
        "contract": "contracts/TransferERC721BudgetApproval.sol:TransferERC721BudgetApproval",
        "label": "approverTeamId",
        "offset": 0,
        "slot": "108",
        "type": "t_uint256"
      },
      {
        "astId": 22370,
        "contract": "contracts/TransferERC721BudgetApproval.sol:TransferERC721BudgetApproval",
        "label": "minApproval",
        "offset": 0,
        "slot": "109",
        "type": "t_uint256"
      },
      {
        "astId": 22372,
        "contract": "contracts/TransferERC721BudgetApproval.sol:TransferERC721BudgetApproval",
        "label": "text",
        "offset": 0,
        "slot": "110",
        "type": "t_string_storage"
      },
      {
        "astId": 22374,
        "contract": "contracts/TransferERC721BudgetApproval.sol:TransferERC721BudgetApproval",
        "label": "transactionType",
        "offset": 0,
        "slot": "111",
        "type": "t_string_storage"
      },
      {
        "astId": 22376,
        "contract": "contracts/TransferERC721BudgetApproval.sol:TransferERC721BudgetApproval",
        "label": "allowUnlimitedUsageCount",
        "offset": 0,
        "slot": "112",
        "type": "t_bool"
      },
      {
        "astId": 22378,
        "contract": "contracts/TransferERC721BudgetApproval.sol:TransferERC721BudgetApproval",
        "label": "usageCount",
        "offset": 0,
        "slot": "113",
        "type": "t_uint256"
      },
      {
        "astId": 22380,
        "contract": "contracts/TransferERC721BudgetApproval.sol:TransferERC721BudgetApproval",
        "label": "startTime",
        "offset": 0,
        "slot": "114",
        "type": "t_uint256"
      },
      {
        "astId": 22382,
        "contract": "contracts/TransferERC721BudgetApproval.sol:TransferERC721BudgetApproval",
        "label": "endTime",
        "offset": 0,
        "slot": "115",
        "type": "t_uint256"
      },
      {
        "astId": 22384,
        "contract": "contracts/TransferERC721BudgetApproval.sol:TransferERC721BudgetApproval",
        "label": "team",
        "offset": 0,
        "slot": "116",
        "type": "t_address"
      },
      {
        "astId": 20915,
        "contract": "contracts/TransferERC721BudgetApproval.sol:TransferERC721BudgetApproval",
        "label": "allowAllAddresses",
        "offset": 20,
        "slot": "116",
        "type": "t_bool"
      },
      {
        "astId": 20919,
        "contract": "contracts/TransferERC721BudgetApproval.sol:TransferERC721BudgetApproval",
        "label": "addressesMapping",
        "offset": 0,
        "slot": "117",
        "type": "t_mapping(t_address,t_bool)"
      },
      {
        "astId": 20921,
        "contract": "contracts/TransferERC721BudgetApproval.sol:TransferERC721BudgetApproval",
        "label": "allowAllTokens",
        "offset": 0,
        "slot": "118",
        "type": "t_bool"
      },
      {
        "astId": 20924,
        "contract": "contracts/TransferERC721BudgetApproval.sol:TransferERC721BudgetApproval",
        "label": "tokens",
        "offset": 0,
        "slot": "119",
        "type": "t_array(t_address)dyn_storage"
      },
      {
        "astId": 20928,
        "contract": "contracts/TransferERC721BudgetApproval.sol:TransferERC721BudgetApproval",
        "label": "tokensMapping",
        "offset": 0,
        "slot": "120",
        "type": "t_mapping(t_address,t_bool)"
      },
      {
        "astId": 20930,
        "contract": "contracts/TransferERC721BudgetApproval.sol:TransferERC721BudgetApproval",
        "label": "allowAnyAmount",
        "offset": 0,
        "slot": "121",
        "type": "t_bool"
      },
      {
        "astId": 20932,
        "contract": "contracts/TransferERC721BudgetApproval.sol:TransferERC721BudgetApproval",
        "label": "totalAmount",
        "offset": 0,
        "slot": "122",
        "type": "t_uint256"
      }
    ],
    "types": {
      "t_address": {
        "encoding": "inplace",
        "label": "address",
        "numberOfBytes": "20"
      },
      "t_address_payable": {
        "encoding": "inplace",
        "label": "address payable",
        "numberOfBytes": "20"
      },
      "t_array(t_address)dyn_storage": {
        "base": "t_address",
        "encoding": "dynamic_array",
        "label": "address[]",
        "numberOfBytes": "32"
      },
      "t_array(t_bytes_storage)dyn_storage": {
        "base": "t_bytes_storage",
        "encoding": "dynamic_array",
        "label": "bytes[]",
        "numberOfBytes": "32"
      },
      "t_array(t_uint256)50_storage": {
        "base": "t_uint256",
        "encoding": "inplace",
        "label": "uint256[50]",
        "numberOfBytes": "1600"
      },
      "t_bool": {
        "encoding": "inplace",
        "label": "bool",
        "numberOfBytes": "1"
      },
      "t_bytes_storage": {
        "encoding": "bytes",
        "label": "bytes",
        "numberOfBytes": "32"
      },
      "t_enum(Status)22279": {
        "encoding": "inplace",
        "label": "enum CommonBudgetApproval.Status",
        "numberOfBytes": "1"
      },
      "t_mapping(t_address,t_bool)": {
        "encoding": "mapping",
        "key": "t_address",
        "label": "mapping(address => bool)",
        "numberOfBytes": "32",
        "value": "t_bool"
      },
      "t_mapping(t_uint256,t_struct(Transaction)22298_storage)": {
        "encoding": "mapping",
        "key": "t_uint256",
        "label": "mapping(uint256 => struct CommonBudgetApproval.Transaction)",
        "numberOfBytes": "32",
        "value": "t_struct(Transaction)22298_storage"
      },
      "t_string_storage": {
        "encoding": "bytes",
        "label": "string",
        "numberOfBytes": "32"
      },
      "t_struct(Counter)13975_storage": {
        "encoding": "inplace",
        "label": "struct Counters.Counter",
        "members": [
          {
            "astId": 13974,
            "contract": "contracts/TransferERC721BudgetApproval.sol:TransferERC721BudgetApproval",
            "label": "_value",
            "offset": 0,
            "slot": "0",
            "type": "t_uint256"
          }
        ],
        "numberOfBytes": "32"
      },
      "t_struct(Transaction)22298_storage": {
        "encoding": "inplace",
        "label": "struct CommonBudgetApproval.Transaction",
        "members": [
          {
            "astId": 22281,
            "contract": "contracts/TransferERC721BudgetApproval.sol:TransferERC721BudgetApproval",
            "label": "id",
            "offset": 0,
            "slot": "0",
            "type": "t_uint256"
          },
          {
            "astId": 22284,
            "contract": "contracts/TransferERC721BudgetApproval.sol:TransferERC721BudgetApproval",
            "label": "data",
            "offset": 0,
            "slot": "1",
            "type": "t_array(t_bytes_storage)dyn_storage"
          },
          {
            "astId": 22287,
            "contract": "contracts/TransferERC721BudgetApproval.sol:TransferERC721BudgetApproval",
            "label": "status",
            "offset": 0,
            "slot": "2",
            "type": "t_enum(Status)22279"
          },
          {
            "astId": 22289,
            "contract": "contracts/TransferERC721BudgetApproval.sol:TransferERC721BudgetApproval",
            "label": "deadline",
            "offset": 0,
            "slot": "3",
            "type": "t_uint256"
          },
          {
            "astId": 22293,
            "contract": "contracts/TransferERC721BudgetApproval.sol:TransferERC721BudgetApproval",
            "label": "approved",
            "offset": 0,
            "slot": "4",
            "type": "t_mapping(t_address,t_bool)"
          },
          {
            "astId": 22295,
            "contract": "contracts/TransferERC721BudgetApproval.sol:TransferERC721BudgetApproval",
            "label": "approvedCount",
            "offset": 0,
            "slot": "5",
            "type": "t_uint256"
          },
          {
            "astId": 22297,
            "contract": "contracts/TransferERC721BudgetApproval.sol:TransferERC721BudgetApproval",
            "label": "isExist",
            "offset": 0,
            "slot": "6",
            "type": "t_bool"
          }
        ],
        "numberOfBytes": "224"
      },
      "t_uint256": {
        "encoding": "inplace",
        "label": "uint256",
        "numberOfBytes": "32"
      }
    }
  }
}