{
  "address": "0x9412ca8F81c9335Cd21F5af9697C18B2132aEE92",
  "abi": [
    {
      "anonymous": false,
      "inputs": [
        {
          "indexed": false,
          "internalType": "address",
          "name": "previousAdmin",
          "type": "address"
        },
        {
          "indexed": false,
          "internalType": "address",
          "name": "newAdmin",
          "type": "address"
        }
      ],
      "name": "AdminChanged",
      "type": "event"
    },
    {
      "anonymous": false,
      "inputs": [
        {
          "indexed": false,
          "internalType": "address",
          "name": "target",
          "type": "address"
        }
      ],
      "name": "AllowAddress",
      "type": "event"
    },
    {
      "anonymous": false,
      "inputs": [
        {
          "indexed": false,
          "internalType": "uint256",
          "name": "amount",
          "type": "uint256"
        }
      ],
      "name": "AllowAmount",
      "type": "event"
    },
    {
      "anonymous": false,
      "inputs": [
        {
          "indexed": false,
          "internalType": "address",
          "name": "token",
          "type": "address"
        }
      ],
      "name": "AllowToken",
      "type": "event"
    },
    {
      "anonymous": false,
      "inputs": [
        {
          "indexed": false,
          "internalType": "uint256",
          "name": "id",
          "type": "uint256"
        },
        {
          "indexed": false,
          "internalType": "address",
          "name": "approver",
          "type": "address"
        }
      ],
      "name": "ApproveTransaction",
      "type": "event"
    },
    {
      "anonymous": false,
      "inputs": [
        {
          "indexed": true,
          "internalType": "address",
          "name": "beacon",
          "type": "address"
        }
      ],
      "name": "BeaconUpgraded",
      "type": "event"
    },
    {
      "anonymous": false,
      "inputs": [
        {
          "indexed": false,
          "internalType": "uint256",
          "name": "id",
          "type": "uint256"
        },
        {
          "indexed": false,
          "internalType": "bytes[]",
          "name": "data",
          "type": "bytes[]"
        },
        {
          "indexed": false,
          "internalType": "uint256",
          "name": "deadline",
          "type": "uint256"
        },
        {
          "indexed": false,
          "internalType": "enum CommonBudgetApproval.Status",
          "name": "status",
          "type": "uint8"
        }
      ],
      "name": "CreateTransaction",
      "type": "event"
    },
    {
      "anonymous": false,
      "inputs": [
        {
          "indexed": false,
          "internalType": "uint256",
          "name": "id",
          "type": "uint256"
        },
        {
          "indexed": false,
          "internalType": "bytes[]",
          "name": "data",
          "type": "bytes[]"
        },
        {
          "indexed": false,
          "internalType": "address",
          "name": "executor",
          "type": "address"
        }
      ],
      "name": "ExecuteTransaction",
      "type": "event"
    },
    {
      "anonymous": false,
      "inputs": [
        {
          "indexed": false,
          "internalType": "uint256",
          "name": "id",
          "type": "uint256"
        }
      ],
      "name": "RevokeTransaction",
      "type": "event"
    },
    {
      "anonymous": false,
      "inputs": [
        {
          "indexed": false,
          "internalType": "address",
          "name": "approver",
          "type": "address"
        }
      ],
      "name": "SetApprover",
      "type": "event"
    },
    {
      "anonymous": false,
      "inputs": [
        {
          "indexed": true,
          "internalType": "address",
          "name": "implementation",
          "type": "address"
        }
      ],
      "name": "Upgraded",
      "type": "event"
    },
    {
      "inputs": [],
      "name": "ETH_ADDRESS",
      "outputs": [
        {
          "internalType": "address",
          "name": "",
          "type": "address"
        }
      ],
      "stateMutability": "view",
      "type": "function"
    },
    {
      "inputs": [
        {
          "internalType": "address",
          "name": "",
          "type": "address"
        }
      ],
      "name": "addressesMapping",
      "outputs": [
        {
          "internalType": "bool",
          "name": "",
          "type": "bool"
        }
      ],
      "stateMutability": "view",
      "type": "function"
    },
    {
      "inputs": [],
      "name": "afterInitialized",
      "outputs": [],
      "stateMutability": "nonpayable",
      "type": "function"
    },
    {
      "inputs": [],
      "name": "allowAllAddresses",
      "outputs": [
        {
          "internalType": "bool",
          "name": "",
          "type": "bool"
        }
      ],
      "stateMutability": "view",
      "type": "function"
    },
    {
      "inputs": [],
      "name": "allowAnyAmount",
      "outputs": [
        {
          "internalType": "bool",
          "name": "",
          "type": "bool"
        }
      ],
      "stateMutability": "view",
      "type": "function"
    },
    {
      "inputs": [],
      "name": "allowUnlimitedUsageCount",
      "outputs": [
        {
          "internalType": "bool",
          "name": "",
          "type": "bool"
        }
      ],
      "stateMutability": "view",
      "type": "function"
    },
    {
      "inputs": [],
      "name": "amountPercentage",
      "outputs": [
        {
          "internalType": "uint8",
          "name": "",
          "type": "uint8"
        }
      ],
      "stateMutability": "view",
      "type": "function"
    },
    {
      "inputs": [
        {
          "internalType": "uint256",
          "name": "id",
          "type": "uint256"
        }
      ],
      "name": "approveTransaction",
      "outputs": [],
      "stateMutability": "nonpayable",
      "type": "function"
    },
    {
      "inputs": [
        {
          "internalType": "uint256",
          "name": "id",
          "type": "uint256"
        }
      ],
      "name": "approvedCountOf",
      "outputs": [
        {
          "internalType": "uint256",
          "name": "",
          "type": "uint256"
        }
      ],
      "stateMutability": "view",
      "type": "function"
    },
    {
      "inputs": [],
      "name": "approverTeamId",
      "outputs": [
        {
          "internalType": "uint256",
          "name": "",
          "type": "uint256"
        }
      ],
      "stateMutability": "view",
      "type": "function"
    },
    {
      "inputs": [
        {
          "internalType": "address",
          "name": "",
          "type": "address"
        }
      ],
      "name": "approversMapping",
      "outputs": [
        {
          "internalType": "bool",
          "name": "",
          "type": "bool"
        }
      ],
      "stateMutability": "view",
      "type": "function"
    },
    {
      "inputs": [
        {
          "internalType": "address",
          "name": "asset",
          "type": "address"
        },
        {
          "internalType": "uint256",
          "name": "amount",
          "type": "uint256"
        }
      ],
      "name": "assetBaseCurrencyPrice",
      "outputs": [
        {
          "internalType": "uint256",
          "name": "",
          "type": "uint256"
        }
      ],
      "stateMutability": "view",
      "type": "function"
    },
    {
      "inputs": [
        {
          "internalType": "address",
          "name": "asset",
          "type": "address"
        },
        {
          "internalType": "uint256",
          "name": "amount",
          "type": "uint256"
        }
      ],
      "name": "assetEthPrice",
      "outputs": [
        {
          "internalType": "uint256",
          "name": "",
          "type": "uint256"
        }
      ],
      "stateMutability": "view",
      "type": "function"
    },
    {
      "inputs": [],
      "name": "baseCurrency",
      "outputs": [
        {
          "internalType": "address",
          "name": "",
          "type": "address"
        }
      ],
      "stateMutability": "view",
      "type": "function"
    },
    {
      "inputs": [],
      "name": "baseCurrencyDecimals",
      "outputs": [
        {
          "internalType": "uint8",
          "name": "",
          "type": "uint8"
        }
      ],
      "stateMutability": "view",
      "type": "function"
    },
    {
      "inputs": [
        {
          "internalType": "address",
          "name": "asset",
          "type": "address"
        }
      ],
      "name": "canResolvePrice",
      "outputs": [
        {
          "internalType": "bool",
          "name": "",
          "type": "bool"
        }
      ],
      "stateMutability": "view",
      "type": "function"
    },
    {
      "inputs": [
        {
          "internalType": "bytes[]",
          "name": "_data",
          "type": "bytes[]"
        },
        {
          "internalType": "uint256",
          "name": "_deadline",
          "type": "uint256"
        },
        {
          "internalType": "bool",
          "name": "_isExecute",
          "type": "bool"
        }
      ],
      "name": "createTransaction",
      "outputs": [
        {
          "internalType": "uint256",
          "name": "",
          "type": "uint256"
        }
      ],
      "stateMutability": "nonpayable",
      "type": "function"
    },
    {
      "inputs": [],
      "name": "dao",
      "outputs": [
        {
          "internalType": "address payable",
          "name": "",
          "type": "address"
        }
      ],
      "stateMutability": "view",
      "type": "function"
    },
    {
      "inputs": [
        {
          "internalType": "uint256",
          "name": "id",
          "type": "uint256"
        }
      ],
      "name": "deadlineOf",
      "outputs": [
        {
          "internalType": "uint256",
          "name": "",
          "type": "uint256"
        }
      ],
      "stateMutability": "view",
      "type": "function"
    },
    {
      "inputs": [],
      "name": "endTime",
      "outputs": [
        {
          "internalType": "uint256",
          "name": "",
          "type": "uint256"
        }
      ],
      "stateMutability": "view",
      "type": "function"
    },
    {
      "inputs": [
        {
          "internalType": "address",
          "name": "asset",
          "type": "address"
        },
        {
          "internalType": "uint256",
          "name": "ethAmount",
          "type": "uint256"
        }
      ],
      "name": "ethAssetPrice",
      "outputs": [
        {
          "internalType": "uint256",
          "name": "",
          "type": "uint256"
        }
      ],
      "stateMutability": "view",
      "type": "function"
    },
    {
      "inputs": [],
      "name": "executeParams",
      "outputs": [
        {
          "internalType": "string[]",
          "name": "",
          "type": "string[]"
        }
      ],
      "stateMutability": "pure",
      "type": "function"
    },
    {
      "inputs": [
        {
          "internalType": "uint256",
          "name": "id",
          "type": "uint256"
        }
      ],
      "name": "executeTransaction",
      "outputs": [],
      "stateMutability": "nonpayable",
      "type": "function"
    },
    {
      "inputs": [],
      "name": "executee",
      "outputs": [
        {
          "internalType": "address",
          "name": "",
          "type": "address"
        }
      ],
      "stateMutability": "view",
      "type": "function"
    },
    {
      "inputs": [],
      "name": "executor",
      "outputs": [
        {
          "internalType": "address",
          "name": "",
          "type": "address"
        }
      ],
      "stateMutability": "view",
      "type": "function"
    },
    {
      "inputs": [],
      "name": "executorTeamId",
      "outputs": [
        {
          "internalType": "uint256",
          "name": "",
          "type": "uint256"
        }
      ],
      "stateMutability": "view",
      "type": "function"
    },
    {
      "inputs": [
        {
          "components": [
            {
              "internalType": "address",
              "name": "dao",
              "type": "address"
            },
            {
              "internalType": "address",
              "name": "executor",
              "type": "address"
            },
            {
              "internalType": "uint256",
              "name": "executorTeamId",
              "type": "uint256"
            },
            {
              "internalType": "address[]",
              "name": "approvers",
              "type": "address[]"
            },
            {
              "internalType": "uint256",
              "name": "approverTeamId",
              "type": "uint256"
            },
            {
              "internalType": "uint256",
              "name": "minApproval",
              "type": "uint256"
            },
            {
              "internalType": "string",
              "name": "text",
              "type": "string"
            },
            {
              "internalType": "string",
              "name": "transactionType",
              "type": "string"
            },
            {
              "internalType": "uint256",
              "name": "startTime",
              "type": "uint256"
            },
            {
              "internalType": "uint256",
              "name": "endTime",
              "type": "uint256"
            },
            {
              "internalType": "bool",
              "name": "allowUnlimitedUsageCount",
              "type": "bool"
            },
            {
              "internalType": "uint256",
              "name": "usageCount",
              "type": "uint256"
            },
            {
              "internalType": "address",
              "name": "team",
              "type": "address"
            }
          ],
          "internalType": "struct CommonBudgetApproval.InitializeParams",
          "name": "params",
          "type": "tuple"
        },
        {
          "internalType": "bool",
          "name": "_allowAllAddresses",
          "type": "bool"
        },
        {
          "internalType": "address[]",
          "name": "_toAddresses",
          "type": "address[]"
        },
        {
          "internalType": "address[]",
          "name": "_tokens",
          "type": "address[]"
        },
        {
          "internalType": "bool",
          "name": "_allowAnyAmount",
          "type": "bool"
        },
        {
          "internalType": "uint256",
          "name": "_totalAmount",
          "type": "uint256"
        },
        {
          "internalType": "uint8",
          "name": "_amountPercentage",
          "type": "uint8"
        },
        {
          "internalType": "address",
          "name": "_baseCurrency",
          "type": "address"
        }
      ],
      "name": "initialize",
      "outputs": [],
      "stateMutability": "nonpayable",
      "type": "function"
    },
    {
      "inputs": [],
      "name": "minApproval",
      "outputs": [
        {
          "internalType": "uint256",
          "name": "",
          "type": "uint256"
        }
      ],
      "stateMutability": "view",
      "type": "function"
    },
    {
      "inputs": [],
      "name": "name",
      "outputs": [
        {
          "internalType": "string",
          "name": "",
          "type": "string"
        }
      ],
      "stateMutability": "view",
      "type": "function"
    },
    {
      "inputs": [],
      "name": "proxiableUUID",
      "outputs": [
        {
          "internalType": "bytes32",
          "name": "",
          "type": "bytes32"
        }
      ],
      "stateMutability": "view",
      "type": "function"
    },
    {
      "inputs": [
        {
          "internalType": "uint256",
          "name": "id",
          "type": "uint256"
        }
      ],
      "name": "revokeTransaction",
      "outputs": [],
      "stateMutability": "nonpayable",
      "type": "function"
    },
    {
      "inputs": [],
      "name": "startTime",
      "outputs": [
        {
          "internalType": "uint256",
          "name": "",
          "type": "uint256"
        }
      ],
      "stateMutability": "view",
      "type": "function"
    },
    {
      "inputs": [
        {
          "internalType": "uint256",
          "name": "id",
          "type": "uint256"
        }
      ],
      "name": "statusOf",
      "outputs": [
        {
          "internalType": "enum CommonBudgetApproval.Status",
          "name": "",
          "type": "uint8"
        }
      ],
      "stateMutability": "view",
      "type": "function"
    },
    {
      "inputs": [],
      "name": "team",
      "outputs": [
        {
          "internalType": "address",
          "name": "",
          "type": "address"
        }
      ],
      "stateMutability": "view",
      "type": "function"
    },
    {
      "inputs": [],
      "name": "text",
      "outputs": [
        {
          "internalType": "string",
          "name": "",
          "type": "string"
        }
      ],
      "stateMutability": "view",
      "type": "function"
    },
    {
      "inputs": [
        {
          "internalType": "uint256",
          "name": "",
          "type": "uint256"
        }
      ],
      "name": "tokens",
      "outputs": [
        {
          "internalType": "address",
          "name": "",
          "type": "address"
        }
      ],
      "stateMutability": "view",
      "type": "function"
    },
    {
      "inputs": [
        {
          "internalType": "address",
          "name": "",
          "type": "address"
        }
      ],
      "name": "tokensMapping",
      "outputs": [
        {
          "internalType": "bool",
          "name": "",
          "type": "bool"
        }
      ],
      "stateMutability": "view",
      "type": "function"
    },
    {
      "inputs": [],
      "name": "totalAmount",
      "outputs": [
        {
          "internalType": "uint256",
          "name": "",
          "type": "uint256"
        }
      ],
      "stateMutability": "view",
      "type": "function"
    },
    {
      "inputs": [],
      "name": "transactionType",
      "outputs": [
        {
          "internalType": "string",
          "name": "",
          "type": "string"
        }
      ],
      "stateMutability": "view",
      "type": "function"
    },
    {
      "inputs": [
        {
          "internalType": "uint256",
          "name": "",
          "type": "uint256"
        }
      ],
      "name": "transactions",
      "outputs": [
        {
          "internalType": "uint256",
          "name": "id",
          "type": "uint256"
        },
        {
          "internalType": "enum CommonBudgetApproval.Status",
          "name": "status",
          "type": "uint8"
        },
        {
          "internalType": "uint256",
          "name": "deadline",
          "type": "uint256"
        },
        {
          "internalType": "uint256",
          "name": "approvedCount",
          "type": "uint256"
        },
        {
          "internalType": "bool",
          "name": "isExist",
          "type": "bool"
        }
      ],
      "stateMutability": "view",
      "type": "function"
    },
    {
      "inputs": [
        {
          "internalType": "address",
          "name": "newImplementation",
          "type": "address"
        }
      ],
      "name": "upgradeTo",
      "outputs": [],
      "stateMutability": "nonpayable",
      "type": "function"
    },
    {
      "inputs": [
        {
          "internalType": "address",
          "name": "newImplementation",
          "type": "address"
        },
        {
          "internalType": "bytes",
          "name": "data",
          "type": "bytes"
        }
      ],
      "name": "upgradeToAndCall",
      "outputs": [],
      "stateMutability": "payable",
      "type": "function"
    },
    {
      "inputs": [],
      "name": "usageCount",
      "outputs": [
        {
          "internalType": "uint256",
          "name": "",
          "type": "uint256"
        }
      ],
      "stateMutability": "view",
      "type": "function"
    }
  ],
  "transactionHash": "0xb270c1a9ee75320760ca512d541f5ae3542c8f4c712fabaeac12c508e7226c7b",
  "args": [],
  "numDeployments": 1,
  "solcInputHash": "86dfe1265a8c9c9d3960345b0927392b",
  "bytecode": "0x60a06040523060601b60805234801561001757600080fd5b5060805160601c61420861005260003960008181610df801528181610e3801528181610ed801528181610f180152610fd501526142086000f3fe60806040526004361061025c5760003560e01c80636bdebe5e11610144578063ad35efd4116100b6578063c34c08e51161007a578063c34c08e51461078b578063cf26fec6146107ab578063d96c9196146107c0578063de755e2f146107d6578063ee22610b146107ec578063f5c038521461080c57600080fd5b8063ad35efd4146106d0578063b18b32fb14610710578063b49612ba1461072a578063b617b3ee1461074a578063bc9c5e901461076b57600080fd5b806385f2aef21161010857806385f2aef2146105bd5780638d1c5c29146105dd578063914e49091461060d57806392a85fde1461062d5780639ace38c21461064d578063a734f06e146106ae57600080fd5b80636bdebe5e14610528578063735631ad1461055857806378e97925146105785780637cd47d931461058e57806385015437146105a357600080fd5b80633ed38daf116101dd57806350bd881f116101a157806350bd881f1461047c57806352d1902d146104925780635aaaefad146104a75780635ad32502146104c757806360d8bb22146104e157806363d727dc1461050157600080fd5b80633ed38daf146103b15780634162169f146103e15780634f1ef286146104195780634f64b2be1461042c5780635078f67a1461044c57600080fd5b80633197cbb6116102245780633197cbb6146102f957806331a7bdd91461030f57806335efb1f9146103315780633659cfe6146103515780633d70015a1461037157600080fd5b806303ff90f61461026157806306fdde031461028a5780631a39d8ef146102ac5780631f1bd692146102c2578063242232d1146102d7575b600080fd5b34801561026d57600080fd5b50610277606d5481565b6040519081526020015b60405180910390f35b34801561029657600080fd5b5061029f61082c565b604051610281919061399b565b3480156102b857600080fd5b50610277607a5481565b3480156102ce57600080fd5b5061029f610848565b3480156102e357600080fd5b506102f76102f2366004613807565b6108d6565b005b34801561030557600080fd5b5061027760735481565b34801561031b57600080fd5b50610324610ba3565b604051610281919061392b565b34801561033d57600080fd5b506102f761034c366004613732565b610ca4565b34801561035d57600080fd5b506102f761036c3660046134c5565b610ded565b34801561037d57600080fd5b506103a161038c3660046134c5565b60786020526000908152604090205460ff1681565b6040519015158152602001610281565b3480156103bd57600080fd5b506102776103cc366004613807565b60009081526066602052604090206003015490565b3480156103ed57600080fd5b50606954610401906001600160a01b031681565b6040516001600160a01b039091168152602001610281565b6102f7610427366004613525565b610ecd565b34801561043857600080fd5b50610401610447366004613807565b610f9e565b34801561045857600080fd5b50610277610467366004613807565b60009081526066602052604090206005015490565b34801561048857600080fd5b5061027760715481565b34801561049e57600080fd5b50610277610fc8565b3480156104b357600080fd5b506102776104c2366004613575565b61107b565b3480156104d357600080fd5b506070546103a19060ff1681565b3480156104ed57600080fd5b506102776104fc366004613575565b61121f565b34801561050d57600080fd5b50610516611508565b60405160ff9091168152602001610281565b34801561053457600080fd5b506103a16105433660046134c5565b606b6020526000908152604090205460ff1681565b34801561056457600080fd5b506102f7610573366004613807565b6115bf565b34801561058457600080fd5b5061027760725481565b34801561059a57600080fd5b5061029f611747565b3480156105af57600080fd5b506079546103a19060ff1681565b3480156105c957600080fd5b50607454610401906001600160a01b031681565b3480156105e957600080fd5b506103a16105f83660046134c5565b60766020526000908152604090205460ff1681565b34801561061957600080fd5b506102776106283660046135a1565b611754565b34801561063957600080fd5b50607554610401906001600160a01b031681565b34801561065957600080fd5b5061069d610668366004613807565b60666020526000908152604090208054600282015460038301546005840154600690940154929360ff92831693919290911685565b604051610281959493929190613ca7565b3480156106ba57600080fd5b5061040160008051602061418c83398151915281565b3480156106dc57600080fd5b506107036106eb366004613807565b60009081526066602052604090206002015460ff1690565b604051610281919061398d565b34801561071c57600080fd5b50607b546105169060ff1681565b34801561073657600080fd5b50610277610745366004613575565b61190b565b34801561075657600080fd5b506075546103a190600160a01b900460ff1681565b34801561077757600080fd5b506103a16107863660046134c5565b611a92565b34801561079757600080fd5b50606754610401906001600160a01b031681565b3480156107b757600080fd5b506102f7611bbf565b3480156107cc57600080fd5b50610277606c5481565b3480156107e257600080fd5b5061027760685481565b3480156107f857600080fd5b506102f7610807366004613807565b611c26565b34801561081857600080fd5b50606a54610401906001600160a01b031681565b6040518060600160405280602581526020016141676025913981565b606e805461085590614064565b80601f016020809104026020016040519081016040528092919081815260200182805461088190614064565b80156108ce5780601f106108a3576101008083540402835291602001916108ce565b820191906000526020600020905b8154815290600101906020018083116108b157829003601f168201915b505050505081565b336000908152606b602052604090205460ff16806109765750607454606c54604051627eeac760e11b815233600482015260248101919091526000916001600160a01b03169062fdd58e9060440160206040518083038186803b15801561093c57600080fd5b505afa158015610950573d6000803e3d6000fd5b505050506040513d601f19601f82011682018060405250810190610974919061368e565b115b6109d25760405162461bcd60e51b815260206004820152602260248201527f417070726f766572206e6f742077686974656c697374656420696e2062756467604482015261195d60f21b60648201526084015b60405180910390fd5b60008181526066602052604081206002015460ff1660038111156109f8576109f86140e0565b1480610a295750600160008281526066602052604090206002015460ff166003811115610a2757610a276140e0565b145b610a755760405162461bcd60e51b815260206004820152601d60248201527f556e6578706563746564207472616e73616374696f6e2073746174757300000060448201526064016109c9565b600081815260666020908152604080832033845260040190915290205460ff1615610aee5760405162461bcd60e51b8152602060048201526024808201527f5472616e73616374696f6e20686173206265656e20617070726f766564206265604482015263666f726560e01b60648201526084016109c9565b6000818152606660208181526040808420338552600481018352908420805460ff19166001179055848452919052600501805491610b2b83614099565b9091555050606d5460008281526066602052604090206005015410610b67576000818152606660205260409020600201805460ff191660011790555b604080518281523360208201527f72224bf551d1ce069c1a2440132e14e1ef15d45977e00541090a35901e527f3b91015b60405180910390a150565b6040805160038082526080820190925260609160009190816020015b6060815260200190600190039081610bbf5790505090506040518060400160405280600d81526020016c30b2323932b9b9903a37b5b2b760991b81525081600081518110610c0f57610c0f6140f6565b60200260200101819052506040518060400160405280600a8152602001696164647265737320746f60b01b81525081600181518110610c5057610c506140f6565b60200260200101819052506040518060400160405280600d81526020016c75696e743235362076616c756560981b81525081600281518110610c9457610c946140f6565b6020908102919091010152919050565b600054610100900460ff16610cbf5760005460ff1615610cc3565b303b155b610cdf5760405162461bcd60e51b81526004016109c990613a46565b600054610100900460ff16158015610d01576000805461ffff19166101011790555b610d0a8961202a565b6075805460ff60a01b1916600160a01b8a15150217905560005b8751811015610d6157610d4f888281518110610d4257610d426140f6565b60200260200101516122d5565b80610d5981614099565b915050610d24565b5060005b8651811015610da257610d90878281518110610d8357610d836140f6565b60200260200101516123a4565b80610d9a81614099565b915050610d65565b506079805460ff1990811687151517909155607a859055607b805490911660ff8516179055610dd082612515565b8015610de2576000805461ff00191690555b505050505050505050565b306001600160a01b037f0000000000000000000000000000000000000000000000000000000000000000161415610e365760405162461bcd60e51b81526004016109c9906139ae565b7f00000000000000000000000000000000000000000000000000000000000000006001600160a01b0316610e7f600080516020614147833981519152546001600160a01b031690565b6001600160a01b031614610ea55760405162461bcd60e51b81526004016109c9906139fa565b610eae8161255e565b60408051600080825260208201909252610eca918391906125d0565b50565b306001600160a01b037f0000000000000000000000000000000000000000000000000000000000000000161415610f165760405162461bcd60e51b81526004016109c9906139ae565b7f00000000000000000000000000000000000000000000000000000000000000006001600160a01b0316610f5f600080516020614147833981519152546001600160a01b031690565b6001600160a01b031614610f855760405162461bcd60e51b81526004016109c9906139fa565b610f8e8261255e565b610f9a828260016125d0565b5050565b60778181548110610fae57600080fd5b6000918252602090912001546001600160a01b0316905081565b6000306001600160a01b037f000000000000000000000000000000000000000000000000000000000000000016146110685760405162461bcd60e51b815260206004820152603860248201527f555550535570677261646561626c653a206d757374206e6f742062652063616c60448201527f6c6564207468726f7567682064656c656761746563616c6c000000000000000060648201526084016109c9565b5060008051602061414783398151915290565b60006001600160a01b03831660008051602061418c83398151915214806110be57506001600160a01b03831673c778417e063141139fce010982780140aa0cd5ab145b156110ca575080611219565b60405163bcfd032d60e01b81526001600160a01b038416600482015260008051602061418c833981519152602482015260009073f948fc3d6c2c2c866f622c79612bb4e8708883cf9063bcfd032d9060440160a06040518083038186803b15801561113457600080fd5b505afa158015611148573d6000803e3d6000fd5b505050506040513d601f19601f8201168201806040525081019061116c9190613820565b505050915050600081131561121357836001600160a01b031663313ce5676040518163ffffffff1660e01b815260040160206040518083038186803b1580156111b457600080fd5b505afa1580156111c8573d6000803e3d6000fd5b505050506040513d601f19601f820116820180604052508101906111ec9190613870565b6111f790600a613e97565b6112018483613fc8565b61120b9190613e34565b915050611219565b60009150505b92915050565b6075546000906001600160a01b038481169116141561123f575080611219565b6075546001600160a01b031660008051602061418c833981519152148061128457506075546001600160a01b031673c778417e063141139fce010982780140aa0cd5ab145b1561129a57611293838361107b565b9050611219565b6001600160a01b03831660008051602061418c83398151915214806112db57506001600160a01b03831673c778417e063141139fce010982780140aa0cd5ab145b156112f657607554611293906001600160a01b03168361190b565b60755460405163d2edb6dd60e01b81526001600160a01b03909116600482015260008051602061418c833981519152602482015260009073f948fc3d6c2c2c866f622c79612bb4e8708883cf9063d2edb6dd9060440160206040518083038186803b15801561136457600080fd5b505afa158015611378573d6000803e3d6000fd5b505050506040513d601f19601f8201168201806040525081019061139c9190613715565b60405163d2edb6dd60e01b81526001600160a01b038616600482015260008051602061418c833981519152602482015290915060009073f948fc3d6c2c2c866f622c79612bb4e8708883cf9063d2edb6dd9060440160206040518083038186803b15801561140957600080fd5b505afa15801561141d573d6000803e3d6000fd5b505050506040513d601f19601f820116820180604052508101906114419190613715565b905060006114578284611452611508565b61274f565b905060008113156114fc57856001600160a01b031663313ce5676040518163ffffffff1660e01b815260040160206040518083038186803b15801561149b57600080fd5b505afa1580156114af573d6000803e3d6000fd5b505050506040513d601f19601f820116820180604052508101906114d39190613870565b6114de90600a613e97565b6114e88683613fc8565b6114f29190613e34565b9350505050611219565b50600095945050505050565b6075546000906001600160a01b031660008051602061418c83398151915214156115325750601290565b607560009054906101000a90046001600160a01b03166001600160a01b031663313ce5676040518163ffffffff1660e01b815260040160206040518083038186803b15801561158057600080fd5b505afa9250505080156115b0575060408051601f3d908101601f191682019092526115ad91810190613870565b60015b6115ba5750600090565b919050565b6067546001600160a01b031633148061165a5750607454606854604051627eeac760e11b815233600482015260248101919091526000916001600160a01b03169062fdd58e9060440160206040518083038186803b15801561162057600080fd5b505afa158015611634573d6000803e3d6000fd5b505050506040513d601f19601f82011682018060405250810190611658919061368e565b115b6116765760405162461bcd60e51b81526004016109c990613adf565b600260008281526066602052604090206002015460ff16600381111561169e5761169e6140e0565b14156116fa5760405162461bcd60e51b815260206004820152602560248201527f5472616e73616374696f6e20686173206265656e20636f6d706c65746564206260448201526465666f726560d81b60648201526084016109c9565b600081815260666020908152604091829020600201805460ff1916600317905590518281527f92a917be073b79ab50f9d997e9514a5d101e052ce04228014947e7883a7c03469101610b98565b606f805461085590614064565b6067546000906001600160a01b03163314806117f25750607454606854604051627eeac760e11b815233600482015260248101919091526000916001600160a01b03169062fdd58e9060440160206040518083038186803b1580156117b857600080fd5b505afa1580156117cc573d6000803e3d6000fd5b505050506040513d601f19601f820116820180604052508101906117f0919061368e565b115b61180e5760405162461bcd60e51b81526004016109c990613adf565b61181c606580546001019055565b600061182760655490565b6000818152606660209081526040909120828155875192935091611853916001840191908901906131e3565b506003810185905560068101805460ff19166001179055606d54611892576000828152606660205260409020600201805460ff191660011790556118ac565b6000828152606660205260409020600201805460ff191690555b60028101546040517ff7b10f12a6c66358a337baada438de41a306929aefcec529de156f2686eafd89916118e99185918a918a9160ff1690613b21565b60405180910390a183156119005761190082611c26565b5090505b9392505050565b60006001600160a01b03831660008051602061418c833981519152148061194e57506001600160a01b03831673c778417e063141139fce010982780140aa0cd5ab145b1561195a575080611219565b60405163bcfd032d60e01b81526001600160a01b038416600482015260008051602061418c833981519152602482015260009073f948fc3d6c2c2c866f622c79612bb4e8708883cf9063bcfd032d9060440160a06040518083038186803b1580156119c457600080fd5b505afa1580156119d8573d6000803e3d6000fd5b505050506040513d601f19601f820116820180604052508101906119fc9190613820565b50505091505060008113156112135780846001600160a01b031663313ce5676040518163ffffffff1660e01b815260040160206040518083038186803b158015611a4557600080fd5b505afa158015611a59573d6000803e3d6000fd5b505050506040513d601f19601f82011682018060405250810190611a7d9190613870565b611a8890600a613e97565b6112019085613fc8565b60006001600160a01b03821660008051602061418c8339815191521480611ad557506001600160a01b03821673c778417e063141139fce010982780140aa0cd5ab145b15611ae257506001919050565b60405163d2edb6dd60e01b81526001600160a01b038316600482015260008051602061418c833981519152602482015273f948fc3d6c2c2c866f622c79612bb4e8708883cf9063d2edb6dd9060440160206040518083038186803b158015611b4957600080fd5b505afa925050508015611b79575060408051601f3d908101601f19168201909252611b7691810190613715565b60015b611bb6573d808015611ba7576040519150601f19603f3d011682016040523d82523d6000602084013e611bac565b606091505b5060009392505050565b50600192915050565b606a546001600160a01b03163314611c245760405162461bcd60e51b815260206004820152602260248201527f4578656375746565206e6f742077686974656c697374656420696e2062756467604482015261195d60f21b60648201526084016109c9565b565b8060018060008381526066602052604090206002015460ff166003811115611c5057611c506140e0565b14611c9d5760405162461bcd60e51b815260206004820152601a60248201527f5472616e73616374696f6e2073746174757320696e76616c696400000000000060448201526064016109c9565b6000838152606660205260409020600301548390421115611cf65760405162461bcd60e51b8152602060048201526013602482015272151c985b9cd858dd1a5bdb88195e1c1a5c9959606a1b60448201526064016109c9565b607254421015611d485760405162461bcd60e51b815260206004820152601f60248201527f42756467657420757361676520706572696f64206e6f7420737461727465640060448201526064016109c9565b60735415611da1576073544210611da15760405162461bcd60e51b815260206004820152601d60248201527f42756467657420757361676520706572696f642068617320656e64656400000060448201526064016109c9565b6067546001600160a01b0316331480611e3c5750607454606854604051627eeac760e11b815233600482015260248101919091526000916001600160a01b03169062fdd58e9060440160206040518083038186803b158015611e0257600080fd5b505afa158015611e16573d6000803e3d6000fd5b505050506040513d601f19601f82011682018060405250810190611e3a919061368e565b115b611e585760405162461bcd60e51b81526004016109c990613adf565b60005b600085815260666020526040902060010154811015611fc65760705460ff1680611e8757506000607154115b611ed35760405162461bcd60e51b815260206004820152601c60248201527f457863656564656420627564676574207573616765206c696d6974200000000060448201526064016109c9565b60705460ff16611ef35760718054906000611eed8361404d565b91905055505b60008581526066602052604090206001018054611fb491879184908110611f1c57611f1c6140f6565b906000526020600020018054611f3190614064565b80601f0160208091040260200160405190810160405280929190818152602001828054611f5d90614064565b8015611faa5780601f10611f7f57610100808354040283529160200191611faa565b820191906000526020600020905b815481529060010190602001808311611f8d57829003601f168201915b50505050506129d1565b80611fbe81614099565b915050611e5b565b50600084815260666020526040908190206002808201805460ff1916909117905590517f9060adf413860c5ab6e376e0aa4269e49a13f0853edb1583fce8129d4c756d799161201c918791600101903390613b98565b60405180910390a150505050565b600054610100900460ff166120515760405162461bcd60e51b81526004016109c990613a94565b61205e60208201826134c5565b606980546001600160a01b03929092166001600160a01b0319928316179055606a80549091163317905561209860408201602083016134c5565b606780546001600160a01b0319166001600160a01b03929092169190911790556120c560c0820182613d2a565b6120d191606e91613240565b506120df60e0820182613d2a565b6120eb91606f91613240565b5060005b6120fc6060830183613cd9565b90508110156121e5576001606b60006121186060860186613cd9565b85818110612128576121286140f6565b905060200201602081019061213d91906134c5565b6001600160a01b031681526020810191909152604001600020805460ff19169115159190911790557f4664777dbfbcb27de0f602e1da5d5a259992cd7edf5b29192929c96e8fd50def6121936060840184613cd9565b838181106121a3576121a36140f6565b90506020020160208101906121b891906134c5565b6040516001600160a01b03909116815260200160405180910390a1806121dd81614099565b9150506120ef565b5060a0810135606d55608081013515158061221057506122086060820182613cd9565b9050606d5411155b6122545760405162461bcd60e51b8152602060048201526015602482015274125b9d985b1a5908185c1c1c9bdd995c881b1a5cdd605a1b60448201526064016109c9565b61010081013560725561012081013560735561227861016082016101408301613673565b6070805460ff19169115159190911790556101608101356071556122a46101a0820161018083016134c5565b607480546001600160a01b0319166001600160a01b0392909216919091179055604081013560685560800135606c55565b6001600160a01b03811660009081526076602052604090205460ff16156123505760405162461bcd60e51b815260206004820152602960248201527f4475706c696361746564206164647265737320696e20746172676574206164646044820152681c995cdcc81b1a5cdd60ba1b60648201526084016109c9565b6001600160a01b038116600081815260766020908152604091829020805460ff1916600117905590519182527ff11283a265d7a5f95fbc149dc65464f1f5be0151aac387fd76a938e1e55846049101610b98565b6001600160a01b03811660009081526078602052604090205460ff161561241b5760405162461bcd60e51b815260206004820152602560248201527f4475706c696361746564204974656d20696e20736f7572636520746f6b656e206044820152643634b9ba1760d91b60648201526084016109c9565b61242481611a92565b6124815760405162461bcd60e51b815260206004820152602860248201527f556e7265736f6c7661626c6520746f6b656e20696e2074617267657420746f6b60448201526732b7103634b9ba1760c11b60648201526084016109c9565b6077805460018082019092557f7901cb5addcae2d210a531c604a76a660d77039093bac314de0816a16392aff10180546001600160a01b0319166001600160a01b038416908117909155600081815260786020908152604091829020805460ff1916909417909355519081527f14009112f2dcb15cad32dab6bf972d6d85286e4ae1178f27323ffe25359459e69101610b98565b600054610100900460ff1661253c5760405162461bcd60e51b81526004016109c990613a94565b607580546001600160a01b0319166001600160a01b0392909216919091179055565b600054610100900460ff166125795760005460ff161561257d565b303b155b6125995760405162461bcd60e51b81526004016109c990613a46565b600054610100900460ff161580156125bb576000805461ffff19166101011790555b8015610f9a576000805461ff00191690555050565b7f4910fdfa16fed3260ed0e7147f7cc6da11a60208b5b9406d12a635614ffd91435460ff16156126085761260383612d7b565b505050565b826001600160a01b03166352d1902d6040518163ffffffff1660e01b815260040160206040518083038186803b15801561264157600080fd5b505afa925050508015612671575060408051601f3d908101601f1916820190925261266e9181019061368e565b60015b6126d45760405162461bcd60e51b815260206004820152602e60248201527f45524331393637557067726164653a206e657720696d706c656d656e7461746960448201526d6f6e206973206e6f74205555505360901b60648201526084016109c9565b60008051602061414783398151915281146127435760405162461bcd60e51b815260206004820152602960248201527f45524331393637557067726164653a20756e737570706f727465642070726f786044820152681a58589b195555525160ba1b60648201526084016109c9565b50612603838383612e17565b600060ff8216158015906127675750601260ff831611155b6127a75760405162461bcd60e51b8152602060048201526011602482015270496e76616c6964205f646563696d616c7360781b60448201526064016109c9565b60006127b760ff8416600a613e8b565b90506000856001600160a01b031663feaf968c6040518163ffffffff1660e01b815260040160a06040518083038186803b1580156127f457600080fd5b505afa158015612808573d6000803e3d6000fd5b505050506040513d601f19601f8201168201806040525081019061282c9190613820565b5050509150506000866001600160a01b031663313ce5676040518163ffffffff1660e01b815260040160206040518083038186803b15801561286d57600080fd5b505afa158015612881573d6000803e3d6000fd5b505050506040513d601f19601f820116820180604052508101906128a59190613870565b90506128b2828287612e42565b91506000866001600160a01b031663feaf968c6040518163ffffffff1660e01b815260040160a06040518083038186803b1580156128ef57600080fd5b505afa158015612903573d6000803e3d6000fd5b505050506040513d601f19601f820116820180604052508101906129279190613820565b5050509150506000876001600160a01b031663313ce5676040518163ffffffff1660e01b815260040160206040518083038186803b15801561296857600080fd5b505afa15801561297c573d6000803e3d6000fd5b505050506040513d601f19601f820116820180604052508101906129a09190613870565b90506129ad828289612e42565b9150816129ba8686613f43565b6129c49190613e06565b9998505050505050505050565b6000806000838060200190518101906129ea91906134e2565b9194509250905060006001600160a01b03841660008051602061418c8339815191521415612ab057606a5460405163d3abc28b60e01b81526001600160a01b0385811660048301526060602483015260006064830152604482018590529091169063d3abc28b90608401600060405180830381600087803b158015612a6e57600080fd5b505af1158015612a82573d6000803e3d6000fd5b505050506040513d6000823e601f3d908101601f19168201604052612aaa91908101906136a7565b50612b7c565b604080516001600160a01b038581166024830152604480830186905283518084039091018152606490920183526020820180516001600160e01b031663a9059cbb60e01b179052606a54925163d3abc28b60e01b81529192169063d3abc28b90612b2390889085906000906004016138f7565b600060405180830381600087803b158015612b3d57600080fd5b505af1158015612b51573d6000803e3d6000fd5b505050506040513d6000823e601f3d908101601f19168201604052612b7991908101906136a7565b50505b612b86848361121f565b607554909150600160a01b900460ff1680612bb957506001600160a01b03831660009081526076602052604090205460ff165b612c115760405162461bcd60e51b815260206004820152602360248201527f526563697069656e74206e6f742077686974656c697374656420696e2062756460448201526219d95d60ea1b60648201526084016109c9565b6001600160a01b03841660009081526078602052604090205460ff16612c795760405162461bcd60e51b815260206004820152601f60248201527f546f6b656e206e6f742077686974656c697374656420696e206275646765740060448201526064016109c9565b60795460ff1680612c8c5750607a548111155b612ce85760405162461bcd60e51b815260206004820152602760248201527f4578636565646564206d617820627564676574207472616e7366657261626c6560448201526608185b5bdd5b9d60ca1b60648201526084016109c9565b612cf181612eb3565b612d515760405162461bcd60e51b815260206004820152602b60248201527f4578636565646564206d617820627564676574207472616e7366657261626c6560448201526a2070657263656e7461676560a81b60648201526084016109c9565b60795460ff16612d735780607a6000828254612d6d9190613fe7565b90915550505b505050505050565b6001600160a01b0381163b612de85760405162461bcd60e51b815260206004820152602d60248201527f455243313936373a206e657720696d706c656d656e746174696f6e206973206e60448201526c1bdd08184818dbdb9d1c9858dd609a1b60648201526084016109c9565b60008051602061414783398151915280546001600160a01b0319166001600160a01b0392909216919091179055565b612e2083613076565b600082511180612e2d5750805b1561260357612e3c83836130b6565b50505050565b60008160ff168360ff161015612e7b57612e5c8383613ffe565b612e6a9060ff16600a613e8b565b612e749085613f43565b9050611904565b8160ff168360ff161115612eab57612e938284613ffe565b612ea19060ff16600a613e8b565b612e749085613e06565b509192915050565b607b5460009060ff1660641415612ecc57506001919050565b8160005b6077548110156130405760008051602061418c8339815191526001600160a01b031660778281548110612f0557612f056140f6565b6000918252602090912001546001600160a01b03161415612f5757606a54612f469060008051602061418c833981519152906001600160a01b03163161121f565b612f509083613dee565b915061302e565b61302160778281548110612f6d57612f6d6140f6565b600091825260209091200154607780546001600160a01b039092169184908110612f9957612f996140f6565b600091825260209091200154606a546040516370a0823160e01b81526001600160a01b0391821660048201529116906370a082319060240160206040518083038186803b158015612fe957600080fd5b505afa158015612ffd573d6000803e3d6000fd5b505050506040513d601f19601f820116820180604052508101906104fc919061368e565b61302b9083613dee565b91505b8061303881614099565b915050612ed0565b508061304f5750600092915050565b607b546064906130629060ff1683613fc8565b61306c9190613e34565b9092111592915050565b61307f81612d7b565b6040516001600160a01b038216907fbc7cd75a20ee27fd9adebab32041f755214dbc6bffa90cc0225b39da2e5c2d3b90600090a250565b60606001600160a01b0383163b61311e5760405162461bcd60e51b815260206004820152602660248201527f416464726573733a2064656c65676174652063616c6c20746f206e6f6e2d636f6044820152651b9d1c9858dd60d21b60648201526084016109c9565b600080846001600160a01b03168460405161313991906138db565b600060405180830381855af49150503d8060008114613174576040519150601f19603f3d011682016040523d82523d6000602084013e613179565b606091505b50915091506131a182826040518060600160405280602781526020016141ac602791396131aa565b95945050505050565b606083156131b9575081611904565b8251156131c95782518084602001fd5b8160405162461bcd60e51b81526004016109c9919061399b565b828054828255906000526020600020908101928215613230579160200282015b8281111561323057825180516132209184916020909101906132c0565b5091602001919060010190613203565b5061323c929150613334565b5090565b82805461324c90614064565b90600052602060002090601f01602090048101928261326e57600085556132b4565b82601f106132875782800160ff198235161785556132b4565b828001600101855582156132b4579182015b828111156132b4578235825591602001919060010190613299565b5061323c929150613351565b8280546132cc90614064565b90600052602060002090601f0160209004810192826132ee57600085556132b4565b82601f1061330757805160ff19168380011785556132b4565b828001600101855582156132b4579182015b828111156132b4578251825591602001919060010190613319565b8082111561323c5760006133488282613366565b50600101613334565b5b8082111561323c5760008155600101613352565b50805461337290614064565b6000825580601f10613382575050565b601f016020900490600052602060002090810190610eca9190613351565b80356115ba81614122565b600082601f8301126133bc57600080fd5b813560206133d16133cc83613da2565b613d71565b80838252828201915082860187848660051b89010111156133f157600080fd5b60005b8581101561341957813561340781614122565b845292840192908401906001016133f4565b5090979650505050505050565b803580151581146115ba57600080fd5b600082601f83011261344757600080fd5b81356134556133cc82613dc6565b81815284602083860101111561346a57600080fd5b816020850160208301376000918101602001919091529392505050565b60006101a0828403121561349a57600080fd5b50919050565b80356115ba81614137565b805169ffffffffffffffffffff811681146115ba57600080fd5b6000602082840312156134d757600080fd5b813561190481614122565b6000806000606084860312156134f757600080fd5b835161350281614122565b602085015190935061351381614122565b80925050604084015190509250925092565b6000806040838503121561353857600080fd5b823561354381614122565b9150602083013567ffffffffffffffff81111561355f57600080fd5b61356b85828601613436565b9150509250929050565b6000806040838503121561358857600080fd5b823561359381614122565b946020939093013593505050565b6000806000606084860312156135b657600080fd5b833567ffffffffffffffff808211156135ce57600080fd5b818601915086601f8301126135e257600080fd5b813560206135f26133cc83613da2565b8083825282820191508286018b848660051b890101111561361257600080fd5b6000805b8681101561364d5782358881111561362c578283fd5b61363a8f88838d0101613436565b8652509385019391850191600101613616565b50919950505050870135945061366a925050604086019050613426565b90509250925092565b60006020828403121561368557600080fd5b61190482613426565b6000602082840312156136a057600080fd5b5051919050565b6000602082840312156136b957600080fd5b815167ffffffffffffffff8111156136d057600080fd5b8201601f810184136136e157600080fd5b80516136ef6133cc82613dc6565b81815285602083850101111561370457600080fd5b6131a1826020830160208601614021565b60006020828403121561372757600080fd5b815161190481614122565b600080600080600080600080610100898b03121561374f57600080fd5b883567ffffffffffffffff8082111561376757600080fd5b6137738c838d01613487565b995061378160208c01613426565b985060408b013591508082111561379757600080fd5b6137a38c838d016133ab565b975060608b01359150808211156137b957600080fd5b506137c68b828c016133ab565b9550506137d560808a01613426565b935060a089013592506137ea60c08a016134a0565b91506137f860e08a016133a0565b90509295985092959890939650565b60006020828403121561381957600080fd5b5035919050565b600080600080600060a0868803121561383857600080fd5b613841866134ab565b9450602086015193506040860151925060608601519150613864608087016134ab565b90509295509295909350565b60006020828403121561388257600080fd5b815161190481614137565b600081518084526138a5816020860160208601614021565b601f01601f19169290920160200192915050565b600481106138d757634e487b7160e01b600052602160045260246000fd5b9052565b600082516138ed818460208701614021565b9190910192915050565b6001600160a01b038416815260606020820181905260009061391b9083018561388d565b9050826040830152949350505050565b6000602080830181845280855180835260408601915060408160051b870101925083870160005b8281101561398057603f1988860301845261396e85835161388d565b94509285019290850190600101613952565b5092979650505050505050565b6020810161121982846138b9565b602081526000611904602083018461388d565b6020808252602c908201527f46756e6374696f6e206d7573742062652063616c6c6564207468726f7567682060408201526b19195b1959d85d1958d85b1b60a21b606082015260800190565b6020808252602c908201527f46756e6374696f6e206d7573742062652063616c6c6564207468726f7567682060408201526b6163746976652070726f787960a01b606082015260800190565b6020808252602e908201527f496e697469616c697a61626c653a20636f6e747261637420697320616c72656160408201526d191e481a5b9a5d1a585b1a5e995960921b606082015260800190565b6020808252602b908201527f496e697469616c697a61626c653a20636f6e7472616374206973206e6f74206960408201526a6e697469616c697a696e6760a81b606082015260800190565b60208082526022908201527f4578656375746f72206e6f742077686974656c697374656420696e2062756467604082015261195d60f21b606082015260800190565b600060808201868352602060808185015281875180845260a08601915060a08160051b870101935082890160005b82811015613b7d57609f19888703018452613b6b86835161388d565b95509284019290840190600101613b4f565b50505050506040830185905290506131a160608301846138b9565b600060608201858352602060608185015281865480845260808601915060808160051b87010193506000888152838120815b83811015613c8157888703607f1901855281548390600181811c9080831680613bf457607f831692505b8a8310811415613c1257634e487b7160e01b88526022600452602488fd5b828c5260208c01818015613c2d5760018114613c3e57613c68565b60ff19861682528c82019650613c68565b6000898152602090208a5b86811015613c6257815484820152908501908e01613c49565b83019750505b50949b5050978901979490940193505050600101613bca565b5050506001600160a01b038716604087015250919250613c9f915050565b949350505050565b85815260a08101613cbb60208301876138b9565b84604083015283606083015282151560808301529695505050505050565b6000808335601e19843603018112613cf057600080fd5b83018035915067ffffffffffffffff821115613d0b57600080fd5b6020019150600581901b3603821315613d2357600080fd5b9250929050565b6000808335601e19843603018112613d4157600080fd5b83018035915067ffffffffffffffff821115613d5c57600080fd5b602001915036819003821315613d2357600080fd5b604051601f8201601f1916810167ffffffffffffffff81118282101715613d9a57613d9a61410c565b604052919050565b600067ffffffffffffffff821115613dbc57613dbc61410c565b5060051b60200190565b600067ffffffffffffffff821115613de057613de061410c565b50601f01601f191660200190565b60008219821115613e0157613e016140b4565b500190565b600082613e1557613e156140ca565b600160ff1b821460001984141615613e2f57613e2f6140b4565b500590565b600082613e4357613e436140ca565b500490565b600181815b80851115613e83578160001904821115613e6957613e696140b4565b80851615613e7657918102915b93841c9390800290613e4d565b509250929050565b60006119048383613ea2565b600061190460ff8416835b600082613eb157506001611219565b81613ebe57506000611219565b8160018114613ed45760028114613ede57613efa565b6001915050611219565b60ff841115613eef57613eef6140b4565b50506001821b611219565b5060208310610133831016604e8410600b8410161715613f1d575081810a611219565b613f278383613e48565b8060001904821115613f3b57613f3b6140b4565b029392505050565b60006001600160ff1b0381841382841380821686840486111615613f6957613f696140b4565b600160ff1b6000871282811687830589121615613f8857613f886140b4565b60008712925087820587128484161615613fa457613fa46140b4565b87850587128184161615613fba57613fba6140b4565b505050929093029392505050565b6000816000190483118215151615613fe257613fe26140b4565b500290565b600082821015613ff957613ff96140b4565b500390565b600060ff821660ff841680821015614018576140186140b4565b90039392505050565b60005b8381101561403c578181015183820152602001614024565b83811115612e3c5750506000910152565b60008161405c5761405c6140b4565b506000190190565b600181811c9082168061407857607f821691505b6020821081141561349a57634e487b7160e01b600052602260045260246000fd5b60006000198214156140ad576140ad6140b4565b5060010190565b634e487b7160e01b600052601160045260246000fd5b634e487b7160e01b600052601260045260246000fd5b634e487b7160e01b600052602160045260246000fd5b634e487b7160e01b600052603260045260246000fd5b634e487b7160e01b600052604160045260246000fd5b6001600160a01b0381168114610eca57600080fd5b60ff81168114610eca57600080fdfe360894a13ba1a3210667c828492db98dca3e2076cc3735a920a3ca505d382bbc5472616e73666572204c69717569642045524332302042756467657420417070726f76616c000000000000000000000000eeeeeeeeeeeeeeeeeeeeeeeeeeeeeeeeeeeeeeee416464726573733a206c6f772d6c6576656c2064656c65676174652063616c6c206661696c6564a2646970667358221220180c8dedf436787cfb32a1c7c9e6e141a563245a763befb695fd33239cda503864736f6c63430008070033",
  "devdoc": {
    "kind": "dev",
    "methods": {
      "proxiableUUID()": {
        "details": "Implementation of the ERC1822 {proxiableUUID} function. This returns the storage slot used by the implementation. It is used to validate that the this implementation remains valid after an upgrade. IMPORTANT: A proxy pointing at a proxiable contract should not be considered proxiable itself, because this risks bricking a proxy that upgrades to it, by delegating to itself until out of gas. Thus it is critical that this function revert if invoked through a proxy. This is guaranteed by the `notDelegated` modifier."
      },
      "upgradeTo(address)": {
        "details": "Upgrade the implementation of the proxy to `newImplementation`. Calls {_authorizeUpgrade}. Emits an {Upgraded} event."
      },
      "upgradeToAndCall(address,bytes)": {
        "details": "Upgrade the implementation of the proxy to `newImplementation`, and subsequently execute the function call encoded in `data`. Calls {_authorizeUpgrade}. Emits an {Upgraded} event."
      }
    },
    "version": 1
  },
  "userdoc": {
    "kind": "user",
    "methods": {},
    "version": 1
  },
  "storageLayout": {
    "storage": [
      {
        "astId": 2736,
        "contract": "contracts/TransferLiquidERC20BudgetApproval.sol:TransferLiquidERC20BudgetApproval",
        "label": "_initialized",
        "offset": 0,
        "slot": "0",
        "type": "t_bool"
      },
      {
        "astId": 2739,
        "contract": "contracts/TransferLiquidERC20BudgetApproval.sol:TransferLiquidERC20BudgetApproval",
        "label": "_initializing",
        "offset": 1,
        "slot": "0",
        "type": "t_bool"
      },
      {
        "astId": 2718,
        "contract": "contracts/TransferLiquidERC20BudgetApproval.sol:TransferLiquidERC20BudgetApproval",
        "label": "__gap",
        "offset": 0,
        "slot": "1",
        "type": "t_array(t_uint256)50_storage"
      },
      {
        "astId": 2938,
        "contract": "contracts/TransferLiquidERC20BudgetApproval.sol:TransferLiquidERC20BudgetApproval",
        "label": "__gap",
        "offset": 0,
        "slot": "51",
        "type": "t_array(t_uint256)50_storage"
      },
      {
        "astId": 21204,
        "contract": "contracts/TransferLiquidERC20BudgetApproval.sol:TransferLiquidERC20BudgetApproval",
        "label": "_transactionIds",
        "offset": 0,
        "slot": "101",
        "type": "t_struct(Counter)13987_storage"
      },
      {
        "astId": 21209,
        "contract": "contracts/TransferLiquidERC20BudgetApproval.sol:TransferLiquidERC20BudgetApproval",
        "label": "transactions",
        "offset": 0,
        "slot": "102",
        "type": "t_mapping(t_uint256,t_struct(Transaction)21154_storage)"
      },
      {
        "astId": 21214,
        "contract": "contracts/TransferLiquidERC20BudgetApproval.sol:TransferLiquidERC20BudgetApproval",
        "label": "executor",
        "offset": 0,
        "slot": "103",
        "type": "t_address"
      },
      {
        "astId": 21216,
        "contract": "contracts/TransferLiquidERC20BudgetApproval.sol:TransferLiquidERC20BudgetApproval",
        "label": "executorTeamId",
        "offset": 0,
        "slot": "104",
        "type": "t_uint256"
      },
      {
        "astId": 21218,
        "contract": "contracts/TransferLiquidERC20BudgetApproval.sol:TransferLiquidERC20BudgetApproval",
        "label": "dao",
        "offset": 0,
        "slot": "105",
        "type": "t_address_payable"
      },
      {
        "astId": 21220,
        "contract": "contracts/TransferLiquidERC20BudgetApproval.sol:TransferLiquidERC20BudgetApproval",
        "label": "executee",
        "offset": 0,
        "slot": "106",
        "type": "t_address"
      },
      {
        "astId": 21224,
        "contract": "contracts/TransferLiquidERC20BudgetApproval.sol:TransferLiquidERC20BudgetApproval",
        "label": "approversMapping",
        "offset": 0,
        "slot": "107",
        "type": "t_mapping(t_address,t_bool)"
      },
      {
        "astId": 21226,
        "contract": "contracts/TransferLiquidERC20BudgetApproval.sol:TransferLiquidERC20BudgetApproval",
        "label": "approverTeamId",
        "offset": 0,
        "slot": "108",
        "type": "t_uint256"
      },
      {
        "astId": 21228,
        "contract": "contracts/TransferLiquidERC20BudgetApproval.sol:TransferLiquidERC20BudgetApproval",
        "label": "minApproval",
        "offset": 0,
        "slot": "109",
        "type": "t_uint256"
      },
      {
        "astId": 21230,
        "contract": "contracts/TransferLiquidERC20BudgetApproval.sol:TransferLiquidERC20BudgetApproval",
        "label": "text",
        "offset": 0,
        "slot": "110",
        "type": "t_string_storage"
      },
      {
        "astId": 21232,
        "contract": "contracts/TransferLiquidERC20BudgetApproval.sol:TransferLiquidERC20BudgetApproval",
        "label": "transactionType",
        "offset": 0,
        "slot": "111",
        "type": "t_string_storage"
      },
      {
        "astId": 21234,
        "contract": "contracts/TransferLiquidERC20BudgetApproval.sol:TransferLiquidERC20BudgetApproval",
        "label": "allowUnlimitedUsageCount",
        "offset": 0,
        "slot": "112",
        "type": "t_bool"
      },
      {
        "astId": 21236,
        "contract": "contracts/TransferLiquidERC20BudgetApproval.sol:TransferLiquidERC20BudgetApproval",
        "label": "usageCount",
        "offset": 0,
        "slot": "113",
        "type": "t_uint256"
      },
      {
        "astId": 21238,
        "contract": "contracts/TransferLiquidERC20BudgetApproval.sol:TransferLiquidERC20BudgetApproval",
        "label": "startTime",
        "offset": 0,
        "slot": "114",
        "type": "t_uint256"
      },
      {
        "astId": 21240,
        "contract": "contracts/TransferLiquidERC20BudgetApproval.sol:TransferLiquidERC20BudgetApproval",
        "label": "endTime",
        "offset": 0,
        "slot": "115",
        "type": "t_uint256"
      },
      {
        "astId": 21242,
        "contract": "contracts/TransferLiquidERC20BudgetApproval.sol:TransferLiquidERC20BudgetApproval",
        "label": "team",
        "offset": 0,
        "slot": "116",
        "type": "t_address"
      },
      {
        "astId": 21877,
        "contract": "contracts/TransferLiquidERC20BudgetApproval.sol:TransferLiquidERC20BudgetApproval",
        "label": "baseCurrency",
        "offset": 0,
        "slot": "117",
        "type": "t_address"
      },
      {
        "astId": 20030,
        "contract": "contracts/TransferLiquidERC20BudgetApproval.sol:TransferLiquidERC20BudgetApproval",
        "label": "allowAllAddresses",
        "offset": 20,
        "slot": "117",
        "type": "t_bool"
      },
      {
        "astId": 20034,
        "contract": "contracts/TransferLiquidERC20BudgetApproval.sol:TransferLiquidERC20BudgetApproval",
        "label": "addressesMapping",
        "offset": 0,
        "slot": "118",
        "type": "t_mapping(t_address,t_bool)"
      },
      {
        "astId": 20037,
        "contract": "contracts/TransferLiquidERC20BudgetApproval.sol:TransferLiquidERC20BudgetApproval",
        "label": "tokens",
        "offset": 0,
        "slot": "119",
        "type": "t_array(t_address)dyn_storage"
      },
      {
        "astId": 20041,
        "contract": "contracts/TransferLiquidERC20BudgetApproval.sol:TransferLiquidERC20BudgetApproval",
        "label": "tokensMapping",
        "offset": 0,
        "slot": "120",
        "type": "t_mapping(t_address,t_bool)"
      },
      {
        "astId": 20043,
        "contract": "contracts/TransferLiquidERC20BudgetApproval.sol:TransferLiquidERC20BudgetApproval",
        "label": "allowAnyAmount",
        "offset": 0,
        "slot": "121",
        "type": "t_bool"
      },
      {
        "astId": 20045,
        "contract": "contracts/TransferLiquidERC20BudgetApproval.sol:TransferLiquidERC20BudgetApproval",
        "label": "totalAmount",
        "offset": 0,
        "slot": "122",
        "type": "t_uint256"
      },
      {
        "astId": 20047,
        "contract": "contracts/TransferLiquidERC20BudgetApproval.sol:TransferLiquidERC20BudgetApproval",
        "label": "amountPercentage",
        "offset": 0,
        "slot": "123",
        "type": "t_uint8"
      }
    ],
    "types": {
      "t_address": {
        "encoding": "inplace",
        "label": "address",
        "numberOfBytes": "20"
      },
      "t_address_payable": {
        "encoding": "inplace",
        "label": "address payable",
        "numberOfBytes": "20"
      },
      "t_array(t_address)dyn_storage": {
        "base": "t_address",
        "encoding": "dynamic_array",
        "label": "address[]",
        "numberOfBytes": "32"
      },
      "t_array(t_bytes_storage)dyn_storage": {
        "base": "t_bytes_storage",
        "encoding": "dynamic_array",
        "label": "bytes[]",
        "numberOfBytes": "32"
      },
      "t_array(t_uint256)50_storage": {
        "base": "t_uint256",
        "encoding": "inplace",
        "label": "uint256[50]",
        "numberOfBytes": "1600"
      },
      "t_bool": {
        "encoding": "inplace",
        "label": "bool",
        "numberOfBytes": "1"
      },
      "t_bytes_storage": {
        "encoding": "bytes",
        "label": "bytes",
        "numberOfBytes": "32"
      },
      "t_enum(Status)21135": {
        "encoding": "inplace",
        "label": "enum CommonBudgetApproval.Status",
        "numberOfBytes": "1"
      },
      "t_mapping(t_address,t_bool)": {
        "encoding": "mapping",
        "key": "t_address",
        "label": "mapping(address => bool)",
        "numberOfBytes": "32",
        "value": "t_bool"
      },
      "t_mapping(t_uint256,t_struct(Transaction)21154_storage)": {
        "encoding": "mapping",
        "key": "t_uint256",
        "label": "mapping(uint256 => struct CommonBudgetApproval.Transaction)",
        "numberOfBytes": "32",
        "value": "t_struct(Transaction)21154_storage"
      },
      "t_string_storage": {
        "encoding": "bytes",
        "label": "string",
        "numberOfBytes": "32"
      },
      "t_struct(Counter)13987_storage": {
        "encoding": "inplace",
        "label": "struct Counters.Counter",
        "members": [
          {
            "astId": 13986,
            "contract": "contracts/TransferLiquidERC20BudgetApproval.sol:TransferLiquidERC20BudgetApproval",
            "label": "_value",
            "offset": 0,
            "slot": "0",
            "type": "t_uint256"
          }
        ],
        "numberOfBytes": "32"
      },
      "t_struct(Transaction)21154_storage": {
        "encoding": "inplace",
        "label": "struct CommonBudgetApproval.Transaction",
        "members": [
          {
            "astId": 21137,
            "contract": "contracts/TransferLiquidERC20BudgetApproval.sol:TransferLiquidERC20BudgetApproval",
            "label": "id",
            "offset": 0,
            "slot": "0",
            "type": "t_uint256"
          },
          {
            "astId": 21140,
            "contract": "contracts/TransferLiquidERC20BudgetApproval.sol:TransferLiquidERC20BudgetApproval",
            "label": "data",
            "offset": 0,
            "slot": "1",
            "type": "t_array(t_bytes_storage)dyn_storage"
          },
          {
            "astId": 21143,
            "contract": "contracts/TransferLiquidERC20BudgetApproval.sol:TransferLiquidERC20BudgetApproval",
            "label": "status",
            "offset": 0,
            "slot": "2",
            "type": "t_enum(Status)21135"
          },
          {
            "astId": 21145,
            "contract": "contracts/TransferLiquidERC20BudgetApproval.sol:TransferLiquidERC20BudgetApproval",
            "label": "deadline",
            "offset": 0,
            "slot": "3",
            "type": "t_uint256"
          },
          {
            "astId": 21149,
            "contract": "contracts/TransferLiquidERC20BudgetApproval.sol:TransferLiquidERC20BudgetApproval",
            "label": "approved",
            "offset": 0,
            "slot": "4",
            "type": "t_mapping(t_address,t_bool)"
          },
          {
            "astId": 21151,
            "contract": "contracts/TransferLiquidERC20BudgetApproval.sol:TransferLiquidERC20BudgetApproval",
            "label": "approvedCount",
            "offset": 0,
            "slot": "5",
            "type": "t_uint256"
          },
          {
            "astId": 21153,
            "contract": "contracts/TransferLiquidERC20BudgetApproval.sol:TransferLiquidERC20BudgetApproval",
            "label": "isExist",
            "offset": 0,
            "slot": "6",
            "type": "t_bool"
          }
        ],
        "numberOfBytes": "224"
      },
      "t_uint256": {
        "encoding": "inplace",
        "label": "uint256",
        "numberOfBytes": "32"
      },
      "t_uint8": {
        "encoding": "inplace",
        "label": "uint8",
        "numberOfBytes": "1"
      }
    }
  }
}