{
  "address": "0xce4b6a5b59a56932a6c8c9caa4b870f6db324a71",
  "abi": [
    {
      "anonymous": false,
      "inputs": [
        {
          "indexed": false,
          "internalType": "address",
          "name": "previousAdmin",
          "type": "address"
        },
        {
          "indexed": false,
          "internalType": "address",
          "name": "newAdmin",
          "type": "address"
        }
      ],
      "name": "AdminChanged",
      "type": "event"
    },
    {
      "anonymous": false,
      "inputs": [
        {
          "indexed": false,
          "internalType": "address",
          "name": "target",
          "type": "address"
        }
      ],
      "name": "AllowAddress",
      "type": "event"
    },
    {
      "anonymous": false,
      "inputs": [
        {
          "indexed": false,
          "internalType": "uint256",
          "name": "amount",
          "type": "uint256"
        }
      ],
      "name": "AllowAmount",
      "type": "event"
    },
    {
      "anonymous": false,
      "inputs": [
        {
          "indexed": false,
          "internalType": "address",
          "name": "token",
          "type": "address"
        }
      ],
      "name": "AllowToToken",
      "type": "event"
    },
    {
      "anonymous": false,
      "inputs": [
        {
          "indexed": false,
          "internalType": "address",
          "name": "token",
          "type": "address"
        }
      ],
      "name": "AllowToken",
      "type": "event"
    },
    {
      "anonymous": false,
      "inputs": [
        {
          "indexed": false,
          "internalType": "uint256",
          "name": "id",
          "type": "uint256"
        },
        {
          "indexed": false,
          "internalType": "address",
          "name": "approver",
          "type": "address"
        }
      ],
      "name": "ApproveTransaction",
      "type": "event"
    },
    {
      "anonymous": false,
      "inputs": [
        {
          "indexed": true,
          "internalType": "address",
          "name": "beacon",
          "type": "address"
        }
      ],
      "name": "BeaconUpgraded",
      "type": "event"
    },
    {
      "anonymous": false,
      "inputs": [
        {
          "indexed": false,
          "internalType": "uint256",
          "name": "id",
          "type": "uint256"
        },
        {
          "indexed": false,
          "internalType": "bytes[]",
          "name": "data",
          "type": "bytes[]"
        },
        {
          "indexed": false,
          "internalType": "uint256",
          "name": "deadline",
          "type": "uint256"
        },
        {
          "indexed": false,
          "internalType": "enum CommonBudgetApproval.Status",
          "name": "status",
          "type": "uint8"
        }
      ],
      "name": "CreateTransaction",
      "type": "event"
    },
    {
      "anonymous": false,
      "inputs": [
        {
          "indexed": false,
          "internalType": "uint256",
          "name": "id",
          "type": "uint256"
        },
        {
          "indexed": false,
          "internalType": "bytes[]",
          "name": "data",
          "type": "bytes[]"
        },
        {
          "indexed": false,
          "internalType": "address",
          "name": "executor",
          "type": "address"
        }
      ],
      "name": "ExecuteTransaction",
      "type": "event"
    },
    {
      "anonymous": false,
      "inputs": [
        {
          "indexed": false,
          "internalType": "uint256",
          "name": "id",
          "type": "uint256"
        },
        {
          "indexed": false,
          "internalType": "address",
          "name": "tokenIn",
          "type": "address"
        },
        {
          "indexed": false,
          "internalType": "address",
          "name": "tokenOut",
          "type": "address"
        },
        {
          "indexed": false,
          "internalType": "uint256",
          "name": "amountIn",
          "type": "uint256"
        },
        {
          "indexed": false,
          "internalType": "uint256",
          "name": "amountOut",
          "type": "uint256"
        },
        {
          "indexed": false,
          "internalType": "address",
          "name": "toAddress",
          "type": "address"
        }
      ],
      "name": "ExecuteUniswapTransaction",
      "type": "event"
    },
    {
      "anonymous": false,
      "inputs": [
        {
          "indexed": false,
          "internalType": "uint256",
          "name": "id",
          "type": "uint256"
        }
      ],
      "name": "RevokeTransaction",
      "type": "event"
    },
    {
      "anonymous": false,
      "inputs": [
        {
          "indexed": false,
          "internalType": "address",
          "name": "approver",
          "type": "address"
        }
      ],
      "name": "SetApprover",
      "type": "event"
    },
    {
      "anonymous": false,
      "inputs": [
        {
          "indexed": true,
          "internalType": "address",
          "name": "implementation",
          "type": "address"
        }
      ],
      "name": "Upgraded",
      "type": "event"
    },
    {
      "inputs": [],
      "name": "ETH_ADDRESS",
      "outputs": [
        {
          "internalType": "address",
          "name": "",
          "type": "address"
        }
      ],
      "stateMutability": "view",
      "type": "function"
    },
    {
      "inputs": [],
      "name": "afterInitialized",
      "outputs": [],
      "stateMutability": "nonpayable",
      "type": "function"
    },
    {
      "inputs": [],
      "name": "allowAllAddresses",
      "outputs": [
        {
          "internalType": "bool",
          "name": "",
          "type": "bool"
        }
      ],
      "stateMutability": "view",
      "type": "function"
    },
    {
      "inputs": [],
      "name": "allowAllToTokens",
      "outputs": [
        {
          "internalType": "bool",
          "name": "",
          "type": "bool"
        }
      ],
      "stateMutability": "view",
      "type": "function"
    },
    {
      "inputs": [],
      "name": "allowAnyAmount",
      "outputs": [
        {
          "internalType": "bool",
          "name": "",
          "type": "bool"
        }
      ],
      "stateMutability": "view",
      "type": "function"
    },
    {
      "inputs": [],
      "name": "allowUnlimitedUsageCount",
      "outputs": [
        {
          "internalType": "bool",
          "name": "",
          "type": "bool"
        }
      ],
      "stateMutability": "view",
      "type": "function"
    },
    {
      "inputs": [],
      "name": "amountPercentage",
      "outputs": [
        {
          "internalType": "uint8",
          "name": "",
          "type": "uint8"
        }
      ],
      "stateMutability": "view",
      "type": "function"
    },
    {
      "inputs": [
        {
          "internalType": "uint256",
          "name": "id",
          "type": "uint256"
        }
      ],
      "name": "approveTransaction",
      "outputs": [],
      "stateMutability": "nonpayable",
      "type": "function"
    },
    {
      "inputs": [
        {
          "internalType": "uint256",
          "name": "id",
          "type": "uint256"
        }
      ],
      "name": "approvedCountOf",
      "outputs": [
        {
          "internalType": "uint256",
          "name": "",
          "type": "uint256"
        }
      ],
      "stateMutability": "view",
      "type": "function"
    },
    {
      "inputs": [],
      "name": "approverTeamId",
      "outputs": [
        {
          "internalType": "uint256",
          "name": "",
          "type": "uint256"
        }
      ],
      "stateMutability": "view",
      "type": "function"
    },
    {
      "inputs": [
        {
          "internalType": "address",
          "name": "",
          "type": "address"
        }
      ],
      "name": "approversMapping",
      "outputs": [
        {
          "internalType": "bool",
          "name": "",
          "type": "bool"
        }
      ],
      "stateMutability": "view",
      "type": "function"
    },
    {
      "inputs": [
        {
          "internalType": "address",
          "name": "asset",
          "type": "address"
        },
        {
          "internalType": "uint256",
          "name": "amount",
          "type": "uint256"
        }
      ],
      "name": "assetBaseCurrencyPrice",
      "outputs": [
        {
          "internalType": "uint256",
          "name": "",
          "type": "uint256"
        }
      ],
      "stateMutability": "view",
      "type": "function"
    },
    {
      "inputs": [
        {
          "internalType": "address",
          "name": "asset",
          "type": "address"
        },
        {
          "internalType": "uint256",
          "name": "amount",
          "type": "uint256"
        }
      ],
      "name": "assetEthPrice",
      "outputs": [
        {
          "internalType": "uint256",
          "name": "",
          "type": "uint256"
        }
      ],
      "stateMutability": "view",
      "type": "function"
    },
    {
      "inputs": [],
      "name": "baseCurrency",
      "outputs": [
        {
          "internalType": "address",
          "name": "",
          "type": "address"
        }
      ],
      "stateMutability": "view",
      "type": "function"
    },
    {
      "inputs": [],
      "name": "baseCurrencyDecimals",
      "outputs": [
        {
          "internalType": "uint8",
          "name": "",
          "type": "uint8"
        }
      ],
      "stateMutability": "view",
      "type": "function"
    },
    {
      "inputs": [
        {
          "internalType": "address",
          "name": "asset",
          "type": "address"
        }
      ],
      "name": "canResolvePrice",
      "outputs": [
        {
          "internalType": "bool",
          "name": "",
          "type": "bool"
        }
      ],
      "stateMutability": "view",
      "type": "function"
    },
    {
      "inputs": [
        {
          "internalType": "bytes[]",
          "name": "_data",
          "type": "bytes[]"
        },
        {
          "internalType": "uint256",
          "name": "_deadline",
          "type": "uint256"
        },
        {
          "internalType": "bool",
          "name": "_isExecute",
          "type": "bool"
        }
      ],
      "name": "createTransaction",
      "outputs": [
        {
          "internalType": "uint256",
          "name": "",
          "type": "uint256"
        }
      ],
      "stateMutability": "nonpayable",
      "type": "function"
    },
    {
      "inputs": [],
      "name": "dao",
      "outputs": [
        {
          "internalType": "address payable",
          "name": "",
          "type": "address"
        }
      ],
      "stateMutability": "view",
      "type": "function"
    },
    {
      "inputs": [
        {
          "internalType": "uint256",
          "name": "id",
          "type": "uint256"
        }
      ],
      "name": "deadlineOf",
      "outputs": [
        {
          "internalType": "uint256",
          "name": "",
          "type": "uint256"
        }
      ],
      "stateMutability": "view",
      "type": "function"
    },
    {
      "inputs": [
        {
          "internalType": "address",
          "name": "to",
          "type": "address"
        },
        {
          "internalType": "bytes",
          "name": "_data",
          "type": "bytes"
        },
        {
          "internalType": "uint256",
          "name": "amount",
          "type": "uint256"
        },
        {
          "internalType": "bytes",
          "name": "swapResult",
          "type": "bytes"
        }
      ],
      "name": "decodeUniswapDataAfterSwap",
      "outputs": [
        {
          "internalType": "address",
          "name": "tokenIn",
          "type": "address"
        },
        {
          "internalType": "address",
          "name": "tokenOut",
          "type": "address"
        },
        {
          "internalType": "uint256",
          "name": "amountIn",
          "type": "uint256"
        },
        {
          "internalType": "uint256",
          "name": "amountOut",
          "type": "uint256"
        },
        {
          "internalType": "bool",
          "name": "estimatedIn",
          "type": "bool"
        },
        {
          "internalType": "bool",
          "name": "estimatedOut",
          "type": "bool"
        }
      ],
      "stateMutability": "view",
      "type": "function"
    },
    {
      "inputs": [
        {
          "internalType": "address",
          "name": "to",
          "type": "address"
        },
        {
          "internalType": "bytes",
          "name": "_data",
          "type": "bytes"
        },
        {
          "internalType": "uint256",
          "name": "amount",
          "type": "uint256"
        }
      ],
      "name": "decodeUniswapDataBeforeSwap",
      "outputs": [
        {
          "internalType": "address",
          "name": "tokenIn",
          "type": "address"
        },
        {
          "internalType": "address",
          "name": "tokenOut",
          "type": "address"
        },
        {
          "internalType": "uint256",
          "name": "amountIn",
          "type": "uint256"
        },
        {
          "internalType": "uint256",
          "name": "amountOut",
          "type": "uint256"
        },
        {
          "internalType": "bool",
          "name": "estimatedIn",
          "type": "bool"
        },
        {
          "internalType": "bool",
          "name": "estimatedOut",
          "type": "bool"
        }
      ],
      "stateMutability": "view",
      "type": "function"
    },
    {
      "inputs": [],
      "name": "endTime",
      "outputs": [
        {
          "internalType": "uint256",
          "name": "",
          "type": "uint256"
        }
      ],
      "stateMutability": "view",
      "type": "function"
    },
    {
      "inputs": [
        {
          "internalType": "address",
          "name": "asset",
          "type": "address"
        },
        {
          "internalType": "uint256",
          "name": "ethAmount",
          "type": "uint256"
        }
      ],
      "name": "ethAssetPrice",
      "outputs": [
        {
          "internalType": "uint256",
          "name": "",
          "type": "uint256"
        }
      ],
      "stateMutability": "view",
      "type": "function"
    },
    {
      "inputs": [
        {
          "components": [
            {
              "internalType": "bytes",
              "name": "path",
              "type": "bytes"
            },
            {
              "internalType": "address",
              "name": "recipient",
              "type": "address"
            },
            {
              "internalType": "uint256",
              "name": "amountIn",
              "type": "uint256"
            },
            {
              "internalType": "uint256",
              "name": "amountOutMinimum",
              "type": "uint256"
            }
          ],
          "internalType": "struct UniswapSwapper.ExactInputParams",
          "name": "params",
          "type": "tuple"
        }
      ],
      "name": "exactInput",
      "outputs": [
        {
          "internalType": "address",
          "name": "",
          "type": "address"
        },
        {
          "internalType": "address",
          "name": "",
          "type": "address"
        },
        {
          "internalType": "uint256",
          "name": "",
          "type": "uint256"
        },
        {
          "internalType": "uint256",
          "name": "",
          "type": "uint256"
        },
        {
          "internalType": "bool",
          "name": "",
          "type": "bool"
        },
        {
          "internalType": "bool",
          "name": "",
          "type": "bool"
        }
      ],
      "stateMutability": "pure",
      "type": "function"
    },
    {
      "inputs": [
        {
          "components": [
            {
              "internalType": "address",
              "name": "tokenIn",
              "type": "address"
            },
            {
              "internalType": "address",
              "name": "tokenOut",
              "type": "address"
            },
            {
              "internalType": "uint24",
              "name": "fee",
              "type": "uint24"
            },
            {
              "internalType": "address",
              "name": "recipient",
              "type": "address"
            },
            {
              "internalType": "uint256",
              "name": "amountIn",
              "type": "uint256"
            },
            {
              "internalType": "uint256",
              "name": "amountOutMinimum",
              "type": "uint256"
            },
            {
              "internalType": "uint160",
              "name": "sqrtPriceLimitX96",
              "type": "uint160"
            }
          ],
          "internalType": "struct UniswapSwapper.ExactInputSingleParams",
          "name": "params",
          "type": "tuple"
        }
      ],
      "name": "exactInputSingle",
      "outputs": [
        {
          "internalType": "address",
          "name": "",
          "type": "address"
        },
        {
          "internalType": "address",
          "name": "",
          "type": "address"
        },
        {
          "internalType": "uint256",
          "name": "",
          "type": "uint256"
        },
        {
          "internalType": "uint256",
          "name": "",
          "type": "uint256"
        },
        {
          "internalType": "bool",
          "name": "",
          "type": "bool"
        },
        {
          "internalType": "bool",
          "name": "",
          "type": "bool"
        }
      ],
      "stateMutability": "pure",
      "type": "function"
    },
    {
      "inputs": [
        {
          "components": [
            {
              "internalType": "bytes",
              "name": "path",
              "type": "bytes"
            },
            {
              "internalType": "address",
              "name": "recipient",
              "type": "address"
            },
            {
              "internalType": "uint256",
              "name": "amountOut",
              "type": "uint256"
            },
            {
              "internalType": "uint256",
              "name": "amountInMaximum",
              "type": "uint256"
            }
          ],
          "internalType": "struct UniswapSwapper.ExactOutputParams",
          "name": "params",
          "type": "tuple"
        }
      ],
      "name": "exactOutput",
      "outputs": [
        {
          "internalType": "address",
          "name": "",
          "type": "address"
        },
        {
          "internalType": "address",
          "name": "",
          "type": "address"
        },
        {
          "internalType": "uint256",
          "name": "",
          "type": "uint256"
        },
        {
          "internalType": "uint256",
          "name": "",
          "type": "uint256"
        },
        {
          "internalType": "bool",
          "name": "",
          "type": "bool"
        },
        {
          "internalType": "bool",
          "name": "",
          "type": "bool"
        }
      ],
      "stateMutability": "pure",
      "type": "function"
    },
    {
      "inputs": [
        {
          "components": [
            {
              "internalType": "address",
              "name": "tokenIn",
              "type": "address"
            },
            {
              "internalType": "address",
              "name": "tokenOut",
              "type": "address"
            },
            {
              "internalType": "uint24",
              "name": "fee",
              "type": "uint24"
            },
            {
              "internalType": "address",
              "name": "recipient",
              "type": "address"
            },
            {
              "internalType": "uint256",
              "name": "amountOut",
              "type": "uint256"
            },
            {
              "internalType": "uint256",
              "name": "amountInMaximum",
              "type": "uint256"
            },
            {
              "internalType": "uint160",
              "name": "sqrtPriceLimitX96",
              "type": "uint160"
            }
          ],
          "internalType": "struct UniswapSwapper.ExactOutputSingleParams",
          "name": "params",
          "type": "tuple"
        }
      ],
      "name": "exactOutputSingle",
      "outputs": [
        {
          "internalType": "address",
          "name": "",
          "type": "address"
        },
        {
          "internalType": "address",
          "name": "",
          "type": "address"
        },
        {
          "internalType": "uint256",
          "name": "",
          "type": "uint256"
        },
        {
          "internalType": "uint256",
          "name": "",
          "type": "uint256"
        },
        {
          "internalType": "bool",
          "name": "",
          "type": "bool"
        },
        {
          "internalType": "bool",
          "name": "",
          "type": "bool"
        }
      ],
      "stateMutability": "pure",
      "type": "function"
    },
    {
      "inputs": [],
      "name": "executeParams",
      "outputs": [
        {
          "internalType": "string[]",
          "name": "",
          "type": "string[]"
        }
      ],
      "stateMutability": "pure",
      "type": "function"
    },
    {
      "inputs": [
        {
          "internalType": "uint256",
          "name": "id",
          "type": "uint256"
        }
      ],
      "name": "executeTransaction",
      "outputs": [],
      "stateMutability": "nonpayable",
      "type": "function"
    },
    {
      "inputs": [],
      "name": "executee",
      "outputs": [
        {
          "internalType": "address",
          "name": "",
          "type": "address"
        }
      ],
      "stateMutability": "view",
      "type": "function"
    },
    {
      "inputs": [],
      "name": "executor",
      "outputs": [
        {
          "internalType": "address",
          "name": "",
          "type": "address"
        }
      ],
      "stateMutability": "view",
      "type": "function"
    },
    {
      "inputs": [],
      "name": "executorTeamId",
      "outputs": [
        {
          "internalType": "uint256",
          "name": "",
          "type": "uint256"
        }
      ],
      "stateMutability": "view",
      "type": "function"
    },
    {
      "inputs": [
        {
          "internalType": "uint256",
          "name": "",
          "type": "uint256"
        }
      ],
      "name": "fromTokens",
      "outputs": [
        {
          "internalType": "address",
          "name": "",
          "type": "address"
        }
      ],
      "stateMutability": "view",
      "type": "function"
    },
    {
      "inputs": [
        {
          "internalType": "address",
          "name": "",
          "type": "address"
        }
      ],
      "name": "fromTokensMapping",
      "outputs": [
        {
          "internalType": "bool",
          "name": "",
          "type": "bool"
        }
      ],
      "stateMutability": "view",
      "type": "function"
    },
    {
      "inputs": [
        {
          "components": [
            {
              "internalType": "address",
              "name": "dao",
              "type": "address"
            },
            {
              "internalType": "address",
              "name": "executor",
              "type": "address"
            },
            {
              "internalType": "uint256",
              "name": "executorTeamId",
              "type": "uint256"
            },
            {
              "internalType": "address[]",
              "name": "approvers",
              "type": "address[]"
            },
            {
              "internalType": "uint256",
              "name": "approverTeamId",
              "type": "uint256"
            },
            {
              "internalType": "uint256",
              "name": "minApproval",
              "type": "uint256"
            },
            {
              "internalType": "string",
              "name": "text",
              "type": "string"
            },
            {
              "internalType": "string",
              "name": "transactionType",
              "type": "string"
            },
            {
              "internalType": "uint256",
              "name": "startTime",
              "type": "uint256"
            },
            {
              "internalType": "uint256",
              "name": "endTime",
              "type": "uint256"
            },
            {
              "internalType": "bool",
              "name": "allowUnlimitedUsageCount",
              "type": "bool"
            },
            {
              "internalType": "uint256",
              "name": "usageCount",
              "type": "uint256"
            },
            {
              "internalType": "address",
              "name": "team",
              "type": "address"
            }
          ],
          "internalType": "struct CommonBudgetApproval.InitializeParams",
          "name": "params",
          "type": "tuple"
        },
        {
          "internalType": "address[]",
          "name": "_fromTokens",
          "type": "address[]"
        },
        {
          "internalType": "bool",
          "name": "_allowAllToTokens",
          "type": "bool"
        },
        {
          "internalType": "address[]",
          "name": "_toTokens",
          "type": "address[]"
        },
        {
          "internalType": "bool",
          "name": "_allowAnyAmount",
          "type": "bool"
        },
        {
          "internalType": "uint256",
          "name": "_totalAmount",
          "type": "uint256"
        },
        {
          "internalType": "uint8",
          "name": "_amountPercentage",
          "type": "uint8"
        },
        {
          "internalType": "address",
          "name": "_baseCurrency",
          "type": "address"
        }
      ],
      "name": "initialize",
      "outputs": [],
      "stateMutability": "nonpayable",
      "type": "function"
    },
    {
      "inputs": [],
      "name": "minApproval",
      "outputs": [
        {
          "internalType": "uint256",
          "name": "",
          "type": "uint256"
        }
      ],
      "stateMutability": "view",
      "type": "function"
    },
    {
      "inputs": [],
      "name": "name",
      "outputs": [
        {
          "internalType": "string",
          "name": "",
          "type": "string"
        }
      ],
      "stateMutability": "view",
      "type": "function"
    },
    {
      "inputs": [],
      "name": "proxiableUUID",
      "outputs": [
        {
          "internalType": "bytes32",
          "name": "",
          "type": "bytes32"
        }
      ],
      "stateMutability": "view",
      "type": "function"
    },
    {
      "inputs": [
        {
          "internalType": "uint256",
          "name": "id",
          "type": "uint256"
        }
      ],
      "name": "revokeTransaction",
      "outputs": [],
      "stateMutability": "nonpayable",
      "type": "function"
    },
    {
      "inputs": [],
      "name": "startTime",
      "outputs": [
        {
          "internalType": "uint256",
          "name": "",
          "type": "uint256"
        }
      ],
      "stateMutability": "view",
      "type": "function"
    },
    {
      "inputs": [
        {
          "internalType": "uint256",
          "name": "id",
          "type": "uint256"
        }
      ],
      "name": "statusOf",
      "outputs": [
        {
          "internalType": "enum CommonBudgetApproval.Status",
          "name": "",
          "type": "uint8"
        }
      ],
      "stateMutability": "view",
      "type": "function"
    },
    {
      "inputs": [
        {
          "internalType": "uint256",
          "name": "amountIn",
          "type": "uint256"
        },
        {
          "internalType": "uint256",
          "name": "amountOutMin",
          "type": "uint256"
        },
        {
          "internalType": "address[]",
          "name": "path",
          "type": "address[]"
        },
        {
          "internalType": "address",
          "name": "",
          "type": "address"
        }
      ],
      "name": "swapExactTokensForTokens",
      "outputs": [
        {
          "internalType": "address",
          "name": "",
          "type": "address"
        },
        {
          "internalType": "address",
          "name": "",
          "type": "address"
        },
        {
          "internalType": "uint256",
          "name": "",
          "type": "uint256"
        },
        {
          "internalType": "uint256",
          "name": "",
          "type": "uint256"
        },
        {
          "internalType": "bool",
          "name": "",
          "type": "bool"
        },
        {
          "internalType": "bool",
          "name": "",
          "type": "bool"
        }
      ],
      "stateMutability": "pure",
      "type": "function"
    },
    {
      "inputs": [
        {
          "internalType": "uint256",
          "name": "amountOut",
          "type": "uint256"
        },
        {
          "internalType": "uint256",
          "name": "amountInMax",
          "type": "uint256"
        },
        {
          "internalType": "address[]",
          "name": "path",
          "type": "address[]"
        },
        {
          "internalType": "address",
          "name": "",
          "type": "address"
        }
      ],
      "name": "swapTokensForExactTokens",
      "outputs": [
        {
          "internalType": "address",
          "name": "",
          "type": "address"
        },
        {
          "internalType": "address",
          "name": "",
          "type": "address"
        },
        {
          "internalType": "uint256",
          "name": "",
          "type": "uint256"
        },
        {
          "internalType": "uint256",
          "name": "",
          "type": "uint256"
        },
        {
          "internalType": "bool",
          "name": "",
          "type": "bool"
        },
        {
          "internalType": "bool",
          "name": "",
          "type": "bool"
        }
      ],
      "stateMutability": "pure",
      "type": "function"
    },
    {
      "inputs": [],
      "name": "team",
      "outputs": [
        {
          "internalType": "address",
          "name": "",
          "type": "address"
        }
      ],
      "stateMutability": "view",
      "type": "function"
    },
    {
      "inputs": [],
      "name": "text",
      "outputs": [
        {
          "internalType": "string",
          "name": "",
          "type": "string"
        }
      ],
      "stateMutability": "view",
      "type": "function"
    },
    {
      "inputs": [
        {
          "internalType": "address",
          "name": "",
          "type": "address"
        }
      ],
      "name": "toTokensMapping",
      "outputs": [
        {
          "internalType": "bool",
          "name": "",
          "type": "bool"
        }
      ],
      "stateMutability": "view",
      "type": "function"
    },
    {
      "inputs": [],
      "name": "totalAmount",
      "outputs": [
        {
          "internalType": "uint256",
          "name": "",
          "type": "uint256"
        }
      ],
      "stateMutability": "view",
      "type": "function"
    },
    {
      "inputs": [],
      "name": "transactionType",
      "outputs": [
        {
          "internalType": "string",
          "name": "",
          "type": "string"
        }
      ],
      "stateMutability": "view",
      "type": "function"
    },
    {
      "inputs": [
        {
          "internalType": "uint256",
          "name": "",
          "type": "uint256"
        }
      ],
      "name": "transactions",
      "outputs": [
        {
          "internalType": "uint256",
          "name": "id",
          "type": "uint256"
        },
        {
          "internalType": "enum CommonBudgetApproval.Status",
          "name": "status",
          "type": "uint8"
        },
        {
          "internalType": "uint256",
          "name": "deadline",
          "type": "uint256"
        },
        {
          "internalType": "uint256",
          "name": "approvedCount",
          "type": "uint256"
        },
        {
          "internalType": "bool",
          "name": "isExist",
          "type": "bool"
        }
      ],
      "stateMutability": "view",
      "type": "function"
    },
    {
      "inputs": [
        {
          "internalType": "address",
          "name": "newImplementation",
          "type": "address"
        }
      ],
      "name": "upgradeTo",
      "outputs": [],
      "stateMutability": "nonpayable",
      "type": "function"
    },
    {
      "inputs": [
        {
          "internalType": "address",
          "name": "newImplementation",
          "type": "address"
        },
        {
          "internalType": "bytes",
          "name": "data",
          "type": "bytes"
        }
      ],
      "name": "upgradeToAndCall",
      "outputs": [],
      "stateMutability": "payable",
      "type": "function"
    },
    {
      "inputs": [],
      "name": "usageCount",
      "outputs": [
        {
          "internalType": "uint256",
          "name": "",
          "type": "uint256"
        }
      ],
      "stateMutability": "view",
      "type": "function"
    }
  ],
  "transactionHash": "0x42c55ed5e49483f3aa83ffd48ae5f349a75cb1727592bf8207c2f6b023931020",
  "args": [],
  "numDeployments": 1,
  "solcInputHash": "497d6400f821a79c58d12e63616fa963",
  "bytecode": "0x60a06040523060601b60805234801561001757600080fd5b5060805160601c6155ca6200005360003960008181610f9e01528181610fde01528181611181015281816111c1015261139901526155ca6000f3fe6080604052600436106102ff5760003560e01c8063735631ad11610190578063b18b32fb116100dc578063cf26fec611610095578063e65999fd1161006f578063e65999fd146109de578063ee22610b146109fe578063f5c0385214610a1e578063fc7a3f8b14610a3e57600080fd5b8063cf26fec61461099d578063d96c9196146109b2578063de755e2f146109c857600080fd5b8063b18b32fb146108e2578063b49612ba146108fc578063b617b3ee1461091c578063b858183f1461093d578063bc9c5e901461095d578063c34c08e51461097d57600080fd5b8063914e490911610149578063a63cee6d11610123578063a63cee6d14610820578063a734f06e14610850578063a7d69bd214610872578063ad35efd4146108a257600080fd5b8063914e49091461077f57806392a85fde1461079f5780639ace38c2146107bf57600080fd5b8063735631ad146106da57806378e97925146106fa5780637a5a0d13146107105780637cd47d9314610730578063850154371461074557806385f2aef21461075f57600080fd5b8063472b43f31161024f57806350bd881f116102085780635ad32502116101e25780635ad325021461064957806360d8bb221461066357806363d727dc146106835780636bdebe5e146106aa57600080fd5b806350bd881f146105fe57806352d1902d146106145780635aaaefad1461062957600080fd5b8063472b43f31461052c5780634c41e0e31461054c5780634f1ef2861461057b5780634fa640e71461058e5780635023b4df146105ae5780635078f67a146105ce57600080fd5b8063242232d1116102bc5780633659cfe6116102965780633659cfe6146104845780633ed38daf146104a45780634162169f146104d457806342712a671461050c57600080fd5b8063242232d11461042a5780633197cbb61461044c57806331a7bdd91461046257600080fd5b806303ff90f61461030457806304e45aaf1461032d57806306fdde031461038957806309b81346146103df5780631a39d8ef146103ff5780631f1bd69214610415575b600080fd5b34801561031057600080fd5b5061031a606d5481565b6040519081526020015b60405180910390f35b34801561033957600080fd5b5061034d6103483660046149f7565b610a5e565b604080516001600160a01b03978816815296909516602087015293850192909252606084015215156080830152151560a082015260c001610324565b34801561039557600080fd5b506103d26040518060400160405280601781526020017f556e69737761702042756467657420417070726f76616c00000000000000000081525081565b6040516103249190614d27565b3480156103eb57600080fd5b5061034d6103fa3660046149c3565b610aa0565b34801561040b57600080fd5b5061031a60795481565b34801561042157600080fd5b506103d2610b3a565b34801561043657600080fd5b5061044a610445366004614aed565b610bc8565b005b34801561045857600080fd5b5061031a60735481565b34801561046e57600080fd5b50610477610e95565b6040516103249190614cb7565b34801561049057600080fd5b5061044a61049f3660046145fb565b610f93565b3480156104b057600080fd5b5061031a6104bf366004614aed565b60009081526066602052604090206003015490565b3480156104e057600080fd5b506069546104f4906001600160a01b031681565b6040516001600160a01b039091168152602001610324565b34801561051857600080fd5b5061034d610527366004614b42565b611073565b34801561053857600080fd5b5061034d610547366004614b42565b6110f4565b34801561055857600080fd5b50607a5461056b90610100900460ff1681565b6040519015158152602001610324565b61044a6105893660046146e5565b611176565b34801561059a57600080fd5b5061034d6105a936600461478c565b611247565b3480156105ba57600080fd5b5061034d6105c93660046149f7565b61134a565b3480156105da57600080fd5b5061031a6105e9366004614aed565b60009081526066602052604090206005015490565b34801561060a57600080fd5b5061031a60715481565b34801561062057600080fd5b5061031a61138c565b34801561063557600080fd5b5061031a61064436600461480b565b61143f565b34801561065557600080fd5b5060705461056b9060ff1681565b34801561066f57600080fd5b5061031a61067e36600461480b565b6115dd565b34801561068f57600080fd5b506106986118ba565b60405160ff9091168152602001610324565b3480156106b657600080fd5b5061056b6106c53660046145fb565b606b6020526000908152604090205460ff1681565b3480156106e657600080fd5b5061044a6106f5366004614aed565b611971565b34801561070657600080fd5b5061031a60725481565b34801561071c57600080fd5b506104f461072b366004614aed565b611af9565b34801561073c57600080fd5b506103d2611b23565b34801561075157600080fd5b5060785461056b9060ff1681565b34801561076b57600080fd5b506074546104f4906001600160a01b031681565b34801561078b57600080fd5b5061031a61079a36600461486b565b611b30565b3480156107ab57600080fd5b506075546104f4906001600160a01b031681565b3480156107cb57600080fd5b5061080f6107da366004614aed565b60666020526000908152604090208054600282015460038301546005840154600690940154929360ff92831693919290911685565b60405161032495949392919061506c565b34801561082c57600080fd5b5061056b61083b3660046145fb565b60776020526000908152604090205460ff1681565b34801561085c57600080fd5b506104f460008051602061554e83398151915281565b34801561087e57600080fd5b5061056b61088d3660046145fb565b607b6020526000908152604090205460ff1681565b3480156108ae57600080fd5b506108d56108bd366004614aed565b60009081526066602052604090206002015460ff1690565b6040516103249190614d19565b3480156108ee57600080fd5b50607a546106989060ff1681565b34801561090857600080fd5b5061031a61091736600461480b565b611ce7565b34801561092857600080fd5b5060755461056b90600160a01b900460ff1681565b34801561094957600080fd5b5061034d6109583660046149c3565b611e68565b34801561096957600080fd5b5061056b6109783660046145fb565b611eb1565b34801561098957600080fd5b506067546104f4906001600160a01b031681565b3480156109a957600080fd5b5061044a611fd8565b3480156109be57600080fd5b5061031a606c5481565b3480156109d457600080fd5b5061031a60685481565b3480156109ea57600080fd5b5061034d6109f9366004614734565b6121b3565b348015610a0a57600080fd5b5061044a610a19366004614aed565b612259565b348015610a2a57600080fd5b50606a546104f4906001600160a01b031681565b348015610a4a57600080fd5b5061044a610a59366004614a13565b61265d565b60008080808080610a7260208801886145fb565b610a826040890160208a016145fb565b909890976080810135975060a0013595506000945060019350915050565b6000808080808080610af381610ab68a806150e7565b8080601f01602080910402602001604051908101604052809392919081815260200183838082843760009201919091525092939250506127af9050565b90506000610b1b6014610b068b806150e7565b610b119291506153a0565b610ab68b806150e7565b9991986060810135985060400135965060019550600094509092505050565b606e8054610b479061541d565b80601f0160208091040260200160405190810160405280929190818152602001828054610b739061541d565b8015610bc05780601f10610b9557610100808354040283529160200191610bc0565b820191906000526020600020905b815481529060010190602001808311610ba357829003601f168201915b505050505081565b336000908152606b602052604090205460ff1680610c685750607454606c54604051627eeac760e11b815233600482015260248101919091526000916001600160a01b03169062fdd58e9060440160206040518083038186803b158015610c2e57600080fd5b505afa158015610c42573d6000803e3d6000fd5b505050506040513d601f19601f82011682018060405250810190610c669190614959565b115b610cc45760405162461bcd60e51b815260206004820152602260248201527f417070726f766572206e6f742077686974656c697374656420696e2062756467604482015261195d60f21b60648201526084015b60405180910390fd5b60008181526066602052604081206002015460ff166003811115610cea57610cea615499565b1480610d1b5750600160008281526066602052604090206002015460ff166003811115610d1957610d19615499565b145b610d675760405162461bcd60e51b815260206004820152601d60248201527f556e6578706563746564207472616e73616374696f6e207374617475730000006044820152606401610cbb565b600081815260666020908152604080832033845260040190915290205460ff1615610de05760405162461bcd60e51b8152602060048201526024808201527f5472616e73616374696f6e20686173206265656e20617070726f766564206265604482015263666f726560e01b6064820152608401610cbb565b6000818152606660208181526040808420338552600481018352908420805460ff19166001179055848452919052600501805491610e1d83615452565b9091555050606d5460008281526066602052604090206005015410610e59576000818152606660205260409020600201805460ff191660011790555b604080518281523360208201527f72224bf551d1ce069c1a2440132e14e1ef15d45977e00541090a35901e527f3b91015b60405180910390a150565b6040805160038082526080820190925260609160009190816020015b6060815260200190600190039081610eb15790505090506040518060400160405280600a8152602001696164647265737320746f60b01b81525081600081518110610efe57610efe6154af565b60200260200101819052506040518060400160405280600a8152602001696279746573206461746160b01b81525081600181518110610f3f57610f3f6154af565b60200260200101819052506040518060400160405280600d81526020016c75696e743235362076616c756560981b81525081600281518110610f8357610f836154af565b6020908102919091010152919050565b306001600160a01b037f0000000000000000000000000000000000000000000000000000000000000000161415610fdc5760405162461bcd60e51b8152600401610cbb90614d3a565b7f00000000000000000000000000000000000000000000000000000000000000006001600160a01b031661102560008051602061552e833981519152546001600160a01b031690565b6001600160a01b03161461104b5760405162461bcd60e51b8152600401610cbb90614d86565b61105481612814565b6040805160008082526020820190925261107091839190612886565b50565b600080600080600080600089896000818110611091576110916154af565b90506020020160208101906110a691906145fb565b905060008a8a6110b76001826153a0565b8181106110c6576110c66154af565b90506020020160208101906110db91906145fb565b919d919c9a506001995060009850909650505050505050565b600080600080600080600089896000818110611112576111126154af565b905060200201602081019061112791906145fb565b905060008a8a6111386001826153a0565b818110611147576111476154af565b905060200201602081019061115c91906145fb565b919d919c9b9a506000995060019850909650505050505050565b306001600160a01b037f00000000000000000000000000000000000000000000000000000000000000001614156111bf5760405162461bcd60e51b8152600401610cbb90614d3a565b7f00000000000000000000000000000000000000000000000000000000000000006001600160a01b031661120860008051602061552e833981519152546001600160a01b031690565b6001600160a01b03161461122e5760405162461bcd60e51b8152600401610cbb90614d86565b61123782612814565b61124382826001612886565b5050565b600080808080806001600160a01b038a167368b3465833fb72a70ecdf485e0e4c7bd8665fc4514156112ac576000878060200190518101906112899190614837565b90506112968a8a83612a05565b949b5092995090975095509350915061133d9050565b6001600160a01b038a1660008051602061550e83398151915214156112e4576112d58989612cc7565b9298509096509450925061133d565b60405162461bcd60e51b815260206004820152602860248201527f4661696c656420746f206465636f646520556e697377617020726573756c742060448201526762797465636f646560c01b6064820152608401610cbb565b9499939850945094509450565b6000808080808061135e60208801886145fb565b61136e6040890160208a016145fb565b9098909760a081013597506080013595506001945060009350915050565b6000306001600160a01b037f0000000000000000000000000000000000000000000000000000000000000000161461142c5760405162461bcd60e51b815260206004820152603860248201527f555550535570677261646561626c653a206d757374206e6f742062652063616c60448201527f6c6564207468726f7567682064656c656761746563616c6c00000000000000006064820152608401610cbb565b5060008051602061552e83398151915290565b60006001600160a01b03831660008051602061554e833981519152148061147c57506001600160a01b03831660008051602061550e833981519152145b156114885750806115d7565b60405163bcfd032d60e01b81526001600160a01b038416600482015260008051602061554e833981519152602482015260009073f948fc3d6c2c2c866f622c79612bb4e8708883cf9063bcfd032d9060440160a06040518083038186803b1580156114f257600080fd5b505afa158015611506573d6000803e3d6000fd5b505050506040513d601f19601f8201168201806040525081019061152a9190614bac565b50505091505060008113156115d157836001600160a01b031663313ce5676040518163ffffffff1660e01b815260040160206040518083038186803b15801561157257600080fd5b505afa158015611586573d6000803e3d6000fd5b505050506040513d601f19601f820116820180604052508101906115aa9190614bfc565b6115b590600a615250565b6115bf8483615381565b6115c991906151ed565b9150506115d7565b60009150505b92915050565b6075546000906001600160a01b03848116911614156115fd5750806115d7565b6075546001600160a01b031660008051602061554e833981519152148061163c57506075546001600160a01b031660008051602061550e833981519152145b156116525761164b838361143f565b90506115d7565b6001600160a01b03831660008051602061554e833981519152148061168d57506001600160a01b03831660008051602061550e833981519152145b156116a85760755461164b906001600160a01b031683611ce7565b60755460405163d2edb6dd60e01b81526001600160a01b03909116600482015260008051602061554e833981519152602482015260009073f948fc3d6c2c2c866f622c79612bb4e8708883cf9063d2edb6dd9060440160206040518083038186803b15801561171657600080fd5b505afa15801561172a573d6000803e3d6000fd5b505050506040513d601f19601f8201168201806040525081019061174e91906149a6565b60405163d2edb6dd60e01b81526001600160a01b038616600482015260008051602061554e833981519152602482015290915060009073f948fc3d6c2c2c866f622c79612bb4e8708883cf9063d2edb6dd9060440160206040518083038186803b1580156117bb57600080fd5b505afa1580156117cf573d6000803e3d6000fd5b505050506040513d601f19601f820116820180604052508101906117f391906149a6565b9050600061180982846118046118ba565b612da3565b905060008113156118ae57856001600160a01b031663313ce5676040518163ffffffff1660e01b815260040160206040518083038186803b15801561184d57600080fd5b505afa158015611861573d6000803e3d6000fd5b505050506040513d601f19601f820116820180604052508101906118859190614bfc565b61189090600a615250565b61189a8683615381565b6118a491906151ed565b93505050506115d7565b50600095945050505050565b6075546000906001600160a01b031660008051602061554e83398151915214156118e45750601290565b607560009054906101000a90046001600160a01b03166001600160a01b031663313ce5676040518163ffffffff1660e01b815260040160206040518083038186803b15801561193257600080fd5b505afa925050508015611962575060408051601f3d908101601f1916820190925261195f91810190614bfc565b60015b61196c5750600090565b919050565b6067546001600160a01b0316331480611a0c5750607454606854604051627eeac760e11b815233600482015260248101919091526000916001600160a01b03169062fdd58e9060440160206040518083038186803b1580156119d257600080fd5b505afa1580156119e6573d6000803e3d6000fd5b505050506040513d601f19601f82011682018060405250810190611a0a9190614959565b115b611a285760405162461bcd60e51b8152600401610cbb90614eac565b600260008281526066602052604090206002015460ff166003811115611a5057611a50615499565b1415611aac5760405162461bcd60e51b815260206004820152602560248201527f5472616e73616374696f6e20686173206265656e20636f6d706c65746564206260448201526465666f726560d81b6064820152608401610cbb565b600081815260666020908152604091829020600201805460ff1916600317905590518281527f92a917be073b79ab50f9d997e9514a5d101e052ce04228014947e7883a7c03469101610e8a565b60768181548110611b0957600080fd5b6000918252602090912001546001600160a01b0316905081565b606f8054610b479061541d565b6067546000906001600160a01b0316331480611bce5750607454606854604051627eeac760e11b815233600482015260248101919091526000916001600160a01b03169062fdd58e9060440160206040518083038186803b158015611b9457600080fd5b505afa158015611ba8573d6000803e3d6000fd5b505050506040513d601f19601f82011682018060405250810190611bcc9190614959565b115b611bea5760405162461bcd60e51b8152600401610cbb90614eac565b611bf8606580546001019055565b6000611c0360655490565b6000818152606660209081526040909120828155875192935091611c2f916001840191908901906141d1565b506003810185905560068101805460ff19166001179055606d54611c6e576000828152606660205260409020600201805460ff19166001179055611c88565b6000828152606660205260409020600201805460ff191690555b60028101546040517ff7b10f12a6c66358a337baada438de41a306929aefcec529de156f2686eafd8991611cc59185918a918a9160ff1690614eee565b60405180910390a18315611cdc57611cdc82612259565b5090505b9392505050565b60006001600160a01b03831660008051602061554e8339815191521480611d2457506001600160a01b03831660008051602061550e833981519152145b15611d305750806115d7565b60405163bcfd032d60e01b81526001600160a01b038416600482015260008051602061554e833981519152602482015260009073f948fc3d6c2c2c866f622c79612bb4e8708883cf9063bcfd032d9060440160a06040518083038186803b158015611d9a57600080fd5b505afa158015611dae573d6000803e3d6000fd5b505050506040513d601f19601f82011682018060405250810190611dd29190614bac565b50505091505060008113156115d15780846001600160a01b031663313ce5676040518163ffffffff1660e01b815260040160206040518083038186803b158015611e1b57600080fd5b505afa158015611e2f573d6000803e3d6000fd5b505050506040513d601f19601f82011682018060405250810190611e539190614bfc565b611e5e90600a615250565b6115bf9085615381565b6000808080808080611e7e81610ab68a806150e7565b90506000611e916014610b068b806150e7565b919991986040810135985060600135965060009550600194509092505050565b60006001600160a01b03821660008051602061554e8339815191521480611eee57506001600160a01b03821660008051602061550e833981519152145b15611efb57506001919050565b60405163d2edb6dd60e01b81526001600160a01b038316600482015260008051602061554e833981519152602482015273f948fc3d6c2c2c866f622c79612bb4e8708883cf9063d2edb6dd9060440160206040518083038186803b158015611f6257600080fd5b505afa925050508015611f92575060408051601f3d908101601f19168201909252611f8f918101906149a6565b60015b611fcf573d808015611fc0576040519150601f19603f3d011682016040523d82523d6000602084013e611fc5565b606091505b5060009392505050565b50600192915050565b606a546001600160a01b0316331461203d5760405162461bcd60e51b815260206004820152602260248201527f4578656375746565206e6f742077686974656c697374656420696e2062756467604482015261195d60f21b6064820152608401610cbb565b6040517368b3465833fb72a70ecdf485e0e4c7bd8665fc456024820152600019604482015260009060640160408051601f198184030181529190526020810180516001600160e01b031663095ea7b360e01b179052905060005b6076548110156112435760008051602061554e8339815191526001600160a01b0316607682815481106120cc576120cc6154af565b6000918252602090912001546001600160a01b0316146121a157606a54607680546001600160a01b039092169163d3abc28b919084908110612110576121106154af565b60009182526020822001546040516001600160e01b031960e085901b168152612149926001600160a01b03909216918791600401614c83565b600060405180830381600087803b15801561216357600080fd5b505af1158015612177573d6000803e3d6000fd5b505050506040513d6000823e601f3d908101601f1916820160405261219f9190810190614972565b505b806121ab81615452565b915050612097565b600080808080806001600160a01b0389167368b3465833fb72a70ecdf485e0e4c7bd8665fc4514156121fd576121e98888613025565b949a5092985090965094509250905061224d565b6001600160a01b03891660008051602061550e8339815191521415612235576122268888612cc7565b9298509096509450925061224d565b60405162461bcd60e51b8152600401610cbb90614e20565b93975093979195509350565b8060018060008381526066602052604090206002015460ff16600381111561228357612283615499565b146122d05760405162461bcd60e51b815260206004820152601a60248201527f5472616e73616374696f6e2073746174757320696e76616c69640000000000006044820152606401610cbb565b60008381526066602052604090206003015483904211156123295760405162461bcd60e51b8152602060048201526013602482015272151c985b9cd858dd1a5bdb88195e1c1a5c9959606a1b6044820152606401610cbb565b60725442101561237b5760405162461bcd60e51b815260206004820152601f60248201527f42756467657420757361676520706572696f64206e6f742073746172746564006044820152606401610cbb565b607354156123d45760735442106123d45760405162461bcd60e51b815260206004820152601d60248201527f42756467657420757361676520706572696f642068617320656e6465640000006044820152606401610cbb565b6067546001600160a01b031633148061246f5750607454606854604051627eeac760e11b815233600482015260248101919091526000916001600160a01b03169062fdd58e9060440160206040518083038186803b15801561243557600080fd5b505afa158015612449573d6000803e3d6000fd5b505050506040513d601f19601f8201168201806040525081019061246d9190614959565b115b61248b5760405162461bcd60e51b8152600401610cbb90614eac565b60005b6000858152606660205260409020600101548110156125f95760705460ff16806124ba57506000607154115b6125065760405162461bcd60e51b815260206004820152601c60248201527f457863656564656420627564676574207573616765206c696d697420000000006044820152606401610cbb565b60705460ff16612526576071805490600061252083615406565b91905055505b600085815260666020526040902060010180546125e79187918490811061254f5761254f6154af565b9060005260206000200180546125649061541d565b80601f01602080910402602001604051908101604052809291908181526020018280546125909061541d565b80156125dd5780601f106125b2576101008083540402835291602001916125dd565b820191906000526020600020905b8154815290600101906020018083116125c057829003601f168201915b5050505050613279565b806125f181615452565b91505061248e565b50600084815260666020526040908190206002808201805460ff1916909117905590517f9060adf413860c5ab6e376e0aa4269e49a13f0853edb1583fce8129d4c756d799161264f918791600101903390614f65565b60405180910390a150505050565b600054610100900460ff166126785760005460ff161561267c565b303b155b6126985760405162461bcd60e51b8152600401610cbb90614dd2565b600054610100900460ff161580156126ba576000805461ffff19166101011790555b6126c38a6136d0565b60005b8951811015612703576126f18a82815181106126e4576126e46154af565b602002602001015161397b565b806126fb81615452565b9150506126c6565b50607a805461ff0019166101008a15150217905560005b8681101561276357612751888883818110612737576127376154af565b905060200201602081019061274c91906145fb565b613aec565b8061275b81615452565b91505061271a565b506078805460ff19908116871515179091556079859055607a805490911660ff851617905561279182613bb7565b80156127a3576000805461ff00191690555b50505050505050505050565b60006127bc8260146151a7565b835110156128045760405162461bcd60e51b8152602060048201526015602482015274746f416464726573735f6f75744f66426f756e647360581b6044820152606401610cbb565b500160200151600160601b900490565b600054610100900460ff1661282f5760005460ff1615612833565b303b155b61284f5760405162461bcd60e51b8152600401610cbb90614dd2565b600054610100900460ff16158015612871576000805461ffff19166101011790555b8015611243576000805461ff00191690555050565b7f4910fdfa16fed3260ed0e7147f7cc6da11a60208b5b9406d12a635614ffd91435460ff16156128be576128b983613c00565b505050565b826001600160a01b03166352d1902d6040518163ffffffff1660e01b815260040160206040518083038186803b1580156128f757600080fd5b505afa925050508015612927575060408051601f3d908101601f1916820190925261292491810190614959565b60015b61298a5760405162461bcd60e51b815260206004820152602e60248201527f45524331393637557067726164653a206e657720696d706c656d656e7461746960448201526d6f6e206973206e6f74205555505360901b6064820152608401610cbb565b60008051602061552e83398151915281146129f95760405162461bcd60e51b815260206004820152602960248201527f45524331393637557067726164653a20756e737570706f727465642070726f786044820152681a58589b195555525160ba1b6064820152608401610cbb565b506128b9838383613c9c565b60008080808080612a168982613cc7565b6001600160e01b031916635ae401dc60e01b14612a455760405162461bcd60e51b8152600401610cbb90614e20565b6000612a616004808c51612a5991906153a0565b8c9190613d24565b806020019051810190612a749190614b06565b91505060005b8151811015612c7457612ab06000838381518110612a9a57612a9a6154af565b6020026020010151613cc790919063ffffffff16565b6001600160e01b0319166349404b7c60e01b1415612b15576001600160a01b03871660008051602061550e833981519152148015612afa575060018251612af791906153a0565b81145b156122355760008051602061554e8339815191529650612c62565b612b2c6000838381518110612a9a57612a9a6154af565b6001600160e01b0319166312210e8a60e01b1415612b4957612c62565b6000306001600160a01b0316838381518110612b6757612b676154af565b6020026020010151604051612b7c9190614c67565b600060405180830381855afa9150503d8060008114612bb7576040519150601f19603f3d011682016040523d82523d6000602084013e612bbc565b606091505b50915050600080600080600085806020019051810190612bdc9190614618565b5094509450945094509450849d50839c5060008f8881518110612c0157612c016154af565b6020026020010151806020019051810190612c1c9190614959565b90508115612c4157612c2e818e6151a7565b9c50612c3a838d6151a7565b9b50612c5a565b612c4b848e6151a7565b9c50612c57818d6151a7565b9b505b505050505050505b80612c6c81615452565b915050612a7a565b506001600160a01b03871660008051602061550e833981519152148015612c9b5750848910155b15612cb25760008051602061554e83398151915296505b60009250600091505093975093979195509350565b6000808080612cd68682613cc7565b6001600160e01b03191663d0e30db060e01b1415612d1a575060008051602061554e833981519152925060008051602061550e833981519152915083905080612d9a565b612d25866000613cc7565b6001600160e01b031916632e1a7d4d60e01b1415612235576000612d596004808951612d5191906153a0565b899190613d24565b806020019051810190612d6c9190614959565b60008051602061550e833981519152955060008051602061554e83398151915294509250829150612d9a9050565b92959194509250565b600060ff821615801590612dbb5750601260ff831611155b612dfb5760405162461bcd60e51b8152602060048201526011602482015270496e76616c6964205f646563696d616c7360781b6044820152606401610cbb565b6000612e0b60ff8416600a615244565b90506000856001600160a01b031663feaf968c6040518163ffffffff1660e01b815260040160a06040518083038186803b158015612e4857600080fd5b505afa158015612e5c573d6000803e3d6000fd5b505050506040513d601f19601f82011682018060405250810190612e809190614bac565b5050509150506000866001600160a01b031663313ce5676040518163ffffffff1660e01b815260040160206040518083038186803b158015612ec157600080fd5b505afa158015612ed5573d6000803e3d6000fd5b505050506040513d601f19601f82011682018060405250810190612ef99190614bfc565b9050612f06828287613e30565b91506000866001600160a01b031663feaf968c6040518163ffffffff1660e01b815260040160a06040518083038186803b158015612f4357600080fd5b505afa158015612f57573d6000803e3d6000fd5b505050506040513d601f19601f82011682018060405250810190612f7b9190614bac565b5050509150506000876001600160a01b031663313ce5676040518163ffffffff1660e01b815260040160206040518083038186803b158015612fbc57600080fd5b505afa158015612fd0573d6000803e3d6000fd5b505050506040513d601f19601f82011682018060405250810190612ff49190614bfc565b9050613001828289613e30565b91508161300e86866152fc565b61301891906151bf565b9998505050505050505050565b600080808080806130368882613cc7565b6001600160e01b031916635ae401dc60e01b146130655760405162461bcd60e51b8152600401610cbb90614e20565b60006130816004808b5161307991906153a0565b8b9190613d24565b8060200190518101906130949190614b06565b91505060005b8151811015613230576130ba6000838381518110612a9a57612a9a6154af565b6001600160e01b0319166349404b7c60e01b141561311f576001600160a01b03871660008051602061550e83398151915214801561310457506001825161310191906153a0565b81145b156122355760008051602061554e833981519152965061321e565b6131366000838381518110612a9a57612a9a6154af565b6001600160e01b0319166312210e8a60e01b14156131535761321e565b6000306001600160a01b0316838381518110613171576131716154af565b60200260200101516040516131869190614c67565b600060405180830381855afa9150503d80600081146131c1576040519150601f19603f3d011682016040523d82523d6000602084013e6131c6565b606091505b50915050600080600080600080868060200190518101906131e79190614618565b955095509550955095509550859e50849d50838d61320591906151a7565b9c50613211838d6151a7565b9b50909950975050505050505b8061322881615452565b91505061309a565b506001600160a01b03871660008051602061550e8339815191521480156132575750848810155b1561326e5760008051602061554e83398151915296505b509295509295509295565b600080600083806020019051810190613292919061468c565b919450925090506001600160a01b0383167368b3465833fb72a70ecdf485e0e4c7bd8665fc4514806132da57506001600160a01b03831660008051602061550e833981519152145b6133365760405162461bcd60e51b815260206004820152602760248201527f496e76616c696420556e69737761702061646472657373206f722057455448206044820152666164647265737360c81b6064820152608401610cbb565b606a5460405163d3abc28b60e01b81526000916001600160a01b03169063d3abc28b9061336b90879087908790600401614c83565b600060405180830381600087803b15801561338557600080fd5b505af1158015613399573d6000803e3d6000fd5b505050506040513d6000823e601f3d908101601f191682016040526133c19190810190614972565b90506000806000806000806133d88a8a8a8a611247565b95509550955095509550955060006133f087866115dd565b9050821580156133fe575081155b6134565760405162461bcd60e51b815260206004820152602360248201527f556e6578706563746564207377617020726573756c742066726f6d20556e697360448201526207761760ec1b6064820152608401610cbb565b6001600160a01b03871660009081526077602052604090205460ff166134cd5760405162461bcd60e51b815260206004820152602660248201527f536f7572636520746f6b656e206e6f742077686974656c697374656420696e20604482015265189d5919d95d60d21b6064820152608401610cbb565b607a54610100900460ff16806134fb57506001600160a01b0386166000908152607b602052604090205460ff165b6135565760405162461bcd60e51b815260206004820152602660248201527f54617267657420746f6b656e206e6f742077686974656c697374656420696e20604482015265189d5919d95d60d21b6064820152608401610cbb565b60785460ff168061356957506079548111155b6135c55760405162461bcd60e51b815260206004820152602760248201527f4578636565646564206d617820627564676574207472616e7366657261626c6560448201526608185b5bdd5b9d60ca1b6064820152608401610cbb565b6135ce81613ea1565b61362e5760405162461bcd60e51b815260206004820152602b60248201527f4578636565646564206d617820627564676574207472616e7366657261626c6560448201526a2070657263656e7461676560a81b6064820152608401610cbb565b60785460ff1661365057806079600082825461364a91906153a0565b90915550505b604080518e81526001600160a01b03898116602083015288168183015260608101879052608081018690527368b3465833fb72a70ecdf485e0e4c7bd8665fc4560a082015290517f4ee767fe599c3d5646f4a96974e4fb40347ace1ee138913de27450b88e5dbe079181900360c00190a150505050505050505050505050565b600054610100900460ff166136f75760405162461bcd60e51b8152600401610cbb90614e61565b61370460208201826145fb565b606980546001600160a01b03929092166001600160a01b0319928316179055606a80549091163317905561373e60408201602083016145fb565b606780546001600160a01b0319166001600160a01b039290921691909117905561376b60c08201826150e7565b61377791606e9161422e565b5061378560e08201826150e7565b61379191606f9161422e565b5060005b6137a2606083018361509e565b905081101561388b576001606b60006137be606086018661509e565b858181106137ce576137ce6154af565b90506020020160208101906137e391906145fb565b6001600160a01b031681526020810191909152604001600020805460ff19169115159190911790557f4664777dbfbcb27de0f602e1da5d5a259992cd7edf5b29192929c96e8fd50def613839606084018461509e565b83818110613849576138496154af565b905060200201602081019061385e91906145fb565b6040516001600160a01b03909116815260200160405180910390a18061388381615452565b915050613795565b5060a0810135606d5560808101351515806138b657506138ae606082018261509e565b9050606d5411155b6138fa5760405162461bcd60e51b8152602060048201526015602482015274125b9d985b1a5908185c1c1c9bdd995c881b1a5cdd605a1b6044820152606401610cbb565b61010081013560725561012081013560735561391e6101608201610140830161493c565b6070805460ff191691151591909117905561016081013560715561394a6101a0820161018083016145fb565b607480546001600160a01b0319166001600160a01b0392909216919091179055604081013560685560800135606c55565b6001600160a01b03811660009081526077602052604090205460ff16156139f25760405162461bcd60e51b815260206004820152602560248201527f4475706c696361746564204974656d20696e20736f7572636520746f6b656e206044820152643634b9ba1760d91b6064820152608401610cbb565b6139fb81611eb1565b613a585760405162461bcd60e51b815260206004820152602860248201527f556e7265736f6c7661626c6520746f6b656e20696e20736f7572636520746f6b60448201526732b7103634b9ba1760c11b6064820152608401610cbb565b6076805460018082019092557fb5732705f5241370a28908c2fe1303cb223f03b90d857fd0573f003f79fefed40180546001600160a01b0319166001600160a01b038416908117909155600081815260776020908152604091829020805460ff1916909417909355519081527f14009112f2dcb15cad32dab6bf972d6d85286e4ae1178f27323ffe25359459e69101610e8a565b6001600160a01b0381166000908152607b602052604090205460ff1615613b635760405162461bcd60e51b815260206004820152602560248201527f4475706c69636174656420746f6b656e20696e2074617267657420746f6b656e604482015264081b1a5cdd60da1b6064820152608401610cbb565b6001600160a01b0381166000818152607b6020908152604091829020805460ff1916600117905590519182527f0df56a0b46d63ff03be79aa2e27aa9f7d6af565748bac8f4b41d6df16ba9f6189101610e8a565b600054610100900460ff16613bde5760405162461bcd60e51b8152600401610cbb90614e61565b607580546001600160a01b0319166001600160a01b0392909216919091179055565b6001600160a01b0381163b613c6d5760405162461bcd60e51b815260206004820152602d60248201527f455243313936373a206e657720696d706c656d656e746174696f6e206973206e60448201526c1bdd08184818dbdb9d1c9858dd609a1b6064820152608401610cbb565b60008051602061552e83398151915280546001600160a01b0319166001600160a01b0392909216919091179055565b613ca583614064565b600082511180613cb25750805b156128b957613cc183836140a4565b50505050565b6000613cd48260046151a7565b83511015613d1b5760405162461bcd60e51b8152602060048201526014602482015273746f4279746573345f6f75744f66426f756e647360601b6044820152606401610cbb565b50016020015190565b606081613d3281601f6151a7565b1015613d715760405162461bcd60e51b815260206004820152600e60248201526d736c6963655f6f766572666c6f7760901b6044820152606401610cbb565b613d7b82846151a7565b84511015613dbf5760405162461bcd60e51b8152602060048201526011602482015270736c6963655f6f75744f66426f756e647360781b6044820152606401610cbb565b606082158015613dde5760405191506000825260208201604052611cdc565b6040519150601f8416801560200281840101858101878315602002848b0101015b81831015613e17578051835260209283019201613dff565b5050858452601f01601f19166040525050949350505050565b60008160ff168360ff161015613e6957613e4a83836153b7565b613e589060ff16600a615244565b613e6290856152fc565b9050611ce0565b8160ff168360ff161115613e9957613e8182846153b7565b613e8f9060ff16600a615244565b613e6290856151bf565b509192915050565b607a5460009060ff1660641415613eba57506001919050565b8160005b60765481101561402e5760008051602061554e8339815191526001600160a01b031660768281548110613ef357613ef36154af565b6000918252602090912001546001600160a01b03161415613f4557606a54613f349060008051602061554e833981519152906001600160a01b0316316115dd565b613f3e90836151a7565b915061401c565b61400f60768281548110613f5b57613f5b6154af565b600091825260209091200154607680546001600160a01b039092169184908110613f8757613f876154af565b600091825260209091200154606a546040516370a0823160e01b81526001600160a01b0391821660048201529116906370a082319060240160206040518083038186803b158015613fd757600080fd5b505afa158015613feb573d6000803e3d6000fd5b505050506040513d601f19601f8201168201806040525081019061067e9190614959565b61401990836151a7565b91505b8061402681615452565b915050613ebe565b508061403d5750600092915050565b607a546064906140509060ff1683615381565b61405a91906151ed565b9092111592915050565b61406d81613c00565b6040516001600160a01b038216907fbc7cd75a20ee27fd9adebab32041f755214dbc6bffa90cc0225b39da2e5c2d3b90600090a250565b60606001600160a01b0383163b61410c5760405162461bcd60e51b815260206004820152602660248201527f416464726573733a2064656c65676174652063616c6c20746f206e6f6e2d636f6044820152651b9d1c9858dd60d21b6064820152608401610cbb565b600080846001600160a01b0316846040516141279190614c67565b600060405180830381855af49150503d8060008114614162576040519150601f19603f3d011682016040523d82523d6000602084013e614167565b606091505b509150915061418f828260405180606001604052806027815260200161556e60279139614198565b95945050505050565b606083156141a7575081611ce0565b8251156141b75782518084602001fd5b8160405162461bcd60e51b8152600401610cbb9190614d27565b82805482825590600052602060002090810192821561421e579160200282015b8281111561421e578251805161420e9184916020909101906142ae565b50916020019190600101906141f1565b5061422a929150614322565b5090565b82805461423a9061541d565b90600052602060002090601f01602090048101928261425c57600085556142a2565b82601f106142755782800160ff198235161785556142a2565b828001600101855582156142a2579182015b828111156142a2578235825591602001919060010190614287565b5061422a92915061433f565b8280546142ba9061541d565b90600052602060002090601f0160209004810192826142dc57600085556142a2565b82601f106142f557805160ff19168380011785556142a2565b828001600101855582156142a2579182015b828111156142a2578251825591602001919060010190614307565b8082111561422a5760006143368282614354565b50600101614322565b5b8082111561422a5760008155600101614340565b5080546143609061541d565b6000825580601f10614370575050565b601f016020900490600052602060002090810190611070919061433f565b803561196c816154db565b60008083601f8401126143ab57600080fd5b5081356001600160401b038111156143c257600080fd5b6020830191508360208260051b85010111156143dd57600080fd5b9250929050565b600082601f8301126143f557600080fd5b8135602061440a6144058361515d565b61512d565b80838252828201915082860187848660051b890101111561442a57600080fd5b60005b85811015614452578135614440816154db565b8452928401929084019060010161442d565b5090979650505050505050565b600082601f83011261447057600080fd5b815160206144806144058361515d565b80838252828201915082860187848660051b89010111156144a057600080fd5b6000805b868110156144e25782516001600160401b038111156144c1578283fd5b6144cf8b88838d010161454c565b86525093850193918501916001016144a4565b509198975050505050505050565b803561196c816154f0565b600082601f83011261450c57600080fd5b813561451a61440582615180565b81815284602083860101111561452f57600080fd5b816020850160208301376000918101602001919091529392505050565b600082601f83011261455d57600080fd5b815161456b61440582615180565b81815284602083860101111561458057600080fd5b6145918260208301602087016153da565b949350505050565b6000608082840312156145ab57600080fd5b50919050565b600060e082840312156145ab57600080fd5b60006101a082840312156145ab57600080fd5b803561196c816154fe565b805169ffffffffffffffffffff8116811461196c57600080fd5b60006020828403121561460d57600080fd5b8135611ce0816154db565b60008060008060008060c0878903121561463157600080fd5b865161463c816154db565b602088015190965061464d816154db565b809550506040870151935060608701519250608087015161466d816154f0565b60a088015190925061467e816154f0565b809150509295509295509295565b6000806000606084860312156146a157600080fd5b83516146ac816154db565b60208501519093506001600160401b038111156146c857600080fd5b6146d48682870161454c565b925050604084015190509250925092565b600080604083850312156146f857600080fd5b8235614703816154db565b915060208301356001600160401b0381111561471e57600080fd5b61472a858286016144fb565b9150509250929050565b60008060006060848603121561474957600080fd5b8335614754816154db565b925060208401356001600160401b0381111561476f57600080fd5b61477b868287016144fb565b925050604084013590509250925092565b600080600080608085870312156147a257600080fd5b84356147ad816154db565b935060208501356001600160401b03808211156147c957600080fd5b6147d5888389016144fb565b94506040870135935060608701359150808211156147f257600080fd5b506147ff878288016144fb565b91505092959194509250565b6000806040838503121561481e57600080fd5b8235614829816154db565b946020939093013593505050565b60006020828403121561484957600080fd5b81516001600160401b0381111561485f57600080fd5b6145918482850161445f565b60008060006060848603121561488057600080fd5b83356001600160401b038082111561489757600080fd5b818601915086601f8301126148ab57600080fd5b813560206148bb6144058361515d565b8083825282820191508286018b848660051b89010111156148db57600080fd5b6000805b86811015614916578235888111156148f5578283fd5b6149038f88838d01016144fb565b86525093850193918501916001016148df565b5091995050505087013594506149339250506040860190506144f0565b90509250925092565b60006020828403121561494e57600080fd5b8135611ce0816154f0565b60006020828403121561496b57600080fd5b5051919050565b60006020828403121561498457600080fd5b81516001600160401b0381111561499a57600080fd5b6145918482850161454c565b6000602082840312156149b857600080fd5b8151611ce0816154db565b6000602082840312156149d557600080fd5b81356001600160401b038111156149eb57600080fd5b61459184828501614599565b600060e08284031215614a0957600080fd5b611ce083836145b1565b60008060008060008060008060006101008a8c031215614a3257600080fd5b89356001600160401b0380821115614a4957600080fd5b614a558d838e016145c3565b9a5060208c0135915080821115614a6b57600080fd5b614a778d838e016143e4565b9950614a8560408d016144f0565b985060608c0135915080821115614a9b57600080fd5b50614aa88c828d01614399565b9097509550614abb905060808b016144f0565b935060a08a01359250614ad060c08b016145d6565b9150614ade60e08b0161438e565b90509295985092959850929598565b600060208284031215614aff57600080fd5b5035919050565b60008060408385031215614b1957600080fd5b8251915060208301516001600160401b03811115614b3657600080fd5b61472a8582860161445f565b600080600080600060808688031215614b5a57600080fd5b853594506020860135935060408601356001600160401b03811115614b7e57600080fd5b614b8a88828901614399565b9094509250506060860135614b9e816154db565b809150509295509295909350565b600080600080600060a08688031215614bc457600080fd5b614bcd866145e1565b9450602086015193506040860151925060608601519150614bf0608087016145e1565b90509295509295909350565b600060208284031215614c0e57600080fd5b8151611ce0816154fe565b60008151808452614c318160208601602086016153da565b601f01601f19169290920160200192915050565b60048110614c6357634e487b7160e01b600052602160045260246000fd5b9052565b60008251614c798184602087016153da565b9190910192915050565b6001600160a01b0384168152606060208201819052600090614ca790830185614c19565b9050826040830152949350505050565b6000602080830181845280855180835260408601915060408160051b870101925083870160005b82811015614d0c57603f19888603018452614cfa858351614c19565b94509285019290850190600101614cde565b5092979650505050505050565b602081016115d78284614c45565b602081526000611ce06020830184614c19565b6020808252602c908201527f46756e6374696f6e206d7573742062652063616c6c6564207468726f7567682060408201526b19195b1959d85d1958d85b1b60a21b606082015260800190565b6020808252602c908201527f46756e6374696f6e206d7573742062652063616c6c6564207468726f7567682060408201526b6163746976652070726f787960a01b606082015260800190565b6020808252602e908201527f496e697469616c697a61626c653a20636f6e747261637420697320616c72656160408201526d191e481a5b9a5d1a585b1a5e995960921b606082015260800190565b60208082526021908201527f4661696c656420746f206465636f646520556e69737761702062797465636f646040820152606560f81b606082015260800190565b6020808252602b908201527f496e697469616c697a61626c653a20636f6e7472616374206973206e6f74206960408201526a6e697469616c697a696e6760a81b606082015260800190565b60208082526022908201527f4578656375746f72206e6f742077686974656c697374656420696e2062756467604082015261195d60f21b606082015260800190565b600060808201868352602060808185015281875180845260a08601915060a08160051b870101935082890160005b82811015614f4a57609f19888703018452614f38868351614c19565b95509284019290840190600101614f1c565b505050505060408301859052905061418f6060830184614c45565b600060608201858352602060608185015281865480845260808601915060808160051b87010193506000888152838120815b8381101561504e57888703607f1901855281548390600181811c9080831680614fc157607f831692505b8a8310811415614fdf57634e487b7160e01b88526022600452602488fd5b828c5260208c01818015614ffa576001811461500b57615035565b60ff19861682528c82019650615035565b6000898152602090208a5b8681101561502f57815484820152908501908e01615016565b83019750505b50949b5050978901979490940193505050600101614f97565b5050506001600160a01b038716604087015250919250614591915050565b85815260a081016150806020830187614c45565b84604083015283606083015282151560808301529695505050505050565b6000808335601e198436030181126150b557600080fd5b8301803591506001600160401b038211156150cf57600080fd5b6020019150600581901b36038213156143dd57600080fd5b6000808335601e198436030181126150fe57600080fd5b8301803591506001600160401b0382111561511857600080fd5b6020019150368190038213156143dd57600080fd5b604051601f8201601f191681016001600160401b0381118282101715615155576151556154c5565b604052919050565b60006001600160401b03821115615176576151766154c5565b5060051b60200190565b60006001600160401b03821115615199576151996154c5565b50601f01601f191660200190565b600082198211156151ba576151ba61546d565b500190565b6000826151ce576151ce615483565b600160ff1b8214600019841416156151e8576151e861546d565b500590565b6000826151fc576151fc615483565b500490565b600181815b8085111561523c5781600019048211156152225761522261546d565b8085161561522f57918102915b93841c9390800290615206565b509250929050565b6000611ce0838361525b565b6000611ce060ff8416835b60008261526a575060016115d7565b81615277575060006115d7565b816001811461528d5760028114615297576152b3565b60019150506115d7565b60ff8411156152a8576152a861546d565b50506001821b6115d7565b5060208310610133831016604e8410600b84101617156152d6575081810a6115d7565b6152e08383615201565b80600019048211156152f4576152f461546d565b029392505050565b60006001600160ff1b03818413828413808216868404861116156153225761532261546d565b600160ff1b60008712828116878305891216156153415761534161546d565b6000871292508782058712848416161561535d5761535d61546d565b878505871281841616156153735761537361546d565b505050929093029392505050565b600081600019048311821515161561539b5761539b61546d565b500290565b6000828210156153b2576153b261546d565b500390565b600060ff821660ff8416808210156153d1576153d161546d565b90039392505050565b60005b838110156153f55781810151838201526020016153dd565b83811115613cc15750506000910152565b6000816154155761541561546d565b506000190190565b600181811c9082168061543157607f821691505b602082108114156145ab57634e487b7160e01b600052602260045260246000fd5b60006000198214156154665761546661546d565b5060010190565b634e487b7160e01b600052601160045260246000fd5b634e487b7160e01b600052601260045260246000fd5b634e487b7160e01b600052602160045260246000fd5b634e487b7160e01b600052603260045260246000fd5b634e487b7160e01b600052604160045260246000fd5b6001600160a01b038116811461107057600080fd5b801515811461107057600080fd5b60ff8116811461107057600080fdfe000000000000000000000000c778417e063141139fce010982780140aa0cd5ab360894a13ba1a3210667c828492db98dca3e2076cc3735a920a3ca505d382bbc000000000000000000000000eeeeeeeeeeeeeeeeeeeeeeeeeeeeeeeeeeeeeeee416464726573733a206c6f772d6c6576656c2064656c65676174652063616c6c206661696c6564a264697066735822122093ce8fa0f4c5cc329ae1ea6f2184e7921e72d79b3ffe9cb1c9da14d8166b57e564736f6c63430008070033",
  "devdoc": {
    "kind": "dev",
    "methods": {
      "proxiableUUID()": {
        "details": "Implementation of the ERC1822 {proxiableUUID} function. This returns the storage slot used by the implementation. It is used to validate that the this implementation remains valid after an upgrade. IMPORTANT: A proxy pointing at a proxiable contract should not be considered proxiable itself, because this risks bricking a proxy that upgrades to it, by delegating to itself until out of gas. Thus it is critical that this function revert if invoked through a proxy. This is guaranteed by the `notDelegated` modifier."
      },
      "upgradeTo(address)": {
        "details": "Upgrade the implementation of the proxy to `newImplementation`. Calls {_authorizeUpgrade}. Emits an {Upgraded} event."
      },
      "upgradeToAndCall(address,bytes)": {
        "details": "Upgrade the implementation of the proxy to `newImplementation`, and subsequently execute the function call encoded in `data`. Calls {_authorizeUpgrade}. Emits an {Upgraded} event."
      }
    },
    "version": 1
  },
  "userdoc": {
    "kind": "user",
    "methods": {},
    "version": 1
  },
  "storageLayout": {
    "storage": [
      {
        "astId": 2736,
        "contract": "contracts/UniswapBudgetApproval.sol:UniswapBudgetApproval",
        "label": "_initialized",
        "offset": 0,
        "slot": "0",
        "type": "t_bool"
      },
      {
        "astId": 2739,
        "contract": "contracts/UniswapBudgetApproval.sol:UniswapBudgetApproval",
        "label": "_initializing",
        "offset": 1,
        "slot": "0",
        "type": "t_bool"
      },
      {
        "astId": 2718,
        "contract": "contracts/UniswapBudgetApproval.sol:UniswapBudgetApproval",
        "label": "__gap",
        "offset": 0,
        "slot": "1",
        "type": "t_array(t_uint256)50_storage"
      },
      {
        "astId": 2938,
        "contract": "contracts/UniswapBudgetApproval.sol:UniswapBudgetApproval",
        "label": "__gap",
        "offset": 0,
        "slot": "51",
        "type": "t_array(t_uint256)50_storage"
      },
      {
        "astId": 21222,
        "contract": "contracts/UniswapBudgetApproval.sol:UniswapBudgetApproval",
        "label": "_transactionIds",
        "offset": 0,
        "slot": "101",
        "type": "t_struct(Counter)13987_storage"
      },
      {
        "astId": 21227,
        "contract": "contracts/UniswapBudgetApproval.sol:UniswapBudgetApproval",
        "label": "transactions",
        "offset": 0,
        "slot": "102",
        "type": "t_mapping(t_uint256,t_struct(Transaction)21172_storage)"
      },
      {
        "astId": 21232,
        "contract": "contracts/UniswapBudgetApproval.sol:UniswapBudgetApproval",
        "label": "executor",
        "offset": 0,
        "slot": "103",
        "type": "t_address"
      },
      {
        "astId": 21234,
        "contract": "contracts/UniswapBudgetApproval.sol:UniswapBudgetApproval",
        "label": "executorTeamId",
        "offset": 0,
        "slot": "104",
        "type": "t_uint256"
      },
      {
        "astId": 21236,
        "contract": "contracts/UniswapBudgetApproval.sol:UniswapBudgetApproval",
        "label": "dao",
        "offset": 0,
        "slot": "105",
        "type": "t_address_payable"
      },
      {
        "astId": 21238,
        "contract": "contracts/UniswapBudgetApproval.sol:UniswapBudgetApproval",
        "label": "executee",
        "offset": 0,
        "slot": "106",
        "type": "t_address"
      },
      {
        "astId": 21242,
        "contract": "contracts/UniswapBudgetApproval.sol:UniswapBudgetApproval",
        "label": "approversMapping",
        "offset": 0,
        "slot": "107",
        "type": "t_mapping(t_address,t_bool)"
      },
      {
        "astId": 21244,
        "contract": "contracts/UniswapBudgetApproval.sol:UniswapBudgetApproval",
        "label": "approverTeamId",
        "offset": 0,
        "slot": "108",
        "type": "t_uint256"
      },
      {
        "astId": 21246,
        "contract": "contracts/UniswapBudgetApproval.sol:UniswapBudgetApproval",
        "label": "minApproval",
        "offset": 0,
        "slot": "109",
        "type": "t_uint256"
      },
      {
        "astId": 21248,
        "contract": "contracts/UniswapBudgetApproval.sol:UniswapBudgetApproval",
        "label": "text",
        "offset": 0,
        "slot": "110",
        "type": "t_string_storage"
      },
      {
        "astId": 21250,
        "contract": "contracts/UniswapBudgetApproval.sol:UniswapBudgetApproval",
        "label": "transactionType",
        "offset": 0,
        "slot": "111",
        "type": "t_string_storage"
      },
      {
        "astId": 21252,
        "contract": "contracts/UniswapBudgetApproval.sol:UniswapBudgetApproval",
        "label": "allowUnlimitedUsageCount",
        "offset": 0,
        "slot": "112",
        "type": "t_bool"
      },
      {
        "astId": 21254,
        "contract": "contracts/UniswapBudgetApproval.sol:UniswapBudgetApproval",
        "label": "usageCount",
        "offset": 0,
        "slot": "113",
        "type": "t_uint256"
      },
      {
        "astId": 21256,
        "contract": "contracts/UniswapBudgetApproval.sol:UniswapBudgetApproval",
        "label": "startTime",
        "offset": 0,
        "slot": "114",
        "type": "t_uint256"
      },
      {
        "astId": 21258,
        "contract": "contracts/UniswapBudgetApproval.sol:UniswapBudgetApproval",
        "label": "endTime",
        "offset": 0,
        "slot": "115",
        "type": "t_uint256"
      },
      {
        "astId": 21260,
        "contract": "contracts/UniswapBudgetApproval.sol:UniswapBudgetApproval",
        "label": "team",
        "offset": 0,
        "slot": "116",
        "type": "t_address"
      },
      {
        "astId": 21895,
        "contract": "contracts/UniswapBudgetApproval.sol:UniswapBudgetApproval",
        "label": "baseCurrency",
        "offset": 0,
        "slot": "117",
        "type": "t_address"
      },
      {
        "astId": 20487,
        "contract": "contracts/UniswapBudgetApproval.sol:UniswapBudgetApproval",
        "label": "allowAllAddresses",
        "offset": 20,
        "slot": "117",
        "type": "t_bool"
      },
      {
        "astId": 20490,
        "contract": "contracts/UniswapBudgetApproval.sol:UniswapBudgetApproval",
        "label": "fromTokens",
        "offset": 0,
        "slot": "118",
        "type": "t_array(t_address)dyn_storage"
      },
      {
        "astId": 20494,
        "contract": "contracts/UniswapBudgetApproval.sol:UniswapBudgetApproval",
        "label": "fromTokensMapping",
        "offset": 0,
        "slot": "119",
        "type": "t_mapping(t_address,t_bool)"
      },
      {
        "astId": 20496,
        "contract": "contracts/UniswapBudgetApproval.sol:UniswapBudgetApproval",
        "label": "allowAnyAmount",
        "offset": 0,
        "slot": "120",
        "type": "t_bool"
      },
      {
        "astId": 20498,
        "contract": "contracts/UniswapBudgetApproval.sol:UniswapBudgetApproval",
        "label": "totalAmount",
        "offset": 0,
        "slot": "121",
        "type": "t_uint256"
      },
      {
        "astId": 20500,
        "contract": "contracts/UniswapBudgetApproval.sol:UniswapBudgetApproval",
        "label": "amountPercentage",
        "offset": 0,
        "slot": "122",
        "type": "t_uint8"
      },
      {
        "astId": 20502,
        "contract": "contracts/UniswapBudgetApproval.sol:UniswapBudgetApproval",
        "label": "allowAllToTokens",
        "offset": 1,
        "slot": "122",
        "type": "t_bool"
      },
      {
        "astId": 20506,
        "contract": "contracts/UniswapBudgetApproval.sol:UniswapBudgetApproval",
        "label": "toTokensMapping",
        "offset": 0,
        "slot": "123",
        "type": "t_mapping(t_address,t_bool)"
      }
    ],
    "types": {
      "t_address": {
        "encoding": "inplace",
        "label": "address",
        "numberOfBytes": "20"
      },
      "t_address_payable": {
        "encoding": "inplace",
        "label": "address payable",
        "numberOfBytes": "20"
      },
      "t_array(t_address)dyn_storage": {
        "base": "t_address",
        "encoding": "dynamic_array",
        "label": "address[]",
        "numberOfBytes": "32"
      },
      "t_array(t_bytes_storage)dyn_storage": {
        "base": "t_bytes_storage",
        "encoding": "dynamic_array",
        "label": "bytes[]",
        "numberOfBytes": "32"
      },
      "t_array(t_uint256)50_storage": {
        "base": "t_uint256",
        "encoding": "inplace",
        "label": "uint256[50]",
        "numberOfBytes": "1600"
      },
      "t_bool": {
        "encoding": "inplace",
        "label": "bool",
        "numberOfBytes": "1"
      },
      "t_bytes_storage": {
        "encoding": "bytes",
        "label": "bytes",
        "numberOfBytes": "32"
      },
      "t_enum(Status)21153": {
        "encoding": "inplace",
        "label": "enum CommonBudgetApproval.Status",
        "numberOfBytes": "1"
      },
      "t_mapping(t_address,t_bool)": {
        "encoding": "mapping",
        "key": "t_address",
        "label": "mapping(address => bool)",
        "numberOfBytes": "32",
        "value": "t_bool"
      },
      "t_mapping(t_uint256,t_struct(Transaction)21172_storage)": {
        "encoding": "mapping",
        "key": "t_uint256",
        "label": "mapping(uint256 => struct CommonBudgetApproval.Transaction)",
        "numberOfBytes": "32",
        "value": "t_struct(Transaction)21172_storage"
      },
      "t_string_storage": {
        "encoding": "bytes",
        "label": "string",
        "numberOfBytes": "32"
      },
      "t_struct(Counter)13987_storage": {
        "encoding": "inplace",
        "label": "struct Counters.Counter",
        "members": [
          {
            "astId": 13986,
            "contract": "contracts/UniswapBudgetApproval.sol:UniswapBudgetApproval",
            "label": "_value",
            "offset": 0,
            "slot": "0",
            "type": "t_uint256"
          }
        ],
        "numberOfBytes": "32"
      },
      "t_struct(Transaction)21172_storage": {
        "encoding": "inplace",
        "label": "struct CommonBudgetApproval.Transaction",
        "members": [
          {
            "astId": 21155,
            "contract": "contracts/UniswapBudgetApproval.sol:UniswapBudgetApproval",
            "label": "id",
            "offset": 0,
            "slot": "0",
            "type": "t_uint256"
          },
          {
            "astId": 21158,
            "contract": "contracts/UniswapBudgetApproval.sol:UniswapBudgetApproval",
            "label": "data",
            "offset": 0,
            "slot": "1",
            "type": "t_array(t_bytes_storage)dyn_storage"
          },
          {
            "astId": 21161,
            "contract": "contracts/UniswapBudgetApproval.sol:UniswapBudgetApproval",
            "label": "status",
            "offset": 0,
            "slot": "2",
            "type": "t_enum(Status)21153"
          },
          {
            "astId": 21163,
            "contract": "contracts/UniswapBudgetApproval.sol:UniswapBudgetApproval",
            "label": "deadline",
            "offset": 0,
            "slot": "3",
            "type": "t_uint256"
          },
          {
            "astId": 21167,
            "contract": "contracts/UniswapBudgetApproval.sol:UniswapBudgetApproval",
            "label": "approved",
            "offset": 0,
            "slot": "4",
            "type": "t_mapping(t_address,t_bool)"
          },
          {
            "astId": 21169,
            "contract": "contracts/UniswapBudgetApproval.sol:UniswapBudgetApproval",
            "label": "approvedCount",
            "offset": 0,
            "slot": "5",
            "type": "t_uint256"
          },
          {
            "astId": 21171,
            "contract": "contracts/UniswapBudgetApproval.sol:UniswapBudgetApproval",
            "label": "isExist",
            "offset": 0,
            "slot": "6",
            "type": "t_bool"
          }
        ],
        "numberOfBytes": "224"
      },
      "t_uint256": {
        "encoding": "inplace",
        "label": "uint256",
        "numberOfBytes": "32"
      },
      "t_uint8": {
        "encoding": "inplace",
        "label": "uint8",
        "numberOfBytes": "1"
      }
    }
  }
}